{
  "contractName": "ArraySearch",
  "abi": [
    {
      "inputs": [
        {
          "internalType": "uint256[]",
          "name": "arr",
          "type": "uint256[]"
        },
        {
          "internalType": "uint256",
          "name": "item",
          "type": "uint256"
        }
      ],
      "name": "findIndex",
      "outputs": [
        {
          "internalType": "uint256",
          "name": "",
          "type": "uint256"
        }
      ],
      "stateMutability": "pure",
      "type": "function",
      "constant": true
    }
  ],
  "bytecode": "0x6103cd610053600b82828239805160001a607314610046577f4e487b7100000000000000000000000000000000000000000000000000000000600052600060045260246000fd5b30600052607381538281f3fe73000000000000000000000000000000000000000030146080604052600436106100355760003560e01c80633d99de851461003a575b600080fd5b610054600480360381019061004f919061026b565b61006a565b60405161006191906102d6565b60405180910390f35b6000808351905060008451905060005b828110156100bc5784868281518110610096576100956102f1565b5b6020026020010151036100ab578091506100bc565b806100b59061034f565b905061007a565b50809250505092915050565b6000604051905090565b600080fd5b600080fd5b600080fd5b6000601f19601f8301169050919050565b7f4e487b7100000000000000000000000000000000000000000000000000000000600052604160045260246000fd5b61012a826100e1565b810181811067ffffffffffffffff82111715610149576101486100f2565b5b80604052505050565b600061015c6100c8565b90506101688282610121565b919050565b600067ffffffffffffffff821115610188576101876100f2565b5b602082029050602081019050919050565b600080fd5b6000819050919050565b6101b18161019e565b81146101bc57600080fd5b50565b6000813590506101ce816101a8565b92915050565b60006101e76101e28461016d565b610152565b9050808382526020820190506020840283018581111561020a57610209610199565b5b835b81811015610233578061021f88826101bf565b84526020840193505060208101905061020c565b5050509392505050565b600082601f830112610252576102516100dc565b5b81356102628482602086016101d4565b91505092915050565b60008060408385031215610282576102816100d2565b5b600083013567ffffffffffffffff8111156102a05761029f6100d7565b5b6102ac8582860161023d565b92505060206102bd858286016101bf565b9150509250929050565b6102d08161019e565b82525050565b60006020820190506102eb60008301846102c7565b92915050565b7f4e487b7100000000000000000000000000000000000000000000000000000000600052603260045260246000fd5b7f4e487b7100000000000000000000000000000000000000000000000000000000600052601160045260246000fd5b600061035a8261019e565b91507fffffffffffffffffffffffffffffffffffffffffffffffffffffffffffffffff820361038c5761038b610320565b5b60018201905091905056fea2646970667358221220fa1f2bd486e04e112add462e78577697926453d03b1ae85fd268d4bbd1501c5f64736f6c634300080d0033",
  "immutableReferences": {},
  "source": "// SPDX-License-Identifier: MIT\r\n// Tells the Solidity compiler to compile only from v0.8.13 to v0.9.0\r\npragma solidity ^0.8.13;\r\n\r\n\r\nlibrary ArraySearch {\r\n    function findIndex(uint256[] memory arr, uint256 item) public pure returns (uint256) {\r\n        uint256 len = arr.length;\r\n        uint256 res = arr.length;\r\n        \r\n        for (uint256 idx; idx < len; ++idx) {\r\n            if (arr[idx] == item) {\r\n                res = idx;\r\n                break;\r\n            }\r\n        }\r\n\r\n        return res;\r\n    }\r\n}\r\n",
  "sourcePath": "E:\\learn\\learn-to-earn\\blockchain\\contracts\\utils\\ArraySearch.sol",
  "compiler": {
    "name": "solc",
    "version": "0.8.13+commit.abaa5c0e.Emscripten.clang"
  },
  "schemaVersion": "3.4.13",
  "updatedAt": "2023-05-06T17:32:15.729Z",
  "networkType": "ethereum",
  "devdoc": {
    "kind": "dev",
    "methods": {},
    "version": 1
  },
  "userdoc": {
    "kind": "user",
    "methods": {},
    "version": 1
  }
}