{
  "contractName": "ArrayMath",
  "abi": [
    {
      "inputs": [
        {
          "internalType": "uint256[]",
          "name": "arr",
          "type": "uint256[]"
        }
      ],
      "name": "average",
      "outputs": [
        {
          "internalType": "uint256",
          "name": "",
          "type": "uint256"
        }
      ],
      "stateMutability": "pure",
      "type": "function",
      "constant": true
    }
  ],
  "bytecode": "0x610474610053600b82828239805160001a607314610046577f4e487b7100000000000000000000000000000000000000000000000000000000600052600060045260246000fd5b30600052607381538281f3fe73000000000000000000000000000000000000000030146080604052600436106100355760003560e01c8063a8606b821461003a575b600080fd5b610054600480360381019061004f919061026f565b61006a565b60405161006191906102c7565b60405180910390f35b600080825190506000805b828110156100b6578481815181106100905761008f6102e2565b5b6020026020010151826100a39190610340565b9150806100af90610396565b9050610075565b5081816100c3919061040d565b92505050919050565b6000604051905090565b600080fd5b600080fd5b600080fd5b6000601f19601f8301169050919050565b7f4e487b7100000000000000000000000000000000000000000000000000000000600052604160045260246000fd5b61012e826100e5565b810181811067ffffffffffffffff8211171561014d5761014c6100f6565b5b80604052505050565b60006101606100cc565b905061016c8282610125565b919050565b600067ffffffffffffffff82111561018c5761018b6100f6565b5b602082029050602081019050919050565b600080fd5b6000819050919050565b6101b5816101a2565b81146101c057600080fd5b50565b6000813590506101d2816101ac565b92915050565b60006101eb6101e684610171565b610156565b9050808382526020820190506020840283018581111561020e5761020d61019d565b5b835b81811015610237578061022388826101c3565b845260208401935050602081019050610210565b5050509392505050565b600082601f830112610256576102556100e0565b5b81356102668482602086016101d8565b91505092915050565b600060208284031215610285576102846100d6565b5b600082013567ffffffffffffffff8111156102a3576102a26100db565b5b6102af84828501610241565b91505092915050565b6102c1816101a2565b82525050565b60006020820190506102dc60008301846102b8565b92915050565b7f4e487b7100000000000000000000000000000000000000000000000000000000600052603260045260246000fd5b7f4e487b7100000000000000000000000000000000000000000000000000000000600052601160045260246000fd5b600061034b826101a2565b9150610356836101a2565b9250827fffffffffffffffffffffffffffffffffffffffffffffffffffffffffffffffff0382111561038b5761038a610311565b5b828201905092915050565b60006103a1826101a2565b91507fffffffffffffffffffffffffffffffffffffffffffffffffffffffffffffffff82036103d3576103d2610311565b5b600182019050919050565b7f4e487b7100000000000000000000000000000000000000000000000000000000600052601260045260246000fd5b6000610418826101a2565b9150610423836101a2565b925082610433576104326103de565b5b82820490509291505056fea26469706673582212201e1768f9790a9a05ce8afc506b4ad7162f7550e2019e041a61880ee7710325e264736f6c634300080d0033",
  "immutableReferences": {},
  "source": "// SPDX-License-Identifier: MIT\r\n// Tells the Solidity compiler to compile only from v0.8.13 to v0.9.0\r\npragma solidity ^0.8.13;\r\n\r\n\r\nlibrary ArrayMath {\r\n    function average(uint256[] memory arr) public pure returns (uint256) {\r\n        uint256 len = arr.length;\r\n        uint256 result = 0;\r\n\r\n        for (uint256 idx; idx < len; ++idx) {\r\n            result += arr[idx]; \r\n        }\r\n\r\n        return result / len;\r\n    }\r\n}\r\n",
  "sourcePath": "E:\\learn\\learn-to-earn\\blockchain\\contracts\\utils\\ArrayMath.sol",
  "compiler": {
    "name": "solc",
    "version": "0.8.13+commit.abaa5c0e.Emscripten.clang"
  },
  "schemaVersion": "3.4.13",
  "updatedAt": "2023-05-06T17:32:24.967Z",
  "networkType": "ethereum",
  "devdoc": {
    "kind": "dev",
    "methods": {},
    "version": 1
  },
  "userdoc": {
    "kind": "user",
    "methods": {},
    "version": 1
  }
}