{
  "contractName": "NftCertificates",
  "abi": [
    {
      "inputs": [
        {
          "internalType": "address",
          "name": "nftIdentities",
          "type": "address"
        },
        {
          "internalType": "address",
          "name": "nftSchool",
          "type": "address"
        },
        {
          "internalType": "address",
          "name": "nftClassRegistration",
          "type": "address"
        }
      ],
      "stateMutability": "nonpayable",
      "type": "constructor"
    },
    {
      "anonymous": false,
      "inputs": [
        {
          "indexed": true,
          "internalType": "address",
          "name": "account",
          "type": "address"
        },
        {
          "indexed": true,
          "internalType": "address",
          "name": "operator",
          "type": "address"
        },
        {
          "indexed": false,
          "internalType": "bool",
          "name": "approved",
          "type": "bool"
        }
      ],
      "name": "ApprovalForAll",
      "type": "event"
    },
    {
      "anonymous": false,
      "inputs": [
        {
          "indexed": false,
          "internalType": "uint256",
          "name": "tokenId",
          "type": "uint256"
        }
      ],
      "name": "NewCompleteCourseCreated",
      "type": "event"
    },
    {
      "anonymous": false,
      "inputs": [
        {
          "indexed": true,
          "internalType": "address",
          "name": "operator",
          "type": "address"
        },
        {
          "indexed": true,
          "internalType": "address",
          "name": "from",
          "type": "address"
        },
        {
          "indexed": true,
          "internalType": "address",
          "name": "to",
          "type": "address"
        },
        {
          "indexed": false,
          "internalType": "uint256[]",
          "name": "ids",
          "type": "uint256[]"
        },
        {
          "indexed": false,
          "internalType": "uint256[]",
          "name": "values",
          "type": "uint256[]"
        }
      ],
      "name": "TransferBatch",
      "type": "event"
    },
    {
      "anonymous": false,
      "inputs": [
        {
          "indexed": true,
          "internalType": "address",
          "name": "operator",
          "type": "address"
        },
        {
          "indexed": true,
          "internalType": "address",
          "name": "from",
          "type": "address"
        },
        {
          "indexed": true,
          "internalType": "address",
          "name": "to",
          "type": "address"
        },
        {
          "indexed": false,
          "internalType": "uint256",
          "name": "id",
          "type": "uint256"
        },
        {
          "indexed": false,
          "internalType": "uint256",
          "name": "value",
          "type": "uint256"
        }
      ],
      "name": "TransferSingle",
      "type": "event"
    },
    {
      "anonymous": false,
      "inputs": [
        {
          "indexed": false,
          "internalType": "string",
          "name": "value",
          "type": "string"
        },
        {
          "indexed": true,
          "internalType": "uint256",
          "name": "id",
          "type": "uint256"
        }
      ],
      "name": "URI",
      "type": "event"
    },
    {
      "inputs": [
        {
          "internalType": "address",
          "name": "account",
          "type": "address"
        },
        {
          "internalType": "uint256",
          "name": "id",
          "type": "uint256"
        }
      ],
      "name": "balanceOf",
      "outputs": [
        {
          "internalType": "uint256",
          "name": "",
          "type": "uint256"
        }
      ],
      "stateMutability": "view",
      "type": "function",
      "constant": true
    },
    {
      "inputs": [
        {
          "internalType": "address[]",
          "name": "accounts",
          "type": "address[]"
        },
        {
          "internalType": "uint256[]",
          "name": "ids",
          "type": "uint256[]"
        }
      ],
      "name": "balanceOfBatch",
      "outputs": [
        {
          "internalType": "uint256[]",
          "name": "",
          "type": "uint256[]"
        }
      ],
      "stateMutability": "view",
      "type": "function",
      "constant": true
    },
    {
      "inputs": [],
      "name": "graduationPrice",
      "outputs": [
        {
          "internalType": "uint256",
          "name": "",
          "type": "uint256"
        }
      ],
      "stateMutability": "view",
      "type": "function",
      "constant": true
    },
    {
      "inputs": [
        {
          "internalType": "address",
          "name": "account",
          "type": "address"
        },
        {
          "internalType": "address",
          "name": "operator",
          "type": "address"
        }
      ],
      "name": "isApprovedForAll",
      "outputs": [
        {
          "internalType": "bool",
          "name": "",
          "type": "bool"
        }
      ],
      "stateMutability": "view",
      "type": "function",
      "constant": true
    },
    {
      "inputs": [],
      "name": "registeredEndAt",
      "outputs": [
        {
          "internalType": "uint256",
          "name": "",
          "type": "uint256"
        }
      ],
      "stateMutability": "view",
      "type": "function",
      "constant": true
    },
    {
      "inputs": [],
      "name": "registeredStartAt",
      "outputs": [
        {
          "internalType": "uint256",
          "name": "",
          "type": "uint256"
        }
      ],
      "stateMutability": "view",
      "type": "function",
      "constant": true
    },
    {
      "inputs": [
        {
          "internalType": "address",
          "name": "from",
          "type": "address"
        },
        {
          "internalType": "address",
          "name": "to",
          "type": "address"
        },
        {
          "internalType": "uint256[]",
          "name": "ids",
          "type": "uint256[]"
        },
        {
          "internalType": "uint256[]",
          "name": "amounts",
          "type": "uint256[]"
        },
        {
          "internalType": "bytes",
          "name": "data",
          "type": "bytes"
        }
      ],
      "name": "safeBatchTransferFrom",
      "outputs": [],
      "stateMutability": "nonpayable",
      "type": "function"
    },
    {
      "inputs": [
        {
          "internalType": "address",
          "name": "from",
          "type": "address"
        },
        {
          "internalType": "address",
          "name": "to",
          "type": "address"
        },
        {
          "internalType": "uint256",
          "name": "id",
          "type": "uint256"
        },
        {
          "internalType": "uint256",
          "name": "amount",
          "type": "uint256"
        },
        {
          "internalType": "bytes",
          "name": "data",
          "type": "bytes"
        }
      ],
      "name": "safeTransferFrom",
      "outputs": [],
      "stateMutability": "nonpayable",
      "type": "function"
    },
    {
      "inputs": [
        {
          "internalType": "address",
          "name": "operator",
          "type": "address"
        },
        {
          "internalType": "bool",
          "name": "approved",
          "type": "bool"
        }
      ],
      "name": "setApprovalForAll",
      "outputs": [],
      "stateMutability": "nonpayable",
      "type": "function"
    },
    {
      "inputs": [
        {
          "internalType": "bytes4",
          "name": "interfaceId",
          "type": "bytes4"
        }
      ],
      "name": "supportsInterface",
      "outputs": [
        {
          "internalType": "bool",
          "name": "",
          "type": "bool"
        }
      ],
      "stateMutability": "view",
      "type": "function",
      "constant": true
    },
    {
      "inputs": [
        {
          "internalType": "uint256",
          "name": "tokenId",
          "type": "uint256"
        }
      ],
      "name": "uri",
      "outputs": [
        {
          "internalType": "string",
          "name": "",
          "type": "string"
        }
      ],
      "stateMutability": "view",
      "type": "function",
      "constant": true
    },
    {
      "inputs": [],
      "name": "yearId",
      "outputs": [
        {
          "internalType": "uint256",
          "name": "",
          "type": "uint256"
        }
      ],
      "stateMutability": "view",
      "type": "function",
      "constant": true
    },
    {
      "inputs": [],
      "name": "getOwnedNftCompleteCourse",
      "outputs": [
        {
          "components": [
            {
              "internalType": "uint256",
              "name": "tokenId",
              "type": "uint256"
            },
            {
              "internalType": "uint256",
              "name": "courseId",
              "type": "uint256"
            },
            {
              "internalType": "uint256",
              "name": "knowledgeBlockId",
              "type": "uint256"
            },
            {
              "internalType": "uint256",
              "name": "credits",
              "type": "uint256"
            },
            {
              "internalType": "uint256",
              "name": "avgScore",
              "type": "uint256"
            }
          ],
          "internalType": "struct IConstant.NftCompleteCourse[]",
          "name": "",
          "type": "tuple[]"
        },
        {
          "internalType": "string[]",
          "name": "",
          "type": "string[]"
        }
      ],
      "stateMutability": "view",
      "type": "function",
      "constant": true
    },
    {
      "inputs": [
        {
          "internalType": "uint256",
          "name": "tokenId",
          "type": "uint256"
        }
      ],
      "name": "getNftCompleteCourse",
      "outputs": [
        {
          "components": [
            {
              "internalType": "uint256",
              "name": "tokenId",
              "type": "uint256"
            },
            {
              "internalType": "uint256",
              "name": "courseId",
              "type": "uint256"
            },
            {
              "internalType": "uint256",
              "name": "knowledgeBlockId",
              "type": "uint256"
            },
            {
              "internalType": "uint256",
              "name": "credits",
              "type": "uint256"
            },
            {
              "internalType": "uint256",
              "name": "avgScore",
              "type": "uint256"
            }
          ],
          "internalType": "struct IConstant.NftCompleteCourse",
          "name": "",
          "type": "tuple"
        },
        {
          "internalType": "string",
          "name": "",
          "type": "string"
        }
      ],
      "stateMutability": "view",
      "type": "function",
      "constant": true
    },
    {
      "inputs": [],
      "name": "getOwnedNftGraduation",
      "outputs": [
        {
          "components": [
            {
              "internalType": "uint256",
              "name": "tokenId",
              "type": "uint256"
            }
          ],
          "internalType": "struct IConstant.NftGraduation",
          "name": "",
          "type": "tuple"
        },
        {
          "internalType": "string",
          "name": "",
          "type": "string"
        }
      ],
      "stateMutability": "view",
      "type": "function",
      "constant": true
    },
    {
      "inputs": [
        {
          "internalType": "uint256",
          "name": "tokenId",
          "type": "uint256"
        }
      ],
      "name": "getNftGraduation",
      "outputs": [
        {
          "components": [
            {
              "internalType": "uint256",
              "name": "tokenId",
              "type": "uint256"
            }
          ],
          "internalType": "struct IConstant.NftGraduation",
          "name": "",
          "type": "tuple"
        },
        {
          "internalType": "string",
          "name": "",
          "type": "string"
        }
      ],
      "stateMutability": "view",
      "type": "function",
      "constant": true
    },
    {
      "inputs": [
        {
          "internalType": "uint256",
          "name": "classId",
          "type": "uint256"
        },
        {
          "internalType": "uint256",
          "name": "studentTokenId",
          "type": "uint256"
        }
      ],
      "name": "checkInQueue",
      "outputs": [
        {
          "internalType": "bool",
          "name": "",
          "type": "bool"
        }
      ],
      "stateMutability": "view",
      "type": "function",
      "constant": true
    },
    {
      "inputs": [
        {
          "internalType": "uint256",
          "name": "classId",
          "type": "uint256"
        }
      ],
      "name": "getNftCompleteCourseCreationQueueByClassId",
      "outputs": [
        {
          "internalType": "uint256[]",
          "name": "",
          "type": "uint256[]"
        }
      ],
      "stateMutability": "view",
      "type": "function",
      "constant": true
    },
    {
      "inputs": [
        {
          "internalType": "uint256",
          "name": "studentTokenId",
          "type": "uint256"
        },
        {
          "internalType": "uint256",
          "name": "tokenId",
          "type": "uint256"
        }
      ],
      "name": "addToNftCompleteCourseCreationQueue",
      "outputs": [],
      "stateMutability": "nonpayable",
      "type": "function"
    },
    {
      "inputs": [
        {
          "internalType": "uint256",
          "name": "studentTokenId",
          "type": "uint256"
        },
        {
          "internalType": "uint256",
          "name": "avgScore",
          "type": "uint256"
        },
        {
          "internalType": "uint256",
          "name": "classId",
          "type": "uint256"
        },
        {
          "internalType": "string",
          "name": "tokenURI",
          "type": "string"
        }
      ],
      "name": "grantNftCompleteCourse",
      "outputs": [],
      "stateMutability": "nonpayable",
      "type": "function"
    },
    {
      "inputs": [
        {
          "internalType": "uint256[]",
          "name": "nftCompleteCourseIds",
          "type": "uint256[]"
        },
        {
          "internalType": "string",
          "name": "tokenURI",
          "type": "string"
        }
      ],
      "name": "exchangeGraduation",
      "outputs": [],
      "stateMutability": "payable",
      "type": "function",
      "payable": true
    },
    {
      "inputs": [
        {
          "internalType": "uint256",
          "name": "courseId",
          "type": "uint256"
        },
        {
          "internalType": "address",
          "name": "studentAddr",
          "type": "address"
        }
      ],
      "name": "checkCompleteCourse",
      "outputs": [
        {
          "internalType": "bool",
          "name": "",
          "type": "bool"
        }
      ],
      "stateMutability": "view",
      "type": "function",
      "constant": true
    }
  ],
  "bytecode": "0x60e060405260405180602001604052806000815250600390805190602001906200002b92919062000191565b50670de0b6b3a76400006008553480156200004557600080fd5b5060405162005a8338038062005a8383398181016040528101906200006b9190620002ab565b60405180602001604052806000815250806200008d816200017560201b60201c565b5033600560006101000a81548173ffffffffffffffffffffffffffffffffffffffff021916908373ffffffffffffffffffffffffffffffffffffffff160217905550508273ffffffffffffffffffffffffffffffffffffffff1660808173ffffffffffffffffffffffffffffffffffffffff16815250508173ffffffffffffffffffffffffffffffffffffffff1660a08173ffffffffffffffffffffffffffffffffffffffff16815250508073ffffffffffffffffffffffffffffffffffffffff1660c08173ffffffffffffffffffffffffffffffffffffffff16815250505050506200036b565b80600290805190602001906200018d92919062000191565b5050565b8280546200019f9062000336565b90600052602060002090601f016020900481019282620001c357600085556200020f565b82601f10620001de57805160ff19168380011785556200020f565b828001600101855582156200020f579182015b828111156200020e578251825591602001919060010190620001f1565b5b5090506200021e919062000222565b5090565b5b808211156200023d57600081600090555060010162000223565b5090565b600080fd5b600073ffffffffffffffffffffffffffffffffffffffff82169050919050565b6000620002738262000246565b9050919050565b620002858162000266565b81146200029157600080fd5b50565b600081519050620002a5816200027a565b92915050565b600080600060608486031215620002c757620002c662000241565b5b6000620002d78682870162000294565b9350506020620002ea8682870162000294565b9250506040620002fd8682870162000294565b9150509250925092565b7f4e487b7100000000000000000000000000000000000000000000000000000000600052602260045260246000fd5b600060028204905060018216806200034f57607f821691505b60208210810362000365576200036462000307565b5b50919050565b60805160a05160c0516156a9620003da6000396000818161073c015261193201526000818161086201528181610efb015281816111be01526119d0015260008181610905015281816109bc01528181610df40152818161142b015281816117090152611a7701526156a96000f3fe6080604052600436106101345760003560e01c80638f03802d116100ab578063df264a5e1161006f578063df264a5e14610466578063df4e489114610492578063e839227d146104bd578063e985e9c5146104e6578063ec7d2f7514610523578063f242432a1461056157610134565b80638f03802d1461037e578063a22cb465146103a9578063af0d1cb5146103d2578063b12a6115146103fd578063d86044411461042957610134565b8063111868a6116100fd578063111868a6146102445780632eb2c2d6146102605780634e1273f4146102895780636eabe75f146102c65780637a4ec7d91461030357806385c7744c1461034057610134565b8062fdd58e1461013957806301ffc9a71461017657806303ece623146101b35780630b0cda2c146101de5780630e89341c14610207575b600080fd5b34801561014557600080fd5b50610160600480360381019061015b9190613470565b61058a565b60405161016d91906134bf565b60405180910390f35b34801561018257600080fd5b5061019d60048036038101906101989190613532565b610652565b6040516101aa919061357a565b60405180910390f35b3480156101bf57600080fd5b506101c8610734565b6040516101d591906134bf565b60405180910390f35b3480156101ea57600080fd5b50610205600480360381019061020091906136db565b61073a565b005b34801561021357600080fd5b5061022e6004803603810190610229919061375e565b610cf9565b60405161023b9190613813565b60405180910390f35b61025e600480360381019061025991906138fd565b610dde565b005b34801561026c57600080fd5b5061028760048036038101906102829190613a16565b61126c565b005b34801561029557600080fd5b506102b060048036038101906102ab9190613ba8565b61130d565b6040516102bd9190613cde565b60405180910390f35b3480156102d257600080fd5b506102ed60048036038101906102e89190613d00565b611426565b6040516102fa919061357a565b60405180910390f35b34801561030f57600080fd5b5061032a60048036038101906103259190613d40565b611522565b604051610337919061357a565b60405180910390f35b34801561034c57600080fd5b506103676004803603810190610362919061375e565b611553565b604051610375929190613de8565b60405180910390f35b34801561038a57600080fd5b50610393611615565b6040516103a091906134bf565b60405180910390f35b3480156103b557600080fd5b506103d060048036038101906103cb9190613e44565b61161b565b005b3480156103de57600080fd5b506103e7611631565b6040516103f491906134bf565b60405180910390f35b34801561040957600080fd5b50610412611637565b604051610420929190613ea0565b60405180910390f35b34801561043557600080fd5b50610450600480360381019061044b919061375e565b611697565b60405161045d9190613cde565b60405180910390f35b34801561047257600080fd5b5061047b611702565b6040516104899291906140f3565b60405180910390f35b34801561049e57600080fd5b506104a7611928565b6040516104b491906134bf565b60405180910390f35b3480156104c957600080fd5b506104e460048036038101906104df9190613d40565b61192e565b005b3480156104f257600080fd5b5061050d6004803603810190610508919061412a565b611cb4565b60405161051a919061357a565b60405180910390f35b34801561052f57600080fd5b5061054a6004803603810190610545919061375e565b611d48565b604051610558929190613ea0565b60405180910390f35b34801561056d57600080fd5b506105886004803603810190610583919061416a565b611dde565b005b60008073ffffffffffffffffffffffffffffffffffffffff168373ffffffffffffffffffffffffffffffffffffffff16036105fa576040517f08c379a00000000000000000000000000000000000000000000000000000000081526004016105f190614273565b60405180910390fd5b60008083815260200190815260200160002060008473ffffffffffffffffffffffffffffffffffffffff1673ffffffffffffffffffffffffffffffffffffffff16815260200190815260200160002054905092915050565b60007fd9b67a26000000000000000000000000000000000000000000000000000000007bffffffffffffffffffffffffffffffffffffffffffffffffffffffff1916827bffffffffffffffffffffffffffffffffffffffffffffffffffffffff1916148061071d57507f0e89341c000000000000000000000000000000000000000000000000000000007bffffffffffffffffffffffffffffffffffffffffffffffffffffffff1916827bffffffffffffffffffffffffffffffffffffffffffffffffffffffff1916145b8061072d575061072c82611e7f565b5b9050919050565b60085481565b7f000000000000000000000000000000000000000000000000000000000000000073ffffffffffffffffffffffffffffffffffffffff166354c0893385846040518363ffffffff1660e01b8152600401610795929190614293565b602060405180830381865afa1580156107b2573d6000803e3d6000fd5b505050506040513d601f19601f820116820180604052508101906107d691906142d1565b610815576040517f08c379a000000000000000000000000000000000000000000000000000000000815260040161080c9061434a565b60405180910390fd5b61081f8285611522565b61085e576040517f08c379a0000000000000000000000000000000000000000000000000000000008152600401610855906143b6565b60405180910390fd5b60007f000000000000000000000000000000000000000000000000000000000000000073ffffffffffffffffffffffffffffffffffffffff166303d658e0846040518263ffffffff1660e01b81526004016108b991906134bf565b600060405180830381865afa1580156108d6573d6000803e3d6000fd5b505050506040513d6000823e3d601f19601f820116820180604052508101906108ff919061458d565b905060007f000000000000000000000000000000000000000000000000000000000000000073ffffffffffffffffffffffffffffffffffffffff166352db77c4600180811115610952576109516145d6565b5b336040518363ffffffff1660e01b8152600401610970929190614614565b600060405180830381865afa15801561098d573d6000803e3d6000fd5b505050506040513d6000823e3d601f19601f820116820180604052508101906109b6919061474a565b905060007f000000000000000000000000000000000000000000000000000000000000000073ffffffffffffffffffffffffffffffffffffffff16636352211e886040518263ffffffff1660e01b8152600401610a1391906134bf565b602060405180830381865afa158015610a30573d6000803e3d6000fd5b505050506040513d601f19601f82011682018060405250810190610a549190614793565b90508160000151600001518360e0015114610aa4576040517f08c379a0000000000000000000000000000000000000000000000000000000008152600401610a9b9061480c565b60405180910390fd5b816060015115610ae9576040517f08c379a0000000000000000000000000000000000000000000000000000000008152600401610ae090614878565b60405180910390fd5b6000610af782600587611ee9565b9050610b12818560200151866040015187608001518b611f5e565b601260008981526020019081526020016000208190806001815401808255809150506001900390600052602060002001600090919091909150556001601560008a815260200190815260200160002060008660200151815260200190815260200160002060006101000a81548160ff02191690831515021790555060006014600088815260200190815260200160002060008a815260200190815260200160002054905060006013600089815260200190815260200160002080549050905080821015610c555760136000898152602001908152602001600020600182610bf991906148c7565b81548110610c0a57610c096148fb565b5b9060005260206000200154601360008a8152602001908152602001600020600184610c3591906148c7565b81548110610c4657610c456148fb565b5b90600052602060002001819055505b60136000898152602001908152602001600020805480610c7857610c7761492a565b5b600190038181906000526020600020016000905590556014600089815260200190815260200160002060008b8152602001908152602001600020600090557fa1ce3ead8e83e3d0d7c8fba00e72fcba3265aee4a21c5886129dc80211f27d0983604051610ce591906134bf565b60405180910390a150505050505050505050565b60606000600460008481526020019081526020016000208054610d1b90614988565b80601f0160208091040260200160405190810160405280929190818152602001828054610d4790614988565b8015610d945780601f10610d6957610100808354040283529160200191610d94565b820191906000526020600020905b815481529060010190602001808311610d7757829003601f168201915b505050505090506000815111610db257610dad83612020565b610dd6565b600381604051602001610dc6929190614a89565b6040516020818303038152906040525b915050919050565b60006001811115610df257610df16145d6565b5b7f000000000000000000000000000000000000000000000000000000000000000073ffffffffffffffffffffffffffffffffffffffff166357ef1e5833836040518363ffffffff1660e01b8152600401610e4d929190614aad565b602060405180830381865afa158015610e6a573d6000803e3d6000fd5b505050506040513d601f19601f82011682018060405250810190610e8e91906142d1565b610e9757600080fd5b6008543414610ea557600080fd5b6000601660003373ffffffffffffffffffffffffffffffffffffffff1673ffffffffffffffffffffffffffffffffffffffff1681526020019081526020016000205414610ef157600080fd5b60008351905060007f000000000000000000000000000000000000000000000000000000000000000073ffffffffffffffffffffffffffffffffffffffff16635f7b9d736040518163ffffffff1660e01b8152600401600060405180830381865afa158015610f64573d6000803e3d6000fd5b505050506040513d6000823e3d601f19601f82011682018060405250810190610f8d9190614c37565b905060008151905060008167ffffffffffffffff811115610fb157610fb06135b0565b5b604051908082528060200260200182016040528015610fdf5781602001602082028036833780820191505090505b50905060008060005b8681101561112b573373ffffffffffffffffffffffffffffffffffffffff16600760006005815260200190815260200160002060008c84815181106110305761102f6148fb565b5b6020026020010151815260200190815260200160002060009054906101000a900473ffffffffffffffffffffffffffffffffffffffff1673ffffffffffffffffffffffffffffffffffffffff161461108757600080fd5b60006110ac8b838151811061109f5761109e6148fb565b5b6020026020010151611553565b5090508060600151858260400151815181106110cb576110ca6148fb565b5b602002602001018181516110df9190614c80565b915081815250508060600151846110f69190614c80565b93508060600151816080015161110c9190614cd6565b836111179190614c80565b9250508061112490614d30565b9050610fe8565b5060005b848110156111ab5785818151811061114a576111496148fb565b5b6020026020010151604001518487838151811061116a576111696148fb565b5b60200260200101516000015181518110611187576111866148fb565b5b6020026020010151101561119a57600080fd5b806111a490614d30565b905061112f565b50600082826111ba9190614da7565b90507f000000000000000000000000000000000000000000000000000000000000000073ffffffffffffffffffffffffffffffffffffffff16635fe037796040518163ffffffff1660e01b8152600401602060405180830381865afa158015611227573d6000803e3d6000fd5b505050506040513d601f19601f8201168201806040525081019061124b9190614dd8565b811161125657600080fd5b61125f896120b4565b5050505050505050505050565b61127461211b565b73ffffffffffffffffffffffffffffffffffffffff168573ffffffffffffffffffffffffffffffffffffffff1614806112ba57506112b9856112b461211b565b611cb4565b5b6112f9576040517f08c379a00000000000000000000000000000000000000000000000000000000081526004016112f090614e77565b60405180910390fd5b6113068585858585612123565b5050505050565b60608151835114611353576040517f08c379a000000000000000000000000000000000000000000000000000000000815260040161134a90614f09565b60405180910390fd5b6000835167ffffffffffffffff8111156113705761136f6135b0565b5b60405190808252806020026020018201604052801561139e5781602001602082028036833780820191505090505b50905060005b845181101561141b576113eb8582815181106113c3576113c26148fb565b5b60200260200101518583815181106113de576113dd6148fb565b5b602002602001015161058a565b8282815181106113fe576113fd6148fb565b5b6020026020010181815250508061141490614d30565b90506113a4565b508091505092915050565b6000807f000000000000000000000000000000000000000000000000000000000000000073ffffffffffffffffffffffffffffffffffffffff166352db77c460006001811115611479576114786145d6565b5b856040518363ffffffff1660e01b8152600401611497929190614614565b600060405180830381865afa1580156114b4573d6000803e3d6000fd5b505050506040513d6000823e3d601f19601f820116820180604052508101906114dd919061474a565b6000015160000151905060156000828152602001908152602001600020600085815260200190815260200160002060009054906101000a900460ff1691505092915050565b6000806014600085815260200190815260200160002060008481526020019081526020016000205411905092915050565b61155b6132e3565b60606000600f60006005815260200190815260200160002060008581526020019081526020016000205490506000811161159457600080fd5b600d6001826115a391906148c7565b815481106115b4576115b36148fb565b5b90600052602060002090600502016115cb85610cf9565b816040518060a00160405290816000820154815260200160018201548152602001600282015481526020016003820154815260200160048201548152505091509250925050915091565b600b5481565b61162d61162661211b565b8383612444565b5050565b600a5481565b61163f613312565b60606000601660003373ffffffffffffffffffffffffffffffffffffffff1673ffffffffffffffffffffffffffffffffffffffff16815260200190815260200160002054905061168e81611d48565b92509250509091565b6060601360008381526020019081526020016000208054806020026020016040519081016040528092919081815260200182805480156116f657602002820191906000526020600020905b8154815260200190600101908083116116e2575b50505050509050919050565b60608060007f000000000000000000000000000000000000000000000000000000000000000073ffffffffffffffffffffffffffffffffffffffff166352db77c460006001811115611757576117566145d6565b5b336040518363ffffffff1660e01b8152600401611775929190614614565b600060405180830381865afa158015611792573d6000803e3d6000fd5b505050506040513d6000823e3d601f19601f820116820180604052508101906117bb919061474a565b6000015160000151905060006012600083815260200190815260200160002080549050905060008167ffffffffffffffff8111156117fc576117fb6135b0565b5b60405190808252806020026020018201604052801561183557816020015b6118226132e3565b81526020019060019003908161181a5790505b50905060008267ffffffffffffffff811115611854576118536135b0565b5b60405190808252806020026020018201604052801561188757816020015b60608152602001906001900390816118725790505b50905060005b838111611919576118cc6012600087815260200190815260200160002082815481106118bc576118bb6148fb565b5b9060005260206000200154611553565b8483815181106118df576118de6148fb565b5b602002602001018484815181106118f9576118f86148fb565b5b6020026020010182905282905250508061191290614d30565b905061188d565b50818195509550505050509091565b600c5481565b60007f000000000000000000000000000000000000000000000000000000000000000073ffffffffffffffffffffffffffffffffffffffff1663a24a7c30836040518263ffffffff1660e01b815260040161198991906134bf565b606060405180830381865afa1580156119a6573d6000803e3d6000fd5b505050506040513d601f19601f820116820180604052508101906119ca9190614f8d565b905060007f000000000000000000000000000000000000000000000000000000000000000073ffffffffffffffffffffffffffffffffffffffff166303d658e083602001516040518263ffffffff1660e01b8152600401611a2b91906134bf565b600060405180830381865afa158015611a48573d6000803e3d6000fd5b505050506040513d6000823e3d601f19601f82011682018060405250810190611a71919061458d565b905060007f000000000000000000000000000000000000000000000000000000000000000073ffffffffffffffffffffffffffffffffffffffff166352db77c4600180811115611ac457611ac36145d6565b5b336040518363ffffffff1660e01b8152600401611ae2929190614614565b600060405180830381865afa158015611aff573d6000803e3d6000fd5b505050506040513d6000823e3d601f19601f82011682018060405250810190611b28919061474a565b9050806060015115611b6f576040517f08c379a0000000000000000000000000000000000000000000000000000000008152600401611b6690614878565b60405180910390fd5b8060000151600001518260e0015114611bbd576040517f08c379a0000000000000000000000000000000000000000000000000000000008152600401611bb49061480c565b60405180910390fd5b6000601460008560200151815260200190815260200160002060008781526020019081526020016000205414611c28576040517f08c379a0000000000000000000000000000000000000000000000000000000008152600401611c1f90615006565b60405180910390fd5b601360008460200151815260200190815260200160002085908060018154018082558091505060019003906000526020600020016000909190919091505560136000846020015181526020019081526020016000208054905060146000856020015181526020019081526020016000206000878152602001908152602001600020819055505050505050565b6000600160008473ffffffffffffffffffffffffffffffffffffffff1673ffffffffffffffffffffffffffffffffffffffff16815260200190815260200160002060008373ffffffffffffffffffffffffffffffffffffffff1673ffffffffffffffffffffffffffffffffffffffff16815260200190815260200160002060009054906101000a900460ff16905092915050565b611d50613312565b60606000600f600060068152602001908152602001600020600085815260200190815260200160002054905060008111611d8957600080fd5b600e600182611d9891906148c7565b81548110611da957611da86148fb565b5b90600052602060002001611dbc85610cf9565b8160405180602001604052908160008201548152505091509250925050915091565b611de661211b565b73ffffffffffffffffffffffffffffffffffffffff168573ffffffffffffffffffffffffffffffffffffffff161480611e2c5750611e2b85611e2661211b565b611cb4565b5b611e6b576040517f08c379a0000000000000000000000000000000000000000000000000000000008152600401611e6290614e77565b60405180910390fd5b611e7885858585856125b0565b5050505050565b60007f01ffc9a7000000000000000000000000000000000000000000000000000000007bffffffffffffffffffffffffffffffffffffffffffffffffffffffff1916827bffffffffffffffffffffffffffffffffffffffffffffffffffffffff1916149050919050565b600080611ef58461284b565b9050611f49858260016000368080601f016020809104026020016040519081016040528093929190818152602001838380828437600081840152601f19601f82011690508083019250505050505050612896565b611f538184612a46565b809150509392505050565b60006040518060a00160405280878152602001868152602001858152602001848152602001838152509050600d81908060018154018082558091505060019003906000526020600020906005020160009091909190915060008201518160000155602082015181600101556040820151816002015560608201518160030155608082015181600401555050600d80549050600f600060058152602001908152602001600020600088815260200190815260200160002081905550505050505050565b60606002805461202f90614988565b80601f016020809104026020016040519081016040528092919081815260200182805461205b90614988565b80156120a85780601f1061207d576101008083540402835291602001916120a8565b820191906000526020600020905b81548152906001019060200180831161208b57829003601f168201915b50505050509050919050565b6000806120c333600685611ee9565b90506120ce81612ab2565b80601660003373ffffffffffffffffffffffffffffffffffffffff1673ffffffffffffffffffffffffffffffffffffffff1681526020019081526020016000208190555080915050919050565b600033905090565b8151835114612167576040517f08c379a000000000000000000000000000000000000000000000000000000000815260040161215e90615098565b60405180910390fd5b600073ffffffffffffffffffffffffffffffffffffffff168473ffffffffffffffffffffffffffffffffffffffff16036121d6576040517f08c379a00000000000000000000000000000000000000000000000000000000081526004016121cd9061512a565b60405180910390fd5b60006121e061211b565b90506121f0818787878787612b2c565b60005b84518110156123a1576000858281518110612211576122106148fb565b5b6020026020010151905060008583815181106122305761222f6148fb565b5b60200260200101519050600080600084815260200190815260200160002060008b73ffffffffffffffffffffffffffffffffffffffff1673ffffffffffffffffffffffffffffffffffffffff168152602001908152602001600020549050818110156122d1576040517f08c379a00000000000000000000000000000000000000000000000000000000081526004016122c8906151bc565b60405180910390fd5b81810360008085815260200190815260200160002060008c73ffffffffffffffffffffffffffffffffffffffff1673ffffffffffffffffffffffffffffffffffffffff168152602001908152602001600020819055508160008085815260200190815260200160002060008b73ffffffffffffffffffffffffffffffffffffffff1673ffffffffffffffffffffffffffffffffffffffff16815260200190815260200160002060008282546123869190614c80565b925050819055505050508061239a90614d30565b90506121f3565b508473ffffffffffffffffffffffffffffffffffffffff168673ffffffffffffffffffffffffffffffffffffffff168273ffffffffffffffffffffffffffffffffffffffff167f4a39dc06d4c0dbc64b70af90fd698a233a518aa5d07e595d983b8c0526c8f7fb87876040516124189291906151dc565b60405180910390a461242e818787878787612e56565b61243c818787878787612e5e565b505050505050565b8173ffffffffffffffffffffffffffffffffffffffff168373ffffffffffffffffffffffffffffffffffffffff16036124b2576040517f08c379a00000000000000000000000000000000000000000000000000000000081526004016124a990615285565b60405180910390fd5b80600160008573ffffffffffffffffffffffffffffffffffffffff1673ffffffffffffffffffffffffffffffffffffffff16815260200190815260200160002060008473ffffffffffffffffffffffffffffffffffffffff1673ffffffffffffffffffffffffffffffffffffffff16815260200190815260200160002060006101000a81548160ff0219169083151502179055508173ffffffffffffffffffffffffffffffffffffffff168373ffffffffffffffffffffffffffffffffffffffff167f17307eab39ab6107e8899845ad3d59bd9653f200f220920489ca2b5937696c31836040516125a3919061357a565b60405180910390a3505050565b600073ffffffffffffffffffffffffffffffffffffffff168473ffffffffffffffffffffffffffffffffffffffff160361261f576040517f08c379a00000000000000000000000000000000000000000000000000000000081526004016126169061512a565b60405180910390fd5b600061262961211b565b9050600061263685613035565b9050600061264385613035565b9050612653838989858589612b2c565b600080600088815260200190815260200160002060008a73ffffffffffffffffffffffffffffffffffffffff1673ffffffffffffffffffffffffffffffffffffffff168152602001908152602001600020549050858110156126ea576040517f08c379a00000000000000000000000000000000000000000000000000000000081526004016126e1906151bc565b60405180910390fd5b85810360008089815260200190815260200160002060008b73ffffffffffffffffffffffffffffffffffffffff1673ffffffffffffffffffffffffffffffffffffffff168152602001908152602001600020819055508560008089815260200190815260200160002060008a73ffffffffffffffffffffffffffffffffffffffff1673ffffffffffffffffffffffffffffffffffffffff168152602001908152602001600020600082825461279f9190614c80565b925050819055508773ffffffffffffffffffffffffffffffffffffffff168973ffffffffffffffffffffffffffffffffffffffff168573ffffffffffffffffffffffffffffffffffffffff167fc3d58168c5ae7397731d063d5bbf3d657854427343f4c083240f7aacaa2d0f628a8a60405161281c929190614293565b60405180910390a4612832848a8a86868a612e56565b612840848a8a8a8a8a6130af565b505050505050505050565b600061286860066000848152602001908152602001600020613286565b60006128856006600085815260200190815260200160002061329c565b905080601084901b17915050919050565b600073ffffffffffffffffffffffffffffffffffffffff168473ffffffffffffffffffffffffffffffffffffffff1603612905576040517f08c379a00000000000000000000000000000000000000000000000000000000081526004016128fc90615317565b60405180910390fd5b600061290f61211b565b9050600061291c85613035565b9050600061292985613035565b905061293a83600089858589612b2c565b8460008088815260200190815260200160002060008973ffffffffffffffffffffffffffffffffffffffff1673ffffffffffffffffffffffffffffffffffffffff16815260200190815260200160002060008282546129999190614c80565b925050819055508673ffffffffffffffffffffffffffffffffffffffff16600073ffffffffffffffffffffffffffffffffffffffff168473ffffffffffffffffffffffffffffffffffffffff167fc3d58168c5ae7397731d063d5bbf3d657854427343f4c083240f7aacaa2d0f628989604051612a17929190614293565b60405180910390a4612a2e83600089858589612e56565b612a3d836000898989896130af565b50505050505050565b80600460008481526020019081526020016000209080519060200190612a6d929190613325565b50817f6bb7ff708619ba0610cba295a58592e0451dee2622938c8755667688daf3529b612a9984610cf9565b604051612aa69190613813565b60405180910390a25050565b60006040518060200160405280838152509050600e8190806001815401808255809150506001900390600052602060002001600090919091909150600082015181600001555050600e80549050600f6000600681526020019081526020016000206000848152602001908152602001600020819055505050565b612b3a8686868686866132aa565b600083519050600073ffffffffffffffffffffffffffffffffffffffff168673ffffffffffffffffffffffffffffffffffffffff1603612c3c5760005b81811015612c35576000612ba4868381518110612b9757612b966148fb565b5b60200260200101516132b2565b905086600760008381526020019081526020016000206000888581518110612bcf57612bce6148fb565b5b6020026020010151815260200190815260200160002060006101000a81548173ffffffffffffffffffffffffffffffffffffffff021916908373ffffffffffffffffffffffffffffffffffffffff1602179055505080612c2e90614d30565b9050612b77565b5050612e4e565b600073ffffffffffffffffffffffffffffffffffffffff168573ffffffffffffffffffffffffffffffffffffffff1603612d1b5760005b818111612d14576000612c9f868381518110612c9257612c916148fb565b5b60200260200101516132b2565b9050600760008281526020019081526020016000206000878481518110612cc957612cc86148fb565b5b6020026020010151815260200190815260200160002060006101000a81549073ffffffffffffffffffffffffffffffffffffffff02191690555080612d0d90614d30565b9050612c73565b5050612e4e565b600073ffffffffffffffffffffffffffffffffffffffff168673ffffffffffffffffffffffffffffffffffffffff1614158015612d855750600073ffffffffffffffffffffffffffffffffffffffff168573ffffffffffffffffffffffffffffffffffffffff1614155b15612e4c5760005b818111612e4a576000612db9868381518110612dac57612dab6148fb565b5b60200260200101516132b2565b905086600760008381526020019081526020016000206000888581518110612de457612de36148fb565b5b6020026020010151815260200190815260200160002060006101000a81548173ffffffffffffffffffffffffffffffffffffffff021916908373ffffffffffffffffffffffffffffffffffffffff1602179055505080612e4390614d30565b9050612d8d565b505b505b505050505050565b505050505050565b612e7d8473ffffffffffffffffffffffffffffffffffffffff166132c0565b1561302d578373ffffffffffffffffffffffffffffffffffffffff1663bc197c8187878686866040518663ffffffff1660e01b8152600401612ec395949392919061538c565b6020604051808303816000875af1925050508015612eff57506040513d601f19601f82011682018060405250810190612efc9190615409565b60015b612fa457612f0b615443565b806308c379a003612f675750612f1f615465565b80612f2a5750612f69565b806040517f08c379a0000000000000000000000000000000000000000000000000000000008152600401612f5e9190613813565b60405180910390fd5b505b6040517f08c379a0000000000000000000000000000000000000000000000000000000008152600401612f9b90615567565b60405180910390fd5b63bc197c8160e01b7bffffffffffffffffffffffffffffffffffffffffffffffffffffffff1916817bffffffffffffffffffffffffffffffffffffffffffffffffffffffff19161461302b576040517f08c379a0000000000000000000000000000000000000000000000000000000008152600401613022906155f9565b60405180910390fd5b505b505050505050565b60606000600167ffffffffffffffff811115613054576130536135b0565b5b6040519080825280602002602001820160405280156130825781602001602082028036833780820191505090505b509050828160008151811061309a576130996148fb565b5b60200260200101818152505080915050919050565b6130ce8473ffffffffffffffffffffffffffffffffffffffff166132c0565b1561327e578373ffffffffffffffffffffffffffffffffffffffff1663f23a6e6187878686866040518663ffffffff1660e01b8152600401613114959493929190615619565b6020604051808303816000875af192505050801561315057506040513d601f19601f8201168201806040525081019061314d9190615409565b60015b6131f55761315c615443565b806308c379a0036131b85750613170615465565b8061317b57506131ba565b806040517f08c379a00000000000000000000000000000000000000000000000000000000081526004016131af9190613813565b60405180910390fd5b505b6040517f08c379a00000000000000000000000000000000000000000000000000000000081526004016131ec90615567565b60405180910390fd5b63f23a6e6160e01b7bffffffffffffffffffffffffffffffffffffffffffffffffffffffff1916817bffffffffffffffffffffffffffffffffffffffffffffffffffffffff19161461327c576040517f08c379a0000000000000000000000000000000000000000000000000000000008152600401613273906155f9565b60405180910390fd5b505b505050505050565b6001816000016000828254019250508190555050565b600081600001549050919050565b505050505050565b6000601082901c9050919050565b6000808273ffffffffffffffffffffffffffffffffffffffff163b119050919050565b6040518060a0016040528060008152602001600081526020016000815260200160008152602001600081525090565b6040518060200160405280600081525090565b82805461333190614988565b90600052602060002090601f016020900481019282613353576000855561339a565b82601f1061336c57805160ff191683800117855561339a565b8280016001018555821561339a579182015b8281111561339957825182559160200191906001019061337e565b5b5090506133a791906133ab565b5090565b5b808211156133c45760008160009055506001016133ac565b5090565b6000604051905090565b600080fd5b600080fd5b600073ffffffffffffffffffffffffffffffffffffffff82169050919050565b6000613407826133dc565b9050919050565b613417816133fc565b811461342257600080fd5b50565b6000813590506134348161340e565b92915050565b6000819050919050565b61344d8161343a565b811461345857600080fd5b50565b60008135905061346a81613444565b92915050565b60008060408385031215613487576134866133d2565b5b600061349585828601613425565b92505060206134a68582860161345b565b9150509250929050565b6134b98161343a565b82525050565b60006020820190506134d460008301846134b0565b92915050565b60007fffffffff0000000000000000000000000000000000000000000000000000000082169050919050565b61350f816134da565b811461351a57600080fd5b50565b60008135905061352c81613506565b92915050565b600060208284031215613548576135476133d2565b5b60006135568482850161351d565b91505092915050565b60008115159050919050565b6135748161355f565b82525050565b600060208201905061358f600083018461356b565b92915050565b600080fd5b600080fd5b6000601f19601f8301169050919050565b7f4e487b7100000000000000000000000000000000000000000000000000000000600052604160045260246000fd5b6135e88261359f565b810181811067ffffffffffffffff82111715613607576136066135b0565b5b80604052505050565b600061361a6133c8565b905061362682826135df565b919050565b600067ffffffffffffffff821115613646576136456135b0565b5b61364f8261359f565b9050602081019050919050565b82818337600083830152505050565b600061367e6136798461362b565b613610565b90508281526020810184848401111561369a5761369961359a565b5b6136a584828561365c565b509392505050565b600082601f8301126136c2576136c1613595565b5b81356136d284826020860161366b565b91505092915050565b600080600080608085870312156136f5576136f46133d2565b5b60006137038782880161345b565b94505060206137148782880161345b565b93505060406137258782880161345b565b925050606085013567ffffffffffffffff811115613746576137456133d7565b5b613752878288016136ad565b91505092959194509250565b600060208284031215613774576137736133d2565b5b60006137828482850161345b565b91505092915050565b600081519050919050565b600082825260208201905092915050565b60005b838110156137c55780820151818401526020810190506137aa565b838111156137d4576000848401525b50505050565b60006137e58261378b565b6137ef8185613796565b93506137ff8185602086016137a7565b6138088161359f565b840191505092915050565b6000602082019050818103600083015261382d81846137da565b905092915050565b600067ffffffffffffffff8211156138505761384f6135b0565b5b602082029050602081019050919050565b600080fd5b600061387961387484613835565b613610565b9050808382526020820190506020840283018581111561389c5761389b613861565b5b835b818110156138c557806138b1888261345b565b84526020840193505060208101905061389e565b5050509392505050565b600082601f8301126138e4576138e3613595565b5b81356138f4848260208601613866565b91505092915050565b60008060408385031215613914576139136133d2565b5b600083013567ffffffffffffffff811115613932576139316133d7565b5b61393e858286016138cf565b925050602083013567ffffffffffffffff81111561395f5761395e6133d7565b5b61396b858286016136ad565b9150509250929050565b600067ffffffffffffffff8211156139905761398f6135b0565b5b6139998261359f565b9050602081019050919050565b60006139b96139b484613975565b613610565b9050828152602081018484840111156139d5576139d461359a565b5b6139e084828561365c565b509392505050565b600082601f8301126139fd576139fc613595565b5b8135613a0d8482602086016139a6565b91505092915050565b600080600080600060a08688031215613a3257613a316133d2565b5b6000613a4088828901613425565b9550506020613a5188828901613425565b945050604086013567ffffffffffffffff811115613a7257613a716133d7565b5b613a7e888289016138cf565b935050606086013567ffffffffffffffff811115613a9f57613a9e6133d7565b5b613aab888289016138cf565b925050608086013567ffffffffffffffff811115613acc57613acb6133d7565b5b613ad8888289016139e8565b9150509295509295909350565b600067ffffffffffffffff821115613b0057613aff6135b0565b5b602082029050602081019050919050565b6000613b24613b1f84613ae5565b613610565b90508083825260208201905060208402830185811115613b4757613b46613861565b5b835b81811015613b705780613b5c8882613425565b845260208401935050602081019050613b49565b5050509392505050565b600082601f830112613b8f57613b8e613595565b5b8135613b9f848260208601613b11565b91505092915050565b60008060408385031215613bbf57613bbe6133d2565b5b600083013567ffffffffffffffff811115613bdd57613bdc6133d7565b5b613be985828601613b7a565b925050602083013567ffffffffffffffff811115613c0a57613c096133d7565b5b613c16858286016138cf565b9150509250929050565b600081519050919050565b600082825260208201905092915050565b6000819050602082019050919050565b613c558161343a565b82525050565b6000613c678383613c4c565b60208301905092915050565b6000602082019050919050565b6000613c8b82613c20565b613c958185613c2b565b9350613ca083613c3c565b8060005b83811015613cd1578151613cb88882613c5b565b9750613cc383613c73565b925050600181019050613ca4565b5085935050505092915050565b60006020820190508181036000830152613cf88184613c80565b905092915050565b60008060408385031215613d1757613d166133d2565b5b6000613d258582860161345b565b9250506020613d3685828601613425565b9150509250929050565b60008060408385031215613d5757613d566133d2565b5b6000613d658582860161345b565b9250506020613d768582860161345b565b9150509250929050565b60a082016000820151613d966000850182613c4c565b506020820151613da96020850182613c4c565b506040820151613dbc6040850182613c4c565b506060820151613dcf6060850182613c4c565b506080820151613de26080850182613c4c565b50505050565b600060c082019050613dfd6000830185613d80565b81810360a0830152613e0f81846137da565b90509392505050565b613e218161355f565b8114613e2c57600080fd5b50565b600081359050613e3e81613e18565b92915050565b60008060408385031215613e5b57613e5a6133d2565b5b6000613e6985828601613425565b9250506020613e7a85828601613e2f565b9150509250929050565b602082016000820151613e9a6000850182613c4c565b50505050565b6000604082019050613eb56000830185613e84565b8181036020830152613ec781846137da565b90509392505050565b600081519050919050565b600082825260208201905092915050565b6000819050602082019050919050565b60a082016000820151613f126000850182613c4c565b506020820151613f256020850182613c4c565b506040820151613f386040850182613c4c565b506060820151613f4b6060850182613c4c565b506080820151613f5e6080850182613c4c565b50505050565b6000613f708383613efc565b60a08301905092915050565b6000602082019050919050565b6000613f9482613ed0565b613f9e8185613edb565b9350613fa983613eec565b8060005b83811015613fda578151613fc18882613f64565b9750613fcc83613f7c565b925050600181019050613fad565b5085935050505092915050565b600081519050919050565b600082825260208201905092915050565b6000819050602082019050919050565b600082825260208201905092915050565b600061402f8261378b565b6140398185614013565b93506140498185602086016137a7565b6140528161359f565b840191505092915050565b60006140698383614024565b905092915050565b6000602082019050919050565b600061408982613fe7565b6140938185613ff2565b9350836020820285016140a585614003565b8060005b858110156140e157848403895281516140c2858261405d565b94506140cd83614071565b925060208a019950506001810190506140a9565b50829750879550505050505092915050565b6000604082019050818103600083015261410d8185613f89565b90508181036020830152614121818461407e565b90509392505050565b60008060408385031215614141576141406133d2565b5b600061414f85828601613425565b925050602061416085828601613425565b9150509250929050565b600080600080600060a08688031215614186576141856133d2565b5b600061419488828901613425565b95505060206141a588828901613425565b94505060406141b68882890161345b565b93505060606141c78882890161345b565b925050608086013567ffffffffffffffff8111156141e8576141e76133d7565b5b6141f4888289016139e8565b9150509295509295909350565b7f455243313135353a2061646472657373207a65726f206973206e6f742061207660008201527f616c6964206f776e657200000000000000000000000000000000000000000000602082015250565b600061425d602a83613796565b915061426882614201565b604082019050919050565b6000602082019050818103600083015261428c81614250565b9050919050565b60006040820190506142a860008301856134b0565b6142b560208301846134b0565b9392505050565b6000815190506142cb81613e18565b92915050565b6000602082840312156142e7576142e66133d2565b5b60006142f5848285016142bc565b91505092915050565b7f6e6f742072656761696e65640000000000000000000000000000000000000000600082015250565b6000614334600c83613796565b915061433f826142fe565b602082019050919050565b6000602082019050818103600083015261436381614327565b9050919050565b7f6e6f7420696e2071756575650000000000000000000000000000000000000000600082015250565b60006143a0600c83613796565b91506143ab8261436a565b602082019050919050565b600060208201905081810360008301526143cf81614393565b9050919050565b600080fd5b600080fd5b6000815190506143ef81613444565b92915050565b60006144086144038461362b565b613610565b9050828152602081018484840111156144245761442361359a565b5b61442f8482856137a7565b509392505050565b600082601f83011261444c5761444b613595565b5b815161445c8482602086016143f5565b91505092915050565b6000610160828403121561447c5761447b6143d6565b5b614487610160613610565b90506000614497848285016143e0565b60008301525060206144ab848285016143e0565b60208301525060406144bf848285016143e0565b60408301525060606144d3848285016143e0565b60608301525060806144e7848285016143e0565b60808301525060a06144fb848285016143e0565b60a08301525060c061450f848285016143e0565b60c08301525060e0614523848285016143e0565b60e083015250610100614538848285016143e0565b6101008301525061012061454e848285016143e0565b6101208301525061014082015167ffffffffffffffff811115614574576145736143db565b5b61458084828501614437565b6101408301525092915050565b6000602082840312156145a3576145a26133d2565b5b600082015167ffffffffffffffff8111156145c1576145c06133d7565b5b6145cd84828501614465565b91505092915050565b7f4e487b7100000000000000000000000000000000000000000000000000000000600052602160045260246000fd5b61460e816133fc565b82525050565b600060408201905061462960008301856134b0565b6146366020830184614605565b9392505050565b60008151905061464c8161340e565b92915050565b600060608284031215614668576146676143d6565b5b6146726060613610565b90506000614682848285016143e0565b60008301525060206146968482850161463d565b60208301525060406146aa848285016143e0565b60408301525092915050565b600060c082840312156146cc576146cb6143d6565b5b6146d66080613610565b905060006146e684828501614652565b600083015250606082015167ffffffffffffffff81111561470a576147096143db565b5b61471684828501614437565b602083015250608061472a848285016143e0565b60408301525060a061473e848285016142bc565b60608301525092915050565b6000602082840312156147605761475f6133d2565b5b600082015167ffffffffffffffff81111561477e5761477d6133d7565b5b61478a848285016146b6565b91505092915050565b6000602082840312156147a9576147a86133d2565b5b60006147b78482850161463d565b91505092915050565b7f6e6f742074656163686572000000000000000000000000000000000000000000600082015250565b60006147f6600b83613796565b9150614801826147c0565b602082019050919050565b60006020820190508181036000830152614825816147e9565b9050919050565b7f6578706972656400000000000000000000000000000000000000000000000000600082015250565b6000614862600783613796565b915061486d8261482c565b602082019050919050565b6000602082019050818103600083015261489181614855565b9050919050565b7f4e487b7100000000000000000000000000000000000000000000000000000000600052601160045260246000fd5b60006148d28261343a565b91506148dd8361343a565b9250828210156148f0576148ef614898565b5b828203905092915050565b7f4e487b7100000000000000000000000000000000000000000000000000000000600052603260045260246000fd5b7f4e487b7100000000000000000000000000000000000000000000000000000000600052603160045260246000fd5b7f4e487b7100000000000000000000000000000000000000000000000000000000600052602260045260246000fd5b600060028204905060018216806149a057607f821691505b6020821081036149b3576149b2614959565b5b50919050565b600081905092915050565b60008190508160005260206000209050919050565b600081546149e681614988565b6149f081866149b9565b94506001821660008114614a0b5760018114614a1c57614a4f565b60ff19831686528186019350614a4f565b614a25856149c4565b60005b83811015614a4757815481890152600182019150602081019050614a28565b838801955050505b50505092915050565b6000614a638261378b565b614a6d81856149b9565b9350614a7d8185602086016137a7565b80840191505092915050565b6000614a9582856149d9565b9150614aa18284614a58565b91508190509392505050565b6000604082019050614ac26000830185614605565b614acf60208301846134b0565b9392505050565b600067ffffffffffffffff821115614af157614af06135b0565b5b602082029050602081019050919050565b600060608284031215614b1857614b176143d6565b5b614b226060613610565b90506000614b32848285016143e0565b600083015250602082015167ffffffffffffffff811115614b5657614b556143db565b5b614b6284828501614437565b6020830152506040614b76848285016143e0565b60408301525092915050565b6000614b95614b9084614ad6565b613610565b90508083825260208201905060208402830185811115614bb857614bb7613861565b5b835b81811015614bff57805167ffffffffffffffff811115614bdd57614bdc613595565b5b808601614bea8982614b02565b85526020850194505050602081019050614bba565b5050509392505050565b600082601f830112614c1e57614c1d613595565b5b8151614c2e848260208601614b82565b91505092915050565b600060208284031215614c4d57614c4c6133d2565b5b600082015167ffffffffffffffff811115614c6b57614c6a6133d7565b5b614c7784828501614c09565b91505092915050565b6000614c8b8261343a565b9150614c968361343a565b9250827fffffffffffffffffffffffffffffffffffffffffffffffffffffffffffffffff03821115614ccb57614cca614898565b5b828201905092915050565b6000614ce18261343a565b9150614cec8361343a565b9250817fffffffffffffffffffffffffffffffffffffffffffffffffffffffffffffffff0483118215151615614d2557614d24614898565b5b828202905092915050565b6000614d3b8261343a565b91507fffffffffffffffffffffffffffffffffffffffffffffffffffffffffffffffff8203614d6d57614d6c614898565b5b600182019050919050565b7f4e487b7100000000000000000000000000000000000000000000000000000000600052601260045260246000fd5b6000614db28261343a565b9150614dbd8361343a565b925082614dcd57614dcc614d78565b5b828204905092915050565b600060208284031215614dee57614ded6133d2565b5b6000614dfc848285016143e0565b91505092915050565b7f455243313135353a2063616c6c6572206973206e6f7420746f6b656e206f776e60008201527f6572206f7220617070726f766564000000000000000000000000000000000000602082015250565b6000614e61602e83613796565b9150614e6c82614e05565b604082019050919050565b60006020820190508181036000830152614e9081614e54565b9050919050565b7f455243313135353a206163636f756e747320616e6420696473206c656e67746860008201527f206d69736d617463680000000000000000000000000000000000000000000000602082015250565b6000614ef3602983613796565b9150614efe82614e97565b604082019050919050565b60006020820190508181036000830152614f2281614ee6565b9050919050565b600060608284031215614f3f57614f3e6143d6565b5b614f496060613610565b90506000614f59848285016143e0565b6000830152506020614f6d848285016143e0565b6020830152506040614f81848285016143e0565b60408301525092915050565b600060608284031215614fa357614fa26133d2565b5b6000614fb184828501614f29565b91505092915050565b7f63757272656e7420696e20717565756500000000000000000000000000000000600082015250565b6000614ff0601083613796565b9150614ffb82614fba565b602082019050919050565b6000602082019050818103600083015261501f81614fe3565b9050919050565b7f455243313135353a2069647320616e6420616d6f756e7473206c656e6774682060008201527f6d69736d61746368000000000000000000000000000000000000000000000000602082015250565b6000615082602883613796565b915061508d82615026565b604082019050919050565b600060208201905081810360008301526150b181615075565b9050919050565b7f455243313135353a207472616e7366657220746f20746865207a65726f20616460008201527f6472657373000000000000000000000000000000000000000000000000000000602082015250565b6000615114602583613796565b915061511f826150b8565b604082019050919050565b6000602082019050818103600083015261514381615107565b9050919050565b7f455243313135353a20696e73756666696369656e742062616c616e636520666f60008201527f72207472616e7366657200000000000000000000000000000000000000000000602082015250565b60006151a6602a83613796565b91506151b18261514a565b604082019050919050565b600060208201905081810360008301526151d581615199565b9050919050565b600060408201905081810360008301526151f68185613c80565b9050818103602083015261520a8184613c80565b90509392505050565b7f455243313135353a2073657474696e6720617070726f76616c2073746174757360008201527f20666f722073656c660000000000000000000000000000000000000000000000602082015250565b600061526f602983613796565b915061527a82615213565b604082019050919050565b6000602082019050818103600083015261529e81615262565b9050919050565b7f455243313135353a206d696e7420746f20746865207a65726f2061646472657360008201527f7300000000000000000000000000000000000000000000000000000000000000602082015250565b6000615301602183613796565b915061530c826152a5565b604082019050919050565b60006020820190508181036000830152615330816152f4565b9050919050565b600081519050919050565b600082825260208201905092915050565b600061535e82615337565b6153688185615342565b93506153788185602086016137a7565b6153818161359f565b840191505092915050565b600060a0820190506153a16000830188614605565b6153ae6020830187614605565b81810360408301526153c08186613c80565b905081810360608301526153d48185613c80565b905081810360808301526153e88184615353565b90509695505050505050565b60008151905061540381613506565b92915050565b60006020828403121561541f5761541e6133d2565b5b600061542d848285016153f4565b91505092915050565b60008160e01c9050919050565b600060033d11156154625760046000803e61545f600051615436565b90505b90565b600060443d106154f2576154776133c8565b60043d036004823e80513d602482011167ffffffffffffffff8211171561549f5750506154f2565b808201805167ffffffffffffffff8111156154bd57505050506154f2565b80602083010160043d0385018111156154da5750505050506154f2565b6154e9826020018501866135df565b82955050505050505b90565b7f455243313135353a207472616e7366657220746f206e6f6e2d4552433131353560008201527f526563656976657220696d706c656d656e746572000000000000000000000000602082015250565b6000615551603483613796565b915061555c826154f5565b604082019050919050565b6000602082019050818103600083015261558081615544565b9050919050565b7f455243313135353a204552433131353552656365697665722072656a6563746560008201527f6420746f6b656e73000000000000000000000000000000000000000000000000602082015250565b60006155e3602883613796565b91506155ee82615587565b604082019050919050565b60006020820190508181036000830152615612816155d6565b9050919050565b600060a08201905061562e6000830188614605565b61563b6020830187614605565b61564860408301866134b0565b61565560608301856134b0565b81810360808301526156678184615353565b9050969550505050505056fea26469706673582212204aabb454c7dac9e64ad38796c0a24b9e5fca7f793cc74ab5edb4def60877f39e64736f6c634300080d0033",
  "immutableReferences": {
    "4727": [
      {
        "length": 32,
        "start": 2309
      },
      {
        "length": 32,
        "start": 2492
      },
      {
        "length": 32,
        "start": 3572
      },
      {
        "length": 32,
        "start": 5163
      },
      {
        "length": 32,
        "start": 5897
      },
      {
        "length": 32,
        "start": 6775
      }
    ],
    "4730": [
      {
        "length": 32,
        "start": 2146
      },
      {
        "length": 32,
        "start": 3835
      },
      {
        "length": 32,
        "start": 4542
      },
      {
        "length": 32,
        "start": 6608
      }
    ],
    "4733": [
      {
        "length": 32,
        "start": 1852
      },
      {
        "length": 32,
        "start": 6450
      }
    ]
  },
  "source": "// SPDX-License-Identifier: MIT\r\n// Tells the Solidity compiler to compile only from v0.8.13 to v0.9.0\r\npragma solidity ^0.8.13;\r\n\r\nimport \"./ERC1155BaseContract.sol\";\r\nimport \"./interfaces/INftClassRegistration.sol\";\r\nimport \"./interfaces/INftSchool.sol\";\r\nimport \"./interfaces/INftCertificates.sol\";\r\nimport \"./interfaces/INftIdentities.sol\";\r\nimport \"./utils/ArrayMath.sol\";\r\n\r\n/*\r\n    - Register class -> NftScoreboard\r\n    - Exchange Nft Complete Course\r\n    - Exchange Nft Graduation\r\n*/\r\ncontract NftCertificates is ERC1155BaseContract, INftCertificates {\r\n    using Counters for Counters.Counter;\r\n    using ArrayMath for uint256[];\r\n    uint256 constant NFT_CLASS = 3;\r\n    uint256 constant NFT_SCORE_BOARD = 4;\r\n    uint256 constant NFT_COMPLETE_COURSE = 5;\r\n    uint256 constant NFT_GRADUATION = 6;\r\n\r\n    uint256 public graduationPrice = 1 ether;\r\n\r\n    string[] private courseURIs;\r\n\r\n    INftIdentities private immutable _nftIdentities;\r\n    INftSchool private immutable _nftSchool;\r\n    INftClassRegistration private immutable _nftClassRegistration;\r\n\r\n    uint256 public registeredStartAt;\r\n    uint256 public registeredEndAt;\r\n    uint256 public yearId;\r\n\r\n    NftCompleteCourse[] private _allNftCompleteCourses;\r\n    NftGraduation[] private _allNftGraduations;\r\n    mapping(uint256 => mapping(uint256 => uint256)) _posOfTokenIdOfNftType;\r\n\r\n    mapping(uint256 => uint256[]) _studentsOfClass;\r\n    mapping(uint256 => mapping(uint256 => uint256)) _posOfStudentInClass;\r\n    mapping(uint256 => uint256[]) private _studentOwnedCompleteCourseNfts;\r\n\r\n    mapping(uint256 => uint256[]) _nftCompleteCourseQueue;\r\n    mapping(uint256 => mapping(uint256 => uint256)) _posOfStudentInQueue;\r\n\r\n    mapping(uint256 => mapping(uint256 => bool))\r\n        private _completedCoursesOfStudent;\r\n    mapping(address => uint256) private _studentOwnedNftGraduation;\r\n\r\n    event NewCompleteCourseCreated(uint256 tokenId);\r\n\r\n    modifier onlyOwner() {\r\n        require(_owner == msg.sender);\r\n        _;\r\n    }\r\n\r\n    modifier onlyNftSchoolContract() {\r\n        require(msg.sender == address(_nftSchool));\r\n        _;\r\n    }\r\n\r\n    modifier canOperate(uint256 role) {\r\n        require(_nftIdentities.isAbleToOperate(msg.sender, role));\r\n        _;\r\n    }\r\n\r\n    constructor(\r\n        address nftIdentities,\r\n        address nftSchool,\r\n        address nftClassRegistration\r\n    ) ERC1155BaseContract(\"\") {\r\n        _nftIdentities = INftIdentities(nftIdentities);\r\n        _nftSchool = INftSchool(nftSchool);\r\n        _nftClassRegistration = INftClassRegistration(nftClassRegistration);\r\n    }\r\n\r\n    /*\r\n        Initialize requirement before any operation in the system including\r\n        - Requirement\r\n        - Course template\r\n    */\r\n\r\n    // (everyone)\r\n    function getOwnedNftCompleteCourse()\r\n        external\r\n        view\r\n        returns (NftCompleteCourse[] memory, string[] memory)\r\n    {\r\n        uint256 studentTokenId = _nftIdentities\r\n            .getNftOfMemberWithRole(uint256(ROLE.STUDENT), msg.sender)\r\n            .nftIdentity\r\n            .tokenId;\r\n        uint256 numberOfNftCompleteCourses = _studentOwnedCompleteCourseNfts[\r\n            studentTokenId\r\n        ].length;\r\n\r\n        NftCompleteCourse[] memory nfts = new NftCompleteCourse[](\r\n            numberOfNftCompleteCourses\r\n        );\r\n        string[] memory nftURIs = new string[](numberOfNftCompleteCourses);\r\n\r\n        for (uint256 idx = 0; idx <= numberOfNftCompleteCourses; ++idx) {\r\n            (nfts[idx], nftURIs[idx]) = getNftCompleteCourse(\r\n                _studentOwnedCompleteCourseNfts[studentTokenId][idx]\r\n            );\r\n        }\r\n\r\n        return (nfts, nftURIs);\r\n    }\r\n\r\n    function getNftCompleteCourse(\r\n        uint256 tokenId\r\n    ) public view returns (NftCompleteCourse memory, string memory) {\r\n        uint256 pos = _posOfTokenIdOfNftType[NFT_COMPLETE_COURSE][tokenId];\r\n        require(pos > 0);\r\n\r\n        return (_allNftCompleteCourses[pos - 1], uri(tokenId));\r\n    }\r\n\r\n    function getOwnedNftGraduation()\r\n        external\r\n        view\r\n        returns (NftGraduation memory, string memory)\r\n    {\r\n        uint256 tokenId = _studentOwnedNftGraduation[msg.sender];\r\n\r\n        return getNftGraduation(tokenId);\r\n    }\r\n\r\n    function getNftGraduation(\r\n        uint256 tokenId\r\n    ) public view returns (NftGraduation memory, string memory) {\r\n        uint256 pos = _posOfTokenIdOfNftType[NFT_GRADUATION][tokenId];\r\n        require(pos > 0);\r\n\r\n        return (_allNftGraduations[pos - 1], uri(tokenId));\r\n    }\r\n\r\n    // Nft Complete Course Section: Start\r\n    // depositNftClassRegistration group by classId\r\n    // getDepositedNftClassRegistration\r\n    // updateScoreAndGrantCourseComplete -> burnNftClassRegistration\r\n\r\n    // deposit all courseCompletes and documents to validate\r\n    // validate (off-chain) -> grantNftGraduation (1 groups or 1 person?)\r\n    // if 1 group, who is enough permission to create this group?\r\n\r\n    function checkInQueue(\r\n        uint256 classId,\r\n        uint256 studentTokenId\r\n    ) public view returns (bool) {\r\n        return _posOfStudentInQueue[classId][studentTokenId] > 0;\r\n    }\r\n\r\n    function getNftCompleteCourseCreationQueueByClassId(\r\n        uint256 classId\r\n    ) public view returns (uint256[] memory) {\r\n        return _nftCompleteCourseQueue[classId];\r\n    }\r\n\r\n    function addToNftCompleteCourseCreationQueue(\r\n        uint256 studentTokenId,\r\n        uint256 tokenId\r\n    ) public {\r\n        NftClassRegistration memory nftClassRegistration = _nftClassRegistration\r\n            .getNftClassRegistration(tokenId);\r\n        Class memory class = _nftSchool.getClassById(\r\n            nftClassRegistration.classId\r\n        );\r\n        NftIdentityResponse memory nftIdentityResponse = _nftIdentities\r\n            .getNftOfMemberWithRole(uint256(ROLE.TEACHER), msg.sender);\r\n        require(!nftIdentityResponse.isExpired, \"expired\");\r\n        require(\r\n            class.teacherTokenId == nftIdentityResponse.nftIdentity.tokenId,\r\n            \"not teacher\"\r\n        );\r\n        require(\r\n            _posOfStudentInQueue[nftClassRegistration.classId][\r\n                studentTokenId\r\n            ] == 0,\r\n            \"current in queue\"\r\n        );\r\n        _nftCompleteCourseQueue[nftClassRegistration.classId].push(\r\n            studentTokenId\r\n        );\r\n        _posOfStudentInQueue[nftClassRegistration.classId][\r\n            studentTokenId\r\n        ] = _nftCompleteCourseQueue[nftClassRegistration.classId].length;\r\n    }\r\n\r\n    function grantNftCompleteCourse(\r\n        uint256 studentTokenId,\r\n        uint256 avgScore,\r\n        uint256 classId,\r\n        string memory tokenURI\r\n    ) public {\r\n        require(\r\n            _nftClassRegistration.checkNftClassRegistrationRegained(\r\n                studentTokenId,\r\n                classId\r\n            ),\r\n            \"not regained\"\r\n        );\r\n        require(checkInQueue(classId, studentTokenId), \"not in queue\");\r\n        Class memory class = _nftSchool.getClassById(classId);\r\n        NftIdentityResponse memory nftIdentityResponse = _nftIdentities\r\n            .getNftOfMemberWithRole(uint256(ROLE.TEACHER), msg.sender);\r\n        address studentAddr = _nftIdentities.ownerOf(studentTokenId);\r\n        require(\r\n            class.teacherTokenId == nftIdentityResponse.nftIdentity.tokenId,\r\n            \"not teacher\"\r\n        );\r\n        require(!nftIdentityResponse.isExpired, \"expired\");\r\n        uint256 tokenId = _mintToken(\r\n            studentAddr,\r\n            NFT_COMPLETE_COURSE,\r\n            tokenURI\r\n        );\r\n        _createNftCompleteCourse(\r\n            tokenId,\r\n            class.courseId,\r\n            class.knowledgeBlockId,\r\n            class.credits,\r\n            avgScore\r\n        );\r\n        _studentOwnedCompleteCourseNfts[studentTokenId].push(tokenId);\r\n        _completedCoursesOfStudent[studentTokenId][class.courseId] = true;\r\n        uint256 pos = _posOfStudentInQueue[classId][studentTokenId];\r\n        uint256 length = _nftCompleteCourseQueue[classId].length;\r\n        if (pos < length) {\r\n            _nftCompleteCourseQueue[classId][pos - 1] = _nftCompleteCourseQueue[\r\n                classId\r\n            ][length - 1];\r\n        }\r\n        _nftCompleteCourseQueue[classId].pop();\r\n        delete _posOfStudentInQueue[classId][studentTokenId];\r\n        emit NewCompleteCourseCreated(tokenId);\r\n    }\r\n\r\n    function _createNftCompleteCourse(\r\n        uint256 tokenId,\r\n        uint256 courseId,\r\n        uint256 knowledgeBlockId,\r\n        uint256 credits,\r\n        uint256 score\r\n    ) private {\r\n        NftCompleteCourse memory nftCompleteCourse = NftCompleteCourse(\r\n            tokenId,\r\n            courseId,\r\n            knowledgeBlockId,\r\n            credits,\r\n            score\r\n        );\r\n        _allNftCompleteCourses.push(nftCompleteCourse);\r\n        _posOfTokenIdOfNftType[NFT_COMPLETE_COURSE][\r\n            tokenId\r\n        ] = _allNftCompleteCourses.length;\r\n    }\r\n\r\n    // Nft Complete Course Section: End\r\n\r\n    function exchangeGraduation(\r\n        uint256[] memory nftCompleteCourseIds,\r\n        string memory tokenURI\r\n    ) public payable canOperate(uint256(ROLE.STUDENT)) {\r\n        require(msg.value == graduationPrice);\r\n        require(_studentOwnedNftGraduation[msg.sender] == 0);\r\n        uint256 numOfCompleteCourses = nftCompleteCourseIds.length;\r\n        KnowledgeBlock[] memory knowledgeBlocks = _nftSchool\r\n            .getAllKnowledgeBlocks();\r\n        uint256 numOfKnowledgeBlocks = knowledgeBlocks.length;\r\n        uint256[] memory acquiredCreditsByKnowledgeBlockId = new uint256[](\r\n            numOfKnowledgeBlocks\r\n        );\r\n        uint256 acquiredCredits;\r\n        uint256 totalScore;\r\n\r\n        for (uint256 idx = 0; idx < numOfCompleteCourses; ++idx) {\r\n            if (\r\n                _ownerOfNft[NFT_COMPLETE_COURSE][nftCompleteCourseIds[idx]] !=\r\n                msg.sender\r\n            ) {\r\n                revert();\r\n            }\r\n            // _TODO: Check duplicate course\r\n            (\r\n                NftCompleteCourse memory nftCompleteCourse,\r\n\r\n            ) = getNftCompleteCourse(nftCompleteCourseIds[idx]);\r\n            acquiredCreditsByKnowledgeBlockId[\r\n                nftCompleteCourse.knowledgeBlockId\r\n            ] += nftCompleteCourse.credits;\r\n            acquiredCredits += nftCompleteCourse.credits;\r\n            totalScore += (nftCompleteCourse.avgScore *\r\n                nftCompleteCourse.credits);\r\n        }\r\n\r\n        for (uint256 idx = 0; idx < numOfKnowledgeBlocks; ++idx) {\r\n            if (\r\n                acquiredCreditsByKnowledgeBlockId[knowledgeBlocks[idx].id] <\r\n                knowledgeBlocks[idx].credits\r\n            ) {\r\n                // If not enough credits of this knowledge block, revert\r\n                revert();\r\n            }\r\n        }\r\n\r\n        uint256 avgScore = totalScore / acquiredCredits;\r\n        if (avgScore <= _nftSchool.minimumGraduationScore()) {\r\n            revert();\r\n        }\r\n\r\n        _mintNftGraduation(tokenURI);\r\n    }\r\n\r\n    function checkCompleteCourse(\r\n        uint256 courseId,\r\n        address studentAddr\r\n    ) public view returns (bool) {\r\n        uint256 studentTokenId = _nftIdentities\r\n            .getNftOfMemberWithRole(uint256(ROLE.STUDENT), studentAddr)\r\n            .nftIdentity\r\n            .tokenId;\r\n        return _completedCoursesOfStudent[studentTokenId][courseId];\r\n    }\r\n\r\n    // (everyone)\r\n\r\n    // onlyOwner\r\n    function _mintNftGraduation(\r\n        string memory tokenURI\r\n    ) private returns (uint256) {\r\n        uint256 tokenId = _mintToken(msg.sender, NFT_GRADUATION, tokenURI);\r\n        _createNftGraduation(tokenId);\r\n        _studentOwnedNftGraduation[msg.sender] = tokenId;\r\n\r\n        return tokenId;\r\n    }\r\n\r\n    function _createNftGraduation(uint256 tokenId) private {\r\n        NftGraduation memory nftGraduation = NftGraduation(tokenId);\r\n        _allNftGraduations.push(nftGraduation);\r\n        _posOfTokenIdOfNftType[NFT_GRADUATION][tokenId] = _allNftGraduations\r\n            .length;\r\n    }\r\n}\r\n",
  "sourcePath": "E:\\learn\\learn-to-earn\\blockchain\\contracts\\NftCertificates.sol",
  "compiler": {
    "name": "solc",
    "version": "0.8.13+commit.abaa5c0e.Emscripten.clang"
  },
  "schemaVersion": "3.4.13",
  "updatedAt": "2023-05-28T15:04:40.340Z",
  "networkType": "ethereum",
  "devdoc": {
    "kind": "dev",
    "methods": {
      "balanceOf(address,uint256)": {
        "details": "See {IERC1155-balanceOf}. Requirements: - `account` cannot be the zero address."
      },
      "balanceOfBatch(address[],uint256[])": {
        "details": "See {IERC1155-balanceOfBatch}. Requirements: - `accounts` and `ids` must have the same length."
      },
      "isApprovedForAll(address,address)": {
        "details": "See {IERC1155-isApprovedForAll}."
      },
      "safeBatchTransferFrom(address,address,uint256[],uint256[],bytes)": {
        "details": "See {IERC1155-safeBatchTransferFrom}."
      },
      "safeTransferFrom(address,address,uint256,uint256,bytes)": {
        "details": "See {IERC1155-safeTransferFrom}."
      },
      "setApprovalForAll(address,bool)": {
        "details": "See {IERC1155-setApprovalForAll}."
      },
      "supportsInterface(bytes4)": {
        "details": "See {IERC165-supportsInterface}."
      },
      "uri(uint256)": {
        "details": "See {IERC1155MetadataURI-uri}. This implementation returns the concatenation of the `_baseURI` and the token-specific uri if the latter is set This enables the following behaviors: - if `_tokenURIs[tokenId]` is set, then the result is the concatenation   of `_baseURI` and `_tokenURIs[tokenId]` (keep in mind that `_baseURI`   is empty per default); - if `_tokenURIs[tokenId]` is NOT set then we fallback to `super.uri()`   which in most cases will contain `ERC1155._uri`; - if `_tokenURIs[tokenId]` is NOT set, and if the parents do not have a   uri value set, then the result is empty."
      }
    },
    "version": 1
  },
  "userdoc": {
    "kind": "user",
    "methods": {},
    "version": 1
  }
}