{
  "contractName": "NftClassRegistration",
  "abi": [
    {
      "inputs": [
        {
          "internalType": "address",
          "name": "nftIdentities",
          "type": "address"
        },
        {
          "internalType": "address",
          "name": "nftSchool",
          "type": "address"
        }
      ],
      "stateMutability": "nonpayable",
      "type": "constructor"
    },
    {
      "anonymous": false,
      "inputs": [
        {
          "indexed": true,
          "internalType": "address",
          "name": "owner",
          "type": "address"
        },
        {
          "indexed": true,
          "internalType": "address",
          "name": "approved",
          "type": "address"
        },
        {
          "indexed": true,
          "internalType": "uint256",
          "name": "tokenId",
          "type": "uint256"
        }
      ],
      "name": "Approval",
      "type": "event"
    },
    {
      "anonymous": false,
      "inputs": [
        {
          "indexed": true,
          "internalType": "address",
          "name": "owner",
          "type": "address"
        },
        {
          "indexed": true,
          "internalType": "address",
          "name": "operator",
          "type": "address"
        },
        {
          "indexed": false,
          "internalType": "bool",
          "name": "approved",
          "type": "bool"
        }
      ],
      "name": "ApprovalForAll",
      "type": "event"
    },
    {
      "anonymous": false,
      "inputs": [
        {
          "indexed": false,
          "internalType": "uint256",
          "name": "classId",
          "type": "uint256"
        }
      ],
      "name": "ClassRegistrationRegained",
      "type": "event"
    },
    {
      "anonymous": false,
      "inputs": [
        {
          "indexed": false,
          "internalType": "uint256",
          "name": "classId",
          "type": "uint256"
        }
      ],
      "name": "NewClassRegistrationCreated",
      "type": "event"
    },
    {
      "anonymous": false,
      "inputs": [
        {
          "indexed": true,
          "internalType": "address",
          "name": "from",
          "type": "address"
        },
        {
          "indexed": true,
          "internalType": "address",
          "name": "to",
          "type": "address"
        },
        {
          "indexed": true,
          "internalType": "uint256",
          "name": "tokenId",
          "type": "uint256"
        }
      ],
      "name": "Transfer",
      "type": "event"
    },
    {
      "inputs": [
        {
          "internalType": "address",
          "name": "to",
          "type": "address"
        },
        {
          "internalType": "uint256",
          "name": "tokenId",
          "type": "uint256"
        }
      ],
      "name": "approve",
      "outputs": [],
      "stateMutability": "nonpayable",
      "type": "function"
    },
    {
      "inputs": [
        {
          "internalType": "address",
          "name": "owner",
          "type": "address"
        }
      ],
      "name": "balanceOf",
      "outputs": [
        {
          "internalType": "uint256",
          "name": "",
          "type": "uint256"
        }
      ],
      "stateMutability": "view",
      "type": "function",
      "constant": true
    },
    {
      "inputs": [
        {
          "internalType": "uint256",
          "name": "tokenId",
          "type": "uint256"
        }
      ],
      "name": "getApproved",
      "outputs": [
        {
          "internalType": "address",
          "name": "",
          "type": "address"
        }
      ],
      "stateMutability": "view",
      "type": "function",
      "constant": true
    },
    {
      "inputs": [
        {
          "internalType": "address",
          "name": "owner",
          "type": "address"
        },
        {
          "internalType": "address",
          "name": "operator",
          "type": "address"
        }
      ],
      "name": "isApprovedForAll",
      "outputs": [
        {
          "internalType": "bool",
          "name": "",
          "type": "bool"
        }
      ],
      "stateMutability": "view",
      "type": "function",
      "constant": true
    },
    {
      "inputs": [],
      "name": "name",
      "outputs": [
        {
          "internalType": "string",
          "name": "",
          "type": "string"
        }
      ],
      "stateMutability": "view",
      "type": "function",
      "constant": true
    },
    {
      "inputs": [
        {
          "internalType": "uint256",
          "name": "tokenId",
          "type": "uint256"
        }
      ],
      "name": "ownerOf",
      "outputs": [
        {
          "internalType": "address",
          "name": "",
          "type": "address"
        }
      ],
      "stateMutability": "view",
      "type": "function",
      "constant": true
    },
    {
      "inputs": [
        {
          "internalType": "address",
          "name": "from",
          "type": "address"
        },
        {
          "internalType": "address",
          "name": "to",
          "type": "address"
        },
        {
          "internalType": "uint256",
          "name": "tokenId",
          "type": "uint256"
        }
      ],
      "name": "safeTransferFrom",
      "outputs": [],
      "stateMutability": "nonpayable",
      "type": "function"
    },
    {
      "inputs": [
        {
          "internalType": "address",
          "name": "from",
          "type": "address"
        },
        {
          "internalType": "address",
          "name": "to",
          "type": "address"
        },
        {
          "internalType": "uint256",
          "name": "tokenId",
          "type": "uint256"
        },
        {
          "internalType": "bytes",
          "name": "data",
          "type": "bytes"
        }
      ],
      "name": "safeTransferFrom",
      "outputs": [],
      "stateMutability": "nonpayable",
      "type": "function"
    },
    {
      "inputs": [
        {
          "internalType": "address",
          "name": "operator",
          "type": "address"
        },
        {
          "internalType": "bool",
          "name": "approved",
          "type": "bool"
        }
      ],
      "name": "setApprovalForAll",
      "outputs": [],
      "stateMutability": "nonpayable",
      "type": "function"
    },
    {
      "inputs": [
        {
          "internalType": "bytes4",
          "name": "interfaceId",
          "type": "bytes4"
        }
      ],
      "name": "supportsInterface",
      "outputs": [
        {
          "internalType": "bool",
          "name": "",
          "type": "bool"
        }
      ],
      "stateMutability": "view",
      "type": "function",
      "constant": true
    },
    {
      "inputs": [],
      "name": "symbol",
      "outputs": [
        {
          "internalType": "string",
          "name": "",
          "type": "string"
        }
      ],
      "stateMutability": "view",
      "type": "function",
      "constant": true
    },
    {
      "inputs": [
        {
          "internalType": "uint256",
          "name": "tokenId",
          "type": "uint256"
        }
      ],
      "name": "tokenURI",
      "outputs": [
        {
          "internalType": "string",
          "name": "",
          "type": "string"
        }
      ],
      "stateMutability": "view",
      "type": "function",
      "constant": true
    },
    {
      "inputs": [
        {
          "internalType": "address",
          "name": "from",
          "type": "address"
        },
        {
          "internalType": "address",
          "name": "to",
          "type": "address"
        },
        {
          "internalType": "uint256",
          "name": "tokenId",
          "type": "uint256"
        }
      ],
      "name": "transferFrom",
      "outputs": [],
      "stateMutability": "nonpayable",
      "type": "function"
    },
    {
      "inputs": [
        {
          "internalType": "address",
          "name": "nftCertificates",
          "type": "address"
        }
      ],
      "name": "initialize",
      "outputs": [],
      "stateMutability": "nonpayable",
      "type": "function"
    },
    {
      "inputs": [],
      "name": "getRegistereClasses",
      "outputs": [
        {
          "components": [
            {
              "internalType": "uint256",
              "name": "tokenId",
              "type": "uint256"
            },
            {
              "internalType": "uint256",
              "name": "classId",
              "type": "uint256"
            },
            {
              "internalType": "uint256",
              "name": "studentTokenId",
              "type": "uint256"
            }
          ],
          "internalType": "struct IConstant.NftClassRegistration[]",
          "name": "",
          "type": "tuple[]"
        }
      ],
      "stateMutability": "view",
      "type": "function",
      "constant": true
    },
    {
      "inputs": [
        {
          "internalType": "uint256",
          "name": "tokenId",
          "type": "uint256"
        }
      ],
      "name": "getNftClassRegistration",
      "outputs": [
        {
          "components": [
            {
              "internalType": "uint256",
              "name": "tokenId",
              "type": "uint256"
            },
            {
              "internalType": "uint256",
              "name": "classId",
              "type": "uint256"
            },
            {
              "internalType": "uint256",
              "name": "studentTokenId",
              "type": "uint256"
            }
          ],
          "internalType": "struct IConstant.NftClassRegistration",
          "name": "",
          "type": "tuple"
        }
      ],
      "stateMutability": "view",
      "type": "function",
      "constant": true
    },
    {
      "inputs": [
        {
          "internalType": "uint256",
          "name": "classId",
          "type": "uint256"
        }
      ],
      "name": "getStudentListOfClass",
      "outputs": [
        {
          "components": [
            {
              "components": [
                {
                  "internalType": "uint256",
                  "name": "tokenId",
                  "type": "uint256"
                },
                {
                  "internalType": "address",
                  "name": "register",
                  "type": "address"
                },
                {
                  "internalType": "uint256",
                  "name": "expiredAt",
                  "type": "uint256"
                }
              ],
              "internalType": "struct IConstant.NftIdentity",
              "name": "nftIdentity",
              "type": "tuple"
            },
            {
              "internalType": "string",
              "name": "tokenURI",
              "type": "string"
            },
            {
              "internalType": "uint256",
              "name": "role",
              "type": "uint256"
            },
            {
              "internalType": "bool",
              "name": "isExpired",
              "type": "bool"
            }
          ],
          "internalType": "struct IConstant.NftIdentityResponse[]",
          "name": "",
          "type": "tuple[]"
        }
      ],
      "stateMutability": "view",
      "type": "function",
      "constant": true
    },
    {
      "inputs": [
        {
          "internalType": "uint256",
          "name": "classId",
          "type": "uint256"
        }
      ],
      "name": "getNumberOfRegisteredStudent",
      "outputs": [
        {
          "internalType": "uint256",
          "name": "",
          "type": "uint256"
        }
      ],
      "stateMutability": "view",
      "type": "function",
      "constant": true
    },
    {
      "inputs": [
        {
          "internalType": "uint256",
          "name": "studentTokenId",
          "type": "uint256"
        },
        {
          "internalType": "uint256",
          "name": "classId",
          "type": "uint256"
        }
      ],
      "name": "checkNftClassRegistrationRegained",
      "outputs": [
        {
          "internalType": "bool",
          "name": "",
          "type": "bool"
        }
      ],
      "stateMutability": "view",
      "type": "function",
      "constant": true
    },
    {
      "inputs": [
        {
          "internalType": "uint256",
          "name": "classId",
          "type": "uint256"
        }
      ],
      "name": "getRegainedNftListOfClass",
      "outputs": [
        {
          "internalType": "uint256[]",
          "name": "",
          "type": "uint256[]"
        }
      ],
      "stateMutability": "view",
      "type": "function",
      "constant": true
    },
    {
      "inputs": [
        {
          "internalType": "uint256",
          "name": "classId",
          "type": "uint256"
        },
        {
          "internalType": "string",
          "name": "uri",
          "type": "string"
        }
      ],
      "name": "registerClass",
      "outputs": [],
      "stateMutability": "payable",
      "type": "function",
      "payable": true
    },
    {
      "inputs": [
        {
          "internalType": "uint256",
          "name": "tokenId",
          "type": "uint256"
        }
      ],
      "name": "regainNft",
      "outputs": [],
      "stateMutability": "nonpayable",
      "type": "function"
    }
  ],
  "bytecode": "0x60806040523480156200001157600080fd5b5060405162004f7838038062004f788339818101604052810190620000379190620002db565b6040518060400160405280601481526020017f4e6674436c617373526567697374726174696f6e0000000000000000000000008152506040518060400160405280600381526020017f4e4352000000000000000000000000000000000000000000000000000000000081525081818160009080519060200190620000bd929190620001c1565b508060019080519060200190620000d6929190620001c1565b50505033600760006101000a81548173ffffffffffffffffffffffffffffffffffffffff021916908373ffffffffffffffffffffffffffffffffffffffff16021790555050506000600c60146101000a81548160ff02191690831515021790555081600b60006101000a81548173ffffffffffffffffffffffffffffffffffffffff021916908373ffffffffffffffffffffffffffffffffffffffff16021790555080600a60006101000a81548173ffffffffffffffffffffffffffffffffffffffff021916908373ffffffffffffffffffffffffffffffffffffffff160217905550505062000386565b828054620001cf9062000351565b90600052602060002090601f016020900481019282620001f357600085556200023f565b82601f106200020e57805160ff19168380011785556200023f565b828001600101855582156200023f579182015b828111156200023e57825182559160200191906001019062000221565b5b5090506200024e919062000252565b5090565b5b808211156200026d57600081600090555060010162000253565b5090565b600080fd5b600073ffffffffffffffffffffffffffffffffffffffff82169050919050565b6000620002a38262000276565b9050919050565b620002b58162000296565b8114620002c157600080fd5b50565b600081519050620002d581620002aa565b92915050565b60008060408385031215620002f557620002f462000271565b5b60006200030585828601620002c4565b92505060206200031885828601620002c4565b9150509250929050565b7f4e487b7100000000000000000000000000000000000000000000000000000000600052602260045260246000fd5b600060028204905060018216806200036a57607f821691505b60208210810362000380576200037f62000322565b5b50919050565b614be280620003966000396000f3fe6080604052600436106101355760003560e01c80636352211e116100ab578063b5bee3171161006f578063b5bee31714610482578063b88d4fde1461049e578063c4d66de8146104c7578063c87b56dd146104f0578063ddfb919c1461052d578063e985e9c51461055857610135565b80636352211e1461037757806370a08231146103b457806395d89b41146103f1578063a22cb4651461041c578063a24a7c301461044557610135565b8063256283ed116100fd578063256283ed14610231578063300c18421461026e57806342842e0e146102ab57806354c08933146102d4578063573c66de14610311578063611cd9fb1461034e57610135565b806301ffc9a71461013a57806306fdde0314610177578063081812fc146101a2578063095ea7b3146101df57806323b872dd14610208575b600080fd5b34801561014657600080fd5b50610161600480360381019061015c91906131b3565b610595565b60405161016e91906131fb565b60405180910390f35b34801561018357600080fd5b5061018c610677565b60405161019991906132af565b60405180910390f35b3480156101ae57600080fd5b506101c960048036038101906101c49190613307565b610709565b6040516101d69190613375565b60405180910390f35b3480156101eb57600080fd5b50610206600480360381019061020191906133bc565b61074f565b005b34801561021457600080fd5b5061022f600480360381019061022a91906133fc565b610866565b005b34801561023d57600080fd5b5061025860048036038101906102539190613307565b6108c6565b604051610265919061362d565b60405180910390f35b34801561027a57600080fd5b5061029560048036038101906102909190613307565b610a50565b6040516102a291906136fe565b60405180910390f35b3480156102b757600080fd5b506102d260048036038101906102cd91906133fc565b610ba5565b005b3480156102e057600080fd5b506102fb60048036038101906102f69190613720565b610bc5565b60405161030891906131fb565b60405180910390f35b34801561031d57600080fd5b5061033860048036038101906103339190613307565b610bf6565b604051610345919061376f565b60405180910390f35b34801561035a57600080fd5b5061037560048036038101906103709190613307565b610c16565b005b34801561038357600080fd5b5061039e60048036038101906103999190613307565b611000565b6040516103ab9190613375565b60405180910390f35b3480156103c057600080fd5b506103db60048036038101906103d6919061378a565b611086565b6040516103e8919061376f565b60405180910390f35b3480156103fd57600080fd5b5061040661113d565b60405161041391906132af565b60405180910390f35b34801561042857600080fd5b50610443600480360381019061043e91906137e3565b6111cf565b005b34801561045157600080fd5b5061046c60048036038101906104679190613307565b6111e5565b6040516104799190613865565b60405180910390f35b61049c600480360381019061049791906139b5565b6112a7565b005b3480156104aa57600080fd5b506104c560048036038101906104c09190613ab2565b6117b1565b005b3480156104d357600080fd5b506104ee60048036038101906104e9919061378a565b611813565b005b3480156104fc57600080fd5b5061051760048036038101906105129190613307565b6118e6565b60405161052491906132af565b60405180910390f35b34801561053957600080fd5b506105426119f8565b60405161054f9190613c26565b60405180910390f35b34801561056457600080fd5b5061057f600480360381019061057a9190613c48565b611bee565b60405161058c91906131fb565b60405180910390f35b60007f80ac58cd000000000000000000000000000000000000000000000000000000007bffffffffffffffffffffffffffffffffffffffffffffffffffffffff1916827bffffffffffffffffffffffffffffffffffffffffffffffffffffffff1916148061066057507f5b5e139f000000000000000000000000000000000000000000000000000000007bffffffffffffffffffffffffffffffffffffffffffffffffffffffff1916827bffffffffffffffffffffffffffffffffffffffffffffffffffffffff1916145b80610670575061066f82611c82565b5b9050919050565b60606000805461068690613cb7565b80601f01602080910402602001604051908101604052809291908181526020018280546106b290613cb7565b80156106ff5780601f106106d4576101008083540402835291602001916106ff565b820191906000526020600020905b8154815290600101906020018083116106e257829003601f168201915b5050505050905090565b600061071482611cec565b6004600083815260200190815260200160002060009054906101000a900473ffffffffffffffffffffffffffffffffffffffff169050919050565b600061075a82611000565b90508073ffffffffffffffffffffffffffffffffffffffff168373ffffffffffffffffffffffffffffffffffffffff16036107ca576040517f08c379a00000000000000000000000000000000000000000000000000000000081526004016107c190613d5a565b60405180910390fd5b8073ffffffffffffffffffffffffffffffffffffffff166107e9611d37565b73ffffffffffffffffffffffffffffffffffffffff161480610818575061081781610812611d37565b611bee565b5b610857576040517f08c379a000000000000000000000000000000000000000000000000000000000815260040161084e90613dec565b60405180910390fd5b6108618383611d3f565b505050565b610877610871611d37565b82611df8565b6108b6576040517f08c379a00000000000000000000000000000000000000000000000000000000081526004016108ad90613e7e565b60405180910390fd5b6108c1838383611e8d565b505050565b606060006012600084815260200190815260200160002080549050905060008167ffffffffffffffff8111156108ff576108fe61388a565b5b60405190808252806020026020018201604052801561093857816020015b610925612fdc565b81526020019060019003908161091d5790505b50905060005b82811015610a4557600b60009054906101000a900473ffffffffffffffffffffffffffffffffffffffff1673ffffffffffffffffffffffffffffffffffffffff1663d703df8b6012600088815260200190815260200160002083815481106109a9576109a8613e9e565b5b90600052602060002001546040518263ffffffff1660e01b81526004016109d0919061376f565b600060405180830381865afa1580156109ed573d6000803e3d6000fd5b505050506040513d6000823e3d601f19601f82011682018060405250810190610a16919061407e565b828281518110610a2957610a28613e9e565b5b602002602001018190525080610a3e906140f6565b905061093e565b508092505050919050565b6060600060126000848152602001908152602001600020805480602002602001604051908101604052809291908181526020018280548015610ab157602002820191906000526020600020905b815481526020019060010190808311610a9d575b5050505050905060008151905060008167ffffffffffffffff811115610ada57610ad961388a565b5b604051908082528060200260200182016040528015610b085781602001602082028036833780820191505090505b5090506000805b83811015610b9857610b3b858281518110610b2d57610b2c613e9e565b5b602002602001015188610bc5565b15610b8757848181518110610b5357610b52613e9e565b5b6020026020010151838381518110610b6e57610b6d613e9e565b5b60200260200101818152505081610b84906140f6565b91505b80610b91906140f6565b9050610b0f565b5081945050505050919050565b610bc0838383604051806020016040528060008152506117b1565b505050565b6000806010600085815260200190815260200160002060008481526020019081526020016000205414905092915050565b600060126000838152602001908152602001600020805490509050919050565b6000610c21826111e5565b90506000600b60009054906101000a900473ffffffffffffffffffffffffffffffffffffffff1673ffffffffffffffffffffffffffffffffffffffff166352db77c4600180811115610c7657610c7561413e565b5b336040518363ffffffff1660e01b8152600401610c9492919061416d565b600060405180830381865afa158015610cb1573d6000803e3d6000fd5b505050506040513d6000823e3d601f19601f82011682018060405250810190610cda919061407e565b90506000600a60009054906101000a900473ffffffffffffffffffffffffffffffffffffffff1673ffffffffffffffffffffffffffffffffffffffff166303d658e084602001516040518263ffffffff1660e01b8152600401610d3d919061376f565b600060405180830381865afa158015610d5a573d6000803e3d6000fd5b505050506040513d6000823e3d601f19601f82011682018060405250810190610d8391906142be565b90506000610d9085610709565b90508260000151600001518260e0015114610de0576040517f08c379a0000000000000000000000000000000000000000000000000000000008152600401610dd790614353565b60405180910390fd5b826060015115610e25576040517f08c379a0000000000000000000000000000000000000000000000000000000008152600401610e1c906143bf565b60405180910390fd5b3373ffffffffffffffffffffffffffffffffffffffff168173ffffffffffffffffffffffffffffffffffffffff1614610e93576040517f08c379a0000000000000000000000000000000000000000000000000000000008152600401610e8a9061442b565b60405180910390fd5b600c60009054906101000a900473ffffffffffffffffffffffffffffffffffffffff1673ffffffffffffffffffffffffffffffffffffffff16637a4ec7d9836000015186604001516040518363ffffffff1660e01b8152600401610ef892919061444b565b602060405180830381865afa158015610f15573d6000803e3d6000fd5b505050506040513d601f19601f82011682018060405250810190610f399190614474565b610f4257600080fd5b610f4b85612186565b610f598460400151866121d9565b610f62856122fe565b6011600085604001518152602001908152602001600020600083602001518152602001908152602001600020600090556010600085604001518152602001908152602001600020600083600001518152602001908152602001600020600090557f7d68c272d9490602502055e3ad975c9816ce142eefd6a462a7cf46670fd6f17c85604051610ff1919061376f565b60405180910390a15050505050565b60008061100c83612450565b9050600073ffffffffffffffffffffffffffffffffffffffff168173ffffffffffffffffffffffffffffffffffffffff160361107d576040517f08c379a0000000000000000000000000000000000000000000000000000000008152600401611074906144ed565b60405180910390fd5b80915050919050565b60008073ffffffffffffffffffffffffffffffffffffffff168273ffffffffffffffffffffffffffffffffffffffff16036110f6576040517f08c379a00000000000000000000000000000000000000000000000000000000081526004016110ed9061457f565b60405180910390fd5b600360008373ffffffffffffffffffffffffffffffffffffffff1673ffffffffffffffffffffffffffffffffffffffff168152602001908152602001600020549050919050565b60606001805461114c90613cb7565b80601f016020809104026020016040519081016040528092919081815260200182805461117890613cb7565b80156111c55780601f1061119a576101008083540402835291602001916111c5565b820191906000526020600020905b8154815290600101906020018083116111a857829003601f168201915b5050505050905090565b6111e16111da611d37565b838361248d565b5050565b6111ed61300c565b6000600e600084815260200190815260200160002054905060008111611248576040517f08c379a000000000000000000000000000000000000000000000000000000000815260040161123f906145eb565b60405180910390fd5b600d600182611257919061460b565b8154811061126857611267613e9e565b5b90600052602060002090600302016040518060600160405290816000820154815260200160018201548152602001600282015481525050915050919050565b6000600b60009054906101000a900473ffffffffffffffffffffffffffffffffffffffff1673ffffffffffffffffffffffffffffffffffffffff166352db77c4600060018111156112fb576112fa61413e565b5b336040518363ffffffff1660e01b815260040161131992919061416d565b600060405180830381865afa158015611336573d6000803e3d6000fd5b505050506040513d6000823e3d601f19601f8201168201806040525081019061135f919061407e565b9050600081600001516000015190506000600a60009054906101000a900473ffffffffffffffffffffffffffffffffffffffff1673ffffffffffffffffffffffffffffffffffffffff166303d658e0866040518263ffffffff1660e01b81526004016113cb919061376f565b600060405180830381865afa1580156113e8573d6000803e3d6000fd5b505050506040513d6000823e3d601f19601f8201168201806040525081019061141191906142be565b9050600080600a60009054906101000a900473ffffffffffffffffffffffffffffffffffffffff1673ffffffffffffffffffffffffffffffffffffffff1663d9ac23d98461010001516040518263ffffffff1660e01b8152600401611476919061376f565b6040805180830381865afa158015611492573d6000803e3d6000fd5b505050506040513d601f19601f820116820180604052508101906114b6919061463f565b915091508460600151156114c957600080fd5b8260c00151601260008560000151815260200190815260200160002080549050106114f357600080fd5b8142101561150057600080fd5b8042111561150d57600080fd5b6000836060015114806115be5750600c60009054906101000a900473ffffffffffffffffffffffffffffffffffffffff1673ffffffffffffffffffffffffffffffffffffffff16636eabe75f8460600151336040518363ffffffff1660e01b815260040161157c92919061416d565b602060405180830381865afa158015611599573d6000803e3d6000fd5b505050506040513d601f19601f820116820180604052508101906115bd9190614474565b5b6115c757600080fd5b60006011600086815260200190815260200160002060008560200151815260200190815260200160002054146115fc57600080fd5b826101200151341461160d57600080fd5b600061161933886125f9565b9050600d60405180606001604052808381526020018a81526020018781525090806001815401808255809150506001900390600052602060002090600302016000909190919091506000820151816000015560208201518160010155604082015181600201555050600d80549050600e600083815260200190815260200160002081905550600f600086815260200190815260200160002081908060018154018082558091505060019003906000526020600020016000909190919091505580601160008781526020019081526020016000206000866020015181526020019081526020016000208190555080601060008781526020019081526020016000206000866000015181526020019081526020016000208190555060126000856000015181526020019081526020016000208590806001815401808255809150506001900390600052602060002001600090919091909150557fbe6a370d4ba6aa5fb05f8f9fc9d428affa443f0d593797fd5ac930a5e5b8fde58160405161179f919061376f565b60405180910390a15050505050505050565b6117c26117bc611d37565b83611df8565b611801576040517f08c379a00000000000000000000000000000000000000000000000000000000081526004016117f890613e7e565b60405180910390fd5b61180d8484848461266a565b50505050565b3373ffffffffffffffffffffffffffffffffffffffff16600760009054906101000a900473ffffffffffffffffffffffffffffffffffffffff1673ffffffffffffffffffffffffffffffffffffffff161461186d57600080fd5b600c60149054906101000a900460ff161561188757600080fd5b6001600c60146101000a81548160ff02191690831515021790555080600c60006101000a81548173ffffffffffffffffffffffffffffffffffffffff021916908373ffffffffffffffffffffffffffffffffffffffff16021790555050565b60606118f182611cec565b600060066000848152602001908152602001600020805461191190613cb7565b80601f016020809104026020016040519081016040528092919081815260200182805461193d90613cb7565b801561198a5780601f1061195f5761010080835404028352916020019161198a565b820191906000526020600020905b81548152906001019060200180831161196d57829003601f168201915b50505050509050600061199b6126c6565b905060008151036119b05781925050506119f3565b6000825111156119e55780826040516020016119cd9291906146bb565b604051602081830303815290604052925050506119f3565b6119ee846126dd565b925050505b919050565b60606000600b60009054906101000a900473ffffffffffffffffffffffffffffffffffffffff1673ffffffffffffffffffffffffffffffffffffffff166352db77c460006001811115611a4e57611a4d61413e565b5b336040518363ffffffff1660e01b8152600401611a6c92919061416d565b600060405180830381865afa158015611a89573d6000803e3d6000fd5b505050506040513d6000823e3d601f19601f82011682018060405250810190611ab2919061407e565b9050600081600001516000015190506000600f6000838152602001908152602001600020805480602002602001604051908101604052809291908181526020018280548015611b2057602002820191906000526020600020905b815481526020019060010190808311611b0c575b5050505050905060008151905060008167ffffffffffffffff811115611b4957611b4861388a565b5b604051908082528060200260200182016040528015611b8257816020015b611b6f61300c565b815260200190600190039081611b675790505b50905060005b82811015611be257611bb3848281518110611ba657611ba5613e9e565b5b60200260200101516111e5565b828281518110611bc657611bc5613e9e565b5b602002602001018190525080611bdb906140f6565b9050611b88565b50809550505050505090565b6000600560008473ffffffffffffffffffffffffffffffffffffffff1673ffffffffffffffffffffffffffffffffffffffff16815260200190815260200160002060008373ffffffffffffffffffffffffffffffffffffffff1673ffffffffffffffffffffffffffffffffffffffff16815260200190815260200160002060009054906101000a900460ff16905092915050565b60007f01ffc9a7000000000000000000000000000000000000000000000000000000007bffffffffffffffffffffffffffffffffffffffffffffffffffffffff1916827bffffffffffffffffffffffffffffffffffffffffffffffffffffffff1916149050919050565b611cf581612745565b611d34576040517f08c379a0000000000000000000000000000000000000000000000000000000008152600401611d2b906144ed565b60405180910390fd5b50565b600033905090565b816004600083815260200190815260200160002060006101000a81548173ffffffffffffffffffffffffffffffffffffffff021916908373ffffffffffffffffffffffffffffffffffffffff160217905550808273ffffffffffffffffffffffffffffffffffffffff16611db283611000565b73ffffffffffffffffffffffffffffffffffffffff167f8c5be1e5ebec7d5bd14f71427d1e84f3dd0314c0f7b2291e5b200ac8c7c3b92560405160405180910390a45050565b600080611e0483611000565b90508073ffffffffffffffffffffffffffffffffffffffff168473ffffffffffffffffffffffffffffffffffffffff161480611e465750611e458185611bee565b5b80611e8457508373ffffffffffffffffffffffffffffffffffffffff16611e6c84610709565b73ffffffffffffffffffffffffffffffffffffffff16145b91505092915050565b8273ffffffffffffffffffffffffffffffffffffffff16611ead82611000565b73ffffffffffffffffffffffffffffffffffffffff1614611f03576040517f08c379a0000000000000000000000000000000000000000000000000000000008152600401611efa90614751565b60405180910390fd5b600073ffffffffffffffffffffffffffffffffffffffff168273ffffffffffffffffffffffffffffffffffffffff1603611f72576040517f08c379a0000000000000000000000000000000000000000000000000000000008152600401611f69906147e3565b60405180910390fd5b611f7f8383836001612786565b8273ffffffffffffffffffffffffffffffffffffffff16611f9f82611000565b73ffffffffffffffffffffffffffffffffffffffff1614611ff5576040517f08c379a0000000000000000000000000000000000000000000000000000000008152600401611fec90614751565b60405180910390fd5b6004600082815260200190815260200160002060006101000a81549073ffffffffffffffffffffffffffffffffffffffff02191690556001600360008573ffffffffffffffffffffffffffffffffffffffff1673ffffffffffffffffffffffffffffffffffffffff168152602001908152602001600020600082825403925050819055506001600360008473ffffffffffffffffffffffffffffffffffffffff1673ffffffffffffffffffffffffffffffffffffffff16815260200190815260200160002060008282540192505081905550816002600083815260200190815260200160002060006101000a81548173ffffffffffffffffffffffffffffffffffffffff021916908373ffffffffffffffffffffffffffffffffffffffff160217905550808273ffffffffffffffffffffffffffffffffffffffff168473ffffffffffffffffffffffffffffffffffffffff167fddf252ad1be2c89b69c2b068fc378daa952ba7f163c4a11628f55a4df523b3ef60405160405180910390a4612181838383600161278c565b505050565b61218f81612792565b60006006600083815260200190815260200160002080546121af90613cb7565b9050146121d6576006600082815260200190815260200160002060006121d5919061302d565b5b50565b6000600f60008481526020019081526020016000208054905090506000805b8281101561224f5783600f6000878152602001908152602001600020828154811061222657612225613e9e565b5b90600052602060002001540361223e5780915061224f565b80612248906140f6565b90506121f8565b50600f6000858152602001908152602001600020600183612270919061460b565b8154811061228157612280613e9e565b5b9060005260206000200154600f600086815260200190815260200160002082815481106122b1576122b0613e9e565b5b9060005260206000200181905550600f60008581526020019081526020016000208054806122e2576122e1614803565b5b6001900381819060005260206000200160009055905550505050565b6000600e60008381526020019081526020016000205490506000600d805490509050818111156123f1576000600d600183612339919061460b565b8154811061234a57612349613e9e565b5b90600052602060002090600302016040518060600160405290816000820154815260200160018201548152602001600282015481525050905080600d600185612393919061460b565b815481106123a4576123a3613e9e565b5b906000526020600020906003020160008201518160000155602082015181600101556040820151816002015590505082600e60008360000151815260200190815260200160002081905550505b600e600084815260200190815260200160002060009055600d80548061241a57612419614803565b5b60019003818190600052602060002090600302016000808201600090556001820160009055600282016000905550509055505050565b60006002600083815260200190815260200160002060009054906101000a900473ffffffffffffffffffffffffffffffffffffffff169050919050565b8173ffffffffffffffffffffffffffffffffffffffff168373ffffffffffffffffffffffffffffffffffffffff16036124fb576040517f08c379a00000000000000000000000000000000000000000000000000000000081526004016124f29061487e565b60405180910390fd5b80600560008573ffffffffffffffffffffffffffffffffffffffff1673ffffffffffffffffffffffffffffffffffffffff16815260200190815260200160002060008473ffffffffffffffffffffffffffffffffffffffff1673ffffffffffffffffffffffffffffffffffffffff16815260200190815260200160002060006101000a81548160ff0219169083151502179055508173ffffffffffffffffffffffffffffffffffffffff168373ffffffffffffffffffffffffffffffffffffffff167f17307eab39ab6107e8899845ad3d59bd9653f200f220920489ca2b5937696c31836040516125ec91906131fb565b60405180910390a3505050565b6000806126046128e0565b905061265684826000368080601f016020809104026020016040519081016040528093929190818152602001838380828437600081840152601f19601f82011690508083019250505050505050612901565b612660818461295c565b8091505092915050565b612675848484611e8d565b612681848484846129d0565b6126c0576040517f08c379a00000000000000000000000000000000000000000000000000000000081526004016126b790614910565b60405180910390fd5b50505050565b606060405180602001604052806000815250905090565b60606126e882611cec565b60006126f26126c6565b90506000815111612712576040518060200160405280600081525061273d565b8061271c84612b57565b60405160200161272d9291906146bb565b6040516020818303038152906040525b915050919050565b60008073ffffffffffffffffffffffffffffffffffffffff1661276783612450565b73ffffffffffffffffffffffffffffffffffffffff1614159050919050565b50505050565b50505050565b600061279d82611000565b90506127ad816000846001612786565b6127b682611000565b90506004600083815260200190815260200160002060006101000a81549073ffffffffffffffffffffffffffffffffffffffff02191690556001600360008373ffffffffffffffffffffffffffffffffffffffff1673ffffffffffffffffffffffffffffffffffffffff168152602001908152602001600020600082825403925050819055506002600083815260200190815260200160002060006101000a81549073ffffffffffffffffffffffffffffffffffffffff021916905581600073ffffffffffffffffffffffffffffffffffffffff168273ffffffffffffffffffffffffffffffffffffffff167fddf252ad1be2c89b69c2b068fc378daa952ba7f163c4a11628f55a4df523b3ef60405160405180910390a46128dc81600084600161278c565b5050565b60006128ec6008612c25565b60006128f86008612c3b565b90508091505090565b61290b8383612c49565b61291860008484846129d0565b612957576040517f08c379a000000000000000000000000000000000000000000000000000000000815260040161294e90614910565b60405180910390fd5b505050565b61296582612745565b6129a4576040517f08c379a000000000000000000000000000000000000000000000000000000000815260040161299b906149a2565b60405180910390fd5b806006600084815260200190815260200160002090805190602001906129cb92919061306d565b505050565b60006129f18473ffffffffffffffffffffffffffffffffffffffff16612e66565b15612b4a578373ffffffffffffffffffffffffffffffffffffffff1663150b7a02612a1a611d37565b8786866040518563ffffffff1660e01b8152600401612a3c9493929190614a17565b6020604051808303816000875af1925050508015612a7857506040513d601f19601f82011682018060405250810190612a759190614a78565b60015b612afa573d8060008114612aa8576040519150601f19603f3d011682016040523d82523d6000602084013e612aad565b606091505b506000815103612af2576040517f08c379a0000000000000000000000000000000000000000000000000000000008152600401612ae990614910565b60405180910390fd5b805181602001fd5b63150b7a0260e01b7bffffffffffffffffffffffffffffffffffffffffffffffffffffffff1916817bffffffffffffffffffffffffffffffffffffffffffffffffffffffff191614915050612b4f565b600190505b949350505050565b606060006001612b6684612e89565b01905060008167ffffffffffffffff811115612b8557612b8461388a565b5b6040519080825280601f01601f191660200182016040528015612bb75781602001600182028036833780820191505090505b509050600082602001820190505b600115612c1a578080600190039150507f3031323334353637383961626364656600000000000000000000000000000000600a86061a8153600a8581612c0e57612c0d614aa5565b5b04945060008503612bc5575b819350505050919050565b6001816000016000828254019250508190555050565b600081600001549050919050565b600073ffffffffffffffffffffffffffffffffffffffff168273ffffffffffffffffffffffffffffffffffffffff1603612cb8576040517f08c379a0000000000000000000000000000000000000000000000000000000008152600401612caf90614b20565b60405180910390fd5b612cc181612745565b15612d01576040517f08c379a0000000000000000000000000000000000000000000000000000000008152600401612cf890614b8c565b60405180910390fd5b612d0f600083836001612786565b612d1881612745565b15612d58576040517f08c379a0000000000000000000000000000000000000000000000000000000008152600401612d4f90614b8c565b60405180910390fd5b6001600360008473ffffffffffffffffffffffffffffffffffffffff1673ffffffffffffffffffffffffffffffffffffffff16815260200190815260200160002060008282540192505081905550816002600083815260200190815260200160002060006101000a81548173ffffffffffffffffffffffffffffffffffffffff021916908373ffffffffffffffffffffffffffffffffffffffff160217905550808273ffffffffffffffffffffffffffffffffffffffff16600073ffffffffffffffffffffffffffffffffffffffff167fddf252ad1be2c89b69c2b068fc378daa952ba7f163c4a11628f55a4df523b3ef60405160405180910390a4612e6260008383600161278c565b5050565b6000808273ffffffffffffffffffffffffffffffffffffffff163b119050919050565b600080600090507a184f03e93ff9f4daa797ed6e38ed64bf6a1f0100000000000000008310612ee7577a184f03e93ff9f4daa797ed6e38ed64bf6a1f0100000000000000008381612edd57612edc614aa5565b5b0492506040810190505b6d04ee2d6d415b85acef81000000008310612f24576d04ee2d6d415b85acef81000000008381612f1a57612f19614aa5565b5b0492506020810190505b662386f26fc100008310612f5357662386f26fc100008381612f4957612f48614aa5565b5b0492506010810190505b6305f5e1008310612f7c576305f5e1008381612f7257612f71614aa5565b5b0492506008810190505b6127108310612fa1576127108381612f9757612f96614aa5565b5b0492506004810190505b60648310612fc45760648381612fba57612fb9614aa5565b5b0492506002810190505b600a8310612fd3576001810190505b80915050919050565b6040518060800160405280612fef6130f3565b815260200160608152602001600081526020016000151581525090565b60405180606001604052806000815260200160008152602001600081525090565b50805461303990613cb7565b6000825580601f1061304b575061306a565b601f016020900490600052602060002090810190613069919061312a565b5b50565b82805461307990613cb7565b90600052602060002090601f01602090048101928261309b57600085556130e2565b82601f106130b457805160ff19168380011785556130e2565b828001600101855582156130e2579182015b828111156130e15782518255916020019190600101906130c6565b5b5090506130ef919061312a565b5090565b604051806060016040528060008152602001600073ffffffffffffffffffffffffffffffffffffffff168152602001600081525090565b5b8082111561314357600081600090555060010161312b565b5090565b6000604051905090565b600080fd5b600080fd5b60007fffffffff0000000000000000000000000000000000000000000000000000000082169050919050565b6131908161315b565b811461319b57600080fd5b50565b6000813590506131ad81613187565b92915050565b6000602082840312156131c9576131c8613151565b5b60006131d78482850161319e565b91505092915050565b60008115159050919050565b6131f5816131e0565b82525050565b600060208201905061321060008301846131ec565b92915050565b600081519050919050565b600082825260208201905092915050565b60005b83811015613250578082015181840152602081019050613235565b8381111561325f576000848401525b50505050565b6000601f19601f8301169050919050565b600061328182613216565b61328b8185613221565b935061329b818560208601613232565b6132a481613265565b840191505092915050565b600060208201905081810360008301526132c98184613276565b905092915050565b6000819050919050565b6132e4816132d1565b81146132ef57600080fd5b50565b600081359050613301816132db565b92915050565b60006020828403121561331d5761331c613151565b5b600061332b848285016132f2565b91505092915050565b600073ffffffffffffffffffffffffffffffffffffffff82169050919050565b600061335f82613334565b9050919050565b61336f81613354565b82525050565b600060208201905061338a6000830184613366565b92915050565b61339981613354565b81146133a457600080fd5b50565b6000813590506133b681613390565b92915050565b600080604083850312156133d3576133d2613151565b5b60006133e1858286016133a7565b92505060206133f2858286016132f2565b9150509250929050565b60008060006060848603121561341557613414613151565b5b6000613423868287016133a7565b9350506020613434868287016133a7565b9250506040613445868287016132f2565b9150509250925092565b600081519050919050565b600082825260208201905092915050565b6000819050602082019050919050565b613484816132d1565b82525050565b61349381613354565b82525050565b6060820160008201516134af600085018261347b565b5060208201516134c2602085018261348a565b5060408201516134d5604085018261347b565b50505050565b600082825260208201905092915050565b60006134f782613216565b61350181856134db565b9350613511818560208601613232565b61351a81613265565b840191505092915050565b61352e816131e0565b82525050565b600060c08301600083015161354c6000860182613499565b506020830151848203606086015261356482826134ec565b9150506040830151613579608086018261347b565b50606083015161358c60a0860182613525565b508091505092915050565b60006135a38383613534565b905092915050565b6000602082019050919050565b60006135c38261344f565b6135cd818561345a565b9350836020820285016135df8561346b565b8060005b8581101561361b57848403895281516135fc8582613597565b9450613607836135ab565b925060208a019950506001810190506135e3565b50829750879550505050505092915050565b6000602082019050818103600083015261364781846135b8565b905092915050565b600081519050919050565b600082825260208201905092915050565b6000819050602082019050919050565b6000613687838361347b565b60208301905092915050565b6000602082019050919050565b60006136ab8261364f565b6136b5818561365a565b93506136c08361366b565b8060005b838110156136f15781516136d8888261367b565b97506136e383613693565b9250506001810190506136c4565b5085935050505092915050565b6000602082019050818103600083015261371881846136a0565b905092915050565b6000806040838503121561373757613736613151565b5b6000613745858286016132f2565b9250506020613756858286016132f2565b9150509250929050565b613769816132d1565b82525050565b60006020820190506137846000830184613760565b92915050565b6000602082840312156137a05761379f613151565b5b60006137ae848285016133a7565b91505092915050565b6137c0816131e0565b81146137cb57600080fd5b50565b6000813590506137dd816137b7565b92915050565b600080604083850312156137fa576137f9613151565b5b6000613808858286016133a7565b9250506020613819858286016137ce565b9150509250929050565b606082016000820151613839600085018261347b565b50602082015161384c602085018261347b565b50604082015161385f604085018261347b565b50505050565b600060608201905061387a6000830184613823565b92915050565b600080fd5b600080fd5b7f4e487b7100000000000000000000000000000000000000000000000000000000600052604160045260246000fd5b6138c282613265565b810181811067ffffffffffffffff821117156138e1576138e061388a565b5b80604052505050565b60006138f4613147565b905061390082826138b9565b919050565b600067ffffffffffffffff8211156139205761391f61388a565b5b61392982613265565b9050602081019050919050565b82818337600083830152505050565b600061395861395384613905565b6138ea565b90508281526020810184848401111561397457613973613885565b5b61397f848285613936565b509392505050565b600082601f83011261399c5761399b613880565b5b81356139ac848260208601613945565b91505092915050565b600080604083850312156139cc576139cb613151565b5b60006139da858286016132f2565b925050602083013567ffffffffffffffff8111156139fb576139fa613156565b5b613a0785828601613987565b9150509250929050565b600067ffffffffffffffff821115613a2c57613a2b61388a565b5b613a3582613265565b9050602081019050919050565b6000613a55613a5084613a11565b6138ea565b905082815260208101848484011115613a7157613a70613885565b5b613a7c848285613936565b509392505050565b600082601f830112613a9957613a98613880565b5b8135613aa9848260208601613a42565b91505092915050565b60008060008060808587031215613acc57613acb613151565b5b6000613ada878288016133a7565b9450506020613aeb878288016133a7565b9350506040613afc878288016132f2565b925050606085013567ffffffffffffffff811115613b1d57613b1c613156565b5b613b2987828801613a84565b91505092959194509250565b600081519050919050565b600082825260208201905092915050565b6000819050602082019050919050565b606082016000820151613b77600085018261347b565b506020820151613b8a602085018261347b565b506040820151613b9d604085018261347b565b50505050565b6000613baf8383613b61565b60608301905092915050565b6000602082019050919050565b6000613bd382613b35565b613bdd8185613b40565b9350613be883613b51565b8060005b83811015613c19578151613c008882613ba3565b9750613c0b83613bbb565b925050600181019050613bec565b5085935050505092915050565b60006020820190508181036000830152613c408184613bc8565b905092915050565b60008060408385031215613c5f57613c5e613151565b5b6000613c6d858286016133a7565b9250506020613c7e858286016133a7565b9150509250929050565b7f4e487b7100000000000000000000000000000000000000000000000000000000600052602260045260246000fd5b60006002820490506001821680613ccf57607f821691505b602082108103613ce257613ce1613c88565b5b50919050565b7f4552433732313a20617070726f76616c20746f2063757272656e74206f776e6560008201527f7200000000000000000000000000000000000000000000000000000000000000602082015250565b6000613d44602183613221565b9150613d4f82613ce8565b604082019050919050565b60006020820190508181036000830152613d7381613d37565b9050919050565b7f4552433732313a20617070726f76652063616c6c6572206973206e6f7420746f60008201527f6b656e206f776e6572206f7220617070726f76656420666f7220616c6c000000602082015250565b6000613dd6603d83613221565b9150613de182613d7a565b604082019050919050565b60006020820190508181036000830152613e0581613dc9565b9050919050565b7f4552433732313a2063616c6c6572206973206e6f7420746f6b656e206f776e6560008201527f72206f7220617070726f76656400000000000000000000000000000000000000602082015250565b6000613e68602d83613221565b9150613e7382613e0c565b604082019050919050565b60006020820190508181036000830152613e9781613e5b565b9050919050565b7f4e487b7100000000000000000000000000000000000000000000000000000000600052603260045260246000fd5b600080fd5b600080fd5b600081519050613ee6816132db565b92915050565b600081519050613efb81613390565b92915050565b600060608284031215613f1757613f16613ecd565b5b613f2160606138ea565b90506000613f3184828501613ed7565b6000830152506020613f4584828501613eec565b6020830152506040613f5984828501613ed7565b60408301525092915050565b6000613f78613f7384613905565b6138ea565b905082815260208101848484011115613f9457613f93613885565b5b613f9f848285613232565b509392505050565b600082601f830112613fbc57613fbb613880565b5b8151613fcc848260208601613f65565b91505092915050565b600081519050613fe4816137b7565b92915050565b600060c0828403121561400057613fff613ecd565b5b61400a60806138ea565b9050600061401a84828501613f01565b600083015250606082015167ffffffffffffffff81111561403e5761403d613ed2565b5b61404a84828501613fa7565b602083015250608061405e84828501613ed7565b60408301525060a061407284828501613fd5565b60608301525092915050565b60006020828403121561409457614093613151565b5b600082015167ffffffffffffffff8111156140b2576140b1613156565b5b6140be84828501613fea565b91505092915050565b7f4e487b7100000000000000000000000000000000000000000000000000000000600052601160045260246000fd5b6000614101826132d1565b91507fffffffffffffffffffffffffffffffffffffffffffffffffffffffffffffffff8203614133576141326140c7565b5b600182019050919050565b7f4e487b7100000000000000000000000000000000000000000000000000000000600052602160045260246000fd5b60006040820190506141826000830185613760565b61418f6020830184613366565b9392505050565b600061016082840312156141ad576141ac613ecd565b5b6141b86101606138ea565b905060006141c884828501613ed7565b60008301525060206141dc84828501613ed7565b60208301525060406141f084828501613ed7565b604083015250606061420484828501613ed7565b606083015250608061421884828501613ed7565b60808301525060a061422c84828501613ed7565b60a08301525060c061424084828501613ed7565b60c08301525060e061425484828501613ed7565b60e08301525061010061426984828501613ed7565b6101008301525061012061427f84828501613ed7565b6101208301525061014082015167ffffffffffffffff8111156142a5576142a4613ed2565b5b6142b184828501613fa7565b6101408301525092915050565b6000602082840312156142d4576142d3613151565b5b600082015167ffffffffffffffff8111156142f2576142f1613156565b5b6142fe84828501614196565b91505092915050565b7f4e6f742074656163686572206f6620636c617373000000000000000000000000600082015250565b600061433d601483613221565b915061434882614307565b602082019050919050565b6000602082019050818103600083015261436c81614330565b9050919050565b7f6578706972656400000000000000000000000000000000000000000000000000600082015250565b60006143a9600783613221565b91506143b482614373565b602082019050919050565b600060208201905081810360008301526143d88161439c565b9050919050565b7f4e6f7420617070726f7665642062792073747564656e74000000000000000000600082015250565b6000614415601783613221565b9150614420826143df565b602082019050919050565b6000602082019050818103600083015261444481614408565b9050919050565b60006040820190506144606000830185613760565b61446d6020830184613760565b9392505050565b60006020828403121561448a57614489613151565b5b600061449884828501613fd5565b91505092915050565b7f4552433732313a20696e76616c696420746f6b656e2049440000000000000000600082015250565b60006144d7601883613221565b91506144e2826144a1565b602082019050919050565b60006020820190508181036000830152614506816144ca565b9050919050565b7f4552433732313a2061646472657373207a65726f206973206e6f74206120766160008201527f6c6964206f776e65720000000000000000000000000000000000000000000000602082015250565b6000614569602983613221565b91506145748261450d565b604082019050919050565b600060208201905081810360008301526145988161455c565b9050919050565b7f6e6674206e6f7420666f756e6400000000000000000000000000000000000000600082015250565b60006145d5600d83613221565b91506145e08261459f565b602082019050919050565b60006020820190508181036000830152614604816145c8565b9050919050565b6000614616826132d1565b9150614621836132d1565b925082821015614634576146336140c7565b5b828203905092915050565b6000806040838503121561465657614655613151565b5b600061466485828601613ed7565b925050602061467585828601613ed7565b9150509250929050565b600081905092915050565b600061469582613216565b61469f818561467f565b93506146af818560208601613232565b80840191505092915050565b60006146c7828561468a565b91506146d3828461468a565b91508190509392505050565b7f4552433732313a207472616e736665722066726f6d20696e636f72726563742060008201527f6f776e6572000000000000000000000000000000000000000000000000000000602082015250565b600061473b602583613221565b9150614746826146df565b604082019050919050565b6000602082019050818103600083015261476a8161472e565b9050919050565b7f4552433732313a207472616e7366657220746f20746865207a65726f2061646460008201527f7265737300000000000000000000000000000000000000000000000000000000602082015250565b60006147cd602483613221565b91506147d882614771565b604082019050919050565b600060208201905081810360008301526147fc816147c0565b9050919050565b7f4e487b7100000000000000000000000000000000000000000000000000000000600052603160045260246000fd5b7f4552433732313a20617070726f766520746f2063616c6c657200000000000000600082015250565b6000614868601983613221565b915061487382614832565b602082019050919050565b600060208201905081810360008301526148978161485b565b9050919050565b7f4552433732313a207472616e7366657220746f206e6f6e20455243373231526560008201527f63656976657220696d706c656d656e7465720000000000000000000000000000602082015250565b60006148fa603283613221565b91506149058261489e565b604082019050919050565b60006020820190508181036000830152614929816148ed565b9050919050565b7f45524337323155524953746f726167653a2055524920736574206f66206e6f6e60008201527f6578697374656e7420746f6b656e000000000000000000000000000000000000602082015250565b600061498c602e83613221565b915061499782614930565b604082019050919050565b600060208201905081810360008301526149bb8161497f565b9050919050565b600081519050919050565b600082825260208201905092915050565b60006149e9826149c2565b6149f381856149cd565b9350614a03818560208601613232565b614a0c81613265565b840191505092915050565b6000608082019050614a2c6000830187613366565b614a396020830186613366565b614a466040830185613760565b8181036060830152614a5881846149de565b905095945050505050565b600081519050614a7281613187565b92915050565b600060208284031215614a8e57614a8d613151565b5b6000614a9c84828501614a63565b91505092915050565b7f4e487b7100000000000000000000000000000000000000000000000000000000600052601260045260246000fd5b7f4552433732313a206d696e7420746f20746865207a65726f2061646472657373600082015250565b6000614b0a602083613221565b9150614b1582614ad4565b602082019050919050565b60006020820190508181036000830152614b3981614afd565b9050919050565b7f4552433732313a20746f6b656e20616c7265616479206d696e74656400000000600082015250565b6000614b76601c83613221565b9150614b8182614b40565b602082019050919050565b60006020820190508181036000830152614ba581614b69565b905091905056fea2646970667358221220c442cb768e2e3494b96a32a7884662998c9edc039c49eb5e41b2262bbf81c54164736f6c634300080d0033",
  "immutableReferences": {},
  "source": "// SPDX-License-Identifier: MIT\r\n// Tells the Solidity compiler to compile only from v0.8.13 to v0.9.0\r\npragma solidity ^0.8.13;\r\n\r\nimport \"./ERC721BaseContract.sol\";\r\nimport \"./interfaces/INftClassRegistration.sol\";\r\nimport \"./interfaces/INftIdentities.sol\";\r\nimport \"./interfaces/INftCertificates.sol\";\r\nimport \"./interfaces/INftSchool.sol\";\r\n\r\ncontract NftClassRegistration is ERC721BaseContract, INftClassRegistration {\r\n    INftSchool private _nftSchool;\r\n    INftIdentities private _nftIdentities;\r\n    INftCertificates private _nftCertificates;\r\n\r\n    bool private _isInitialize;\r\n\r\n    NftClassRegistration[] private _allNftClassRegistrations;\r\n    mapping(uint256 => uint256) private _posOfNftClassRegistrationTokenId;\r\n    // REMOVE when have certificate\r\n    mapping(uint256 => uint256[]) private _registeredClassTokenIdsOfStudent;\r\n    mapping(uint256 => mapping(uint256 => uint256))\r\n        private _tokenIdOfRegisteredClass;\r\n    mapping(uint256 => mapping(uint256 => uint256))\r\n        private _registeredCourseOfStudent;\r\n    mapping(uint256 => uint256[]) private _studentTokenIdsOfClass; // KEEP\r\n\r\n    event NewClassRegistrationCreated(uint256 classId);\r\n    event ClassRegistrationRegained(uint256 classId);\r\n\r\n    modifier onlyOwner() {\r\n        require(_owner == msg.sender);\r\n        _;\r\n    }\r\n\r\n    constructor(\r\n        address nftIdentities,\r\n        address nftSchool\r\n    ) ERC721BaseContract(\"NftClassRegistration\", \"NCR\") {\r\n        _isInitialize = false;\r\n        _nftIdentities = INftIdentities(nftIdentities);\r\n        _nftSchool = INftSchool(nftSchool);\r\n    }\r\n\r\n    function initialize(address nftCertificates) public onlyOwner {\r\n        require(!_isInitialize);\r\n        _isInitialize = true;\r\n        _nftCertificates = INftCertificates(nftCertificates);\r\n    }\r\n\r\n    // Register class block: start\r\n    function getRegistereClasses()\r\n        public\r\n        view\r\n        returns (NftClassRegistration[] memory)\r\n    {\r\n        NftIdentityResponse memory nftIdentityResponse = _nftIdentities\r\n            .getNftOfMemberWithRole(uint256(ROLE.STUDENT), msg.sender);\r\n        uint256 studentTokenId = nftIdentityResponse.nftIdentity.tokenId;\r\n        uint256[]\r\n            memory nftClassRegistrationTokenIds = _registeredClassTokenIdsOfStudent[\r\n                studentTokenId\r\n            ];\r\n        uint256 count = nftClassRegistrationTokenIds.length;\r\n\r\n        NftClassRegistration[]\r\n            memory nftClassRegistrations = new NftClassRegistration[](count);\r\n\r\n        for (uint256 idx = 0; idx < count; ++idx) {\r\n            nftClassRegistrations[idx] = getNftClassRegistration(\r\n                nftClassRegistrationTokenIds[idx]\r\n            );\r\n        }\r\n\r\n        return nftClassRegistrations;\r\n    }\r\n\r\n    function getNftClassRegistration(\r\n        uint256 tokenId\r\n    ) public view returns (NftClassRegistration memory) {\r\n        uint256 posOfNft = _posOfNftClassRegistrationTokenId[tokenId];\r\n        require(posOfNft > 0, \"nft not found\");\r\n\r\n        return _allNftClassRegistrations[posOfNft - 1];\r\n    }\r\n\r\n    function getStudentListOfClass(\r\n        uint256 classId\r\n    ) public view returns (NftIdentityResponse[] memory) {\r\n        uint256 count = _studentTokenIdsOfClass[classId].length;\r\n        NftIdentityResponse[] memory result = new NftIdentityResponse[](count);\r\n\r\n        for (uint256 idx; idx < count; ++idx) {\r\n            result[idx] = _nftIdentities.getNftOfTokenId(\r\n                _studentTokenIdsOfClass[classId][idx]\r\n            );\r\n        }\r\n\r\n        return result;\r\n    }\r\n\r\n    function getNumberOfRegisteredStudent(\r\n        uint256 classId\r\n    ) external view returns (uint256) {\r\n        return _studentTokenIdsOfClass[classId].length;\r\n    }\r\n\r\n    function checkNftClassRegistrationRegained(\r\n        uint256 studentTokenId,\r\n        uint256 classId\r\n    ) public view returns (bool) {\r\n        return _tokenIdOfRegisteredClass[studentTokenId][classId] == 0;\r\n    }\r\n\r\n    function getRegainedNftListOfClass(\r\n        uint256 classId\r\n    ) public view returns (uint256[] memory) {\r\n        uint256[] memory studentTokenIds = _studentTokenIdsOfClass[classId];\r\n        uint256 count = studentTokenIds.length;\r\n        uint256[] memory regainedStudentTokenIds = new uint256[](count);\r\n        uint256 current;\r\n\r\n        for (uint256 idx; idx < count; ++idx) {\r\n            if (\r\n                checkNftClassRegistrationRegained(studentTokenIds[idx], classId)\r\n            ) {\r\n                regainedStudentTokenIds[current] = studentTokenIds[idx];\r\n                ++current;\r\n            }\r\n        }\r\n\r\n        return regainedStudentTokenIds;\r\n    }\r\n\r\n    function registerClass(uint256 classId, string memory uri) public payable {\r\n        NftIdentityResponse memory nftIdentityResponse = _nftIdentities\r\n            .getNftOfMemberWithRole(uint256(ROLE.STUDENT), msg.sender);\r\n        uint256 studentTokenId = nftIdentityResponse.nftIdentity.tokenId;\r\n        Class memory class = _nftSchool.getClassById(classId);\r\n        (uint256 registeredStartAt, uint256 registeredEndAt) = _nftSchool\r\n            .getRegisterTime(class.semester);\r\n\r\n        require(!nftIdentityResponse.isExpired);\r\n        require(_studentTokenIdsOfClass[class.id].length < class.maxSize);\r\n        require(block.timestamp >= registeredStartAt);\r\n        require(block.timestamp <= registeredEndAt);\r\n        require(\r\n            class.prevCourseId == 0 ||\r\n                _nftCertificates.checkCompleteCourse(\r\n                    class.prevCourseId,\r\n                    msg.sender\r\n                )\r\n        );\r\n        require(\r\n            _registeredCourseOfStudent[studentTokenId][class.courseId] == 0\r\n        );\r\n        require(msg.value == class.registerClassFee);\r\n        uint256 tokenId = _mintToken(msg.sender, uri);\r\n        _allNftClassRegistrations.push(\r\n            NftClassRegistration(tokenId, classId, studentTokenId)\r\n        );\r\n        _posOfNftClassRegistrationTokenId[tokenId] = _allNftClassRegistrations\r\n            .length;\r\n        _registeredClassTokenIdsOfStudent[studentTokenId].push(tokenId);\r\n        _registeredCourseOfStudent[studentTokenId][class.courseId] = tokenId;\r\n        _tokenIdOfRegisteredClass[studentTokenId][class.id] = tokenId;\r\n        _studentTokenIdsOfClass[class.id].push(studentTokenId);\r\n\r\n        emit NewClassRegistrationCreated(tokenId);\r\n    }\r\n\r\n    function regainNft(uint256 tokenId) public {\r\n        NftClassRegistration\r\n            memory nftClassRegistration = getNftClassRegistration(tokenId);\r\n        NftIdentityResponse memory nftIdentityResponse = _nftIdentities\r\n            .getNftOfMemberWithRole(uint256(ROLE.TEACHER), msg.sender);\r\n        Class memory class = _nftSchool.getClassById(\r\n            nftClassRegistration.classId\r\n        );\r\n        address approval = getApproved(tokenId);\r\n        require(\r\n            class.teacherTokenId == nftIdentityResponse.nftIdentity.tokenId,\r\n            \"Not teacher of class\"\r\n        );\r\n        require(!nftIdentityResponse.isExpired, \"expired\");\r\n        require(approval == msg.sender, \"Not approved by student\");\r\n        require(\r\n            _nftCertificates.checkInQueue(\r\n                class.id,\r\n                nftClassRegistration.studentTokenId\r\n            )\r\n        );\r\n        _burn(tokenId);\r\n        _removeClassTokenFromRegisteredList(\r\n            nftClassRegistration.studentTokenId,\r\n            tokenId\r\n        );\r\n        _removeNftClassRegistration(tokenId);\r\n        delete _registeredCourseOfStudent[nftClassRegistration.studentTokenId][\r\n            class.courseId\r\n        ];\r\n        delete _tokenIdOfRegisteredClass[nftClassRegistration.studentTokenId][\r\n            class.id\r\n        ];\r\n        emit ClassRegistrationRegained(tokenId);\r\n    }\r\n\r\n    function _removeClassTokenFromRegisteredList(\r\n        uint256 studentTokenId,\r\n        uint256 tokenId\r\n    ) private {\r\n        uint256 count = _registeredClassTokenIdsOfStudent[studentTokenId]\r\n            .length;\r\n        uint256 idxOfToken = 0;\r\n\r\n        for (uint256 idx; idx < count; ++idx) {\r\n            if (\r\n                _registeredClassTokenIdsOfStudent[studentTokenId][idx] ==\r\n                tokenId\r\n            ) {\r\n                idxOfToken = idx;\r\n                break;\r\n            }\r\n        }\r\n        _registeredClassTokenIdsOfStudent[studentTokenId][\r\n            idxOfToken\r\n        ] = _registeredClassTokenIdsOfStudent[studentTokenId][count - 1];\r\n        _registeredClassTokenIdsOfStudent[studentTokenId].pop();\r\n    }\r\n\r\n    function _removeNftClassRegistration(uint256 tokenId) private {\r\n        uint256 pos = _posOfNftClassRegistrationTokenId[tokenId];\r\n        uint256 count = _allNftClassRegistrations.length;\r\n\r\n        if (count > pos) {\r\n            NftClassRegistration memory lastNft = _allNftClassRegistrations[\r\n                count - 1\r\n            ];\r\n            _allNftClassRegistrations[pos - 1] = lastNft;\r\n            _posOfNftClassRegistrationTokenId[lastNft.tokenId] = pos;\r\n        }\r\n        delete _posOfNftClassRegistrationTokenId[tokenId];\r\n        _allNftClassRegistrations.pop();\r\n    }\r\n}\r\n",
  "sourcePath": "E:\\learn\\learn-to-earn\\blockchain\\contracts\\NftClassRegistration.sol",
  "compiler": {
    "name": "solc",
    "version": "0.8.13+commit.abaa5c0e.Emscripten.clang"
  },
  "schemaVersion": "3.4.13",
  "updatedAt": "2023-05-28T15:04:40.456Z",
  "networkType": "ethereum",
  "devdoc": {
    "kind": "dev",
    "methods": {
      "approve(address,uint256)": {
        "details": "See {IERC721-approve}."
      },
      "balanceOf(address)": {
        "details": "See {IERC721-balanceOf}."
      },
      "getApproved(uint256)": {
        "details": "See {IERC721-getApproved}."
      },
      "isApprovedForAll(address,address)": {
        "details": "See {IERC721-isApprovedForAll}."
      },
      "name()": {
        "details": "See {IERC721Metadata-name}."
      },
      "ownerOf(uint256)": {
        "details": "See {IERC721-ownerOf}."
      },
      "safeTransferFrom(address,address,uint256)": {
        "details": "See {IERC721-safeTransferFrom}."
      },
      "safeTransferFrom(address,address,uint256,bytes)": {
        "details": "See {IERC721-safeTransferFrom}."
      },
      "setApprovalForAll(address,bool)": {
        "details": "See {IERC721-setApprovalForAll}."
      },
      "supportsInterface(bytes4)": {
        "details": "See {IERC165-supportsInterface}."
      },
      "symbol()": {
        "details": "See {IERC721Metadata-symbol}."
      },
      "tokenURI(uint256)": {
        "details": "See {IERC721Metadata-tokenURI}."
      },
      "transferFrom(address,address,uint256)": {
        "details": "See {IERC721-transferFrom}."
      }
    },
    "version": 1
  },
  "userdoc": {
    "kind": "user",
    "methods": {},
    "version": 1
  }
}