{
  "contractName": "NftCompleteCourses",
  "abi": [
    {
      "inputs": [
        {
          "internalType": "address",
          "name": "nftIdentities",
          "type": "address"
        },
        {
          "internalType": "address",
          "name": "school",
          "type": "address"
        },
        {
          "internalType": "address",
          "name": "nftClassRegistration",
          "type": "address"
        }
      ],
      "stateMutability": "nonpayable",
      "type": "constructor"
    },
    {
      "anonymous": false,
      "inputs": [
        {
          "indexed": true,
          "internalType": "address",
          "name": "account",
          "type": "address"
        },
        {
          "indexed": true,
          "internalType": "address",
          "name": "operator",
          "type": "address"
        },
        {
          "indexed": false,
          "internalType": "bool",
          "name": "approved",
          "type": "bool"
        }
      ],
      "name": "ApprovalForAll",
      "type": "event"
    },
    {
      "anonymous": false,
      "inputs": [
        {
          "indexed": false,
          "internalType": "uint256",
          "name": "tokenId",
          "type": "uint256"
        }
      ],
      "name": "NewCompleteCourseCreated",
      "type": "event"
    },
    {
      "anonymous": false,
      "inputs": [
        {
          "indexed": true,
          "internalType": "address",
          "name": "operator",
          "type": "address"
        },
        {
          "indexed": true,
          "internalType": "address",
          "name": "from",
          "type": "address"
        },
        {
          "indexed": true,
          "internalType": "address",
          "name": "to",
          "type": "address"
        },
        {
          "indexed": false,
          "internalType": "uint256[]",
          "name": "ids",
          "type": "uint256[]"
        },
        {
          "indexed": false,
          "internalType": "uint256[]",
          "name": "values",
          "type": "uint256[]"
        }
      ],
      "name": "TransferBatch",
      "type": "event"
    },
    {
      "anonymous": false,
      "inputs": [
        {
          "indexed": true,
          "internalType": "address",
          "name": "operator",
          "type": "address"
        },
        {
          "indexed": true,
          "internalType": "address",
          "name": "from",
          "type": "address"
        },
        {
          "indexed": true,
          "internalType": "address",
          "name": "to",
          "type": "address"
        },
        {
          "indexed": false,
          "internalType": "uint256",
          "name": "id",
          "type": "uint256"
        },
        {
          "indexed": false,
          "internalType": "uint256",
          "name": "value",
          "type": "uint256"
        }
      ],
      "name": "TransferSingle",
      "type": "event"
    },
    {
      "anonymous": false,
      "inputs": [
        {
          "indexed": false,
          "internalType": "string",
          "name": "value",
          "type": "string"
        },
        {
          "indexed": true,
          "internalType": "uint256",
          "name": "id",
          "type": "uint256"
        }
      ],
      "name": "URI",
      "type": "event"
    },
    {
      "inputs": [
        {
          "internalType": "address",
          "name": "account",
          "type": "address"
        },
        {
          "internalType": "uint256",
          "name": "id",
          "type": "uint256"
        }
      ],
      "name": "balanceOf",
      "outputs": [
        {
          "internalType": "uint256",
          "name": "",
          "type": "uint256"
        }
      ],
      "stateMutability": "view",
      "type": "function",
      "constant": true
    },
    {
      "inputs": [
        {
          "internalType": "address[]",
          "name": "accounts",
          "type": "address[]"
        },
        {
          "internalType": "uint256[]",
          "name": "ids",
          "type": "uint256[]"
        }
      ],
      "name": "balanceOfBatch",
      "outputs": [
        {
          "internalType": "uint256[]",
          "name": "",
          "type": "uint256[]"
        }
      ],
      "stateMutability": "view",
      "type": "function",
      "constant": true
    },
    {
      "inputs": [],
      "name": "graduationPrice",
      "outputs": [
        {
          "internalType": "uint256",
          "name": "",
          "type": "uint256"
        }
      ],
      "stateMutability": "view",
      "type": "function",
      "constant": true
    },
    {
      "inputs": [
        {
          "internalType": "address",
          "name": "account",
          "type": "address"
        },
        {
          "internalType": "address",
          "name": "operator",
          "type": "address"
        }
      ],
      "name": "isApprovedForAll",
      "outputs": [
        {
          "internalType": "bool",
          "name": "",
          "type": "bool"
        }
      ],
      "stateMutability": "view",
      "type": "function",
      "constant": true
    },
    {
      "inputs": [],
      "name": "registeredEndAt",
      "outputs": [
        {
          "internalType": "uint256",
          "name": "",
          "type": "uint256"
        }
      ],
      "stateMutability": "view",
      "type": "function",
      "constant": true
    },
    {
      "inputs": [],
      "name": "registeredStartAt",
      "outputs": [
        {
          "internalType": "uint256",
          "name": "",
          "type": "uint256"
        }
      ],
      "stateMutability": "view",
      "type": "function",
      "constant": true
    },
    {
      "inputs": [
        {
          "internalType": "address",
          "name": "from",
          "type": "address"
        },
        {
          "internalType": "address",
          "name": "to",
          "type": "address"
        },
        {
          "internalType": "uint256[]",
          "name": "ids",
          "type": "uint256[]"
        },
        {
          "internalType": "uint256[]",
          "name": "amounts",
          "type": "uint256[]"
        },
        {
          "internalType": "bytes",
          "name": "data",
          "type": "bytes"
        }
      ],
      "name": "safeBatchTransferFrom",
      "outputs": [],
      "stateMutability": "nonpayable",
      "type": "function"
    },
    {
      "inputs": [
        {
          "internalType": "address",
          "name": "from",
          "type": "address"
        },
        {
          "internalType": "address",
          "name": "to",
          "type": "address"
        },
        {
          "internalType": "uint256",
          "name": "id",
          "type": "uint256"
        },
        {
          "internalType": "uint256",
          "name": "amount",
          "type": "uint256"
        },
        {
          "internalType": "bytes",
          "name": "data",
          "type": "bytes"
        }
      ],
      "name": "safeTransferFrom",
      "outputs": [],
      "stateMutability": "nonpayable",
      "type": "function"
    },
    {
      "inputs": [
        {
          "internalType": "address",
          "name": "operator",
          "type": "address"
        },
        {
          "internalType": "bool",
          "name": "approved",
          "type": "bool"
        }
      ],
      "name": "setApprovalForAll",
      "outputs": [],
      "stateMutability": "nonpayable",
      "type": "function"
    },
    {
      "inputs": [
        {
          "internalType": "bytes4",
          "name": "interfaceId",
          "type": "bytes4"
        }
      ],
      "name": "supportsInterface",
      "outputs": [
        {
          "internalType": "bool",
          "name": "",
          "type": "bool"
        }
      ],
      "stateMutability": "view",
      "type": "function",
      "constant": true
    },
    {
      "inputs": [
        {
          "internalType": "uint256",
          "name": "tokenId",
          "type": "uint256"
        }
      ],
      "name": "uri",
      "outputs": [
        {
          "internalType": "string",
          "name": "",
          "type": "string"
        }
      ],
      "stateMutability": "view",
      "type": "function",
      "constant": true
    },
    {
      "inputs": [],
      "name": "yearId",
      "outputs": [
        {
          "internalType": "uint256",
          "name": "",
          "type": "uint256"
        }
      ],
      "stateMutability": "view",
      "type": "function",
      "constant": true
    },
    {
      "inputs": [
        {
          "internalType": "address",
          "name": "nftGraduation",
          "type": "address"
        }
      ],
      "name": "initialize",
      "outputs": [],
      "stateMutability": "nonpayable",
      "type": "function"
    },
    {
      "inputs": [],
      "name": "getOwnedNftCompleteCourse",
      "outputs": [
        {
          "components": [
            {
              "internalType": "uint256",
              "name": "tokenId",
              "type": "uint256"
            },
            {
              "internalType": "uint256",
              "name": "studentTokenId",
              "type": "uint256"
            },
            {
              "internalType": "uint256",
              "name": "courseId",
              "type": "uint256"
            },
            {
              "internalType": "uint256",
              "name": "knowledgeBlockId",
              "type": "uint256"
            },
            {
              "internalType": "uint256",
              "name": "credits",
              "type": "uint256"
            }
          ],
          "internalType": "struct IConstant.NftCompleteCourse[]",
          "name": "",
          "type": "tuple[]"
        },
        {
          "internalType": "string[]",
          "name": "",
          "type": "string[]"
        }
      ],
      "stateMutability": "view",
      "type": "function",
      "constant": true
    },
    {
      "inputs": [
        {
          "internalType": "uint256",
          "name": "tokenId",
          "type": "uint256"
        }
      ],
      "name": "getNftCompleteCourse",
      "outputs": [
        {
          "components": [
            {
              "internalType": "uint256",
              "name": "tokenId",
              "type": "uint256"
            },
            {
              "internalType": "uint256",
              "name": "studentTokenId",
              "type": "uint256"
            },
            {
              "internalType": "uint256",
              "name": "courseId",
              "type": "uint256"
            },
            {
              "internalType": "uint256",
              "name": "knowledgeBlockId",
              "type": "uint256"
            },
            {
              "internalType": "uint256",
              "name": "credits",
              "type": "uint256"
            }
          ],
          "internalType": "struct IConstant.NftCompleteCourse",
          "name": "",
          "type": "tuple"
        },
        {
          "internalType": "string",
          "name": "",
          "type": "string"
        }
      ],
      "stateMutability": "view",
      "type": "function",
      "constant": true
    },
    {
      "inputs": [
        {
          "internalType": "uint256",
          "name": "classId",
          "type": "uint256"
        }
      ],
      "name": "getNftCompleteCourseCreationQueueByClassId",
      "outputs": [
        {
          "internalType": "uint256[]",
          "name": "",
          "type": "uint256[]"
        }
      ],
      "stateMutability": "view",
      "type": "function",
      "constant": true
    },
    {
      "inputs": [
        {
          "internalType": "uint256",
          "name": "nftClassRegistrationTokenId",
          "type": "uint256"
        },
        {
          "internalType": "string",
          "name": "tokenURI",
          "type": "string"
        }
      ],
      "name": "exchangeNftCompleteCourse",
      "outputs": [],
      "stateMutability": "nonpayable",
      "type": "function"
    },
    {
      "inputs": [
        {
          "internalType": "uint256",
          "name": "courseId",
          "type": "uint256"
        },
        {
          "internalType": "address",
          "name": "studentAddr",
          "type": "address"
        }
      ],
      "name": "checkCompleteCourse",
      "outputs": [
        {
          "internalType": "bool",
          "name": "",
          "type": "bool"
        }
      ],
      "stateMutability": "view",
      "type": "function",
      "constant": true
    },
    {
      "inputs": [
        {
          "internalType": "bool",
          "name": "approved",
          "type": "bool"
        }
      ],
      "name": "approveOwnerForAllNft",
      "outputs": [],
      "stateMutability": "nonpayable",
      "type": "function"
    },
    {
      "inputs": [],
      "name": "checkApproveOwnerForAllNft",
      "outputs": [
        {
          "internalType": "bool",
          "name": "",
          "type": "bool"
        }
      ],
      "stateMutability": "view",
      "type": "function",
      "constant": true
    },
    {
      "inputs": [
        {
          "internalType": "address",
          "name": "sender",
          "type": "address"
        },
        {
          "internalType": "address",
          "name": "owner",
          "type": "address"
        }
      ],
      "name": "checkApprovedForAll",
      "outputs": [
        {
          "internalType": "bool",
          "name": "",
          "type": "bool"
        }
      ],
      "stateMutability": "view",
      "type": "function",
      "constant": true
    },
    {
      "inputs": [
        {
          "internalType": "uint256",
          "name": "studentTokenId",
          "type": "uint256"
        }
      ],
      "name": "regainNftCompleteCourses",
      "outputs": [],
      "stateMutability": "nonpayable",
      "type": "function"
    },
    {
      "inputs": [
        {
          "internalType": "uint256",
          "name": "studentTokenId",
          "type": "uint256"
        },
        {
          "internalType": "uint256[]",
          "name": "tokenIds",
          "type": "uint256[]"
        }
      ],
      "name": "_removeFromAllNftCompleteCourses",
      "outputs": [],
      "stateMutability": "nonpayable",
      "type": "function"
    },
    {
      "inputs": [
        {
          "internalType": "uint256[]",
          "name": "tokenIds",
          "type": "uint256[]"
        }
      ],
      "name": "checkAllNftCompleteCoursesRegained",
      "outputs": [
        {
          "internalType": "bool",
          "name": "",
          "type": "bool"
        }
      ],
      "stateMutability": "view",
      "type": "function",
      "constant": true
    }
  ],
  "bytecode": "0x60e060405260405180602001604052806000815250600390805190602001906200002b9291906200019d565b50670de0b6b3a7640000600855674563918244f40000600a553480156200005157600080fd5b5060405162005476380380620054768339818101604052810190620000779190620002b7565b604051806020016040528060008152508062000099816200018160201b60201c565b5033600560006101000a81548173ffffffffffffffffffffffffffffffffffffffff021916908373ffffffffffffffffffffffffffffffffffffffff160217905550508273ffffffffffffffffffffffffffffffffffffffff1660808173ffffffffffffffffffffffffffffffffffffffff16815250508173ffffffffffffffffffffffffffffffffffffffff1660a08173ffffffffffffffffffffffffffffffffffffffff16815250508073ffffffffffffffffffffffffffffffffffffffff1660c08173ffffffffffffffffffffffffffffffffffffffff168152505050505062000377565b8060029080519060200190620001999291906200019d565b5050565b828054620001ab9062000342565b90600052602060002090601f016020900481019282620001cf57600085556200021b565b82601f10620001ea57805160ff19168380011785556200021b565b828001600101855582156200021b579182015b828111156200021a578251825591602001919060010190620001fd565b5b5090506200022a91906200022e565b5090565b5b80821115620002495760008160009055506001016200022f565b5090565b600080fd5b600073ffffffffffffffffffffffffffffffffffffffff82169050919050565b60006200027f8262000252565b9050919050565b620002918162000272565b81146200029d57600080fd5b50565b600081519050620002b18162000286565b92915050565b600080600060608486031215620002d357620002d26200024d565b5b6000620002e386828701620002a0565b9350506020620002f686828701620002a0565b92505060406200030986828701620002a0565b9150509250925092565b7f4e487b7100000000000000000000000000000000000000000000000000000000600052602260045260246000fd5b600060028204905060018216806200035b57607f821691505b60208210810362000371576200037062000313565b5b50919050565b60805160a05160c0516150c4620003b26000396000610a21015260005050600081816106e00152818161128201526115d801526150c46000f3fe608060405234801561001057600080fd5b50600436106101575760003560e01c80636eabe75f116100c3578063d86044411161007c578063d8604441146103fb578063df264a5e1461042b578063df4e48911461044a578063e46d03f814610468578063e985e9c514610486578063f242432a146104b657610157565b80636eabe75f1461032657806385c7744c146103565780638f03802d14610387578063a22cb465146103a5578063af0d1cb5146103c1578063c4d66de8146103df57610157565b80632eb2c2d6116101155780632eb2c2d6146102425780633a3592361461025e578063422b0a501461027a5780634e1273f4146102aa57806359619d31146102da5780636987d0381461030a57610157565b8062fdd58e1461015c57806301ffc9a71461018c57806303ece623146101bc57806307971af8146101da5780630e89341c146101f65780632b91bc7e14610226575b600080fd5b61017660048036038101906101719190613133565b6104d2565b6040516101839190613182565b60405180910390f35b6101a660048036038101906101a191906131f5565b61059a565b6040516101b3919061323d565b60405180910390f35b6101c461067c565b6040516101d19190613182565b60405180910390f35b6101f460048036038101906101ef9190613258565b610682565b005b610210600480360381019061020b9190613258565b610937565b60405161021d919061331e565b60405180910390f35b610240600480360381019061023b9190613475565b610a1c565b005b61025c6004803603810190610257919061363a565b610bf1565b005b61027860048036038101906102739190613735565b610c92565b005b610294600480360381019061028f9190613762565b610cc1565b6040516102a1919061323d565b60405180910390f35b6102c460048036038101906102bf9190613865565b610cd5565b6040516102d1919061399b565b60405180910390f35b6102f460048036038101906102ef91906139bd565b610dee565b604051610301919061323d565b60405180910390f35b610324600480360381019061031f9190613a06565b610e70565b005b610340600480360381019061033b9190613a62565b61127d565b60405161034d919061323d565b60405180910390f35b610370600480360381019061036b9190613258565b611379565b60405161037e929190613b0a565b60405180910390f35b61038f611471565b60405161039c9190613182565b60405180910390f35b6103bf60048036038101906103ba9190613b3a565b611477565b005b6103c961148d565b6040516103d69190613182565b60405180910390f35b6103f960048036038101906103f49190613b7a565b611493565b005b61041560048036038101906104109190613258565b611566565b604051610422919061399b565b60405180910390f35b6104336115d1565b604051610441929190613dca565b60405180910390f35b6104526117f8565b60405161045f9190613182565b60405180910390f35b6104706117fe565b60405161047d919061323d565b60405180910390f35b6104a0600480360381019061049b9190613762565b611831565b6040516104ad919061323d565b60405180910390f35b6104d060048036038101906104cb9190613e01565b6118c5565b005b60008073ffffffffffffffffffffffffffffffffffffffff168373ffffffffffffffffffffffffffffffffffffffff1603610542576040517f08c379a000000000000000000000000000000000000000000000000000000000815260040161053990613f0a565b60405180910390fd5b60008083815260200190815260200160002060008473ffffffffffffffffffffffffffffffffffffffff1673ffffffffffffffffffffffffffffffffffffffff16815260200190815260200160002054905092915050565b60007fd9b67a26000000000000000000000000000000000000000000000000000000007bffffffffffffffffffffffffffffffffffffffffffffffffffffffff1916827bffffffffffffffffffffffffffffffffffffffffffffffffffffffff1916148061066557507f0e89341c000000000000000000000000000000000000000000000000000000007bffffffffffffffffffffffffffffffffffffffffffffffffffffffff1916827bffffffffffffffffffffffffffffffffffffffffffffffffffffffff1916145b80610675575061067482611966565b5b9050919050565b60085481565b3373ffffffffffffffffffffffffffffffffffffffff16600560009054906101000a900473ffffffffffffffffffffffffffffffffffffffff1673ffffffffffffffffffffffffffffffffffffffff16146106dc57600080fd5b60007f000000000000000000000000000000000000000000000000000000000000000073ffffffffffffffffffffffffffffffffffffffff16636352211e836040518263ffffffff1660e01b81526004016107379190613182565b602060405180830381865afa158015610754573d6000803e3d6000fd5b505050506040513d601f19601f820116820180604052508101906107789190613f3f565b90506107a681600560009054906101000a900473ffffffffffffffffffffffffffffffffffffffff16610cc1565b6107e5576040517f08c379a00000000000000000000000000000000000000000000000000000000081526004016107dc90613fb8565b60405180910390fd5b6000600b60019054906101000a900473ffffffffffffffffffffffffffffffffffffffff1673ffffffffffffffffffffffffffffffffffffffff1663c000fb08846040518263ffffffff1660e01b81526004016108429190613182565b600060405180830381865afa15801561085f573d6000803e3d6000fd5b505050506040513d6000823e3d601f19601f820116820180604052508101906108889190614084565b905060008151905060008167ffffffffffffffff8111156108ac576108ab61334a565b5b6040519080825280602002602001820160405280156108da5781602001602082028036833780820191505090505b50905060005b8281101561091a5760018282815181106108fd576108fc6140cd565b5b602002602001018181525050806109139061412b565b90506108e0565b506109268484836119d0565b6109308584610e70565b5050505050565b60606000600460008481526020019081526020016000208054610959906141a2565b80601f0160208091040260200160405190810160405280929190818152602001828054610985906141a2565b80156109d25780601f106109a7576101008083540402835291602001916109d2565b820191906000526020600020905b8154815290600101906020018083116109b557829003601f168201915b5050505050905060008151116109f0576109eb83611c9e565b610a14565b600381604051602001610a049291906142a3565b6040516020818303038152906040525b915050919050565b6000807f000000000000000000000000000000000000000000000000000000000000000073ffffffffffffffffffffffffffffffffffffffff16638e053c7033866040518363ffffffff1660e01b8152600401610a7a9291906142d6565b6000604051808303816000875af1158015610a99573d6000803e3d6000fd5b505050506040513d6000823e3d601f19601f82011682018060405250810190610ac29190614505565b915091506000816000015190506000610add33600187611d32565b9050610af88183866020015187604001518860800151611da7565b6013600083815260200190815260200160002081908060018154018082558091505060019003906000526020600020016000909190919091505560136000838152602001908152602001600020805490506014600084815260200190815260200160002060008381526020019081526020016000208190555060016017600084815260200190815260200160002060008660200151815260200190815260200160002060006101000a81548160ff0219169083151502179055507fa1ce3ead8e83e3d0d7c8fba00e72fcba3265aee4a21c5886129dc80211f27d0981604051610be19190613182565b60405180910390a1505050505050565b610bf9611e69565b73ffffffffffffffffffffffffffffffffffffffff168573ffffffffffffffffffffffffffffffffffffffff161480610c3f5750610c3e85610c39611e69565b611831565b5b610c7e576040517f08c379a0000000000000000000000000000000000000000000000000000000008152600401610c75906145d3565b60405180910390fd5b610c8b8585858585611e71565b5050505050565b610cbe600560009054906101000a900473ffffffffffffffffffffffffffffffffffffffff1682611477565b50565b6000610ccd8383611831565b905092915050565b60608151835114610d1b576040517f08c379a0000000000000000000000000000000000000000000000000000000008152600401610d1290614665565b60405180910390fd5b6000835167ffffffffffffffff811115610d3857610d3761334a565b5b604051908082528060200260200182016040528015610d665781602001602082028036833780820191505090505b50905060005b8451811015610de357610db3858281518110610d8b57610d8a6140cd565b5b6020026020010151858381518110610da657610da56140cd565b5b60200260200101516104d2565b828281518110610dc657610dc56140cd565b5b60200260200101818152505080610ddc9061412b565b9050610d6c565b508091505092915050565b6000808251905060005b81811015610e6457600060106000600181526020019081526020016000206000868481518110610e2b57610e2a6140cd565b5b60200260200101518152602001908152602001600020541115610e5357600092505050610e6b565b80610e5d9061412b565b9050610df8565b5060019150505b919050565b60008151905060005b8181101561127757600060106000600181526020019081526020016000206000858481518110610eac57610eab6140cd565b5b602002602001015181526020019081526020016000205490506000600f8054905090506000600f600184610ee09190614685565b81548110610ef157610ef06140cd565b5b90600052602060002090600502016040518060a00160405290816000820154815260200160018201548152602001600282015481526020016003820154815260200160048201548152505090506017600088815260200190815260200160002060008260400151815260200190815260200160002060006101000a81549060ff02191690556000601460008981526020019081526020016000206000888781518110610fa057610f9f6140cd565b5b602002602001015181526020019081526020016000205490506000601360008a815260200190815260200160002080549050905080821015611087576000601360008b8152602001908152602001600020600183610ffe9190614685565b8154811061100f5761100e6140cd565b5b9060005260206000200154905080601360008c815260200190815260200160002060018561103d9190614685565b8154811061104e5761104d6140cd565b5b906000526020600020018190555082601460008c8152602001908152602001600020600083815260200190815260200160002081905550505b601360008a81526020019081526020016000208054806110aa576110a96146b9565b5b60019003818190600052602060002001600090559055838510156111cb576000600f6001866110d99190614685565b815481106110ea576110e96140cd565b5b90600052602060002090600502016040518060a001604052908160008201548152602001600182015481526020016002820154815260200160038201548152602001600482015481525050905080600f6001886111479190614685565b81548110611158576111576140cd565b5b9060005260206000209060050201600082015181600001556020820151816001015560408201518160020155606082015181600301556080820151816004015590505085601060006001815260200190815260200160002060008360000151815260200190815260200160002081905550505b601060006001815260200190815260200160002060008988815181106111f4576111f36140cd565b5b6020026020010151815260200190815260200160002060009055600f8054806112205761121f6146b9565b5b60019003818190600052602060002090600502016000808201600090556001820160009055600282016000905560038201600090556004820160009055505090555050505050806112709061412b565b9050610e79565b50505050565b6000807f000000000000000000000000000000000000000000000000000000000000000073ffffffffffffffffffffffffffffffffffffffff166352db77c4600060018111156112d0576112cf6146e8565b5b856040518363ffffffff1660e01b81526004016112ee929190614717565b600060405180830381865afa15801561130b573d6000803e3d6000fd5b505050506040513d6000823e3d601f19601f8201168201806040525081019061133491906147e9565b6000015160000151905060176000828152602001908152602001600020600085815260200190815260200160002060009054906101000a900460ff1691505092915050565b611381612fb9565b6060600060106000600181526020019081526020016000206000858152602001908152602001600020549050600081116113f0576040517f08c379a00000000000000000000000000000000000000000000000000000000081526004016113e79061487e565b60405180910390fd5b600f6001826113ff9190614685565b815481106114105761140f6140cd565b5b906000526020600020906005020161142785610937565b816040518060a00160405290816000820154815260200160018201548152602001600282015481526020016003820154815260200160048201548152505091509250925050915091565b600d5481565b611489611482611e69565b8383612192565b5050565b600c5481565b3373ffffffffffffffffffffffffffffffffffffffff16600560009054906101000a900473ffffffffffffffffffffffffffffffffffffffff1673ffffffffffffffffffffffffffffffffffffffff16146114ed57600080fd5b600b60009054906101000a900460ff161561150757600080fd5b6001600b60006101000a81548160ff02191690831515021790555080600b60016101000a81548173ffffffffffffffffffffffffffffffffffffffff021916908373ffffffffffffffffffffffffffffffffffffffff16021790555050565b6060601560008381526020019081526020016000208054806020026020016040519081016040528092919081815260200182805480156115c557602002820191906000526020600020905b8154815260200190600101908083116115b1575b50505050509050919050565b60608060007f000000000000000000000000000000000000000000000000000000000000000073ffffffffffffffffffffffffffffffffffffffff166352db77c460006001811115611626576116256146e8565b5b336040518363ffffffff1660e01b8152600401611644929190614717565b600060405180830381865afa158015611661573d6000803e3d6000fd5b505050506040513d6000823e3d601f19601f8201168201806040525081019061168a91906147e9565b6000015160000151905060006013600083815260200190815260200160002080549050905060008167ffffffffffffffff8111156116cb576116ca61334a565b5b60405190808252806020026020018201604052801561170457816020015b6116f1612fb9565b8152602001906001900390816116e95790505b50905060008267ffffffffffffffff8111156117235761172261334a565b5b60405190808252806020026020018201604052801561175657816020015b60608152602001906001900390816117415790505b50905060005b838110156117e95761179c60136000878152602001908152602001600020828154811061178c5761178b6140cd565b5b9060005260206000200154611379565b8483815181106117af576117ae6140cd565b5b602002602001018484815181106117c9576117c86140cd565b5b602002602001018290528290525050806117e29061412b565b905061175c565b50818195509550505050509091565b600e5481565b600061182c33600560009054906101000a900473ffffffffffffffffffffffffffffffffffffffff16611831565b905090565b6000600160008473ffffffffffffffffffffffffffffffffffffffff1673ffffffffffffffffffffffffffffffffffffffff16815260200190815260200160002060008373ffffffffffffffffffffffffffffffffffffffff1673ffffffffffffffffffffffffffffffffffffffff16815260200190815260200160002060009054906101000a900460ff16905092915050565b6118cd611e69565b73ffffffffffffffffffffffffffffffffffffffff168573ffffffffffffffffffffffffffffffffffffffff16148061191357506119128561190d611e69565b611831565b5b611952576040517f08c379a0000000000000000000000000000000000000000000000000000000008152600401611949906145d3565b60405180910390fd5b61195f85858585856122fe565b5050505050565b60007f01ffc9a7000000000000000000000000000000000000000000000000000000007bffffffffffffffffffffffffffffffffffffffffffffffffffffffff1916827bffffffffffffffffffffffffffffffffffffffffffffffffffffffff1916149050919050565b600073ffffffffffffffffffffffffffffffffffffffff168373ffffffffffffffffffffffffffffffffffffffff1603611a3f576040517f08c379a0000000000000000000000000000000000000000000000000000000008152600401611a3690614910565b60405180910390fd5b8051825114611a83576040517f08c379a0000000000000000000000000000000000000000000000000000000008152600401611a7a906149a2565b60405180910390fd5b6000611a8d611e69565b9050611aad81856000868660405180602001604052806000815250612599565b60005b8351811015611bfa576000848281518110611ace57611acd6140cd565b5b602002602001015190506000848381518110611aed57611aec6140cd565b5b60200260200101519050600080600084815260200190815260200160002060008973ffffffffffffffffffffffffffffffffffffffff1673ffffffffffffffffffffffffffffffffffffffff16815260200190815260200160002054905081811015611b8e576040517f08c379a0000000000000000000000000000000000000000000000000000000008152600401611b8590614a34565b60405180910390fd5b81810360008085815260200190815260200160002060008a73ffffffffffffffffffffffffffffffffffffffff1673ffffffffffffffffffffffffffffffffffffffff168152602001908152602001600020819055505050508080611bf29061412b565b915050611ab0565b50600073ffffffffffffffffffffffffffffffffffffffff168473ffffffffffffffffffffffffffffffffffffffff168273ffffffffffffffffffffffffffffffffffffffff167f4a39dc06d4c0dbc64b70af90fd698a233a518aa5d07e595d983b8c0526c8f7fb8686604051611c72929190614a54565b60405180910390a4611c98818560008686604051806020016040528060008152506128c5565b50505050565b606060028054611cad906141a2565b80601f0160208091040260200160405190810160405280929190818152602001828054611cd9906141a2565b8015611d265780601f10611cfb57610100808354040283529160200191611d26565b820191906000526020600020905b815481529060010190602001808311611d0957829003601f168201915b50505050509050919050565b600080611d3e846128cd565b9050611d92858260016000368080601f016020809104026020016040519081016040528093929190818152602001838380828437600081840152601f19601f82011690508083019250505050505050612918565b611d9c8184612ac8565b809150509392505050565b60006040518060a00160405280878152602001868152602001858152602001848152602001838152509050600f81908060018154018082558091505060019003906000526020600020906005020160009091909190915060008201518160000155602082015181600101556040820151816002015560608201518160030155608082015181600401555050600f805490506010600060018152602001908152602001600020600088815260200190815260200160002081905550505050505050565b600033905090565b8151835114611eb5576040517f08c379a0000000000000000000000000000000000000000000000000000000008152600401611eac906149a2565b60405180910390fd5b600073ffffffffffffffffffffffffffffffffffffffff168473ffffffffffffffffffffffffffffffffffffffff1603611f24576040517f08c379a0000000000000000000000000000000000000000000000000000000008152600401611f1b90614afd565b60405180910390fd5b6000611f2e611e69565b9050611f3e818787878787612599565b60005b84518110156120ef576000858281518110611f5f57611f5e6140cd565b5b602002602001015190506000858381518110611f7e57611f7d6140cd565b5b60200260200101519050600080600084815260200190815260200160002060008b73ffffffffffffffffffffffffffffffffffffffff1673ffffffffffffffffffffffffffffffffffffffff1681526020019081526020016000205490508181101561201f576040517f08c379a000000000000000000000000000000000000000000000000000000000815260040161201690614b8f565b60405180910390fd5b81810360008085815260200190815260200160002060008c73ffffffffffffffffffffffffffffffffffffffff1673ffffffffffffffffffffffffffffffffffffffff168152602001908152602001600020819055508160008085815260200190815260200160002060008b73ffffffffffffffffffffffffffffffffffffffff1673ffffffffffffffffffffffffffffffffffffffff16815260200190815260200160002060008282546120d49190614baf565b92505081905550505050806120e89061412b565b9050611f41565b508473ffffffffffffffffffffffffffffffffffffffff168673ffffffffffffffffffffffffffffffffffffffff168273ffffffffffffffffffffffffffffffffffffffff167f4a39dc06d4c0dbc64b70af90fd698a233a518aa5d07e595d983b8c0526c8f7fb8787604051612166929190614a54565b60405180910390a461217c8187878787876128c5565b61218a818787878787612b34565b505050505050565b8173ffffffffffffffffffffffffffffffffffffffff168373ffffffffffffffffffffffffffffffffffffffff1603612200576040517f08c379a00000000000000000000000000000000000000000000000000000000081526004016121f790614c77565b60405180910390fd5b80600160008573ffffffffffffffffffffffffffffffffffffffff1673ffffffffffffffffffffffffffffffffffffffff16815260200190815260200160002060008473ffffffffffffffffffffffffffffffffffffffff1673ffffffffffffffffffffffffffffffffffffffff16815260200190815260200160002060006101000a81548160ff0219169083151502179055508173ffffffffffffffffffffffffffffffffffffffff168373ffffffffffffffffffffffffffffffffffffffff167f17307eab39ab6107e8899845ad3d59bd9653f200f220920489ca2b5937696c31836040516122f1919061323d565b60405180910390a3505050565b600073ffffffffffffffffffffffffffffffffffffffff168473ffffffffffffffffffffffffffffffffffffffff160361236d576040517f08c379a000000000000000000000000000000000000000000000000000000000815260040161236490614afd565b60405180910390fd5b6000612377611e69565b9050600061238485612d0b565b9050600061239185612d0b565b90506123a1838989858589612599565b600080600088815260200190815260200160002060008a73ffffffffffffffffffffffffffffffffffffffff1673ffffffffffffffffffffffffffffffffffffffff16815260200190815260200160002054905085811015612438576040517f08c379a000000000000000000000000000000000000000000000000000000000815260040161242f90614b8f565b60405180910390fd5b85810360008089815260200190815260200160002060008b73ffffffffffffffffffffffffffffffffffffffff1673ffffffffffffffffffffffffffffffffffffffff168152602001908152602001600020819055508560008089815260200190815260200160002060008a73ffffffffffffffffffffffffffffffffffffffff1673ffffffffffffffffffffffffffffffffffffffff16815260200190815260200160002060008282546124ed9190614baf565b925050819055508773ffffffffffffffffffffffffffffffffffffffff168973ffffffffffffffffffffffffffffffffffffffff168573ffffffffffffffffffffffffffffffffffffffff167fc3d58168c5ae7397731d063d5bbf3d657854427343f4c083240f7aacaa2d0f628a8a60405161256a929190614c97565b60405180910390a4612580848a8a86868a6128c5565b61258e848a8a8a8a8a612d85565b505050505050505050565b6125a7868686868686612f5c565b600083519050600073ffffffffffffffffffffffffffffffffffffffff168673ffffffffffffffffffffffffffffffffffffffff16036126a95760005b818110156126a2576000612611868381518110612604576126036140cd565b5b6020026020010151612f64565b90508660076000838152602001908152602001600020600088858151811061263c5761263b6140cd565b5b6020026020010151815260200190815260200160002060006101000a81548173ffffffffffffffffffffffffffffffffffffffff021916908373ffffffffffffffffffffffffffffffffffffffff160217905550508061269b9061412b565b90506125e4565b50506128bd565b600073ffffffffffffffffffffffffffffffffffffffff168573ffffffffffffffffffffffffffffffffffffffff16036127895760005b8181101561278257600061270d868381518110612700576126ff6140cd565b5b6020026020010151612f64565b9050600760008281526020019081526020016000206000878481518110612737576127366140cd565b5b6020026020010151815260200190815260200160002060006101000a81549073ffffffffffffffffffffffffffffffffffffffff0219169055508061277b9061412b565b90506126e0565b50506128bd565b600073ffffffffffffffffffffffffffffffffffffffff168673ffffffffffffffffffffffffffffffffffffffff16141580156127f35750600073ffffffffffffffffffffffffffffffffffffffff168573ffffffffffffffffffffffffffffffffffffffff1614155b156128bb5760005b818110156128b957600061282886838151811061281b5761281a6140cd565b5b6020026020010151612f64565b905086600760008381526020019081526020016000206000888581518110612853576128526140cd565b5b6020026020010151815260200190815260200160002060006101000a81548173ffffffffffffffffffffffffffffffffffffffff021916908373ffffffffffffffffffffffffffffffffffffffff16021790555050806128b29061412b565b90506127fb565b505b505b505050505050565b505050505050565b60006128ea60066000848152602001908152602001600020612f72565b600061290760066000858152602001908152602001600020612f88565b905080601084901b17915050919050565b600073ffffffffffffffffffffffffffffffffffffffff168473ffffffffffffffffffffffffffffffffffffffff1603612987576040517f08c379a000000000000000000000000000000000000000000000000000000000815260040161297e90614d32565b60405180910390fd5b6000612991611e69565b9050600061299e85612d0b565b905060006129ab85612d0b565b90506129bc83600089858589612599565b8460008088815260200190815260200160002060008973ffffffffffffffffffffffffffffffffffffffff1673ffffffffffffffffffffffffffffffffffffffff1681526020019081526020016000206000828254612a1b9190614baf565b925050819055508673ffffffffffffffffffffffffffffffffffffffff16600073ffffffffffffffffffffffffffffffffffffffff168473ffffffffffffffffffffffffffffffffffffffff167fc3d58168c5ae7397731d063d5bbf3d657854427343f4c083240f7aacaa2d0f628989604051612a99929190614c97565b60405180910390a4612ab0836000898585896128c5565b612abf83600089898989612d85565b50505050505050565b80600460008481526020019081526020016000209080519060200190612aef929190612fe8565b50817f6bb7ff708619ba0610cba295a58592e0451dee2622938c8755667688daf3529b612b1b84610937565b604051612b28919061331e565b60405180910390a25050565b612b538473ffffffffffffffffffffffffffffffffffffffff16612f96565b15612d03578373ffffffffffffffffffffffffffffffffffffffff1663bc197c8187878686866040518663ffffffff1660e01b8152600401612b99959493929190614da7565b6020604051808303816000875af1925050508015612bd557506040513d601f19601f82011682018060405250810190612bd29190614e24565b60015b612c7a57612be1614e5e565b806308c379a003612c3d5750612bf5614e80565b80612c005750612c3f565b806040517f08c379a0000000000000000000000000000000000000000000000000000000008152600401612c34919061331e565b60405180910390fd5b505b6040517f08c379a0000000000000000000000000000000000000000000000000000000008152600401612c7190614f82565b60405180910390fd5b63bc197c8160e01b7bffffffffffffffffffffffffffffffffffffffffffffffffffffffff1916817bffffffffffffffffffffffffffffffffffffffffffffffffffffffff191614612d01576040517f08c379a0000000000000000000000000000000000000000000000000000000008152600401612cf890615014565b60405180910390fd5b505b505050505050565b60606000600167ffffffffffffffff811115612d2a57612d2961334a565b5b604051908082528060200260200182016040528015612d585781602001602082028036833780820191505090505b5090508281600081518110612d7057612d6f6140cd565b5b60200260200101818152505080915050919050565b612da48473ffffffffffffffffffffffffffffffffffffffff16612f96565b15612f54578373ffffffffffffffffffffffffffffffffffffffff1663f23a6e6187878686866040518663ffffffff1660e01b8152600401612dea959493929190615034565b6020604051808303816000875af1925050508015612e2657506040513d601f19601f82011682018060405250810190612e239190614e24565b60015b612ecb57612e32614e5e565b806308c379a003612e8e5750612e46614e80565b80612e515750612e90565b806040517f08c379a0000000000000000000000000000000000000000000000000000000008152600401612e85919061331e565b60405180910390fd5b505b6040517f08c379a0000000000000000000000000000000000000000000000000000000008152600401612ec290614f82565b60405180910390fd5b63f23a6e6160e01b7bffffffffffffffffffffffffffffffffffffffffffffffffffffffff1916817bffffffffffffffffffffffffffffffffffffffffffffffffffffffff191614612f52576040517f08c379a0000000000000000000000000000000000000000000000000000000008152600401612f4990615014565b60405180910390fd5b505b505050505050565b505050505050565b6000601082901c9050919050565b6001816000016000828254019250508190555050565b600081600001549050919050565b6000808273ffffffffffffffffffffffffffffffffffffffff163b119050919050565b6040518060a0016040528060008152602001600081526020016000815260200160008152602001600081525090565b828054612ff4906141a2565b90600052602060002090601f016020900481019282613016576000855561305d565b82601f1061302f57805160ff191683800117855561305d565b8280016001018555821561305d579182015b8281111561305c578251825591602001919060010190613041565b5b50905061306a919061306e565b5090565b5b8082111561308757600081600090555060010161306f565b5090565b6000604051905090565b600080fd5b600080fd5b600073ffffffffffffffffffffffffffffffffffffffff82169050919050565b60006130ca8261309f565b9050919050565b6130da816130bf565b81146130e557600080fd5b50565b6000813590506130f7816130d1565b92915050565b6000819050919050565b613110816130fd565b811461311b57600080fd5b50565b60008135905061312d81613107565b92915050565b6000806040838503121561314a57613149613095565b5b6000613158858286016130e8565b92505060206131698582860161311e565b9150509250929050565b61317c816130fd565b82525050565b60006020820190506131976000830184613173565b92915050565b60007fffffffff0000000000000000000000000000000000000000000000000000000082169050919050565b6131d28161319d565b81146131dd57600080fd5b50565b6000813590506131ef816131c9565b92915050565b60006020828403121561320b5761320a613095565b5b6000613219848285016131e0565b91505092915050565b60008115159050919050565b61323781613222565b82525050565b6000602082019050613252600083018461322e565b92915050565b60006020828403121561326e5761326d613095565b5b600061327c8482850161311e565b91505092915050565b600081519050919050565b600082825260208201905092915050565b60005b838110156132bf5780820151818401526020810190506132a4565b838111156132ce576000848401525b50505050565b6000601f19601f8301169050919050565b60006132f082613285565b6132fa8185613290565b935061330a8185602086016132a1565b613313816132d4565b840191505092915050565b6000602082019050818103600083015261333881846132e5565b905092915050565b600080fd5b600080fd5b7f4e487b7100000000000000000000000000000000000000000000000000000000600052604160045260246000fd5b613382826132d4565b810181811067ffffffffffffffff821117156133a1576133a061334a565b5b80604052505050565b60006133b461308b565b90506133c08282613379565b919050565b600067ffffffffffffffff8211156133e0576133df61334a565b5b6133e9826132d4565b9050602081019050919050565b82818337600083830152505050565b6000613418613413846133c5565b6133aa565b90508281526020810184848401111561343457613433613345565b5b61343f8482856133f6565b509392505050565b600082601f83011261345c5761345b613340565b5b813561346c848260208601613405565b91505092915050565b6000806040838503121561348c5761348b613095565b5b600061349a8582860161311e565b925050602083013567ffffffffffffffff8111156134bb576134ba61309a565b5b6134c785828601613447565b9150509250929050565b600067ffffffffffffffff8211156134ec576134eb61334a565b5b602082029050602081019050919050565b600080fd5b6000613515613510846134d1565b6133aa565b90508083825260208201905060208402830185811115613538576135376134fd565b5b835b81811015613561578061354d888261311e565b84526020840193505060208101905061353a565b5050509392505050565b600082601f8301126135805761357f613340565b5b8135613590848260208601613502565b91505092915050565b600067ffffffffffffffff8211156135b4576135b361334a565b5b6135bd826132d4565b9050602081019050919050565b60006135dd6135d884613599565b6133aa565b9050828152602081018484840111156135f9576135f8613345565b5b6136048482856133f6565b509392505050565b600082601f83011261362157613620613340565b5b81356136318482602086016135ca565b91505092915050565b600080600080600060a0868803121561365657613655613095565b5b6000613664888289016130e8565b9550506020613675888289016130e8565b945050604086013567ffffffffffffffff8111156136965761369561309a565b5b6136a28882890161356b565b935050606086013567ffffffffffffffff8111156136c3576136c261309a565b5b6136cf8882890161356b565b925050608086013567ffffffffffffffff8111156136f0576136ef61309a565b5b6136fc8882890161360c565b9150509295509295909350565b61371281613222565b811461371d57600080fd5b50565b60008135905061372f81613709565b92915050565b60006020828403121561374b5761374a613095565b5b600061375984828501613720565b91505092915050565b6000806040838503121561377957613778613095565b5b6000613787858286016130e8565b9250506020613798858286016130e8565b9150509250929050565b600067ffffffffffffffff8211156137bd576137bc61334a565b5b602082029050602081019050919050565b60006137e16137dc846137a2565b6133aa565b90508083825260208201905060208402830185811115613804576138036134fd565b5b835b8181101561382d578061381988826130e8565b845260208401935050602081019050613806565b5050509392505050565b600082601f83011261384c5761384b613340565b5b813561385c8482602086016137ce565b91505092915050565b6000806040838503121561387c5761387b613095565b5b600083013567ffffffffffffffff81111561389a5761389961309a565b5b6138a685828601613837565b925050602083013567ffffffffffffffff8111156138c7576138c661309a565b5b6138d38582860161356b565b9150509250929050565b600081519050919050565b600082825260208201905092915050565b6000819050602082019050919050565b613912816130fd565b82525050565b60006139248383613909565b60208301905092915050565b6000602082019050919050565b6000613948826138dd565b61395281856138e8565b935061395d836138f9565b8060005b8381101561398e5781516139758882613918565b975061398083613930565b925050600181019050613961565b5085935050505092915050565b600060208201905081810360008301526139b5818461393d565b905092915050565b6000602082840312156139d3576139d2613095565b5b600082013567ffffffffffffffff8111156139f1576139f061309a565b5b6139fd8482850161356b565b91505092915050565b60008060408385031215613a1d57613a1c613095565b5b6000613a2b8582860161311e565b925050602083013567ffffffffffffffff811115613a4c57613a4b61309a565b5b613a588582860161356b565b9150509250929050565b60008060408385031215613a7957613a78613095565b5b6000613a878582860161311e565b9250506020613a98858286016130e8565b9150509250929050565b60a082016000820151613ab86000850182613909565b506020820151613acb6020850182613909565b506040820151613ade6040850182613909565b506060820151613af16060850182613909565b506080820151613b046080850182613909565b50505050565b600060c082019050613b1f6000830185613aa2565b81810360a0830152613b3181846132e5565b90509392505050565b60008060408385031215613b5157613b50613095565b5b6000613b5f858286016130e8565b9250506020613b7085828601613720565b9150509250929050565b600060208284031215613b9057613b8f613095565b5b6000613b9e848285016130e8565b91505092915050565b600081519050919050565b600082825260208201905092915050565b6000819050602082019050919050565b60a082016000820151613be96000850182613909565b506020820151613bfc6020850182613909565b506040820151613c0f6040850182613909565b506060820151613c226060850182613909565b506080820151613c356080850182613909565b50505050565b6000613c478383613bd3565b60a08301905092915050565b6000602082019050919050565b6000613c6b82613ba7565b613c758185613bb2565b9350613c8083613bc3565b8060005b83811015613cb1578151613c988882613c3b565b9750613ca383613c53565b925050600181019050613c84565b5085935050505092915050565b600081519050919050565b600082825260208201905092915050565b6000819050602082019050919050565b600082825260208201905092915050565b6000613d0682613285565b613d108185613cea565b9350613d208185602086016132a1565b613d29816132d4565b840191505092915050565b6000613d408383613cfb565b905092915050565b6000602082019050919050565b6000613d6082613cbe565b613d6a8185613cc9565b935083602082028501613d7c85613cda565b8060005b85811015613db85784840389528151613d998582613d34565b9450613da483613d48565b925060208a01995050600181019050613d80565b50829750879550505050505092915050565b60006040820190508181036000830152613de48185613c60565b90508181036020830152613df88184613d55565b90509392505050565b600080600080600060a08688031215613e1d57613e1c613095565b5b6000613e2b888289016130e8565b9550506020613e3c888289016130e8565b9450506040613e4d8882890161311e565b9350506060613e5e8882890161311e565b925050608086013567ffffffffffffffff811115613e7f57613e7e61309a565b5b613e8b8882890161360c565b9150509295509295909350565b7f455243313135353a2061646472657373207a65726f206973206e6f742061207660008201527f616c6964206f776e657200000000000000000000000000000000000000000000602082015250565b6000613ef4602a83613290565b9150613eff82613e98565b604082019050919050565b60006020820190508181036000830152613f2381613ee7565b9050919050565b600081519050613f39816130d1565b92915050565b600060208284031215613f5557613f54613095565b5b6000613f6384828501613f2a565b91505092915050565b7f6e6f7420617070726f7665642062792073747564656e74000000000000000000600082015250565b6000613fa2601783613290565b9150613fad82613f6c565b602082019050919050565b60006020820190508181036000830152613fd181613f95565b9050919050565b600081519050613fe781613107565b92915050565b6000614000613ffb846134d1565b6133aa565b90508083825260208201905060208402830185811115614023576140226134fd565b5b835b8181101561404c57806140388882613fd8565b845260208401935050602081019050614025565b5050509392505050565b600082601f83011261406b5761406a613340565b5b815161407b848260208601613fed565b91505092915050565b60006020828403121561409a57614099613095565b5b600082015167ffffffffffffffff8111156140b8576140b761309a565b5b6140c484828501614056565b91505092915050565b7f4e487b7100000000000000000000000000000000000000000000000000000000600052603260045260246000fd5b7f4e487b7100000000000000000000000000000000000000000000000000000000600052601160045260246000fd5b6000614136826130fd565b91507fffffffffffffffffffffffffffffffffffffffffffffffffffffffffffffffff8203614168576141676140fc565b5b600182019050919050565b7f4e487b7100000000000000000000000000000000000000000000000000000000600052602260045260246000fd5b600060028204905060018216806141ba57607f821691505b6020821081036141cd576141cc614173565b5b50919050565b600081905092915050565b60008190508160005260206000209050919050565b60008154614200816141a2565b61420a81866141d3565b94506001821660008114614225576001811461423657614269565b60ff19831686528186019350614269565b61423f856141de565b60005b8381101561426157815481890152600182019150602081019050614242565b838801955050505b50505092915050565b600061427d82613285565b61428781856141d3565b93506142978185602086016132a1565b80840191505092915050565b60006142af82856141f3565b91506142bb8284614272565b91508190509392505050565b6142d0816130bf565b82525050565b60006040820190506142eb60008301856142c7565b6142f86020830184613173565b9392505050565b600080fd5b600080fd5b600061431c614317846133c5565b6133aa565b90508281526020810184848401111561433857614337613345565b5b6143438482856132a1565b509392505050565b600082601f8301126143605761435f613340565b5b8151614370848260208601614309565b91505092915050565b600061016082840312156143905761438f6142ff565b5b61439b6101606133aa565b905060006143ab84828501613fd8565b60008301525060206143bf84828501613fd8565b60208301525060406143d384828501613fd8565b60408301525060606143e784828501613fd8565b60608301525060806143fb84828501613fd8565b60808301525060a061440f84828501613fd8565b60a08301525060c061442384828501613fd8565b60c08301525060e061443784828501613fd8565b60e08301525061010061444c84828501613fd8565b6101008301525061012061446284828501613fd8565b6101208301525061014082015167ffffffffffffffff81111561448857614487614304565b5b6144948482850161434b565b6101408301525092915050565b6000606082840312156144b7576144b66142ff565b5b6144c160606133aa565b905060006144d184828501613fd8565b60008301525060206144e584828501613f2a565b60208301525060406144f984828501613fd8565b60408301525092915050565b6000806080838503121561451c5761451b613095565b5b600083015167ffffffffffffffff81111561453a5761453961309a565b5b61454685828601614379565b9250506020614557858286016144a1565b9150509250929050565b7f455243313135353a2063616c6c6572206973206e6f7420746f6b656e206f776e60008201527f6572206f7220617070726f766564000000000000000000000000000000000000602082015250565b60006145bd602e83613290565b91506145c882614561565b604082019050919050565b600060208201905081810360008301526145ec816145b0565b9050919050565b7f455243313135353a206163636f756e747320616e6420696473206c656e67746860008201527f206d69736d617463680000000000000000000000000000000000000000000000602082015250565b600061464f602983613290565b915061465a826145f3565b604082019050919050565b6000602082019050818103600083015261467e81614642565b9050919050565b6000614690826130fd565b915061469b836130fd565b9250828210156146ae576146ad6140fc565b5b828203905092915050565b7f4e487b7100000000000000000000000000000000000000000000000000000000600052603160045260246000fd5b7f4e487b7100000000000000000000000000000000000000000000000000000000600052602160045260246000fd5b600060408201905061472c6000830185613173565b61473960208301846142c7565b9392505050565b60008151905061474f81613709565b92915050565b600060c0828403121561476b5761476a6142ff565b5b61477560806133aa565b90506000614785848285016144a1565b600083015250606082015167ffffffffffffffff8111156147a9576147a8614304565b5b6147b58482850161434b565b60208301525060806147c984828501613fd8565b60408301525060a06147dd84828501614740565b60608301525092915050565b6000602082840312156147ff576147fe613095565b5b600082015167ffffffffffffffff81111561481d5761481c61309a565b5b61482984828501614755565b91505092915050565b7f5b4e465420436f6d706c65746520436f757273655d204e6f7420657869737400600082015250565b6000614868601f83613290565b915061487382614832565b602082019050919050565b600060208201905081810360008301526148978161485b565b9050919050565b7f455243313135353a206275726e2066726f6d20746865207a65726f206164647260008201527f6573730000000000000000000000000000000000000000000000000000000000602082015250565b60006148fa602383613290565b91506149058261489e565b604082019050919050565b60006020820190508181036000830152614929816148ed565b9050919050565b7f455243313135353a2069647320616e6420616d6f756e7473206c656e6774682060008201527f6d69736d61746368000000000000000000000000000000000000000000000000602082015250565b600061498c602883613290565b915061499782614930565b604082019050919050565b600060208201905081810360008301526149bb8161497f565b9050919050565b7f455243313135353a206275726e20616d6f756e7420657863656564732062616c60008201527f616e636500000000000000000000000000000000000000000000000000000000602082015250565b6000614a1e602483613290565b9150614a29826149c2565b604082019050919050565b60006020820190508181036000830152614a4d81614a11565b9050919050565b60006040820190508181036000830152614a6e818561393d565b90508181036020830152614a82818461393d565b90509392505050565b7f455243313135353a207472616e7366657220746f20746865207a65726f20616460008201527f6472657373000000000000000000000000000000000000000000000000000000602082015250565b6000614ae7602583613290565b9150614af282614a8b565b604082019050919050565b60006020820190508181036000830152614b1681614ada565b9050919050565b7f455243313135353a20696e73756666696369656e742062616c616e636520666f60008201527f72207472616e7366657200000000000000000000000000000000000000000000602082015250565b6000614b79602a83613290565b9150614b8482614b1d565b604082019050919050565b60006020820190508181036000830152614ba881614b6c565b9050919050565b6000614bba826130fd565b9150614bc5836130fd565b9250827fffffffffffffffffffffffffffffffffffffffffffffffffffffffffffffffff03821115614bfa57614bf96140fc565b5b828201905092915050565b7f455243313135353a2073657474696e6720617070726f76616c2073746174757360008201527f20666f722073656c660000000000000000000000000000000000000000000000602082015250565b6000614c61602983613290565b9150614c6c82614c05565b604082019050919050565b60006020820190508181036000830152614c9081614c54565b9050919050565b6000604082019050614cac6000830185613173565b614cb96020830184613173565b9392505050565b7f455243313135353a206d696e7420746f20746865207a65726f2061646472657360008201527f7300000000000000000000000000000000000000000000000000000000000000602082015250565b6000614d1c602183613290565b9150614d2782614cc0565b604082019050919050565b60006020820190508181036000830152614d4b81614d0f565b9050919050565b600081519050919050565b600082825260208201905092915050565b6000614d7982614d52565b614d838185614d5d565b9350614d938185602086016132a1565b614d9c816132d4565b840191505092915050565b600060a082019050614dbc60008301886142c7565b614dc960208301876142c7565b8181036040830152614ddb818661393d565b90508181036060830152614def818561393d565b90508181036080830152614e038184614d6e565b90509695505050505050565b600081519050614e1e816131c9565b92915050565b600060208284031215614e3a57614e39613095565b5b6000614e4884828501614e0f565b91505092915050565b60008160e01c9050919050565b600060033d1115614e7d5760046000803e614e7a600051614e51565b90505b90565b600060443d10614f0d57614e9261308b565b60043d036004823e80513d602482011167ffffffffffffffff82111715614eba575050614f0d565b808201805167ffffffffffffffff811115614ed85750505050614f0d565b80602083010160043d038501811115614ef5575050505050614f0d565b614f0482602001850186613379565b82955050505050505b90565b7f455243313135353a207472616e7366657220746f206e6f6e2d4552433131353560008201527f526563656976657220696d706c656d656e746572000000000000000000000000602082015250565b6000614f6c603483613290565b9150614f7782614f10565b604082019050919050565b60006020820190508181036000830152614f9b81614f5f565b9050919050565b7f455243313135353a204552433131353552656365697665722072656a6563746560008201527f6420746f6b656e73000000000000000000000000000000000000000000000000602082015250565b6000614ffe602883613290565b915061500982614fa2565b604082019050919050565b6000602082019050818103600083015261502d81614ff1565b9050919050565b600060a08201905061504960008301886142c7565b61505660208301876142c7565b6150636040830186613173565b6150706060830185613173565b81810360808301526150828184614d6e565b9050969550505050505056fea26469706673582212203f8118abcdd58644375814ff38c5a6d2ac7b21547623de65f1d044d02a47c04164736f6c634300080d0033",
  "immutableReferences": {
    "5271": [
      {
        "length": 32,
        "start": 1760
      },
      {
        "length": 32,
        "start": 4738
      },
      {
        "length": 32,
        "start": 5592
      }
    ],
    "5277": [
      {
        "length": 32,
        "start": 2593
      }
    ]
  },
  "source": "// SPDX-License-Identifier: MIT\r\n// Tells the Solidity compiler to compile only from v0.8.13 to v0.9.0\r\npragma solidity ^0.8.13;\r\n\r\nimport \"./base/ERC1155BaseContract.sol\";\r\nimport \"./interfaces/INftClassRegistration.sol\";\r\nimport \"./interfaces/ISchool.sol\";\r\nimport \"./interfaces/INftCompleteCourses.sol\";\r\nimport \"./interfaces/INftGraduation.sol\";\r\nimport \"./interfaces/INftIdentities.sol\";\r\nimport \"./utils/ArrayMath.sol\";\r\n\r\ncontract NftCompleteCourses is ERC1155BaseContract, INftCompleteCourses {\r\n    using Counters for Counters.Counter;\r\n    using ArrayMath for uint256[];\r\n    uint256 constant NFT_COMPLETE_COURSE = 1;\r\n    uint256 constant NFT_GRADUATION = 2;\r\n\r\n    uint256 public graduationPrice = 1 ether;\r\n\r\n    string[] private courseURIs;\r\n    uint256 private _requiredAvgScore = 5 ether;\r\n\r\n    bool private _isInitialize;\r\n\r\n    INftIdentities private immutable _nftIdentities;\r\n    ISchool private immutable _school;\r\n    INftClassRegistration private immutable _nftClassRegistration;\r\n    INftGraduation private _nftGraduation;\r\n\r\n    uint256 public registeredStartAt;\r\n    uint256 public registeredEndAt;\r\n    uint256 public yearId;\r\n\r\n    NftCompleteCourse[] private _allNftCompleteCourses;\r\n    mapping(uint256 => mapping(uint256 => uint256)) _posOfTokenIdOfNftType;\r\n\r\n    mapping(uint256 => uint256[]) _studentsOfClass;\r\n    mapping(uint256 => mapping(uint256 => uint256)) _posOfStudentInClass;\r\n    mapping(uint256 => uint256[]) private _studentOwnedCompleteCourseNfts;\r\n    mapping(uint256 => mapping(uint256 => uint256))\r\n        private _posOfOwnedCompleteCourseNft;\r\n\r\n    mapping(uint256 => uint256[]) _nftCompleteCourseQueue;\r\n    mapping(uint256 => mapping(uint256 => uint256)) _posOfStudentInQueue;\r\n\r\n    mapping(uint256 => mapping(uint256 => bool))\r\n        private _completedCoursesOfStudent;\r\n    mapping(address => uint256) private _studentOwnedNftGraduation;\r\n\r\n    event NewCompleteCourseCreated(uint256 tokenId);\r\n\r\n    modifier onlyOwner() {\r\n        require(_owner == msg.sender);\r\n        _;\r\n    }\r\n\r\n    modifier onlySchoolContract() {\r\n        require(msg.sender == address(_school));\r\n        _;\r\n    }\r\n\r\n    modifier canOperate(uint256 role) {\r\n        require(_nftIdentities.isAbleToOperate(msg.sender, role));\r\n        _;\r\n    }\r\n\r\n    constructor(\r\n        address nftIdentities,\r\n        address school,\r\n        address nftClassRegistration\r\n    ) ERC1155BaseContract(\"\") {\r\n        _nftIdentities = INftIdentities(nftIdentities);\r\n        _school = ISchool(school);\r\n        _nftClassRegistration = INftClassRegistration(nftClassRegistration);\r\n    }\r\n\r\n    function initialize(address nftGraduation) public onlyOwner {\r\n        require(!_isInitialize);\r\n        _isInitialize = true;\r\n        _nftGraduation = INftGraduation(nftGraduation);\r\n    }\r\n\r\n    function getOwnedNftCompleteCourse()\r\n        external\r\n        view\r\n        returns (NftCompleteCourse[] memory, string[] memory)\r\n    {\r\n        uint256 studentTokenId = _nftIdentities\r\n            .getNftOfMemberWithRole(uint256(ROLE.STUDENT), msg.sender)\r\n            .nftIdentity\r\n            .tokenId;\r\n        uint256 numberOfNftCompleteCourses = _studentOwnedCompleteCourseNfts[\r\n            studentTokenId\r\n        ].length;\r\n\r\n        NftCompleteCourse[] memory nfts = new NftCompleteCourse[](\r\n            numberOfNftCompleteCourses\r\n        );\r\n        string[] memory nftURIs = new string[](numberOfNftCompleteCourses);\r\n\r\n        for (uint256 idx = 0; idx < numberOfNftCompleteCourses; ++idx) {\r\n            (nfts[idx], nftURIs[idx]) = getNftCompleteCourse(\r\n                _studentOwnedCompleteCourseNfts[studentTokenId][idx]\r\n            );\r\n        }\r\n\r\n        return (nfts, nftURIs);\r\n    }\r\n\r\n    function getNftCompleteCourse(\r\n        uint256 tokenId\r\n    ) public view returns (NftCompleteCourse memory, string memory) {\r\n        uint256 pos = _posOfTokenIdOfNftType[NFT_COMPLETE_COURSE][tokenId];\r\n        require(pos > 0, \"[NFT Complete Course] Not exist\");\r\n\r\n        return (_allNftCompleteCourses[pos - 1], uri(tokenId));\r\n    }\r\n\r\n    function getNftCompleteCourseCreationQueueByClassId(\r\n        uint256 classId\r\n    ) public view returns (uint256[] memory) {\r\n        return _nftCompleteCourseQueue[classId];\r\n    }\r\n\r\n    function exchangeNftCompleteCourse(\r\n        uint256 nftClassRegistrationTokenId,\r\n        string memory tokenURI\r\n    ) public {\r\n        (\r\n            Class memory class,\r\n            NftIdentity memory nftIdentity\r\n        ) = _nftClassRegistration.regainV2(\r\n                msg.sender,\r\n                nftClassRegistrationTokenId\r\n            );\r\n\r\n        uint256 studentTokenId = nftIdentity.tokenId;\r\n        uint256 tokenId = _mintToken(msg.sender, NFT_COMPLETE_COURSE, tokenURI);\r\n        _createNftCompleteCourse(\r\n            tokenId,\r\n            studentTokenId,\r\n            class.courseId,\r\n            class.knowledgeBlockId,\r\n            class.credits\r\n        );\r\n        _studentOwnedCompleteCourseNfts[studentTokenId].push(tokenId);\r\n        _posOfOwnedCompleteCourseNft[studentTokenId][\r\n            tokenId\r\n        ] = _studentOwnedCompleteCourseNfts[studentTokenId].length;\r\n        _completedCoursesOfStudent[studentTokenId][class.courseId] = true;\r\n        emit NewCompleteCourseCreated(tokenId);\r\n    }\r\n\r\n    function _createNftCompleteCourse(\r\n        uint256 tokenId,\r\n        uint256 studentTokenId,\r\n        uint256 courseId,\r\n        uint256 knowledgeBlockId,\r\n        uint256 credits\r\n    ) private {\r\n        NftCompleteCourse memory nftCompleteCourse = NftCompleteCourse(\r\n            tokenId,\r\n            studentTokenId,\r\n            courseId,\r\n            knowledgeBlockId,\r\n            credits\r\n        );\r\n        _allNftCompleteCourses.push(nftCompleteCourse);\r\n        _posOfTokenIdOfNftType[NFT_COMPLETE_COURSE][\r\n            tokenId\r\n        ] = _allNftCompleteCourses.length;\r\n    }\r\n\r\n    function checkCompleteCourse(\r\n        uint256 courseId,\r\n        address studentAddr\r\n    ) public view returns (bool) {\r\n        uint256 studentTokenId = _nftIdentities\r\n            .getNftOfMemberWithRole(uint256(ROLE.STUDENT), studentAddr)\r\n            .nftIdentity\r\n            .tokenId;\r\n        return _completedCoursesOfStudent[studentTokenId][courseId];\r\n    }\r\n\r\n    function approveOwnerForAllNft(bool approved) public {\r\n        setApprovalForAll(_owner, approved);\r\n    }\r\n\r\n    function checkApproveOwnerForAllNft() public view returns (bool) {\r\n        return isApprovedForAll(msg.sender, _owner);\r\n    }\r\n\r\n    function checkApprovedForAll(\r\n        address sender,\r\n        address owner\r\n    ) public view returns (bool) {\r\n        return isApprovedForAll(sender, owner);\r\n    }\r\n\r\n    function regainNftCompleteCourses(uint256 studentTokenId) public onlyOwner {\r\n        address studentAddr = _nftIdentities.ownerOf(studentTokenId);\r\n        require(\r\n            checkApprovedForAll(studentAddr, _owner),\r\n            \"not approved by student\"\r\n        );\r\n        uint256[] memory tokenIds = _nftGraduation\r\n            .getNftCompleteCourseForRequestGraduation(studentTokenId);\r\n        uint256 count = tokenIds.length;\r\n        uint256[] memory amounts = new uint256[](count);\r\n\r\n        for (uint256 idx; idx < count; ++idx) {\r\n            amounts[idx] = 1;\r\n        }\r\n\r\n        _burnBatch(studentAddr, tokenIds, amounts);\r\n        _removeFromAllNftCompleteCourses(studentTokenId, tokenIds);\r\n    }\r\n\r\n    function _removeFromAllNftCompleteCourses(\r\n        uint256 studentTokenId,\r\n        uint256[] memory tokenIds\r\n    ) public {\r\n        uint256 count = tokenIds.length;\r\n\r\n        for (uint256 idx; idx < count; ++idx) {\r\n            uint256 posOfNftCompleteCourse = _posOfTokenIdOfNftType[\r\n                NFT_COMPLETE_COURSE\r\n            ][tokenIds[idx]];\r\n            uint256 posOfLastNftCompleteCourse = _allNftCompleteCourses.length;\r\n\r\n            NftCompleteCourse\r\n                memory deletedNftCompleteCourse = _allNftCompleteCourses[\r\n                    posOfNftCompleteCourse - 1\r\n                ];\r\n            delete _completedCoursesOfStudent[studentTokenId][\r\n                deletedNftCompleteCourse.courseId\r\n            ];\r\n\r\n            // Remove from owned nft complete courses list\r\n            uint256 posOfOwnedCompleteCourse = _posOfOwnedCompleteCourseNft[\r\n                studentTokenId\r\n            ][tokenIds[idx]];\r\n            uint256 posOfLastOwnedCompleteCourse = _studentOwnedCompleteCourseNfts[\r\n                    studentTokenId\r\n                ].length;\r\n            if (posOfOwnedCompleteCourse < posOfLastOwnedCompleteCourse) {\r\n                uint256 lastTokenId = _studentOwnedCompleteCourseNfts[\r\n                    studentTokenId\r\n                ][posOfLastOwnedCompleteCourse - 1];\r\n                _studentOwnedCompleteCourseNfts[studentTokenId][\r\n                    posOfOwnedCompleteCourse - 1\r\n                ] = lastTokenId;\r\n                _posOfOwnedCompleteCourseNft[studentTokenId][\r\n                    lastTokenId\r\n                ] = posOfOwnedCompleteCourse;\r\n            }\r\n            _studentOwnedCompleteCourseNfts[studentTokenId].pop();\r\n\r\n            // Remove from all nft complete courses\r\n            if (posOfNftCompleteCourse < posOfLastNftCompleteCourse) {\r\n                NftCompleteCourse\r\n                    memory lastNftCompleteCourse = _allNftCompleteCourses[\r\n                        posOfLastNftCompleteCourse - 1\r\n                    ];\r\n                _allNftCompleteCourses[\r\n                    posOfNftCompleteCourse - 1\r\n                ] = lastNftCompleteCourse;\r\n                _posOfTokenIdOfNftType[NFT_COMPLETE_COURSE][\r\n                    lastNftCompleteCourse.tokenId\r\n                ] = posOfNftCompleteCourse;\r\n            }\r\n            delete _posOfTokenIdOfNftType[NFT_COMPLETE_COURSE][tokenIds[idx]];\r\n            _allNftCompleteCourses.pop();\r\n        }\r\n    }\r\n\r\n    function checkAllNftCompleteCoursesRegained(\r\n        uint256[] memory tokenIds\r\n    ) public view returns (bool) {\r\n        uint256 count = tokenIds.length;\r\n\r\n        for (uint256 idx; idx < count; ++idx) {\r\n            if (\r\n                _posOfTokenIdOfNftType[NFT_COMPLETE_COURSE][tokenIds[idx]] > 0\r\n            ) {\r\n                return false;\r\n            }\r\n        }\r\n\r\n        return true;\r\n    }\r\n}\r\n",
  "sourcePath": "E:\\learn\\learn-to-earn\\blockchain\\contracts\\NftCompleteCourses.sol",
  "compiler": {
    "name": "solc",
    "version": "0.8.13+commit.abaa5c0e.Emscripten.clang"
  },
  "schemaVersion": "3.4.13",
  "updatedAt": "2023-07-08T08:38:41.008Z",
  "networkType": "ethereum",
  "devdoc": {
    "kind": "dev",
    "methods": {
      "balanceOf(address,uint256)": {
        "details": "See {IERC1155-balanceOf}. Requirements: - `account` cannot be the zero address."
      },
      "balanceOfBatch(address[],uint256[])": {
        "details": "See {IERC1155-balanceOfBatch}. Requirements: - `accounts` and `ids` must have the same length."
      },
      "isApprovedForAll(address,address)": {
        "details": "See {IERC1155-isApprovedForAll}."
      },
      "safeBatchTransferFrom(address,address,uint256[],uint256[],bytes)": {
        "details": "See {IERC1155-safeBatchTransferFrom}."
      },
      "safeTransferFrom(address,address,uint256,uint256,bytes)": {
        "details": "See {IERC1155-safeTransferFrom}."
      },
      "setApprovalForAll(address,bool)": {
        "details": "See {IERC1155-setApprovalForAll}."
      },
      "supportsInterface(bytes4)": {
        "details": "See {IERC165-supportsInterface}."
      },
      "uri(uint256)": {
        "details": "See {IERC1155MetadataURI-uri}. This implementation returns the concatenation of the `_baseURI` and the token-specific uri if the latter is set This enables the following behaviors: - if `_tokenURIs[tokenId]` is set, then the result is the concatenation   of `_baseURI` and `_tokenURIs[tokenId]` (keep in mind that `_baseURI`   is empty per default); - if `_tokenURIs[tokenId]` is NOT set then we fallback to `super.uri()`   which in most cases will contain `ERC1155._uri`; - if `_tokenURIs[tokenId]` is NOT set, and if the parents do not have a   uri value set, then the result is empty."
      }
    },
    "version": 1
  },
  "userdoc": {
    "kind": "user",
    "methods": {},
    "version": 1
  }
}