{
  "contractName": "NftCertificates",
  "abi": [
    {
      "inputs": [
        {
          "internalType": "address",
          "name": "nftIdentities",
          "type": "address"
        },
        {
          "internalType": "address",
          "name": "nftSchool",
          "type": "address"
        }
      ],
      "stateMutability": "nonpayable",
      "type": "constructor"
    },
    {
      "anonymous": false,
      "inputs": [
        {
          "indexed": true,
          "internalType": "address",
          "name": "account",
          "type": "address"
        },
        {
          "indexed": true,
          "internalType": "address",
          "name": "operator",
          "type": "address"
        },
        {
          "indexed": false,
          "internalType": "bool",
          "name": "approved",
          "type": "bool"
        }
      ],
      "name": "ApprovalForAll",
      "type": "event"
    },
    {
      "anonymous": false,
      "inputs": [
        {
          "indexed": true,
          "internalType": "address",
          "name": "operator",
          "type": "address"
        },
        {
          "indexed": true,
          "internalType": "address",
          "name": "from",
          "type": "address"
        },
        {
          "indexed": true,
          "internalType": "address",
          "name": "to",
          "type": "address"
        },
        {
          "indexed": false,
          "internalType": "uint256[]",
          "name": "ids",
          "type": "uint256[]"
        },
        {
          "indexed": false,
          "internalType": "uint256[]",
          "name": "values",
          "type": "uint256[]"
        }
      ],
      "name": "TransferBatch",
      "type": "event"
    },
    {
      "anonymous": false,
      "inputs": [
        {
          "indexed": true,
          "internalType": "address",
          "name": "operator",
          "type": "address"
        },
        {
          "indexed": true,
          "internalType": "address",
          "name": "from",
          "type": "address"
        },
        {
          "indexed": true,
          "internalType": "address",
          "name": "to",
          "type": "address"
        },
        {
          "indexed": false,
          "internalType": "uint256",
          "name": "id",
          "type": "uint256"
        },
        {
          "indexed": false,
          "internalType": "uint256",
          "name": "value",
          "type": "uint256"
        }
      ],
      "name": "TransferSingle",
      "type": "event"
    },
    {
      "anonymous": false,
      "inputs": [
        {
          "indexed": false,
          "internalType": "string",
          "name": "value",
          "type": "string"
        },
        {
          "indexed": true,
          "internalType": "uint256",
          "name": "id",
          "type": "uint256"
        }
      ],
      "name": "URI",
      "type": "event"
    },
    {
      "inputs": [
        {
          "internalType": "address",
          "name": "account",
          "type": "address"
        },
        {
          "internalType": "uint256",
          "name": "id",
          "type": "uint256"
        }
      ],
      "name": "balanceOf",
      "outputs": [
        {
          "internalType": "uint256",
          "name": "",
          "type": "uint256"
        }
      ],
      "stateMutability": "view",
      "type": "function",
      "constant": true
    },
    {
      "inputs": [
        {
          "internalType": "address[]",
          "name": "accounts",
          "type": "address[]"
        },
        {
          "internalType": "uint256[]",
          "name": "ids",
          "type": "uint256[]"
        }
      ],
      "name": "balanceOfBatch",
      "outputs": [
        {
          "internalType": "uint256[]",
          "name": "",
          "type": "uint256[]"
        }
      ],
      "stateMutability": "view",
      "type": "function",
      "constant": true
    },
    {
      "inputs": [],
      "name": "graduationPrice",
      "outputs": [
        {
          "internalType": "uint256",
          "name": "",
          "type": "uint256"
        }
      ],
      "stateMutability": "view",
      "type": "function",
      "constant": true
    },
    {
      "inputs": [
        {
          "internalType": "address",
          "name": "account",
          "type": "address"
        },
        {
          "internalType": "address",
          "name": "operator",
          "type": "address"
        }
      ],
      "name": "isApprovedForAll",
      "outputs": [
        {
          "internalType": "bool",
          "name": "",
          "type": "bool"
        }
      ],
      "stateMutability": "view",
      "type": "function",
      "constant": true
    },
    {
      "inputs": [],
      "name": "registeredEndAt",
      "outputs": [
        {
          "internalType": "uint256",
          "name": "",
          "type": "uint256"
        }
      ],
      "stateMutability": "view",
      "type": "function",
      "constant": true
    },
    {
      "inputs": [],
      "name": "registeredPrice",
      "outputs": [
        {
          "internalType": "uint256",
          "name": "",
          "type": "uint256"
        }
      ],
      "stateMutability": "view",
      "type": "function",
      "constant": true
    },
    {
      "inputs": [],
      "name": "registeredStartAt",
      "outputs": [
        {
          "internalType": "uint256",
          "name": "",
          "type": "uint256"
        }
      ],
      "stateMutability": "view",
      "type": "function",
      "constant": true
    },
    {
      "inputs": [
        {
          "internalType": "address",
          "name": "from",
          "type": "address"
        },
        {
          "internalType": "address",
          "name": "to",
          "type": "address"
        },
        {
          "internalType": "uint256[]",
          "name": "ids",
          "type": "uint256[]"
        },
        {
          "internalType": "uint256[]",
          "name": "amounts",
          "type": "uint256[]"
        },
        {
          "internalType": "bytes",
          "name": "data",
          "type": "bytes"
        }
      ],
      "name": "safeBatchTransferFrom",
      "outputs": [],
      "stateMutability": "nonpayable",
      "type": "function"
    },
    {
      "inputs": [
        {
          "internalType": "address",
          "name": "from",
          "type": "address"
        },
        {
          "internalType": "address",
          "name": "to",
          "type": "address"
        },
        {
          "internalType": "uint256",
          "name": "id",
          "type": "uint256"
        },
        {
          "internalType": "uint256",
          "name": "amount",
          "type": "uint256"
        },
        {
          "internalType": "bytes",
          "name": "data",
          "type": "bytes"
        }
      ],
      "name": "safeTransferFrom",
      "outputs": [],
      "stateMutability": "nonpayable",
      "type": "function"
    },
    {
      "inputs": [],
      "name": "schoolYearEnd",
      "outputs": [
        {
          "internalType": "uint256",
          "name": "",
          "type": "uint256"
        }
      ],
      "stateMutability": "view",
      "type": "function",
      "constant": true
    },
    {
      "inputs": [
        {
          "internalType": "address",
          "name": "operator",
          "type": "address"
        },
        {
          "internalType": "bool",
          "name": "approved",
          "type": "bool"
        }
      ],
      "name": "setApprovalForAll",
      "outputs": [],
      "stateMutability": "nonpayable",
      "type": "function"
    },
    {
      "inputs": [
        {
          "internalType": "bytes4",
          "name": "interfaceId",
          "type": "bytes4"
        }
      ],
      "name": "supportsInterface",
      "outputs": [
        {
          "internalType": "bool",
          "name": "",
          "type": "bool"
        }
      ],
      "stateMutability": "view",
      "type": "function",
      "constant": true
    },
    {
      "inputs": [
        {
          "internalType": "uint256",
          "name": "tokenId",
          "type": "uint256"
        }
      ],
      "name": "uri",
      "outputs": [
        {
          "internalType": "string",
          "name": "",
          "type": "string"
        }
      ],
      "stateMutability": "view",
      "type": "function",
      "constant": true
    },
    {
      "inputs": [],
      "name": "yearId",
      "outputs": [
        {
          "internalType": "uint256",
          "name": "",
          "type": "uint256"
        }
      ],
      "stateMutability": "view",
      "type": "function",
      "constant": true
    },
    {
      "inputs": [],
      "name": "getOwnedNftCompleteCourse",
      "outputs": [
        {
          "components": [
            {
              "internalType": "uint256",
              "name": "tokenId",
              "type": "uint256"
            },
            {
              "internalType": "uint256",
              "name": "courseId",
              "type": "uint256"
            },
            {
              "internalType": "uint256",
              "name": "knowledgeBlockId",
              "type": "uint256"
            },
            {
              "internalType": "uint256",
              "name": "credits",
              "type": "uint256"
            },
            {
              "internalType": "uint256",
              "name": "avgScore",
              "type": "uint256"
            }
          ],
          "internalType": "struct IConstant.NftCompleteCourse[]",
          "name": "",
          "type": "tuple[]"
        },
        {
          "internalType": "string[]",
          "name": "",
          "type": "string[]"
        }
      ],
      "stateMutability": "view",
      "type": "function",
      "constant": true
    },
    {
      "inputs": [
        {
          "internalType": "uint256",
          "name": "tokenId",
          "type": "uint256"
        }
      ],
      "name": "getNftCompleteCourse",
      "outputs": [
        {
          "components": [
            {
              "internalType": "uint256",
              "name": "tokenId",
              "type": "uint256"
            },
            {
              "internalType": "uint256",
              "name": "courseId",
              "type": "uint256"
            },
            {
              "internalType": "uint256",
              "name": "knowledgeBlockId",
              "type": "uint256"
            },
            {
              "internalType": "uint256",
              "name": "credits",
              "type": "uint256"
            },
            {
              "internalType": "uint256",
              "name": "avgScore",
              "type": "uint256"
            }
          ],
          "internalType": "struct IConstant.NftCompleteCourse",
          "name": "",
          "type": "tuple"
        },
        {
          "internalType": "string",
          "name": "",
          "type": "string"
        }
      ],
      "stateMutability": "view",
      "type": "function",
      "constant": true
    },
    {
      "inputs": [],
      "name": "getOwnedNftGraduation",
      "outputs": [
        {
          "components": [
            {
              "internalType": "uint256",
              "name": "tokenId",
              "type": "uint256"
            }
          ],
          "internalType": "struct IConstant.NftGraduation",
          "name": "",
          "type": "tuple"
        },
        {
          "internalType": "string",
          "name": "",
          "type": "string"
        }
      ],
      "stateMutability": "view",
      "type": "function",
      "constant": true
    },
    {
      "inputs": [
        {
          "internalType": "uint256",
          "name": "tokenId",
          "type": "uint256"
        }
      ],
      "name": "getNftGraduation",
      "outputs": [
        {
          "components": [
            {
              "internalType": "uint256",
              "name": "tokenId",
              "type": "uint256"
            }
          ],
          "internalType": "struct IConstant.NftGraduation",
          "name": "",
          "type": "tuple"
        },
        {
          "internalType": "string",
          "name": "",
          "type": "string"
        }
      ],
      "stateMutability": "view",
      "type": "function",
      "constant": true
    },
    {
      "inputs": [
        {
          "internalType": "address",
          "name": "studentAddr",
          "type": "address"
        },
        {
          "internalType": "uint256",
          "name": "studentTokenId",
          "type": "uint256"
        },
        {
          "internalType": "uint256",
          "name": "courseId",
          "type": "uint256"
        },
        {
          "internalType": "uint256",
          "name": "knowledgeBlockId",
          "type": "uint256"
        },
        {
          "internalType": "uint256",
          "name": "credits",
          "type": "uint256"
        },
        {
          "internalType": "uint256",
          "name": "score",
          "type": "uint256"
        },
        {
          "internalType": "string",
          "name": "tokenURI",
          "type": "string"
        }
      ],
      "name": "exchangeCompleteCourse",
      "outputs": [
        {
          "internalType": "uint256",
          "name": "",
          "type": "uint256"
        }
      ],
      "stateMutability": "payable",
      "type": "function",
      "payable": true
    },
    {
      "inputs": [
        {
          "internalType": "uint256[]",
          "name": "nftCompleteCourseIds",
          "type": "uint256[]"
        },
        {
          "internalType": "string",
          "name": "tokenURI",
          "type": "string"
        }
      ],
      "name": "exchangeGraduation",
      "outputs": [],
      "stateMutability": "payable",
      "type": "function",
      "payable": true
    },
    {
      "inputs": [
        {
          "internalType": "uint256",
          "name": "courseId",
          "type": "uint256"
        },
        {
          "internalType": "address",
          "name": "studentAddr",
          "type": "address"
        }
      ],
      "name": "checkCompleteCourse",
      "outputs": [
        {
          "internalType": "bool",
          "name": "",
          "type": "bool"
        }
      ],
      "stateMutability": "view",
      "type": "function",
      "constant": true
    }
  ],
  "bytecode": "0x60c060405260405180602001604052806000815250600390805190602001906200002b9291906200016f565b50670de0b6b3a7640000600855670de0b6b3a76400006009553480156200005157600080fd5b5060405162004c8438038062004c84833981810160405281019062000077919062000289565b604051806020016040528060008152508062000099816200015360201b60201c565b5033600560006101000a81548173ffffffffffffffffffffffffffffffffffffffff021916908373ffffffffffffffffffffffffffffffffffffffff160217905550508173ffffffffffffffffffffffffffffffffffffffff1660808173ffffffffffffffffffffffffffffffffffffffff16815250508073ffffffffffffffffffffffffffffffffffffffff1660a08173ffffffffffffffffffffffffffffffffffffffff168152505042600b81905550505062000334565b80600290805190602001906200016b9291906200016f565b5050565b8280546200017d90620002ff565b90600052602060002090601f016020900481019282620001a15760008555620001ed565b82601f10620001bc57805160ff1916838001178555620001ed565b82800160010185558215620001ed579182015b82811115620001ec578251825591602001919060010190620001cf565b5b509050620001fc919062000200565b5090565b5b808211156200021b57600081600090555060010162000201565b5090565b600080fd5b600073ffffffffffffffffffffffffffffffffffffffff82169050919050565b6000620002518262000224565b9050919050565b620002638162000244565b81146200026f57600080fd5b50565b600081519050620002838162000258565b92915050565b60008060408385031215620002a357620002a26200021f565b5b6000620002b38582860162000272565b9250506020620002c68582860162000272565b9150509250929050565b7f4e487b7100000000000000000000000000000000000000000000000000000000600052602260045260246000fd5b600060028204905060018216806200031857607f821691505b6020821081036200032e576200032d620002d0565b5b50919050565b60805160a05161490e62000376600039600081816108eb01528181610bae0152610d0d0152600081816107e401528181610f240152611166015261490e6000f3fe6080604052600436106101295760003560e01c80636eabe75f116100ab578063b12a61151161006f578063b12a611514610412578063df264a5e1461043e578063df4e48911461046a578063e985e9c514610495578063ec7d2f75146104d2578063f242432a1461051057610129565b80636eabe75f1461031857806385c7744c146103555780638f03802d14610393578063a22cb465146103be578063af0d1cb5146103e757610129565b806311394f56116100f257806311394f561461022c5780632eb2c2d6146102575780633172c56314610280578063468d99c2146102ab5780634e1273f4146102db57610129565b8062fdd58e1461012e57806301ffc9a71461016b57806303ece623146101a85780630e89341c146101d3578063111868a614610210575b600080fd5b34801561013a57600080fd5b5061015560048036038101906101509190612b54565b610539565b6040516101629190612ba3565b60405180910390f35b34801561017757600080fd5b50610192600480360381019061018d9190612c16565b610601565b60405161019f9190612c5e565b60405180910390f35b3480156101b457600080fd5b506101bd6106e3565b6040516101ca9190612ba3565b60405180910390f35b3480156101df57600080fd5b506101fa60048036038101906101f59190612c79565b6106e9565b6040516102079190612d3f565b60405180910390f35b61022a60048036038101906102259190612f5e565b6107ce565b005b34801561023857600080fd5b50610241610c5c565b60405161024e9190612ba3565b60405180910390f35b34801561026357600080fd5b5061027e60048036038101906102799190613077565b610c62565b005b34801561028c57600080fd5b50610295610d03565b6040516102a29190612ba3565b60405180910390f35b6102c560048036038101906102c09190613146565b610d09565b6040516102d29190612ba3565b60405180910390f35b3480156102e757600080fd5b5061030260048036038101906102fd91906132c7565b610e06565b60405161030f91906133fd565b60405180910390f35b34801561032457600080fd5b5061033f600480360381019061033a919061341f565b610f1f565b60405161034c9190612c5e565b60405180910390f35b34801561036157600080fd5b5061037c60048036038101906103779190612c79565b61101b565b60405161038a9291906134c7565b60405180910390f35b34801561039f57600080fd5b506103a86110dd565b6040516103b59190612ba3565b60405180910390f35b3480156103ca57600080fd5b506103e560048036038101906103e09190613523565b6110e3565b005b3480156103f357600080fd5b506103fc6110f9565b6040516104099190612ba3565b60405180910390f35b34801561041e57600080fd5b506104276110ff565b60405161043592919061357f565b60405180910390f35b34801561044a57600080fd5b5061045361115f565b6040516104619291906137d2565b60405180910390f35b34801561047657600080fd5b5061047f611392565b60405161048c9190612ba3565b60405180910390f35b3480156104a157600080fd5b506104bc60048036038101906104b79190613809565b611398565b6040516104c99190612c5e565b60405180910390f35b3480156104de57600080fd5b506104f960048036038101906104f49190612c79565b61142c565b60405161050792919061357f565b60405180910390f35b34801561051c57600080fd5b5061053760048036038101906105329190613849565b6114c2565b005b60008073ffffffffffffffffffffffffffffffffffffffff168373ffffffffffffffffffffffffffffffffffffffff16036105a9576040517f08c379a00000000000000000000000000000000000000000000000000000000081526004016105a090613952565b60405180910390fd5b60008083815260200190815260200160002060008473ffffffffffffffffffffffffffffffffffffffff1673ffffffffffffffffffffffffffffffffffffffff16815260200190815260200160002054905092915050565b60007fd9b67a26000000000000000000000000000000000000000000000000000000007bffffffffffffffffffffffffffffffffffffffffffffffffffffffff1916827bffffffffffffffffffffffffffffffffffffffffffffffffffffffff191614806106cc57507f0e89341c000000000000000000000000000000000000000000000000000000007bffffffffffffffffffffffffffffffffffffffffffffffffffffffff1916827bffffffffffffffffffffffffffffffffffffffffffffffffffffffff1916145b806106dc57506106db82611563565b5b9050919050565b60095481565b6060600060046000848152602001908152602001600020805461070b906139a1565b80601f0160208091040260200160405190810160405280929190818152602001828054610737906139a1565b80156107845780601f1061075957610100808354040283529160200191610784565b820191906000526020600020905b81548152906001019060200180831161076757829003601f168201915b5050505050905060008151116107a25761079d836115cd565b6107c6565b6003816040516020016107b6929190613aa2565b6040516020818303038152906040525b915050919050565b600060018111156107e2576107e1613ac6565b5b7f000000000000000000000000000000000000000000000000000000000000000073ffffffffffffffffffffffffffffffffffffffff166357ef1e5833836040518363ffffffff1660e01b815260040161083d929190613b04565b602060405180830381865afa15801561085a573d6000803e3d6000fd5b505050506040513d601f19601f8201168201806040525081019061087e9190613b42565b61088757600080fd5b600954341461089557600080fd5b6000601660003373ffffffffffffffffffffffffffffffffffffffff1673ffffffffffffffffffffffffffffffffffffffff16815260200190815260200160002054146108e157600080fd5b60008351905060007f000000000000000000000000000000000000000000000000000000000000000073ffffffffffffffffffffffffffffffffffffffff16635f7b9d736040518163ffffffff1660e01b8152600401600060405180830381865afa158015610954573d6000803e3d6000fd5b505050506040513d6000823e3d601f19601f8201168201806040525081019061097d9190613d5f565b905060008151905060008167ffffffffffffffff8111156109a1576109a0612d66565b5b6040519080825280602002602001820160405280156109cf5781602001602082028036833780820191505090505b50905060008060005b86811015610b1b573373ffffffffffffffffffffffffffffffffffffffff16600760006005815260200190815260200160002060008c8481518110610a2057610a1f613da8565b5b6020026020010151815260200190815260200160002060009054906101000a900473ffffffffffffffffffffffffffffffffffffffff1673ffffffffffffffffffffffffffffffffffffffff1614610a7757600080fd5b6000610a9c8b8381518110610a8f57610a8e613da8565b5b602002602001015161101b565b509050806060015185826040015181518110610abb57610aba613da8565b5b60200260200101818151610acf9190613e06565b91508181525050806060015184610ae69190613e06565b935080606001518160800151610afc9190613e5c565b83610b079190613e06565b92505080610b1490613eb6565b90506109d8565b5060005b84811015610b9b57858181518110610b3a57610b39613da8565b5b60200260200101516040015184878381518110610b5a57610b59613da8565b5b60200260200101516000015181518110610b7757610b76613da8565b5b60200260200101511015610b8a57600080fd5b80610b9490613eb6565b9050610b1f565b5060008282610baa9190613f2d565b90507f000000000000000000000000000000000000000000000000000000000000000073ffffffffffffffffffffffffffffffffffffffff16635fe037796040518163ffffffff1660e01b8152600401602060405180830381865afa158015610c17573d6000803e3d6000fd5b505050506040513d601f19601f82011682018060405250810190610c3b9190613f5e565b8111610c4657600080fd5b610c4f89611661565b5050505050505050505050565b600b5481565b610c6a6116c8565b73ffffffffffffffffffffffffffffffffffffffff168573ffffffffffffffffffffffffffffffffffffffff161480610cb05750610caf85610caa6116c8565b611398565b5b610cef576040517f08c379a0000000000000000000000000000000000000000000000000000000008152600401610ce690613ffd565b60405180910390fd5b610cfc85858585856116d0565b5050505050565b60085481565b60007f000000000000000000000000000000000000000000000000000000000000000073ffffffffffffffffffffffffffffffffffffffff163373ffffffffffffffffffffffffffffffffffffffff1614610d6357600080fd5b6000610d71896005856119f1565b9050610d808188888888611a66565b601460008981526020019081526020016000208190806001815401808255809150506001900390600052602060002001600090919091909150556001601560008a8152602001908152602001600020600089815260200190815260200160002060006101000a81548160ff02191690831515021790555080915050979650505050505050565b60608151835114610e4c576040517f08c379a0000000000000000000000000000000000000000000000000000000008152600401610e439061408f565b60405180910390fd5b6000835167ffffffffffffffff811115610e6957610e68612d66565b5b604051908082528060200260200182016040528015610e975781602001602082028036833780820191505090505b50905060005b8451811015610f1457610ee4858281518110610ebc57610ebb613da8565b5b6020026020010151858381518110610ed757610ed6613da8565b5b6020026020010151610539565b828281518110610ef757610ef6613da8565b5b60200260200101818152505080610f0d90613eb6565b9050610e9d565b508091505092915050565b6000807f000000000000000000000000000000000000000000000000000000000000000073ffffffffffffffffffffffffffffffffffffffff166352db77c460006001811115610f7257610f71613ac6565b5b856040518363ffffffff1660e01b8152600401610f909291906140af565b600060405180830381865afa158015610fad573d6000803e3d6000fd5b505050506040513d6000823e3d601f19601f82011682018060405250810190610fd691906141e5565b6000015160000151905060156000828152602001908152602001600020600085815260200190815260200160002060009054906101000a900460ff1691505092915050565b6110236129c7565b60606000601160006005815260200190815260200160002060008581526020019081526020016000205490506000811161105c57600080fd5b600f60018261106b919061422e565b8154811061107c5761107b613da8565b5b9060005260206000209060050201611093856106e9565b816040518060a00160405290816000820154815260200160018201548152602001600282015481526020016003820154815260200160048201548152505091509250925050915091565b600d5481565b6110f56110ee6116c8565b8383611b28565b5050565b600c5481565b6111076129f6565b60606000601660003373ffffffffffffffffffffffffffffffffffffffff1673ffffffffffffffffffffffffffffffffffffffff1681526020019081526020016000205490506111568161142c565b92509250509091565b60608060007f000000000000000000000000000000000000000000000000000000000000000073ffffffffffffffffffffffffffffffffffffffff166352db77c4600060018111156111b4576111b3613ac6565b5b336040518363ffffffff1660e01b81526004016111d29291906140af565b600060405180830381865afa1580156111ef573d6000803e3d6000fd5b505050506040513d6000823e3d601f19601f8201168201806040525081019061121891906141e5565b600001516000015190506000601460008381526020019081526020016000208054905090506000811161124a57600080fd5b60008167ffffffffffffffff81111561126657611265612d66565b5b60405190808252806020026020018201604052801561129f57816020015b61128c6129c7565b8152602001906001900390816112845790505b50905060008267ffffffffffffffff8111156112be576112bd612d66565b5b6040519080825280602002602001820160405280156112f157816020015b60608152602001906001900390816112dc5790505b50905060005b8381116113835761133660146000878152602001908152602001600020828154811061132657611325613da8565b5b906000526020600020015461101b565b84838151811061134957611348613da8565b5b6020026020010184848151811061136357611362613da8565b5b6020026020010182905282905250508061137c90613eb6565b90506112f7565b50818195509550505050509091565b600e5481565b6000600160008473ffffffffffffffffffffffffffffffffffffffff1673ffffffffffffffffffffffffffffffffffffffff16815260200190815260200160002060008373ffffffffffffffffffffffffffffffffffffffff1673ffffffffffffffffffffffffffffffffffffffff16815260200190815260200160002060009054906101000a900460ff16905092915050565b6114346129f6565b60606000601160006006815260200190815260200160002060008581526020019081526020016000205490506000811161146d57600080fd5b601060018261147c919061422e565b8154811061148d5761148c613da8565b5b906000526020600020016114a0856106e9565b8160405180602001604052908160008201548152505091509250925050915091565b6114ca6116c8565b73ffffffffffffffffffffffffffffffffffffffff168573ffffffffffffffffffffffffffffffffffffffff161480611510575061150f8561150a6116c8565b611398565b5b61154f576040517f08c379a000000000000000000000000000000000000000000000000000000000815260040161154690613ffd565b60405180910390fd5b61155c8585858585611c94565b5050505050565b60007f01ffc9a7000000000000000000000000000000000000000000000000000000007bffffffffffffffffffffffffffffffffffffffffffffffffffffffff1916827bffffffffffffffffffffffffffffffffffffffffffffffffffffffff1916149050919050565b6060600280546115dc906139a1565b80601f0160208091040260200160405190810160405280929190818152602001828054611608906139a1565b80156116555780601f1061162a57610100808354040283529160200191611655565b820191906000526020600020905b81548152906001019060200180831161163857829003601f168201915b50505050509050919050565b600080611670336006856119f1565b905061167b81611f2f565b80601660003373ffffffffffffffffffffffffffffffffffffffff1673ffffffffffffffffffffffffffffffffffffffff1681526020019081526020016000208190555080915050919050565b600033905090565b8151835114611714576040517f08c379a000000000000000000000000000000000000000000000000000000000815260040161170b906142d4565b60405180910390fd5b600073ffffffffffffffffffffffffffffffffffffffff168473ffffffffffffffffffffffffffffffffffffffff1603611783576040517f08c379a000000000000000000000000000000000000000000000000000000000815260040161177a90614366565b60405180910390fd5b600061178d6116c8565b905061179d818787878787611fa9565b60005b845181101561194e5760008582815181106117be576117bd613da8565b5b6020026020010151905060008583815181106117dd576117dc613da8565b5b60200260200101519050600080600084815260200190815260200160002060008b73ffffffffffffffffffffffffffffffffffffffff1673ffffffffffffffffffffffffffffffffffffffff1681526020019081526020016000205490508181101561187e576040517f08c379a0000000000000000000000000000000000000000000000000000000008152600401611875906143f8565b60405180910390fd5b81810360008085815260200190815260200160002060008c73ffffffffffffffffffffffffffffffffffffffff1673ffffffffffffffffffffffffffffffffffffffff168152602001908152602001600020819055508160008085815260200190815260200160002060008b73ffffffffffffffffffffffffffffffffffffffff1673ffffffffffffffffffffffffffffffffffffffff16815260200190815260200160002060008282546119339190613e06565b925050819055505050508061194790613eb6565b90506117a0565b508473ffffffffffffffffffffffffffffffffffffffff168673ffffffffffffffffffffffffffffffffffffffff168273ffffffffffffffffffffffffffffffffffffffff167f4a39dc06d4c0dbc64b70af90fd698a233a518aa5d07e595d983b8c0526c8f7fb87876040516119c5929190614418565b60405180910390a46119db8187878787876122d3565b6119e98187878787876122db565b505050505050565b6000806119fd846124b2565b9050611a51858260016000368080601f016020809104026020016040519081016040528093929190818152602001838380828437600081840152601f19601f820116905080830192505050505050506124fd565b611a5b81846126ad565b809150509392505050565b60006040518060a00160405280878152602001868152602001858152602001848152602001838152509050600f81908060018154018082558091505060019003906000526020600020906005020160009091909190915060008201518160000155602082015181600101556040820151816002015560608201518160030155608082015181600401555050600f805490506011600060058152602001908152602001600020600088815260200190815260200160002081905550505050505050565b8173ffffffffffffffffffffffffffffffffffffffff168373ffffffffffffffffffffffffffffffffffffffff1603611b96576040517f08c379a0000000000000000000000000000000000000000000000000000000008152600401611b8d906144c1565b60405180910390fd5b80600160008573ffffffffffffffffffffffffffffffffffffffff1673ffffffffffffffffffffffffffffffffffffffff16815260200190815260200160002060008473ffffffffffffffffffffffffffffffffffffffff1673ffffffffffffffffffffffffffffffffffffffff16815260200190815260200160002060006101000a81548160ff0219169083151502179055508173ffffffffffffffffffffffffffffffffffffffff168373ffffffffffffffffffffffffffffffffffffffff167f17307eab39ab6107e8899845ad3d59bd9653f200f220920489ca2b5937696c3183604051611c879190612c5e565b60405180910390a3505050565b600073ffffffffffffffffffffffffffffffffffffffff168473ffffffffffffffffffffffffffffffffffffffff1603611d03576040517f08c379a0000000000000000000000000000000000000000000000000000000008152600401611cfa90614366565b60405180910390fd5b6000611d0d6116c8565b90506000611d1a85612719565b90506000611d2785612719565b9050611d37838989858589611fa9565b600080600088815260200190815260200160002060008a73ffffffffffffffffffffffffffffffffffffffff1673ffffffffffffffffffffffffffffffffffffffff16815260200190815260200160002054905085811015611dce576040517f08c379a0000000000000000000000000000000000000000000000000000000008152600401611dc5906143f8565b60405180910390fd5b85810360008089815260200190815260200160002060008b73ffffffffffffffffffffffffffffffffffffffff1673ffffffffffffffffffffffffffffffffffffffff168152602001908152602001600020819055508560008089815260200190815260200160002060008a73ffffffffffffffffffffffffffffffffffffffff1673ffffffffffffffffffffffffffffffffffffffff1681526020019081526020016000206000828254611e839190613e06565b925050819055508773ffffffffffffffffffffffffffffffffffffffff168973ffffffffffffffffffffffffffffffffffffffff168573ffffffffffffffffffffffffffffffffffffffff167fc3d58168c5ae7397731d063d5bbf3d657854427343f4c083240f7aacaa2d0f628a8a604051611f009291906144e1565b60405180910390a4611f16848a8a86868a6122d3565b611f24848a8a8a8a8a612793565b505050505050505050565b600060405180602001604052808381525090506010819080600181540180825580915050600190039060005260206000200160009091909190915060008201518160000155505060108054905060116000600681526020019081526020016000206000848152602001908152602001600020819055505050565b611fb786868686868661296a565b600083519050600073ffffffffffffffffffffffffffffffffffffffff168673ffffffffffffffffffffffffffffffffffffffff16036120b95760005b818110156120b257600061202186838151811061201457612013613da8565b5b6020026020010151612972565b90508660076000838152602001908152602001600020600088858151811061204c5761204b613da8565b5b6020026020010151815260200190815260200160002060006101000a81548173ffffffffffffffffffffffffffffffffffffffff021916908373ffffffffffffffffffffffffffffffffffffffff16021790555050806120ab90613eb6565b9050611ff4565b50506122cb565b600073ffffffffffffffffffffffffffffffffffffffff168573ffffffffffffffffffffffffffffffffffffffff16036121985760005b81811161219157600061211c86838151811061210f5761210e613da8565b5b6020026020010151612972565b905060076000828152602001908152602001600020600087848151811061214657612145613da8565b5b6020026020010151815260200190815260200160002060006101000a81549073ffffffffffffffffffffffffffffffffffffffff0219169055508061218a90613eb6565b90506120f0565b50506122cb565b600073ffffffffffffffffffffffffffffffffffffffff168673ffffffffffffffffffffffffffffffffffffffff16141580156122025750600073ffffffffffffffffffffffffffffffffffffffff168573ffffffffffffffffffffffffffffffffffffffff1614155b156122c95760005b8181116122c757600061223686838151811061222957612228613da8565b5b6020026020010151612972565b90508660076000838152602001908152602001600020600088858151811061226157612260613da8565b5b6020026020010151815260200190815260200160002060006101000a81548173ffffffffffffffffffffffffffffffffffffffff021916908373ffffffffffffffffffffffffffffffffffffffff16021790555050806122c090613eb6565b905061220a565b505b505b505050505050565b505050505050565b6122fa8473ffffffffffffffffffffffffffffffffffffffff16612980565b156124aa578373ffffffffffffffffffffffffffffffffffffffff1663bc197c8187878686866040518663ffffffff1660e01b815260040161234095949392919061455f565b6020604051808303816000875af192505050801561237c57506040513d601f19601f8201168201806040525081019061237991906145dc565b60015b61242157612388614616565b806308c379a0036123e4575061239c614638565b806123a757506123e6565b806040517f08c379a00000000000000000000000000000000000000000000000000000000081526004016123db9190612d3f565b60405180910390fd5b505b6040517f08c379a00000000000000000000000000000000000000000000000000000000081526004016124189061473a565b60405180910390fd5b63bc197c8160e01b7bffffffffffffffffffffffffffffffffffffffffffffffffffffffff1916817bffffffffffffffffffffffffffffffffffffffffffffffffffffffff1916146124a8576040517f08c379a000000000000000000000000000000000000000000000000000000000815260040161249f906147cc565b60405180910390fd5b505b505050505050565b60006124cf600660008481526020019081526020016000206129a3565b60006124ec600660008581526020019081526020016000206129b9565b905080601084901b17915050919050565b600073ffffffffffffffffffffffffffffffffffffffff168473ffffffffffffffffffffffffffffffffffffffff160361256c576040517f08c379a00000000000000000000000000000000000000000000000000000000081526004016125639061485e565b60405180910390fd5b60006125766116c8565b9050600061258385612719565b9050600061259085612719565b90506125a183600089858589611fa9565b8460008088815260200190815260200160002060008973ffffffffffffffffffffffffffffffffffffffff1673ffffffffffffffffffffffffffffffffffffffff16815260200190815260200160002060008282546126009190613e06565b925050819055508673ffffffffffffffffffffffffffffffffffffffff16600073ffffffffffffffffffffffffffffffffffffffff168473ffffffffffffffffffffffffffffffffffffffff167fc3d58168c5ae7397731d063d5bbf3d657854427343f4c083240f7aacaa2d0f62898960405161267e9291906144e1565b60405180910390a4612695836000898585896122d3565b6126a483600089898989612793565b50505050505050565b806004600084815260200190815260200160002090805190602001906126d4929190612a09565b50817f6bb7ff708619ba0610cba295a58592e0451dee2622938c8755667688daf3529b612700846106e9565b60405161270d9190612d3f565b60405180910390a25050565b60606000600167ffffffffffffffff81111561273857612737612d66565b5b6040519080825280602002602001820160405280156127665781602001602082028036833780820191505090505b509050828160008151811061277e5761277d613da8565b5b60200260200101818152505080915050919050565b6127b28473ffffffffffffffffffffffffffffffffffffffff16612980565b15612962578373ffffffffffffffffffffffffffffffffffffffff1663f23a6e6187878686866040518663ffffffff1660e01b81526004016127f895949392919061487e565b6020604051808303816000875af192505050801561283457506040513d601f19601f8201168201806040525081019061283191906145dc565b60015b6128d957612840614616565b806308c379a00361289c5750612854614638565b8061285f575061289e565b806040517f08c379a00000000000000000000000000000000000000000000000000000000081526004016128939190612d3f565b60405180910390fd5b505b6040517f08c379a00000000000000000000000000000000000000000000000000000000081526004016128d09061473a565b60405180910390fd5b63f23a6e6160e01b7bffffffffffffffffffffffffffffffffffffffffffffffffffffffff1916817bffffffffffffffffffffffffffffffffffffffffffffffffffffffff191614612960576040517f08c379a0000000000000000000000000000000000000000000000000000000008152600401612957906147cc565b60405180910390fd5b505b505050505050565b505050505050565b6000601082901c9050919050565b6000808273ffffffffffffffffffffffffffffffffffffffff163b119050919050565b6001816000016000828254019250508190555050565b600081600001549050919050565b6040518060a0016040528060008152602001600081526020016000815260200160008152602001600081525090565b6040518060200160405280600081525090565b828054612a15906139a1565b90600052602060002090601f016020900481019282612a375760008555612a7e565b82601f10612a5057805160ff1916838001178555612a7e565b82800160010185558215612a7e579182015b82811115612a7d578251825591602001919060010190612a62565b5b509050612a8b9190612a8f565b5090565b5b80821115612aa8576000816000905550600101612a90565b5090565b6000604051905090565b600080fd5b600080fd5b600073ffffffffffffffffffffffffffffffffffffffff82169050919050565b6000612aeb82612ac0565b9050919050565b612afb81612ae0565b8114612b0657600080fd5b50565b600081359050612b1881612af2565b92915050565b6000819050919050565b612b3181612b1e565b8114612b3c57600080fd5b50565b600081359050612b4e81612b28565b92915050565b60008060408385031215612b6b57612b6a612ab6565b5b6000612b7985828601612b09565b9250506020612b8a85828601612b3f565b9150509250929050565b612b9d81612b1e565b82525050565b6000602082019050612bb86000830184612b94565b92915050565b60007fffffffff0000000000000000000000000000000000000000000000000000000082169050919050565b612bf381612bbe565b8114612bfe57600080fd5b50565b600081359050612c1081612bea565b92915050565b600060208284031215612c2c57612c2b612ab6565b5b6000612c3a84828501612c01565b91505092915050565b60008115159050919050565b612c5881612c43565b82525050565b6000602082019050612c736000830184612c4f565b92915050565b600060208284031215612c8f57612c8e612ab6565b5b6000612c9d84828501612b3f565b91505092915050565b600081519050919050565b600082825260208201905092915050565b60005b83811015612ce0578082015181840152602081019050612cc5565b83811115612cef576000848401525b50505050565b6000601f19601f8301169050919050565b6000612d1182612ca6565b612d1b8185612cb1565b9350612d2b818560208601612cc2565b612d3481612cf5565b840191505092915050565b60006020820190508181036000830152612d598184612d06565b905092915050565b600080fd5b7f4e487b7100000000000000000000000000000000000000000000000000000000600052604160045260246000fd5b612d9e82612cf5565b810181811067ffffffffffffffff82111715612dbd57612dbc612d66565b5b80604052505050565b6000612dd0612aac565b9050612ddc8282612d95565b919050565b600067ffffffffffffffff821115612dfc57612dfb612d66565b5b602082029050602081019050919050565b600080fd5b6000612e25612e2084612de1565b612dc6565b90508083825260208201905060208402830185811115612e4857612e47612e0d565b5b835b81811015612e715780612e5d8882612b3f565b845260208401935050602081019050612e4a565b5050509392505050565b600082601f830112612e9057612e8f612d61565b5b8135612ea0848260208601612e12565b91505092915050565b600080fd5b600067ffffffffffffffff821115612ec957612ec8612d66565b5b612ed282612cf5565b9050602081019050919050565b82818337600083830152505050565b6000612f01612efc84612eae565b612dc6565b905082815260208101848484011115612f1d57612f1c612ea9565b5b612f28848285612edf565b509392505050565b600082601f830112612f4557612f44612d61565b5b8135612f55848260208601612eee565b91505092915050565b60008060408385031215612f7557612f74612ab6565b5b600083013567ffffffffffffffff811115612f9357612f92612abb565b5b612f9f85828601612e7b565b925050602083013567ffffffffffffffff811115612fc057612fbf612abb565b5b612fcc85828601612f30565b9150509250929050565b600067ffffffffffffffff821115612ff157612ff0612d66565b5b612ffa82612cf5565b9050602081019050919050565b600061301a61301584612fd6565b612dc6565b90508281526020810184848401111561303657613035612ea9565b5b613041848285612edf565b509392505050565b600082601f83011261305e5761305d612d61565b5b813561306e848260208601613007565b91505092915050565b600080600080600060a0868803121561309357613092612ab6565b5b60006130a188828901612b09565b95505060206130b288828901612b09565b945050604086013567ffffffffffffffff8111156130d3576130d2612abb565b5b6130df88828901612e7b565b935050606086013567ffffffffffffffff811115613100576130ff612abb565b5b61310c88828901612e7b565b925050608086013567ffffffffffffffff81111561312d5761312c612abb565b5b61313988828901613049565b9150509295509295909350565b600080600080600080600060e0888a03121561316557613164612ab6565b5b60006131738a828b01612b09565b97505060206131848a828b01612b3f565b96505060406131958a828b01612b3f565b95505060606131a68a828b01612b3f565b94505060806131b78a828b01612b3f565b93505060a06131c88a828b01612b3f565b92505060c088013567ffffffffffffffff8111156131e9576131e8612abb565b5b6131f58a828b01612f30565b91505092959891949750929550565b600067ffffffffffffffff82111561321f5761321e612d66565b5b602082029050602081019050919050565b600061324361323e84613204565b612dc6565b9050808382526020820190506020840283018581111561326657613265612e0d565b5b835b8181101561328f578061327b8882612b09565b845260208401935050602081019050613268565b5050509392505050565b600082601f8301126132ae576132ad612d61565b5b81356132be848260208601613230565b91505092915050565b600080604083850312156132de576132dd612ab6565b5b600083013567ffffffffffffffff8111156132fc576132fb612abb565b5b61330885828601613299565b925050602083013567ffffffffffffffff81111561332957613328612abb565b5b61333585828601612e7b565b9150509250929050565b600081519050919050565b600082825260208201905092915050565b6000819050602082019050919050565b61337481612b1e565b82525050565b6000613386838361336b565b60208301905092915050565b6000602082019050919050565b60006133aa8261333f565b6133b4818561334a565b93506133bf8361335b565b8060005b838110156133f05781516133d7888261337a565b97506133e283613392565b9250506001810190506133c3565b5085935050505092915050565b60006020820190508181036000830152613417818461339f565b905092915050565b6000806040838503121561343657613435612ab6565b5b600061344485828601612b3f565b925050602061345585828601612b09565b9150509250929050565b60a082016000820151613475600085018261336b565b506020820151613488602085018261336b565b50604082015161349b604085018261336b565b5060608201516134ae606085018261336b565b5060808201516134c1608085018261336b565b50505050565b600060c0820190506134dc600083018561345f565b81810360a08301526134ee8184612d06565b90509392505050565b61350081612c43565b811461350b57600080fd5b50565b60008135905061351d816134f7565b92915050565b6000806040838503121561353a57613539612ab6565b5b600061354885828601612b09565b92505060206135598582860161350e565b9150509250929050565b602082016000820151613579600085018261336b565b50505050565b60006040820190506135946000830185613563565b81810360208301526135a68184612d06565b90509392505050565b600081519050919050565b600082825260208201905092915050565b6000819050602082019050919050565b60a0820160008201516135f1600085018261336b565b506020820151613604602085018261336b565b506040820151613617604085018261336b565b50606082015161362a606085018261336b565b50608082015161363d608085018261336b565b50505050565b600061364f83836135db565b60a08301905092915050565b6000602082019050919050565b6000613673826135af565b61367d81856135ba565b9350613688836135cb565b8060005b838110156136b95781516136a08882613643565b97506136ab8361365b565b92505060018101905061368c565b5085935050505092915050565b600081519050919050565b600082825260208201905092915050565b6000819050602082019050919050565b600082825260208201905092915050565b600061370e82612ca6565b61371881856136f2565b9350613728818560208601612cc2565b61373181612cf5565b840191505092915050565b60006137488383613703565b905092915050565b6000602082019050919050565b6000613768826136c6565b61377281856136d1565b935083602082028501613784856136e2565b8060005b858110156137c057848403895281516137a1858261373c565b94506137ac83613750565b925060208a01995050600181019050613788565b50829750879550505050505092915050565b600060408201905081810360008301526137ec8185613668565b90508181036020830152613800818461375d565b90509392505050565b600080604083850312156138205761381f612ab6565b5b600061382e85828601612b09565b925050602061383f85828601612b09565b9150509250929050565b600080600080600060a0868803121561386557613864612ab6565b5b600061387388828901612b09565b955050602061388488828901612b09565b945050604061389588828901612b3f565b93505060606138a688828901612b3f565b925050608086013567ffffffffffffffff8111156138c7576138c6612abb565b5b6138d388828901613049565b9150509295509295909350565b7f455243313135353a2061646472657373207a65726f206973206e6f742061207660008201527f616c6964206f776e657200000000000000000000000000000000000000000000602082015250565b600061393c602a83612cb1565b9150613947826138e0565b604082019050919050565b6000602082019050818103600083015261396b8161392f565b9050919050565b7f4e487b7100000000000000000000000000000000000000000000000000000000600052602260045260246000fd5b600060028204905060018216806139b957607f821691505b6020821081036139cc576139cb613972565b5b50919050565b600081905092915050565b60008190508160005260206000209050919050565b600081546139ff816139a1565b613a0981866139d2565b94506001821660008114613a245760018114613a3557613a68565b60ff19831686528186019350613a68565b613a3e856139dd565b60005b83811015613a6057815481890152600182019150602081019050613a41565b838801955050505b50505092915050565b6000613a7c82612ca6565b613a8681856139d2565b9350613a96818560208601612cc2565b80840191505092915050565b6000613aae82856139f2565b9150613aba8284613a71565b91508190509392505050565b7f4e487b7100000000000000000000000000000000000000000000000000000000600052602160045260246000fd5b613afe81612ae0565b82525050565b6000604082019050613b196000830185613af5565b613b266020830184612b94565b9392505050565b600081519050613b3c816134f7565b92915050565b600060208284031215613b5857613b57612ab6565b5b6000613b6684828501613b2d565b91505092915050565b600067ffffffffffffffff821115613b8a57613b89612d66565b5b602082029050602081019050919050565b600080fd5b600080fd5b600081519050613bb481612b28565b92915050565b6000613bcd613bc884612eae565b612dc6565b905082815260208101848484011115613be957613be8612ea9565b5b613bf4848285612cc2565b509392505050565b600082601f830112613c1157613c10612d61565b5b8151613c21848260208601613bba565b91505092915050565b600060608284031215613c4057613c3f613b9b565b5b613c4a6060612dc6565b90506000613c5a84828501613ba5565b600083015250602082015167ffffffffffffffff811115613c7e57613c7d613ba0565b5b613c8a84828501613bfc565b6020830152506040613c9e84828501613ba5565b60408301525092915050565b6000613cbd613cb884613b6f565b612dc6565b90508083825260208201905060208402830185811115613ce057613cdf612e0d565b5b835b81811015613d2757805167ffffffffffffffff811115613d0557613d04612d61565b5b808601613d128982613c2a565b85526020850194505050602081019050613ce2565b5050509392505050565b600082601f830112613d4657613d45612d61565b5b8151613d56848260208601613caa565b91505092915050565b600060208284031215613d7557613d74612ab6565b5b600082015167ffffffffffffffff811115613d9357613d92612abb565b5b613d9f84828501613d31565b91505092915050565b7f4e487b7100000000000000000000000000000000000000000000000000000000600052603260045260246000fd5b7f4e487b7100000000000000000000000000000000000000000000000000000000600052601160045260246000fd5b6000613e1182612b1e565b9150613e1c83612b1e565b9250827fffffffffffffffffffffffffffffffffffffffffffffffffffffffffffffffff03821115613e5157613e50613dd7565b5b828201905092915050565b6000613e6782612b1e565b9150613e7283612b1e565b9250817fffffffffffffffffffffffffffffffffffffffffffffffffffffffffffffffff0483118215151615613eab57613eaa613dd7565b5b828202905092915050565b6000613ec182612b1e565b91507fffffffffffffffffffffffffffffffffffffffffffffffffffffffffffffffff8203613ef357613ef2613dd7565b5b600182019050919050565b7f4e487b7100000000000000000000000000000000000000000000000000000000600052601260045260246000fd5b6000613f3882612b1e565b9150613f4383612b1e565b925082613f5357613f52613efe565b5b828204905092915050565b600060208284031215613f7457613f73612ab6565b5b6000613f8284828501613ba5565b91505092915050565b7f455243313135353a2063616c6c6572206973206e6f7420746f6b656e206f776e60008201527f6572206f7220617070726f766564000000000000000000000000000000000000602082015250565b6000613fe7602e83612cb1565b9150613ff282613f8b565b604082019050919050565b6000602082019050818103600083015261401681613fda565b9050919050565b7f455243313135353a206163636f756e747320616e6420696473206c656e67746860008201527f206d69736d617463680000000000000000000000000000000000000000000000602082015250565b6000614079602983612cb1565b91506140848261401d565b604082019050919050565b600060208201905081810360008301526140a88161406c565b9050919050565b60006040820190506140c46000830185612b94565b6140d16020830184613af5565b9392505050565b6000815190506140e781612af2565b92915050565b60006060828403121561410357614102613b9b565b5b61410d6060612dc6565b9050600061411d84828501613ba5565b6000830152506020614131848285016140d8565b602083015250604061414584828501613ba5565b60408301525092915050565b600060c0828403121561416757614166613b9b565b5b6141716080612dc6565b90506000614181848285016140ed565b600083015250606082015167ffffffffffffffff8111156141a5576141a4613ba0565b5b6141b184828501613bfc565b60208301525060806141c584828501613ba5565b60408301525060a06141d984828501613b2d565b60608301525092915050565b6000602082840312156141fb576141fa612ab6565b5b600082015167ffffffffffffffff81111561421957614218612abb565b5b61422584828501614151565b91505092915050565b600061423982612b1e565b915061424483612b1e565b92508282101561425757614256613dd7565b5b828203905092915050565b7f455243313135353a2069647320616e6420616d6f756e7473206c656e6774682060008201527f6d69736d61746368000000000000000000000000000000000000000000000000602082015250565b60006142be602883612cb1565b91506142c982614262565b604082019050919050565b600060208201905081810360008301526142ed816142b1565b9050919050565b7f455243313135353a207472616e7366657220746f20746865207a65726f20616460008201527f6472657373000000000000000000000000000000000000000000000000000000602082015250565b6000614350602583612cb1565b915061435b826142f4565b604082019050919050565b6000602082019050818103600083015261437f81614343565b9050919050565b7f455243313135353a20696e73756666696369656e742062616c616e636520666f60008201527f72207472616e7366657200000000000000000000000000000000000000000000602082015250565b60006143e2602a83612cb1565b91506143ed82614386565b604082019050919050565b60006020820190508181036000830152614411816143d5565b9050919050565b60006040820190508181036000830152614432818561339f565b90508181036020830152614446818461339f565b90509392505050565b7f455243313135353a2073657474696e6720617070726f76616c2073746174757360008201527f20666f722073656c660000000000000000000000000000000000000000000000602082015250565b60006144ab602983612cb1565b91506144b68261444f565b604082019050919050565b600060208201905081810360008301526144da8161449e565b9050919050565b60006040820190506144f66000830185612b94565b6145036020830184612b94565b9392505050565b600081519050919050565b600082825260208201905092915050565b60006145318261450a565b61453b8185614515565b935061454b818560208601612cc2565b61455481612cf5565b840191505092915050565b600060a0820190506145746000830188613af5565b6145816020830187613af5565b8181036040830152614593818661339f565b905081810360608301526145a7818561339f565b905081810360808301526145bb8184614526565b90509695505050505050565b6000815190506145d681612bea565b92915050565b6000602082840312156145f2576145f1612ab6565b5b6000614600848285016145c7565b91505092915050565b60008160e01c9050919050565b600060033d11156146355760046000803e614632600051614609565b90505b90565b600060443d106146c55761464a612aac565b60043d036004823e80513d602482011167ffffffffffffffff821117156146725750506146c5565b808201805167ffffffffffffffff81111561469057505050506146c5565b80602083010160043d0385018111156146ad5750505050506146c5565b6146bc82602001850186612d95565b82955050505050505b90565b7f455243313135353a207472616e7366657220746f206e6f6e2d4552433131353560008201527f526563656976657220696d706c656d656e746572000000000000000000000000602082015250565b6000614724603483612cb1565b915061472f826146c8565b604082019050919050565b6000602082019050818103600083015261475381614717565b9050919050565b7f455243313135353a204552433131353552656365697665722072656a6563746560008201527f6420746f6b656e73000000000000000000000000000000000000000000000000602082015250565b60006147b6602883612cb1565b91506147c18261475a565b604082019050919050565b600060208201905081810360008301526147e5816147a9565b9050919050565b7f455243313135353a206d696e7420746f20746865207a65726f2061646472657360008201527f7300000000000000000000000000000000000000000000000000000000000000602082015250565b6000614848602183612cb1565b9150614853826147ec565b604082019050919050565b600060208201905081810360008301526148778161483b565b9050919050565b600060a0820190506148936000830188613af5565b6148a06020830187613af5565b6148ad6040830186612b94565b6148ba6060830185612b94565b81810360808301526148cc8184614526565b9050969550505050505056fea2646970667358221220872281d14a071f8261d4db5cdd8312256e4c1e3b31036bcabfb4ad90fc124c7d64736f6c634300080d0033",
  "immutableReferences": {
    "3431": [
      {
        "length": 32,
        "start": 2020
      },
      {
        "length": 32,
        "start": 3876
      },
      {
        "length": 32,
        "start": 4454
      }
    ],
    "3434": [
      {
        "length": 32,
        "start": 2283
      },
      {
        "length": 32,
        "start": 2990
      },
      {
        "length": 32,
        "start": 3341
      }
    ]
  },
  "source": "// SPDX-License-Identifier: MIT\r\n// Tells the Solidity compiler to compile only from v0.8.13 to v0.9.0\r\npragma solidity ^0.8.13;\r\n\r\nimport \"./ERC1155BaseContract.sol\";\r\nimport \"./interfaces/INftSchool.sol\";\r\nimport \"./interfaces/INftCertificates.sol\";\r\nimport \"./interfaces/INftIdentities.sol\";\r\nimport \"./utils/ArrayMath.sol\";\r\n\r\n/*\r\n    - Register class -> NftScoreboard\r\n    - Exchange Nft Complete Course\r\n    - Exchange Nft Graduation\r\n*/\r\ncontract NftCertificates is ERC1155BaseContract, INftCertificates {\r\n    using Counters for Counters.Counter;\r\n    using ArrayMath for uint256[];\r\n    uint256 constant NFT_CLASS = 3;\r\n    uint256 constant NFT_SCORE_BOARD = 4;\r\n    uint256 constant NFT_COMPLETE_COURSE = 5;\r\n    uint256 constant NFT_GRADUATION = 6;\r\n\r\n    uint256 public registeredPrice = 1 ether;\r\n    uint256 public graduationPrice = 1 ether;\r\n\r\n    string[] private courseURIs;\r\n\r\n    INftIdentities private immutable _nftIdentities;\r\n    INftSchool private immutable _nftSchool;\r\n\r\n    uint256 public schoolYearEnd;\r\n    uint256 public registeredStartAt;\r\n    uint256 public registeredEndAt;\r\n    uint256 public yearId;\r\n\r\n    NftCompleteCourse[] private _allNftCompleteCourses;\r\n    NftGraduation[] private _allNftGraduations;\r\n    mapping(uint256 => mapping(uint256 => uint256)) _posOfTokenIdOfNftType;\r\n\r\n    mapping(uint256 => uint256[]) _studentsOfClass;\r\n    mapping(uint256 => mapping(uint256 => uint256)) _posOfStudentInClass;\r\n    mapping(uint256 => uint256[]) private _studentOwnedCompleteCourseNfts;\r\n    mapping(uint256 => mapping(uint256 => bool))\r\n        private _completedCoursesOfStudent;\r\n    mapping(address => uint256) private _studentOwnedNftGraduation;\r\n\r\n    modifier onlyOwner() {\r\n        require(_owner == msg.sender);\r\n        _;\r\n    }\r\n\r\n    modifier onlyNftSchoolContract() {\r\n        require(msg.sender == address(_nftSchool));\r\n        _;\r\n    }\r\n\r\n    modifier afterYearEnd() {\r\n        require(block.timestamp > schoolYearEnd);\r\n        _;\r\n    }\r\n\r\n    modifier canOperate(uint256 role) {\r\n        require(_nftIdentities.isAbleToOperate(msg.sender, role));\r\n        _;\r\n    }\r\n\r\n    constructor(\r\n        address nftIdentities,\r\n        address nftSchool\r\n    ) ERC1155BaseContract(\"\") {\r\n        _nftIdentities = INftIdentities(nftIdentities);\r\n        _nftSchool = INftSchool(nftSchool);\r\n        schoolYearEnd = block.timestamp;\r\n    }\r\n\r\n    /*\r\n        Initialize requirement before any operation in the system including\r\n        - Requirement\r\n        - Course template\r\n    */\r\n\r\n    // (everyone)\r\n    function getOwnedNftCompleteCourse()\r\n        external\r\n        view\r\n        returns (NftCompleteCourse[] memory, string[] memory)\r\n    {\r\n        uint256 studentTokenId = _nftIdentities\r\n            .getNftOfMemberWithRole(uint256(ROLE.STUDENT), msg.sender)\r\n            .nftIdentity\r\n            .tokenId;\r\n        uint256 numberOfNftCompleteCourses = _studentOwnedCompleteCourseNfts[\r\n            studentTokenId\r\n        ].length;\r\n        require(numberOfNftCompleteCourses > 0);\r\n\r\n        NftCompleteCourse[] memory nfts = new NftCompleteCourse[](\r\n            numberOfNftCompleteCourses\r\n        );\r\n        string[] memory nftURIs = new string[](numberOfNftCompleteCourses);\r\n\r\n        for (uint256 idx = 0; idx <= numberOfNftCompleteCourses; ++idx) {\r\n            (nfts[idx], nftURIs[idx]) = getNftCompleteCourse(\r\n                _studentOwnedCompleteCourseNfts[studentTokenId][idx]\r\n            );\r\n        }\r\n\r\n        return (nfts, nftURIs);\r\n    }\r\n\r\n    function getNftCompleteCourse(\r\n        uint256 tokenId\r\n    ) public view returns (NftCompleteCourse memory, string memory) {\r\n        uint256 pos = _posOfTokenIdOfNftType[NFT_COMPLETE_COURSE][tokenId];\r\n        require(pos > 0);\r\n\r\n        return (_allNftCompleteCourses[pos - 1], uri(tokenId));\r\n    }\r\n\r\n    function getOwnedNftGraduation()\r\n        external\r\n        view\r\n        returns (NftGraduation memory, string memory)\r\n    {\r\n        uint256 tokenId = _studentOwnedNftGraduation[msg.sender];\r\n\r\n        return getNftGraduation(tokenId);\r\n    }\r\n\r\n    function getNftGraduation(\r\n        uint256 tokenId\r\n    ) public view returns (NftGraduation memory, string memory) {\r\n        uint256 pos = _posOfTokenIdOfNftType[NFT_GRADUATION][tokenId];\r\n        require(pos > 0);\r\n\r\n        return (_allNftGraduations[pos - 1], uri(tokenId));\r\n    }\r\n\r\n    // Nft Complete Course Section: Start\r\n    // depositNftClassRegistration group by classId\r\n    // getDepositedNftClassRegistration\r\n    // updateScoreAndGrantCourseComplete -> burnNftClassRegistration\r\n\r\n    // deposit all courseCompletes and documents to validate\r\n    // validate (off-chain) -> grantNftGraduation (1 groups or 1 person?)\r\n    // if 1 group, who is enough permission to create this group?\r\n    \r\n    function exchangeCompleteCourse(\r\n        address studentAddr,\r\n        uint256 studentTokenId,\r\n        uint256 courseId,\r\n        uint256 knowledgeBlockId,\r\n        uint256 credits,\r\n        uint256 score,\r\n        string memory tokenURI\r\n    ) public payable onlyNftSchoolContract returns (uint256) {\r\n        uint256 tokenId = _mintToken(\r\n            studentAddr,\r\n            NFT_COMPLETE_COURSE,\r\n            tokenURI\r\n        );\r\n        _createNftCompleteCourse(\r\n            tokenId,\r\n            courseId,\r\n            knowledgeBlockId,\r\n            credits,\r\n            score\r\n        );\r\n        _studentOwnedCompleteCourseNfts[studentTokenId].push(tokenId);\r\n        _completedCoursesOfStudent[studentTokenId][courseId] = true;\r\n\r\n        return tokenId;\r\n    }\r\n\r\n    function _createNftCompleteCourse(\r\n        uint256 tokenId,\r\n        uint256 courseId,\r\n        uint256 knowledgeBlockId,\r\n        uint256 credits,\r\n        uint256 score\r\n    ) private {\r\n        NftCompleteCourse memory nftCompleteCourse = NftCompleteCourse(\r\n            tokenId,\r\n            courseId,\r\n            knowledgeBlockId,\r\n            credits,\r\n            score\r\n        );\r\n        _allNftCompleteCourses.push(nftCompleteCourse);\r\n        _posOfTokenIdOfNftType[NFT_COMPLETE_COURSE][\r\n            tokenId\r\n        ] = _allNftCompleteCourses.length;\r\n    }\r\n    // Nft Complete Course Section: End\r\n\r\n    function exchangeGraduation(\r\n        uint256[] memory nftCompleteCourseIds,\r\n        string memory tokenURI\r\n    ) public payable canOperate(uint256(ROLE.STUDENT)) {\r\n        require(msg.value == graduationPrice);\r\n        require(_studentOwnedNftGraduation[msg.sender] == 0);\r\n        uint256 numOfCompleteCourses = nftCompleteCourseIds.length;\r\n        KnowledgeBlock[] memory knowledgeBlocks = _nftSchool\r\n            .getAllKnowledgeBlocks();\r\n        uint256 numOfKnowledgeBlocks = knowledgeBlocks.length;\r\n        uint256[] memory acquiredCreditsByKnowledgeBlockId = new uint256[](\r\n            numOfKnowledgeBlocks\r\n        );\r\n        uint256 acquiredCredits;\r\n        uint256 totalScore;\r\n\r\n        for (uint256 idx = 0; idx < numOfCompleteCourses; ++idx) {\r\n            if (_ownerOfNft[NFT_COMPLETE_COURSE][nftCompleteCourseIds[idx]] != msg.sender) {\r\n                revert();\r\n            }\r\n            // _TODO: Check duplicate course\r\n            (\r\n                NftCompleteCourse memory nftCompleteCourse,\r\n\r\n            ) = getNftCompleteCourse(nftCompleteCourseIds[idx]);\r\n            acquiredCreditsByKnowledgeBlockId[\r\n                nftCompleteCourse.knowledgeBlockId\r\n            ] += nftCompleteCourse.credits;\r\n            acquiredCredits += nftCompleteCourse.credits;\r\n            totalScore += (nftCompleteCourse.avgScore *\r\n                nftCompleteCourse.credits);\r\n        }\r\n\r\n        for (uint256 idx = 0; idx < numOfKnowledgeBlocks; ++idx) {\r\n            if (\r\n                acquiredCreditsByKnowledgeBlockId[knowledgeBlocks[idx].id] <\r\n                knowledgeBlocks[idx].credits\r\n            ) {\r\n                // If not enough credits of this knowledge block, revert\r\n                revert();\r\n            }\r\n        }\r\n\r\n        uint256 avgScore = totalScore / acquiredCredits;\r\n        if (avgScore <= _nftSchool.minimumGraduationScore()) {\r\n            revert();\r\n        }\r\n\r\n        _mintNftGraduation(tokenURI);\r\n    }\r\n\r\n    function checkCompleteCourse(\r\n        uint256 courseId,\r\n        address studentAddr\r\n    ) public view returns (bool) {\r\n        uint256 studentTokenId = _nftIdentities\r\n            .getNftOfMemberWithRole(uint256(ROLE.STUDENT), studentAddr)\r\n            .nftIdentity\r\n            .tokenId;\r\n        return _completedCoursesOfStudent[studentTokenId][courseId];\r\n    }\r\n\r\n    // (everyone)\r\n\r\n    // onlyOwner\r\n    function _mintNftGraduation(\r\n        string memory tokenURI\r\n    ) private returns (uint256) {\r\n        uint256 tokenId = _mintToken(msg.sender, NFT_GRADUATION, tokenURI);\r\n        _createNftGraduation(tokenId);\r\n        _studentOwnedNftGraduation[msg.sender] = tokenId;\r\n\r\n        return tokenId;\r\n    }\r\n\r\n    function _createNftGraduation(uint256 tokenId) private {\r\n        NftGraduation memory nftGraduation = NftGraduation(tokenId);\r\n        _allNftGraduations.push(nftGraduation);\r\n        _posOfTokenIdOfNftType[NFT_GRADUATION][tokenId] = _allNftGraduations\r\n            .length;\r\n    }\r\n}\r\n",
  "sourcePath": "E:\\learn\\learn-to-earn\\blockchain\\contracts\\NftCertificates.sol",
  "compiler": {
    "name": "solc",
    "version": "0.8.13+commit.abaa5c0e.Emscripten.clang"
  },
  "schemaVersion": "3.4.13",
  "updatedAt": "2023-05-06T17:32:24.979Z",
  "networkType": "ethereum",
  "devdoc": {
    "kind": "dev",
    "methods": {
      "balanceOf(address,uint256)": {
        "details": "See {IERC1155-balanceOf}. Requirements: - `account` cannot be the zero address."
      },
      "balanceOfBatch(address[],uint256[])": {
        "details": "See {IERC1155-balanceOfBatch}. Requirements: - `accounts` and `ids` must have the same length."
      },
      "isApprovedForAll(address,address)": {
        "details": "See {IERC1155-isApprovedForAll}."
      },
      "safeBatchTransferFrom(address,address,uint256[],uint256[],bytes)": {
        "details": "See {IERC1155-safeBatchTransferFrom}."
      },
      "safeTransferFrom(address,address,uint256,uint256,bytes)": {
        "details": "See {IERC1155-safeTransferFrom}."
      },
      "setApprovalForAll(address,bool)": {
        "details": "See {IERC1155-setApprovalForAll}."
      },
      "supportsInterface(bytes4)": {
        "details": "See {IERC165-supportsInterface}."
      },
      "uri(uint256)": {
        "details": "See {IERC1155MetadataURI-uri}. This implementation returns the concatenation of the `_baseURI` and the token-specific uri if the latter is set This enables the following behaviors: - if `_tokenURIs[tokenId]` is set, then the result is the concatenation   of `_baseURI` and `_tokenURIs[tokenId]` (keep in mind that `_baseURI`   is empty per default); - if `_tokenURIs[tokenId]` is NOT set then we fallback to `super.uri()`   which in most cases will contain `ERC1155._uri`; - if `_tokenURIs[tokenId]` is NOT set, and if the parents do not have a   uri value set, then the result is empty."
      }
    },
    "version": 1
  },
  "userdoc": {
    "kind": "user",
    "methods": {},
    "version": 1
  }
}