{
  "contractName": "NftCertificates",
  "abi": [
    {
      "inputs": [
        {
          "internalType": "address",
          "name": "nftIdentities",
          "type": "address"
        },
        {
          "internalType": "address",
          "name": "nftSchool",
          "type": "address"
        }
      ],
      "stateMutability": "nonpayable",
      "type": "constructor"
    },
    {
      "anonymous": false,
      "inputs": [
        {
          "indexed": true,
          "internalType": "address",
          "name": "account",
          "type": "address"
        },
        {
          "indexed": true,
          "internalType": "address",
          "name": "operator",
          "type": "address"
        },
        {
          "indexed": false,
          "internalType": "bool",
          "name": "approved",
          "type": "bool"
        }
      ],
      "name": "ApprovalForAll",
      "type": "event"
    },
    {
      "anonymous": false,
      "inputs": [
        {
          "indexed": true,
          "internalType": "address",
          "name": "operator",
          "type": "address"
        },
        {
          "indexed": true,
          "internalType": "address",
          "name": "from",
          "type": "address"
        },
        {
          "indexed": true,
          "internalType": "address",
          "name": "to",
          "type": "address"
        },
        {
          "indexed": false,
          "internalType": "uint256[]",
          "name": "ids",
          "type": "uint256[]"
        },
        {
          "indexed": false,
          "internalType": "uint256[]",
          "name": "values",
          "type": "uint256[]"
        }
      ],
      "name": "TransferBatch",
      "type": "event"
    },
    {
      "anonymous": false,
      "inputs": [
        {
          "indexed": true,
          "internalType": "address",
          "name": "operator",
          "type": "address"
        },
        {
          "indexed": true,
          "internalType": "address",
          "name": "from",
          "type": "address"
        },
        {
          "indexed": true,
          "internalType": "address",
          "name": "to",
          "type": "address"
        },
        {
          "indexed": false,
          "internalType": "uint256",
          "name": "id",
          "type": "uint256"
        },
        {
          "indexed": false,
          "internalType": "uint256",
          "name": "value",
          "type": "uint256"
        }
      ],
      "name": "TransferSingle",
      "type": "event"
    },
    {
      "anonymous": false,
      "inputs": [
        {
          "indexed": false,
          "internalType": "string",
          "name": "value",
          "type": "string"
        },
        {
          "indexed": true,
          "internalType": "uint256",
          "name": "id",
          "type": "uint256"
        }
      ],
      "name": "URI",
      "type": "event"
    },
    {
      "inputs": [
        {
          "internalType": "address",
          "name": "account",
          "type": "address"
        },
        {
          "internalType": "uint256",
          "name": "id",
          "type": "uint256"
        }
      ],
      "name": "balanceOf",
      "outputs": [
        {
          "internalType": "uint256",
          "name": "",
          "type": "uint256"
        }
      ],
      "stateMutability": "view",
      "type": "function",
      "constant": true
    },
    {
      "inputs": [
        {
          "internalType": "address[]",
          "name": "accounts",
          "type": "address[]"
        },
        {
          "internalType": "uint256[]",
          "name": "ids",
          "type": "uint256[]"
        }
      ],
      "name": "balanceOfBatch",
      "outputs": [
        {
          "internalType": "uint256[]",
          "name": "",
          "type": "uint256[]"
        }
      ],
      "stateMutability": "view",
      "type": "function",
      "constant": true
    },
    {
      "inputs": [],
      "name": "graduationPrice",
      "outputs": [
        {
          "internalType": "uint256",
          "name": "",
          "type": "uint256"
        }
      ],
      "stateMutability": "view",
      "type": "function",
      "constant": true
    },
    {
      "inputs": [
        {
          "internalType": "address",
          "name": "account",
          "type": "address"
        },
        {
          "internalType": "address",
          "name": "operator",
          "type": "address"
        }
      ],
      "name": "isApprovedForAll",
      "outputs": [
        {
          "internalType": "bool",
          "name": "",
          "type": "bool"
        }
      ],
      "stateMutability": "view",
      "type": "function",
      "constant": true
    },
    {
      "inputs": [],
      "name": "registeredEndAt",
      "outputs": [
        {
          "internalType": "uint256",
          "name": "",
          "type": "uint256"
        }
      ],
      "stateMutability": "view",
      "type": "function",
      "constant": true
    },
    {
      "inputs": [],
      "name": "registeredPrice",
      "outputs": [
        {
          "internalType": "uint256",
          "name": "",
          "type": "uint256"
        }
      ],
      "stateMutability": "view",
      "type": "function",
      "constant": true
    },
    {
      "inputs": [],
      "name": "registeredStartAt",
      "outputs": [
        {
          "internalType": "uint256",
          "name": "",
          "type": "uint256"
        }
      ],
      "stateMutability": "view",
      "type": "function",
      "constant": true
    },
    {
      "inputs": [
        {
          "internalType": "address",
          "name": "from",
          "type": "address"
        },
        {
          "internalType": "address",
          "name": "to",
          "type": "address"
        },
        {
          "internalType": "uint256[]",
          "name": "ids",
          "type": "uint256[]"
        },
        {
          "internalType": "uint256[]",
          "name": "amounts",
          "type": "uint256[]"
        },
        {
          "internalType": "bytes",
          "name": "data",
          "type": "bytes"
        }
      ],
      "name": "safeBatchTransferFrom",
      "outputs": [],
      "stateMutability": "nonpayable",
      "type": "function"
    },
    {
      "inputs": [
        {
          "internalType": "address",
          "name": "from",
          "type": "address"
        },
        {
          "internalType": "address",
          "name": "to",
          "type": "address"
        },
        {
          "internalType": "uint256",
          "name": "id",
          "type": "uint256"
        },
        {
          "internalType": "uint256",
          "name": "amount",
          "type": "uint256"
        },
        {
          "internalType": "bytes",
          "name": "data",
          "type": "bytes"
        }
      ],
      "name": "safeTransferFrom",
      "outputs": [],
      "stateMutability": "nonpayable",
      "type": "function"
    },
    {
      "inputs": [],
      "name": "schoolYearEnd",
      "outputs": [
        {
          "internalType": "uint256",
          "name": "",
          "type": "uint256"
        }
      ],
      "stateMutability": "view",
      "type": "function",
      "constant": true
    },
    {
      "inputs": [
        {
          "internalType": "address",
          "name": "operator",
          "type": "address"
        },
        {
          "internalType": "bool",
          "name": "approved",
          "type": "bool"
        }
      ],
      "name": "setApprovalForAll",
      "outputs": [],
      "stateMutability": "nonpayable",
      "type": "function"
    },
    {
      "inputs": [
        {
          "internalType": "bytes4",
          "name": "interfaceId",
          "type": "bytes4"
        }
      ],
      "name": "supportsInterface",
      "outputs": [
        {
          "internalType": "bool",
          "name": "",
          "type": "bool"
        }
      ],
      "stateMutability": "view",
      "type": "function",
      "constant": true
    },
    {
      "inputs": [
        {
          "internalType": "uint256",
          "name": "tokenId",
          "type": "uint256"
        }
      ],
      "name": "uri",
      "outputs": [
        {
          "internalType": "string",
          "name": "",
          "type": "string"
        }
      ],
      "stateMutability": "view",
      "type": "function",
      "constant": true
    },
    {
      "inputs": [],
      "name": "yearId",
      "outputs": [
        {
          "internalType": "uint256",
          "name": "",
          "type": "uint256"
        }
      ],
      "stateMutability": "view",
      "type": "function",
      "constant": true
    },
    {
      "inputs": [],
      "name": "getOwnedNftCompleteCourse",
      "outputs": [
        {
          "components": [
            {
              "internalType": "uint256",
              "name": "tokenId",
              "type": "uint256"
            },
            {
              "internalType": "uint256",
              "name": "courseId",
              "type": "uint256"
            },
            {
              "internalType": "uint256",
              "name": "knowledgeBlockId",
              "type": "uint256"
            },
            {
              "internalType": "uint256",
              "name": "credits",
              "type": "uint256"
            },
            {
              "internalType": "uint256",
              "name": "avgScore",
              "type": "uint256"
            }
          ],
          "internalType": "struct IConstant.NftCompleteCourse[]",
          "name": "",
          "type": "tuple[]"
        },
        {
          "internalType": "string[]",
          "name": "",
          "type": "string[]"
        }
      ],
      "stateMutability": "view",
      "type": "function",
      "constant": true
    },
    {
      "inputs": [
        {
          "internalType": "uint256",
          "name": "tokenId",
          "type": "uint256"
        }
      ],
      "name": "getNftCompleteCourse",
      "outputs": [
        {
          "components": [
            {
              "internalType": "uint256",
              "name": "tokenId",
              "type": "uint256"
            },
            {
              "internalType": "uint256",
              "name": "courseId",
              "type": "uint256"
            },
            {
              "internalType": "uint256",
              "name": "knowledgeBlockId",
              "type": "uint256"
            },
            {
              "internalType": "uint256",
              "name": "credits",
              "type": "uint256"
            },
            {
              "internalType": "uint256",
              "name": "avgScore",
              "type": "uint256"
            }
          ],
          "internalType": "struct IConstant.NftCompleteCourse",
          "name": "",
          "type": "tuple"
        },
        {
          "internalType": "string",
          "name": "",
          "type": "string"
        }
      ],
      "stateMutability": "view",
      "type": "function",
      "constant": true
    },
    {
      "inputs": [],
      "name": "getOwnedNftGraduation",
      "outputs": [
        {
          "components": [
            {
              "internalType": "uint256",
              "name": "tokenId",
              "type": "uint256"
            }
          ],
          "internalType": "struct IConstant.NftGraduation",
          "name": "",
          "type": "tuple"
        },
        {
          "internalType": "string",
          "name": "",
          "type": "string"
        }
      ],
      "stateMutability": "view",
      "type": "function",
      "constant": true
    },
    {
      "inputs": [
        {
          "internalType": "uint256",
          "name": "tokenId",
          "type": "uint256"
        }
      ],
      "name": "getNftGraduation",
      "outputs": [
        {
          "components": [
            {
              "internalType": "uint256",
              "name": "tokenId",
              "type": "uint256"
            }
          ],
          "internalType": "struct IConstant.NftGraduation",
          "name": "",
          "type": "tuple"
        },
        {
          "internalType": "string",
          "name": "",
          "type": "string"
        }
      ],
      "stateMutability": "view",
      "type": "function",
      "constant": true
    },
    {
      "inputs": [
        {
          "internalType": "uint256",
          "name": "tokenId",
          "type": "uint256"
        }
      ],
      "name": "getNftScoreBoard",
      "outputs": [
        {
          "components": [
            {
              "internalType": "uint256",
              "name": "tokenId",
              "type": "uint256"
            },
            {
              "internalType": "uint256",
              "name": "classId",
              "type": "uint256"
            },
            {
              "internalType": "uint256",
              "name": "courseId",
              "type": "uint256"
            },
            {
              "internalType": "uint256",
              "name": "knowledgeBlockId",
              "type": "uint256"
            },
            {
              "internalType": "uint256",
              "name": "credits",
              "type": "uint256"
            },
            {
              "internalType": "uint256",
              "name": "completeAt",
              "type": "uint256"
            },
            {
              "internalType": "address",
              "name": "studentAddr",
              "type": "address"
            },
            {
              "internalType": "address",
              "name": "teacherAddr",
              "type": "address"
            },
            {
              "internalType": "uint256[]",
              "name": "requiredScore",
              "type": "uint256[]"
            },
            {
              "internalType": "uint256[]",
              "name": "scores",
              "type": "uint256[]"
            }
          ],
          "internalType": "struct IConstant.NftScoreBoard",
          "name": "",
          "type": "tuple"
        },
        {
          "internalType": "string",
          "name": "",
          "type": "string"
        }
      ],
      "stateMutability": "view",
      "type": "function",
      "constant": true
    },
    {
      "inputs": [
        {
          "internalType": "uint256",
          "name": "classId",
          "type": "uint256"
        },
        {
          "internalType": "string",
          "name": "tokenURI",
          "type": "string"
        }
      ],
      "name": "registerClass",
      "outputs": [],
      "stateMutability": "payable",
      "type": "function",
      "payable": true
    },
    {
      "inputs": [
        {
          "internalType": "uint256",
          "name": "scoreBoardId",
          "type": "uint256"
        },
        {
          "internalType": "uint256[]",
          "name": "requireScore",
          "type": "uint256[]"
        },
        {
          "internalType": "uint256[]",
          "name": "scores",
          "type": "uint256[]"
        }
      ],
      "name": "updateScores",
      "outputs": [],
      "stateMutability": "nonpayable",
      "type": "function"
    },
    {
      "inputs": [
        {
          "internalType": "uint256",
          "name": "scoreBoardId",
          "type": "uint256"
        },
        {
          "internalType": "string",
          "name": "tokenURI",
          "type": "string"
        }
      ],
      "name": "exchangeCompleteCourse",
      "outputs": [],
      "stateMutability": "payable",
      "type": "function",
      "payable": true
    },
    {
      "inputs": [
        {
          "internalType": "uint256[]",
          "name": "nftCompleteCourseIds",
          "type": "uint256[]"
        },
        {
          "internalType": "string",
          "name": "tokenURI",
          "type": "string"
        }
      ],
      "name": "exchangeGraduation",
      "outputs": [],
      "stateMutability": "payable",
      "type": "function",
      "payable": true
    }
  ],
  "bytecode": "0x60c060405260405180602001604052806000815250600390805190602001906200002b9291906200016f565b50670de0b6b3a7640000600955670de0b6b3a7640000600a553480156200005157600080fd5b5060405162005e9038038062005e90833981810160405281019062000077919062000289565b604051806020016040528060008152508062000099816200015360201b60201c565b5033600560006101000a81548173ffffffffffffffffffffffffffffffffffffffff021916908373ffffffffffffffffffffffffffffffffffffffff160217905550508173ffffffffffffffffffffffffffffffffffffffff1660808173ffffffffffffffffffffffffffffffffffffffff16815250508073ffffffffffffffffffffffffffffffffffffffff1660a08173ffffffffffffffffffffffffffffffffffffffff168152505042600c81905550505062000334565b80600290805190602001906200016b9291906200016f565b5050565b8280546200017d90620002ff565b90600052602060002090601f016020900481019282620001a15760008555620001ed565b82601f10620001bc57805160ff1916838001178555620001ed565b82800160010185558215620001ed579182015b82811115620001ec578251825591602001919060010190620001cf565b5b509050620001fc919062000200565b5090565b5b808211156200021b57600081600090555060010162000201565b5090565b600080fd5b600073ffffffffffffffffffffffffffffffffffffffff82169050919050565b6000620002518262000224565b9050919050565b620002638162000244565b81146200026f57600080fd5b50565b600081519050620002838162000258565b92915050565b60008060408385031215620002a357620002a26200021f565b5b6000620002b38582860162000272565b9250506020620002c68582860162000272565b9150509250929050565b7f4e487b7100000000000000000000000000000000000000000000000000000000600052602260045260246000fd5b600060028204905060018216806200031857607f821691505b6020821081036200032e576200032d620002d0565b5b50919050565b60805160a051615b1a620003766000396000818161094301528181610bf4015261223701526000818161082f01528181610cc20152610f5c0152615b1a6000f3fe60806040526004361061013f5760003560e01c80637b722c9d116100b6578063b5bee3171161006f578063b5bee3171461046a578063df264a5e14610486578063df4e4891146104b2578063e985e9c5146104dd578063ec7d2f751461051a578063f242432a146105585761013f565b80637b722c9d1461034357806385c7744c146103815780638f03802d146103bf578063a22cb465146103ea578063af0d1cb514610413578063b12a61151461043e5761013f565b806311394f561161010857806311394f56146102425780631d63ed4e1461026d5780632eb2c2d6146102895780633172c563146102b25780634e1273f4146102dd578063679a09dc1461031a5761013f565b8062fdd58e1461014457806301ffc9a71461018157806303ece623146101be5780630e89341c146101e9578063111868a614610226575b600080fd5b34801561015057600080fd5b5061016b600480360381019061016691906138c6565b610581565b6040516101789190613915565b60405180910390f35b34801561018d57600080fd5b506101a860048036038101906101a39190613988565b610649565b6040516101b591906139d0565b60405180910390f35b3480156101ca57600080fd5b506101d361072b565b6040516101e09190613915565b60405180910390f35b3480156101f557600080fd5b50610210600480360381019061020b91906139eb565b610731565b60405161021d9190613ab1565b60405180910390f35b610240600480360381019061023b9190613cd0565b610816565b005b34801561024e57600080fd5b50610257610ca4565b6040516102649190613915565b60405180910390f35b61028760048036038101906102829190613d48565b610caa565b005b34801561029557600080fd5b506102b060048036038101906102ab9190613e45565b610d84565b005b3480156102be57600080fd5b506102c7610e25565b6040516102d49190613915565b60405180910390f35b3480156102e957600080fd5b5061030460048036038101906102ff9190613fd7565b610e2b565b604051610311919061410d565b60405180910390f35b34801561032657600080fd5b50610341600480360381019061033c919061412f565b610f44565b005b34801561034f57600080fd5b5061036a600480360381019061036591906139eb565b6111bc565b604051610378929190614319565b60405180910390f35b34801561038d57600080fd5b506103a860048036038101906103a391906139eb565b6113e5565b6040516103b69291906143b8565b60405180910390f35b3480156103cb57600080fd5b506103d46114a7565b6040516103e19190613915565b60405180910390f35b3480156103f657600080fd5b50610411600480360381019061040c9190614414565b6114ad565b005b34801561041f57600080fd5b506104286114c3565b6040516104359190613915565b60405180910390f35b34801561044a57600080fd5b506104536114c9565b604051610461929190614470565b60405180910390f35b610484600480360381019061047f9190613d48565b611529565b005b34801561049257600080fd5b5061049b611546565b6040516104a99291906146c3565b60405180910390f35b3480156104be57600080fd5b506104c7611710565b6040516104d49190613915565b60405180910390f35b3480156104e957600080fd5b5061050460048036038101906104ff91906146fa565b611716565b60405161051191906139d0565b60405180910390f35b34801561052657600080fd5b50610541600480360381019061053c91906139eb565b6117aa565b60405161054f929190614470565b60405180910390f35b34801561056457600080fd5b5061057f600480360381019061057a919061473a565b611840565b005b60008073ffffffffffffffffffffffffffffffffffffffff168373ffffffffffffffffffffffffffffffffffffffff16036105f1576040517f08c379a00000000000000000000000000000000000000000000000000000000081526004016105e890614843565b60405180910390fd5b60008083815260200190815260200160002060008473ffffffffffffffffffffffffffffffffffffffff1673ffffffffffffffffffffffffffffffffffffffff16815260200190815260200160002054905092915050565b60007fd9b67a26000000000000000000000000000000000000000000000000000000007bffffffffffffffffffffffffffffffffffffffffffffffffffffffff1916827bffffffffffffffffffffffffffffffffffffffffffffffffffffffff1916148061071457507f0e89341c000000000000000000000000000000000000000000000000000000007bffffffffffffffffffffffffffffffffffffffffffffffffffffffff1916827bffffffffffffffffffffffffffffffffffffffffffffffffffffffff1916145b806107245750610723826118e1565b5b9050919050565b600a5481565b6060600060046000848152602001908152602001600020805461075390614892565b80601f016020809104026020016040519081016040528092919081815260200182805461077f90614892565b80156107cc5780601f106107a1576101008083540402835291602001916107cc565b820191906000526020600020905b8154815290600101906020018083116107af57829003601f168201915b5050505050905060008151116107ea576107e58361194b565b61080e565b6003816040516020016107fe929190614993565b6040516020818303038152906040525b915050919050565b6000600181111561082a576108296149b7565b5b6000807f000000000000000000000000000000000000000000000000000000000000000073ffffffffffffffffffffffffffffffffffffffff1663ce268f69336040518263ffffffff1660e01b815260040161088691906149f5565b6040805180830381865afa1580156108a2573d6000803e3d6000fd5b505050506040513d601f19601f820116820180604052508101906108c69190614a3a565b915091508180156108d657508083145b6108df57600080fd5b600a5434146108ed57600080fd5b6000601760003373ffffffffffffffffffffffffffffffffffffffff1673ffffffffffffffffffffffffffffffffffffffff168152602001908152602001600020541461093957600080fd5b60008551905060007f000000000000000000000000000000000000000000000000000000000000000073ffffffffffffffffffffffffffffffffffffffff16635f7b9d736040518163ffffffff1660e01b8152600401600060405180830381865afa1580156109ac573d6000803e3d6000fd5b505050506040513d6000823e3d601f19601f820116820180604052508101906109d59190614c55565b905060008151905060008167ffffffffffffffff8111156109f9576109f8613ad8565b5b604051908082528060200260200182016040528015610a275781602001602082028036833780820191505090505b50905060008060005b86811015610b61573373ffffffffffffffffffffffffffffffffffffffff16600860008e8481518110610a6657610a65614c9e565b5b6020026020010151815260200190815260200160002060009054906101000a900473ffffffffffffffffffffffffffffffffffffffff1673ffffffffffffffffffffffffffffffffffffffff1614610abd57600080fd5b6000610ae28d8381518110610ad557610ad4614c9e565b5b60200260200101516113e5565b509050806060015185826040015181518110610b0157610b00614c9e565b5b60200260200101818151610b159190614cfc565b91508181525050806060015184610b2c9190614cfc565b935080606001518160800151610b429190614d52565b83610b4d9190614cfc565b92505080610b5a90614dac565b9050610a30565b5060005b84811015610be157858181518110610b8057610b7f614c9e565b5b60200260200101516040015184878381518110610ba057610b9f614c9e565b5b60200260200101516000015181518110610bbd57610bbc614c9e565b5b60200260200101511015610bd057600080fd5b80610bda90614dac565b9050610b65565b5060008282610bf09190614e23565b90507f000000000000000000000000000000000000000000000000000000000000000073ffffffffffffffffffffffffffffffffffffffff16635fe037796040518163ffffffff1660e01b8152600401602060405180830381865afa158015610c5d573d6000803e3d6000fd5b505050506040513d601f19601f82011682018060405250810190610c819190614e54565b8111610c8c57600080fd5b610c958b6119df565b50505050505050505050505050565b600c5481565b600180811115610cbd57610cbc6149b7565b5b6000807f000000000000000000000000000000000000000000000000000000000000000073ffffffffffffffffffffffffffffffffffffffff1663ce268f69336040518263ffffffff1660e01b8152600401610d1991906149f5565b6040805180830381865afa158015610d35573d6000803e3d6000fd5b505050506040513d601f19601f82011682018060405250810190610d599190614a3a565b91509150818015610d6957508083145b610d7257600080fd5b610d7c8585611a46565b505050505050565b610d8c611d40565b73ffffffffffffffffffffffffffffffffffffffff168573ffffffffffffffffffffffffffffffffffffffff161480610dd25750610dd185610dcc611d40565b611716565b5b610e11576040517f08c379a0000000000000000000000000000000000000000000000000000000008152600401610e0890614ef3565b60405180910390fd5b610e1e8585858585611d48565b5050505050565b60095481565b60608151835114610e71576040517f08c379a0000000000000000000000000000000000000000000000000000000008152600401610e6890614f85565b60405180910390fd5b6000835167ffffffffffffffff811115610e8e57610e8d613ad8565b5b604051908082528060200260200182016040528015610ebc5781602001602082028036833780820191505090505b50905060005b8451811015610f3957610f09858281518110610ee157610ee0614c9e565b5b6020026020010151858381518110610efc57610efb614c9e565b5b6020026020010151610581565b828281518110610f1c57610f1b614c9e565b5b60200260200101818152505080610f3290614dac565b9050610ec2565b508091505092915050565b600180811115610f5757610f566149b7565b5b6000807f000000000000000000000000000000000000000000000000000000000000000073ffffffffffffffffffffffffffffffffffffffff1663ce268f69336040518263ffffffff1660e01b8152600401610fb391906149f5565b6040805180830381865afa158015610fcf573d6000803e3d6000fd5b505050506040513d601f19601f82011682018060405250810190610ff39190614a3a565b9150915081801561100357508083145b61100c57600080fd5b6000601360006004815260200190815260200160002060008881526020019081526020016000205490506000811161104357600080fd5b4260106001836110539190614fa5565b8154811061106457611063614c9e565b5b90600052602060002090600a0201600501541061108057600080fd5b3373ffffffffffffffffffffffffffffffffffffffff1660106001836110a69190614fa5565b815481106110b7576110b6614c9e565b5b90600052602060002090600a020160070160009054906101000a900473ffffffffffffffffffffffffffffffffffffffff1673ffffffffffffffffffffffffffffffffffffffff161461110957600080fd5b60008651905060005b818110156111b15786818151811061112d5761112c614c9e565b5b602002602001015160106001856111449190614fa5565b8154811061115557611154614c9e565b5b90600052602060002090600a020160090189838151811061117957611178614c9e565b5b60200260200101518154811061119257611191614c9e565b5b9060005260206000200181905550806111aa90614dac565b9050611112565b505050505050505050565b6111c461366d565b6060600060136000600481526020019081526020016000206000858152602001908152602001600020549050600081116111fd57600080fd5b601060018261120c9190614fa5565b8154811061121d5761121c614c9e565b5b90600052602060002090600a020161123485610731565b81604051806101400160405290816000820154815260200160018201548152602001600282015481526020016003820154815260200160048201548152602001600582015481526020016006820160009054906101000a900473ffffffffffffffffffffffffffffffffffffffff1673ffffffffffffffffffffffffffffffffffffffff1673ffffffffffffffffffffffffffffffffffffffff1681526020016007820160009054906101000a900473ffffffffffffffffffffffffffffffffffffffff1673ffffffffffffffffffffffffffffffffffffffff1673ffffffffffffffffffffffffffffffffffffffff1681526020016008820180548060200260200160405190810160405280929190818152602001828054801561137857602002820191906000526020600020905b815481526020019060010190808311611364575b50505050508152602001600982018054806020026020016040519081016040528092919081815260200182805480156113d057602002820191906000526020600020905b8154815260200190600101908083116113bc575b50505050508152505091509250925050915091565b6113ed6136ec565b60606000601360006005815260200190815260200160002060008581526020019081526020016000205490506000811161142657600080fd5b60116001826114359190614fa5565b8154811061144657611445614c9e565b5b906000526020600020906005020161145d85610731565b816040518060a00160405290816000820154815260200160018201548152602001600282015481526020016003820154815260200160048201548152505091509250925050915091565b600e5481565b6114bf6114b8611d40565b8383612069565b5050565b600d5481565b6114d161371b565b60606000601760003373ffffffffffffffffffffffffffffffffffffffff1673ffffffffffffffffffffffffffffffffffffffff168152602001908152602001600020549050611520816117aa565b92509250509091565b600954341461153757600080fd5b61154182826121d5565b505050565b6060806000601660003373ffffffffffffffffffffffffffffffffffffffff1673ffffffffffffffffffffffffffffffffffffffff1681526020019081526020016000208054905090506000811161159d57600080fd5b60008167ffffffffffffffff8111156115b9576115b8613ad8565b5b6040519080825280602002602001820160405280156115f257816020015b6115df6136ec565b8152602001906001900390816115d75790505b50905060008267ffffffffffffffff81111561161157611610613ad8565b5b60405190808252806020026020018201604052801561164457816020015b606081526020019060019003908161162f5790505b50905060005b838111611702576116b5601660003373ffffffffffffffffffffffffffffffffffffffff1673ffffffffffffffffffffffffffffffffffffffff16815260200190815260200160002082815481106116a5576116a4614c9e565b5b90600052602060002001546113e5565b8483815181106116c8576116c7614c9e565b5b602002602001018484815181106116e2576116e1614c9e565b5b602002602001018290528290525050806116fb90614dac565b905061164a565b508181945094505050509091565b600f5481565b6000600160008473ffffffffffffffffffffffffffffffffffffffff1673ffffffffffffffffffffffffffffffffffffffff16815260200190815260200160002060008373ffffffffffffffffffffffffffffffffffffffff1673ffffffffffffffffffffffffffffffffffffffff16815260200190815260200160002060009054906101000a900460ff16905092915050565b6117b261371b565b6060600060136000600681526020019081526020016000206000858152602001908152602001600020549050600081116117eb57600080fd5b60126001826117fa9190614fa5565b8154811061180b5761180a614c9e565b5b9060005260206000200161181e85610731565b8160405180602001604052908160008201548152505091509250925050915091565b611848611d40565b73ffffffffffffffffffffffffffffffffffffffff168573ffffffffffffffffffffffffffffffffffffffff16148061188e575061188d85611888611d40565b611716565b5b6118cd576040517f08c379a00000000000000000000000000000000000000000000000000000000081526004016118c490614ef3565b60405180910390fd5b6118da8585858585612303565b5050505050565b60007f01ffc9a7000000000000000000000000000000000000000000000000000000007bffffffffffffffffffffffffffffffffffffffffffffffffffffffff1916827bffffffffffffffffffffffffffffffffffffffffffffffffffffffff1916149050919050565b60606002805461195a90614892565b80601f016020809104026020016040519081016040528092919081815260200182805461198690614892565b80156119d35780601f106119a8576101008083540402835291602001916119d3565b820191906000526020600020905b8154815290600101906020018083116119b657829003601f168201915b50505050509050919050565b6000806119ee3360068561259e565b90506119f9816126b7565b80601760003373ffffffffffffffffffffffffffffffffffffffff1673ffffffffffffffffffffffffffffffffffffffff1681526020019081526020016000208190555080915050919050565b6000806013600060048152602001908152602001600020600085815260200190815260200160002054905060006010600186611a829190614fa5565b81548110611a9357611a92614c9e565b5b90600052602060002090600a0201604051806101400160405290816000820154815260200160018201548152602001600282015481526020016003820154815260200160048201548152602001600582015481526020016006820160009054906101000a900473ffffffffffffffffffffffffffffffffffffffff1673ffffffffffffffffffffffffffffffffffffffff1673ffffffffffffffffffffffffffffffffffffffff1681526020016007820160009054906101000a900473ffffffffffffffffffffffffffffffffffffffff1673ffffffffffffffffffffffffffffffffffffffff1673ffffffffffffffffffffffffffffffffffffffff16815260200160088201805480602002602001604051908101604052809291908181526020018280548015611be457602002820191906000526020600020905b815481526020019060010190808311611bd0575b5050505050815260200160098201805480602002602001604051908101604052809291908181526020018280548015611c3c57602002820191906000526020600020905b815481526020019060010190808311611c28575b505050505081525050905060008211611c5457600080fd5b3373ffffffffffffffffffffffffffffffffffffffff168160e0015173ffffffffffffffffffffffffffffffffffffffff1614611c9057600080fd5b428160a0015111611ca057600080fd5b6000611cb28260c0015160058761259e565b9050611cc033876001612731565b611cca8183612977565b601660008360c0015173ffffffffffffffffffffffffffffffffffffffff1673ffffffffffffffffffffffffffffffffffffffff16815260200190815260200160002081908060018154018082558091505060019003906000526020600020016000909190919091505580935050505092915050565b600033905090565b8151835114611d8c576040517f08c379a0000000000000000000000000000000000000000000000000000000008152600401611d839061504b565b60405180910390fd5b600073ffffffffffffffffffffffffffffffffffffffff168473ffffffffffffffffffffffffffffffffffffffff1603611dfb576040517f08c379a0000000000000000000000000000000000000000000000000000000008152600401611df2906150dd565b60405180910390fd5b6000611e05611d40565b9050611e15818787878787612ac0565b60005b8451811015611fc6576000858281518110611e3657611e35614c9e565b5b602002602001015190506000858381518110611e5557611e54614c9e565b5b60200260200101519050600080600084815260200190815260200160002060008b73ffffffffffffffffffffffffffffffffffffffff1673ffffffffffffffffffffffffffffffffffffffff16815260200190815260200160002054905081811015611ef6576040517f08c379a0000000000000000000000000000000000000000000000000000000008152600401611eed9061516f565b60405180910390fd5b81810360008085815260200190815260200160002060008c73ffffffffffffffffffffffffffffffffffffffff1673ffffffffffffffffffffffffffffffffffffffff168152602001908152602001600020819055508160008085815260200190815260200160002060008b73ffffffffffffffffffffffffffffffffffffffff1673ffffffffffffffffffffffffffffffffffffffff1681526020019081526020016000206000828254611fab9190614cfc565b9250508190555050505080611fbf90614dac565b9050611e18565b508473ffffffffffffffffffffffffffffffffffffffff168673ffffffffffffffffffffffffffffffffffffffff168273ffffffffffffffffffffffffffffffffffffffff167f4a39dc06d4c0dbc64b70af90fd698a233a518aa5d07e595d983b8c0526c8f7fb878760405161203d92919061518f565b60405180910390a4612053818787878787612c3b565b612061818787878787612c43565b505050505050565b8173ffffffffffffffffffffffffffffffffffffffff168373ffffffffffffffffffffffffffffffffffffffff16036120d7576040517f08c379a00000000000000000000000000000000000000000000000000000000081526004016120ce90615238565b60405180910390fd5b80600160008573ffffffffffffffffffffffffffffffffffffffff1673ffffffffffffffffffffffffffffffffffffffff16815260200190815260200160002060008473ffffffffffffffffffffffffffffffffffffffff1673ffffffffffffffffffffffffffffffffffffffff16815260200190815260200160002060006101000a81548160ff0219169083151502179055508173ffffffffffffffffffffffffffffffffffffffff168373ffffffffffffffffffffffffffffffffffffffff167f17307eab39ab6107e8899845ad3d59bd9653f200f220920489ca2b5937696c31836040516121c891906139d0565b60405180910390a3505050565b6000806015600085815260200190815260200160002060003373ffffffffffffffffffffffffffffffffffffffff1673ffffffffffffffffffffffffffffffffffffffff168152602001908152602001600020541461223357600080fd5b60007f000000000000000000000000000000000000000000000000000000000000000073ffffffffffffffffffffffffffffffffffffffff16638fc92b0f856040518263ffffffff1660e01b815260040161228e9190613915565b600060405180830381865afa1580156122ab573d6000803e3d6000fd5b505050506040513d6000823e3d601f19601f820116820180604052508101906122d49190615416565b50905060006122ea82610120015160048661259e565b90506122f881868433612e1a565b809250505092915050565b600073ffffffffffffffffffffffffffffffffffffffff168473ffffffffffffffffffffffffffffffffffffffff1603612372576040517f08c379a0000000000000000000000000000000000000000000000000000000008152600401612369906150dd565b60405180910390fd5b600061237c611d40565b9050600061238985613166565b9050600061239685613166565b90506123a6838989858589612ac0565b600080600088815260200190815260200160002060008a73ffffffffffffffffffffffffffffffffffffffff1673ffffffffffffffffffffffffffffffffffffffff1681526020019081526020016000205490508581101561243d576040517f08c379a00000000000000000000000000000000000000000000000000000000081526004016124349061516f565b60405180910390fd5b85810360008089815260200190815260200160002060008b73ffffffffffffffffffffffffffffffffffffffff1673ffffffffffffffffffffffffffffffffffffffff168152602001908152602001600020819055508560008089815260200190815260200160002060008a73ffffffffffffffffffffffffffffffffffffffff1673ffffffffffffffffffffffffffffffffffffffff16815260200190815260200160002060008282546124f29190614cfc565b925050819055508773ffffffffffffffffffffffffffffffffffffffff168973ffffffffffffffffffffffffffffffffffffffff168573ffffffffffffffffffffffffffffffffffffffff167fc3d58168c5ae7397731d063d5bbf3d657854427343f4c083240f7aacaa2d0f628a8a60405161256f92919061548e565b60405180910390a4612585848a8a86868a612c3b565b612593848a8a8a8a8a6131e0565b505050505050505050565b60006007826040516125b091906154b7565b908152602001604051809103902060009054906101000a900460ff161561260c576040517f08c379a00000000000000000000000000000000000000000000000000000000081526004016126039061551a565b60405180910390fd5b6000612617846133b7565b905061266b858260016000368080601f016020809104026020016040519081016040528093929190818152602001838380828437600081840152601f19601f82011690508083019250505050505050613402565b61267581846135b2565b600160078460405161268791906154b7565b908152602001604051809103902060006101000a81548160ff021916908315150217905550809150509392505050565b600060405180602001604052808381525090506012819080600181540180825580915050600190039060005260206000200160009091909190915060008201518160000155505060128054905060136000600681526020019081526020016000206000848152602001908152602001600020819055505050565b600073ffffffffffffffffffffffffffffffffffffffff168373ffffffffffffffffffffffffffffffffffffffff16036127a0576040517f08c379a0000000000000000000000000000000000000000000000000000000008152600401612797906155ac565b60405180910390fd5b60006127aa611d40565b905060006127b784613166565b905060006127c484613166565b90506127e483876000858560405180602001604052806000815250612ac0565b600080600087815260200190815260200160002060008873ffffffffffffffffffffffffffffffffffffffff1673ffffffffffffffffffffffffffffffffffffffff1681526020019081526020016000205490508481101561287b576040517f08c379a00000000000000000000000000000000000000000000000000000000081526004016128729061563e565b60405180910390fd5b84810360008088815260200190815260200160002060008973ffffffffffffffffffffffffffffffffffffffff1673ffffffffffffffffffffffffffffffffffffffff16815260200190815260200160002081905550600073ffffffffffffffffffffffffffffffffffffffff168773ffffffffffffffffffffffffffffffffffffffff168573ffffffffffffffffffffffffffffffffffffffff167fc3d58168c5ae7397731d063d5bbf3d657854427343f4c083240f7aacaa2d0f62898960405161294892919061548e565b60405180910390a461296e84886000868660405180602001604052806000815250612c3b565b50505050505050565b60006040518060a0016040528084815260200183604001518152602001836060015181526020018360800151815260200183610120015173__ArrayMath_____________________________63a8606b8290916040518263ffffffff1660e01b81526004016129e691906156f4565b602060405180830381865af4158015612a03573d6000803e3d6000fd5b505050506040513d601f19601f82011682018060405250810190612a279190614e54565b81525090506011819080600181540180825580915050600190039060005260206000209060050201600090919091909150600082015181600001556020820151816001015560408201518160020155606082015181600301556080820151816004015550506011805490506013600060058152602001908152602001600020600085815260200190815260200160002081905550505050565b612ace86868686868661361e565b600083519050600073ffffffffffffffffffffffffffffffffffffffff168673ffffffffffffffffffffffffffffffffffffffff1603612b915760005b818111612b8f578560086000878481518110612b2a57612b29614c9e565b5b6020026020010151815260200190815260200160002060006101000a81548173ffffffffffffffffffffffffffffffffffffffff021916908373ffffffffffffffffffffffffffffffffffffffff16021790555080612b8890614dac565b9050612b0b565b505b600073ffffffffffffffffffffffffffffffffffffffff168573ffffffffffffffffffffffffffffffffffffffff1603612c325760005b818111612c305760086000868381518110612be657612be5614c9e565b5b6020026020010151815260200190815260200160002060006101000a81549073ffffffffffffffffffffffffffffffffffffffff021916905580612c2990614dac565b9050612bc8565b505b50505050505050565b505050505050565b612c628473ffffffffffffffffffffffffffffffffffffffff16613626565b15612e12578373ffffffffffffffffffffffffffffffffffffffff1663bc197c8187878686866040518663ffffffff1660e01b8152600401612ca895949392919061576b565b6020604051808303816000875af1925050508015612ce457506040513d601f19601f82011682018060405250810190612ce191906157e8565b60015b612d8957612cf0615822565b806308c379a003612d4c5750612d04615844565b80612d0f5750612d4e565b806040517f08c379a0000000000000000000000000000000000000000000000000000000008152600401612d439190613ab1565b60405180910390fd5b505b6040517f08c379a0000000000000000000000000000000000000000000000000000000008152600401612d8090615946565b60405180910390fd5b63bc197c8160e01b7bffffffffffffffffffffffffffffffffffffffffffffffffffffffff1916817bffffffffffffffffffffffffffffffffffffffffffffffffffffffff191614612e10576040517f08c379a0000000000000000000000000000000000000000000000000000000008152600401612e07906159d8565b60405180910390fd5b505b505050505050565b816101000151601460008581526020019081526020016000208054905010612e4157600080fd5b60006040518061014001604052808681526020018581526020018460200151815260200184604001518152602001846060015181526020018460c0015181526020018373ffffffffffffffffffffffffffffffffffffffff16815260200184610120015173ffffffffffffffffffffffffffffffffffffffff1681526020018460e0015181526020018460e001515167ffffffffffffffff811115612ee957612ee8613ad8565b5b604051908082528060200260200182016040528015612f175781602001602082028036833780820191505090505b50815250905060108190806001815401808255809150506001900390600052602060002090600a0201600090919091909150600082015181600001556020820151816001015560408201518160020155606082015181600301556080820151816004015560a0820151816005015560c08201518160060160006101000a81548173ffffffffffffffffffffffffffffffffffffffff021916908373ffffffffffffffffffffffffffffffffffffffff16021790555060e08201518160070160006101000a81548173ffffffffffffffffffffffffffffffffffffffff021916908373ffffffffffffffffffffffffffffffffffffffff16021790555061010082015181600801908051906020019061303092919061372e565b5061012082015181600901908051906020019061304e92919061372e565b50505060146000858152602001908152602001600020829080600181540180825580915050600190039060005260206000200160009091909190916101000a81548173ffffffffffffffffffffffffffffffffffffffff021916908373ffffffffffffffffffffffffffffffffffffffff160217905550601080549050601360006004815260200190815260200160002060008781526020019081526020016000208190555060146000858152602001908152602001600020805490506015600086815260200190815260200160002060008473ffffffffffffffffffffffffffffffffffffffff1673ffffffffffffffffffffffffffffffffffffffff168152602001908152602001600020819055505050505050565b60606000600167ffffffffffffffff81111561318557613184613ad8565b5b6040519080825280602002602001820160405280156131b35781602001602082028036833780820191505090505b50905082816000815181106131cb576131ca614c9e565b5b60200260200101818152505080915050919050565b6131ff8473ffffffffffffffffffffffffffffffffffffffff16613626565b156133af578373ffffffffffffffffffffffffffffffffffffffff1663f23a6e6187878686866040518663ffffffff1660e01b81526004016132459594939291906159f8565b6020604051808303816000875af192505050801561328157506040513d601f19601f8201168201806040525081019061327e91906157e8565b60015b6133265761328d615822565b806308c379a0036132e957506132a1615844565b806132ac57506132eb565b806040517f08c379a00000000000000000000000000000000000000000000000000000000081526004016132e09190613ab1565b60405180910390fd5b505b6040517f08c379a000000000000000000000000000000000000000000000000000000000815260040161331d90615946565b60405180910390fd5b63f23a6e6160e01b7bffffffffffffffffffffffffffffffffffffffffffffffffffffffff1916817bffffffffffffffffffffffffffffffffffffffffffffffffffffffff1916146133ad576040517f08c379a00000000000000000000000000000000000000000000000000000000081526004016133a4906159d8565b60405180910390fd5b505b505050505050565b60006133d460066000848152602001908152602001600020613649565b60006133f16006600085815260200190815260200160002061365f565b905080601084901b17915050919050565b600073ffffffffffffffffffffffffffffffffffffffff168473ffffffffffffffffffffffffffffffffffffffff1603613471576040517f08c379a000000000000000000000000000000000000000000000000000000000815260040161346890615ac4565b60405180910390fd5b600061347b611d40565b9050600061348885613166565b9050600061349585613166565b90506134a683600089858589612ac0565b8460008088815260200190815260200160002060008973ffffffffffffffffffffffffffffffffffffffff1673ffffffffffffffffffffffffffffffffffffffff16815260200190815260200160002060008282546135059190614cfc565b925050819055508673ffffffffffffffffffffffffffffffffffffffff16600073ffffffffffffffffffffffffffffffffffffffff168473ffffffffffffffffffffffffffffffffffffffff167fc3d58168c5ae7397731d063d5bbf3d657854427343f4c083240f7aacaa2d0f62898960405161358392919061548e565b60405180910390a461359a83600089858589612c3b565b6135a9836000898989896131e0565b50505050505050565b806004600084815260200190815260200160002090805190602001906135d992919061377b565b50817f6bb7ff708619ba0610cba295a58592e0451dee2622938c8755667688daf3529b61360584610731565b6040516136129190613ab1565b60405180910390a25050565b505050505050565b6000808273ffffffffffffffffffffffffffffffffffffffff163b119050919050565b6001816000016000828254019250508190555050565b600081600001549050919050565b604051806101400160405280600081526020016000815260200160008152602001600081526020016000815260200160008152602001600073ffffffffffffffffffffffffffffffffffffffff168152602001600073ffffffffffffffffffffffffffffffffffffffff16815260200160608152602001606081525090565b6040518060a0016040528060008152602001600081526020016000815260200160008152602001600081525090565b6040518060200160405280600081525090565b82805482825590600052602060002090810192821561376a579160200282015b8281111561376957825182559160200191906001019061374e565b5b5090506137779190613801565b5090565b82805461378790614892565b90600052602060002090601f0160209004810192826137a957600085556137f0565b82601f106137c257805160ff19168380011785556137f0565b828001600101855582156137f0579182015b828111156137ef5782518255916020019190600101906137d4565b5b5090506137fd9190613801565b5090565b5b8082111561381a576000816000905550600101613802565b5090565b6000604051905090565b600080fd5b600080fd5b600073ffffffffffffffffffffffffffffffffffffffff82169050919050565b600061385d82613832565b9050919050565b61386d81613852565b811461387857600080fd5b50565b60008135905061388a81613864565b92915050565b6000819050919050565b6138a381613890565b81146138ae57600080fd5b50565b6000813590506138c08161389a565b92915050565b600080604083850312156138dd576138dc613828565b5b60006138eb8582860161387b565b92505060206138fc858286016138b1565b9150509250929050565b61390f81613890565b82525050565b600060208201905061392a6000830184613906565b92915050565b60007fffffffff0000000000000000000000000000000000000000000000000000000082169050919050565b61396581613930565b811461397057600080fd5b50565b6000813590506139828161395c565b92915050565b60006020828403121561399e5761399d613828565b5b60006139ac84828501613973565b91505092915050565b60008115159050919050565b6139ca816139b5565b82525050565b60006020820190506139e560008301846139c1565b92915050565b600060208284031215613a0157613a00613828565b5b6000613a0f848285016138b1565b91505092915050565b600081519050919050565b600082825260208201905092915050565b60005b83811015613a52578082015181840152602081019050613a37565b83811115613a61576000848401525b50505050565b6000601f19601f8301169050919050565b6000613a8382613a18565b613a8d8185613a23565b9350613a9d818560208601613a34565b613aa681613a67565b840191505092915050565b60006020820190508181036000830152613acb8184613a78565b905092915050565b600080fd5b7f4e487b7100000000000000000000000000000000000000000000000000000000600052604160045260246000fd5b613b1082613a67565b810181811067ffffffffffffffff82111715613b2f57613b2e613ad8565b5b80604052505050565b6000613b4261381e565b9050613b4e8282613b07565b919050565b600067ffffffffffffffff821115613b6e57613b6d613ad8565b5b602082029050602081019050919050565b600080fd5b6000613b97613b9284613b53565b613b38565b90508083825260208201905060208402830185811115613bba57613bb9613b7f565b5b835b81811015613be35780613bcf88826138b1565b845260208401935050602081019050613bbc565b5050509392505050565b600082601f830112613c0257613c01613ad3565b5b8135613c12848260208601613b84565b91505092915050565b600080fd5b600067ffffffffffffffff821115613c3b57613c3a613ad8565b5b613c4482613a67565b9050602081019050919050565b82818337600083830152505050565b6000613c73613c6e84613c20565b613b38565b905082815260208101848484011115613c8f57613c8e613c1b565b5b613c9a848285613c51565b509392505050565b600082601f830112613cb757613cb6613ad3565b5b8135613cc7848260208601613c60565b91505092915050565b60008060408385031215613ce757613ce6613828565b5b600083013567ffffffffffffffff811115613d0557613d0461382d565b5b613d1185828601613bed565b925050602083013567ffffffffffffffff811115613d3257613d3161382d565b5b613d3e85828601613ca2565b9150509250929050565b60008060408385031215613d5f57613d5e613828565b5b6000613d6d858286016138b1565b925050602083013567ffffffffffffffff811115613d8e57613d8d61382d565b5b613d9a85828601613ca2565b9150509250929050565b600067ffffffffffffffff821115613dbf57613dbe613ad8565b5b613dc882613a67565b9050602081019050919050565b6000613de8613de384613da4565b613b38565b905082815260208101848484011115613e0457613e03613c1b565b5b613e0f848285613c51565b509392505050565b600082601f830112613e2c57613e2b613ad3565b5b8135613e3c848260208601613dd5565b91505092915050565b600080600080600060a08688031215613e6157613e60613828565b5b6000613e6f8882890161387b565b9550506020613e808882890161387b565b945050604086013567ffffffffffffffff811115613ea157613ea061382d565b5b613ead88828901613bed565b935050606086013567ffffffffffffffff811115613ece57613ecd61382d565b5b613eda88828901613bed565b925050608086013567ffffffffffffffff811115613efb57613efa61382d565b5b613f0788828901613e17565b9150509295509295909350565b600067ffffffffffffffff821115613f2f57613f2e613ad8565b5b602082029050602081019050919050565b6000613f53613f4e84613f14565b613b38565b90508083825260208201905060208402830185811115613f7657613f75613b7f565b5b835b81811015613f9f5780613f8b888261387b565b845260208401935050602081019050613f78565b5050509392505050565b600082601f830112613fbe57613fbd613ad3565b5b8135613fce848260208601613f40565b91505092915050565b60008060408385031215613fee57613fed613828565b5b600083013567ffffffffffffffff81111561400c5761400b61382d565b5b61401885828601613fa9565b925050602083013567ffffffffffffffff8111156140395761403861382d565b5b61404585828601613bed565b9150509250929050565b600081519050919050565b600082825260208201905092915050565b6000819050602082019050919050565b61408481613890565b82525050565b6000614096838361407b565b60208301905092915050565b6000602082019050919050565b60006140ba8261404f565b6140c4818561405a565b93506140cf8361406b565b8060005b838110156141005781516140e7888261408a565b97506140f2836140a2565b9250506001810190506140d3565b5085935050505092915050565b6000602082019050818103600083015261412781846140af565b905092915050565b60008060006060848603121561414857614147613828565b5b6000614156868287016138b1565b935050602084013567ffffffffffffffff8111156141775761417661382d565b5b61418386828701613bed565b925050604084013567ffffffffffffffff8111156141a4576141a361382d565b5b6141b086828701613bed565b9150509250925092565b6141c381613852565b82525050565b600082825260208201905092915050565b60006141e58261404f565b6141ef81856141c9565b93506141fa8361406b565b8060005b8381101561422b578151614212888261408a565b975061421d836140a2565b9250506001810190506141fe565b5085935050505092915050565b600061014083016000830151614251600086018261407b565b506020830151614264602086018261407b565b506040830151614277604086018261407b565b50606083015161428a606086018261407b565b50608083015161429d608086018261407b565b5060a08301516142b060a086018261407b565b5060c08301516142c360c08601826141ba565b5060e08301516142d660e08601826141ba565b506101008301518482036101008601526142f082826141da565b91505061012083015184820361012086015261430c82826141da565b9150508091505092915050565b600060408201905081810360008301526143338185614238565b905081810360208301526143478184613a78565b90509392505050565b60a082016000820151614366600085018261407b565b506020820151614379602085018261407b565b50604082015161438c604085018261407b565b50606082015161439f606085018261407b565b5060808201516143b2608085018261407b565b50505050565b600060c0820190506143cd6000830185614350565b81810360a08301526143df8184613a78565b90509392505050565b6143f1816139b5565b81146143fc57600080fd5b50565b60008135905061440e816143e8565b92915050565b6000806040838503121561442b5761442a613828565b5b60006144398582860161387b565b925050602061444a858286016143ff565b9150509250929050565b60208201600082015161446a600085018261407b565b50505050565b60006040820190506144856000830185614454565b81810360208301526144978184613a78565b90509392505050565b600081519050919050565b600082825260208201905092915050565b6000819050602082019050919050565b60a0820160008201516144e2600085018261407b565b5060208201516144f5602085018261407b565b506040820151614508604085018261407b565b50606082015161451b606085018261407b565b50608082015161452e608085018261407b565b50505050565b600061454083836144cc565b60a08301905092915050565b6000602082019050919050565b6000614564826144a0565b61456e81856144ab565b9350614579836144bc565b8060005b838110156145aa5781516145918882614534565b975061459c8361454c565b92505060018101905061457d565b5085935050505092915050565b600081519050919050565b600082825260208201905092915050565b6000819050602082019050919050565b600082825260208201905092915050565b60006145ff82613a18565b61460981856145e3565b9350614619818560208601613a34565b61462281613a67565b840191505092915050565b600061463983836145f4565b905092915050565b6000602082019050919050565b6000614659826145b7565b61466381856145c2565b935083602082028501614675856145d3565b8060005b858110156146b15784840389528151614692858261462d565b945061469d83614641565b925060208a01995050600181019050614679565b50829750879550505050505092915050565b600060408201905081810360008301526146dd8185614559565b905081810360208301526146f1818461464e565b90509392505050565b6000806040838503121561471157614710613828565b5b600061471f8582860161387b565b92505060206147308582860161387b565b9150509250929050565b600080600080600060a0868803121561475657614755613828565b5b60006147648882890161387b565b95505060206147758882890161387b565b9450506040614786888289016138b1565b9350506060614797888289016138b1565b925050608086013567ffffffffffffffff8111156147b8576147b761382d565b5b6147c488828901613e17565b9150509295509295909350565b7f455243313135353a2061646472657373207a65726f206973206e6f742061207660008201527f616c6964206f776e657200000000000000000000000000000000000000000000602082015250565b600061482d602a83613a23565b9150614838826147d1565b604082019050919050565b6000602082019050818103600083015261485c81614820565b9050919050565b7f4e487b7100000000000000000000000000000000000000000000000000000000600052602260045260246000fd5b600060028204905060018216806148aa57607f821691505b6020821081036148bd576148bc614863565b5b50919050565b600081905092915050565b60008190508160005260206000209050919050565b600081546148f081614892565b6148fa81866148c3565b94506001821660008114614915576001811461492657614959565b60ff19831686528186019350614959565b61492f856148ce565b60005b8381101561495157815481890152600182019150602081019050614932565b838801955050505b50505092915050565b600061496d82613a18565b61497781856148c3565b9350614987818560208601613a34565b80840191505092915050565b600061499f82856148e3565b91506149ab8284614962565b91508190509392505050565b7f4e487b7100000000000000000000000000000000000000000000000000000000600052602160045260246000fd5b6149ef81613852565b82525050565b6000602082019050614a0a60008301846149e6565b92915050565b600081519050614a1f816143e8565b92915050565b600081519050614a348161389a565b92915050565b60008060408385031215614a5157614a50613828565b5b6000614a5f85828601614a10565b9250506020614a7085828601614a25565b9150509250929050565b600067ffffffffffffffff821115614a9557614a94613ad8565b5b602082029050602081019050919050565b600080fd5b600080fd5b6000614ac3614abe84613c20565b613b38565b905082815260208101848484011115614adf57614ade613c1b565b5b614aea848285613a34565b509392505050565b600082601f830112614b0757614b06613ad3565b5b8151614b17848260208601614ab0565b91505092915050565b600060608284031215614b3657614b35614aa6565b5b614b406060613b38565b90506000614b5084828501614a25565b600083015250602082015167ffffffffffffffff811115614b7457614b73614aab565b5b614b8084828501614af2565b6020830152506040614b9484828501614a25565b60408301525092915050565b6000614bb3614bae84614a7a565b613b38565b90508083825260208201905060208402830185811115614bd657614bd5613b7f565b5b835b81811015614c1d57805167ffffffffffffffff811115614bfb57614bfa613ad3565b5b808601614c088982614b20565b85526020850194505050602081019050614bd8565b5050509392505050565b600082601f830112614c3c57614c3b613ad3565b5b8151614c4c848260208601614ba0565b91505092915050565b600060208284031215614c6b57614c6a613828565b5b600082015167ffffffffffffffff811115614c8957614c8861382d565b5b614c9584828501614c27565b91505092915050565b7f4e487b7100000000000000000000000000000000000000000000000000000000600052603260045260246000fd5b7f4e487b7100000000000000000000000000000000000000000000000000000000600052601160045260246000fd5b6000614d0782613890565b9150614d1283613890565b9250827fffffffffffffffffffffffffffffffffffffffffffffffffffffffffffffffff03821115614d4757614d46614ccd565b5b828201905092915050565b6000614d5d82613890565b9150614d6883613890565b9250817fffffffffffffffffffffffffffffffffffffffffffffffffffffffffffffffff0483118215151615614da157614da0614ccd565b5b828202905092915050565b6000614db782613890565b91507fffffffffffffffffffffffffffffffffffffffffffffffffffffffffffffffff8203614de957614de8614ccd565b5b600182019050919050565b7f4e487b7100000000000000000000000000000000000000000000000000000000600052601260045260246000fd5b6000614e2e82613890565b9150614e3983613890565b925082614e4957614e48614df4565b5b828204905092915050565b600060208284031215614e6a57614e69613828565b5b6000614e7884828501614a25565b91505092915050565b7f455243313135353a2063616c6c6572206973206e6f7420746f6b656e206f776e60008201527f6572206f7220617070726f766564000000000000000000000000000000000000602082015250565b6000614edd602e83613a23565b9150614ee882614e81565b604082019050919050565b60006020820190508181036000830152614f0c81614ed0565b9050919050565b7f455243313135353a206163636f756e747320616e6420696473206c656e67746860008201527f206d69736d617463680000000000000000000000000000000000000000000000602082015250565b6000614f6f602983613a23565b9150614f7a82614f13565b604082019050919050565b60006020820190508181036000830152614f9e81614f62565b9050919050565b6000614fb082613890565b9150614fbb83613890565b925082821015614fce57614fcd614ccd565b5b828203905092915050565b7f455243313135353a2069647320616e6420616d6f756e7473206c656e6774682060008201527f6d69736d61746368000000000000000000000000000000000000000000000000602082015250565b6000615035602883613a23565b915061504082614fd9565b604082019050919050565b6000602082019050818103600083015261506481615028565b9050919050565b7f455243313135353a207472616e7366657220746f20746865207a65726f20616460008201527f6472657373000000000000000000000000000000000000000000000000000000602082015250565b60006150c7602583613a23565b91506150d28261506b565b604082019050919050565b600060208201905081810360008301526150f6816150ba565b9050919050565b7f455243313135353a20696e73756666696369656e742062616c616e636520666f60008201527f72207472616e7366657200000000000000000000000000000000000000000000602082015250565b6000615159602a83613a23565b9150615164826150fd565b604082019050919050565b600060208201905081810360008301526151888161514c565b9050919050565b600060408201905081810360008301526151a981856140af565b905081810360208301526151bd81846140af565b90509392505050565b7f455243313135353a2073657474696e6720617070726f76616c2073746174757360008201527f20666f722073656c660000000000000000000000000000000000000000000000602082015250565b6000615222602983613a23565b915061522d826151c6565b604082019050919050565b6000602082019050818103600083015261525181615215565b9050919050565b600061526b61526684613b53565b613b38565b9050808382526020820190506020840283018581111561528e5761528d613b7f565b5b835b818110156152b757806152a38882614a25565b845260208401935050602081019050615290565b5050509392505050565b600082601f8301126152d6576152d5613ad3565b5b81516152e6848260208601615258565b91505092915050565b6000815190506152fe81613864565b92915050565b6000610140828403121561531b5761531a614aa6565b5b615326610140613b38565b9050600061533684828501614a25565b600083015250602061534a84828501614a25565b602083015250604061535e84828501614a25565b604083015250606061537284828501614a25565b606083015250608061538684828501614a25565b60808301525060a061539a84828501614a25565b60a08301525060c06153ae84828501614a25565b60c08301525060e082015167ffffffffffffffff8111156153d2576153d1614aab565b5b6153de848285016152c1565b60e0830152506101006153f384828501614a25565b61010083015250610120615409848285016152ef565b6101208301525092915050565b6000806040838503121561542d5761542c613828565b5b600083015167ffffffffffffffff81111561544b5761544a61382d565b5b61545785828601615304565b925050602083015167ffffffffffffffff8111156154785761547761382d565b5b61548485828601614af2565b9150509250929050565b60006040820190506154a36000830185613906565b6154b06020830184613906565b9392505050565b60006154c38284614962565b915081905092915050565b7f55524920686173206265656e2075736564000000000000000000000000000000600082015250565b6000615504601183613a23565b915061550f826154ce565b602082019050919050565b60006020820190508181036000830152615533816154f7565b9050919050565b7f455243313135353a206275726e2066726f6d20746865207a65726f206164647260008201527f6573730000000000000000000000000000000000000000000000000000000000602082015250565b6000615596602383613a23565b91506155a18261553a565b604082019050919050565b600060208201905081810360008301526155c581615589565b9050919050565b7f455243313135353a206275726e20616d6f756e7420657863656564732062616c60008201527f616e636500000000000000000000000000000000000000000000000000000000602082015250565b6000615628602483613a23565b9150615633826155cc565b604082019050919050565b600060208201905081810360008301526156578161561b565b9050919050565b600082825260208201905092915050565b61567881613890565b82525050565b600061568a838361566f565b60208301905092915050565b60006156a18261404f565b6156ab818561565e565b93506156b68361406b565b8060005b838110156156e75781516156ce888261567e565b97506156d9836140a2565b9250506001810190506156ba565b5085935050505092915050565b6000602082019050818103600083015261570e8184615696565b905092915050565b600081519050919050565b600082825260208201905092915050565b600061573d82615716565b6157478185615721565b9350615757818560208601613a34565b61576081613a67565b840191505092915050565b600060a08201905061578060008301886149e6565b61578d60208301876149e6565b818103604083015261579f81866140af565b905081810360608301526157b381856140af565b905081810360808301526157c78184615732565b90509695505050505050565b6000815190506157e28161395c565b92915050565b6000602082840312156157fe576157fd613828565b5b600061580c848285016157d3565b91505092915050565b60008160e01c9050919050565b600060033d11156158415760046000803e61583e600051615815565b90505b90565b600060443d106158d15761585661381e565b60043d036004823e80513d602482011167ffffffffffffffff8211171561587e5750506158d1565b808201805167ffffffffffffffff81111561589c57505050506158d1565b80602083010160043d0385018111156158b95750505050506158d1565b6158c882602001850186613b07565b82955050505050505b90565b7f455243313135353a207472616e7366657220746f206e6f6e2d4552433131353560008201527f526563656976657220696d706c656d656e746572000000000000000000000000602082015250565b6000615930603483613a23565b915061593b826158d4565b604082019050919050565b6000602082019050818103600083015261595f81615923565b9050919050565b7f455243313135353a204552433131353552656365697665722072656a6563746560008201527f6420746f6b656e73000000000000000000000000000000000000000000000000602082015250565b60006159c2602883613a23565b91506159cd82615966565b604082019050919050565b600060208201905081810360008301526159f1816159b5565b9050919050565b600060a082019050615a0d60008301886149e6565b615a1a60208301876149e6565b615a276040830186613906565b615a346060830185613906565b8181036080830152615a468184615732565b90509695505050505050565b7f455243313135353a206d696e7420746f20746865207a65726f2061646472657360008201527f7300000000000000000000000000000000000000000000000000000000000000602082015250565b6000615aae602183613a23565b9150615ab982615a52565b604082019050919050565b60006020820190508181036000830152615add81615aa1565b905091905056fea26469706673582212206c60924484e46f8fa9fc494e1a9e0b06f76eb2f5b59a803e003198a71c71b13764736f6c634300080d0033",
  "immutableReferences": {
    "3290": [
      {
        "length": 32,
        "start": 2095
      },
      {
        "length": 32,
        "start": 3266
      },
      {
        "length": 32,
        "start": 3932
      }
    ],
    "3293": [
      {
        "length": 32,
        "start": 2371
      },
      {
        "length": 32,
        "start": 3060
      },
      {
        "length": 32,
        "start": 8759
      }
    ]
  },
  "source": "// SPDX-License-Identifier: MIT\r\n// Tells the Solidity compiler to compile only from v0.8.13 to v0.9.0\r\npragma solidity ^0.8.13;\r\n\r\nimport \"./ERC1155BaseContract.sol\";\r\nimport \"./interfaces/INftSchool.sol\";\r\nimport \"./interfaces/INftCertificates.sol\";\r\nimport \"./interfaces/INftIdentities.sol\";\r\nimport \"./utils/ArrayMath.sol\";\r\n\r\n/*\r\n    - Register class -> NftScoreboard\r\n    - Exchange Nft Complete Course\r\n    - Exchange Nft Graduation\r\n*/\r\ncontract NftCertificates is ERC1155BaseContract, INftCertificates {\r\n    using Counters for Counters.Counter;\r\n    using ArrayMath for uint256[];\r\n    uint256 constant NFT_CLASS = 3;\r\n    uint256 constant NFT_SCORE_BOARD = 4;\r\n    uint256 constant NFT_COMPLETE_COURSE = 5;\r\n    uint256 constant NFT_GRADUATION = 6;\r\n\r\n    uint256 public registeredPrice = 1 ether;\r\n    uint256 public graduationPrice = 1 ether;\r\n\r\n    string[] private courseURIs;\r\n\r\n    INftIdentities private immutable _nftIdentities;\r\n    INftSchool private immutable _nftSchool;\r\n\r\n    uint256 public schoolYearEnd;\r\n    uint256 public registeredStartAt;\r\n    uint256 public registeredEndAt;\r\n    uint256 public yearId;\r\n\r\n    NftScoreBoard[] private _allNftScoreBoards;\r\n    NftCompleteCourse[] private _allNftCompleteCourses;\r\n    NftGraduation[] private _allNftGraduations;\r\n    mapping(uint256 => mapping(uint256 => uint256)) _posOfTokenIdOfNftType;\r\n\r\n    mapping(uint256 => address[]) _studentsOfClass;\r\n    mapping(uint256 => mapping(address => uint256)) _posOfStudentInClass;\r\n    mapping(address => uint256[]) private _studentOwnedCompleteCourseNfts;\r\n    mapping(address => uint256) private _studentOwnedNftGraduation;\r\n\r\n    modifier onlyOwner() {\r\n        require(_owner == msg.sender);\r\n        _;\r\n    }\r\n\r\n    modifier afterYearEnd() {\r\n        require(block.timestamp > schoolYearEnd);\r\n        _;\r\n    }\r\n\r\n    modifier canOperate(uint256 role) {\r\n        (bool isDeposited, uint256 __role) = _nftIdentities.isAbleToOperate(\r\n            msg.sender\r\n        );\r\n        require(isDeposited && role == __role);\r\n        _;\r\n    }\r\n\r\n    constructor(\r\n        address nftIdentities,\r\n        address nftSchool\r\n    ) ERC1155BaseContract(\"\") {\r\n        _nftIdentities = INftIdentities(nftIdentities);\r\n        _nftSchool = INftSchool(nftSchool);\r\n        schoolYearEnd = block.timestamp;\r\n    }\r\n\r\n    /*\r\n        Initialize requirement before any operation in the system including\r\n        - Requirement\r\n        - Course template\r\n    */\r\n\r\n    // (everyone)\r\n    function getOwnedNftCompleteCourse()\r\n        external\r\n        view\r\n        returns (NftCompleteCourse[] memory, string[] memory)\r\n    {\r\n        uint256 numberOfNftCompleteCourses = _studentOwnedCompleteCourseNfts[\r\n            msg.sender\r\n        ].length;\r\n        require(numberOfNftCompleteCourses > 0);\r\n\r\n        NftCompleteCourse[] memory nfts = new NftCompleteCourse[](\r\n            numberOfNftCompleteCourses\r\n        );\r\n        string[] memory nftURIs = new string[](numberOfNftCompleteCourses);\r\n\r\n        for (uint256 idx = 0; idx <= numberOfNftCompleteCourses; ++idx) {\r\n            (nfts[idx], nftURIs[idx]) = getNftCompleteCourse(\r\n                _studentOwnedCompleteCourseNfts[msg.sender][idx]\r\n            );\r\n        }\r\n\r\n        return (nfts, nftURIs);\r\n    }\r\n\r\n    function getNftCompleteCourse(\r\n        uint256 tokenId\r\n    ) public view returns (NftCompleteCourse memory, string memory) {\r\n        uint256 pos = _posOfTokenIdOfNftType[NFT_COMPLETE_COURSE][tokenId];\r\n        require(pos > 0);\r\n\r\n        return (_allNftCompleteCourses[pos - 1], uri(tokenId));\r\n    }\r\n\r\n    function getOwnedNftGraduation()\r\n        external\r\n        view\r\n        returns (NftGraduation memory, string memory)\r\n    {\r\n        uint256 tokenId = _studentOwnedNftGraduation[msg.sender];\r\n\r\n        return getNftGraduation(tokenId);\r\n    }\r\n\r\n    function getNftGraduation(\r\n        uint256 tokenId\r\n    ) public view returns (NftGraduation memory, string memory) {\r\n        uint256 pos = _posOfTokenIdOfNftType[NFT_GRADUATION][tokenId];\r\n        require(pos > 0);\r\n\r\n        return (_allNftGraduations[pos - 1], uri(tokenId));\r\n    }\r\n\r\n    function getNftScoreBoard(\r\n        uint256 tokenId\r\n    ) public view returns (NftScoreBoard memory, string memory) {\r\n        uint256 pos = _posOfTokenIdOfNftType[NFT_SCORE_BOARD][tokenId];\r\n        require(pos > 0);\r\n\r\n        return (_allNftScoreBoards[pos - 1], uri(tokenId));\r\n    }\r\n\r\n    function registerClass(\r\n        uint256 classId,\r\n        string memory tokenURI\r\n    ) public payable {\r\n        require(msg.value == registeredPrice);\r\n        _mintNftScoreBoard(classId, tokenURI);\r\n    }\r\n\r\n    function updateScores(\r\n        uint256 scoreBoardId,\r\n        uint256[] memory requireScore,\r\n        uint256[] memory scores\r\n    ) public canOperate(uint256(ROLE.TEACHER)) {\r\n        // Require time to update\r\n        uint256 pos = _posOfTokenIdOfNftType[NFT_SCORE_BOARD][scoreBoardId];\r\n        require(pos > 0);\r\n        require(_allNftScoreBoards[pos - 1].completeAt < block.timestamp);\r\n        require(_allNftScoreBoards[pos - 1].teacherAddr == msg.sender);\r\n        uint256 scoreLength = requireScore.length;\r\n\r\n        for (uint256 idx = 0; idx < scoreLength; ++idx) {\r\n            _allNftScoreBoards[pos - 1].scores[requireScore[idx]] = scores[idx];\r\n        }\r\n    }\r\n\r\n    function exchangeCompleteCourse(\r\n        uint256 scoreBoardId,\r\n        string memory tokenURI\r\n    ) public payable canOperate(uint256(ROLE.TEACHER)) {\r\n        _mintNftCompleteCourse(scoreBoardId, tokenURI);\r\n    }\r\n\r\n    function exchangeGraduation(\r\n        uint256[] memory nftCompleteCourseIds,\r\n        string memory tokenURI\r\n    ) public payable canOperate(uint256(ROLE.STUDENT)) {\r\n        require(msg.value == graduationPrice);\r\n        require(_studentOwnedNftGraduation[msg.sender] == 0);\r\n        uint256 numOfCompleteCourses = nftCompleteCourseIds.length;\r\n        KnowledgeBlock[] memory knowledgeBlocks = _nftSchool\r\n            .getAllKnowledgeBlocks();\r\n        uint256 numOfKnowledgeBlocks = knowledgeBlocks.length;\r\n        uint256[] memory acquiredCreditsByKnowledgeBlockId = new uint256[](\r\n            numOfKnowledgeBlocks\r\n        );\r\n        uint256 acquiredCredits;\r\n        uint256 totalScore;\r\n\r\n        for (uint256 idx = 0; idx < numOfCompleteCourses; ++idx) {\r\n            if (_ownerOfNft[nftCompleteCourseIds[idx]] != msg.sender) {\r\n                revert();\r\n            }\r\n            // _TODO: Check duplicate course\r\n            (\r\n                NftCompleteCourse memory nftCompleteCourse,\r\n\r\n            ) = getNftCompleteCourse(nftCompleteCourseIds[idx]);\r\n            acquiredCreditsByKnowledgeBlockId[\r\n                nftCompleteCourse.knowledgeBlockId \r\n            ] += nftCompleteCourse.credits;\r\n            acquiredCredits += nftCompleteCourse.credits;\r\n            totalScore += (nftCompleteCourse.avgScore *\r\n                nftCompleteCourse.credits);\r\n        }\r\n\r\n        for (uint256 idx = 0; idx < numOfKnowledgeBlocks; ++idx) {\r\n            if (\r\n                acquiredCreditsByKnowledgeBlockId[knowledgeBlocks[idx].id] <\r\n                knowledgeBlocks[idx].credits\r\n            ) {\r\n                // If not enough credits of this knowledge block, revert\r\n                revert();\r\n            }\r\n        }\r\n\r\n        uint256 avgScore = totalScore / acquiredCredits;\r\n        if (avgScore <= _nftSchool.minimumGraduationScore()) {\r\n            revert();\r\n        }\r\n\r\n        _mintNftGraduation(tokenURI);\r\n    }\r\n\r\n    // (everyone)\r\n\r\n    // onlyOwner\r\n    function _beforeTokenTransfer(\r\n        address operator,\r\n        address from,\r\n        address to,\r\n        uint256[] memory ids,\r\n        uint256[] memory amounts,\r\n        bytes memory data\r\n    ) internal virtual override {\r\n        super._beforeTokenTransfer(operator, from, to, ids, amounts, data);\r\n        uint256 numberOfTokens = ids.length;\r\n\r\n        if (from == address(0)) {\r\n            // mint token\r\n            for (uint256 idx = 0; idx <= numberOfTokens; ++idx) {\r\n                _ownerOfNft[ids[idx]] = to;\r\n            }\r\n        }\r\n\r\n        if (to == address(0)) {\r\n            // burn token\r\n            for (uint256 idx = 0; idx <= numberOfTokens; ++idx) {\r\n                delete _ownerOfNft[ids[idx]];\r\n            }\r\n        }\r\n    }\r\n\r\n    function _mintNftScoreBoard(\r\n        uint256 classId,\r\n        string memory tokenURI\r\n    ) private returns (uint256) {\r\n        require(_posOfStudentInClass[classId][msg.sender] == 0);\r\n        (NftClass memory classInfo, ) = _nftSchool.getNftClass(classId);\r\n        uint256 tokenId = _mintToken(\r\n            classInfo.teacherAddr,\r\n            NFT_SCORE_BOARD,\r\n            tokenURI\r\n        );\r\n        _createNftScoreBoard(tokenId, classId, classInfo, msg.sender);\r\n\r\n        return tokenId;\r\n    }\r\n\r\n    function _createNftScoreBoard(\r\n        uint256 tokenId,\r\n        uint256 classId,\r\n        NftClass memory classInfo,\r\n        address studentAddr\r\n    ) private {\r\n        // TODO: position of student in class = 0\r\n        require(_studentsOfClass[classId].length < classInfo.maxSize);\r\n        NftScoreBoard memory nftScoreBoard = NftScoreBoard(\r\n            tokenId,\r\n            classId,\r\n            classInfo.courseId,\r\n            classInfo.knowledgeBlockId,\r\n            classInfo.credits,\r\n            classInfo.completeAt,\r\n            studentAddr,\r\n            classInfo.teacherAddr,\r\n            classInfo.requiredScore,\r\n            new uint256[](classInfo.requiredScore.length)\r\n        );\r\n        _allNftScoreBoards.push(nftScoreBoard);\r\n        _studentsOfClass[classId].push(studentAddr);\r\n        _posOfTokenIdOfNftType[NFT_SCORE_BOARD][tokenId] = _allNftScoreBoards\r\n            .length;\r\n        _posOfStudentInClass[classId][studentAddr] = _studentsOfClass[classId]\r\n            .length;\r\n    }\r\n\r\n    function _mintNftCompleteCourse(\r\n        uint256 scoreBoardId,\r\n        string memory tokenURI\r\n    ) private returns (uint256) {\r\n        uint256 scoreBoardPos = _posOfTokenIdOfNftType[NFT_SCORE_BOARD][\r\n            scoreBoardId\r\n        ];\r\n        NftScoreBoard memory nftScoreBoard = _allNftScoreBoards[\r\n            scoreBoardId - 1\r\n        ];\r\n        require(scoreBoardPos > 0);\r\n        require(nftScoreBoard.teacherAddr == msg.sender);\r\n        require(nftScoreBoard.completeAt > block.timestamp);\r\n        uint256 tokenId = _mintToken(\r\n            nftScoreBoard.studentAddr,\r\n            NFT_COMPLETE_COURSE,\r\n            tokenURI\r\n        );\r\n        _burn(msg.sender, scoreBoardId, ONE_NFT);\r\n        _createNftCompleteCourse(tokenId, nftScoreBoard);\r\n        _studentOwnedCompleteCourseNfts[nftScoreBoard.studentAddr].push(\r\n            tokenId\r\n        );\r\n\r\n        return tokenId;\r\n    }\r\n\r\n    function _createNftCompleteCourse(\r\n        uint256 tokenId,\r\n        NftScoreBoard memory nftScoreBoard\r\n    ) private {\r\n        // TODO: CHECK average satisfied minimum score\r\n        NftCompleteCourse memory nftCompleteCourse = NftCompleteCourse(\r\n            tokenId,\r\n            nftScoreBoard.courseId,\r\n            nftScoreBoard.knowledgeBlockId,\r\n            nftScoreBoard.credits,\r\n            nftScoreBoard.scores.average()\r\n        );\r\n        _allNftCompleteCourses.push(nftCompleteCourse);\r\n        _posOfTokenIdOfNftType[NFT_COMPLETE_COURSE][\r\n            tokenId\r\n        ] = _allNftCompleteCourses.length;\r\n    }\r\n\r\n    function _mintNftGraduation(\r\n        string memory tokenURI\r\n    ) private returns (uint256) {\r\n        uint256 tokenId = _mintToken(msg.sender, NFT_GRADUATION, tokenURI);\r\n        _createNftGraduation(tokenId);\r\n        _studentOwnedNftGraduation[msg.sender] = tokenId;\r\n\r\n        return tokenId;\r\n    }\r\n\r\n    function _createNftGraduation(uint256 tokenId) private {\r\n        NftGraduation memory nftGraduation = NftGraduation(tokenId);\r\n        _allNftGraduations.push(nftGraduation);\r\n        _posOfTokenIdOfNftType[NFT_GRADUATION][tokenId] = _allNftGraduations\r\n            .length;\r\n    }\r\n}\r\n",
  "sourcePath": "E:\\learn\\learn-to-earn\\contracts\\NftCertificates.sol",
  "compiler": {
    "name": "solc",
    "version": "0.8.13+commit.abaa5c0e.Emscripten.clang"
  },
  "schemaVersion": "3.4.13",
  "updatedAt": "2023-03-26T22:50:10.531Z",
  "networkType": "ethereum",
  "devdoc": {
    "kind": "dev",
    "methods": {
      "balanceOf(address,uint256)": {
        "details": "See {IERC1155-balanceOf}. Requirements: - `account` cannot be the zero address."
      },
      "balanceOfBatch(address[],uint256[])": {
        "details": "See {IERC1155-balanceOfBatch}. Requirements: - `accounts` and `ids` must have the same length."
      },
      "isApprovedForAll(address,address)": {
        "details": "See {IERC1155-isApprovedForAll}."
      },
      "safeBatchTransferFrom(address,address,uint256[],uint256[],bytes)": {
        "details": "See {IERC1155-safeBatchTransferFrom}."
      },
      "safeTransferFrom(address,address,uint256,uint256,bytes)": {
        "details": "See {IERC1155-safeTransferFrom}."
      },
      "setApprovalForAll(address,bool)": {
        "details": "See {IERC1155-setApprovalForAll}."
      },
      "supportsInterface(bytes4)": {
        "details": "See {IERC165-supportsInterface}."
      },
      "uri(uint256)": {
        "details": "See {IERC1155MetadataURI-uri}. This implementation returns the concatenation of the `_baseURI` and the token-specific uri if the latter is set This enables the following behaviors: - if `_tokenURIs[tokenId]` is set, then the result is the concatenation   of `_baseURI` and `_tokenURIs[tokenId]` (keep in mind that `_baseURI`   is empty per default); - if `_tokenURIs[tokenId]` is NOT set then we fallback to `super.uri()`   which in most cases will contain `ERC1155._uri`; - if `_tokenURIs[tokenId]` is NOT set, and if the parents do not have a   uri value set, then the result is empty."
      }
    },
    "version": 1
  },
  "userdoc": {
    "kind": "user",
    "methods": {},
    "version": 1
  }
}