{
  "contractName": "NftCompleteCourses",
  "abi": [
    {
      "inputs": [
        {
          "internalType": "address",
          "name": "nftIdentities",
          "type": "address"
        },
        {
          "internalType": "address",
          "name": "school",
          "type": "address"
        },
        {
          "internalType": "address",
          "name": "nftClassRegistration",
          "type": "address"
        }
      ],
      "stateMutability": "nonpayable",
      "type": "constructor"
    },
    {
      "anonymous": false,
      "inputs": [
        {
          "indexed": true,
          "internalType": "address",
          "name": "account",
          "type": "address"
        },
        {
          "indexed": true,
          "internalType": "address",
          "name": "operator",
          "type": "address"
        },
        {
          "indexed": false,
          "internalType": "bool",
          "name": "approved",
          "type": "bool"
        }
      ],
      "name": "ApprovalForAll",
      "type": "event"
    },
    {
      "anonymous": false,
      "inputs": [
        {
          "indexed": false,
          "internalType": "uint256",
          "name": "tokenId",
          "type": "uint256"
        }
      ],
      "name": "NewCompleteCourseCreated",
      "type": "event"
    },
    {
      "anonymous": false,
      "inputs": [
        {
          "indexed": true,
          "internalType": "address",
          "name": "operator",
          "type": "address"
        },
        {
          "indexed": true,
          "internalType": "address",
          "name": "from",
          "type": "address"
        },
        {
          "indexed": true,
          "internalType": "address",
          "name": "to",
          "type": "address"
        },
        {
          "indexed": false,
          "internalType": "uint256[]",
          "name": "ids",
          "type": "uint256[]"
        },
        {
          "indexed": false,
          "internalType": "uint256[]",
          "name": "values",
          "type": "uint256[]"
        }
      ],
      "name": "TransferBatch",
      "type": "event"
    },
    {
      "anonymous": false,
      "inputs": [
        {
          "indexed": true,
          "internalType": "address",
          "name": "operator",
          "type": "address"
        },
        {
          "indexed": true,
          "internalType": "address",
          "name": "from",
          "type": "address"
        },
        {
          "indexed": true,
          "internalType": "address",
          "name": "to",
          "type": "address"
        },
        {
          "indexed": false,
          "internalType": "uint256",
          "name": "id",
          "type": "uint256"
        },
        {
          "indexed": false,
          "internalType": "uint256",
          "name": "value",
          "type": "uint256"
        }
      ],
      "name": "TransferSingle",
      "type": "event"
    },
    {
      "anonymous": false,
      "inputs": [
        {
          "indexed": false,
          "internalType": "string",
          "name": "value",
          "type": "string"
        },
        {
          "indexed": true,
          "internalType": "uint256",
          "name": "id",
          "type": "uint256"
        }
      ],
      "name": "URI",
      "type": "event"
    },
    {
      "inputs": [
        {
          "internalType": "address",
          "name": "account",
          "type": "address"
        },
        {
          "internalType": "uint256",
          "name": "id",
          "type": "uint256"
        }
      ],
      "name": "balanceOf",
      "outputs": [
        {
          "internalType": "uint256",
          "name": "",
          "type": "uint256"
        }
      ],
      "stateMutability": "view",
      "type": "function",
      "constant": true
    },
    {
      "inputs": [
        {
          "internalType": "address[]",
          "name": "accounts",
          "type": "address[]"
        },
        {
          "internalType": "uint256[]",
          "name": "ids",
          "type": "uint256[]"
        }
      ],
      "name": "balanceOfBatch",
      "outputs": [
        {
          "internalType": "uint256[]",
          "name": "",
          "type": "uint256[]"
        }
      ],
      "stateMutability": "view",
      "type": "function",
      "constant": true
    },
    {
      "inputs": [],
      "name": "graduationPrice",
      "outputs": [
        {
          "internalType": "uint256",
          "name": "",
          "type": "uint256"
        }
      ],
      "stateMutability": "view",
      "type": "function",
      "constant": true
    },
    {
      "inputs": [
        {
          "internalType": "address",
          "name": "account",
          "type": "address"
        },
        {
          "internalType": "address",
          "name": "operator",
          "type": "address"
        }
      ],
      "name": "isApprovedForAll",
      "outputs": [
        {
          "internalType": "bool",
          "name": "",
          "type": "bool"
        }
      ],
      "stateMutability": "view",
      "type": "function",
      "constant": true
    },
    {
      "inputs": [
        {
          "internalType": "address",
          "name": "from",
          "type": "address"
        },
        {
          "internalType": "address",
          "name": "to",
          "type": "address"
        },
        {
          "internalType": "uint256[]",
          "name": "ids",
          "type": "uint256[]"
        },
        {
          "internalType": "uint256[]",
          "name": "amounts",
          "type": "uint256[]"
        },
        {
          "internalType": "bytes",
          "name": "data",
          "type": "bytes"
        }
      ],
      "name": "safeBatchTransferFrom",
      "outputs": [],
      "stateMutability": "nonpayable",
      "type": "function"
    },
    {
      "inputs": [
        {
          "internalType": "address",
          "name": "from",
          "type": "address"
        },
        {
          "internalType": "address",
          "name": "to",
          "type": "address"
        },
        {
          "internalType": "uint256",
          "name": "id",
          "type": "uint256"
        },
        {
          "internalType": "uint256",
          "name": "amount",
          "type": "uint256"
        },
        {
          "internalType": "bytes",
          "name": "data",
          "type": "bytes"
        }
      ],
      "name": "safeTransferFrom",
      "outputs": [],
      "stateMutability": "nonpayable",
      "type": "function"
    },
    {
      "inputs": [
        {
          "internalType": "address",
          "name": "operator",
          "type": "address"
        },
        {
          "internalType": "bool",
          "name": "approved",
          "type": "bool"
        }
      ],
      "name": "setApprovalForAll",
      "outputs": [],
      "stateMutability": "nonpayable",
      "type": "function"
    },
    {
      "inputs": [
        {
          "internalType": "bytes4",
          "name": "interfaceId",
          "type": "bytes4"
        }
      ],
      "name": "supportsInterface",
      "outputs": [
        {
          "internalType": "bool",
          "name": "",
          "type": "bool"
        }
      ],
      "stateMutability": "view",
      "type": "function",
      "constant": true
    },
    {
      "inputs": [
        {
          "internalType": "uint256",
          "name": "tokenId",
          "type": "uint256"
        }
      ],
      "name": "uri",
      "outputs": [
        {
          "internalType": "string",
          "name": "",
          "type": "string"
        }
      ],
      "stateMutability": "view",
      "type": "function",
      "constant": true
    },
    {
      "inputs": [
        {
          "internalType": "address",
          "name": "nftGraduation",
          "type": "address"
        }
      ],
      "name": "initialize",
      "outputs": [],
      "stateMutability": "nonpayable",
      "type": "function"
    },
    {
      "inputs": [],
      "name": "getOwnedNftCompleteCourse",
      "outputs": [
        {
          "components": [
            {
              "internalType": "uint256",
              "name": "tokenId",
              "type": "uint256"
            },
            {
              "internalType": "uint256",
              "name": "studentTokenId",
              "type": "uint256"
            },
            {
              "internalType": "uint256",
              "name": "courseId",
              "type": "uint256"
            },
            {
              "internalType": "uint256",
              "name": "knowledgeBlockId",
              "type": "uint256"
            },
            {
              "internalType": "uint256",
              "name": "credits",
              "type": "uint256"
            }
          ],
          "internalType": "struct IConstant.NftCompleteCourse[]",
          "name": "",
          "type": "tuple[]"
        },
        {
          "internalType": "string[]",
          "name": "",
          "type": "string[]"
        }
      ],
      "stateMutability": "view",
      "type": "function",
      "constant": true
    },
    {
      "inputs": [
        {
          "internalType": "uint256",
          "name": "tokenId",
          "type": "uint256"
        }
      ],
      "name": "getNftCompleteCourse",
      "outputs": [
        {
          "components": [
            {
              "internalType": "uint256",
              "name": "tokenId",
              "type": "uint256"
            },
            {
              "internalType": "uint256",
              "name": "studentTokenId",
              "type": "uint256"
            },
            {
              "internalType": "uint256",
              "name": "courseId",
              "type": "uint256"
            },
            {
              "internalType": "uint256",
              "name": "knowledgeBlockId",
              "type": "uint256"
            },
            {
              "internalType": "uint256",
              "name": "credits",
              "type": "uint256"
            }
          ],
          "internalType": "struct IConstant.NftCompleteCourse",
          "name": "",
          "type": "tuple"
        },
        {
          "internalType": "string",
          "name": "",
          "type": "string"
        }
      ],
      "stateMutability": "view",
      "type": "function",
      "constant": true
    },
    {
      "inputs": [
        {
          "internalType": "uint256",
          "name": "courseId",
          "type": "uint256"
        },
        {
          "internalType": "address",
          "name": "studentAddr",
          "type": "address"
        }
      ],
      "name": "checkCompleteCourse",
      "outputs": [
        {
          "internalType": "bool",
          "name": "",
          "type": "bool"
        }
      ],
      "stateMutability": "view",
      "type": "function",
      "constant": true
    },
    {
      "inputs": [
        {
          "internalType": "uint256",
          "name": "studentTokenId",
          "type": "uint256"
        },
        {
          "internalType": "uint256[]",
          "name": "tokenIds",
          "type": "uint256[]"
        }
      ],
      "name": "regainNftCompleteCourses",
      "outputs": [],
      "stateMutability": "nonpayable",
      "type": "function"
    },
    {
      "inputs": [
        {
          "internalType": "uint256",
          "name": "nftClassRegistrationTokenId",
          "type": "uint256"
        },
        {
          "internalType": "string",
          "name": "tokenURI",
          "type": "string"
        }
      ],
      "name": "exchangeNftCompleteCourse",
      "outputs": [],
      "stateMutability": "nonpayable",
      "type": "function"
    },
    {
      "inputs": [
        {
          "internalType": "uint256[]",
          "name": "tokenIds",
          "type": "uint256[]"
        }
      ],
      "name": "checkAllNftCompleteCoursesRegained",
      "outputs": [
        {
          "internalType": "bool",
          "name": "",
          "type": "bool"
        }
      ],
      "stateMutability": "view",
      "type": "function",
      "constant": true
    },
    {
      "inputs": [
        {
          "internalType": "uint256",
          "name": "studentTokenId",
          "type": "uint256"
        },
        {
          "internalType": "uint256[]",
          "name": "tokenIds",
          "type": "uint256[]"
        }
      ],
      "name": "_removeFromAllNftCompleteCourses",
      "outputs": [],
      "stateMutability": "nonpayable",
      "type": "function"
    }
  ],
  "bytecode": "0x60e060405260405180602001604052806000815250600390805190602001906200002b92919062000191565b50670de0b6b3a76400006008553480156200004557600080fd5b50604051620051b9380380620051b983398181016040528101906200006b9190620002ab565b60405180602001604052806000815250806200008d816200017560201b60201c565b5033600560006101000a81548173ffffffffffffffffffffffffffffffffffffffff021916908373ffffffffffffffffffffffffffffffffffffffff160217905550508273ffffffffffffffffffffffffffffffffffffffff1660808173ffffffffffffffffffffffffffffffffffffffff16815250508173ffffffffffffffffffffffffffffffffffffffff1660a08173ffffffffffffffffffffffffffffffffffffffff16815250508073ffffffffffffffffffffffffffffffffffffffff1660c08173ffffffffffffffffffffffffffffffffffffffff16815250505050506200036b565b80600290805190602001906200018d92919062000191565b5050565b8280546200019f9062000336565b90600052602060002090601f016020900481019282620001c357600085556200020f565b82601f10620001de57805160ff19168380011785556200020f565b828001600101855582156200020f579182015b828111156200020e578251825591602001919060010190620001f1565b5b5090506200021e919062000222565b5090565b5b808211156200023d57600081600090555060010162000223565b5090565b600080fd5b600073ffffffffffffffffffffffffffffffffffffffff82169050919050565b6000620002738262000246565b9050919050565b620002858162000266565b81146200029157600080fd5b50565b600081519050620002a5816200027a565b92915050565b600080600060608486031215620002c757620002c662000241565b5b6000620002d78682870162000294565b9350506020620002ea8682870162000294565b9250506040620002fd8682870162000294565b9150509250925092565b7f4e487b7100000000000000000000000000000000000000000000000000000000600052602260045260246000fd5b600060028204905060018216806200034f57607f821691505b60208210810362000365576200036462000307565b5b50919050565b60805160a05160c051614e13620003a660003960006108d701526000505060008181610795015281816110f501526113d40152614e136000f3fe608060405234801561001057600080fd5b506004361061010a5760003560e01c806359619d31116100a2578063a22cb46511610071578063a22cb465146102ee578063c4d66de81461030a578063df264a5e14610326578063e985e9c514610345578063f242432a146103755761010a565b806359619d31146102415780636987d038146102715780636eabe75f1461028d57806385c7744c146102bd5761010a565b80632190530c116100de5780632190530c146101bd5780632b91bc7e146101d95780632eb2c2d6146101f55780634e1273f4146102115761010a565b8062fdd58e1461010f57806301ffc9a71461013f57806303ece6231461016f5780630e89341c1461018d575b600080fd5b61012960048036038101906101249190612ef6565b610391565b6040516101369190612f45565b60405180910390f35b61015960048036038101906101549190612fb8565b610459565b6040516101669190613000565b60405180910390f35b61017761053b565b6040516101849190612f45565b60405180910390f35b6101a760048036038101906101a2919061301b565b610541565b6040516101b491906130e1565b60405180910390f35b6101d760048036038101906101d2919061324b565b610626565b005b6101f360048036038101906101ee919061335c565b6108d2565b005b61020f600480360381019061020a9190613459565b610aa7565b005b61022b600480360381019061022691906135eb565b610b48565b6040516102389190613721565b60405180910390f35b61025b60048036038101906102569190613743565b610c61565b6040516102689190613000565b60405180910390f35b61028b6004803603810190610286919061324b565b610ce3565b005b6102a760048036038101906102a2919061378c565b6110f0565b6040516102b49190613000565b60405180910390f35b6102d760048036038101906102d2919061301b565b6111ec565b6040516102e5929190613834565b60405180910390f35b61030860048036038101906103039190613890565b6112e4565b005b610324600480360381019061031f91906138d0565b6112fa565b005b61032e6113cd565b60405161033c929190613b20565b60405180910390f35b61035f600480360381019061035a9190613b57565b6115f4565b60405161036c9190613000565b60405180910390f35b61038f600480360381019061038a9190613b97565b611688565b005b60008073ffffffffffffffffffffffffffffffffffffffff168373ffffffffffffffffffffffffffffffffffffffff1603610401576040517f08c379a00000000000000000000000000000000000000000000000000000000081526004016103f890613ca0565b60405180910390fd5b60008083815260200190815260200160002060008473ffffffffffffffffffffffffffffffffffffffff1673ffffffffffffffffffffffffffffffffffffffff16815260200190815260200160002054905092915050565b60007fd9b67a26000000000000000000000000000000000000000000000000000000007bffffffffffffffffffffffffffffffffffffffffffffffffffffffff1916827bffffffffffffffffffffffffffffffffffffffffffffffffffffffff1916148061052457507f0e89341c000000000000000000000000000000000000000000000000000000007bffffffffffffffffffffffffffffffffffffffffffffffffffffffff1916827bffffffffffffffffffffffffffffffffffffffffffffffffffffffff1916145b80610534575061053382611729565b5b9050919050565b60085481565b6060600060046000848152602001908152602001600020805461056390613cef565b80601f016020809104026020016040519081016040528092919081815260200182805461058f90613cef565b80156105dc5780601f106105b1576101008083540402835291602001916105dc565b820191906000526020600020905b8154815290600101906020018083116105bf57829003601f168201915b5050505050905060008151116105fa576105f583611793565b61061e565b60038160405160200161060e929190613df0565b6040516020818303038152906040525b915050919050565b600960019054906101000a900473ffffffffffffffffffffffffffffffffffffffff1673ffffffffffffffffffffffffffffffffffffffff163373ffffffffffffffffffffffffffffffffffffffff16146106b6576040517f08c379a00000000000000000000000000000000000000000000000000000000081526004016106ad90613e60565b60405180910390fd5b600960019054906101000a900473ffffffffffffffffffffffffffffffffffffffff1673ffffffffffffffffffffffffffffffffffffffff16632a3a676c836040518263ffffffff1660e01b81526004016107119190612f45565b602060405180830381865afa15801561072e573d6000803e3d6000fd5b505050506040513d601f19601f820116820180604052508101906107529190613e95565b610791576040517f08c379a000000000000000000000000000000000000000000000000000000000815260040161078890613f0e565b60405180910390fd5b60007f000000000000000000000000000000000000000000000000000000000000000073ffffffffffffffffffffffffffffffffffffffff16636352211e846040518263ffffffff1660e01b81526004016107ec9190612f45565b602060405180830381865afa158015610809573d6000803e3d6000fd5b505050506040513d601f19601f8201168201806040525081019061082d9190613f43565b905060008251905060008167ffffffffffffffff81111561085157610850613108565b5b60405190808252806020026020018201604052801561087f5781602001602082028036833780820191505090505b50905060005b828110156108bf5760018282815181106108a2576108a1613f70565b5b602002602001018181525050806108b890613fce565b9050610885565b506108cb838583611827565b5050505050565b6000807f000000000000000000000000000000000000000000000000000000000000000073ffffffffffffffffffffffffffffffffffffffff16638e053c7033866040518363ffffffff1660e01b8152600401610930929190614025565b6000604051808303816000875af115801561094f573d6000803e3d6000fd5b505050506040513d6000823e3d601f19601f820116820180604052508101906109789190614269565b91509150600081600001519050600061099333600187611af5565b90506109ae8183866020015187604001518860800151611b6a565b600e6000838152602001908152602001600020819080600181540180825580915050600190039060005260206000200160009091909190915055600e600083815260200190815260200160002080549050600f600084815260200190815260200160002060008381526020019081526020016000208190555060016010600084815260200190815260200160002060008660200151815260200190815260200160002060006101000a81548160ff0219169083151502179055507fa1ce3ead8e83e3d0d7c8fba00e72fcba3265aee4a21c5886129dc80211f27d0981604051610a979190612f45565b60405180910390a1505050505050565b610aaf611c2c565b73ffffffffffffffffffffffffffffffffffffffff168573ffffffffffffffffffffffffffffffffffffffff161480610af55750610af485610aef611c2c565b6115f4565b5b610b34576040517f08c379a0000000000000000000000000000000000000000000000000000000008152600401610b2b90614337565b60405180910390fd5b610b418585858585611c34565b5050505050565b60608151835114610b8e576040517f08c379a0000000000000000000000000000000000000000000000000000000008152600401610b85906143c9565b60405180910390fd5b6000835167ffffffffffffffff811115610bab57610baa613108565b5b604051908082528060200260200182016040528015610bd95781602001602082028036833780820191505090505b50905060005b8451811015610c5657610c26858281518110610bfe57610bfd613f70565b5b6020026020010151858381518110610c1957610c18613f70565b5b6020026020010151610391565b828281518110610c3957610c38613f70565b5b60200260200101818152505080610c4f90613fce565b9050610bdf565b508091505092915050565b6000808251905060005b81811015610cd7576000600b6000600181526020019081526020016000206000868481518110610c9e57610c9d613f70565b5b60200260200101518152602001908152602001600020541115610cc657600092505050610cde565b80610cd090613fce565b9050610c6b565b5060019150505b919050565b60008151905060005b818110156110ea576000600b6000600181526020019081526020016000206000858481518110610d1f57610d1e613f70565b5b602002602001015181526020019081526020016000205490506000600a8054905090506000600a600184610d5391906143e9565b81548110610d6457610d63613f70565b5b90600052602060002090600502016040518060a00160405290816000820154815260200160018201548152602001600282015481526020016003820154815260200160048201548152505090506010600088815260200190815260200160002060008260400151815260200190815260200160002060006101000a81549060ff02191690556000600f60008981526020019081526020016000206000888781518110610e1357610e12613f70565b5b602002602001015181526020019081526020016000205490506000600e60008a815260200190815260200160002080549050905080821015610efa576000600e60008b8152602001908152602001600020600183610e7191906143e9565b81548110610e8257610e81613f70565b5b9060005260206000200154905080600e60008c8152602001908152602001600020600185610eb091906143e9565b81548110610ec157610ec0613f70565b5b906000526020600020018190555082600f60008c8152602001908152602001600020600083815260200190815260200160002081905550505b600e60008a8152602001908152602001600020805480610f1d57610f1c61441d565b5b600190038181906000526020600020016000905590558385101561103e576000600a600186610f4c91906143e9565b81548110610f5d57610f5c613f70565b5b90600052602060002090600502016040518060a001604052908160008201548152602001600182015481526020016002820154815260200160038201548152602001600482015481525050905080600a600188610fba91906143e9565b81548110610fcb57610fca613f70565b5b9060005260206000209060050201600082015181600001556020820151816001015560408201518160020155606082015181600301556080820151816004015590505085600b60006001815260200190815260200160002060008360000151815260200190815260200160002081905550505b600b600060018152602001908152602001600020600089888151811061106757611066613f70565b5b6020026020010151815260200190815260200160002060009055600a8054806110935761109261441d565b5b60019003818190600052602060002090600502016000808201600090556001820160009055600282016000905560038201600090556004820160009055505090555050505050806110e390613fce565b9050610cec565b50505050565b6000807f000000000000000000000000000000000000000000000000000000000000000073ffffffffffffffffffffffffffffffffffffffff166352db77c4600060018111156111435761114261444c565b5b856040518363ffffffff1660e01b815260040161116192919061447b565b600060405180830381865afa15801561117e573d6000803e3d6000fd5b505050506040513d6000823e3d601f19601f820116820180604052508101906111a79190614538565b6000015160000151905060106000828152602001908152602001600020600085815260200190815260200160002060009054906101000a900460ff1691505092915050565b6111f4612d7c565b60606000600b600060018152602001908152602001600020600085815260200190815260200160002054905060008111611263576040517f08c379a000000000000000000000000000000000000000000000000000000000815260040161125a906145cd565b60405180910390fd5b600a60018261127291906143e9565b8154811061128357611282613f70565b5b906000526020600020906005020161129a85610541565b816040518060a00160405290816000820154815260200160018201548152602001600282015481526020016003820154815260200160048201548152505091509250925050915091565b6112f66112ef611c2c565b8383611f55565b5050565b3373ffffffffffffffffffffffffffffffffffffffff16600560009054906101000a900473ffffffffffffffffffffffffffffffffffffffff1673ffffffffffffffffffffffffffffffffffffffff161461135457600080fd5b600960009054906101000a900460ff161561136e57600080fd5b6001600960006101000a81548160ff02191690831515021790555080600960016101000a81548173ffffffffffffffffffffffffffffffffffffffff021916908373ffffffffffffffffffffffffffffffffffffffff16021790555050565b60608060007f000000000000000000000000000000000000000000000000000000000000000073ffffffffffffffffffffffffffffffffffffffff166352db77c4600060018111156114225761142161444c565b5b336040518363ffffffff1660e01b815260040161144092919061447b565b600060405180830381865afa15801561145d573d6000803e3d6000fd5b505050506040513d6000823e3d601f19601f820116820180604052508101906114869190614538565b600001516000015190506000600e600083815260200190815260200160002080549050905060008167ffffffffffffffff8111156114c7576114c6613108565b5b60405190808252806020026020018201604052801561150057816020015b6114ed612d7c565b8152602001906001900390816114e55790505b50905060008267ffffffffffffffff81111561151f5761151e613108565b5b60405190808252806020026020018201604052801561155257816020015b606081526020019060019003908161153d5790505b50905060005b838110156115e557611598600e6000878152602001908152602001600020828154811061158857611587613f70565b5b90600052602060002001546111ec565b8483815181106115ab576115aa613f70565b5b602002602001018484815181106115c5576115c4613f70565b5b602002602001018290528290525050806115de90613fce565b9050611558565b50818195509550505050509091565b6000600160008473ffffffffffffffffffffffffffffffffffffffff1673ffffffffffffffffffffffffffffffffffffffff16815260200190815260200160002060008373ffffffffffffffffffffffffffffffffffffffff1673ffffffffffffffffffffffffffffffffffffffff16815260200190815260200160002060009054906101000a900460ff16905092915050565b611690611c2c565b73ffffffffffffffffffffffffffffffffffffffff168573ffffffffffffffffffffffffffffffffffffffff1614806116d657506116d5856116d0611c2c565b6115f4565b5b611715576040517f08c379a000000000000000000000000000000000000000000000000000000000815260040161170c90614337565b60405180910390fd5b61172285858585856120c1565b5050505050565b60007f01ffc9a7000000000000000000000000000000000000000000000000000000007bffffffffffffffffffffffffffffffffffffffffffffffffffffffff1916827bffffffffffffffffffffffffffffffffffffffffffffffffffffffff1916149050919050565b6060600280546117a290613cef565b80601f01602080910402602001604051908101604052809291908181526020018280546117ce90613cef565b801561181b5780601f106117f05761010080835404028352916020019161181b565b820191906000526020600020905b8154815290600101906020018083116117fe57829003601f168201915b50505050509050919050565b600073ffffffffffffffffffffffffffffffffffffffff168373ffffffffffffffffffffffffffffffffffffffff1603611896576040517f08c379a000000000000000000000000000000000000000000000000000000000815260040161188d9061465f565b60405180910390fd5b80518251146118da576040517f08c379a00000000000000000000000000000000000000000000000000000000081526004016118d1906146f1565b60405180910390fd5b60006118e4611c2c565b90506119048185600086866040518060200160405280600081525061235c565b60005b8351811015611a5157600084828151811061192557611924613f70565b5b60200260200101519050600084838151811061194457611943613f70565b5b60200260200101519050600080600084815260200190815260200160002060008973ffffffffffffffffffffffffffffffffffffffff1673ffffffffffffffffffffffffffffffffffffffff168152602001908152602001600020549050818110156119e5576040517f08c379a00000000000000000000000000000000000000000000000000000000081526004016119dc90614783565b60405180910390fd5b81810360008085815260200190815260200160002060008a73ffffffffffffffffffffffffffffffffffffffff1673ffffffffffffffffffffffffffffffffffffffff168152602001908152602001600020819055505050508080611a4990613fce565b915050611907565b50600073ffffffffffffffffffffffffffffffffffffffff168473ffffffffffffffffffffffffffffffffffffffff168273ffffffffffffffffffffffffffffffffffffffff167f4a39dc06d4c0dbc64b70af90fd698a233a518aa5d07e595d983b8c0526c8f7fb8686604051611ac99291906147a3565b60405180910390a4611aef81856000868660405180602001604052806000815250612688565b50505050565b600080611b0184612690565b9050611b55858260016000368080601f016020809104026020016040519081016040528093929190818152602001838380828437600081840152601f19601f820116905080830192505050505050506126db565b611b5f818461288b565b809150509392505050565b60006040518060a00160405280878152602001868152602001858152602001848152602001838152509050600a81908060018154018082558091505060019003906000526020600020906005020160009091909190915060008201518160000155602082015181600101556040820151816002015560608201518160030155608082015181600401555050600a80549050600b600060018152602001908152602001600020600088815260200190815260200160002081905550505050505050565b600033905090565b8151835114611c78576040517f08c379a0000000000000000000000000000000000000000000000000000000008152600401611c6f906146f1565b60405180910390fd5b600073ffffffffffffffffffffffffffffffffffffffff168473ffffffffffffffffffffffffffffffffffffffff1603611ce7576040517f08c379a0000000000000000000000000000000000000000000000000000000008152600401611cde9061484c565b60405180910390fd5b6000611cf1611c2c565b9050611d0181878787878761235c565b60005b8451811015611eb2576000858281518110611d2257611d21613f70565b5b602002602001015190506000858381518110611d4157611d40613f70565b5b60200260200101519050600080600084815260200190815260200160002060008b73ffffffffffffffffffffffffffffffffffffffff1673ffffffffffffffffffffffffffffffffffffffff16815260200190815260200160002054905081811015611de2576040517f08c379a0000000000000000000000000000000000000000000000000000000008152600401611dd9906148de565b60405180910390fd5b81810360008085815260200190815260200160002060008c73ffffffffffffffffffffffffffffffffffffffff1673ffffffffffffffffffffffffffffffffffffffff168152602001908152602001600020819055508160008085815260200190815260200160002060008b73ffffffffffffffffffffffffffffffffffffffff1673ffffffffffffffffffffffffffffffffffffffff1681526020019081526020016000206000828254611e9791906148fe565b9250508190555050505080611eab90613fce565b9050611d04565b508473ffffffffffffffffffffffffffffffffffffffff168673ffffffffffffffffffffffffffffffffffffffff168273ffffffffffffffffffffffffffffffffffffffff167f4a39dc06d4c0dbc64b70af90fd698a233a518aa5d07e595d983b8c0526c8f7fb8787604051611f299291906147a3565b60405180910390a4611f3f818787878787612688565b611f4d8187878787876128f7565b505050505050565b8173ffffffffffffffffffffffffffffffffffffffff168373ffffffffffffffffffffffffffffffffffffffff1603611fc3576040517f08c379a0000000000000000000000000000000000000000000000000000000008152600401611fba906149c6565b60405180910390fd5b80600160008573ffffffffffffffffffffffffffffffffffffffff1673ffffffffffffffffffffffffffffffffffffffff16815260200190815260200160002060008473ffffffffffffffffffffffffffffffffffffffff1673ffffffffffffffffffffffffffffffffffffffff16815260200190815260200160002060006101000a81548160ff0219169083151502179055508173ffffffffffffffffffffffffffffffffffffffff168373ffffffffffffffffffffffffffffffffffffffff167f17307eab39ab6107e8899845ad3d59bd9653f200f220920489ca2b5937696c31836040516120b49190613000565b60405180910390a3505050565b600073ffffffffffffffffffffffffffffffffffffffff168473ffffffffffffffffffffffffffffffffffffffff1603612130576040517f08c379a00000000000000000000000000000000000000000000000000000000081526004016121279061484c565b60405180910390fd5b600061213a611c2c565b9050600061214785612ace565b9050600061215485612ace565b905061216483898985858961235c565b600080600088815260200190815260200160002060008a73ffffffffffffffffffffffffffffffffffffffff1673ffffffffffffffffffffffffffffffffffffffff168152602001908152602001600020549050858110156121fb576040517f08c379a00000000000000000000000000000000000000000000000000000000081526004016121f2906148de565b60405180910390fd5b85810360008089815260200190815260200160002060008b73ffffffffffffffffffffffffffffffffffffffff1673ffffffffffffffffffffffffffffffffffffffff168152602001908152602001600020819055508560008089815260200190815260200160002060008a73ffffffffffffffffffffffffffffffffffffffff1673ffffffffffffffffffffffffffffffffffffffff16815260200190815260200160002060008282546122b091906148fe565b925050819055508773ffffffffffffffffffffffffffffffffffffffff168973ffffffffffffffffffffffffffffffffffffffff168573ffffffffffffffffffffffffffffffffffffffff167fc3d58168c5ae7397731d063d5bbf3d657854427343f4c083240f7aacaa2d0f628a8a60405161232d9291906149e6565b60405180910390a4612343848a8a86868a612688565b612351848a8a8a8a8a612b48565b505050505050505050565b61236a868686868686612d1f565b600083519050600073ffffffffffffffffffffffffffffffffffffffff168673ffffffffffffffffffffffffffffffffffffffff160361246c5760005b818110156124655760006123d48683815181106123c7576123c6613f70565b5b6020026020010151612d27565b9050866007600083815260200190815260200160002060008885815181106123ff576123fe613f70565b5b6020026020010151815260200190815260200160002060006101000a81548173ffffffffffffffffffffffffffffffffffffffff021916908373ffffffffffffffffffffffffffffffffffffffff160217905550508061245e90613fce565b90506123a7565b5050612680565b600073ffffffffffffffffffffffffffffffffffffffff168573ffffffffffffffffffffffffffffffffffffffff160361254c5760005b818110156125455760006124d08683815181106124c3576124c2613f70565b5b6020026020010151612d27565b90506007600082815260200190815260200160002060008784815181106124fa576124f9613f70565b5b6020026020010151815260200190815260200160002060006101000a81549073ffffffffffffffffffffffffffffffffffffffff0219169055508061253e90613fce565b90506124a3565b5050612680565b600073ffffffffffffffffffffffffffffffffffffffff168673ffffffffffffffffffffffffffffffffffffffff16141580156125b65750600073ffffffffffffffffffffffffffffffffffffffff168573ffffffffffffffffffffffffffffffffffffffff1614155b1561267e5760005b8181101561267c5760006125eb8683815181106125de576125dd613f70565b5b6020026020010151612d27565b90508660076000838152602001908152602001600020600088858151811061261657612615613f70565b5b6020026020010151815260200190815260200160002060006101000a81548173ffffffffffffffffffffffffffffffffffffffff021916908373ffffffffffffffffffffffffffffffffffffffff160217905550508061267590613fce565b90506125be565b505b505b505050505050565b505050505050565b60006126ad60066000848152602001908152602001600020612d35565b60006126ca60066000858152602001908152602001600020612d4b565b905080601084901b17915050919050565b600073ffffffffffffffffffffffffffffffffffffffff168473ffffffffffffffffffffffffffffffffffffffff160361274a576040517f08c379a000000000000000000000000000000000000000000000000000000000815260040161274190614a81565b60405180910390fd5b6000612754611c2c565b9050600061276185612ace565b9050600061276e85612ace565b905061277f8360008985858961235c565b8460008088815260200190815260200160002060008973ffffffffffffffffffffffffffffffffffffffff1673ffffffffffffffffffffffffffffffffffffffff16815260200190815260200160002060008282546127de91906148fe565b925050819055508673ffffffffffffffffffffffffffffffffffffffff16600073ffffffffffffffffffffffffffffffffffffffff168473ffffffffffffffffffffffffffffffffffffffff167fc3d58168c5ae7397731d063d5bbf3d657854427343f4c083240f7aacaa2d0f62898960405161285c9291906149e6565b60405180910390a461287383600089858589612688565b61288283600089898989612b48565b50505050505050565b806004600084815260200190815260200160002090805190602001906128b2929190612dab565b50817f6bb7ff708619ba0610cba295a58592e0451dee2622938c8755667688daf3529b6128de84610541565b6040516128eb91906130e1565b60405180910390a25050565b6129168473ffffffffffffffffffffffffffffffffffffffff16612d59565b15612ac6578373ffffffffffffffffffffffffffffffffffffffff1663bc197c8187878686866040518663ffffffff1660e01b815260040161295c959493929190614af6565b6020604051808303816000875af192505050801561299857506040513d601f19601f820116820180604052508101906129959190614b73565b60015b612a3d576129a4614bad565b806308c379a003612a0057506129b8614bcf565b806129c35750612a02565b806040517f08c379a00000000000000000000000000000000000000000000000000000000081526004016129f791906130e1565b60405180910390fd5b505b6040517f08c379a0000000000000000000000000000000000000000000000000000000008152600401612a3490614cd1565b60405180910390fd5b63bc197c8160e01b7bffffffffffffffffffffffffffffffffffffffffffffffffffffffff1916817bffffffffffffffffffffffffffffffffffffffffffffffffffffffff191614612ac4576040517f08c379a0000000000000000000000000000000000000000000000000000000008152600401612abb90614d63565b60405180910390fd5b505b505050505050565b60606000600167ffffffffffffffff811115612aed57612aec613108565b5b604051908082528060200260200182016040528015612b1b5781602001602082028036833780820191505090505b5090508281600081518110612b3357612b32613f70565b5b60200260200101818152505080915050919050565b612b678473ffffffffffffffffffffffffffffffffffffffff16612d59565b15612d17578373ffffffffffffffffffffffffffffffffffffffff1663f23a6e6187878686866040518663ffffffff1660e01b8152600401612bad959493929190614d83565b6020604051808303816000875af1925050508015612be957506040513d601f19601f82011682018060405250810190612be69190614b73565b60015b612c8e57612bf5614bad565b806308c379a003612c515750612c09614bcf565b80612c145750612c53565b806040517f08c379a0000000000000000000000000000000000000000000000000000000008152600401612c4891906130e1565b60405180910390fd5b505b6040517f08c379a0000000000000000000000000000000000000000000000000000000008152600401612c8590614cd1565b60405180910390fd5b63f23a6e6160e01b7bffffffffffffffffffffffffffffffffffffffffffffffffffffffff1916817bffffffffffffffffffffffffffffffffffffffffffffffffffffffff191614612d15576040517f08c379a0000000000000000000000000000000000000000000000000000000008152600401612d0c90614d63565b60405180910390fd5b505b505050505050565b505050505050565b6000601082901c9050919050565b6001816000016000828254019250508190555050565b600081600001549050919050565b6000808273ffffffffffffffffffffffffffffffffffffffff163b119050919050565b6040518060a0016040528060008152602001600081526020016000815260200160008152602001600081525090565b828054612db790613cef565b90600052602060002090601f016020900481019282612dd95760008555612e20565b82601f10612df257805160ff1916838001178555612e20565b82800160010185558215612e20579182015b82811115612e1f578251825591602001919060010190612e04565b5b509050612e2d9190612e31565b5090565b5b80821115612e4a576000816000905550600101612e32565b5090565b6000604051905090565b600080fd5b600080fd5b600073ffffffffffffffffffffffffffffffffffffffff82169050919050565b6000612e8d82612e62565b9050919050565b612e9d81612e82565b8114612ea857600080fd5b50565b600081359050612eba81612e94565b92915050565b6000819050919050565b612ed381612ec0565b8114612ede57600080fd5b50565b600081359050612ef081612eca565b92915050565b60008060408385031215612f0d57612f0c612e58565b5b6000612f1b85828601612eab565b9250506020612f2c85828601612ee1565b9150509250929050565b612f3f81612ec0565b82525050565b6000602082019050612f5a6000830184612f36565b92915050565b60007fffffffff0000000000000000000000000000000000000000000000000000000082169050919050565b612f9581612f60565b8114612fa057600080fd5b50565b600081359050612fb281612f8c565b92915050565b600060208284031215612fce57612fcd612e58565b5b6000612fdc84828501612fa3565b91505092915050565b60008115159050919050565b612ffa81612fe5565b82525050565b60006020820190506130156000830184612ff1565b92915050565b60006020828403121561303157613030612e58565b5b600061303f84828501612ee1565b91505092915050565b600081519050919050565b600082825260208201905092915050565b60005b83811015613082578082015181840152602081019050613067565b83811115613091576000848401525b50505050565b6000601f19601f8301169050919050565b60006130b382613048565b6130bd8185613053565b93506130cd818560208601613064565b6130d681613097565b840191505092915050565b600060208201905081810360008301526130fb81846130a8565b905092915050565b600080fd5b7f4e487b7100000000000000000000000000000000000000000000000000000000600052604160045260246000fd5b61314082613097565b810181811067ffffffffffffffff8211171561315f5761315e613108565b5b80604052505050565b6000613172612e4e565b905061317e8282613137565b919050565b600067ffffffffffffffff82111561319e5761319d613108565b5b602082029050602081019050919050565b600080fd5b60006131c76131c284613183565b613168565b905080838252602082019050602084028301858111156131ea576131e96131af565b5b835b8181101561321357806131ff8882612ee1565b8452602084019350506020810190506131ec565b5050509392505050565b600082601f83011261323257613231613103565b5b81356132428482602086016131b4565b91505092915050565b6000806040838503121561326257613261612e58565b5b600061327085828601612ee1565b925050602083013567ffffffffffffffff81111561329157613290612e5d565b5b61329d8582860161321d565b9150509250929050565b600080fd5b600067ffffffffffffffff8211156132c7576132c6613108565b5b6132d082613097565b9050602081019050919050565b82818337600083830152505050565b60006132ff6132fa846132ac565b613168565b90508281526020810184848401111561331b5761331a6132a7565b5b6133268482856132dd565b509392505050565b600082601f83011261334357613342613103565b5b81356133538482602086016132ec565b91505092915050565b6000806040838503121561337357613372612e58565b5b600061338185828601612ee1565b925050602083013567ffffffffffffffff8111156133a2576133a1612e5d565b5b6133ae8582860161332e565b9150509250929050565b600067ffffffffffffffff8211156133d3576133d2613108565b5b6133dc82613097565b9050602081019050919050565b60006133fc6133f7846133b8565b613168565b905082815260208101848484011115613418576134176132a7565b5b6134238482856132dd565b509392505050565b600082601f8301126134405761343f613103565b5b81356134508482602086016133e9565b91505092915050565b600080600080600060a0868803121561347557613474612e58565b5b600061348388828901612eab565b955050602061349488828901612eab565b945050604086013567ffffffffffffffff8111156134b5576134b4612e5d565b5b6134c18882890161321d565b935050606086013567ffffffffffffffff8111156134e2576134e1612e5d565b5b6134ee8882890161321d565b925050608086013567ffffffffffffffff81111561350f5761350e612e5d565b5b61351b8882890161342b565b9150509295509295909350565b600067ffffffffffffffff82111561354357613542613108565b5b602082029050602081019050919050565b600061356761356284613528565b613168565b9050808382526020820190506020840283018581111561358a576135896131af565b5b835b818110156135b3578061359f8882612eab565b84526020840193505060208101905061358c565b5050509392505050565b600082601f8301126135d2576135d1613103565b5b81356135e2848260208601613554565b91505092915050565b6000806040838503121561360257613601612e58565b5b600083013567ffffffffffffffff8111156136205761361f612e5d565b5b61362c858286016135bd565b925050602083013567ffffffffffffffff81111561364d5761364c612e5d565b5b6136598582860161321d565b9150509250929050565b600081519050919050565b600082825260208201905092915050565b6000819050602082019050919050565b61369881612ec0565b82525050565b60006136aa838361368f565b60208301905092915050565b6000602082019050919050565b60006136ce82613663565b6136d8818561366e565b93506136e38361367f565b8060005b838110156137145781516136fb888261369e565b9750613706836136b6565b9250506001810190506136e7565b5085935050505092915050565b6000602082019050818103600083015261373b81846136c3565b905092915050565b60006020828403121561375957613758612e58565b5b600082013567ffffffffffffffff81111561377757613776612e5d565b5b6137838482850161321d565b91505092915050565b600080604083850312156137a3576137a2612e58565b5b60006137b185828601612ee1565b92505060206137c285828601612eab565b9150509250929050565b60a0820160008201516137e2600085018261368f565b5060208201516137f5602085018261368f565b506040820151613808604085018261368f565b50606082015161381b606085018261368f565b50608082015161382e608085018261368f565b50505050565b600060c08201905061384960008301856137cc565b81810360a083015261385b81846130a8565b90509392505050565b61386d81612fe5565b811461387857600080fd5b50565b60008135905061388a81613864565b92915050565b600080604083850312156138a7576138a6612e58565b5b60006138b585828601612eab565b92505060206138c68582860161387b565b9150509250929050565b6000602082840312156138e6576138e5612e58565b5b60006138f484828501612eab565b91505092915050565b600081519050919050565b600082825260208201905092915050565b6000819050602082019050919050565b60a08201600082015161393f600085018261368f565b506020820151613952602085018261368f565b506040820151613965604085018261368f565b506060820151613978606085018261368f565b50608082015161398b608085018261368f565b50505050565b600061399d8383613929565b60a08301905092915050565b6000602082019050919050565b60006139c1826138fd565b6139cb8185613908565b93506139d683613919565b8060005b83811015613a075781516139ee8882613991565b97506139f9836139a9565b9250506001810190506139da565b5085935050505092915050565b600081519050919050565b600082825260208201905092915050565b6000819050602082019050919050565b600082825260208201905092915050565b6000613a5c82613048565b613a668185613a40565b9350613a76818560208601613064565b613a7f81613097565b840191505092915050565b6000613a968383613a51565b905092915050565b6000602082019050919050565b6000613ab682613a14565b613ac08185613a1f565b935083602082028501613ad285613a30565b8060005b85811015613b0e5784840389528151613aef8582613a8a565b9450613afa83613a9e565b925060208a01995050600181019050613ad6565b50829750879550505050505092915050565b60006040820190508181036000830152613b3a81856139b6565b90508181036020830152613b4e8184613aab565b90509392505050565b60008060408385031215613b6e57613b6d612e58565b5b6000613b7c85828601612eab565b9250506020613b8d85828601612eab565b9150509250929050565b600080600080600060a08688031215613bb357613bb2612e58565b5b6000613bc188828901612eab565b9550506020613bd288828901612eab565b9450506040613be388828901612ee1565b9350506060613bf488828901612ee1565b925050608086013567ffffffffffffffff811115613c1557613c14612e5d565b5b613c218882890161342b565b9150509295509295909350565b7f455243313135353a2061646472657373207a65726f206973206e6f742061207660008201527f616c6964206f776e657200000000000000000000000000000000000000000000602082015250565b6000613c8a602a83613053565b9150613c9582613c2e565b604082019050919050565b60006020820190508181036000830152613cb981613c7d565b9050919050565b7f4e487b7100000000000000000000000000000000000000000000000000000000600052602260045260246000fd5b60006002820490506001821680613d0757607f821691505b602082108103613d1a57613d19613cc0565b5b50919050565b600081905092915050565b60008190508160005260206000209050919050565b60008154613d4d81613cef565b613d578186613d20565b94506001821660008114613d725760018114613d8357613db6565b60ff19831686528186019350613db6565b613d8c85613d2b565b60005b83811015613dae57815481890152600182019150602081019050613d8f565b838801955050505b50505092915050565b6000613dca82613048565b613dd48185613d20565b9350613de4818560208601613064565b80840191505092915050565b6000613dfc8285613d40565b9150613e088284613dbf565b91508190509392505050565b7f4e43432d4552522d303100000000000000000000000000000000000000000000600082015250565b6000613e4a600a83613053565b9150613e5582613e14565b602082019050919050565b60006020820190508181036000830152613e7981613e3d565b9050919050565b600081519050613e8f81613864565b92915050565b600060208284031215613eab57613eaa612e58565b5b6000613eb984828501613e80565b91505092915050565b7f4e43432d4552522d303300000000000000000000000000000000000000000000600082015250565b6000613ef8600a83613053565b9150613f0382613ec2565b602082019050919050565b60006020820190508181036000830152613f2781613eeb565b9050919050565b600081519050613f3d81612e94565b92915050565b600060208284031215613f5957613f58612e58565b5b6000613f6784828501613f2e565b91505092915050565b7f4e487b7100000000000000000000000000000000000000000000000000000000600052603260045260246000fd5b7f4e487b7100000000000000000000000000000000000000000000000000000000600052601160045260246000fd5b6000613fd982612ec0565b91507fffffffffffffffffffffffffffffffffffffffffffffffffffffffffffffffff820361400b5761400a613f9f565b5b600182019050919050565b61401f81612e82565b82525050565b600060408201905061403a6000830185614016565b6140476020830184612f36565b9392505050565b600080fd5b600080fd5b60008151905061406781612eca565b92915050565b600061408061407b846132ac565b613168565b90508281526020810184848401111561409c5761409b6132a7565b5b6140a7848285613064565b509392505050565b600082601f8301126140c4576140c3613103565b5b81516140d484826020860161406d565b91505092915050565b600061016082840312156140f4576140f361404e565b5b6140ff610160613168565b9050600061410f84828501614058565b600083015250602061412384828501614058565b602083015250604061413784828501614058565b604083015250606061414b84828501614058565b606083015250608061415f84828501614058565b60808301525060a061417384828501614058565b60a08301525060c061418784828501614058565b60c08301525060e061419b84828501614058565b60e0830152506101006141b084828501614058565b610100830152506101206141c684828501614058565b6101208301525061014082015167ffffffffffffffff8111156141ec576141eb614053565b5b6141f8848285016140af565b6101408301525092915050565b60006060828403121561421b5761421a61404e565b5b6142256060613168565b9050600061423584828501614058565b600083015250602061424984828501613f2e565b602083015250604061425d84828501614058565b60408301525092915050565b600080608083850312156142805761427f612e58565b5b600083015167ffffffffffffffff81111561429e5761429d612e5d565b5b6142aa858286016140dd565b92505060206142bb85828601614205565b9150509250929050565b7f455243313135353a2063616c6c6572206973206e6f7420746f6b656e206f776e60008201527f6572206f7220617070726f766564000000000000000000000000000000000000602082015250565b6000614321602e83613053565b915061432c826142c5565b604082019050919050565b6000602082019050818103600083015261435081614314565b9050919050565b7f455243313135353a206163636f756e747320616e6420696473206c656e67746860008201527f206d69736d617463680000000000000000000000000000000000000000000000602082015250565b60006143b3602983613053565b91506143be82614357565b604082019050919050565b600060208201905081810360008301526143e2816143a6565b9050919050565b60006143f482612ec0565b91506143ff83612ec0565b92508282101561441257614411613f9f565b5b828203905092915050565b7f4e487b7100000000000000000000000000000000000000000000000000000000600052603160045260246000fd5b7f4e487b7100000000000000000000000000000000000000000000000000000000600052602160045260246000fd5b60006040820190506144906000830185612f36565b61449d6020830184614016565b9392505050565b600060c082840312156144ba576144b961404e565b5b6144c46080613168565b905060006144d484828501614205565b600083015250606082015167ffffffffffffffff8111156144f8576144f7614053565b5b614504848285016140af565b602083015250608061451884828501614058565b60408301525060a061452c84828501613e80565b60608301525092915050565b60006020828403121561454e5761454d612e58565b5b600082015167ffffffffffffffff81111561456c5761456b612e5d565b5b614578848285016144a4565b91505092915050565b7f4e43432d4552522d303000000000000000000000000000000000000000000000600082015250565b60006145b7600a83613053565b91506145c282614581565b602082019050919050565b600060208201905081810360008301526145e6816145aa565b9050919050565b7f455243313135353a206275726e2066726f6d20746865207a65726f206164647260008201527f6573730000000000000000000000000000000000000000000000000000000000602082015250565b6000614649602383613053565b9150614654826145ed565b604082019050919050565b600060208201905081810360008301526146788161463c565b9050919050565b7f455243313135353a2069647320616e6420616d6f756e7473206c656e6774682060008201527f6d69736d61746368000000000000000000000000000000000000000000000000602082015250565b60006146db602883613053565b91506146e68261467f565b604082019050919050565b6000602082019050818103600083015261470a816146ce565b9050919050565b7f455243313135353a206275726e20616d6f756e7420657863656564732062616c60008201527f616e636500000000000000000000000000000000000000000000000000000000602082015250565b600061476d602483613053565b915061477882614711565b604082019050919050565b6000602082019050818103600083015261479c81614760565b9050919050565b600060408201905081810360008301526147bd81856136c3565b905081810360208301526147d181846136c3565b90509392505050565b7f455243313135353a207472616e7366657220746f20746865207a65726f20616460008201527f6472657373000000000000000000000000000000000000000000000000000000602082015250565b6000614836602583613053565b9150614841826147da565b604082019050919050565b6000602082019050818103600083015261486581614829565b9050919050565b7f455243313135353a20696e73756666696369656e742062616c616e636520666f60008201527f72207472616e7366657200000000000000000000000000000000000000000000602082015250565b60006148c8602a83613053565b91506148d38261486c565b604082019050919050565b600060208201905081810360008301526148f7816148bb565b9050919050565b600061490982612ec0565b915061491483612ec0565b9250827fffffffffffffffffffffffffffffffffffffffffffffffffffffffffffffffff0382111561494957614948613f9f565b5b828201905092915050565b7f455243313135353a2073657474696e6720617070726f76616c2073746174757360008201527f20666f722073656c660000000000000000000000000000000000000000000000602082015250565b60006149b0602983613053565b91506149bb82614954565b604082019050919050565b600060208201905081810360008301526149df816149a3565b9050919050565b60006040820190506149fb6000830185612f36565b614a086020830184612f36565b9392505050565b7f455243313135353a206d696e7420746f20746865207a65726f2061646472657360008201527f7300000000000000000000000000000000000000000000000000000000000000602082015250565b6000614a6b602183613053565b9150614a7682614a0f565b604082019050919050565b60006020820190508181036000830152614a9a81614a5e565b9050919050565b600081519050919050565b600082825260208201905092915050565b6000614ac882614aa1565b614ad28185614aac565b9350614ae2818560208601613064565b614aeb81613097565b840191505092915050565b600060a082019050614b0b6000830188614016565b614b186020830187614016565b8181036040830152614b2a81866136c3565b90508181036060830152614b3e81856136c3565b90508181036080830152614b528184614abd565b90509695505050505050565b600081519050614b6d81612f8c565b92915050565b600060208284031215614b8957614b88612e58565b5b6000614b9784828501614b5e565b91505092915050565b60008160e01c9050919050565b600060033d1115614bcc5760046000803e614bc9600051614ba0565b90505b90565b600060443d10614c5c57614be1612e4e565b60043d036004823e80513d602482011167ffffffffffffffff82111715614c09575050614c5c565b808201805167ffffffffffffffff811115614c275750505050614c5c565b80602083010160043d038501811115614c44575050505050614c5c565b614c5382602001850186613137565b82955050505050505b90565b7f455243313135353a207472616e7366657220746f206e6f6e2d4552433131353560008201527f526563656976657220696d706c656d656e746572000000000000000000000000602082015250565b6000614cbb603483613053565b9150614cc682614c5f565b604082019050919050565b60006020820190508181036000830152614cea81614cae565b9050919050565b7f455243313135353a204552433131353552656365697665722072656a6563746560008201527f6420746f6b656e73000000000000000000000000000000000000000000000000602082015250565b6000614d4d602883613053565b9150614d5882614cf1565b604082019050919050565b60006020820190508181036000830152614d7c81614d40565b9050919050565b600060a082019050614d986000830188614016565b614da56020830187614016565b614db26040830186612f36565b614dbf6060830185612f36565b8181036080830152614dd18184614abd565b9050969550505050505056fea2646970667358221220b209908fcbf8f8ade60e6dbc1ccdac61bc4c2c9f5fe11809cc3b1ef3be9191fe64736f6c634300080d0033",
  "immutableReferences": {
    "5316": [
      {
        "length": 32,
        "start": 1941
      },
      {
        "length": 32,
        "start": 4341
      },
      {
        "length": 32,
        "start": 5076
      }
    ],
    "5322": [
      {
        "length": 32,
        "start": 2263
      }
    ]
  },
  "source": "// SPDX-License-Identifier: MIT\r\n// Tells the Solidity compiler to compile only from v0.8.13 to v0.9.0\r\npragma solidity ^0.8.13;\r\n\r\nimport \"./base/ERC1155BaseContract.sol\";\r\nimport \"./interfaces/INftClassRegistration.sol\";\r\nimport \"./interfaces/ISchool.sol\";\r\nimport \"./interfaces/INftCompleteCourses.sol\";\r\nimport \"./interfaces/INftGraduation.sol\";\r\nimport \"./interfaces/INftIdentities.sol\";\r\nimport \"./utils/ArrayMath.sol\";\r\n\r\ncontract NftCompleteCourses is ERC1155BaseContract, INftCompleteCourses {\r\n    using Counters for Counters.Counter;\r\n    using ArrayMath for uint256[];\r\n    uint256 constant NFT_COMPLETE_COURSE = 1;\r\n\r\n    uint256 public graduationPrice = 1 ether;\r\n\r\n    bool private _isInitialize;\r\n\r\n    INftIdentities private immutable _nftIdentities;\r\n    ISchool private immutable _school;\r\n    INftClassRegistration private immutable _nftClassRegistration;\r\n    INftGraduation private _nftGraduation;\r\n\r\n    NftCompleteCourse[] private _allNftCompleteCourses;\r\n    mapping(uint256 => mapping(uint256 => uint256)) _posOfTokenIdOfNftType;\r\n\r\n    mapping(uint256 => uint256[]) _studentsOfClass;\r\n    mapping(uint256 => mapping(uint256 => uint256)) _posOfStudentInClass;\r\n    mapping(uint256 => uint256[]) private _studentOwnedCompleteCourseNfts;\r\n    mapping(uint256 => mapping(uint256 => uint256))\r\n        private _posOfOwnedCompleteCourseNft;\r\n\r\n    mapping(uint256 => mapping(uint256 => bool))\r\n        private _completedCoursesOfStudent;\r\n\r\n    event NewCompleteCourseCreated(uint256 tokenId);\r\n\r\n    modifier onlyOwner() {\r\n        require(_owner == msg.sender);\r\n        _;\r\n    }\r\n\r\n    modifier onlySchoolContract() {\r\n        require(msg.sender == address(_school));\r\n        _;\r\n    }\r\n\r\n    modifier canOperate(uint256 role) {\r\n        require(_nftIdentities.isAbleToOperate(msg.sender, role));\r\n        _;\r\n    }\r\n\r\n    constructor(\r\n        address nftIdentities,\r\n        address school,\r\n        address nftClassRegistration\r\n    ) ERC1155BaseContract(\"\") {\r\n        _nftIdentities = INftIdentities(nftIdentities);\r\n        _school = ISchool(school);\r\n        _nftClassRegistration = INftClassRegistration(nftClassRegistration);\r\n    }\r\n\r\n    function initialize(address nftGraduation) public onlyOwner {\r\n        require(!_isInitialize);\r\n        _isInitialize = true;\r\n        _nftGraduation = INftGraduation(nftGraduation);\r\n    }\r\n\r\n    function getOwnedNftCompleteCourse()\r\n        external\r\n        view\r\n        returns (NftCompleteCourse[] memory, string[] memory)\r\n    {\r\n        uint256 studentTokenId = _nftIdentities\r\n            .getNftOfMemberWithRole(uint256(ROLE.STUDENT), msg.sender)\r\n            .nftIdentity\r\n            .tokenId;\r\n        uint256 numberOfNftCompleteCourses = _studentOwnedCompleteCourseNfts[\r\n            studentTokenId\r\n        ].length;\r\n\r\n        NftCompleteCourse[] memory nfts = new NftCompleteCourse[](\r\n            numberOfNftCompleteCourses\r\n        );\r\n        string[] memory nftURIs = new string[](numberOfNftCompleteCourses);\r\n\r\n        for (uint256 idx = 0; idx < numberOfNftCompleteCourses; ++idx) {\r\n            (nfts[idx], nftURIs[idx]) = getNftCompleteCourse(\r\n                _studentOwnedCompleteCourseNfts[studentTokenId][idx]\r\n            );\r\n        }\r\n\r\n        return (nfts, nftURIs);\r\n    }\r\n\r\n    function getNftCompleteCourse(\r\n        uint256 tokenId\r\n    ) public view returns (NftCompleteCourse memory, string memory) {\r\n        uint256 pos = _posOfTokenIdOfNftType[NFT_COMPLETE_COURSE][tokenId];\r\n        require(pos > 0, \"NCC-ERR-00\");\r\n\r\n        return (_allNftCompleteCourses[pos - 1], uri(tokenId));\r\n    }\r\n\r\n    function checkCompleteCourse(\r\n        uint256 courseId,\r\n        address studentAddr\r\n    ) public view returns (bool) {\r\n        uint256 studentTokenId = _nftIdentities\r\n            .getNftOfMemberWithRole(uint256(ROLE.STUDENT), studentAddr)\r\n            .nftIdentity\r\n            .tokenId;\r\n        return _completedCoursesOfStudent[studentTokenId][courseId];\r\n    }\r\n\r\n    function regainNftCompleteCourses(\r\n        uint256 studentTokenId,\r\n        uint256[] memory tokenIds\r\n    ) public {\r\n        require(msg.sender == address(_nftGraduation), \"NCC-ERR-01\");\r\n        require(_nftGraduation.checkExchangeable(studentTokenId), \"NCC-ERR-03\");\r\n        address sender = _nftIdentities.ownerOf(studentTokenId);\r\n\r\n        uint256 count = tokenIds.length;\r\n        uint256[] memory amounts = new uint256[](count);\r\n\r\n        for (uint256 idx; idx < count; ++idx) {\r\n            amounts[idx] = 1;\r\n        }\r\n\r\n        _burnBatch(sender, tokenIds, amounts);\r\n        // _removeFromAllNftCompleteCourses(studentTokenId, tokenIds);\r\n    }\r\n\r\n    function exchangeNftCompleteCourse(\r\n        uint256 nftClassRegistrationTokenId,\r\n        string memory tokenURI\r\n    ) public {\r\n        (\r\n            Class memory class,\r\n            NftIdentity memory nftIdentity\r\n        ) = _nftClassRegistration.regainV2(\r\n                msg.sender,\r\n                nftClassRegistrationTokenId\r\n            );\r\n\r\n        uint256 studentTokenId = nftIdentity.tokenId;\r\n        uint256 tokenId = _mintToken(msg.sender, NFT_COMPLETE_COURSE, tokenURI);\r\n        _createNftCompleteCourse(\r\n            tokenId,\r\n            studentTokenId,\r\n            class.courseId,\r\n            class.knowledgeBlockId,\r\n            class.credits\r\n        );\r\n        _studentOwnedCompleteCourseNfts[studentTokenId].push(tokenId);\r\n        _posOfOwnedCompleteCourseNft[studentTokenId][\r\n            tokenId\r\n        ] = _studentOwnedCompleteCourseNfts[studentTokenId].length;\r\n        _completedCoursesOfStudent[studentTokenId][class.courseId] = true;\r\n        emit NewCompleteCourseCreated(tokenId);\r\n    }\r\n\r\n    function checkAllNftCompleteCoursesRegained(\r\n        uint256[] memory tokenIds\r\n    ) public view returns (bool) {\r\n        uint256 count = tokenIds.length;\r\n\r\n        for (uint256 idx; idx < count; ++idx) {\r\n            if (\r\n                _posOfTokenIdOfNftType[NFT_COMPLETE_COURSE][tokenIds[idx]] > 0\r\n            ) {\r\n                return false;\r\n            }\r\n        }\r\n\r\n        return true;\r\n    }\r\n\r\n    function _createNftCompleteCourse(\r\n        uint256 tokenId,\r\n        uint256 studentTokenId,\r\n        uint256 courseId,\r\n        uint256 knowledgeBlockId,\r\n        uint256 credits\r\n    ) private {\r\n        NftCompleteCourse memory nftCompleteCourse = NftCompleteCourse(\r\n            tokenId,\r\n            studentTokenId,\r\n            courseId,\r\n            knowledgeBlockId,\r\n            credits\r\n        );\r\n        _allNftCompleteCourses.push(nftCompleteCourse);\r\n        _posOfTokenIdOfNftType[NFT_COMPLETE_COURSE][\r\n            tokenId\r\n        ] = _allNftCompleteCourses.length;\r\n    }\r\n\r\n    function _removeFromAllNftCompleteCourses(\r\n        uint256 studentTokenId,\r\n        uint256[] memory tokenIds\r\n    ) public {\r\n        uint256 count = tokenIds.length;\r\n\r\n        for (uint256 idx; idx < count; ++idx) {\r\n            uint256 posOfNftCompleteCourse = _posOfTokenIdOfNftType[\r\n                NFT_COMPLETE_COURSE\r\n            ][tokenIds[idx]];\r\n            uint256 posOfLastNftCompleteCourse = _allNftCompleteCourses.length;\r\n\r\n            NftCompleteCourse\r\n                memory deletedNftCompleteCourse = _allNftCompleteCourses[\r\n                    posOfNftCompleteCourse - 1\r\n                ];\r\n            delete _completedCoursesOfStudent[studentTokenId][\r\n                deletedNftCompleteCourse.courseId\r\n            ];\r\n\r\n            // Remove from owned nft complete courses list\r\n            uint256 posOfOwnedCompleteCourse = _posOfOwnedCompleteCourseNft[\r\n                studentTokenId\r\n            ][tokenIds[idx]];\r\n            uint256 posOfLastOwnedCompleteCourse = _studentOwnedCompleteCourseNfts[\r\n                    studentTokenId\r\n                ].length;\r\n            if (posOfOwnedCompleteCourse < posOfLastOwnedCompleteCourse) {\r\n                uint256 lastTokenId = _studentOwnedCompleteCourseNfts[\r\n                    studentTokenId\r\n                ][posOfLastOwnedCompleteCourse - 1];\r\n                _studentOwnedCompleteCourseNfts[studentTokenId][\r\n                    posOfOwnedCompleteCourse - 1\r\n                ] = lastTokenId;\r\n                _posOfOwnedCompleteCourseNft[studentTokenId][\r\n                    lastTokenId\r\n                ] = posOfOwnedCompleteCourse;\r\n            }\r\n            _studentOwnedCompleteCourseNfts[studentTokenId].pop();\r\n\r\n            // Remove from all nft complete courses\r\n            if (posOfNftCompleteCourse < posOfLastNftCompleteCourse) {\r\n                NftCompleteCourse\r\n                    memory lastNftCompleteCourse = _allNftCompleteCourses[\r\n                        posOfLastNftCompleteCourse - 1\r\n                    ];\r\n                _allNftCompleteCourses[\r\n                    posOfNftCompleteCourse - 1\r\n                ] = lastNftCompleteCourse;\r\n                _posOfTokenIdOfNftType[NFT_COMPLETE_COURSE][\r\n                    lastNftCompleteCourse.tokenId\r\n                ] = posOfNftCompleteCourse;\r\n            }\r\n            delete _posOfTokenIdOfNftType[NFT_COMPLETE_COURSE][tokenIds[idx]];\r\n            _allNftCompleteCourses.pop();\r\n        }\r\n    }\r\n}\r\n",
  "sourcePath": "E:\\learn\\learn-to-earn\\blockchain\\contracts\\NftCompleteCourses.sol",
  "compiler": {
    "name": "solc",
    "version": "0.8.13+commit.abaa5c0e.Emscripten.clang"
  },
  "schemaVersion": "3.4.13",
  "updatedAt": "2023-07-20T00:38:52.815Z",
  "networkType": "ethereum",
  "devdoc": {
    "kind": "dev",
    "methods": {
      "balanceOf(address,uint256)": {
        "details": "See {IERC1155-balanceOf}. Requirements: - `account` cannot be the zero address."
      },
      "balanceOfBatch(address[],uint256[])": {
        "details": "See {IERC1155-balanceOfBatch}. Requirements: - `accounts` and `ids` must have the same length."
      },
      "isApprovedForAll(address,address)": {
        "details": "See {IERC1155-isApprovedForAll}."
      },
      "safeBatchTransferFrom(address,address,uint256[],uint256[],bytes)": {
        "details": "See {IERC1155-safeBatchTransferFrom}."
      },
      "safeTransferFrom(address,address,uint256,uint256,bytes)": {
        "details": "See {IERC1155-safeTransferFrom}."
      },
      "setApprovalForAll(address,bool)": {
        "details": "See {IERC1155-setApprovalForAll}."
      },
      "supportsInterface(bytes4)": {
        "details": "See {IERC165-supportsInterface}."
      },
      "uri(uint256)": {
        "details": "See {IERC1155MetadataURI-uri}. This implementation returns the concatenation of the `_baseURI` and the token-specific uri if the latter is set This enables the following behaviors: - if `_tokenURIs[tokenId]` is set, then the result is the concatenation   of `_baseURI` and `_tokenURIs[tokenId]` (keep in mind that `_baseURI`   is empty per default); - if `_tokenURIs[tokenId]` is NOT set then we fallback to `super.uri()`   which in most cases will contain `ERC1155._uri`; - if `_tokenURIs[tokenId]` is NOT set, and if the parents do not have a   uri value set, then the result is empty."
      }
    },
    "version": 1
  },
  "userdoc": {
    "kind": "user",
    "methods": {},
    "version": 1
  }
}