{
  "contractName": "NftCertificates",
  "abi": [
    {
      "inputs": [
        {
          "internalType": "address",
          "name": "nftIdentities",
          "type": "address"
        },
        {
          "internalType": "address",
          "name": "nftSchool",
          "type": "address"
        },
        {
          "internalType": "address",
          "name": "nftClassRegistration",
          "type": "address"
        }
      ],
      "stateMutability": "nonpayable",
      "type": "constructor"
    },
    {
      "anonymous": false,
      "inputs": [
        {
          "indexed": true,
          "internalType": "address",
          "name": "account",
          "type": "address"
        },
        {
          "indexed": true,
          "internalType": "address",
          "name": "operator",
          "type": "address"
        },
        {
          "indexed": false,
          "internalType": "bool",
          "name": "approved",
          "type": "bool"
        }
      ],
      "name": "ApprovalForAll",
      "type": "event"
    },
    {
      "anonymous": false,
      "inputs": [
        {
          "indexed": false,
          "internalType": "uint256",
          "name": "tokenId",
          "type": "uint256"
        }
      ],
      "name": "NewCompleteCourseCreated",
      "type": "event"
    },
    {
      "anonymous": false,
      "inputs": [
        {
          "indexed": true,
          "internalType": "address",
          "name": "operator",
          "type": "address"
        },
        {
          "indexed": true,
          "internalType": "address",
          "name": "from",
          "type": "address"
        },
        {
          "indexed": true,
          "internalType": "address",
          "name": "to",
          "type": "address"
        },
        {
          "indexed": false,
          "internalType": "uint256[]",
          "name": "ids",
          "type": "uint256[]"
        },
        {
          "indexed": false,
          "internalType": "uint256[]",
          "name": "values",
          "type": "uint256[]"
        }
      ],
      "name": "TransferBatch",
      "type": "event"
    },
    {
      "anonymous": false,
      "inputs": [
        {
          "indexed": true,
          "internalType": "address",
          "name": "operator",
          "type": "address"
        },
        {
          "indexed": true,
          "internalType": "address",
          "name": "from",
          "type": "address"
        },
        {
          "indexed": true,
          "internalType": "address",
          "name": "to",
          "type": "address"
        },
        {
          "indexed": false,
          "internalType": "uint256",
          "name": "id",
          "type": "uint256"
        },
        {
          "indexed": false,
          "internalType": "uint256",
          "name": "value",
          "type": "uint256"
        }
      ],
      "name": "TransferSingle",
      "type": "event"
    },
    {
      "anonymous": false,
      "inputs": [
        {
          "indexed": false,
          "internalType": "string",
          "name": "value",
          "type": "string"
        },
        {
          "indexed": true,
          "internalType": "uint256",
          "name": "id",
          "type": "uint256"
        }
      ],
      "name": "URI",
      "type": "event"
    },
    {
      "inputs": [
        {
          "internalType": "address",
          "name": "account",
          "type": "address"
        },
        {
          "internalType": "uint256",
          "name": "id",
          "type": "uint256"
        }
      ],
      "name": "balanceOf",
      "outputs": [
        {
          "internalType": "uint256",
          "name": "",
          "type": "uint256"
        }
      ],
      "stateMutability": "view",
      "type": "function",
      "constant": true
    },
    {
      "inputs": [
        {
          "internalType": "address[]",
          "name": "accounts",
          "type": "address[]"
        },
        {
          "internalType": "uint256[]",
          "name": "ids",
          "type": "uint256[]"
        }
      ],
      "name": "balanceOfBatch",
      "outputs": [
        {
          "internalType": "uint256[]",
          "name": "",
          "type": "uint256[]"
        }
      ],
      "stateMutability": "view",
      "type": "function",
      "constant": true
    },
    {
      "inputs": [],
      "name": "graduationPrice",
      "outputs": [
        {
          "internalType": "uint256",
          "name": "",
          "type": "uint256"
        }
      ],
      "stateMutability": "view",
      "type": "function",
      "constant": true
    },
    {
      "inputs": [
        {
          "internalType": "address",
          "name": "account",
          "type": "address"
        },
        {
          "internalType": "address",
          "name": "operator",
          "type": "address"
        }
      ],
      "name": "isApprovedForAll",
      "outputs": [
        {
          "internalType": "bool",
          "name": "",
          "type": "bool"
        }
      ],
      "stateMutability": "view",
      "type": "function",
      "constant": true
    },
    {
      "inputs": [],
      "name": "registeredEndAt",
      "outputs": [
        {
          "internalType": "uint256",
          "name": "",
          "type": "uint256"
        }
      ],
      "stateMutability": "view",
      "type": "function",
      "constant": true
    },
    {
      "inputs": [],
      "name": "registeredStartAt",
      "outputs": [
        {
          "internalType": "uint256",
          "name": "",
          "type": "uint256"
        }
      ],
      "stateMutability": "view",
      "type": "function",
      "constant": true
    },
    {
      "inputs": [
        {
          "internalType": "address",
          "name": "from",
          "type": "address"
        },
        {
          "internalType": "address",
          "name": "to",
          "type": "address"
        },
        {
          "internalType": "uint256[]",
          "name": "ids",
          "type": "uint256[]"
        },
        {
          "internalType": "uint256[]",
          "name": "amounts",
          "type": "uint256[]"
        },
        {
          "internalType": "bytes",
          "name": "data",
          "type": "bytes"
        }
      ],
      "name": "safeBatchTransferFrom",
      "outputs": [],
      "stateMutability": "nonpayable",
      "type": "function"
    },
    {
      "inputs": [
        {
          "internalType": "address",
          "name": "from",
          "type": "address"
        },
        {
          "internalType": "address",
          "name": "to",
          "type": "address"
        },
        {
          "internalType": "uint256",
          "name": "id",
          "type": "uint256"
        },
        {
          "internalType": "uint256",
          "name": "amount",
          "type": "uint256"
        },
        {
          "internalType": "bytes",
          "name": "data",
          "type": "bytes"
        }
      ],
      "name": "safeTransferFrom",
      "outputs": [],
      "stateMutability": "nonpayable",
      "type": "function"
    },
    {
      "inputs": [
        {
          "internalType": "address",
          "name": "operator",
          "type": "address"
        },
        {
          "internalType": "bool",
          "name": "approved",
          "type": "bool"
        }
      ],
      "name": "setApprovalForAll",
      "outputs": [],
      "stateMutability": "nonpayable",
      "type": "function"
    },
    {
      "inputs": [
        {
          "internalType": "bytes4",
          "name": "interfaceId",
          "type": "bytes4"
        }
      ],
      "name": "supportsInterface",
      "outputs": [
        {
          "internalType": "bool",
          "name": "",
          "type": "bool"
        }
      ],
      "stateMutability": "view",
      "type": "function",
      "constant": true
    },
    {
      "inputs": [
        {
          "internalType": "uint256",
          "name": "tokenId",
          "type": "uint256"
        }
      ],
      "name": "uri",
      "outputs": [
        {
          "internalType": "string",
          "name": "",
          "type": "string"
        }
      ],
      "stateMutability": "view",
      "type": "function",
      "constant": true
    },
    {
      "inputs": [],
      "name": "yearId",
      "outputs": [
        {
          "internalType": "uint256",
          "name": "",
          "type": "uint256"
        }
      ],
      "stateMutability": "view",
      "type": "function",
      "constant": true
    },
    {
      "inputs": [
        {
          "internalType": "address",
          "name": "nftGraduation",
          "type": "address"
        }
      ],
      "name": "initialize",
      "outputs": [],
      "stateMutability": "nonpayable",
      "type": "function"
    },
    {
      "inputs": [],
      "name": "getOwnedNftCompleteCourse",
      "outputs": [
        {
          "components": [
            {
              "internalType": "uint256",
              "name": "tokenId",
              "type": "uint256"
            },
            {
              "internalType": "uint256",
              "name": "courseId",
              "type": "uint256"
            },
            {
              "internalType": "uint256",
              "name": "knowledgeBlockId",
              "type": "uint256"
            },
            {
              "internalType": "uint256",
              "name": "credits",
              "type": "uint256"
            },
            {
              "internalType": "uint256",
              "name": "avgScore",
              "type": "uint256"
            },
            {
              "internalType": "uint256",
              "name": "status",
              "type": "uint256"
            }
          ],
          "internalType": "struct IConstant.NftCompleteCourse[]",
          "name": "",
          "type": "tuple[]"
        },
        {
          "internalType": "string[]",
          "name": "",
          "type": "string[]"
        }
      ],
      "stateMutability": "view",
      "type": "function",
      "constant": true
    },
    {
      "inputs": [
        {
          "internalType": "uint256",
          "name": "tokenId",
          "type": "uint256"
        }
      ],
      "name": "getNftCompleteCourse",
      "outputs": [
        {
          "components": [
            {
              "internalType": "uint256",
              "name": "tokenId",
              "type": "uint256"
            },
            {
              "internalType": "uint256",
              "name": "courseId",
              "type": "uint256"
            },
            {
              "internalType": "uint256",
              "name": "knowledgeBlockId",
              "type": "uint256"
            },
            {
              "internalType": "uint256",
              "name": "credits",
              "type": "uint256"
            },
            {
              "internalType": "uint256",
              "name": "avgScore",
              "type": "uint256"
            },
            {
              "internalType": "uint256",
              "name": "status",
              "type": "uint256"
            }
          ],
          "internalType": "struct IConstant.NftCompleteCourse",
          "name": "",
          "type": "tuple"
        },
        {
          "internalType": "string",
          "name": "",
          "type": "string"
        }
      ],
      "stateMutability": "view",
      "type": "function",
      "constant": true
    },
    {
      "inputs": [
        {
          "internalType": "uint256",
          "name": "classId",
          "type": "uint256"
        },
        {
          "internalType": "uint256",
          "name": "studentTokenId",
          "type": "uint256"
        }
      ],
      "name": "checkInQueue",
      "outputs": [
        {
          "internalType": "bool",
          "name": "",
          "type": "bool"
        }
      ],
      "stateMutability": "view",
      "type": "function",
      "constant": true
    },
    {
      "inputs": [
        {
          "internalType": "uint256",
          "name": "classId",
          "type": "uint256"
        }
      ],
      "name": "getNftCompleteCourseCreationQueueByClassId",
      "outputs": [
        {
          "internalType": "uint256[]",
          "name": "",
          "type": "uint256[]"
        }
      ],
      "stateMutability": "view",
      "type": "function",
      "constant": true
    },
    {
      "inputs": [
        {
          "internalType": "uint256",
          "name": "studentTokenId",
          "type": "uint256"
        },
        {
          "internalType": "uint256",
          "name": "tokenId",
          "type": "uint256"
        }
      ],
      "name": "addToNftCompleteCourseCreationQueue",
      "outputs": [],
      "stateMutability": "nonpayable",
      "type": "function"
    },
    {
      "inputs": [
        {
          "internalType": "uint256",
          "name": "studentTokenId",
          "type": "uint256"
        },
        {
          "internalType": "uint256",
          "name": "avgScore",
          "type": "uint256"
        },
        {
          "internalType": "uint256",
          "name": "status",
          "type": "uint256"
        },
        {
          "internalType": "uint256",
          "name": "classId",
          "type": "uint256"
        },
        {
          "internalType": "string",
          "name": "tokenURI",
          "type": "string"
        }
      ],
      "name": "grantNftCompleteCourse",
      "outputs": [],
      "stateMutability": "nonpayable",
      "type": "function"
    },
    {
      "inputs": [
        {
          "internalType": "uint256",
          "name": "courseId",
          "type": "uint256"
        },
        {
          "internalType": "address",
          "name": "studentAddr",
          "type": "address"
        }
      ],
      "name": "checkCompleteCourse",
      "outputs": [
        {
          "internalType": "bool",
          "name": "",
          "type": "bool"
        }
      ],
      "stateMutability": "view",
      "type": "function",
      "constant": true
    },
    {
      "inputs": [
        {
          "internalType": "address",
          "name": "sender",
          "type": "address"
        },
        {
          "internalType": "address",
          "name": "owner",
          "type": "address"
        }
      ],
      "name": "checkApprovedForAll",
      "outputs": [
        {
          "internalType": "bool",
          "name": "",
          "type": "bool"
        }
      ],
      "stateMutability": "view",
      "type": "function",
      "constant": true
    },
    {
      "inputs": [
        {
          "internalType": "uint256",
          "name": "studentTokenId",
          "type": "uint256"
        }
      ],
      "name": "regainNftCompleteCourses",
      "outputs": [],
      "stateMutability": "nonpayable",
      "type": "function"
    },
    {
      "inputs": [
        {
          "internalType": "uint256",
          "name": "studentTokenId",
          "type": "uint256"
        },
        {
          "internalType": "uint256[]",
          "name": "tokenIds",
          "type": "uint256[]"
        }
      ],
      "name": "_removeFromAllNftCompleteCourses",
      "outputs": [],
      "stateMutability": "nonpayable",
      "type": "function"
    },
    {
      "inputs": [
        {
          "internalType": "uint256[]",
          "name": "tokenIds",
          "type": "uint256[]"
        }
      ],
      "name": "checkAllNftCompleteCoursesRegained",
      "outputs": [
        {
          "internalType": "bool",
          "name": "",
          "type": "bool"
        }
      ],
      "stateMutability": "view",
      "type": "function",
      "constant": true
    }
  ],
  "bytecode": "0x60e060405260405180602001604052806000815250600390805190602001906200002b92919062000191565b50670de0b6b3a76400006008553480156200004557600080fd5b5060405162005e9438038062005e9483398181016040528101906200006b9190620002ab565b60405180602001604052806000815250806200008d816200017560201b60201c565b5033600560006101000a81548173ffffffffffffffffffffffffffffffffffffffff021916908373ffffffffffffffffffffffffffffffffffffffff160217905550508273ffffffffffffffffffffffffffffffffffffffff1660808173ffffffffffffffffffffffffffffffffffffffff16815250508173ffffffffffffffffffffffffffffffffffffffff1660a08173ffffffffffffffffffffffffffffffffffffffff16815250508073ffffffffffffffffffffffffffffffffffffffff1660c08173ffffffffffffffffffffffffffffffffffffffff16815250505050506200036b565b80600290805190602001906200018d92919062000191565b5050565b8280546200019f9062000336565b90600052602060002090601f016020900481019282620001c357600085556200020f565b82601f10620001de57805160ff19168380011785556200020f565b828001600101855582156200020f579182015b828111156200020e578251825591602001919060010190620001f1565b5b5090506200021e919062000222565b5090565b5b808211156200023d57600081600090555060010162000223565b5090565b600080fd5b600073ffffffffffffffffffffffffffffffffffffffff82169050919050565b6000620002738262000246565b9050919050565b620002858162000266565b81146200029157600080fd5b50565b600081519050620002a5816200027a565b92915050565b600080600060608486031215620002c757620002c662000241565b5b6000620002d78682870162000294565b9350506020620002ea8682870162000294565b9250506040620002fd8682870162000294565b9150509250925092565b7f4e487b7100000000000000000000000000000000000000000000000000000000600052602260045260246000fd5b600060028204905060018216806200034f57607f821691505b60208210810362000365576200036462000307565b5b50919050565b60805160a05160c051615ac8620003cc600039600081816112850152611bf70152600081816113ab0152611c950152600081816106f20152818161105b0152818161144e01528181611505015281816119ce0152611d3c0152615ac86000f3fe608060405234801561001057600080fd5b50600436106101575760003560e01c806385c7744c116100c3578063d86044411161007c578063d86044411461040f578063df264a5e1461043f578063df4e48911461045e578063e839227d1461047c578063e985e9c514610498578063f242432a146104c857610157565b806385c7744c1461034e5780638f03802d1461037f578063a22cb4651461039d578063a6e97d6e146103b9578063af0d1cb5146103d5578063c4d66de8146103f357610157565b8063422b0a5011610115578063422b0a50146102425780634e1273f41461027257806359619d31146102a25780636987d038146102d25780636eabe75f146102ee5780637a4ec7d91461031e57610157565b8062fdd58e1461015c57806301ffc9a71461018c57806303ece623146101bc57806307971af8146101da5780630e89341c146101f65780632eb2c2d614610226575b600080fd5b61017660048036038101906101719190613891565b6104e4565b60405161018391906138e0565b60405180910390f35b6101a660048036038101906101a19190613953565b6105ac565b6040516101b3919061399b565b60405180910390f35b6101c461068e565b6040516101d191906138e0565b60405180910390f35b6101f460048036038101906101ef91906139b6565b610694565b005b610210600480360381019061020b91906139b6565b610949565b60405161021d9190613a7c565b60405180910390f35b610240600480360381019061023b9190613c9b565b610a2e565b005b61025c60048036038101906102579190613d6a565b610acf565b604051610269919061399b565b60405180910390f35b61028c60048036038101906102879190613e6d565b610ae3565b6040516102999190613fa3565b60405180910390f35b6102bc60048036038101906102b79190613fc5565b610bfc565b6040516102c9919061399b565b60405180910390f35b6102ec60048036038101906102e7919061400e565b610c7e565b005b6103086004803603810190610303919061406a565b611056565b604051610315919061399b565b60405180910390f35b610338600480360381019061033391906140aa565b611152565b604051610345919061399b565b60405180910390f35b610368600480360381019061036391906139b6565b611183565b604051610376929190614165565b60405180910390f35b61038761124f565b60405161039491906138e0565b60405180910390f35b6103b760048036038101906103b291906141c1565b611255565b005b6103d360048036038101906103ce91906142a2565b61126b565b005b6103dd611883565b6040516103ea91906138e0565b60405180910390f35b61040d60048036038101906104089190614339565b611889565b005b610429600480360381019061042491906139b6565b61195c565b6040516104369190613fa3565b60405180910390f35b6104476119c7565b60405161045592919061459c565b60405180910390f35b610466611bed565b60405161047391906138e0565b60405180910390f35b610496600480360381019061049191906140aa565b611bf3565b005b6104b260048036038101906104ad9190613d6a565b611f79565b6040516104bf919061399b565b60405180910390f35b6104e260048036038101906104dd91906145d3565b61200d565b005b60008073ffffffffffffffffffffffffffffffffffffffff168373ffffffffffffffffffffffffffffffffffffffff1603610554576040517f08c379a000000000000000000000000000000000000000000000000000000000815260040161054b906146dc565b60405180910390fd5b60008083815260200190815260200160002060008473ffffffffffffffffffffffffffffffffffffffff1673ffffffffffffffffffffffffffffffffffffffff16815260200190815260200160002054905092915050565b60007fd9b67a26000000000000000000000000000000000000000000000000000000007bffffffffffffffffffffffffffffffffffffffffffffffffffffffff1916827bffffffffffffffffffffffffffffffffffffffffffffffffffffffff1916148061067757507f0e89341c000000000000000000000000000000000000000000000000000000007bffffffffffffffffffffffffffffffffffffffffffffffffffffffff1916827bffffffffffffffffffffffffffffffffffffffffffffffffffffffff1916145b806106875750610686826120ae565b5b9050919050565b60085481565b3373ffffffffffffffffffffffffffffffffffffffff16600560009054906101000a900473ffffffffffffffffffffffffffffffffffffffff1673ffffffffffffffffffffffffffffffffffffffff16146106ee57600080fd5b60007f000000000000000000000000000000000000000000000000000000000000000073ffffffffffffffffffffffffffffffffffffffff16636352211e836040518263ffffffff1660e01b815260040161074991906138e0565b602060405180830381865afa158015610766573d6000803e3d6000fd5b505050506040513d601f19601f8201168201806040525081019061078a9190614711565b90506107b881600560009054906101000a900473ffffffffffffffffffffffffffffffffffffffff16610acf565b6107f7576040517f08c379a00000000000000000000000000000000000000000000000000000000081526004016107ee9061478a565b60405180910390fd5b6000600a60019054906101000a900473ffffffffffffffffffffffffffffffffffffffff1673ffffffffffffffffffffffffffffffffffffffff1663c000fb08846040518263ffffffff1660e01b815260040161085491906138e0565b600060405180830381865afa158015610871573d6000803e3d6000fd5b505050506040513d6000823e3d601f19601f8201168201806040525081019061089a9190614856565b905060008151905060008167ffffffffffffffff8111156108be576108bd613aa3565b5b6040519080825280602002602001820160405280156108ec5781602001602082028036833780820191505090505b50905060005b8281101561092c57600182828151811061090f5761090e61489f565b5b60200260200101818152505080610925906148fd565b90506108f2565b50610938848483612118565b6109428584610c7e565b5050505050565b6060600060046000848152602001908152602001600020805461096b90614974565b80601f016020809104026020016040519081016040528092919081815260200182805461099790614974565b80156109e45780601f106109b9576101008083540402835291602001916109e4565b820191906000526020600020905b8154815290600101906020018083116109c757829003601f168201915b505050505090506000815111610a02576109fd836123e6565b610a26565b600381604051602001610a16929190614a75565b6040516020818303038152906040525b915050919050565b610a3661247a565b73ffffffffffffffffffffffffffffffffffffffff168573ffffffffffffffffffffffffffffffffffffffff161480610a7c5750610a7b85610a7661247a565b611f79565b5b610abb576040517f08c379a0000000000000000000000000000000000000000000000000000000008152600401610ab290614b0b565b60405180910390fd5b610ac88585858585612482565b5050505050565b6000610adb8383611f79565b905092915050565b60608151835114610b29576040517f08c379a0000000000000000000000000000000000000000000000000000000008152600401610b2090614b9d565b60405180910390fd5b6000835167ffffffffffffffff811115610b4657610b45613aa3565b5b604051908082528060200260200182016040528015610b745781602001602082028036833780820191505090505b50905060005b8451811015610bf157610bc1858281518110610b9957610b9861489f565b5b6020026020010151858381518110610bb457610bb361489f565b5b60200260200101516104e4565b828281518110610bd457610bd361489f565b5b60200260200101818152505080610bea906148fd565b9050610b7a565b508091505092915050565b6000808251905060005b81811015610c72576000600f6000600181526020019081526020016000206000868481518110610c3957610c3861489f565b5b60200260200101518152602001908152602001600020541115610c6157600092505050610c79565b80610c6b906148fd565b9050610c06565b5060019150505b919050565b60008151905060005b81811015611050576000600f6000600181526020019081526020016000206000858481518110610cba57610cb961489f565b5b602002602001015181526020019081526020016000205490506000600e8054905090506000600e600184610cee9190614bbd565b81548110610cff57610cfe61489f565b5b90600052602060002090600602016040518060c0016040529081600082015481526020016001820154815260200160028201548152602001600382015481526020016004820154815260200160058201548152505090506016600088815260200190815260200160002060008260200151815260200190815260200160002060006101000a81549060ff02191690556000601360008981526020019081526020016000206000888781518110610db857610db761489f565b5b602002602001015181526020019081526020016000205490506000601260008a815260200190815260200160002080549050905080821015610e9f576000601260008b8152602001908152602001600020600183610e169190614bbd565b81548110610e2757610e2661489f565b5b9060005260206000200154905080601260008c8152602001908152602001600020600185610e559190614bbd565b81548110610e6657610e6561489f565b5b906000526020600020018190555082601360008c8152602001908152602001600020600083815260200190815260200160002081905550505b601260008a8152602001908152602001600020805480610ec257610ec1614bf1565b5b6001900381819060005260206000200160009055905583851015610ff7576000600e600186610ef19190614bbd565b81548110610f0257610f0161489f565b5b90600052602060002090600602016040518060c00160405290816000820154815260200160018201548152602001600282015481526020016003820154815260200160048201548152602001600582015481525050905080600e600188610f699190614bbd565b81548110610f7a57610f7961489f565b5b9060005260206000209060060201600082015181600001556020820151816001015560408201518160020155606082015181600301556080820151816004015560a0820151816005015590505085600f60006001815260200190815260200160002060008360000151815260200190815260200160002081905550505b600f60006001815260200190815260200160002060008988815181106110205761101f61489f565b5b6020026020010151815260200190815260200160002060009055505050505080611049906148fd565b9050610c87565b50505050565b6000807f000000000000000000000000000000000000000000000000000000000000000073ffffffffffffffffffffffffffffffffffffffff166352db77c4600060018111156110a9576110a8614c20565b5b856040518363ffffffff1660e01b81526004016110c7929190614c5e565b600060405180830381865afa1580156110e4573d6000803e3d6000fd5b505050506040513d6000823e3d601f19601f8201168201806040525081019061110d9190614e0e565b6000015160000151905060166000828152602001908152602001600020600085815260200190815260200160002060009054906101000a900460ff1691505092915050565b6000806015600085815260200190815260200160002060008481526020019081526020016000205411905092915050565b61118b613710565b60606000600f6000600181526020019081526020016000206000858152602001908152602001600020549050600081116111c457600080fd5b600e6001826111d39190614bbd565b815481106111e4576111e361489f565b5b90600052602060002090600602016111fb85610949565b816040518060c0016040529081600082015481526020016001820154815260200160028201548152602001600382015481526020016004820154815260200160058201548152505091509250925050915091565b600c5481565b61126761126061247a565b83836127a3565b5050565b600083148061127a5750600183145b61128357600080fd5b7f000000000000000000000000000000000000000000000000000000000000000073ffffffffffffffffffffffffffffffffffffffff166354c0893386846040518363ffffffff1660e01b81526004016112de929190614e57565b602060405180830381865afa1580156112fb573d6000803e3d6000fd5b505050506040513d601f19601f8201168201806040525081019061131f9190614e80565b61135e576040517f08c379a000000000000000000000000000000000000000000000000000000000815260040161135590614ef9565b60405180910390fd5b6113688286611152565b6113a7576040517f08c379a000000000000000000000000000000000000000000000000000000000815260040161139e90614f65565b60405180910390fd5b60007f000000000000000000000000000000000000000000000000000000000000000073ffffffffffffffffffffffffffffffffffffffff166303d658e0846040518263ffffffff1660e01b815260040161140291906138e0565b600060405180830381865afa15801561141f573d6000803e3d6000fd5b505050506040513d6000823e3d601f19601f8201168201806040525081019061144891906150ad565b905060007f000000000000000000000000000000000000000000000000000000000000000073ffffffffffffffffffffffffffffffffffffffff166352db77c460018081111561149b5761149a614c20565b5b336040518363ffffffff1660e01b81526004016114b9929190614c5e565b600060405180830381865afa1580156114d6573d6000803e3d6000fd5b505050506040513d6000823e3d601f19601f820116820180604052508101906114ff9190614e0e565b905060007f000000000000000000000000000000000000000000000000000000000000000073ffffffffffffffffffffffffffffffffffffffff16636352211e896040518263ffffffff1660e01b815260040161155c91906138e0565b602060405180830381865afa158015611579573d6000803e3d6000fd5b505050506040513d601f19601f8201168201806040525081019061159d9190614711565b90508160000151600001518360e00151146115ed576040517f08c379a00000000000000000000000000000000000000000000000000000000081526004016115e490615142565b60405180910390fd5b816060015115611632576040517f08c379a0000000000000000000000000000000000000000000000000000000008152600401611629906151ae565b60405180910390fd5b60006116408260018761290f565b905061165c818560200151866040015187608001518c8c612984565b601260008a8152602001908152602001600020819080600181540180825580915050600190039060005260206000200160009091909190915055601260008a815260200190815260200160002080549050601360008b81526020019081526020016000206000838152602001908152602001600020819055506001601660008b815260200190815260200160002060008660200151815260200190815260200160002060006101000a81548160ff02191690831515021790555060006015600088815260200190815260200160002060008b8152602001908152602001600020549050600060146000898152602001908152602001600020805490509050808210156117de57601460008981526020019081526020016000206001826117829190614bbd565b815481106117935761179261489f565b5b9060005260206000200154601460008a81526020019081526020016000206001846117be9190614bbd565b815481106117cf576117ce61489f565b5b90600052602060002001819055505b6014600089815260200190815260200160002080548061180157611800614bf1565b5b600190038181906000526020600020016000905590556015600089815260200190815260200160002060008c8152602001908152602001600020600090557fa1ce3ead8e83e3d0d7c8fba00e72fcba3265aee4a21c5886129dc80211f27d098360405161186e91906138e0565b60405180910390a15050505050505050505050565b600b5481565b3373ffffffffffffffffffffffffffffffffffffffff16600560009054906101000a900473ffffffffffffffffffffffffffffffffffffffff1673ffffffffffffffffffffffffffffffffffffffff16146118e357600080fd5b600a60009054906101000a900460ff16156118fd57600080fd5b6001600a60006101000a81548160ff02191690831515021790555080600a60016101000a81548173ffffffffffffffffffffffffffffffffffffffff021916908373ffffffffffffffffffffffffffffffffffffffff16021790555050565b6060601460008381526020019081526020016000208054806020026020016040519081016040528092919081815260200182805480156119bb57602002820191906000526020600020905b8154815260200190600101908083116119a7575b50505050509050919050565b60608060007f000000000000000000000000000000000000000000000000000000000000000073ffffffffffffffffffffffffffffffffffffffff166352db77c460006001811115611a1c57611a1b614c20565b5b336040518363ffffffff1660e01b8152600401611a3a929190614c5e565b600060405180830381865afa158015611a57573d6000803e3d6000fd5b505050506040513d6000823e3d601f19601f82011682018060405250810190611a809190614e0e565b6000015160000151905060006012600083815260200190815260200160002080549050905060008167ffffffffffffffff811115611ac157611ac0613aa3565b5b604051908082528060200260200182016040528015611afa57816020015b611ae7613710565b815260200190600190039081611adf5790505b50905060008267ffffffffffffffff811115611b1957611b18613aa3565b5b604051908082528060200260200182016040528015611b4c57816020015b6060815260200190600190039081611b375790505b50905060005b838111611bde57611b91601260008781526020019081526020016000208281548110611b8157611b8061489f565b5b9060005260206000200154611183565b848381518110611ba457611ba361489f565b5b60200260200101848481518110611bbe57611bbd61489f565b5b60200260200101829052829052505080611bd7906148fd565b9050611b52565b50818195509550505050509091565b600d5481565b60007f000000000000000000000000000000000000000000000000000000000000000073ffffffffffffffffffffffffffffffffffffffff1663a24a7c30836040518263ffffffff1660e01b8152600401611c4e91906138e0565b606060405180830381865afa158015611c6b573d6000803e3d6000fd5b505050506040513d601f19601f82011682018060405250810190611c8f9190615232565b905060007f000000000000000000000000000000000000000000000000000000000000000073ffffffffffffffffffffffffffffffffffffffff166303d658e083602001516040518263ffffffff1660e01b8152600401611cf091906138e0565b600060405180830381865afa158015611d0d573d6000803e3d6000fd5b505050506040513d6000823e3d601f19601f82011682018060405250810190611d3691906150ad565b905060007f000000000000000000000000000000000000000000000000000000000000000073ffffffffffffffffffffffffffffffffffffffff166352db77c4600180811115611d8957611d88614c20565b5b336040518363ffffffff1660e01b8152600401611da7929190614c5e565b600060405180830381865afa158015611dc4573d6000803e3d6000fd5b505050506040513d6000823e3d601f19601f82011682018060405250810190611ded9190614e0e565b9050806060015115611e34576040517f08c379a0000000000000000000000000000000000000000000000000000000008152600401611e2b906151ae565b60405180910390fd5b8060000151600001518260e0015114611e82576040517f08c379a0000000000000000000000000000000000000000000000000000000008152600401611e7990615142565b60405180910390fd5b6000601560008560200151815260200190815260200160002060008781526020019081526020016000205414611eed576040517f08c379a0000000000000000000000000000000000000000000000000000000008152600401611ee4906152ab565b60405180910390fd5b601460008460200151815260200190815260200160002085908060018154018082558091505060019003906000526020600020016000909190919091505560146000846020015181526020019081526020016000208054905060156000856020015181526020019081526020016000206000878152602001908152602001600020819055505050505050565b6000600160008473ffffffffffffffffffffffffffffffffffffffff1673ffffffffffffffffffffffffffffffffffffffff16815260200190815260200160002060008373ffffffffffffffffffffffffffffffffffffffff1673ffffffffffffffffffffffffffffffffffffffff16815260200190815260200160002060009054906101000a900460ff16905092915050565b61201561247a565b73ffffffffffffffffffffffffffffffffffffffff168573ffffffffffffffffffffffffffffffffffffffff16148061205b575061205a8561205561247a565b611f79565b5b61209a576040517f08c379a000000000000000000000000000000000000000000000000000000000815260040161209190614b0b565b60405180910390fd5b6120a78585858585612a57565b5050505050565b60007f01ffc9a7000000000000000000000000000000000000000000000000000000007bffffffffffffffffffffffffffffffffffffffffffffffffffffffff1916827bffffffffffffffffffffffffffffffffffffffffffffffffffffffff1916149050919050565b600073ffffffffffffffffffffffffffffffffffffffff168373ffffffffffffffffffffffffffffffffffffffff1603612187576040517f08c379a000000000000000000000000000000000000000000000000000000000815260040161217e9061533d565b60405180910390fd5b80518251146121cb576040517f08c379a00000000000000000000000000000000000000000000000000000000081526004016121c2906153cf565b60405180910390fd5b60006121d561247a565b90506121f581856000868660405180602001604052806000815250612cf2565b60005b83518110156123425760008482815181106122165761221561489f565b5b6020026020010151905060008483815181106122355761223461489f565b5b60200260200101519050600080600084815260200190815260200160002060008973ffffffffffffffffffffffffffffffffffffffff1673ffffffffffffffffffffffffffffffffffffffff168152602001908152602001600020549050818110156122d6576040517f08c379a00000000000000000000000000000000000000000000000000000000081526004016122cd90615461565b60405180910390fd5b81810360008085815260200190815260200160002060008a73ffffffffffffffffffffffffffffffffffffffff1673ffffffffffffffffffffffffffffffffffffffff16815260200190815260200160002081905550505050808061233a906148fd565b9150506121f8565b50600073ffffffffffffffffffffffffffffffffffffffff168473ffffffffffffffffffffffffffffffffffffffff168273ffffffffffffffffffffffffffffffffffffffff167f4a39dc06d4c0dbc64b70af90fd698a233a518aa5d07e595d983b8c0526c8f7fb86866040516123ba929190615481565b60405180910390a46123e08185600086866040518060200160405280600081525061301c565b50505050565b6060600280546123f590614974565b80601f016020809104026020016040519081016040528092919081815260200182805461242190614974565b801561246e5780601f106124435761010080835404028352916020019161246e565b820191906000526020600020905b81548152906001019060200180831161245157829003601f168201915b50505050509050919050565b600033905090565b81518351146124c6576040517f08c379a00000000000000000000000000000000000000000000000000000000081526004016124bd906153cf565b60405180910390fd5b600073ffffffffffffffffffffffffffffffffffffffff168473ffffffffffffffffffffffffffffffffffffffff1603612535576040517f08c379a000000000000000000000000000000000000000000000000000000000815260040161252c9061552a565b60405180910390fd5b600061253f61247a565b905061254f818787878787612cf2565b60005b84518110156127005760008582815181106125705761256f61489f565b5b60200260200101519050600085838151811061258f5761258e61489f565b5b60200260200101519050600080600084815260200190815260200160002060008b73ffffffffffffffffffffffffffffffffffffffff1673ffffffffffffffffffffffffffffffffffffffff16815260200190815260200160002054905081811015612630576040517f08c379a0000000000000000000000000000000000000000000000000000000008152600401612627906155bc565b60405180910390fd5b81810360008085815260200190815260200160002060008c73ffffffffffffffffffffffffffffffffffffffff1673ffffffffffffffffffffffffffffffffffffffff168152602001908152602001600020819055508160008085815260200190815260200160002060008b73ffffffffffffffffffffffffffffffffffffffff1673ffffffffffffffffffffffffffffffffffffffff16815260200190815260200160002060008282546126e591906155dc565b92505081905550505050806126f9906148fd565b9050612552565b508473ffffffffffffffffffffffffffffffffffffffff168673ffffffffffffffffffffffffffffffffffffffff168273ffffffffffffffffffffffffffffffffffffffff167f4a39dc06d4c0dbc64b70af90fd698a233a518aa5d07e595d983b8c0526c8f7fb8787604051612777929190615481565b60405180910390a461278d81878787878761301c565b61279b818787878787613024565b505050505050565b8173ffffffffffffffffffffffffffffffffffffffff168373ffffffffffffffffffffffffffffffffffffffff1603612811576040517f08c379a0000000000000000000000000000000000000000000000000000000008152600401612808906156a4565b60405180910390fd5b80600160008573ffffffffffffffffffffffffffffffffffffffff1673ffffffffffffffffffffffffffffffffffffffff16815260200190815260200160002060008473ffffffffffffffffffffffffffffffffffffffff1673ffffffffffffffffffffffffffffffffffffffff16815260200190815260200160002060006101000a81548160ff0219169083151502179055508173ffffffffffffffffffffffffffffffffffffffff168373ffffffffffffffffffffffffffffffffffffffff167f17307eab39ab6107e8899845ad3d59bd9653f200f220920489ca2b5937696c3183604051612902919061399b565b60405180910390a3505050565b60008061291b846131fb565b905061296f858260016000368080601f016020809104026020016040519081016040528093929190818152602001838380828437600081840152601f19601f82011690508083019250505050505050613246565b61297981846133f6565b809150509392505050565b60006040518060c00160405280888152602001878152602001868152602001858152602001848152602001838152509050600e819080600181540180825580915050600190039060005260206000209060060201600090919091909150600082015181600001556020820151816001015560408201518160020155606082015181600301556080820151816004015560a082015181600501555050600e80549050600f60006001815260200190815260200160002060008981526020019081526020016000208190555050505050505050565b600073ffffffffffffffffffffffffffffffffffffffff168473ffffffffffffffffffffffffffffffffffffffff1603612ac6576040517f08c379a0000000000000000000000000000000000000000000000000000000008152600401612abd9061552a565b60405180910390fd5b6000612ad061247a565b90506000612add85613462565b90506000612aea85613462565b9050612afa838989858589612cf2565b600080600088815260200190815260200160002060008a73ffffffffffffffffffffffffffffffffffffffff1673ffffffffffffffffffffffffffffffffffffffff16815260200190815260200160002054905085811015612b91576040517f08c379a0000000000000000000000000000000000000000000000000000000008152600401612b88906155bc565b60405180910390fd5b85810360008089815260200190815260200160002060008b73ffffffffffffffffffffffffffffffffffffffff1673ffffffffffffffffffffffffffffffffffffffff168152602001908152602001600020819055508560008089815260200190815260200160002060008a73ffffffffffffffffffffffffffffffffffffffff1673ffffffffffffffffffffffffffffffffffffffff1681526020019081526020016000206000828254612c4691906155dc565b925050819055508773ffffffffffffffffffffffffffffffffffffffff168973ffffffffffffffffffffffffffffffffffffffff168573ffffffffffffffffffffffffffffffffffffffff167fc3d58168c5ae7397731d063d5bbf3d657854427343f4c083240f7aacaa2d0f628a8a604051612cc3929190614e57565b60405180910390a4612cd9848a8a86868a61301c565b612ce7848a8a8a8a8a6134dc565b505050505050505050565b612d008686868686866136b3565b600083519050600073ffffffffffffffffffffffffffffffffffffffff168673ffffffffffffffffffffffffffffffffffffffff1603612e025760005b81811015612dfb576000612d6a868381518110612d5d57612d5c61489f565b5b60200260200101516136bb565b905086600760008381526020019081526020016000206000888581518110612d9557612d9461489f565b5b6020026020010151815260200190815260200160002060006101000a81548173ffffffffffffffffffffffffffffffffffffffff021916908373ffffffffffffffffffffffffffffffffffffffff1602179055505080612df4906148fd565b9050612d3d565b5050613014565b600073ffffffffffffffffffffffffffffffffffffffff168573ffffffffffffffffffffffffffffffffffffffff1603612ee15760005b818111612eda576000612e65868381518110612e5857612e5761489f565b5b60200260200101516136bb565b9050600760008281526020019081526020016000206000878481518110612e8f57612e8e61489f565b5b6020026020010151815260200190815260200160002060006101000a81549073ffffffffffffffffffffffffffffffffffffffff02191690555080612ed3906148fd565b9050612e39565b5050613014565b600073ffffffffffffffffffffffffffffffffffffffff168673ffffffffffffffffffffffffffffffffffffffff1614158015612f4b5750600073ffffffffffffffffffffffffffffffffffffffff168573ffffffffffffffffffffffffffffffffffffffff1614155b156130125760005b818111613010576000612f7f868381518110612f7257612f7161489f565b5b60200260200101516136bb565b905086600760008381526020019081526020016000206000888581518110612faa57612fa961489f565b5b6020026020010151815260200190815260200160002060006101000a81548173ffffffffffffffffffffffffffffffffffffffff021916908373ffffffffffffffffffffffffffffffffffffffff1602179055505080613009906148fd565b9050612f53565b505b505b505050505050565b505050505050565b6130438473ffffffffffffffffffffffffffffffffffffffff166136c9565b156131f3578373ffffffffffffffffffffffffffffffffffffffff1663bc197c8187878686866040518663ffffffff1660e01b8152600401613089959493929190615719565b6020604051808303816000875af19250505080156130c557506040513d601f19601f820116820180604052508101906130c29190615796565b60015b61316a576130d16157d0565b806308c379a00361312d57506130e56157f2565b806130f0575061312f565b806040517f08c379a00000000000000000000000000000000000000000000000000000000081526004016131249190613a7c565b60405180910390fd5b505b6040517f08c379a0000000000000000000000000000000000000000000000000000000008152600401613161906158f4565b60405180910390fd5b63bc197c8160e01b7bffffffffffffffffffffffffffffffffffffffffffffffffffffffff1916817bffffffffffffffffffffffffffffffffffffffffffffffffffffffff1916146131f1576040517f08c379a00000000000000000000000000000000000000000000000000000000081526004016131e890615986565b60405180910390fd5b505b505050505050565b6000613218600660008481526020019081526020016000206136ec565b600061323560066000858152602001908152602001600020613702565b905080601084901b17915050919050565b600073ffffffffffffffffffffffffffffffffffffffff168473ffffffffffffffffffffffffffffffffffffffff16036132b5576040517f08c379a00000000000000000000000000000000000000000000000000000000081526004016132ac90615a18565b60405180910390fd5b60006132bf61247a565b905060006132cc85613462565b905060006132d985613462565b90506132ea83600089858589612cf2565b8460008088815260200190815260200160002060008973ffffffffffffffffffffffffffffffffffffffff1673ffffffffffffffffffffffffffffffffffffffff168152602001908152602001600020600082825461334991906155dc565b925050819055508673ffffffffffffffffffffffffffffffffffffffff16600073ffffffffffffffffffffffffffffffffffffffff168473ffffffffffffffffffffffffffffffffffffffff167fc3d58168c5ae7397731d063d5bbf3d657854427343f4c083240f7aacaa2d0f6289896040516133c7929190614e57565b60405180910390a46133de8360008985858961301c565b6133ed836000898989896134dc565b50505050505050565b8060046000848152602001908152602001600020908051906020019061341d929190613746565b50817f6bb7ff708619ba0610cba295a58592e0451dee2622938c8755667688daf3529b61344984610949565b6040516134569190613a7c565b60405180910390a25050565b60606000600167ffffffffffffffff81111561348157613480613aa3565b5b6040519080825280602002602001820160405280156134af5781602001602082028036833780820191505090505b50905082816000815181106134c7576134c661489f565b5b60200260200101818152505080915050919050565b6134fb8473ffffffffffffffffffffffffffffffffffffffff166136c9565b156136ab578373ffffffffffffffffffffffffffffffffffffffff1663f23a6e6187878686866040518663ffffffff1660e01b8152600401613541959493929190615a38565b6020604051808303816000875af192505050801561357d57506040513d601f19601f8201168201806040525081019061357a9190615796565b60015b613622576135896157d0565b806308c379a0036135e5575061359d6157f2565b806135a857506135e7565b806040517f08c379a00000000000000000000000000000000000000000000000000000000081526004016135dc9190613a7c565b60405180910390fd5b505b6040517f08c379a0000000000000000000000000000000000000000000000000000000008152600401613619906158f4565b60405180910390fd5b63f23a6e6160e01b7bffffffffffffffffffffffffffffffffffffffffffffffffffffffff1916817bffffffffffffffffffffffffffffffffffffffffffffffffffffffff1916146136a9576040517f08c379a00000000000000000000000000000000000000000000000000000000081526004016136a090615986565b60405180910390fd5b505b505050505050565b505050505050565b6000601082901c9050919050565b6000808273ffffffffffffffffffffffffffffffffffffffff163b119050919050565b6001816000016000828254019250508190555050565b600081600001549050919050565b6040518060c001604052806000815260200160008152602001600081526020016000815260200160008152602001600081525090565b82805461375290614974565b90600052602060002090601f01602090048101928261377457600085556137bb565b82601f1061378d57805160ff19168380011785556137bb565b828001600101855582156137bb579182015b828111156137ba57825182559160200191906001019061379f565b5b5090506137c891906137cc565b5090565b5b808211156137e55760008160009055506001016137cd565b5090565b6000604051905090565b600080fd5b600080fd5b600073ffffffffffffffffffffffffffffffffffffffff82169050919050565b6000613828826137fd565b9050919050565b6138388161381d565b811461384357600080fd5b50565b6000813590506138558161382f565b92915050565b6000819050919050565b61386e8161385b565b811461387957600080fd5b50565b60008135905061388b81613865565b92915050565b600080604083850312156138a8576138a76137f3565b5b60006138b685828601613846565b92505060206138c78582860161387c565b9150509250929050565b6138da8161385b565b82525050565b60006020820190506138f560008301846138d1565b92915050565b60007fffffffff0000000000000000000000000000000000000000000000000000000082169050919050565b613930816138fb565b811461393b57600080fd5b50565b60008135905061394d81613927565b92915050565b600060208284031215613969576139686137f3565b5b60006139778482850161393e565b91505092915050565b60008115159050919050565b61399581613980565b82525050565b60006020820190506139b0600083018461398c565b92915050565b6000602082840312156139cc576139cb6137f3565b5b60006139da8482850161387c565b91505092915050565b600081519050919050565b600082825260208201905092915050565b60005b83811015613a1d578082015181840152602081019050613a02565b83811115613a2c576000848401525b50505050565b6000601f19601f8301169050919050565b6000613a4e826139e3565b613a5881856139ee565b9350613a688185602086016139ff565b613a7181613a32565b840191505092915050565b60006020820190508181036000830152613a968184613a43565b905092915050565b600080fd5b7f4e487b7100000000000000000000000000000000000000000000000000000000600052604160045260246000fd5b613adb82613a32565b810181811067ffffffffffffffff82111715613afa57613af9613aa3565b5b80604052505050565b6000613b0d6137e9565b9050613b198282613ad2565b919050565b600067ffffffffffffffff821115613b3957613b38613aa3565b5b602082029050602081019050919050565b600080fd5b6000613b62613b5d84613b1e565b613b03565b90508083825260208201905060208402830185811115613b8557613b84613b4a565b5b835b81811015613bae5780613b9a888261387c565b845260208401935050602081019050613b87565b5050509392505050565b600082601f830112613bcd57613bcc613a9e565b5b8135613bdd848260208601613b4f565b91505092915050565b600080fd5b600067ffffffffffffffff821115613c0657613c05613aa3565b5b613c0f82613a32565b9050602081019050919050565b82818337600083830152505050565b6000613c3e613c3984613beb565b613b03565b905082815260208101848484011115613c5a57613c59613be6565b5b613c65848285613c1c565b509392505050565b600082601f830112613c8257613c81613a9e565b5b8135613c92848260208601613c2b565b91505092915050565b600080600080600060a08688031215613cb757613cb66137f3565b5b6000613cc588828901613846565b9550506020613cd688828901613846565b945050604086013567ffffffffffffffff811115613cf757613cf66137f8565b5b613d0388828901613bb8565b935050606086013567ffffffffffffffff811115613d2457613d236137f8565b5b613d3088828901613bb8565b925050608086013567ffffffffffffffff811115613d5157613d506137f8565b5b613d5d88828901613c6d565b9150509295509295909350565b60008060408385031215613d8157613d806137f3565b5b6000613d8f85828601613846565b9250506020613da085828601613846565b9150509250929050565b600067ffffffffffffffff821115613dc557613dc4613aa3565b5b602082029050602081019050919050565b6000613de9613de484613daa565b613b03565b90508083825260208201905060208402830185811115613e0c57613e0b613b4a565b5b835b81811015613e355780613e218882613846565b845260208401935050602081019050613e0e565b5050509392505050565b600082601f830112613e5457613e53613a9e565b5b8135613e64848260208601613dd6565b91505092915050565b60008060408385031215613e8457613e836137f3565b5b600083013567ffffffffffffffff811115613ea257613ea16137f8565b5b613eae85828601613e3f565b925050602083013567ffffffffffffffff811115613ecf57613ece6137f8565b5b613edb85828601613bb8565b9150509250929050565b600081519050919050565b600082825260208201905092915050565b6000819050602082019050919050565b613f1a8161385b565b82525050565b6000613f2c8383613f11565b60208301905092915050565b6000602082019050919050565b6000613f5082613ee5565b613f5a8185613ef0565b9350613f6583613f01565b8060005b83811015613f96578151613f7d8882613f20565b9750613f8883613f38565b925050600181019050613f69565b5085935050505092915050565b60006020820190508181036000830152613fbd8184613f45565b905092915050565b600060208284031215613fdb57613fda6137f3565b5b600082013567ffffffffffffffff811115613ff957613ff86137f8565b5b61400584828501613bb8565b91505092915050565b60008060408385031215614025576140246137f3565b5b60006140338582860161387c565b925050602083013567ffffffffffffffff811115614054576140536137f8565b5b61406085828601613bb8565b9150509250929050565b60008060408385031215614081576140806137f3565b5b600061408f8582860161387c565b92505060206140a085828601613846565b9150509250929050565b600080604083850312156140c1576140c06137f3565b5b60006140cf8582860161387c565b92505060206140e08582860161387c565b9150509250929050565b60c0820160008201516141006000850182613f11565b5060208201516141136020850182613f11565b5060408201516141266040850182613f11565b5060608201516141396060850182613f11565b50608082015161414c6080850182613f11565b5060a082015161415f60a0850182613f11565b50505050565b600060e08201905061417a60008301856140ea565b81810360c083015261418c8184613a43565b90509392505050565b61419e81613980565b81146141a957600080fd5b50565b6000813590506141bb81614195565b92915050565b600080604083850312156141d8576141d76137f3565b5b60006141e685828601613846565b92505060206141f7858286016141ac565b9150509250929050565b600067ffffffffffffffff82111561421c5761421b613aa3565b5b61422582613a32565b9050602081019050919050565b600061424561424084614201565b613b03565b90508281526020810184848401111561426157614260613be6565b5b61426c848285613c1c565b509392505050565b600082601f83011261428957614288613a9e565b5b8135614299848260208601614232565b91505092915050565b600080600080600060a086880312156142be576142bd6137f3565b5b60006142cc8882890161387c565b95505060206142dd8882890161387c565b94505060406142ee8882890161387c565b93505060606142ff8882890161387c565b925050608086013567ffffffffffffffff8111156143205761431f6137f8565b5b61432c88828901614274565b9150509295509295909350565b60006020828403121561434f5761434e6137f3565b5b600061435d84828501613846565b91505092915050565b600081519050919050565b600082825260208201905092915050565b6000819050602082019050919050565b60c0820160008201516143a86000850182613f11565b5060208201516143bb6020850182613f11565b5060408201516143ce6040850182613f11565b5060608201516143e16060850182613f11565b5060808201516143f46080850182613f11565b5060a082015161440760a0850182613f11565b50505050565b60006144198383614392565b60c08301905092915050565b6000602082019050919050565b600061443d82614366565b6144478185614371565b935061445283614382565b8060005b8381101561448357815161446a888261440d565b975061447583614425565b925050600181019050614456565b5085935050505092915050565b600081519050919050565b600082825260208201905092915050565b6000819050602082019050919050565b600082825260208201905092915050565b60006144d8826139e3565b6144e281856144bc565b93506144f28185602086016139ff565b6144fb81613a32565b840191505092915050565b600061451283836144cd565b905092915050565b6000602082019050919050565b600061453282614490565b61453c818561449b565b93508360208202850161454e856144ac565b8060005b8581101561458a578484038952815161456b8582614506565b94506145768361451a565b925060208a01995050600181019050614552565b50829750879550505050505092915050565b600060408201905081810360008301526145b68185614432565b905081810360208301526145ca8184614527565b90509392505050565b600080600080600060a086880312156145ef576145ee6137f3565b5b60006145fd88828901613846565b955050602061460e88828901613846565b945050604061461f8882890161387c565b93505060606146308882890161387c565b925050608086013567ffffffffffffffff811115614651576146506137f8565b5b61465d88828901613c6d565b9150509295509295909350565b7f455243313135353a2061646472657373207a65726f206973206e6f742061207660008201527f616c6964206f776e657200000000000000000000000000000000000000000000602082015250565b60006146c6602a836139ee565b91506146d18261466a565b604082019050919050565b600060208201905081810360008301526146f5816146b9565b9050919050565b60008151905061470b8161382f565b92915050565b600060208284031215614727576147266137f3565b5b6000614735848285016146fc565b91505092915050565b7f6e6f7420617070726f7665642062792073747564656e74000000000000000000600082015250565b60006147746017836139ee565b915061477f8261473e565b602082019050919050565b600060208201905081810360008301526147a381614767565b9050919050565b6000815190506147b981613865565b92915050565b60006147d26147cd84613b1e565b613b03565b905080838252602082019050602084028301858111156147f5576147f4613b4a565b5b835b8181101561481e578061480a88826147aa565b8452602084019350506020810190506147f7565b5050509392505050565b600082601f83011261483d5761483c613a9e565b5b815161484d8482602086016147bf565b91505092915050565b60006020828403121561486c5761486b6137f3565b5b600082015167ffffffffffffffff81111561488a576148896137f8565b5b61489684828501614828565b91505092915050565b7f4e487b7100000000000000000000000000000000000000000000000000000000600052603260045260246000fd5b7f4e487b7100000000000000000000000000000000000000000000000000000000600052601160045260246000fd5b60006149088261385b565b91507fffffffffffffffffffffffffffffffffffffffffffffffffffffffffffffffff820361493a576149396148ce565b5b600182019050919050565b7f4e487b7100000000000000000000000000000000000000000000000000000000600052602260045260246000fd5b6000600282049050600182168061498c57607f821691505b60208210810361499f5761499e614945565b5b50919050565b600081905092915050565b60008190508160005260206000209050919050565b600081546149d281614974565b6149dc81866149a5565b945060018216600081146149f75760018114614a0857614a3b565b60ff19831686528186019350614a3b565b614a11856149b0565b60005b83811015614a3357815481890152600182019150602081019050614a14565b838801955050505b50505092915050565b6000614a4f826139e3565b614a5981856149a5565b9350614a698185602086016139ff565b80840191505092915050565b6000614a8182856149c5565b9150614a8d8284614a44565b91508190509392505050565b7f455243313135353a2063616c6c6572206973206e6f7420746f6b656e206f776e60008201527f6572206f7220617070726f766564000000000000000000000000000000000000602082015250565b6000614af5602e836139ee565b9150614b0082614a99565b604082019050919050565b60006020820190508181036000830152614b2481614ae8565b9050919050565b7f455243313135353a206163636f756e747320616e6420696473206c656e67746860008201527f206d69736d617463680000000000000000000000000000000000000000000000602082015250565b6000614b876029836139ee565b9150614b9282614b2b565b604082019050919050565b60006020820190508181036000830152614bb681614b7a565b9050919050565b6000614bc88261385b565b9150614bd38361385b565b925082821015614be657614be56148ce565b5b828203905092915050565b7f4e487b7100000000000000000000000000000000000000000000000000000000600052603160045260246000fd5b7f4e487b7100000000000000000000000000000000000000000000000000000000600052602160045260246000fd5b614c588161381d565b82525050565b6000604082019050614c7360008301856138d1565b614c806020830184614c4f565b9392505050565b600080fd5b600080fd5b600060608284031215614ca757614ca6614c87565b5b614cb16060613b03565b90506000614cc1848285016147aa565b6000830152506020614cd5848285016146fc565b6020830152506040614ce9848285016147aa565b60408301525092915050565b6000614d08614d0384614201565b613b03565b905082815260208101848484011115614d2457614d23613be6565b5b614d2f8482856139ff565b509392505050565b600082601f830112614d4c57614d4b613a9e565b5b8151614d5c848260208601614cf5565b91505092915050565b600081519050614d7481614195565b92915050565b600060c08284031215614d9057614d8f614c87565b5b614d9a6080613b03565b90506000614daa84828501614c91565b600083015250606082015167ffffffffffffffff811115614dce57614dcd614c8c565b5b614dda84828501614d37565b6020830152506080614dee848285016147aa565b60408301525060a0614e0284828501614d65565b60608301525092915050565b600060208284031215614e2457614e236137f3565b5b600082015167ffffffffffffffff811115614e4257614e416137f8565b5b614e4e84828501614d7a565b91505092915050565b6000604082019050614e6c60008301856138d1565b614e7960208301846138d1565b9392505050565b600060208284031215614e9657614e956137f3565b5b6000614ea484828501614d65565b91505092915050565b7f6e6f742072656761696e65640000000000000000000000000000000000000000600082015250565b6000614ee3600c836139ee565b9150614eee82614ead565b602082019050919050565b60006020820190508181036000830152614f1281614ed6565b9050919050565b7f6e6f7420696e2071756575650000000000000000000000000000000000000000600082015250565b6000614f4f600c836139ee565b9150614f5a82614f19565b602082019050919050565b60006020820190508181036000830152614f7e81614f42565b9050919050565b60006101608284031215614f9c57614f9b614c87565b5b614fa7610160613b03565b90506000614fb7848285016147aa565b6000830152506020614fcb848285016147aa565b6020830152506040614fdf848285016147aa565b6040830152506060614ff3848285016147aa565b6060830152506080615007848285016147aa565b60808301525060a061501b848285016147aa565b60a08301525060c061502f848285016147aa565b60c08301525060e0615043848285016147aa565b60e083015250610100615058848285016147aa565b6101008301525061012061506e848285016147aa565b6101208301525061014082015167ffffffffffffffff81111561509457615093614c8c565b5b6150a084828501614d37565b6101408301525092915050565b6000602082840312156150c3576150c26137f3565b5b600082015167ffffffffffffffff8111156150e1576150e06137f8565b5b6150ed84828501614f85565b91505092915050565b7f6e6f742074656163686572000000000000000000000000000000000000000000600082015250565b600061512c600b836139ee565b9150615137826150f6565b602082019050919050565b6000602082019050818103600083015261515b8161511f565b9050919050565b7f6578706972656400000000000000000000000000000000000000000000000000600082015250565b60006151986007836139ee565b91506151a382615162565b602082019050919050565b600060208201905081810360008301526151c78161518b565b9050919050565b6000606082840312156151e4576151e3614c87565b5b6151ee6060613b03565b905060006151fe848285016147aa565b6000830152506020615212848285016147aa565b6020830152506040615226848285016147aa565b60408301525092915050565b600060608284031215615248576152476137f3565b5b6000615256848285016151ce565b91505092915050565b7f63757272656e7420696e20717565756500000000000000000000000000000000600082015250565b60006152956010836139ee565b91506152a08261525f565b602082019050919050565b600060208201905081810360008301526152c481615288565b9050919050565b7f455243313135353a206275726e2066726f6d20746865207a65726f206164647260008201527f6573730000000000000000000000000000000000000000000000000000000000602082015250565b60006153276023836139ee565b9150615332826152cb565b604082019050919050565b600060208201905081810360008301526153568161531a565b9050919050565b7f455243313135353a2069647320616e6420616d6f756e7473206c656e6774682060008201527f6d69736d61746368000000000000000000000000000000000000000000000000602082015250565b60006153b96028836139ee565b91506153c48261535d565b604082019050919050565b600060208201905081810360008301526153e8816153ac565b9050919050565b7f455243313135353a206275726e20616d6f756e7420657863656564732062616c60008201527f616e636500000000000000000000000000000000000000000000000000000000602082015250565b600061544b6024836139ee565b9150615456826153ef565b604082019050919050565b6000602082019050818103600083015261547a8161543e565b9050919050565b6000604082019050818103600083015261549b8185613f45565b905081810360208301526154af8184613f45565b90509392505050565b7f455243313135353a207472616e7366657220746f20746865207a65726f20616460008201527f6472657373000000000000000000000000000000000000000000000000000000602082015250565b60006155146025836139ee565b915061551f826154b8565b604082019050919050565b6000602082019050818103600083015261554381615507565b9050919050565b7f455243313135353a20696e73756666696369656e742062616c616e636520666f60008201527f72207472616e7366657200000000000000000000000000000000000000000000602082015250565b60006155a6602a836139ee565b91506155b18261554a565b604082019050919050565b600060208201905081810360008301526155d581615599565b9050919050565b60006155e78261385b565b91506155f28361385b565b9250827fffffffffffffffffffffffffffffffffffffffffffffffffffffffffffffffff03821115615627576156266148ce565b5b828201905092915050565b7f455243313135353a2073657474696e6720617070726f76616c2073746174757360008201527f20666f722073656c660000000000000000000000000000000000000000000000602082015250565b600061568e6029836139ee565b915061569982615632565b604082019050919050565b600060208201905081810360008301526156bd81615681565b9050919050565b600081519050919050565b600082825260208201905092915050565b60006156eb826156c4565b6156f581856156cf565b93506157058185602086016139ff565b61570e81613a32565b840191505092915050565b600060a08201905061572e6000830188614c4f565b61573b6020830187614c4f565b818103604083015261574d8186613f45565b905081810360608301526157618185613f45565b9050818103608083015261577581846156e0565b90509695505050505050565b60008151905061579081613927565b92915050565b6000602082840312156157ac576157ab6137f3565b5b60006157ba84828501615781565b91505092915050565b60008160e01c9050919050565b600060033d11156157ef5760046000803e6157ec6000516157c3565b90505b90565b600060443d1061587f576158046137e9565b60043d036004823e80513d602482011167ffffffffffffffff8211171561582c57505061587f565b808201805167ffffffffffffffff81111561584a575050505061587f565b80602083010160043d03850181111561586757505050505061587f565b61587682602001850186613ad2565b82955050505050505b90565b7f455243313135353a207472616e7366657220746f206e6f6e2d4552433131353560008201527f526563656976657220696d706c656d656e746572000000000000000000000000602082015250565b60006158de6034836139ee565b91506158e982615882565b604082019050919050565b6000602082019050818103600083015261590d816158d1565b9050919050565b7f455243313135353a204552433131353552656365697665722072656a6563746560008201527f6420746f6b656e73000000000000000000000000000000000000000000000000602082015250565b60006159706028836139ee565b915061597b82615914565b604082019050919050565b6000602082019050818103600083015261599f81615963565b9050919050565b7f455243313135353a206d696e7420746f20746865207a65726f2061646472657360008201527f7300000000000000000000000000000000000000000000000000000000000000602082015250565b6000615a026021836139ee565b9150615a0d826159a6565b604082019050919050565b60006020820190508181036000830152615a31816159f5565b9050919050565b600060a082019050615a4d6000830188614c4f565b615a5a6020830187614c4f565b615a6760408301866138d1565b615a7460608301856138d1565b8181036080830152615a8681846156e0565b9050969550505050505056fea26469706673582212204f5ced571a2eb5962cd4c86400f45dd9aba647cde0c59601b0396b724cd30f8c64736f6c634300080d0033",
  "immutableReferences": {
    "4724": [
      {
        "length": 32,
        "start": 1778
      },
      {
        "length": 32,
        "start": 4187
      },
      {
        "length": 32,
        "start": 5198
      },
      {
        "length": 32,
        "start": 5381
      },
      {
        "length": 32,
        "start": 6606
      },
      {
        "length": 32,
        "start": 7484
      }
    ],
    "4727": [
      {
        "length": 32,
        "start": 5035
      },
      {
        "length": 32,
        "start": 7317
      }
    ],
    "4730": [
      {
        "length": 32,
        "start": 4741
      },
      {
        "length": 32,
        "start": 7159
      }
    ]
  },
  "source": "// SPDX-License-Identifier: MIT\r\n// Tells the Solidity compiler to compile only from v0.8.13 to v0.9.0\r\npragma solidity ^0.8.13;\r\n\r\nimport \"./ERC1155BaseContract.sol\";\r\nimport \"./interfaces/INftClassRegistration.sol\";\r\nimport \"./interfaces/INftSchool.sol\";\r\nimport \"./interfaces/INftCertificates.sol\";\r\nimport \"./interfaces/INftGraduation.sol\";\r\nimport \"./interfaces/INftIdentities.sol\";\r\nimport \"./utils/ArrayMath.sol\";\r\n\r\ncontract NftCertificates is ERC1155BaseContract, INftCertificates {\r\n    using Counters for Counters.Counter;\r\n    using ArrayMath for uint256[];\r\n    uint256 constant NFT_COMPLETE_COURSE = 1;\r\n    uint256 constant NFT_GRADUATION = 2;\r\n\r\n    uint256 public graduationPrice = 1 ether;\r\n\r\n    string[] private courseURIs;\r\n\r\n    bool private _isInitialize;\r\n\r\n    INftIdentities private immutable _nftIdentities;\r\n    INftSchool private immutable _nftSchool;\r\n    INftClassRegistration private immutable _nftClassRegistration;\r\n    INftGraduation private _nftGraduation;\r\n\r\n    uint256 public registeredStartAt;\r\n    uint256 public registeredEndAt;\r\n    uint256 public yearId;\r\n\r\n    NftCompleteCourse[] private _allNftCompleteCourses;\r\n    mapping(uint256 => mapping(uint256 => uint256)) _posOfTokenIdOfNftType;\r\n\r\n    mapping(uint256 => uint256[]) _studentsOfClass;\r\n    mapping(uint256 => mapping(uint256 => uint256)) _posOfStudentInClass;\r\n    mapping(uint256 => uint256[]) private _studentOwnedCompleteCourseNfts;\r\n    mapping(uint256 => mapping(uint256 => uint256))\r\n        private _posOfOwnedCompleteCourseNft;\r\n\r\n    mapping(uint256 => uint256[]) _nftCompleteCourseQueue;\r\n    mapping(uint256 => mapping(uint256 => uint256)) _posOfStudentInQueue;\r\n\r\n    mapping(uint256 => mapping(uint256 => bool))\r\n        private _completedCoursesOfStudent;\r\n    mapping(address => uint256) private _studentOwnedNftGraduation;\r\n\r\n    event NewCompleteCourseCreated(uint256 tokenId);\r\n\r\n    modifier onlyOwner() {\r\n        require(_owner == msg.sender);\r\n        _;\r\n    }\r\n\r\n    modifier onlyNftSchoolContract() {\r\n        require(msg.sender == address(_nftSchool));\r\n        _;\r\n    }\r\n\r\n    modifier canOperate(uint256 role) {\r\n        require(_nftIdentities.isAbleToOperate(msg.sender, role));\r\n        _;\r\n    }\r\n\r\n    constructor(\r\n        address nftIdentities,\r\n        address nftSchool,\r\n        address nftClassRegistration\r\n    ) ERC1155BaseContract(\"\") {\r\n        _nftIdentities = INftIdentities(nftIdentities);\r\n        _nftSchool = INftSchool(nftSchool);\r\n        _nftClassRegistration = INftClassRegistration(nftClassRegistration);\r\n    }\r\n\r\n    function initialize(address nftGraduation) public onlyOwner {\r\n        require(!_isInitialize);\r\n        _isInitialize = true;\r\n        _nftGraduation = INftGraduation(nftGraduation);\r\n    }\r\n\r\n    function getOwnedNftCompleteCourse()\r\n        external\r\n        view\r\n        returns (NftCompleteCourse[] memory, string[] memory)\r\n    {\r\n        uint256 studentTokenId = _nftIdentities\r\n            .getNftOfMemberWithRole(uint256(ROLE.STUDENT), msg.sender)\r\n            .nftIdentity\r\n            .tokenId;\r\n        uint256 numberOfNftCompleteCourses = _studentOwnedCompleteCourseNfts[\r\n            studentTokenId\r\n        ].length;\r\n\r\n        NftCompleteCourse[] memory nfts = new NftCompleteCourse[](\r\n            numberOfNftCompleteCourses\r\n        );\r\n        string[] memory nftURIs = new string[](numberOfNftCompleteCourses);\r\n\r\n        for (uint256 idx = 0; idx <= numberOfNftCompleteCourses; ++idx) {\r\n            (nfts[idx], nftURIs[idx]) = getNftCompleteCourse(\r\n                _studentOwnedCompleteCourseNfts[studentTokenId][idx]\r\n            );\r\n        }\r\n\r\n        return (nfts, nftURIs);\r\n    }\r\n\r\n    function getNftCompleteCourse(\r\n        uint256 tokenId\r\n    ) public view returns (NftCompleteCourse memory, string memory) {\r\n        uint256 pos = _posOfTokenIdOfNftType[NFT_COMPLETE_COURSE][tokenId];\r\n        require(pos > 0);\r\n\r\n        return (_allNftCompleteCourses[pos - 1], uri(tokenId));\r\n    }\r\n\r\n    function checkInQueue(\r\n        uint256 classId,\r\n        uint256 studentTokenId\r\n    ) public view returns (bool) {\r\n        return _posOfStudentInQueue[classId][studentTokenId] > 0;\r\n    }\r\n\r\n    function getNftCompleteCourseCreationQueueByClassId(\r\n        uint256 classId\r\n    ) public view returns (uint256[] memory) {\r\n        return _nftCompleteCourseQueue[classId];\r\n    }\r\n\r\n    function addToNftCompleteCourseCreationQueue(\r\n        uint256 studentTokenId,\r\n        uint256 tokenId\r\n    ) public {\r\n        NftClassRegistration memory nftClassRegistration = _nftClassRegistration\r\n            .getNftClassRegistration(tokenId);\r\n        Class memory class = _nftSchool.getClassById(\r\n            nftClassRegistration.classId\r\n        );\r\n        NftIdentityResponse memory nftIdentityResponse = _nftIdentities\r\n            .getNftOfMemberWithRole(uint256(ROLE.TEACHER), msg.sender);\r\n        require(!nftIdentityResponse.isExpired, \"expired\");\r\n        require(\r\n            class.teacherTokenId == nftIdentityResponse.nftIdentity.tokenId,\r\n            \"not teacher\"\r\n        );\r\n        require(\r\n            _posOfStudentInQueue[nftClassRegistration.classId][\r\n                studentTokenId\r\n            ] == 0,\r\n            \"current in queue\"\r\n        );\r\n        _nftCompleteCourseQueue[nftClassRegistration.classId].push(\r\n            studentTokenId\r\n        );\r\n        _posOfStudentInQueue[nftClassRegistration.classId][\r\n            studentTokenId\r\n        ] = _nftCompleteCourseQueue[nftClassRegistration.classId].length;\r\n    }\r\n\r\n    function grantNftCompleteCourse(\r\n        uint256 studentTokenId,\r\n        uint256 avgScore,\r\n        uint256 status,\r\n        uint256 classId,\r\n        string memory tokenURI\r\n    ) public {\r\n        require(status == 0 || status == 1);\r\n        require(\r\n            _nftClassRegistration.checkNftClassRegistrationRegained(\r\n                studentTokenId,\r\n                classId\r\n            ),\r\n            \"not regained\"\r\n        );\r\n        require(checkInQueue(classId, studentTokenId), \"not in queue\");\r\n        Class memory class = _nftSchool.getClassById(classId);\r\n        NftIdentityResponse memory nftIdentityResponse = _nftIdentities\r\n            .getNftOfMemberWithRole(uint256(ROLE.TEACHER), msg.sender);\r\n        address studentAddr = _nftIdentities.ownerOf(studentTokenId);\r\n        require(\r\n            class.teacherTokenId == nftIdentityResponse.nftIdentity.tokenId,\r\n            \"not teacher\"\r\n        );\r\n        require(!nftIdentityResponse.isExpired, \"expired\");\r\n        uint256 tokenId = _mintToken(\r\n            studentAddr,\r\n            NFT_COMPLETE_COURSE,\r\n            tokenURI\r\n        );\r\n        _createNftCompleteCourse(\r\n            tokenId,\r\n            class.courseId,\r\n            class.knowledgeBlockId,\r\n            class.credits,\r\n            avgScore,\r\n            status\r\n        );\r\n        _studentOwnedCompleteCourseNfts[studentTokenId].push(tokenId);\r\n        _posOfOwnedCompleteCourseNft[studentTokenId][\r\n            tokenId\r\n        ] = _studentOwnedCompleteCourseNfts[studentTokenId].length;\r\n        _completedCoursesOfStudent[studentTokenId][class.courseId] = true;\r\n        uint256 pos = _posOfStudentInQueue[classId][studentTokenId];\r\n        uint256 length = _nftCompleteCourseQueue[classId].length;\r\n        if (pos < length) {\r\n            _nftCompleteCourseQueue[classId][pos - 1] = _nftCompleteCourseQueue[\r\n                classId\r\n            ][length - 1];\r\n        }\r\n        _nftCompleteCourseQueue[classId].pop();\r\n        delete _posOfStudentInQueue[classId][studentTokenId];\r\n        emit NewCompleteCourseCreated(tokenId);\r\n    }\r\n\r\n    function _createNftCompleteCourse(\r\n        uint256 tokenId,\r\n        uint256 courseId,\r\n        uint256 knowledgeBlockId,\r\n        uint256 credits,\r\n        uint256 score,\r\n        uint256 status\r\n    ) private {\r\n        NftCompleteCourse memory nftCompleteCourse = NftCompleteCourse(\r\n            tokenId,\r\n            courseId,\r\n            knowledgeBlockId,\r\n            credits,\r\n            score,\r\n            status\r\n        );\r\n        _allNftCompleteCourses.push(nftCompleteCourse);\r\n        _posOfTokenIdOfNftType[NFT_COMPLETE_COURSE][\r\n            tokenId\r\n        ] = _allNftCompleteCourses.length;\r\n    }\r\n\r\n    function checkCompleteCourse(\r\n        uint256 courseId,\r\n        address studentAddr\r\n    ) public view returns (bool) {\r\n        uint256 studentTokenId = _nftIdentities\r\n            .getNftOfMemberWithRole(uint256(ROLE.STUDENT), studentAddr)\r\n            .nftIdentity\r\n            .tokenId;\r\n        return _completedCoursesOfStudent[studentTokenId][courseId];\r\n    }\r\n\r\n    function checkApprovedForAll(\r\n        address sender,\r\n        address owner\r\n    ) public view returns (bool) {\r\n        return isApprovedForAll(sender, owner);\r\n    }\r\n\r\n    function regainNftCompleteCourses(uint256 studentTokenId) public onlyOwner {\r\n        address studentAddr = _nftIdentities.ownerOf(studentTokenId);\r\n        require(\r\n            checkApprovedForAll(studentAddr, _owner),\r\n            \"not approved by student\"\r\n        );\r\n        uint256[] memory tokenIds = _nftGraduation\r\n            .getNftCompleteCourseForRequestGraduation(studentTokenId);\r\n        uint256 count = tokenIds.length;\r\n        uint256[] memory amounts = new uint256[](count);\r\n\r\n        for (uint256 idx; idx < count; ++idx) {\r\n            amounts[idx] = 1;\r\n        }\r\n\r\n        _burnBatch(studentAddr, tokenIds, amounts);\r\n        _removeFromAllNftCompleteCourses(studentTokenId, tokenIds);\r\n    }\r\n\r\n    function _removeFromAllNftCompleteCourses(\r\n        uint256 studentTokenId,\r\n        uint256[] memory tokenIds\r\n    ) public {\r\n        uint256 count = tokenIds.length;\r\n\r\n        for (uint256 idx; idx < count; ++idx) {\r\n            uint256 posOfNftCompleteCourse = _posOfTokenIdOfNftType[\r\n                NFT_COMPLETE_COURSE\r\n            ][tokenIds[idx]];\r\n            uint256 posOfLastNftCompleteCourse = _allNftCompleteCourses.length;\r\n\r\n            NftCompleteCourse\r\n                memory deletedNftCompleteCourse = _allNftCompleteCourses[\r\n                    posOfNftCompleteCourse - 1\r\n                ];\r\n            delete _completedCoursesOfStudent[studentTokenId][\r\n                deletedNftCompleteCourse.courseId\r\n            ];\r\n\r\n            uint256 posOfOwnedCompleteCourse = _posOfOwnedCompleteCourseNft[\r\n                studentTokenId\r\n            ][tokenIds[idx]];\r\n            uint256 posOfLastOwnedCompleteCourse = _studentOwnedCompleteCourseNfts[\r\n                    studentTokenId\r\n                ].length;\r\n            if (posOfOwnedCompleteCourse < posOfLastOwnedCompleteCourse) {\r\n                uint256 lastTokenId = _studentOwnedCompleteCourseNfts[\r\n                    studentTokenId\r\n                ][posOfLastOwnedCompleteCourse - 1];\r\n                _studentOwnedCompleteCourseNfts[studentTokenId][\r\n                    posOfOwnedCompleteCourse - 1\r\n                ] = lastTokenId;\r\n                _posOfOwnedCompleteCourseNft[studentTokenId][\r\n                    lastTokenId\r\n                ] = posOfOwnedCompleteCourse;\r\n            }\r\n            _studentOwnedCompleteCourseNfts[studentTokenId].pop();\r\n\r\n            if (posOfNftCompleteCourse < posOfLastNftCompleteCourse) {\r\n                NftCompleteCourse\r\n                    memory nftCompleteCourse = _allNftCompleteCourses[\r\n                        posOfLastNftCompleteCourse - 1\r\n                    ];\r\n                _allNftCompleteCourses[\r\n                    posOfNftCompleteCourse - 1\r\n                ] = nftCompleteCourse;\r\n                _posOfTokenIdOfNftType[NFT_COMPLETE_COURSE][\r\n                    nftCompleteCourse.tokenId\r\n                ] = posOfNftCompleteCourse;\r\n            }\r\n            delete _posOfTokenIdOfNftType[NFT_COMPLETE_COURSE][tokenIds[idx]];\r\n        }\r\n    }\r\n\r\n    function checkAllNftCompleteCoursesRegained(\r\n        uint256[] memory tokenIds\r\n    ) public view returns (bool) {\r\n        uint256 count = tokenIds.length;\r\n\r\n        for (uint256 idx; idx < count; ++idx) {\r\n            if (\r\n                _posOfTokenIdOfNftType[NFT_COMPLETE_COURSE][tokenIds[idx]] > 0\r\n            ) {\r\n                return false;\r\n            }\r\n        }\r\n\r\n        return true;\r\n    }\r\n}\r\n",
  "sourcePath": "E:\\learn\\learn-to-earn\\blockchain\\contracts\\NftCertificates.sol",
  "compiler": {
    "name": "solc",
    "version": "0.8.13+commit.abaa5c0e.Emscripten.clang"
  },
  "schemaVersion": "3.4.13",
  "updatedAt": "2023-06-05T16:59:42.190Z",
  "networkType": "ethereum",
  "devdoc": {
    "kind": "dev",
    "methods": {
      "balanceOf(address,uint256)": {
        "details": "See {IERC1155-balanceOf}. Requirements: - `account` cannot be the zero address."
      },
      "balanceOfBatch(address[],uint256[])": {
        "details": "See {IERC1155-balanceOfBatch}. Requirements: - `accounts` and `ids` must have the same length."
      },
      "isApprovedForAll(address,address)": {
        "details": "See {IERC1155-isApprovedForAll}."
      },
      "safeBatchTransferFrom(address,address,uint256[],uint256[],bytes)": {
        "details": "See {IERC1155-safeBatchTransferFrom}."
      },
      "safeTransferFrom(address,address,uint256,uint256,bytes)": {
        "details": "See {IERC1155-safeTransferFrom}."
      },
      "setApprovalForAll(address,bool)": {
        "details": "See {IERC1155-setApprovalForAll}."
      },
      "supportsInterface(bytes4)": {
        "details": "See {IERC165-supportsInterface}."
      },
      "uri(uint256)": {
        "details": "See {IERC1155MetadataURI-uri}. This implementation returns the concatenation of the `_baseURI` and the token-specific uri if the latter is set This enables the following behaviors: - if `_tokenURIs[tokenId]` is set, then the result is the concatenation   of `_baseURI` and `_tokenURIs[tokenId]` (keep in mind that `_baseURI`   is empty per default); - if `_tokenURIs[tokenId]` is NOT set then we fallback to `super.uri()`   which in most cases will contain `ERC1155._uri`; - if `_tokenURIs[tokenId]` is NOT set, and if the parents do not have a   uri value set, then the result is empty."
      }
    },
    "version": 1
  },
  "userdoc": {
    "kind": "user",
    "methods": {},
    "version": 1
  }
}