{
  "contractName": "NftClassRegistration",
  "abi": [
    {
      "inputs": [
        {
          "internalType": "address",
          "name": "nftIdentities",
          "type": "address"
        },
        {
          "internalType": "address",
          "name": "school",
          "type": "address"
        }
      ],
      "stateMutability": "nonpayable",
      "type": "constructor"
    },
    {
      "anonymous": false,
      "inputs": [
        {
          "indexed": true,
          "internalType": "address",
          "name": "owner",
          "type": "address"
        },
        {
          "indexed": true,
          "internalType": "address",
          "name": "approved",
          "type": "address"
        },
        {
          "indexed": true,
          "internalType": "uint256",
          "name": "tokenId",
          "type": "uint256"
        }
      ],
      "name": "Approval",
      "type": "event"
    },
    {
      "anonymous": false,
      "inputs": [
        {
          "indexed": true,
          "internalType": "address",
          "name": "owner",
          "type": "address"
        },
        {
          "indexed": true,
          "internalType": "address",
          "name": "operator",
          "type": "address"
        },
        {
          "indexed": false,
          "internalType": "bool",
          "name": "approved",
          "type": "bool"
        }
      ],
      "name": "ApprovalForAll",
      "type": "event"
    },
    {
      "anonymous": false,
      "inputs": [
        {
          "indexed": false,
          "internalType": "uint256",
          "name": "classId",
          "type": "uint256"
        }
      ],
      "name": "ClassRegistrationRegained",
      "type": "event"
    },
    {
      "anonymous": false,
      "inputs": [
        {
          "indexed": false,
          "internalType": "uint256",
          "name": "classId",
          "type": "uint256"
        }
      ],
      "name": "NewClassRegistrationCreated",
      "type": "event"
    },
    {
      "anonymous": false,
      "inputs": [
        {
          "indexed": true,
          "internalType": "address",
          "name": "from",
          "type": "address"
        },
        {
          "indexed": true,
          "internalType": "address",
          "name": "to",
          "type": "address"
        },
        {
          "indexed": true,
          "internalType": "uint256",
          "name": "tokenId",
          "type": "uint256"
        }
      ],
      "name": "Transfer",
      "type": "event"
    },
    {
      "inputs": [
        {
          "internalType": "address",
          "name": "to",
          "type": "address"
        },
        {
          "internalType": "uint256",
          "name": "tokenId",
          "type": "uint256"
        }
      ],
      "name": "approve",
      "outputs": [],
      "stateMutability": "nonpayable",
      "type": "function"
    },
    {
      "inputs": [
        {
          "internalType": "address",
          "name": "owner",
          "type": "address"
        }
      ],
      "name": "balanceOf",
      "outputs": [
        {
          "internalType": "uint256",
          "name": "",
          "type": "uint256"
        }
      ],
      "stateMutability": "view",
      "type": "function",
      "constant": true
    },
    {
      "inputs": [
        {
          "internalType": "uint256",
          "name": "tokenId",
          "type": "uint256"
        }
      ],
      "name": "getApproved",
      "outputs": [
        {
          "internalType": "address",
          "name": "",
          "type": "address"
        }
      ],
      "stateMutability": "view",
      "type": "function",
      "constant": true
    },
    {
      "inputs": [
        {
          "internalType": "address",
          "name": "owner",
          "type": "address"
        },
        {
          "internalType": "address",
          "name": "operator",
          "type": "address"
        }
      ],
      "name": "isApprovedForAll",
      "outputs": [
        {
          "internalType": "bool",
          "name": "",
          "type": "bool"
        }
      ],
      "stateMutability": "view",
      "type": "function",
      "constant": true
    },
    {
      "inputs": [],
      "name": "name",
      "outputs": [
        {
          "internalType": "string",
          "name": "",
          "type": "string"
        }
      ],
      "stateMutability": "view",
      "type": "function",
      "constant": true
    },
    {
      "inputs": [
        {
          "internalType": "uint256",
          "name": "tokenId",
          "type": "uint256"
        }
      ],
      "name": "ownerOf",
      "outputs": [
        {
          "internalType": "address",
          "name": "",
          "type": "address"
        }
      ],
      "stateMutability": "view",
      "type": "function",
      "constant": true
    },
    {
      "inputs": [
        {
          "internalType": "address",
          "name": "from",
          "type": "address"
        },
        {
          "internalType": "address",
          "name": "to",
          "type": "address"
        },
        {
          "internalType": "uint256",
          "name": "tokenId",
          "type": "uint256"
        }
      ],
      "name": "safeTransferFrom",
      "outputs": [],
      "stateMutability": "nonpayable",
      "type": "function"
    },
    {
      "inputs": [
        {
          "internalType": "address",
          "name": "from",
          "type": "address"
        },
        {
          "internalType": "address",
          "name": "to",
          "type": "address"
        },
        {
          "internalType": "uint256",
          "name": "tokenId",
          "type": "uint256"
        },
        {
          "internalType": "bytes",
          "name": "data",
          "type": "bytes"
        }
      ],
      "name": "safeTransferFrom",
      "outputs": [],
      "stateMutability": "nonpayable",
      "type": "function"
    },
    {
      "inputs": [
        {
          "internalType": "address",
          "name": "operator",
          "type": "address"
        },
        {
          "internalType": "bool",
          "name": "approved",
          "type": "bool"
        }
      ],
      "name": "setApprovalForAll",
      "outputs": [],
      "stateMutability": "nonpayable",
      "type": "function"
    },
    {
      "inputs": [
        {
          "internalType": "bytes4",
          "name": "interfaceId",
          "type": "bytes4"
        }
      ],
      "name": "supportsInterface",
      "outputs": [
        {
          "internalType": "bool",
          "name": "",
          "type": "bool"
        }
      ],
      "stateMutability": "view",
      "type": "function",
      "constant": true
    },
    {
      "inputs": [],
      "name": "symbol",
      "outputs": [
        {
          "internalType": "string",
          "name": "",
          "type": "string"
        }
      ],
      "stateMutability": "view",
      "type": "function",
      "constant": true
    },
    {
      "inputs": [
        {
          "internalType": "uint256",
          "name": "tokenId",
          "type": "uint256"
        }
      ],
      "name": "tokenURI",
      "outputs": [
        {
          "internalType": "string",
          "name": "",
          "type": "string"
        }
      ],
      "stateMutability": "view",
      "type": "function",
      "constant": true
    },
    {
      "inputs": [
        {
          "internalType": "address",
          "name": "from",
          "type": "address"
        },
        {
          "internalType": "address",
          "name": "to",
          "type": "address"
        },
        {
          "internalType": "uint256",
          "name": "tokenId",
          "type": "uint256"
        }
      ],
      "name": "transferFrom",
      "outputs": [],
      "stateMutability": "nonpayable",
      "type": "function"
    },
    {
      "inputs": [
        {
          "internalType": "address",
          "name": "nftCertificates",
          "type": "address"
        }
      ],
      "name": "initialize",
      "outputs": [],
      "stateMutability": "nonpayable",
      "type": "function"
    },
    {
      "inputs": [],
      "name": "getRegisteredClasses",
      "outputs": [
        {
          "components": [
            {
              "internalType": "uint256",
              "name": "tokenId",
              "type": "uint256"
            },
            {
              "internalType": "uint256",
              "name": "classId",
              "type": "uint256"
            },
            {
              "internalType": "uint256",
              "name": "studentTokenId",
              "type": "uint256"
            }
          ],
          "internalType": "struct IConstant.NftClassRegistration[]",
          "name": "",
          "type": "tuple[]"
        }
      ],
      "stateMutability": "view",
      "type": "function",
      "constant": true
    },
    {
      "inputs": [
        {
          "internalType": "uint256",
          "name": "tokenId",
          "type": "uint256"
        }
      ],
      "name": "getNftClassRegistration",
      "outputs": [
        {
          "components": [
            {
              "internalType": "uint256",
              "name": "tokenId",
              "type": "uint256"
            },
            {
              "internalType": "uint256",
              "name": "classId",
              "type": "uint256"
            },
            {
              "internalType": "uint256",
              "name": "studentTokenId",
              "type": "uint256"
            }
          ],
          "internalType": "struct IConstant.NftClassRegistration",
          "name": "",
          "type": "tuple"
        }
      ],
      "stateMutability": "view",
      "type": "function",
      "constant": true
    },
    {
      "inputs": [
        {
          "internalType": "uint256",
          "name": "classId",
          "type": "uint256"
        }
      ],
      "name": "getStudentListOfClass",
      "outputs": [
        {
          "components": [
            {
              "components": [
                {
                  "internalType": "uint256",
                  "name": "tokenId",
                  "type": "uint256"
                },
                {
                  "internalType": "address",
                  "name": "register",
                  "type": "address"
                },
                {
                  "internalType": "uint256",
                  "name": "expiredAt",
                  "type": "uint256"
                }
              ],
              "internalType": "struct IConstant.NftIdentity",
              "name": "nftIdentity",
              "type": "tuple"
            },
            {
              "internalType": "string",
              "name": "tokenURI",
              "type": "string"
            },
            {
              "internalType": "uint256",
              "name": "role",
              "type": "uint256"
            },
            {
              "internalType": "bool",
              "name": "isExpired",
              "type": "bool"
            }
          ],
          "internalType": "struct IConstant.NftIdentityResponse[]",
          "name": "",
          "type": "tuple[]"
        }
      ],
      "stateMutability": "view",
      "type": "function",
      "constant": true
    },
    {
      "inputs": [
        {
          "internalType": "uint256",
          "name": "classId",
          "type": "uint256"
        }
      ],
      "name": "getNumberOfRegisteredStudent",
      "outputs": [
        {
          "internalType": "uint256",
          "name": "",
          "type": "uint256"
        }
      ],
      "stateMutability": "view",
      "type": "function",
      "constant": true
    },
    {
      "inputs": [
        {
          "internalType": "uint256",
          "name": "studentTokenId",
          "type": "uint256"
        },
        {
          "internalType": "uint256",
          "name": "classId",
          "type": "uint256"
        }
      ],
      "name": "checkNftClassRegistrationRegained",
      "outputs": [
        {
          "internalType": "bool",
          "name": "",
          "type": "bool"
        }
      ],
      "stateMutability": "view",
      "type": "function",
      "constant": true
    },
    {
      "inputs": [
        {
          "internalType": "uint256",
          "name": "classId",
          "type": "uint256"
        }
      ],
      "name": "getRegainedNftListOfClass",
      "outputs": [
        {
          "internalType": "uint256[]",
          "name": "",
          "type": "uint256[]"
        }
      ],
      "stateMutability": "view",
      "type": "function",
      "constant": true
    },
    {
      "inputs": [
        {
          "internalType": "uint256",
          "name": "tokenId",
          "type": "uint256"
        },
        {
          "internalType": "bool",
          "name": "isAllowed",
          "type": "bool"
        }
      ],
      "name": "allowRequestNftCompleteCourse",
      "outputs": [],
      "stateMutability": "nonpayable",
      "type": "function"
    },
    {
      "inputs": [
        {
          "internalType": "address",
          "name": "sender",
          "type": "address"
        },
        {
          "internalType": "uint256",
          "name": "tokenId",
          "type": "uint256"
        }
      ],
      "name": "regainV2",
      "outputs": [
        {
          "components": [
            {
              "internalType": "uint256",
              "name": "id",
              "type": "uint256"
            },
            {
              "internalType": "uint256",
              "name": "courseId",
              "type": "uint256"
            },
            {
              "internalType": "uint256",
              "name": "knowledgeBlockId",
              "type": "uint256"
            },
            {
              "internalType": "uint256",
              "name": "prevCourseId",
              "type": "uint256"
            },
            {
              "internalType": "uint256",
              "name": "credits",
              "type": "uint256"
            },
            {
              "internalType": "uint256",
              "name": "completeAt",
              "type": "uint256"
            },
            {
              "internalType": "uint256",
              "name": "maxSize",
              "type": "uint256"
            },
            {
              "internalType": "uint256",
              "name": "teacherTokenId",
              "type": "uint256"
            },
            {
              "internalType": "uint256",
              "name": "semester",
              "type": "uint256"
            },
            {
              "internalType": "uint256",
              "name": "registerClassFee",
              "type": "uint256"
            },
            {
              "internalType": "string",
              "name": "uri",
              "type": "string"
            }
          ],
          "internalType": "struct IConstant.Class",
          "name": "",
          "type": "tuple"
        },
        {
          "components": [
            {
              "internalType": "uint256",
              "name": "tokenId",
              "type": "uint256"
            },
            {
              "internalType": "address",
              "name": "register",
              "type": "address"
            },
            {
              "internalType": "uint256",
              "name": "expiredAt",
              "type": "uint256"
            }
          ],
          "internalType": "struct IConstant.NftIdentity",
          "name": "",
          "type": "tuple"
        }
      ],
      "stateMutability": "nonpayable",
      "type": "function"
    },
    {
      "inputs": [
        {
          "internalType": "uint256",
          "name": "classId",
          "type": "uint256"
        },
        {
          "internalType": "string",
          "name": "uri",
          "type": "string"
        }
      ],
      "name": "registerClass",
      "outputs": [],
      "stateMutability": "payable",
      "type": "function",
      "payable": true
    }
  ],
  "bytecode": "0x60806040523480156200001157600080fd5b5060405162005524380380620055248339818101604052810190620000379190620002db565b6040518060400160405280601481526020017f4e6674436c617373526567697374726174696f6e0000000000000000000000008152506040518060400160405280600381526020017f4e4352000000000000000000000000000000000000000000000000000000000081525081818160009080519060200190620000bd929190620001c1565b508060019080519060200190620000d6929190620001c1565b50505033600760006101000a81548173ffffffffffffffffffffffffffffffffffffffff021916908373ffffffffffffffffffffffffffffffffffffffff16021790555050506000600c60146101000a81548160ff02191690831515021790555081600b60006101000a81548173ffffffffffffffffffffffffffffffffffffffff021916908373ffffffffffffffffffffffffffffffffffffffff16021790555080600a60006101000a81548173ffffffffffffffffffffffffffffffffffffffff021916908373ffffffffffffffffffffffffffffffffffffffff160217905550505062000386565b828054620001cf9062000351565b90600052602060002090601f016020900481019282620001f357600085556200023f565b82601f106200020e57805160ff19168380011785556200023f565b828001600101855582156200023f579182015b828111156200023e57825182559160200191906001019062000221565b5b5090506200024e919062000252565b5090565b5b808211156200026d57600081600090555060010162000253565b5090565b600080fd5b600073ffffffffffffffffffffffffffffffffffffffff82169050919050565b6000620002a38262000276565b9050919050565b620002b58162000296565b8114620002c157600080fd5b50565b600081519050620002d581620002aa565b92915050565b60008060408385031215620002f557620002f462000271565b5b60006200030585828601620002c4565b92505060206200031885828601620002c4565b9150509250929050565b7f4e487b7100000000000000000000000000000000000000000000000000000000600052602260045260246000fd5b600060028204905060018216806200036a57607f821691505b60208210810362000380576200037f62000322565b5b50919050565b61518e80620003966000396000f3fe6080604052600436106101405760003560e01c80636d6ffaf6116100b6578063b5bee3171161006f578063b5bee317146104cd578063b88d4fde146104e9578063c4d66de814610512578063c87b56dd1461053b578063e985e9c514610578578063f69f5e3e146105b557610140565b80636d6ffaf61461039657806370a08231146103c15780638e053c70146103fe57806395d89b411461043c578063a22cb46514610467578063a24a7c301461049057610140565b8063256283ed11610108578063256283ed1461023c578063300c18421461027957806342842e0e146102b657806354c08933146102df578063573c66de1461031c5780636352211e1461035957610140565b806301ffc9a71461014557806306fdde0314610182578063081812fc146101ad578063095ea7b3146101ea57806323b872dd14610213575b600080fd5b34801561015157600080fd5b5061016c600480360381019061016791906134a3565b6105de565b60405161017991906134eb565b60405180910390f35b34801561018e57600080fd5b506101976106c0565b6040516101a4919061359f565b60405180910390f35b3480156101b957600080fd5b506101d460048036038101906101cf91906135f7565b610752565b6040516101e19190613665565b60405180910390f35b3480156101f657600080fd5b50610211600480360381019061020c91906136ac565b610798565b005b34801561021f57600080fd5b5061023a600480360381019061023591906136ec565b6108af565b005b34801561024857600080fd5b50610263600480360381019061025e91906135f7565b61090f565b604051610270919061391d565b60405180910390f35b34801561028557600080fd5b506102a0600480360381019061029b91906135f7565b610a99565b6040516102ad91906139ee565b60405180910390f35b3480156102c257600080fd5b506102dd60048036038101906102d891906136ec565b610bee565b005b3480156102eb57600080fd5b5061030660048036038101906103019190613a10565b610c0e565b60405161031391906134eb565b60405180910390f35b34801561032857600080fd5b50610343600480360381019061033e91906135f7565b610c3f565b6040516103509190613a5f565b60405180910390f35b34801561036557600080fd5b50610380600480360381019061037b91906135f7565b610c5f565b60405161038d9190613665565b60405180910390f35b3480156103a257600080fd5b506103ab610ce5565b6040516103b89190613b6b565b60405180910390f35b3480156103cd57600080fd5b506103e860048036038101906103e39190613b8d565b610edb565b6040516103f59190613a5f565b60405180910390f35b34801561040a57600080fd5b50610425600480360381019061042091906136ac565b610f92565b604051610433929190613ceb565b60405180910390f35b34801561044857600080fd5b50610451611224565b60405161045e919061359f565b60405180910390f35b34801561047357600080fd5b5061048e60048036038101906104899190613d47565b6112b6565b005b34801561049c57600080fd5b506104b760048036038101906104b291906135f7565b6112cc565b6040516104c49190613dc9565b60405180910390f35b6104e760048036038101906104e29190613f19565b61138e565b005b3480156104f557600080fd5b50610510600480360381019061050b9190614016565b611898565b005b34801561051e57600080fd5b5061053960048036038101906105349190613b8d565b6118fa565b005b34801561054757600080fd5b50610562600480360381019061055d91906135f7565b6119cd565b60405161056f919061359f565b60405180910390f35b34801561058457600080fd5b5061059f600480360381019061059a9190614099565b611adf565b6040516105ac91906134eb565b60405180910390f35b3480156105c157600080fd5b506105dc60048036038101906105d791906140d9565b611b73565b005b60007f80ac58cd000000000000000000000000000000000000000000000000000000007bffffffffffffffffffffffffffffffffffffffffffffffffffffffff1916827bffffffffffffffffffffffffffffffffffffffffffffffffffffffff191614806106a957507f5b5e139f000000000000000000000000000000000000000000000000000000007bffffffffffffffffffffffffffffffffffffffffffffffffffffffff1916827bffffffffffffffffffffffffffffffffffffffffffffffffffffffff1916145b806106b957506106b882611e93565b5b9050919050565b6060600080546106cf90614148565b80601f01602080910402602001604051908101604052809291908181526020018280546106fb90614148565b80156107485780601f1061071d57610100808354040283529160200191610748565b820191906000526020600020905b81548152906001019060200180831161072b57829003601f168201915b5050505050905090565b600061075d82611efd565b6004600083815260200190815260200160002060009054906101000a900473ffffffffffffffffffffffffffffffffffffffff169050919050565b60006107a382610c5f565b90508073ffffffffffffffffffffffffffffffffffffffff168373ffffffffffffffffffffffffffffffffffffffff1603610813576040517f08c379a000000000000000000000000000000000000000000000000000000000815260040161080a906141eb565b60405180910390fd5b8073ffffffffffffffffffffffffffffffffffffffff16610832611f48565b73ffffffffffffffffffffffffffffffffffffffff16148061086157506108608161085b611f48565b611adf565b5b6108a0576040517f08c379a00000000000000000000000000000000000000000000000000000000081526004016108979061427d565b60405180910390fd5b6108aa8383611f50565b505050565b6108c06108ba611f48565b82612009565b6108ff576040517f08c379a00000000000000000000000000000000000000000000000000000000081526004016108f69061430f565b60405180910390fd5b61090a83838361209e565b505050565b606060006012600084815260200190815260200160002080549050905060008167ffffffffffffffff81111561094857610947613dee565b5b60405190808252806020026020018201604052801561098157816020015b61096e613272565b8152602001906001900390816109665790505b50905060005b82811015610a8e57600b60009054906101000a900473ffffffffffffffffffffffffffffffffffffffff1673ffffffffffffffffffffffffffffffffffffffff1663d703df8b6012600088815260200190815260200160002083815481106109f2576109f161432f565b5b90600052602060002001546040518263ffffffff1660e01b8152600401610a199190613a5f565b600060405180830381865afa158015610a36573d6000803e3d6000fd5b505050506040513d6000823e3d601f19601f82011682018060405250810190610a5f919061450f565b828281518110610a7257610a7161432f565b5b602002602001018190525080610a8790614587565b9050610987565b508092505050919050565b6060600060126000848152602001908152602001600020805480602002602001604051908101604052809291908181526020018280548015610afa57602002820191906000526020600020905b815481526020019060010190808311610ae6575b5050505050905060008151905060008167ffffffffffffffff811115610b2357610b22613dee565b5b604051908082528060200260200182016040528015610b515781602001602082028036833780820191505090505b5090506000805b83811015610be157610b84858281518110610b7657610b7561432f565b5b602002602001015188610c0e565b15610bd057848181518110610b9c57610b9b61432f565b5b6020026020010151838381518110610bb757610bb661432f565b5b60200260200101818152505081610bcd90614587565b91505b80610bda90614587565b9050610b58565b5081945050505050919050565b610c0983838360405180602001604052806000815250611898565b505050565b6000806010600085815260200190815260200160002060008481526020019081526020016000205414905092915050565b600060126000838152602001908152602001600020805490509050919050565b600080610c6b83612397565b9050600073ffffffffffffffffffffffffffffffffffffffff168173ffffffffffffffffffffffffffffffffffffffff1603610cdc576040517f08c379a0000000000000000000000000000000000000000000000000000000008152600401610cd39061461b565b60405180910390fd5b80915050919050565b60606000600b60009054906101000a900473ffffffffffffffffffffffffffffffffffffffff1673ffffffffffffffffffffffffffffffffffffffff166352db77c460006001811115610d3b57610d3a61463b565b5b336040518363ffffffff1660e01b8152600401610d5992919061466a565b600060405180830381865afa158015610d76573d6000803e3d6000fd5b505050506040513d6000823e3d601f19601f82011682018060405250810190610d9f919061450f565b9050600081600001516000015190506000600f6000838152602001908152602001600020805480602002602001604051908101604052809291908181526020018280548015610e0d57602002820191906000526020600020905b815481526020019060010190808311610df9575b5050505050905060008151905060008167ffffffffffffffff811115610e3657610e35613dee565b5b604051908082528060200260200182016040528015610e6f57816020015b610e5c6132a2565b815260200190600190039081610e545790505b50905060005b82811015610ecf57610ea0848281518110610e9357610e9261432f565b5b60200260200101516112cc565b828281518110610eb357610eb261432f565b5b602002602001018190525080610ec890614587565b9050610e75565b50809550505050505090565b60008073ffffffffffffffffffffffffffffffffffffffff168273ffffffffffffffffffffffffffffffffffffffff1603610f4b576040517f08c379a0000000000000000000000000000000000000000000000000000000008152600401610f4290614705565b60405180910390fd5b600360008373ffffffffffffffffffffffffffffffffffffffff1673ffffffffffffffffffffffffffffffffffffffff168152602001908152602001600020549050919050565b610f9a6132c3565b610fa261331d565b6013600084815260200190815260200160002060009054906101000a900460ff16611002576040517f08c379a0000000000000000000000000000000000000000000000000000000008152600401610ff990614771565b60405180910390fd5b6000600b60009054906101000a900473ffffffffffffffffffffffffffffffffffffffff1673ffffffffffffffffffffffffffffffffffffffff166352db77c4600060018111156110565761105561463b565b5b876040518363ffffffff1660e01b815260040161107492919061466a565b600060405180830381865afa158015611091573d6000803e3d6000fd5b505050506040513d6000823e3d601f19601f820116820180604052508101906110ba919061450f565b9050806060015115611101576040517f08c379a00000000000000000000000000000000000000000000000000000000081526004016110f8906147dd565b60405180910390fd5b600061110c856112cc565b905081600001516000015181600001511461115c576040517f08c379a000000000000000000000000000000000000000000000000000000000815260040161115390614849565b60405180910390fd5b6000600a60009054906101000a900473ffffffffffffffffffffffffffffffffffffffff1673ffffffffffffffffffffffffffffffffffffffff166303d658e083602001516040518263ffffffff1660e01b81526004016111bd9190613a5f565b600060405180830381865afa1580156111da573d6000803e3d6000fd5b505050506040513d6000823e3d601f19601f820116820180604052508101906112039190614991565b90506112108282886123d4565b808360000151945094505050509250929050565b60606001805461123390614148565b80601f016020809104026020016040519081016040528092919081815260200182805461125f90614148565b80156112ac5780601f10611281576101008083540402835291602001916112ac565b820191906000526020600020905b81548152906001019060200180831161128f57829003601f168201915b5050505050905090565b6112c86112c1611f48565b8383612459565b5050565b6112d46132a2565b6000600e60008481526020019081526020016000205490506000811161132f576040517f08c379a000000000000000000000000000000000000000000000000000000000815260040161132690614a26565b60405180910390fd5b600d60018261133e9190614a46565b8154811061134f5761134e61432f565b5b90600052602060002090600302016040518060600160405290816000820154815260200160018201548152602001600282015481525050915050919050565b6000600b60009054906101000a900473ffffffffffffffffffffffffffffffffffffffff1673ffffffffffffffffffffffffffffffffffffffff166352db77c4600060018111156113e2576113e161463b565b5b336040518363ffffffff1660e01b815260040161140092919061466a565b600060405180830381865afa15801561141d573d6000803e3d6000fd5b505050506040513d6000823e3d601f19601f82011682018060405250810190611446919061450f565b9050600081600001516000015190506000600a60009054906101000a900473ffffffffffffffffffffffffffffffffffffffff1673ffffffffffffffffffffffffffffffffffffffff166303d658e0866040518263ffffffff1660e01b81526004016114b29190613a5f565b600060405180830381865afa1580156114cf573d6000803e3d6000fd5b505050506040513d6000823e3d601f19601f820116820180604052508101906114f89190614991565b9050600080600a60009054906101000a900473ffffffffffffffffffffffffffffffffffffffff1673ffffffffffffffffffffffffffffffffffffffff1663d9ac23d98461010001516040518263ffffffff1660e01b815260040161155d9190613a5f565b6040805180830381865afa158015611579573d6000803e3d6000fd5b505050506040513d601f19601f8201168201806040525081019061159d9190614a7a565b915091508460600151156115b057600080fd5b8260c00151601260008560000151815260200190815260200160002080549050106115da57600080fd5b814210156115e757600080fd5b804211156115f457600080fd5b6000836060015114806116a55750600c60009054906101000a900473ffffffffffffffffffffffffffffffffffffffff1673ffffffffffffffffffffffffffffffffffffffff16636eabe75f8460600151336040518363ffffffff1660e01b815260040161166392919061466a565b602060405180830381865afa158015611680573d6000803e3d6000fd5b505050506040513d601f19601f820116820180604052508101906116a49190614aba565b5b6116ae57600080fd5b60006011600086815260200190815260200160002060008560200151815260200190815260200160002054146116e357600080fd5b82610120015134146116f457600080fd5b600061170033886125c5565b9050600d60405180606001604052808381526020018a81526020018781525090806001815401808255809150506001900390600052602060002090600302016000909190919091506000820151816000015560208201518160010155604082015181600201555050600d80549050600e600083815260200190815260200160002081905550600f600086815260200190815260200160002081908060018154018082558091505060019003906000526020600020016000909190919091505580601160008781526020019081526020016000206000866020015181526020019081526020016000208190555080601060008781526020019081526020016000206000866000015181526020019081526020016000208190555060126000856000015181526020019081526020016000208590806001815401808255809150506001900390600052602060002001600090919091909150557fbe6a370d4ba6aa5fb05f8f9fc9d428affa443f0d593797fd5ac930a5e5b8fde5816040516118869190613a5f565b60405180910390a15050505050505050565b6118a96118a3611f48565b83612009565b6118e8576040517f08c379a00000000000000000000000000000000000000000000000000000000081526004016118df9061430f565b60405180910390fd5b6118f484848484612636565b50505050565b3373ffffffffffffffffffffffffffffffffffffffff16600760009054906101000a900473ffffffffffffffffffffffffffffffffffffffff1673ffffffffffffffffffffffffffffffffffffffff161461195457600080fd5b600c60149054906101000a900460ff161561196e57600080fd5b6001600c60146101000a81548160ff02191690831515021790555080600c60006101000a81548173ffffffffffffffffffffffffffffffffffffffff021916908373ffffffffffffffffffffffffffffffffffffffff16021790555050565b60606119d882611efd565b60006006600084815260200190815260200160002080546119f890614148565b80601f0160208091040260200160405190810160405280929190818152602001828054611a2490614148565b8015611a715780601f10611a4657610100808354040283529160200191611a71565b820191906000526020600020905b815481529060010190602001808311611a5457829003601f168201915b505050505090506000611a82612692565b90506000815103611a97578192505050611ada565b600082511115611acc578082604051602001611ab4929190614b23565b60405160208183030381529060405292505050611ada565b611ad5846126a9565b925050505b919050565b6000600560008473ffffffffffffffffffffffffffffffffffffffff1673ffffffffffffffffffffffffffffffffffffffff16815260200190815260200160002060008373ffffffffffffffffffffffffffffffffffffffff1673ffffffffffffffffffffffffffffffffffffffff16815260200190815260200160002060009054906101000a900460ff16905092915050565b6000611b7e836112cc565b90506000600b60009054906101000a900473ffffffffffffffffffffffffffffffffffffffff1673ffffffffffffffffffffffffffffffffffffffff166352db77c4600180811115611bd357611bd261463b565b5b336040518363ffffffff1660e01b8152600401611bf192919061466a565b600060405180830381865afa158015611c0e573d6000803e3d6000fd5b505050506040513d6000823e3d601f19601f82011682018060405250810190611c37919061450f565b90506000600a60009054906101000a900473ffffffffffffffffffffffffffffffffffffffff1673ffffffffffffffffffffffffffffffffffffffff166303d658e084602001516040518263ffffffff1660e01b8152600401611c9a9190613a5f565b600060405180830381865afa158015611cb7573d6000803e3d6000fd5b505050506040513d6000823e3d601f19601f82011682018060405250810190611ce09190614991565b9050831580611d17575060006011600087815260200190815260200160002060008360200151815260200190815260200160002054115b611d56576040517f08c379a0000000000000000000000000000000000000000000000000000000008152600401611d4d90614b93565b60405180910390fd5b428160a0015111611d9c576040517f08c379a0000000000000000000000000000000000000000000000000000000008152600401611d9390614bff565b60405180910390fd5b816060015115611de1576040517f08c379a0000000000000000000000000000000000000000000000000000000008152600401611dd8906147dd565b60405180910390fd5b8160000151600001518160e0015114611e2f576040517f08c379a0000000000000000000000000000000000000000000000000000000008152600401611e2690614c6b565b60405180910390fd5b836013600087815260200190815260200160002060006101000a81548160ff02191690831515021790555083611e8c5760116000868152602001908152602001600020600082602001518152602001908152602001600020600090555b5050505050565b60007f01ffc9a7000000000000000000000000000000000000000000000000000000007bffffffffffffffffffffffffffffffffffffffffffffffffffffffff1916827bffffffffffffffffffffffffffffffffffffffffffffffffffffffff1916149050919050565b611f0681612711565b611f45576040517f08c379a0000000000000000000000000000000000000000000000000000000008152600401611f3c9061461b565b60405180910390fd5b50565b600033905090565b816004600083815260200190815260200160002060006101000a81548173ffffffffffffffffffffffffffffffffffffffff021916908373ffffffffffffffffffffffffffffffffffffffff160217905550808273ffffffffffffffffffffffffffffffffffffffff16611fc383610c5f565b73ffffffffffffffffffffffffffffffffffffffff167f8c5be1e5ebec7d5bd14f71427d1e84f3dd0314c0f7b2291e5b200ac8c7c3b92560405160405180910390a45050565b60008061201583610c5f565b90508073ffffffffffffffffffffffffffffffffffffffff168473ffffffffffffffffffffffffffffffffffffffff16148061205757506120568185611adf565b5b8061209557508373ffffffffffffffffffffffffffffffffffffffff1661207d84610752565b73ffffffffffffffffffffffffffffffffffffffff16145b91505092915050565b8273ffffffffffffffffffffffffffffffffffffffff166120be82610c5f565b73ffffffffffffffffffffffffffffffffffffffff1614612114576040517f08c379a000000000000000000000000000000000000000000000000000000000815260040161210b90614cfd565b60405180910390fd5b600073ffffffffffffffffffffffffffffffffffffffff168273ffffffffffffffffffffffffffffffffffffffff1603612183576040517f08c379a000000000000000000000000000000000000000000000000000000000815260040161217a90614d8f565b60405180910390fd5b6121908383836001612752565b8273ffffffffffffffffffffffffffffffffffffffff166121b082610c5f565b73ffffffffffffffffffffffffffffffffffffffff1614612206576040517f08c379a00000000000000000000000000000000000000000000000000000000081526004016121fd90614cfd565b60405180910390fd5b6004600082815260200190815260200160002060006101000a81549073ffffffffffffffffffffffffffffffffffffffff02191690556001600360008573ffffffffffffffffffffffffffffffffffffffff1673ffffffffffffffffffffffffffffffffffffffff168152602001908152602001600020600082825403925050819055506001600360008473ffffffffffffffffffffffffffffffffffffffff1673ffffffffffffffffffffffffffffffffffffffff16815260200190815260200160002060008282540192505081905550816002600083815260200190815260200160002060006101000a81548173ffffffffffffffffffffffffffffffffffffffff021916908373ffffffffffffffffffffffffffffffffffffffff160217905550808273ffffffffffffffffffffffffffffffffffffffff168473ffffffffffffffffffffffffffffffffffffffff167fddf252ad1be2c89b69c2b068fc378daa952ba7f163c4a11628f55a4df523b3ef60405160405180910390a46123928383836001612758565b505050565b60006002600083815260200190815260200160002060009054906101000a900473ffffffffffffffffffffffffffffffffffffffff169050919050565b6123dd8161275e565b6123eb8360400151826127b1565b6123f4816128d6565b601160008460400151815260200190815260200160002060008360200151815260200190815260200160002060009055601060008460400151815260200190815260200160002060008360000151815260200190815260200160002060009055505050565b8173ffffffffffffffffffffffffffffffffffffffff168373ffffffffffffffffffffffffffffffffffffffff16036124c7576040517f08c379a00000000000000000000000000000000000000000000000000000000081526004016124be90614dfb565b60405180910390fd5b80600560008573ffffffffffffffffffffffffffffffffffffffff1673ffffffffffffffffffffffffffffffffffffffff16815260200190815260200160002060008473ffffffffffffffffffffffffffffffffffffffff1673ffffffffffffffffffffffffffffffffffffffff16815260200190815260200160002060006101000a81548160ff0219169083151502179055508173ffffffffffffffffffffffffffffffffffffffff168373ffffffffffffffffffffffffffffffffffffffff167f17307eab39ab6107e8899845ad3d59bd9653f200f220920489ca2b5937696c31836040516125b891906134eb565b60405180910390a3505050565b6000806125d0612a28565b905061262284826000368080601f016020809104026020016040519081016040528093929190818152602001838380828437600081840152601f19601f82011690508083019250505050505050612a49565b61262c8184612aa4565b8091505092915050565b61264184848461209e565b61264d84848484612b18565b61268c576040517f08c379a000000000000000000000000000000000000000000000000000000000815260040161268390614e8d565b60405180910390fd5b50505050565b606060405180602001604052806000815250905090565b60606126b482611efd565b60006126be612692565b905060008151116126de5760405180602001604052806000815250612709565b806126e884612c9f565b6040516020016126f9929190614b23565b6040516020818303038152906040525b915050919050565b60008073ffffffffffffffffffffffffffffffffffffffff1661273383612397565b73ffffffffffffffffffffffffffffffffffffffff1614159050919050565b50505050565b50505050565b61276781612d6d565b600060066000838152602001908152602001600020805461278790614148565b9050146127ae576006600082815260200190815260200160002060006127ad9190613354565b5b50565b6000600f60008481526020019081526020016000208054905090506000805b828110156128275783600f600087815260200190815260200160002082815481106127fe576127fd61432f565b5b90600052602060002001540361281657809150612827565b8061282090614587565b90506127d0565b50600f60008581526020019081526020016000206001836128489190614a46565b815481106128595761285861432f565b5b9060005260206000200154600f600086815260200190815260200160002082815481106128895761288861432f565b5b9060005260206000200181905550600f60008581526020019081526020016000208054806128ba576128b9614ead565b5b6001900381819060005260206000200160009055905550505050565b6000600e60008381526020019081526020016000205490506000600d805490509050818111156129c9576000600d6001836129119190614a46565b815481106129225761292161432f565b5b90600052602060002090600302016040518060600160405290816000820154815260200160018201548152602001600282015481525050905080600d60018561296b9190614a46565b8154811061297c5761297b61432f565b5b906000526020600020906003020160008201518160000155602082015181600101556040820151816002015590505082600e60008360000151815260200190815260200160002081905550505b600e600084815260200190815260200160002060009055600d8054806129f2576129f1614ead565b5b60019003818190600052602060002090600302016000808201600090556001820160009055600282016000905550509055505050565b6000612a346008612ebb565b6000612a406008612ed1565b90508091505090565b612a538383612edf565b612a606000848484612b18565b612a9f576040517f08c379a0000000000000000000000000000000000000000000000000000000008152600401612a9690614e8d565b60405180910390fd5b505050565b612aad82612711565b612aec576040517f08c379a0000000000000000000000000000000000000000000000000000000008152600401612ae390614f4e565b60405180910390fd5b80600660008481526020019081526020016000209080519060200190612b13929190613394565b505050565b6000612b398473ffffffffffffffffffffffffffffffffffffffff166130fc565b15612c92578373ffffffffffffffffffffffffffffffffffffffff1663150b7a02612b62611f48565b8786866040518563ffffffff1660e01b8152600401612b849493929190614fc3565b6020604051808303816000875af1925050508015612bc057506040513d601f19601f82011682018060405250810190612bbd9190615024565b60015b612c42573d8060008114612bf0576040519150601f19603f3d011682016040523d82523d6000602084013e612bf5565b606091505b506000815103612c3a576040517f08c379a0000000000000000000000000000000000000000000000000000000008152600401612c3190614e8d565b60405180910390fd5b805181602001fd5b63150b7a0260e01b7bffffffffffffffffffffffffffffffffffffffffffffffffffffffff1916817bffffffffffffffffffffffffffffffffffffffffffffffffffffffff191614915050612c97565b600190505b949350505050565b606060006001612cae8461311f565b01905060008167ffffffffffffffff811115612ccd57612ccc613dee565b5b6040519080825280601f01601f191660200182016040528015612cff5781602001600182028036833780820191505090505b509050600082602001820190505b600115612d62578080600190039150507f3031323334353637383961626364656600000000000000000000000000000000600a86061a8153600a8581612d5657612d55615051565b5b04945060008503612d0d575b819350505050919050565b6000612d7882610c5f565b9050612d88816000846001612752565b612d9182610c5f565b90506004600083815260200190815260200160002060006101000a81549073ffffffffffffffffffffffffffffffffffffffff02191690556001600360008373ffffffffffffffffffffffffffffffffffffffff1673ffffffffffffffffffffffffffffffffffffffff168152602001908152602001600020600082825403925050819055506002600083815260200190815260200160002060006101000a81549073ffffffffffffffffffffffffffffffffffffffff021916905581600073ffffffffffffffffffffffffffffffffffffffff168273ffffffffffffffffffffffffffffffffffffffff167fddf252ad1be2c89b69c2b068fc378daa952ba7f163c4a11628f55a4df523b3ef60405160405180910390a4612eb7816000846001612758565b5050565b6001816000016000828254019250508190555050565b600081600001549050919050565b600073ffffffffffffffffffffffffffffffffffffffff168273ffffffffffffffffffffffffffffffffffffffff1603612f4e576040517f08c379a0000000000000000000000000000000000000000000000000000000008152600401612f45906150cc565b60405180910390fd5b612f5781612711565b15612f97576040517f08c379a0000000000000000000000000000000000000000000000000000000008152600401612f8e90615138565b60405180910390fd5b612fa5600083836001612752565b612fae81612711565b15612fee576040517f08c379a0000000000000000000000000000000000000000000000000000000008152600401612fe590615138565b60405180910390fd5b6001600360008473ffffffffffffffffffffffffffffffffffffffff1673ffffffffffffffffffffffffffffffffffffffff16815260200190815260200160002060008282540192505081905550816002600083815260200190815260200160002060006101000a81548173ffffffffffffffffffffffffffffffffffffffff021916908373ffffffffffffffffffffffffffffffffffffffff160217905550808273ffffffffffffffffffffffffffffffffffffffff16600073ffffffffffffffffffffffffffffffffffffffff167fddf252ad1be2c89b69c2b068fc378daa952ba7f163c4a11628f55a4df523b3ef60405160405180910390a46130f8600083836001612758565b5050565b6000808273ffffffffffffffffffffffffffffffffffffffff163b119050919050565b600080600090507a184f03e93ff9f4daa797ed6e38ed64bf6a1f010000000000000000831061317d577a184f03e93ff9f4daa797ed6e38ed64bf6a1f010000000000000000838161317357613172615051565b5b0492506040810190505b6d04ee2d6d415b85acef810000000083106131ba576d04ee2d6d415b85acef810000000083816131b0576131af615051565b5b0492506020810190505b662386f26fc1000083106131e957662386f26fc1000083816131df576131de615051565b5b0492506010810190505b6305f5e1008310613212576305f5e100838161320857613207615051565b5b0492506008810190505b612710831061323757612710838161322d5761322c615051565b5b0492506004810190505b6064831061325a57606483816132505761324f615051565b5b0492506002810190505b600a8310613269576001810190505b80915050919050565b604051806080016040528061328561331d565b815260200160608152602001600081526020016000151581525090565b60405180606001604052806000815260200160008152602001600081525090565b60405180610160016040528060008152602001600081526020016000815260200160008152602001600081526020016000815260200160008152602001600081526020016000815260200160008152602001606081525090565b604051806060016040528060008152602001600073ffffffffffffffffffffffffffffffffffffffff168152602001600081525090565b50805461336090614148565b6000825580601f106133725750613391565b601f016020900490600052602060002090810190613390919061341a565b5b50565b8280546133a090614148565b90600052602060002090601f0160209004810192826133c25760008555613409565b82601f106133db57805160ff1916838001178555613409565b82800160010185558215613409579182015b828111156134085782518255916020019190600101906133ed565b5b509050613416919061341a565b5090565b5b8082111561343357600081600090555060010161341b565b5090565b6000604051905090565b600080fd5b600080fd5b60007fffffffff0000000000000000000000000000000000000000000000000000000082169050919050565b6134808161344b565b811461348b57600080fd5b50565b60008135905061349d81613477565b92915050565b6000602082840312156134b9576134b8613441565b5b60006134c78482850161348e565b91505092915050565b60008115159050919050565b6134e5816134d0565b82525050565b600060208201905061350060008301846134dc565b92915050565b600081519050919050565b600082825260208201905092915050565b60005b83811015613540578082015181840152602081019050613525565b8381111561354f576000848401525b50505050565b6000601f19601f8301169050919050565b600061357182613506565b61357b8185613511565b935061358b818560208601613522565b61359481613555565b840191505092915050565b600060208201905081810360008301526135b98184613566565b905092915050565b6000819050919050565b6135d4816135c1565b81146135df57600080fd5b50565b6000813590506135f1816135cb565b92915050565b60006020828403121561360d5761360c613441565b5b600061361b848285016135e2565b91505092915050565b600073ffffffffffffffffffffffffffffffffffffffff82169050919050565b600061364f82613624565b9050919050565b61365f81613644565b82525050565b600060208201905061367a6000830184613656565b92915050565b61368981613644565b811461369457600080fd5b50565b6000813590506136a681613680565b92915050565b600080604083850312156136c3576136c2613441565b5b60006136d185828601613697565b92505060206136e2858286016135e2565b9150509250929050565b60008060006060848603121561370557613704613441565b5b600061371386828701613697565b935050602061372486828701613697565b9250506040613735868287016135e2565b9150509250925092565b600081519050919050565b600082825260208201905092915050565b6000819050602082019050919050565b613774816135c1565b82525050565b61378381613644565b82525050565b60608201600082015161379f600085018261376b565b5060208201516137b2602085018261377a565b5060408201516137c5604085018261376b565b50505050565b600082825260208201905092915050565b60006137e782613506565b6137f181856137cb565b9350613801818560208601613522565b61380a81613555565b840191505092915050565b61381e816134d0565b82525050565b600060c08301600083015161383c6000860182613789565b506020830151848203606086015261385482826137dc565b9150506040830151613869608086018261376b565b50606083015161387c60a0860182613815565b508091505092915050565b60006138938383613824565b905092915050565b6000602082019050919050565b60006138b38261373f565b6138bd818561374a565b9350836020820285016138cf8561375b565b8060005b8581101561390b57848403895281516138ec8582613887565b94506138f78361389b565b925060208a019950506001810190506138d3565b50829750879550505050505092915050565b6000602082019050818103600083015261393781846138a8565b905092915050565b600081519050919050565b600082825260208201905092915050565b6000819050602082019050919050565b6000613977838361376b565b60208301905092915050565b6000602082019050919050565b600061399b8261393f565b6139a5818561394a565b93506139b08361395b565b8060005b838110156139e15781516139c8888261396b565b97506139d383613983565b9250506001810190506139b4565b5085935050505092915050565b60006020820190508181036000830152613a088184613990565b905092915050565b60008060408385031215613a2757613a26613441565b5b6000613a35858286016135e2565b9250506020613a46858286016135e2565b9150509250929050565b613a59816135c1565b82525050565b6000602082019050613a746000830184613a50565b92915050565b600081519050919050565b600082825260208201905092915050565b6000819050602082019050919050565b606082016000820151613abc600085018261376b565b506020820151613acf602085018261376b565b506040820151613ae2604085018261376b565b50505050565b6000613af48383613aa6565b60608301905092915050565b6000602082019050919050565b6000613b1882613a7a565b613b228185613a85565b9350613b2d83613a96565b8060005b83811015613b5e578151613b458882613ae8565b9750613b5083613b00565b925050600181019050613b31565b5085935050505092915050565b60006020820190508181036000830152613b858184613b0d565b905092915050565b600060208284031215613ba357613ba2613441565b5b6000613bb184828501613697565b91505092915050565b600061016083016000830151613bd3600086018261376b565b506020830151613be6602086018261376b565b506040830151613bf9604086018261376b565b506060830151613c0c606086018261376b565b506080830151613c1f608086018261376b565b5060a0830151613c3260a086018261376b565b5060c0830151613c4560c086018261376b565b5060e0830151613c5860e086018261376b565b50610100830151613c6d61010086018261376b565b50610120830151613c8261012086018261376b565b50610140830151848203610140860152613c9c82826137dc565b9150508091505092915050565b606082016000820151613cbf600085018261376b565b506020820151613cd2602085018261377a565b506040820151613ce5604085018261376b565b50505050565b60006080820190508181036000830152613d058185613bba565b9050613d146020830184613ca9565b9392505050565b613d24816134d0565b8114613d2f57600080fd5b50565b600081359050613d4181613d1b565b92915050565b60008060408385031215613d5e57613d5d613441565b5b6000613d6c85828601613697565b9250506020613d7d85828601613d32565b9150509250929050565b606082016000820151613d9d600085018261376b565b506020820151613db0602085018261376b565b506040820151613dc3604085018261376b565b50505050565b6000606082019050613dde6000830184613d87565b92915050565b600080fd5b600080fd5b7f4e487b7100000000000000000000000000000000000000000000000000000000600052604160045260246000fd5b613e2682613555565b810181811067ffffffffffffffff82111715613e4557613e44613dee565b5b80604052505050565b6000613e58613437565b9050613e648282613e1d565b919050565b600067ffffffffffffffff821115613e8457613e83613dee565b5b613e8d82613555565b9050602081019050919050565b82818337600083830152505050565b6000613ebc613eb784613e69565b613e4e565b905082815260208101848484011115613ed857613ed7613de9565b5b613ee3848285613e9a565b509392505050565b600082601f830112613f0057613eff613de4565b5b8135613f10848260208601613ea9565b91505092915050565b60008060408385031215613f3057613f2f613441565b5b6000613f3e858286016135e2565b925050602083013567ffffffffffffffff811115613f5f57613f5e613446565b5b613f6b85828601613eeb565b9150509250929050565b600067ffffffffffffffff821115613f9057613f8f613dee565b5b613f9982613555565b9050602081019050919050565b6000613fb9613fb484613f75565b613e4e565b905082815260208101848484011115613fd557613fd4613de9565b5b613fe0848285613e9a565b509392505050565b600082601f830112613ffd57613ffc613de4565b5b813561400d848260208601613fa6565b91505092915050565b600080600080608085870312156140305761402f613441565b5b600061403e87828801613697565b945050602061404f87828801613697565b9350506040614060878288016135e2565b925050606085013567ffffffffffffffff81111561408157614080613446565b5b61408d87828801613fe8565b91505092959194509250565b600080604083850312156140b0576140af613441565b5b60006140be85828601613697565b92505060206140cf85828601613697565b9150509250929050565b600080604083850312156140f0576140ef613441565b5b60006140fe858286016135e2565b925050602061410f85828601613d32565b9150509250929050565b7f4e487b7100000000000000000000000000000000000000000000000000000000600052602260045260246000fd5b6000600282049050600182168061416057607f821691505b60208210810361417357614172614119565b5b50919050565b7f4552433732313a20617070726f76616c20746f2063757272656e74206f776e6560008201527f7200000000000000000000000000000000000000000000000000000000000000602082015250565b60006141d5602183613511565b91506141e082614179565b604082019050919050565b60006020820190508181036000830152614204816141c8565b9050919050565b7f4552433732313a20617070726f76652063616c6c6572206973206e6f7420746f60008201527f6b656e206f776e6572206f7220617070726f76656420666f7220616c6c000000602082015250565b6000614267603d83613511565b91506142728261420b565b604082019050919050565b600060208201905081810360008301526142968161425a565b9050919050565b7f4552433732313a2063616c6c6572206973206e6f7420746f6b656e206f776e6560008201527f72206f7220617070726f76656400000000000000000000000000000000000000602082015250565b60006142f9602d83613511565b91506143048261429d565b604082019050919050565b60006020820190508181036000830152614328816142ec565b9050919050565b7f4e487b7100000000000000000000000000000000000000000000000000000000600052603260045260246000fd5b600080fd5b600080fd5b600081519050614377816135cb565b92915050565b60008151905061438c81613680565b92915050565b6000606082840312156143a8576143a761435e565b5b6143b26060613e4e565b905060006143c284828501614368565b60008301525060206143d68482850161437d565b60208301525060406143ea84828501614368565b60408301525092915050565b600061440961440484613e69565b613e4e565b90508281526020810184848401111561442557614424613de9565b5b614430848285613522565b509392505050565b600082601f83011261444d5761444c613de4565b5b815161445d8482602086016143f6565b91505092915050565b60008151905061447581613d1b565b92915050565b600060c082840312156144915761449061435e565b5b61449b6080613e4e565b905060006144ab84828501614392565b600083015250606082015167ffffffffffffffff8111156144cf576144ce614363565b5b6144db84828501614438565b60208301525060806144ef84828501614368565b60408301525060a061450384828501614466565b60608301525092915050565b60006020828403121561452557614524613441565b5b600082015167ffffffffffffffff81111561454357614542613446565b5b61454f8482850161447b565b91505092915050565b7f4e487b7100000000000000000000000000000000000000000000000000000000600052601160045260246000fd5b6000614592826135c1565b91507fffffffffffffffffffffffffffffffffffffffffffffffffffffffffffffffff82036145c4576145c3614558565b5b600182019050919050565b7f4552433732313a20696e76616c696420746f6b656e2049440000000000000000600082015250565b6000614605601883613511565b9150614610826145cf565b602082019050919050565b60006020820190508181036000830152614634816145f8565b9050919050565b7f4e487b7100000000000000000000000000000000000000000000000000000000600052602160045260246000fd5b600060408201905061467f6000830185613a50565b61468c6020830184613656565b9392505050565b7f4552433732313a2061646472657373207a65726f206973206e6f74206120766160008201527f6c6964206f776e65720000000000000000000000000000000000000000000000602082015250565b60006146ef602983613511565b91506146fa82614693565b604082019050919050565b6000602082019050818103600083015261471e816146e2565b9050919050565b7f4e6f7420616c6c6f776564000000000000000000000000000000000000000000600082015250565b600061475b600b83613511565b915061476682614725565b602082019050919050565b6000602082019050818103600083015261478a8161474e565b9050919050565b7f6578706972656400000000000000000000000000000000000000000000000000600082015250565b60006147c7600783613511565b91506147d282614791565b602082019050919050565b600060208201905081810360008301526147f6816147ba565b9050919050565b7f6e6f74206f776e65720000000000000000000000000000000000000000000000600082015250565b6000614833600983613511565b915061483e826147fd565b602082019050919050565b6000602082019050818103600083015261486281614826565b9050919050565b600061016082840312156148805761487f61435e565b5b61488b610160613e4e565b9050600061489b84828501614368565b60008301525060206148af84828501614368565b60208301525060406148c384828501614368565b60408301525060606148d784828501614368565b60608301525060806148eb84828501614368565b60808301525060a06148ff84828501614368565b60a08301525060c061491384828501614368565b60c08301525060e061492784828501614368565b60e08301525061010061493c84828501614368565b6101008301525061012061495284828501614368565b6101208301525061014082015167ffffffffffffffff81111561497857614977614363565b5b61498484828501614438565b6101408301525092915050565b6000602082840312156149a7576149a6613441565b5b600082015167ffffffffffffffff8111156149c5576149c4613446565b5b6149d184828501614869565b91505092915050565b7f6e6674206e6f7420666f756e6400000000000000000000000000000000000000600082015250565b6000614a10600d83613511565b9150614a1b826149da565b602082019050919050565b60006020820190508181036000830152614a3f81614a03565b9050919050565b6000614a51826135c1565b9150614a5c836135c1565b925082821015614a6f57614a6e614558565b5b828203905092915050565b60008060408385031215614a9157614a90613441565b5b6000614a9f85828601614368565b9250506020614ab085828601614368565b9150509250929050565b600060208284031215614ad057614acf613441565b5b6000614ade84828501614466565b91505092915050565b600081905092915050565b6000614afd82613506565b614b078185614ae7565b9350614b17818560208601613522565b80840191505092915050565b6000614b2f8285614af2565b9150614b3b8284614af2565b91508190509392505050565b7f416c726561647920757064617465000000000000000000000000000000000000600082015250565b6000614b7d600e83613511565b9150614b8882614b47565b602082019050919050565b60006020820190508181036000830152614bac81614b70565b9050919050565b7f6f7574206f662064617465000000000000000000000000000000000000000000600082015250565b6000614be9600b83613511565b9150614bf482614bb3565b602082019050919050565b60006020820190508181036000830152614c1881614bdc565b9050919050565b7f4e6f742074656163686572206f6620636c617373000000000000000000000000600082015250565b6000614c55601483613511565b9150614c6082614c1f565b602082019050919050565b60006020820190508181036000830152614c8481614c48565b9050919050565b7f4552433732313a207472616e736665722066726f6d20696e636f72726563742060008201527f6f776e6572000000000000000000000000000000000000000000000000000000602082015250565b6000614ce7602583613511565b9150614cf282614c8b565b604082019050919050565b60006020820190508181036000830152614d1681614cda565b9050919050565b7f4552433732313a207472616e7366657220746f20746865207a65726f2061646460008201527f7265737300000000000000000000000000000000000000000000000000000000602082015250565b6000614d79602483613511565b9150614d8482614d1d565b604082019050919050565b60006020820190508181036000830152614da881614d6c565b9050919050565b7f4552433732313a20617070726f766520746f2063616c6c657200000000000000600082015250565b6000614de5601983613511565b9150614df082614daf565b602082019050919050565b60006020820190508181036000830152614e1481614dd8565b9050919050565b7f4552433732313a207472616e7366657220746f206e6f6e20455243373231526560008201527f63656976657220696d706c656d656e7465720000000000000000000000000000602082015250565b6000614e77603283613511565b9150614e8282614e1b565b604082019050919050565b60006020820190508181036000830152614ea681614e6a565b9050919050565b7f4e487b7100000000000000000000000000000000000000000000000000000000600052603160045260246000fd5b7f45524337323155524953746f726167653a2055524920736574206f66206e6f6e60008201527f6578697374656e7420746f6b656e000000000000000000000000000000000000602082015250565b6000614f38602e83613511565b9150614f4382614edc565b604082019050919050565b60006020820190508181036000830152614f6781614f2b565b9050919050565b600081519050919050565b600082825260208201905092915050565b6000614f9582614f6e565b614f9f8185614f79565b9350614faf818560208601613522565b614fb881613555565b840191505092915050565b6000608082019050614fd86000830187613656565b614fe56020830186613656565b614ff26040830185613a50565b81810360608301526150048184614f8a565b905095945050505050565b60008151905061501e81613477565b92915050565b60006020828403121561503a57615039613441565b5b60006150488482850161500f565b91505092915050565b7f4e487b7100000000000000000000000000000000000000000000000000000000600052601260045260246000fd5b7f4552433732313a206d696e7420746f20746865207a65726f2061646472657373600082015250565b60006150b6602083613511565b91506150c182615080565b602082019050919050565b600060208201905081810360008301526150e5816150a9565b9050919050565b7f4552433732313a20746f6b656e20616c7265616479206d696e74656400000000600082015250565b6000615122601c83613511565b915061512d826150ec565b602082019050919050565b6000602082019050818103600083015261515181615115565b905091905056fea2646970667358221220acc421f987f1961f0ec3686a243618dafa70578751099dc1a003207d5f1a4c2f64736f6c634300080d0033",
  "immutableReferences": {},
  "source": "// SPDX-License-Identifier: MIT\r\n// Tells the Solidity compiler to compile only from v0.8.13 to v0.9.0\r\npragma solidity ^0.8.13;\r\n\r\nimport \"./base/ERC721BaseContract.sol\";\r\nimport \"./interfaces/INftClassRegistration.sol\";\r\nimport \"./interfaces/INftIdentities.sol\";\r\nimport \"./interfaces/INftCompleteCourses.sol\";\r\nimport \"./interfaces/ISchool.sol\";\r\n\r\ncontract NftClassRegistration is ERC721BaseContract, INftClassRegistration {\r\n    ISchool private _school;\r\n    INftIdentities private _nftIdentities;\r\n    INftCompleteCourses private _nftCompleteCoures;\r\n\r\n    bool private _isInitialize;\r\n\r\n    NftClassRegistration[] private _allNftClassRegistrations;\r\n    mapping(uint256 => uint256) private _posOfNftClassRegistrationTokenId;\r\n    // REMOVE when have certificate\r\n    mapping(uint256 => uint256[]) private _registeredClassTokenIdsOfStudent;\r\n    mapping(uint256 => mapping(uint256 => uint256))\r\n        private _tokenIdOfRegisteredClass;\r\n    mapping(uint256 => mapping(uint256 => uint256))\r\n        private _registeredCourseOfStudent;\r\n    mapping(uint256 => uint256[]) private _studentTokenIdsOfClass; // KEEP\r\n    mapping(uint256 => bool) private _allowedExchangeToken;\r\n\r\n    event NewClassRegistrationCreated(uint256 classId);\r\n    event ClassRegistrationRegained(uint256 classId);\r\n\r\n    modifier onlyOwner() {\r\n        require(_owner == msg.sender);\r\n        _;\r\n    }\r\n\r\n    modifier onlyNftCompleteCourses() {\r\n        require(msg.sender == address(_nftCompleteCoures));\r\n        _;\r\n    }\r\n\r\n    constructor(\r\n        address nftIdentities,\r\n        address school\r\n    ) ERC721BaseContract(\"NftClassRegistration\", \"NCR\") {\r\n        _isInitialize = false;\r\n        _nftIdentities = INftIdentities(nftIdentities);\r\n        _school = ISchool(school);\r\n    }\r\n\r\n    function initialize(address nftCertificates) public onlyOwner {\r\n        require(!_isInitialize);\r\n        _isInitialize = true;\r\n        _nftCompleteCoures = INftCompleteCourses(nftCertificates);\r\n    }\r\n\r\n    // Register class block: start\r\n    function getRegisteredClasses()\r\n        public\r\n        view\r\n        returns (NftClassRegistration[] memory)\r\n    {\r\n        NftIdentityResponse memory nftIdentityResponse = _nftIdentities\r\n            .getNftOfMemberWithRole(uint256(ROLE.STUDENT), msg.sender);\r\n        uint256 studentTokenId = nftIdentityResponse.nftIdentity.tokenId;\r\n        uint256[]\r\n            memory nftClassRegistrationTokenIds = _registeredClassTokenIdsOfStudent[\r\n                studentTokenId\r\n            ];\r\n        uint256 count = nftClassRegistrationTokenIds.length;\r\n\r\n        NftClassRegistration[]\r\n            memory nftClassRegistrations = new NftClassRegistration[](count);\r\n\r\n        for (uint256 idx = 0; idx < count; ++idx) {\r\n            nftClassRegistrations[idx] = getNftClassRegistration(\r\n                nftClassRegistrationTokenIds[idx]\r\n            );\r\n        }\r\n\r\n        return nftClassRegistrations;\r\n    }\r\n\r\n    function getNftClassRegistration(\r\n        uint256 tokenId\r\n    ) public view returns (NftClassRegistration memory) {\r\n        uint256 posOfNft = _posOfNftClassRegistrationTokenId[tokenId];\r\n        require(posOfNft > 0, \"nft not found\");\r\n\r\n        return _allNftClassRegistrations[posOfNft - 1];\r\n    }\r\n\r\n    function getStudentListOfClass(\r\n        uint256 classId\r\n    ) public view returns (NftIdentityResponse[] memory) {\r\n        uint256 count = _studentTokenIdsOfClass[classId].length;\r\n        NftIdentityResponse[] memory result = new NftIdentityResponse[](count);\r\n\r\n        for (uint256 idx; idx < count; ++idx) {\r\n            result[idx] = _nftIdentities.getNftOfTokenId(\r\n                _studentTokenIdsOfClass[classId][idx]\r\n            );\r\n        }\r\n\r\n        return result;\r\n    }\r\n\r\n    function getNumberOfRegisteredStudent(\r\n        uint256 classId\r\n    ) external view returns (uint256) {\r\n        return _studentTokenIdsOfClass[classId].length;\r\n    }\r\n\r\n    function checkNftClassRegistrationRegained(\r\n        uint256 studentTokenId,\r\n        uint256 classId\r\n    ) public view returns (bool) {\r\n        return _tokenIdOfRegisteredClass[studentTokenId][classId] == 0;\r\n    }\r\n\r\n    function getRegainedNftListOfClass(\r\n        uint256 classId\r\n    ) public view returns (uint256[] memory) {\r\n        uint256[] memory studentTokenIds = _studentTokenIdsOfClass[classId];\r\n        uint256 count = studentTokenIds.length;\r\n        uint256[] memory regainedStudentTokenIds = new uint256[](count);\r\n        uint256 current;\r\n\r\n        for (uint256 idx; idx < count; ++idx) {\r\n            if (\r\n                checkNftClassRegistrationRegained(studentTokenIds[idx], classId)\r\n            ) {\r\n                regainedStudentTokenIds[current] = studentTokenIds[idx];\r\n                ++current;\r\n            }\r\n        }\r\n\r\n        return regainedStudentTokenIds;\r\n    }\r\n\r\n    function allowRequestNftCompleteCourse(\r\n        uint256 tokenId,\r\n        bool isAllowed\r\n    ) public {\r\n        NftClassRegistration\r\n            memory nftClassRegistration = getNftClassRegistration(tokenId);\r\n        NftIdentityResponse memory nftIdentityResponse = _nftIdentities\r\n            .getNftOfMemberWithRole(uint256(ROLE.TEACHER), msg.sender);\r\n        Class memory class = _school.getClassById(\r\n            nftClassRegistration.classId\r\n        );\r\n        require(!isAllowed || _registeredCourseOfStudent[tokenId][class.courseId] > 0, \"Already update\");\r\n        require(class.completeAt > block.timestamp, \"out of date\");\r\n        require(!nftIdentityResponse.isExpired, \"expired\");\r\n        require(\r\n            class.teacherTokenId == nftIdentityResponse.nftIdentity.tokenId,\r\n            \"Not teacher of class\"\r\n        );\r\n        _allowedExchangeToken[tokenId] = isAllowed;\r\n\r\n        if (!isAllowed) {\r\n            delete _registeredCourseOfStudent[tokenId][class.courseId];\r\n        }\r\n    }\r\n\r\n    function regainV2(\r\n        address sender,\r\n        uint256 tokenId\r\n    ) public returns (Class memory, NftIdentity memory) {\r\n        require(_allowedExchangeToken[tokenId], \"Not allowed\");\r\n\r\n        NftIdentityResponse memory nftIdentityResponse = _nftIdentities\r\n            .getNftOfMemberWithRole(uint256(ROLE.STUDENT), sender);\r\n        require(!nftIdentityResponse.isExpired, \"expired\");\r\n\r\n        NftClassRegistration\r\n            memory nftClassRegistration = getNftClassRegistration(tokenId);\r\n        require(\r\n            nftClassRegistration.tokenId ==\r\n                nftIdentityResponse.nftIdentity.tokenId,\r\n            \"not owner\"\r\n        );\r\n\r\n        Class memory class = _school.getClassById(\r\n            nftClassRegistration.classId\r\n        );\r\n\r\n        _regainNft(nftClassRegistration, class, tokenId);\r\n        return (class, nftIdentityResponse.nftIdentity);\r\n    }\r\n\r\n    function _regainNft(\r\n        NftClassRegistration memory nftClassRegistration,\r\n        Class memory class,\r\n        uint256 tokenId\r\n    ) private {\r\n        _burn(tokenId);\r\n        _removeClassTokenFromRegisteredList(\r\n            nftClassRegistration.studentTokenId,\r\n            tokenId\r\n        );\r\n        _removeNftClassRegistration(tokenId);\r\n        delete _registeredCourseOfStudent[nftClassRegistration.studentTokenId][\r\n            class.courseId\r\n        ];\r\n        delete _tokenIdOfRegisteredClass[nftClassRegistration.studentTokenId][\r\n            class.id\r\n        ];\r\n    }\r\n\r\n    function registerClass(uint256 classId, string memory uri) public payable {\r\n        NftIdentityResponse memory nftIdentityResponse = _nftIdentities\r\n            .getNftOfMemberWithRole(uint256(ROLE.STUDENT), msg.sender);\r\n        uint256 studentTokenId = nftIdentityResponse.nftIdentity.tokenId;\r\n        Class memory class = _school.getClassById(classId);\r\n        (uint256 registeredStartAt, uint256 registeredEndAt) = _school\r\n            .getRegisterTime(class.semester);\r\n\r\n        require(!nftIdentityResponse.isExpired);\r\n        require(_studentTokenIdsOfClass[class.id].length < class.maxSize);\r\n        require(block.timestamp >= registeredStartAt);\r\n        require(block.timestamp <= registeredEndAt);\r\n        require(\r\n            class.prevCourseId == 0 ||\r\n                _nftCompleteCoures.checkCompleteCourse(\r\n                    class.prevCourseId,\r\n                    msg.sender\r\n                )\r\n        );\r\n        require(\r\n            _registeredCourseOfStudent[studentTokenId][class.courseId] == 0\r\n        );\r\n        require(msg.value == class.registerClassFee);\r\n        uint256 tokenId = _mintToken(msg.sender, uri);\r\n        _allNftClassRegistrations.push(\r\n            NftClassRegistration(tokenId, classId, studentTokenId)\r\n        );\r\n        _posOfNftClassRegistrationTokenId[tokenId] = _allNftClassRegistrations\r\n            .length;\r\n        _registeredClassTokenIdsOfStudent[studentTokenId].push(tokenId);\r\n        _registeredCourseOfStudent[studentTokenId][class.courseId] = tokenId;\r\n        _tokenIdOfRegisteredClass[studentTokenId][class.id] = tokenId;\r\n        _studentTokenIdsOfClass[class.id].push(studentTokenId);\r\n\r\n        emit NewClassRegistrationCreated(tokenId);\r\n    }\r\n\r\n    function _removeClassTokenFromRegisteredList(\r\n        uint256 studentTokenId,\r\n        uint256 tokenId\r\n    ) private {\r\n        uint256 count = _registeredClassTokenIdsOfStudent[studentTokenId]\r\n            .length;\r\n        uint256 idxOfToken = 0;\r\n\r\n        for (uint256 idx; idx < count; ++idx) {\r\n            if (\r\n                _registeredClassTokenIdsOfStudent[studentTokenId][idx] ==\r\n                tokenId\r\n            ) {\r\n                idxOfToken = idx;\r\n                break;\r\n            }\r\n        }\r\n        _registeredClassTokenIdsOfStudent[studentTokenId][\r\n            idxOfToken\r\n        ] = _registeredClassTokenIdsOfStudent[studentTokenId][count - 1];\r\n        _registeredClassTokenIdsOfStudent[studentTokenId].pop();\r\n    }\r\n\r\n    function _removeNftClassRegistration(uint256 tokenId) private {\r\n        uint256 pos = _posOfNftClassRegistrationTokenId[tokenId];\r\n        uint256 count = _allNftClassRegistrations.length;\r\n\r\n        if (count > pos) {\r\n            NftClassRegistration memory lastNft = _allNftClassRegistrations[\r\n                count - 1\r\n            ];\r\n            _allNftClassRegistrations[pos - 1] = lastNft;\r\n            _posOfNftClassRegistrationTokenId[lastNft.tokenId] = pos;\r\n        }\r\n        delete _posOfNftClassRegistrationTokenId[tokenId];\r\n        _allNftClassRegistrations.pop();\r\n    }\r\n}\r\n",
  "sourcePath": "E:\\learn\\learn-to-earn\\blockchain\\contracts\\NftClassRegistration.sol",
  "compiler": {
    "name": "solc",
    "version": "0.8.13+commit.abaa5c0e.Emscripten.clang"
  },
  "schemaVersion": "3.4.13",
  "updatedAt": "2023-07-08T08:38:36.270Z",
  "networkType": "ethereum",
  "devdoc": {
    "kind": "dev",
    "methods": {
      "approve(address,uint256)": {
        "details": "See {IERC721-approve}."
      },
      "balanceOf(address)": {
        "details": "See {IERC721-balanceOf}."
      },
      "getApproved(uint256)": {
        "details": "See {IERC721-getApproved}."
      },
      "isApprovedForAll(address,address)": {
        "details": "See {IERC721-isApprovedForAll}."
      },
      "name()": {
        "details": "See {IERC721Metadata-name}."
      },
      "ownerOf(uint256)": {
        "details": "See {IERC721-ownerOf}."
      },
      "safeTransferFrom(address,address,uint256)": {
        "details": "See {IERC721-safeTransferFrom}."
      },
      "safeTransferFrom(address,address,uint256,bytes)": {
        "details": "See {IERC721-safeTransferFrom}."
      },
      "setApprovalForAll(address,bool)": {
        "details": "See {IERC721-setApprovalForAll}."
      },
      "supportsInterface(bytes4)": {
        "details": "See {IERC165-supportsInterface}."
      },
      "symbol()": {
        "details": "See {IERC721Metadata-symbol}."
      },
      "tokenURI(uint256)": {
        "details": "See {IERC721Metadata-tokenURI}."
      },
      "transferFrom(address,address,uint256)": {
        "details": "See {IERC721-transferFrom}."
      }
    },
    "version": 1
  },
  "userdoc": {
    "kind": "user",
    "methods": {},
    "version": 1
  }
}