{
  "contractName": "NftClassRegistration",
  "abi": [
    {
      "inputs": [
        {
          "internalType": "address",
          "name": "nftIdentities",
          "type": "address"
        },
        {
          "internalType": "address",
          "name": "school",
          "type": "address"
        },
        {
          "internalType": "address",
          "name": "schoolAccount",
          "type": "address"
        }
      ],
      "stateMutability": "nonpayable",
      "type": "constructor"
    },
    {
      "anonymous": false,
      "inputs": [
        {
          "indexed": true,
          "internalType": "address",
          "name": "owner",
          "type": "address"
        },
        {
          "indexed": true,
          "internalType": "address",
          "name": "approved",
          "type": "address"
        },
        {
          "indexed": true,
          "internalType": "uint256",
          "name": "tokenId",
          "type": "uint256"
        }
      ],
      "name": "Approval",
      "type": "event"
    },
    {
      "anonymous": false,
      "inputs": [
        {
          "indexed": true,
          "internalType": "address",
          "name": "owner",
          "type": "address"
        },
        {
          "indexed": true,
          "internalType": "address",
          "name": "operator",
          "type": "address"
        },
        {
          "indexed": false,
          "internalType": "bool",
          "name": "approved",
          "type": "bool"
        }
      ],
      "name": "ApprovalForAll",
      "type": "event"
    },
    {
      "anonymous": false,
      "inputs": [
        {
          "indexed": false,
          "internalType": "uint256",
          "name": "classId",
          "type": "uint256"
        }
      ],
      "name": "ClassRegistrationRegained",
      "type": "event"
    },
    {
      "anonymous": false,
      "inputs": [
        {
          "indexed": false,
          "internalType": "uint256",
          "name": "classId",
          "type": "uint256"
        }
      ],
      "name": "NewClassRegistrationCreated",
      "type": "event"
    },
    {
      "anonymous": false,
      "inputs": [
        {
          "indexed": true,
          "internalType": "address",
          "name": "from",
          "type": "address"
        },
        {
          "indexed": true,
          "internalType": "address",
          "name": "to",
          "type": "address"
        },
        {
          "indexed": true,
          "internalType": "uint256",
          "name": "tokenId",
          "type": "uint256"
        }
      ],
      "name": "Transfer",
      "type": "event"
    },
    {
      "inputs": [
        {
          "internalType": "address",
          "name": "to",
          "type": "address"
        },
        {
          "internalType": "uint256",
          "name": "tokenId",
          "type": "uint256"
        }
      ],
      "name": "approve",
      "outputs": [],
      "stateMutability": "nonpayable",
      "type": "function"
    },
    {
      "inputs": [
        {
          "internalType": "address",
          "name": "owner",
          "type": "address"
        }
      ],
      "name": "balanceOf",
      "outputs": [
        {
          "internalType": "uint256",
          "name": "",
          "type": "uint256"
        }
      ],
      "stateMutability": "view",
      "type": "function",
      "constant": true
    },
    {
      "inputs": [
        {
          "internalType": "uint256",
          "name": "tokenId",
          "type": "uint256"
        }
      ],
      "name": "getApproved",
      "outputs": [
        {
          "internalType": "address",
          "name": "",
          "type": "address"
        }
      ],
      "stateMutability": "view",
      "type": "function",
      "constant": true
    },
    {
      "inputs": [
        {
          "internalType": "address",
          "name": "owner",
          "type": "address"
        },
        {
          "internalType": "address",
          "name": "operator",
          "type": "address"
        }
      ],
      "name": "isApprovedForAll",
      "outputs": [
        {
          "internalType": "bool",
          "name": "",
          "type": "bool"
        }
      ],
      "stateMutability": "view",
      "type": "function",
      "constant": true
    },
    {
      "inputs": [],
      "name": "name",
      "outputs": [
        {
          "internalType": "string",
          "name": "",
          "type": "string"
        }
      ],
      "stateMutability": "view",
      "type": "function",
      "constant": true
    },
    {
      "inputs": [
        {
          "internalType": "uint256",
          "name": "tokenId",
          "type": "uint256"
        }
      ],
      "name": "ownerOf",
      "outputs": [
        {
          "internalType": "address",
          "name": "",
          "type": "address"
        }
      ],
      "stateMutability": "view",
      "type": "function",
      "constant": true
    },
    {
      "inputs": [
        {
          "internalType": "address",
          "name": "from",
          "type": "address"
        },
        {
          "internalType": "address",
          "name": "to",
          "type": "address"
        },
        {
          "internalType": "uint256",
          "name": "tokenId",
          "type": "uint256"
        }
      ],
      "name": "safeTransferFrom",
      "outputs": [],
      "stateMutability": "nonpayable",
      "type": "function"
    },
    {
      "inputs": [
        {
          "internalType": "address",
          "name": "from",
          "type": "address"
        },
        {
          "internalType": "address",
          "name": "to",
          "type": "address"
        },
        {
          "internalType": "uint256",
          "name": "tokenId",
          "type": "uint256"
        },
        {
          "internalType": "bytes",
          "name": "data",
          "type": "bytes"
        }
      ],
      "name": "safeTransferFrom",
      "outputs": [],
      "stateMutability": "nonpayable",
      "type": "function"
    },
    {
      "inputs": [
        {
          "internalType": "address",
          "name": "operator",
          "type": "address"
        },
        {
          "internalType": "bool",
          "name": "approved",
          "type": "bool"
        }
      ],
      "name": "setApprovalForAll",
      "outputs": [],
      "stateMutability": "nonpayable",
      "type": "function"
    },
    {
      "inputs": [
        {
          "internalType": "bytes4",
          "name": "interfaceId",
          "type": "bytes4"
        }
      ],
      "name": "supportsInterface",
      "outputs": [
        {
          "internalType": "bool",
          "name": "",
          "type": "bool"
        }
      ],
      "stateMutability": "view",
      "type": "function",
      "constant": true
    },
    {
      "inputs": [],
      "name": "symbol",
      "outputs": [
        {
          "internalType": "string",
          "name": "",
          "type": "string"
        }
      ],
      "stateMutability": "view",
      "type": "function",
      "constant": true
    },
    {
      "inputs": [
        {
          "internalType": "uint256",
          "name": "tokenId",
          "type": "uint256"
        }
      ],
      "name": "tokenURI",
      "outputs": [
        {
          "internalType": "string",
          "name": "",
          "type": "string"
        }
      ],
      "stateMutability": "view",
      "type": "function",
      "constant": true
    },
    {
      "inputs": [
        {
          "internalType": "address",
          "name": "from",
          "type": "address"
        },
        {
          "internalType": "address",
          "name": "to",
          "type": "address"
        },
        {
          "internalType": "uint256",
          "name": "tokenId",
          "type": "uint256"
        }
      ],
      "name": "transferFrom",
      "outputs": [],
      "stateMutability": "nonpayable",
      "type": "function"
    },
    {
      "inputs": [
        {
          "internalType": "address",
          "name": "nftCompleteCoures",
          "type": "address"
        }
      ],
      "name": "initialize",
      "outputs": [],
      "stateMutability": "nonpayable",
      "type": "function"
    },
    {
      "inputs": [],
      "name": "getRegisteredClasses",
      "outputs": [
        {
          "components": [
            {
              "internalType": "uint256",
              "name": "tokenId",
              "type": "uint256"
            },
            {
              "internalType": "uint256",
              "name": "classId",
              "type": "uint256"
            },
            {
              "internalType": "uint256",
              "name": "studentTokenId",
              "type": "uint256"
            }
          ],
          "internalType": "struct IConstant.NftClassRegistration[]",
          "name": "",
          "type": "tuple[]"
        }
      ],
      "stateMutability": "view",
      "type": "function",
      "constant": true
    },
    {
      "inputs": [
        {
          "internalType": "uint256",
          "name": "tokenId",
          "type": "uint256"
        }
      ],
      "name": "getNftClassRegistration",
      "outputs": [
        {
          "components": [
            {
              "internalType": "uint256",
              "name": "tokenId",
              "type": "uint256"
            },
            {
              "internalType": "uint256",
              "name": "classId",
              "type": "uint256"
            },
            {
              "internalType": "uint256",
              "name": "studentTokenId",
              "type": "uint256"
            }
          ],
          "internalType": "struct IConstant.NftClassRegistration",
          "name": "",
          "type": "tuple"
        }
      ],
      "stateMutability": "view",
      "type": "function",
      "constant": true
    },
    {
      "inputs": [
        {
          "internalType": "uint256",
          "name": "classId",
          "type": "uint256"
        }
      ],
      "name": "getStudentListOfClass",
      "outputs": [
        {
          "components": [
            {
              "components": [
                {
                  "internalType": "uint256",
                  "name": "tokenId",
                  "type": "uint256"
                },
                {
                  "internalType": "address",
                  "name": "register",
                  "type": "address"
                },
                {
                  "internalType": "uint256",
                  "name": "expiredAt",
                  "type": "uint256"
                }
              ],
              "internalType": "struct IConstant.NftIdentity",
              "name": "nftIdentity",
              "type": "tuple"
            },
            {
              "internalType": "string",
              "name": "tokenURI",
              "type": "string"
            },
            {
              "internalType": "uint256",
              "name": "role",
              "type": "uint256"
            },
            {
              "internalType": "bool",
              "name": "isExpired",
              "type": "bool"
            }
          ],
          "internalType": "struct IConstant.NftIdentityResponse[]",
          "name": "",
          "type": "tuple[]"
        }
      ],
      "stateMutability": "view",
      "type": "function",
      "constant": true
    },
    {
      "inputs": [
        {
          "internalType": "uint256",
          "name": "classId",
          "type": "uint256"
        }
      ],
      "name": "getNumberOfRegisteredStudent",
      "outputs": [
        {
          "internalType": "uint256",
          "name": "",
          "type": "uint256"
        }
      ],
      "stateMutability": "view",
      "type": "function",
      "constant": true
    },
    {
      "inputs": [
        {
          "internalType": "uint256",
          "name": "tokenId",
          "type": "uint256"
        },
        {
          "internalType": "bool",
          "name": "isAllowed",
          "type": "bool"
        }
      ],
      "name": "allowRequestNftCompleteCourse",
      "outputs": [],
      "stateMutability": "nonpayable",
      "type": "function"
    },
    {
      "inputs": [
        {
          "internalType": "uint256[]",
          "name": "tokenIds",
          "type": "uint256[]"
        },
        {
          "internalType": "bool[]",
          "name": "allowedList",
          "type": "bool[]"
        }
      ],
      "name": "allowRequestNftCompleteCourses",
      "outputs": [],
      "stateMutability": "nonpayable",
      "type": "function"
    },
    {
      "inputs": [
        {
          "internalType": "uint256",
          "name": "classId",
          "type": "uint256"
        },
        {
          "internalType": "string",
          "name": "uri",
          "type": "string"
        }
      ],
      "name": "registerClass",
      "outputs": [],
      "stateMutability": "payable",
      "type": "function",
      "payable": true
    },
    {
      "inputs": [
        {
          "internalType": "address",
          "name": "sender",
          "type": "address"
        },
        {
          "internalType": "uint256",
          "name": "tokenId",
          "type": "uint256"
        }
      ],
      "name": "regainV2",
      "outputs": [
        {
          "components": [
            {
              "internalType": "uint256",
              "name": "id",
              "type": "uint256"
            },
            {
              "internalType": "uint256",
              "name": "courseId",
              "type": "uint256"
            },
            {
              "internalType": "uint256",
              "name": "knowledgeBlockId",
              "type": "uint256"
            },
            {
              "internalType": "uint256",
              "name": "prevCourseId",
              "type": "uint256"
            },
            {
              "internalType": "uint256",
              "name": "credits",
              "type": "uint256"
            },
            {
              "internalType": "uint256",
              "name": "completeAt",
              "type": "uint256"
            },
            {
              "internalType": "uint256",
              "name": "maxSize",
              "type": "uint256"
            },
            {
              "internalType": "uint256",
              "name": "teacherTokenId",
              "type": "uint256"
            },
            {
              "internalType": "uint256",
              "name": "semester",
              "type": "uint256"
            },
            {
              "internalType": "uint256",
              "name": "registerClassFee",
              "type": "uint256"
            },
            {
              "internalType": "string",
              "name": "uri",
              "type": "string"
            }
          ],
          "internalType": "struct IConstant.Class",
          "name": "",
          "type": "tuple"
        },
        {
          "components": [
            {
              "internalType": "uint256",
              "name": "tokenId",
              "type": "uint256"
            },
            {
              "internalType": "address",
              "name": "register",
              "type": "address"
            },
            {
              "internalType": "uint256",
              "name": "expiredAt",
              "type": "uint256"
            }
          ],
          "internalType": "struct IConstant.NftIdentity",
          "name": "",
          "type": "tuple"
        }
      ],
      "stateMutability": "nonpayable",
      "type": "function"
    }
  ],
  "bytecode": "0x60a06040523480156200001157600080fd5b5060405162005c2638038062005c26833981810160405281019062000037919062000310565b6040518060400160405280601481526020017f4e6674436c617373526567697374726174696f6e0000000000000000000000008152506040518060400160405280600381526020017f4e4352000000000000000000000000000000000000000000000000000000000081525081818160009080519060200190620000bd929190620001f6565b508060019080519060200190620000d6929190620001f6565b50505033600760006101000a81548173ffffffffffffffffffffffffffffffffffffffff021916908373ffffffffffffffffffffffffffffffffffffffff16021790555050506000600c60146101000a81548160ff02191690831515021790555082600b60006101000a81548173ffffffffffffffffffffffffffffffffffffffff021916908373ffffffffffffffffffffffffffffffffffffffff16021790555081600a60006101000a81548173ffffffffffffffffffffffffffffffffffffffff021916908373ffffffffffffffffffffffffffffffffffffffff1602179055508073ffffffffffffffffffffffffffffffffffffffff1660808173ffffffffffffffffffffffffffffffffffffffff1681525050505050620003d0565b82805462000204906200039b565b90600052602060002090601f01602090048101928262000228576000855562000274565b82601f106200024357805160ff191683800117855562000274565b8280016001018555821562000274579182015b828111156200027357825182559160200191906001019062000256565b5b50905062000283919062000287565b5090565b5b80821115620002a257600081600090555060010162000288565b5090565b600080fd5b600073ffffffffffffffffffffffffffffffffffffffff82169050919050565b6000620002d882620002ab565b9050919050565b620002ea81620002cb565b8114620002f657600080fd5b50565b6000815190506200030a81620002df565b92915050565b6000806000606084860312156200032c576200032b620002a6565b5b60006200033c86828701620002f9565b93505060206200034f86828701620002f9565b92505060406200036286828701620002f9565b9150509250925092565b7f4e487b7100000000000000000000000000000000000000000000000000000000600052602260045260246000fd5b60006002820490506001821680620003b457607f821691505b602082108103620003ca57620003c96200036c565b5b50919050565b60805161583a620003ec6000396000611bb8015261583a6000f3fe6080604052600436106101355760003560e01c806370a08231116100ab578063b5bee3171161006f578063b5bee31714610471578063b88d4fde1461048d578063c4d66de8146104b6578063c87b56dd146104df578063e985e9c51461051c578063f69f5e3e1461055957610135565b806370a08231146103655780638e053c70146103a257806395d89b41146103e0578063a22cb4651461040b578063a24a7c301461043457610135565b8063256283ed116100fd578063256283ed1461023157806337b813031461026e57806342842e0e14610297578063573c66de146102c05780636352211e146102fd5780636d6ffaf61461033a57610135565b806301ffc9a71461013a57806306fdde0314610177578063081812fc146101a2578063095ea7b3146101df57806323b872dd14610208575b600080fd5b34801561014657600080fd5b50610161600480360381019061015c9190613841565b610582565b60405161016e9190613889565b60405180910390f35b34801561018357600080fd5b5061018c610664565b604051610199919061393d565b60405180910390f35b3480156101ae57600080fd5b506101c960048036038101906101c49190613995565b6106f6565b6040516101d69190613a03565b60405180910390f35b3480156101eb57600080fd5b5061020660048036038101906102019190613a4a565b61073c565b005b34801561021457600080fd5b5061022f600480360381019061022a9190613a8a565b610853565b005b34801561023d57600080fd5b5061025860048036038101906102539190613995565b6108b3565b6040516102659190613cbb565b60405180910390f35b34801561027a57600080fd5b5061029560048036038101906102909190613f14565b610a3d565b005b3480156102a357600080fd5b506102be60048036038101906102b99190613a8a565b610e0d565b005b3480156102cc57600080fd5b506102e760048036038101906102e29190613995565b610e2d565b6040516102f49190613f9b565b60405180910390f35b34801561030957600080fd5b50610324600480360381019061031f9190613995565b610e4d565b6040516103319190613a03565b60405180910390f35b34801561034657600080fd5b5061034f610ed3565b60405161035c91906140a7565b60405180910390f35b34801561037157600080fd5b5061038c600480360381019061038791906140c9565b6110c9565b6040516103999190613f9b565b60405180910390f35b3480156103ae57600080fd5b506103c960048036038101906103c49190613a4a565b611180565b6040516103d7929190614227565b60405180910390f35b3480156103ec57600080fd5b506103f561146c565b604051610402919061393d565b60405180910390f35b34801561041757600080fd5b50610432600480360381019061042d9190614257565b6114fe565b005b34801561044057600080fd5b5061045b60048036038101906104569190613995565b611514565b60405161046891906142d9565b60405180910390f35b61048b600480360381019061048691906143a9565b6115d6565b005b34801561049957600080fd5b506104b460048036038101906104af91906144a6565b611c5e565b005b3480156104c257600080fd5b506104dd60048036038101906104d891906140c9565b611cc0565b005b3480156104eb57600080fd5b5061050660048036038101906105019190613995565b611d93565b604051610513919061393d565b60405180910390f35b34801561052857600080fd5b50610543600480360381019061053e9190614529565b611ea5565b6040516105509190613889565b60405180910390f35b34801561056557600080fd5b50610580600480360381019061057b9190614569565b611f39565b005b60007f80ac58cd000000000000000000000000000000000000000000000000000000007bffffffffffffffffffffffffffffffffffffffffffffffffffffffff1916827bffffffffffffffffffffffffffffffffffffffffffffffffffffffff1916148061064d57507f5b5e139f000000000000000000000000000000000000000000000000000000007bffffffffffffffffffffffffffffffffffffffffffffffffffffffff1916827bffffffffffffffffffffffffffffffffffffffffffffffffffffffff1916145b8061065d575061065c82612261565b5b9050919050565b606060008054610673906145d8565b80601f016020809104026020016040519081016040528092919081815260200182805461069f906145d8565b80156106ec5780601f106106c1576101008083540402835291602001916106ec565b820191906000526020600020905b8154815290600101906020018083116106cf57829003601f168201915b5050505050905090565b6000610701826122cb565b6004600083815260200190815260200160002060009054906101000a900473ffffffffffffffffffffffffffffffffffffffff169050919050565b600061074782610e4d565b90508073ffffffffffffffffffffffffffffffffffffffff168373ffffffffffffffffffffffffffffffffffffffff16036107b7576040517f08c379a00000000000000000000000000000000000000000000000000000000081526004016107ae9061467b565b60405180910390fd5b8073ffffffffffffffffffffffffffffffffffffffff166107d6612316565b73ffffffffffffffffffffffffffffffffffffffff1614806108055750610804816107ff612316565b611ea5565b5b610844576040517f08c379a000000000000000000000000000000000000000000000000000000000815260040161083b9061470d565b60405180910390fd5b61084e838361231e565b505050565b61086461085e612316565b826123d7565b6108a3576040517f08c379a000000000000000000000000000000000000000000000000000000000815260040161089a9061479f565b60405180910390fd5b6108ae83838361246c565b505050565b606060006011600084815260200190815260200160002080549050905060008167ffffffffffffffff8111156108ec576108eb613ce2565b5b60405190808252806020026020018201604052801561092557816020015b610912613610565b81526020019060019003908161090a5790505b50905060005b82811015610a3257600b60009054906101000a900473ffffffffffffffffffffffffffffffffffffffff1673ffffffffffffffffffffffffffffffffffffffff1663d703df8b601160008881526020019081526020016000208381548110610996576109956147bf565b5b90600052602060002001546040518263ffffffff1660e01b81526004016109bd9190613f9b565b600060405180830381865afa1580156109da573d6000803e3d6000fd5b505050506040513d6000823e3d601f19601f82011682018060405250810190610a03919061499f565b828281518110610a1657610a156147bf565b5b602002602001018190525080610a2b90614a17565b905061092b565b508092505050919050565b8051825114610a81576040517f08c379a0000000000000000000000000000000000000000000000000000000008152600401610a7890614aab565b60405180910390fd5b6000825190506000600b60009054906101000a900473ffffffffffffffffffffffffffffffffffffffff1673ffffffffffffffffffffffffffffffffffffffff166352db77c4600180811115610ada57610ad9614acb565b5b336040518363ffffffff1660e01b8152600401610af8929190614afa565b600060405180830381865afa158015610b15573d6000803e3d6000fd5b505050506040513d6000823e3d601f19601f82011682018060405250810190610b3e919061499f565b9050806060015115610b85576040517f08c379a0000000000000000000000000000000000000000000000000000000008152600401610b7c90614b6f565b60405180910390fd5b60005b82811015610e06576000858281518110610ba557610ba46147bf565b5b602002602001015190506000858381518110610bc457610bc36147bf565b5b602002602001015190506000610bd983611514565b90506000600a60009054906101000a900473ffffffffffffffffffffffffffffffffffffffff1673ffffffffffffffffffffffffffffffffffffffff166303d658e083602001516040518263ffffffff1660e01b8152600401610c3c9190613f9b565b600060405180830381865afa158015610c59573d6000803e3d6000fd5b505050506040513d6000823e3d601f19601f82011682018060405250810190610c829190614cb7565b9050821580610cbd57506000601060008460400151815260200190815260200160002060008360200151815260200190815260200160002054115b610cfc576040517f08c379a0000000000000000000000000000000000000000000000000000000008152600401610cf390614d4c565b60405180910390fd5b428160a0015111610d42576040517f08c379a0000000000000000000000000000000000000000000000000000000008152600401610d3990614db8565b60405180910390fd5b8560000151600001518160e0015114610d90576040517f08c379a0000000000000000000000000000000000000000000000000000000008152600401610d8790614e24565b60405180910390fd5b826012600086815260200190815260200160002060006101000a81548160ff02191690831515021790555082610df1576010600083604001518152602001908152602001600020600082602001518152602001908152602001600020600090555b5050505080610dff90614a17565b9050610b88565b5050505050565b610e2883838360405180602001604052806000815250611c5e565b505050565b600060116000838152602001908152602001600020805490509050919050565b600080610e5983612765565b9050600073ffffffffffffffffffffffffffffffffffffffff168173ffffffffffffffffffffffffffffffffffffffff1603610eca576040517f08c379a0000000000000000000000000000000000000000000000000000000008152600401610ec190614e90565b60405180910390fd5b80915050919050565b60606000600b60009054906101000a900473ffffffffffffffffffffffffffffffffffffffff1673ffffffffffffffffffffffffffffffffffffffff166352db77c460006001811115610f2957610f28614acb565b5b336040518363ffffffff1660e01b8152600401610f47929190614afa565b600060405180830381865afa158015610f64573d6000803e3d6000fd5b505050506040513d6000823e3d601f19601f82011682018060405250810190610f8d919061499f565b9050600081600001516000015190506000600f6000838152602001908152602001600020805480602002602001604051908101604052809291908181526020018280548015610ffb57602002820191906000526020600020905b815481526020019060010190808311610fe7575b5050505050905060008151905060008167ffffffffffffffff81111561102457611023613ce2565b5b60405190808252806020026020018201604052801561105d57816020015b61104a613640565b8152602001906001900390816110425790505b50905060005b828110156110bd5761108e848281518110611081576110806147bf565b5b6020026020010151611514565b8282815181106110a1576110a06147bf565b5b6020026020010181905250806110b690614a17565b9050611063565b50809550505050505090565b60008073ffffffffffffffffffffffffffffffffffffffff168273ffffffffffffffffffffffffffffffffffffffff1603611139576040517f08c379a000000000000000000000000000000000000000000000000000000000815260040161113090614f22565b60405180910390fd5b600360008373ffffffffffffffffffffffffffffffffffffffff1673ffffffffffffffffffffffffffffffffffffffff168152602001908152602001600020549050919050565b611188613661565b6111906136bb565b600c60009054906101000a900473ffffffffffffffffffffffffffffffffffffffff1673ffffffffffffffffffffffffffffffffffffffff163373ffffffffffffffffffffffffffffffffffffffff16146111ea57600080fd5b6012600084815260200190815260200160002060009054906101000a900460ff1661124a576040517f08c379a000000000000000000000000000000000000000000000000000000000815260040161124190614f8e565b60405180910390fd5b6000600b60009054906101000a900473ffffffffffffffffffffffffffffffffffffffff1673ffffffffffffffffffffffffffffffffffffffff166352db77c46000600181111561129e5761129d614acb565b5b876040518363ffffffff1660e01b81526004016112bc929190614afa565b600060405180830381865afa1580156112d9573d6000803e3d6000fd5b505050506040513d6000823e3d601f19601f82011682018060405250810190611302919061499f565b9050806060015115611349576040517f08c379a000000000000000000000000000000000000000000000000000000000815260040161134090614b6f565b60405180910390fd5b600061135485611514565b90508160000151600001518160400151146113a4576040517f08c379a000000000000000000000000000000000000000000000000000000000815260040161139b90614ffa565b60405180910390fd5b6000600a60009054906101000a900473ffffffffffffffffffffffffffffffffffffffff1673ffffffffffffffffffffffffffffffffffffffff166303d658e083602001516040518263ffffffff1660e01b81526004016114059190613f9b565b600060405180830381865afa158015611422573d6000803e3d6000fd5b505050506040513d6000823e3d601f19601f8201168201806040525081019061144b9190614cb7565b90506114588282886127a2565b808360000151945094505050509250929050565b60606001805461147b906145d8565b80601f01602080910402602001604051908101604052809291908181526020018280546114a7906145d8565b80156114f45780601f106114c9576101008083540402835291602001916114f4565b820191906000526020600020905b8154815290600101906020018083116114d757829003601f168201915b5050505050905090565b611510611509612316565b83836127f7565b5050565b61151c613640565b6000600e600084815260200190815260200160002054905060008111611577576040517f08c379a000000000000000000000000000000000000000000000000000000000815260040161156e90615066565b60405180910390fd5b600d6001826115869190615086565b81548110611597576115966147bf565b5b90600052602060002090600302016040518060600160405290816000820154815260200160018201548152602001600282015481525050915050919050565b6000600b60009054906101000a900473ffffffffffffffffffffffffffffffffffffffff1673ffffffffffffffffffffffffffffffffffffffff166352db77c46000600181111561162a57611629614acb565b5b336040518363ffffffff1660e01b8152600401611648929190614afa565b600060405180830381865afa158015611665573d6000803e3d6000fd5b505050506040513d6000823e3d601f19601f8201168201806040525081019061168e919061499f565b9050600081600001516000015190506000600a60009054906101000a900473ffffffffffffffffffffffffffffffffffffffff1673ffffffffffffffffffffffffffffffffffffffff166303d658e0866040518263ffffffff1660e01b81526004016116fa9190613f9b565b600060405180830381865afa158015611717573d6000803e3d6000fd5b505050506040513d6000823e3d601f19601f820116820180604052508101906117409190614cb7565b9050600080600a60009054906101000a900473ffffffffffffffffffffffffffffffffffffffff1673ffffffffffffffffffffffffffffffffffffffff1663d9ac23d98461010001516040518263ffffffff1660e01b81526004016117a59190613f9b565b6040805180830381865afa1580156117c1573d6000803e3d6000fd5b505050506040513d601f19601f820116820180604052508101906117e591906150ba565b9150915084606001511561182e576040517f08c379a000000000000000000000000000000000000000000000000000000000815260040161182590614b6f565b60405180910390fd5b8260c001516011600085600001518152602001908152602001600020805490501061188e576040517f08c379a000000000000000000000000000000000000000000000000000000000815260040161188590615146565b60405180910390fd5b814210156118d1576040517f08c379a00000000000000000000000000000000000000000000000000000000081526004016118c8906151b2565b60405180910390fd5b80421115611914576040517f08c379a000000000000000000000000000000000000000000000000000000000815260040161190b906151b2565b60405180910390fd5b6000836060015114806119c55750600c60009054906101000a900473ffffffffffffffffffffffffffffffffffffffff1673ffffffffffffffffffffffffffffffffffffffff16636eabe75f8460600151336040518363ffffffff1660e01b8152600401611983929190614afa565b602060405180830381865afa1580156119a0573d6000803e3d6000fd5b505050506040513d601f19601f820116820180604052508101906119c491906151d2565b5b611a04576040517f08c379a00000000000000000000000000000000000000000000000000000000081526004016119fb9061524b565b60405180910390fd5b6000601060008681526020019081526020016000206000856020015181526020019081526020016000205414611a6f576040517f08c379a0000000000000000000000000000000000000000000000000000000008152600401611a66906152b7565b60405180910390fd5b8261012001513414611a8057600080fd5b6000611a8c3388612963565b9050600d60405180606001604052808381526020018a81526020018781525090806001815401808255809150506001900390600052602060002090600302016000909190919091506000820151816000015560208201518160010155604082015181600201555050600d80549050600e600083815260200190815260200160002081905550600f600086815260200190815260200160002081908060018154018082558091505060019003906000526020600020016000909190919091505580601060008781526020019081526020016000206000866020015181526020019081526020016000208190555060116000856000015181526020019081526020016000208590806001815401808255809150506001900390600052602060002001600090919091909150557f000000000000000000000000000000000000000000000000000000000000000073ffffffffffffffffffffffffffffffffffffffff166108fc349081150290604051600060405180830381858888f19350505050158015611c1c573d6000803e3d6000fd5b507fbe6a370d4ba6aa5fb05f8f9fc9d428affa443f0d593797fd5ac930a5e5b8fde581604051611c4c9190613f9b565b60405180910390a15050505050505050565b611c6f611c69612316565b836123d7565b611cae576040517f08c379a0000000000000000000000000000000000000000000000000000000008152600401611ca59061479f565b60405180910390fd5b611cba848484846129d4565b50505050565b3373ffffffffffffffffffffffffffffffffffffffff16600760009054906101000a900473ffffffffffffffffffffffffffffffffffffffff1673ffffffffffffffffffffffffffffffffffffffff1614611d1a57600080fd5b600c60149054906101000a900460ff1615611d3457600080fd5b6001600c60146101000a81548160ff02191690831515021790555080600c60006101000a81548173ffffffffffffffffffffffffffffffffffffffff021916908373ffffffffffffffffffffffffffffffffffffffff16021790555050565b6060611d9e826122cb565b6000600660008481526020019081526020016000208054611dbe906145d8565b80601f0160208091040260200160405190810160405280929190818152602001828054611dea906145d8565b8015611e375780601f10611e0c57610100808354040283529160200191611e37565b820191906000526020600020905b815481529060010190602001808311611e1a57829003601f168201915b505050505090506000611e48612a30565b90506000815103611e5d578192505050611ea0565b600082511115611e92578082604051602001611e7a929190615313565b60405160208183030381529060405292505050611ea0565b611e9b84612a47565b925050505b919050565b6000600560008473ffffffffffffffffffffffffffffffffffffffff1673ffffffffffffffffffffffffffffffffffffffff16815260200190815260200160002060008373ffffffffffffffffffffffffffffffffffffffff1673ffffffffffffffffffffffffffffffffffffffff16815260200190815260200160002060009054906101000a900460ff16905092915050565b6000611f4483611514565b90506000600b60009054906101000a900473ffffffffffffffffffffffffffffffffffffffff1673ffffffffffffffffffffffffffffffffffffffff166352db77c4600180811115611f9957611f98614acb565b5b336040518363ffffffff1660e01b8152600401611fb7929190614afa565b600060405180830381865afa158015611fd4573d6000803e3d6000fd5b505050506040513d6000823e3d601f19601f82011682018060405250810190611ffd919061499f565b90506000600a60009054906101000a900473ffffffffffffffffffffffffffffffffffffffff1673ffffffffffffffffffffffffffffffffffffffff166303d658e084602001516040518263ffffffff1660e01b81526004016120609190613f9b565b600060405180830381865afa15801561207d573d6000803e3d6000fd5b505050506040513d6000823e3d601f19601f820116820180604052508101906120a69190614cb7565b90508315806120e157506000601060008560400151815260200190815260200160002060008360200151815260200190815260200160002054115b612120576040517f08c379a000000000000000000000000000000000000000000000000000000000815260040161211790614d4c565b60405180910390fd5b428160a0015111612166576040517f08c379a000000000000000000000000000000000000000000000000000000000815260040161215d90614db8565b60405180910390fd5b8160600151156121ab576040517f08c379a00000000000000000000000000000000000000000000000000000000081526004016121a290614b6f565b60405180910390fd5b8160000151600001518160e00151146121f9576040517f08c379a00000000000000000000000000000000000000000000000000000000081526004016121f090614e24565b60405180910390fd5b836012600087815260200190815260200160002060006101000a81548160ff0219169083151502179055508361225a576010600084604001518152602001908152602001600020600082602001518152602001908152602001600020600090555b5050505050565b60007f01ffc9a7000000000000000000000000000000000000000000000000000000007bffffffffffffffffffffffffffffffffffffffffffffffffffffffff1916827bffffffffffffffffffffffffffffffffffffffffffffffffffffffff1916149050919050565b6122d481612aaf565b612313576040517f08c379a000000000000000000000000000000000000000000000000000000000815260040161230a90614e90565b60405180910390fd5b50565b600033905090565b816004600083815260200190815260200160002060006101000a81548173ffffffffffffffffffffffffffffffffffffffff021916908373ffffffffffffffffffffffffffffffffffffffff160217905550808273ffffffffffffffffffffffffffffffffffffffff1661239183610e4d565b73ffffffffffffffffffffffffffffffffffffffff167f8c5be1e5ebec7d5bd14f71427d1e84f3dd0314c0f7b2291e5b200ac8c7c3b92560405160405180910390a45050565b6000806123e383610e4d565b90508073ffffffffffffffffffffffffffffffffffffffff168473ffffffffffffffffffffffffffffffffffffffff16148061242557506124248185611ea5565b5b8061246357508373ffffffffffffffffffffffffffffffffffffffff1661244b846106f6565b73ffffffffffffffffffffffffffffffffffffffff16145b91505092915050565b8273ffffffffffffffffffffffffffffffffffffffff1661248c82610e4d565b73ffffffffffffffffffffffffffffffffffffffff16146124e2576040517f08c379a00000000000000000000000000000000000000000000000000000000081526004016124d9906153a9565b60405180910390fd5b600073ffffffffffffffffffffffffffffffffffffffff168273ffffffffffffffffffffffffffffffffffffffff1603612551576040517f08c379a00000000000000000000000000000000000000000000000000000000081526004016125489061543b565b60405180910390fd5b61255e8383836001612af0565b8273ffffffffffffffffffffffffffffffffffffffff1661257e82610e4d565b73ffffffffffffffffffffffffffffffffffffffff16146125d4576040517f08c379a00000000000000000000000000000000000000000000000000000000081526004016125cb906153a9565b60405180910390fd5b6004600082815260200190815260200160002060006101000a81549073ffffffffffffffffffffffffffffffffffffffff02191690556001600360008573ffffffffffffffffffffffffffffffffffffffff1673ffffffffffffffffffffffffffffffffffffffff168152602001908152602001600020600082825403925050819055506001600360008473ffffffffffffffffffffffffffffffffffffffff1673ffffffffffffffffffffffffffffffffffffffff16815260200190815260200160002060008282540192505081905550816002600083815260200190815260200160002060006101000a81548173ffffffffffffffffffffffffffffffffffffffff021916908373ffffffffffffffffffffffffffffffffffffffff160217905550808273ffffffffffffffffffffffffffffffffffffffff168473ffffffffffffffffffffffffffffffffffffffff167fddf252ad1be2c89b69c2b068fc378daa952ba7f163c4a11628f55a4df523b3ef60405160405180910390a46127608383836001612af6565b505050565b60006002600083815260200190815260200160002060009054906101000a900473ffffffffffffffffffffffffffffffffffffffff169050919050565b6127ab81612afc565b6127b9836040015182612b4f565b6127c281612c74565b601060008460400151815260200190815260200160002060008360200151815260200190815260200160002060009055505050565b8173ffffffffffffffffffffffffffffffffffffffff168373ffffffffffffffffffffffffffffffffffffffff1603612865576040517f08c379a000000000000000000000000000000000000000000000000000000000815260040161285c906154a7565b60405180910390fd5b80600560008573ffffffffffffffffffffffffffffffffffffffff1673ffffffffffffffffffffffffffffffffffffffff16815260200190815260200160002060008473ffffffffffffffffffffffffffffffffffffffff1673ffffffffffffffffffffffffffffffffffffffff16815260200190815260200160002060006101000a81548160ff0219169083151502179055508173ffffffffffffffffffffffffffffffffffffffff168373ffffffffffffffffffffffffffffffffffffffff167f17307eab39ab6107e8899845ad3d59bd9653f200f220920489ca2b5937696c31836040516129569190613889565b60405180910390a3505050565b60008061296e612dc6565b90506129c084826000368080601f016020809104026020016040519081016040528093929190818152602001838380828437600081840152601f19601f82011690508083019250505050505050612de7565b6129ca8184612e42565b8091505092915050565b6129df84848461246c565b6129eb84848484612eb6565b612a2a576040517f08c379a0000000000000000000000000000000000000000000000000000000008152600401612a2190615539565b60405180910390fd5b50505050565b606060405180602001604052806000815250905090565b6060612a52826122cb565b6000612a5c612a30565b90506000815111612a7c5760405180602001604052806000815250612aa7565b80612a868461303d565b604051602001612a97929190615313565b6040516020818303038152906040525b915050919050565b60008073ffffffffffffffffffffffffffffffffffffffff16612ad183612765565b73ffffffffffffffffffffffffffffffffffffffff1614159050919050565b50505050565b50505050565b612b058161310b565b6000600660008381526020019081526020016000208054612b25906145d8565b905014612b4c57600660008281526020019081526020016000206000612b4b91906136f2565b5b50565b6000600f60008481526020019081526020016000208054905090506000805b82811015612bc55783600f60008781526020019081526020016000208281548110612b9c57612b9b6147bf565b5b906000526020600020015403612bb457809150612bc5565b80612bbe90614a17565b9050612b6e565b50600f6000858152602001908152602001600020600183612be69190615086565b81548110612bf757612bf66147bf565b5b9060005260206000200154600f60008681526020019081526020016000208281548110612c2757612c266147bf565b5b9060005260206000200181905550600f6000858152602001908152602001600020805480612c5857612c57615559565b5b6001900381819060005260206000200160009055905550505050565b6000600e60008381526020019081526020016000205490506000600d80549050905081811115612d67576000600d600183612caf9190615086565b81548110612cc057612cbf6147bf565b5b90600052602060002090600302016040518060600160405290816000820154815260200160018201548152602001600282015481525050905080600d600185612d099190615086565b81548110612d1a57612d196147bf565b5b906000526020600020906003020160008201518160000155602082015181600101556040820151816002015590505082600e60008360000151815260200190815260200160002081905550505b600e600084815260200190815260200160002060009055600d805480612d9057612d8f615559565b5b60019003818190600052602060002090600302016000808201600090556001820160009055600282016000905550509055505050565b6000612dd26008613259565b6000612dde600861326f565b90508091505090565b612df1838361327d565b612dfe6000848484612eb6565b612e3d576040517f08c379a0000000000000000000000000000000000000000000000000000000008152600401612e3490615539565b60405180910390fd5b505050565b612e4b82612aaf565b612e8a576040517f08c379a0000000000000000000000000000000000000000000000000000000008152600401612e81906155fa565b60405180910390fd5b80600660008481526020019081526020016000209080519060200190612eb1929190613732565b505050565b6000612ed78473ffffffffffffffffffffffffffffffffffffffff1661349a565b15613030578373ffffffffffffffffffffffffffffffffffffffff1663150b7a02612f00612316565b8786866040518563ffffffff1660e01b8152600401612f22949392919061566f565b6020604051808303816000875af1925050508015612f5e57506040513d601f19601f82011682018060405250810190612f5b91906156d0565b60015b612fe0573d8060008114612f8e576040519150601f19603f3d011682016040523d82523d6000602084013e612f93565b606091505b506000815103612fd8576040517f08c379a0000000000000000000000000000000000000000000000000000000008152600401612fcf90615539565b60405180910390fd5b805181602001fd5b63150b7a0260e01b7bffffffffffffffffffffffffffffffffffffffffffffffffffffffff1916817bffffffffffffffffffffffffffffffffffffffffffffffffffffffff191614915050613035565b600190505b949350505050565b60606000600161304c846134bd565b01905060008167ffffffffffffffff81111561306b5761306a613ce2565b5b6040519080825280601f01601f19166020018201604052801561309d5781602001600182028036833780820191505090505b509050600082602001820190505b600115613100578080600190039150507f3031323334353637383961626364656600000000000000000000000000000000600a86061a8153600a85816130f4576130f36156fd565b5b049450600085036130ab575b819350505050919050565b600061311682610e4d565b9050613126816000846001612af0565b61312f82610e4d565b90506004600083815260200190815260200160002060006101000a81549073ffffffffffffffffffffffffffffffffffffffff02191690556001600360008373ffffffffffffffffffffffffffffffffffffffff1673ffffffffffffffffffffffffffffffffffffffff168152602001908152602001600020600082825403925050819055506002600083815260200190815260200160002060006101000a81549073ffffffffffffffffffffffffffffffffffffffff021916905581600073ffffffffffffffffffffffffffffffffffffffff168273ffffffffffffffffffffffffffffffffffffffff167fddf252ad1be2c89b69c2b068fc378daa952ba7f163c4a11628f55a4df523b3ef60405160405180910390a4613255816000846001612af6565b5050565b6001816000016000828254019250508190555050565b600081600001549050919050565b600073ffffffffffffffffffffffffffffffffffffffff168273ffffffffffffffffffffffffffffffffffffffff16036132ec576040517f08c379a00000000000000000000000000000000000000000000000000000000081526004016132e390615778565b60405180910390fd5b6132f581612aaf565b15613335576040517f08c379a000000000000000000000000000000000000000000000000000000000815260040161332c906157e4565b60405180910390fd5b613343600083836001612af0565b61334c81612aaf565b1561338c576040517f08c379a0000000000000000000000000000000000000000000000000000000008152600401613383906157e4565b60405180910390fd5b6001600360008473ffffffffffffffffffffffffffffffffffffffff1673ffffffffffffffffffffffffffffffffffffffff16815260200190815260200160002060008282540192505081905550816002600083815260200190815260200160002060006101000a81548173ffffffffffffffffffffffffffffffffffffffff021916908373ffffffffffffffffffffffffffffffffffffffff160217905550808273ffffffffffffffffffffffffffffffffffffffff16600073ffffffffffffffffffffffffffffffffffffffff167fddf252ad1be2c89b69c2b068fc378daa952ba7f163c4a11628f55a4df523b3ef60405160405180910390a4613496600083836001612af6565b5050565b6000808273ffffffffffffffffffffffffffffffffffffffff163b119050919050565b600080600090507a184f03e93ff9f4daa797ed6e38ed64bf6a1f010000000000000000831061351b577a184f03e93ff9f4daa797ed6e38ed64bf6a1f0100000000000000008381613511576135106156fd565b5b0492506040810190505b6d04ee2d6d415b85acef81000000008310613558576d04ee2d6d415b85acef8100000000838161354e5761354d6156fd565b5b0492506020810190505b662386f26fc10000831061358757662386f26fc10000838161357d5761357c6156fd565b5b0492506010810190505b6305f5e10083106135b0576305f5e10083816135a6576135a56156fd565b5b0492506008810190505b61271083106135d55761271083816135cb576135ca6156fd565b5b0492506004810190505b606483106135f857606483816135ee576135ed6156fd565b5b0492506002810190505b600a8310613607576001810190505b80915050919050565b60405180608001604052806136236136bb565b815260200160608152602001600081526020016000151581525090565b60405180606001604052806000815260200160008152602001600081525090565b60405180610160016040528060008152602001600081526020016000815260200160008152602001600081526020016000815260200160008152602001600081526020016000815260200160008152602001606081525090565b604051806060016040528060008152602001600073ffffffffffffffffffffffffffffffffffffffff168152602001600081525090565b5080546136fe906145d8565b6000825580601f10613710575061372f565b601f01602090049060005260206000209081019061372e91906137b8565b5b50565b82805461373e906145d8565b90600052602060002090601f01602090048101928261376057600085556137a7565b82601f1061377957805160ff19168380011785556137a7565b828001600101855582156137a7579182015b828111156137a657825182559160200191906001019061378b565b5b5090506137b491906137b8565b5090565b5b808211156137d15760008160009055506001016137b9565b5090565b6000604051905090565b600080fd5b600080fd5b60007fffffffff0000000000000000000000000000000000000000000000000000000082169050919050565b61381e816137e9565b811461382957600080fd5b50565b60008135905061383b81613815565b92915050565b600060208284031215613857576138566137df565b5b60006138658482850161382c565b91505092915050565b60008115159050919050565b6138838161386e565b82525050565b600060208201905061389e600083018461387a565b92915050565b600081519050919050565b600082825260208201905092915050565b60005b838110156138de5780820151818401526020810190506138c3565b838111156138ed576000848401525b50505050565b6000601f19601f8301169050919050565b600061390f826138a4565b61391981856138af565b93506139298185602086016138c0565b613932816138f3565b840191505092915050565b600060208201905081810360008301526139578184613904565b905092915050565b6000819050919050565b6139728161395f565b811461397d57600080fd5b50565b60008135905061398f81613969565b92915050565b6000602082840312156139ab576139aa6137df565b5b60006139b984828501613980565b91505092915050565b600073ffffffffffffffffffffffffffffffffffffffff82169050919050565b60006139ed826139c2565b9050919050565b6139fd816139e2565b82525050565b6000602082019050613a1860008301846139f4565b92915050565b613a27816139e2565b8114613a3257600080fd5b50565b600081359050613a4481613a1e565b92915050565b60008060408385031215613a6157613a606137df565b5b6000613a6f85828601613a35565b9250506020613a8085828601613980565b9150509250929050565b600080600060608486031215613aa357613aa26137df565b5b6000613ab186828701613a35565b9350506020613ac286828701613a35565b9250506040613ad386828701613980565b9150509250925092565b600081519050919050565b600082825260208201905092915050565b6000819050602082019050919050565b613b128161395f565b82525050565b613b21816139e2565b82525050565b606082016000820151613b3d6000850182613b09565b506020820151613b506020850182613b18565b506040820151613b636040850182613b09565b50505050565b600082825260208201905092915050565b6000613b85826138a4565b613b8f8185613b69565b9350613b9f8185602086016138c0565b613ba8816138f3565b840191505092915050565b613bbc8161386e565b82525050565b600060c083016000830151613bda6000860182613b27565b5060208301518482036060860152613bf28282613b7a565b9150506040830151613c076080860182613b09565b506060830151613c1a60a0860182613bb3565b508091505092915050565b6000613c318383613bc2565b905092915050565b6000602082019050919050565b6000613c5182613add565b613c5b8185613ae8565b935083602082028501613c6d85613af9565b8060005b85811015613ca95784840389528151613c8a8582613c25565b9450613c9583613c39565b925060208a01995050600181019050613c71565b50829750879550505050505092915050565b60006020820190508181036000830152613cd58184613c46565b905092915050565b600080fd5b7f4e487b7100000000000000000000000000000000000000000000000000000000600052604160045260246000fd5b613d1a826138f3565b810181811067ffffffffffffffff82111715613d3957613d38613ce2565b5b80604052505050565b6000613d4c6137d5565b9050613d588282613d11565b919050565b600067ffffffffffffffff821115613d7857613d77613ce2565b5b602082029050602081019050919050565b600080fd5b6000613da1613d9c84613d5d565b613d42565b90508083825260208201905060208402830185811115613dc457613dc3613d89565b5b835b81811015613ded5780613dd98882613980565b845260208401935050602081019050613dc6565b5050509392505050565b600082601f830112613e0c57613e0b613cdd565b5b8135613e1c848260208601613d8e565b91505092915050565b600067ffffffffffffffff821115613e4057613e3f613ce2565b5b602082029050602081019050919050565b613e5a8161386e565b8114613e6557600080fd5b50565b600081359050613e7781613e51565b92915050565b6000613e90613e8b84613e25565b613d42565b90508083825260208201905060208402830185811115613eb357613eb2613d89565b5b835b81811015613edc5780613ec88882613e68565b845260208401935050602081019050613eb5565b5050509392505050565b600082601f830112613efb57613efa613cdd565b5b8135613f0b848260208601613e7d565b91505092915050565b60008060408385031215613f2b57613f2a6137df565b5b600083013567ffffffffffffffff811115613f4957613f486137e4565b5b613f5585828601613df7565b925050602083013567ffffffffffffffff811115613f7657613f756137e4565b5b613f8285828601613ee6565b9150509250929050565b613f958161395f565b82525050565b6000602082019050613fb06000830184613f8c565b92915050565b600081519050919050565b600082825260208201905092915050565b6000819050602082019050919050565b606082016000820151613ff86000850182613b09565b50602082015161400b6020850182613b09565b50604082015161401e6040850182613b09565b50505050565b60006140308383613fe2565b60608301905092915050565b6000602082019050919050565b600061405482613fb6565b61405e8185613fc1565b935061406983613fd2565b8060005b8381101561409a5781516140818882614024565b975061408c8361403c565b92505060018101905061406d565b5085935050505092915050565b600060208201905081810360008301526140c18184614049565b905092915050565b6000602082840312156140df576140de6137df565b5b60006140ed84828501613a35565b91505092915050565b60006101608301600083015161410f6000860182613b09565b5060208301516141226020860182613b09565b5060408301516141356040860182613b09565b5060608301516141486060860182613b09565b50608083015161415b6080860182613b09565b5060a083015161416e60a0860182613b09565b5060c083015161418160c0860182613b09565b5060e083015161419460e0860182613b09565b506101008301516141a9610100860182613b09565b506101208301516141be610120860182613b09565b506101408301518482036101408601526141d88282613b7a565b9150508091505092915050565b6060820160008201516141fb6000850182613b09565b50602082015161420e6020850182613b18565b5060408201516142216040850182613b09565b50505050565b6000608082019050818103600083015261424181856140f6565b905061425060208301846141e5565b9392505050565b6000806040838503121561426e5761426d6137df565b5b600061427c85828601613a35565b925050602061428d85828601613e68565b9150509250929050565b6060820160008201516142ad6000850182613b09565b5060208201516142c06020850182613b09565b5060408201516142d36040850182613b09565b50505050565b60006060820190506142ee6000830184614297565b92915050565b600080fd5b600067ffffffffffffffff82111561431457614313613ce2565b5b61431d826138f3565b9050602081019050919050565b82818337600083830152505050565b600061434c614347846142f9565b613d42565b905082815260208101848484011115614368576143676142f4565b5b61437384828561432a565b509392505050565b600082601f8301126143905761438f613cdd565b5b81356143a0848260208601614339565b91505092915050565b600080604083850312156143c0576143bf6137df565b5b60006143ce85828601613980565b925050602083013567ffffffffffffffff8111156143ef576143ee6137e4565b5b6143fb8582860161437b565b9150509250929050565b600067ffffffffffffffff8211156144205761441f613ce2565b5b614429826138f3565b9050602081019050919050565b600061444961444484614405565b613d42565b905082815260208101848484011115614465576144646142f4565b5b61447084828561432a565b509392505050565b600082601f83011261448d5761448c613cdd565b5b813561449d848260208601614436565b91505092915050565b600080600080608085870312156144c0576144bf6137df565b5b60006144ce87828801613a35565b94505060206144df87828801613a35565b93505060406144f087828801613980565b925050606085013567ffffffffffffffff811115614511576145106137e4565b5b61451d87828801614478565b91505092959194509250565b600080604083850312156145405761453f6137df565b5b600061454e85828601613a35565b925050602061455f85828601613a35565b9150509250929050565b600080604083850312156145805761457f6137df565b5b600061458e85828601613980565b925050602061459f85828601613e68565b9150509250929050565b7f4e487b7100000000000000000000000000000000000000000000000000000000600052602260045260246000fd5b600060028204905060018216806145f057607f821691505b602082108103614603576146026145a9565b5b50919050565b7f4552433732313a20617070726f76616c20746f2063757272656e74206f776e6560008201527f7200000000000000000000000000000000000000000000000000000000000000602082015250565b60006146656021836138af565b915061467082614609565b604082019050919050565b6000602082019050818103600083015261469481614658565b9050919050565b7f4552433732313a20617070726f76652063616c6c6572206973206e6f7420746f60008201527f6b656e206f776e6572206f7220617070726f76656420666f7220616c6c000000602082015250565b60006146f7603d836138af565b91506147028261469b565b604082019050919050565b60006020820190508181036000830152614726816146ea565b9050919050565b7f4552433732313a2063616c6c6572206973206e6f7420746f6b656e206f776e6560008201527f72206f7220617070726f76656400000000000000000000000000000000000000602082015250565b6000614789602d836138af565b91506147948261472d565b604082019050919050565b600060208201905081810360008301526147b88161477c565b9050919050565b7f4e487b7100000000000000000000000000000000000000000000000000000000600052603260045260246000fd5b600080fd5b600080fd5b60008151905061480781613969565b92915050565b60008151905061481c81613a1e565b92915050565b600060608284031215614838576148376147ee565b5b6148426060613d42565b90506000614852848285016147f8565b60008301525060206148668482850161480d565b602083015250604061487a848285016147f8565b60408301525092915050565b6000614899614894846142f9565b613d42565b9050828152602081018484840111156148b5576148b46142f4565b5b6148c08482856138c0565b509392505050565b600082601f8301126148dd576148dc613cdd565b5b81516148ed848260208601614886565b91505092915050565b60008151905061490581613e51565b92915050565b600060c08284031215614921576149206147ee565b5b61492b6080613d42565b9050600061493b84828501614822565b600083015250606082015167ffffffffffffffff81111561495f5761495e6147f3565b5b61496b848285016148c8565b602083015250608061497f848285016147f8565b60408301525060a0614993848285016148f6565b60608301525092915050565b6000602082840312156149b5576149b46137df565b5b600082015167ffffffffffffffff8111156149d3576149d26137e4565b5b6149df8482850161490b565b91505092915050565b7f4e487b7100000000000000000000000000000000000000000000000000000000600052601160045260246000fd5b6000614a228261395f565b91507fffffffffffffffffffffffffffffffffffffffffffffffffffffffffffffffff8203614a5457614a536149e8565b5b600182019050919050565b7f432d4552522d3033000000000000000000000000000000000000000000000000600082015250565b6000614a956008836138af565b9150614aa082614a5f565b602082019050919050565b60006020820190508181036000830152614ac481614a88565b9050919050565b7f4e487b7100000000000000000000000000000000000000000000000000000000600052602160045260246000fd5b6000604082019050614b0f6000830185613f8c565b614b1c60208301846139f4565b9392505050565b7f432d4552522d3031000000000000000000000000000000000000000000000000600082015250565b6000614b596008836138af565b9150614b6482614b23565b602082019050919050565b60006020820190508181036000830152614b8881614b4c565b9050919050565b60006101608284031215614ba657614ba56147ee565b5b614bb1610160613d42565b90506000614bc1848285016147f8565b6000830152506020614bd5848285016147f8565b6020830152506040614be9848285016147f8565b6040830152506060614bfd848285016147f8565b6060830152506080614c11848285016147f8565b60808301525060a0614c25848285016147f8565b60a08301525060c0614c39848285016147f8565b60c08301525060e0614c4d848285016147f8565b60e083015250610100614c62848285016147f8565b61010083015250610120614c78848285016147f8565b6101208301525061014082015167ffffffffffffffff811115614c9e57614c9d6147f3565b5b614caa848285016148c8565b6101408301525092915050565b600060208284031215614ccd57614ccc6137df565b5b600082015167ffffffffffffffff811115614ceb57614cea6137e4565b5b614cf784828501614b8f565b91505092915050565b7f4e43522d4552522d303200000000000000000000000000000000000000000000600082015250565b6000614d36600a836138af565b9150614d4182614d00565b602082019050919050565b60006020820190508181036000830152614d6581614d29565b9050919050565b7f4e43522d4552522d303300000000000000000000000000000000000000000000600082015250565b6000614da2600a836138af565b9150614dad82614d6c565b602082019050919050565b60006020820190508181036000830152614dd181614d95565b9050919050565b7f432d4552522d3032000000000000000000000000000000000000000000000000600082015250565b6000614e0e6008836138af565b9150614e1982614dd8565b602082019050919050565b60006020820190508181036000830152614e3d81614e01565b9050919050565b7f4552433732313a20696e76616c696420746f6b656e2049440000000000000000600082015250565b6000614e7a6018836138af565b9150614e8582614e44565b602082019050919050565b60006020820190508181036000830152614ea981614e6d565b9050919050565b7f4552433732313a2061646472657373207a65726f206973206e6f74206120766160008201527f6c6964206f776e65720000000000000000000000000000000000000000000000602082015250565b6000614f0c6029836138af565b9150614f1782614eb0565b604082019050919050565b60006020820190508181036000830152614f3b81614eff565b9050919050565b7f4e43432d4552522d303300000000000000000000000000000000000000000000600082015250565b6000614f78600a836138af565b9150614f8382614f42565b602082019050919050565b60006020820190508181036000830152614fa781614f6b565b9050919050565b7f4e43522d4552522d303400000000000000000000000000000000000000000000600082015250565b6000614fe4600a836138af565b9150614fef82614fae565b602082019050919050565b6000602082019050818103600083015261501381614fd7565b9050919050565b7f4e43522d4552522d303000000000000000000000000000000000000000000000600082015250565b6000615050600a836138af565b915061505b8261501a565b602082019050919050565b6000602082019050818103600083015261507f81615043565b9050919050565b60006150918261395f565b915061509c8361395f565b9250828210156150af576150ae6149e8565b5b828203905092915050565b600080604083850312156150d1576150d06137df565b5b60006150df858286016147f8565b92505060206150f0858286016147f8565b9150509250929050565b7f4e43522d4552522d303100000000000000000000000000000000000000000000600082015250565b6000615130600a836138af565b915061513b826150fa565b602082019050919050565b6000602082019050818103600083015261515f81615123565b9050919050565b7f4e43522d4552522d303500000000000000000000000000000000000000000000600082015250565b600061519c600a836138af565b91506151a782615166565b602082019050919050565b600060208201905081810360008301526151cb8161518f565b9050919050565b6000602082840312156151e8576151e76137df565b5b60006151f6848285016148f6565b91505092915050565b7f4e43522d4552522d303600000000000000000000000000000000000000000000600082015250565b6000615235600a836138af565b9150615240826151ff565b602082019050919050565b6000602082019050818103600083015261526481615228565b9050919050565b7f4e43522d4552522d303700000000000000000000000000000000000000000000600082015250565b60006152a1600a836138af565b91506152ac8261526b565b602082019050919050565b600060208201905081810360008301526152d081615294565b9050919050565b600081905092915050565b60006152ed826138a4565b6152f781856152d7565b93506153078185602086016138c0565b80840191505092915050565b600061531f82856152e2565b915061532b82846152e2565b91508190509392505050565b7f4552433732313a207472616e736665722066726f6d20696e636f72726563742060008201527f6f776e6572000000000000000000000000000000000000000000000000000000602082015250565b60006153936025836138af565b915061539e82615337565b604082019050919050565b600060208201905081810360008301526153c281615386565b9050919050565b7f4552433732313a207472616e7366657220746f20746865207a65726f2061646460008201527f7265737300000000000000000000000000000000000000000000000000000000602082015250565b60006154256024836138af565b9150615430826153c9565b604082019050919050565b6000602082019050818103600083015261545481615418565b9050919050565b7f4552433732313a20617070726f766520746f2063616c6c657200000000000000600082015250565b60006154916019836138af565b915061549c8261545b565b602082019050919050565b600060208201905081810360008301526154c081615484565b9050919050565b7f4552433732313a207472616e7366657220746f206e6f6e20455243373231526560008201527f63656976657220696d706c656d656e7465720000000000000000000000000000602082015250565b60006155236032836138af565b915061552e826154c7565b604082019050919050565b6000602082019050818103600083015261555281615516565b9050919050565b7f4e487b7100000000000000000000000000000000000000000000000000000000600052603160045260246000fd5b7f45524337323155524953746f726167653a2055524920736574206f66206e6f6e60008201527f6578697374656e7420746f6b656e000000000000000000000000000000000000602082015250565b60006155e4602e836138af565b91506155ef82615588565b604082019050919050565b60006020820190508181036000830152615613816155d7565b9050919050565b600081519050919050565b600082825260208201905092915050565b60006156418261561a565b61564b8185615625565b935061565b8185602086016138c0565b615664816138f3565b840191505092915050565b600060808201905061568460008301876139f4565b61569160208301866139f4565b61569e6040830185613f8c565b81810360608301526156b08184615636565b905095945050505050565b6000815190506156ca81613815565b92915050565b6000602082840312156156e6576156e56137df565b5b60006156f4848285016156bb565b91505092915050565b7f4e487b7100000000000000000000000000000000000000000000000000000000600052601260045260246000fd5b7f4552433732313a206d696e7420746f20746865207a65726f2061646472657373600082015250565b60006157626020836138af565b915061576d8261572c565b602082019050919050565b6000602082019050818103600083015261579181615755565b9050919050565b7f4552433732313a20746f6b656e20616c7265616479206d696e74656400000000600082015250565b60006157ce601c836138af565b91506157d982615798565b602082019050919050565b600060208201905081810360008301526157fd816157c1565b905091905056fea2646970667358221220f1243a0b7fc7d3bbd60c2a2e4fe85d46248a9dee4123f6d96a67ef83ed3d104464736f6c634300080d0033",
  "immutableReferences": {
    "4340": [
      {
        "length": 32,
        "start": 7096
      }
    ]
  },
  "source": "// SPDX-License-Identifier: MIT\r\n// Tells the Solidity compiler to compile only from v0.8.13 to v0.9.0\r\npragma solidity ^0.8.13;\r\n\r\nimport \"./base/ERC721BaseContract.sol\";\r\nimport \"./interfaces/INftClassRegistration.sol\";\r\nimport \"./interfaces/INftIdentities.sol\";\r\nimport \"./interfaces/INftCompleteCourses.sol\";\r\nimport \"./interfaces/ISchool.sol\";\r\n\r\ncontract NftClassRegistration is ERC721BaseContract, INftClassRegistration {\r\n    ISchool private _school;\r\n    INftIdentities private _nftIdentities;\r\n    INftCompleteCourses private _nftCompleteCoures;\r\n\r\n    bool private _isInitialize;\r\n    address private immutable _schoolAccount;\r\n\r\n    NftClassRegistration[] private _allNftClassRegistrations;\r\n    mapping(uint256 => uint256) private _posOfNftClassRegistrationTokenId;\r\n    // REMOVE when have certificate\r\n    mapping(uint256 => uint256[]) private _registeredClassTokenIdsOfStudent;\r\n    mapping(uint256 => mapping(uint256 => uint256))\r\n        private _registeredCourseOfStudent;\r\n    mapping(uint256 => uint256[]) private _studentTokenIdsOfClass; // KEEP\r\n    mapping(uint256 => bool) private _allowedExchangeToken;\r\n\r\n    event NewClassRegistrationCreated(uint256 classId);\r\n    event ClassRegistrationRegained(uint256 classId);\r\n\r\n    modifier onlyOwner() {\r\n        require(_owner == msg.sender);\r\n        _;\r\n    }\r\n\r\n    modifier onlyNftCompleteCourses() {\r\n        require(msg.sender == address(_nftCompleteCoures));\r\n        _;\r\n    }\r\n\r\n    constructor(\r\n        address nftIdentities,\r\n        address school,\r\n        address schoolAccount\r\n    ) ERC721BaseContract(\"NftClassRegistration\", \"NCR\") {\r\n        _isInitialize = false;\r\n        _nftIdentities = INftIdentities(nftIdentities);\r\n        _school = ISchool(school);\r\n        _schoolAccount = schoolAccount;\r\n    }\r\n\r\n    function initialize(address nftCompleteCoures) public onlyOwner {\r\n        require(!_isInitialize);\r\n        _isInitialize = true;\r\n        _nftCompleteCoures = INftCompleteCourses(nftCompleteCoures);\r\n    }\r\n\r\n    // Register class block: start\r\n    function getRegisteredClasses()\r\n        public\r\n        view\r\n        returns (NftClassRegistration[] memory)\r\n    {\r\n        NftIdentityResponse memory nftIdentityResponse = _nftIdentities\r\n            .getNftOfMemberWithRole(uint256(ROLE.STUDENT), msg.sender);\r\n        uint256 studentTokenId = nftIdentityResponse.nftIdentity.tokenId;\r\n        uint256[]\r\n            memory nftClassRegistrationTokenIds = _registeredClassTokenIdsOfStudent[\r\n                studentTokenId\r\n            ];\r\n        uint256 count = nftClassRegistrationTokenIds.length;\r\n\r\n        NftClassRegistration[]\r\n            memory nftClassRegistrations = new NftClassRegistration[](count);\r\n\r\n        for (uint256 idx = 0; idx < count; ++idx) {\r\n            nftClassRegistrations[idx] = getNftClassRegistration(\r\n                nftClassRegistrationTokenIds[idx]\r\n            );\r\n        }\r\n\r\n        return nftClassRegistrations;\r\n    }\r\n\r\n    function getNftClassRegistration(\r\n        uint256 tokenId\r\n    ) public view returns (NftClassRegistration memory) {\r\n        uint256 posOfNft = _posOfNftClassRegistrationTokenId[tokenId];\r\n        require(posOfNft > 0, \"NCR-ERR-00\");\r\n\r\n        return _allNftClassRegistrations[posOfNft - 1];\r\n    }\r\n\r\n    function getStudentListOfClass(\r\n        uint256 classId\r\n    ) public view returns (NftIdentityResponse[] memory) {\r\n        uint256 count = _studentTokenIdsOfClass[classId].length;\r\n        NftIdentityResponse[] memory result = new NftIdentityResponse[](count);\r\n\r\n        for (uint256 idx; idx < count; ++idx) {\r\n            result[idx] = _nftIdentities.getNftOfTokenId(\r\n                _studentTokenIdsOfClass[classId][idx]\r\n            );\r\n        }\r\n\r\n        return result;\r\n    }\r\n\r\n    function getNumberOfRegisteredStudent(\r\n        uint256 classId\r\n    ) external view returns (uint256) {\r\n        return _studentTokenIdsOfClass[classId].length;\r\n    }\r\n\r\n    function allowRequestNftCompleteCourse(\r\n        uint256 tokenId,\r\n        bool isAllowed\r\n    ) public {\r\n        NftClassRegistration\r\n            memory nftClassRegistration = getNftClassRegistration(tokenId);\r\n        NftIdentityResponse memory nftIdentityResponse = _nftIdentities\r\n            .getNftOfMemberWithRole(uint256(ROLE.TEACHER), msg.sender);\r\n        Class memory class = _school.getClassById(nftClassRegistration.classId);\r\n        require(\r\n            !isAllowed ||\r\n                _registeredCourseOfStudent[nftClassRegistration.studentTokenId][\r\n                    class.courseId\r\n                ] >\r\n                0,\r\n            \"NCR-ERR-02\"\r\n        );\r\n        require(class.completeAt > block.timestamp, \"NCR-ERR-03\");\r\n        require(!nftIdentityResponse.isExpired, \"C-ERR-01\");\r\n        require(\r\n            class.teacherTokenId == nftIdentityResponse.nftIdentity.tokenId,\r\n            \"C-ERR-02\"\r\n        );\r\n        _allowedExchangeToken[tokenId] = isAllowed;\r\n\r\n        if (!isAllowed) {\r\n            delete _registeredCourseOfStudent[\r\n                nftClassRegistration.studentTokenId\r\n            ][class.courseId];\r\n        }\r\n    }\r\n\r\n    function allowRequestNftCompleteCourses(\r\n        uint256[] memory tokenIds,\r\n        bool[] memory allowedList\r\n    ) public {\r\n        require(tokenIds.length == allowedList.length, \"C-ERR-03\");\r\n        uint256 count = tokenIds.length;\r\n        NftIdentityResponse memory nftIdentityResponse = _nftIdentities\r\n            .getNftOfMemberWithRole(uint256(ROLE.TEACHER), msg.sender);\r\n        require(!nftIdentityResponse.isExpired, \"C-ERR-01\");\r\n        for (uint256 idx; idx < count; ++idx) {\r\n            uint256 tokenId = tokenIds[idx];\r\n            bool isAllowed = allowedList[idx];\r\n\r\n            NftClassRegistration\r\n                memory nftClassRegistration = getNftClassRegistration(tokenId);\r\n            Class memory class = _school.getClassById(\r\n                nftClassRegistration.classId\r\n            );\r\n            require(\r\n                !isAllowed ||\r\n                    _registeredCourseOfStudent[\r\n                        nftClassRegistration.studentTokenId\r\n                    ][class.courseId] >\r\n                    0,\r\n                \"NCR-ERR-02\"\r\n            );\r\n            require(class.completeAt > block.timestamp, \"NCR-ERR-03\");\r\n            require(\r\n                class.teacherTokenId == nftIdentityResponse.nftIdentity.tokenId,\r\n                \"C-ERR-02\"\r\n            );\r\n            _allowedExchangeToken[tokenId] = isAllowed;\r\n\r\n            if (!isAllowed) {\r\n                delete _registeredCourseOfStudent[\r\n                    nftClassRegistration.studentTokenId\r\n                ][class.courseId];\r\n            }\r\n        }\r\n    }\r\n\r\n    function registerClass(uint256 classId, string memory uri) public payable {\r\n        NftIdentityResponse memory nftIdentityResponse = _nftIdentities\r\n            .getNftOfMemberWithRole(uint256(ROLE.STUDENT), msg.sender);\r\n        uint256 studentTokenId = nftIdentityResponse.nftIdentity.tokenId;\r\n        Class memory class = _school.getClassById(classId);\r\n        (uint256 registeredStartAt, uint256 registeredEndAt) = _school\r\n            .getRegisterTime(class.semester);\r\n\r\n        require(!nftIdentityResponse.isExpired, \"C-ERR-01\");\r\n        require(\r\n            _studentTokenIdsOfClass[class.id].length < class.maxSize,\r\n            \"NCR-ERR-01\"\r\n        );\r\n        require(block.timestamp >= registeredStartAt, \"NCR-ERR-05\");\r\n        require(block.timestamp <= registeredEndAt, \"NCR-ERR-05\");\r\n        require(\r\n            class.prevCourseId == 0 ||\r\n                _nftCompleteCoures.checkCompleteCourse(\r\n                    class.prevCourseId,\r\n                    msg.sender\r\n                ),\r\n            \"NCR-ERR-06\"\r\n        );\r\n        require(\r\n            _registeredCourseOfStudent[studentTokenId][class.courseId] == 0,\r\n            \"NCR-ERR-07\"\r\n        );\r\n        require(msg.value == class.registerClassFee);\r\n        uint256 tokenId = _mintToken(msg.sender, uri);\r\n        _allNftClassRegistrations.push(\r\n            NftClassRegistration(tokenId, classId, studentTokenId)\r\n        );\r\n        _posOfNftClassRegistrationTokenId[tokenId] = _allNftClassRegistrations\r\n            .length;\r\n        _registeredClassTokenIdsOfStudent[studentTokenId].push(tokenId);\r\n        _registeredCourseOfStudent[studentTokenId][class.courseId] = tokenId;\r\n        _studentTokenIdsOfClass[class.id].push(studentTokenId);\r\n        payable(_schoolAccount).transfer(msg.value);\r\n\r\n        emit NewClassRegistrationCreated(tokenId);\r\n    }\r\n\r\n    function regainV2(\r\n        address sender,\r\n        uint256 tokenId\r\n    ) public onlyNftCompleteCourses returns (Class memory, NftIdentity memory) {\r\n        require(_allowedExchangeToken[tokenId], \"NCC-ERR-03\");\r\n\r\n        NftIdentityResponse memory nftIdentityResponse = _nftIdentities\r\n            .getNftOfMemberWithRole(uint256(ROLE.STUDENT), sender);\r\n        require(!nftIdentityResponse.isExpired, \"C-ERR-01\");\r\n\r\n        NftClassRegistration\r\n            memory nftClassRegistration = getNftClassRegistration(tokenId);\r\n        require(\r\n            nftClassRegistration.studentTokenId ==\r\n                nftIdentityResponse.nftIdentity.tokenId,\r\n            \"NCR-ERR-04\"\r\n        );\r\n\r\n        Class memory class = _school.getClassById(nftClassRegistration.classId);\r\n\r\n        _regainNft(nftClassRegistration, class, tokenId);\r\n        return (class, nftIdentityResponse.nftIdentity);\r\n    }\r\n\r\n    function _regainNft(\r\n        NftClassRegistration memory nftClassRegistration,\r\n        Class memory class,\r\n        uint256 tokenId\r\n    ) private {\r\n        _burn(tokenId);\r\n        _removeClassTokenFromRegisteredList(\r\n            nftClassRegistration.studentTokenId,\r\n            tokenId\r\n        );\r\n        _removeNftClassRegistration(tokenId);\r\n        delete _registeredCourseOfStudent[nftClassRegistration.studentTokenId][\r\n            class.courseId\r\n        ];\r\n    }\r\n\r\n    function _removeClassTokenFromRegisteredList(\r\n        uint256 studentTokenId,\r\n        uint256 tokenId\r\n    ) private {\r\n        uint256 count = _registeredClassTokenIdsOfStudent[studentTokenId]\r\n            .length;\r\n        uint256 idxOfToken = 0;\r\n\r\n        for (uint256 idx; idx < count; ++idx) {\r\n            if (\r\n                _registeredClassTokenIdsOfStudent[studentTokenId][idx] ==\r\n                tokenId\r\n            ) {\r\n                idxOfToken = idx;\r\n                break;\r\n            }\r\n        }\r\n        _registeredClassTokenIdsOfStudent[studentTokenId][\r\n            idxOfToken\r\n        ] = _registeredClassTokenIdsOfStudent[studentTokenId][count - 1];\r\n        _registeredClassTokenIdsOfStudent[studentTokenId].pop();\r\n    }\r\n\r\n    function _removeNftClassRegistration(uint256 tokenId) private {\r\n        uint256 pos = _posOfNftClassRegistrationTokenId[tokenId];\r\n        uint256 count = _allNftClassRegistrations.length;\r\n\r\n        if (count > pos) {\r\n            NftClassRegistration memory lastNft = _allNftClassRegistrations[\r\n                count - 1\r\n            ];\r\n            _allNftClassRegistrations[pos - 1] = lastNft;\r\n            _posOfNftClassRegistrationTokenId[lastNft.tokenId] = pos;\r\n        }\r\n        delete _posOfNftClassRegistrationTokenId[tokenId];\r\n        _allNftClassRegistrations.pop();\r\n    }\r\n}\r\n",
  "sourcePath": "E:\\learn\\learn-to-earn\\blockchain\\contracts\\NftClassRegistration.sol",
  "compiler": {
    "name": "solc",
    "version": "0.8.13+commit.abaa5c0e.Emscripten.clang"
  },
  "schemaVersion": "3.4.13",
  "updatedAt": "2023-08-12T04:30:38.337Z",
  "networkType": "ethereum",
  "devdoc": {
    "kind": "dev",
    "methods": {
      "approve(address,uint256)": {
        "details": "See {IERC721-approve}."
      },
      "balanceOf(address)": {
        "details": "See {IERC721-balanceOf}."
      },
      "getApproved(uint256)": {
        "details": "See {IERC721-getApproved}."
      },
      "isApprovedForAll(address,address)": {
        "details": "See {IERC721-isApprovedForAll}."
      },
      "name()": {
        "details": "See {IERC721Metadata-name}."
      },
      "ownerOf(uint256)": {
        "details": "See {IERC721-ownerOf}."
      },
      "safeTransferFrom(address,address,uint256)": {
        "details": "See {IERC721-safeTransferFrom}."
      },
      "safeTransferFrom(address,address,uint256,bytes)": {
        "details": "See {IERC721-safeTransferFrom}."
      },
      "setApprovalForAll(address,bool)": {
        "details": "See {IERC721-setApprovalForAll}."
      },
      "supportsInterface(bytes4)": {
        "details": "See {IERC165-supportsInterface}."
      },
      "symbol()": {
        "details": "See {IERC721Metadata-symbol}."
      },
      "tokenURI(uint256)": {
        "details": "See {IERC721Metadata-tokenURI}."
      },
      "transferFrom(address,address,uint256)": {
        "details": "See {IERC721-transferFrom}."
      }
    },
    "version": 1
  },
  "userdoc": {
    "kind": "user",
    "methods": {},
    "version": 1
  }
}