{
  "contractName": "NftClassRegistration",
  "abi": [
    {
      "inputs": [
        {
          "internalType": "address",
          "name": "nftIdentities",
          "type": "address"
        },
        {
          "internalType": "address",
          "name": "nftSchool",
          "type": "address"
        }
      ],
      "stateMutability": "nonpayable",
      "type": "constructor"
    },
    {
      "anonymous": false,
      "inputs": [
        {
          "indexed": true,
          "internalType": "address",
          "name": "owner",
          "type": "address"
        },
        {
          "indexed": true,
          "internalType": "address",
          "name": "approved",
          "type": "address"
        },
        {
          "indexed": true,
          "internalType": "uint256",
          "name": "tokenId",
          "type": "uint256"
        }
      ],
      "name": "Approval",
      "type": "event"
    },
    {
      "anonymous": false,
      "inputs": [
        {
          "indexed": true,
          "internalType": "address",
          "name": "owner",
          "type": "address"
        },
        {
          "indexed": true,
          "internalType": "address",
          "name": "operator",
          "type": "address"
        },
        {
          "indexed": false,
          "internalType": "bool",
          "name": "approved",
          "type": "bool"
        }
      ],
      "name": "ApprovalForAll",
      "type": "event"
    },
    {
      "anonymous": false,
      "inputs": [
        {
          "indexed": false,
          "internalType": "uint256",
          "name": "classId",
          "type": "uint256"
        }
      ],
      "name": "NewClassRegistrationCreated",
      "type": "event"
    },
    {
      "anonymous": false,
      "inputs": [
        {
          "indexed": true,
          "internalType": "address",
          "name": "from",
          "type": "address"
        },
        {
          "indexed": true,
          "internalType": "address",
          "name": "to",
          "type": "address"
        },
        {
          "indexed": true,
          "internalType": "uint256",
          "name": "tokenId",
          "type": "uint256"
        }
      ],
      "name": "Transfer",
      "type": "event"
    },
    {
      "inputs": [
        {
          "internalType": "address",
          "name": "to",
          "type": "address"
        },
        {
          "internalType": "uint256",
          "name": "tokenId",
          "type": "uint256"
        }
      ],
      "name": "approve",
      "outputs": [],
      "stateMutability": "nonpayable",
      "type": "function"
    },
    {
      "inputs": [
        {
          "internalType": "address",
          "name": "owner",
          "type": "address"
        }
      ],
      "name": "balanceOf",
      "outputs": [
        {
          "internalType": "uint256",
          "name": "",
          "type": "uint256"
        }
      ],
      "stateMutability": "view",
      "type": "function",
      "constant": true
    },
    {
      "inputs": [
        {
          "internalType": "uint256",
          "name": "tokenId",
          "type": "uint256"
        }
      ],
      "name": "getApproved",
      "outputs": [
        {
          "internalType": "address",
          "name": "",
          "type": "address"
        }
      ],
      "stateMutability": "view",
      "type": "function",
      "constant": true
    },
    {
      "inputs": [
        {
          "internalType": "address",
          "name": "owner",
          "type": "address"
        },
        {
          "internalType": "address",
          "name": "operator",
          "type": "address"
        }
      ],
      "name": "isApprovedForAll",
      "outputs": [
        {
          "internalType": "bool",
          "name": "",
          "type": "bool"
        }
      ],
      "stateMutability": "view",
      "type": "function",
      "constant": true
    },
    {
      "inputs": [],
      "name": "name",
      "outputs": [
        {
          "internalType": "string",
          "name": "",
          "type": "string"
        }
      ],
      "stateMutability": "view",
      "type": "function",
      "constant": true
    },
    {
      "inputs": [
        {
          "internalType": "uint256",
          "name": "tokenId",
          "type": "uint256"
        }
      ],
      "name": "ownerOf",
      "outputs": [
        {
          "internalType": "address",
          "name": "",
          "type": "address"
        }
      ],
      "stateMutability": "view",
      "type": "function",
      "constant": true
    },
    {
      "inputs": [
        {
          "internalType": "address",
          "name": "from",
          "type": "address"
        },
        {
          "internalType": "address",
          "name": "to",
          "type": "address"
        },
        {
          "internalType": "uint256",
          "name": "tokenId",
          "type": "uint256"
        }
      ],
      "name": "safeTransferFrom",
      "outputs": [],
      "stateMutability": "nonpayable",
      "type": "function"
    },
    {
      "inputs": [
        {
          "internalType": "address",
          "name": "from",
          "type": "address"
        },
        {
          "internalType": "address",
          "name": "to",
          "type": "address"
        },
        {
          "internalType": "uint256",
          "name": "tokenId",
          "type": "uint256"
        },
        {
          "internalType": "bytes",
          "name": "data",
          "type": "bytes"
        }
      ],
      "name": "safeTransferFrom",
      "outputs": [],
      "stateMutability": "nonpayable",
      "type": "function"
    },
    {
      "inputs": [
        {
          "internalType": "address",
          "name": "operator",
          "type": "address"
        },
        {
          "internalType": "bool",
          "name": "approved",
          "type": "bool"
        }
      ],
      "name": "setApprovalForAll",
      "outputs": [],
      "stateMutability": "nonpayable",
      "type": "function"
    },
    {
      "inputs": [
        {
          "internalType": "bytes4",
          "name": "interfaceId",
          "type": "bytes4"
        }
      ],
      "name": "supportsInterface",
      "outputs": [
        {
          "internalType": "bool",
          "name": "",
          "type": "bool"
        }
      ],
      "stateMutability": "view",
      "type": "function",
      "constant": true
    },
    {
      "inputs": [],
      "name": "symbol",
      "outputs": [
        {
          "internalType": "string",
          "name": "",
          "type": "string"
        }
      ],
      "stateMutability": "view",
      "type": "function",
      "constant": true
    },
    {
      "inputs": [
        {
          "internalType": "uint256",
          "name": "tokenId",
          "type": "uint256"
        }
      ],
      "name": "tokenURI",
      "outputs": [
        {
          "internalType": "string",
          "name": "",
          "type": "string"
        }
      ],
      "stateMutability": "view",
      "type": "function",
      "constant": true
    },
    {
      "inputs": [
        {
          "internalType": "address",
          "name": "from",
          "type": "address"
        },
        {
          "internalType": "address",
          "name": "to",
          "type": "address"
        },
        {
          "internalType": "uint256",
          "name": "tokenId",
          "type": "uint256"
        }
      ],
      "name": "transferFrom",
      "outputs": [],
      "stateMutability": "nonpayable",
      "type": "function"
    },
    {
      "inputs": [
        {
          "internalType": "address",
          "name": "nftCertificates",
          "type": "address"
        }
      ],
      "name": "initialize",
      "outputs": [],
      "stateMutability": "nonpayable",
      "type": "function"
    },
    {
      "inputs": [],
      "name": "getRegisteredClasses",
      "outputs": [
        {
          "components": [
            {
              "internalType": "uint256",
              "name": "tokenId",
              "type": "uint256"
            },
            {
              "internalType": "uint256",
              "name": "classId",
              "type": "uint256"
            },
            {
              "internalType": "uint256",
              "name": "studentTokenId",
              "type": "uint256"
            }
          ],
          "internalType": "struct IConstant.NftClassRegistration[]",
          "name": "",
          "type": "tuple[]"
        }
      ],
      "stateMutability": "view",
      "type": "function",
      "constant": true
    },
    {
      "inputs": [
        {
          "internalType": "uint256",
          "name": "tokenId",
          "type": "uint256"
        }
      ],
      "name": "getNftClassRegistration",
      "outputs": [
        {
          "components": [
            {
              "internalType": "uint256",
              "name": "tokenId",
              "type": "uint256"
            },
            {
              "internalType": "uint256",
              "name": "classId",
              "type": "uint256"
            },
            {
              "internalType": "uint256",
              "name": "studentTokenId",
              "type": "uint256"
            }
          ],
          "internalType": "struct IConstant.NftClassRegistration",
          "name": "",
          "type": "tuple"
        }
      ],
      "stateMutability": "view",
      "type": "function",
      "constant": true
    },
    {
      "inputs": [
        {
          "internalType": "uint256",
          "name": "classId",
          "type": "uint256"
        }
      ],
      "name": "getStudentListOfClass",
      "outputs": [
        {
          "components": [
            {
              "components": [
                {
                  "internalType": "uint256",
                  "name": "tokenId",
                  "type": "uint256"
                },
                {
                  "internalType": "address",
                  "name": "register",
                  "type": "address"
                },
                {
                  "internalType": "uint256",
                  "name": "expiredAt",
                  "type": "uint256"
                }
              ],
              "internalType": "struct IConstant.NftIdentity",
              "name": "nftIdentity",
              "type": "tuple"
            },
            {
              "internalType": "string",
              "name": "tokenURI",
              "type": "string"
            },
            {
              "internalType": "uint256",
              "name": "role",
              "type": "uint256"
            },
            {
              "internalType": "bool",
              "name": "isExpired",
              "type": "bool"
            }
          ],
          "internalType": "struct IConstant.NftIdentityResponse[]",
          "name": "",
          "type": "tuple[]"
        }
      ],
      "stateMutability": "view",
      "type": "function",
      "constant": true
    },
    {
      "inputs": [
        {
          "internalType": "uint256",
          "name": "classId",
          "type": "uint256"
        }
      ],
      "name": "getNumberOfRegisteredStudent",
      "outputs": [
        {
          "internalType": "uint256",
          "name": "",
          "type": "uint256"
        }
      ],
      "stateMutability": "view",
      "type": "function",
      "constant": true
    },
    {
      "inputs": [
        {
          "internalType": "uint256",
          "name": "classId",
          "type": "uint256"
        },
        {
          "internalType": "string",
          "name": "uri",
          "type": "string"
        }
      ],
      "name": "registerClass",
      "outputs": [],
      "stateMutability": "payable",
      "type": "function",
      "payable": true
    }
  ],
  "bytecode": "0x60806040523480156200001157600080fd5b5060405162004170380380620041708339818101604052810190620000379190620002db565b6040518060400160405280601481526020017f4e6674436c617373526567697374726174696f6e0000000000000000000000008152506040518060400160405280600381526020017f4e4352000000000000000000000000000000000000000000000000000000000081525081818160009080519060200190620000bd929190620001c1565b508060019080519060200190620000d6929190620001c1565b50505033600760006101000a81548173ffffffffffffffffffffffffffffffffffffffff021916908373ffffffffffffffffffffffffffffffffffffffff16021790555050506000600c60146101000a81548160ff02191690831515021790555081600b60006101000a81548173ffffffffffffffffffffffffffffffffffffffff021916908373ffffffffffffffffffffffffffffffffffffffff16021790555080600a60006101000a81548173ffffffffffffffffffffffffffffffffffffffff021916908373ffffffffffffffffffffffffffffffffffffffff160217905550505062000386565b828054620001cf9062000351565b90600052602060002090601f016020900481019282620001f357600085556200023f565b82601f106200020e57805160ff19168380011785556200023f565b828001600101855582156200023f579182015b828111156200023e57825182559160200191906001019062000221565b5b5090506200024e919062000252565b5090565b5b808211156200026d57600081600090555060010162000253565b5090565b600080fd5b600073ffffffffffffffffffffffffffffffffffffffff82169050919050565b6000620002a38262000276565b9050919050565b620002b58162000296565b8114620002c157600080fd5b50565b600081519050620002d581620002aa565b92915050565b60008060408385031215620002f557620002f462000271565b5b60006200030585828601620002c4565b92505060206200031885828601620002c4565b9150509250929050565b7f4e487b7100000000000000000000000000000000000000000000000000000000600052602260045260246000fd5b600060028204905060018216806200036a57607f821691505b60208210810362000380576200037f62000322565b5b50919050565b613dda80620003966000396000f3fe6080604052600436106101145760003560e01c80636d6ffaf6116100a0578063b5bee31711610064578063b5bee317146103e9578063b88d4fde14610405578063c4d66de81461042e578063c87b56dd14610457578063e985e9c51461049457610114565b80636d6ffaf6146102f057806370a082311461031b57806395d89b4114610358578063a22cb46514610383578063a24a7c30146103ac57610114565b806323b872dd116100e757806323b872dd146101e7578063256283ed1461021057806342842e0e1461024d578063573c66de146102765780636352211e146102b357610114565b806301ffc9a71461011957806306fdde0314610156578063081812fc14610181578063095ea7b3146101be575b600080fd5b34801561012557600080fd5b50610140600480360381019061013b91906126c4565b6104d1565b60405161014d919061270c565b60405180910390f35b34801561016257600080fd5b5061016b6105b3565b60405161017891906127c0565b60405180910390f35b34801561018d57600080fd5b506101a860048036038101906101a39190612818565b610645565b6040516101b59190612886565b60405180910390f35b3480156101ca57600080fd5b506101e560048036038101906101e091906128cd565b61068b565b005b3480156101f357600080fd5b5061020e6004803603810190610209919061290d565b6107a2565b005b34801561021c57600080fd5b5061023760048036038101906102329190612818565b610802565b6040516102449190612b3e565b60405180910390f35b34801561025957600080fd5b50610274600480360381019061026f919061290d565b61098c565b005b34801561028257600080fd5b5061029d60048036038101906102989190612818565b6109ac565b6040516102aa9190612b6f565b60405180910390f35b3480156102bf57600080fd5b506102da60048036038101906102d59190612818565b6109cc565b6040516102e79190612886565b60405180910390f35b3480156102fc57600080fd5b50610305610a52565b6040516103129190612c7b565b60405180910390f35b34801561032757600080fd5b50610342600480360381019061033d9190612c9d565b610c48565b60405161034f9190612b6f565b60405180910390f35b34801561036457600080fd5b5061036d610cff565b60405161037a91906127c0565b60405180910390f35b34801561038f57600080fd5b506103aa60048036038101906103a59190612cf6565b610d91565b005b3480156103b857600080fd5b506103d360048036038101906103ce9190612818565b610da7565b6040516103e09190612d78565b60405180910390f35b61040360048036038101906103fe9190612ec8565b610e33565b005b34801561041157600080fd5b5061042c60048036038101906104279190612fc5565b611310565b005b34801561043a57600080fd5b5061045560048036038101906104509190612c9d565b611372565b005b34801561046357600080fd5b5061047e60048036038101906104799190612818565b611445565b60405161048b91906127c0565b60405180910390f35b3480156104a057600080fd5b506104bb60048036038101906104b69190613048565b611557565b6040516104c8919061270c565b60405180910390f35b60007f80ac58cd000000000000000000000000000000000000000000000000000000007bffffffffffffffffffffffffffffffffffffffffffffffffffffffff1916827bffffffffffffffffffffffffffffffffffffffffffffffffffffffff1916148061059c57507f5b5e139f000000000000000000000000000000000000000000000000000000007bffffffffffffffffffffffffffffffffffffffffffffffffffffffff1916827bffffffffffffffffffffffffffffffffffffffffffffffffffffffff1916145b806105ac57506105ab826115eb565b5b9050919050565b6060600080546105c2906130b7565b80601f01602080910402602001604051908101604052809291908181526020018280546105ee906130b7565b801561063b5780601f106106105761010080835404028352916020019161063b565b820191906000526020600020905b81548152906001019060200180831161061e57829003601f168201915b5050505050905090565b600061065082611655565b6004600083815260200190815260200160002060009054906101000a900473ffffffffffffffffffffffffffffffffffffffff169050919050565b6000610696826109cc565b90508073ffffffffffffffffffffffffffffffffffffffff168373ffffffffffffffffffffffffffffffffffffffff1603610706576040517f08c379a00000000000000000000000000000000000000000000000000000000081526004016106fd9061315a565b60405180910390fd5b8073ffffffffffffffffffffffffffffffffffffffff166107256116a0565b73ffffffffffffffffffffffffffffffffffffffff16148061075457506107538161074e6116a0565b611557565b5b610793576040517f08c379a000000000000000000000000000000000000000000000000000000000815260040161078a906131ec565b60405180910390fd5b61079d83836116a8565b505050565b6107b36107ad6116a0565b82611761565b6107f2576040517f08c379a00000000000000000000000000000000000000000000000000000000081526004016107e99061327e565b60405180910390fd5b6107fd8383836117f6565b505050565b606060006011600084815260200190815260200160002080549050905060008167ffffffffffffffff81111561083b5761083a612d9d565b5b60405190808252806020026020018201604052801561087457816020015b61086161252d565b8152602001906001900390816108595790505b50905060005b8281101561098157600b60009054906101000a900473ffffffffffffffffffffffffffffffffffffffff1673ffffffffffffffffffffffffffffffffffffffff1663d703df8b6011600088815260200190815260200160002083815481106108e5576108e461329e565b5b90600052602060002001546040518263ffffffff1660e01b815260040161090c9190612b6f565b600060405180830381865afa158015610929573d6000803e3d6000fd5b505050506040513d6000823e3d601f19601f82011682018060405250810190610952919061347e565b8282815181106109655761096461329e565b5b60200260200101819052508061097a906134f6565b905061087a565b508092505050919050565b6109a783838360405180602001604052806000815250611310565b505050565b600060116000838152602001908152602001600020805490509050919050565b6000806109d883611aef565b9050600073ffffffffffffffffffffffffffffffffffffffff168173ffffffffffffffffffffffffffffffffffffffff1603610a49576040517f08c379a0000000000000000000000000000000000000000000000000000000008152600401610a409061358a565b60405180910390fd5b80915050919050565b60606000600b60009054906101000a900473ffffffffffffffffffffffffffffffffffffffff1673ffffffffffffffffffffffffffffffffffffffff166352db77c460006001811115610aa857610aa76135aa565b5b336040518363ffffffff1660e01b8152600401610ac69291906135d9565b600060405180830381865afa158015610ae3573d6000803e3d6000fd5b505050506040513d6000823e3d601f19601f82011682018060405250810190610b0c919061347e565b9050600081600001516000015190506000600f6000838152602001908152602001600020805480602002602001604051908101604052809291908181526020018280548015610b7a57602002820191906000526020600020905b815481526020019060010190808311610b66575b5050505050905060008151905060008167ffffffffffffffff811115610ba357610ba2612d9d565b5b604051908082528060200260200182016040528015610bdc57816020015b610bc961255d565b815260200190600190039081610bc15790505b50905060005b82811015610c3c57610c0d848281518110610c0057610bff61329e565b5b6020026020010151610da7565b828281518110610c2057610c1f61329e565b5b602002602001018190525080610c35906134f6565b9050610be2565b50809550505050505090565b60008073ffffffffffffffffffffffffffffffffffffffff168273ffffffffffffffffffffffffffffffffffffffff1603610cb8576040517f08c379a0000000000000000000000000000000000000000000000000000000008152600401610caf90613674565b60405180910390fd5b600360008373ffffffffffffffffffffffffffffffffffffffff1673ffffffffffffffffffffffffffffffffffffffff168152602001908152602001600020549050919050565b606060018054610d0e906130b7565b80601f0160208091040260200160405190810160405280929190818152602001828054610d3a906130b7565b8015610d875780601f10610d5c57610100808354040283529160200191610d87565b820191906000526020600020905b815481529060010190602001808311610d6a57829003601f168201915b5050505050905090565b610da3610d9c6116a0565b8383611b2c565b5050565b610daf61255d565b6000600e600084815260200190815260200160002054905060008111610dd457600080fd5b600d600182610de39190613694565b81548110610df457610df361329e565b5b90600052602060002090600302016040518060600160405290816000820154815260200160018201548152602001600282015481525050915050919050565b6000600b60009054906101000a900473ffffffffffffffffffffffffffffffffffffffff1673ffffffffffffffffffffffffffffffffffffffff166352db77c460006001811115610e8757610e866135aa565b5b336040518363ffffffff1660e01b8152600401610ea59291906135d9565b600060405180830381865afa158015610ec2573d6000803e3d6000fd5b505050506040513d6000823e3d601f19601f82011682018060405250810190610eeb919061347e565b9050600081600001516000015190506000600a60009054906101000a900473ffffffffffffffffffffffffffffffffffffffff1673ffffffffffffffffffffffffffffffffffffffff166303d658e0866040518263ffffffff1660e01b8152600401610f579190612b6f565b600060405180830381865afa158015610f74573d6000803e3d6000fd5b505050506040513d6000823e3d601f19601f82011682018060405250810190610f9d91906137f0565b9050600080600a60009054906101000a900473ffffffffffffffffffffffffffffffffffffffff1673ffffffffffffffffffffffffffffffffffffffff1663d9ac23d98461010001516040518263ffffffff1660e01b81526004016110029190612b6f565b6040805180830381865afa15801561101e573d6000803e3d6000fd5b505050506040513d601f19601f820116820180604052508101906110429190613839565b9150915084606001511561105557600080fd5b8260c001516011600085600001518152602001908152602001600020805490501061107f57600080fd5b8142101561108c57600080fd5b8042111561109957600080fd5b60008360600151148061114a5750600c60009054906101000a900473ffffffffffffffffffffffffffffffffffffffff1673ffffffffffffffffffffffffffffffffffffffff16636eabe75f8460600151336040518363ffffffff1660e01b81526004016111089291906135d9565b602060405180830381865afa158015611125573d6000803e3d6000fd5b505050506040513d601f19601f820116820180604052508101906111499190613879565b5b61115357600080fd5b600060106000868152602001908152602001600020600085602001518152602001908152602001600020541461118857600080fd5b826101200151341461119957600080fd5b60006111a53388611c98565b9050600d60405180606001604052808381526020018a81526020018781525090806001815401808255809150506001900390600052602060002090600302016000909190919091506000820151816000015560208201518160010155604082015181600201555050600d80549050600e600083815260200190815260200160002081905550600f600086815260200190815260200160002081908060018154018082558091505060019003906000526020600020016000909190919091505580601060008781526020019081526020016000206000866020015181526020019081526020016000208190555060116000856000015181526020019081526020016000208590806001815401808255809150506001900390600052602060002001600090919091909150557fbe6a370d4ba6aa5fb05f8f9fc9d428affa443f0d593797fd5ac930a5e5b8fde5816040516112fe9190612b6f565b60405180910390a15050505050505050565b61132161131b6116a0565b83611761565b611360576040517f08c379a00000000000000000000000000000000000000000000000000000000081526004016113579061327e565b60405180910390fd5b61136c84848484611d09565b50505050565b3373ffffffffffffffffffffffffffffffffffffffff16600760009054906101000a900473ffffffffffffffffffffffffffffffffffffffff1673ffffffffffffffffffffffffffffffffffffffff16146113cc57600080fd5b600c60149054906101000a900460ff16156113e657600080fd5b6001600c60146101000a81548160ff02191690831515021790555080600c60006101000a81548173ffffffffffffffffffffffffffffffffffffffff021916908373ffffffffffffffffffffffffffffffffffffffff16021790555050565b606061145082611655565b6000600660008481526020019081526020016000208054611470906130b7565b80601f016020809104026020016040519081016040528092919081815260200182805461149c906130b7565b80156114e95780601f106114be576101008083540402835291602001916114e9565b820191906000526020600020905b8154815290600101906020018083116114cc57829003601f168201915b5050505050905060006114fa611d65565b9050600081510361150f578192505050611552565b60008251111561154457808260405160200161152c9291906138e2565b60405160208183030381529060405292505050611552565b61154d84611d7c565b925050505b919050565b6000600560008473ffffffffffffffffffffffffffffffffffffffff1673ffffffffffffffffffffffffffffffffffffffff16815260200190815260200160002060008373ffffffffffffffffffffffffffffffffffffffff1673ffffffffffffffffffffffffffffffffffffffff16815260200190815260200160002060009054906101000a900460ff16905092915050565b60007f01ffc9a7000000000000000000000000000000000000000000000000000000007bffffffffffffffffffffffffffffffffffffffffffffffffffffffff1916827bffffffffffffffffffffffffffffffffffffffffffffffffffffffff1916149050919050565b61165e81611de4565b61169d576040517f08c379a00000000000000000000000000000000000000000000000000000000081526004016116949061358a565b60405180910390fd5b50565b600033905090565b816004600083815260200190815260200160002060006101000a81548173ffffffffffffffffffffffffffffffffffffffff021916908373ffffffffffffffffffffffffffffffffffffffff160217905550808273ffffffffffffffffffffffffffffffffffffffff1661171b836109cc565b73ffffffffffffffffffffffffffffffffffffffff167f8c5be1e5ebec7d5bd14f71427d1e84f3dd0314c0f7b2291e5b200ac8c7c3b92560405160405180910390a45050565b60008061176d836109cc565b90508073ffffffffffffffffffffffffffffffffffffffff168473ffffffffffffffffffffffffffffffffffffffff1614806117af57506117ae8185611557565b5b806117ed57508373ffffffffffffffffffffffffffffffffffffffff166117d584610645565b73ffffffffffffffffffffffffffffffffffffffff16145b91505092915050565b8273ffffffffffffffffffffffffffffffffffffffff16611816826109cc565b73ffffffffffffffffffffffffffffffffffffffff161461186c576040517f08c379a000000000000000000000000000000000000000000000000000000000815260040161186390613978565b60405180910390fd5b600073ffffffffffffffffffffffffffffffffffffffff168273ffffffffffffffffffffffffffffffffffffffff16036118db576040517f08c379a00000000000000000000000000000000000000000000000000000000081526004016118d290613a0a565b60405180910390fd5b6118e88383836001611e25565b8273ffffffffffffffffffffffffffffffffffffffff16611908826109cc565b73ffffffffffffffffffffffffffffffffffffffff161461195e576040517f08c379a000000000000000000000000000000000000000000000000000000000815260040161195590613978565b60405180910390fd5b6004600082815260200190815260200160002060006101000a81549073ffffffffffffffffffffffffffffffffffffffff02191690556001600360008573ffffffffffffffffffffffffffffffffffffffff1673ffffffffffffffffffffffffffffffffffffffff168152602001908152602001600020600082825403925050819055506001600360008473ffffffffffffffffffffffffffffffffffffffff1673ffffffffffffffffffffffffffffffffffffffff16815260200190815260200160002060008282540192505081905550816002600083815260200190815260200160002060006101000a81548173ffffffffffffffffffffffffffffffffffffffff021916908373ffffffffffffffffffffffffffffffffffffffff160217905550808273ffffffffffffffffffffffffffffffffffffffff168473ffffffffffffffffffffffffffffffffffffffff167fddf252ad1be2c89b69c2b068fc378daa952ba7f163c4a11628f55a4df523b3ef60405160405180910390a4611aea8383836001611e2b565b505050565b60006002600083815260200190815260200160002060009054906101000a900473ffffffffffffffffffffffffffffffffffffffff169050919050565b8173ffffffffffffffffffffffffffffffffffffffff168373ffffffffffffffffffffffffffffffffffffffff1603611b9a576040517f08c379a0000000000000000000000000000000000000000000000000000000008152600401611b9190613a76565b60405180910390fd5b80600560008573ffffffffffffffffffffffffffffffffffffffff1673ffffffffffffffffffffffffffffffffffffffff16815260200190815260200160002060008473ffffffffffffffffffffffffffffffffffffffff1673ffffffffffffffffffffffffffffffffffffffff16815260200190815260200160002060006101000a81548160ff0219169083151502179055508173ffffffffffffffffffffffffffffffffffffffff168373ffffffffffffffffffffffffffffffffffffffff167f17307eab39ab6107e8899845ad3d59bd9653f200f220920489ca2b5937696c3183604051611c8b919061270c565b60405180910390a3505050565b600080611ca3611e31565b9050611cf584826000368080601f016020809104026020016040519081016040528093929190818152602001838380828437600081840152601f19601f82011690508083019250505050505050611e52565b611cff8184611ead565b8091505092915050565b611d148484846117f6565b611d2084848484611f21565b611d5f576040517f08c379a0000000000000000000000000000000000000000000000000000000008152600401611d5690613b08565b60405180910390fd5b50505050565b606060405180602001604052806000815250905090565b6060611d8782611655565b6000611d91611d65565b90506000815111611db15760405180602001604052806000815250611ddc565b80611dbb846120a8565b604051602001611dcc9291906138e2565b6040516020818303038152906040525b915050919050565b60008073ffffffffffffffffffffffffffffffffffffffff16611e0683611aef565b73ffffffffffffffffffffffffffffffffffffffff1614159050919050565b50505050565b50505050565b6000611e3d6008612176565b6000611e49600861218c565b90508091505090565b611e5c838361219a565b611e696000848484611f21565b611ea8576040517f08c379a0000000000000000000000000000000000000000000000000000000008152600401611e9f90613b08565b60405180910390fd5b505050565b611eb682611de4565b611ef5576040517f08c379a0000000000000000000000000000000000000000000000000000000008152600401611eec90613b9a565b60405180910390fd5b80600660008481526020019081526020016000209080519060200190611f1c92919061257e565b505050565b6000611f428473ffffffffffffffffffffffffffffffffffffffff166123b7565b1561209b578373ffffffffffffffffffffffffffffffffffffffff1663150b7a02611f6b6116a0565b8786866040518563ffffffff1660e01b8152600401611f8d9493929190613c0f565b6020604051808303816000875af1925050508015611fc957506040513d601f19601f82011682018060405250810190611fc69190613c70565b60015b61204b573d8060008114611ff9576040519150601f19603f3d011682016040523d82523d6000602084013e611ffe565b606091505b506000815103612043576040517f08c379a000000000000000000000000000000000000000000000000000000000815260040161203a90613b08565b60405180910390fd5b805181602001fd5b63150b7a0260e01b7bffffffffffffffffffffffffffffffffffffffffffffffffffffffff1916817bffffffffffffffffffffffffffffffffffffffffffffffffffffffff1916149150506120a0565b600190505b949350505050565b6060600060016120b7846123da565b01905060008167ffffffffffffffff8111156120d6576120d5612d9d565b5b6040519080825280601f01601f1916602001820160405280156121085781602001600182028036833780820191505090505b509050600082602001820190505b60011561216b578080600190039150507f3031323334353637383961626364656600000000000000000000000000000000600a86061a8153600a858161215f5761215e613c9d565b5b04945060008503612116575b819350505050919050565b6001816000016000828254019250508190555050565b600081600001549050919050565b600073ffffffffffffffffffffffffffffffffffffffff168273ffffffffffffffffffffffffffffffffffffffff1603612209576040517f08c379a000000000000000000000000000000000000000000000000000000000815260040161220090613d18565b60405180910390fd5b61221281611de4565b15612252576040517f08c379a000000000000000000000000000000000000000000000000000000000815260040161224990613d84565b60405180910390fd5b612260600083836001611e25565b61226981611de4565b156122a9576040517f08c379a00000000000000000000000000000000000000000000000000000000081526004016122a090613d84565b60405180910390fd5b6001600360008473ffffffffffffffffffffffffffffffffffffffff1673ffffffffffffffffffffffffffffffffffffffff16815260200190815260200160002060008282540192505081905550816002600083815260200190815260200160002060006101000a81548173ffffffffffffffffffffffffffffffffffffffff021916908373ffffffffffffffffffffffffffffffffffffffff160217905550808273ffffffffffffffffffffffffffffffffffffffff16600073ffffffffffffffffffffffffffffffffffffffff167fddf252ad1be2c89b69c2b068fc378daa952ba7f163c4a11628f55a4df523b3ef60405160405180910390a46123b3600083836001611e2b565b5050565b6000808273ffffffffffffffffffffffffffffffffffffffff163b119050919050565b600080600090507a184f03e93ff9f4daa797ed6e38ed64bf6a1f0100000000000000008310612438577a184f03e93ff9f4daa797ed6e38ed64bf6a1f010000000000000000838161242e5761242d613c9d565b5b0492506040810190505b6d04ee2d6d415b85acef81000000008310612475576d04ee2d6d415b85acef8100000000838161246b5761246a613c9d565b5b0492506020810190505b662386f26fc1000083106124a457662386f26fc10000838161249a57612499613c9d565b5b0492506010810190505b6305f5e10083106124cd576305f5e10083816124c3576124c2613c9d565b5b0492506008810190505b61271083106124f25761271083816124e8576124e7613c9d565b5b0492506004810190505b60648310612515576064838161250b5761250a613c9d565b5b0492506002810190505b600a8310612524576001810190505b80915050919050565b6040518060800160405280612540612604565b815260200160608152602001600081526020016000151581525090565b60405180606001604052806000815260200160008152602001600081525090565b82805461258a906130b7565b90600052602060002090601f0160209004810192826125ac57600085556125f3565b82601f106125c557805160ff19168380011785556125f3565b828001600101855582156125f3579182015b828111156125f25782518255916020019190600101906125d7565b5b509050612600919061263b565b5090565b604051806060016040528060008152602001600073ffffffffffffffffffffffffffffffffffffffff168152602001600081525090565b5b8082111561265457600081600090555060010161263c565b5090565b6000604051905090565b600080fd5b600080fd5b60007fffffffff0000000000000000000000000000000000000000000000000000000082169050919050565b6126a18161266c565b81146126ac57600080fd5b50565b6000813590506126be81612698565b92915050565b6000602082840312156126da576126d9612662565b5b60006126e8848285016126af565b91505092915050565b60008115159050919050565b612706816126f1565b82525050565b600060208201905061272160008301846126fd565b92915050565b600081519050919050565b600082825260208201905092915050565b60005b83811015612761578082015181840152602081019050612746565b83811115612770576000848401525b50505050565b6000601f19601f8301169050919050565b600061279282612727565b61279c8185612732565b93506127ac818560208601612743565b6127b581612776565b840191505092915050565b600060208201905081810360008301526127da8184612787565b905092915050565b6000819050919050565b6127f5816127e2565b811461280057600080fd5b50565b600081359050612812816127ec565b92915050565b60006020828403121561282e5761282d612662565b5b600061283c84828501612803565b91505092915050565b600073ffffffffffffffffffffffffffffffffffffffff82169050919050565b600061287082612845565b9050919050565b61288081612865565b82525050565b600060208201905061289b6000830184612877565b92915050565b6128aa81612865565b81146128b557600080fd5b50565b6000813590506128c7816128a1565b92915050565b600080604083850312156128e4576128e3612662565b5b60006128f2858286016128b8565b925050602061290385828601612803565b9150509250929050565b60008060006060848603121561292657612925612662565b5b6000612934868287016128b8565b9350506020612945868287016128b8565b925050604061295686828701612803565b9150509250925092565b600081519050919050565b600082825260208201905092915050565b6000819050602082019050919050565b612995816127e2565b82525050565b6129a481612865565b82525050565b6060820160008201516129c0600085018261298c565b5060208201516129d3602085018261299b565b5060408201516129e6604085018261298c565b50505050565b600082825260208201905092915050565b6000612a0882612727565b612a1281856129ec565b9350612a22818560208601612743565b612a2b81612776565b840191505092915050565b612a3f816126f1565b82525050565b600060c083016000830151612a5d60008601826129aa565b5060208301518482036060860152612a7582826129fd565b9150506040830151612a8a608086018261298c565b506060830151612a9d60a0860182612a36565b508091505092915050565b6000612ab48383612a45565b905092915050565b6000602082019050919050565b6000612ad482612960565b612ade818561296b565b935083602082028501612af08561297c565b8060005b85811015612b2c5784840389528151612b0d8582612aa8565b9450612b1883612abc565b925060208a01995050600181019050612af4565b50829750879550505050505092915050565b60006020820190508181036000830152612b588184612ac9565b905092915050565b612b69816127e2565b82525050565b6000602082019050612b846000830184612b60565b92915050565b600081519050919050565b600082825260208201905092915050565b6000819050602082019050919050565b606082016000820151612bcc600085018261298c565b506020820151612bdf602085018261298c565b506040820151612bf2604085018261298c565b50505050565b6000612c048383612bb6565b60608301905092915050565b6000602082019050919050565b6000612c2882612b8a565b612c328185612b95565b9350612c3d83612ba6565b8060005b83811015612c6e578151612c558882612bf8565b9750612c6083612c10565b925050600181019050612c41565b5085935050505092915050565b60006020820190508181036000830152612c958184612c1d565b905092915050565b600060208284031215612cb357612cb2612662565b5b6000612cc1848285016128b8565b91505092915050565b612cd3816126f1565b8114612cde57600080fd5b50565b600081359050612cf081612cca565b92915050565b60008060408385031215612d0d57612d0c612662565b5b6000612d1b858286016128b8565b9250506020612d2c85828601612ce1565b9150509250929050565b606082016000820151612d4c600085018261298c565b506020820151612d5f602085018261298c565b506040820151612d72604085018261298c565b50505050565b6000606082019050612d8d6000830184612d36565b92915050565b600080fd5b600080fd5b7f4e487b7100000000000000000000000000000000000000000000000000000000600052604160045260246000fd5b612dd582612776565b810181811067ffffffffffffffff82111715612df457612df3612d9d565b5b80604052505050565b6000612e07612658565b9050612e138282612dcc565b919050565b600067ffffffffffffffff821115612e3357612e32612d9d565b5b612e3c82612776565b9050602081019050919050565b82818337600083830152505050565b6000612e6b612e6684612e18565b612dfd565b905082815260208101848484011115612e8757612e86612d98565b5b612e92848285612e49565b509392505050565b600082601f830112612eaf57612eae612d93565b5b8135612ebf848260208601612e58565b91505092915050565b60008060408385031215612edf57612ede612662565b5b6000612eed85828601612803565b925050602083013567ffffffffffffffff811115612f0e57612f0d612667565b5b612f1a85828601612e9a565b9150509250929050565b600067ffffffffffffffff821115612f3f57612f3e612d9d565b5b612f4882612776565b9050602081019050919050565b6000612f68612f6384612f24565b612dfd565b905082815260208101848484011115612f8457612f83612d98565b5b612f8f848285612e49565b509392505050565b600082601f830112612fac57612fab612d93565b5b8135612fbc848260208601612f55565b91505092915050565b60008060008060808587031215612fdf57612fde612662565b5b6000612fed878288016128b8565b9450506020612ffe878288016128b8565b935050604061300f87828801612803565b925050606085013567ffffffffffffffff8111156130305761302f612667565b5b61303c87828801612f97565b91505092959194509250565b6000806040838503121561305f5761305e612662565b5b600061306d858286016128b8565b925050602061307e858286016128b8565b9150509250929050565b7f4e487b7100000000000000000000000000000000000000000000000000000000600052602260045260246000fd5b600060028204905060018216806130cf57607f821691505b6020821081036130e2576130e1613088565b5b50919050565b7f4552433732313a20617070726f76616c20746f2063757272656e74206f776e6560008201527f7200000000000000000000000000000000000000000000000000000000000000602082015250565b6000613144602183612732565b915061314f826130e8565b604082019050919050565b6000602082019050818103600083015261317381613137565b9050919050565b7f4552433732313a20617070726f76652063616c6c6572206973206e6f7420746f60008201527f6b656e206f776e6572206f7220617070726f76656420666f7220616c6c000000602082015250565b60006131d6603d83612732565b91506131e18261317a565b604082019050919050565b60006020820190508181036000830152613205816131c9565b9050919050565b7f4552433732313a2063616c6c6572206973206e6f7420746f6b656e206f776e6560008201527f72206f7220617070726f76656400000000000000000000000000000000000000602082015250565b6000613268602d83612732565b91506132738261320c565b604082019050919050565b600060208201905081810360008301526132978161325b565b9050919050565b7f4e487b7100000000000000000000000000000000000000000000000000000000600052603260045260246000fd5b600080fd5b600080fd5b6000815190506132e6816127ec565b92915050565b6000815190506132fb816128a1565b92915050565b600060608284031215613317576133166132cd565b5b6133216060612dfd565b90506000613331848285016132d7565b6000830152506020613345848285016132ec565b6020830152506040613359848285016132d7565b60408301525092915050565b600061337861337384612e18565b612dfd565b90508281526020810184848401111561339457613393612d98565b5b61339f848285612743565b509392505050565b600082601f8301126133bc576133bb612d93565b5b81516133cc848260208601613365565b91505092915050565b6000815190506133e481612cca565b92915050565b600060c08284031215613400576133ff6132cd565b5b61340a6080612dfd565b9050600061341a84828501613301565b600083015250606082015167ffffffffffffffff81111561343e5761343d6132d2565b5b61344a848285016133a7565b602083015250608061345e848285016132d7565b60408301525060a0613472848285016133d5565b60608301525092915050565b60006020828403121561349457613493612662565b5b600082015167ffffffffffffffff8111156134b2576134b1612667565b5b6134be848285016133ea565b91505092915050565b7f4e487b7100000000000000000000000000000000000000000000000000000000600052601160045260246000fd5b6000613501826127e2565b91507fffffffffffffffffffffffffffffffffffffffffffffffffffffffffffffffff8203613533576135326134c7565b5b600182019050919050565b7f4552433732313a20696e76616c696420746f6b656e2049440000000000000000600082015250565b6000613574601883612732565b915061357f8261353e565b602082019050919050565b600060208201905081810360008301526135a381613567565b9050919050565b7f4e487b7100000000000000000000000000000000000000000000000000000000600052602160045260246000fd5b60006040820190506135ee6000830185612b60565b6135fb6020830184612877565b9392505050565b7f4552433732313a2061646472657373207a65726f206973206e6f74206120766160008201527f6c6964206f776e65720000000000000000000000000000000000000000000000602082015250565b600061365e602983612732565b915061366982613602565b604082019050919050565b6000602082019050818103600083015261368d81613651565b9050919050565b600061369f826127e2565b91506136aa836127e2565b9250828210156136bd576136bc6134c7565b5b828203905092915050565b600061016082840312156136df576136de6132cd565b5b6136ea610160612dfd565b905060006136fa848285016132d7565b600083015250602061370e848285016132d7565b6020830152506040613722848285016132d7565b6040830152506060613736848285016132d7565b606083015250608061374a848285016132d7565b60808301525060a061375e848285016132d7565b60a08301525060c0613772848285016132d7565b60c08301525060e0613786848285016132d7565b60e08301525061010061379b848285016132d7565b610100830152506101206137b1848285016132d7565b6101208301525061014082015167ffffffffffffffff8111156137d7576137d66132d2565b5b6137e3848285016133a7565b6101408301525092915050565b60006020828403121561380657613805612662565b5b600082015167ffffffffffffffff81111561382457613823612667565b5b613830848285016136c8565b91505092915050565b600080604083850312156138505761384f612662565b5b600061385e858286016132d7565b925050602061386f858286016132d7565b9150509250929050565b60006020828403121561388f5761388e612662565b5b600061389d848285016133d5565b91505092915050565b600081905092915050565b60006138bc82612727565b6138c681856138a6565b93506138d6818560208601612743565b80840191505092915050565b60006138ee82856138b1565b91506138fa82846138b1565b91508190509392505050565b7f4552433732313a207472616e736665722066726f6d20696e636f72726563742060008201527f6f776e6572000000000000000000000000000000000000000000000000000000602082015250565b6000613962602583612732565b915061396d82613906565b604082019050919050565b6000602082019050818103600083015261399181613955565b9050919050565b7f4552433732313a207472616e7366657220746f20746865207a65726f2061646460008201527f7265737300000000000000000000000000000000000000000000000000000000602082015250565b60006139f4602483612732565b91506139ff82613998565b604082019050919050565b60006020820190508181036000830152613a23816139e7565b9050919050565b7f4552433732313a20617070726f766520746f2063616c6c657200000000000000600082015250565b6000613a60601983612732565b9150613a6b82613a2a565b602082019050919050565b60006020820190508181036000830152613a8f81613a53565b9050919050565b7f4552433732313a207472616e7366657220746f206e6f6e20455243373231526560008201527f63656976657220696d706c656d656e7465720000000000000000000000000000602082015250565b6000613af2603283612732565b9150613afd82613a96565b604082019050919050565b60006020820190508181036000830152613b2181613ae5565b9050919050565b7f45524337323155524953746f726167653a2055524920736574206f66206e6f6e60008201527f6578697374656e7420746f6b656e000000000000000000000000000000000000602082015250565b6000613b84602e83612732565b9150613b8f82613b28565b604082019050919050565b60006020820190508181036000830152613bb381613b77565b9050919050565b600081519050919050565b600082825260208201905092915050565b6000613be182613bba565b613beb8185613bc5565b9350613bfb818560208601612743565b613c0481612776565b840191505092915050565b6000608082019050613c246000830187612877565b613c316020830186612877565b613c3e6040830185612b60565b8181036060830152613c508184613bd6565b905095945050505050565b600081519050613c6a81612698565b92915050565b600060208284031215613c8657613c85612662565b5b6000613c9484828501613c5b565b91505092915050565b7f4e487b7100000000000000000000000000000000000000000000000000000000600052601260045260246000fd5b7f4552433732313a206d696e7420746f20746865207a65726f2061646472657373600082015250565b6000613d02602083612732565b9150613d0d82613ccc565b602082019050919050565b60006020820190508181036000830152613d3181613cf5565b9050919050565b7f4552433732313a20746f6b656e20616c7265616479206d696e74656400000000600082015250565b6000613d6e601c83612732565b9150613d7982613d38565b602082019050919050565b60006020820190508181036000830152613d9d81613d61565b905091905056fea2646970667358221220a50b9b19105902486f249858fd2949e2f41698b8d251e9311d1ecd4236c86aad64736f6c634300080d0033",
  "immutableReferences": {},
  "source": "// SPDX-License-Identifier: MIT\r\n// Tells the Solidity compiler to compile only from v0.8.13 to v0.9.0\r\npragma solidity ^0.8.13;\r\n\r\nimport \"./ERC721BaseContract.sol\";\r\nimport \"./interfaces/INftClassRegistration.sol\";\r\nimport \"./interfaces/INftIdentities.sol\";\r\nimport \"./interfaces/INftCertificates.sol\";\r\nimport \"./interfaces/INftSchool.sol\";\r\n\r\ncontract NftClassRegistration is ERC721BaseContract, INftClassRegistration {\r\n    INftSchool private _nftSchool;\r\n    INftIdentities private _nftIdentities;\r\n    INftCertificates private _nftCertificates;\r\n\r\n    bool private _isInitialize;\r\n\r\n    NftClassRegistration[] private _allNftClassRegistrations;\r\n    mapping(uint256 => uint256) private _posOfNftClassRegistrationTokenId;\r\n    mapping(uint256 => uint256[]) private _registeredClassTokenIdsOfStudent; // REMOVE when have certificate?\r\n    mapping(uint256 => mapping(uint256 => uint256))\r\n        private _registeredCourseOfStudent; // REMOVE when have certificate?\r\n    mapping(uint256 => uint256[]) private _studentTokenIdsOfClass; // KEEP\r\n\r\n    event NewClassRegistrationCreated(uint256 classId);\r\n\r\n    modifier onlyOwner() {\r\n        require(_owner == msg.sender);\r\n        _;\r\n    }\r\n\r\n    constructor(\r\n        address nftIdentities,\r\n        address nftSchool\r\n    ) ERC721BaseContract(\"NftClassRegistration\", \"NCR\") {\r\n        _isInitialize = false;\r\n        _nftIdentities = INftIdentities(nftIdentities);\r\n        _nftSchool = INftSchool(nftSchool);\r\n    }\r\n\r\n    function initialize(address nftCertificates) public onlyOwner {\r\n        require(!_isInitialize);\r\n        _isInitialize = true;\r\n        _nftCertificates = INftCertificates(nftCertificates);\r\n    }\r\n\r\n    // Register class block: start\r\n    function getRegisteredClasses()\r\n        public\r\n        view\r\n        returns (NftClassRegistration[] memory)\r\n    {\r\n        NftIdentityResponse memory nftIdentityResponse = _nftIdentities\r\n            .getNftOfMemberWithRole(uint256(ROLE.STUDENT), msg.sender);\r\n        uint256 studentTokenId = nftIdentityResponse.nftIdentity.tokenId;\r\n        uint256[]\r\n            memory nftClassRegistrationTokenIds = _registeredClassTokenIdsOfStudent[\r\n                studentTokenId\r\n            ];\r\n        uint256 count = nftClassRegistrationTokenIds.length;\r\n\r\n        NftClassRegistration[]\r\n            memory nftClassRegistrations = new NftClassRegistration[](count);\r\n\r\n        for (uint256 idx = 0; idx < count; ++idx) {\r\n            nftClassRegistrations[idx] = getNftClassRegistration(\r\n                nftClassRegistrationTokenIds[idx]\r\n            );\r\n        }\r\n\r\n        return nftClassRegistrations;\r\n    }\r\n\r\n    function getNftClassRegistration(\r\n        uint256 tokenId\r\n    ) public view returns (NftClassRegistration memory) {\r\n        uint256 posOfNft = _posOfNftClassRegistrationTokenId[tokenId];\r\n        require(posOfNft > 0);\r\n\r\n        return _allNftClassRegistrations[posOfNft - 1];\r\n    }\r\n\r\n    function getStudentListOfClass(\r\n        uint256 classId\r\n    ) public view returns (NftIdentityResponse[] memory) {\r\n        uint256 count = _studentTokenIdsOfClass[classId].length;\r\n        NftIdentityResponse[] memory result = new NftIdentityResponse[](count);\r\n\r\n        for (uint256 idx; idx < count; ++idx) {\r\n            result[idx] = _nftIdentities.getNftOfTokenId(\r\n                _studentTokenIdsOfClass[classId][idx]\r\n            );\r\n        }\r\n\r\n        return result;\r\n    }\r\n\r\n    function getNumberOfRegisteredStudent(\r\n        uint256 classId\r\n    ) public view returns (uint256) {\r\n        return _studentTokenIdsOfClass[classId].length;\r\n    }\r\n\r\n    function registerClass(uint256 classId, string memory uri) public payable {\r\n        NftIdentityResponse memory nftIdentityResponse = _nftIdentities\r\n            .getNftOfMemberWithRole(uint256(ROLE.STUDENT), msg.sender);\r\n        uint256 studentTokenId = nftIdentityResponse.nftIdentity.tokenId;\r\n        Class memory class = _nftSchool.getClassById(classId);\r\n        (uint256 registeredStartAt, uint256 registeredEndAt) = _nftSchool\r\n            .getRegisterTime(class.semester);\r\n\r\n        require(!nftIdentityResponse.isExpired);\r\n        require(_studentTokenIdsOfClass[class.id].length < class.maxSize);\r\n        require(block.timestamp >= registeredStartAt);\r\n        require(block.timestamp <= registeredEndAt);\r\n        require(\r\n            class.prevCourseId == 0 ||\r\n                _nftCertificates.checkCompleteCourse(\r\n                    class.prevCourseId,\r\n                    msg.sender\r\n                )\r\n        );\r\n        require(\r\n            _registeredCourseOfStudent[studentTokenId][class.courseId] == 0\r\n        );\r\n        require(msg.value == class.registerClassFee);\r\n        uint256 tokenId = _mintToken(msg.sender, uri);\r\n        _allNftClassRegistrations.push(\r\n            NftClassRegistration(tokenId, classId, studentTokenId)\r\n        );\r\n        _posOfNftClassRegistrationTokenId[tokenId] = _allNftClassRegistrations\r\n            .length;\r\n        _registeredClassTokenIdsOfStudent[studentTokenId].push(tokenId);\r\n        _registeredCourseOfStudent[studentTokenId][class.courseId] = tokenId;\r\n        _studentTokenIdsOfClass[class.id].push(studentTokenId);\r\n\r\n        emit NewClassRegistrationCreated(tokenId);\r\n    }\r\n}\r\n",
  "sourcePath": "E:\\learn\\learn-to-earn\\blockchain\\contracts\\NftClassRegistration.sol",
  "compiler": {
    "name": "solc",
    "version": "0.8.13+commit.abaa5c0e.Emscripten.clang"
  },
  "schemaVersion": "3.4.13",
  "updatedAt": "2023-05-24T16:45:52.761Z",
  "networkType": "ethereum",
  "devdoc": {
    "kind": "dev",
    "methods": {
      "approve(address,uint256)": {
        "details": "See {IERC721-approve}."
      },
      "balanceOf(address)": {
        "details": "See {IERC721-balanceOf}."
      },
      "getApproved(uint256)": {
        "details": "See {IERC721-getApproved}."
      },
      "isApprovedForAll(address,address)": {
        "details": "See {IERC721-isApprovedForAll}."
      },
      "name()": {
        "details": "See {IERC721Metadata-name}."
      },
      "ownerOf(uint256)": {
        "details": "See {IERC721-ownerOf}."
      },
      "safeTransferFrom(address,address,uint256)": {
        "details": "See {IERC721-safeTransferFrom}."
      },
      "safeTransferFrom(address,address,uint256,bytes)": {
        "details": "See {IERC721-safeTransferFrom}."
      },
      "setApprovalForAll(address,bool)": {
        "details": "See {IERC721-setApprovalForAll}."
      },
      "supportsInterface(bytes4)": {
        "details": "See {IERC165-supportsInterface}."
      },
      "symbol()": {
        "details": "See {IERC721Metadata-symbol}."
      },
      "tokenURI(uint256)": {
        "details": "See {IERC721Metadata-tokenURI}."
      },
      "transferFrom(address,address,uint256)": {
        "details": "See {IERC721-transferFrom}."
      }
    },
    "version": 1
  },
  "userdoc": {
    "kind": "user",
    "methods": {},
    "version": 1
  }
}