{
  "contractName": "NftCertificates",
  "abi": [
    {
      "inputs": [
        {
          "internalType": "address",
          "name": "nftIdentities",
          "type": "address"
        },
        {
          "internalType": "address",
          "name": "nftSchool",
          "type": "address"
        },
        {
          "internalType": "address",
          "name": "nftClassRegistration",
          "type": "address"
        }
      ],
      "stateMutability": "nonpayable",
      "type": "constructor"
    },
    {
      "anonymous": false,
      "inputs": [
        {
          "indexed": true,
          "internalType": "address",
          "name": "account",
          "type": "address"
        },
        {
          "indexed": true,
          "internalType": "address",
          "name": "operator",
          "type": "address"
        },
        {
          "indexed": false,
          "internalType": "bool",
          "name": "approved",
          "type": "bool"
        }
      ],
      "name": "ApprovalForAll",
      "type": "event"
    },
    {
      "anonymous": false,
      "inputs": [
        {
          "indexed": false,
          "internalType": "uint256",
          "name": "tokenId",
          "type": "uint256"
        }
      ],
      "name": "NewCompleteCourseCreated",
      "type": "event"
    },
    {
      "anonymous": false,
      "inputs": [
        {
          "indexed": true,
          "internalType": "address",
          "name": "operator",
          "type": "address"
        },
        {
          "indexed": true,
          "internalType": "address",
          "name": "from",
          "type": "address"
        },
        {
          "indexed": true,
          "internalType": "address",
          "name": "to",
          "type": "address"
        },
        {
          "indexed": false,
          "internalType": "uint256[]",
          "name": "ids",
          "type": "uint256[]"
        },
        {
          "indexed": false,
          "internalType": "uint256[]",
          "name": "values",
          "type": "uint256[]"
        }
      ],
      "name": "TransferBatch",
      "type": "event"
    },
    {
      "anonymous": false,
      "inputs": [
        {
          "indexed": true,
          "internalType": "address",
          "name": "operator",
          "type": "address"
        },
        {
          "indexed": true,
          "internalType": "address",
          "name": "from",
          "type": "address"
        },
        {
          "indexed": true,
          "internalType": "address",
          "name": "to",
          "type": "address"
        },
        {
          "indexed": false,
          "internalType": "uint256",
          "name": "id",
          "type": "uint256"
        },
        {
          "indexed": false,
          "internalType": "uint256",
          "name": "value",
          "type": "uint256"
        }
      ],
      "name": "TransferSingle",
      "type": "event"
    },
    {
      "anonymous": false,
      "inputs": [
        {
          "indexed": false,
          "internalType": "string",
          "name": "value",
          "type": "string"
        },
        {
          "indexed": true,
          "internalType": "uint256",
          "name": "id",
          "type": "uint256"
        }
      ],
      "name": "URI",
      "type": "event"
    },
    {
      "inputs": [
        {
          "internalType": "address",
          "name": "account",
          "type": "address"
        },
        {
          "internalType": "uint256",
          "name": "id",
          "type": "uint256"
        }
      ],
      "name": "balanceOf",
      "outputs": [
        {
          "internalType": "uint256",
          "name": "",
          "type": "uint256"
        }
      ],
      "stateMutability": "view",
      "type": "function",
      "constant": true
    },
    {
      "inputs": [
        {
          "internalType": "address[]",
          "name": "accounts",
          "type": "address[]"
        },
        {
          "internalType": "uint256[]",
          "name": "ids",
          "type": "uint256[]"
        }
      ],
      "name": "balanceOfBatch",
      "outputs": [
        {
          "internalType": "uint256[]",
          "name": "",
          "type": "uint256[]"
        }
      ],
      "stateMutability": "view",
      "type": "function",
      "constant": true
    },
    {
      "inputs": [],
      "name": "graduationPrice",
      "outputs": [
        {
          "internalType": "uint256",
          "name": "",
          "type": "uint256"
        }
      ],
      "stateMutability": "view",
      "type": "function",
      "constant": true
    },
    {
      "inputs": [
        {
          "internalType": "address",
          "name": "account",
          "type": "address"
        },
        {
          "internalType": "address",
          "name": "operator",
          "type": "address"
        }
      ],
      "name": "isApprovedForAll",
      "outputs": [
        {
          "internalType": "bool",
          "name": "",
          "type": "bool"
        }
      ],
      "stateMutability": "view",
      "type": "function",
      "constant": true
    },
    {
      "inputs": [],
      "name": "registeredEndAt",
      "outputs": [
        {
          "internalType": "uint256",
          "name": "",
          "type": "uint256"
        }
      ],
      "stateMutability": "view",
      "type": "function",
      "constant": true
    },
    {
      "inputs": [],
      "name": "registeredStartAt",
      "outputs": [
        {
          "internalType": "uint256",
          "name": "",
          "type": "uint256"
        }
      ],
      "stateMutability": "view",
      "type": "function",
      "constant": true
    },
    {
      "inputs": [
        {
          "internalType": "address",
          "name": "from",
          "type": "address"
        },
        {
          "internalType": "address",
          "name": "to",
          "type": "address"
        },
        {
          "internalType": "uint256[]",
          "name": "ids",
          "type": "uint256[]"
        },
        {
          "internalType": "uint256[]",
          "name": "amounts",
          "type": "uint256[]"
        },
        {
          "internalType": "bytes",
          "name": "data",
          "type": "bytes"
        }
      ],
      "name": "safeBatchTransferFrom",
      "outputs": [],
      "stateMutability": "nonpayable",
      "type": "function"
    },
    {
      "inputs": [
        {
          "internalType": "address",
          "name": "from",
          "type": "address"
        },
        {
          "internalType": "address",
          "name": "to",
          "type": "address"
        },
        {
          "internalType": "uint256",
          "name": "id",
          "type": "uint256"
        },
        {
          "internalType": "uint256",
          "name": "amount",
          "type": "uint256"
        },
        {
          "internalType": "bytes",
          "name": "data",
          "type": "bytes"
        }
      ],
      "name": "safeTransferFrom",
      "outputs": [],
      "stateMutability": "nonpayable",
      "type": "function"
    },
    {
      "inputs": [
        {
          "internalType": "address",
          "name": "operator",
          "type": "address"
        },
        {
          "internalType": "bool",
          "name": "approved",
          "type": "bool"
        }
      ],
      "name": "setApprovalForAll",
      "outputs": [],
      "stateMutability": "nonpayable",
      "type": "function"
    },
    {
      "inputs": [
        {
          "internalType": "bytes4",
          "name": "interfaceId",
          "type": "bytes4"
        }
      ],
      "name": "supportsInterface",
      "outputs": [
        {
          "internalType": "bool",
          "name": "",
          "type": "bool"
        }
      ],
      "stateMutability": "view",
      "type": "function",
      "constant": true
    },
    {
      "inputs": [
        {
          "internalType": "uint256",
          "name": "tokenId",
          "type": "uint256"
        }
      ],
      "name": "uri",
      "outputs": [
        {
          "internalType": "string",
          "name": "",
          "type": "string"
        }
      ],
      "stateMutability": "view",
      "type": "function",
      "constant": true
    },
    {
      "inputs": [],
      "name": "yearId",
      "outputs": [
        {
          "internalType": "uint256",
          "name": "",
          "type": "uint256"
        }
      ],
      "stateMutability": "view",
      "type": "function",
      "constant": true
    },
    {
      "inputs": [
        {
          "internalType": "address",
          "name": "nftGraduation",
          "type": "address"
        }
      ],
      "name": "initialize",
      "outputs": [],
      "stateMutability": "nonpayable",
      "type": "function"
    },
    {
      "inputs": [],
      "name": "getOwnedNftCompleteCourse",
      "outputs": [
        {
          "components": [
            {
              "internalType": "uint256",
              "name": "tokenId",
              "type": "uint256"
            },
            {
              "internalType": "uint256",
              "name": "studentTokenId",
              "type": "uint256"
            },
            {
              "internalType": "uint256",
              "name": "courseId",
              "type": "uint256"
            },
            {
              "internalType": "uint256",
              "name": "knowledgeBlockId",
              "type": "uint256"
            },
            {
              "internalType": "uint256",
              "name": "credits",
              "type": "uint256"
            },
            {
              "internalType": "uint256",
              "name": "avgScore",
              "type": "uint256"
            }
          ],
          "internalType": "struct IConstant.NftCompleteCourse[]",
          "name": "",
          "type": "tuple[]"
        },
        {
          "internalType": "string[]",
          "name": "",
          "type": "string[]"
        }
      ],
      "stateMutability": "view",
      "type": "function",
      "constant": true
    },
    {
      "inputs": [
        {
          "internalType": "uint256",
          "name": "tokenId",
          "type": "uint256"
        }
      ],
      "name": "getNftCompleteCourse",
      "outputs": [
        {
          "components": [
            {
              "internalType": "uint256",
              "name": "tokenId",
              "type": "uint256"
            },
            {
              "internalType": "uint256",
              "name": "studentTokenId",
              "type": "uint256"
            },
            {
              "internalType": "uint256",
              "name": "courseId",
              "type": "uint256"
            },
            {
              "internalType": "uint256",
              "name": "knowledgeBlockId",
              "type": "uint256"
            },
            {
              "internalType": "uint256",
              "name": "credits",
              "type": "uint256"
            },
            {
              "internalType": "uint256",
              "name": "avgScore",
              "type": "uint256"
            }
          ],
          "internalType": "struct IConstant.NftCompleteCourse",
          "name": "",
          "type": "tuple"
        },
        {
          "internalType": "string",
          "name": "",
          "type": "string"
        }
      ],
      "stateMutability": "view",
      "type": "function",
      "constant": true
    },
    {
      "inputs": [
        {
          "internalType": "uint256",
          "name": "classId",
          "type": "uint256"
        },
        {
          "internalType": "uint256",
          "name": "studentTokenId",
          "type": "uint256"
        }
      ],
      "name": "checkInQueue",
      "outputs": [
        {
          "internalType": "bool",
          "name": "",
          "type": "bool"
        }
      ],
      "stateMutability": "view",
      "type": "function",
      "constant": true
    },
    {
      "inputs": [
        {
          "internalType": "uint256",
          "name": "classId",
          "type": "uint256"
        }
      ],
      "name": "getNftCompleteCourseCreationQueueByClassId",
      "outputs": [
        {
          "internalType": "uint256[]",
          "name": "",
          "type": "uint256[]"
        }
      ],
      "stateMutability": "view",
      "type": "function",
      "constant": true
    },
    {
      "inputs": [
        {
          "internalType": "uint256",
          "name": "studentTokenId",
          "type": "uint256"
        },
        {
          "internalType": "uint256",
          "name": "tokenId",
          "type": "uint256"
        }
      ],
      "name": "addToNftCompleteCourseCreationQueue",
      "outputs": [],
      "stateMutability": "nonpayable",
      "type": "function"
    },
    {
      "inputs": [
        {
          "internalType": "uint256",
          "name": "studentTokenId",
          "type": "uint256"
        },
        {
          "internalType": "uint256",
          "name": "avgScore",
          "type": "uint256"
        },
        {
          "internalType": "uint256",
          "name": "classId",
          "type": "uint256"
        },
        {
          "internalType": "string",
          "name": "tokenURI",
          "type": "string"
        }
      ],
      "name": "grantNftCompleteCourse",
      "outputs": [],
      "stateMutability": "nonpayable",
      "type": "function"
    },
    {
      "inputs": [
        {
          "internalType": "uint256",
          "name": "courseId",
          "type": "uint256"
        },
        {
          "internalType": "address",
          "name": "studentAddr",
          "type": "address"
        }
      ],
      "name": "checkCompleteCourse",
      "outputs": [
        {
          "internalType": "bool",
          "name": "",
          "type": "bool"
        }
      ],
      "stateMutability": "view",
      "type": "function",
      "constant": true
    },
    {
      "inputs": [
        {
          "internalType": "bool",
          "name": "approved",
          "type": "bool"
        }
      ],
      "name": "approveOwnerForAllNft",
      "outputs": [],
      "stateMutability": "nonpayable",
      "type": "function"
    },
    {
      "inputs": [],
      "name": "checkApproveOwnerForAllNft",
      "outputs": [
        {
          "internalType": "bool",
          "name": "",
          "type": "bool"
        }
      ],
      "stateMutability": "view",
      "type": "function",
      "constant": true
    },
    {
      "inputs": [
        {
          "internalType": "address",
          "name": "sender",
          "type": "address"
        },
        {
          "internalType": "address",
          "name": "owner",
          "type": "address"
        }
      ],
      "name": "checkApprovedForAll",
      "outputs": [
        {
          "internalType": "bool",
          "name": "",
          "type": "bool"
        }
      ],
      "stateMutability": "view",
      "type": "function",
      "constant": true
    },
    {
      "inputs": [
        {
          "internalType": "uint256",
          "name": "studentTokenId",
          "type": "uint256"
        }
      ],
      "name": "regainNftCompleteCourses",
      "outputs": [],
      "stateMutability": "nonpayable",
      "type": "function"
    },
    {
      "inputs": [
        {
          "internalType": "uint256",
          "name": "studentTokenId",
          "type": "uint256"
        },
        {
          "internalType": "uint256[]",
          "name": "tokenIds",
          "type": "uint256[]"
        }
      ],
      "name": "_removeFromAllNftCompleteCourses",
      "outputs": [],
      "stateMutability": "nonpayable",
      "type": "function"
    },
    {
      "inputs": [
        {
          "internalType": "uint256[]",
          "name": "tokenIds",
          "type": "uint256[]"
        }
      ],
      "name": "checkAllNftCompleteCoursesRegained",
      "outputs": [
        {
          "internalType": "bool",
          "name": "",
          "type": "bool"
        }
      ],
      "stateMutability": "view",
      "type": "function",
      "constant": true
    }
  ],
  "bytecode": "0x60e060405260405180602001604052806000815250600390805190602001906200002b9291906200019d565b50670de0b6b3a7640000600855674563918244f40000600a553480156200005157600080fd5b5060405162006081380380620060818339818101604052810190620000779190620002b7565b604051806020016040528060008152508062000099816200018160201b60201c565b5033600560006101000a81548173ffffffffffffffffffffffffffffffffffffffff021916908373ffffffffffffffffffffffffffffffffffffffff160217905550508273ffffffffffffffffffffffffffffffffffffffff1660808173ffffffffffffffffffffffffffffffffffffffff16815250508173ffffffffffffffffffffffffffffffffffffffff1660a08173ffffffffffffffffffffffffffffffffffffffff16815250508073ffffffffffffffffffffffffffffffffffffffff1660c08173ffffffffffffffffffffffffffffffffffffffff168152505050505062000377565b8060029080519060200190620001999291906200019d565b5050565b828054620001ab9062000342565b90600052602060002090601f016020900481019282620001cf57600085556200021b565b82601f10620001ea57805160ff19168380011785556200021b565b828001600101855582156200021b579182015b828111156200021a578251825591602001919060010190620001fd565b5b5090506200022a91906200022e565b5090565b5b80821115620002495760008160009055506001016200022f565b5090565b600080fd5b600073ffffffffffffffffffffffffffffffffffffffff82169050919050565b60006200027f8262000252565b9050919050565b620002918162000272565b81146200029d57600080fd5b50565b600081519050620002b18162000286565b92915050565b600080600060608486031215620002d357620002d26200024d565b5b6000620002e386828701620002a0565b9350506020620002f686828701620002a0565b92505060406200030986828701620002a0565b9150509250925092565b7f4e487b7100000000000000000000000000000000000000000000000000000000600052602260045260246000fd5b600060028204905060018216806200035b57607f821691505b60208210810362000371576200037062000313565b5b50919050565b60805160a05160c051615ca9620003d8600039600081816109ca0152611d51015260008181610af00152611def01526000818161076201528181610b9301528181610c4a0152818161176301528181611af40152611e960152615ca96000f3fe608060405234801561001057600080fd5b506004361061018d5760003560e01c80637a4ec7d9116100de578063d860444111610097578063e46d03f811610071578063e46d03f8146104ce578063e839227d146104ec578063e985e9c514610508578063f242432a146105385761018d565b8063d860444114610461578063df264a5e14610491578063df4e4891146104b05761018d565b80637a4ec7d91461038c57806385c7744c146103bc5780638f03802d146103ed578063a22cb4651461040b578063af0d1cb514610427578063c4d66de8146104455761018d565b80632eb2c2d61161014b5780634e1273f4116101255780634e1273f4146102e057806359619d31146103105780636987d038146103405780636eabe75f1461035c5761018d565b80632eb2c2d6146102785780633a35923614610294578063422b0a50146102b05761018d565b8062fdd58e1461019257806301ffc9a7146101c257806303ece623146101f257806307971af8146102105780630b0cda2c1461022c5780630e89341c14610248575b600080fd5b6101ac60048036038101906101a791906139ed565b610554565b6040516101b99190613a3c565b60405180910390f35b6101dc60048036038101906101d79190613aaf565b61061c565b6040516101e99190613af7565b60405180910390f35b6101fa6106fe565b6040516102079190613a3c565b60405180910390f35b61022a60048036038101906102259190613b12565b610704565b005b61024660048036038101906102419190613c85565b6109b9565b005b610262600480360381019061025d9190613b12565b610fc7565b60405161026f9190613d90565b60405180910390f35b610292600480360381019061028d9190613f1b565b6110ac565b005b6102ae60048036038101906102a99190614016565b61114d565b005b6102ca60048036038101906102c59190614043565b61117c565b6040516102d79190613af7565b60405180910390f35b6102fa60048036038101906102f59190614146565b611190565b604051610307919061427c565b60405180910390f35b61032a6004803603810190610325919061429e565b6112a9565b6040516103379190613af7565b60405180910390f35b61035a600480360381019061035591906142e7565b61132b565b005b61037660048036038101906103719190614343565b61175e565b6040516103839190613af7565b60405180910390f35b6103a660048036038101906103a19190614383565b61185a565b6040516103b39190613af7565b60405180910390f35b6103d660048036038101906103d19190613b12565b61188b565b6040516103e492919061443e565b60405180910390f35b6103f561198d565b6040516104029190613a3c565b60405180910390f35b6104256004803603810190610420919061446e565b611993565b005b61042f6119a9565b60405161043c9190613a3c565b60405180910390f35b61045f600480360381019061045a91906144ae565b6119af565b005b61047b60048036038101906104769190613b12565b611a82565b604051610488919061427c565b60405180910390f35b610499611aed565b6040516104a7929190614711565b60405180910390f35b6104b8611d14565b6040516104c59190613a3c565b60405180910390f35b6104d6611d1a565b6040516104e39190613af7565b60405180910390f35b61050660048036038101906105019190614383565b611d4d565b005b610522600480360381019061051d9190614043565b6120d3565b60405161052f9190613af7565b60405180910390f35b610552600480360381019061054d9190614748565b612167565b005b60008073ffffffffffffffffffffffffffffffffffffffff168373ffffffffffffffffffffffffffffffffffffffff16036105c4576040517f08c379a00000000000000000000000000000000000000000000000000000000081526004016105bb90614851565b60405180910390fd5b60008083815260200190815260200160002060008473ffffffffffffffffffffffffffffffffffffffff1673ffffffffffffffffffffffffffffffffffffffff16815260200190815260200160002054905092915050565b60007fd9b67a26000000000000000000000000000000000000000000000000000000007bffffffffffffffffffffffffffffffffffffffffffffffffffffffff1916827bffffffffffffffffffffffffffffffffffffffffffffffffffffffff191614806106e757507f0e89341c000000000000000000000000000000000000000000000000000000007bffffffffffffffffffffffffffffffffffffffffffffffffffffffff1916827bffffffffffffffffffffffffffffffffffffffffffffffffffffffff1916145b806106f757506106f682612208565b5b9050919050565b60085481565b3373ffffffffffffffffffffffffffffffffffffffff16600560009054906101000a900473ffffffffffffffffffffffffffffffffffffffff1673ffffffffffffffffffffffffffffffffffffffff161461075e57600080fd5b60007f000000000000000000000000000000000000000000000000000000000000000073ffffffffffffffffffffffffffffffffffffffff16636352211e836040518263ffffffff1660e01b81526004016107b99190613a3c565b602060405180830381865afa1580156107d6573d6000803e3d6000fd5b505050506040513d601f19601f820116820180604052508101906107fa9190614886565b905061082881600560009054906101000a900473ffffffffffffffffffffffffffffffffffffffff1661117c565b610867576040517f08c379a000000000000000000000000000000000000000000000000000000000815260040161085e906148ff565b60405180910390fd5b6000600b60019054906101000a900473ffffffffffffffffffffffffffffffffffffffff1673ffffffffffffffffffffffffffffffffffffffff1663c000fb08846040518263ffffffff1660e01b81526004016108c49190613a3c565b600060405180830381865afa1580156108e1573d6000803e3d6000fd5b505050506040513d6000823e3d601f19601f8201168201806040525081019061090a91906149cb565b905060008151905060008167ffffffffffffffff81111561092e5761092d613b5a565b5b60405190808252806020026020018201604052801561095c5781602001602082028036833780820191505090505b50905060005b8281101561099c57600182828151811061097f5761097e614a14565b5b6020026020010181815250508061099590614a72565b9050610962565b506109a8848483612272565b6109b2858461132b565b5050505050565b600a548310156109c857600080fd5b7f000000000000000000000000000000000000000000000000000000000000000073ffffffffffffffffffffffffffffffffffffffff166354c0893385846040518363ffffffff1660e01b8152600401610a23929190614aba565b602060405180830381865afa158015610a40573d6000803e3d6000fd5b505050506040513d601f19601f82011682018060405250810190610a649190614af8565b610aa3576040517f08c379a0000000000000000000000000000000000000000000000000000000008152600401610a9a90614b71565b60405180910390fd5b610aad828561185a565b610aec576040517f08c379a0000000000000000000000000000000000000000000000000000000008152600401610ae390614bdd565b60405180910390fd5b60007f000000000000000000000000000000000000000000000000000000000000000073ffffffffffffffffffffffffffffffffffffffff166303d658e0846040518263ffffffff1660e01b8152600401610b479190613a3c565b600060405180830381865afa158015610b64573d6000803e3d6000fd5b505050506040513d6000823e3d601f19601f82011682018060405250810190610b8d9190614d9f565b905060007f000000000000000000000000000000000000000000000000000000000000000073ffffffffffffffffffffffffffffffffffffffff166352db77c4600180811115610be057610bdf614de8565b5b336040518363ffffffff1660e01b8152600401610bfe929190614e26565b600060405180830381865afa158015610c1b573d6000803e3d6000fd5b505050506040513d6000823e3d601f19601f82011682018060405250810190610c449190614f47565b905060007f000000000000000000000000000000000000000000000000000000000000000073ffffffffffffffffffffffffffffffffffffffff16636352211e886040518263ffffffff1660e01b8152600401610ca19190613a3c565b602060405180830381865afa158015610cbe573d6000803e3d6000fd5b505050506040513d601f19601f82011682018060405250810190610ce29190614886565b90508160000151600001518360e0015114610d32576040517f08c379a0000000000000000000000000000000000000000000000000000000008152600401610d2990614fdc565b60405180910390fd5b816060015115610d77576040517f08c379a0000000000000000000000000000000000000000000000000000000008152600401610d6e90615048565b60405180910390fd5b6000610d8582600187612540565b9050610da181898660200151876040015188608001518c6125b5565b601360008981526020019081526020016000208190806001815401808255809150506001900390600052602060002001600090919091909150556013600089815260200190815260200160002080549050601460008a81526020019081526020016000206000838152602001908152602001600020819055506001601760008a815260200190815260200160002060008660200151815260200190815260200160002060006101000a81548160ff02191690831515021790555060006016600088815260200190815260200160002060008a815260200190815260200160002054905060006015600089815260200190815260200160002080549050905080821015610f235760156000898152602001908152602001600020600182610ec79190615068565b81548110610ed857610ed7614a14565b5b9060005260206000200154601560008a8152602001908152602001600020600184610f039190615068565b81548110610f1457610f13614a14565b5b90600052602060002001819055505b60156000898152602001908152602001600020805480610f4657610f4561509c565b5b600190038181906000526020600020016000905590556016600089815260200190815260200160002060008b8152602001908152602001600020600090557fa1ce3ead8e83e3d0d7c8fba00e72fcba3265aee4a21c5886129dc80211f27d0983604051610fb39190613a3c565b60405180910390a150505050505050505050565b60606000600460008481526020019081526020016000208054610fe9906150fa565b80601f0160208091040260200160405190810160405280929190818152602001828054611015906150fa565b80156110625780601f1061103757610100808354040283529160200191611062565b820191906000526020600020905b81548152906001019060200180831161104557829003601f168201915b5050505050905060008151116110805761107b83612688565b6110a4565b6003816040516020016110949291906151fb565b6040516020818303038152906040525b915050919050565b6110b461271c565b73ffffffffffffffffffffffffffffffffffffffff168573ffffffffffffffffffffffffffffffffffffffff1614806110fa57506110f9856110f461271c565b6120d3565b5b611139576040517f08c379a000000000000000000000000000000000000000000000000000000000815260040161113090615291565b60405180910390fd5b6111468585858585612724565b5050505050565b611179600560009054906101000a900473ffffffffffffffffffffffffffffffffffffffff1682611993565b50565b600061118883836120d3565b905092915050565b606081518351146111d6576040517f08c379a00000000000000000000000000000000000000000000000000000000081526004016111cd90615323565b60405180910390fd5b6000835167ffffffffffffffff8111156111f3576111f2613b5a565b5b6040519080825280602002602001820160405280156112215781602001602082028036833780820191505090505b50905060005b845181101561129e5761126e85828151811061124657611245614a14565b5b602002602001015185838151811061126157611260614a14565b5b6020026020010151610554565b82828151811061128157611280614a14565b5b6020026020010181815250508061129790614a72565b9050611227565b508091505092915050565b6000808251905060005b8181101561131f576000601060006001815260200190815260200160002060008684815181106112e6576112e5614a14565b5b6020026020010151815260200190815260200160002054111561130e57600092505050611326565b8061131890614a72565b90506112b3565b5060019150505b919050565b60008151905060005b818110156117585760006010600060018152602001908152602001600020600085848151811061136757611366614a14565b5b602002602001015181526020019081526020016000205490506000600f8054905090506000600f60018461139b9190615068565b815481106113ac576113ab614a14565b5b90600052602060002090600602016040518060c0016040529081600082015481526020016001820154815260200160028201548152602001600382015481526020016004820154815260200160058201548152505090506017600088815260200190815260200160002060008260400151815260200190815260200160002060006101000a81549060ff0219169055600060146000898152602001908152602001600020600088878151811061146557611464614a14565b5b602002602001015181526020019081526020016000205490506000601360008a81526020019081526020016000208054905090508082101561154c576000601360008b81526020019081526020016000206001836114c39190615068565b815481106114d4576114d3614a14565b5b9060005260206000200154905080601360008c81526020019081526020016000206001856115029190615068565b8154811061151357611512614a14565b5b906000526020600020018190555082601460008c8152602001908152602001600020600083815260200190815260200160002081905550505b601360008a815260200190815260200160002080548061156f5761156e61509c565b5b60019003818190600052602060002001600090559055838510156116a4576000600f60018661159e9190615068565b815481106115af576115ae614a14565b5b90600052602060002090600602016040518060c00160405290816000820154815260200160018201548152602001600282015481526020016003820154815260200160048201548152602001600582015481525050905080600f6001886116169190615068565b8154811061162757611626614a14565b5b9060005260206000209060060201600082015181600001556020820151816001015560408201518160020155606082015181600301556080820151816004015560a0820151816005015590505085601060006001815260200190815260200160002060008360000151815260200190815260200160002081905550505b601060006001815260200190815260200160002060008988815181106116cd576116cc614a14565b5b6020026020010151815260200190815260200160002060009055600f8054806116f9576116f861509c565b5b6001900381819060005260206000209060060201600080820160009055600182016000905560028201600090556003820160009055600482016000905560058201600090555050905550505050508061175190614a72565b9050611334565b50505050565b6000807f000000000000000000000000000000000000000000000000000000000000000073ffffffffffffffffffffffffffffffffffffffff166352db77c4600060018111156117b1576117b0614de8565b5b856040518363ffffffff1660e01b81526004016117cf929190614e26565b600060405180830381865afa1580156117ec573d6000803e3d6000fd5b505050506040513d6000823e3d601f19601f820116820180604052508101906118159190614f47565b6000015160000151905060176000828152602001908152602001600020600085815260200190815260200160002060009054906101000a900460ff1691505092915050565b6000806016600085815260200190815260200160002060008481526020019081526020016000205411905092915050565b61189361386c565b606060006010600060018152602001908152602001600020600085815260200190815260200160002054905060008111611902576040517f08c379a00000000000000000000000000000000000000000000000000000000081526004016118f99061538f565b60405180910390fd5b600f6001826119119190615068565b8154811061192257611921614a14565b5b906000526020600020906006020161193985610fc7565b816040518060c0016040529081600082015481526020016001820154815260200160028201548152602001600382015481526020016004820154815260200160058201548152505091509250925050915091565b600d5481565b6119a561199e61271c565b8383612a45565b5050565b600c5481565b3373ffffffffffffffffffffffffffffffffffffffff16600560009054906101000a900473ffffffffffffffffffffffffffffffffffffffff1673ffffffffffffffffffffffffffffffffffffffff1614611a0957600080fd5b600b60009054906101000a900460ff1615611a2357600080fd5b6001600b60006101000a81548160ff02191690831515021790555080600b60016101000a81548173ffffffffffffffffffffffffffffffffffffffff021916908373ffffffffffffffffffffffffffffffffffffffff16021790555050565b606060156000838152602001908152602001600020805480602002602001604051908101604052809291908181526020018280548015611ae157602002820191906000526020600020905b815481526020019060010190808311611acd575b50505050509050919050565b60608060007f000000000000000000000000000000000000000000000000000000000000000073ffffffffffffffffffffffffffffffffffffffff166352db77c460006001811115611b4257611b41614de8565b5b336040518363ffffffff1660e01b8152600401611b60929190614e26565b600060405180830381865afa158015611b7d573d6000803e3d6000fd5b505050506040513d6000823e3d601f19601f82011682018060405250810190611ba69190614f47565b6000015160000151905060006013600083815260200190815260200160002080549050905060008167ffffffffffffffff811115611be757611be6613b5a565b5b604051908082528060200260200182016040528015611c2057816020015b611c0d61386c565b815260200190600190039081611c055790505b50905060008267ffffffffffffffff811115611c3f57611c3e613b5a565b5b604051908082528060200260200182016040528015611c7257816020015b6060815260200190600190039081611c5d5790505b50905060005b83811015611d0557611cb8601360008781526020019081526020016000208281548110611ca857611ca7614a14565b5b906000526020600020015461188b565b848381518110611ccb57611cca614a14565b5b60200260200101848481518110611ce557611ce4614a14565b5b60200260200101829052829052505080611cfe90614a72565b9050611c78565b50818195509550505050509091565b600e5481565b6000611d4833600560009054906101000a900473ffffffffffffffffffffffffffffffffffffffff166120d3565b905090565b60007f000000000000000000000000000000000000000000000000000000000000000073ffffffffffffffffffffffffffffffffffffffff1663a24a7c30836040518263ffffffff1660e01b8152600401611da89190613a3c565b606060405180830381865afa158015611dc5573d6000803e3d6000fd5b505050506040513d601f19601f82011682018060405250810190611de99190615413565b905060007f000000000000000000000000000000000000000000000000000000000000000073ffffffffffffffffffffffffffffffffffffffff166303d658e083602001516040518263ffffffff1660e01b8152600401611e4a9190613a3c565b600060405180830381865afa158015611e67573d6000803e3d6000fd5b505050506040513d6000823e3d601f19601f82011682018060405250810190611e909190614d9f565b905060007f000000000000000000000000000000000000000000000000000000000000000073ffffffffffffffffffffffffffffffffffffffff166352db77c4600180811115611ee357611ee2614de8565b5b336040518363ffffffff1660e01b8152600401611f01929190614e26565b600060405180830381865afa158015611f1e573d6000803e3d6000fd5b505050506040513d6000823e3d601f19601f82011682018060405250810190611f479190614f47565b9050806060015115611f8e576040517f08c379a0000000000000000000000000000000000000000000000000000000008152600401611f8590615048565b60405180910390fd5b8060000151600001518260e0015114611fdc576040517f08c379a0000000000000000000000000000000000000000000000000000000008152600401611fd390614fdc565b60405180910390fd5b6000601660008560200151815260200190815260200160002060008781526020019081526020016000205414612047576040517f08c379a000000000000000000000000000000000000000000000000000000000815260040161203e9061548c565b60405180910390fd5b601560008460200151815260200190815260200160002085908060018154018082558091505060019003906000526020600020016000909190919091505560156000846020015181526020019081526020016000208054905060166000856020015181526020019081526020016000206000878152602001908152602001600020819055505050505050565b6000600160008473ffffffffffffffffffffffffffffffffffffffff1673ffffffffffffffffffffffffffffffffffffffff16815260200190815260200160002060008373ffffffffffffffffffffffffffffffffffffffff1673ffffffffffffffffffffffffffffffffffffffff16815260200190815260200160002060009054906101000a900460ff16905092915050565b61216f61271c565b73ffffffffffffffffffffffffffffffffffffffff168573ffffffffffffffffffffffffffffffffffffffff1614806121b557506121b4856121af61271c565b6120d3565b5b6121f4576040517f08c379a00000000000000000000000000000000000000000000000000000000081526004016121eb90615291565b60405180910390fd5b6122018585858585612bb1565b5050505050565b60007f01ffc9a7000000000000000000000000000000000000000000000000000000007bffffffffffffffffffffffffffffffffffffffffffffffffffffffff1916827bffffffffffffffffffffffffffffffffffffffffffffffffffffffff1916149050919050565b600073ffffffffffffffffffffffffffffffffffffffff168373ffffffffffffffffffffffffffffffffffffffff16036122e1576040517f08c379a00000000000000000000000000000000000000000000000000000000081526004016122d89061551e565b60405180910390fd5b8051825114612325576040517f08c379a000000000000000000000000000000000000000000000000000000000815260040161231c906155b0565b60405180910390fd5b600061232f61271c565b905061234f81856000868660405180602001604052806000815250612e4c565b60005b835181101561249c5760008482815181106123705761236f614a14565b5b60200260200101519050600084838151811061238f5761238e614a14565b5b60200260200101519050600080600084815260200190815260200160002060008973ffffffffffffffffffffffffffffffffffffffff1673ffffffffffffffffffffffffffffffffffffffff16815260200190815260200160002054905081811015612430576040517f08c379a000000000000000000000000000000000000000000000000000000000815260040161242790615642565b60405180910390fd5b81810360008085815260200190815260200160002060008a73ffffffffffffffffffffffffffffffffffffffff1673ffffffffffffffffffffffffffffffffffffffff16815260200190815260200160002081905550505050808061249490614a72565b915050612352565b50600073ffffffffffffffffffffffffffffffffffffffff168473ffffffffffffffffffffffffffffffffffffffff168273ffffffffffffffffffffffffffffffffffffffff167f4a39dc06d4c0dbc64b70af90fd698a233a518aa5d07e595d983b8c0526c8f7fb8686604051612514929190615662565b60405180910390a461253a81856000868660405180602001604052806000815250613178565b50505050565b60008061254c84613180565b90506125a0858260016000368080601f016020809104026020016040519081016040528093929190818152602001838380828437600081840152601f19601f820116905080830192505050505050506131cb565b6125aa818461337b565b809150509392505050565b60006040518060c00160405280888152602001878152602001868152602001858152602001848152602001838152509050600f819080600181540180825580915050600190039060005260206000209060060201600090919091909150600082015181600001556020820151816001015560408201518160020155606082015181600301556080820151816004015560a082015181600501555050600f80549050601060006001815260200190815260200160002060008981526020019081526020016000208190555050505050505050565b606060028054612697906150fa565b80601f01602080910402602001604051908101604052809291908181526020018280546126c3906150fa565b80156127105780601f106126e557610100808354040283529160200191612710565b820191906000526020600020905b8154815290600101906020018083116126f357829003601f168201915b50505050509050919050565b600033905090565b8151835114612768576040517f08c379a000000000000000000000000000000000000000000000000000000000815260040161275f906155b0565b60405180910390fd5b600073ffffffffffffffffffffffffffffffffffffffff168473ffffffffffffffffffffffffffffffffffffffff16036127d7576040517f08c379a00000000000000000000000000000000000000000000000000000000081526004016127ce9061570b565b60405180910390fd5b60006127e161271c565b90506127f1818787878787612e4c565b60005b84518110156129a257600085828151811061281257612811614a14565b5b60200260200101519050600085838151811061283157612830614a14565b5b60200260200101519050600080600084815260200190815260200160002060008b73ffffffffffffffffffffffffffffffffffffffff1673ffffffffffffffffffffffffffffffffffffffff168152602001908152602001600020549050818110156128d2576040517f08c379a00000000000000000000000000000000000000000000000000000000081526004016128c99061579d565b60405180910390fd5b81810360008085815260200190815260200160002060008c73ffffffffffffffffffffffffffffffffffffffff1673ffffffffffffffffffffffffffffffffffffffff168152602001908152602001600020819055508160008085815260200190815260200160002060008b73ffffffffffffffffffffffffffffffffffffffff1673ffffffffffffffffffffffffffffffffffffffff168152602001908152602001600020600082825461298791906157bd565b925050819055505050508061299b90614a72565b90506127f4565b508473ffffffffffffffffffffffffffffffffffffffff168673ffffffffffffffffffffffffffffffffffffffff168273ffffffffffffffffffffffffffffffffffffffff167f4a39dc06d4c0dbc64b70af90fd698a233a518aa5d07e595d983b8c0526c8f7fb8787604051612a19929190615662565b60405180910390a4612a2f818787878787613178565b612a3d8187878787876133e7565b505050505050565b8173ffffffffffffffffffffffffffffffffffffffff168373ffffffffffffffffffffffffffffffffffffffff1603612ab3576040517f08c379a0000000000000000000000000000000000000000000000000000000008152600401612aaa90615885565b60405180910390fd5b80600160008573ffffffffffffffffffffffffffffffffffffffff1673ffffffffffffffffffffffffffffffffffffffff16815260200190815260200160002060008473ffffffffffffffffffffffffffffffffffffffff1673ffffffffffffffffffffffffffffffffffffffff16815260200190815260200160002060006101000a81548160ff0219169083151502179055508173ffffffffffffffffffffffffffffffffffffffff168373ffffffffffffffffffffffffffffffffffffffff167f17307eab39ab6107e8899845ad3d59bd9653f200f220920489ca2b5937696c3183604051612ba49190613af7565b60405180910390a3505050565b600073ffffffffffffffffffffffffffffffffffffffff168473ffffffffffffffffffffffffffffffffffffffff1603612c20576040517f08c379a0000000000000000000000000000000000000000000000000000000008152600401612c179061570b565b60405180910390fd5b6000612c2a61271c565b90506000612c37856135be565b90506000612c44856135be565b9050612c54838989858589612e4c565b600080600088815260200190815260200160002060008a73ffffffffffffffffffffffffffffffffffffffff1673ffffffffffffffffffffffffffffffffffffffff16815260200190815260200160002054905085811015612ceb576040517f08c379a0000000000000000000000000000000000000000000000000000000008152600401612ce29061579d565b60405180910390fd5b85810360008089815260200190815260200160002060008b73ffffffffffffffffffffffffffffffffffffffff1673ffffffffffffffffffffffffffffffffffffffff168152602001908152602001600020819055508560008089815260200190815260200160002060008a73ffffffffffffffffffffffffffffffffffffffff1673ffffffffffffffffffffffffffffffffffffffff1681526020019081526020016000206000828254612da091906157bd565b925050819055508773ffffffffffffffffffffffffffffffffffffffff168973ffffffffffffffffffffffffffffffffffffffff168573ffffffffffffffffffffffffffffffffffffffff167fc3d58168c5ae7397731d063d5bbf3d657854427343f4c083240f7aacaa2d0f628a8a604051612e1d929190614aba565b60405180910390a4612e33848a8a86868a613178565b612e41848a8a8a8a8a613638565b505050505050505050565b612e5a86868686868661380f565b600083519050600073ffffffffffffffffffffffffffffffffffffffff168673ffffffffffffffffffffffffffffffffffffffff1603612f5c5760005b81811015612f55576000612ec4868381518110612eb757612eb6614a14565b5b6020026020010151613817565b905086600760008381526020019081526020016000206000888581518110612eef57612eee614a14565b5b6020026020010151815260200190815260200160002060006101000a81548173ffffffffffffffffffffffffffffffffffffffff021916908373ffffffffffffffffffffffffffffffffffffffff1602179055505080612f4e90614a72565b9050612e97565b5050613170565b600073ffffffffffffffffffffffffffffffffffffffff168573ffffffffffffffffffffffffffffffffffffffff160361303c5760005b81811015613035576000612fc0868381518110612fb357612fb2614a14565b5b6020026020010151613817565b9050600760008281526020019081526020016000206000878481518110612fea57612fe9614a14565b5b6020026020010151815260200190815260200160002060006101000a81549073ffffffffffffffffffffffffffffffffffffffff0219169055508061302e90614a72565b9050612f93565b5050613170565b600073ffffffffffffffffffffffffffffffffffffffff168673ffffffffffffffffffffffffffffffffffffffff16141580156130a65750600073ffffffffffffffffffffffffffffffffffffffff168573ffffffffffffffffffffffffffffffffffffffff1614155b1561316e5760005b8181101561316c5760006130db8683815181106130ce576130cd614a14565b5b6020026020010151613817565b90508660076000838152602001908152602001600020600088858151811061310657613105614a14565b5b6020026020010151815260200190815260200160002060006101000a81548173ffffffffffffffffffffffffffffffffffffffff021916908373ffffffffffffffffffffffffffffffffffffffff160217905550508061316590614a72565b90506130ae565b505b505b505050505050565b505050505050565b600061319d60066000848152602001908152602001600020613825565b60006131ba6006600085815260200190815260200160002061383b565b905080601084901b17915050919050565b600073ffffffffffffffffffffffffffffffffffffffff168473ffffffffffffffffffffffffffffffffffffffff160361323a576040517f08c379a000000000000000000000000000000000000000000000000000000000815260040161323190615917565b60405180910390fd5b600061324461271c565b90506000613251856135be565b9050600061325e856135be565b905061326f83600089858589612e4c565b8460008088815260200190815260200160002060008973ffffffffffffffffffffffffffffffffffffffff1673ffffffffffffffffffffffffffffffffffffffff16815260200190815260200160002060008282546132ce91906157bd565b925050819055508673ffffffffffffffffffffffffffffffffffffffff16600073ffffffffffffffffffffffffffffffffffffffff168473ffffffffffffffffffffffffffffffffffffffff167fc3d58168c5ae7397731d063d5bbf3d657854427343f4c083240f7aacaa2d0f62898960405161334c929190614aba565b60405180910390a461336383600089858589613178565b61337283600089898989613638565b50505050505050565b806004600084815260200190815260200160002090805190602001906133a29291906138a2565b50817f6bb7ff708619ba0610cba295a58592e0451dee2622938c8755667688daf3529b6133ce84610fc7565b6040516133db9190613d90565b60405180910390a25050565b6134068473ffffffffffffffffffffffffffffffffffffffff16613849565b156135b6578373ffffffffffffffffffffffffffffffffffffffff1663bc197c8187878686866040518663ffffffff1660e01b815260040161344c95949392919061598c565b6020604051808303816000875af192505050801561348857506040513d601f19601f820116820180604052508101906134859190615a09565b60015b61352d57613494615a43565b806308c379a0036134f057506134a8615a65565b806134b357506134f2565b806040517f08c379a00000000000000000000000000000000000000000000000000000000081526004016134e79190613d90565b60405180910390fd5b505b6040517f08c379a000000000000000000000000000000000000000000000000000000000815260040161352490615b67565b60405180910390fd5b63bc197c8160e01b7bffffffffffffffffffffffffffffffffffffffffffffffffffffffff1916817bffffffffffffffffffffffffffffffffffffffffffffffffffffffff1916146135b4576040517f08c379a00000000000000000000000000000000000000000000000000000000081526004016135ab90615bf9565b60405180910390fd5b505b505050505050565b60606000600167ffffffffffffffff8111156135dd576135dc613b5a565b5b60405190808252806020026020018201604052801561360b5781602001602082028036833780820191505090505b509050828160008151811061362357613622614a14565b5b60200260200101818152505080915050919050565b6136578473ffffffffffffffffffffffffffffffffffffffff16613849565b15613807578373ffffffffffffffffffffffffffffffffffffffff1663f23a6e6187878686866040518663ffffffff1660e01b815260040161369d959493929190615c19565b6020604051808303816000875af19250505080156136d957506040513d601f19601f820116820180604052508101906136d69190615a09565b60015b61377e576136e5615a43565b806308c379a00361374157506136f9615a65565b806137045750613743565b806040517f08c379a00000000000000000000000000000000000000000000000000000000081526004016137389190613d90565b60405180910390fd5b505b6040517f08c379a000000000000000000000000000000000000000000000000000000000815260040161377590615b67565b60405180910390fd5b63f23a6e6160e01b7bffffffffffffffffffffffffffffffffffffffffffffffffffffffff1916817bffffffffffffffffffffffffffffffffffffffffffffffffffffffff191614613805576040517f08c379a00000000000000000000000000000000000000000000000000000000081526004016137fc90615bf9565b60405180910390fd5b505b505050505050565b505050505050565b6000601082901c9050919050565b6001816000016000828254019250508190555050565b600081600001549050919050565b6000808273ffffffffffffffffffffffffffffffffffffffff163b119050919050565b6040518060c001604052806000815260200160008152602001600081526020016000815260200160008152602001600081525090565b8280546138ae906150fa565b90600052602060002090601f0160209004810192826138d05760008555613917565b82601f106138e957805160ff1916838001178555613917565b82800160010185558215613917579182015b828111156139165782518255916020019190600101906138fb565b5b5090506139249190613928565b5090565b5b80821115613941576000816000905550600101613929565b5090565b6000604051905090565b600080fd5b600080fd5b600073ffffffffffffffffffffffffffffffffffffffff82169050919050565b600061398482613959565b9050919050565b61399481613979565b811461399f57600080fd5b50565b6000813590506139b18161398b565b92915050565b6000819050919050565b6139ca816139b7565b81146139d557600080fd5b50565b6000813590506139e7816139c1565b92915050565b60008060408385031215613a0457613a0361394f565b5b6000613a12858286016139a2565b9250506020613a23858286016139d8565b9150509250929050565b613a36816139b7565b82525050565b6000602082019050613a516000830184613a2d565b92915050565b60007fffffffff0000000000000000000000000000000000000000000000000000000082169050919050565b613a8c81613a57565b8114613a9757600080fd5b50565b600081359050613aa981613a83565b92915050565b600060208284031215613ac557613ac461394f565b5b6000613ad384828501613a9a565b91505092915050565b60008115159050919050565b613af181613adc565b82525050565b6000602082019050613b0c6000830184613ae8565b92915050565b600060208284031215613b2857613b2761394f565b5b6000613b36848285016139d8565b91505092915050565b600080fd5b600080fd5b6000601f19601f8301169050919050565b7f4e487b7100000000000000000000000000000000000000000000000000000000600052604160045260246000fd5b613b9282613b49565b810181811067ffffffffffffffff82111715613bb157613bb0613b5a565b5b80604052505050565b6000613bc4613945565b9050613bd08282613b89565b919050565b600067ffffffffffffffff821115613bf057613bef613b5a565b5b613bf982613b49565b9050602081019050919050565b82818337600083830152505050565b6000613c28613c2384613bd5565b613bba565b905082815260208101848484011115613c4457613c43613b44565b5b613c4f848285613c06565b509392505050565b600082601f830112613c6c57613c6b613b3f565b5b8135613c7c848260208601613c15565b91505092915050565b60008060008060808587031215613c9f57613c9e61394f565b5b6000613cad878288016139d8565b9450506020613cbe878288016139d8565b9350506040613ccf878288016139d8565b925050606085013567ffffffffffffffff811115613cf057613cef613954565b5b613cfc87828801613c57565b91505092959194509250565b600081519050919050565b600082825260208201905092915050565b60005b83811015613d42578082015181840152602081019050613d27565b83811115613d51576000848401525b50505050565b6000613d6282613d08565b613d6c8185613d13565b9350613d7c818560208601613d24565b613d8581613b49565b840191505092915050565b60006020820190508181036000830152613daa8184613d57565b905092915050565b600067ffffffffffffffff821115613dcd57613dcc613b5a565b5b602082029050602081019050919050565b600080fd5b6000613df6613df184613db2565b613bba565b90508083825260208201905060208402830185811115613e1957613e18613dde565b5b835b81811015613e425780613e2e88826139d8565b845260208401935050602081019050613e1b565b5050509392505050565b600082601f830112613e6157613e60613b3f565b5b8135613e71848260208601613de3565b91505092915050565b600067ffffffffffffffff821115613e9557613e94613b5a565b5b613e9e82613b49565b9050602081019050919050565b6000613ebe613eb984613e7a565b613bba565b905082815260208101848484011115613eda57613ed9613b44565b5b613ee5848285613c06565b509392505050565b600082601f830112613f0257613f01613b3f565b5b8135613f12848260208601613eab565b91505092915050565b600080600080600060a08688031215613f3757613f3661394f565b5b6000613f45888289016139a2565b9550506020613f56888289016139a2565b945050604086013567ffffffffffffffff811115613f7757613f76613954565b5b613f8388828901613e4c565b935050606086013567ffffffffffffffff811115613fa457613fa3613954565b5b613fb088828901613e4c565b925050608086013567ffffffffffffffff811115613fd157613fd0613954565b5b613fdd88828901613eed565b9150509295509295909350565b613ff381613adc565b8114613ffe57600080fd5b50565b60008135905061401081613fea565b92915050565b60006020828403121561402c5761402b61394f565b5b600061403a84828501614001565b91505092915050565b6000806040838503121561405a5761405961394f565b5b6000614068858286016139a2565b9250506020614079858286016139a2565b9150509250929050565b600067ffffffffffffffff82111561409e5761409d613b5a565b5b602082029050602081019050919050565b60006140c26140bd84614083565b613bba565b905080838252602082019050602084028301858111156140e5576140e4613dde565b5b835b8181101561410e57806140fa88826139a2565b8452602084019350506020810190506140e7565b5050509392505050565b600082601f83011261412d5761412c613b3f565b5b813561413d8482602086016140af565b91505092915050565b6000806040838503121561415d5761415c61394f565b5b600083013567ffffffffffffffff81111561417b5761417a613954565b5b61418785828601614118565b925050602083013567ffffffffffffffff8111156141a8576141a7613954565b5b6141b485828601613e4c565b9150509250929050565b600081519050919050565b600082825260208201905092915050565b6000819050602082019050919050565b6141f3816139b7565b82525050565b600061420583836141ea565b60208301905092915050565b6000602082019050919050565b6000614229826141be565b61423381856141c9565b935061423e836141da565b8060005b8381101561426f57815161425688826141f9565b975061426183614211565b925050600181019050614242565b5085935050505092915050565b60006020820190508181036000830152614296818461421e565b905092915050565b6000602082840312156142b4576142b361394f565b5b600082013567ffffffffffffffff8111156142d2576142d1613954565b5b6142de84828501613e4c565b91505092915050565b600080604083850312156142fe576142fd61394f565b5b600061430c858286016139d8565b925050602083013567ffffffffffffffff81111561432d5761432c613954565b5b61433985828601613e4c565b9150509250929050565b6000806040838503121561435a5761435961394f565b5b6000614368858286016139d8565b9250506020614379858286016139a2565b9150509250929050565b6000806040838503121561439a5761439961394f565b5b60006143a8858286016139d8565b92505060206143b9858286016139d8565b9150509250929050565b60c0820160008201516143d960008501826141ea565b5060208201516143ec60208501826141ea565b5060408201516143ff60408501826141ea565b50606082015161441260608501826141ea565b50608082015161442560808501826141ea565b5060a082015161443860a08501826141ea565b50505050565b600060e08201905061445360008301856143c3565b81810360c08301526144658184613d57565b90509392505050565b600080604083850312156144855761448461394f565b5b6000614493858286016139a2565b92505060206144a485828601614001565b9150509250929050565b6000602082840312156144c4576144c361394f565b5b60006144d2848285016139a2565b91505092915050565b600081519050919050565b600082825260208201905092915050565b6000819050602082019050919050565b60c08201600082015161451d60008501826141ea565b50602082015161453060208501826141ea565b50604082015161454360408501826141ea565b50606082015161455660608501826141ea565b50608082015161456960808501826141ea565b5060a082015161457c60a08501826141ea565b50505050565b600061458e8383614507565b60c08301905092915050565b6000602082019050919050565b60006145b2826144db565b6145bc81856144e6565b93506145c7836144f7565b8060005b838110156145f85781516145df8882614582565b97506145ea8361459a565b9250506001810190506145cb565b5085935050505092915050565b600081519050919050565b600082825260208201905092915050565b6000819050602082019050919050565b600082825260208201905092915050565b600061464d82613d08565b6146578185614631565b9350614667818560208601613d24565b61467081613b49565b840191505092915050565b60006146878383614642565b905092915050565b6000602082019050919050565b60006146a782614605565b6146b18185614610565b9350836020820285016146c385614621565b8060005b858110156146ff57848403895281516146e0858261467b565b94506146eb8361468f565b925060208a019950506001810190506146c7565b50829750879550505050505092915050565b6000604082019050818103600083015261472b81856145a7565b9050818103602083015261473f818461469c565b90509392505050565b600080600080600060a086880312156147645761476361394f565b5b6000614772888289016139a2565b9550506020614783888289016139a2565b9450506040614794888289016139d8565b93505060606147a5888289016139d8565b925050608086013567ffffffffffffffff8111156147c6576147c5613954565b5b6147d288828901613eed565b9150509295509295909350565b7f455243313135353a2061646472657373207a65726f206973206e6f742061207660008201527f616c6964206f776e657200000000000000000000000000000000000000000000602082015250565b600061483b602a83613d13565b9150614846826147df565b604082019050919050565b6000602082019050818103600083015261486a8161482e565b9050919050565b6000815190506148808161398b565b92915050565b60006020828403121561489c5761489b61394f565b5b60006148aa84828501614871565b91505092915050565b7f6e6f7420617070726f7665642062792073747564656e74000000000000000000600082015250565b60006148e9601783613d13565b91506148f4826148b3565b602082019050919050565b60006020820190508181036000830152614918816148dc565b9050919050565b60008151905061492e816139c1565b92915050565b600061494761494284613db2565b613bba565b9050808382526020820190506020840283018581111561496a57614969613dde565b5b835b81811015614993578061497f888261491f565b84526020840193505060208101905061496c565b5050509392505050565b600082601f8301126149b2576149b1613b3f565b5b81516149c2848260208601614934565b91505092915050565b6000602082840312156149e1576149e061394f565b5b600082015167ffffffffffffffff8111156149ff576149fe613954565b5b614a0b8482850161499d565b91505092915050565b7f4e487b7100000000000000000000000000000000000000000000000000000000600052603260045260246000fd5b7f4e487b7100000000000000000000000000000000000000000000000000000000600052601160045260246000fd5b6000614a7d826139b7565b91507fffffffffffffffffffffffffffffffffffffffffffffffffffffffffffffffff8203614aaf57614aae614a43565b5b600182019050919050565b6000604082019050614acf6000830185613a2d565b614adc6020830184613a2d565b9392505050565b600081519050614af281613fea565b92915050565b600060208284031215614b0e57614b0d61394f565b5b6000614b1c84828501614ae3565b91505092915050565b7f6e6f742072656761696e65640000000000000000000000000000000000000000600082015250565b6000614b5b600c83613d13565b9150614b6682614b25565b602082019050919050565b60006020820190508181036000830152614b8a81614b4e565b9050919050565b7f6e6f7420696e2071756575650000000000000000000000000000000000000000600082015250565b6000614bc7600c83613d13565b9150614bd282614b91565b602082019050919050565b60006020820190508181036000830152614bf681614bba565b9050919050565b600080fd5b600080fd5b6000614c1a614c1584613bd5565b613bba565b905082815260208101848484011115614c3657614c35613b44565b5b614c41848285613d24565b509392505050565b600082601f830112614c5e57614c5d613b3f565b5b8151614c6e848260208601614c07565b91505092915050565b60006101608284031215614c8e57614c8d614bfd565b5b614c99610160613bba565b90506000614ca98482850161491f565b6000830152506020614cbd8482850161491f565b6020830152506040614cd18482850161491f565b6040830152506060614ce58482850161491f565b6060830152506080614cf98482850161491f565b60808301525060a0614d0d8482850161491f565b60a08301525060c0614d218482850161491f565b60c08301525060e0614d358482850161491f565b60e083015250610100614d4a8482850161491f565b61010083015250610120614d608482850161491f565b6101208301525061014082015167ffffffffffffffff811115614d8657614d85614c02565b5b614d9284828501614c49565b6101408301525092915050565b600060208284031215614db557614db461394f565b5b600082015167ffffffffffffffff811115614dd357614dd2613954565b5b614ddf84828501614c77565b91505092915050565b7f4e487b7100000000000000000000000000000000000000000000000000000000600052602160045260246000fd5b614e2081613979565b82525050565b6000604082019050614e3b6000830185613a2d565b614e486020830184614e17565b9392505050565b600060608284031215614e6557614e64614bfd565b5b614e6f6060613bba565b90506000614e7f8482850161491f565b6000830152506020614e9384828501614871565b6020830152506040614ea78482850161491f565b60408301525092915050565b600060c08284031215614ec957614ec8614bfd565b5b614ed36080613bba565b90506000614ee384828501614e4f565b600083015250606082015167ffffffffffffffff811115614f0757614f06614c02565b5b614f1384828501614c49565b6020830152506080614f278482850161491f565b60408301525060a0614f3b84828501614ae3565b60608301525092915050565b600060208284031215614f5d57614f5c61394f565b5b600082015167ffffffffffffffff811115614f7b57614f7a613954565b5b614f8784828501614eb3565b91505092915050565b7f6e6f742074656163686572000000000000000000000000000000000000000000600082015250565b6000614fc6600b83613d13565b9150614fd182614f90565b602082019050919050565b60006020820190508181036000830152614ff581614fb9565b9050919050565b7f6578706972656400000000000000000000000000000000000000000000000000600082015250565b6000615032600783613d13565b915061503d82614ffc565b602082019050919050565b6000602082019050818103600083015261506181615025565b9050919050565b6000615073826139b7565b915061507e836139b7565b92508282101561509157615090614a43565b5b828203905092915050565b7f4e487b7100000000000000000000000000000000000000000000000000000000600052603160045260246000fd5b7f4e487b7100000000000000000000000000000000000000000000000000000000600052602260045260246000fd5b6000600282049050600182168061511257607f821691505b602082108103615125576151246150cb565b5b50919050565b600081905092915050565b60008190508160005260206000209050919050565b60008154615158816150fa565b615162818661512b565b9450600182166000811461517d576001811461518e576151c1565b60ff198316865281860193506151c1565b61519785615136565b60005b838110156151b95781548189015260018201915060208101905061519a565b838801955050505b50505092915050565b60006151d582613d08565b6151df818561512b565b93506151ef818560208601613d24565b80840191505092915050565b6000615207828561514b565b915061521382846151ca565b91508190509392505050565b7f455243313135353a2063616c6c6572206973206e6f7420746f6b656e206f776e60008201527f6572206f7220617070726f766564000000000000000000000000000000000000602082015250565b600061527b602e83613d13565b91506152868261521f565b604082019050919050565b600060208201905081810360008301526152aa8161526e565b9050919050565b7f455243313135353a206163636f756e747320616e6420696473206c656e67746860008201527f206d69736d617463680000000000000000000000000000000000000000000000602082015250565b600061530d602983613d13565b9150615318826152b1565b604082019050919050565b6000602082019050818103600083015261533c81615300565b9050919050565b7f5b4e465420436f6d706c65746520436f757273655d204e6f7420657869737400600082015250565b6000615379601f83613d13565b915061538482615343565b602082019050919050565b600060208201905081810360008301526153a88161536c565b9050919050565b6000606082840312156153c5576153c4614bfd565b5b6153cf6060613bba565b905060006153df8482850161491f565b60008301525060206153f38482850161491f565b60208301525060406154078482850161491f565b60408301525092915050565b6000606082840312156154295761542861394f565b5b6000615437848285016153af565b91505092915050565b7f63757272656e7420696e20717565756500000000000000000000000000000000600082015250565b6000615476601083613d13565b915061548182615440565b602082019050919050565b600060208201905081810360008301526154a581615469565b9050919050565b7f455243313135353a206275726e2066726f6d20746865207a65726f206164647260008201527f6573730000000000000000000000000000000000000000000000000000000000602082015250565b6000615508602383613d13565b9150615513826154ac565b604082019050919050565b60006020820190508181036000830152615537816154fb565b9050919050565b7f455243313135353a2069647320616e6420616d6f756e7473206c656e6774682060008201527f6d69736d61746368000000000000000000000000000000000000000000000000602082015250565b600061559a602883613d13565b91506155a58261553e565b604082019050919050565b600060208201905081810360008301526155c98161558d565b9050919050565b7f455243313135353a206275726e20616d6f756e7420657863656564732062616c60008201527f616e636500000000000000000000000000000000000000000000000000000000602082015250565b600061562c602483613d13565b9150615637826155d0565b604082019050919050565b6000602082019050818103600083015261565b8161561f565b9050919050565b6000604082019050818103600083015261567c818561421e565b90508181036020830152615690818461421e565b90509392505050565b7f455243313135353a207472616e7366657220746f20746865207a65726f20616460008201527f6472657373000000000000000000000000000000000000000000000000000000602082015250565b60006156f5602583613d13565b915061570082615699565b604082019050919050565b60006020820190508181036000830152615724816156e8565b9050919050565b7f455243313135353a20696e73756666696369656e742062616c616e636520666f60008201527f72207472616e7366657200000000000000000000000000000000000000000000602082015250565b6000615787602a83613d13565b91506157928261572b565b604082019050919050565b600060208201905081810360008301526157b68161577a565b9050919050565b60006157c8826139b7565b91506157d3836139b7565b9250827fffffffffffffffffffffffffffffffffffffffffffffffffffffffffffffffff0382111561580857615807614a43565b5b828201905092915050565b7f455243313135353a2073657474696e6720617070726f76616c2073746174757360008201527f20666f722073656c660000000000000000000000000000000000000000000000602082015250565b600061586f602983613d13565b915061587a82615813565b604082019050919050565b6000602082019050818103600083015261589e81615862565b9050919050565b7f455243313135353a206d696e7420746f20746865207a65726f2061646472657360008201527f7300000000000000000000000000000000000000000000000000000000000000602082015250565b6000615901602183613d13565b915061590c826158a5565b604082019050919050565b60006020820190508181036000830152615930816158f4565b9050919050565b600081519050919050565b600082825260208201905092915050565b600061595e82615937565b6159688185615942565b9350615978818560208601613d24565b61598181613b49565b840191505092915050565b600060a0820190506159a16000830188614e17565b6159ae6020830187614e17565b81810360408301526159c0818661421e565b905081810360608301526159d4818561421e565b905081810360808301526159e88184615953565b90509695505050505050565b600081519050615a0381613a83565b92915050565b600060208284031215615a1f57615a1e61394f565b5b6000615a2d848285016159f4565b91505092915050565b60008160e01c9050919050565b600060033d1115615a625760046000803e615a5f600051615a36565b90505b90565b600060443d10615af257615a77613945565b60043d036004823e80513d602482011167ffffffffffffffff82111715615a9f575050615af2565b808201805167ffffffffffffffff811115615abd5750505050615af2565b80602083010160043d038501811115615ada575050505050615af2565b615ae982602001850186613b89565b82955050505050505b90565b7f455243313135353a207472616e7366657220746f206e6f6e2d4552433131353560008201527f526563656976657220696d706c656d656e746572000000000000000000000000602082015250565b6000615b51603483613d13565b9150615b5c82615af5565b604082019050919050565b60006020820190508181036000830152615b8081615b44565b9050919050565b7f455243313135353a204552433131353552656365697665722072656a6563746560008201527f6420746f6b656e73000000000000000000000000000000000000000000000000602082015250565b6000615be3602883613d13565b9150615bee82615b87565b604082019050919050565b60006020820190508181036000830152615c1281615bd6565b9050919050565b600060a082019050615c2e6000830188614e17565b615c3b6020830187614e17565b615c486040830186613a2d565b615c556060830185613a2d565b8181036080830152615c678184615953565b9050969550505050505056fea26469706673582212204a84c9299c5321324380b092e49d5142ba0e8499e4ebc338b3a41b5adb53c2db64736f6c634300080d0033",
  "immutableReferences": {
    "4727": [
      {
        "length": 32,
        "start": 1890
      },
      {
        "length": 32,
        "start": 2963
      },
      {
        "length": 32,
        "start": 3146
      },
      {
        "length": 32,
        "start": 5987
      },
      {
        "length": 32,
        "start": 6900
      },
      {
        "length": 32,
        "start": 7830
      }
    ],
    "4730": [
      {
        "length": 32,
        "start": 2800
      },
      {
        "length": 32,
        "start": 7663
      }
    ],
    "4733": [
      {
        "length": 32,
        "start": 2506
      },
      {
        "length": 32,
        "start": 7505
      }
    ]
  },
  "source": "// SPDX-License-Identifier: MIT\r\n// Tells the Solidity compiler to compile only from v0.8.13 to v0.9.0\r\npragma solidity ^0.8.13;\r\n\r\nimport \"./ERC1155BaseContract.sol\";\r\nimport \"./interfaces/INftClassRegistration.sol\";\r\nimport \"./interfaces/INftSchool.sol\";\r\nimport \"./interfaces/INftCertificates.sol\";\r\nimport \"./interfaces/INftGraduation.sol\";\r\nimport \"./interfaces/INftIdentities.sol\";\r\nimport \"./utils/ArrayMath.sol\";\r\n\r\ncontract NftCertificates is ERC1155BaseContract, INftCertificates {\r\n    using Counters for Counters.Counter;\r\n    using ArrayMath for uint256[];\r\n    uint256 constant NFT_COMPLETE_COURSE = 1;\r\n    uint256 constant NFT_GRADUATION = 2;\r\n\r\n    uint256 public graduationPrice = 1 ether;\r\n\r\n    string[] private courseURIs;\r\n    uint256 private _requiredAvgScore = 5 ether;\r\n\r\n    bool private _isInitialize;\r\n\r\n    INftIdentities private immutable _nftIdentities;\r\n    INftSchool private immutable _nftSchool;\r\n    INftClassRegistration private immutable _nftClassRegistration;\r\n    INftGraduation private _nftGraduation;\r\n\r\n    uint256 public registeredStartAt;\r\n    uint256 public registeredEndAt;\r\n    uint256 public yearId;\r\n\r\n    NftCompleteCourse[] private _allNftCompleteCourses;\r\n    mapping(uint256 => mapping(uint256 => uint256)) _posOfTokenIdOfNftType;\r\n\r\n    mapping(uint256 => uint256[]) _studentsOfClass;\r\n    mapping(uint256 => mapping(uint256 => uint256)) _posOfStudentInClass;\r\n    mapping(uint256 => uint256[]) private _studentOwnedCompleteCourseNfts;\r\n    mapping(uint256 => mapping(uint256 => uint256))\r\n        private _posOfOwnedCompleteCourseNft;\r\n\r\n    mapping(uint256 => uint256[]) _nftCompleteCourseQueue;\r\n    mapping(uint256 => mapping(uint256 => uint256)) _posOfStudentInQueue;\r\n\r\n    mapping(uint256 => mapping(uint256 => bool))\r\n        private _completedCoursesOfStudent;\r\n    mapping(address => uint256) private _studentOwnedNftGraduation;\r\n\r\n    event NewCompleteCourseCreated(uint256 tokenId);\r\n\r\n    modifier onlyOwner() {\r\n        require(_owner == msg.sender);\r\n        _;\r\n    }\r\n\r\n    modifier onlyNftSchoolContract() {\r\n        require(msg.sender == address(_nftSchool));\r\n        _;\r\n    }\r\n\r\n    modifier canOperate(uint256 role) {\r\n        require(_nftIdentities.isAbleToOperate(msg.sender, role));\r\n        _;\r\n    }\r\n\r\n    constructor(\r\n        address nftIdentities,\r\n        address nftSchool,\r\n        address nftClassRegistration\r\n    ) ERC1155BaseContract(\"\") {\r\n        _nftIdentities = INftIdentities(nftIdentities);\r\n        _nftSchool = INftSchool(nftSchool);\r\n        _nftClassRegistration = INftClassRegistration(nftClassRegistration);\r\n    }\r\n\r\n    function initialize(address nftGraduation) public onlyOwner {\r\n        require(!_isInitialize);\r\n        _isInitialize = true;\r\n        _nftGraduation = INftGraduation(nftGraduation);\r\n    }\r\n\r\n    function getOwnedNftCompleteCourse()\r\n        external\r\n        view\r\n        returns (NftCompleteCourse[] memory, string[] memory)\r\n    {\r\n        uint256 studentTokenId = _nftIdentities\r\n            .getNftOfMemberWithRole(uint256(ROLE.STUDENT), msg.sender)\r\n            .nftIdentity\r\n            .tokenId;\r\n        uint256 numberOfNftCompleteCourses = _studentOwnedCompleteCourseNfts[\r\n            studentTokenId\r\n        ].length;\r\n\r\n        NftCompleteCourse[] memory nfts = new NftCompleteCourse[](\r\n            numberOfNftCompleteCourses\r\n        );\r\n        string[] memory nftURIs = new string[](numberOfNftCompleteCourses);\r\n\r\n        for (uint256 idx = 0; idx < numberOfNftCompleteCourses; ++idx) {\r\n            (nfts[idx], nftURIs[idx]) = getNftCompleteCourse(\r\n                _studentOwnedCompleteCourseNfts[studentTokenId][idx]\r\n            );\r\n        }\r\n\r\n        return (nfts, nftURIs);\r\n    }\r\n\r\n    function getNftCompleteCourse(\r\n        uint256 tokenId\r\n    ) public view returns (NftCompleteCourse memory, string memory) {\r\n        uint256 pos = _posOfTokenIdOfNftType[NFT_COMPLETE_COURSE][tokenId];\r\n        require(pos > 0, \"[NFT Complete Course] Not exist\");\r\n\r\n        return (_allNftCompleteCourses[pos - 1], uri(tokenId));\r\n    }\r\n\r\n    function checkInQueue(\r\n        uint256 classId,\r\n        uint256 studentTokenId\r\n    ) public view returns (bool) {\r\n        return _posOfStudentInQueue[classId][studentTokenId] > 0;\r\n    }\r\n\r\n    function getNftCompleteCourseCreationQueueByClassId(\r\n        uint256 classId\r\n    ) public view returns (uint256[] memory) {\r\n        return _nftCompleteCourseQueue[classId];\r\n    }\r\n\r\n    function addToNftCompleteCourseCreationQueue(\r\n        uint256 studentTokenId,\r\n        uint256 tokenId\r\n    ) public {\r\n        NftClassRegistration memory nftClassRegistration = _nftClassRegistration\r\n            .getNftClassRegistration(tokenId);\r\n        Class memory class = _nftSchool.getClassById(\r\n            nftClassRegistration.classId\r\n        );\r\n        NftIdentityResponse memory nftIdentityResponse = _nftIdentities\r\n            .getNftOfMemberWithRole(uint256(ROLE.TEACHER), msg.sender);\r\n        require(!nftIdentityResponse.isExpired, \"expired\");\r\n        require(\r\n            class.teacherTokenId == nftIdentityResponse.nftIdentity.tokenId,\r\n            \"not teacher\"\r\n        );\r\n        require(\r\n            _posOfStudentInQueue[nftClassRegistration.classId][\r\n                studentTokenId\r\n            ] == 0,\r\n            \"current in queue\"\r\n        );\r\n        _nftCompleteCourseQueue[nftClassRegistration.classId].push(\r\n            studentTokenId\r\n        );\r\n        _posOfStudentInQueue[nftClassRegistration.classId][\r\n            studentTokenId\r\n        ] = _nftCompleteCourseQueue[nftClassRegistration.classId].length;\r\n    }\r\n\r\n    function grantNftCompleteCourse(\r\n        uint256 studentTokenId,\r\n        uint256 avgScore,\r\n        uint256 classId,\r\n        string memory tokenURI\r\n    ) public {\r\n        require(avgScore >= _requiredAvgScore);\r\n        require(\r\n            _nftClassRegistration.checkNftClassRegistrationRegained(\r\n                studentTokenId,\r\n                classId\r\n            ),\r\n            \"not regained\"\r\n        );\r\n        require(checkInQueue(classId, studentTokenId), \"not in queue\");\r\n        Class memory class = _nftSchool.getClassById(classId);\r\n        NftIdentityResponse memory nftIdentityResponse = _nftIdentities\r\n            .getNftOfMemberWithRole(uint256(ROLE.TEACHER), msg.sender);\r\n        address studentAddr = _nftIdentities.ownerOf(studentTokenId);\r\n        require(\r\n            class.teacherTokenId == nftIdentityResponse.nftIdentity.tokenId,\r\n            \"not teacher\"\r\n        );\r\n        require(!nftIdentityResponse.isExpired, \"expired\");\r\n        uint256 tokenId = _mintToken(\r\n            studentAddr,\r\n            NFT_COMPLETE_COURSE,\r\n            tokenURI\r\n        );\r\n        _createNftCompleteCourse(\r\n            tokenId,\r\n            studentTokenId,\r\n            class.courseId,\r\n            class.knowledgeBlockId,\r\n            class.credits,\r\n            avgScore\r\n        );\r\n        _studentOwnedCompleteCourseNfts[studentTokenId].push(tokenId);\r\n        _posOfOwnedCompleteCourseNft[studentTokenId][\r\n            tokenId\r\n        ] = _studentOwnedCompleteCourseNfts[studentTokenId].length;\r\n        _completedCoursesOfStudent[studentTokenId][class.courseId] = true;\r\n        uint256 pos = _posOfStudentInQueue[classId][studentTokenId];\r\n        uint256 length = _nftCompleteCourseQueue[classId].length;\r\n        if (pos < length) {\r\n            _nftCompleteCourseQueue[classId][pos - 1] = _nftCompleteCourseQueue[\r\n                classId\r\n            ][length - 1];\r\n        }\r\n        _nftCompleteCourseQueue[classId].pop();\r\n        delete _posOfStudentInQueue[classId][studentTokenId];\r\n        emit NewCompleteCourseCreated(tokenId);\r\n    }\r\n\r\n    function _createNftCompleteCourse(\r\n        uint256 tokenId,\r\n        uint256 studentTokenId,\r\n        uint256 courseId,\r\n        uint256 knowledgeBlockId,\r\n        uint256 credits,\r\n        uint256 score\r\n    ) private {\r\n        NftCompleteCourse memory nftCompleteCourse = NftCompleteCourse(\r\n            tokenId,\r\n            studentTokenId,\r\n            courseId,\r\n            knowledgeBlockId,\r\n            credits,\r\n            score\r\n        );\r\n        _allNftCompleteCourses.push(nftCompleteCourse);\r\n        _posOfTokenIdOfNftType[NFT_COMPLETE_COURSE][\r\n            tokenId\r\n        ] = _allNftCompleteCourses.length;\r\n    }\r\n\r\n    function checkCompleteCourse(\r\n        uint256 courseId,\r\n        address studentAddr\r\n    ) public view returns (bool) {\r\n        uint256 studentTokenId = _nftIdentities\r\n            .getNftOfMemberWithRole(uint256(ROLE.STUDENT), studentAddr)\r\n            .nftIdentity\r\n            .tokenId;\r\n        return _completedCoursesOfStudent[studentTokenId][courseId];\r\n    }\r\n\r\n    function approveOwnerForAllNft(bool approved) public {\r\n        setApprovalForAll(_owner, approved);\r\n    }\r\n\r\n    function checkApproveOwnerForAllNft() public view returns (bool) {\r\n        return isApprovedForAll(msg.sender, _owner);\r\n    }\r\n\r\n    function checkApprovedForAll(\r\n        address sender,\r\n        address owner\r\n    ) public view returns (bool) {\r\n        return isApprovedForAll(sender, owner);\r\n    }\r\n\r\n    function regainNftCompleteCourses(uint256 studentTokenId) public onlyOwner {\r\n        address studentAddr = _nftIdentities.ownerOf(studentTokenId);\r\n        require(\r\n            checkApprovedForAll(studentAddr, _owner),\r\n            \"not approved by student\"\r\n        );\r\n        uint256[] memory tokenIds = _nftGraduation\r\n            .getNftCompleteCourseForRequestGraduation(studentTokenId);\r\n        uint256 count = tokenIds.length;\r\n        uint256[] memory amounts = new uint256[](count);\r\n\r\n        for (uint256 idx; idx < count; ++idx) {\r\n            amounts[idx] = 1;\r\n        }\r\n\r\n        _burnBatch(studentAddr, tokenIds, amounts);\r\n        _removeFromAllNftCompleteCourses(studentTokenId, tokenIds);\r\n    }\r\n\r\n    function _removeFromAllNftCompleteCourses(\r\n        uint256 studentTokenId,\r\n        uint256[] memory tokenIds\r\n    ) public {\r\n        uint256 count = tokenIds.length;\r\n\r\n        for (uint256 idx; idx < count; ++idx) {\r\n            uint256 posOfNftCompleteCourse = _posOfTokenIdOfNftType[\r\n                NFT_COMPLETE_COURSE\r\n            ][tokenIds[idx]];\r\n            uint256 posOfLastNftCompleteCourse = _allNftCompleteCourses.length;\r\n\r\n            NftCompleteCourse\r\n                memory deletedNftCompleteCourse = _allNftCompleteCourses[\r\n                    posOfNftCompleteCourse - 1\r\n                ];\r\n            delete _completedCoursesOfStudent[studentTokenId][\r\n                deletedNftCompleteCourse.courseId\r\n            ];\r\n\r\n            // Remove from owned nft complete courses list\r\n            uint256 posOfOwnedCompleteCourse = _posOfOwnedCompleteCourseNft[\r\n                studentTokenId\r\n            ][tokenIds[idx]];\r\n            uint256 posOfLastOwnedCompleteCourse = _studentOwnedCompleteCourseNfts[\r\n                    studentTokenId\r\n                ].length;\r\n            if (posOfOwnedCompleteCourse < posOfLastOwnedCompleteCourse) {\r\n                uint256 lastTokenId = _studentOwnedCompleteCourseNfts[\r\n                    studentTokenId\r\n                ][posOfLastOwnedCompleteCourse - 1];\r\n                _studentOwnedCompleteCourseNfts[studentTokenId][\r\n                    posOfOwnedCompleteCourse - 1\r\n                ] = lastTokenId;\r\n                _posOfOwnedCompleteCourseNft[studentTokenId][\r\n                    lastTokenId\r\n                ] = posOfOwnedCompleteCourse;\r\n            }\r\n            _studentOwnedCompleteCourseNfts[studentTokenId].pop();\r\n\r\n            // Remove from all nft complete courses\r\n            if (posOfNftCompleteCourse < posOfLastNftCompleteCourse) {\r\n                NftCompleteCourse\r\n                    memory lastNftCompleteCourse = _allNftCompleteCourses[\r\n                        posOfLastNftCompleteCourse - 1\r\n                    ];\r\n                _allNftCompleteCourses[\r\n                    posOfNftCompleteCourse - 1\r\n                ] = lastNftCompleteCourse;\r\n                _posOfTokenIdOfNftType[NFT_COMPLETE_COURSE][\r\n                    lastNftCompleteCourse.tokenId\r\n                ] = posOfNftCompleteCourse;\r\n            }\r\n            delete _posOfTokenIdOfNftType[NFT_COMPLETE_COURSE][tokenIds[idx]];\r\n            _allNftCompleteCourses.pop();\r\n        }\r\n    }\r\n\r\n    function checkAllNftCompleteCoursesRegained(\r\n        uint256[] memory tokenIds\r\n    ) public view returns (bool) {\r\n        uint256 count = tokenIds.length;\r\n\r\n        for (uint256 idx; idx < count; ++idx) {\r\n            if (\r\n                _posOfTokenIdOfNftType[NFT_COMPLETE_COURSE][tokenIds[idx]] > 0\r\n            ) {\r\n                return false;\r\n            }\r\n        }\r\n\r\n        return true;\r\n    }\r\n}\r\n",
  "sourcePath": "E:\\learn\\learn-to-earn\\blockchain\\contracts\\NftCertificates.sol",
  "compiler": {
    "name": "solc",
    "version": "0.8.13+commit.abaa5c0e.Emscripten.clang"
  },
  "schemaVersion": "3.4.13",
  "updatedAt": "2023-06-20T05:28:08.902Z",
  "networkType": "ethereum",
  "devdoc": {
    "kind": "dev",
    "methods": {
      "balanceOf(address,uint256)": {
        "details": "See {IERC1155-balanceOf}. Requirements: - `account` cannot be the zero address."
      },
      "balanceOfBatch(address[],uint256[])": {
        "details": "See {IERC1155-balanceOfBatch}. Requirements: - `accounts` and `ids` must have the same length."
      },
      "isApprovedForAll(address,address)": {
        "details": "See {IERC1155-isApprovedForAll}."
      },
      "safeBatchTransferFrom(address,address,uint256[],uint256[],bytes)": {
        "details": "See {IERC1155-safeBatchTransferFrom}."
      },
      "safeTransferFrom(address,address,uint256,uint256,bytes)": {
        "details": "See {IERC1155-safeTransferFrom}."
      },
      "setApprovalForAll(address,bool)": {
        "details": "See {IERC1155-setApprovalForAll}."
      },
      "supportsInterface(bytes4)": {
        "details": "See {IERC165-supportsInterface}."
      },
      "uri(uint256)": {
        "details": "See {IERC1155MetadataURI-uri}. This implementation returns the concatenation of the `_baseURI` and the token-specific uri if the latter is set This enables the following behaviors: - if `_tokenURIs[tokenId]` is set, then the result is the concatenation   of `_baseURI` and `_tokenURIs[tokenId]` (keep in mind that `_baseURI`   is empty per default); - if `_tokenURIs[tokenId]` is NOT set then we fallback to `super.uri()`   which in most cases will contain `ERC1155._uri`; - if `_tokenURIs[tokenId]` is NOT set, and if the parents do not have a   uri value set, then the result is empty."
      }
    },
    "version": 1
  },
  "userdoc": {
    "kind": "user",
    "methods": {},
    "version": 1
  }
}