{
  "contractName": "NftGraduation",
  "abi": [
    {
      "inputs": [
        {
          "internalType": "address",
          "name": "nftIdentities",
          "type": "address"
        },
        {
          "internalType": "address",
          "name": "nftSchool",
          "type": "address"
        },
        {
          "internalType": "address",
          "name": "nftCertificates",
          "type": "address"
        }
      ],
      "stateMutability": "nonpayable",
      "type": "constructor"
    },
    {
      "anonymous": false,
      "inputs": [
        {
          "indexed": true,
          "internalType": "address",
          "name": "owner",
          "type": "address"
        },
        {
          "indexed": true,
          "internalType": "address",
          "name": "approved",
          "type": "address"
        },
        {
          "indexed": true,
          "internalType": "uint256",
          "name": "tokenId",
          "type": "uint256"
        }
      ],
      "name": "Approval",
      "type": "event"
    },
    {
      "anonymous": false,
      "inputs": [
        {
          "indexed": true,
          "internalType": "address",
          "name": "owner",
          "type": "address"
        },
        {
          "indexed": true,
          "internalType": "address",
          "name": "operator",
          "type": "address"
        },
        {
          "indexed": false,
          "internalType": "bool",
          "name": "approved",
          "type": "bool"
        }
      ],
      "name": "ApprovalForAll",
      "type": "event"
    },
    {
      "anonymous": false,
      "inputs": [
        {
          "indexed": false,
          "internalType": "uint256",
          "name": "tokenId",
          "type": "uint256"
        }
      ],
      "name": "GrantNewNftGraduation",
      "type": "event"
    },
    {
      "anonymous": false,
      "inputs": [
        {
          "indexed": true,
          "internalType": "address",
          "name": "from",
          "type": "address"
        },
        {
          "indexed": true,
          "internalType": "address",
          "name": "to",
          "type": "address"
        },
        {
          "indexed": true,
          "internalType": "uint256",
          "name": "tokenId",
          "type": "uint256"
        }
      ],
      "name": "Transfer",
      "type": "event"
    },
    {
      "inputs": [
        {
          "internalType": "address",
          "name": "to",
          "type": "address"
        },
        {
          "internalType": "uint256",
          "name": "tokenId",
          "type": "uint256"
        }
      ],
      "name": "approve",
      "outputs": [],
      "stateMutability": "nonpayable",
      "type": "function"
    },
    {
      "inputs": [
        {
          "internalType": "address",
          "name": "owner",
          "type": "address"
        }
      ],
      "name": "balanceOf",
      "outputs": [
        {
          "internalType": "uint256",
          "name": "",
          "type": "uint256"
        }
      ],
      "stateMutability": "view",
      "type": "function",
      "constant": true
    },
    {
      "inputs": [
        {
          "internalType": "uint256",
          "name": "tokenId",
          "type": "uint256"
        }
      ],
      "name": "getApproved",
      "outputs": [
        {
          "internalType": "address",
          "name": "",
          "type": "address"
        }
      ],
      "stateMutability": "view",
      "type": "function",
      "constant": true
    },
    {
      "inputs": [
        {
          "internalType": "address",
          "name": "owner",
          "type": "address"
        },
        {
          "internalType": "address",
          "name": "operator",
          "type": "address"
        }
      ],
      "name": "isApprovedForAll",
      "outputs": [
        {
          "internalType": "bool",
          "name": "",
          "type": "bool"
        }
      ],
      "stateMutability": "view",
      "type": "function",
      "constant": true
    },
    {
      "inputs": [],
      "name": "name",
      "outputs": [
        {
          "internalType": "string",
          "name": "",
          "type": "string"
        }
      ],
      "stateMutability": "view",
      "type": "function",
      "constant": true
    },
    {
      "inputs": [
        {
          "internalType": "uint256",
          "name": "tokenId",
          "type": "uint256"
        }
      ],
      "name": "ownerOf",
      "outputs": [
        {
          "internalType": "address",
          "name": "",
          "type": "address"
        }
      ],
      "stateMutability": "view",
      "type": "function",
      "constant": true
    },
    {
      "inputs": [],
      "name": "requestGraduationCertificatePrice",
      "outputs": [
        {
          "internalType": "uint256",
          "name": "",
          "type": "uint256"
        }
      ],
      "stateMutability": "view",
      "type": "function",
      "constant": true
    },
    {
      "inputs": [
        {
          "internalType": "address",
          "name": "from",
          "type": "address"
        },
        {
          "internalType": "address",
          "name": "to",
          "type": "address"
        },
        {
          "internalType": "uint256",
          "name": "tokenId",
          "type": "uint256"
        }
      ],
      "name": "safeTransferFrom",
      "outputs": [],
      "stateMutability": "nonpayable",
      "type": "function"
    },
    {
      "inputs": [
        {
          "internalType": "address",
          "name": "from",
          "type": "address"
        },
        {
          "internalType": "address",
          "name": "to",
          "type": "address"
        },
        {
          "internalType": "uint256",
          "name": "tokenId",
          "type": "uint256"
        },
        {
          "internalType": "bytes",
          "name": "data",
          "type": "bytes"
        }
      ],
      "name": "safeTransferFrom",
      "outputs": [],
      "stateMutability": "nonpayable",
      "type": "function"
    },
    {
      "inputs": [
        {
          "internalType": "address",
          "name": "operator",
          "type": "address"
        },
        {
          "internalType": "bool",
          "name": "approved",
          "type": "bool"
        }
      ],
      "name": "setApprovalForAll",
      "outputs": [],
      "stateMutability": "nonpayable",
      "type": "function"
    },
    {
      "inputs": [
        {
          "internalType": "bytes4",
          "name": "interfaceId",
          "type": "bytes4"
        }
      ],
      "name": "supportsInterface",
      "outputs": [
        {
          "internalType": "bool",
          "name": "",
          "type": "bool"
        }
      ],
      "stateMutability": "view",
      "type": "function",
      "constant": true
    },
    {
      "inputs": [],
      "name": "symbol",
      "outputs": [
        {
          "internalType": "string",
          "name": "",
          "type": "string"
        }
      ],
      "stateMutability": "view",
      "type": "function",
      "constant": true
    },
    {
      "inputs": [
        {
          "internalType": "uint256",
          "name": "tokenId",
          "type": "uint256"
        }
      ],
      "name": "tokenURI",
      "outputs": [
        {
          "internalType": "string",
          "name": "",
          "type": "string"
        }
      ],
      "stateMutability": "view",
      "type": "function",
      "constant": true
    },
    {
      "inputs": [
        {
          "internalType": "address",
          "name": "from",
          "type": "address"
        },
        {
          "internalType": "address",
          "name": "to",
          "type": "address"
        },
        {
          "internalType": "uint256",
          "name": "tokenId",
          "type": "uint256"
        }
      ],
      "name": "transferFrom",
      "outputs": [],
      "stateMutability": "nonpayable",
      "type": "function"
    },
    {
      "inputs": [
        {
          "internalType": "uint256",
          "name": "studentTokenId",
          "type": "uint256"
        }
      ],
      "name": "getNftCompleteCourseForRequestGraduation",
      "outputs": [
        {
          "internalType": "uint256[]",
          "name": "",
          "type": "uint256[]"
        }
      ],
      "stateMutability": "view",
      "type": "function",
      "constant": true
    },
    {
      "inputs": [
        {
          "internalType": "uint256[]",
          "name": "nftCompleteCourseTokenIds",
          "type": "uint256[]"
        }
      ],
      "name": "requestGraduationCertificate",
      "outputs": [],
      "stateMutability": "payable",
      "type": "function",
      "payable": true
    },
    {
      "inputs": [
        {
          "internalType": "uint256",
          "name": "studentTokenId",
          "type": "uint256"
        },
        {
          "internalType": "string",
          "name": "tokenURI",
          "type": "string"
        }
      ],
      "name": "grantNftGraduation",
      "outputs": [],
      "stateMutability": "nonpayable",
      "type": "function"
    }
  ],
  "bytecode": "0x60806040526706f05b59d3b20000600a55674563918244f40000600e553480156200002957600080fd5b50604051620043613803806200436183398181016040528101906200004f919062000335565b6040518060400160405280600d81526020017f4e667447726164756174696f6e000000000000000000000000000000000000008152506040518060400160405280600381526020017f4e4352000000000000000000000000000000000000000000000000000000000081525081818160009080519060200190620000d59291906200021b565b508060019080519060200190620000ee9291906200021b565b50505033600760006101000a81548173ffffffffffffffffffffffffffffffffffffffff021916908373ffffffffffffffffffffffffffffffffffffffff16021790555050506000600d60146101000a81548160ff02191690831515021790555082600c60006101000a81548173ffffffffffffffffffffffffffffffffffffffff021916908373ffffffffffffffffffffffffffffffffffffffff16021790555081600b60006101000a81548173ffffffffffffffffffffffffffffffffffffffff021916908373ffffffffffffffffffffffffffffffffffffffff16021790555080600d60006101000a81548173ffffffffffffffffffffffffffffffffffffffff021916908373ffffffffffffffffffffffffffffffffffffffff160217905550505050620003f5565b8280546200022990620003c0565b90600052602060002090601f0160209004810192826200024d576000855562000299565b82601f106200026857805160ff191683800117855562000299565b8280016001018555821562000299579182015b82811115620002985782518255916020019190600101906200027b565b5b509050620002a89190620002ac565b5090565b5b80821115620002c7576000816000905550600101620002ad565b5090565b600080fd5b600073ffffffffffffffffffffffffffffffffffffffff82169050919050565b6000620002fd82620002d0565b9050919050565b6200030f81620002f0565b81146200031b57600080fd5b50565b6000815190506200032f8162000304565b92915050565b600080600060608486031215620003515762000350620002cb565b5b600062000361868287016200031e565b935050602062000374868287016200031e565b925050604062000387868287016200031e565b9150509250925092565b7f4e487b7100000000000000000000000000000000000000000000000000000000600052602260045260246000fd5b60006002820490506001821680620003d957607f821691505b602082108103620003ef57620003ee62000391565b5b50919050565b613f5c80620004056000396000f3fe6080604052600436106100fe5760003560e01c806370a0823111610095578063b88d4fde11610064578063b88d4fde14610336578063c000fb081461035f578063c87b56dd1461039c578063cdeb9180146103d9578063e985e9c514610404576100fe565b806370a082311461028957806393df686a146102c657806395d89b41146102e2578063a22cb4651461030d576100fe565b806323b872dd116100d157806323b872dd146101d157806342842e0e146101fa57806359f2e641146102235780636352211e1461024c576100fe565b806301ffc9a71461010357806306fdde0314610140578063081812fc1461016b578063095ea7b3146101a8575b600080fd5b34801561010f57600080fd5b5061012a6004803603810190610125919061260f565b610441565b6040516101379190612657565b60405180910390f35b34801561014c57600080fd5b50610155610523565b604051610162919061270b565b60405180910390f35b34801561017757600080fd5b50610192600480360381019061018d9190612763565b6105b5565b60405161019f91906127d1565b60405180910390f35b3480156101b457600080fd5b506101cf60048036038101906101ca9190612818565b6105fb565b005b3480156101dd57600080fd5b506101f860048036038101906101f39190612858565b610712565b005b34801561020657600080fd5b50610221600480360381019061021c9190612858565b610772565b005b34801561022f57600080fd5b5061024a600480360381019061024591906129e0565b610792565b005b34801561025857600080fd5b50610273600480360381019061026e9190612763565b610b85565b60405161028091906127d1565b60405180910390f35b34801561029557600080fd5b506102b060048036038101906102ab9190612a3c565b610c0b565b6040516102bd9190612a78565b60405180910390f35b6102e060048036038101906102db9190612b5b565b610cc2565b005b3480156102ee57600080fd5b506102f761122f565b604051610304919061270b565b60405180910390f35b34801561031957600080fd5b50610334600480360381019061032f9190612bd0565b6112c1565b005b34801561034257600080fd5b5061035d60048036038101906103589190612cb1565b6112d7565b005b34801561036b57600080fd5b5061038660048036038101906103819190612763565b611339565b6040516103939190612df2565b60405180910390f35b3480156103a857600080fd5b506103c360048036038101906103be9190612763565b6113a4565b6040516103d0919061270b565b60405180910390f35b3480156103e557600080fd5b506103ee6114b6565b6040516103fb9190612a78565b60405180910390f35b34801561041057600080fd5b5061042b60048036038101906104269190612e14565b6114bc565b6040516104389190612657565b60405180910390f35b60007f80ac58cd000000000000000000000000000000000000000000000000000000007bffffffffffffffffffffffffffffffffffffffffffffffffffffffff1916827bffffffffffffffffffffffffffffffffffffffffffffffffffffffff1916148061050c57507f5b5e139f000000000000000000000000000000000000000000000000000000007bffffffffffffffffffffffffffffffffffffffffffffffffffffffff1916827bffffffffffffffffffffffffffffffffffffffffffffffffffffffff1916145b8061051c575061051b82611550565b5b9050919050565b60606000805461053290612e83565b80601f016020809104026020016040519081016040528092919081815260200182805461055e90612e83565b80156105ab5780601f10610580576101008083540402835291602001916105ab565b820191906000526020600020905b81548152906001019060200180831161058e57829003601f168201915b5050505050905090565b60006105c0826115ba565b6004600083815260200190815260200160002060009054906101000a900473ffffffffffffffffffffffffffffffffffffffff169050919050565b600061060682610b85565b90508073ffffffffffffffffffffffffffffffffffffffff168373ffffffffffffffffffffffffffffffffffffffff1603610676576040517f08c379a000000000000000000000000000000000000000000000000000000000815260040161066d90612f26565b60405180910390fd5b8073ffffffffffffffffffffffffffffffffffffffff16610695611605565b73ffffffffffffffffffffffffffffffffffffffff1614806106c457506106c3816106be611605565b6114bc565b5b610703576040517f08c379a00000000000000000000000000000000000000000000000000000000081526004016106fa90612fb8565b60405180910390fd5b61070d838361160d565b505050565b61072361071d611605565b826116c6565b610762576040517f08c379a00000000000000000000000000000000000000000000000000000000081526004016107599061304a565b60405180910390fd5b61076d83838361175b565b505050565b61078d838383604051806020016040528060008152506112d7565b505050565b3373ffffffffffffffffffffffffffffffffffffffff16600760009054906101000a900473ffffffffffffffffffffffffffffffffffffffff1673ffffffffffffffffffffffffffffffffffffffff16146107ec57600080fd5b6000601060008481526020019081526020016000205411610842576040517f08c379a0000000000000000000000000000000000000000000000000000000008152600401610839906130dc565b60405180910390fd5b6000601160008481526020019081526020016000208054806020026020016040519081016040528092919081815260200182805480156108a157602002820191906000526020600020905b81548152602001906001019080831161088d575b50505050509050600d60009054906101000a900473ffffffffffffffffffffffffffffffffffffffff1673ffffffffffffffffffffffffffffffffffffffff166359619d31826040518263ffffffff1660e01b81526004016109039190612df2565b602060405180830381865afa158015610920573d6000803e3d6000fd5b505050506040513d601f19601f820116820180604052508101906109449190613111565b610983576040517f08c379a000000000000000000000000000000000000000000000000000000000815260040161097a9061318a565b60405180910390fd5b600061098f3384611a54565b9050600060405180604001604052808381526020018681525090506012819080600181540180825580915050600190039060005260206000209060020201600090919091909150600082015181600001556020820151816001015550506012805490506013600084815260200190815260200160002081905550816014600087815260200190815260200160002081905550601160008681526020019081526020016000206000610a409190612492565b6000601060008781526020019081526020016000205490506000600f80549050905080821015610b0657600f600182610a7991906131d9565b81548110610a8a57610a8961320d565b5b9060005260206000200154600f600184610aa491906131d9565b81548110610ab557610ab461320d565b5b90600052602060002001819055508160106000600f600185610ad791906131d9565b81548110610ae857610ae761320d565b5b90600052602060002001548152602001908152602001600020819055505b600f805480610b1857610b1761323c565b5b6001900381819060005260206000200160009055905560106000888152602001908152602001600020600090557facb3849a125f4bedb6599365b4242ab6d2cdc08aca6d7cd4cfe34708c680f62384604051610b749190612a78565b60405180910390a150505050505050565b600080610b9183611ac5565b9050600073ffffffffffffffffffffffffffffffffffffffff168173ffffffffffffffffffffffffffffffffffffffff1603610c02576040517f08c379a0000000000000000000000000000000000000000000000000000000008152600401610bf9906132b7565b60405180910390fd5b80915050919050565b60008073ffffffffffffffffffffffffffffffffffffffff168273ffffffffffffffffffffffffffffffffffffffff1603610c7b576040517f08c379a0000000000000000000000000000000000000000000000000000000008152600401610c7290613349565b60405180910390fd5b600360008373ffffffffffffffffffffffffffffffffffffffff1673ffffffffffffffffffffffffffffffffffffffff168152602001908152602001600020549050919050565b6000600c60009054906101000a900473ffffffffffffffffffffffffffffffffffffffff1673ffffffffffffffffffffffffffffffffffffffff166352db77c460006001811115610d1657610d15613369565b5b336040518363ffffffff1660e01b8152600401610d34929190613398565b600060405180830381865afa158015610d51573d6000803e3d6000fd5b505050506040513d6000823e3d601f19601f82011682018060405250810190610d7a919061355d565b9050806060015115610d8b57600080fd5b600a543414610d9957600080fd5b600d60009054906101000a900473ffffffffffffffffffffffffffffffffffffffff1673ffffffffffffffffffffffffffffffffffffffff1663422b0a5033600760009054906101000a900473ffffffffffffffffffffffffffffffffffffffff166040518363ffffffff1660e01b8152600401610e189291906135a6565b602060405180830381865afa158015610e35573d6000803e3d6000fd5b505050506040513d601f19601f82011682018060405250810190610e599190613111565b610e6257600080fd5b6000825190506000600b60009054906101000a900473ffffffffffffffffffffffffffffffffffffffff1673ffffffffffffffffffffffffffffffffffffffff16635f7b9d736040518163ffffffff1660e01b8152600401600060405180830381865afa158015610ed7573d6000803e3d6000fd5b505050506040513d6000823e3d601f19601f82011682018060405250810190610f0091906136e2565b905060008151905060008060008367ffffffffffffffff811115610f2757610f266128b5565b5b604051908082528060200260200182016040528015610f555781602001602082028036833780820191505090505b50905060005b868110156110e6576000600d60009054906101000a900473ffffffffffffffffffffffffffffffffffffffff1673ffffffffffffffffffffffffffffffffffffffff166385c7744c8b8481518110610fb657610fb561320d565b5b60200260200101516040518263ffffffff1660e01b8152600401610fda9190612a78565b600060405180830381865afa158015610ff7573d6000803e3d6000fd5b505050506040513d6000823e3d601f19601f8201168201806040525081019061102091906137cb565b50905060018160a001511461106a576040517f08c379a000000000000000000000000000000000000000000000000000000000815260040161106190613873565b60405180910390fd5b8060600151838260400151815181106110865761108561320d565b5b6020026020010181815161109a9190613893565b915081815250508060600151846110b19190613893565b9350806080015181608001516110c791906138e9565b856110d29190613893565b945050806110df90613943565b9050610f5b565b5060005b8481101561117e578581815181106111055761110461320d565b5b6020026020010151602001518286815181106111245761112361320d565b5b6020026020010151101561116d576040517f08c379a0000000000000000000000000000000000000000000000000000000008152600401611164906139d7565b60405180910390fd5b8061117790613943565b90506110ea565b506000828461118d9190613a26565b9050600e5481101561119e57600080fd5b88601160008a6000015160000151815260200190815260200160002090805190602001906111cd9291906124b3565b50600f8860000151600001519080600181540180825580915050600190039060005260206000200160009091909190915055600f80549050601060008a6000015160000151815260200190815260200160002081905550505050505050505050565b60606001805461123e90612e83565b80601f016020809104026020016040519081016040528092919081815260200182805461126a90612e83565b80156112b75780601f1061128c576101008083540402835291602001916112b7565b820191906000526020600020905b81548152906001019060200180831161129a57829003601f168201915b5050505050905090565b6112d36112cc611605565b8383611b02565b5050565b6112e86112e2611605565b836116c6565b611327576040517f08c379a000000000000000000000000000000000000000000000000000000000815260040161131e9061304a565b60405180910390fd5b61133384848484611c6e565b50505050565b60606011600083815260200190815260200160002080548060200260200160405190810160405280929190818152602001828054801561139857602002820191906000526020600020905b815481526020019060010190808311611384575b50505050509050919050565b60606113af826115ba565b60006006600084815260200190815260200160002080546113cf90612e83565b80601f01602080910402602001604051908101604052809291908181526020018280546113fb90612e83565b80156114485780601f1061141d57610100808354040283529160200191611448565b820191906000526020600020905b81548152906001019060200180831161142b57829003601f168201915b505050505090506000611459611cca565b9050600081510361146e5781925050506114b1565b6000825111156114a357808260405160200161148b929190613a93565b604051602081830303815290604052925050506114b1565b6114ac84611ce1565b925050505b919050565b600a5481565b6000600560008473ffffffffffffffffffffffffffffffffffffffff1673ffffffffffffffffffffffffffffffffffffffff16815260200190815260200160002060008373ffffffffffffffffffffffffffffffffffffffff1673ffffffffffffffffffffffffffffffffffffffff16815260200190815260200160002060009054906101000a900460ff16905092915050565b60007f01ffc9a7000000000000000000000000000000000000000000000000000000007bffffffffffffffffffffffffffffffffffffffffffffffffffffffff1916827bffffffffffffffffffffffffffffffffffffffffffffffffffffffff1916149050919050565b6115c381611d49565b611602576040517f08c379a00000000000000000000000000000000000000000000000000000000081526004016115f9906132b7565b60405180910390fd5b50565b600033905090565b816004600083815260200190815260200160002060006101000a81548173ffffffffffffffffffffffffffffffffffffffff021916908373ffffffffffffffffffffffffffffffffffffffff160217905550808273ffffffffffffffffffffffffffffffffffffffff1661168083610b85565b73ffffffffffffffffffffffffffffffffffffffff167f8c5be1e5ebec7d5bd14f71427d1e84f3dd0314c0f7b2291e5b200ac8c7c3b92560405160405180910390a45050565b6000806116d283610b85565b90508073ffffffffffffffffffffffffffffffffffffffff168473ffffffffffffffffffffffffffffffffffffffff161480611714575061171381856114bc565b5b8061175257508373ffffffffffffffffffffffffffffffffffffffff1661173a846105b5565b73ffffffffffffffffffffffffffffffffffffffff16145b91505092915050565b8273ffffffffffffffffffffffffffffffffffffffff1661177b82610b85565b73ffffffffffffffffffffffffffffffffffffffff16146117d1576040517f08c379a00000000000000000000000000000000000000000000000000000000081526004016117c890613b29565b60405180910390fd5b600073ffffffffffffffffffffffffffffffffffffffff168273ffffffffffffffffffffffffffffffffffffffff1603611840576040517f08c379a000000000000000000000000000000000000000000000000000000000815260040161183790613bbb565b60405180910390fd5b61184d8383836001611d8a565b8273ffffffffffffffffffffffffffffffffffffffff1661186d82610b85565b73ffffffffffffffffffffffffffffffffffffffff16146118c3576040517f08c379a00000000000000000000000000000000000000000000000000000000081526004016118ba90613b29565b60405180910390fd5b6004600082815260200190815260200160002060006101000a81549073ffffffffffffffffffffffffffffffffffffffff02191690556001600360008573ffffffffffffffffffffffffffffffffffffffff1673ffffffffffffffffffffffffffffffffffffffff168152602001908152602001600020600082825403925050819055506001600360008473ffffffffffffffffffffffffffffffffffffffff1673ffffffffffffffffffffffffffffffffffffffff16815260200190815260200160002060008282540192505081905550816002600083815260200190815260200160002060006101000a81548173ffffffffffffffffffffffffffffffffffffffff021916908373ffffffffffffffffffffffffffffffffffffffff160217905550808273ffffffffffffffffffffffffffffffffffffffff168473ffffffffffffffffffffffffffffffffffffffff167fddf252ad1be2c89b69c2b068fc378daa952ba7f163c4a11628f55a4df523b3ef60405160405180910390a4611a4f8383836001611d90565b505050565b600080611a5f611d96565b9050611ab184826000368080601f016020809104026020016040519081016040528093929190818152602001838380828437600081840152601f19601f82011690508083019250505050505050611db7565b611abb8184611e12565b8091505092915050565b60006002600083815260200190815260200160002060009054906101000a900473ffffffffffffffffffffffffffffffffffffffff169050919050565b8173ffffffffffffffffffffffffffffffffffffffff168373ffffffffffffffffffffffffffffffffffffffff1603611b70576040517f08c379a0000000000000000000000000000000000000000000000000000000008152600401611b6790613c27565b60405180910390fd5b80600560008573ffffffffffffffffffffffffffffffffffffffff1673ffffffffffffffffffffffffffffffffffffffff16815260200190815260200160002060008473ffffffffffffffffffffffffffffffffffffffff1673ffffffffffffffffffffffffffffffffffffffff16815260200190815260200160002060006101000a81548160ff0219169083151502179055508173ffffffffffffffffffffffffffffffffffffffff168373ffffffffffffffffffffffffffffffffffffffff167f17307eab39ab6107e8899845ad3d59bd9653f200f220920489ca2b5937696c3183604051611c619190612657565b60405180910390a3505050565b611c7984848461175b565b611c8584848484611e86565b611cc4576040517f08c379a0000000000000000000000000000000000000000000000000000000008152600401611cbb90613cb9565b60405180910390fd5b50505050565b606060405180602001604052806000815250905090565b6060611cec826115ba565b6000611cf6611cca565b90506000815111611d165760405180602001604052806000815250611d41565b80611d208461200d565b604051602001611d31929190613a93565b6040516020818303038152906040525b915050919050565b60008073ffffffffffffffffffffffffffffffffffffffff16611d6b83611ac5565b73ffffffffffffffffffffffffffffffffffffffff1614159050919050565b50505050565b50505050565b6000611da260086120db565b6000611dae60086120f1565b90508091505090565b611dc183836120ff565b611dce6000848484611e86565b611e0d576040517f08c379a0000000000000000000000000000000000000000000000000000000008152600401611e0490613cb9565b60405180910390fd5b505050565b611e1b82611d49565b611e5a576040517f08c379a0000000000000000000000000000000000000000000000000000000008152600401611e5190613d4b565b60405180910390fd5b80600660008481526020019081526020016000209080519060200190611e81929190612500565b505050565b6000611ea78473ffffffffffffffffffffffffffffffffffffffff1661231c565b15612000578373ffffffffffffffffffffffffffffffffffffffff1663150b7a02611ed0611605565b8786866040518563ffffffff1660e01b8152600401611ef29493929190613dc0565b6020604051808303816000875af1925050508015611f2e57506040513d601f19601f82011682018060405250810190611f2b9190613e21565b60015b611fb0573d8060008114611f5e576040519150601f19603f3d011682016040523d82523d6000602084013e611f63565b606091505b506000815103611fa8576040517f08c379a0000000000000000000000000000000000000000000000000000000008152600401611f9f90613cb9565b60405180910390fd5b805181602001fd5b63150b7a0260e01b7bffffffffffffffffffffffffffffffffffffffffffffffffffffffff1916817bffffffffffffffffffffffffffffffffffffffffffffffffffffffff191614915050612005565b600190505b949350505050565b60606000600161201c8461233f565b01905060008167ffffffffffffffff81111561203b5761203a6128b5565b5b6040519080825280601f01601f19166020018201604052801561206d5781602001600182028036833780820191505090505b509050600082602001820190505b6001156120d0578080600190039150507f3031323334353637383961626364656600000000000000000000000000000000600a86061a8153600a85816120c4576120c36139f7565b5b0494506000850361207b575b819350505050919050565b6001816000016000828254019250508190555050565b600081600001549050919050565b600073ffffffffffffffffffffffffffffffffffffffff168273ffffffffffffffffffffffffffffffffffffffff160361216e576040517f08c379a000000000000000000000000000000000000000000000000000000000815260040161216590613e9a565b60405180910390fd5b61217781611d49565b156121b7576040517f08c379a00000000000000000000000000000000000000000000000000000000081526004016121ae90613f06565b60405180910390fd5b6121c5600083836001611d8a565b6121ce81611d49565b1561220e576040517f08c379a000000000000000000000000000000000000000000000000000000000815260040161220590613f06565b60405180910390fd5b6001600360008473ffffffffffffffffffffffffffffffffffffffff1673ffffffffffffffffffffffffffffffffffffffff16815260200190815260200160002060008282540192505081905550816002600083815260200190815260200160002060006101000a81548173ffffffffffffffffffffffffffffffffffffffff021916908373ffffffffffffffffffffffffffffffffffffffff160217905550808273ffffffffffffffffffffffffffffffffffffffff16600073ffffffffffffffffffffffffffffffffffffffff167fddf252ad1be2c89b69c2b068fc378daa952ba7f163c4a11628f55a4df523b3ef60405160405180910390a4612318600083836001611d90565b5050565b6000808273ffffffffffffffffffffffffffffffffffffffff163b119050919050565b600080600090507a184f03e93ff9f4daa797ed6e38ed64bf6a1f010000000000000000831061239d577a184f03e93ff9f4daa797ed6e38ed64bf6a1f0100000000000000008381612393576123926139f7565b5b0492506040810190505b6d04ee2d6d415b85acef810000000083106123da576d04ee2d6d415b85acef810000000083816123d0576123cf6139f7565b5b0492506020810190505b662386f26fc10000831061240957662386f26fc1000083816123ff576123fe6139f7565b5b0492506010810190505b6305f5e1008310612432576305f5e1008381612428576124276139f7565b5b0492506008810190505b612710831061245757612710838161244d5761244c6139f7565b5b0492506004810190505b6064831061247a57606483816124705761246f6139f7565b5b0492506002810190505b600a8310612489576001810190505b80915050919050565b50805460008255906000526020600020908101906124b09190612586565b50565b8280548282559060005260206000209081019282156124ef579160200282015b828111156124ee5782518255916020019190600101906124d3565b5b5090506124fc9190612586565b5090565b82805461250c90612e83565b90600052602060002090601f01602090048101928261252e5760008555612575565b82601f1061254757805160ff1916838001178555612575565b82800160010185558215612575579182015b82811115612574578251825591602001919060010190612559565b5b5090506125829190612586565b5090565b5b8082111561259f576000816000905550600101612587565b5090565b6000604051905090565b600080fd5b600080fd5b60007fffffffff0000000000000000000000000000000000000000000000000000000082169050919050565b6125ec816125b7565b81146125f757600080fd5b50565b600081359050612609816125e3565b92915050565b600060208284031215612625576126246125ad565b5b6000612633848285016125fa565b91505092915050565b60008115159050919050565b6126518161263c565b82525050565b600060208201905061266c6000830184612648565b92915050565b600081519050919050565b600082825260208201905092915050565b60005b838110156126ac578082015181840152602081019050612691565b838111156126bb576000848401525b50505050565b6000601f19601f8301169050919050565b60006126dd82612672565b6126e7818561267d565b93506126f781856020860161268e565b612700816126c1565b840191505092915050565b6000602082019050818103600083015261272581846126d2565b905092915050565b6000819050919050565b6127408161272d565b811461274b57600080fd5b50565b60008135905061275d81612737565b92915050565b600060208284031215612779576127786125ad565b5b60006127878482850161274e565b91505092915050565b600073ffffffffffffffffffffffffffffffffffffffff82169050919050565b60006127bb82612790565b9050919050565b6127cb816127b0565b82525050565b60006020820190506127e660008301846127c2565b92915050565b6127f5816127b0565b811461280057600080fd5b50565b600081359050612812816127ec565b92915050565b6000806040838503121561282f5761282e6125ad565b5b600061283d85828601612803565b925050602061284e8582860161274e565b9150509250929050565b600080600060608486031215612871576128706125ad565b5b600061287f86828701612803565b935050602061289086828701612803565b92505060406128a18682870161274e565b9150509250925092565b600080fd5b600080fd5b7f4e487b7100000000000000000000000000000000000000000000000000000000600052604160045260246000fd5b6128ed826126c1565b810181811067ffffffffffffffff8211171561290c5761290b6128b5565b5b80604052505050565b600061291f6125a3565b905061292b82826128e4565b919050565b600067ffffffffffffffff82111561294b5761294a6128b5565b5b612954826126c1565b9050602081019050919050565b82818337600083830152505050565b600061298361297e84612930565b612915565b90508281526020810184848401111561299f5761299e6128b0565b5b6129aa848285612961565b509392505050565b600082601f8301126129c7576129c66128ab565b5b81356129d7848260208601612970565b91505092915050565b600080604083850312156129f7576129f66125ad565b5b6000612a058582860161274e565b925050602083013567ffffffffffffffff811115612a2657612a256125b2565b5b612a32858286016129b2565b9150509250929050565b600060208284031215612a5257612a516125ad565b5b6000612a6084828501612803565b91505092915050565b612a728161272d565b82525050565b6000602082019050612a8d6000830184612a69565b92915050565b600067ffffffffffffffff821115612aae57612aad6128b5565b5b602082029050602081019050919050565b600080fd5b6000612ad7612ad284612a93565b612915565b90508083825260208201905060208402830185811115612afa57612af9612abf565b5b835b81811015612b235780612b0f888261274e565b845260208401935050602081019050612afc565b5050509392505050565b600082601f830112612b4257612b416128ab565b5b8135612b52848260208601612ac4565b91505092915050565b600060208284031215612b7157612b706125ad565b5b600082013567ffffffffffffffff811115612b8f57612b8e6125b2565b5b612b9b84828501612b2d565b91505092915050565b612bad8161263c565b8114612bb857600080fd5b50565b600081359050612bca81612ba4565b92915050565b60008060408385031215612be757612be66125ad565b5b6000612bf585828601612803565b9250506020612c0685828601612bbb565b9150509250929050565b600067ffffffffffffffff821115612c2b57612c2a6128b5565b5b612c34826126c1565b9050602081019050919050565b6000612c54612c4f84612c10565b612915565b905082815260208101848484011115612c7057612c6f6128b0565b5b612c7b848285612961565b509392505050565b600082601f830112612c9857612c976128ab565b5b8135612ca8848260208601612c41565b91505092915050565b60008060008060808587031215612ccb57612cca6125ad565b5b6000612cd987828801612803565b9450506020612cea87828801612803565b9350506040612cfb8782880161274e565b925050606085013567ffffffffffffffff811115612d1c57612d1b6125b2565b5b612d2887828801612c83565b91505092959194509250565b600081519050919050565b600082825260208201905092915050565b6000819050602082019050919050565b612d698161272d565b82525050565b6000612d7b8383612d60565b60208301905092915050565b6000602082019050919050565b6000612d9f82612d34565b612da98185612d3f565b9350612db483612d50565b8060005b83811015612de5578151612dcc8882612d6f565b9750612dd783612d87565b925050600181019050612db8565b5085935050505092915050565b60006020820190508181036000830152612e0c8184612d94565b905092915050565b60008060408385031215612e2b57612e2a6125ad565b5b6000612e3985828601612803565b9250506020612e4a85828601612803565b9150509250929050565b7f4e487b7100000000000000000000000000000000000000000000000000000000600052602260045260246000fd5b60006002820490506001821680612e9b57607f821691505b602082108103612eae57612ead612e54565b5b50919050565b7f4552433732313a20617070726f76616c20746f2063757272656e74206f776e6560008201527f7200000000000000000000000000000000000000000000000000000000000000602082015250565b6000612f1060218361267d565b9150612f1b82612eb4565b604082019050919050565b60006020820190508181036000830152612f3f81612f03565b9050919050565b7f4552433732313a20617070726f76652063616c6c6572206973206e6f7420746f60008201527f6b656e206f776e6572206f7220617070726f76656420666f7220616c6c000000602082015250565b6000612fa2603d8361267d565b9150612fad82612f46565b604082019050919050565b60006020820190508181036000830152612fd181612f95565b9050919050565b7f4552433732313a2063616c6c6572206973206e6f7420746f6b656e206f776e6560008201527f72206f7220617070726f76656400000000000000000000000000000000000000602082015250565b6000613034602d8361267d565b915061303f82612fd8565b604082019050919050565b6000602082019050818103600083015261306381613027565b9050919050565b7f53747564656e74206469646e277420726571756573742067726164756174696f60008201527f6e20636572746966696361746500000000000000000000000000000000000000602082015250565b60006130c6602d8361267d565b91506130d18261306a565b604082019050919050565b600060208201905081810360008301526130f5816130b9565b9050919050565b60008151905061310b81612ba4565b92915050565b600060208284031215613127576131266125ad565b5b6000613135848285016130fc565b91505092915050565b7f4e6f742072656761696e65640000000000000000000000000000000000000000600082015250565b6000613174600c8361267d565b915061317f8261313e565b602082019050919050565b600060208201905081810360008301526131a381613167565b9050919050565b7f4e487b7100000000000000000000000000000000000000000000000000000000600052601160045260246000fd5b60006131e48261272d565b91506131ef8361272d565b925082821015613202576132016131aa565b5b828203905092915050565b7f4e487b7100000000000000000000000000000000000000000000000000000000600052603260045260246000fd5b7f4e487b7100000000000000000000000000000000000000000000000000000000600052603160045260246000fd5b7f4552433732313a20696e76616c696420746f6b656e2049440000000000000000600082015250565b60006132a160188361267d565b91506132ac8261326b565b602082019050919050565b600060208201905081810360008301526132d081613294565b9050919050565b7f4552433732313a2061646472657373207a65726f206973206e6f74206120766160008201527f6c6964206f776e65720000000000000000000000000000000000000000000000602082015250565b600061333360298361267d565b915061333e826132d7565b604082019050919050565b6000602082019050818103600083015261336281613326565b9050919050565b7f4e487b7100000000000000000000000000000000000000000000000000000000600052602160045260246000fd5b60006040820190506133ad6000830185612a69565b6133ba60208301846127c2565b9392505050565b600080fd5b600080fd5b6000815190506133da81612737565b92915050565b6000815190506133ef816127ec565b92915050565b60006060828403121561340b5761340a6133c1565b5b6134156060612915565b90506000613425848285016133cb565b6000830152506020613439848285016133e0565b602083015250604061344d848285016133cb565b60408301525092915050565b600061346c61346784612930565b612915565b905082815260208101848484011115613488576134876128b0565b5b61349384828561268e565b509392505050565b600082601f8301126134b0576134af6128ab565b5b81516134c0848260208601613459565b91505092915050565b600060c082840312156134df576134de6133c1565b5b6134e96080612915565b905060006134f9848285016133f5565b600083015250606082015167ffffffffffffffff81111561351d5761351c6133c6565b5b6135298482850161349b565b602083015250608061353d848285016133cb565b60408301525060a0613551848285016130fc565b60608301525092915050565b600060208284031215613573576135726125ad565b5b600082015167ffffffffffffffff811115613591576135906125b2565b5b61359d848285016134c9565b91505092915050565b60006040820190506135bb60008301856127c2565b6135c860208301846127c2565b9392505050565b600067ffffffffffffffff8211156135ea576135e96128b5565b5b602082029050602081019050919050565b600060408284031215613611576136106133c1565b5b61361b6040612915565b9050600061362b848285016133cb565b600083015250602061363f848285016133cb565b60208301525092915050565b600061365e613659846135cf565b612915565b9050808382526020820190506040840283018581111561368157613680612abf565b5b835b818110156136aa578061369688826135fb565b845260208401935050604081019050613683565b5050509392505050565b600082601f8301126136c9576136c86128ab565b5b81516136d984826020860161364b565b91505092915050565b6000602082840312156136f8576136f76125ad565b5b600082015167ffffffffffffffff811115613716576137156125b2565b5b613722848285016136b4565b91505092915050565b600060c08284031215613741576137406133c1565b5b61374b60c0612915565b9050600061375b848285016133cb565b600083015250602061376f848285016133cb565b6020830152506040613783848285016133cb565b6040830152506060613797848285016133cb565b60608301525060806137ab848285016133cb565b60808301525060a06137bf848285016133cb565b60a08301525092915050565b60008060e083850312156137e2576137e16125ad565b5b60006137f08582860161372b565b92505060c083015167ffffffffffffffff811115613811576138106125b2565b5b61381d8582860161349b565b9150509250929050565b7f6e6f7420636f6d706c6574650000000000000000000000000000000000000000600082015250565b600061385d600c8361267d565b915061386882613827565b602082019050919050565b6000602082019050818103600083015261388c81613850565b9050919050565b600061389e8261272d565b91506138a98361272d565b9250827fffffffffffffffffffffffffffffffffffffffffffffffffffffffffffffffff038211156138de576138dd6131aa565b5b828201905092915050565b60006138f48261272d565b91506138ff8361272d565b9250817fffffffffffffffffffffffffffffffffffffffffffffffffffffffffffffffff0483118215151615613938576139376131aa565b5b828202905092915050565b600061394e8261272d565b91507fffffffffffffffffffffffffffffffffffffffffffffffffffffffffffffffff82036139805761397f6131aa565b5b600182019050919050565b7f6e6f7420656e6f75676820637265646974730000000000000000000000000000600082015250565b60006139c160128361267d565b91506139cc8261398b565b602082019050919050565b600060208201905081810360008301526139f0816139b4565b9050919050565b7f4e487b7100000000000000000000000000000000000000000000000000000000600052601260045260246000fd5b6000613a318261272d565b9150613a3c8361272d565b925082613a4c57613a4b6139f7565b5b828204905092915050565b600081905092915050565b6000613a6d82612672565b613a778185613a57565b9350613a8781856020860161268e565b80840191505092915050565b6000613a9f8285613a62565b9150613aab8284613a62565b91508190509392505050565b7f4552433732313a207472616e736665722066726f6d20696e636f72726563742060008201527f6f776e6572000000000000000000000000000000000000000000000000000000602082015250565b6000613b1360258361267d565b9150613b1e82613ab7565b604082019050919050565b60006020820190508181036000830152613b4281613b06565b9050919050565b7f4552433732313a207472616e7366657220746f20746865207a65726f2061646460008201527f7265737300000000000000000000000000000000000000000000000000000000602082015250565b6000613ba560248361267d565b9150613bb082613b49565b604082019050919050565b60006020820190508181036000830152613bd481613b98565b9050919050565b7f4552433732313a20617070726f766520746f2063616c6c657200000000000000600082015250565b6000613c1160198361267d565b9150613c1c82613bdb565b602082019050919050565b60006020820190508181036000830152613c4081613c04565b9050919050565b7f4552433732313a207472616e7366657220746f206e6f6e20455243373231526560008201527f63656976657220696d706c656d656e7465720000000000000000000000000000602082015250565b6000613ca360328361267d565b9150613cae82613c47565b604082019050919050565b60006020820190508181036000830152613cd281613c96565b9050919050565b7f45524337323155524953746f726167653a2055524920736574206f66206e6f6e60008201527f6578697374656e7420746f6b656e000000000000000000000000000000000000602082015250565b6000613d35602e8361267d565b9150613d4082613cd9565b604082019050919050565b60006020820190508181036000830152613d6481613d28565b9050919050565b600081519050919050565b600082825260208201905092915050565b6000613d9282613d6b565b613d9c8185613d76565b9350613dac81856020860161268e565b613db5816126c1565b840191505092915050565b6000608082019050613dd560008301876127c2565b613de260208301866127c2565b613def6040830185612a69565b8181036060830152613e018184613d87565b905095945050505050565b600081519050613e1b816125e3565b92915050565b600060208284031215613e3757613e366125ad565b5b6000613e4584828501613e0c565b91505092915050565b7f4552433732313a206d696e7420746f20746865207a65726f2061646472657373600082015250565b6000613e8460208361267d565b9150613e8f82613e4e565b602082019050919050565b60006020820190508181036000830152613eb381613e77565b9050919050565b7f4552433732313a20746f6b656e20616c7265616479206d696e74656400000000600082015250565b6000613ef0601c8361267d565b9150613efb82613eba565b602082019050919050565b60006020820190508181036000830152613f1f81613ee3565b905091905056fea26469706673582212205f429d719dbae872e9097615f7e792b33ed92dc646fcfdd0d0c43623b61e13ad64736f6c634300080d0033",
  "immutableReferences": {},
  "source": "// SPDX-License-Identifier: MIT\r\n// Tells the Solidity compiler to compile only from v0.8.13 to v0.9.0\r\npragma solidity ^0.8.13;\r\n\r\nimport \"./ERC721BaseContract.sol\";\r\nimport \"./interfaces/INftGraduation.sol\";\r\nimport \"./interfaces/INftIdentities.sol\";\r\nimport \"./interfaces/INftCertificates.sol\";\r\nimport \"./interfaces/INftSchool.sol\";\r\n\r\ncontract NftGraduation is ERC721BaseContract, INftGraduation {\r\n    uint256 public requestGraduationCertificatePrice = 0.5 ether;\r\n\r\n    INftSchool private _nftSchool;\r\n    INftIdentities private _nftIdentities;\r\n    INftCertificates private _nftCertificates;\r\n\r\n    bool private _isInitialize;\r\n    uint256 private _requiredAvgScore = 5 ether;\r\n\r\n    uint256[] private _requestGraduationQueue;\r\n    mapping(uint256 => uint256) private _posOfRequestInQueue;\r\n    mapping(uint256 => uint256[]) private _requestGraduationCompleteCourseIds;\r\n\r\n    NftGraduation[] private _allNftGraduations;\r\n    mapping(uint256 => uint256) private _posOfNftGraduationTokenId;\r\n    mapping(uint256 => uint256) private _tokenIdOfStudent;\r\n\r\n    event GrantNewNftGraduation(uint256 tokenId);\r\n\r\n    modifier onlyOwner() {\r\n        require(_owner == msg.sender);\r\n        _;\r\n    }\r\n\r\n    constructor(\r\n        address nftIdentities,\r\n        address nftSchool,\r\n        address nftCertificates\r\n    ) ERC721BaseContract(\"NftGraduation\", \"NCR\") {\r\n        _isInitialize = false;\r\n        _nftIdentities = INftIdentities(nftIdentities);\r\n        _nftSchool = INftSchool(nftSchool);\r\n        _nftCertificates = INftCertificates(nftCertificates);\r\n    }\r\n\r\n    function getNftCompleteCourseForRequestGraduation(\r\n        uint256 studentTokenId\r\n    ) public view returns (uint256[] memory) {\r\n        return _requestGraduationCompleteCourseIds[studentTokenId];\r\n    }\r\n\r\n    function requestGraduationCertificate(\r\n        uint256[] memory nftCompleteCourseTokenIds\r\n    ) public payable {\r\n        NftIdentityResponse memory nftIdentityResponse = _nftIdentities\r\n            .getNftOfMemberWithRole(uint256(ROLE.STUDENT), msg.sender);\r\n        require(!nftIdentityResponse.isExpired);\r\n        require(msg.value == requestGraduationCertificatePrice);\r\n        require(_nftCertificates.checkApprovedForAll(msg.sender, _owner));\r\n        uint256 count = nftCompleteCourseTokenIds.length;\r\n        KnowledgeBlock[] memory knowledgeBlocks = _nftSchool\r\n            .getAllKnowledgeBlocks();\r\n        uint256 knowledgeBlockCount = knowledgeBlocks.length;\r\n        uint256 totalScore;\r\n        uint256 credits;\r\n        uint256[] memory totalCredits = new uint256[](knowledgeBlockCount);\r\n\r\n        for (uint256 idx; idx < count; ++idx) {\r\n            (NftCompleteCourse memory nftCompleteCourse, ) = _nftCertificates\r\n                .getNftCompleteCourse(nftCompleteCourseTokenIds[idx]);\r\n            require(nftCompleteCourse.status == 1, \"not complete\");\r\n\r\n            totalCredits[\r\n                nftCompleteCourse.knowledgeBlockId\r\n            ] += nftCompleteCourse.credits;\r\n            credits += nftCompleteCourse.credits;\r\n            totalScore += (nftCompleteCourse.avgScore *\r\n                nftCompleteCourse.avgScore);\r\n        }\r\n\r\n        // validate number of credits\r\n        for (uint256 idx; idx < knowledgeBlockCount; ++idx) {\r\n            require(\r\n                totalCredits[knowledgeBlockCount] >=\r\n                    knowledgeBlocks[idx].credits,\r\n                \"not enough credits\"\r\n            );\r\n        }\r\n\r\n        uint256 avgScore = totalScore / credits;\r\n        require(avgScore >= _requiredAvgScore);\r\n\r\n        _requestGraduationCompleteCourseIds[\r\n            nftIdentityResponse.nftIdentity.tokenId\r\n        ] = nftCompleteCourseTokenIds;\r\n        _requestGraduationQueue.push(nftIdentityResponse.nftIdentity.tokenId);\r\n        _posOfRequestInQueue[\r\n            nftIdentityResponse.nftIdentity.tokenId\r\n        ] = _requestGraduationQueue.length;\r\n    }\r\n\r\n    function grantNftGraduation(\r\n        uint256 studentTokenId,\r\n        string memory tokenURI\r\n    ) public onlyOwner {\r\n        require(\r\n            _posOfRequestInQueue[studentTokenId] > 0,\r\n            \"Student didn't request graduation certificate\"\r\n        );\r\n        uint256[]\r\n            memory nftCompleteCourseTokenIds = _requestGraduationCompleteCourseIds[\r\n                studentTokenId\r\n            ];\r\n        require(\r\n            _nftCertificates.checkAllNftCompleteCoursesRegained(\r\n                nftCompleteCourseTokenIds\r\n            ),\r\n            \"Not regained\"\r\n        );\r\n        uint256 tokenId = _mintToken(msg.sender, tokenURI);\r\n        NftGraduation memory nftGraduation = NftGraduation(\r\n            tokenId,\r\n            studentTokenId\r\n        );\r\n        _allNftGraduations.push(nftGraduation);\r\n        _posOfNftGraduationTokenId[tokenId] = _allNftGraduations.length;\r\n        _tokenIdOfStudent[studentTokenId] = tokenId;\r\n\r\n        delete _requestGraduationCompleteCourseIds[studentTokenId];\r\n        uint256 pos = _posOfRequestInQueue[studentTokenId];\r\n        uint256 lastRequestQueuePos = _requestGraduationQueue.length;\r\n        if (pos < lastRequestQueuePos) {\r\n            _requestGraduationQueue[pos - 1] = _requestGraduationQueue[\r\n                lastRequestQueuePos - 1\r\n            ];\r\n            _posOfRequestInQueue[\r\n                _requestGraduationQueue[lastRequestQueuePos - 1]\r\n            ] = pos;\r\n        }\r\n        _requestGraduationQueue.pop();\r\n        delete _posOfRequestInQueue[studentTokenId];\r\n\r\n        emit GrantNewNftGraduation(tokenId);\r\n    }\r\n}\r\n",
  "sourcePath": "E:\\learn\\learn-to-earn\\blockchain\\contracts\\NftGraduation.sol",
  "compiler": {
    "name": "solc",
    "version": "0.8.13+commit.abaa5c0e.Emscripten.clang"
  },
  "schemaVersion": "3.4.13",
  "updatedAt": "2023-06-05T16:59:42.163Z",
  "networkType": "ethereum",
  "devdoc": {
    "kind": "dev",
    "methods": {
      "approve(address,uint256)": {
        "details": "See {IERC721-approve}."
      },
      "balanceOf(address)": {
        "details": "See {IERC721-balanceOf}."
      },
      "getApproved(uint256)": {
        "details": "See {IERC721-getApproved}."
      },
      "isApprovedForAll(address,address)": {
        "details": "See {IERC721-isApprovedForAll}."
      },
      "name()": {
        "details": "See {IERC721Metadata-name}."
      },
      "ownerOf(uint256)": {
        "details": "See {IERC721-ownerOf}."
      },
      "safeTransferFrom(address,address,uint256)": {
        "details": "See {IERC721-safeTransferFrom}."
      },
      "safeTransferFrom(address,address,uint256,bytes)": {
        "details": "See {IERC721-safeTransferFrom}."
      },
      "setApprovalForAll(address,bool)": {
        "details": "See {IERC721-setApprovalForAll}."
      },
      "supportsInterface(bytes4)": {
        "details": "See {IERC165-supportsInterface}."
      },
      "symbol()": {
        "details": "See {IERC721Metadata-symbol}."
      },
      "tokenURI(uint256)": {
        "details": "See {IERC721Metadata-tokenURI}."
      },
      "transferFrom(address,address,uint256)": {
        "details": "See {IERC721-transferFrom}."
      }
    },
    "version": 1
  },
  "userdoc": {
    "kind": "user",
    "methods": {},
    "version": 1
  }
}