{
  "contractName": "NftGraduation",
  "abi": [
    {
      "inputs": [
        {
          "internalType": "address",
          "name": "nftIdentities",
          "type": "address"
        },
        {
          "internalType": "address",
          "name": "nftSchool",
          "type": "address"
        },
        {
          "internalType": "address",
          "name": "nftCertificates",
          "type": "address"
        }
      ],
      "stateMutability": "nonpayable",
      "type": "constructor"
    },
    {
      "anonymous": false,
      "inputs": [
        {
          "indexed": true,
          "internalType": "address",
          "name": "owner",
          "type": "address"
        },
        {
          "indexed": true,
          "internalType": "address",
          "name": "approved",
          "type": "address"
        },
        {
          "indexed": true,
          "internalType": "uint256",
          "name": "tokenId",
          "type": "uint256"
        }
      ],
      "name": "Approval",
      "type": "event"
    },
    {
      "anonymous": false,
      "inputs": [
        {
          "indexed": true,
          "internalType": "address",
          "name": "owner",
          "type": "address"
        },
        {
          "indexed": true,
          "internalType": "address",
          "name": "operator",
          "type": "address"
        },
        {
          "indexed": false,
          "internalType": "bool",
          "name": "approved",
          "type": "bool"
        }
      ],
      "name": "ApprovalForAll",
      "type": "event"
    },
    {
      "anonymous": false,
      "inputs": [
        {
          "indexed": false,
          "internalType": "uint256",
          "name": "tokenId",
          "type": "uint256"
        }
      ],
      "name": "GrantNewNftGraduation",
      "type": "event"
    },
    {
      "anonymous": false,
      "inputs": [
        {
          "indexed": true,
          "internalType": "address",
          "name": "from",
          "type": "address"
        },
        {
          "indexed": true,
          "internalType": "address",
          "name": "to",
          "type": "address"
        },
        {
          "indexed": true,
          "internalType": "uint256",
          "name": "tokenId",
          "type": "uint256"
        }
      ],
      "name": "Transfer",
      "type": "event"
    },
    {
      "inputs": [
        {
          "internalType": "address",
          "name": "to",
          "type": "address"
        },
        {
          "internalType": "uint256",
          "name": "tokenId",
          "type": "uint256"
        }
      ],
      "name": "approve",
      "outputs": [],
      "stateMutability": "nonpayable",
      "type": "function"
    },
    {
      "inputs": [
        {
          "internalType": "address",
          "name": "owner",
          "type": "address"
        }
      ],
      "name": "balanceOf",
      "outputs": [
        {
          "internalType": "uint256",
          "name": "",
          "type": "uint256"
        }
      ],
      "stateMutability": "view",
      "type": "function",
      "constant": true
    },
    {
      "inputs": [
        {
          "internalType": "uint256",
          "name": "tokenId",
          "type": "uint256"
        }
      ],
      "name": "getApproved",
      "outputs": [
        {
          "internalType": "address",
          "name": "",
          "type": "address"
        }
      ],
      "stateMutability": "view",
      "type": "function",
      "constant": true
    },
    {
      "inputs": [
        {
          "internalType": "address",
          "name": "owner",
          "type": "address"
        },
        {
          "internalType": "address",
          "name": "operator",
          "type": "address"
        }
      ],
      "name": "isApprovedForAll",
      "outputs": [
        {
          "internalType": "bool",
          "name": "",
          "type": "bool"
        }
      ],
      "stateMutability": "view",
      "type": "function",
      "constant": true
    },
    {
      "inputs": [],
      "name": "name",
      "outputs": [
        {
          "internalType": "string",
          "name": "",
          "type": "string"
        }
      ],
      "stateMutability": "view",
      "type": "function",
      "constant": true
    },
    {
      "inputs": [
        {
          "internalType": "uint256",
          "name": "tokenId",
          "type": "uint256"
        }
      ],
      "name": "ownerOf",
      "outputs": [
        {
          "internalType": "address",
          "name": "",
          "type": "address"
        }
      ],
      "stateMutability": "view",
      "type": "function",
      "constant": true
    },
    {
      "inputs": [],
      "name": "requestGraduationCertificatePrice",
      "outputs": [
        {
          "internalType": "uint256",
          "name": "",
          "type": "uint256"
        }
      ],
      "stateMutability": "view",
      "type": "function",
      "constant": true
    },
    {
      "inputs": [
        {
          "internalType": "address",
          "name": "from",
          "type": "address"
        },
        {
          "internalType": "address",
          "name": "to",
          "type": "address"
        },
        {
          "internalType": "uint256",
          "name": "tokenId",
          "type": "uint256"
        }
      ],
      "name": "safeTransferFrom",
      "outputs": [],
      "stateMutability": "nonpayable",
      "type": "function"
    },
    {
      "inputs": [
        {
          "internalType": "address",
          "name": "from",
          "type": "address"
        },
        {
          "internalType": "address",
          "name": "to",
          "type": "address"
        },
        {
          "internalType": "uint256",
          "name": "tokenId",
          "type": "uint256"
        },
        {
          "internalType": "bytes",
          "name": "data",
          "type": "bytes"
        }
      ],
      "name": "safeTransferFrom",
      "outputs": [],
      "stateMutability": "nonpayable",
      "type": "function"
    },
    {
      "inputs": [
        {
          "internalType": "address",
          "name": "operator",
          "type": "address"
        },
        {
          "internalType": "bool",
          "name": "approved",
          "type": "bool"
        }
      ],
      "name": "setApprovalForAll",
      "outputs": [],
      "stateMutability": "nonpayable",
      "type": "function"
    },
    {
      "inputs": [
        {
          "internalType": "bytes4",
          "name": "interfaceId",
          "type": "bytes4"
        }
      ],
      "name": "supportsInterface",
      "outputs": [
        {
          "internalType": "bool",
          "name": "",
          "type": "bool"
        }
      ],
      "stateMutability": "view",
      "type": "function",
      "constant": true
    },
    {
      "inputs": [],
      "name": "symbol",
      "outputs": [
        {
          "internalType": "string",
          "name": "",
          "type": "string"
        }
      ],
      "stateMutability": "view",
      "type": "function",
      "constant": true
    },
    {
      "inputs": [
        {
          "internalType": "uint256",
          "name": "tokenId",
          "type": "uint256"
        }
      ],
      "name": "tokenURI",
      "outputs": [
        {
          "internalType": "string",
          "name": "",
          "type": "string"
        }
      ],
      "stateMutability": "view",
      "type": "function",
      "constant": true
    },
    {
      "inputs": [
        {
          "internalType": "address",
          "name": "from",
          "type": "address"
        },
        {
          "internalType": "address",
          "name": "to",
          "type": "address"
        },
        {
          "internalType": "uint256",
          "name": "tokenId",
          "type": "uint256"
        }
      ],
      "name": "transferFrom",
      "outputs": [],
      "stateMutability": "nonpayable",
      "type": "function"
    },
    {
      "inputs": [
        {
          "internalType": "uint256",
          "name": "studentTokenId",
          "type": "uint256"
        }
      ],
      "name": "getNftCompleteCourseForRequestGraduation",
      "outputs": [
        {
          "internalType": "uint256[]",
          "name": "",
          "type": "uint256[]"
        }
      ],
      "stateMutability": "view",
      "type": "function",
      "constant": true
    },
    {
      "inputs": [],
      "name": "getAllRequestGraduationStudents",
      "outputs": [
        {
          "internalType": "uint256[]",
          "name": "",
          "type": "uint256[]"
        }
      ],
      "stateMutability": "view",
      "type": "function",
      "constant": true
    },
    {
      "inputs": [
        {
          "internalType": "uint256",
          "name": "studentTokenId",
          "type": "uint256"
        }
      ],
      "name": "getRequestGraduationDetail",
      "outputs": [
        {
          "internalType": "uint256[]",
          "name": "",
          "type": "uint256[]"
        },
        {
          "internalType": "string",
          "name": "",
          "type": "string"
        }
      ],
      "stateMutability": "view",
      "type": "function",
      "constant": true
    },
    {
      "inputs": [
        {
          "internalType": "uint256",
          "name": "studentTokenId",
          "type": "uint256"
        }
      ],
      "name": "checkRequestInQueue",
      "outputs": [
        {
          "internalType": "bool",
          "name": "",
          "type": "bool"
        }
      ],
      "stateMutability": "view",
      "type": "function",
      "constant": true
    },
    {
      "inputs": [
        {
          "internalType": "uint256",
          "name": "studentTokenId",
          "type": "uint256"
        }
      ],
      "name": "getNftGraduation",
      "outputs": [
        {
          "components": [
            {
              "internalType": "uint256",
              "name": "tokenId",
              "type": "uint256"
            },
            {
              "internalType": "uint256",
              "name": "studentTokenId",
              "type": "uint256"
            }
          ],
          "internalType": "struct IConstant.NftGraduation",
          "name": "",
          "type": "tuple"
        }
      ],
      "stateMutability": "view",
      "type": "function",
      "constant": true
    },
    {
      "inputs": [],
      "name": "getOwnedNftGraduation",
      "outputs": [
        {
          "components": [
            {
              "internalType": "uint256",
              "name": "tokenId",
              "type": "uint256"
            },
            {
              "internalType": "uint256",
              "name": "studentTokenId",
              "type": "uint256"
            }
          ],
          "internalType": "struct IConstant.NftGraduation",
          "name": "",
          "type": "tuple"
        }
      ],
      "stateMutability": "view",
      "type": "function",
      "constant": true
    },
    {
      "inputs": [],
      "name": "getAllGraduations",
      "outputs": [
        {
          "components": [
            {
              "internalType": "uint256",
              "name": "tokenId",
              "type": "uint256"
            },
            {
              "internalType": "uint256",
              "name": "studentTokenId",
              "type": "uint256"
            }
          ],
          "internalType": "struct IConstant.NftGraduation[]",
          "name": "",
          "type": "tuple[]"
        }
      ],
      "stateMutability": "view",
      "type": "function",
      "constant": true
    },
    {
      "inputs": [
        {
          "internalType": "uint256[]",
          "name": "nftCompleteCourseTokenIds",
          "type": "uint256[]"
        },
        {
          "internalType": "string",
          "name": "uri",
          "type": "string"
        }
      ],
      "name": "requestGraduationCertificate",
      "outputs": [],
      "stateMutability": "payable",
      "type": "function",
      "payable": true
    },
    {
      "inputs": [
        {
          "internalType": "uint256",
          "name": "studentTokenId",
          "type": "uint256"
        },
        {
          "internalType": "string",
          "name": "tokenURI",
          "type": "string"
        }
      ],
      "name": "grantNftGraduation",
      "outputs": [],
      "stateMutability": "nonpayable",
      "type": "function"
    }
  ],
  "bytecode": "0x60806040526706f05b59d3b20000600a553480156200001d57600080fd5b5060405162004e0f38038062004e0f833981810160405281019062000043919062000329565b6040518060400160405280600d81526020017f4e667447726164756174696f6e000000000000000000000000000000000000008152506040518060400160405280600381526020017f4e4352000000000000000000000000000000000000000000000000000000000081525081818160009080519060200190620000c99291906200020f565b508060019080519060200190620000e29291906200020f565b50505033600760006101000a81548173ffffffffffffffffffffffffffffffffffffffff021916908373ffffffffffffffffffffffffffffffffffffffff16021790555050506000600d60146101000a81548160ff02191690831515021790555082600c60006101000a81548173ffffffffffffffffffffffffffffffffffffffff021916908373ffffffffffffffffffffffffffffffffffffffff16021790555081600b60006101000a81548173ffffffffffffffffffffffffffffffffffffffff021916908373ffffffffffffffffffffffffffffffffffffffff16021790555080600d60006101000a81548173ffffffffffffffffffffffffffffffffffffffff021916908373ffffffffffffffffffffffffffffffffffffffff160217905550505050620003e9565b8280546200021d90620003b4565b90600052602060002090601f0160209004810192826200024157600085556200028d565b82601f106200025c57805160ff19168380011785556200028d565b828001600101855582156200028d579182015b828111156200028c5782518255916020019190600101906200026f565b5b5090506200029c9190620002a0565b5090565b5b80821115620002bb576000816000905550600101620002a1565b5090565b600080fd5b600073ffffffffffffffffffffffffffffffffffffffff82169050919050565b6000620002f182620002c4565b9050919050565b6200030381620002e4565b81146200030f57600080fd5b50565b6000815190506200032381620002f8565b92915050565b600080600060608486031215620003455762000344620002bf565b5b6000620003558682870162000312565b9350506020620003688682870162000312565b92505060406200037b8682870162000312565b9150509250925092565b7f4e487b7100000000000000000000000000000000000000000000000000000000600052602260045260246000fd5b60006002820490506001821680620003cd57607f821691505b602082108103620003e357620003e262000385565b5b50919050565b614a1680620003f96000396000f3fe6080604052600436106101405760003560e01c806370a08231116100b6578063c87b56dd1161006f578063c87b56dd14610480578063cdeb9180146104bd578063ce2870a5146104e8578063d40c628e14610526578063e985e9c514610542578063ec7d2f751461057f57610140565b806370a082311461035e57806395d89b411461039b578063a22cb465146103c6578063b12a6115146103ef578063b88d4fde1461041a578063c000fb081461044357610140565b80631fc860e9116101085780631fc860e91461023e57806323b872dd1461027b5780633a9b5662146102a457806342842e0e146102cf57806359f2e641146102f85780636352211e1461032157610140565b806301ffc9a71461014557806306fdde0314610182578063081812fc146101ad578063095ea7b3146101ea5780630bd7ac1414610213575b600080fd5b34801561015157600080fd5b5061016c60048036038101906101679190612d9e565b6105bc565b6040516101799190612de6565b60405180910390f35b34801561018e57600080fd5b5061019761069e565b6040516101a49190612e9a565b60405180910390f35b3480156101b957600080fd5b506101d460048036038101906101cf9190612ef2565b610730565b6040516101e19190612f60565b60405180910390f35b3480156101f657600080fd5b50610211600480360381019061020c9190612fa7565b610776565b005b34801561021f57600080fd5b5061022861088d565b60405161023591906130a5565b60405180910390f35b34801561024a57600080fd5b5061026560048036038101906102609190612ef2565b61093f565b6040516102729190612de6565b60405180910390f35b34801561028757600080fd5b506102a2600480360381019061029d91906130c7565b61095e565b005b3480156102b057600080fd5b506102b96109be565b6040516102c691906131f8565b60405180910390f35b3480156102db57600080fd5b506102f660048036038101906102f191906130c7565b610a8b565b005b34801561030457600080fd5b5061031f600480360381019061031a919061334f565b610aab565b005b34801561032d57600080fd5b5061034860048036038101906103439190612ef2565b610ebd565b6040516103559190612f60565b60405180910390f35b34801561036a57600080fd5b50610385600480360381019061038091906133ab565b610f43565b60405161039291906133e7565b60405180910390f35b3480156103a757600080fd5b506103b0610ffa565b6040516103bd9190612e9a565b60405180910390f35b3480156103d257600080fd5b506103ed60048036038101906103e8919061342e565b61108c565b005b3480156103fb57600080fd5b506104046110a2565b604051610411919061349d565b60405180910390f35b34801561042657600080fd5b50610441600480360381019061043c9190613559565b6111f1565b005b34801561044f57600080fd5b5061046a60048036038101906104659190612ef2565b611253565b60405161047791906130a5565b60405180910390f35b34801561048c57600080fd5b506104a760048036038101906104a29190612ef2565b6112be565b6040516104b49190612e9a565b60405180910390f35b3480156104c957600080fd5b506104d26113d0565b6040516104df91906133e7565b60405180910390f35b3480156104f457600080fd5b5061050f600480360381019061050a9190612ef2565b6113d6565b60405161051d9291906135dc565b60405180910390f35b610540600480360381019061053b91906136db565b6114e6565b005b34801561054e57600080fd5b5061056960048036038101906105649190613753565b611ba3565b6040516105769190612de6565b60405180910390f35b34801561058b57600080fd5b506105a660048036038101906105a19190612ef2565b611c37565b6040516105b3919061349d565b60405180910390f35b60007f80ac58cd000000000000000000000000000000000000000000000000000000007bffffffffffffffffffffffffffffffffffffffffffffffffffffffff1916827bffffffffffffffffffffffffffffffffffffffffffffffffffffffff1916148061068757507f5b5e139f000000000000000000000000000000000000000000000000000000007bffffffffffffffffffffffffffffffffffffffffffffffffffffffff1916827bffffffffffffffffffffffffffffffffffffffffffffffffffffffff1916145b80610697575061069682611cd2565b5b9050919050565b6060600080546106ad906137c2565b80601f01602080910402602001604051908101604052809291908181526020018280546106d9906137c2565b80156107265780601f106106fb57610100808354040283529160200191610726565b820191906000526020600020905b81548152906001019060200180831161070957829003601f168201915b5050505050905090565b600061073b82611d3c565b6004600083815260200190815260200160002060009054906101000a900473ffffffffffffffffffffffffffffffffffffffff169050919050565b600061078182610ebd565b90508073ffffffffffffffffffffffffffffffffffffffff168373ffffffffffffffffffffffffffffffffffffffff16036107f1576040517f08c379a00000000000000000000000000000000000000000000000000000000081526004016107e890613865565b60405180910390fd5b8073ffffffffffffffffffffffffffffffffffffffff16610810611d87565b73ffffffffffffffffffffffffffffffffffffffff16148061083f575061083e81610839611d87565b611ba3565b5b61087e576040517f08c379a0000000000000000000000000000000000000000000000000000000008152600401610875906138f7565b60405180910390fd5b6108888383611d8f565b505050565b60603373ffffffffffffffffffffffffffffffffffffffff16600760009054906101000a900473ffffffffffffffffffffffffffffffffffffffff1673ffffffffffffffffffffffffffffffffffffffff16146108e957600080fd5b600e80548060200260200160405190810160405280929190818152602001828054801561093557602002820191906000526020600020905b815481526020019060010190808311610921575b5050505050905090565b600080600f600084815260200190815260200160002054119050919050565b61096f610969611d87565b82611e48565b6109ae576040517f08c379a00000000000000000000000000000000000000000000000000000000081526004016109a590613989565b60405180910390fd5b6109b9838383611edd565b505050565b60603373ffffffffffffffffffffffffffffffffffffffff16600760009054906101000a900473ffffffffffffffffffffffffffffffffffffffff1673ffffffffffffffffffffffffffffffffffffffff1614610a1a57600080fd5b6015805480602002602001604051908101604052809291908181526020016000905b82821015610a8257838290600052602060002090600202016040518060400160405290816000820154815260200160018201548152505081526020019060010190610a3c565b50505050905090565b610aa6838383604051806020016040528060008152506111f1565b505050565b3373ffffffffffffffffffffffffffffffffffffffff16600760009054906101000a900473ffffffffffffffffffffffffffffffffffffffff1673ffffffffffffffffffffffffffffffffffffffff1614610b0557600080fd5b6000600f60008481526020019081526020016000205411610b5b576040517f08c379a0000000000000000000000000000000000000000000000000000000008152600401610b5290613a1b565b60405180910390fd5b600060106000848152602001908152602001600020805480602002602001604051908101604052809291908181526020018280548015610bba57602002820191906000526020600020905b815481526020019060010190808311610ba6575b50505050509050600d60009054906101000a900473ffffffffffffffffffffffffffffffffffffffff1673ffffffffffffffffffffffffffffffffffffffff166359619d31826040518263ffffffff1660e01b8152600401610c1c91906130a5565b602060405180830381865afa158015610c39573d6000803e3d6000fd5b505050506040513d601f19601f82011682018060405250810190610c5d9190613a50565b610c9c576040517f08c379a0000000000000000000000000000000000000000000000000000000008152600401610c9390613ac9565b60405180910390fd5b6000610ca833846121d6565b9050600060405180604001604052808381526020018681525090506015819080600181540180825580915050600190039060005260206000209060020201600090919091909150600082015181600001556020820151816001015550506015805490506016600084815260200190815260200160002081905550816017600087815260200190815260200160002081905550601060008681526020019081526020016000206000610d599190612c14565b601160008681526020019081526020016000206000610d789190612c35565b6000600f60008781526020019081526020016000205490506000600e80549050905080821015610e3e57600e600182610db19190613b18565b81548110610dc257610dc1613b4c565b5b9060005260206000200154600e600184610ddc9190613b18565b81548110610ded57610dec613b4c565b5b906000526020600020018190555081600f6000600e600185610e0f9190613b18565b81548110610e2057610e1f613b4c565b5b90600052602060002001548152602001908152602001600020819055505b600e805480610e5057610e4f613b7b565b5b60019003818190600052602060002001600090559055600f6000888152602001908152602001600020600090557facb3849a125f4bedb6599365b4242ab6d2cdc08aca6d7cd4cfe34708c680f62384604051610eac91906133e7565b60405180910390a150505050505050565b600080610ec983612247565b9050600073ffffffffffffffffffffffffffffffffffffffff168173ffffffffffffffffffffffffffffffffffffffff1603610f3a576040517f08c379a0000000000000000000000000000000000000000000000000000000008152600401610f3190613bf6565b60405180910390fd5b80915050919050565b60008073ffffffffffffffffffffffffffffffffffffffff168273ffffffffffffffffffffffffffffffffffffffff1603610fb3576040517f08c379a0000000000000000000000000000000000000000000000000000000008152600401610faa90613c88565b60405180910390fd5b600360008373ffffffffffffffffffffffffffffffffffffffff1673ffffffffffffffffffffffffffffffffffffffff168152602001908152602001600020549050919050565b606060018054611009906137c2565b80601f0160208091040260200160405190810160405280929190818152602001828054611035906137c2565b80156110825780601f1061105757610100808354040283529160200191611082565b820191906000526020600020905b81548152906001019060200180831161106557829003601f168201915b5050505050905090565b61109e611097611d87565b8383612284565b5050565b6110aa612c75565b6000600c60009054906101000a900473ffffffffffffffffffffffffffffffffffffffff1673ffffffffffffffffffffffffffffffffffffffff1663443ebca733600060018111156110ff576110fe613ca8565b5b6040518363ffffffff1660e01b815260040161111c929190613cd7565b602060405180830381865afa158015611139573d6000803e3d6000fd5b505050506040513d601f19601f8201168201806040525081019061115d9190613d15565b90506000601760008381526020019081526020016000205490506000811161118457600080fd5b60006016600083815260200190815260200160002054905060156001826111ab9190613b18565b815481106111bc576111bb613b4c565b5b906000526020600020906002020160405180604001604052908160008201548152602001600182015481525050935050505090565b6112026111fc611d87565b83611e48565b611241576040517f08c379a000000000000000000000000000000000000000000000000000000000815260040161123890613989565b60405180910390fd5b61124d848484846123f0565b50505050565b6060601060008381526020019081526020016000208054806020026020016040519081016040528092919081815260200182805480156112b257602002820191906000526020600020905b81548152602001906001019080831161129e575b50505050509050919050565b60606112c982611d3c565b60006006600084815260200190815260200160002080546112e9906137c2565b80601f0160208091040260200160405190810160405280929190818152602001828054611315906137c2565b80156113625780601f1061133757610100808354040283529160200191611362565b820191906000526020600020905b81548152906001019060200180831161134557829003601f168201915b50505050509050600061137361244c565b905060008151036113885781925050506113cb565b6000825111156113bd5780826040516020016113a5929190613d7e565b604051602081830303815290604052925050506113cb565b6113c684612463565b925050505b919050565b600a5481565b60608060106000848152602001908152602001600020601160008581526020019081526020016000208180548060200260200160405190810160405280929190818152602001828054801561144a57602002820191906000526020600020905b815481526020019060010190808311611436575b5050505050915080805461145d906137c2565b80601f0160208091040260200160405190810160405280929190818152602001828054611489906137c2565b80156114d65780601f106114ab576101008083540402835291602001916114d6565b820191906000526020600020905b8154815290600101906020018083116114b957829003601f168201915b5050505050905091509150915091565b6000600c60009054906101000a900473ffffffffffffffffffffffffffffffffffffffff1673ffffffffffffffffffffffffffffffffffffffff166352db77c46000600181111561153a57611539613ca8565b5b336040518363ffffffff1660e01b8152600401611558929190613da2565b600060405180830381865afa158015611575573d6000803e3d6000fd5b505050506040513d6000823e3d601f19601f8201168201806040525081019061159e9190613f52565b90508060600151156115e5576040517f08c379a00000000000000000000000000000000000000000000000000000000081526004016115dc90613fe7565b60405180910390fd5b600a5434146115f357600080fd5b600d60009054906101000a900473ffffffffffffffffffffffffffffffffffffffff1673ffffffffffffffffffffffffffffffffffffffff1663422b0a5033600760009054906101000a900473ffffffffffffffffffffffffffffffffffffffff166040518363ffffffff1660e01b8152600401611672929190614007565b602060405180830381865afa15801561168f573d6000803e3d6000fd5b505050506040513d601f19601f820116820180604052508101906116b39190613a50565b6116f2576040517f08c379a00000000000000000000000000000000000000000000000000000000081526004016116e99061407c565b60405180910390fd5b6000600f600083600001516000015181526020019081526020016000205414611750576040517f08c379a0000000000000000000000000000000000000000000000000000000008152600401611747906140e8565b60405180910390fd5b6000835190506000600b60009054906101000a900473ffffffffffffffffffffffffffffffffffffffff1673ffffffffffffffffffffffffffffffffffffffff16635f7b9d736040518163ffffffff1660e01b8152600401600060405180830381865afa1580156117c5573d6000803e3d6000fd5b505050506040513d6000823e3d601f19601f820116820180604052508101906117ee919061421b565b90506000815190506000846000015160000151905060005b84811015611a6b576000600d60009054906101000a900473ffffffffffffffffffffffffffffffffffffffff1673ffffffffffffffffffffffffffffffffffffffff166385c7744c8a848151811061186157611860613b4c565b5b60200260200101516040518263ffffffff1660e01b815260040161188591906133e7565b600060405180830381865afa1580156118a2573d6000803e3d6000fd5b505050506040513d6000823e3d601f19601f820116820180604052508101906118cb9190614304565b50905082816020015114611914576040517f08c379a000000000000000000000000000000000000000000000000000000000815260040161190b906143ac565b60405180910390fd5b600060136000858152602001908152602001600020600083604001518152602001908152602001600020541461197f576040517f08c379a000000000000000000000000000000000000000000000000000000000815260040161197690614418565b60405180910390fd5b80608001516014600085815260200190815260200160002060008360600151815260200190815260200160002060008282546119bb9190614438565b92505081905550601060008481526020019081526020016000208983815181106119e8576119e7613b4c565b5b60200260200101519080600181540180825580915050600190039060005260206000200160009091909190915055601060008481526020019081526020016000208054905060136000858152602001908152602001600020600083604001518152602001908152602001600020819055505080611a649061448e565b9050611806565b5060005b82811015611b2b57838181518110611a8a57611a89613b4c565b5b602002602001015160200151601460008481526020019081526020016000206000868481518110611abe57611abd613b4c565b5b6020026020010151600001518152602001908152602001600020541015611b1a576040517f08c379a0000000000000000000000000000000000000000000000000000000008152600401611b1190614522565b60405180910390fd5b80611b249061448e565b9050611a6f565b50600e81908060018154018082558091505060019003906000526020600020016000909190919091505585601160008381526020019081526020016000209080519060200190611b7c929190612c8f565b50600e80549050600f60008381526020019081526020016000208190555050505050505050565b6000600560008473ffffffffffffffffffffffffffffffffffffffff1673ffffffffffffffffffffffffffffffffffffffff16815260200190815260200160002060008373ffffffffffffffffffffffffffffffffffffffff1673ffffffffffffffffffffffffffffffffffffffff16815260200190815260200160002060009054906101000a900460ff16905092915050565b611c3f612c75565b60006017600084815260200190815260200160002054905060008111611c6457600080fd5b6000601660008381526020019081526020016000205490506015600182611c8b9190613b18565b81548110611c9c57611c9b613b4c565b5b90600052602060002090600202016040518060400160405290816000820154815260200160018201548152505092505050919050565b60007f01ffc9a7000000000000000000000000000000000000000000000000000000007bffffffffffffffffffffffffffffffffffffffffffffffffffffffff1916827bffffffffffffffffffffffffffffffffffffffffffffffffffffffff1916149050919050565b611d45816124cb565b611d84576040517f08c379a0000000000000000000000000000000000000000000000000000000008152600401611d7b90613bf6565b60405180910390fd5b50565b600033905090565b816004600083815260200190815260200160002060006101000a81548173ffffffffffffffffffffffffffffffffffffffff021916908373ffffffffffffffffffffffffffffffffffffffff160217905550808273ffffffffffffffffffffffffffffffffffffffff16611e0283610ebd565b73ffffffffffffffffffffffffffffffffffffffff167f8c5be1e5ebec7d5bd14f71427d1e84f3dd0314c0f7b2291e5b200ac8c7c3b92560405160405180910390a45050565b600080611e5483610ebd565b90508073ffffffffffffffffffffffffffffffffffffffff168473ffffffffffffffffffffffffffffffffffffffff161480611e965750611e958185611ba3565b5b80611ed457508373ffffffffffffffffffffffffffffffffffffffff16611ebc84610730565b73ffffffffffffffffffffffffffffffffffffffff16145b91505092915050565b8273ffffffffffffffffffffffffffffffffffffffff16611efd82610ebd565b73ffffffffffffffffffffffffffffffffffffffff1614611f53576040517f08c379a0000000000000000000000000000000000000000000000000000000008152600401611f4a906145b4565b60405180910390fd5b600073ffffffffffffffffffffffffffffffffffffffff168273ffffffffffffffffffffffffffffffffffffffff1603611fc2576040517f08c379a0000000000000000000000000000000000000000000000000000000008152600401611fb990614646565b60405180910390fd5b611fcf838383600161250c565b8273ffffffffffffffffffffffffffffffffffffffff16611fef82610ebd565b73ffffffffffffffffffffffffffffffffffffffff1614612045576040517f08c379a000000000000000000000000000000000000000000000000000000000815260040161203c906145b4565b60405180910390fd5b6004600082815260200190815260200160002060006101000a81549073ffffffffffffffffffffffffffffffffffffffff02191690556001600360008573ffffffffffffffffffffffffffffffffffffffff1673ffffffffffffffffffffffffffffffffffffffff168152602001908152602001600020600082825403925050819055506001600360008473ffffffffffffffffffffffffffffffffffffffff1673ffffffffffffffffffffffffffffffffffffffff16815260200190815260200160002060008282540192505081905550816002600083815260200190815260200160002060006101000a81548173ffffffffffffffffffffffffffffffffffffffff021916908373ffffffffffffffffffffffffffffffffffffffff160217905550808273ffffffffffffffffffffffffffffffffffffffff168473ffffffffffffffffffffffffffffffffffffffff167fddf252ad1be2c89b69c2b068fc378daa952ba7f163c4a11628f55a4df523b3ef60405160405180910390a46121d18383836001612512565b505050565b6000806121e1612518565b905061223384826000368080601f016020809104026020016040519081016040528093929190818152602001838380828437600081840152601f19601f82011690508083019250505050505050612539565b61223d8184612594565b8091505092915050565b60006002600083815260200190815260200160002060009054906101000a900473ffffffffffffffffffffffffffffffffffffffff169050919050565b8173ffffffffffffffffffffffffffffffffffffffff168373ffffffffffffffffffffffffffffffffffffffff16036122f2576040517f08c379a00000000000000000000000000000000000000000000000000000000081526004016122e9906146b2565b60405180910390fd5b80600560008573ffffffffffffffffffffffffffffffffffffffff1673ffffffffffffffffffffffffffffffffffffffff16815260200190815260200160002060008473ffffffffffffffffffffffffffffffffffffffff1673ffffffffffffffffffffffffffffffffffffffff16815260200190815260200160002060006101000a81548160ff0219169083151502179055508173ffffffffffffffffffffffffffffffffffffffff168373ffffffffffffffffffffffffffffffffffffffff167f17307eab39ab6107e8899845ad3d59bd9653f200f220920489ca2b5937696c31836040516123e39190612de6565b60405180910390a3505050565b6123fb848484611edd565b61240784848484612608565b612446576040517f08c379a000000000000000000000000000000000000000000000000000000000815260040161243d90614744565b60405180910390fd5b50505050565b606060405180602001604052806000815250905090565b606061246e82611d3c565b600061247861244c565b9050600081511161249857604051806020016040528060008152506124c3565b806124a28461278f565b6040516020016124b3929190613d7e565b6040516020818303038152906040525b915050919050565b60008073ffffffffffffffffffffffffffffffffffffffff166124ed83612247565b73ffffffffffffffffffffffffffffffffffffffff1614159050919050565b50505050565b50505050565b6000612524600861285d565b60006125306008612873565b90508091505090565b6125438383612881565b6125506000848484612608565b61258f576040517f08c379a000000000000000000000000000000000000000000000000000000000815260040161258690614744565b60405180910390fd5b505050565b61259d826124cb565b6125dc576040517f08c379a00000000000000000000000000000000000000000000000000000000081526004016125d3906147d6565b60405180910390fd5b80600660008481526020019081526020016000209080519060200190612603929190612c8f565b505050565b60006126298473ffffffffffffffffffffffffffffffffffffffff16612a9e565b15612782578373ffffffffffffffffffffffffffffffffffffffff1663150b7a02612652611d87565b8786866040518563ffffffff1660e01b8152600401612674949392919061484b565b6020604051808303816000875af19250505080156126b057506040513d601f19601f820116820180604052508101906126ad91906148ac565b60015b612732573d80600081146126e0576040519150601f19603f3d011682016040523d82523d6000602084013e6126e5565b606091505b50600081510361272a576040517f08c379a000000000000000000000000000000000000000000000000000000000815260040161272190614744565b60405180910390fd5b805181602001fd5b63150b7a0260e01b7bffffffffffffffffffffffffffffffffffffffffffffffffffffffff1916817bffffffffffffffffffffffffffffffffffffffffffffffffffffffff191614915050612787565b600190505b949350505050565b60606000600161279e84612ac1565b01905060008167ffffffffffffffff8111156127bd576127bc613224565b5b6040519080825280601f01601f1916602001820160405280156127ef5781602001600182028036833780820191505090505b509050600082602001820190505b600115612852578080600190039150507f3031323334353637383961626364656600000000000000000000000000000000600a86061a8153600a8581612846576128456148d9565b5b049450600085036127fd575b819350505050919050565b6001816000016000828254019250508190555050565b600081600001549050919050565b600073ffffffffffffffffffffffffffffffffffffffff168273ffffffffffffffffffffffffffffffffffffffff16036128f0576040517f08c379a00000000000000000000000000000000000000000000000000000000081526004016128e790614954565b60405180910390fd5b6128f9816124cb565b15612939576040517f08c379a0000000000000000000000000000000000000000000000000000000008152600401612930906149c0565b60405180910390fd5b61294760008383600161250c565b612950816124cb565b15612990576040517f08c379a0000000000000000000000000000000000000000000000000000000008152600401612987906149c0565b60405180910390fd5b6001600360008473ffffffffffffffffffffffffffffffffffffffff1673ffffffffffffffffffffffffffffffffffffffff16815260200190815260200160002060008282540192505081905550816002600083815260200190815260200160002060006101000a81548173ffffffffffffffffffffffffffffffffffffffff021916908373ffffffffffffffffffffffffffffffffffffffff160217905550808273ffffffffffffffffffffffffffffffffffffffff16600073ffffffffffffffffffffffffffffffffffffffff167fddf252ad1be2c89b69c2b068fc378daa952ba7f163c4a11628f55a4df523b3ef60405160405180910390a4612a9a600083836001612512565b5050565b6000808273ffffffffffffffffffffffffffffffffffffffff163b119050919050565b600080600090507a184f03e93ff9f4daa797ed6e38ed64bf6a1f0100000000000000008310612b1f577a184f03e93ff9f4daa797ed6e38ed64bf6a1f0100000000000000008381612b1557612b146148d9565b5b0492506040810190505b6d04ee2d6d415b85acef81000000008310612b5c576d04ee2d6d415b85acef81000000008381612b5257612b516148d9565b5b0492506020810190505b662386f26fc100008310612b8b57662386f26fc100008381612b8157612b806148d9565b5b0492506010810190505b6305f5e1008310612bb4576305f5e1008381612baa57612ba96148d9565b5b0492506008810190505b6127108310612bd9576127108381612bcf57612bce6148d9565b5b0492506004810190505b60648310612bfc5760648381612bf257612bf16148d9565b5b0492506002810190505b600a8310612c0b576001810190505b80915050919050565b5080546000825590600052602060002090810190612c329190612d15565b50565b508054612c41906137c2565b6000825580601f10612c535750612c72565b601f016020900490600052602060002090810190612c719190612d15565b5b50565b604051806040016040528060008152602001600081525090565b828054612c9b906137c2565b90600052602060002090601f016020900481019282612cbd5760008555612d04565b82601f10612cd657805160ff1916838001178555612d04565b82800160010185558215612d04579182015b82811115612d03578251825591602001919060010190612ce8565b5b509050612d119190612d15565b5090565b5b80821115612d2e576000816000905550600101612d16565b5090565b6000604051905090565b600080fd5b600080fd5b60007fffffffff0000000000000000000000000000000000000000000000000000000082169050919050565b612d7b81612d46565b8114612d8657600080fd5b50565b600081359050612d9881612d72565b92915050565b600060208284031215612db457612db3612d3c565b5b6000612dc284828501612d89565b91505092915050565b60008115159050919050565b612de081612dcb565b82525050565b6000602082019050612dfb6000830184612dd7565b92915050565b600081519050919050565b600082825260208201905092915050565b60005b83811015612e3b578082015181840152602081019050612e20565b83811115612e4a576000848401525b50505050565b6000601f19601f8301169050919050565b6000612e6c82612e01565b612e768185612e0c565b9350612e86818560208601612e1d565b612e8f81612e50565b840191505092915050565b60006020820190508181036000830152612eb48184612e61565b905092915050565b6000819050919050565b612ecf81612ebc565b8114612eda57600080fd5b50565b600081359050612eec81612ec6565b92915050565b600060208284031215612f0857612f07612d3c565b5b6000612f1684828501612edd565b91505092915050565b600073ffffffffffffffffffffffffffffffffffffffff82169050919050565b6000612f4a82612f1f565b9050919050565b612f5a81612f3f565b82525050565b6000602082019050612f756000830184612f51565b92915050565b612f8481612f3f565b8114612f8f57600080fd5b50565b600081359050612fa181612f7b565b92915050565b60008060408385031215612fbe57612fbd612d3c565b5b6000612fcc85828601612f92565b9250506020612fdd85828601612edd565b9150509250929050565b600081519050919050565b600082825260208201905092915050565b6000819050602082019050919050565b61301c81612ebc565b82525050565b600061302e8383613013565b60208301905092915050565b6000602082019050919050565b600061305282612fe7565b61305c8185612ff2565b935061306783613003565b8060005b8381101561309857815161307f8882613022565b975061308a8361303a565b92505060018101905061306b565b5085935050505092915050565b600060208201905081810360008301526130bf8184613047565b905092915050565b6000806000606084860312156130e0576130df612d3c565b5b60006130ee86828701612f92565b93505060206130ff86828701612f92565b925050604061311086828701612edd565b9150509250925092565b600081519050919050565b600082825260208201905092915050565b6000819050602082019050919050565b60408201600082015161315c6000850182613013565b50602082015161316f6020850182613013565b50505050565b60006131818383613146565b60408301905092915050565b6000602082019050919050565b60006131a58261311a565b6131af8185613125565b93506131ba83613136565b8060005b838110156131eb5781516131d28882613175565b97506131dd8361318d565b9250506001810190506131be565b5085935050505092915050565b60006020820190508181036000830152613212818461319a565b905092915050565b600080fd5b600080fd5b7f4e487b7100000000000000000000000000000000000000000000000000000000600052604160045260246000fd5b61325c82612e50565b810181811067ffffffffffffffff8211171561327b5761327a613224565b5b80604052505050565b600061328e612d32565b905061329a8282613253565b919050565b600067ffffffffffffffff8211156132ba576132b9613224565b5b6132c382612e50565b9050602081019050919050565b82818337600083830152505050565b60006132f26132ed8461329f565b613284565b90508281526020810184848401111561330e5761330d61321f565b5b6133198482856132d0565b509392505050565b600082601f8301126133365761333561321a565b5b81356133468482602086016132df565b91505092915050565b6000806040838503121561336657613365612d3c565b5b600061337485828601612edd565b925050602083013567ffffffffffffffff81111561339557613394612d41565b5b6133a185828601613321565b9150509250929050565b6000602082840312156133c1576133c0612d3c565b5b60006133cf84828501612f92565b91505092915050565b6133e181612ebc565b82525050565b60006020820190506133fc60008301846133d8565b92915050565b61340b81612dcb565b811461341657600080fd5b50565b60008135905061342881613402565b92915050565b6000806040838503121561344557613444612d3c565b5b600061345385828601612f92565b925050602061346485828601613419565b9150509250929050565b6040820160008201516134846000850182613013565b5060208201516134976020850182613013565b50505050565b60006040820190506134b2600083018461346e565b92915050565b600067ffffffffffffffff8211156134d3576134d2613224565b5b6134dc82612e50565b9050602081019050919050565b60006134fc6134f7846134b8565b613284565b9050828152602081018484840111156135185761351761321f565b5b6135238482856132d0565b509392505050565b600082601f8301126135405761353f61321a565b5b81356135508482602086016134e9565b91505092915050565b6000806000806080858703121561357357613572612d3c565b5b600061358187828801612f92565b945050602061359287828801612f92565b93505060406135a387828801612edd565b925050606085013567ffffffffffffffff8111156135c4576135c3612d41565b5b6135d08782880161352b565b91505092959194509250565b600060408201905081810360008301526135f68185613047565b9050818103602083015261360a8184612e61565b90509392505050565b600067ffffffffffffffff82111561362e5761362d613224565b5b602082029050602081019050919050565b600080fd5b600061365761365284613613565b613284565b9050808382526020820190506020840283018581111561367a5761367961363f565b5b835b818110156136a3578061368f8882612edd565b84526020840193505060208101905061367c565b5050509392505050565b600082601f8301126136c2576136c161321a565b5b81356136d2848260208601613644565b91505092915050565b600080604083850312156136f2576136f1612d3c565b5b600083013567ffffffffffffffff8111156137105761370f612d41565b5b61371c858286016136ad565b925050602083013567ffffffffffffffff81111561373d5761373c612d41565b5b61374985828601613321565b9150509250929050565b6000806040838503121561376a57613769612d3c565b5b600061377885828601612f92565b925050602061378985828601612f92565b9150509250929050565b7f4e487b7100000000000000000000000000000000000000000000000000000000600052602260045260246000fd5b600060028204905060018216806137da57607f821691505b6020821081036137ed576137ec613793565b5b50919050565b7f4552433732313a20617070726f76616c20746f2063757272656e74206f776e6560008201527f7200000000000000000000000000000000000000000000000000000000000000602082015250565b600061384f602183612e0c565b915061385a826137f3565b604082019050919050565b6000602082019050818103600083015261387e81613842565b9050919050565b7f4552433732313a20617070726f76652063616c6c6572206973206e6f7420746f60008201527f6b656e206f776e6572206f7220617070726f76656420666f7220616c6c000000602082015250565b60006138e1603d83612e0c565b91506138ec82613885565b604082019050919050565b60006020820190508181036000830152613910816138d4565b9050919050565b7f4552433732313a2063616c6c6572206973206e6f7420746f6b656e206f776e6560008201527f72206f7220617070726f76656400000000000000000000000000000000000000602082015250565b6000613973602d83612e0c565b915061397e82613917565b604082019050919050565b600060208201905081810360008301526139a281613966565b9050919050565b7f53747564656e74206469646e277420726571756573742067726164756174696f60008201527f6e20636572746966696361746500000000000000000000000000000000000000602082015250565b6000613a05602d83612e0c565b9150613a10826139a9565b604082019050919050565b60006020820190508181036000830152613a34816139f8565b9050919050565b600081519050613a4a81613402565b92915050565b600060208284031215613a6657613a65612d3c565b5b6000613a7484828501613a3b565b91505092915050565b7f4e6f742072656761696e65640000000000000000000000000000000000000000600082015250565b6000613ab3600c83612e0c565b9150613abe82613a7d565b602082019050919050565b60006020820190508181036000830152613ae281613aa6565b9050919050565b7f4e487b7100000000000000000000000000000000000000000000000000000000600052601160045260246000fd5b6000613b2382612ebc565b9150613b2e83612ebc565b925082821015613b4157613b40613ae9565b5b828203905092915050565b7f4e487b7100000000000000000000000000000000000000000000000000000000600052603260045260246000fd5b7f4e487b7100000000000000000000000000000000000000000000000000000000600052603160045260246000fd5b7f4552433732313a20696e76616c696420746f6b656e2049440000000000000000600082015250565b6000613be0601883612e0c565b9150613beb82613baa565b602082019050919050565b60006020820190508181036000830152613c0f81613bd3565b9050919050565b7f4552433732313a2061646472657373207a65726f206973206e6f74206120766160008201527f6c6964206f776e65720000000000000000000000000000000000000000000000602082015250565b6000613c72602983612e0c565b9150613c7d82613c16565b604082019050919050565b60006020820190508181036000830152613ca181613c65565b9050919050565b7f4e487b7100000000000000000000000000000000000000000000000000000000600052602160045260246000fd5b6000604082019050613cec6000830185612f51565b613cf960208301846133d8565b9392505050565b600081519050613d0f81612ec6565b92915050565b600060208284031215613d2b57613d2a612d3c565b5b6000613d3984828501613d00565b91505092915050565b600081905092915050565b6000613d5882612e01565b613d628185613d42565b9350613d72818560208601612e1d565b80840191505092915050565b6000613d8a8285613d4d565b9150613d968284613d4d565b91508190509392505050565b6000604082019050613db760008301856133d8565b613dc46020830184612f51565b9392505050565b600080fd5b600080fd5b600081519050613de481612f7b565b92915050565b600060608284031215613e0057613dff613dcb565b5b613e0a6060613284565b90506000613e1a84828501613d00565b6000830152506020613e2e84828501613dd5565b6020830152506040613e4284828501613d00565b60408301525092915050565b6000613e61613e5c8461329f565b613284565b905082815260208101848484011115613e7d57613e7c61321f565b5b613e88848285612e1d565b509392505050565b600082601f830112613ea557613ea461321a565b5b8151613eb5848260208601613e4e565b91505092915050565b600060c08284031215613ed457613ed3613dcb565b5b613ede6080613284565b90506000613eee84828501613dea565b600083015250606082015167ffffffffffffffff811115613f1257613f11613dd0565b5b613f1e84828501613e90565b6020830152506080613f3284828501613d00565b60408301525060a0613f4684828501613a3b565b60608301525092915050565b600060208284031215613f6857613f67612d3c565b5b600082015167ffffffffffffffff811115613f8657613f85612d41565b5b613f9284828501613ebe565b91505092915050565b7f6964656e74697479206578706972656400000000000000000000000000000000600082015250565b6000613fd1601083612e0c565b9150613fdc82613f9b565b602082019050919050565b6000602082019050818103600083015261400081613fc4565b9050919050565b600060408201905061401c6000830185612f51565b6140296020830184612f51565b9392505050565b7f6e6f7420617070726f7665000000000000000000000000000000000000000000600082015250565b6000614066600b83612e0c565b915061407182614030565b602082019050919050565b6000602082019050818103600083015261409581614059565b9050919050565b7f63757272656e7420696e20717565756500000000000000000000000000000000600082015250565b60006140d2601083612e0c565b91506140dd8261409c565b602082019050919050565b60006020820190508181036000830152614101816140c5565b9050919050565b600067ffffffffffffffff82111561412357614122613224565b5b602082029050602081019050919050565b60006040828403121561414a57614149613dcb565b5b6141546040613284565b9050600061416484828501613d00565b600083015250602061417884828501613d00565b60208301525092915050565b600061419761419284614108565b613284565b905080838252602082019050604084028301858111156141ba576141b961363f565b5b835b818110156141e357806141cf8882614134565b8452602084019350506040810190506141bc565b5050509392505050565b600082601f8301126142025761420161321a565b5b8151614212848260208601614184565b91505092915050565b60006020828403121561423157614230612d3c565b5b600082015167ffffffffffffffff81111561424f5761424e612d41565b5b61425b848285016141ed565b91505092915050565b600060c0828403121561427a57614279613dcb565b5b61428460c0613284565b9050600061429484828501613d00565b60008301525060206142a884828501613d00565b60208301525060406142bc84828501613d00565b60408301525060606142d084828501613d00565b60608301525060806142e484828501613d00565b60808301525060a06142f884828501613d00565b60a08301525092915050565b60008060e0838503121561431b5761431a612d3c565b5b600061432985828601614264565b92505060c083015167ffffffffffffffff81111561434a57614349612d41565b5b61435685828601613e90565b9150509250929050565b7f4e6f7420796f7572204e667420436f6d706c65746520436f7572736500000000600082015250565b6000614396601c83612e0c565b91506143a182614360565b602082019050919050565b600060208201905081810360008301526143c581614389565b9050919050565b7f4475706c696361746520636f7572736500000000000000000000000000000000600082015250565b6000614402601083612e0c565b915061440d826143cc565b602082019050919050565b60006020820190508181036000830152614431816143f5565b9050919050565b600061444382612ebc565b915061444e83612ebc565b9250827fffffffffffffffffffffffffffffffffffffffffffffffffffffffffffffffff0382111561448357614482613ae9565b5b828201905092915050565b600061449982612ebc565b91507fffffffffffffffffffffffffffffffffffffffffffffffffffffffffffffffff82036144cb576144ca613ae9565b5b600182019050919050565b7f6e6f7420656e6f75676820637265646974730000000000000000000000000000600082015250565b600061450c601283612e0c565b9150614517826144d6565b602082019050919050565b6000602082019050818103600083015261453b816144ff565b9050919050565b7f4552433732313a207472616e736665722066726f6d20696e636f72726563742060008201527f6f776e6572000000000000000000000000000000000000000000000000000000602082015250565b600061459e602583612e0c565b91506145a982614542565b604082019050919050565b600060208201905081810360008301526145cd81614591565b9050919050565b7f4552433732313a207472616e7366657220746f20746865207a65726f2061646460008201527f7265737300000000000000000000000000000000000000000000000000000000602082015250565b6000614630602483612e0c565b915061463b826145d4565b604082019050919050565b6000602082019050818103600083015261465f81614623565b9050919050565b7f4552433732313a20617070726f766520746f2063616c6c657200000000000000600082015250565b600061469c601983612e0c565b91506146a782614666565b602082019050919050565b600060208201905081810360008301526146cb8161468f565b9050919050565b7f4552433732313a207472616e7366657220746f206e6f6e20455243373231526560008201527f63656976657220696d706c656d656e7465720000000000000000000000000000602082015250565b600061472e603283612e0c565b9150614739826146d2565b604082019050919050565b6000602082019050818103600083015261475d81614721565b9050919050565b7f45524337323155524953746f726167653a2055524920736574206f66206e6f6e60008201527f6578697374656e7420746f6b656e000000000000000000000000000000000000602082015250565b60006147c0602e83612e0c565b91506147cb82614764565b604082019050919050565b600060208201905081810360008301526147ef816147b3565b9050919050565b600081519050919050565b600082825260208201905092915050565b600061481d826147f6565b6148278185614801565b9350614837818560208601612e1d565b61484081612e50565b840191505092915050565b60006080820190506148606000830187612f51565b61486d6020830186612f51565b61487a60408301856133d8565b818103606083015261488c8184614812565b905095945050505050565b6000815190506148a681612d72565b92915050565b6000602082840312156148c2576148c1612d3c565b5b60006148d084828501614897565b91505092915050565b7f4e487b7100000000000000000000000000000000000000000000000000000000600052601260045260246000fd5b7f4552433732313a206d696e7420746f20746865207a65726f2061646472657373600082015250565b600061493e602083612e0c565b915061494982614908565b602082019050919050565b6000602082019050818103600083015261496d81614931565b9050919050565b7f4552433732313a20746f6b656e20616c7265616479206d696e74656400000000600082015250565b60006149aa601c83612e0c565b91506149b582614974565b602082019050919050565b600060208201905081810360008301526149d98161499d565b905091905056fea264697066735822122067fc36905571371d556a29b0de84c9aaab373e4a006465d1650af86a706c0f1e64736f6c634300080d0033",
  "immutableReferences": {},
  "source": "// SPDX-License-Identifier: MIT\r\n// Tells the Solidity compiler to compile only from v0.8.13 to v0.9.0\r\npragma solidity ^0.8.13;\r\n\r\nimport \"./ERC721BaseContract.sol\";\r\nimport \"./interfaces/INftGraduation.sol\";\r\nimport \"./interfaces/INftIdentities.sol\";\r\nimport \"./interfaces/INftCertificates.sol\";\r\nimport \"./interfaces/INftSchool.sol\";\r\n\r\ncontract NftGraduation is ERC721BaseContract, INftGraduation {\r\n    uint256 public requestGraduationCertificatePrice = 0.5 ether;\r\n\r\n    INftSchool private _nftSchool;\r\n    INftIdentities private _nftIdentities;\r\n    INftCertificates private _nftCertificates;\r\n\r\n    bool private _isInitialize;\r\n\r\n    uint256[] private _requestGraduationQueue;\r\n    mapping(uint256 => uint256) private _posOfRequestInQueue;\r\n    mapping(uint256 => uint256[]) private _requestGraduationCompleteCourseIds;\r\n    mapping(uint256 => string) private _requestGraduationURI;\r\n    mapping(uint256 => uint256) private _posOfRequestGraduationCompleteCourseId;\r\n    mapping(uint256 => mapping(uint256 => uint256))\r\n        private _posOfCompleteCourseInRequest;\r\n    mapping(uint256 => mapping(uint256 => uint256))\r\n        private totalAcquiredCreditsOfStudent;\r\n\r\n    NftGraduation[] private _allNftGraduations;\r\n    mapping(uint256 => uint256) private _posOfNftGraduationTokenId;\r\n    mapping(uint256 => uint256) private _tokenIdOfStudent;\r\n\r\n    event GrantNewNftGraduation(uint256 tokenId);\r\n\r\n    modifier onlyOwner() {\r\n        require(_owner == msg.sender);\r\n        _;\r\n    }\r\n\r\n    constructor(\r\n        address nftIdentities,\r\n        address nftSchool,\r\n        address nftCertificates\r\n    ) ERC721BaseContract(\"NftGraduation\", \"NCR\") {\r\n        _isInitialize = false;\r\n        _nftIdentities = INftIdentities(nftIdentities);\r\n        _nftSchool = INftSchool(nftSchool);\r\n        _nftCertificates = INftCertificates(nftCertificates);\r\n    }\r\n\r\n    function getNftCompleteCourseForRequestGraduation(\r\n        uint256 studentTokenId\r\n    ) public view returns (uint256[] memory) {\r\n        return _requestGraduationCompleteCourseIds[studentTokenId];\r\n    }\r\n\r\n    function getAllRequestGraduationStudents()\r\n        public\r\n        view\r\n        onlyOwner\r\n        returns (uint256[] memory)\r\n    {\r\n        return _requestGraduationQueue;\r\n    }\r\n\r\n    function getRequestGraduationDetail(\r\n        uint256 studentTokenId\r\n    ) public view returns (uint256[] memory, string memory) {\r\n        return (\r\n            _requestGraduationCompleteCourseIds[studentTokenId],\r\n            _requestGraduationURI[studentTokenId]\r\n        );\r\n    }\r\n\r\n    function checkRequestInQueue(\r\n        uint256 studentTokenId\r\n    ) public view returns (bool) {\r\n        return _posOfRequestInQueue[studentTokenId] > 0;\r\n    }\r\n\r\n    function getNftGraduation(\r\n        uint256 studentTokenId\r\n    ) public view returns (NftGraduation memory) {\r\n        uint256 tokenId = _tokenIdOfStudent[studentTokenId];\r\n        require(tokenId > 0);\r\n        uint256 pos = _posOfNftGraduationTokenId[tokenId];\r\n\r\n        return _allNftGraduations[pos - 1];\r\n    }\r\n\r\n    function getOwnedNftGraduation()\r\n        public\r\n        view\r\n        returns (NftGraduation memory)\r\n    {\r\n        uint256 studentTokenId = _nftIdentities.getNftTokenIdOfRole(\r\n            msg.sender,\r\n            uint256(ROLE.STUDENT)\r\n        );\r\n        uint256 tokenId = _tokenIdOfStudent[studentTokenId];\r\n        require(tokenId > 0);\r\n        uint256 pos = _posOfNftGraduationTokenId[tokenId];\r\n\r\n        return _allNftGraduations[pos - 1];\r\n    }\r\n\r\n    function getAllGraduations()\r\n        public\r\n        view\r\n        onlyOwner\r\n        returns (NftGraduation[] memory)\r\n    {\r\n        return _allNftGraduations;\r\n    }\r\n\r\n    function requestGraduationCertificate(\r\n        uint256[] memory nftCompleteCourseTokenIds,\r\n        string memory uri\r\n    ) public payable {\r\n        NftIdentityResponse memory nftIdentityResponse = _nftIdentities\r\n            .getNftOfMemberWithRole(uint256(ROLE.STUDENT), msg.sender);\r\n        require(!nftIdentityResponse.isExpired, \"identity expired\");\r\n        require(msg.value == requestGraduationCertificatePrice);\r\n        require(\r\n            _nftCertificates.checkApprovedForAll(msg.sender, _owner),\r\n            \"not approve\"\r\n        );\r\n        require(\r\n            _posOfRequestInQueue[nftIdentityResponse.nftIdentity.tokenId] == 0,\r\n            \"current in queue\"\r\n        );\r\n        uint256 count = nftCompleteCourseTokenIds.length;\r\n        KnowledgeBlock[] memory knowledgeBlocks = _nftSchool\r\n            .getAllKnowledgeBlocks();\r\n        uint256 knowledgeBlockCount = knowledgeBlocks.length;\r\n        uint256 studentTokenId = nftIdentityResponse.nftIdentity.tokenId;\r\n\r\n        for (uint256 idx; idx < count; ++idx) {\r\n            (NftCompleteCourse memory nftCompleteCourse, ) = _nftCertificates\r\n                .getNftCompleteCourse(nftCompleteCourseTokenIds[idx]);\r\n            require(\r\n                nftCompleteCourse.studentTokenId == studentTokenId,\r\n                \"Not your Nft Complete Course\"\r\n            );\r\n            require(\r\n                _posOfCompleteCourseInRequest[studentTokenId][\r\n                    nftCompleteCourse.courseId\r\n                ] == 0,\r\n                \"Duplicate course\"\r\n            );\r\n\r\n            totalAcquiredCreditsOfStudent[studentTokenId][\r\n                nftCompleteCourse.knowledgeBlockId\r\n            ] += nftCompleteCourse.credits;\r\n            _requestGraduationCompleteCourseIds[studentTokenId].push(\r\n                nftCompleteCourseTokenIds[idx]\r\n            );\r\n            _posOfCompleteCourseInRequest[studentTokenId][\r\n                nftCompleteCourse.courseId\r\n            ] = _requestGraduationCompleteCourseIds[studentTokenId].length;\r\n        }\r\n\r\n        // validate number of credits\r\n        for (uint256 idx; idx < knowledgeBlockCount; ++idx) {\r\n            require(\r\n                totalAcquiredCreditsOfStudent[studentTokenId][\r\n                    knowledgeBlocks[idx].id\r\n                ] >= knowledgeBlocks[idx].credits,\r\n                \"not enough credits\"\r\n            );\r\n        }\r\n\r\n        _requestGraduationQueue.push(studentTokenId);\r\n        _requestGraduationURI[studentTokenId] = uri;\r\n        _posOfRequestInQueue[studentTokenId] = _requestGraduationQueue.length;\r\n    }\r\n\r\n    function grantNftGraduation(\r\n        uint256 studentTokenId,\r\n        string memory tokenURI\r\n    ) public onlyOwner {\r\n        require(\r\n            _posOfRequestInQueue[studentTokenId] > 0,\r\n            \"Student didn't request graduation certificate\"\r\n        );\r\n        uint256[]\r\n            memory nftCompleteCourseTokenIds = _requestGraduationCompleteCourseIds[\r\n                studentTokenId\r\n            ];\r\n        require(\r\n            _nftCertificates.checkAllNftCompleteCoursesRegained(\r\n                nftCompleteCourseTokenIds\r\n            ),\r\n            \"Not regained\"\r\n        );\r\n        uint256 tokenId = _mintToken(msg.sender, tokenURI);\r\n        NftGraduation memory nftGraduation = NftGraduation(\r\n            tokenId,\r\n            studentTokenId\r\n        );\r\n        _allNftGraduations.push(nftGraduation);\r\n        _posOfNftGraduationTokenId[tokenId] = _allNftGraduations.length;\r\n        _tokenIdOfStudent[studentTokenId] = tokenId;\r\n\r\n        delete _requestGraduationCompleteCourseIds[studentTokenId];\r\n        delete _requestGraduationURI[studentTokenId];\r\n        uint256 pos = _posOfRequestInQueue[studentTokenId];\r\n        uint256 lastRequestQueuePos = _requestGraduationQueue.length;\r\n        if (pos < lastRequestQueuePos) {\r\n            _requestGraduationQueue[pos - 1] = _requestGraduationQueue[\r\n                lastRequestQueuePos - 1\r\n            ];\r\n            _posOfRequestInQueue[\r\n                _requestGraduationQueue[lastRequestQueuePos - 1]\r\n            ] = pos;\r\n        }\r\n        _requestGraduationQueue.pop();\r\n        delete _posOfRequestInQueue[studentTokenId];\r\n\r\n        emit GrantNewNftGraduation(tokenId);\r\n    }\r\n}\r\n",
  "sourcePath": "E:\\learn\\learn-to-earn\\blockchain\\contracts\\NftGraduation.sol",
  "compiler": {
    "name": "solc",
    "version": "0.8.13+commit.abaa5c0e.Emscripten.clang"
  },
  "schemaVersion": "3.4.13",
  "updatedAt": "2023-06-20T05:28:08.857Z",
  "networkType": "ethereum",
  "devdoc": {
    "kind": "dev",
    "methods": {
      "approve(address,uint256)": {
        "details": "See {IERC721-approve}."
      },
      "balanceOf(address)": {
        "details": "See {IERC721-balanceOf}."
      },
      "getApproved(uint256)": {
        "details": "See {IERC721-getApproved}."
      },
      "isApprovedForAll(address,address)": {
        "details": "See {IERC721-isApprovedForAll}."
      },
      "name()": {
        "details": "See {IERC721Metadata-name}."
      },
      "ownerOf(uint256)": {
        "details": "See {IERC721-ownerOf}."
      },
      "safeTransferFrom(address,address,uint256)": {
        "details": "See {IERC721-safeTransferFrom}."
      },
      "safeTransferFrom(address,address,uint256,bytes)": {
        "details": "See {IERC721-safeTransferFrom}."
      },
      "setApprovalForAll(address,bool)": {
        "details": "See {IERC721-setApprovalForAll}."
      },
      "supportsInterface(bytes4)": {
        "details": "See {IERC165-supportsInterface}."
      },
      "symbol()": {
        "details": "See {IERC721Metadata-symbol}."
      },
      "tokenURI(uint256)": {
        "details": "See {IERC721Metadata-tokenURI}."
      },
      "transferFrom(address,address,uint256)": {
        "details": "See {IERC721-transferFrom}."
      }
    },
    "version": 1
  },
  "userdoc": {
    "kind": "user",
    "methods": {},
    "version": 1
  }
}