{
  "contractName": "NftGraduation",
  "abi": [
    {
      "inputs": [
        {
          "internalType": "address",
          "name": "nftIdentities",
          "type": "address"
        },
        {
          "internalType": "address",
          "name": "school",
          "type": "address"
        },
        {
          "internalType": "address",
          "name": "nftCompleteCourse",
          "type": "address"
        }
      ],
      "stateMutability": "nonpayable",
      "type": "constructor"
    },
    {
      "anonymous": false,
      "inputs": [
        {
          "indexed": true,
          "internalType": "address",
          "name": "owner",
          "type": "address"
        },
        {
          "indexed": true,
          "internalType": "address",
          "name": "approved",
          "type": "address"
        },
        {
          "indexed": true,
          "internalType": "uint256",
          "name": "tokenId",
          "type": "uint256"
        }
      ],
      "name": "Approval",
      "type": "event"
    },
    {
      "anonymous": false,
      "inputs": [
        {
          "indexed": true,
          "internalType": "address",
          "name": "owner",
          "type": "address"
        },
        {
          "indexed": true,
          "internalType": "address",
          "name": "operator",
          "type": "address"
        },
        {
          "indexed": false,
          "internalType": "bool",
          "name": "approved",
          "type": "bool"
        }
      ],
      "name": "ApprovalForAll",
      "type": "event"
    },
    {
      "anonymous": false,
      "inputs": [
        {
          "indexed": false,
          "internalType": "uint256",
          "name": "tokenId",
          "type": "uint256"
        }
      ],
      "name": "GrantNewNftGraduation",
      "type": "event"
    },
    {
      "anonymous": false,
      "inputs": [
        {
          "indexed": true,
          "internalType": "address",
          "name": "from",
          "type": "address"
        },
        {
          "indexed": true,
          "internalType": "address",
          "name": "to",
          "type": "address"
        },
        {
          "indexed": true,
          "internalType": "uint256",
          "name": "tokenId",
          "type": "uint256"
        }
      ],
      "name": "Transfer",
      "type": "event"
    },
    {
      "inputs": [
        {
          "internalType": "address",
          "name": "to",
          "type": "address"
        },
        {
          "internalType": "uint256",
          "name": "tokenId",
          "type": "uint256"
        }
      ],
      "name": "approve",
      "outputs": [],
      "stateMutability": "nonpayable",
      "type": "function"
    },
    {
      "inputs": [
        {
          "internalType": "address",
          "name": "owner",
          "type": "address"
        }
      ],
      "name": "balanceOf",
      "outputs": [
        {
          "internalType": "uint256",
          "name": "",
          "type": "uint256"
        }
      ],
      "stateMutability": "view",
      "type": "function",
      "constant": true
    },
    {
      "inputs": [
        {
          "internalType": "uint256",
          "name": "tokenId",
          "type": "uint256"
        }
      ],
      "name": "getApproved",
      "outputs": [
        {
          "internalType": "address",
          "name": "",
          "type": "address"
        }
      ],
      "stateMutability": "view",
      "type": "function",
      "constant": true
    },
    {
      "inputs": [
        {
          "internalType": "address",
          "name": "owner",
          "type": "address"
        },
        {
          "internalType": "address",
          "name": "operator",
          "type": "address"
        }
      ],
      "name": "isApprovedForAll",
      "outputs": [
        {
          "internalType": "bool",
          "name": "",
          "type": "bool"
        }
      ],
      "stateMutability": "view",
      "type": "function",
      "constant": true
    },
    {
      "inputs": [],
      "name": "name",
      "outputs": [
        {
          "internalType": "string",
          "name": "",
          "type": "string"
        }
      ],
      "stateMutability": "view",
      "type": "function",
      "constant": true
    },
    {
      "inputs": [
        {
          "internalType": "uint256",
          "name": "tokenId",
          "type": "uint256"
        }
      ],
      "name": "ownerOf",
      "outputs": [
        {
          "internalType": "address",
          "name": "",
          "type": "address"
        }
      ],
      "stateMutability": "view",
      "type": "function",
      "constant": true
    },
    {
      "inputs": [
        {
          "internalType": "address",
          "name": "from",
          "type": "address"
        },
        {
          "internalType": "address",
          "name": "to",
          "type": "address"
        },
        {
          "internalType": "uint256",
          "name": "tokenId",
          "type": "uint256"
        }
      ],
      "name": "safeTransferFrom",
      "outputs": [],
      "stateMutability": "nonpayable",
      "type": "function"
    },
    {
      "inputs": [
        {
          "internalType": "address",
          "name": "from",
          "type": "address"
        },
        {
          "internalType": "address",
          "name": "to",
          "type": "address"
        },
        {
          "internalType": "uint256",
          "name": "tokenId",
          "type": "uint256"
        },
        {
          "internalType": "bytes",
          "name": "data",
          "type": "bytes"
        }
      ],
      "name": "safeTransferFrom",
      "outputs": [],
      "stateMutability": "nonpayable",
      "type": "function"
    },
    {
      "inputs": [
        {
          "internalType": "address",
          "name": "operator",
          "type": "address"
        },
        {
          "internalType": "bool",
          "name": "approved",
          "type": "bool"
        }
      ],
      "name": "setApprovalForAll",
      "outputs": [],
      "stateMutability": "nonpayable",
      "type": "function"
    },
    {
      "inputs": [
        {
          "internalType": "bytes4",
          "name": "interfaceId",
          "type": "bytes4"
        }
      ],
      "name": "supportsInterface",
      "outputs": [
        {
          "internalType": "bool",
          "name": "",
          "type": "bool"
        }
      ],
      "stateMutability": "view",
      "type": "function",
      "constant": true
    },
    {
      "inputs": [],
      "name": "symbol",
      "outputs": [
        {
          "internalType": "string",
          "name": "",
          "type": "string"
        }
      ],
      "stateMutability": "view",
      "type": "function",
      "constant": true
    },
    {
      "inputs": [
        {
          "internalType": "uint256",
          "name": "tokenId",
          "type": "uint256"
        }
      ],
      "name": "tokenURI",
      "outputs": [
        {
          "internalType": "string",
          "name": "",
          "type": "string"
        }
      ],
      "stateMutability": "view",
      "type": "function",
      "constant": true
    },
    {
      "inputs": [
        {
          "internalType": "address",
          "name": "from",
          "type": "address"
        },
        {
          "internalType": "address",
          "name": "to",
          "type": "address"
        },
        {
          "internalType": "uint256",
          "name": "tokenId",
          "type": "uint256"
        }
      ],
      "name": "transferFrom",
      "outputs": [],
      "stateMutability": "nonpayable",
      "type": "function"
    },
    {
      "inputs": [
        {
          "internalType": "uint256",
          "name": "tokenId",
          "type": "uint256"
        }
      ],
      "name": "getNftGraduationByTokenId",
      "outputs": [
        {
          "components": [
            {
              "internalType": "uint256",
              "name": "tokenId",
              "type": "uint256"
            },
            {
              "internalType": "uint256",
              "name": "studentTokenId",
              "type": "uint256"
            }
          ],
          "internalType": "struct IConstant.NftGraduation",
          "name": "",
          "type": "tuple"
        }
      ],
      "stateMutability": "view",
      "type": "function",
      "constant": true
    },
    {
      "inputs": [
        {
          "internalType": "uint256",
          "name": "studentTokenId",
          "type": "uint256"
        }
      ],
      "name": "getNftGraduation",
      "outputs": [
        {
          "components": [
            {
              "internalType": "uint256",
              "name": "tokenId",
              "type": "uint256"
            },
            {
              "internalType": "uint256",
              "name": "studentTokenId",
              "type": "uint256"
            }
          ],
          "internalType": "struct IConstant.NftGraduation",
          "name": "",
          "type": "tuple"
        }
      ],
      "stateMutability": "view",
      "type": "function",
      "constant": true
    },
    {
      "inputs": [],
      "name": "getOwnedNftGraduation",
      "outputs": [
        {
          "components": [
            {
              "internalType": "uint256",
              "name": "tokenId",
              "type": "uint256"
            },
            {
              "internalType": "uint256",
              "name": "studentTokenId",
              "type": "uint256"
            }
          ],
          "internalType": "struct IConstant.NftGraduation",
          "name": "",
          "type": "tuple"
        }
      ],
      "stateMutability": "view",
      "type": "function",
      "constant": true
    },
    {
      "inputs": [],
      "name": "getAllGraduations",
      "outputs": [
        {
          "components": [
            {
              "internalType": "uint256",
              "name": "tokenId",
              "type": "uint256"
            },
            {
              "internalType": "uint256",
              "name": "studentTokenId",
              "type": "uint256"
            }
          ],
          "internalType": "struct IConstant.NftGraduation[]",
          "name": "",
          "type": "tuple[]"
        }
      ],
      "stateMutability": "view",
      "type": "function",
      "constant": true
    },
    {
      "inputs": [
        {
          "internalType": "uint256",
          "name": "studentTokenId",
          "type": "uint256"
        },
        {
          "internalType": "bool",
          "name": "isAllow",
          "type": "bool"
        }
      ],
      "name": "setExchangableNftGraduation",
      "outputs": [],
      "stateMutability": "nonpayable",
      "type": "function"
    },
    {
      "inputs": [
        {
          "internalType": "uint256",
          "name": "studentTokenId",
          "type": "uint256"
        }
      ],
      "name": "checkExchangeable",
      "outputs": [
        {
          "internalType": "bool",
          "name": "",
          "type": "bool"
        }
      ],
      "stateMutability": "view",
      "type": "function",
      "constant": true
    },
    {
      "inputs": [
        {
          "internalType": "uint256[]",
          "name": "tokenIds",
          "type": "uint256[]"
        },
        {
          "internalType": "string",
          "name": "tokenURI",
          "type": "string"
        }
      ],
      "name": "grantNftGraduation",
      "outputs": [],
      "stateMutability": "nonpayable",
      "type": "function"
    }
  ],
  "bytecode": "0x60806040523480156200001157600080fd5b50604051620046053803806200460583398181016040528101906200003791906200031d565b6040518060400160405280600d81526020017f4e667447726164756174696f6e000000000000000000000000000000000000008152506040518060400160405280600381526020017f4e4352000000000000000000000000000000000000000000000000000000000081525081818160009080519060200190620000bd92919062000203565b508060019080519060200190620000d692919062000203565b50505033600760006101000a81548173ffffffffffffffffffffffffffffffffffffffff021916908373ffffffffffffffffffffffffffffffffffffffff16021790555050506000600c60146101000a81548160ff02191690831515021790555082600b60006101000a81548173ffffffffffffffffffffffffffffffffffffffff021916908373ffffffffffffffffffffffffffffffffffffffff16021790555081600a60006101000a81548173ffffffffffffffffffffffffffffffffffffffff021916908373ffffffffffffffffffffffffffffffffffffffff16021790555080600c60006101000a81548173ffffffffffffffffffffffffffffffffffffffff021916908373ffffffffffffffffffffffffffffffffffffffff160217905550505050620003dd565b8280546200021190620003a8565b90600052602060002090601f01602090048101928262000235576000855562000281565b82601f106200025057805160ff191683800117855562000281565b8280016001018555821562000281579182015b828111156200028057825182559160200191906001019062000263565b5b50905062000290919062000294565b5090565b5b80821115620002af57600081600090555060010162000295565b5090565b600080fd5b600073ffffffffffffffffffffffffffffffffffffffff82169050919050565b6000620002e582620002b8565b9050919050565b620002f781620002d8565b81146200030357600080fd5b50565b6000815190506200031781620002ec565b92915050565b600080600060608486031215620003395762000338620002b3565b5b6000620003498682870162000306565b93505060206200035c8682870162000306565b92505060406200036f8682870162000306565b9150509250925092565b7f4e487b7100000000000000000000000000000000000000000000000000000000600052602260045260246000fd5b60006002820490506001821680620003c157607f821691505b602082108103620003d757620003d662000379565b5b50919050565b61421880620003ed6000396000f3fe608060405234801561001057600080fd5b506004361061012c5760003560e01c80637f5ca2cd116100ad578063b12a611511610071578063b12a611514610353578063b88d4fde14610371578063c87b56dd1461038d578063e985e9c5146103bd578063ec7d2f75146103ed5761012c565b80637f5ca2cd146102b15780638afa4767146102e15780638b1a682c146102fd57806395d89b4114610319578063a22cb465146103375761012c565b80632a3a676c116100f45780632a3a676c146101e75780633a9b56621461021757806342842e0e146102355780636352211e1461025157806370a08231146102815761012c565b806301ffc9a71461013157806306fdde0314610161578063081812fc1461017f578063095ea7b3146101af57806323b872dd146101cb575b600080fd5b61014b6004803603810190610146919061277c565b61041d565b60405161015891906127c4565b60405180910390f35b6101696104ff565b6040516101769190612878565b60405180910390f35b610199600480360381019061019491906128d0565b610591565b6040516101a6919061293e565b60405180910390f35b6101c960048036038101906101c49190612985565b6105d7565b005b6101e560048036038101906101e091906129c5565b6106ee565b005b61020160048036038101906101fc91906128d0565b61074e565b60405161020e91906127c4565b60405180910390f35b61021f610778565b60405161022c9190612b05565b60405180910390f35b61024f600480360381019061024a91906129c5565b61087b565b005b61026b600480360381019061026691906128d0565b61089b565b604051610278919061293e565b60405180910390f35b61029b60048036038101906102969190612b27565b610921565b6040516102a89190612b63565b60405180910390f35b6102cb60048036038101906102c691906128d0565b6109d8565b6040516102d89190612bad565b60405180910390f35b6102fb60048036038101906102f69190612bf4565b610a4d565b005b61031760048036038101906103129190612e31565b610bf7565b005b610321610ef3565b60405161032e9190612878565b60405180910390f35b610351600480360381019061034c9190612ea9565b610f85565b005b61035b610f9b565b6040516103689190612bad565b60405180910390f35b61038b60048036038101906103869190612f8a565b611120565b005b6103a760048036038101906103a291906128d0565b611182565b6040516103b49190612878565b60405180910390f35b6103d760048036038101906103d2919061300d565b611294565b6040516103e491906127c4565b60405180910390f35b610407600480360381019061040291906128d0565b611328565b6040516104149190612bad565b60405180910390f35b60007f80ac58cd000000000000000000000000000000000000000000000000000000007bffffffffffffffffffffffffffffffffffffffffffffffffffffffff1916827bffffffffffffffffffffffffffffffffffffffffffffffffffffffff191614806104e857507f5b5e139f000000000000000000000000000000000000000000000000000000007bffffffffffffffffffffffffffffffffffffffffffffffffffffffff1916827bffffffffffffffffffffffffffffffffffffffffffffffffffffffff1916145b806104f857506104f7826113f9565b5b9050919050565b60606000805461050e9061307c565b80601f016020809104026020016040519081016040528092919081815260200182805461053a9061307c565b80156105875780601f1061055c57610100808354040283529160200191610587565b820191906000526020600020905b81548152906001019060200180831161056a57829003601f168201915b5050505050905090565b600061059c82611463565b6004600083815260200190815260200160002060009054906101000a900473ffffffffffffffffffffffffffffffffffffffff169050919050565b60006105e28261089b565b90508073ffffffffffffffffffffffffffffffffffffffff168373ffffffffffffffffffffffffffffffffffffffff1603610652576040517f08c379a00000000000000000000000000000000000000000000000000000000081526004016106499061311f565b60405180910390fd5b8073ffffffffffffffffffffffffffffffffffffffff166106716114ae565b73ffffffffffffffffffffffffffffffffffffffff1614806106a0575061069f8161069a6114ae565b611294565b5b6106df576040517f08c379a00000000000000000000000000000000000000000000000000000000081526004016106d6906131b1565b60405180910390fd5b6106e983836114b6565b505050565b6106ff6106f96114ae565b8261156f565b61073e576040517f08c379a000000000000000000000000000000000000000000000000000000000815260040161073590613243565b60405180910390fd5b610749838383611604565b505050565b60006010600083815260200190815260200160002060009054906101000a900460ff169050919050565b60603373ffffffffffffffffffffffffffffffffffffffff16600760009054906101000a900473ffffffffffffffffffffffffffffffffffffffff1673ffffffffffffffffffffffffffffffffffffffff161461080a576040517f08c379a0000000000000000000000000000000000000000000000000000000008152600401610801906132af565b60405180910390fd5b600d805480602002602001604051908101604052809291908181526020016000905b828210156108725783829060005260206000209060020201604051806040016040529081600082015481526020016001820154815250508152602001906001019061082c565b50505050905090565b61089683838360405180602001604052806000815250611120565b505050565b6000806108a7836118fd565b9050600073ffffffffffffffffffffffffffffffffffffffff168173ffffffffffffffffffffffffffffffffffffffff1603610918576040517f08c379a000000000000000000000000000000000000000000000000000000000815260040161090f9061331b565b60405180910390fd5b80915050919050565b60008073ffffffffffffffffffffffffffffffffffffffff168273ffffffffffffffffffffffffffffffffffffffff1603610991576040517f08c379a0000000000000000000000000000000000000000000000000000000008152600401610988906133ad565b60405180910390fd5b600360008373ffffffffffffffffffffffffffffffffffffffff1673ffffffffffffffffffffffffffffffffffffffff168152602001908152602001600020549050919050565b6109e0612653565b6000600e6000848152602001908152602001600020549050600d600182610a0791906133fc565b81548110610a1857610a17613430565b5b906000526020600020906002020160405180604001604052908160008201548152602001600182015481525050915050919050565b3373ffffffffffffffffffffffffffffffffffffffff16600760009054906101000a900473ffffffffffffffffffffffffffffffffffffffff1673ffffffffffffffffffffffffffffffffffffffff1614610add576040517f08c379a0000000000000000000000000000000000000000000000000000000008152600401610ad4906132af565b60405180910390fd5b6000600b60009054906101000a900473ffffffffffffffffffffffffffffffffffffffff1673ffffffffffffffffffffffffffffffffffffffff1663d703df8b846040518263ffffffff1660e01b8152600401610b3a9190612b63565b600060405180830381865afa158015610b57573d6000803e3d6000fd5b505050506040513d6000823e3d601f19601f82011682018060405250810190610b809190613610565b9050806060015115610bc7576040517f08c379a0000000000000000000000000000000000000000000000000000000008152600401610bbe906136a5565b60405180910390fd5b816010600085815260200190815260200160002060006101000a81548160ff021916908315150217905550505050565b6000600b60009054906101000a900473ffffffffffffffffffffffffffffffffffffffff1673ffffffffffffffffffffffffffffffffffffffff166352db77c460006001811115610c4b57610c4a6136c5565b5b336040518363ffffffff1660e01b8152600401610c699291906136f4565b600060405180830381865afa158015610c86573d6000803e3d6000fd5b505050506040513d6000823e3d601f19601f82011682018060405250810190610caf9190613610565b9050806060015115610cf6576040517f08c379a0000000000000000000000000000000000000000000000000000000008152600401610ced906136a5565b60405180910390fd5b60106000826000015160000151815260200190815260200160002060009054906101000a900460ff16610d5e576040517f08c379a0000000000000000000000000000000000000000000000000000000008152600401610d5590613769565b60405180910390fd5b610d708382600001516000015161193a565b600c60009054906101000a900473ffffffffffffffffffffffffffffffffffffffff1673ffffffffffffffffffffffffffffffffffffffff16632190530c826000015160000151856040518363ffffffff1660e01b8152600401610dd5929190613838565b600060405180830381600087803b158015610def57600080fd5b505af1158015610e03573d6000803e3d6000fd5b505050506000610e133384611c52565b9050600060405180604001604052808381526020018460000151600001518152509050600d81908060018154018082558091505060019003906000526020600020906002020160009091909190915060008201518160000155602082015181600101555050600d80549050600e60008481526020019081526020016000208190555081600f60008560000151600001518152602001908152602001600020819055507facb3849a125f4bedb6599365b4242ab6d2cdc08aca6d7cd4cfe34708c680f62382604051610ee49190612b63565b60405180910390a15050505050565b606060018054610f029061307c565b80601f0160208091040260200160405190810160405280929190818152602001828054610f2e9061307c565b8015610f7b5780601f10610f5057610100808354040283529160200191610f7b565b820191906000526020600020905b815481529060010190602001808311610f5e57829003601f168201915b5050505050905090565b610f97610f906114ae565b8383611cc3565b5050565b610fa3612653565b6000600b60009054906101000a900473ffffffffffffffffffffffffffffffffffffffff1673ffffffffffffffffffffffffffffffffffffffff1663443ebca73360006001811115610ff857610ff76136c5565b5b6040518363ffffffff1660e01b8152600401611015929190613868565b602060405180830381865afa158015611032573d6000803e3d6000fd5b505050506040513d601f19601f820116820180604052508101906110569190613891565b90506000600f6000838152602001908152602001600020549050600081116110b3576040517f08c379a00000000000000000000000000000000000000000000000000000000081526004016110aa9061390a565b60405180910390fd5b6000600e6000838152602001908152602001600020549050600d6001826110da91906133fc565b815481106110eb576110ea613430565b5b906000526020600020906002020160405180604001604052908160008201548152602001600182015481525050935050505090565b61113161112b6114ae565b8361156f565b611170576040517f08c379a000000000000000000000000000000000000000000000000000000000815260040161116790613243565b60405180910390fd5b61117c84848484611e2f565b50505050565b606061118d82611463565b60006006600084815260200190815260200160002080546111ad9061307c565b80601f01602080910402602001604051908101604052809291908181526020018280546111d99061307c565b80156112265780601f106111fb57610100808354040283529160200191611226565b820191906000526020600020905b81548152906001019060200180831161120957829003601f168201915b505050505090506000611237611e8b565b9050600081510361124c57819250505061128f565b600082511115611281578082604051602001611269929190613966565b6040516020818303038152906040529250505061128f565b61128a84611ea2565b925050505b919050565b6000600560008473ffffffffffffffffffffffffffffffffffffffff1673ffffffffffffffffffffffffffffffffffffffff16815260200190815260200160002060008373ffffffffffffffffffffffffffffffffffffffff1673ffffffffffffffffffffffffffffffffffffffff16815260200190815260200160002060009054906101000a900460ff16905092915050565b611330612653565b6000600f60008481526020019081526020016000205490506000811161138b576040517f08c379a00000000000000000000000000000000000000000000000000000000081526004016113829061390a565b60405180910390fd5b6000600e6000838152602001908152602001600020549050600d6001826113b291906133fc565b815481106113c3576113c2613430565b5b90600052602060002090600202016040518060400160405290816000820154815260200160018201548152505092505050919050565b60007f01ffc9a7000000000000000000000000000000000000000000000000000000007bffffffffffffffffffffffffffffffffffffffffffffffffffffffff1916827bffffffffffffffffffffffffffffffffffffffffffffffffffffffff1916149050919050565b61146c81611f0a565b6114ab576040517f08c379a00000000000000000000000000000000000000000000000000000000081526004016114a29061331b565b60405180910390fd5b50565b600033905090565b816004600083815260200190815260200160002060006101000a81548173ffffffffffffffffffffffffffffffffffffffff021916908373ffffffffffffffffffffffffffffffffffffffff160217905550808273ffffffffffffffffffffffffffffffffffffffff166115298361089b565b73ffffffffffffffffffffffffffffffffffffffff167f8c5be1e5ebec7d5bd14f71427d1e84f3dd0314c0f7b2291e5b200ac8c7c3b92560405160405180910390a45050565b60008061157b8361089b565b90508073ffffffffffffffffffffffffffffffffffffffff168473ffffffffffffffffffffffffffffffffffffffff1614806115bd57506115bc8185611294565b5b806115fb57508373ffffffffffffffffffffffffffffffffffffffff166115e384610591565b73ffffffffffffffffffffffffffffffffffffffff16145b91505092915050565b8273ffffffffffffffffffffffffffffffffffffffff166116248261089b565b73ffffffffffffffffffffffffffffffffffffffff161461167a576040517f08c379a0000000000000000000000000000000000000000000000000000000008152600401611671906139fc565b60405180910390fd5b600073ffffffffffffffffffffffffffffffffffffffff168273ffffffffffffffffffffffffffffffffffffffff16036116e9576040517f08c379a00000000000000000000000000000000000000000000000000000000081526004016116e090613a8e565b60405180910390fd5b6116f68383836001611f4b565b8273ffffffffffffffffffffffffffffffffffffffff166117168261089b565b73ffffffffffffffffffffffffffffffffffffffff161461176c576040517f08c379a0000000000000000000000000000000000000000000000000000000008152600401611763906139fc565b60405180910390fd5b6004600082815260200190815260200160002060006101000a81549073ffffffffffffffffffffffffffffffffffffffff02191690556001600360008573ffffffffffffffffffffffffffffffffffffffff1673ffffffffffffffffffffffffffffffffffffffff168152602001908152602001600020600082825403925050819055506001600360008473ffffffffffffffffffffffffffffffffffffffff1673ffffffffffffffffffffffffffffffffffffffff16815260200190815260200160002060008282540192505081905550816002600083815260200190815260200160002060006101000a81548173ffffffffffffffffffffffffffffffffffffffff021916908373ffffffffffffffffffffffffffffffffffffffff160217905550808273ffffffffffffffffffffffffffffffffffffffff168473ffffffffffffffffffffffffffffffffffffffff167fddf252ad1be2c89b69c2b068fc378daa952ba7f163c4a11628f55a4df523b3ef60405160405180910390a46118f88383836001611f51565b505050565b60006002600083815260200190815260200160002060009054906101000a900473ffffffffffffffffffffffffffffffffffffffff169050919050565b6000825190506000600a60009054906101000a900473ffffffffffffffffffffffffffffffffffffffff1673ffffffffffffffffffffffffffffffffffffffff16635f7b9d736040518163ffffffff1660e01b8152600401600060405180830381865afa1580156119af573d6000803e3d6000fd5b505050506040513d6000823e3d601f19601f820116820180604052508101906119d89190613bc1565b905060008151905060006001826119ef9190613c0a565b67ffffffffffffffff811115611a0857611a07612c39565b5b604051908082528060200260200182016040528015611a365781602001602082028036833780820191505090505b50905060005b84811015611b93576000600c60009054906101000a900473ffffffffffffffffffffffffffffffffffffffff1673ffffffffffffffffffffffffffffffffffffffff166385c7744c898481518110611a9757611a96613430565b5b60200260200101516040518263ffffffff1660e01b8152600401611abb9190612b63565b600060405180830381865afa158015611ad8573d6000803e3d6000fd5b505050506040513d6000823e3d601f19601f82011682018060405250810190611b019190613cec565b50905086816020015114611b4a576040517f08c379a0000000000000000000000000000000000000000000000000000000008152600401611b4190613d94565b60405180910390fd5b806080015183826060015181518110611b6657611b65613430565b5b60200260200101818151611b7a9190613c0a565b915081815250505080611b8c90613db4565b9050611a3c565b5060005b82811015611c4957838181518110611bb257611bb1613430565b5b60200260200101516020015182858381518110611bd257611bd1613430565b5b60200260200101516000015181518110611bef57611bee613430565b5b60200260200101511015611c38576040517f08c379a0000000000000000000000000000000000000000000000000000000008152600401611c2f90613e48565b60405180910390fd5b80611c4290613db4565b9050611b97565b50505050505050565b600080611c5d611f57565b9050611caf84826000368080601f016020809104026020016040519081016040528093929190818152602001838380828437600081840152601f19601f82011690508083019250505050505050611f78565b611cb98184611fd3565b8091505092915050565b8173ffffffffffffffffffffffffffffffffffffffff168373ffffffffffffffffffffffffffffffffffffffff1603611d31576040517f08c379a0000000000000000000000000000000000000000000000000000000008152600401611d2890613eb4565b60405180910390fd5b80600560008573ffffffffffffffffffffffffffffffffffffffff1673ffffffffffffffffffffffffffffffffffffffff16815260200190815260200160002060008473ffffffffffffffffffffffffffffffffffffffff1673ffffffffffffffffffffffffffffffffffffffff16815260200190815260200160002060006101000a81548160ff0219169083151502179055508173ffffffffffffffffffffffffffffffffffffffff168373ffffffffffffffffffffffffffffffffffffffff167f17307eab39ab6107e8899845ad3d59bd9653f200f220920489ca2b5937696c3183604051611e2291906127c4565b60405180910390a3505050565b611e3a848484611604565b611e4684848484612047565b611e85576040517f08c379a0000000000000000000000000000000000000000000000000000000008152600401611e7c90613f46565b60405180910390fd5b50505050565b606060405180602001604052806000815250905090565b6060611ead82611463565b6000611eb7611e8b565b90506000815111611ed75760405180602001604052806000815250611f02565b80611ee1846121ce565b604051602001611ef2929190613966565b6040516020818303038152906040525b915050919050565b60008073ffffffffffffffffffffffffffffffffffffffff16611f2c836118fd565b73ffffffffffffffffffffffffffffffffffffffff1614159050919050565b50505050565b50505050565b6000611f63600861229c565b6000611f6f60086122b2565b90508091505090565b611f8283836122c0565b611f8f6000848484612047565b611fce576040517f08c379a0000000000000000000000000000000000000000000000000000000008152600401611fc590613f46565b60405180910390fd5b505050565b611fdc82611f0a565b61201b576040517f08c379a000000000000000000000000000000000000000000000000000000000815260040161201290613fd8565b60405180910390fd5b8060066000848152602001908152602001600020908051906020019061204292919061266d565b505050565b60006120688473ffffffffffffffffffffffffffffffffffffffff166124dd565b156121c1578373ffffffffffffffffffffffffffffffffffffffff1663150b7a026120916114ae565b8786866040518563ffffffff1660e01b81526004016120b3949392919061404d565b6020604051808303816000875af19250505080156120ef57506040513d601f19601f820116820180604052508101906120ec91906140ae565b60015b612171573d806000811461211f576040519150601f19603f3d011682016040523d82523d6000602084013e612124565b606091505b506000815103612169576040517f08c379a000000000000000000000000000000000000000000000000000000000815260040161216090613f46565b60405180910390fd5b805181602001fd5b63150b7a0260e01b7bffffffffffffffffffffffffffffffffffffffffffffffffffffffff1916817bffffffffffffffffffffffffffffffffffffffffffffffffffffffff1916149150506121c6565b600190505b949350505050565b6060600060016121dd84612500565b01905060008167ffffffffffffffff8111156121fc576121fb612c39565b5b6040519080825280601f01601f19166020018201604052801561222e5781602001600182028036833780820191505090505b509050600082602001820190505b600115612291578080600190039150507f3031323334353637383961626364656600000000000000000000000000000000600a86061a8153600a8581612285576122846140db565b5b0494506000850361223c575b819350505050919050565b6001816000016000828254019250508190555050565b600081600001549050919050565b600073ffffffffffffffffffffffffffffffffffffffff168273ffffffffffffffffffffffffffffffffffffffff160361232f576040517f08c379a000000000000000000000000000000000000000000000000000000000815260040161232690614156565b60405180910390fd5b61233881611f0a565b15612378576040517f08c379a000000000000000000000000000000000000000000000000000000000815260040161236f906141c2565b60405180910390fd5b612386600083836001611f4b565b61238f81611f0a565b156123cf576040517f08c379a00000000000000000000000000000000000000000000000000000000081526004016123c6906141c2565b60405180910390fd5b6001600360008473ffffffffffffffffffffffffffffffffffffffff1673ffffffffffffffffffffffffffffffffffffffff16815260200190815260200160002060008282540192505081905550816002600083815260200190815260200160002060006101000a81548173ffffffffffffffffffffffffffffffffffffffff021916908373ffffffffffffffffffffffffffffffffffffffff160217905550808273ffffffffffffffffffffffffffffffffffffffff16600073ffffffffffffffffffffffffffffffffffffffff167fddf252ad1be2c89b69c2b068fc378daa952ba7f163c4a11628f55a4df523b3ef60405160405180910390a46124d9600083836001611f51565b5050565b6000808273ffffffffffffffffffffffffffffffffffffffff163b119050919050565b600080600090507a184f03e93ff9f4daa797ed6e38ed64bf6a1f010000000000000000831061255e577a184f03e93ff9f4daa797ed6e38ed64bf6a1f0100000000000000008381612554576125536140db565b5b0492506040810190505b6d04ee2d6d415b85acef8100000000831061259b576d04ee2d6d415b85acef81000000008381612591576125906140db565b5b0492506020810190505b662386f26fc1000083106125ca57662386f26fc1000083816125c0576125bf6140db565b5b0492506010810190505b6305f5e10083106125f3576305f5e10083816125e9576125e86140db565b5b0492506008810190505b612710831061261857612710838161260e5761260d6140db565b5b0492506004810190505b6064831061263b5760648381612631576126306140db565b5b0492506002810190505b600a831061264a576001810190505b80915050919050565b604051806040016040528060008152602001600081525090565b8280546126799061307c565b90600052602060002090601f01602090048101928261269b57600085556126e2565b82601f106126b457805160ff19168380011785556126e2565b828001600101855582156126e2579182015b828111156126e15782518255916020019190600101906126c6565b5b5090506126ef91906126f3565b5090565b5b8082111561270c5760008160009055506001016126f4565b5090565b6000604051905090565b600080fd5b600080fd5b60007fffffffff0000000000000000000000000000000000000000000000000000000082169050919050565b61275981612724565b811461276457600080fd5b50565b60008135905061277681612750565b92915050565b6000602082840312156127925761279161271a565b5b60006127a084828501612767565b91505092915050565b60008115159050919050565b6127be816127a9565b82525050565b60006020820190506127d960008301846127b5565b92915050565b600081519050919050565b600082825260208201905092915050565b60005b838110156128195780820151818401526020810190506127fe565b83811115612828576000848401525b50505050565b6000601f19601f8301169050919050565b600061284a826127df565b61285481856127ea565b93506128648185602086016127fb565b61286d8161282e565b840191505092915050565b60006020820190508181036000830152612892818461283f565b905092915050565b6000819050919050565b6128ad8161289a565b81146128b857600080fd5b50565b6000813590506128ca816128a4565b92915050565b6000602082840312156128e6576128e561271a565b5b60006128f4848285016128bb565b91505092915050565b600073ffffffffffffffffffffffffffffffffffffffff82169050919050565b6000612928826128fd565b9050919050565b6129388161291d565b82525050565b6000602082019050612953600083018461292f565b92915050565b6129628161291d565b811461296d57600080fd5b50565b60008135905061297f81612959565b92915050565b6000806040838503121561299c5761299b61271a565b5b60006129aa85828601612970565b92505060206129bb858286016128bb565b9150509250929050565b6000806000606084860312156129de576129dd61271a565b5b60006129ec86828701612970565b93505060206129fd86828701612970565b9250506040612a0e868287016128bb565b9150509250925092565b600081519050919050565b600082825260208201905092915050565b6000819050602082019050919050565b612a4d8161289a565b82525050565b604082016000820151612a696000850182612a44565b506020820151612a7c6020850182612a44565b50505050565b6000612a8e8383612a53565b60408301905092915050565b6000602082019050919050565b6000612ab282612a18565b612abc8185612a23565b9350612ac783612a34565b8060005b83811015612af8578151612adf8882612a82565b9750612aea83612a9a565b925050600181019050612acb565b5085935050505092915050565b60006020820190508181036000830152612b1f8184612aa7565b905092915050565b600060208284031215612b3d57612b3c61271a565b5b6000612b4b84828501612970565b91505092915050565b612b5d8161289a565b82525050565b6000602082019050612b786000830184612b54565b92915050565b604082016000820151612b946000850182612a44565b506020820151612ba76020850182612a44565b50505050565b6000604082019050612bc26000830184612b7e565b92915050565b612bd1816127a9565b8114612bdc57600080fd5b50565b600081359050612bee81612bc8565b92915050565b60008060408385031215612c0b57612c0a61271a565b5b6000612c19858286016128bb565b9250506020612c2a85828601612bdf565b9150509250929050565b600080fd5b7f4e487b7100000000000000000000000000000000000000000000000000000000600052604160045260246000fd5b612c718261282e565b810181811067ffffffffffffffff82111715612c9057612c8f612c39565b5b80604052505050565b6000612ca3612710565b9050612caf8282612c68565b919050565b600067ffffffffffffffff821115612ccf57612cce612c39565b5b602082029050602081019050919050565b600080fd5b6000612cf8612cf384612cb4565b612c99565b90508083825260208201905060208402830185811115612d1b57612d1a612ce0565b5b835b81811015612d445780612d3088826128bb565b845260208401935050602081019050612d1d565b5050509392505050565b600082601f830112612d6357612d62612c34565b5b8135612d73848260208601612ce5565b91505092915050565b600080fd5b600067ffffffffffffffff821115612d9c57612d9b612c39565b5b612da58261282e565b9050602081019050919050565b82818337600083830152505050565b6000612dd4612dcf84612d81565b612c99565b905082815260208101848484011115612df057612def612d7c565b5b612dfb848285612db2565b509392505050565b600082601f830112612e1857612e17612c34565b5b8135612e28848260208601612dc1565b91505092915050565b60008060408385031215612e4857612e4761271a565b5b600083013567ffffffffffffffff811115612e6657612e6561271f565b5b612e7285828601612d4e565b925050602083013567ffffffffffffffff811115612e9357612e9261271f565b5b612e9f85828601612e03565b9150509250929050565b60008060408385031215612ec057612ebf61271a565b5b6000612ece85828601612970565b9250506020612edf85828601612bdf565b9150509250929050565b600067ffffffffffffffff821115612f0457612f03612c39565b5b612f0d8261282e565b9050602081019050919050565b6000612f2d612f2884612ee9565b612c99565b905082815260208101848484011115612f4957612f48612d7c565b5b612f54848285612db2565b509392505050565b600082601f830112612f7157612f70612c34565b5b8135612f81848260208601612f1a565b91505092915050565b60008060008060808587031215612fa457612fa361271a565b5b6000612fb287828801612970565b9450506020612fc387828801612970565b9350506040612fd4878288016128bb565b925050606085013567ffffffffffffffff811115612ff557612ff461271f565b5b61300187828801612f5c565b91505092959194509250565b600080604083850312156130245761302361271a565b5b600061303285828601612970565b925050602061304385828601612970565b9150509250929050565b7f4e487b7100000000000000000000000000000000000000000000000000000000600052602260045260246000fd5b6000600282049050600182168061309457607f821691505b6020821081036130a7576130a661304d565b5b50919050565b7f4552433732313a20617070726f76616c20746f2063757272656e74206f776e6560008201527f7200000000000000000000000000000000000000000000000000000000000000602082015250565b60006131096021836127ea565b9150613114826130ad565b604082019050919050565b60006020820190508181036000830152613138816130fc565b9050919050565b7f4552433732313a20617070726f76652063616c6c6572206973206e6f7420746f60008201527f6b656e206f776e6572206f7220617070726f76656420666f7220616c6c000000602082015250565b600061319b603d836127ea565b91506131a68261313f565b604082019050919050565b600060208201905081810360008301526131ca8161318e565b9050919050565b7f4552433732313a2063616c6c6572206973206e6f7420746f6b656e206f776e6560008201527f72206f7220617070726f76656400000000000000000000000000000000000000602082015250565b600061322d602d836127ea565b9150613238826131d1565b604082019050919050565b6000602082019050818103600083015261325c81613220565b9050919050565b7f432d4552522d3038000000000000000000000000000000000000000000000000600082015250565b60006132996008836127ea565b91506132a482613263565b602082019050919050565b600060208201905081810360008301526132c88161328c565b9050919050565b7f4552433732313a20696e76616c696420746f6b656e2049440000000000000000600082015250565b60006133056018836127ea565b9150613310826132cf565b602082019050919050565b60006020820190508181036000830152613334816132f8565b9050919050565b7f4552433732313a2061646472657373207a65726f206973206e6f74206120766160008201527f6c6964206f776e65720000000000000000000000000000000000000000000000602082015250565b60006133976029836127ea565b91506133a28261333b565b604082019050919050565b600060208201905081810360008301526133c68161338a565b9050919050565b7f4e487b7100000000000000000000000000000000000000000000000000000000600052601160045260246000fd5b60006134078261289a565b91506134128361289a565b925082821015613425576134246133cd565b5b828203905092915050565b7f4e487b7100000000000000000000000000000000000000000000000000000000600052603260045260246000fd5b600080fd5b600080fd5b600081519050613478816128a4565b92915050565b60008151905061348d81612959565b92915050565b6000606082840312156134a9576134a861345f565b5b6134b36060612c99565b905060006134c384828501613469565b60008301525060206134d78482850161347e565b60208301525060406134eb84828501613469565b60408301525092915050565b600061350a61350584612d81565b612c99565b90508281526020810184848401111561352657613525612d7c565b5b6135318482856127fb565b509392505050565b600082601f83011261354e5761354d612c34565b5b815161355e8482602086016134f7565b91505092915050565b60008151905061357681612bc8565b92915050565b600060c082840312156135925761359161345f565b5b61359c6080612c99565b905060006135ac84828501613493565b600083015250606082015167ffffffffffffffff8111156135d0576135cf613464565b5b6135dc84828501613539565b60208301525060806135f084828501613469565b60408301525060a061360484828501613567565b60608301525092915050565b6000602082840312156136265761362561271a565b5b600082015167ffffffffffffffff8111156136445761364361271f565b5b6136508482850161357c565b91505092915050565b7f432d4552522d3031000000000000000000000000000000000000000000000000600082015250565b600061368f6008836127ea565b915061369a82613659565b602082019050919050565b600060208201905081810360008301526136be81613682565b9050919050565b7f4e487b7100000000000000000000000000000000000000000000000000000000600052602160045260246000fd5b60006040820190506137096000830185612b54565b613716602083018461292f565b9392505050565b7f4e472d4552522d30310000000000000000000000000000000000000000000000600082015250565b60006137536009836127ea565b915061375e8261371d565b602082019050919050565b6000602082019050818103600083015261378281613746565b9050919050565b600081519050919050565b600082825260208201905092915050565b6000819050602082019050919050565b60006137c18383612a44565b60208301905092915050565b6000602082019050919050565b60006137e582613789565b6137ef8185613794565b93506137fa836137a5565b8060005b8381101561382b57815161381288826137b5565b975061381d836137cd565b9250506001810190506137fe565b5085935050505092915050565b600060408201905061384d6000830185612b54565b818103602083015261385f81846137da565b90509392505050565b600060408201905061387d600083018561292f565b61388a6020830184612b54565b9392505050565b6000602082840312156138a7576138a661271a565b5b60006138b584828501613469565b91505092915050565b7f4e472d4552522d30300000000000000000000000000000000000000000000000600082015250565b60006138f46009836127ea565b91506138ff826138be565b602082019050919050565b60006020820190508181036000830152613923816138e7565b9050919050565b600081905092915050565b6000613940826127df565b61394a818561392a565b935061395a8185602086016127fb565b80840191505092915050565b60006139728285613935565b915061397e8284613935565b91508190509392505050565b7f4552433732313a207472616e736665722066726f6d20696e636f72726563742060008201527f6f776e6572000000000000000000000000000000000000000000000000000000602082015250565b60006139e66025836127ea565b91506139f18261398a565b604082019050919050565b60006020820190508181036000830152613a15816139d9565b9050919050565b7f4552433732313a207472616e7366657220746f20746865207a65726f2061646460008201527f7265737300000000000000000000000000000000000000000000000000000000602082015250565b6000613a786024836127ea565b9150613a8382613a1c565b604082019050919050565b60006020820190508181036000830152613aa781613a6b565b9050919050565b600067ffffffffffffffff821115613ac957613ac8612c39565b5b602082029050602081019050919050565b600060408284031215613af057613aef61345f565b5b613afa6040612c99565b90506000613b0a84828501613469565b6000830152506020613b1e84828501613469565b60208301525092915050565b6000613b3d613b3884613aae565b612c99565b90508083825260208201905060408402830185811115613b6057613b5f612ce0565b5b835b81811015613b895780613b758882613ada565b845260208401935050604081019050613b62565b5050509392505050565b600082601f830112613ba857613ba7612c34565b5b8151613bb8848260208601613b2a565b91505092915050565b600060208284031215613bd757613bd661271a565b5b600082015167ffffffffffffffff811115613bf557613bf461271f565b5b613c0184828501613b93565b91505092915050565b6000613c158261289a565b9150613c208361289a565b9250827fffffffffffffffffffffffffffffffffffffffffffffffffffffffffffffffff03821115613c5557613c546133cd565b5b828201905092915050565b600060a08284031215613c7657613c7561345f565b5b613c8060a0612c99565b90506000613c9084828501613469565b6000830152506020613ca484828501613469565b6020830152506040613cb884828501613469565b6040830152506060613ccc84828501613469565b6060830152506080613ce084828501613469565b60808301525092915050565b60008060c08385031215613d0357613d0261271a565b5b6000613d1185828601613c60565b92505060a083015167ffffffffffffffff811115613d3257613d3161271f565b5b613d3e85828601613539565b9150509250929050565b7f4e43522d4552522d303400000000000000000000000000000000000000000000600082015250565b6000613d7e600a836127ea565b9150613d8982613d48565b602082019050919050565b60006020820190508181036000830152613dad81613d71565b9050919050565b6000613dbf8261289a565b91507fffffffffffffffffffffffffffffffffffffffffffffffffffffffffffffffff8203613df157613df06133cd565b5b600182019050919050565b7f4e472d4552522d30320000000000000000000000000000000000000000000000600082015250565b6000613e326009836127ea565b9150613e3d82613dfc565b602082019050919050565b60006020820190508181036000830152613e6181613e25565b9050919050565b7f4552433732313a20617070726f766520746f2063616c6c657200000000000000600082015250565b6000613e9e6019836127ea565b9150613ea982613e68565b602082019050919050565b60006020820190508181036000830152613ecd81613e91565b9050919050565b7f4552433732313a207472616e7366657220746f206e6f6e20455243373231526560008201527f63656976657220696d706c656d656e7465720000000000000000000000000000602082015250565b6000613f306032836127ea565b9150613f3b82613ed4565b604082019050919050565b60006020820190508181036000830152613f5f81613f23565b9050919050565b7f45524337323155524953746f726167653a2055524920736574206f66206e6f6e60008201527f6578697374656e7420746f6b656e000000000000000000000000000000000000602082015250565b6000613fc2602e836127ea565b9150613fcd82613f66565b604082019050919050565b60006020820190508181036000830152613ff181613fb5565b9050919050565b600081519050919050565b600082825260208201905092915050565b600061401f82613ff8565b6140298185614003565b93506140398185602086016127fb565b6140428161282e565b840191505092915050565b6000608082019050614062600083018761292f565b61406f602083018661292f565b61407c6040830185612b54565b818103606083015261408e8184614014565b905095945050505050565b6000815190506140a881612750565b92915050565b6000602082840312156140c4576140c361271a565b5b60006140d284828501614099565b91505092915050565b7f4e487b7100000000000000000000000000000000000000000000000000000000600052601260045260246000fd5b7f4552433732313a206d696e7420746f20746865207a65726f2061646472657373600082015250565b60006141406020836127ea565b915061414b8261410a565b602082019050919050565b6000602082019050818103600083015261416f81614133565b9050919050565b7f4552433732313a20746f6b656e20616c7265616479206d696e74656400000000600082015250565b60006141ac601c836127ea565b91506141b782614176565b602082019050919050565b600060208201905081810360008301526141db8161419f565b905091905056fea2646970667358221220c0fa2bffbe6b73391feb074da79579e4acdf2cea2bb2aaf3832724ab0d3e731064736f6c634300080d0033",
  "immutableReferences": {},
  "source": "// SPDX-License-Identifier: MIT\r\n// Tells the Solidity compiler to compile only from v0.8.13 to v0.9.0\r\npragma solidity ^0.8.13;\r\n\r\nimport \"./base/ERC721BaseContract.sol\";\r\nimport \"./interfaces/INftGraduation.sol\";\r\nimport \"./interfaces/INftIdentities.sol\";\r\nimport \"./interfaces/INftCompleteCourses.sol\";\r\nimport \"./interfaces/ISchool.sol\";\r\n\r\ncontract NftGraduation is ERC721BaseContract, INftGraduation {\r\n    ISchool private _school;\r\n    INftIdentities private _nftIdentities;\r\n    INftCompleteCourses private _nftCompleteCourses;\r\n\r\n    bool private _isInitialize;\r\n\r\n    NftGraduation[] private _allNftGraduations;\r\n    mapping(uint256 => uint256) private _posOfNftGraduationTokenId;\r\n    mapping(uint256 => uint256) private _tokenIdOfStudent;\r\n    mapping(uint256 => bool) private _isExchangeable;\r\n\r\n    event GrantNewNftGraduation(uint256 tokenId);\r\n\r\n    modifier onlyOwner() {\r\n        require(_owner == msg.sender, \"C-ERR-08\");\r\n        _;\r\n    }\r\n\r\n    constructor(\r\n        address nftIdentities,\r\n        address school,\r\n        address nftCompleteCourse\r\n    ) ERC721BaseContract(\"NftGraduation\", \"NCR\") {\r\n        _isInitialize = false;\r\n        _nftIdentities = INftIdentities(nftIdentities);\r\n        _school = ISchool(school);\r\n        _nftCompleteCourses = INftCompleteCourses(nftCompleteCourse);\r\n    }\r\n\r\n    function getNftGraduationByTokenId(\r\n        uint256 tokenId\r\n    ) public view returns (NftGraduation memory) {\r\n        uint256 pos = _posOfNftGraduationTokenId[tokenId];\r\n\r\n        return _allNftGraduations[pos - 1];\r\n    }\r\n\r\n    function getNftGraduation(\r\n        uint256 studentTokenId\r\n    ) public view returns (NftGraduation memory) {\r\n        uint256 tokenId = _tokenIdOfStudent[studentTokenId];\r\n        require(tokenId > 0, \"NG-ERR-00\");\r\n        uint256 pos = _posOfNftGraduationTokenId[tokenId];\r\n\r\n        return _allNftGraduations[pos - 1];\r\n    }\r\n\r\n    function getOwnedNftGraduation()\r\n        public\r\n        view\r\n        returns (NftGraduation memory)\r\n    {\r\n        uint256 studentTokenId = _nftIdentities.getNftTokenIdOfRole(\r\n            msg.sender,\r\n            uint256(ROLE.STUDENT)\r\n        );\r\n        uint256 tokenId = _tokenIdOfStudent[studentTokenId];\r\n        require(tokenId > 0, \"NG-ERR-00\");\r\n        uint256 pos = _posOfNftGraduationTokenId[tokenId];\r\n\r\n        return _allNftGraduations[pos - 1];\r\n    }\r\n\r\n    function getAllGraduations()\r\n        public\r\n        view\r\n        onlyOwner\r\n        returns (NftGraduation[] memory)\r\n    {\r\n        return _allNftGraduations;\r\n    }\r\n\r\n    function setExchangableNftGraduation(\r\n        uint256 studentTokenId,\r\n        bool isAllow\r\n    ) public onlyOwner {\r\n        NftIdentityResponse memory nftIdentityResponse = _nftIdentities\r\n            .getNftOfTokenId(studentTokenId);\r\n        require(!nftIdentityResponse.isExpired, \"C-ERR-01\");\r\n        _isExchangeable[studentTokenId] = isAllow;\r\n    }\r\n\r\n    function checkExchangeable(\r\n        uint256 studentTokenId\r\n    ) public view returns (bool) {\r\n        return _isExchangeable[studentTokenId];\r\n    }\r\n\r\n    function grantNftGraduation(\r\n        uint256[] memory tokenIds,\r\n        string memory tokenURI\r\n    ) public {\r\n        NftIdentityResponse memory nftIdentityResponse = _nftIdentities\r\n            .getNftOfMemberWithRole(uint256(ROLE.STUDENT), msg.sender);\r\n        require(!nftIdentityResponse.isExpired, \"C-ERR-01\");\r\n        require(\r\n            _isExchangeable[nftIdentityResponse.nftIdentity.tokenId],\r\n            \"NG-ERR-01\"\r\n        );\r\n        _checkEnoughCredits(tokenIds, nftIdentityResponse.nftIdentity.tokenId);\r\n        _nftCompleteCourses.regainNftCompleteCourses(\r\n            nftIdentityResponse.nftIdentity.tokenId,\r\n            tokenIds\r\n        );\r\n\r\n        uint256 tokenId = _mintToken(msg.sender, tokenURI);\r\n        NftGraduation memory nftGraduation = NftGraduation(\r\n            tokenId,\r\n            nftIdentityResponse.nftIdentity.tokenId\r\n        );\r\n        _allNftGraduations.push(nftGraduation);\r\n        _posOfNftGraduationTokenId[tokenId] = _allNftGraduations.length;\r\n        _tokenIdOfStudent[nftIdentityResponse.nftIdentity.tokenId] = tokenId;\r\n\r\n        emit GrantNewNftGraduation(tokenId);\r\n    }\r\n\r\n    function _checkEnoughCredits(\r\n        uint256[] memory tokenIds,\r\n        uint256 studentTokenId\r\n    ) private view {\r\n        uint256 count = tokenIds.length;\r\n        KnowledgeBlock[] memory knowledgeBlocks = _school\r\n            .getAllKnowledgeBlocks();\r\n        uint256 knowledgeBlockCount = knowledgeBlocks.length;\r\n        uint256[] memory totalCredits = new uint256[](knowledgeBlockCount + 1);\r\n\r\n        for (uint256 idx; idx < count; ++idx) {\r\n            (NftCompleteCourse memory nftCompleteCourse, ) = _nftCompleteCourses\r\n                .getNftCompleteCourse(tokenIds[idx]);\r\n            require(\r\n                nftCompleteCourse.studentTokenId == studentTokenId,\r\n                \"NCR-ERR-04\"\r\n            );\r\n\r\n            totalCredits[\r\n                nftCompleteCourse.knowledgeBlockId\r\n            ] += nftCompleteCourse.credits;\r\n        }\r\n\r\n        // validate number of credits\r\n        for (uint256 idx; idx < knowledgeBlockCount; ++idx) {\r\n            require(\r\n                totalCredits[knowledgeBlocks[idx].id] >=\r\n                    knowledgeBlocks[idx].credits,\r\n                \"NG-ERR-02\"\r\n            );\r\n        }\r\n    }\r\n}\r\n",
  "sourcePath": "E:\\learn\\learn-to-earn\\blockchain\\contracts\\NftGraduation.sol",
  "compiler": {
    "name": "solc",
    "version": "0.8.13+commit.abaa5c0e.Emscripten.clang"
  },
  "schemaVersion": "3.4.13",
  "updatedAt": "2023-08-12T04:30:39.638Z",
  "networkType": "ethereum",
  "devdoc": {
    "kind": "dev",
    "methods": {
      "approve(address,uint256)": {
        "details": "See {IERC721-approve}."
      },
      "balanceOf(address)": {
        "details": "See {IERC721-balanceOf}."
      },
      "getApproved(uint256)": {
        "details": "See {IERC721-getApproved}."
      },
      "isApprovedForAll(address,address)": {
        "details": "See {IERC721-isApprovedForAll}."
      },
      "name()": {
        "details": "See {IERC721Metadata-name}."
      },
      "ownerOf(uint256)": {
        "details": "See {IERC721-ownerOf}."
      },
      "safeTransferFrom(address,address,uint256)": {
        "details": "See {IERC721-safeTransferFrom}."
      },
      "safeTransferFrom(address,address,uint256,bytes)": {
        "details": "See {IERC721-safeTransferFrom}."
      },
      "setApprovalForAll(address,bool)": {
        "details": "See {IERC721-setApprovalForAll}."
      },
      "supportsInterface(bytes4)": {
        "details": "See {IERC165-supportsInterface}."
      },
      "symbol()": {
        "details": "See {IERC721Metadata-symbol}."
      },
      "tokenURI(uint256)": {
        "details": "See {IERC721Metadata-tokenURI}."
      },
      "transferFrom(address,address,uint256)": {
        "details": "See {IERC721-transferFrom}."
      }
    },
    "version": 1
  },
  "userdoc": {
    "kind": "user",
    "methods": {},
    "version": 1
  }
}