{
  "contractName": "NftGraduation",
  "abi": [
    {
      "inputs": [
        {
          "internalType": "address",
          "name": "nftIdentities",
          "type": "address"
        },
        {
          "internalType": "address",
          "name": "school",
          "type": "address"
        },
        {
          "internalType": "address",
          "name": "nftCompleteCourse",
          "type": "address"
        }
      ],
      "stateMutability": "nonpayable",
      "type": "constructor"
    },
    {
      "anonymous": false,
      "inputs": [
        {
          "indexed": true,
          "internalType": "address",
          "name": "owner",
          "type": "address"
        },
        {
          "indexed": true,
          "internalType": "address",
          "name": "approved",
          "type": "address"
        },
        {
          "indexed": true,
          "internalType": "uint256",
          "name": "tokenId",
          "type": "uint256"
        }
      ],
      "name": "Approval",
      "type": "event"
    },
    {
      "anonymous": false,
      "inputs": [
        {
          "indexed": true,
          "internalType": "address",
          "name": "owner",
          "type": "address"
        },
        {
          "indexed": true,
          "internalType": "address",
          "name": "operator",
          "type": "address"
        },
        {
          "indexed": false,
          "internalType": "bool",
          "name": "approved",
          "type": "bool"
        }
      ],
      "name": "ApprovalForAll",
      "type": "event"
    },
    {
      "anonymous": false,
      "inputs": [
        {
          "indexed": false,
          "internalType": "uint256",
          "name": "tokenId",
          "type": "uint256"
        }
      ],
      "name": "GrantNewNftGraduation",
      "type": "event"
    },
    {
      "anonymous": false,
      "inputs": [
        {
          "indexed": true,
          "internalType": "address",
          "name": "from",
          "type": "address"
        },
        {
          "indexed": true,
          "internalType": "address",
          "name": "to",
          "type": "address"
        },
        {
          "indexed": true,
          "internalType": "uint256",
          "name": "tokenId",
          "type": "uint256"
        }
      ],
      "name": "Transfer",
      "type": "event"
    },
    {
      "inputs": [
        {
          "internalType": "address",
          "name": "to",
          "type": "address"
        },
        {
          "internalType": "uint256",
          "name": "tokenId",
          "type": "uint256"
        }
      ],
      "name": "approve",
      "outputs": [],
      "stateMutability": "nonpayable",
      "type": "function"
    },
    {
      "inputs": [
        {
          "internalType": "address",
          "name": "owner",
          "type": "address"
        }
      ],
      "name": "balanceOf",
      "outputs": [
        {
          "internalType": "uint256",
          "name": "",
          "type": "uint256"
        }
      ],
      "stateMutability": "view",
      "type": "function",
      "constant": true
    },
    {
      "inputs": [
        {
          "internalType": "uint256",
          "name": "tokenId",
          "type": "uint256"
        }
      ],
      "name": "getApproved",
      "outputs": [
        {
          "internalType": "address",
          "name": "",
          "type": "address"
        }
      ],
      "stateMutability": "view",
      "type": "function",
      "constant": true
    },
    {
      "inputs": [
        {
          "internalType": "address",
          "name": "owner",
          "type": "address"
        },
        {
          "internalType": "address",
          "name": "operator",
          "type": "address"
        }
      ],
      "name": "isApprovedForAll",
      "outputs": [
        {
          "internalType": "bool",
          "name": "",
          "type": "bool"
        }
      ],
      "stateMutability": "view",
      "type": "function",
      "constant": true
    },
    {
      "inputs": [],
      "name": "name",
      "outputs": [
        {
          "internalType": "string",
          "name": "",
          "type": "string"
        }
      ],
      "stateMutability": "view",
      "type": "function",
      "constant": true
    },
    {
      "inputs": [
        {
          "internalType": "uint256",
          "name": "tokenId",
          "type": "uint256"
        }
      ],
      "name": "ownerOf",
      "outputs": [
        {
          "internalType": "address",
          "name": "",
          "type": "address"
        }
      ],
      "stateMutability": "view",
      "type": "function",
      "constant": true
    },
    {
      "inputs": [
        {
          "internalType": "address",
          "name": "from",
          "type": "address"
        },
        {
          "internalType": "address",
          "name": "to",
          "type": "address"
        },
        {
          "internalType": "uint256",
          "name": "tokenId",
          "type": "uint256"
        }
      ],
      "name": "safeTransferFrom",
      "outputs": [],
      "stateMutability": "nonpayable",
      "type": "function"
    },
    {
      "inputs": [
        {
          "internalType": "address",
          "name": "from",
          "type": "address"
        },
        {
          "internalType": "address",
          "name": "to",
          "type": "address"
        },
        {
          "internalType": "uint256",
          "name": "tokenId",
          "type": "uint256"
        },
        {
          "internalType": "bytes",
          "name": "data",
          "type": "bytes"
        }
      ],
      "name": "safeTransferFrom",
      "outputs": [],
      "stateMutability": "nonpayable",
      "type": "function"
    },
    {
      "inputs": [
        {
          "internalType": "address",
          "name": "operator",
          "type": "address"
        },
        {
          "internalType": "bool",
          "name": "approved",
          "type": "bool"
        }
      ],
      "name": "setApprovalForAll",
      "outputs": [],
      "stateMutability": "nonpayable",
      "type": "function"
    },
    {
      "inputs": [
        {
          "internalType": "bytes4",
          "name": "interfaceId",
          "type": "bytes4"
        }
      ],
      "name": "supportsInterface",
      "outputs": [
        {
          "internalType": "bool",
          "name": "",
          "type": "bool"
        }
      ],
      "stateMutability": "view",
      "type": "function",
      "constant": true
    },
    {
      "inputs": [],
      "name": "symbol",
      "outputs": [
        {
          "internalType": "string",
          "name": "",
          "type": "string"
        }
      ],
      "stateMutability": "view",
      "type": "function",
      "constant": true
    },
    {
      "inputs": [
        {
          "internalType": "uint256",
          "name": "tokenId",
          "type": "uint256"
        }
      ],
      "name": "tokenURI",
      "outputs": [
        {
          "internalType": "string",
          "name": "",
          "type": "string"
        }
      ],
      "stateMutability": "view",
      "type": "function",
      "constant": true
    },
    {
      "inputs": [
        {
          "internalType": "address",
          "name": "from",
          "type": "address"
        },
        {
          "internalType": "address",
          "name": "to",
          "type": "address"
        },
        {
          "internalType": "uint256",
          "name": "tokenId",
          "type": "uint256"
        }
      ],
      "name": "transferFrom",
      "outputs": [],
      "stateMutability": "nonpayable",
      "type": "function"
    },
    {
      "inputs": [
        {
          "internalType": "uint256",
          "name": "studentTokenId",
          "type": "uint256"
        }
      ],
      "name": "getNftGraduation",
      "outputs": [
        {
          "components": [
            {
              "internalType": "uint256",
              "name": "tokenId",
              "type": "uint256"
            },
            {
              "internalType": "uint256",
              "name": "studentTokenId",
              "type": "uint256"
            }
          ],
          "internalType": "struct IConstant.NftGraduation",
          "name": "",
          "type": "tuple"
        }
      ],
      "stateMutability": "view",
      "type": "function",
      "constant": true
    },
    {
      "inputs": [],
      "name": "getOwnedNftGraduation",
      "outputs": [
        {
          "components": [
            {
              "internalType": "uint256",
              "name": "tokenId",
              "type": "uint256"
            },
            {
              "internalType": "uint256",
              "name": "studentTokenId",
              "type": "uint256"
            }
          ],
          "internalType": "struct IConstant.NftGraduation",
          "name": "",
          "type": "tuple"
        }
      ],
      "stateMutability": "view",
      "type": "function",
      "constant": true
    },
    {
      "inputs": [],
      "name": "getAllGraduations",
      "outputs": [
        {
          "components": [
            {
              "internalType": "uint256",
              "name": "tokenId",
              "type": "uint256"
            },
            {
              "internalType": "uint256",
              "name": "studentTokenId",
              "type": "uint256"
            }
          ],
          "internalType": "struct IConstant.NftGraduation[]",
          "name": "",
          "type": "tuple[]"
        }
      ],
      "stateMutability": "view",
      "type": "function",
      "constant": true
    },
    {
      "inputs": [
        {
          "internalType": "uint256",
          "name": "studentTokenId",
          "type": "uint256"
        },
        {
          "internalType": "bool",
          "name": "isAllow",
          "type": "bool"
        }
      ],
      "name": "setExchangableNftGraduation",
      "outputs": [],
      "stateMutability": "nonpayable",
      "type": "function"
    },
    {
      "inputs": [
        {
          "internalType": "uint256",
          "name": "studentTokenId",
          "type": "uint256"
        }
      ],
      "name": "checkExchangeable",
      "outputs": [
        {
          "internalType": "bool",
          "name": "",
          "type": "bool"
        }
      ],
      "stateMutability": "view",
      "type": "function",
      "constant": true
    },
    {
      "inputs": [
        {
          "internalType": "uint256[]",
          "name": "tokenIds",
          "type": "uint256[]"
        },
        {
          "internalType": "string",
          "name": "tokenURI",
          "type": "string"
        }
      ],
      "name": "grantNftGraduation",
      "outputs": [],
      "stateMutability": "nonpayable",
      "type": "function"
    }
  ],
  "bytecode": "0x60806040523480156200001157600080fd5b5060405162003c7d38038062003c7d83398181016040528101906200003791906200031d565b6040518060400160405280600d81526020017f4e667447726164756174696f6e000000000000000000000000000000000000008152506040518060400160405280600381526020017f4e4352000000000000000000000000000000000000000000000000000000000081525081818160009080519060200190620000bd92919062000203565b508060019080519060200190620000d692919062000203565b50505033600760006101000a81548173ffffffffffffffffffffffffffffffffffffffff021916908373ffffffffffffffffffffffffffffffffffffffff16021790555050506000600c60146101000a81548160ff02191690831515021790555082600b60006101000a81548173ffffffffffffffffffffffffffffffffffffffff021916908373ffffffffffffffffffffffffffffffffffffffff16021790555081600a60006101000a81548173ffffffffffffffffffffffffffffffffffffffff021916908373ffffffffffffffffffffffffffffffffffffffff16021790555080600c60006101000a81548173ffffffffffffffffffffffffffffffffffffffff021916908373ffffffffffffffffffffffffffffffffffffffff160217905550505050620003dd565b8280546200021190620003a8565b90600052602060002090601f01602090048101928262000235576000855562000281565b82601f106200025057805160ff191683800117855562000281565b8280016001018555821562000281579182015b828111156200028057825182559160200191906001019062000263565b5b50905062000290919062000294565b5090565b5b80821115620002af57600081600090555060010162000295565b5090565b600080fd5b600073ffffffffffffffffffffffffffffffffffffffff82169050919050565b6000620002e582620002b8565b9050919050565b620002f781620002d8565b81146200030357600080fd5b50565b6000815190506200031781620002ec565b92915050565b600080600060608486031215620003395762000338620002b3565b5b6000620003498682870162000306565b93505060206200035c8682870162000306565b92505060406200036f8682870162000306565b9150509250925092565b7f4e487b7100000000000000000000000000000000000000000000000000000000600052602260045260246000fd5b60006002820490506001821680620003c157607f821691505b602082108103620003d757620003d662000379565b5b50919050565b61389080620003ed6000396000f3fe608060405234801561001057600080fd5b50600436106101215760003560e01c806370a08231116100ad578063b12a611511610071578063b12a611514610318578063b88d4fde14610336578063c87b56dd14610352578063e985e9c514610382578063ec7d2f75146103b257610121565b806370a08231146102765780638afa4767146102a65780638b1a682c146102c257806395d89b41146102de578063a22cb465146102fc57610121565b806323b872dd116100f457806323b872dd146101c05780632a3a676c146101dc5780633a9b56621461020c57806342842e0e1461022a5780636352211e1461024657610121565b806301ffc9a71461012657806306fdde0314610156578063081812fc14610174578063095ea7b3146101a4575b600080fd5b610140600480360381019061013b91906122f9565b6103e2565b60405161014d9190612341565b60405180910390f35b61015e6104c4565b60405161016b91906123f5565b60405180910390f35b61018e6004803603810190610189919061244d565b610556565b60405161019b91906124bb565b60405180910390f35b6101be60048036038101906101b99190612502565b61059c565b005b6101da60048036038101906101d59190612542565b6106b3565b005b6101f660048036038101906101f1919061244d565b610713565b6040516102039190612341565b60405180910390f35b61021461073d565b6040516102219190612682565b60405180910390f35b610244600480360381019061023f9190612542565b61080a565b005b610260600480360381019061025b919061244d565b61082a565b60405161026d91906124bb565b60405180910390f35b610290600480360381019061028b91906126a4565b6108b0565b60405161029d91906126e0565b60405180910390f35b6102c060048036038101906102bb9190612727565b610967565b005b6102dc60048036038101906102d79190612964565b610adb565b005b6102e6610d88565b6040516102f391906123f5565b60405180910390f35b610316600480360381019061031191906129dc565b610e1a565b005b610320610e30565b60405161032d9190612a4b565b60405180910390f35b610350600480360381019061034b9190612b07565b610fb5565b005b61036c6004803603810190610367919061244d565b611017565b60405161037991906123f5565b60405180910390f35b61039c60048036038101906103979190612b8a565b611129565b6040516103a99190612341565b60405180910390f35b6103cc60048036038101906103c7919061244d565b6111bd565b6040516103d99190612a4b565b60405180910390f35b60007f80ac58cd000000000000000000000000000000000000000000000000000000007bffffffffffffffffffffffffffffffffffffffffffffffffffffffff1916827bffffffffffffffffffffffffffffffffffffffffffffffffffffffff191614806104ad57507f5b5e139f000000000000000000000000000000000000000000000000000000007bffffffffffffffffffffffffffffffffffffffffffffffffffffffff1916827bffffffffffffffffffffffffffffffffffffffffffffffffffffffff1916145b806104bd57506104bc8261128e565b5b9050919050565b6060600080546104d390612bf9565b80601f01602080910402602001604051908101604052809291908181526020018280546104ff90612bf9565b801561054c5780601f106105215761010080835404028352916020019161054c565b820191906000526020600020905b81548152906001019060200180831161052f57829003601f168201915b5050505050905090565b6000610561826112f8565b6004600083815260200190815260200160002060009054906101000a900473ffffffffffffffffffffffffffffffffffffffff169050919050565b60006105a78261082a565b90508073ffffffffffffffffffffffffffffffffffffffff168373ffffffffffffffffffffffffffffffffffffffff1603610617576040517f08c379a000000000000000000000000000000000000000000000000000000000815260040161060e90612c9c565b60405180910390fd5b8073ffffffffffffffffffffffffffffffffffffffff16610636611343565b73ffffffffffffffffffffffffffffffffffffffff16148061066557506106648161065f611343565b611129565b5b6106a4576040517f08c379a000000000000000000000000000000000000000000000000000000000815260040161069b90612d2e565b60405180910390fd5b6106ae838361134b565b505050565b6106c46106be611343565b82611404565b610703576040517f08c379a00000000000000000000000000000000000000000000000000000000081526004016106fa90612dc0565b60405180910390fd5b61070e838383611499565b505050565b60006010600083815260200190815260200160002060009054906101000a900460ff169050919050565b60603373ffffffffffffffffffffffffffffffffffffffff16600760009054906101000a900473ffffffffffffffffffffffffffffffffffffffff1673ffffffffffffffffffffffffffffffffffffffff161461079957600080fd5b600d805480602002602001604051908101604052809291908181526020016000905b82821015610801578382906000526020600020906002020160405180604001604052908160008201548152602001600182015481525050815260200190600101906107bb565b50505050905090565b61082583838360405180602001604052806000815250610fb5565b505050565b60008061083683611792565b9050600073ffffffffffffffffffffffffffffffffffffffff168173ffffffffffffffffffffffffffffffffffffffff16036108a7576040517f08c379a000000000000000000000000000000000000000000000000000000000815260040161089e90612e2c565b60405180910390fd5b80915050919050565b60008073ffffffffffffffffffffffffffffffffffffffff168273ffffffffffffffffffffffffffffffffffffffff1603610920576040517f08c379a000000000000000000000000000000000000000000000000000000000815260040161091790612ebe565b60405180910390fd5b600360008373ffffffffffffffffffffffffffffffffffffffff1673ffffffffffffffffffffffffffffffffffffffff168152602001908152602001600020549050919050565b3373ffffffffffffffffffffffffffffffffffffffff16600760009054906101000a900473ffffffffffffffffffffffffffffffffffffffff1673ffffffffffffffffffffffffffffffffffffffff16146109c157600080fd5b6000600b60009054906101000a900473ffffffffffffffffffffffffffffffffffffffff1673ffffffffffffffffffffffffffffffffffffffff1663d703df8b846040518263ffffffff1660e01b8152600401610a1e91906126e0565b600060405180830381865afa158015610a3b573d6000803e3d6000fd5b505050506040513d6000823e3d601f19601f82011682018060405250810190610a64919061308f565b9050806060015115610aab576040517f08c379a0000000000000000000000000000000000000000000000000000000008152600401610aa290613124565b60405180910390fd5b816010600085815260200190815260200160002060006101000a81548160ff021916908315150217905550505050565b3373ffffffffffffffffffffffffffffffffffffffff16600760009054906101000a900473ffffffffffffffffffffffffffffffffffffffff1673ffffffffffffffffffffffffffffffffffffffff1614610b3557600080fd5b6000600b60009054906101000a900473ffffffffffffffffffffffffffffffffffffffff1673ffffffffffffffffffffffffffffffffffffffff166352db77c460006001811115610b8957610b88613144565b5b336040518363ffffffff1660e01b8152600401610ba7929190613173565b600060405180830381865afa158015610bc4573d6000803e3d6000fd5b505050506040513d6000823e3d601f19601f82011682018060405250810190610bed919061308f565b9050806060015115610c34576040517f08c379a0000000000000000000000000000000000000000000000000000000008152600401610c2b90613124565b60405180910390fd5b60106000826000015160000151815260200190815260200160002060009054906101000a900460ff16610c9c576040517f08c379a0000000000000000000000000000000000000000000000000000000008152600401610c93906131e8565b60405180910390fd5b6000610ca833846117cf565b9050600060405180604001604052808381526020018460000151600001518152509050600d81908060018154018082558091505060019003906000526020600020906002020160009091909190915060008201518160000155602082015181600101555050600d80549050600e60008481526020019081526020016000208190555081600f60008560000151600001518152602001908152602001600020819055507facb3849a125f4bedb6599365b4242ab6d2cdc08aca6d7cd4cfe34708c680f62382604051610d7991906126e0565b60405180910390a15050505050565b606060018054610d9790612bf9565b80601f0160208091040260200160405190810160405280929190818152602001828054610dc390612bf9565b8015610e105780601f10610de557610100808354040283529160200191610e10565b820191906000526020600020905b815481529060010190602001808311610df357829003601f168201915b5050505050905090565b610e2c610e25611343565b8383611840565b5050565b610e386121d0565b6000600b60009054906101000a900473ffffffffffffffffffffffffffffffffffffffff1673ffffffffffffffffffffffffffffffffffffffff1663443ebca73360006001811115610e8d57610e8c613144565b5b6040518363ffffffff1660e01b8152600401610eaa929190613208565b602060405180830381865afa158015610ec7573d6000803e3d6000fd5b505050506040513d601f19601f82011682018060405250810190610eeb9190613231565b90506000600f600083815260200190815260200160002054905060008111610f48576040517f08c379a0000000000000000000000000000000000000000000000000000000008152600401610f3f906132aa565b60405180910390fd5b6000600e6000838152602001908152602001600020549050600d600182610f6f91906132f9565b81548110610f8057610f7f61332d565b5b906000526020600020906002020160405180604001604052908160008201548152602001600182015481525050935050505090565b610fc6610fc0611343565b83611404565b611005576040517f08c379a0000000000000000000000000000000000000000000000000000000008152600401610ffc90612dc0565b60405180910390fd5b611011848484846119ac565b50505050565b6060611022826112f8565b600060066000848152602001908152602001600020805461104290612bf9565b80601f016020809104026020016040519081016040528092919081815260200182805461106e90612bf9565b80156110bb5780601f10611090576101008083540402835291602001916110bb565b820191906000526020600020905b81548152906001019060200180831161109e57829003601f168201915b5050505050905060006110cc611a08565b905060008151036110e1578192505050611124565b6000825111156111165780826040516020016110fe929190613398565b60405160208183030381529060405292505050611124565b61111f84611a1f565b925050505b919050565b6000600560008473ffffffffffffffffffffffffffffffffffffffff1673ffffffffffffffffffffffffffffffffffffffff16815260200190815260200160002060008373ffffffffffffffffffffffffffffffffffffffff1673ffffffffffffffffffffffffffffffffffffffff16815260200190815260200160002060009054906101000a900460ff16905092915050565b6111c56121d0565b6000600f600084815260200190815260200160002054905060008111611220576040517f08c379a0000000000000000000000000000000000000000000000000000000008152600401611217906132aa565b60405180910390fd5b6000600e6000838152602001908152602001600020549050600d60018261124791906132f9565b815481106112585761125761332d565b5b90600052602060002090600202016040518060400160405290816000820154815260200160018201548152505092505050919050565b60007f01ffc9a7000000000000000000000000000000000000000000000000000000007bffffffffffffffffffffffffffffffffffffffffffffffffffffffff1916827bffffffffffffffffffffffffffffffffffffffffffffffffffffffff1916149050919050565b61130181611a87565b611340576040517f08c379a000000000000000000000000000000000000000000000000000000000815260040161133790612e2c565b60405180910390fd5b50565b600033905090565b816004600083815260200190815260200160002060006101000a81548173ffffffffffffffffffffffffffffffffffffffff021916908373ffffffffffffffffffffffffffffffffffffffff160217905550808273ffffffffffffffffffffffffffffffffffffffff166113be8361082a565b73ffffffffffffffffffffffffffffffffffffffff167f8c5be1e5ebec7d5bd14f71427d1e84f3dd0314c0f7b2291e5b200ac8c7c3b92560405160405180910390a45050565b6000806114108361082a565b90508073ffffffffffffffffffffffffffffffffffffffff168473ffffffffffffffffffffffffffffffffffffffff16148061145257506114518185611129565b5b8061149057508373ffffffffffffffffffffffffffffffffffffffff1661147884610556565b73ffffffffffffffffffffffffffffffffffffffff16145b91505092915050565b8273ffffffffffffffffffffffffffffffffffffffff166114b98261082a565b73ffffffffffffffffffffffffffffffffffffffff161461150f576040517f08c379a00000000000000000000000000000000000000000000000000000000081526004016115069061342e565b60405180910390fd5b600073ffffffffffffffffffffffffffffffffffffffff168273ffffffffffffffffffffffffffffffffffffffff160361157e576040517f08c379a0000000000000000000000000000000000000000000000000000000008152600401611575906134c0565b60405180910390fd5b61158b8383836001611ac8565b8273ffffffffffffffffffffffffffffffffffffffff166115ab8261082a565b73ffffffffffffffffffffffffffffffffffffffff1614611601576040517f08c379a00000000000000000000000000000000000000000000000000000000081526004016115f89061342e565b60405180910390fd5b6004600082815260200190815260200160002060006101000a81549073ffffffffffffffffffffffffffffffffffffffff02191690556001600360008573ffffffffffffffffffffffffffffffffffffffff1673ffffffffffffffffffffffffffffffffffffffff168152602001908152602001600020600082825403925050819055506001600360008473ffffffffffffffffffffffffffffffffffffffff1673ffffffffffffffffffffffffffffffffffffffff16815260200190815260200160002060008282540192505081905550816002600083815260200190815260200160002060006101000a81548173ffffffffffffffffffffffffffffffffffffffff021916908373ffffffffffffffffffffffffffffffffffffffff160217905550808273ffffffffffffffffffffffffffffffffffffffff168473ffffffffffffffffffffffffffffffffffffffff167fddf252ad1be2c89b69c2b068fc378daa952ba7f163c4a11628f55a4df523b3ef60405160405180910390a461178d8383836001611ace565b505050565b60006002600083815260200190815260200160002060009054906101000a900473ffffffffffffffffffffffffffffffffffffffff169050919050565b6000806117da611ad4565b905061182c84826000368080601f016020809104026020016040519081016040528093929190818152602001838380828437600081840152601f19601f82011690508083019250505050505050611af5565b6118368184611b50565b8091505092915050565b8173ffffffffffffffffffffffffffffffffffffffff168373ffffffffffffffffffffffffffffffffffffffff16036118ae576040517f08c379a00000000000000000000000000000000000000000000000000000000081526004016118a59061352c565b60405180910390fd5b80600560008573ffffffffffffffffffffffffffffffffffffffff1673ffffffffffffffffffffffffffffffffffffffff16815260200190815260200160002060008473ffffffffffffffffffffffffffffffffffffffff1673ffffffffffffffffffffffffffffffffffffffff16815260200190815260200160002060006101000a81548160ff0219169083151502179055508173ffffffffffffffffffffffffffffffffffffffff168373ffffffffffffffffffffffffffffffffffffffff167f17307eab39ab6107e8899845ad3d59bd9653f200f220920489ca2b5937696c318360405161199f9190612341565b60405180910390a3505050565b6119b7848484611499565b6119c384848484611bc4565b611a02576040517f08c379a00000000000000000000000000000000000000000000000000000000081526004016119f9906135be565b60405180910390fd5b50505050565b606060405180602001604052806000815250905090565b6060611a2a826112f8565b6000611a34611a08565b90506000815111611a545760405180602001604052806000815250611a7f565b80611a5e84611d4b565b604051602001611a6f929190613398565b6040516020818303038152906040525b915050919050565b60008073ffffffffffffffffffffffffffffffffffffffff16611aa983611792565b73ffffffffffffffffffffffffffffffffffffffff1614159050919050565b50505050565b50505050565b6000611ae06008611e19565b6000611aec6008611e2f565b90508091505090565b611aff8383611e3d565b611b0c6000848484611bc4565b611b4b576040517f08c379a0000000000000000000000000000000000000000000000000000000008152600401611b42906135be565b60405180910390fd5b505050565b611b5982611a87565b611b98576040517f08c379a0000000000000000000000000000000000000000000000000000000008152600401611b8f90613650565b60405180910390fd5b80600660008481526020019081526020016000209080519060200190611bbf9291906121ea565b505050565b6000611be58473ffffffffffffffffffffffffffffffffffffffff1661205a565b15611d3e578373ffffffffffffffffffffffffffffffffffffffff1663150b7a02611c0e611343565b8786866040518563ffffffff1660e01b8152600401611c3094939291906136c5565b6020604051808303816000875af1925050508015611c6c57506040513d601f19601f82011682018060405250810190611c699190613726565b60015b611cee573d8060008114611c9c576040519150601f19603f3d011682016040523d82523d6000602084013e611ca1565b606091505b506000815103611ce6576040517f08c379a0000000000000000000000000000000000000000000000000000000008152600401611cdd906135be565b60405180910390fd5b805181602001fd5b63150b7a0260e01b7bffffffffffffffffffffffffffffffffffffffffffffffffffffffff1916817bffffffffffffffffffffffffffffffffffffffffffffffffffffffff191614915050611d43565b600190505b949350505050565b606060006001611d5a8461207d565b01905060008167ffffffffffffffff811115611d7957611d7861276c565b5b6040519080825280601f01601f191660200182016040528015611dab5781602001600182028036833780820191505090505b509050600082602001820190505b600115611e0e578080600190039150507f3031323334353637383961626364656600000000000000000000000000000000600a86061a8153600a8581611e0257611e01613753565b5b04945060008503611db9575b819350505050919050565b6001816000016000828254019250508190555050565b600081600001549050919050565b600073ffffffffffffffffffffffffffffffffffffffff168273ffffffffffffffffffffffffffffffffffffffff1603611eac576040517f08c379a0000000000000000000000000000000000000000000000000000000008152600401611ea3906137ce565b60405180910390fd5b611eb581611a87565b15611ef5576040517f08c379a0000000000000000000000000000000000000000000000000000000008152600401611eec9061383a565b60405180910390fd5b611f03600083836001611ac8565b611f0c81611a87565b15611f4c576040517f08c379a0000000000000000000000000000000000000000000000000000000008152600401611f439061383a565b60405180910390fd5b6001600360008473ffffffffffffffffffffffffffffffffffffffff1673ffffffffffffffffffffffffffffffffffffffff16815260200190815260200160002060008282540192505081905550816002600083815260200190815260200160002060006101000a81548173ffffffffffffffffffffffffffffffffffffffff021916908373ffffffffffffffffffffffffffffffffffffffff160217905550808273ffffffffffffffffffffffffffffffffffffffff16600073ffffffffffffffffffffffffffffffffffffffff167fddf252ad1be2c89b69c2b068fc378daa952ba7f163c4a11628f55a4df523b3ef60405160405180910390a4612056600083836001611ace565b5050565b6000808273ffffffffffffffffffffffffffffffffffffffff163b119050919050565b600080600090507a184f03e93ff9f4daa797ed6e38ed64bf6a1f01000000000000000083106120db577a184f03e93ff9f4daa797ed6e38ed64bf6a1f01000000000000000083816120d1576120d0613753565b5b0492506040810190505b6d04ee2d6d415b85acef81000000008310612118576d04ee2d6d415b85acef8100000000838161210e5761210d613753565b5b0492506020810190505b662386f26fc10000831061214757662386f26fc10000838161213d5761213c613753565b5b0492506010810190505b6305f5e1008310612170576305f5e100838161216657612165613753565b5b0492506008810190505b612710831061219557612710838161218b5761218a613753565b5b0492506004810190505b606483106121b857606483816121ae576121ad613753565b5b0492506002810190505b600a83106121c7576001810190505b80915050919050565b604051806040016040528060008152602001600081525090565b8280546121f690612bf9565b90600052602060002090601f016020900481019282612218576000855561225f565b82601f1061223157805160ff191683800117855561225f565b8280016001018555821561225f579182015b8281111561225e578251825591602001919060010190612243565b5b50905061226c9190612270565b5090565b5b80821115612289576000816000905550600101612271565b5090565b6000604051905090565b600080fd5b600080fd5b60007fffffffff0000000000000000000000000000000000000000000000000000000082169050919050565b6122d6816122a1565b81146122e157600080fd5b50565b6000813590506122f3816122cd565b92915050565b60006020828403121561230f5761230e612297565b5b600061231d848285016122e4565b91505092915050565b60008115159050919050565b61233b81612326565b82525050565b60006020820190506123566000830184612332565b92915050565b600081519050919050565b600082825260208201905092915050565b60005b8381101561239657808201518184015260208101905061237b565b838111156123a5576000848401525b50505050565b6000601f19601f8301169050919050565b60006123c78261235c565b6123d18185612367565b93506123e1818560208601612378565b6123ea816123ab565b840191505092915050565b6000602082019050818103600083015261240f81846123bc565b905092915050565b6000819050919050565b61242a81612417565b811461243557600080fd5b50565b60008135905061244781612421565b92915050565b60006020828403121561246357612462612297565b5b600061247184828501612438565b91505092915050565b600073ffffffffffffffffffffffffffffffffffffffff82169050919050565b60006124a58261247a565b9050919050565b6124b58161249a565b82525050565b60006020820190506124d060008301846124ac565b92915050565b6124df8161249a565b81146124ea57600080fd5b50565b6000813590506124fc816124d6565b92915050565b6000806040838503121561251957612518612297565b5b6000612527858286016124ed565b925050602061253885828601612438565b9150509250929050565b60008060006060848603121561255b5761255a612297565b5b6000612569868287016124ed565b935050602061257a868287016124ed565b925050604061258b86828701612438565b9150509250925092565b600081519050919050565b600082825260208201905092915050565b6000819050602082019050919050565b6125ca81612417565b82525050565b6040820160008201516125e660008501826125c1565b5060208201516125f960208501826125c1565b50505050565b600061260b83836125d0565b60408301905092915050565b6000602082019050919050565b600061262f82612595565b61263981856125a0565b9350612644836125b1565b8060005b8381101561267557815161265c88826125ff565b975061266783612617565b925050600181019050612648565b5085935050505092915050565b6000602082019050818103600083015261269c8184612624565b905092915050565b6000602082840312156126ba576126b9612297565b5b60006126c8848285016124ed565b91505092915050565b6126da81612417565b82525050565b60006020820190506126f560008301846126d1565b92915050565b61270481612326565b811461270f57600080fd5b50565b600081359050612721816126fb565b92915050565b6000806040838503121561273e5761273d612297565b5b600061274c85828601612438565b925050602061275d85828601612712565b9150509250929050565b600080fd5b7f4e487b7100000000000000000000000000000000000000000000000000000000600052604160045260246000fd5b6127a4826123ab565b810181811067ffffffffffffffff821117156127c3576127c261276c565b5b80604052505050565b60006127d661228d565b90506127e2828261279b565b919050565b600067ffffffffffffffff8211156128025761280161276c565b5b602082029050602081019050919050565b600080fd5b600061282b612826846127e7565b6127cc565b9050808382526020820190506020840283018581111561284e5761284d612813565b5b835b8181101561287757806128638882612438565b845260208401935050602081019050612850565b5050509392505050565b600082601f83011261289657612895612767565b5b81356128a6848260208601612818565b91505092915050565b600080fd5b600067ffffffffffffffff8211156128cf576128ce61276c565b5b6128d8826123ab565b9050602081019050919050565b82818337600083830152505050565b6000612907612902846128b4565b6127cc565b905082815260208101848484011115612923576129226128af565b5b61292e8482856128e5565b509392505050565b600082601f83011261294b5761294a612767565b5b813561295b8482602086016128f4565b91505092915050565b6000806040838503121561297b5761297a612297565b5b600083013567ffffffffffffffff8111156129995761299861229c565b5b6129a585828601612881565b925050602083013567ffffffffffffffff8111156129c6576129c561229c565b5b6129d285828601612936565b9150509250929050565b600080604083850312156129f3576129f2612297565b5b6000612a01858286016124ed565b9250506020612a1285828601612712565b9150509250929050565b604082016000820151612a3260008501826125c1565b506020820151612a4560208501826125c1565b50505050565b6000604082019050612a606000830184612a1c565b92915050565b600067ffffffffffffffff821115612a8157612a8061276c565b5b612a8a826123ab565b9050602081019050919050565b6000612aaa612aa584612a66565b6127cc565b905082815260208101848484011115612ac657612ac56128af565b5b612ad18482856128e5565b509392505050565b600082601f830112612aee57612aed612767565b5b8135612afe848260208601612a97565b91505092915050565b60008060008060808587031215612b2157612b20612297565b5b6000612b2f878288016124ed565b9450506020612b40878288016124ed565b9350506040612b5187828801612438565b925050606085013567ffffffffffffffff811115612b7257612b7161229c565b5b612b7e87828801612ad9565b91505092959194509250565b60008060408385031215612ba157612ba0612297565b5b6000612baf858286016124ed565b9250506020612bc0858286016124ed565b9150509250929050565b7f4e487b7100000000000000000000000000000000000000000000000000000000600052602260045260246000fd5b60006002820490506001821680612c1157607f821691505b602082108103612c2457612c23612bca565b5b50919050565b7f4552433732313a20617070726f76616c20746f2063757272656e74206f776e6560008201527f7200000000000000000000000000000000000000000000000000000000000000602082015250565b6000612c86602183612367565b9150612c9182612c2a565b604082019050919050565b60006020820190508181036000830152612cb581612c79565b9050919050565b7f4552433732313a20617070726f76652063616c6c6572206973206e6f7420746f60008201527f6b656e206f776e6572206f7220617070726f76656420666f7220616c6c000000602082015250565b6000612d18603d83612367565b9150612d2382612cbc565b604082019050919050565b60006020820190508181036000830152612d4781612d0b565b9050919050565b7f4552433732313a2063616c6c6572206973206e6f7420746f6b656e206f776e6560008201527f72206f7220617070726f76656400000000000000000000000000000000000000602082015250565b6000612daa602d83612367565b9150612db582612d4e565b604082019050919050565b60006020820190508181036000830152612dd981612d9d565b9050919050565b7f4552433732313a20696e76616c696420746f6b656e2049440000000000000000600082015250565b6000612e16601883612367565b9150612e2182612de0565b602082019050919050565b60006020820190508181036000830152612e4581612e09565b9050919050565b7f4552433732313a2061646472657373207a65726f206973206e6f74206120766160008201527f6c6964206f776e65720000000000000000000000000000000000000000000000602082015250565b6000612ea8602983612367565b9150612eb382612e4c565b604082019050919050565b60006020820190508181036000830152612ed781612e9b565b9050919050565b600080fd5b600080fd5b600081519050612ef781612421565b92915050565b600081519050612f0c816124d6565b92915050565b600060608284031215612f2857612f27612ede565b5b612f3260606127cc565b90506000612f4284828501612ee8565b6000830152506020612f5684828501612efd565b6020830152506040612f6a84828501612ee8565b60408301525092915050565b6000612f89612f84846128b4565b6127cc565b905082815260208101848484011115612fa557612fa46128af565b5b612fb0848285612378565b509392505050565b600082601f830112612fcd57612fcc612767565b5b8151612fdd848260208601612f76565b91505092915050565b600081519050612ff5816126fb565b92915050565b600060c0828403121561301157613010612ede565b5b61301b60806127cc565b9050600061302b84828501612f12565b600083015250606082015167ffffffffffffffff81111561304f5761304e612ee3565b5b61305b84828501612fb8565b602083015250608061306f84828501612ee8565b60408301525060a061308384828501612fe6565b60608301525092915050565b6000602082840312156130a5576130a4612297565b5b600082015167ffffffffffffffff8111156130c3576130c261229c565b5b6130cf84828501612ffb565b91505092915050565b7f432d4552522d3031000000000000000000000000000000000000000000000000600082015250565b600061310e600883612367565b9150613119826130d8565b602082019050919050565b6000602082019050818103600083015261313d81613101565b9050919050565b7f4e487b7100000000000000000000000000000000000000000000000000000000600052602160045260246000fd5b600060408201905061318860008301856126d1565b61319560208301846124ac565b9392505050565b7f4e472d4552522d30310000000000000000000000000000000000000000000000600082015250565b60006131d2600983612367565b91506131dd8261319c565b602082019050919050565b60006020820190508181036000830152613201816131c5565b9050919050565b600060408201905061321d60008301856124ac565b61322a60208301846126d1565b9392505050565b60006020828403121561324757613246612297565b5b600061325584828501612ee8565b91505092915050565b7f4e472d4552522d30300000000000000000000000000000000000000000000000600082015250565b6000613294600983612367565b915061329f8261325e565b602082019050919050565b600060208201905081810360008301526132c381613287565b9050919050565b7f4e487b7100000000000000000000000000000000000000000000000000000000600052601160045260246000fd5b600061330482612417565b915061330f83612417565b925082821015613322576133216132ca565b5b828203905092915050565b7f4e487b7100000000000000000000000000000000000000000000000000000000600052603260045260246000fd5b600081905092915050565b60006133728261235c565b61337c818561335c565b935061338c818560208601612378565b80840191505092915050565b60006133a48285613367565b91506133b08284613367565b91508190509392505050565b7f4552433732313a207472616e736665722066726f6d20696e636f72726563742060008201527f6f776e6572000000000000000000000000000000000000000000000000000000602082015250565b6000613418602583612367565b9150613423826133bc565b604082019050919050565b600060208201905081810360008301526134478161340b565b9050919050565b7f4552433732313a207472616e7366657220746f20746865207a65726f2061646460008201527f7265737300000000000000000000000000000000000000000000000000000000602082015250565b60006134aa602483612367565b91506134b58261344e565b604082019050919050565b600060208201905081810360008301526134d98161349d565b9050919050565b7f4552433732313a20617070726f766520746f2063616c6c657200000000000000600082015250565b6000613516601983612367565b9150613521826134e0565b602082019050919050565b6000602082019050818103600083015261354581613509565b9050919050565b7f4552433732313a207472616e7366657220746f206e6f6e20455243373231526560008201527f63656976657220696d706c656d656e7465720000000000000000000000000000602082015250565b60006135a8603283612367565b91506135b38261354c565b604082019050919050565b600060208201905081810360008301526135d78161359b565b9050919050565b7f45524337323155524953746f726167653a2055524920736574206f66206e6f6e60008201527f6578697374656e7420746f6b656e000000000000000000000000000000000000602082015250565b600061363a602e83612367565b9150613645826135de565b604082019050919050565b600060208201905081810360008301526136698161362d565b9050919050565b600081519050919050565b600082825260208201905092915050565b600061369782613670565b6136a1818561367b565b93506136b1818560208601612378565b6136ba816123ab565b840191505092915050565b60006080820190506136da60008301876124ac565b6136e760208301866124ac565b6136f460408301856126d1565b8181036060830152613706818461368c565b905095945050505050565b600081519050613720816122cd565b92915050565b60006020828403121561373c5761373b612297565b5b600061374a84828501613711565b91505092915050565b7f4e487b7100000000000000000000000000000000000000000000000000000000600052601260045260246000fd5b7f4552433732313a206d696e7420746f20746865207a65726f2061646472657373600082015250565b60006137b8602083612367565b91506137c382613782565b602082019050919050565b600060208201905081810360008301526137e7816137ab565b9050919050565b7f4552433732313a20746f6b656e20616c7265616479206d696e74656400000000600082015250565b6000613824601c83612367565b915061382f826137ee565b602082019050919050565b6000602082019050818103600083015261385381613817565b905091905056fea2646970667358221220467aa540a8a4c1fd355eb4cc69eeea9e7ed1a2dfb3d1c007fa50f8d9a5760bd764736f6c634300080d0033",
  "immutableReferences": {},
  "source": "// SPDX-License-Identifier: MIT\r\n// Tells the Solidity compiler to compile only from v0.8.13 to v0.9.0\r\npragma solidity ^0.8.13;\r\n\r\nimport \"./base/ERC721BaseContract.sol\";\r\nimport \"./interfaces/INftGraduation.sol\";\r\nimport \"./interfaces/INftIdentities.sol\";\r\nimport \"./interfaces/INftCompleteCourses.sol\";\r\nimport \"./interfaces/ISchool.sol\";\r\n\r\ncontract NftGraduation is ERC721BaseContract, INftGraduation {\r\n    ISchool private _school;\r\n    INftIdentities private _nftIdentities;\r\n    INftCompleteCourses private _nftCompleteCourses;\r\n\r\n    bool private _isInitialize;\r\n\r\n    NftGraduation[] private _allNftGraduations;\r\n    mapping(uint256 => uint256) private _posOfNftGraduationTokenId;\r\n    mapping(uint256 => uint256) private _tokenIdOfStudent;\r\n    mapping(uint256 => bool) private _isExchangeable;\r\n\r\n    event GrantNewNftGraduation(uint256 tokenId);\r\n\r\n    modifier onlyOwner() {\r\n        require(_owner == msg.sender);\r\n        _;\r\n    }\r\n\r\n    constructor(\r\n        address nftIdentities,\r\n        address school,\r\n        address nftCompleteCourse\r\n    ) ERC721BaseContract(\"NftGraduation\", \"NCR\") {\r\n        _isInitialize = false;\r\n        _nftIdentities = INftIdentities(nftIdentities);\r\n        _school = ISchool(school);\r\n        _nftCompleteCourses = INftCompleteCourses(nftCompleteCourse);\r\n    }\r\n\r\n    function getNftGraduation(\r\n        uint256 studentTokenId\r\n    ) public view returns (NftGraduation memory) {\r\n        uint256 tokenId = _tokenIdOfStudent[studentTokenId];\r\n        require(tokenId > 0, \"NG-ERR-00\");\r\n        uint256 pos = _posOfNftGraduationTokenId[tokenId];\r\n\r\n        return _allNftGraduations[pos - 1];\r\n    }\r\n\r\n    function getOwnedNftGraduation()\r\n        public\r\n        view\r\n        returns (NftGraduation memory)\r\n    {\r\n        uint256 studentTokenId = _nftIdentities.getNftTokenIdOfRole(\r\n            msg.sender,\r\n            uint256(ROLE.STUDENT)\r\n        );\r\n        uint256 tokenId = _tokenIdOfStudent[studentTokenId];\r\n        require(tokenId > 0, \"NG-ERR-00\");\r\n        uint256 pos = _posOfNftGraduationTokenId[tokenId];\r\n\r\n        return _allNftGraduations[pos - 1];\r\n    }\r\n\r\n    function getAllGraduations()\r\n        public\r\n        view\r\n        onlyOwner\r\n        returns (NftGraduation[] memory)\r\n    {\r\n        return _allNftGraduations;\r\n    }\r\n\r\n    function setExchangableNftGraduation(\r\n        uint256 studentTokenId,\r\n        bool isAllow\r\n    ) public onlyOwner {\r\n        NftIdentityResponse memory nftIdentityResponse = _nftIdentities\r\n            .getNftOfTokenId(studentTokenId);\r\n        require(!nftIdentityResponse.isExpired, \"C-ERR-01\");\r\n        _isExchangeable[studentTokenId] = isAllow;\r\n    }\r\n\r\n    function checkExchangeable(\r\n        uint256 studentTokenId\r\n    ) public view returns (bool) {\r\n        return _isExchangeable[studentTokenId];\r\n    }\r\n\r\n    function grantNftGraduation(\r\n        uint256[] memory tokenIds,\r\n        string memory tokenURI\r\n    ) public onlyOwner {\r\n        NftIdentityResponse memory nftIdentityResponse = _nftIdentities\r\n            .getNftOfMemberWithRole(uint256(ROLE.STUDENT), msg.sender);\r\n        require(!nftIdentityResponse.isExpired, \"C-ERR-01\");\r\n        require(\r\n            _isExchangeable[nftIdentityResponse.nftIdentity.tokenId],\r\n            \"NG-ERR-01\"\r\n        );\r\n        // _checkEnoughCredits(tokenIds, nftIdentityResponse.nftIdentity.tokenId);\r\n        // _nftCompleteCourses.regainNftCompleteCourses(\r\n        //     nftIdentityResponse.nftIdentity.tokenId,\r\n        //     tokenIds\r\n        // );\r\n\r\n        uint256 tokenId = _mintToken(msg.sender, tokenURI);\r\n        NftGraduation memory nftGraduation = NftGraduation(\r\n            tokenId,\r\n            nftIdentityResponse.nftIdentity.tokenId\r\n        );\r\n        _allNftGraduations.push(nftGraduation);\r\n        _posOfNftGraduationTokenId[tokenId] = _allNftGraduations.length;\r\n        _tokenIdOfStudent[nftIdentityResponse.nftIdentity.tokenId] = tokenId;\r\n\r\n        emit GrantNewNftGraduation(tokenId);\r\n    }\r\n\r\n    function _checkEnoughCredits(\r\n        uint256[] memory tokenIds,\r\n        uint256 studentTokenId\r\n    ) private view {\r\n        uint256 count = tokenIds.length;\r\n        KnowledgeBlock[] memory knowledgeBlocks = _school\r\n            .getAllKnowledgeBlocks();\r\n        uint256 knowledgeBlockCount = knowledgeBlocks.length;\r\n        uint256[] memory totalCredits = new uint256[](knowledgeBlockCount + 1);\r\n\r\n        for (uint256 idx; idx < count; ++idx) {\r\n            (NftCompleteCourse memory nftCompleteCourse, ) = _nftCompleteCourses\r\n                .getNftCompleteCourse(tokenIds[idx]);\r\n            require(\r\n                nftCompleteCourse.studentTokenId == studentTokenId,\r\n                \"NCR-ERR-04\"\r\n            );\r\n\r\n            totalCredits[\r\n                nftCompleteCourse.knowledgeBlockId\r\n            ] += nftCompleteCourse.credits;\r\n        }\r\n\r\n        // validate number of credits\r\n        for (uint256 idx; idx < knowledgeBlockCount; ++idx) {\r\n            require(\r\n                totalCredits[knowledgeBlocks[idx].id] >=\r\n                    knowledgeBlocks[idx].credits,\r\n                \"NG-ERR-02\"\r\n            );\r\n        }\r\n    }\r\n}\r\n",
  "sourcePath": "E:\\learn\\learn-to-earn\\blockchain\\contracts\\NftGraduation.sol",
  "compiler": {
    "name": "solc",
    "version": "0.8.13+commit.abaa5c0e.Emscripten.clang"
  },
  "schemaVersion": "3.4.13",
  "updatedAt": "2023-07-20T00:38:52.783Z",
  "networkType": "ethereum",
  "devdoc": {
    "kind": "dev",
    "methods": {
      "approve(address,uint256)": {
        "details": "See {IERC721-approve}."
      },
      "balanceOf(address)": {
        "details": "See {IERC721-balanceOf}."
      },
      "getApproved(uint256)": {
        "details": "See {IERC721-getApproved}."
      },
      "isApprovedForAll(address,address)": {
        "details": "See {IERC721-isApprovedForAll}."
      },
      "name()": {
        "details": "See {IERC721Metadata-name}."
      },
      "ownerOf(uint256)": {
        "details": "See {IERC721-ownerOf}."
      },
      "safeTransferFrom(address,address,uint256)": {
        "details": "See {IERC721-safeTransferFrom}."
      },
      "safeTransferFrom(address,address,uint256,bytes)": {
        "details": "See {IERC721-safeTransferFrom}."
      },
      "setApprovalForAll(address,bool)": {
        "details": "See {IERC721-setApprovalForAll}."
      },
      "supportsInterface(bytes4)": {
        "details": "See {IERC165-supportsInterface}."
      },
      "symbol()": {
        "details": "See {IERC721Metadata-symbol}."
      },
      "tokenURI(uint256)": {
        "details": "See {IERC721Metadata-tokenURI}."
      },
      "transferFrom(address,address,uint256)": {
        "details": "See {IERC721-transferFrom}."
      }
    },
    "version": 1
  },
  "userdoc": {
    "kind": "user",
    "methods": {},
    "version": 1
  }
}