{
  "contractName": "NftGraduation",
  "abi": [
    {
      "inputs": [
        {
          "internalType": "address",
          "name": "nftIdentities",
          "type": "address"
        },
        {
          "internalType": "address",
          "name": "school",
          "type": "address"
        },
        {
          "internalType": "address",
          "name": "nftCertificates",
          "type": "address"
        }
      ],
      "stateMutability": "nonpayable",
      "type": "constructor"
    },
    {
      "anonymous": false,
      "inputs": [
        {
          "indexed": true,
          "internalType": "address",
          "name": "owner",
          "type": "address"
        },
        {
          "indexed": true,
          "internalType": "address",
          "name": "approved",
          "type": "address"
        },
        {
          "indexed": true,
          "internalType": "uint256",
          "name": "tokenId",
          "type": "uint256"
        }
      ],
      "name": "Approval",
      "type": "event"
    },
    {
      "anonymous": false,
      "inputs": [
        {
          "indexed": true,
          "internalType": "address",
          "name": "owner",
          "type": "address"
        },
        {
          "indexed": true,
          "internalType": "address",
          "name": "operator",
          "type": "address"
        },
        {
          "indexed": false,
          "internalType": "bool",
          "name": "approved",
          "type": "bool"
        }
      ],
      "name": "ApprovalForAll",
      "type": "event"
    },
    {
      "anonymous": false,
      "inputs": [
        {
          "indexed": false,
          "internalType": "uint256",
          "name": "tokenId",
          "type": "uint256"
        }
      ],
      "name": "GrantNewNftGraduation",
      "type": "event"
    },
    {
      "anonymous": false,
      "inputs": [
        {
          "indexed": true,
          "internalType": "address",
          "name": "from",
          "type": "address"
        },
        {
          "indexed": true,
          "internalType": "address",
          "name": "to",
          "type": "address"
        },
        {
          "indexed": true,
          "internalType": "uint256",
          "name": "tokenId",
          "type": "uint256"
        }
      ],
      "name": "Transfer",
      "type": "event"
    },
    {
      "inputs": [
        {
          "internalType": "address",
          "name": "to",
          "type": "address"
        },
        {
          "internalType": "uint256",
          "name": "tokenId",
          "type": "uint256"
        }
      ],
      "name": "approve",
      "outputs": [],
      "stateMutability": "nonpayable",
      "type": "function"
    },
    {
      "inputs": [
        {
          "internalType": "address",
          "name": "owner",
          "type": "address"
        }
      ],
      "name": "balanceOf",
      "outputs": [
        {
          "internalType": "uint256",
          "name": "",
          "type": "uint256"
        }
      ],
      "stateMutability": "view",
      "type": "function",
      "constant": true
    },
    {
      "inputs": [
        {
          "internalType": "uint256",
          "name": "tokenId",
          "type": "uint256"
        }
      ],
      "name": "getApproved",
      "outputs": [
        {
          "internalType": "address",
          "name": "",
          "type": "address"
        }
      ],
      "stateMutability": "view",
      "type": "function",
      "constant": true
    },
    {
      "inputs": [
        {
          "internalType": "address",
          "name": "owner",
          "type": "address"
        },
        {
          "internalType": "address",
          "name": "operator",
          "type": "address"
        }
      ],
      "name": "isApprovedForAll",
      "outputs": [
        {
          "internalType": "bool",
          "name": "",
          "type": "bool"
        }
      ],
      "stateMutability": "view",
      "type": "function",
      "constant": true
    },
    {
      "inputs": [],
      "name": "name",
      "outputs": [
        {
          "internalType": "string",
          "name": "",
          "type": "string"
        }
      ],
      "stateMutability": "view",
      "type": "function",
      "constant": true
    },
    {
      "inputs": [
        {
          "internalType": "uint256",
          "name": "tokenId",
          "type": "uint256"
        }
      ],
      "name": "ownerOf",
      "outputs": [
        {
          "internalType": "address",
          "name": "",
          "type": "address"
        }
      ],
      "stateMutability": "view",
      "type": "function",
      "constant": true
    },
    {
      "inputs": [],
      "name": "requestGraduationCertificatePrice",
      "outputs": [
        {
          "internalType": "uint256",
          "name": "",
          "type": "uint256"
        }
      ],
      "stateMutability": "view",
      "type": "function",
      "constant": true
    },
    {
      "inputs": [
        {
          "internalType": "address",
          "name": "from",
          "type": "address"
        },
        {
          "internalType": "address",
          "name": "to",
          "type": "address"
        },
        {
          "internalType": "uint256",
          "name": "tokenId",
          "type": "uint256"
        }
      ],
      "name": "safeTransferFrom",
      "outputs": [],
      "stateMutability": "nonpayable",
      "type": "function"
    },
    {
      "inputs": [
        {
          "internalType": "address",
          "name": "from",
          "type": "address"
        },
        {
          "internalType": "address",
          "name": "to",
          "type": "address"
        },
        {
          "internalType": "uint256",
          "name": "tokenId",
          "type": "uint256"
        },
        {
          "internalType": "bytes",
          "name": "data",
          "type": "bytes"
        }
      ],
      "name": "safeTransferFrom",
      "outputs": [],
      "stateMutability": "nonpayable",
      "type": "function"
    },
    {
      "inputs": [
        {
          "internalType": "address",
          "name": "operator",
          "type": "address"
        },
        {
          "internalType": "bool",
          "name": "approved",
          "type": "bool"
        }
      ],
      "name": "setApprovalForAll",
      "outputs": [],
      "stateMutability": "nonpayable",
      "type": "function"
    },
    {
      "inputs": [
        {
          "internalType": "bytes4",
          "name": "interfaceId",
          "type": "bytes4"
        }
      ],
      "name": "supportsInterface",
      "outputs": [
        {
          "internalType": "bool",
          "name": "",
          "type": "bool"
        }
      ],
      "stateMutability": "view",
      "type": "function",
      "constant": true
    },
    {
      "inputs": [],
      "name": "symbol",
      "outputs": [
        {
          "internalType": "string",
          "name": "",
          "type": "string"
        }
      ],
      "stateMutability": "view",
      "type": "function",
      "constant": true
    },
    {
      "inputs": [
        {
          "internalType": "uint256",
          "name": "tokenId",
          "type": "uint256"
        }
      ],
      "name": "tokenURI",
      "outputs": [
        {
          "internalType": "string",
          "name": "",
          "type": "string"
        }
      ],
      "stateMutability": "view",
      "type": "function",
      "constant": true
    },
    {
      "inputs": [
        {
          "internalType": "address",
          "name": "from",
          "type": "address"
        },
        {
          "internalType": "address",
          "name": "to",
          "type": "address"
        },
        {
          "internalType": "uint256",
          "name": "tokenId",
          "type": "uint256"
        }
      ],
      "name": "transferFrom",
      "outputs": [],
      "stateMutability": "nonpayable",
      "type": "function"
    },
    {
      "inputs": [
        {
          "internalType": "uint256",
          "name": "studentTokenId",
          "type": "uint256"
        }
      ],
      "name": "getNftCompleteCourseForRequestGraduation",
      "outputs": [
        {
          "internalType": "uint256[]",
          "name": "",
          "type": "uint256[]"
        }
      ],
      "stateMutability": "view",
      "type": "function",
      "constant": true
    },
    {
      "inputs": [],
      "name": "getAllRequestGraduationStudents",
      "outputs": [
        {
          "internalType": "uint256[]",
          "name": "",
          "type": "uint256[]"
        }
      ],
      "stateMutability": "view",
      "type": "function",
      "constant": true
    },
    {
      "inputs": [
        {
          "internalType": "uint256",
          "name": "studentTokenId",
          "type": "uint256"
        }
      ],
      "name": "getRequestGraduationDetail",
      "outputs": [
        {
          "internalType": "uint256[]",
          "name": "",
          "type": "uint256[]"
        },
        {
          "internalType": "string",
          "name": "",
          "type": "string"
        }
      ],
      "stateMutability": "view",
      "type": "function",
      "constant": true
    },
    {
      "inputs": [
        {
          "internalType": "uint256",
          "name": "studentTokenId",
          "type": "uint256"
        }
      ],
      "name": "checkRequestInQueue",
      "outputs": [
        {
          "internalType": "bool",
          "name": "",
          "type": "bool"
        }
      ],
      "stateMutability": "view",
      "type": "function",
      "constant": true
    },
    {
      "inputs": [
        {
          "internalType": "uint256",
          "name": "studentTokenId",
          "type": "uint256"
        }
      ],
      "name": "getNftGraduation",
      "outputs": [
        {
          "components": [
            {
              "internalType": "uint256",
              "name": "tokenId",
              "type": "uint256"
            },
            {
              "internalType": "uint256",
              "name": "studentTokenId",
              "type": "uint256"
            }
          ],
          "internalType": "struct IConstant.NftGraduation",
          "name": "",
          "type": "tuple"
        }
      ],
      "stateMutability": "view",
      "type": "function",
      "constant": true
    },
    {
      "inputs": [],
      "name": "getOwnedNftGraduation",
      "outputs": [
        {
          "components": [
            {
              "internalType": "uint256",
              "name": "tokenId",
              "type": "uint256"
            },
            {
              "internalType": "uint256",
              "name": "studentTokenId",
              "type": "uint256"
            }
          ],
          "internalType": "struct IConstant.NftGraduation",
          "name": "",
          "type": "tuple"
        }
      ],
      "stateMutability": "view",
      "type": "function",
      "constant": true
    },
    {
      "inputs": [],
      "name": "getAllGraduations",
      "outputs": [
        {
          "components": [
            {
              "internalType": "uint256",
              "name": "tokenId",
              "type": "uint256"
            },
            {
              "internalType": "uint256",
              "name": "studentTokenId",
              "type": "uint256"
            }
          ],
          "internalType": "struct IConstant.NftGraduation[]",
          "name": "",
          "type": "tuple[]"
        }
      ],
      "stateMutability": "view",
      "type": "function",
      "constant": true
    },
    {
      "inputs": [
        {
          "internalType": "uint256",
          "name": "studentTokenId",
          "type": "uint256"
        },
        {
          "internalType": "string",
          "name": "tokenURI",
          "type": "string"
        }
      ],
      "name": "grantNftGraduation",
      "outputs": [],
      "stateMutability": "nonpayable",
      "type": "function"
    }
  ],
  "bytecode": "0x60806040526706f05b59d3b20000600a553480156200001d57600080fd5b5060405162003d3a38038062003d3a833981810160405281019062000043919062000329565b6040518060400160405280600d81526020017f4e667447726164756174696f6e000000000000000000000000000000000000008152506040518060400160405280600381526020017f4e4352000000000000000000000000000000000000000000000000000000000081525081818160009080519060200190620000c99291906200020f565b508060019080519060200190620000e29291906200020f565b50505033600760006101000a81548173ffffffffffffffffffffffffffffffffffffffff021916908373ffffffffffffffffffffffffffffffffffffffff16021790555050506000600d60146101000a81548160ff02191690831515021790555082600c60006101000a81548173ffffffffffffffffffffffffffffffffffffffff021916908373ffffffffffffffffffffffffffffffffffffffff16021790555081600b60006101000a81548173ffffffffffffffffffffffffffffffffffffffff021916908373ffffffffffffffffffffffffffffffffffffffff16021790555080600d60006101000a81548173ffffffffffffffffffffffffffffffffffffffff021916908373ffffffffffffffffffffffffffffffffffffffff160217905550505050620003e9565b8280546200021d90620003b4565b90600052602060002090601f0160209004810192826200024157600085556200028d565b82601f106200025c57805160ff19168380011785556200028d565b828001600101855582156200028d579182015b828111156200028c5782518255916020019190600101906200026f565b5b5090506200029c9190620002a0565b5090565b5b80821115620002bb576000816000905550600101620002a1565b5090565b600080fd5b600073ffffffffffffffffffffffffffffffffffffffff82169050919050565b6000620002f182620002c4565b9050919050565b6200030381620002e4565b81146200030f57600080fd5b50565b6000815190506200032381620002f8565b92915050565b600080600060608486031215620003455762000344620002bf565b5b6000620003558682870162000312565b9350506020620003688682870162000312565b92505060406200037b8682870162000312565b9150509250925092565b7f4e487b7100000000000000000000000000000000000000000000000000000000600052602260045260246000fd5b60006002820490506001821680620003cd57607f821691505b602082108103620003e357620003e262000385565b5b50919050565b61394180620003f96000396000f3fe608060405234801561001057600080fd5b50600436106101425760003560e01c806370a08231116100b8578063c000fb081161007c578063c000fb0814610375578063c87b56dd146103a5578063cdeb9180146103d5578063ce2870a5146103f3578063e985e9c514610424578063ec7d2f751461045457610142565b806370a08231146102d157806395d89b4114610301578063a22cb4651461031f578063b12a61151461033b578063b88d4fde1461035957610142565b80631fc860e91161010a5780631fc860e9146101ff57806323b872dd1461022f5780633a9b56621461024b57806342842e0e1461026957806359f2e641146102855780636352211e146102a157610142565b806301ffc9a71461014757806306fdde0314610177578063081812fc14610195578063095ea7b3146101c55780630bd7ac14146101e1575b600080fd5b610161600480360381019061015c91906125a9565b610484565b60405161016e91906125f1565b60405180910390f35b61017f610566565b60405161018c91906126a5565b60405180910390f35b6101af60048036038101906101aa91906126fd565b6105f8565b6040516101bc919061276b565b60405180910390f35b6101df60048036038101906101da91906127b2565b61063e565b005b6101e9610755565b6040516101f691906128b0565b60405180910390f35b610219600480360381019061021491906126fd565b610807565b60405161022691906125f1565b60405180910390f35b610249600480360381019061024491906128d2565b610826565b005b610253610886565b6040516102609190612a03565b60405180910390f35b610283600480360381019061027e91906128d2565b610953565b005b61029f600480360381019061029a9190612b5a565b610973565b005b6102bb60048036038101906102b691906126fd565b610d85565b6040516102c8919061276b565b60405180910390f35b6102eb60048036038101906102e69190612bb6565b610e0b565b6040516102f89190612bf2565b60405180910390f35b610309610ec2565b60405161031691906126a5565b60405180910390f35b61033960048036038101906103349190612c39565b610f54565b005b610343610f6a565b6040516103509190612ca8565b60405180910390f35b610373600480360381019061036e9190612d64565b6110b9565b005b61038f600480360381019061038a91906126fd565b61111b565b60405161039c91906128b0565b60405180910390f35b6103bf60048036038101906103ba91906126fd565b611186565b6040516103cc91906126a5565b60405180910390f35b6103dd611298565b6040516103ea9190612bf2565b60405180910390f35b61040d600480360381019061040891906126fd565b61129e565b60405161041b929190612de7565b60405180910390f35b61043e60048036038101906104399190612e1e565b6113ae565b60405161044b91906125f1565b60405180910390f35b61046e600480360381019061046991906126fd565b611442565b60405161047b9190612ca8565b60405180910390f35b60007f80ac58cd000000000000000000000000000000000000000000000000000000007bffffffffffffffffffffffffffffffffffffffffffffffffffffffff1916827bffffffffffffffffffffffffffffffffffffffffffffffffffffffff1916148061054f57507f5b5e139f000000000000000000000000000000000000000000000000000000007bffffffffffffffffffffffffffffffffffffffffffffffffffffffff1916827bffffffffffffffffffffffffffffffffffffffffffffffffffffffff1916145b8061055f575061055e826114dd565b5b9050919050565b60606000805461057590612e8d565b80601f01602080910402602001604051908101604052809291908181526020018280546105a190612e8d565b80156105ee5780601f106105c3576101008083540402835291602001916105ee565b820191906000526020600020905b8154815290600101906020018083116105d157829003601f168201915b5050505050905090565b600061060382611547565b6004600083815260200190815260200160002060009054906101000a900473ffffffffffffffffffffffffffffffffffffffff169050919050565b600061064982610d85565b90508073ffffffffffffffffffffffffffffffffffffffff168373ffffffffffffffffffffffffffffffffffffffff16036106b9576040517f08c379a00000000000000000000000000000000000000000000000000000000081526004016106b090612f30565b60405180910390fd5b8073ffffffffffffffffffffffffffffffffffffffff166106d8611592565b73ffffffffffffffffffffffffffffffffffffffff161480610707575061070681610701611592565b6113ae565b5b610746576040517f08c379a000000000000000000000000000000000000000000000000000000000815260040161073d90612fc2565b60405180910390fd5b610750838361159a565b505050565b60603373ffffffffffffffffffffffffffffffffffffffff16600760009054906101000a900473ffffffffffffffffffffffffffffffffffffffff1673ffffffffffffffffffffffffffffffffffffffff16146107b157600080fd5b600e8054806020026020016040519081016040528092919081815260200182805480156107fd57602002820191906000526020600020905b8154815260200190600101908083116107e9575b5050505050905090565b600080600f600084815260200190815260200160002054119050919050565b610837610831611592565b82611653565b610876576040517f08c379a000000000000000000000000000000000000000000000000000000000815260040161086d90613054565b60405180910390fd5b6108818383836116e8565b505050565b60603373ffffffffffffffffffffffffffffffffffffffff16600760009054906101000a900473ffffffffffffffffffffffffffffffffffffffff1673ffffffffffffffffffffffffffffffffffffffff16146108e257600080fd5b6015805480602002602001604051908101604052809291908181526020016000905b8282101561094a57838290600052602060002090600202016040518060400160405290816000820154815260200160018201548152505081526020019060010190610904565b50505050905090565b61096e838383604051806020016040528060008152506110b9565b505050565b3373ffffffffffffffffffffffffffffffffffffffff16600760009054906101000a900473ffffffffffffffffffffffffffffffffffffffff1673ffffffffffffffffffffffffffffffffffffffff16146109cd57600080fd5b6000600f60008481526020019081526020016000205411610a23576040517f08c379a0000000000000000000000000000000000000000000000000000000008152600401610a1a906130e6565b60405180910390fd5b600060106000848152602001908152602001600020805480602002602001604051908101604052809291908181526020018280548015610a8257602002820191906000526020600020905b815481526020019060010190808311610a6e575b50505050509050600d60009054906101000a900473ffffffffffffffffffffffffffffffffffffffff1673ffffffffffffffffffffffffffffffffffffffff166359619d31826040518263ffffffff1660e01b8152600401610ae491906128b0565b602060405180830381865afa158015610b01573d6000803e3d6000fd5b505050506040513d601f19601f82011682018060405250810190610b25919061311b565b610b64576040517f08c379a0000000000000000000000000000000000000000000000000000000008152600401610b5b90613194565b60405180910390fd5b6000610b7033846119e1565b9050600060405180604001604052808381526020018681525090506015819080600181540180825580915050600190039060005260206000209060020201600090919091909150600082015181600001556020820151816001015550506015805490506016600084815260200190815260200160002081905550816017600087815260200190815260200160002081905550601060008681526020019081526020016000206000610c21919061241f565b601160008681526020019081526020016000206000610c409190612440565b6000600f60008781526020019081526020016000205490506000600e80549050905080821015610d0657600e600182610c7991906131e3565b81548110610c8a57610c89613217565b5b9060005260206000200154600e600184610ca491906131e3565b81548110610cb557610cb4613217565b5b906000526020600020018190555081600f6000600e600185610cd791906131e3565b81548110610ce857610ce7613217565b5b90600052602060002001548152602001908152602001600020819055505b600e805480610d1857610d17613246565b5b60019003818190600052602060002001600090559055600f6000888152602001908152602001600020600090557facb3849a125f4bedb6599365b4242ab6d2cdc08aca6d7cd4cfe34708c680f62384604051610d749190612bf2565b60405180910390a150505050505050565b600080610d9183611a52565b9050600073ffffffffffffffffffffffffffffffffffffffff168173ffffffffffffffffffffffffffffffffffffffff1603610e02576040517f08c379a0000000000000000000000000000000000000000000000000000000008152600401610df9906132c1565b60405180910390fd5b80915050919050565b60008073ffffffffffffffffffffffffffffffffffffffff168273ffffffffffffffffffffffffffffffffffffffff1603610e7b576040517f08c379a0000000000000000000000000000000000000000000000000000000008152600401610e7290613353565b60405180910390fd5b600360008373ffffffffffffffffffffffffffffffffffffffff1673ffffffffffffffffffffffffffffffffffffffff168152602001908152602001600020549050919050565b606060018054610ed190612e8d565b80601f0160208091040260200160405190810160405280929190818152602001828054610efd90612e8d565b8015610f4a5780601f10610f1f57610100808354040283529160200191610f4a565b820191906000526020600020905b815481529060010190602001808311610f2d57829003601f168201915b5050505050905090565b610f66610f5f611592565b8383611a8f565b5050565b610f72612480565b6000600c60009054906101000a900473ffffffffffffffffffffffffffffffffffffffff1673ffffffffffffffffffffffffffffffffffffffff1663443ebca73360006001811115610fc757610fc6613373565b5b6040518363ffffffff1660e01b8152600401610fe49291906133a2565b602060405180830381865afa158015611001573d6000803e3d6000fd5b505050506040513d601f19601f8201168201806040525081019061102591906133e0565b90506000601760008381526020019081526020016000205490506000811161104c57600080fd5b600060166000838152602001908152602001600020549050601560018261107391906131e3565b8154811061108457611083613217565b5b906000526020600020906002020160405180604001604052908160008201548152602001600182015481525050935050505090565b6110ca6110c4611592565b83611653565b611109576040517f08c379a000000000000000000000000000000000000000000000000000000000815260040161110090613054565b60405180910390fd5b61111584848484611bfb565b50505050565b60606010600083815260200190815260200160002080548060200260200160405190810160405280929190818152602001828054801561117a57602002820191906000526020600020905b815481526020019060010190808311611166575b50505050509050919050565b606061119182611547565b60006006600084815260200190815260200160002080546111b190612e8d565b80601f01602080910402602001604051908101604052809291908181526020018280546111dd90612e8d565b801561122a5780601f106111ff5761010080835404028352916020019161122a565b820191906000526020600020905b81548152906001019060200180831161120d57829003601f168201915b50505050509050600061123b611c57565b90506000815103611250578192505050611293565b60008251111561128557808260405160200161126d929190613449565b60405160208183030381529060405292505050611293565b61128e84611c6e565b925050505b919050565b600a5481565b60608060106000848152602001908152602001600020601160008581526020019081526020016000208180548060200260200160405190810160405280929190818152602001828054801561131257602002820191906000526020600020905b8154815260200190600101908083116112fe575b5050505050915080805461132590612e8d565b80601f016020809104026020016040519081016040528092919081815260200182805461135190612e8d565b801561139e5780601f106113735761010080835404028352916020019161139e565b820191906000526020600020905b81548152906001019060200180831161138157829003601f168201915b5050505050905091509150915091565b6000600560008473ffffffffffffffffffffffffffffffffffffffff1673ffffffffffffffffffffffffffffffffffffffff16815260200190815260200160002060008373ffffffffffffffffffffffffffffffffffffffff1673ffffffffffffffffffffffffffffffffffffffff16815260200190815260200160002060009054906101000a900460ff16905092915050565b61144a612480565b6000601760008481526020019081526020016000205490506000811161146f57600080fd5b600060166000838152602001908152602001600020549050601560018261149691906131e3565b815481106114a7576114a6613217565b5b90600052602060002090600202016040518060400160405290816000820154815260200160018201548152505092505050919050565b60007f01ffc9a7000000000000000000000000000000000000000000000000000000007bffffffffffffffffffffffffffffffffffffffffffffffffffffffff1916827bffffffffffffffffffffffffffffffffffffffffffffffffffffffff1916149050919050565b61155081611cd6565b61158f576040517f08c379a0000000000000000000000000000000000000000000000000000000008152600401611586906132c1565b60405180910390fd5b50565b600033905090565b816004600083815260200190815260200160002060006101000a81548173ffffffffffffffffffffffffffffffffffffffff021916908373ffffffffffffffffffffffffffffffffffffffff160217905550808273ffffffffffffffffffffffffffffffffffffffff1661160d83610d85565b73ffffffffffffffffffffffffffffffffffffffff167f8c5be1e5ebec7d5bd14f71427d1e84f3dd0314c0f7b2291e5b200ac8c7c3b92560405160405180910390a45050565b60008061165f83610d85565b90508073ffffffffffffffffffffffffffffffffffffffff168473ffffffffffffffffffffffffffffffffffffffff1614806116a157506116a081856113ae565b5b806116df57508373ffffffffffffffffffffffffffffffffffffffff166116c7846105f8565b73ffffffffffffffffffffffffffffffffffffffff16145b91505092915050565b8273ffffffffffffffffffffffffffffffffffffffff1661170882610d85565b73ffffffffffffffffffffffffffffffffffffffff161461175e576040517f08c379a0000000000000000000000000000000000000000000000000000000008152600401611755906134df565b60405180910390fd5b600073ffffffffffffffffffffffffffffffffffffffff168273ffffffffffffffffffffffffffffffffffffffff16036117cd576040517f08c379a00000000000000000000000000000000000000000000000000000000081526004016117c490613571565b60405180910390fd5b6117da8383836001611d17565b8273ffffffffffffffffffffffffffffffffffffffff166117fa82610d85565b73ffffffffffffffffffffffffffffffffffffffff1614611850576040517f08c379a0000000000000000000000000000000000000000000000000000000008152600401611847906134df565b60405180910390fd5b6004600082815260200190815260200160002060006101000a81549073ffffffffffffffffffffffffffffffffffffffff02191690556001600360008573ffffffffffffffffffffffffffffffffffffffff1673ffffffffffffffffffffffffffffffffffffffff168152602001908152602001600020600082825403925050819055506001600360008473ffffffffffffffffffffffffffffffffffffffff1673ffffffffffffffffffffffffffffffffffffffff16815260200190815260200160002060008282540192505081905550816002600083815260200190815260200160002060006101000a81548173ffffffffffffffffffffffffffffffffffffffff021916908373ffffffffffffffffffffffffffffffffffffffff160217905550808273ffffffffffffffffffffffffffffffffffffffff168473ffffffffffffffffffffffffffffffffffffffff167fddf252ad1be2c89b69c2b068fc378daa952ba7f163c4a11628f55a4df523b3ef60405160405180910390a46119dc8383836001611d1d565b505050565b6000806119ec611d23565b9050611a3e84826000368080601f016020809104026020016040519081016040528093929190818152602001838380828437600081840152601f19601f82011690508083019250505050505050611d44565b611a488184611d9f565b8091505092915050565b60006002600083815260200190815260200160002060009054906101000a900473ffffffffffffffffffffffffffffffffffffffff169050919050565b8173ffffffffffffffffffffffffffffffffffffffff168373ffffffffffffffffffffffffffffffffffffffff1603611afd576040517f08c379a0000000000000000000000000000000000000000000000000000000008152600401611af4906135dd565b60405180910390fd5b80600560008573ffffffffffffffffffffffffffffffffffffffff1673ffffffffffffffffffffffffffffffffffffffff16815260200190815260200160002060008473ffffffffffffffffffffffffffffffffffffffff1673ffffffffffffffffffffffffffffffffffffffff16815260200190815260200160002060006101000a81548160ff0219169083151502179055508173ffffffffffffffffffffffffffffffffffffffff168373ffffffffffffffffffffffffffffffffffffffff167f17307eab39ab6107e8899845ad3d59bd9653f200f220920489ca2b5937696c3183604051611bee91906125f1565b60405180910390a3505050565b611c068484846116e8565b611c1284848484611e13565b611c51576040517f08c379a0000000000000000000000000000000000000000000000000000000008152600401611c489061366f565b60405180910390fd5b50505050565b606060405180602001604052806000815250905090565b6060611c7982611547565b6000611c83611c57565b90506000815111611ca35760405180602001604052806000815250611cce565b80611cad84611f9a565b604051602001611cbe929190613449565b6040516020818303038152906040525b915050919050565b60008073ffffffffffffffffffffffffffffffffffffffff16611cf883611a52565b73ffffffffffffffffffffffffffffffffffffffff1614159050919050565b50505050565b50505050565b6000611d2f6008612068565b6000611d3b600861207e565b90508091505090565b611d4e838361208c565b611d5b6000848484611e13565b611d9a576040517f08c379a0000000000000000000000000000000000000000000000000000000008152600401611d919061366f565b60405180910390fd5b505050565b611da882611cd6565b611de7576040517f08c379a0000000000000000000000000000000000000000000000000000000008152600401611dde90613701565b60405180910390fd5b80600660008481526020019081526020016000209080519060200190611e0e92919061249a565b505050565b6000611e348473ffffffffffffffffffffffffffffffffffffffff166122a9565b15611f8d578373ffffffffffffffffffffffffffffffffffffffff1663150b7a02611e5d611592565b8786866040518563ffffffff1660e01b8152600401611e7f9493929190613776565b6020604051808303816000875af1925050508015611ebb57506040513d601f19601f82011682018060405250810190611eb891906137d7565b60015b611f3d573d8060008114611eeb576040519150601f19603f3d011682016040523d82523d6000602084013e611ef0565b606091505b506000815103611f35576040517f08c379a0000000000000000000000000000000000000000000000000000000008152600401611f2c9061366f565b60405180910390fd5b805181602001fd5b63150b7a0260e01b7bffffffffffffffffffffffffffffffffffffffffffffffffffffffff1916817bffffffffffffffffffffffffffffffffffffffffffffffffffffffff191614915050611f92565b600190505b949350505050565b606060006001611fa9846122cc565b01905060008167ffffffffffffffff811115611fc857611fc7612a2f565b5b6040519080825280601f01601f191660200182016040528015611ffa5781602001600182028036833780820191505090505b509050600082602001820190505b60011561205d578080600190039150507f3031323334353637383961626364656600000000000000000000000000000000600a86061a8153600a858161205157612050613804565b5b04945060008503612008575b819350505050919050565b6001816000016000828254019250508190555050565b600081600001549050919050565b600073ffffffffffffffffffffffffffffffffffffffff168273ffffffffffffffffffffffffffffffffffffffff16036120fb576040517f08c379a00000000000000000000000000000000000000000000000000000000081526004016120f29061387f565b60405180910390fd5b61210481611cd6565b15612144576040517f08c379a000000000000000000000000000000000000000000000000000000000815260040161213b906138eb565b60405180910390fd5b612152600083836001611d17565b61215b81611cd6565b1561219b576040517f08c379a0000000000000000000000000000000000000000000000000000000008152600401612192906138eb565b60405180910390fd5b6001600360008473ffffffffffffffffffffffffffffffffffffffff1673ffffffffffffffffffffffffffffffffffffffff16815260200190815260200160002060008282540192505081905550816002600083815260200190815260200160002060006101000a81548173ffffffffffffffffffffffffffffffffffffffff021916908373ffffffffffffffffffffffffffffffffffffffff160217905550808273ffffffffffffffffffffffffffffffffffffffff16600073ffffffffffffffffffffffffffffffffffffffff167fddf252ad1be2c89b69c2b068fc378daa952ba7f163c4a11628f55a4df523b3ef60405160405180910390a46122a5600083836001611d1d565b5050565b6000808273ffffffffffffffffffffffffffffffffffffffff163b119050919050565b600080600090507a184f03e93ff9f4daa797ed6e38ed64bf6a1f010000000000000000831061232a577a184f03e93ff9f4daa797ed6e38ed64bf6a1f01000000000000000083816123205761231f613804565b5b0492506040810190505b6d04ee2d6d415b85acef81000000008310612367576d04ee2d6d415b85acef8100000000838161235d5761235c613804565b5b0492506020810190505b662386f26fc10000831061239657662386f26fc10000838161238c5761238b613804565b5b0492506010810190505b6305f5e10083106123bf576305f5e10083816123b5576123b4613804565b5b0492506008810190505b61271083106123e45761271083816123da576123d9613804565b5b0492506004810190505b6064831061240757606483816123fd576123fc613804565b5b0492506002810190505b600a8310612416576001810190505b80915050919050565b508054600082559060005260206000209081019061243d9190612520565b50565b50805461244c90612e8d565b6000825580601f1061245e575061247d565b601f01602090049060005260206000209081019061247c9190612520565b5b50565b604051806040016040528060008152602001600081525090565b8280546124a690612e8d565b90600052602060002090601f0160209004810192826124c8576000855561250f565b82601f106124e157805160ff191683800117855561250f565b8280016001018555821561250f579182015b8281111561250e5782518255916020019190600101906124f3565b5b50905061251c9190612520565b5090565b5b80821115612539576000816000905550600101612521565b5090565b6000604051905090565b600080fd5b600080fd5b60007fffffffff0000000000000000000000000000000000000000000000000000000082169050919050565b61258681612551565b811461259157600080fd5b50565b6000813590506125a38161257d565b92915050565b6000602082840312156125bf576125be612547565b5b60006125cd84828501612594565b91505092915050565b60008115159050919050565b6125eb816125d6565b82525050565b600060208201905061260660008301846125e2565b92915050565b600081519050919050565b600082825260208201905092915050565b60005b8381101561264657808201518184015260208101905061262b565b83811115612655576000848401525b50505050565b6000601f19601f8301169050919050565b60006126778261260c565b6126818185612617565b9350612691818560208601612628565b61269a8161265b565b840191505092915050565b600060208201905081810360008301526126bf818461266c565b905092915050565b6000819050919050565b6126da816126c7565b81146126e557600080fd5b50565b6000813590506126f7816126d1565b92915050565b60006020828403121561271357612712612547565b5b6000612721848285016126e8565b91505092915050565b600073ffffffffffffffffffffffffffffffffffffffff82169050919050565b60006127558261272a565b9050919050565b6127658161274a565b82525050565b6000602082019050612780600083018461275c565b92915050565b61278f8161274a565b811461279a57600080fd5b50565b6000813590506127ac81612786565b92915050565b600080604083850312156127c9576127c8612547565b5b60006127d78582860161279d565b92505060206127e8858286016126e8565b9150509250929050565b600081519050919050565b600082825260208201905092915050565b6000819050602082019050919050565b612827816126c7565b82525050565b6000612839838361281e565b60208301905092915050565b6000602082019050919050565b600061285d826127f2565b61286781856127fd565b93506128728361280e565b8060005b838110156128a357815161288a888261282d565b975061289583612845565b925050600181019050612876565b5085935050505092915050565b600060208201905081810360008301526128ca8184612852565b905092915050565b6000806000606084860312156128eb576128ea612547565b5b60006128f98682870161279d565b935050602061290a8682870161279d565b925050604061291b868287016126e8565b9150509250925092565b600081519050919050565b600082825260208201905092915050565b6000819050602082019050919050565b604082016000820151612967600085018261281e565b50602082015161297a602085018261281e565b50505050565b600061298c8383612951565b60408301905092915050565b6000602082019050919050565b60006129b082612925565b6129ba8185612930565b93506129c583612941565b8060005b838110156129f65781516129dd8882612980565b97506129e883612998565b9250506001810190506129c9565b5085935050505092915050565b60006020820190508181036000830152612a1d81846129a5565b905092915050565b600080fd5b600080fd5b7f4e487b7100000000000000000000000000000000000000000000000000000000600052604160045260246000fd5b612a678261265b565b810181811067ffffffffffffffff82111715612a8657612a85612a2f565b5b80604052505050565b6000612a9961253d565b9050612aa58282612a5e565b919050565b600067ffffffffffffffff821115612ac557612ac4612a2f565b5b612ace8261265b565b9050602081019050919050565b82818337600083830152505050565b6000612afd612af884612aaa565b612a8f565b905082815260208101848484011115612b1957612b18612a2a565b5b612b24848285612adb565b509392505050565b600082601f830112612b4157612b40612a25565b5b8135612b51848260208601612aea565b91505092915050565b60008060408385031215612b7157612b70612547565b5b6000612b7f858286016126e8565b925050602083013567ffffffffffffffff811115612ba057612b9f61254c565b5b612bac85828601612b2c565b9150509250929050565b600060208284031215612bcc57612bcb612547565b5b6000612bda8482850161279d565b91505092915050565b612bec816126c7565b82525050565b6000602082019050612c076000830184612be3565b92915050565b612c16816125d6565b8114612c2157600080fd5b50565b600081359050612c3381612c0d565b92915050565b60008060408385031215612c5057612c4f612547565b5b6000612c5e8582860161279d565b9250506020612c6f85828601612c24565b9150509250929050565b604082016000820151612c8f600085018261281e565b506020820151612ca2602085018261281e565b50505050565b6000604082019050612cbd6000830184612c79565b92915050565b600067ffffffffffffffff821115612cde57612cdd612a2f565b5b612ce78261265b565b9050602081019050919050565b6000612d07612d0284612cc3565b612a8f565b905082815260208101848484011115612d2357612d22612a2a565b5b612d2e848285612adb565b509392505050565b600082601f830112612d4b57612d4a612a25565b5b8135612d5b848260208601612cf4565b91505092915050565b60008060008060808587031215612d7e57612d7d612547565b5b6000612d8c8782880161279d565b9450506020612d9d8782880161279d565b9350506040612dae878288016126e8565b925050606085013567ffffffffffffffff811115612dcf57612dce61254c565b5b612ddb87828801612d36565b91505092959194509250565b60006040820190508181036000830152612e018185612852565b90508181036020830152612e15818461266c565b90509392505050565b60008060408385031215612e3557612e34612547565b5b6000612e438582860161279d565b9250506020612e548582860161279d565b9150509250929050565b7f4e487b7100000000000000000000000000000000000000000000000000000000600052602260045260246000fd5b60006002820490506001821680612ea557607f821691505b602082108103612eb857612eb7612e5e565b5b50919050565b7f4552433732313a20617070726f76616c20746f2063757272656e74206f776e6560008201527f7200000000000000000000000000000000000000000000000000000000000000602082015250565b6000612f1a602183612617565b9150612f2582612ebe565b604082019050919050565b60006020820190508181036000830152612f4981612f0d565b9050919050565b7f4552433732313a20617070726f76652063616c6c6572206973206e6f7420746f60008201527f6b656e206f776e6572206f7220617070726f76656420666f7220616c6c000000602082015250565b6000612fac603d83612617565b9150612fb782612f50565b604082019050919050565b60006020820190508181036000830152612fdb81612f9f565b9050919050565b7f4552433732313a2063616c6c6572206973206e6f7420746f6b656e206f776e6560008201527f72206f7220617070726f76656400000000000000000000000000000000000000602082015250565b600061303e602d83612617565b915061304982612fe2565b604082019050919050565b6000602082019050818103600083015261306d81613031565b9050919050565b7f53747564656e74206469646e277420726571756573742067726164756174696f60008201527f6e20636572746966696361746500000000000000000000000000000000000000602082015250565b60006130d0602d83612617565b91506130db82613074565b604082019050919050565b600060208201905081810360008301526130ff816130c3565b9050919050565b60008151905061311581612c0d565b92915050565b60006020828403121561313157613130612547565b5b600061313f84828501613106565b91505092915050565b7f4e6f742072656761696e65640000000000000000000000000000000000000000600082015250565b600061317e600c83612617565b915061318982613148565b602082019050919050565b600060208201905081810360008301526131ad81613171565b9050919050565b7f4e487b7100000000000000000000000000000000000000000000000000000000600052601160045260246000fd5b60006131ee826126c7565b91506131f9836126c7565b92508282101561320c5761320b6131b4565b5b828203905092915050565b7f4e487b7100000000000000000000000000000000000000000000000000000000600052603260045260246000fd5b7f4e487b7100000000000000000000000000000000000000000000000000000000600052603160045260246000fd5b7f4552433732313a20696e76616c696420746f6b656e2049440000000000000000600082015250565b60006132ab601883612617565b91506132b682613275565b602082019050919050565b600060208201905081810360008301526132da8161329e565b9050919050565b7f4552433732313a2061646472657373207a65726f206973206e6f74206120766160008201527f6c6964206f776e65720000000000000000000000000000000000000000000000602082015250565b600061333d602983612617565b9150613348826132e1565b604082019050919050565b6000602082019050818103600083015261336c81613330565b9050919050565b7f4e487b7100000000000000000000000000000000000000000000000000000000600052602160045260246000fd5b60006040820190506133b7600083018561275c565b6133c46020830184612be3565b9392505050565b6000815190506133da816126d1565b92915050565b6000602082840312156133f6576133f5612547565b5b6000613404848285016133cb565b91505092915050565b600081905092915050565b60006134238261260c565b61342d818561340d565b935061343d818560208601612628565b80840191505092915050565b60006134558285613418565b91506134618284613418565b91508190509392505050565b7f4552433732313a207472616e736665722066726f6d20696e636f72726563742060008201527f6f776e6572000000000000000000000000000000000000000000000000000000602082015250565b60006134c9602583612617565b91506134d48261346d565b604082019050919050565b600060208201905081810360008301526134f8816134bc565b9050919050565b7f4552433732313a207472616e7366657220746f20746865207a65726f2061646460008201527f7265737300000000000000000000000000000000000000000000000000000000602082015250565b600061355b602483612617565b9150613566826134ff565b604082019050919050565b6000602082019050818103600083015261358a8161354e565b9050919050565b7f4552433732313a20617070726f766520746f2063616c6c657200000000000000600082015250565b60006135c7601983612617565b91506135d282613591565b602082019050919050565b600060208201905081810360008301526135f6816135ba565b9050919050565b7f4552433732313a207472616e7366657220746f206e6f6e20455243373231526560008201527f63656976657220696d706c656d656e7465720000000000000000000000000000602082015250565b6000613659603283612617565b9150613664826135fd565b604082019050919050565b600060208201905081810360008301526136888161364c565b9050919050565b7f45524337323155524953746f726167653a2055524920736574206f66206e6f6e60008201527f6578697374656e7420746f6b656e000000000000000000000000000000000000602082015250565b60006136eb602e83612617565b91506136f68261368f565b604082019050919050565b6000602082019050818103600083015261371a816136de565b9050919050565b600081519050919050565b600082825260208201905092915050565b600061374882613721565b613752818561372c565b9350613762818560208601612628565b61376b8161265b565b840191505092915050565b600060808201905061378b600083018761275c565b613798602083018661275c565b6137a56040830185612be3565b81810360608301526137b7818461373d565b905095945050505050565b6000815190506137d18161257d565b92915050565b6000602082840312156137ed576137ec612547565b5b60006137fb848285016137c2565b91505092915050565b7f4e487b7100000000000000000000000000000000000000000000000000000000600052601260045260246000fd5b7f4552433732313a206d696e7420746f20746865207a65726f2061646472657373600082015250565b6000613869602083612617565b915061387482613833565b602082019050919050565b600060208201905081810360008301526138988161385c565b9050919050565b7f4552433732313a20746f6b656e20616c7265616479206d696e74656400000000600082015250565b60006138d5601c83612617565b91506138e08261389f565b602082019050919050565b60006020820190508181036000830152613904816138c8565b905091905056fea264697066735822122006ac3a29f41dc1663f89be1d6cc6605ca5dc4fe965ca0c1fc24c0fadb23328a764736f6c634300080d0033",
  "immutableReferences": {},
  "source": "// SPDX-License-Identifier: MIT\r\n// Tells the Solidity compiler to compile only from v0.8.13 to v0.9.0\r\npragma solidity ^0.8.13;\r\n\r\nimport \"./base/ERC721BaseContract.sol\";\r\nimport \"./interfaces/INftGraduation.sol\";\r\nimport \"./interfaces/INftIdentities.sol\";\r\nimport \"./interfaces/INftCompleteCourses.sol\";\r\nimport \"./interfaces/ISchool.sol\";\r\n\r\ncontract NftGraduation is ERC721BaseContract, INftGraduation {\r\n    uint256 public requestGraduationCertificatePrice = 0.5 ether;\r\n\r\n    ISchool private _school;\r\n    INftIdentities private _nftIdentities;\r\n    INftCompleteCourses private _nftCompleteCourses;\r\n\r\n    bool private _isInitialize;\r\n\r\n    uint256[] private _requestGraduationQueue;\r\n    mapping(uint256 => uint256) private _posOfRequestInQueue;\r\n    mapping(uint256 => uint256[]) private _requestGraduationCompleteCourseIds;\r\n    mapping(uint256 => string) private _requestGraduationURI;\r\n    mapping(uint256 => uint256) private _posOfRequestGraduationCompleteCourseId;\r\n    mapping(uint256 => mapping(uint256 => uint256))\r\n        private _posOfCompleteCourseInRequest;\r\n    mapping(uint256 => mapping(uint256 => uint256))\r\n        private totalAcquiredCreditsOfStudent;\r\n\r\n    NftGraduation[] private _allNftGraduations;\r\n    mapping(uint256 => uint256) private _posOfNftGraduationTokenId;\r\n    mapping(uint256 => uint256) private _tokenIdOfStudent;\r\n\r\n    event GrantNewNftGraduation(uint256 tokenId);\r\n\r\n    modifier onlyOwner() {\r\n        require(_owner == msg.sender);\r\n        _;\r\n    }\r\n\r\n    constructor(\r\n        address nftIdentities,\r\n        address school,\r\n        address nftCertificates\r\n    ) ERC721BaseContract(\"NftGraduation\", \"NCR\") {\r\n        _isInitialize = false;\r\n        _nftIdentities = INftIdentities(nftIdentities);\r\n        _school = ISchool(school);\r\n        _nftCompleteCourses = INftCompleteCourses(nftCertificates);\r\n    }\r\n\r\n    function getNftCompleteCourseForRequestGraduation(\r\n        uint256 studentTokenId\r\n    ) public view returns (uint256[] memory) {\r\n        return _requestGraduationCompleteCourseIds[studentTokenId];\r\n    }\r\n\r\n    function getAllRequestGraduationStudents()\r\n        public\r\n        view\r\n        onlyOwner\r\n        returns (uint256[] memory)\r\n    {\r\n        return _requestGraduationQueue;\r\n    }\r\n\r\n    function getRequestGraduationDetail(\r\n        uint256 studentTokenId\r\n    ) public view returns (uint256[] memory, string memory) {\r\n        return (\r\n            _requestGraduationCompleteCourseIds[studentTokenId],\r\n            _requestGraduationURI[studentTokenId]\r\n        );\r\n    }\r\n\r\n    function checkRequestInQueue(\r\n        uint256 studentTokenId\r\n    ) public view returns (bool) {\r\n        return _posOfRequestInQueue[studentTokenId] > 0;\r\n    }\r\n\r\n    function getNftGraduation(\r\n        uint256 studentTokenId\r\n    ) public view returns (NftGraduation memory) {\r\n        uint256 tokenId = _tokenIdOfStudent[studentTokenId];\r\n        require(tokenId > 0);\r\n        uint256 pos = _posOfNftGraduationTokenId[tokenId];\r\n\r\n        return _allNftGraduations[pos - 1];\r\n    }\r\n\r\n    function getOwnedNftGraduation()\r\n        public\r\n        view\r\n        returns (NftGraduation memory)\r\n    {\r\n        uint256 studentTokenId = _nftIdentities.getNftTokenIdOfRole(\r\n            msg.sender,\r\n            uint256(ROLE.STUDENT)\r\n        );\r\n        uint256 tokenId = _tokenIdOfStudent[studentTokenId];\r\n        require(tokenId > 0);\r\n        uint256 pos = _posOfNftGraduationTokenId[tokenId];\r\n\r\n        return _allNftGraduations[pos - 1];\r\n    }\r\n\r\n    function getAllGraduations()\r\n        public\r\n        view\r\n        onlyOwner\r\n        returns (NftGraduation[] memory)\r\n    {\r\n        return _allNftGraduations;\r\n    }\r\n\r\n    function grantNftGraduation(\r\n        uint256 studentTokenId,\r\n        string memory tokenURI\r\n    ) public onlyOwner {\r\n        require(\r\n            _posOfRequestInQueue[studentTokenId] > 0,\r\n            \"Student didn't request graduation certificate\"\r\n        );\r\n        uint256[]\r\n            memory nftCompleteCourseTokenIds = _requestGraduationCompleteCourseIds[\r\n                studentTokenId\r\n            ];\r\n        require(\r\n            _nftCompleteCourses.checkAllNftCompleteCoursesRegained(\r\n                nftCompleteCourseTokenIds\r\n            ),\r\n            \"Not regained\"\r\n        );\r\n        uint256 tokenId = _mintToken(msg.sender, tokenURI);\r\n        NftGraduation memory nftGraduation = NftGraduation(\r\n            tokenId,\r\n            studentTokenId\r\n        );\r\n        _allNftGraduations.push(nftGraduation);\r\n        _posOfNftGraduationTokenId[tokenId] = _allNftGraduations.length;\r\n        _tokenIdOfStudent[studentTokenId] = tokenId;\r\n\r\n        delete _requestGraduationCompleteCourseIds[studentTokenId];\r\n        delete _requestGraduationURI[studentTokenId];\r\n        uint256 pos = _posOfRequestInQueue[studentTokenId];\r\n        uint256 lastRequestQueuePos = _requestGraduationQueue.length;\r\n        if (pos < lastRequestQueuePos) {\r\n            _requestGraduationQueue[pos - 1] = _requestGraduationQueue[\r\n                lastRequestQueuePos - 1\r\n            ];\r\n            _posOfRequestInQueue[\r\n                _requestGraduationQueue[lastRequestQueuePos - 1]\r\n            ] = pos;\r\n        }\r\n        _requestGraduationQueue.pop();\r\n        delete _posOfRequestInQueue[studentTokenId];\r\n\r\n        emit GrantNewNftGraduation(tokenId);\r\n    }\r\n}\r\n",
  "sourcePath": "E:\\learn\\learn-to-earn\\blockchain\\contracts\\NftGraduation.sol",
  "compiler": {
    "name": "solc",
    "version": "0.8.13+commit.abaa5c0e.Emscripten.clang"
  },
  "schemaVersion": "3.4.13",
  "updatedAt": "2023-07-08T08:38:40.986Z",
  "networkType": "ethereum",
  "devdoc": {
    "kind": "dev",
    "methods": {
      "approve(address,uint256)": {
        "details": "See {IERC721-approve}."
      },
      "balanceOf(address)": {
        "details": "See {IERC721-balanceOf}."
      },
      "getApproved(uint256)": {
        "details": "See {IERC721-getApproved}."
      },
      "isApprovedForAll(address,address)": {
        "details": "See {IERC721-isApprovedForAll}."
      },
      "name()": {
        "details": "See {IERC721Metadata-name}."
      },
      "ownerOf(uint256)": {
        "details": "See {IERC721-ownerOf}."
      },
      "safeTransferFrom(address,address,uint256)": {
        "details": "See {IERC721-safeTransferFrom}."
      },
      "safeTransferFrom(address,address,uint256,bytes)": {
        "details": "See {IERC721-safeTransferFrom}."
      },
      "setApprovalForAll(address,bool)": {
        "details": "See {IERC721-setApprovalForAll}."
      },
      "supportsInterface(bytes4)": {
        "details": "See {IERC165-supportsInterface}."
      },
      "symbol()": {
        "details": "See {IERC721Metadata-symbol}."
      },
      "tokenURI(uint256)": {
        "details": "See {IERC721Metadata-tokenURI}."
      },
      "transferFrom(address,address,uint256)": {
        "details": "See {IERC721-transferFrom}."
      }
    },
    "version": 1
  },
  "userdoc": {
    "kind": "user",
    "methods": {},
    "version": 1
  }
}