{
  "contractName": "NftIdentities",
  "abi": [
    {
      "inputs": [],
      "stateMutability": "nonpayable",
      "type": "constructor"
    },
    {
      "anonymous": false,
      "inputs": [
        {
          "indexed": true,
          "internalType": "address",
          "name": "account",
          "type": "address"
        },
        {
          "indexed": true,
          "internalType": "address",
          "name": "operator",
          "type": "address"
        },
        {
          "indexed": false,
          "internalType": "bool",
          "name": "approved",
          "type": "bool"
        }
      ],
      "name": "ApprovalForAll",
      "type": "event"
    },
    {
      "anonymous": false,
      "inputs": [
        {
          "indexed": true,
          "internalType": "address",
          "name": "operator",
          "type": "address"
        },
        {
          "indexed": true,
          "internalType": "address",
          "name": "from",
          "type": "address"
        },
        {
          "indexed": true,
          "internalType": "address",
          "name": "to",
          "type": "address"
        },
        {
          "indexed": false,
          "internalType": "uint256[]",
          "name": "ids",
          "type": "uint256[]"
        },
        {
          "indexed": false,
          "internalType": "uint256[]",
          "name": "values",
          "type": "uint256[]"
        }
      ],
      "name": "TransferBatch",
      "type": "event"
    },
    {
      "anonymous": false,
      "inputs": [
        {
          "indexed": true,
          "internalType": "address",
          "name": "operator",
          "type": "address"
        },
        {
          "indexed": true,
          "internalType": "address",
          "name": "from",
          "type": "address"
        },
        {
          "indexed": true,
          "internalType": "address",
          "name": "to",
          "type": "address"
        },
        {
          "indexed": false,
          "internalType": "uint256",
          "name": "id",
          "type": "uint256"
        },
        {
          "indexed": false,
          "internalType": "uint256",
          "name": "value",
          "type": "uint256"
        }
      ],
      "name": "TransferSingle",
      "type": "event"
    },
    {
      "anonymous": false,
      "inputs": [
        {
          "indexed": false,
          "internalType": "string",
          "name": "value",
          "type": "string"
        },
        {
          "indexed": true,
          "internalType": "uint256",
          "name": "id",
          "type": "uint256"
        }
      ],
      "name": "URI",
      "type": "event"
    },
    {
      "inputs": [
        {
          "internalType": "address",
          "name": "account",
          "type": "address"
        },
        {
          "internalType": "uint256",
          "name": "id",
          "type": "uint256"
        }
      ],
      "name": "balanceOf",
      "outputs": [
        {
          "internalType": "uint256",
          "name": "",
          "type": "uint256"
        }
      ],
      "stateMutability": "view",
      "type": "function",
      "constant": true
    },
    {
      "inputs": [
        {
          "internalType": "address[]",
          "name": "accounts",
          "type": "address[]"
        },
        {
          "internalType": "uint256[]",
          "name": "ids",
          "type": "uint256[]"
        }
      ],
      "name": "balanceOfBatch",
      "outputs": [
        {
          "internalType": "uint256[]",
          "name": "",
          "type": "uint256[]"
        }
      ],
      "stateMutability": "view",
      "type": "function",
      "constant": true
    },
    {
      "inputs": [],
      "name": "getRegisteredInfo",
      "outputs": [
        {
          "components": [
            {
              "internalType": "address",
              "name": "applicant",
              "type": "address"
            },
            {
              "internalType": "string",
              "name": "documentURI",
              "type": "string"
            }
          ],
          "internalType": "struct Registration.RegistrationInfo",
          "name": "",
          "type": "tuple"
        }
      ],
      "stateMutability": "view",
      "type": "function",
      "constant": true
    },
    {
      "inputs": [
        {
          "internalType": "address",
          "name": "account",
          "type": "address"
        },
        {
          "internalType": "address",
          "name": "operator",
          "type": "address"
        }
      ],
      "name": "isApprovedForAll",
      "outputs": [
        {
          "internalType": "bool",
          "name": "",
          "type": "bool"
        }
      ],
      "stateMutability": "view",
      "type": "function",
      "constant": true
    },
    {
      "inputs": [],
      "name": "registerFee",
      "outputs": [
        {
          "internalType": "uint256",
          "name": "",
          "type": "uint256"
        }
      ],
      "stateMutability": "view",
      "type": "function",
      "constant": true
    },
    {
      "inputs": [],
      "name": "reject",
      "outputs": [],
      "stateMutability": "nonpayable",
      "type": "function"
    },
    {
      "inputs": [
        {
          "internalType": "address",
          "name": "from",
          "type": "address"
        },
        {
          "internalType": "address",
          "name": "to",
          "type": "address"
        },
        {
          "internalType": "uint256[]",
          "name": "ids",
          "type": "uint256[]"
        },
        {
          "internalType": "uint256[]",
          "name": "amounts",
          "type": "uint256[]"
        },
        {
          "internalType": "bytes",
          "name": "data",
          "type": "bytes"
        }
      ],
      "name": "safeBatchTransferFrom",
      "outputs": [],
      "stateMutability": "nonpayable",
      "type": "function"
    },
    {
      "inputs": [
        {
          "internalType": "address",
          "name": "from",
          "type": "address"
        },
        {
          "internalType": "address",
          "name": "to",
          "type": "address"
        },
        {
          "internalType": "uint256",
          "name": "id",
          "type": "uint256"
        },
        {
          "internalType": "uint256",
          "name": "amount",
          "type": "uint256"
        },
        {
          "internalType": "bytes",
          "name": "data",
          "type": "bytes"
        }
      ],
      "name": "safeTransferFrom",
      "outputs": [],
      "stateMutability": "nonpayable",
      "type": "function"
    },
    {
      "inputs": [
        {
          "internalType": "address",
          "name": "operator",
          "type": "address"
        },
        {
          "internalType": "bool",
          "name": "approved",
          "type": "bool"
        }
      ],
      "name": "setApprovalForAll",
      "outputs": [],
      "stateMutability": "nonpayable",
      "type": "function"
    },
    {
      "inputs": [
        {
          "internalType": "bytes4",
          "name": "interfaceId",
          "type": "bytes4"
        }
      ],
      "name": "supportsInterface",
      "outputs": [
        {
          "internalType": "bool",
          "name": "",
          "type": "bool"
        }
      ],
      "stateMutability": "view",
      "type": "function",
      "constant": true
    },
    {
      "inputs": [
        {
          "internalType": "uint256",
          "name": "tokenId",
          "type": "uint256"
        }
      ],
      "name": "uri",
      "outputs": [
        {
          "internalType": "string",
          "name": "",
          "type": "string"
        }
      ],
      "stateMutability": "view",
      "type": "function",
      "constant": true
    },
    {
      "inputs": [
        {
          "internalType": "uint256",
          "name": "tokenId",
          "type": "uint256"
        }
      ],
      "name": "getNftInfo",
      "outputs": [
        {
          "components": [
            {
              "internalType": "uint256",
              "name": "tokenId",
              "type": "uint256"
            },
            {
              "internalType": "address",
              "name": "register",
              "type": "address"
            },
            {
              "internalType": "uint256",
              "name": "expiredAt",
              "type": "uint256"
            }
          ],
          "internalType": "struct NftIdentities.NftIdentity",
          "name": "",
          "type": "tuple"
        },
        {
          "internalType": "string",
          "name": "",
          "type": "string"
        }
      ],
      "stateMutability": "view",
      "type": "function",
      "constant": true
    },
    {
      "inputs": [
        {
          "internalType": "uint256",
          "name": "tokenId",
          "type": "uint256"
        }
      ],
      "name": "getNftOfTokenId",
      "outputs": [
        {
          "components": [
            {
              "internalType": "uint256",
              "name": "tokenId",
              "type": "uint256"
            },
            {
              "internalType": "address",
              "name": "register",
              "type": "address"
            },
            {
              "internalType": "uint256",
              "name": "expiredAt",
              "type": "uint256"
            }
          ],
          "internalType": "struct NftIdentities.NftIdentity",
          "name": "",
          "type": "tuple"
        }
      ],
      "stateMutability": "view",
      "type": "function",
      "constant": true
    },
    {
      "inputs": [],
      "name": "requestExtendExpiredNft",
      "outputs": [],
      "stateMutability": "nonpayable",
      "type": "function"
    },
    {
      "inputs": [
        {
          "internalType": "address",
          "name": "registerAddr",
          "type": "address"
        }
      ],
      "name": "isAbleToOperate",
      "outputs": [
        {
          "internalType": "bool",
          "name": "",
          "type": "bool"
        },
        {
          "internalType": "uint256",
          "name": "",
          "type": "uint256"
        }
      ],
      "stateMutability": "view",
      "type": "function",
      "constant": true
    },
    {
      "inputs": [
        {
          "internalType": "uint256",
          "name": "role",
          "type": "uint256"
        },
        {
          "internalType": "string",
          "name": "documentURI",
          "type": "string"
        }
      ],
      "name": "registerNftIdentity",
      "outputs": [],
      "stateMutability": "payable",
      "type": "function",
      "payable": true
    },
    {
      "inputs": [
        {
          "internalType": "address",
          "name": "targetAccount",
          "type": "address"
        },
        {
          "internalType": "uint256",
          "name": "expiredAt",
          "type": "uint256"
        },
        {
          "internalType": "string",
          "name": "tokenURI",
          "type": "string"
        }
      ],
      "name": "grantNftIdentity",
      "outputs": [],
      "stateMutability": "nonpayable",
      "type": "function"
    },
    {
      "inputs": [],
      "name": "getAllExtendExpiredRequest",
      "outputs": [
        {
          "components": [
            {
              "internalType": "uint256",
              "name": "tokenId",
              "type": "uint256"
            },
            {
              "internalType": "address",
              "name": "register",
              "type": "address"
            },
            {
              "internalType": "uint256",
              "name": "expiredAt",
              "type": "uint256"
            }
          ],
          "internalType": "struct NftIdentities.NftIdentity[]",
          "name": "",
          "type": "tuple[]"
        },
        {
          "internalType": "string[]",
          "name": "",
          "type": "string[]"
        }
      ],
      "stateMutability": "view",
      "type": "function",
      "constant": true
    },
    {
      "inputs": [
        {
          "internalType": "uint256",
          "name": "tokenId",
          "type": "uint256"
        },
        {
          "internalType": "uint256",
          "name": "nextExpiredAt",
          "type": "uint256"
        }
      ],
      "name": "extendExpiredNft",
      "outputs": [],
      "stateMutability": "nonpayable",
      "type": "function"
    },
    {
      "inputs": [
        {
          "internalType": "uint256",
          "name": "tokenId",
          "type": "uint256"
        }
      ],
      "name": "burnNft",
      "outputs": [],
      "stateMutability": "nonpayable",
      "type": "function"
    },
    {
      "inputs": [],
      "name": "getOwnedNft",
      "outputs": [
        {
          "components": [
            {
              "internalType": "uint256",
              "name": "tokenId",
              "type": "uint256"
            },
            {
              "internalType": "address",
              "name": "register",
              "type": "address"
            },
            {
              "internalType": "uint256",
              "name": "expiredAt",
              "type": "uint256"
            }
          ],
          "internalType": "struct NftIdentities.NftIdentity",
          "name": "",
          "type": "tuple"
        },
        {
          "internalType": "string",
          "name": "",
          "type": "string"
        },
        {
          "internalType": "bool",
          "name": "",
          "type": "bool"
        },
        {
          "internalType": "bool",
          "name": "",
          "type": "bool"
        }
      ],
      "stateMutability": "view",
      "type": "function",
      "constant": true
    },
    {
      "inputs": [],
      "name": "getRole",
      "outputs": [
        {
          "internalType": "uint256",
          "name": "",
          "type": "uint256"
        }
      ],
      "stateMutability": "view",
      "type": "function",
      "constant": true
    },
    {
      "inputs": [],
      "name": "depositNftIdentity",
      "outputs": [],
      "stateMutability": "nonpayable",
      "type": "function"
    },
    {
      "inputs": [],
      "name": "withdrawNftIdentity",
      "outputs": [],
      "stateMutability": "nonpayable",
      "type": "function"
    }
  ],
  "bytecode": "0x608060405260405180602001604052806000815250600390805190602001906200002b9291906200014c565b5066b1a2bc2ec50000600b553480156200004457600080fd5b506040518060200160405280600081525062000066816200013060201b60201c565b5033600a60006101000a81548173ffffffffffffffffffffffffffffffffffffffff021916908373ffffffffffffffffffffffffffffffffffffffff160217905550600160076000806001811115620000c457620000c3620001fc565b5b815260200190815260200160002060006101000a81548160ff021916908315150217905550600160076000600180811115620001055762000104620001fc565b5b815260200190815260200160002060006101000a81548160ff0219169083151502179055506200028f565b8060029080519060200190620001489291906200014c565b5050565b8280546200015a906200025a565b90600052602060002090601f0160209004810192826200017e5760008555620001ca565b82601f106200019957805160ff1916838001178555620001ca565b82800160010185558215620001ca579182015b82811115620001c9578251825591602001919060010190620001ac565b5b509050620001d99190620001dd565b5090565b5b80821115620001f8576000816000905550600101620001de565b5090565b7f4e487b7100000000000000000000000000000000000000000000000000000000600052602160045260246000fd5b7f4e487b7100000000000000000000000000000000000000000000000000000000600052602260045260246000fd5b600060028204905060018216806200027357607f821691505b6020821081036200028957620002886200022b565b5b50919050565b615bff806200029f6000396000f3fe60806040526004361061014a5760003560e01c806358e8dad2116100b6578063d5ec2d831161006f578063d5ec2d831461044b578063d703df8b14610489578063e985e9c5146104c6578063f242432a14610503578063f9b9c44a1461052c578063fde08174146105575761014a565b806358e8dad21461035f57806376bd1c781461038d5780637f256a54146103a4578063a22cb465146103bb578063ce268f69146103e4578063d2fd879f146104225761014a565b80632eb2c2d6116101085780632eb2c2d61461027157806333fbd8421461029a5780633a66e326146102c65780633d5efefe146102e25780634dc415de1461030b5780634e1273f4146103225761014a565b8062fdd58e1461014f57806301ffc9a71461018c57806303f187ea146101c95780630a08bb53146101f45780630e89341c1461021d5780630fc2346d1461025a575b600080fd5b34801561015b57600080fd5b5061017660048036038101906101719190613d19565b610582565b6040516101839190613d68565b60405180910390f35b34801561019857600080fd5b506101b360048036038101906101ae9190613ddb565b61064a565b6040516101c09190613e23565b60405180910390f35b3480156101d557600080fd5b506101de61072c565b6040516101eb9190613d68565b60405180910390f35b34801561020057600080fd5b5061021b60048036038101906102169190613e3e565b610732565b005b34801561022957600080fd5b50610244600480360381019061023f9190613e7e565b6108de565b6040516102519190613f44565b60405180910390f35b34801561026657600080fd5b5061026f6109c3565b005b34801561027d57600080fd5b5061029860048036038101906102939190614163565b610b85565b005b3480156102a657600080fd5b506102af610c26565b6040516102bd92919061444d565b60405180910390f35b6102e060048036038101906102db9190614525565b610de0565b005b3480156102ee57600080fd5b5061030960048036038101906103049190613e7e565b610e86565b005b34801561031757600080fd5b50610320610fa0565b005b34801561032e57600080fd5b5061034960048036038101906103449190614644565b610ff7565b604051610356919061476b565b60405180910390f35b34801561036b57600080fd5b50610374611110565b60405161038494939291906147cf565b60405180910390f35b34801561039957600080fd5b506103a26111b8565b005b3480156103b057600080fd5b506103b9611351565b005b3480156103c757600080fd5b506103e260048036038101906103dd9190614847565b61147c565b005b3480156103f057600080fd5b5061040b60048036038101906104069190614887565b611492565b6040516104199291906148b4565b60405180910390f35b34801561042e57600080fd5b50610449600480360381019061044491906148dd565b611517565b005b34801561045757600080fd5b50610472600480360381019061046d9190613e7e565b611615565b60405161048092919061494c565b60405180910390f35b34801561049557600080fd5b506104b060048036038101906104ab9190613e7e565b611646565b6040516104bd919061497c565b60405180910390f35b3480156104d257600080fd5b506104ed60048036038101906104e89190614997565b611773565b6040516104fa9190613e23565b60405180910390f35b34801561050f57600080fd5b5061052a600480360381019061052591906149d7565b611807565b005b34801561053857600080fd5b506105416118a8565b60405161054e9190614aab565b60405180910390f35b34801561056357600080fd5b5061056c611b12565b6040516105799190613d68565b60405180910390f35b60008073ffffffffffffffffffffffffffffffffffffffff168373ffffffffffffffffffffffffffffffffffffffff16036105f2576040517f08c379a00000000000000000000000000000000000000000000000000000000081526004016105e990614b3f565b60405180910390fd5b60008083815260200190815260200160002060008473ffffffffffffffffffffffffffffffffffffffff1673ffffffffffffffffffffffffffffffffffffffff16815260200190815260200160002054905092915050565b60007fd9b67a26000000000000000000000000000000000000000000000000000000007bffffffffffffffffffffffffffffffffffffffffffffffffffffffff1916827bffffffffffffffffffffffffffffffffffffffffffffffffffffffff1916148061071557507f0e89341c000000000000000000000000000000000000000000000000000000007bffffffffffffffffffffffffffffffffffffffffffffffffffffffff1916827bffffffffffffffffffffffffffffffffffffffffffffffffffffffff1916145b80610725575061072482611c2f565b5b9050919050565b600b5481565b600a60009054906101000a900473ffffffffffffffffffffffffffffffffffffffff1673ffffffffffffffffffffffffffffffffffffffff163373ffffffffffffffffffffffffffffffffffffffff161461078c57600080fd5b81600a60009054906101000a900473ffffffffffffffffffffffffffffffffffffffff1673ffffffffffffffffffffffffffffffffffffffff166012600083815260200190815260200160002060009054906101000a900473ffffffffffffffffffffffffffffffffffffffff1673ffffffffffffffffffffffffffffffffffffffff161461081a57600080fd5b8142811161082757600080fd5b600061083285611c99565b90506000600f60008781526020019081526020016000205490506000811161088f576040517f08c379a000000000000000000000000000000000000000000000000000000000815260040161088690614bab565b60405180910390fd5b84600e60008481526020019081526020016000206001836108b09190614bfa565b815481106108c1576108c0614c2e565b5b906000526020600020906003020160020181905550505050505050565b6060600060046000848152602001908152602001600020805461090090614c8c565b80601f016020809104026020016040519081016040528092919081815260200182805461092c90614c8c565b80156109795780601f1061094e57610100808354040283529160200191610979565b820191906000526020600020905b81548152906001019060200180831161095c57829003601f168201915b5050505050905060008151116109975761099283611ca7565b6109bb565b6003816040516020016109ab929190614d8d565b6040516020818303038152906040525b915050919050565b6000600c60003373ffffffffffffffffffffffffffffffffffffffff1673ffffffffffffffffffffffffffffffffffffffff16815260200190815260200160002054905060008111610a4a576040517f08c379a0000000000000000000000000000000000000000000000000000000008152600401610a4190614dfd565b60405180910390fd5b600a60009054906101000a900473ffffffffffffffffffffffffffffffffffffffff1673ffffffffffffffffffffffffffffffffffffffff166012600083815260200190815260200160002060009054906101000a900473ffffffffffffffffffffffffffffffffffffffff1673ffffffffffffffffffffffffffffffffffffffff1614610b0d576040517f08c379a0000000000000000000000000000000000000000000000000000000008152600401610b0490614e69565b60405180910390fd5b610b82600a60009054906101000a900473ffffffffffffffffffffffffffffffffffffffff16338360016000368080601f016020809104026020016040519081016040528093929190818152602001838380828437600081840152601f19601f82011690508083019250505050505050611807565b50565b610b8d611d3b565b73ffffffffffffffffffffffffffffffffffffffff168573ffffffffffffffffffffffffffffffffffffffff161480610bd35750610bd285610bcd611d3b565b611773565b5b610c12576040517f08c379a0000000000000000000000000000000000000000000000000000000008152600401610c0990614efb565b60405180910390fd5b610c1f8585858585611d43565b5050505050565b606080600a60009054906101000a900473ffffffffffffffffffffffffffffffffffffffff1673ffffffffffffffffffffffffffffffffffffffff163373ffffffffffffffffffffffffffffffffffffffff1614610c8357600080fd5b6000601380549050905060008167ffffffffffffffff811115610ca957610ca8613f6b565b5b604051908082528060200260200182016040528015610ce257816020015b610ccf613b27565b815260200190600190039081610cc75790505b50905060008267ffffffffffffffff811115610d0157610d00613f6b565b5b604051908082528060200260200182016040528015610d3457816020015b6060815260200190600190039081610d1f5790505b50905060005b83811015610dd257600060138281548110610d5857610d57614c2e565b5b90600052602060002001549050610d6d613b27565b6060610d7883611615565b809250819350505081868581518110610d9457610d93614c2e565b5b602002602001018190525080858581518110610db357610db2614c2e565b5b602002602001018190525050505080610dcb90614f1b565b9050610d3a565b508181945094505050509091565b600b543414610e24576040517f08c379a0000000000000000000000000000000000000000000000000000000008152600401610e1b90614faf565b60405180910390fd5b600180811115610e3757610e36614fcf565b5b8214610e78576040517f08c379a0000000000000000000000000000000000000000000000000000000008152600401610e6f9061504a565b60405180910390fd5b610e828282612064565b5050565b600a60009054906101000a900473ffffffffffffffffffffffffffffffffffffffff1673ffffffffffffffffffffffffffffffffffffffff163373ffffffffffffffffffffffffffffffffffffffff1614610ee057600080fd5b80600a60009054906101000a900473ffffffffffffffffffffffffffffffffffffffff1673ffffffffffffffffffffffffffffffffffffffff166012600083815260200190815260200160002060009054906101000a900473ffffffffffffffffffffffffffffffffffffffff1673ffffffffffffffffffffffffffffffffffffffff1614610f6e57600080fd5b610f9c600a60009054906101000a900473ffffffffffffffffffffffffffffffffffffffff1683600161225d565b5050565b6000600860003373ffffffffffffffffffffffffffffffffffffffff1673ffffffffffffffffffffffffffffffffffffffff1681526020019081526020016000205411610fec57600080fd5b610ff5336124a3565b565b6060815183511461103d576040517f08c379a0000000000000000000000000000000000000000000000000000000008152600401611034906150dc565b60405180910390fd5b6000835167ffffffffffffffff81111561105a57611059613f6b565b5b6040519080825280602002602001820160405280156110885781602001602082028036833780820191505090505b50905060005b8451811015611105576110d58582815181106110ad576110ac614c2e565b5b60200260200101518583815181106110c8576110c7614c2e565b5b6020026020010151610582565b8282815181106110e8576110e7614c2e565b5b602002602001018181525050806110fe90614f1b565b905061108e565b508091505092915050565b611118613b27565b60606000806000600c60003373ffffffffffffffffffffffffffffffffffffffff1673ffffffffffffffffffffffffffffffffffffffff168152602001908152602001600020549050600061116c82611646565b90506000611179836108de565b90506000428360400151111590506000806014600087815260200190815260200160002054119050838383839850985098509850505050505090919293565b6000601160003373ffffffffffffffffffffffffffffffffffffffff1673ffffffffffffffffffffffffffffffffffffffff1681526020019081526020016000205490506000811161123f576040517f08c379a000000000000000000000000000000000000000000000000000000000815260040161123690615148565b60405180910390fd5b600061124a82611646565b905042816040015110611292576040517f08c379a0000000000000000000000000000000000000000000000000000000008152600401611289906151b4565b60405180910390fd5b61130733600a60009054906101000a900473ffffffffffffffffffffffffffffffffffffffff168460016000368080601f016020809104026020016040519081016040528093929190818152602001838380828437600081840152601f19601f82011690508083019250505050505050611807565b601382908060018154018082558091505060019003906000526020600020016000909190919091505560138054905060146000848152602001908152602001600020819055505050565b6000601160003373ffffffffffffffffffffffffffffffffffffffff1673ffffffffffffffffffffffffffffffffffffffff168152602001908152602001600020549050600081116113d8576040517f08c379a00000000000000000000000000000000000000000000000000000000081526004016113cf90615220565b60405180910390fd5b60006113e382611646565b9050428160400151111561146b5761146633600a60009054906101000a900473ffffffffffffffffffffffffffffffffffffffff168460016000368080601f016020809104026020016040519081016040528093929190818152602001838380828437600081840152601f19601f82011690508083019250505050505050611807565b611478565b6114773383600161225d565b5b5050565b61148e611487611d3b565b83836128b2565b5050565b6000806000600c60008573ffffffffffffffffffffffffffffffffffffffff1673ffffffffffffffffffffffffffffffffffffffff168152602001908152602001600020549050600081036114ee576000809250925050611512565b60006114f982611646565b90504281604001511161150b83611c99565b9350935050505b915091565b826000600860008373ffffffffffffffffffffffffffffffffffffffff1673ffffffffffffffffffffffffffffffffffffffff168152602001908152602001600020541161159a576040517f08c379a00000000000000000000000000000000000000000000000000000000081526004016115919061528c565b60405180910390fd5b600a60009054906101000a900473ffffffffffffffffffffffffffffffffffffffff1673ffffffffffffffffffffffffffffffffffffffff163373ffffffffffffffffffffffffffffffffffffffff16146115f457600080fd5b60006115ff85612a1e565b905061160d81868686612a73565b505050505050565b61161d613b27565b6060600061162a846108de565b9050600061163785611646565b90508082935093505050915091565b61164e613b27565b600061165983611c99565b90506000600f6000858152602001908152602001600020549050600081116116b6576040517f08c379a00000000000000000000000000000000000000000000000000000000081526004016116ad90614bab565b60405180910390fd5b600e60008381526020019081526020016000206001826116d69190614bfa565b815481106116e7576116e6614c2e565b5b9060005260206000209060030201604051806060016040529081600082015481526020016001820160009054906101000a900473ffffffffffffffffffffffffffffffffffffffff1673ffffffffffffffffffffffffffffffffffffffff1673ffffffffffffffffffffffffffffffffffffffff16815260200160028201548152505092505050919050565b6000600160008473ffffffffffffffffffffffffffffffffffffffff1673ffffffffffffffffffffffffffffffffffffffff16815260200190815260200160002060008373ffffffffffffffffffffffffffffffffffffffff1673ffffffffffffffffffffffffffffffffffffffff16815260200190815260200160002060009054906101000a900460ff16905092915050565b61180f611d3b565b73ffffffffffffffffffffffffffffffffffffffff168573ffffffffffffffffffffffffffffffffffffffff16148061185557506118548561184f611d3b565b611773565b5b611894576040517f08c379a000000000000000000000000000000000000000000000000000000000815260040161188b90614efb565b60405180910390fd5b6118a18585858585612b60565b5050505050565b6118b0613b5e565b336000600860008373ffffffffffffffffffffffffffffffffffffffff1673ffffffffffffffffffffffffffffffffffffffff1681526020019081526020016000205411611933576040517f08c379a000000000000000000000000000000000000000000000000000000000815260040161192a9061528c565b60405180910390fd5b60006001600860003373ffffffffffffffffffffffffffffffffffffffff1673ffffffffffffffffffffffffffffffffffffffff168152602001908152602001600020546119819190614bfa565b905060006006600083815260200190815260200160002060003373ffffffffffffffffffffffffffffffffffffffff1673ffffffffffffffffffffffffffffffffffffffff168152602001908152602001600020549050600560008381526020019081526020016000206001826119f89190614bfa565b81548110611a0957611a08614c2e565b5b90600052602060002090600202016040518060400160405290816000820160009054906101000a900473ffffffffffffffffffffffffffffffffffffffff1673ffffffffffffffffffffffffffffffffffffffff1673ffffffffffffffffffffffffffffffffffffffff168152602001600182018054611a8890614c8c565b80601f0160208091040260200160405190810160405280929190818152602001828054611ab490614c8c565b8015611b015780601f10611ad657610100808354040283529160200191611b01565b820191906000526020600020905b815481529060010190602001808311611ae457829003601f168201915b505050505081525050935050505090565b6000600a60009054906101000a900473ffffffffffffffffffffffffffffffffffffffff1673ffffffffffffffffffffffffffffffffffffffff163373ffffffffffffffffffffffffffffffffffffffff1603611b725760659050611c2c565b6000600860003373ffffffffffffffffffffffffffffffffffffffff1673ffffffffffffffffffffffffffffffffffffffff168152602001908152602001600020541115611bc35760649050611c2c565b6000600c60003373ffffffffffffffffffffffffffffffffffffffff1673ffffffffffffffffffffffffffffffffffffffff16815260200190815260200160002054905060008103611c19576063915050611c2c565b6000611c2482611c99565b905080925050505b90565b60007f01ffc9a7000000000000000000000000000000000000000000000000000000007bffffffffffffffffffffffffffffffffffffffffffffffffffffffff1916827bffffffffffffffffffffffffffffffffffffffffffffffffffffffff1916149050919050565b6000601082901c9050919050565b606060028054611cb690614c8c565b80601f0160208091040260200160405190810160405280929190818152602001828054611ce290614c8c565b8015611d2f5780601f10611d0457610100808354040283529160200191611d2f565b820191906000526020600020905b815481529060010190602001808311611d1257829003601f168201915b50505050509050919050565b600033905090565b8151835114611d87576040517f08c379a0000000000000000000000000000000000000000000000000000000008152600401611d7e9061531e565b60405180910390fd5b600073ffffffffffffffffffffffffffffffffffffffff168473ffffffffffffffffffffffffffffffffffffffff1603611df6576040517f08c379a0000000000000000000000000000000000000000000000000000000008152600401611ded906153b0565b60405180910390fd5b6000611e00611d3b565b9050611e10818787878787612dfb565b60005b8451811015611fc1576000858281518110611e3157611e30614c2e565b5b602002602001015190506000858381518110611e5057611e4f614c2e565b5b60200260200101519050600080600084815260200190815260200160002060008b73ffffffffffffffffffffffffffffffffffffffff1673ffffffffffffffffffffffffffffffffffffffff16815260200190815260200160002054905081811015611ef1576040517f08c379a0000000000000000000000000000000000000000000000000000000008152600401611ee890615442565b60405180910390fd5b81810360008085815260200190815260200160002060008c73ffffffffffffffffffffffffffffffffffffffff1673ffffffffffffffffffffffffffffffffffffffff168152602001908152602001600020819055508160008085815260200190815260200160002060008b73ffffffffffffffffffffffffffffffffffffffff1673ffffffffffffffffffffffffffffffffffffffff1681526020019081526020016000206000828254611fa69190615462565b9250508190555050505080611fba90614f1b565b9050611e13565b508473ffffffffffffffffffffffffffffffffffffffff168673ffffffffffffffffffffffffffffffffffffffff168273ffffffffffffffffffffffffffffffffffffffff167f4a39dc06d4c0dbc64b70af90fd698a233a518aa5d07e595d983b8c0526c8f7fb87876040516120389291906154b8565b60405180910390a461204e8187878787876130a2565b61205c8187878787876130aa565b505050505050565b60098160405161207491906154ef565b908152602001604051809103902060009054906101000a900460ff161561209a57600080fd5b6005600083815260200190815260200160002060405180604001604052803373ffffffffffffffffffffffffffffffffffffffff16815260200183815250908060018154018082558091505060019003906000526020600020906002020160009091909190915060008201518160000160006101000a81548173ffffffffffffffffffffffffffffffffffffffff021916908373ffffffffffffffffffffffffffffffffffffffff1602179055506020820151816001019080519060200190612164929190613b8e565b5050506001826121749190615462565b600860003373ffffffffffffffffffffffffffffffffffffffff1673ffffffffffffffffffffffffffffffffffffffff1681526020019081526020016000208190555060056000838152602001908152602001600020805490506006600084815260200190815260200160002060003373ffffffffffffffffffffffffffffffffffffffff1673ffffffffffffffffffffffffffffffffffffffff16815260200190815260200160002081905550600160098260405161223491906154ef565b908152602001604051809103902060006101000a81548160ff0219169083151502179055505050565b600073ffffffffffffffffffffffffffffffffffffffff168373ffffffffffffffffffffffffffffffffffffffff16036122cc576040517f08c379a00000000000000000000000000000000000000000000000000000000081526004016122c390615578565b60405180910390fd5b60006122d6611d3b565b905060006122e384613281565b905060006122f084613281565b905061231083876000858560405180602001604052806000815250612dfb565b600080600087815260200190815260200160002060008873ffffffffffffffffffffffffffffffffffffffff1673ffffffffffffffffffffffffffffffffffffffff168152602001908152602001600020549050848110156123a7576040517f08c379a000000000000000000000000000000000000000000000000000000000815260040161239e9061560a565b60405180910390fd5b84810360008088815260200190815260200160002060008973ffffffffffffffffffffffffffffffffffffffff1673ffffffffffffffffffffffffffffffffffffffff16815260200190815260200160002081905550600073ffffffffffffffffffffffffffffffffffffffff168773ffffffffffffffffffffffffffffffffffffffff168573ffffffffffffffffffffffffffffffffffffffff167fc3d58168c5ae7397731d063d5bbf3d657854427343f4c083240f7aacaa2d0f62898960405161247492919061562a565b60405180910390a461249a848860008686604051806020016040528060008152506130a2565b50505050505050565b60006001600860008473ffffffffffffffffffffffffffffffffffffffff1673ffffffffffffffffffffffffffffffffffffffff168152602001908152602001600020546124f19190614bfa565b905060006006600083815260200190815260200160002060008473ffffffffffffffffffffffffffffffffffffffff1673ffffffffffffffffffffffffffffffffffffffff1681526020019081526020016000205490506000600560008481526020019081526020016000208054905090508082146127a25760006005600085815260200190815260200160002060018361258c9190614bfa565b8154811061259d5761259c614c2e565b5b90600052602060002090600202016040518060400160405290816000820160009054906101000a900473ffffffffffffffffffffffffffffffffffffffff1673ffffffffffffffffffffffffffffffffffffffff1673ffffffffffffffffffffffffffffffffffffffff16815260200160018201805461261c90614c8c565b80601f016020809104026020016040519081016040528092919081815260200182805461264890614c8c565b80156126955780601f1061266a57610100808354040283529160200191612695565b820191906000526020600020905b81548152906001019060200180831161267857829003601f168201915b505050505081525050905080600560008681526020019081526020016000206001856126c19190614bfa565b815481106126d2576126d1614c2e565b5b906000526020600020906002020160008201518160000160006101000a81548173ffffffffffffffffffffffffffffffffffffffff021916908373ffffffffffffffffffffffffffffffffffffffff1602179055506020820151816001019080519060200190612743929190613b8e565b5090505082600660008681526020019081526020016000206000836000015173ffffffffffffffffffffffffffffffffffffffff1673ffffffffffffffffffffffffffffffffffffffff16815260200190815260200160002081905550505b600560008481526020019081526020016000208054806127c5576127c4615653565b5b6001900381819060005260206000209060020201600080820160006101000a81549073ffffffffffffffffffffffffffffffffffffffff02191690556001820160006128119190613c14565b50509055600860008573ffffffffffffffffffffffffffffffffffffffff1673ffffffffffffffffffffffffffffffffffffffff168152602001908152602001600020600090556006600084815260200190815260200160002060008573ffffffffffffffffffffffffffffffffffffffff1673ffffffffffffffffffffffffffffffffffffffff1681526020019081526020016000206000905550505050565b8173ffffffffffffffffffffffffffffffffffffffff168373ffffffffffffffffffffffffffffffffffffffff1603612920576040517f08c379a0000000000000000000000000000000000000000000000000000000008152600401612917906156f4565b60405180910390fd5b80600160008573ffffffffffffffffffffffffffffffffffffffff1673ffffffffffffffffffffffffffffffffffffffff16815260200190815260200160002060008473ffffffffffffffffffffffffffffffffffffffff1673ffffffffffffffffffffffffffffffffffffffff16815260200190815260200160002060006101000a81548160ff0219169083151502179055508173ffffffffffffffffffffffffffffffffffffffff168373ffffffffffffffffffffffffffffffffffffffff167f17307eab39ab6107e8899845ad3d59bd9653f200f220920489ca2b5937696c3183604051612a119190613e23565b60405180910390a3505050565b60006001600860008473ffffffffffffffffffffffffffffffffffffffff1673ffffffffffffffffffffffffffffffffffffffff16815260200190815260200160002054612a6c9190614bfa565b9050919050565b6000601082604051612a8591906154ef565b908152602001604051809103902060009054906101000a900460ff1615612ae1576040517f08c379a0000000000000000000000000000000000000000000000000000000008152600401612ad890615760565b60405180910390fd5b6000612aec866132fb565b9050612af88184613346565b612b0281856133b2565b612b54858260016000368080601f016020809104026020016040519081016040528093929190818152602001838380828437600081840152601f19601f82011690508083019250505050505050613506565b80915050949350505050565b600073ffffffffffffffffffffffffffffffffffffffff168473ffffffffffffffffffffffffffffffffffffffff1603612bcf576040517f08c379a0000000000000000000000000000000000000000000000000000000008152600401612bc6906153b0565b60405180910390fd5b6000612bd9611d3b565b90506000612be685613281565b90506000612bf385613281565b9050612c03838989858589612dfb565b600080600088815260200190815260200160002060008a73ffffffffffffffffffffffffffffffffffffffff1673ffffffffffffffffffffffffffffffffffffffff16815260200190815260200160002054905085811015612c9a576040517f08c379a0000000000000000000000000000000000000000000000000000000008152600401612c9190615442565b60405180910390fd5b85810360008089815260200190815260200160002060008b73ffffffffffffffffffffffffffffffffffffffff1673ffffffffffffffffffffffffffffffffffffffff168152602001908152602001600020819055508560008089815260200190815260200160002060008a73ffffffffffffffffffffffffffffffffffffffff1673ffffffffffffffffffffffffffffffffffffffff1681526020019081526020016000206000828254612d4f9190615462565b925050819055508773ffffffffffffffffffffffffffffffffffffffff168973ffffffffffffffffffffffffffffffffffffffff168573ffffffffffffffffffffffffffffffffffffffff167fc3d58168c5ae7397731d063d5bbf3d657854427343f4c083240f7aacaa2d0f628a8a604051612dcc92919061562a565b60405180910390a4612de2848a8a86868a6130a2565b612df0848a8a8a8a8a6136b6565b505050505050505050565b612e0986868686868661388d565b600073ffffffffffffffffffffffffffffffffffffffff168573ffffffffffffffffffffffffffffffffffffffff161480612e705750600073ffffffffffffffffffffffffffffffffffffffff168473ffffffffffffffffffffffffffffffffffffffff16145b612eaf576040517f08c379a0000000000000000000000000000000000000000000000000000000008152600401612ea6906157cc565b60405180910390fd5b600083600081518110612ec557612ec4614c2e565b5b60200260200101519050600073ffffffffffffffffffffffffffffffffffffffff168673ffffffffffffffffffffffffffffffffffffffff1614612f7d57601160008773ffffffffffffffffffffffffffffffffffffffff1673ffffffffffffffffffffffffffffffffffffffff168152602001908152602001600020600090556012600082815260200190815260200160002060006101000a81549073ffffffffffffffffffffffffffffffffffffffff02191690555b600073ffffffffffffffffffffffffffffffffffffffff168573ffffffffffffffffffffffffffffffffffffffff161461304c5780601160008773ffffffffffffffffffffffffffffffffffffffff1673ffffffffffffffffffffffffffffffffffffffff16815260200190815260200160002081905550846012600083815260200190815260200160002060006101000a81548173ffffffffffffffffffffffffffffffffffffffff021916908373ffffffffffffffffffffffffffffffffffffffff160217905550613099565b61305581613895565b600c60008773ffffffffffffffffffffffffffffffffffffffff1673ffffffffffffffffffffffffffffffffffffffff168152602001908152602001600020600090555b50505050505050565b505050505050565b6130c98473ffffffffffffffffffffffffffffffffffffffff16613ae0565b15613279578373ffffffffffffffffffffffffffffffffffffffff1663bc197c8187878686866040518663ffffffff1660e01b815260040161310f959493929190615850565b6020604051808303816000875af192505050801561314b57506040513d601f19601f8201168201806040525081019061314891906158cd565b60015b6131f057613157615907565b806308c379a0036131b3575061316b615929565b8061317657506131b5565b806040517f08c379a00000000000000000000000000000000000000000000000000000000081526004016131aa9190613f44565b60405180910390fd5b505b6040517f08c379a00000000000000000000000000000000000000000000000000000000081526004016131e790615a2b565b60405180910390fd5b63bc197c8160e01b7bffffffffffffffffffffffffffffffffffffffffffffffffffffffff1916817bffffffffffffffffffffffffffffffffffffffffffffffffffffffff191614613277576040517f08c379a000000000000000000000000000000000000000000000000000000000815260040161326e90615abd565b60405180910390fd5b505b505050505050565b60606000600167ffffffffffffffff8111156132a05761329f613f6b565b5b6040519080825280602002602001820160405280156132ce5781602001602082028036833780820191505090505b50905082816000815181106132e6576132e5614c2e565b5b60200260200101818152505080915050919050565b6000613318600d6000848152602001908152602001600020613b03565b6000613335600d6000858152602001908152602001600020613b19565b905080601084901b17915050919050565b8060046000848152602001908152602001600020908051906020019061336d929190613b8e565b50817f6bb7ff708619ba0610cba295a58592e0451dee2622938c8755667688daf3529b613399846108de565b6040516133a69190613f44565b60405180910390a25050565b60006133bd83611c99565b9050600060405180606001604052808581526020013373ffffffffffffffffffffffffffffffffffffffff168152602001848152509050600e60008381526020019081526020016000208190806001815401808255809150506001900390600052602060002090600302016000909190919091506000820151816000015560208201518160010160006101000a81548173ffffffffffffffffffffffffffffffffffffffff021916908373ffffffffffffffffffffffffffffffffffffffff160217905550604082015181600201555050600e600083815260200190815260200160002080549050600f60008681526020019081526020016000208190555083600c60003373ffffffffffffffffffffffffffffffffffffffff1673ffffffffffffffffffffffffffffffffffffffff1681526020019081526020016000208190555050505050565b600073ffffffffffffffffffffffffffffffffffffffff168473ffffffffffffffffffffffffffffffffffffffff1603613575576040517f08c379a000000000000000000000000000000000000000000000000000000000815260040161356c90615b4f565b60405180910390fd5b600061357f611d3b565b9050600061358c85613281565b9050600061359985613281565b90506135aa83600089858589612dfb565b8460008088815260200190815260200160002060008973ffffffffffffffffffffffffffffffffffffffff1673ffffffffffffffffffffffffffffffffffffffff16815260200190815260200160002060008282546136099190615462565b925050819055508673ffffffffffffffffffffffffffffffffffffffff16600073ffffffffffffffffffffffffffffffffffffffff168473ffffffffffffffffffffffffffffffffffffffff167fc3d58168c5ae7397731d063d5bbf3d657854427343f4c083240f7aacaa2d0f62898960405161368792919061562a565b60405180910390a461369e836000898585896130a2565b6136ad836000898989896136b6565b50505050505050565b6136d58473ffffffffffffffffffffffffffffffffffffffff16613ae0565b15613885578373ffffffffffffffffffffffffffffffffffffffff1663f23a6e6187878686866040518663ffffffff1660e01b815260040161371b959493929190615b6f565b6020604051808303816000875af192505050801561375757506040513d601f19601f8201168201806040525081019061375491906158cd565b60015b6137fc57613763615907565b806308c379a0036137bf5750613777615929565b8061378257506137c1565b806040517f08c379a00000000000000000000000000000000000000000000000000000000081526004016137b69190613f44565b60405180910390fd5b505b6040517f08c379a00000000000000000000000000000000000000000000000000000000081526004016137f390615a2b565b60405180910390fd5b63f23a6e6160e01b7bffffffffffffffffffffffffffffffffffffffffffffffffffffffff1916817bffffffffffffffffffffffffffffffffffffffffffffffffffffffff191614613883576040517f08c379a000000000000000000000000000000000000000000000000000000000815260040161387a90615abd565b60405180910390fd5b505b505050505050565b505050505050565b6000600f600083815260200190815260200160002054905060006138b883611c99565b90506000600e6000838152602001908152602001600020805490509050828114613a50576000600e60008481526020019081526020016000206001836138fe9190614bfa565b8154811061390f5761390e614c2e565b5b9060005260206000209060030201604051806060016040529081600082015481526020016001820160009054906101000a900473ffffffffffffffffffffffffffffffffffffffff1673ffffffffffffffffffffffffffffffffffffffff1673ffffffffffffffffffffffffffffffffffffffff168152602001600282015481525050905080600e60008581526020019081526020016000206001866139b59190614bfa565b815481106139c6576139c5614c2e565b5b90600052602060002090600302016000820151816000015560208201518160010160006101000a81548173ffffffffffffffffffffffffffffffffffffffff021916908373ffffffffffffffffffffffffffffffffffffffff1602179055506040820151816002015590505083600f60008360000151815260200190815260200160002081905550505b600e6000838152602001908152602001600020805480613a7357613a72615653565b5b60019003818190600052602060002090600302016000808201600090556001820160006101000a81549073ffffffffffffffffffffffffffffffffffffffff0219169055600282016000905550509055600f60008581526020019081526020016000206000905550505050565b6000808273ffffffffffffffffffffffffffffffffffffffff163b119050919050565b6001816000016000828254019250508190555050565b600081600001549050919050565b604051806060016040528060008152602001600073ffffffffffffffffffffffffffffffffffffffff168152602001600081525090565b6040518060400160405280600073ffffffffffffffffffffffffffffffffffffffff168152602001606081525090565b828054613b9a90614c8c565b90600052602060002090601f016020900481019282613bbc5760008555613c03565b82601f10613bd557805160ff1916838001178555613c03565b82800160010185558215613c03579182015b82811115613c02578251825591602001919060010190613be7565b5b509050613c109190613c54565b5090565b508054613c2090614c8c565b6000825580601f10613c325750613c51565b601f016020900490600052602060002090810190613c509190613c54565b5b50565b5b80821115613c6d576000816000905550600101613c55565b5090565b6000604051905090565b600080fd5b600080fd5b600073ffffffffffffffffffffffffffffffffffffffff82169050919050565b6000613cb082613c85565b9050919050565b613cc081613ca5565b8114613ccb57600080fd5b50565b600081359050613cdd81613cb7565b92915050565b6000819050919050565b613cf681613ce3565b8114613d0157600080fd5b50565b600081359050613d1381613ced565b92915050565b60008060408385031215613d3057613d2f613c7b565b5b6000613d3e85828601613cce565b9250506020613d4f85828601613d04565b9150509250929050565b613d6281613ce3565b82525050565b6000602082019050613d7d6000830184613d59565b92915050565b60007fffffffff0000000000000000000000000000000000000000000000000000000082169050919050565b613db881613d83565b8114613dc357600080fd5b50565b600081359050613dd581613daf565b92915050565b600060208284031215613df157613df0613c7b565b5b6000613dff84828501613dc6565b91505092915050565b60008115159050919050565b613e1d81613e08565b82525050565b6000602082019050613e386000830184613e14565b92915050565b60008060408385031215613e5557613e54613c7b565b5b6000613e6385828601613d04565b9250506020613e7485828601613d04565b9150509250929050565b600060208284031215613e9457613e93613c7b565b5b6000613ea284828501613d04565b91505092915050565b600081519050919050565b600082825260208201905092915050565b60005b83811015613ee5578082015181840152602081019050613eca565b83811115613ef4576000848401525b50505050565b6000601f19601f8301169050919050565b6000613f1682613eab565b613f208185613eb6565b9350613f30818560208601613ec7565b613f3981613efa565b840191505092915050565b60006020820190508181036000830152613f5e8184613f0b565b905092915050565b600080fd5b7f4e487b7100000000000000000000000000000000000000000000000000000000600052604160045260246000fd5b613fa382613efa565b810181811067ffffffffffffffff82111715613fc257613fc1613f6b565b5b80604052505050565b6000613fd5613c71565b9050613fe18282613f9a565b919050565b600067ffffffffffffffff82111561400157614000613f6b565b5b602082029050602081019050919050565b600080fd5b600061402a61402584613fe6565b613fcb565b9050808382526020820190506020840283018581111561404d5761404c614012565b5b835b8181101561407657806140628882613d04565b84526020840193505060208101905061404f565b5050509392505050565b600082601f83011261409557614094613f66565b5b81356140a5848260208601614017565b91505092915050565b600080fd5b600067ffffffffffffffff8211156140ce576140cd613f6b565b5b6140d782613efa565b9050602081019050919050565b82818337600083830152505050565b6000614106614101846140b3565b613fcb565b905082815260208101848484011115614122576141216140ae565b5b61412d8482856140e4565b509392505050565b600082601f83011261414a57614149613f66565b5b813561415a8482602086016140f3565b91505092915050565b600080600080600060a0868803121561417f5761417e613c7b565b5b600061418d88828901613cce565b955050602061419e88828901613cce565b945050604086013567ffffffffffffffff8111156141bf576141be613c80565b5b6141cb88828901614080565b935050606086013567ffffffffffffffff8111156141ec576141eb613c80565b5b6141f888828901614080565b925050608086013567ffffffffffffffff81111561421957614218613c80565b5b61422588828901614135565b9150509295509295909350565b600081519050919050565b600082825260208201905092915050565b6000819050602082019050919050565b61426781613ce3565b82525050565b61427681613ca5565b82525050565b606082016000820151614292600085018261425e565b5060208201516142a5602085018261426d565b5060408201516142b8604085018261425e565b50505050565b60006142ca838361427c565b60608301905092915050565b6000602082019050919050565b60006142ee82614232565b6142f8818561423d565b93506143038361424e565b8060005b8381101561433457815161431b88826142be565b9750614326836142d6565b925050600181019050614307565b5085935050505092915050565b600081519050919050565b600082825260208201905092915050565b6000819050602082019050919050565b600082825260208201905092915050565b600061438982613eab565b614393818561436d565b93506143a3818560208601613ec7565b6143ac81613efa565b840191505092915050565b60006143c3838361437e565b905092915050565b6000602082019050919050565b60006143e382614341565b6143ed818561434c565b9350836020820285016143ff8561435d565b8060005b8581101561443b578484038952815161441c85826143b7565b9450614427836143cb565b925060208a01995050600181019050614403565b50829750879550505050505092915050565b6000604082019050818103600083015261446781856142e3565b9050818103602083015261447b81846143d8565b90509392505050565b600067ffffffffffffffff82111561449f5761449e613f6b565b5b6144a882613efa565b9050602081019050919050565b60006144c86144c384614484565b613fcb565b9050828152602081018484840111156144e4576144e36140ae565b5b6144ef8482856140e4565b509392505050565b600082601f83011261450c5761450b613f66565b5b813561451c8482602086016144b5565b91505092915050565b6000806040838503121561453c5761453b613c7b565b5b600061454a85828601613d04565b925050602083013567ffffffffffffffff81111561456b5761456a613c80565b5b614577858286016144f7565b9150509250929050565b600067ffffffffffffffff82111561459c5761459b613f6b565b5b602082029050602081019050919050565b60006145c06145bb84614581565b613fcb565b905080838252602082019050602084028301858111156145e3576145e2614012565b5b835b8181101561460c57806145f88882613cce565b8452602084019350506020810190506145e5565b5050509392505050565b600082601f83011261462b5761462a613f66565b5b813561463b8482602086016145ad565b91505092915050565b6000806040838503121561465b5761465a613c7b565b5b600083013567ffffffffffffffff81111561467957614678613c80565b5b61468585828601614616565b925050602083013567ffffffffffffffff8111156146a6576146a5613c80565b5b6146b285828601614080565b9150509250929050565b600081519050919050565b600082825260208201905092915050565b6000819050602082019050919050565b60006146f4838361425e565b60208301905092915050565b6000602082019050919050565b6000614718826146bc565b61472281856146c7565b935061472d836146d8565b8060005b8381101561475e57815161474588826146e8565b975061475083614700565b925050600181019050614731565b5085935050505092915050565b60006020820190508181036000830152614785818461470d565b905092915050565b6060820160008201516147a3600085018261425e565b5060208201516147b6602085018261426d565b5060408201516147c9604085018261425e565b50505050565b600060c0820190506147e4600083018761478d565b81810360608301526147f68186613f0b565b90506148056080830185613e14565b61481260a0830184613e14565b95945050505050565b61482481613e08565b811461482f57600080fd5b50565b6000813590506148418161481b565b92915050565b6000806040838503121561485e5761485d613c7b565b5b600061486c85828601613cce565b925050602061487d85828601614832565b9150509250929050565b60006020828403121561489d5761489c613c7b565b5b60006148ab84828501613cce565b91505092915050565b60006040820190506148c96000830185613e14565b6148d66020830184613d59565b9392505050565b6000806000606084860312156148f6576148f5613c7b565b5b600061490486828701613cce565b935050602061491586828701613d04565b925050604084013567ffffffffffffffff81111561493657614935613c80565b5b614942868287016144f7565b9150509250925092565b6000608082019050614961600083018561478d565b81810360608301526149738184613f0b565b90509392505050565b6000606082019050614991600083018461478d565b92915050565b600080604083850312156149ae576149ad613c7b565b5b60006149bc85828601613cce565b92505060206149cd85828601613cce565b9150509250929050565b600080600080600060a086880312156149f3576149f2613c7b565b5b6000614a0188828901613cce565b9550506020614a1288828901613cce565b9450506040614a2388828901613d04565b9350506060614a3488828901613d04565b925050608086013567ffffffffffffffff811115614a5557614a54613c80565b5b614a6188828901614135565b9150509295509295909350565b6000604083016000830151614a86600086018261426d565b5060208301518482036020860152614a9e828261437e565b9150508091505092915050565b60006020820190508181036000830152614ac58184614a6e565b905092915050565b7f455243313135353a2061646472657373207a65726f206973206e6f742061207660008201527f616c6964206f776e657200000000000000000000000000000000000000000000602082015250565b6000614b29602a83613eb6565b9150614b3482614acd565b604082019050919050565b60006020820190508181036000830152614b5881614b1c565b9050919050565b7f4e6674206973206e6f7420657869737400000000000000000000000000000000600082015250565b6000614b95601083613eb6565b9150614ba082614b5f565b602082019050919050565b60006020820190508181036000830152614bc481614b88565b9050919050565b7f4e487b7100000000000000000000000000000000000000000000000000000000600052601160045260246000fd5b6000614c0582613ce3565b9150614c1083613ce3565b925082821015614c2357614c22614bcb565b5b828203905092915050565b7f4e487b7100000000000000000000000000000000000000000000000000000000600052603260045260246000fd5b7f4e487b7100000000000000000000000000000000000000000000000000000000600052602260045260246000fd5b60006002820490506001821680614ca457607f821691505b602082108103614cb757614cb6614c5d565b5b50919050565b600081905092915050565b60008190508160005260206000209050919050565b60008154614cea81614c8c565b614cf48186614cbd565b94506001821660008114614d0f5760018114614d2057614d53565b60ff19831686528186019350614d53565b614d2985614cc8565b60005b83811015614d4b57815481890152600182019150602081019050614d2c565b838801955050505b50505092915050565b6000614d6782613eab565b614d718185614cbd565b9350614d81818560208601613ec7565b80840191505092915050565b6000614d998285614cdd565b9150614da58284614d5c565b91508190509392505050565b7f486176656e2774206f776e656420616e79206e66747320796574000000000000600082015250565b6000614de7601a83613eb6565b9150614df282614db1565b602082019050919050565b60006020820190508181036000830152614e1681614dda565b9050919050565b7f4e6674206861736e2774206265656e206465706f736974656400000000000000600082015250565b6000614e53601983613eb6565b9150614e5e82614e1d565b602082019050919050565b60006020820190508181036000830152614e8281614e46565b9050919050565b7f455243313135353a2063616c6c6572206973206e6f7420746f6b656e206f776e60008201527f6572206f7220617070726f766564000000000000000000000000000000000000602082015250565b6000614ee5602e83613eb6565b9150614ef082614e89565b604082019050919050565b60006020820190508181036000830152614f1481614ed8565b9050919050565b6000614f2682613ce3565b91507fffffffffffffffffffffffffffffffffffffffffffffffffffffffffffffffff8203614f5857614f57614bcb565b5b600182019050919050565b7f6e6f7420656e6f75676820666565000000000000000000000000000000000000600082015250565b6000614f99600e83613eb6565b9150614fa482614f63565b602082019050919050565b60006020820190508181036000830152614fc881614f8c565b9050919050565b7f4e487b7100000000000000000000000000000000000000000000000000000000600052602160045260246000fd5b7f4e6f742074656163686572000000000000000000000000000000000000000000600082015250565b6000615034600b83613eb6565b915061503f82614ffe565b602082019050919050565b6000602082019050818103600083015261506381615027565b9050919050565b7f455243313135353a206163636f756e747320616e6420696473206c656e67746860008201527f206d69736d617463680000000000000000000000000000000000000000000000602082015250565b60006150c6602983613eb6565b91506150d18261506a565b604082019050919050565b600060208201905081810360008301526150f5816150b9565b9050919050565b7f486176656e2774206f776e20616e7920746f6b656e7300000000000000000000600082015250565b6000615132601683613eb6565b915061513d826150fc565b602082019050919050565b6000602082019050818103600083015261516181615125565b9050919050565b7f4e667420746f6b656e206861736e2774206265656e2065787069726564000000600082015250565b600061519e601d83613eb6565b91506151a982615168565b602082019050919050565b600060208201905081810360008301526151cd81615191565b9050919050565b7f496e76616c6964206f7065726174696f6e000000000000000000000000000000600082015250565b600061520a601183613eb6565b9150615215826151d4565b602082019050919050565b60006020820190508181036000830152615239816151fd565b9050919050565b7f4e6f742072656769737465726564000000000000000000000000000000000000600082015250565b6000615276600e83613eb6565b915061528182615240565b602082019050919050565b600060208201905081810360008301526152a581615269565b9050919050565b7f455243313135353a2069647320616e6420616d6f756e7473206c656e6774682060008201527f6d69736d61746368000000000000000000000000000000000000000000000000602082015250565b6000615308602883613eb6565b9150615313826152ac565b604082019050919050565b60006020820190508181036000830152615337816152fb565b9050919050565b7f455243313135353a207472616e7366657220746f20746865207a65726f20616460008201527f6472657373000000000000000000000000000000000000000000000000000000602082015250565b600061539a602583613eb6565b91506153a58261533e565b604082019050919050565b600060208201905081810360008301526153c98161538d565b9050919050565b7f455243313135353a20696e73756666696369656e742062616c616e636520666f60008201527f72207472616e7366657200000000000000000000000000000000000000000000602082015250565b600061542c602a83613eb6565b9150615437826153d0565b604082019050919050565b6000602082019050818103600083015261545b8161541f565b9050919050565b600061546d82613ce3565b915061547883613ce3565b9250827fffffffffffffffffffffffffffffffffffffffffffffffffffffffffffffffff038211156154ad576154ac614bcb565b5b828201905092915050565b600060408201905081810360008301526154d2818561470d565b905081810360208301526154e6818461470d565b90509392505050565b60006154fb8284614d5c565b915081905092915050565b7f455243313135353a206275726e2066726f6d20746865207a65726f206164647260008201527f6573730000000000000000000000000000000000000000000000000000000000602082015250565b6000615562602383613eb6565b915061556d82615506565b604082019050919050565b6000602082019050818103600083015261559181615555565b9050919050565b7f455243313135353a206275726e20616d6f756e7420657863656564732062616c60008201527f616e636500000000000000000000000000000000000000000000000000000000602082015250565b60006155f4602483613eb6565b91506155ff82615598565b604082019050919050565b60006020820190508181036000830152615623816155e7565b9050919050565b600060408201905061563f6000830185613d59565b61564c6020830184613d59565b9392505050565b7f4e487b7100000000000000000000000000000000000000000000000000000000600052603160045260246000fd5b7f455243313135353a2073657474696e6720617070726f76616c2073746174757360008201527f20666f722073656c660000000000000000000000000000000000000000000000602082015250565b60006156de602983613eb6565b91506156e982615682565b604082019050919050565b6000602082019050818103600083015261570d816156d1565b9050919050565b7f546f6b656e205552492068617320616c72656164792075736564000000000000600082015250565b600061574a601a83613eb6565b915061575582615714565b602082019050919050565b600060208201905081810360008301526157798161573d565b9050919050565b7f4f6e6c79206d696e74206f72206275726e20697320616c6c6f77656400000000600082015250565b60006157b6601c83613eb6565b91506157c182615780565b602082019050919050565b600060208201905081810360008301526157e5816157a9565b9050919050565b6157f581613ca5565b82525050565b600081519050919050565b600082825260208201905092915050565b6000615822826157fb565b61582c8185615806565b935061583c818560208601613ec7565b61584581613efa565b840191505092915050565b600060a08201905061586560008301886157ec565b61587260208301876157ec565b8181036040830152615884818661470d565b90508181036060830152615898818561470d565b905081810360808301526158ac8184615817565b90509695505050505050565b6000815190506158c781613daf565b92915050565b6000602082840312156158e3576158e2613c7b565b5b60006158f1848285016158b8565b91505092915050565b60008160e01c9050919050565b600060033d11156159265760046000803e6159236000516158fa565b90505b90565b600060443d106159b65761593b613c71565b60043d036004823e80513d602482011167ffffffffffffffff821117156159635750506159b6565b808201805167ffffffffffffffff81111561598157505050506159b6565b80602083010160043d03850181111561599e5750505050506159b6565b6159ad82602001850186613f9a565b82955050505050505b90565b7f455243313135353a207472616e7366657220746f206e6f6e2d4552433131353560008201527f526563656976657220696d706c656d656e746572000000000000000000000000602082015250565b6000615a15603483613eb6565b9150615a20826159b9565b604082019050919050565b60006020820190508181036000830152615a4481615a08565b9050919050565b7f455243313135353a204552433131353552656365697665722072656a6563746560008201527f6420746f6b656e73000000000000000000000000000000000000000000000000602082015250565b6000615aa7602883613eb6565b9150615ab282615a4b565b604082019050919050565b60006020820190508181036000830152615ad681615a9a565b9050919050565b7f455243313135353a206d696e7420746f20746865207a65726f2061646472657360008201527f7300000000000000000000000000000000000000000000000000000000000000602082015250565b6000615b39602183613eb6565b9150615b4482615add565b604082019050919050565b60006020820190508181036000830152615b6881615b2c565b9050919050565b600060a082019050615b8460008301886157ec565b615b9160208301876157ec565b615b9e6040830186613d59565b615bab6060830185613d59565b8181036080830152615bbd8184615817565b9050969550505050505056fea26469706673582212201c42e5d92a1bd1b42c6f99f67ebb5b42d54d0ced5ad1832c601ca7a7d10615e664736f6c634300080d0033",
  "immutableReferences": {},
  "source": "// SPDX-License-Identifier: MIT\r\n// Tells the Solidity compiler to compile only from v0.8.13 to v0.9.0\r\npragma solidity ^0.8.13;\r\n\r\nimport \"@openzeppelin/contracts/token/ERC1155/extensions/ERC1155URIStorage.sol\";\r\nimport \"@openzeppelin/contracts/utils/Counters.sol\";\r\nimport \"@openzeppelin/contracts/access/Ownable.sol\";\r\nimport \"./Registration.sol\";\r\nimport \"./interfaces/INftIdentities.sol\";\r\n\r\ncontract NftIdentities is ERC1155URIStorage, Registration, INftIdentities {\r\n    using Counters for Counters.Counter;\r\n\r\n    struct NftIdentity {\r\n        uint256 tokenId;\r\n        address register;\r\n        uint256 expiredAt;\r\n    }\r\n\r\n    uint256 constant INDEX_BITS = 16;\r\n    uint256 constant MAX_NFT_INDEX = uint256(~uint16(0));\r\n    uint256 constant ONE_NFT = 1;\r\n\r\n    uint256 constant VISITOR_ID = 99;\r\n    uint256 constant REGISTERED_ID = 100;\r\n    uint256 constant HIGHEST_OPERATOR_ID = 101;\r\n    address private _owner;\r\n\r\n    // Registration vars\r\n    uint256 public registerFee = 0.05 ether;\r\n    mapping(address => uint256) _tokenIdOfRegisters;\r\n\r\n    mapping(uint256 => Counters.Counter) _maxTokenIdIndexOfRole; // type => max token id\r\n    mapping(uint256 => NftIdentity[]) private _nftsOfRole; // type => Nft\r\n    mapping(uint256 => uint256) private _nftPosOfTokenId; // tokenId => index\r\n    mapping(string => bool) private _usedTokenURI;\r\n\r\n    mapping(address => uint256) private _nftOfOwner; // address => tokenId[]\r\n\r\n    mapping(uint256 => address) private _ownerOfNft;\r\n\r\n    uint256[] _extendRequestTokenIds;\r\n    mapping(uint256 => uint256) _positionOfRequestTokenId;\r\n\r\n    modifier onlyOwner() {\r\n        require(msg.sender == _owner);\r\n        _;\r\n    }\r\n\r\n    modifier isAfterNow(uint256 timestamp) {\r\n        require(timestamp > block.timestamp);\r\n        _;\r\n    }\r\n\r\n    modifier canGenerateNewTokens(uint256 role, uint256 amount) {\r\n        uint256 currentIndex = _maxTokenIdIndexOfRole[role].current() +\r\n            amount -\r\n            1;\r\n        require(currentIndex | MAX_NFT_INDEX == MAX_NFT_INDEX);\r\n        _;\r\n    }\r\n\r\n    modifier ownZeroNft(address addr) {\r\n        require(_nftOfOwner[addr] == 0);\r\n        _;\r\n    }\r\n\r\n    modifier ownNft(uint256 tokenId) {\r\n        require(_ownerOfNft[tokenId] == msg.sender);\r\n        _;\r\n    }\r\n\r\n    modifier tokenOwnByContract(uint256 tokenId) {\r\n        require(_ownerOfNft[tokenId] == _owner);\r\n        _;\r\n    }\r\n\r\n    constructor() ERC1155(\"\") {\r\n        _owner = msg.sender;\r\n        _hasRole[uint(ROLE.STUDENT)] = true;\r\n        _hasRole[uint(ROLE.TEACHER)] = true;\r\n    }\r\n\r\n    // Used for everyone: Section start\r\n    function getNftInfo(\r\n        uint256 tokenId\r\n    ) public view returns (NftIdentity memory, string memory) {\r\n        string memory tokenURI = uri(tokenId);\r\n        NftIdentity memory nftIdentity = getNftOfTokenId(tokenId);\r\n\r\n        return (nftIdentity, tokenURI);\r\n    }\r\n\r\n    function getNftOfTokenId(\r\n        uint256 tokenId\r\n    ) public view returns (NftIdentity memory) {\r\n        uint256 nftType = _getNftType(tokenId);\r\n        uint256 pos = _nftPosOfTokenId[tokenId];\r\n        require(pos > 0, \"Nft is not exist\");\r\n\r\n        return _nftsOfRole[nftType][pos - 1];\r\n    }\r\n\r\n    // Used for everyone: Section end\r\n\r\n    // Used for teacher: Section start\r\n    /*\r\n        Teacher: if expired => request to extend =>\r\n            - Accept: Reset expired date\r\n            - Reject: Burn token\r\n        Student: if expired => Extend year end? (graduated won't own nft) => request to extend =>\r\n            - Accept: Reset expired date\r\n            - Reject: Burn token\r\n    */\r\n    function requestExtendExpiredNft() public {\r\n        uint256 tokenId = _nftOfOwner[msg.sender];\r\n        require(tokenId > 0, \"Haven't own any tokens\");\r\n        NftIdentity memory nftIdentity = getNftOfTokenId(tokenId);\r\n        require(\r\n            nftIdentity.expiredAt < block.timestamp,\r\n            \"Nft token hasn't been expired\"\r\n        );\r\n\r\n        safeTransferFrom(msg.sender, _owner, tokenId, ONE_NFT, msg.data);\r\n        _extendRequestTokenIds.push(tokenId);\r\n        _positionOfRequestTokenId[tokenId] = _extendRequestTokenIds.length;\r\n    }\r\n\r\n    // Used for student: Section start\r\n\r\n    // Used for other contracts: Section start\r\n    function isAbleToOperate(\r\n        address registerAddr\r\n    ) public view returns (bool, uint256) {\r\n        uint256 tokenId = _tokenIdOfRegisters[registerAddr];\r\n        if (tokenId == 0) {\r\n            return (false, 0);\r\n        }\r\n        NftIdentity memory nftIdentity = getNftOfTokenId(tokenId);\r\n\r\n        return (nftIdentity.expiredAt > block.timestamp, _getNftType(tokenId));\r\n    }\r\n\r\n    // Used for other contracts: Section end\r\n\r\n    // Used for owner: Section start\r\n    function registerNftIdentity(\r\n        uint256 role,\r\n        string memory documentURI\r\n    ) public payable {\r\n        require(msg.value == registerFee, \"not enough fee\");\r\n        require(role == uint256(ROLE.TEACHER), \"Not teacher\");\r\n        _register(role, documentURI);\r\n    }\r\n\r\n    function grantNftIdentity(\r\n        address targetAccount,\r\n        uint256 expiredAt,\r\n        string memory tokenURI\r\n    ) public hasRegistered(targetAccount) onlyOwner {\r\n        uint256 role = _getRegisteredRole(targetAccount);\r\n        _mintToken(role, targetAccount, expiredAt, tokenURI);\r\n    }\r\n\r\n    function getAllExtendExpiredRequest()\r\n        public\r\n        view\r\n        onlyOwner\r\n        returns (NftIdentity[] memory, string[] memory)\r\n    {\r\n        uint256 numberOfRequests = _extendRequestTokenIds.length;\r\n        NftIdentity[] memory nftIdentities = new NftIdentity[](\r\n            numberOfRequests\r\n        );\r\n        string[] memory tokenURIs = new string[](numberOfRequests);\r\n\r\n        for (uint256 index = 0; index < numberOfRequests; ++index) {\r\n            uint256 tokenId = _extendRequestTokenIds[index];\r\n            NftIdentity memory nftIdentity;\r\n            string memory tokenURI;\r\n            (nftIdentity, tokenURI) = getNftInfo(tokenId);\r\n\r\n            nftIdentities[index] = nftIdentity;\r\n            tokenURIs[index] = tokenURI;\r\n        }\r\n\r\n        return (nftIdentities, tokenURIs);\r\n    }\r\n\r\n    function extendExpiredNft(\r\n        uint256 tokenId,\r\n        uint256 nextExpiredAt\r\n    ) public onlyOwner tokenOwnByContract(tokenId) isAfterNow(nextExpiredAt) {\r\n        // For approve extend expired request\r\n        uint256 nftType = _getNftType(tokenId);\r\n        uint256 pos = _nftPosOfTokenId[tokenId];\r\n        require(pos > 0, \"Nft is not exist\");\r\n\r\n        _nftsOfRole[nftType][pos - 1].expiredAt = nextExpiredAt;\r\n    }\r\n\r\n    function burnNft(\r\n        uint256 tokenId\r\n    ) public onlyOwner tokenOwnByContract(tokenId) {\r\n        // For reject extend expired request\r\n        _burn(_owner, tokenId, ONE_NFT);\r\n    }\r\n\r\n    // Used for owner: Section start\r\n\r\n    // Used for members: Section start\r\n    function getOwnedNft()\r\n        public\r\n        view\r\n        returns (NftIdentity memory, string memory, bool, bool)\r\n    {\r\n        uint256 tokenId = _tokenIdOfRegisters[msg.sender];\r\n        NftIdentity memory nftIdentity = getNftOfTokenId(tokenId);\r\n        string memory tokenURI = uri(tokenId);\r\n        bool isExpired = nftIdentity.expiredAt <= block.timestamp;\r\n        bool isExpiredRequest = _positionOfRequestTokenId[tokenId] > 0;\r\n\r\n        return (nftIdentity, tokenURI, isExpired, isExpiredRequest);\r\n    }\r\n\r\n    function getRole() public view returns (uint256) {\r\n        if (msg.sender == _owner) {\r\n            return uint256(HIGHEST_OPERATOR_ID);\r\n        }\r\n\r\n        if (_registeredAddr[msg.sender] > 0) {\r\n            return uint256(REGISTERED_ID);\r\n        }\r\n\r\n        uint256 tokenId = _tokenIdOfRegisters[msg.sender];\r\n        if (tokenId == 0) {\r\n            return uint256(VISITOR_ID);\r\n        }\r\n\r\n        uint256 role = _getNftType(tokenId);\r\n\r\n        return role;\r\n    }\r\n\r\n    function depositNftIdentity() public {\r\n        uint256 tokenId = _nftOfOwner[msg.sender];\r\n        require(tokenId > 0, \"Invalid operation\");\r\n        NftIdentity memory nftIdentity = getNftOfTokenId(tokenId);\r\n\r\n        if (nftIdentity.expiredAt > block.timestamp) {\r\n            safeTransferFrom(msg.sender, _owner, tokenId, ONE_NFT, msg.data);\r\n        } else {\r\n            // If NFT haven't extend but try to operate\r\n            _burn(msg.sender, tokenId, ONE_NFT);\r\n        }\r\n    }\r\n\r\n    function withdrawNftIdentity() public {\r\n        uint256 tokenId = _tokenIdOfRegisters[msg.sender];\r\n        require(tokenId > 0, \"Haven't owned any nfts yet\");\r\n        require(_ownerOfNft[tokenId] == _owner, \"Nft hasn't been deposited\");\r\n\r\n        safeTransferFrom(_owner, msg.sender, tokenId, ONE_NFT, msg.data);\r\n    }\r\n\r\n    // Used for members: Section end\r\n\r\n    function _beforeTokenTransfer(\r\n        address operator,\r\n        address from,\r\n        address to,\r\n        uint256[] memory ids,\r\n        uint256[] memory amounts,\r\n        bytes memory data\r\n    ) internal virtual override {\r\n        super._beforeTokenTransfer(operator, from, to, ids, amounts, data);\r\n        require(\r\n            from == address(0) || to == address(0),\r\n            \"Only mint or burn is allowed\"\r\n        );\r\n\r\n        uint256 tokenId = ids[0];\r\n\r\n        if (from != address(0)) {\r\n            delete _nftOfOwner[from];\r\n            delete _ownerOfNft[tokenId];\r\n        }\r\n\r\n        if (to != address(0)) {\r\n            _nftOfOwner[to] = tokenId;\r\n            _ownerOfNft[tokenId] = to;\r\n        } else {\r\n            // burn\r\n            _removeTokenIdFromAllTokens(tokenId);\r\n            delete _tokenIdOfRegisters[from];\r\n        }\r\n    }\r\n\r\n    function _removeTokenIdFromAllTokens(uint256 tokenId) private {\r\n        uint256 nftPos = _nftPosOfTokenId[tokenId];\r\n        uint256 nftType = _getNftType(tokenId);\r\n        uint256 nftCount = _nftsOfRole[nftType].length;\r\n\r\n        if (nftCount != nftPos) {\r\n            NftIdentity memory lastNft = _nftsOfRole[nftType][nftCount - 1];\r\n            _nftsOfRole[nftType][nftPos - 1] = lastNft;\r\n            _nftPosOfTokenId[lastNft.tokenId] = nftPos;\r\n        }\r\n        _nftsOfRole[nftType].pop();\r\n        delete _nftPosOfTokenId[tokenId];\r\n    }\r\n\r\n    function _mintTokens(\r\n        uint256 role,\r\n        address[] memory to,\r\n        uint256[] memory expiredAt,\r\n        string[] memory tokenURI\r\n    ) private allowedRole(role) canGenerateNewTokens(role, to.length) {\r\n        require(to.length == expiredAt.length, \"Invalid params\");\r\n        require(to.length == tokenURI.length, \"Invalid params\");\r\n        uint256 targetCount = to.length;\r\n\r\n        for (uint256 index = 0; index < targetCount; ++index) {\r\n            if (_nftOfOwner[to[index]] > 0) {\r\n                revert(\"Nft Identity must be unique\");\r\n            }\r\n            _mintToken(role, to[index], expiredAt[index], tokenURI[index]);\r\n        }\r\n    }\r\n\r\n    function _mintToken(\r\n        uint256 role,\r\n        address to,\r\n        uint256 expiredAt,\r\n        string memory tokenURI\r\n    ) private returns (uint256) {\r\n        require(!_usedTokenURI[tokenURI], \"Token URI has already used\");\r\n        uint256 tokenId = _generateNewTokenId(role);\r\n        _setURI(tokenId, tokenURI);\r\n\r\n        _createNftIdentity(tokenId, expiredAt);\r\n        _mint(to, tokenId, ONE_NFT, msg.data);\r\n\r\n        return tokenId;\r\n    }\r\n\r\n    function _createNftIdentity(uint256 tokenId, uint256 expiredAt) private {\r\n        uint256 nftType = _getNftType(tokenId);\r\n        NftIdentity memory nftIdentity = NftIdentity(\r\n            tokenId,\r\n            msg.sender,\r\n            expiredAt\r\n        );\r\n\r\n        _nftsOfRole[nftType].push(nftIdentity);\r\n        _nftPosOfTokenId[tokenId] = _nftsOfRole[nftType].length;\r\n        _tokenIdOfRegisters[msg.sender] = tokenId;\r\n    }\r\n\r\n    function _getNftType(uint256 tokenId) private pure returns (uint256) {\r\n        return tokenId >> INDEX_BITS;\r\n    }\r\n\r\n    function _generateNewTokenId(uint256 role) private returns (uint256) {\r\n        _maxTokenIdIndexOfRole[role].increment();\r\n        uint256 tokenId = _maxTokenIdIndexOfRole[role].current();\r\n\r\n        return (role << INDEX_BITS) | tokenId;\r\n    }\r\n}\r\n",
  "sourcePath": "E:\\learn\\learn-to-earn\\contracts\\NftIdentities.sol",
  "compiler": {
    "name": "solc",
    "version": "0.8.13+commit.abaa5c0e.Emscripten.clang"
  },
  "schemaVersion": "3.4.13",
  "updatedAt": "2023-03-19T14:28:00.092Z",
  "networkType": "ethereum",
  "devdoc": {
    "kind": "dev",
    "methods": {
      "balanceOf(address,uint256)": {
        "details": "See {IERC1155-balanceOf}. Requirements: - `account` cannot be the zero address."
      },
      "balanceOfBatch(address[],uint256[])": {
        "details": "See {IERC1155-balanceOfBatch}. Requirements: - `accounts` and `ids` must have the same length."
      },
      "isApprovedForAll(address,address)": {
        "details": "See {IERC1155-isApprovedForAll}."
      },
      "safeBatchTransferFrom(address,address,uint256[],uint256[],bytes)": {
        "details": "See {IERC1155-safeBatchTransferFrom}."
      },
      "safeTransferFrom(address,address,uint256,uint256,bytes)": {
        "details": "See {IERC1155-safeTransferFrom}."
      },
      "setApprovalForAll(address,bool)": {
        "details": "See {IERC1155-setApprovalForAll}."
      },
      "supportsInterface(bytes4)": {
        "details": "See {IERC165-supportsInterface}."
      },
      "uri(uint256)": {
        "details": "See {IERC1155MetadataURI-uri}. This implementation returns the concatenation of the `_baseURI` and the token-specific uri if the latter is set This enables the following behaviors: - if `_tokenURIs[tokenId]` is set, then the result is the concatenation   of `_baseURI` and `_tokenURIs[tokenId]` (keep in mind that `_baseURI`   is empty per default); - if `_tokenURIs[tokenId]` is NOT set then we fallback to `super.uri()`   which in most cases will contain `ERC1155._uri`; - if `_tokenURIs[tokenId]` is NOT set, and if the parents do not have a   uri value set, then the result is empty."
      }
    },
    "version": 1
  },
  "userdoc": {
    "kind": "user",
    "methods": {},
    "version": 1
  }
}