{
  "contractName": "NftIdentities",
  "abi": [
    {
      "inputs": [
        {
          "internalType": "address",
          "name": "schoolAccount",
          "type": "address"
        }
      ],
      "stateMutability": "nonpayable",
      "type": "constructor"
    },
    {
      "anonymous": false,
      "inputs": [
        {
          "indexed": true,
          "internalType": "address",
          "name": "account",
          "type": "address"
        },
        {
          "indexed": true,
          "internalType": "address",
          "name": "operator",
          "type": "address"
        },
        {
          "indexed": false,
          "internalType": "bool",
          "name": "approved",
          "type": "bool"
        }
      ],
      "name": "ApprovalForAll",
      "type": "event"
    },
    {
      "anonymous": false,
      "inputs": [
        {
          "indexed": true,
          "internalType": "address",
          "name": "operator",
          "type": "address"
        },
        {
          "indexed": true,
          "internalType": "address",
          "name": "from",
          "type": "address"
        },
        {
          "indexed": true,
          "internalType": "address",
          "name": "to",
          "type": "address"
        },
        {
          "indexed": false,
          "internalType": "uint256[]",
          "name": "ids",
          "type": "uint256[]"
        },
        {
          "indexed": false,
          "internalType": "uint256[]",
          "name": "values",
          "type": "uint256[]"
        }
      ],
      "name": "TransferBatch",
      "type": "event"
    },
    {
      "anonymous": false,
      "inputs": [
        {
          "indexed": true,
          "internalType": "address",
          "name": "operator",
          "type": "address"
        },
        {
          "indexed": true,
          "internalType": "address",
          "name": "from",
          "type": "address"
        },
        {
          "indexed": true,
          "internalType": "address",
          "name": "to",
          "type": "address"
        },
        {
          "indexed": false,
          "internalType": "uint256",
          "name": "id",
          "type": "uint256"
        },
        {
          "indexed": false,
          "internalType": "uint256",
          "name": "value",
          "type": "uint256"
        }
      ],
      "name": "TransferSingle",
      "type": "event"
    },
    {
      "anonymous": false,
      "inputs": [
        {
          "indexed": false,
          "internalType": "string",
          "name": "value",
          "type": "string"
        },
        {
          "indexed": true,
          "internalType": "uint256",
          "name": "id",
          "type": "uint256"
        }
      ],
      "name": "URI",
      "type": "event"
    },
    {
      "inputs": [
        {
          "internalType": "address",
          "name": "account",
          "type": "address"
        },
        {
          "internalType": "uint256",
          "name": "id",
          "type": "uint256"
        }
      ],
      "name": "balanceOf",
      "outputs": [
        {
          "internalType": "uint256",
          "name": "",
          "type": "uint256"
        }
      ],
      "stateMutability": "view",
      "type": "function",
      "constant": true
    },
    {
      "inputs": [
        {
          "internalType": "address[]",
          "name": "accounts",
          "type": "address[]"
        },
        {
          "internalType": "uint256[]",
          "name": "ids",
          "type": "uint256[]"
        }
      ],
      "name": "balanceOfBatch",
      "outputs": [
        {
          "internalType": "uint256[]",
          "name": "",
          "type": "uint256[]"
        }
      ],
      "stateMutability": "view",
      "type": "function",
      "constant": true
    },
    {
      "inputs": [],
      "name": "getAllOwnedRegistrationInfos",
      "outputs": [
        {
          "components": [
            {
              "components": [
                {
                  "internalType": "address",
                  "name": "applicant",
                  "type": "address"
                },
                {
                  "internalType": "string",
                  "name": "documentURI",
                  "type": "string"
                }
              ],
              "internalType": "struct Registration.RegistrationInfo",
              "name": "detail",
              "type": "tuple"
            },
            {
              "internalType": "uint256",
              "name": "role",
              "type": "uint256"
            }
          ],
          "internalType": "struct Registration.RegistrationInfoResponse[]",
          "name": "",
          "type": "tuple[]"
        }
      ],
      "stateMutability": "view",
      "type": "function",
      "constant": true
    },
    {
      "inputs": [
        {
          "internalType": "uint256",
          "name": "role",
          "type": "uint256"
        }
      ],
      "name": "getAllRegistrationInfosByRole",
      "outputs": [
        {
          "components": [
            {
              "internalType": "address",
              "name": "applicant",
              "type": "address"
            },
            {
              "internalType": "string",
              "name": "documentURI",
              "type": "string"
            }
          ],
          "internalType": "struct Registration.RegistrationInfo[]",
          "name": "",
          "type": "tuple[]"
        }
      ],
      "stateMutability": "view",
      "type": "function",
      "constant": true
    },
    {
      "inputs": [
        {
          "internalType": "address",
          "name": "account",
          "type": "address"
        },
        {
          "internalType": "address",
          "name": "operator",
          "type": "address"
        }
      ],
      "name": "isApprovedForAll",
      "outputs": [
        {
          "internalType": "bool",
          "name": "",
          "type": "bool"
        }
      ],
      "stateMutability": "view",
      "type": "function",
      "constant": true
    },
    {
      "inputs": [],
      "name": "isOwner",
      "outputs": [
        {
          "internalType": "bool",
          "name": "",
          "type": "bool"
        }
      ],
      "stateMutability": "view",
      "type": "function",
      "constant": true
    },
    {
      "inputs": [],
      "name": "registerFee",
      "outputs": [
        {
          "internalType": "uint256",
          "name": "",
          "type": "uint256"
        }
      ],
      "stateMutability": "view",
      "type": "function",
      "constant": true
    },
    {
      "inputs": [
        {
          "internalType": "address",
          "name": "from",
          "type": "address"
        },
        {
          "internalType": "address",
          "name": "to",
          "type": "address"
        },
        {
          "internalType": "uint256[]",
          "name": "ids",
          "type": "uint256[]"
        },
        {
          "internalType": "uint256[]",
          "name": "amounts",
          "type": "uint256[]"
        },
        {
          "internalType": "bytes",
          "name": "data",
          "type": "bytes"
        }
      ],
      "name": "safeBatchTransferFrom",
      "outputs": [],
      "stateMutability": "nonpayable",
      "type": "function"
    },
    {
      "inputs": [
        {
          "internalType": "address",
          "name": "from",
          "type": "address"
        },
        {
          "internalType": "address",
          "name": "to",
          "type": "address"
        },
        {
          "internalType": "uint256",
          "name": "id",
          "type": "uint256"
        },
        {
          "internalType": "uint256",
          "name": "amount",
          "type": "uint256"
        },
        {
          "internalType": "bytes",
          "name": "data",
          "type": "bytes"
        }
      ],
      "name": "safeTransferFrom",
      "outputs": [],
      "stateMutability": "nonpayable",
      "type": "function"
    },
    {
      "inputs": [
        {
          "internalType": "address",
          "name": "operator",
          "type": "address"
        },
        {
          "internalType": "bool",
          "name": "approved",
          "type": "bool"
        }
      ],
      "name": "setApprovalForAll",
      "outputs": [],
      "stateMutability": "nonpayable",
      "type": "function"
    },
    {
      "inputs": [
        {
          "internalType": "bytes4",
          "name": "interfaceId",
          "type": "bytes4"
        }
      ],
      "name": "supportsInterface",
      "outputs": [
        {
          "internalType": "bool",
          "name": "",
          "type": "bool"
        }
      ],
      "stateMutability": "view",
      "type": "function",
      "constant": true
    },
    {
      "inputs": [
        {
          "internalType": "uint256",
          "name": "tokenId",
          "type": "uint256"
        }
      ],
      "name": "uri",
      "outputs": [
        {
          "internalType": "string",
          "name": "",
          "type": "string"
        }
      ],
      "stateMutability": "view",
      "type": "function",
      "constant": true
    },
    {
      "inputs": [
        {
          "internalType": "uint256",
          "name": "tokenId",
          "type": "uint256"
        }
      ],
      "name": "getTokenType",
      "outputs": [
        {
          "internalType": "uint256",
          "name": "",
          "type": "uint256"
        }
      ],
      "stateMutability": "pure",
      "type": "function",
      "constant": true
    },
    {
      "inputs": [
        {
          "internalType": "uint256",
          "name": "tokenId",
          "type": "uint256"
        }
      ],
      "name": "getNftOfTokenId",
      "outputs": [
        {
          "components": [
            {
              "components": [
                {
                  "internalType": "uint256",
                  "name": "tokenId",
                  "type": "uint256"
                },
                {
                  "internalType": "address",
                  "name": "register",
                  "type": "address"
                },
                {
                  "internalType": "uint256",
                  "name": "expiredAt",
                  "type": "uint256"
                }
              ],
              "internalType": "struct IConstant.NftIdentity",
              "name": "nftIdentity",
              "type": "tuple"
            },
            {
              "internalType": "string",
              "name": "tokenURI",
              "type": "string"
            },
            {
              "internalType": "uint256",
              "name": "role",
              "type": "uint256"
            },
            {
              "internalType": "bool",
              "name": "isExpired",
              "type": "bool"
            }
          ],
          "internalType": "struct IConstant.NftIdentityResponse",
          "name": "",
          "type": "tuple"
        }
      ],
      "stateMutability": "view",
      "type": "function",
      "constant": true
    },
    {
      "inputs": [
        {
          "internalType": "uint256",
          "name": "tokenId",
          "type": "uint256"
        }
      ],
      "name": "ownerOf",
      "outputs": [
        {
          "internalType": "address",
          "name": "",
          "type": "address"
        }
      ],
      "stateMutability": "view",
      "type": "function",
      "constant": true
    },
    {
      "inputs": [
        {
          "internalType": "address",
          "name": "registerAddr",
          "type": "address"
        },
        {
          "internalType": "uint256",
          "name": "role",
          "type": "uint256"
        }
      ],
      "name": "isAbleToOperate",
      "outputs": [
        {
          "internalType": "bool",
          "name": "",
          "type": "bool"
        }
      ],
      "stateMutability": "view",
      "type": "function",
      "constant": true
    },
    {
      "inputs": [
        {
          "internalType": "uint256",
          "name": "role",
          "type": "uint256"
        },
        {
          "internalType": "string",
          "name": "documentURI",
          "type": "string"
        }
      ],
      "name": "registerNftIdentity",
      "outputs": [],
      "stateMutability": "payable",
      "type": "function",
      "payable": true
    },
    {
      "inputs": [
        {
          "internalType": "address",
          "name": "targetAccount",
          "type": "address"
        },
        {
          "internalType": "uint256",
          "name": "role",
          "type": "uint256"
        },
        {
          "internalType": "uint256",
          "name": "expiredAt",
          "type": "uint256"
        },
        {
          "internalType": "string",
          "name": "tokenURI",
          "type": "string"
        }
      ],
      "name": "grantNftIdentity",
      "outputs": [],
      "stateMutability": "nonpayable",
      "type": "function"
    },
    {
      "inputs": [
        {
          "internalType": "address",
          "name": "to",
          "type": "address"
        },
        {
          "internalType": "uint256",
          "name": "role",
          "type": "uint256"
        }
      ],
      "name": "rejectNftIdentityRegistration",
      "outputs": [],
      "stateMutability": "nonpayable",
      "type": "function"
    },
    {
      "inputs": [],
      "name": "getOwnedNfts",
      "outputs": [
        {
          "components": [
            {
              "components": [
                {
                  "internalType": "uint256",
                  "name": "tokenId",
                  "type": "uint256"
                },
                {
                  "internalType": "address",
                  "name": "register",
                  "type": "address"
                },
                {
                  "internalType": "uint256",
                  "name": "expiredAt",
                  "type": "uint256"
                }
              ],
              "internalType": "struct IConstant.NftIdentity",
              "name": "nftIdentity",
              "type": "tuple"
            },
            {
              "internalType": "string",
              "name": "tokenURI",
              "type": "string"
            },
            {
              "internalType": "uint256",
              "name": "role",
              "type": "uint256"
            },
            {
              "internalType": "bool",
              "name": "isExpired",
              "type": "bool"
            }
          ],
          "internalType": "struct IConstant.NftIdentityResponse[]",
          "name": "",
          "type": "tuple[]"
        }
      ],
      "stateMutability": "view",
      "type": "function",
      "constant": true
    },
    {
      "inputs": [
        {
          "internalType": "uint256",
          "name": "role",
          "type": "uint256"
        }
      ],
      "name": "getAllMembers",
      "outputs": [
        {
          "components": [
            {
              "components": [
                {
                  "internalType": "uint256",
                  "name": "tokenId",
                  "type": "uint256"
                },
                {
                  "internalType": "address",
                  "name": "register",
                  "type": "address"
                },
                {
                  "internalType": "uint256",
                  "name": "expiredAt",
                  "type": "uint256"
                }
              ],
              "internalType": "struct IConstant.NftIdentity",
              "name": "nftIdentity",
              "type": "tuple"
            },
            {
              "internalType": "string",
              "name": "tokenURI",
              "type": "string"
            },
            {
              "internalType": "uint256",
              "name": "role",
              "type": "uint256"
            },
            {
              "internalType": "bool",
              "name": "isExpired",
              "type": "bool"
            }
          ],
          "internalType": "struct IConstant.NftIdentityResponse[]",
          "name": "",
          "type": "tuple[]"
        }
      ],
      "stateMutability": "view",
      "type": "function",
      "constant": true
    },
    {
      "inputs": [
        {
          "internalType": "uint256",
          "name": "role",
          "type": "uint256"
        },
        {
          "internalType": "address",
          "name": "sender",
          "type": "address"
        }
      ],
      "name": "getNftOfMemberWithRole",
      "outputs": [
        {
          "components": [
            {
              "components": [
                {
                  "internalType": "uint256",
                  "name": "tokenId",
                  "type": "uint256"
                },
                {
                  "internalType": "address",
                  "name": "register",
                  "type": "address"
                },
                {
                  "internalType": "uint256",
                  "name": "expiredAt",
                  "type": "uint256"
                }
              ],
              "internalType": "struct IConstant.NftIdentity",
              "name": "nftIdentity",
              "type": "tuple"
            },
            {
              "internalType": "string",
              "name": "tokenURI",
              "type": "string"
            },
            {
              "internalType": "uint256",
              "name": "role",
              "type": "uint256"
            },
            {
              "internalType": "bool",
              "name": "isExpired",
              "type": "bool"
            }
          ],
          "internalType": "struct IConstant.NftIdentityResponse",
          "name": "",
          "type": "tuple"
        }
      ],
      "stateMutability": "view",
      "type": "function",
      "constant": true
    },
    {
      "inputs": [
        {
          "internalType": "address",
          "name": "checkedAddr",
          "type": "address"
        },
        {
          "internalType": "uint256",
          "name": "role",
          "type": "uint256"
        }
      ],
      "name": "getNftTokenIdOfRole",
      "outputs": [
        {
          "internalType": "uint256",
          "name": "",
          "type": "uint256"
        }
      ],
      "stateMutability": "view",
      "type": "function",
      "constant": true
    }
  ],
  "bytecode": "0x60a060405260405180602001604052806000815250600390805190602001906200002b929190620001a6565b5066b1a2bc2ec50000600b553480156200004457600080fd5b5060405162005d0938038062005d0983398181016040528101906200006a9190620002c0565b604051806020016040528060008152506200008b816200018a60201b60201c565b5033600560006101000a81548173ffffffffffffffffffffffffffffffffffffffff021916908373ffffffffffffffffffffffffffffffffffffffff160217905550600160086000806001811115620000e957620000e8620002f2565b5b815260200190815260200160002060006101000a81548160ff0219169083151502179055506001600860006001808111156200012a5762000129620002f2565b5b815260200190815260200160002060006101000a81548160ff0219169083151502179055508073ffffffffffffffffffffffffffffffffffffffff1660808173ffffffffffffffffffffffffffffffffffffffff16815250505062000385565b8060029080519060200190620001a2929190620001a6565b5050565b828054620001b49062000350565b90600052602060002090601f016020900481019282620001d8576000855562000224565b82601f10620001f357805160ff191683800117855562000224565b8280016001018555821562000224579182015b828111156200022357825182559160200191906001019062000206565b5b50905062000233919062000237565b5090565b5b808211156200025257600081600090555060010162000238565b5090565b600080fd5b600073ffffffffffffffffffffffffffffffffffffffff82169050919050565b600062000288826200025b565b9050919050565b6200029a816200027b565b8114620002a657600080fd5b50565b600081519050620002ba816200028f565b92915050565b600060208284031215620002d957620002d862000256565b5b6000620002e984828501620002a9565b91505092915050565b7f4e487b7100000000000000000000000000000000000000000000000000000000600052602160045260246000fd5b7f4e487b7100000000000000000000000000000000000000000000000000000000600052602260045260246000fd5b600060028204905060018216806200036957607f821691505b6020821081036200037f576200037e62000321565b5b50919050565b608051615968620003a16000396000610f3401526159686000f3fe60806040526004361061013f5760003560e01c806357ef1e58116100b6578063bd4e7c8e1161006f578063bd4e7c8e146104c0578063c111c8bb146104e9578063d24cfbbe14610526578063d703df8b1461054f578063e985e9c51461058c578063f242432a146105c95761013f565b806357ef1e581461038a5780636352211e146103c757806370cbcb431461040457806376aed2e11461042f5780638f32d59b1461046c578063a22cb465146104975761013f565b80632eb2c2d6116101085780632eb2c2d61461025157806335f2e0be1461027a5780633a66e326146102b7578063443ebca7146102d35780634e1273f41461031057806352db77c41461034d5761013f565b8062fdd58e1461014457806301ffc9a71461018157806303f187ea146101be5780630e89341c146101e95780631108f70a14610226575b600080fd5b34801561015057600080fd5b5061016b60048036038101906101669190613c40565b6105f2565b6040516101789190613c8f565b60405180910390f35b34801561018d57600080fd5b506101a860048036038101906101a39190613d02565b6106ba565b6040516101b59190613d4a565b60405180910390f35b3480156101ca57600080fd5b506101d361079c565b6040516101e09190613c8f565b60405180910390f35b3480156101f557600080fd5b50610210600480360381019061020b9190613d65565b6107a2565b60405161021d9190613e2b565b60405180910390f35b34801561023257600080fd5b5061023b610887565b6040516102489190613ff1565b60405180910390f35b34801561025d57600080fd5b5061027860048036038101906102739190614210565b610b68565b005b34801561028657600080fd5b506102a1600480360381019061029c9190613d65565b610c09565b6040516102ae91906143a1565b60405180910390f35b6102d160048036038101906102cc9190614464565b610d74565b005b3480156102df57600080fd5b506102fa60048036038101906102f59190613c40565b610f9d565b6040516103079190613c8f565b60405180910390f35b34801561031c57600080fd5b5061033760048036038101906103329190614583565b610ff8565b60405161034491906146aa565b60405180910390f35b34801561035957600080fd5b50610374600480360381019061036f91906146cc565b611111565b60405161038191906147c0565b60405180910390f35b34801561039657600080fd5b506103b160048036038101906103ac9190613c40565b611180565b6040516103be9190613d4a565b60405180910390f35b3480156103d357600080fd5b506103ee60048036038101906103e99190613d65565b61120b565b6040516103fb91906147f1565b60405180910390f35b34801561041057600080fd5b50610419611248565b6040516104269190614931565b60405180910390f35b34801561043b57600080fd5b5061045660048036038101906104519190613d65565b6113a1565b6040516104639190613c8f565b60405180910390f35b34801561047857600080fd5b506104816113af565b60405161048e9190613d4a565b60405180910390f35b3480156104a357600080fd5b506104be60048036038101906104b9919061497f565b611407565b005b3480156104cc57600080fd5b506104e760048036038101906104e291906149bf565b61141d565b005b3480156104f557600080fd5b50610510600480360381019061050b9190613d65565b6114e2565b60405161051d9190614931565b60405180910390f35b34801561053257600080fd5b5061054d60048036038101906105489190613c40565b6115db565b005b34801561055b57600080fd5b5061057660048036038101906105719190613d65565b611691565b60405161058391906147c0565b60405180910390f35b34801561059857600080fd5b506105b360048036038101906105ae9190614a42565b611802565b6040516105c09190613d4a565b60405180910390f35b3480156105d557600080fd5b506105f060048036038101906105eb9190614a82565b611896565b005b60008073ffffffffffffffffffffffffffffffffffffffff168373ffffffffffffffffffffffffffffffffffffffff1603610662576040517f08c379a000000000000000000000000000000000000000000000000000000000815260040161065990614b8b565b60405180910390fd5b60008083815260200190815260200160002060008473ffffffffffffffffffffffffffffffffffffffff1673ffffffffffffffffffffffffffffffffffffffff16815260200190815260200160002054905092915050565b60007fd9b67a26000000000000000000000000000000000000000000000000000000007bffffffffffffffffffffffffffffffffffffffffffffffffffffffff1916827bffffffffffffffffffffffffffffffffffffffffffffffffffffffff1916148061078557507f0e89341c000000000000000000000000000000000000000000000000000000007bffffffffffffffffffffffffffffffffffffffffffffffffffffffff1916827bffffffffffffffffffffffffffffffffffffffffffffffffffffffff1916145b80610795575061079482611937565b5b9050919050565b600b5481565b606060006004600084815260200190815260200160002080546107c490614bda565b80601f01602080910402602001604051908101604052809291908181526020018280546107f090614bda565b801561083d5780601f106108125761010080835404028352916020019161083d565b820191906000526020600020905b81548152906001019060200180831161082057829003601f168201915b50505050509050600081511161085b57610856836119a1565b61087f565b60038160405160200161086f929190614cdb565b6040516020818303038152906040525b915050919050565b60606000600960003373ffffffffffffffffffffffffffffffffffffffff1673ffffffffffffffffffffffffffffffffffffffff16815260200190815260200160002080549050905060008167ffffffffffffffff8111156108ec576108eb614018565b5b60405190808252806020026020018201604052801561092557816020015b6109126139fe565b81526020019060019003908161090a5790505b50905060005b82811015610b5f576000600960003373ffffffffffffffffffffffffffffffffffffffff1673ffffffffffffffffffffffffffffffffffffffff168152602001908152602001600020828154811061098657610985614cff565b5b9060005260206000200154905060006007600083815260200190815260200160002060003373ffffffffffffffffffffffffffffffffffffffff1673ffffffffffffffffffffffffffffffffffffffff168152602001908152602001600020549050604051806040016040528060066000858152602001908152602001600020600184610a139190614d5d565b81548110610a2457610a23614cff565b5b90600052602060002090600202016040518060400160405290816000820160009054906101000a900473ffffffffffffffffffffffffffffffffffffffff1673ffffffffffffffffffffffffffffffffffffffff1673ffffffffffffffffffffffffffffffffffffffff168152602001600182018054610aa390614bda565b80601f0160208091040260200160405190810160405280929190818152602001828054610acf90614bda565b8015610b1c5780601f10610af157610100808354040283529160200191610b1c565b820191906000526020600020905b815481529060010190602001808311610aff57829003601f168201915b505050505081525050815260200183815250848481518110610b4157610b40614cff565b5b6020026020010181905250505080610b5890614d91565b905061092b565b50809250505090565b610b70611a35565b73ffffffffffffffffffffffffffffffffffffffff168573ffffffffffffffffffffffffffffffffffffffff161480610bb65750610bb585610bb0611a35565b611802565b5b610bf5576040517f08c379a0000000000000000000000000000000000000000000000000000000008152600401610bec90614e4b565b60405180910390fd5b610c028585858585611a3d565b5050505050565b6060610c136113af565b610c1c57600080fd5b60066000838152602001908152602001600020805480602002602001604051908101604052809291908181526020016000905b82821015610d6957838290600052602060002090600202016040518060400160405290816000820160009054906101000a900473ffffffffffffffffffffffffffffffffffffffff1673ffffffffffffffffffffffffffffffffffffffff1673ffffffffffffffffffffffffffffffffffffffff168152602001600182018054610cd890614bda565b80601f0160208091040260200160405190810160405280929190818152602001828054610d0490614bda565b8015610d515780601f10610d2657610100808354040283529160200191610d51565b820191906000526020600020905b815481529060010190602001808311610d3457829003601f168201915b50505050508152505081526020019060010190610c4f565b505050509050919050565b600b543414610db8576040517f08c379a0000000000000000000000000000000000000000000000000000000008152600401610daf90614eb7565b60405180910390fd5b600180811115610dcb57610dca614ed7565b5b821480610dea575060006001811115610de757610de6614ed7565b5b82145b610e29576040517f08c379a0000000000000000000000000000000000000000000000000000000008152600401610e2090614f52565b60405180910390fd5b600a81604051610e399190614f72565b908152602001604051809103902060009054906101000a900460ff1615610e95576040517f08c379a0000000000000000000000000000000000000000000000000000000008152600401610e8c90614fd5565b60405180910390fd5b60006007600084815260200190815260200160002060003373ffffffffffffffffffffffffffffffffffffffff1673ffffffffffffffffffffffffffffffffffffffff1681526020019081526020016000205414610f28576040517f08c379a0000000000000000000000000000000000000000000000000000000008152600401610f1f90615041565b60405180910390fd5b610f328282611d5e565b7f000000000000000000000000000000000000000000000000000000000000000073ffffffffffffffffffffffffffffffffffffffff166108fc349081150290604051600060405180830381858888f19350505050158015610f98573d6000803e3d6000fd5b505050565b6000601060008473ffffffffffffffffffffffffffffffffffffffff1673ffffffffffffffffffffffffffffffffffffffff168152602001908152602001600020600083815260200190815260200160002054905092915050565b6060815183511461103e576040517f08c379a0000000000000000000000000000000000000000000000000000000008152600401611035906150d3565b60405180910390fd5b6000835167ffffffffffffffff81111561105b5761105a614018565b5b6040519080825280602002602001820160405280156110895781602001602082028036833780820191505090505b50905060005b8451811015611106576110d68582815181106110ae576110ad614cff565b5b60200260200101518583815181106110c9576110c8614cff565b5b60200260200101516105f2565b8282815181106110e9576110e8614cff565b5b602002602001018181525050806110ff90614d91565b905061108f565b508091505092915050565b611119613a1e565b6000601060008473ffffffffffffffffffffffffffffffffffffffff1673ffffffffffffffffffffffffffffffffffffffff168152602001908152602001600020600085815260200190815260200160002054905061117781611691565b91505092915050565b600080601060008573ffffffffffffffffffffffffffffffffffffffff1673ffffffffffffffffffffffffffffffffffffffff1681526020019081526020016000206000848152602001908152602001600020549050600081036111e8576000915050611205565b60006111f382611691565b60000151905042816040015111925050505b92915050565b60006013600083815260200190815260200160002060009054906101000a900473ffffffffffffffffffffffffffffffffffffffff169050919050565b60606000601160003373ffffffffffffffffffffffffffffffffffffffff1673ffffffffffffffffffffffffffffffffffffffff1681526020019081526020016000208054806020026020016040519081016040528092919081815260200182805480156112d557602002820191906000526020600020905b8154815260200190600101908083116112c1575b5050505050905060008151905060008167ffffffffffffffff8111156112fe576112fd614018565b5b60405190808252806020026020018201604052801561133757816020015b611324613a1e565b81526020019060019003908161131c5790505b50905060005b828110156113975761136884828151811061135b5761135a614cff565b5b6020026020010151611691565b82828151811061137b5761137a614cff565b5b60200260200101819052508061139090614d91565b905061133d565b5080935050505090565b6000601082901c9050919050565b6000600560009054906101000a900473ffffffffffffffffffffffffffffffffffffffff1673ffffffffffffffffffffffffffffffffffffffff163373ffffffffffffffffffffffffffffffffffffffff1614905090565b611419611412611a35565b8383611f37565b5050565b6114256113af565b61142e57600080fd5b838360006007600083815260200190815260200160002060008473ffffffffffffffffffffffffffffffffffffffff1673ffffffffffffffffffffffffffffffffffffffff16815260200190815260200160002054116114c3576040517f08c379a00000000000000000000000000000000000000000000000000000000081526004016114ba9061513f565b60405180910390fd5b6114cf858786866120a3565b506114da8686612192565b505050505050565b60606000600d600084815260200190815260200160002080549050905060008167ffffffffffffffff81111561151b5761151a614018565b5b60405190808252806020026020018201604052801561155457816020015b611541613a1e565b8152602001906001900390816115395790505b50905060005b828110156115d0576115a1600d6000878152602001908152602001600020828154811061158a57611589614cff565b5b906000526020600020906003020160000154611691565b8282815181106115b4576115b3614cff565b5b6020026020010181905250806115c990614d91565b905061155a565b508092505050919050565b6115e36113af565b6115ec57600080fd5b818160006007600083815260200190815260200160002060008473ffffffffffffffffffffffffffffffffffffffff1673ffffffffffffffffffffffffffffffffffffffff1681526020019081526020016000205411611681576040517f08c379a00000000000000000000000000000000000000000000000000000000081526004016116789061513f565b60405180910390fd5b61168b8484612192565b50505050565b611699613a1e565b60006116a4836113a1565b90506000600e600085815260200190815260200160002054905060008111611701576040517f08c379a00000000000000000000000000000000000000000000000000000000081526004016116f8906151ab565b60405180910390fd5b6000600d60008481526020019081526020016000206001836117239190614d5d565b8154811061173457611733614cff565b5b9060005260206000209060030201604051806060016040529081600082015481526020016001820160009054906101000a900473ffffffffffffffffffffffffffffffffffffffff1673ffffffffffffffffffffffffffffffffffffffff1673ffffffffffffffffffffffffffffffffffffffff1681526020016002820154815250509050600060405180608001604052808381526020016117d5886107a2565b81526020016117e3886113a1565b8152602001428460400151101515815250905080945050505050919050565b6000600160008473ffffffffffffffffffffffffffffffffffffffff1673ffffffffffffffffffffffffffffffffffffffff16815260200190815260200160002060008373ffffffffffffffffffffffffffffffffffffffff1673ffffffffffffffffffffffffffffffffffffffff16815260200190815260200160002060009054906101000a900460ff16905092915050565b61189e611a35565b73ffffffffffffffffffffffffffffffffffffffff168573ffffffffffffffffffffffffffffffffffffffff1614806118e457506118e3856118de611a35565b611802565b5b611923576040517f08c379a000000000000000000000000000000000000000000000000000000000815260040161191a90614e4b565b60405180910390fd5b6119308585858585612518565b5050505050565b60007f01ffc9a7000000000000000000000000000000000000000000000000000000007bffffffffffffffffffffffffffffffffffffffffffffffffffffffff1916827bffffffffffffffffffffffffffffffffffffffffffffffffffffffff1916149050919050565b6060600280546119b090614bda565b80601f01602080910402602001604051908101604052809291908181526020018280546119dc90614bda565b8015611a295780601f106119fe57610100808354040283529160200191611a29565b820191906000526020600020905b815481529060010190602001808311611a0c57829003601f168201915b50505050509050919050565b600033905090565b8151835114611a81576040517f08c379a0000000000000000000000000000000000000000000000000000000008152600401611a789061523d565b60405180910390fd5b600073ffffffffffffffffffffffffffffffffffffffff168473ffffffffffffffffffffffffffffffffffffffff1603611af0576040517f08c379a0000000000000000000000000000000000000000000000000000000008152600401611ae7906152cf565b60405180910390fd5b6000611afa611a35565b9050611b0a8187878787876127b3565b60005b8451811015611cbb576000858281518110611b2b57611b2a614cff565b5b602002602001015190506000858381518110611b4a57611b49614cff565b5b60200260200101519050600080600084815260200190815260200160002060008b73ffffffffffffffffffffffffffffffffffffffff1673ffffffffffffffffffffffffffffffffffffffff16815260200190815260200160002054905081811015611beb576040517f08c379a0000000000000000000000000000000000000000000000000000000008152600401611be290615361565b60405180910390fd5b81810360008085815260200190815260200160002060008c73ffffffffffffffffffffffffffffffffffffffff1673ffffffffffffffffffffffffffffffffffffffff168152602001908152602001600020819055508160008085815260200190815260200160002060008b73ffffffffffffffffffffffffffffffffffffffff1673ffffffffffffffffffffffffffffffffffffffff1681526020019081526020016000206000828254611ca09190615381565b9250508190555050505080611cb490614d91565b9050611b0d565b508473ffffffffffffffffffffffffffffffffffffffff168673ffffffffffffffffffffffffffffffffffffffff168273ffffffffffffffffffffffffffffffffffffffff167f4a39dc06d4c0dbc64b70af90fd698a233a518aa5d07e595d983b8c0526c8f7fb8787604051611d329291906153d7565b60405180910390a4611d48818787878787612bcd565b611d56818787878787612bd5565b505050505050565b6006600083815260200190815260200160002060405180604001604052803373ffffffffffffffffffffffffffffffffffffffff16815260200183815250908060018154018082558091505060019003906000526020600020906002020160009091909190915060008201518160000160006101000a81548173ffffffffffffffffffffffffffffffffffffffff021916908373ffffffffffffffffffffffffffffffffffffffff1602179055506020820151816001019080519060200190611e28929190613a4e565b505050600960003373ffffffffffffffffffffffffffffffffffffffff1673ffffffffffffffffffffffffffffffffffffffff16815260200190815260200160002082908060018154018082558091505060019003906000526020600020016000909190919091505560066000838152602001908152602001600020805490506007600084815260200190815260200160002060003373ffffffffffffffffffffffffffffffffffffffff1673ffffffffffffffffffffffffffffffffffffffff168152602001908152602001600020819055506001600a82604051611f0e9190614f72565b908152602001604051809103902060006101000a81548160ff0219169083151502179055505050565b8173ffffffffffffffffffffffffffffffffffffffff168373ffffffffffffffffffffffffffffffffffffffff1603611fa5576040517f08c379a0000000000000000000000000000000000000000000000000000000008152600401611f9c90615480565b60405180910390fd5b80600160008573ffffffffffffffffffffffffffffffffffffffff1673ffffffffffffffffffffffffffffffffffffffff16815260200190815260200160002060008473ffffffffffffffffffffffffffffffffffffffff1673ffffffffffffffffffffffffffffffffffffffff16815260200190815260200160002060006101000a81548160ff0219169083151502179055508173ffffffffffffffffffffffffffffffffffffffff168373ffffffffffffffffffffffffffffffffffffffff167f17307eab39ab6107e8899845ad3d59bd9653f200f220920489ca2b5937696c31836040516120969190613d4a565b60405180910390a3505050565b6000600f826040516120b59190614f72565b908152602001604051809103902060009054906101000a900460ff1615612111576040517f08c379a000000000000000000000000000000000000000000000000000000000815260040161210890614fd5565b60405180910390fd5b600061211c86612dac565b90506121288184612df7565b61213485878387612e63565b612186858260016000368080601f016020809104026020016040519081016040528093929190818152602001838380828437600081840152601f19601f82011690508083019250505050505050612f67565b80915050949350505050565b60006007600083815260200190815260200160002060008473ffffffffffffffffffffffffffffffffffffffff1673ffffffffffffffffffffffffffffffffffffffff1681526020019081526020016000205490506000600660008481526020019081526020016000208054905090508082146124415760006006600085815260200190815260200160002060018361222b9190614d5d565b8154811061223c5761223b614cff565b5b90600052602060002090600202016040518060400160405290816000820160009054906101000a900473ffffffffffffffffffffffffffffffffffffffff1673ffffffffffffffffffffffffffffffffffffffff1673ffffffffffffffffffffffffffffffffffffffff1681526020016001820180546122bb90614bda565b80601f01602080910402602001604051908101604052809291908181526020018280546122e790614bda565b80156123345780601f1061230957610100808354040283529160200191612334565b820191906000526020600020905b81548152906001019060200180831161231757829003601f168201915b505050505081525050905080600660008681526020019081526020016000206001856123609190614d5d565b8154811061237157612370614cff565b5b906000526020600020906002020160008201518160000160006101000a81548173ffffffffffffffffffffffffffffffffffffffff021916908373ffffffffffffffffffffffffffffffffffffffff16021790555060208201518160010190805190602001906123e2929190613a4e565b5090505082600760008681526020019081526020016000206000836000015173ffffffffffffffffffffffffffffffffffffffff1673ffffffffffffffffffffffffffffffffffffffff16815260200190815260200160002081905550505b60066000848152602001908152602001600020805480612464576124636154a0565b5b6001900381819060005260206000209060020201600080820160006101000a81549073ffffffffffffffffffffffffffffffffffffffff02191690556001820160006124b09190613ad4565b505090556124be8484613117565b6007600084815260200190815260200160002060008573ffffffffffffffffffffffffffffffffffffffff1673ffffffffffffffffffffffffffffffffffffffff1681526020019081526020016000206000905550505050565b600073ffffffffffffffffffffffffffffffffffffffff168473ffffffffffffffffffffffffffffffffffffffff1603612587576040517f08c379a000000000000000000000000000000000000000000000000000000000815260040161257e906152cf565b60405180910390fd5b6000612591611a35565b9050600061259e85613339565b905060006125ab85613339565b90506125bb8389898585896127b3565b600080600088815260200190815260200160002060008a73ffffffffffffffffffffffffffffffffffffffff1673ffffffffffffffffffffffffffffffffffffffff16815260200190815260200160002054905085811015612652576040517f08c379a000000000000000000000000000000000000000000000000000000000815260040161264990615361565b60405180910390fd5b85810360008089815260200190815260200160002060008b73ffffffffffffffffffffffffffffffffffffffff1673ffffffffffffffffffffffffffffffffffffffff168152602001908152602001600020819055508560008089815260200190815260200160002060008a73ffffffffffffffffffffffffffffffffffffffff1673ffffffffffffffffffffffffffffffffffffffff16815260200190815260200160002060008282546127079190615381565b925050819055508773ffffffffffffffffffffffffffffffffffffffff168973ffffffffffffffffffffffffffffffffffffffff168573ffffffffffffffffffffffffffffffffffffffff167fc3d58168c5ae7397731d063d5bbf3d657854427343f4c083240f7aacaa2d0f628a8a6040516127849291906154cf565b60405180910390a461279a848a8a86868a612bcd565b6127a8848a8a8a8a8a6133b3565b505050505050505050565b6127c186868686868661358a565b600073ffffffffffffffffffffffffffffffffffffffff168573ffffffffffffffffffffffffffffffffffffffff1614806128285750600073ffffffffffffffffffffffffffffffffffffffff168473ffffffffffffffffffffffffffffffffffffffff16145b612867576040517f08c379a000000000000000000000000000000000000000000000000000000000815260040161285e90615544565b60405180910390fd5b60008351905060005b81811015612bc357600085828151811061288d5761288c614cff565b5b6020026020010151905060006128a2826113a1565b9050600073ffffffffffffffffffffffffffffffffffffffff168973ffffffffffffffffffffffffffffffffffffffff1614612971576128e28983613592565b601060008a73ffffffffffffffffffffffffffffffffffffffff1673ffffffffffffffffffffffffffffffffffffffff1681526020019081526020016000206000828152602001908152602001600020600090556013600083815260200190815260200160002060006101000a81549073ffffffffffffffffffffffffffffffffffffffff0219169055612972565b5b600073ffffffffffffffffffffffffffffffffffffffff168873ffffffffffffffffffffffffffffffffffffffff1614612b1257601160008973ffffffffffffffffffffffffffffffffffffffff1673ffffffffffffffffffffffffffffffffffffffff168152602001908152602001600020829080600181540180825580915050600190039060005260206000200160009091909190915055601160008973ffffffffffffffffffffffffffffffffffffffff1673ffffffffffffffffffffffffffffffffffffffff16815260200190815260200160002080549050601260008481526020019081526020016000208190555081601060008a73ffffffffffffffffffffffffffffffffffffffff1673ffffffffffffffffffffffffffffffffffffffff168152602001908152602001600020600083815260200190815260200160002081905550876013600084815260200190815260200160002060006101000a81548173ffffffffffffffffffffffffffffffffffffffff021916908373ffffffffffffffffffffffffffffffffffffffff160217905550612bb0565b612b1b8261376c565b612b258983613592565b601060008a73ffffffffffffffffffffffffffffffffffffffff1673ffffffffffffffffffffffffffffffffffffffff1681526020019081526020016000206000828152602001908152602001600020600090556013600083815260200190815260200160002060006101000a81549073ffffffffffffffffffffffffffffffffffffffff02191690555b505080612bbc90614d91565b9050612870565b5050505050505050565b505050505050565b612bf48473ffffffffffffffffffffffffffffffffffffffff166139b7565b15612da4578373ffffffffffffffffffffffffffffffffffffffff1663bc197c8187878686866040518663ffffffff1660e01b8152600401612c3a9594939291906155b9565b6020604051808303816000875af1925050508015612c7657506040513d601f19601f82011682018060405250810190612c739190615636565b60015b612d1b57612c82615670565b806308c379a003612cde5750612c96615692565b80612ca15750612ce0565b806040517f08c379a0000000000000000000000000000000000000000000000000000000008152600401612cd59190613e2b565b60405180910390fd5b505b6040517f08c379a0000000000000000000000000000000000000000000000000000000008152600401612d1290615794565b60405180910390fd5b63bc197c8160e01b7bffffffffffffffffffffffffffffffffffffffffffffffffffffffff1916817bffffffffffffffffffffffffffffffffffffffffffffffffffffffff191614612da2576040517f08c379a0000000000000000000000000000000000000000000000000000000008152600401612d9990615826565b60405180910390fd5b505b505050505050565b6000612dc9600c60008481526020019081526020016000206139da565b6000612de6600c60008581526020019081526020016000206139f0565b905080601084901b17915050919050565b80600460008481526020019081526020016000209080519060200190612e1e929190613a4e565b50817f6bb7ff708619ba0610cba295a58592e0451dee2622938c8755667688daf3529b612e4a846107a2565b604051612e579190613e2b565b60405180910390a25050565b600060405180606001604052808481526020018673ffffffffffffffffffffffffffffffffffffffff168152602001838152509050600d60008581526020019081526020016000208190806001815401808255809150506001900390600052602060002090600302016000909190919091506000820151816000015560208201518160010160006101000a81548173ffffffffffffffffffffffffffffffffffffffff021916908373ffffffffffffffffffffffffffffffffffffffff160217905550604082015181600201555050600d600085815260200190815260200160002080549050600e6000858152602001908152602001600020819055505050505050565b600073ffffffffffffffffffffffffffffffffffffffff168473ffffffffffffffffffffffffffffffffffffffff1603612fd6576040517f08c379a0000000000000000000000000000000000000000000000000000000008152600401612fcd906158b8565b60405180910390fd5b6000612fe0611a35565b90506000612fed85613339565b90506000612ffa85613339565b905061300b836000898585896127b3565b8460008088815260200190815260200160002060008973ffffffffffffffffffffffffffffffffffffffff1673ffffffffffffffffffffffffffffffffffffffff168152602001908152602001600020600082825461306a9190615381565b925050819055508673ffffffffffffffffffffffffffffffffffffffff16600073ffffffffffffffffffffffffffffffffffffffff168473ffffffffffffffffffffffffffffffffffffffff167fc3d58168c5ae7397731d063d5bbf3d657854427343f4c083240f7aacaa2d0f6289896040516130e89291906154cf565b60405180910390a46130ff83600089858589612bcd565b61310e836000898989896133b3565b50505050505050565b6000600960008473ffffffffffffffffffffffffffffffffffffffff1673ffffffffffffffffffffffffffffffffffffffff1681526020019081526020016000208054905090506000810361316c5750613335565b600081905060005b828110156131f757600960008673ffffffffffffffffffffffffffffffffffffffff1673ffffffffffffffffffffffffffffffffffffffff16815260200190815260200160002081815481106131cd576131cc614cff565b5b906000526020600020015484036131e6578091506131f7565b806131f090614d91565b9050613174565b50818103613206575050613335565b600960008573ffffffffffffffffffffffffffffffffffffffff1673ffffffffffffffffffffffffffffffffffffffff1681526020019081526020016000206001836132529190614d5d565b8154811061326357613262614cff565b5b9060005260206000200154600960008673ffffffffffffffffffffffffffffffffffffffff1673ffffffffffffffffffffffffffffffffffffffff16815260200190815260200160002082815481106132bf576132be614cff565b5b9060005260206000200181905550600960008573ffffffffffffffffffffffffffffffffffffffff1673ffffffffffffffffffffffffffffffffffffffff16815260200190815260200160002080548061331c5761331b6154a0565b5b6001900381819060005260206000200160009055905550505b5050565b60606000600167ffffffffffffffff81111561335857613357614018565b5b6040519080825280602002602001820160405280156133865781602001602082028036833780820191505090505b509050828160008151811061339e5761339d614cff565b5b60200260200101818152505080915050919050565b6133d28473ffffffffffffffffffffffffffffffffffffffff166139b7565b15613582578373ffffffffffffffffffffffffffffffffffffffff1663f23a6e6187878686866040518663ffffffff1660e01b81526004016134189594939291906158d8565b6020604051808303816000875af192505050801561345457506040513d601f19601f820116820180604052508101906134519190615636565b60015b6134f957613460615670565b806308c379a0036134bc5750613474615692565b8061347f57506134be565b806040517f08c379a00000000000000000000000000000000000000000000000000000000081526004016134b39190613e2b565b60405180910390fd5b505b6040517f08c379a00000000000000000000000000000000000000000000000000000000081526004016134f090615794565b60405180910390fd5b63f23a6e6160e01b7bffffffffffffffffffffffffffffffffffffffffffffffffffffffff1916817bffffffffffffffffffffffffffffffffffffffffffffffffffffffff191614613580576040517f08c379a000000000000000000000000000000000000000000000000000000000815260040161357790615826565b60405180910390fd5b505b505050505050565b505050505050565b6000601260008381526020019081526020016000205490506000601160008573ffffffffffffffffffffffffffffffffffffffff1673ffffffffffffffffffffffffffffffffffffffff1681526020019081526020016000208054905090508181146136ea576000601160008673ffffffffffffffffffffffffffffffffffffffff1673ffffffffffffffffffffffffffffffffffffffff1681526020019081526020016000206001836136469190614d5d565b8154811061365757613656614cff565b5b9060005260206000200154905080601160008773ffffffffffffffffffffffffffffffffffffffff1673ffffffffffffffffffffffffffffffffffffffff1681526020019081526020016000206001856136b19190614d5d565b815481106136c2576136c1614cff565b5b9060005260206000200181905550826012600083815260200190815260200160002081905550505b601160008573ffffffffffffffffffffffffffffffffffffffff1673ffffffffffffffffffffffffffffffffffffffff168152602001908152602001600020805480613739576137386154a0565b5b60019003818190600052602060002001600090559055601260008481526020019081526020016000206000905550505050565b6000600e6000838152602001908152602001600020549050600061378f836113a1565b90506000600d6000838152602001908152602001600020805490509050828114613927576000600d60008481526020019081526020016000206001836137d59190614d5d565b815481106137e6576137e5614cff565b5b9060005260206000209060030201604051806060016040529081600082015481526020016001820160009054906101000a900473ffffffffffffffffffffffffffffffffffffffff1673ffffffffffffffffffffffffffffffffffffffff1673ffffffffffffffffffffffffffffffffffffffff168152602001600282015481525050905080600d600085815260200190815260200160002060018661388c9190614d5d565b8154811061389d5761389c614cff565b5b90600052602060002090600302016000820151816000015560208201518160010160006101000a81548173ffffffffffffffffffffffffffffffffffffffff021916908373ffffffffffffffffffffffffffffffffffffffff1602179055506040820151816002015590505083600e60008360000151815260200190815260200160002081905550505b600d600083815260200190815260200160002080548061394a576139496154a0565b5b60019003818190600052602060002090600302016000808201600090556001820160006101000a81549073ffffffffffffffffffffffffffffffffffffffff0219169055600282016000905550509055600e60008581526020019081526020016000206000905550505050565b6000808273ffffffffffffffffffffffffffffffffffffffff163b119050919050565b6001816000016000828254019250508190555050565b600081600001549050919050565b6040518060400160405280613a11613b14565b8152602001600081525090565b6040518060800160405280613a31613b44565b815260200160608152602001600081526020016000151581525090565b828054613a5a90614bda565b90600052602060002090601f016020900481019282613a7c5760008555613ac3565b82601f10613a9557805160ff1916838001178555613ac3565b82800160010185558215613ac3579182015b82811115613ac2578251825591602001919060010190613aa7565b5b509050613ad09190613b7b565b5090565b508054613ae090614bda565b6000825580601f10613af25750613b11565b601f016020900490600052602060002090810190613b109190613b7b565b5b50565b6040518060400160405280600073ffffffffffffffffffffffffffffffffffffffff168152602001606081525090565b604051806060016040528060008152602001600073ffffffffffffffffffffffffffffffffffffffff168152602001600081525090565b5b80821115613b94576000816000905550600101613b7c565b5090565b6000604051905090565b600080fd5b600080fd5b600073ffffffffffffffffffffffffffffffffffffffff82169050919050565b6000613bd782613bac565b9050919050565b613be781613bcc565b8114613bf257600080fd5b50565b600081359050613c0481613bde565b92915050565b6000819050919050565b613c1d81613c0a565b8114613c2857600080fd5b50565b600081359050613c3a81613c14565b92915050565b60008060408385031215613c5757613c56613ba2565b5b6000613c6585828601613bf5565b9250506020613c7685828601613c2b565b9150509250929050565b613c8981613c0a565b82525050565b6000602082019050613ca46000830184613c80565b92915050565b60007fffffffff0000000000000000000000000000000000000000000000000000000082169050919050565b613cdf81613caa565b8114613cea57600080fd5b50565b600081359050613cfc81613cd6565b92915050565b600060208284031215613d1857613d17613ba2565b5b6000613d2684828501613ced565b91505092915050565b60008115159050919050565b613d4481613d2f565b82525050565b6000602082019050613d5f6000830184613d3b565b92915050565b600060208284031215613d7b57613d7a613ba2565b5b6000613d8984828501613c2b565b91505092915050565b600081519050919050565b600082825260208201905092915050565b60005b83811015613dcc578082015181840152602081019050613db1565b83811115613ddb576000848401525b50505050565b6000601f19601f8301169050919050565b6000613dfd82613d92565b613e078185613d9d565b9350613e17818560208601613dae565b613e2081613de1565b840191505092915050565b60006020820190508181036000830152613e458184613df2565b905092915050565b600081519050919050565b600082825260208201905092915050565b6000819050602082019050919050565b613e8281613bcc565b82525050565b600082825260208201905092915050565b6000613ea482613d92565b613eae8185613e88565b9350613ebe818560208601613dae565b613ec781613de1565b840191505092915050565b6000604083016000830151613eea6000860182613e79565b5060208301518482036020860152613f028282613e99565b9150508091505092915050565b613f1881613c0a565b82525050565b60006040830160008301518482036000860152613f3b8282613ed2565b9150506020830151613f506020860182613f0f565b508091505092915050565b6000613f678383613f1e565b905092915050565b6000602082019050919050565b6000613f8782613e4d565b613f918185613e58565b935083602082028501613fa385613e69565b8060005b85811015613fdf5784840389528151613fc08582613f5b565b9450613fcb83613f6f565b925060208a01995050600181019050613fa7565b50829750879550505050505092915050565b6000602082019050818103600083015261400b8184613f7c565b905092915050565b600080fd5b7f4e487b7100000000000000000000000000000000000000000000000000000000600052604160045260246000fd5b61405082613de1565b810181811067ffffffffffffffff8211171561406f5761406e614018565b5b80604052505050565b6000614082613b98565b905061408e8282614047565b919050565b600067ffffffffffffffff8211156140ae576140ad614018565b5b602082029050602081019050919050565b600080fd5b60006140d76140d284614093565b614078565b905080838252602082019050602084028301858111156140fa576140f96140bf565b5b835b81811015614123578061410f8882613c2b565b8452602084019350506020810190506140fc565b5050509392505050565b600082601f83011261414257614141614013565b5b81356141528482602086016140c4565b91505092915050565b600080fd5b600067ffffffffffffffff82111561417b5761417a614018565b5b61418482613de1565b9050602081019050919050565b82818337600083830152505050565b60006141b36141ae84614160565b614078565b9050828152602081018484840111156141cf576141ce61415b565b5b6141da848285614191565b509392505050565b600082601f8301126141f7576141f6614013565b5b81356142078482602086016141a0565b91505092915050565b600080600080600060a0868803121561422c5761422b613ba2565b5b600061423a88828901613bf5565b955050602061424b88828901613bf5565b945050604086013567ffffffffffffffff81111561426c5761426b613ba7565b5b6142788882890161412d565b935050606086013567ffffffffffffffff81111561429957614298613ba7565b5b6142a58882890161412d565b925050608086013567ffffffffffffffff8111156142c6576142c5613ba7565b5b6142d2888289016141e2565b9150509295509295909350565b600081519050919050565b600082825260208201905092915050565b6000819050602082019050919050565b60006143178383613ed2565b905092915050565b6000602082019050919050565b6000614337826142df565b61434181856142ea565b935083602082028501614353856142fb565b8060005b8581101561438f5784840389528151614370858261430b565b945061437b8361431f565b925060208a01995050600181019050614357565b50829750879550505050505092915050565b600060208201905081810360008301526143bb818461432c565b905092915050565b600067ffffffffffffffff8211156143de576143dd614018565b5b6143e782613de1565b9050602081019050919050565b6000614407614402846143c3565b614078565b9050828152602081018484840111156144235761442261415b565b5b61442e848285614191565b509392505050565b600082601f83011261444b5761444a614013565b5b813561445b8482602086016143f4565b91505092915050565b6000806040838503121561447b5761447a613ba2565b5b600061448985828601613c2b565b925050602083013567ffffffffffffffff8111156144aa576144a9613ba7565b5b6144b685828601614436565b9150509250929050565b600067ffffffffffffffff8211156144db576144da614018565b5b602082029050602081019050919050565b60006144ff6144fa846144c0565b614078565b90508083825260208201905060208402830185811115614522576145216140bf565b5b835b8181101561454b57806145378882613bf5565b845260208401935050602081019050614524565b5050509392505050565b600082601f83011261456a57614569614013565b5b813561457a8482602086016144ec565b91505092915050565b6000806040838503121561459a57614599613ba2565b5b600083013567ffffffffffffffff8111156145b8576145b7613ba7565b5b6145c485828601614555565b925050602083013567ffffffffffffffff8111156145e5576145e4613ba7565b5b6145f18582860161412d565b9150509250929050565b600081519050919050565b600082825260208201905092915050565b6000819050602082019050919050565b60006146338383613f0f565b60208301905092915050565b6000602082019050919050565b6000614657826145fb565b6146618185614606565b935061466c83614617565b8060005b8381101561469d5781516146848882614627565b975061468f8361463f565b925050600181019050614670565b5085935050505092915050565b600060208201905081810360008301526146c4818461464c565b905092915050565b600080604083850312156146e3576146e2613ba2565b5b60006146f185828601613c2b565b925050602061470285828601613bf5565b9150509250929050565b6060820160008201516147226000850182613f0f565b5060208201516147356020850182613e79565b5060408201516147486040850182613f0f565b50505050565b61475781613d2f565b82525050565b600060c083016000830151614775600086018261470c565b506020830151848203606086015261478d8282613e99565b91505060408301516147a26080860182613f0f565b5060608301516147b560a086018261474e565b508091505092915050565b600060208201905081810360008301526147da818461475d565b905092915050565b6147eb81613bcc565b82525050565b600060208201905061480660008301846147e2565b92915050565b600081519050919050565b600082825260208201905092915050565b6000819050602082019050919050565b600060c083016000830151614850600086018261470c565b50602083015184820360608601526148688282613e99565b915050604083015161487d6080860182613f0f565b50606083015161489060a086018261474e565b508091505092915050565b60006148a78383614838565b905092915050565b6000602082019050919050565b60006148c78261480c565b6148d18185614817565b9350836020820285016148e385614828565b8060005b8581101561491f5784840389528151614900858261489b565b945061490b836148af565b925060208a019950506001810190506148e7565b50829750879550505050505092915050565b6000602082019050818103600083015261494b81846148bc565b905092915050565b61495c81613d2f565b811461496757600080fd5b50565b60008135905061497981614953565b92915050565b6000806040838503121561499657614995613ba2565b5b60006149a485828601613bf5565b92505060206149b58582860161496a565b9150509250929050565b600080600080608085870312156149d9576149d8613ba2565b5b60006149e787828801613bf5565b94505060206149f887828801613c2b565b9350506040614a0987828801613c2b565b925050606085013567ffffffffffffffff811115614a2a57614a29613ba7565b5b614a3687828801614436565b91505092959194509250565b60008060408385031215614a5957614a58613ba2565b5b6000614a6785828601613bf5565b9250506020614a7885828601613bf5565b9150509250929050565b600080600080600060a08688031215614a9e57614a9d613ba2565b5b6000614aac88828901613bf5565b9550506020614abd88828901613bf5565b9450506040614ace88828901613c2b565b9350506060614adf88828901613c2b565b925050608086013567ffffffffffffffff811115614b0057614aff613ba7565b5b614b0c888289016141e2565b9150509295509295909350565b7f455243313135353a2061646472657373207a65726f206973206e6f742061207660008201527f616c6964206f776e657200000000000000000000000000000000000000000000602082015250565b6000614b75602a83613d9d565b9150614b8082614b19565b604082019050919050565b60006020820190508181036000830152614ba481614b68565b9050919050565b7f4e487b7100000000000000000000000000000000000000000000000000000000600052602260045260246000fd5b60006002820490506001821680614bf257607f821691505b602082108103614c0557614c04614bab565b5b50919050565b600081905092915050565b60008190508160005260206000209050919050565b60008154614c3881614bda565b614c428186614c0b565b94506001821660008114614c5d5760018114614c6e57614ca1565b60ff19831686528186019350614ca1565b614c7785614c16565b60005b83811015614c9957815481890152600182019150602081019050614c7a565b838801955050505b50505092915050565b6000614cb582613d92565b614cbf8185614c0b565b9350614ccf818560208601613dae565b80840191505092915050565b6000614ce78285614c2b565b9150614cf38284614caa565b91508190509392505050565b7f4e487b7100000000000000000000000000000000000000000000000000000000600052603260045260246000fd5b7f4e487b7100000000000000000000000000000000000000000000000000000000600052601160045260246000fd5b6000614d6882613c0a565b9150614d7383613c0a565b925082821015614d8657614d85614d2e565b5b828203905092915050565b6000614d9c82613c0a565b91507fffffffffffffffffffffffffffffffffffffffffffffffffffffffffffffffff8203614dce57614dcd614d2e565b5b600182019050919050565b7f455243313135353a2063616c6c6572206973206e6f7420746f6b656e206f776e60008201527f6572206f7220617070726f766564000000000000000000000000000000000000602082015250565b6000614e35602e83613d9d565b9150614e4082614dd9565b604082019050919050565b60006020820190508181036000830152614e6481614e28565b9050919050565b7f432d4552522d3034000000000000000000000000000000000000000000000000600082015250565b6000614ea1600883613d9d565b9150614eac82614e6b565b602082019050919050565b60006020820190508181036000830152614ed081614e94565b9050919050565b7f4e487b7100000000000000000000000000000000000000000000000000000000600052602160045260246000fd5b7f4e492d4552522d30310000000000000000000000000000000000000000000000600082015250565b6000614f3c600983613d9d565b9150614f4782614f06565b602082019050919050565b60006020820190508181036000830152614f6b81614f2f565b9050919050565b6000614f7e8284614caa565b915081905092915050565b7f432d4552522d3035000000000000000000000000000000000000000000000000600082015250565b6000614fbf600883613d9d565b9150614fca82614f89565b602082019050919050565b60006020820190508181036000830152614fee81614fb2565b9050919050565b7f4e492d4552522d30320000000000000000000000000000000000000000000000600082015250565b600061502b600983613d9d565b915061503682614ff5565b602082019050919050565b6000602082019050818103600083015261505a8161501e565b9050919050565b7f455243313135353a206163636f756e747320616e6420696473206c656e67746860008201527f206d69736d617463680000000000000000000000000000000000000000000000602082015250565b60006150bd602983613d9d565b91506150c882615061565b604082019050919050565b600060208201905081810360008301526150ec816150b0565b9050919050565b7f4e6f742072656769737465726564000000000000000000000000000000000000600082015250565b6000615129600e83613d9d565b9150615134826150f3565b602082019050919050565b600060208201905081810360008301526151588161511c565b9050919050565b7f4e492d4552522d30300000000000000000000000000000000000000000000000600082015250565b6000615195600983613d9d565b91506151a08261515f565b602082019050919050565b600060208201905081810360008301526151c481615188565b9050919050565b7f455243313135353a2069647320616e6420616d6f756e7473206c656e6774682060008201527f6d69736d61746368000000000000000000000000000000000000000000000000602082015250565b6000615227602883613d9d565b9150615232826151cb565b604082019050919050565b600060208201905081810360008301526152568161521a565b9050919050565b7f455243313135353a207472616e7366657220746f20746865207a65726f20616460008201527f6472657373000000000000000000000000000000000000000000000000000000602082015250565b60006152b9602583613d9d565b91506152c48261525d565b604082019050919050565b600060208201905081810360008301526152e8816152ac565b9050919050565b7f455243313135353a20696e73756666696369656e742062616c616e636520666f60008201527f72207472616e7366657200000000000000000000000000000000000000000000602082015250565b600061534b602a83613d9d565b9150615356826152ef565b604082019050919050565b6000602082019050818103600083015261537a8161533e565b9050919050565b600061538c82613c0a565b915061539783613c0a565b9250827fffffffffffffffffffffffffffffffffffffffffffffffffffffffffffffffff038211156153cc576153cb614d2e565b5b828201905092915050565b600060408201905081810360008301526153f1818561464c565b90508181036020830152615405818461464c565b90509392505050565b7f455243313135353a2073657474696e6720617070726f76616c2073746174757360008201527f20666f722073656c660000000000000000000000000000000000000000000000602082015250565b600061546a602983613d9d565b91506154758261540e565b604082019050919050565b600060208201905081810360008301526154998161545d565b9050919050565b7f4e487b7100000000000000000000000000000000000000000000000000000000600052603160045260246000fd5b60006040820190506154e46000830185613c80565b6154f16020830184613c80565b9392505050565b7f432d4552522d3036000000000000000000000000000000000000000000000000600082015250565b600061552e600883613d9d565b9150615539826154f8565b602082019050919050565b6000602082019050818103600083015261555d81615521565b9050919050565b600081519050919050565b600082825260208201905092915050565b600061558b82615564565b615595818561556f565b93506155a5818560208601613dae565b6155ae81613de1565b840191505092915050565b600060a0820190506155ce60008301886147e2565b6155db60208301876147e2565b81810360408301526155ed818661464c565b90508181036060830152615601818561464c565b905081810360808301526156158184615580565b90509695505050505050565b60008151905061563081613cd6565b92915050565b60006020828403121561564c5761564b613ba2565b5b600061565a84828501615621565b91505092915050565b60008160e01c9050919050565b600060033d111561568f5760046000803e61568c600051615663565b90505b90565b600060443d1061571f576156a4613b98565b60043d036004823e80513d602482011167ffffffffffffffff821117156156cc57505061571f565b808201805167ffffffffffffffff8111156156ea575050505061571f565b80602083010160043d03850181111561570757505050505061571f565b61571682602001850186614047565b82955050505050505b90565b7f455243313135353a207472616e7366657220746f206e6f6e2d4552433131353560008201527f526563656976657220696d706c656d656e746572000000000000000000000000602082015250565b600061577e603483613d9d565b915061578982615722565b604082019050919050565b600060208201905081810360008301526157ad81615771565b9050919050565b7f455243313135353a204552433131353552656365697665722072656a6563746560008201527f6420746f6b656e73000000000000000000000000000000000000000000000000602082015250565b6000615810602883613d9d565b915061581b826157b4565b604082019050919050565b6000602082019050818103600083015261583f81615803565b9050919050565b7f455243313135353a206d696e7420746f20746865207a65726f2061646472657360008201527f7300000000000000000000000000000000000000000000000000000000000000602082015250565b60006158a2602183613d9d565b91506158ad82615846565b604082019050919050565b600060208201905081810360008301526158d181615895565b9050919050565b600060a0820190506158ed60008301886147e2565b6158fa60208301876147e2565b6159076040830186613c80565b6159146060830185613c80565b81810360808301526159268184615580565b9050969550505050505056fea26469706673582212205aa6d4f95fdc9666db65a3366fa9d821d7bf7a385f2f6c42ea65217e8bf77abd64736f6c634300080d0033",
  "immutableReferences": {
    "6464": [
      {
        "length": 32,
        "start": 3892
      }
    ]
  },
  "source": "// SPDX-License-Identifier: MIT\r\n// Tells the Solidity compiler to compile only from v0.8.13 to v0.9.0\r\npragma solidity ^0.8.13;\r\n\r\nimport \"@openzeppelin/contracts/token/ERC1155/extensions/ERC1155URIStorage.sol\";\r\nimport \"@openzeppelin/contracts/utils/Counters.sol\";\r\nimport \"@openzeppelin/contracts/access/Ownable.sol\";\r\nimport \"./base/Registration.sol\";\r\nimport \"./interfaces/INftIdentities.sol\";\r\n\r\ncontract NftIdentities is INftIdentities, ERC1155URIStorage, Registration {\r\n    using Counters for Counters.Counter;\r\n\r\n    uint256 constant INDEX_BITS = 16;\r\n    uint256 constant MAX_NFT_INDEX = uint256(~uint16(0));\r\n    uint256 constant ONE_NFT = 1;\r\n\r\n    uint256 constant VISITOR_ID = 99;\r\n    uint256 constant REGISTERED_ID = 100;\r\n    uint256 constant HIGHEST_OPERATOR_ID = 101;\r\n\r\n    // Registration vars\r\n    uint256 public registerFee = 0.05 ether;\r\n\r\n    address private immutable _schoolAccount;\r\n\r\n    mapping(uint256 => Counters.Counter) _maxTokenIdIndexOfRole; // type => max token id\r\n    mapping(uint256 => NftIdentity[]) private _nftsOfRole; // type => Nft\r\n    mapping(uint256 => uint256) private _nftPosOfTokenId; // tokenId => index\r\n    mapping(string => bool) private _usedTokenURI;\r\n\r\n    mapping(address => mapping(uint256 => uint256))\r\n        private _mappingRoleToTokenIdOfOwner;\r\n    mapping(address => uint256[]) private _nftsOfOwner; // address => tokenId[]\r\n    mapping(uint256 => uint256) private _posOfNftOfOwner; // tokenId => pos\r\n    mapping(uint256 => address) private _ownerOfNft;\r\n\r\n    uint256[] _extendRequestTokenIds;\r\n    mapping(uint256 => uint256) _positionOfRequestTokenId;\r\n\r\n    constructor(address schoolAccount) ERC1155(\"\") {\r\n        _owner = msg.sender;\r\n        _hasRole[uint(ROLE.STUDENT)] = true;\r\n        _hasRole[uint(ROLE.TEACHER)] = true;\r\n        _schoolAccount = schoolAccount;\r\n    }\r\n\r\n    function getTokenType(uint256 tokenId) public pure returns (uint256) {\r\n        return tokenId >> INDEX_BITS;\r\n    }\r\n\r\n    function getNftOfTokenId(\r\n        uint256 tokenId\r\n    ) public view returns (NftIdentityResponse memory) {\r\n        uint256 nftType = getTokenType(tokenId);\r\n        uint256 pos = _nftPosOfTokenId[tokenId];\r\n        require(pos > 0, \"NI-ERR-00\");\r\n        NftIdentity memory nftIdentity = _nftsOfRole[nftType][pos - 1];\r\n\r\n        NftIdentityResponse memory nftIdentityResponse = NftIdentityResponse(\r\n            nftIdentity,\r\n            uri(tokenId),\r\n            getTokenType(tokenId),\r\n            nftIdentity.expiredAt < block.timestamp\r\n        );\r\n\r\n        return nftIdentityResponse;\r\n    }\r\n\r\n    function ownerOf(uint256 tokenId) external view returns (address) {\r\n        return _ownerOfNft[tokenId];\r\n    }\r\n\r\n    function isAbleToOperate(\r\n        address registerAddr,\r\n        uint256 role\r\n    ) public view returns (bool) {\r\n        uint256 tokenId = _mappingRoleToTokenIdOfOwner[registerAddr][role];\r\n        if (tokenId == 0) {\r\n            return false;\r\n        }\r\n        NftIdentity memory nftIdentity = getNftOfTokenId(tokenId).nftIdentity;\r\n\r\n        return nftIdentity.expiredAt > block.timestamp;\r\n    }\r\n\r\n    // Registration Section: Start\r\n    function registerNftIdentity(\r\n        uint256 role,\r\n        string memory documentURI\r\n    ) public payable {\r\n        require(msg.value == registerFee, \"C-ERR-04\");\r\n        require(\r\n            role == uint256(ROLE.TEACHER) || role == uint256(ROLE.STUDENT),\r\n            \"NI-ERR-01\"\r\n        );\r\n        require(!_registeredDocumentURI[documentURI], \"C-ERR-05\");\r\n        require(_positionOfRegisters[role][msg.sender] == 0, \"NI-ERR-02\");\r\n        _register(role, documentURI);\r\n        payable(_schoolAccount).transfer(msg.value);\r\n    }\r\n\r\n    function grantNftIdentity(\r\n        address targetAccount,\r\n        uint256 role,\r\n        uint256 expiredAt,\r\n        string memory tokenURI\r\n    ) public onlyOwner hasRegistered(targetAccount, role) {\r\n        _mintToken(role, targetAccount, expiredAt, tokenURI);\r\n        _removeFromRegistersList(targetAccount, role);\r\n    }\r\n\r\n    function rejectNftIdentityRegistration(\r\n        address to,\r\n        uint256 role\r\n    ) public onlyOwner hasRegistered(to, role) {\r\n        _removeFromRegistersList(to, role);\r\n    }\r\n\r\n    function getOwnedNfts() public view returns (NftIdentityResponse[] memory) {\r\n        uint256[] memory tokenIds = _nftsOfOwner[msg.sender];\r\n        uint256 count = tokenIds.length;\r\n        NftIdentityResponse[]\r\n            memory nftIdentityResponse = new NftIdentityResponse[](count);\r\n\r\n        for (uint256 idx; idx < count; ++idx) {\r\n            nftIdentityResponse[idx] = getNftOfTokenId(tokenIds[idx]);\r\n        }\r\n\r\n        return nftIdentityResponse;\r\n    }\r\n\r\n    function getAllMembers(\r\n        uint256 role\r\n    ) external view returns (NftIdentityResponse[] memory) {\r\n        uint256 count = _nftsOfRole[role].length;\r\n        NftIdentityResponse[]\r\n            memory nftIdentitiyResponses = new NftIdentityResponse[](count);\r\n\r\n        for (uint256 idx; idx < count; ++idx) {\r\n            nftIdentitiyResponses[idx] = getNftOfTokenId(\r\n                _nftsOfRole[role][idx].tokenId\r\n            );\r\n        }\r\n\r\n        return nftIdentitiyResponses;\r\n    }\r\n\r\n    function getNftOfMemberWithRole(\r\n        uint256 role,\r\n        address sender\r\n    ) public view returns (NftIdentityResponse memory) {\r\n        uint256 tokenId = _mappingRoleToTokenIdOfOwner[sender][role];\r\n\r\n        return getNftOfTokenId(tokenId);\r\n    }\r\n\r\n    // Checker Section: Start\r\n    function getNftTokenIdOfRole(\r\n        address checkedAddr,\r\n        uint256 role\r\n    ) public view returns (uint256) {\r\n        return _mappingRoleToTokenIdOfOwner[checkedAddr][role];\r\n    }\r\n\r\n    // Checker Section: End\r\n\r\n    // Used for members: Section end\r\n    function _beforeTokenTransfer(\r\n        address operator,\r\n        address from,\r\n        address to,\r\n        uint256[] memory ids,\r\n        uint256[] memory amounts,\r\n        bytes memory data\r\n    ) internal virtual override {\r\n        super._beforeTokenTransfer(operator, from, to, ids, amounts, data);\r\n        require(from == address(0) || to == address(0), \"C-ERR-06\");\r\n\r\n        uint256 idsCount = ids.length;\r\n        for (uint256 idx = 0; idx < idsCount; ++idx) {\r\n            uint256 tokenId = ids[idx];\r\n            uint256 role = getTokenType(tokenId);\r\n\r\n            if (from != address(0)) {\r\n                // Remove from owner list\r\n                _removeTokenIdFromOwner(from, tokenId);\r\n                delete _mappingRoleToTokenIdOfOwner[from][role];\r\n                delete _ownerOfNft[tokenId];\r\n            } else {}\r\n\r\n            if (to != address(0)) {\r\n                _nftsOfOwner[to].push(tokenId);\r\n                _posOfNftOfOwner[tokenId] = _nftsOfOwner[to].length;\r\n                _mappingRoleToTokenIdOfOwner[to][role] = tokenId;\r\n                _ownerOfNft[tokenId] = to;\r\n            } else {\r\n                // burn\r\n                _removeTokenIdFromAllTokens(tokenId);\r\n                _removeTokenIdFromOwner(from, tokenId);\r\n                delete _mappingRoleToTokenIdOfOwner[from][role];\r\n                delete _ownerOfNft[tokenId];\r\n            }\r\n        }\r\n    }\r\n\r\n    function _removeTokenIdFromOwner(address owner, uint256 tokenId) private {\r\n        uint256 nftPos = _posOfNftOfOwner[tokenId];\r\n        uint256 nftCount = _nftsOfOwner[owner].length;\r\n\r\n        if (nftCount != nftPos) {\r\n            uint256 lastTokenId = _nftsOfOwner[owner][nftCount - 1];\r\n            _nftsOfOwner[owner][nftPos - 1] = lastTokenId;\r\n            _posOfNftOfOwner[lastTokenId] = nftPos;\r\n        }\r\n\r\n        _nftsOfOwner[owner].pop();\r\n        delete _posOfNftOfOwner[tokenId];\r\n    }\r\n\r\n    function _removeTokenIdFromAllTokens(uint256 tokenId) private {\r\n        uint256 nftPos = _nftPosOfTokenId[tokenId];\r\n        uint256 nftType = getTokenType(tokenId);\r\n        uint256 nftCount = _nftsOfRole[nftType].length;\r\n\r\n        if (nftCount != nftPos) {\r\n            NftIdentity memory lastNft = _nftsOfRole[nftType][nftCount - 1];\r\n            _nftsOfRole[nftType][nftPos - 1] = lastNft;\r\n            _nftPosOfTokenId[lastNft.tokenId] = nftPos;\r\n        }\r\n        _nftsOfRole[nftType].pop();\r\n        delete _nftPosOfTokenId[tokenId];\r\n    }\r\n\r\n    function _mintToken(\r\n        uint256 role,\r\n        address to,\r\n        uint256 expiredAt,\r\n        string memory tokenURI\r\n    ) private returns (uint256) {\r\n        require(!_usedTokenURI[tokenURI], \"C-ERR-05\");\r\n        uint256 tokenId = _generateNewTokenId(role);\r\n        _setURI(tokenId, tokenURI);\r\n\r\n        _createNftIdentity(to, role, tokenId, expiredAt);\r\n        _mint(to, tokenId, ONE_NFT, msg.data);\r\n\r\n        return tokenId;\r\n    }\r\n\r\n    function _createNftIdentity(\r\n        address to,\r\n        uint256 role,\r\n        uint256 tokenId,\r\n        uint256 expiredAt\r\n    ) private {\r\n        NftIdentity memory nftIdentity = NftIdentity(tokenId, to, expiredAt);\r\n\r\n        _nftsOfRole[role].push(nftIdentity);\r\n        _nftPosOfTokenId[tokenId] = _nftsOfRole[role].length;\r\n    }\r\n\r\n    function _generateNewTokenId(uint256 role) private returns (uint256) {\r\n        _maxTokenIdIndexOfRole[role].increment();\r\n        uint256 tokenId = _maxTokenIdIndexOfRole[role].current();\r\n\r\n        return (role << INDEX_BITS) | tokenId;\r\n    }\r\n}\r\n",
  "sourcePath": "E:\\learn\\learn-to-earn\\blockchain\\contracts\\NftIdentities.sol",
  "compiler": {
    "name": "solc",
    "version": "0.8.13+commit.abaa5c0e.Emscripten.clang"
  },
  "schemaVersion": "3.4.13",
  "updatedAt": "2023-07-20T00:38:52.884Z",
  "networkType": "ethereum",
  "devdoc": {
    "kind": "dev",
    "methods": {
      "balanceOf(address,uint256)": {
        "details": "See {IERC1155-balanceOf}. Requirements: - `account` cannot be the zero address."
      },
      "balanceOfBatch(address[],uint256[])": {
        "details": "See {IERC1155-balanceOfBatch}. Requirements: - `accounts` and `ids` must have the same length."
      },
      "isApprovedForAll(address,address)": {
        "details": "See {IERC1155-isApprovedForAll}."
      },
      "safeBatchTransferFrom(address,address,uint256[],uint256[],bytes)": {
        "details": "See {IERC1155-safeBatchTransferFrom}."
      },
      "safeTransferFrom(address,address,uint256,uint256,bytes)": {
        "details": "See {IERC1155-safeTransferFrom}."
      },
      "setApprovalForAll(address,bool)": {
        "details": "See {IERC1155-setApprovalForAll}."
      },
      "supportsInterface(bytes4)": {
        "details": "See {IERC165-supportsInterface}."
      },
      "uri(uint256)": {
        "details": "See {IERC1155MetadataURI-uri}. This implementation returns the concatenation of the `_baseURI` and the token-specific uri if the latter is set This enables the following behaviors: - if `_tokenURIs[tokenId]` is set, then the result is the concatenation   of `_baseURI` and `_tokenURIs[tokenId]` (keep in mind that `_baseURI`   is empty per default); - if `_tokenURIs[tokenId]` is NOT set then we fallback to `super.uri()`   which in most cases will contain `ERC1155._uri`; - if `_tokenURIs[tokenId]` is NOT set, and if the parents do not have a   uri value set, then the result is empty."
      }
    },
    "version": 1
  },
  "userdoc": {
    "kind": "user",
    "methods": {},
    "version": 1
  }
}