{
  "contractName": "NftIdentities",
  "abi": [
    {
      "inputs": [],
      "stateMutability": "nonpayable",
      "type": "constructor"
    },
    {
      "anonymous": false,
      "inputs": [
        {
          "indexed": true,
          "internalType": "address",
          "name": "account",
          "type": "address"
        },
        {
          "indexed": true,
          "internalType": "address",
          "name": "operator",
          "type": "address"
        },
        {
          "indexed": false,
          "internalType": "bool",
          "name": "approved",
          "type": "bool"
        }
      ],
      "name": "ApprovalForAll",
      "type": "event"
    },
    {
      "anonymous": false,
      "inputs": [
        {
          "indexed": true,
          "internalType": "address",
          "name": "operator",
          "type": "address"
        },
        {
          "indexed": true,
          "internalType": "address",
          "name": "from",
          "type": "address"
        },
        {
          "indexed": true,
          "internalType": "address",
          "name": "to",
          "type": "address"
        },
        {
          "indexed": false,
          "internalType": "uint256[]",
          "name": "ids",
          "type": "uint256[]"
        },
        {
          "indexed": false,
          "internalType": "uint256[]",
          "name": "values",
          "type": "uint256[]"
        }
      ],
      "name": "TransferBatch",
      "type": "event"
    },
    {
      "anonymous": false,
      "inputs": [
        {
          "indexed": true,
          "internalType": "address",
          "name": "operator",
          "type": "address"
        },
        {
          "indexed": true,
          "internalType": "address",
          "name": "from",
          "type": "address"
        },
        {
          "indexed": true,
          "internalType": "address",
          "name": "to",
          "type": "address"
        },
        {
          "indexed": false,
          "internalType": "uint256",
          "name": "id",
          "type": "uint256"
        },
        {
          "indexed": false,
          "internalType": "uint256",
          "name": "value",
          "type": "uint256"
        }
      ],
      "name": "TransferSingle",
      "type": "event"
    },
    {
      "anonymous": false,
      "inputs": [
        {
          "indexed": false,
          "internalType": "string",
          "name": "value",
          "type": "string"
        },
        {
          "indexed": true,
          "internalType": "uint256",
          "name": "id",
          "type": "uint256"
        }
      ],
      "name": "URI",
      "type": "event"
    },
    {
      "inputs": [
        {
          "internalType": "address",
          "name": "account",
          "type": "address"
        },
        {
          "internalType": "uint256",
          "name": "id",
          "type": "uint256"
        }
      ],
      "name": "balanceOf",
      "outputs": [
        {
          "internalType": "uint256",
          "name": "",
          "type": "uint256"
        }
      ],
      "stateMutability": "view",
      "type": "function",
      "constant": true
    },
    {
      "inputs": [
        {
          "internalType": "address[]",
          "name": "accounts",
          "type": "address[]"
        },
        {
          "internalType": "uint256[]",
          "name": "ids",
          "type": "uint256[]"
        }
      ],
      "name": "balanceOfBatch",
      "outputs": [
        {
          "internalType": "uint256[]",
          "name": "",
          "type": "uint256[]"
        }
      ],
      "stateMutability": "view",
      "type": "function",
      "constant": true
    },
    {
      "inputs": [],
      "name": "getAllOwnedRegistrationInfos",
      "outputs": [
        {
          "components": [
            {
              "components": [
                {
                  "internalType": "address",
                  "name": "applicant",
                  "type": "address"
                },
                {
                  "internalType": "string",
                  "name": "documentURI",
                  "type": "string"
                }
              ],
              "internalType": "struct Registration.RegistrationInfo",
              "name": "detail",
              "type": "tuple"
            },
            {
              "internalType": "uint256",
              "name": "role",
              "type": "uint256"
            }
          ],
          "internalType": "struct Registration.RegistrationInfoResponse[]",
          "name": "",
          "type": "tuple[]"
        }
      ],
      "stateMutability": "view",
      "type": "function",
      "constant": true
    },
    {
      "inputs": [
        {
          "internalType": "uint256",
          "name": "role",
          "type": "uint256"
        }
      ],
      "name": "getAllRegistrationInfosByRole",
      "outputs": [
        {
          "components": [
            {
              "internalType": "address",
              "name": "applicant",
              "type": "address"
            },
            {
              "internalType": "string",
              "name": "documentURI",
              "type": "string"
            }
          ],
          "internalType": "struct Registration.RegistrationInfo[]",
          "name": "",
          "type": "tuple[]"
        }
      ],
      "stateMutability": "view",
      "type": "function",
      "constant": true
    },
    {
      "inputs": [
        {
          "internalType": "address",
          "name": "account",
          "type": "address"
        },
        {
          "internalType": "address",
          "name": "operator",
          "type": "address"
        }
      ],
      "name": "isApprovedForAll",
      "outputs": [
        {
          "internalType": "bool",
          "name": "",
          "type": "bool"
        }
      ],
      "stateMutability": "view",
      "type": "function",
      "constant": true
    },
    {
      "inputs": [],
      "name": "isOwner",
      "outputs": [
        {
          "internalType": "bool",
          "name": "",
          "type": "bool"
        }
      ],
      "stateMutability": "view",
      "type": "function",
      "constant": true
    },
    {
      "inputs": [],
      "name": "registerFee",
      "outputs": [
        {
          "internalType": "uint256",
          "name": "",
          "type": "uint256"
        }
      ],
      "stateMutability": "view",
      "type": "function",
      "constant": true
    },
    {
      "inputs": [
        {
          "internalType": "address",
          "name": "from",
          "type": "address"
        },
        {
          "internalType": "address",
          "name": "to",
          "type": "address"
        },
        {
          "internalType": "uint256[]",
          "name": "ids",
          "type": "uint256[]"
        },
        {
          "internalType": "uint256[]",
          "name": "amounts",
          "type": "uint256[]"
        },
        {
          "internalType": "bytes",
          "name": "data",
          "type": "bytes"
        }
      ],
      "name": "safeBatchTransferFrom",
      "outputs": [],
      "stateMutability": "nonpayable",
      "type": "function"
    },
    {
      "inputs": [
        {
          "internalType": "address",
          "name": "from",
          "type": "address"
        },
        {
          "internalType": "address",
          "name": "to",
          "type": "address"
        },
        {
          "internalType": "uint256",
          "name": "id",
          "type": "uint256"
        },
        {
          "internalType": "uint256",
          "name": "amount",
          "type": "uint256"
        },
        {
          "internalType": "bytes",
          "name": "data",
          "type": "bytes"
        }
      ],
      "name": "safeTransferFrom",
      "outputs": [],
      "stateMutability": "nonpayable",
      "type": "function"
    },
    {
      "inputs": [
        {
          "internalType": "address",
          "name": "operator",
          "type": "address"
        },
        {
          "internalType": "bool",
          "name": "approved",
          "type": "bool"
        }
      ],
      "name": "setApprovalForAll",
      "outputs": [],
      "stateMutability": "nonpayable",
      "type": "function"
    },
    {
      "inputs": [
        {
          "internalType": "bytes4",
          "name": "interfaceId",
          "type": "bytes4"
        }
      ],
      "name": "supportsInterface",
      "outputs": [
        {
          "internalType": "bool",
          "name": "",
          "type": "bool"
        }
      ],
      "stateMutability": "view",
      "type": "function",
      "constant": true
    },
    {
      "inputs": [
        {
          "internalType": "uint256",
          "name": "tokenId",
          "type": "uint256"
        }
      ],
      "name": "uri",
      "outputs": [
        {
          "internalType": "string",
          "name": "",
          "type": "string"
        }
      ],
      "stateMutability": "view",
      "type": "function",
      "constant": true
    },
    {
      "inputs": [
        {
          "internalType": "uint256",
          "name": "tokenId",
          "type": "uint256"
        }
      ],
      "name": "getTokenType",
      "outputs": [
        {
          "internalType": "uint256",
          "name": "",
          "type": "uint256"
        }
      ],
      "stateMutability": "pure",
      "type": "function",
      "constant": true
    },
    {
      "inputs": [
        {
          "internalType": "uint256",
          "name": "tokenId",
          "type": "uint256"
        }
      ],
      "name": "getNftOfTokenId",
      "outputs": [
        {
          "components": [
            {
              "components": [
                {
                  "internalType": "uint256",
                  "name": "tokenId",
                  "type": "uint256"
                },
                {
                  "internalType": "address",
                  "name": "register",
                  "type": "address"
                },
                {
                  "internalType": "uint256",
                  "name": "expiredAt",
                  "type": "uint256"
                }
              ],
              "internalType": "struct IConstant.NftIdentity",
              "name": "nftIdentity",
              "type": "tuple"
            },
            {
              "internalType": "string",
              "name": "tokenURI",
              "type": "string"
            },
            {
              "internalType": "uint256",
              "name": "role",
              "type": "uint256"
            },
            {
              "internalType": "bool",
              "name": "isExpired",
              "type": "bool"
            }
          ],
          "internalType": "struct IConstant.NftIdentityResponse",
          "name": "",
          "type": "tuple"
        }
      ],
      "stateMutability": "view",
      "type": "function",
      "constant": true
    },
    {
      "inputs": [
        {
          "internalType": "uint256",
          "name": "tokenId",
          "type": "uint256"
        }
      ],
      "name": "ownerOf",
      "outputs": [
        {
          "internalType": "address",
          "name": "",
          "type": "address"
        }
      ],
      "stateMutability": "view",
      "type": "function",
      "constant": true
    },
    {
      "inputs": [
        {
          "internalType": "address",
          "name": "registerAddr",
          "type": "address"
        },
        {
          "internalType": "uint256",
          "name": "role",
          "type": "uint256"
        }
      ],
      "name": "isAbleToOperate",
      "outputs": [
        {
          "internalType": "bool",
          "name": "",
          "type": "bool"
        }
      ],
      "stateMutability": "view",
      "type": "function",
      "constant": true
    },
    {
      "inputs": [
        {
          "internalType": "uint256",
          "name": "role",
          "type": "uint256"
        },
        {
          "internalType": "string",
          "name": "documentURI",
          "type": "string"
        }
      ],
      "name": "registerNftIdentity",
      "outputs": [],
      "stateMutability": "payable",
      "type": "function",
      "payable": true
    },
    {
      "inputs": [
        {
          "internalType": "address",
          "name": "targetAccount",
          "type": "address"
        },
        {
          "internalType": "uint256",
          "name": "role",
          "type": "uint256"
        },
        {
          "internalType": "uint256",
          "name": "expiredAt",
          "type": "uint256"
        },
        {
          "internalType": "string",
          "name": "tokenURI",
          "type": "string"
        }
      ],
      "name": "grantNftIdentity",
      "outputs": [],
      "stateMutability": "nonpayable",
      "type": "function"
    },
    {
      "inputs": [
        {
          "internalType": "address",
          "name": "to",
          "type": "address"
        },
        {
          "internalType": "uint256",
          "name": "role",
          "type": "uint256"
        }
      ],
      "name": "rejectNftIdentityRegistration",
      "outputs": [],
      "stateMutability": "nonpayable",
      "type": "function"
    },
    {
      "inputs": [
        {
          "internalType": "uint256",
          "name": "tokenId",
          "type": "uint256"
        }
      ],
      "name": "burnNft",
      "outputs": [],
      "stateMutability": "nonpayable",
      "type": "function"
    },
    {
      "inputs": [],
      "name": "getOwnedNfts",
      "outputs": [
        {
          "components": [
            {
              "components": [
                {
                  "internalType": "uint256",
                  "name": "tokenId",
                  "type": "uint256"
                },
                {
                  "internalType": "address",
                  "name": "register",
                  "type": "address"
                },
                {
                  "internalType": "uint256",
                  "name": "expiredAt",
                  "type": "uint256"
                }
              ],
              "internalType": "struct IConstant.NftIdentity",
              "name": "nftIdentity",
              "type": "tuple"
            },
            {
              "internalType": "string",
              "name": "tokenURI",
              "type": "string"
            },
            {
              "internalType": "uint256",
              "name": "role",
              "type": "uint256"
            },
            {
              "internalType": "bool",
              "name": "isExpired",
              "type": "bool"
            }
          ],
          "internalType": "struct IConstant.NftIdentityResponse[]",
          "name": "",
          "type": "tuple[]"
        }
      ],
      "stateMutability": "view",
      "type": "function",
      "constant": true
    },
    {
      "inputs": [
        {
          "internalType": "uint256",
          "name": "role",
          "type": "uint256"
        }
      ],
      "name": "getAllMembers",
      "outputs": [
        {
          "components": [
            {
              "components": [
                {
                  "internalType": "uint256",
                  "name": "tokenId",
                  "type": "uint256"
                },
                {
                  "internalType": "address",
                  "name": "register",
                  "type": "address"
                },
                {
                  "internalType": "uint256",
                  "name": "expiredAt",
                  "type": "uint256"
                }
              ],
              "internalType": "struct IConstant.NftIdentity",
              "name": "nftIdentity",
              "type": "tuple"
            },
            {
              "internalType": "string",
              "name": "tokenURI",
              "type": "string"
            },
            {
              "internalType": "uint256",
              "name": "role",
              "type": "uint256"
            },
            {
              "internalType": "bool",
              "name": "isExpired",
              "type": "bool"
            }
          ],
          "internalType": "struct IConstant.NftIdentityResponse[]",
          "name": "",
          "type": "tuple[]"
        }
      ],
      "stateMutability": "view",
      "type": "function",
      "constant": true
    },
    {
      "inputs": [
        {
          "internalType": "uint256",
          "name": "role",
          "type": "uint256"
        },
        {
          "internalType": "address",
          "name": "sender",
          "type": "address"
        }
      ],
      "name": "getNftOfMemberWithRole",
      "outputs": [
        {
          "components": [
            {
              "components": [
                {
                  "internalType": "uint256",
                  "name": "tokenId",
                  "type": "uint256"
                },
                {
                  "internalType": "address",
                  "name": "register",
                  "type": "address"
                },
                {
                  "internalType": "uint256",
                  "name": "expiredAt",
                  "type": "uint256"
                }
              ],
              "internalType": "struct IConstant.NftIdentity",
              "name": "nftIdentity",
              "type": "tuple"
            },
            {
              "internalType": "string",
              "name": "tokenURI",
              "type": "string"
            },
            {
              "internalType": "uint256",
              "name": "role",
              "type": "uint256"
            },
            {
              "internalType": "bool",
              "name": "isExpired",
              "type": "bool"
            }
          ],
          "internalType": "struct IConstant.NftIdentityResponse",
          "name": "",
          "type": "tuple"
        }
      ],
      "stateMutability": "view",
      "type": "function",
      "constant": true
    },
    {
      "inputs": [
        {
          "internalType": "address",
          "name": "checkedAddr",
          "type": "address"
        },
        {
          "internalType": "uint256",
          "name": "role",
          "type": "uint256"
        }
      ],
      "name": "getNftTokenIdOfRole",
      "outputs": [
        {
          "internalType": "uint256",
          "name": "",
          "type": "uint256"
        }
      ],
      "stateMutability": "view",
      "type": "function",
      "constant": true
    }
  ],
  "bytecode": "0x608060405260405180602001604052806000815250600390805190602001906200002b9291906200014c565b5066b1a2bc2ec50000600b553480156200004457600080fd5b506040518060200160405280600081525062000066816200013060201b60201c565b5033600560006101000a81548173ffffffffffffffffffffffffffffffffffffffff021916908373ffffffffffffffffffffffffffffffffffffffff160217905550600160086000806001811115620000c457620000c3620001fc565b5b815260200190815260200160002060006101000a81548160ff021916908315150217905550600160086000600180811115620001055762000104620001fc565b5b815260200190815260200160002060006101000a81548160ff0219169083151502179055506200028f565b8060029080519060200190620001489291906200014c565b5050565b8280546200015a906200025a565b90600052602060002090601f0160209004810192826200017e5760008555620001ca565b82601f106200019957805160ff1916838001178555620001ca565b82800160010185558215620001ca579182015b82811115620001c9578251825591602001919060010190620001ac565b5b509050620001d99190620001dd565b5090565b5b80821115620001f8576000816000905550600101620001de565b5090565b7f4e487b7100000000000000000000000000000000000000000000000000000000600052602160045260246000fd5b7f4e487b7100000000000000000000000000000000000000000000000000000000600052602260045260246000fd5b600060028204905060018216806200027357607f821691505b6020821081036200028957620002886200022b565b5b50919050565b615c98806200029f6000396000f3fe60806040526004361061014a5760003560e01c806357ef1e58116100b6578063bd4e7c8e1161006f578063bd4e7c8e146104f4578063c111c8bb1461051d578063d24cfbbe1461055a578063d703df8b14610583578063e985e9c5146105c0578063f242432a146105fd5761014a565b806357ef1e58146103be5780636352211e146103fb57806370cbcb431461043857806376aed2e1146104635780638f32d59b146104a0578063a22cb465146104cb5761014a565b806335f2e0be1161010857806335f2e0be146102855780633a66e326146102c25780633d5efefe146102de578063443ebca7146103075780634e1273f41461034457806352db77c4146103815761014a565b8062fdd58e1461014f57806301ffc9a71461018c57806303f187ea146101c95780630e89341c146101f45780631108f70a146102315780632eb2c2d61461025c575b600080fd5b34801561015b57600080fd5b5061017660048036038101906101719190613eb8565b610626565b6040516101839190613f07565b60405180910390f35b34801561019857600080fd5b506101b360048036038101906101ae9190613f7a565b6106ee565b6040516101c09190613fc2565b60405180910390f35b3480156101d557600080fd5b506101de6107d0565b6040516101eb9190613f07565b60405180910390f35b34801561020057600080fd5b5061021b60048036038101906102169190613fdd565b6107d6565b60405161022891906140a3565b60405180910390f35b34801561023d57600080fd5b506102466108bb565b6040516102539190614269565b60405180910390f35b34801561026857600080fd5b50610283600480360381019061027e9190614488565b610b9c565b005b34801561029157600080fd5b506102ac60048036038101906102a79190613fdd565b610c3d565b6040516102b99190614619565b60405180910390f35b6102dc60048036038101906102d791906146dc565b610da8565b005b3480156102ea57600080fd5b5061030560048036038101906103009190613fdd565b610efe565b005b34801561031357600080fd5b5061032e60048036038101906103299190613eb8565b610fcf565b60405161033b9190613f07565b60405180910390f35b34801561035057600080fd5b5061036b600480360381019061036691906147fb565b61102a565b6040516103789190614922565b60405180910390f35b34801561038d57600080fd5b506103a860048036038101906103a39190614944565b611143565b6040516103b59190614a38565b60405180910390f35b3480156103ca57600080fd5b506103e560048036038101906103e09190613eb8565b6111b2565b6040516103f29190613fc2565b60405180910390f35b34801561040757600080fd5b50610422600480360381019061041d9190613fdd565b61123d565b60405161042f9190614a69565b60405180910390f35b34801561044457600080fd5b5061044d61127a565b60405161045a9190614ba9565b60405180910390f35b34801561046f57600080fd5b5061048a60048036038101906104859190613fdd565b6113d3565b6040516104979190613f07565b60405180910390f35b3480156104ac57600080fd5b506104b56113e1565b6040516104c29190613fc2565b60405180910390f35b3480156104d757600080fd5b506104f260048036038101906104ed9190614bf7565b611439565b005b34801561050057600080fd5b5061051b60048036038101906105169190614c37565b61144f565b005b34801561052957600080fd5b50610544600480360381019061053f9190613fdd565b611514565b6040516105519190614ba9565b60405180910390f35b34801561056657600080fd5b50610581600480360381019061057c9190613eb8565b61160d565b005b34801561058f57600080fd5b506105aa60048036038101906105a59190613fdd565b6116c3565b6040516105b79190614a38565b60405180910390f35b3480156105cc57600080fd5b506105e760048036038101906105e29190614cba565b611834565b6040516105f49190613fc2565b60405180910390f35b34801561060957600080fd5b50610624600480360381019061061f9190614cfa565b6118c8565b005b60008073ffffffffffffffffffffffffffffffffffffffff168373ffffffffffffffffffffffffffffffffffffffff1603610696576040517f08c379a000000000000000000000000000000000000000000000000000000000815260040161068d90614e03565b60405180910390fd5b60008083815260200190815260200160002060008473ffffffffffffffffffffffffffffffffffffffff1673ffffffffffffffffffffffffffffffffffffffff16815260200190815260200160002054905092915050565b60007fd9b67a26000000000000000000000000000000000000000000000000000000007bffffffffffffffffffffffffffffffffffffffffffffffffffffffff1916827bffffffffffffffffffffffffffffffffffffffffffffffffffffffff191614806107b957507f0e89341c000000000000000000000000000000000000000000000000000000007bffffffffffffffffffffffffffffffffffffffffffffffffffffffff1916827bffffffffffffffffffffffffffffffffffffffffffffffffffffffff1916145b806107c957506107c882611969565b5b9050919050565b600b5481565b606060006004600084815260200190815260200160002080546107f890614e52565b80601f016020809104026020016040519081016040528092919081815260200182805461082490614e52565b80156108715780601f1061084657610100808354040283529160200191610871565b820191906000526020600020905b81548152906001019060200180831161085457829003601f168201915b50505050509050600081511161088f5761088a836119d3565b6108b3565b6003816040516020016108a3929190614f53565b6040516020818303038152906040525b915050919050565b60606000600960003373ffffffffffffffffffffffffffffffffffffffff1673ffffffffffffffffffffffffffffffffffffffff16815260200190815260200160002080549050905060008167ffffffffffffffff8111156109205761091f614290565b5b60405190808252806020026020018201604052801561095957816020015b610946613c76565b81526020019060019003908161093e5790505b50905060005b82811015610b93576000600960003373ffffffffffffffffffffffffffffffffffffffff1673ffffffffffffffffffffffffffffffffffffffff16815260200190815260200160002082815481106109ba576109b9614f77565b5b9060005260206000200154905060006007600083815260200190815260200160002060003373ffffffffffffffffffffffffffffffffffffffff1673ffffffffffffffffffffffffffffffffffffffff168152602001908152602001600020549050604051806040016040528060066000858152602001908152602001600020600184610a479190614fd5565b81548110610a5857610a57614f77565b5b90600052602060002090600202016040518060400160405290816000820160009054906101000a900473ffffffffffffffffffffffffffffffffffffffff1673ffffffffffffffffffffffffffffffffffffffff1673ffffffffffffffffffffffffffffffffffffffff168152602001600182018054610ad790614e52565b80601f0160208091040260200160405190810160405280929190818152602001828054610b0390614e52565b8015610b505780601f10610b2557610100808354040283529160200191610b50565b820191906000526020600020905b815481529060010190602001808311610b3357829003601f168201915b505050505081525050815260200183815250848481518110610b7557610b74614f77565b5b6020026020010181905250505080610b8c90615009565b905061095f565b50809250505090565b610ba4611a67565b73ffffffffffffffffffffffffffffffffffffffff168573ffffffffffffffffffffffffffffffffffffffff161480610bea5750610be985610be4611a67565b611834565b5b610c29576040517f08c379a0000000000000000000000000000000000000000000000000000000008152600401610c20906150c3565b60405180910390fd5b610c368585858585611a6f565b5050505050565b6060610c476113e1565b610c5057600080fd5b60066000838152602001908152602001600020805480602002602001604051908101604052809291908181526020016000905b82821015610d9d57838290600052602060002090600202016040518060400160405290816000820160009054906101000a900473ffffffffffffffffffffffffffffffffffffffff1673ffffffffffffffffffffffffffffffffffffffff1673ffffffffffffffffffffffffffffffffffffffff168152602001600182018054610d0c90614e52565b80601f0160208091040260200160405190810160405280929190818152602001828054610d3890614e52565b8015610d855780601f10610d5a57610100808354040283529160200191610d85565b820191906000526020600020905b815481529060010190602001808311610d6857829003601f168201915b50505050508152505081526020019060010190610c83565b505050509050919050565b600b543414610db657600080fd5b600180811115610dc957610dc86150e3565b5b821480610de8575060006001811115610de557610de46150e3565b5b82145b610df157600080fd5b600a81604051610e019190615112565b908152602001604051809103902060009054906101000a900460ff1615610e5d576040517f08c379a0000000000000000000000000000000000000000000000000000000008152600401610e5490615175565b60405180910390fd5b60006007600084815260200190815260200160002060003373ffffffffffffffffffffffffffffffffffffffff1673ffffffffffffffffffffffffffffffffffffffff1681526020019081526020016000205414610ef0576040517f08c379a0000000000000000000000000000000000000000000000000000000008152600401610ee7906151e1565b60405180910390fd5b610efa8282611d90565b5050565b610f066113e1565b610f0f57600080fd5b80600560009054906101000a900473ffffffffffffffffffffffffffffffffffffffff1673ffffffffffffffffffffffffffffffffffffffff166013600083815260200190815260200160002060009054906101000a900473ffffffffffffffffffffffffffffffffffffffff1673ffffffffffffffffffffffffffffffffffffffff1614610f9d57600080fd5b610fcb600560009054906101000a900473ffffffffffffffffffffffffffffffffffffffff16836001611f69565b5050565b6000601060008473ffffffffffffffffffffffffffffffffffffffff1673ffffffffffffffffffffffffffffffffffffffff168152602001908152602001600020600083815260200190815260200160002054905092915050565b60608151835114611070576040517f08c379a000000000000000000000000000000000000000000000000000000000815260040161106790615273565b60405180910390fd5b6000835167ffffffffffffffff81111561108d5761108c614290565b5b6040519080825280602002602001820160405280156110bb5781602001602082028036833780820191505090505b50905060005b8451811015611138576111088582815181106110e0576110df614f77565b5b60200260200101518583815181106110fb576110fa614f77565b5b6020026020010151610626565b82828151811061111b5761111a614f77565b5b6020026020010181815250508061113190615009565b90506110c1565b508091505092915050565b61114b613c96565b6000601060008473ffffffffffffffffffffffffffffffffffffffff1673ffffffffffffffffffffffffffffffffffffffff16815260200190815260200160002060008581526020019081526020016000205490506111a9816116c3565b91505092915050565b600080601060008573ffffffffffffffffffffffffffffffffffffffff1673ffffffffffffffffffffffffffffffffffffffff16815260200190815260200160002060008481526020019081526020016000205490506000810361121a576000915050611237565b6000611225826116c3565b60000151905042816040015111925050505b92915050565b60006013600083815260200190815260200160002060009054906101000a900473ffffffffffffffffffffffffffffffffffffffff169050919050565b60606000601160003373ffffffffffffffffffffffffffffffffffffffff1673ffffffffffffffffffffffffffffffffffffffff16815260200190815260200160002080548060200260200160405190810160405280929190818152602001828054801561130757602002820191906000526020600020905b8154815260200190600101908083116112f3575b5050505050905060008151905060008167ffffffffffffffff8111156113305761132f614290565b5b60405190808252806020026020018201604052801561136957816020015b611356613c96565b81526020019060019003908161134e5790505b50905060005b828110156113c95761139a84828151811061138d5761138c614f77565b5b60200260200101516116c3565b8282815181106113ad576113ac614f77565b5b6020026020010181905250806113c290615009565b905061136f565b5080935050505090565b6000601082901c9050919050565b6000600560009054906101000a900473ffffffffffffffffffffffffffffffffffffffff1673ffffffffffffffffffffffffffffffffffffffff163373ffffffffffffffffffffffffffffffffffffffff1614905090565b61144b611444611a67565b83836121af565b5050565b6114576113e1565b61146057600080fd5b838360006007600083815260200190815260200160002060008473ffffffffffffffffffffffffffffffffffffffff1673ffffffffffffffffffffffffffffffffffffffff16815260200190815260200160002054116114f5576040517f08c379a00000000000000000000000000000000000000000000000000000000081526004016114ec906152df565b60405180910390fd5b6115018587868661231b565b5061150c868661240a565b505050505050565b60606000600d600084815260200190815260200160002080549050905060008167ffffffffffffffff81111561154d5761154c614290565b5b60405190808252806020026020018201604052801561158657816020015b611573613c96565b81526020019060019003908161156b5790505b50905060005b82811015611602576115d3600d600087815260200190815260200160002082815481106115bc576115bb614f77565b5b9060005260206000209060030201600001546116c3565b8282815181106115e6576115e5614f77565b5b6020026020010181905250806115fb90615009565b905061158c565b508092505050919050565b6116156113e1565b61161e57600080fd5b818160006007600083815260200190815260200160002060008473ffffffffffffffffffffffffffffffffffffffff1673ffffffffffffffffffffffffffffffffffffffff16815260200190815260200160002054116116b3576040517f08c379a00000000000000000000000000000000000000000000000000000000081526004016116aa906152df565b60405180910390fd5b6116bd848461240a565b50505050565b6116cb613c96565b60006116d6836113d3565b90506000600e600085815260200190815260200160002054905060008111611733576040517f08c379a000000000000000000000000000000000000000000000000000000000815260040161172a9061534b565b60405180910390fd5b6000600d60008481526020019081526020016000206001836117559190614fd5565b8154811061176657611765614f77565b5b9060005260206000209060030201604051806060016040529081600082015481526020016001820160009054906101000a900473ffffffffffffffffffffffffffffffffffffffff1673ffffffffffffffffffffffffffffffffffffffff1673ffffffffffffffffffffffffffffffffffffffff168152602001600282015481525050905060006040518060800160405280838152602001611807886107d6565b8152602001611815886113d3565b8152602001428460400151101515815250905080945050505050919050565b6000600160008473ffffffffffffffffffffffffffffffffffffffff1673ffffffffffffffffffffffffffffffffffffffff16815260200190815260200160002060008373ffffffffffffffffffffffffffffffffffffffff1673ffffffffffffffffffffffffffffffffffffffff16815260200190815260200160002060009054906101000a900460ff16905092915050565b6118d0611a67565b73ffffffffffffffffffffffffffffffffffffffff168573ffffffffffffffffffffffffffffffffffffffff161480611916575061191585611910611a67565b611834565b5b611955576040517f08c379a000000000000000000000000000000000000000000000000000000000815260040161194c906150c3565b60405180910390fd5b6119628585858585612790565b5050505050565b60007f01ffc9a7000000000000000000000000000000000000000000000000000000007bffffffffffffffffffffffffffffffffffffffffffffffffffffffff1916827bffffffffffffffffffffffffffffffffffffffffffffffffffffffff1916149050919050565b6060600280546119e290614e52565b80601f0160208091040260200160405190810160405280929190818152602001828054611a0e90614e52565b8015611a5b5780601f10611a3057610100808354040283529160200191611a5b565b820191906000526020600020905b815481529060010190602001808311611a3e57829003601f168201915b50505050509050919050565b600033905090565b8151835114611ab3576040517f08c379a0000000000000000000000000000000000000000000000000000000008152600401611aaa906153dd565b60405180910390fd5b600073ffffffffffffffffffffffffffffffffffffffff168473ffffffffffffffffffffffffffffffffffffffff1603611b22576040517f08c379a0000000000000000000000000000000000000000000000000000000008152600401611b199061546f565b60405180910390fd5b6000611b2c611a67565b9050611b3c818787878787612a2b565b60005b8451811015611ced576000858281518110611b5d57611b5c614f77565b5b602002602001015190506000858381518110611b7c57611b7b614f77565b5b60200260200101519050600080600084815260200190815260200160002060008b73ffffffffffffffffffffffffffffffffffffffff1673ffffffffffffffffffffffffffffffffffffffff16815260200190815260200160002054905081811015611c1d576040517f08c379a0000000000000000000000000000000000000000000000000000000008152600401611c1490615501565b60405180910390fd5b81810360008085815260200190815260200160002060008c73ffffffffffffffffffffffffffffffffffffffff1673ffffffffffffffffffffffffffffffffffffffff168152602001908152602001600020819055508160008085815260200190815260200160002060008b73ffffffffffffffffffffffffffffffffffffffff1673ffffffffffffffffffffffffffffffffffffffff1681526020019081526020016000206000828254611cd29190615521565b9250508190555050505080611ce690615009565b9050611b3f565b508473ffffffffffffffffffffffffffffffffffffffff168673ffffffffffffffffffffffffffffffffffffffff168273ffffffffffffffffffffffffffffffffffffffff167f4a39dc06d4c0dbc64b70af90fd698a233a518aa5d07e595d983b8c0526c8f7fb8787604051611d64929190615577565b60405180910390a4611d7a818787878787612e45565b611d88818787878787612e4d565b505050505050565b6006600083815260200190815260200160002060405180604001604052803373ffffffffffffffffffffffffffffffffffffffff16815260200183815250908060018154018082558091505060019003906000526020600020906002020160009091909190915060008201518160000160006101000a81548173ffffffffffffffffffffffffffffffffffffffff021916908373ffffffffffffffffffffffffffffffffffffffff1602179055506020820151816001019080519060200190611e5a929190613cc6565b505050600960003373ffffffffffffffffffffffffffffffffffffffff1673ffffffffffffffffffffffffffffffffffffffff16815260200190815260200160002082908060018154018082558091505060019003906000526020600020016000909190919091505560066000838152602001908152602001600020805490506007600084815260200190815260200160002060003373ffffffffffffffffffffffffffffffffffffffff1673ffffffffffffffffffffffffffffffffffffffff168152602001908152602001600020819055506001600a82604051611f409190615112565b908152602001604051809103902060006101000a81548160ff0219169083151502179055505050565b600073ffffffffffffffffffffffffffffffffffffffff168373ffffffffffffffffffffffffffffffffffffffff1603611fd8576040517f08c379a0000000000000000000000000000000000000000000000000000000008152600401611fcf90615620565b60405180910390fd5b6000611fe2611a67565b90506000611fef84613024565b90506000611ffc84613024565b905061201c83876000858560405180602001604052806000815250612a2b565b600080600087815260200190815260200160002060008873ffffffffffffffffffffffffffffffffffffffff1673ffffffffffffffffffffffffffffffffffffffff168152602001908152602001600020549050848110156120b3576040517f08c379a00000000000000000000000000000000000000000000000000000000081526004016120aa906156b2565b60405180910390fd5b84810360008088815260200190815260200160002060008973ffffffffffffffffffffffffffffffffffffffff1673ffffffffffffffffffffffffffffffffffffffff16815260200190815260200160002081905550600073ffffffffffffffffffffffffffffffffffffffff168773ffffffffffffffffffffffffffffffffffffffff168573ffffffffffffffffffffffffffffffffffffffff167fc3d58168c5ae7397731d063d5bbf3d657854427343f4c083240f7aacaa2d0f6289896040516121809291906156d2565b60405180910390a46121a684886000868660405180602001604052806000815250612e45565b50505050505050565b8173ffffffffffffffffffffffffffffffffffffffff168373ffffffffffffffffffffffffffffffffffffffff160361221d576040517f08c379a00000000000000000000000000000000000000000000000000000000081526004016122149061576d565b60405180910390fd5b80600160008573ffffffffffffffffffffffffffffffffffffffff1673ffffffffffffffffffffffffffffffffffffffff16815260200190815260200160002060008473ffffffffffffffffffffffffffffffffffffffff1673ffffffffffffffffffffffffffffffffffffffff16815260200190815260200160002060006101000a81548160ff0219169083151502179055508173ffffffffffffffffffffffffffffffffffffffff168373ffffffffffffffffffffffffffffffffffffffff167f17307eab39ab6107e8899845ad3d59bd9653f200f220920489ca2b5937696c318360405161230e9190613fc2565b60405180910390a3505050565b6000600f8260405161232d9190615112565b908152602001604051809103902060009054906101000a900460ff1615612389576040517f08c379a0000000000000000000000000000000000000000000000000000000008152600401612380906157d9565b60405180910390fd5b60006123948661309e565b90506123a081846130e9565b6123ac85878387613155565b6123fe858260016000368080601f016020809104026020016040519081016040528093929190818152602001838380828437600081840152601f19601f82011690508083019250505050505050613259565b80915050949350505050565b60006007600083815260200190815260200160002060008473ffffffffffffffffffffffffffffffffffffffff1673ffffffffffffffffffffffffffffffffffffffff1681526020019081526020016000205490506000600660008481526020019081526020016000208054905090508082146126b9576000600660008581526020019081526020016000206001836124a39190614fd5565b815481106124b4576124b3614f77565b5b90600052602060002090600202016040518060400160405290816000820160009054906101000a900473ffffffffffffffffffffffffffffffffffffffff1673ffffffffffffffffffffffffffffffffffffffff1673ffffffffffffffffffffffffffffffffffffffff16815260200160018201805461253390614e52565b80601f016020809104026020016040519081016040528092919081815260200182805461255f90614e52565b80156125ac5780601f10612581576101008083540402835291602001916125ac565b820191906000526020600020905b81548152906001019060200180831161258f57829003601f168201915b505050505081525050905080600660008681526020019081526020016000206001856125d89190614fd5565b815481106125e9576125e8614f77565b5b906000526020600020906002020160008201518160000160006101000a81548173ffffffffffffffffffffffffffffffffffffffff021916908373ffffffffffffffffffffffffffffffffffffffff160217905550602082015181600101908051906020019061265a929190613cc6565b5090505082600760008681526020019081526020016000206000836000015173ffffffffffffffffffffffffffffffffffffffff1673ffffffffffffffffffffffffffffffffffffffff16815260200190815260200160002081905550505b600660008481526020019081526020016000208054806126dc576126db6157f9565b5b6001900381819060005260206000209060020201600080820160006101000a81549073ffffffffffffffffffffffffffffffffffffffff02191690556001820160006127289190613d4c565b505090556127368484613409565b6007600084815260200190815260200160002060008573ffffffffffffffffffffffffffffffffffffffff1673ffffffffffffffffffffffffffffffffffffffff1681526020019081526020016000206000905550505050565b600073ffffffffffffffffffffffffffffffffffffffff168473ffffffffffffffffffffffffffffffffffffffff16036127ff576040517f08c379a00000000000000000000000000000000000000000000000000000000081526004016127f69061546f565b60405180910390fd5b6000612809611a67565b9050600061281685613024565b9050600061282385613024565b9050612833838989858589612a2b565b600080600088815260200190815260200160002060008a73ffffffffffffffffffffffffffffffffffffffff1673ffffffffffffffffffffffffffffffffffffffff168152602001908152602001600020549050858110156128ca576040517f08c379a00000000000000000000000000000000000000000000000000000000081526004016128c190615501565b60405180910390fd5b85810360008089815260200190815260200160002060008b73ffffffffffffffffffffffffffffffffffffffff1673ffffffffffffffffffffffffffffffffffffffff168152602001908152602001600020819055508560008089815260200190815260200160002060008a73ffffffffffffffffffffffffffffffffffffffff1673ffffffffffffffffffffffffffffffffffffffff168152602001908152602001600020600082825461297f9190615521565b925050819055508773ffffffffffffffffffffffffffffffffffffffff168973ffffffffffffffffffffffffffffffffffffffff168573ffffffffffffffffffffffffffffffffffffffff167fc3d58168c5ae7397731d063d5bbf3d657854427343f4c083240f7aacaa2d0f628a8a6040516129fc9291906156d2565b60405180910390a4612a12848a8a86868a612e45565b612a20848a8a8a8a8a61362b565b505050505050505050565b612a39868686868686613802565b600073ffffffffffffffffffffffffffffffffffffffff168573ffffffffffffffffffffffffffffffffffffffff161480612aa05750600073ffffffffffffffffffffffffffffffffffffffff168473ffffffffffffffffffffffffffffffffffffffff16145b612adf576040517f08c379a0000000000000000000000000000000000000000000000000000000008152600401612ad690615874565b60405180910390fd5b60008351905060005b81811015612e3b576000858281518110612b0557612b04614f77565b5b602002602001015190506000612b1a826113d3565b9050600073ffffffffffffffffffffffffffffffffffffffff168973ffffffffffffffffffffffffffffffffffffffff1614612be957612b5a898361380a565b601060008a73ffffffffffffffffffffffffffffffffffffffff1673ffffffffffffffffffffffffffffffffffffffff1681526020019081526020016000206000828152602001908152602001600020600090556013600083815260200190815260200160002060006101000a81549073ffffffffffffffffffffffffffffffffffffffff0219169055612bea565b5b600073ffffffffffffffffffffffffffffffffffffffff168873ffffffffffffffffffffffffffffffffffffffff1614612d8a57601160008973ffffffffffffffffffffffffffffffffffffffff1673ffffffffffffffffffffffffffffffffffffffff168152602001908152602001600020829080600181540180825580915050600190039060005260206000200160009091909190915055601160008973ffffffffffffffffffffffffffffffffffffffff1673ffffffffffffffffffffffffffffffffffffffff16815260200190815260200160002080549050601260008481526020019081526020016000208190555081601060008a73ffffffffffffffffffffffffffffffffffffffff1673ffffffffffffffffffffffffffffffffffffffff168152602001908152602001600020600083815260200190815260200160002081905550876013600084815260200190815260200160002060006101000a81548173ffffffffffffffffffffffffffffffffffffffff021916908373ffffffffffffffffffffffffffffffffffffffff160217905550612e28565b612d93826139e4565b612d9d898361380a565b601060008a73ffffffffffffffffffffffffffffffffffffffff1673ffffffffffffffffffffffffffffffffffffffff1681526020019081526020016000206000828152602001908152602001600020600090556013600083815260200190815260200160002060006101000a81549073ffffffffffffffffffffffffffffffffffffffff02191690555b505080612e3490615009565b9050612ae8565b5050505050505050565b505050505050565b612e6c8473ffffffffffffffffffffffffffffffffffffffff16613c2f565b1561301c578373ffffffffffffffffffffffffffffffffffffffff1663bc197c8187878686866040518663ffffffff1660e01b8152600401612eb29594939291906158e9565b6020604051808303816000875af1925050508015612eee57506040513d601f19601f82011682018060405250810190612eeb9190615966565b60015b612f9357612efa6159a0565b806308c379a003612f565750612f0e6159c2565b80612f195750612f58565b806040517f08c379a0000000000000000000000000000000000000000000000000000000008152600401612f4d91906140a3565b60405180910390fd5b505b6040517f08c379a0000000000000000000000000000000000000000000000000000000008152600401612f8a90615ac4565b60405180910390fd5b63bc197c8160e01b7bffffffffffffffffffffffffffffffffffffffffffffffffffffffff1916817bffffffffffffffffffffffffffffffffffffffffffffffffffffffff19161461301a576040517f08c379a000000000000000000000000000000000000000000000000000000000815260040161301190615b56565b60405180910390fd5b505b505050505050565b60606000600167ffffffffffffffff81111561304357613042614290565b5b6040519080825280602002602001820160405280156130715781602001602082028036833780820191505090505b509050828160008151811061308957613088614f77565b5b60200260200101818152505080915050919050565b60006130bb600c6000848152602001908152602001600020613c52565b60006130d8600c6000858152602001908152602001600020613c68565b905080601084901b17915050919050565b80600460008481526020019081526020016000209080519060200190613110929190613cc6565b50817f6bb7ff708619ba0610cba295a58592e0451dee2622938c8755667688daf3529b61313c846107d6565b60405161314991906140a3565b60405180910390a25050565b600060405180606001604052808481526020018673ffffffffffffffffffffffffffffffffffffffff168152602001838152509050600d60008581526020019081526020016000208190806001815401808255809150506001900390600052602060002090600302016000909190919091506000820151816000015560208201518160010160006101000a81548173ffffffffffffffffffffffffffffffffffffffff021916908373ffffffffffffffffffffffffffffffffffffffff160217905550604082015181600201555050600d600085815260200190815260200160002080549050600e6000858152602001908152602001600020819055505050505050565b600073ffffffffffffffffffffffffffffffffffffffff168473ffffffffffffffffffffffffffffffffffffffff16036132c8576040517f08c379a00000000000000000000000000000000000000000000000000000000081526004016132bf90615be8565b60405180910390fd5b60006132d2611a67565b905060006132df85613024565b905060006132ec85613024565b90506132fd83600089858589612a2b565b8460008088815260200190815260200160002060008973ffffffffffffffffffffffffffffffffffffffff1673ffffffffffffffffffffffffffffffffffffffff168152602001908152602001600020600082825461335c9190615521565b925050819055508673ffffffffffffffffffffffffffffffffffffffff16600073ffffffffffffffffffffffffffffffffffffffff168473ffffffffffffffffffffffffffffffffffffffff167fc3d58168c5ae7397731d063d5bbf3d657854427343f4c083240f7aacaa2d0f6289896040516133da9291906156d2565b60405180910390a46133f183600089858589612e45565b6134008360008989898961362b565b50505050505050565b6000600960008473ffffffffffffffffffffffffffffffffffffffff1673ffffffffffffffffffffffffffffffffffffffff1681526020019081526020016000208054905090506000810361345e5750613627565b600081905060005b828110156134e957600960008673ffffffffffffffffffffffffffffffffffffffff1673ffffffffffffffffffffffffffffffffffffffff16815260200190815260200160002081815481106134bf576134be614f77565b5b906000526020600020015484036134d8578091506134e9565b806134e290615009565b9050613466565b508181036134f8575050613627565b600960008573ffffffffffffffffffffffffffffffffffffffff1673ffffffffffffffffffffffffffffffffffffffff1681526020019081526020016000206001836135449190614fd5565b8154811061355557613554614f77565b5b9060005260206000200154600960008673ffffffffffffffffffffffffffffffffffffffff1673ffffffffffffffffffffffffffffffffffffffff16815260200190815260200160002082815481106135b1576135b0614f77565b5b9060005260206000200181905550600960008573ffffffffffffffffffffffffffffffffffffffff1673ffffffffffffffffffffffffffffffffffffffff16815260200190815260200160002080548061360e5761360d6157f9565b5b6001900381819060005260206000200160009055905550505b5050565b61364a8473ffffffffffffffffffffffffffffffffffffffff16613c2f565b156137fa578373ffffffffffffffffffffffffffffffffffffffff1663f23a6e6187878686866040518663ffffffff1660e01b8152600401613690959493929190615c08565b6020604051808303816000875af19250505080156136cc57506040513d601f19601f820116820180604052508101906136c99190615966565b60015b613771576136d86159a0565b806308c379a00361373457506136ec6159c2565b806136f75750613736565b806040517f08c379a000000000000000000000000000000000000000000000000000000000815260040161372b91906140a3565b60405180910390fd5b505b6040517f08c379a000000000000000000000000000000000000000000000000000000000815260040161376890615ac4565b60405180910390fd5b63f23a6e6160e01b7bffffffffffffffffffffffffffffffffffffffffffffffffffffffff1916817bffffffffffffffffffffffffffffffffffffffffffffffffffffffff1916146137f8576040517f08c379a00000000000000000000000000000000000000000000000000000000081526004016137ef90615b56565b60405180910390fd5b505b505050505050565b505050505050565b6000601260008381526020019081526020016000205490506000601160008573ffffffffffffffffffffffffffffffffffffffff1673ffffffffffffffffffffffffffffffffffffffff168152602001908152602001600020805490509050818114613962576000601160008673ffffffffffffffffffffffffffffffffffffffff1673ffffffffffffffffffffffffffffffffffffffff1681526020019081526020016000206001836138be9190614fd5565b815481106138cf576138ce614f77565b5b9060005260206000200154905080601160008773ffffffffffffffffffffffffffffffffffffffff1673ffffffffffffffffffffffffffffffffffffffff1681526020019081526020016000206001856139299190614fd5565b8154811061393a57613939614f77565b5b9060005260206000200181905550826012600083815260200190815260200160002081905550505b601160008573ffffffffffffffffffffffffffffffffffffffff1673ffffffffffffffffffffffffffffffffffffffff1681526020019081526020016000208054806139b1576139b06157f9565b5b60019003818190600052602060002001600090559055601260008481526020019081526020016000206000905550505050565b6000600e60008381526020019081526020016000205490506000613a07836113d3565b90506000600d6000838152602001908152602001600020805490509050828114613b9f576000600d6000848152602001908152602001600020600183613a4d9190614fd5565b81548110613a5e57613a5d614f77565b5b9060005260206000209060030201604051806060016040529081600082015481526020016001820160009054906101000a900473ffffffffffffffffffffffffffffffffffffffff1673ffffffffffffffffffffffffffffffffffffffff1673ffffffffffffffffffffffffffffffffffffffff168152602001600282015481525050905080600d6000858152602001908152602001600020600186613b049190614fd5565b81548110613b1557613b14614f77565b5b90600052602060002090600302016000820151816000015560208201518160010160006101000a81548173ffffffffffffffffffffffffffffffffffffffff021916908373ffffffffffffffffffffffffffffffffffffffff1602179055506040820151816002015590505083600e60008360000151815260200190815260200160002081905550505b600d6000838152602001908152602001600020805480613bc257613bc16157f9565b5b60019003818190600052602060002090600302016000808201600090556001820160006101000a81549073ffffffffffffffffffffffffffffffffffffffff0219169055600282016000905550509055600e60008581526020019081526020016000206000905550505050565b6000808273ffffffffffffffffffffffffffffffffffffffff163b119050919050565b6001816000016000828254019250508190555050565b600081600001549050919050565b6040518060400160405280613c89613d8c565b8152602001600081525090565b6040518060800160405280613ca9613dbc565b815260200160608152602001600081526020016000151581525090565b828054613cd290614e52565b90600052602060002090601f016020900481019282613cf45760008555613d3b565b82601f10613d0d57805160ff1916838001178555613d3b565b82800160010185558215613d3b579182015b82811115613d3a578251825591602001919060010190613d1f565b5b509050613d489190613df3565b5090565b508054613d5890614e52565b6000825580601f10613d6a5750613d89565b601f016020900490600052602060002090810190613d889190613df3565b5b50565b6040518060400160405280600073ffffffffffffffffffffffffffffffffffffffff168152602001606081525090565b604051806060016040528060008152602001600073ffffffffffffffffffffffffffffffffffffffff168152602001600081525090565b5b80821115613e0c576000816000905550600101613df4565b5090565b6000604051905090565b600080fd5b600080fd5b600073ffffffffffffffffffffffffffffffffffffffff82169050919050565b6000613e4f82613e24565b9050919050565b613e5f81613e44565b8114613e6a57600080fd5b50565b600081359050613e7c81613e56565b92915050565b6000819050919050565b613e9581613e82565b8114613ea057600080fd5b50565b600081359050613eb281613e8c565b92915050565b60008060408385031215613ecf57613ece613e1a565b5b6000613edd85828601613e6d565b9250506020613eee85828601613ea3565b9150509250929050565b613f0181613e82565b82525050565b6000602082019050613f1c6000830184613ef8565b92915050565b60007fffffffff0000000000000000000000000000000000000000000000000000000082169050919050565b613f5781613f22565b8114613f6257600080fd5b50565b600081359050613f7481613f4e565b92915050565b600060208284031215613f9057613f8f613e1a565b5b6000613f9e84828501613f65565b91505092915050565b60008115159050919050565b613fbc81613fa7565b82525050565b6000602082019050613fd76000830184613fb3565b92915050565b600060208284031215613ff357613ff2613e1a565b5b600061400184828501613ea3565b91505092915050565b600081519050919050565b600082825260208201905092915050565b60005b83811015614044578082015181840152602081019050614029565b83811115614053576000848401525b50505050565b6000601f19601f8301169050919050565b60006140758261400a565b61407f8185614015565b935061408f818560208601614026565b61409881614059565b840191505092915050565b600060208201905081810360008301526140bd818461406a565b905092915050565b600081519050919050565b600082825260208201905092915050565b6000819050602082019050919050565b6140fa81613e44565b82525050565b600082825260208201905092915050565b600061411c8261400a565b6141268185614100565b9350614136818560208601614026565b61413f81614059565b840191505092915050565b600060408301600083015161416260008601826140f1565b506020830151848203602086015261417a8282614111565b9150508091505092915050565b61419081613e82565b82525050565b600060408301600083015184820360008601526141b3828261414a565b91505060208301516141c86020860182614187565b508091505092915050565b60006141df8383614196565b905092915050565b6000602082019050919050565b60006141ff826140c5565b61420981856140d0565b93508360208202850161421b856140e1565b8060005b85811015614257578484038952815161423885826141d3565b9450614243836141e7565b925060208a0199505060018101905061421f565b50829750879550505050505092915050565b6000602082019050818103600083015261428381846141f4565b905092915050565b600080fd5b7f4e487b7100000000000000000000000000000000000000000000000000000000600052604160045260246000fd5b6142c882614059565b810181811067ffffffffffffffff821117156142e7576142e6614290565b5b80604052505050565b60006142fa613e10565b905061430682826142bf565b919050565b600067ffffffffffffffff82111561432657614325614290565b5b602082029050602081019050919050565b600080fd5b600061434f61434a8461430b565b6142f0565b9050808382526020820190506020840283018581111561437257614371614337565b5b835b8181101561439b57806143878882613ea3565b845260208401935050602081019050614374565b5050509392505050565b600082601f8301126143ba576143b961428b565b5b81356143ca84826020860161433c565b91505092915050565b600080fd5b600067ffffffffffffffff8211156143f3576143f2614290565b5b6143fc82614059565b9050602081019050919050565b82818337600083830152505050565b600061442b614426846143d8565b6142f0565b905082815260208101848484011115614447576144466143d3565b5b614452848285614409565b509392505050565b600082601f83011261446f5761446e61428b565b5b813561447f848260208601614418565b91505092915050565b600080600080600060a086880312156144a4576144a3613e1a565b5b60006144b288828901613e6d565b95505060206144c388828901613e6d565b945050604086013567ffffffffffffffff8111156144e4576144e3613e1f565b5b6144f0888289016143a5565b935050606086013567ffffffffffffffff81111561451157614510613e1f565b5b61451d888289016143a5565b925050608086013567ffffffffffffffff81111561453e5761453d613e1f565b5b61454a8882890161445a565b9150509295509295909350565b600081519050919050565b600082825260208201905092915050565b6000819050602082019050919050565b600061458f838361414a565b905092915050565b6000602082019050919050565b60006145af82614557565b6145b98185614562565b9350836020820285016145cb85614573565b8060005b8581101561460757848403895281516145e88582614583565b94506145f383614597565b925060208a019950506001810190506145cf565b50829750879550505050505092915050565b6000602082019050818103600083015261463381846145a4565b905092915050565b600067ffffffffffffffff82111561465657614655614290565b5b61465f82614059565b9050602081019050919050565b600061467f61467a8461463b565b6142f0565b90508281526020810184848401111561469b5761469a6143d3565b5b6146a6848285614409565b509392505050565b600082601f8301126146c3576146c261428b565b5b81356146d384826020860161466c565b91505092915050565b600080604083850312156146f3576146f2613e1a565b5b600061470185828601613ea3565b925050602083013567ffffffffffffffff81111561472257614721613e1f565b5b61472e858286016146ae565b9150509250929050565b600067ffffffffffffffff82111561475357614752614290565b5b602082029050602081019050919050565b600061477761477284614738565b6142f0565b9050808382526020820190506020840283018581111561479a57614799614337565b5b835b818110156147c357806147af8882613e6d565b84526020840193505060208101905061479c565b5050509392505050565b600082601f8301126147e2576147e161428b565b5b81356147f2848260208601614764565b91505092915050565b6000806040838503121561481257614811613e1a565b5b600083013567ffffffffffffffff8111156148305761482f613e1f565b5b61483c858286016147cd565b925050602083013567ffffffffffffffff81111561485d5761485c613e1f565b5b614869858286016143a5565b9150509250929050565b600081519050919050565b600082825260208201905092915050565b6000819050602082019050919050565b60006148ab8383614187565b60208301905092915050565b6000602082019050919050565b60006148cf82614873565b6148d9818561487e565b93506148e48361488f565b8060005b838110156149155781516148fc888261489f565b9750614907836148b7565b9250506001810190506148e8565b5085935050505092915050565b6000602082019050818103600083015261493c81846148c4565b905092915050565b6000806040838503121561495b5761495a613e1a565b5b600061496985828601613ea3565b925050602061497a85828601613e6d565b9150509250929050565b60608201600082015161499a6000850182614187565b5060208201516149ad60208501826140f1565b5060408201516149c06040850182614187565b50505050565b6149cf81613fa7565b82525050565b600060c0830160008301516149ed6000860182614984565b5060208301518482036060860152614a058282614111565b9150506040830151614a1a6080860182614187565b506060830151614a2d60a08601826149c6565b508091505092915050565b60006020820190508181036000830152614a5281846149d5565b905092915050565b614a6381613e44565b82525050565b6000602082019050614a7e6000830184614a5a565b92915050565b600081519050919050565b600082825260208201905092915050565b6000819050602082019050919050565b600060c083016000830151614ac86000860182614984565b5060208301518482036060860152614ae08282614111565b9150506040830151614af56080860182614187565b506060830151614b0860a08601826149c6565b508091505092915050565b6000614b1f8383614ab0565b905092915050565b6000602082019050919050565b6000614b3f82614a84565b614b498185614a8f565b935083602082028501614b5b85614aa0565b8060005b85811015614b975784840389528151614b788582614b13565b9450614b8383614b27565b925060208a01995050600181019050614b5f565b50829750879550505050505092915050565b60006020820190508181036000830152614bc38184614b34565b905092915050565b614bd481613fa7565b8114614bdf57600080fd5b50565b600081359050614bf181614bcb565b92915050565b60008060408385031215614c0e57614c0d613e1a565b5b6000614c1c85828601613e6d565b9250506020614c2d85828601614be2565b9150509250929050565b60008060008060808587031215614c5157614c50613e1a565b5b6000614c5f87828801613e6d565b9450506020614c7087828801613ea3565b9350506040614c8187828801613ea3565b925050606085013567ffffffffffffffff811115614ca257614ca1613e1f565b5b614cae878288016146ae565b91505092959194509250565b60008060408385031215614cd157614cd0613e1a565b5b6000614cdf85828601613e6d565b9250506020614cf085828601613e6d565b9150509250929050565b600080600080600060a08688031215614d1657614d15613e1a565b5b6000614d2488828901613e6d565b9550506020614d3588828901613e6d565b9450506040614d4688828901613ea3565b9350506060614d5788828901613ea3565b925050608086013567ffffffffffffffff811115614d7857614d77613e1f565b5b614d848882890161445a565b9150509295509295909350565b7f455243313135353a2061646472657373207a65726f206973206e6f742061207660008201527f616c6964206f776e657200000000000000000000000000000000000000000000602082015250565b6000614ded602a83614015565b9150614df882614d91565b604082019050919050565b60006020820190508181036000830152614e1c81614de0565b9050919050565b7f4e487b7100000000000000000000000000000000000000000000000000000000600052602260045260246000fd5b60006002820490506001821680614e6a57607f821691505b602082108103614e7d57614e7c614e23565b5b50919050565b600081905092915050565b60008190508160005260206000209050919050565b60008154614eb081614e52565b614eba8186614e83565b94506001821660008114614ed55760018114614ee657614f19565b60ff19831686528186019350614f19565b614eef85614e8e565b60005b83811015614f1157815481890152600182019150602081019050614ef2565b838801955050505b50505092915050565b6000614f2d8261400a565b614f378185614e83565b9350614f47818560208601614026565b80840191505092915050565b6000614f5f8285614ea3565b9150614f6b8284614f22565b91508190509392505050565b7f4e487b7100000000000000000000000000000000000000000000000000000000600052603260045260246000fd5b7f4e487b7100000000000000000000000000000000000000000000000000000000600052601160045260246000fd5b6000614fe082613e82565b9150614feb83613e82565b925082821015614ffe57614ffd614fa6565b5b828203905092915050565b600061501482613e82565b91507fffffffffffffffffffffffffffffffffffffffffffffffffffffffffffffffff820361504657615045614fa6565b5b600182019050919050565b7f455243313135353a2063616c6c6572206973206e6f7420746f6b656e206f776e60008201527f6572206f7220617070726f766564000000000000000000000000000000000000602082015250565b60006150ad602e83614015565b91506150b882615051565b604082019050919050565b600060208201905081810360008301526150dc816150a0565b9050919050565b7f4e487b7100000000000000000000000000000000000000000000000000000000600052602160045260246000fd5b600061511e8284614f22565b915081905092915050565b7f446f63756d656e74205552492065786973740000000000000000000000000000600082015250565b600061515f601283614015565b915061516a82615129565b602082019050919050565b6000602082019050818103600083015261518e81615152565b9050919050565b7f4861732072656769737465726564000000000000000000000000000000000000600082015250565b60006151cb600e83614015565b91506151d682615195565b602082019050919050565b600060208201905081810360008301526151fa816151be565b9050919050565b7f455243313135353a206163636f756e747320616e6420696473206c656e67746860008201527f206d69736d617463680000000000000000000000000000000000000000000000602082015250565b600061525d602983614015565b915061526882615201565b604082019050919050565b6000602082019050818103600083015261528c81615250565b9050919050565b7f4e6f742072656769737465726564000000000000000000000000000000000000600082015250565b60006152c9600e83614015565b91506152d482615293565b602082019050919050565b600060208201905081810360008301526152f8816152bc565b9050919050565b7f4e6674206973206e6f7420657869737400000000000000000000000000000000600082015250565b6000615335601083614015565b9150615340826152ff565b602082019050919050565b6000602082019050818103600083015261536481615328565b9050919050565b7f455243313135353a2069647320616e6420616d6f756e7473206c656e6774682060008201527f6d69736d61746368000000000000000000000000000000000000000000000000602082015250565b60006153c7602883614015565b91506153d28261536b565b604082019050919050565b600060208201905081810360008301526153f6816153ba565b9050919050565b7f455243313135353a207472616e7366657220746f20746865207a65726f20616460008201527f6472657373000000000000000000000000000000000000000000000000000000602082015250565b6000615459602583614015565b9150615464826153fd565b604082019050919050565b600060208201905081810360008301526154888161544c565b9050919050565b7f455243313135353a20696e73756666696369656e742062616c616e636520666f60008201527f72207472616e7366657200000000000000000000000000000000000000000000602082015250565b60006154eb602a83614015565b91506154f68261548f565b604082019050919050565b6000602082019050818103600083015261551a816154de565b9050919050565b600061552c82613e82565b915061553783613e82565b9250827fffffffffffffffffffffffffffffffffffffffffffffffffffffffffffffffff0382111561556c5761556b614fa6565b5b828201905092915050565b6000604082019050818103600083015261559181856148c4565b905081810360208301526155a581846148c4565b90509392505050565b7f455243313135353a206275726e2066726f6d20746865207a65726f206164647260008201527f6573730000000000000000000000000000000000000000000000000000000000602082015250565b600061560a602383614015565b9150615615826155ae565b604082019050919050565b60006020820190508181036000830152615639816155fd565b9050919050565b7f455243313135353a206275726e20616d6f756e7420657863656564732062616c60008201527f616e636500000000000000000000000000000000000000000000000000000000602082015250565b600061569c602483614015565b91506156a782615640565b604082019050919050565b600060208201905081810360008301526156cb8161568f565b9050919050565b60006040820190506156e76000830185613ef8565b6156f46020830184613ef8565b9392505050565b7f455243313135353a2073657474696e6720617070726f76616c2073746174757360008201527f20666f722073656c660000000000000000000000000000000000000000000000602082015250565b6000615757602983614015565b9150615762826156fb565b604082019050919050565b600060208201905081810360008301526157868161574a565b9050919050565b7f546f6b656e205552492068617320616c72656164792075736564000000000000600082015250565b60006157c3601a83614015565b91506157ce8261578d565b602082019050919050565b600060208201905081810360008301526157f2816157b6565b9050919050565b7f4e487b7100000000000000000000000000000000000000000000000000000000600052603160045260246000fd5b7f4f6e6c79206d696e74206f72206275726e20697320616c6c6f77656400000000600082015250565b600061585e601c83614015565b915061586982615828565b602082019050919050565b6000602082019050818103600083015261588d81615851565b9050919050565b600081519050919050565b600082825260208201905092915050565b60006158bb82615894565b6158c5818561589f565b93506158d5818560208601614026565b6158de81614059565b840191505092915050565b600060a0820190506158fe6000830188614a5a565b61590b6020830187614a5a565b818103604083015261591d81866148c4565b9050818103606083015261593181856148c4565b9050818103608083015261594581846158b0565b90509695505050505050565b60008151905061596081613f4e565b92915050565b60006020828403121561597c5761597b613e1a565b5b600061598a84828501615951565b91505092915050565b60008160e01c9050919050565b600060033d11156159bf5760046000803e6159bc600051615993565b90505b90565b600060443d10615a4f576159d4613e10565b60043d036004823e80513d602482011167ffffffffffffffff821117156159fc575050615a4f565b808201805167ffffffffffffffff811115615a1a5750505050615a4f565b80602083010160043d038501811115615a37575050505050615a4f565b615a46826020018501866142bf565b82955050505050505b90565b7f455243313135353a207472616e7366657220746f206e6f6e2d4552433131353560008201527f526563656976657220696d706c656d656e746572000000000000000000000000602082015250565b6000615aae603483614015565b9150615ab982615a52565b604082019050919050565b60006020820190508181036000830152615add81615aa1565b9050919050565b7f455243313135353a204552433131353552656365697665722072656a6563746560008201527f6420746f6b656e73000000000000000000000000000000000000000000000000602082015250565b6000615b40602883614015565b9150615b4b82615ae4565b604082019050919050565b60006020820190508181036000830152615b6f81615b33565b9050919050565b7f455243313135353a206d696e7420746f20746865207a65726f2061646472657360008201527f7300000000000000000000000000000000000000000000000000000000000000602082015250565b6000615bd2602183614015565b9150615bdd82615b76565b604082019050919050565b60006020820190508181036000830152615c0181615bc5565b9050919050565b600060a082019050615c1d6000830188614a5a565b615c2a6020830187614a5a565b615c376040830186613ef8565b615c446060830185613ef8565b8181036080830152615c5681846158b0565b9050969550505050505056fea264697066735822122019236ac71bea4d75f7666a31acb305d56fff8a574dca79682d298c672835fa8f64736f6c634300080d0033",
  "immutableReferences": {},
  "source": "// SPDX-License-Identifier: MIT\r\n// Tells the Solidity compiler to compile only from v0.8.13 to v0.9.0\r\npragma solidity ^0.8.13;\r\n\r\nimport \"@openzeppelin/contracts/token/ERC1155/extensions/ERC1155URIStorage.sol\";\r\nimport \"@openzeppelin/contracts/utils/Counters.sol\";\r\nimport \"@openzeppelin/contracts/access/Ownable.sol\";\r\nimport \"./base/Registration.sol\";\r\nimport \"./interfaces/INftIdentities.sol\";\r\n\r\ncontract NftIdentities is INftIdentities, ERC1155URIStorage, Registration {\r\n    using Counters for Counters.Counter;\r\n\r\n    uint256 constant INDEX_BITS = 16;\r\n    uint256 constant MAX_NFT_INDEX = uint256(~uint16(0));\r\n    uint256 constant ONE_NFT = 1;\r\n\r\n    uint256 constant VISITOR_ID = 99;\r\n    uint256 constant REGISTERED_ID = 100;\r\n    uint256 constant HIGHEST_OPERATOR_ID = 101;\r\n\r\n    // Registration vars\r\n    uint256 public registerFee = 0.05 ether;\r\n\r\n    mapping(uint256 => Counters.Counter) _maxTokenIdIndexOfRole; // type => max token id\r\n    mapping(uint256 => NftIdentity[]) private _nftsOfRole; // type => Nft\r\n    mapping(uint256 => uint256) private _nftPosOfTokenId; // tokenId => index\r\n    mapping(string => bool) private _usedTokenURI;\r\n\r\n    mapping(address => mapping(uint256 => uint256))\r\n        private _mappingRoleToTokenIdOfOwner;\r\n    mapping(address => uint256[]) private _nftsOfOwner; // address => tokenId[]\r\n    mapping(uint256 => uint256) private _posOfNftOfOwner; // tokenId => pos\r\n    mapping(uint256 => address) private _ownerOfNft;\r\n\r\n    uint256[] _extendRequestTokenIds;\r\n    mapping(uint256 => uint256) _positionOfRequestTokenId;\r\n\r\n    modifier isAfterNow(uint256 timestamp) {\r\n        require(timestamp > block.timestamp);\r\n        _;\r\n    }\r\n\r\n    modifier canGenerateNewTokens(uint256 role, uint256 amount) {\r\n        uint256 currentIndex = _maxTokenIdIndexOfRole[role].current() +\r\n            amount -\r\n            1;\r\n        require(currentIndex | MAX_NFT_INDEX == MAX_NFT_INDEX);\r\n        _;\r\n    }\r\n\r\n    modifier ownNft(uint256 tokenId) {\r\n        require(_ownerOfNft[tokenId] == msg.sender);\r\n        _;\r\n    }\r\n\r\n    modifier tokenOwnByContract(uint256 tokenId) {\r\n        require(_ownerOfNft[tokenId] == _owner);\r\n        _;\r\n    }\r\n\r\n    constructor() ERC1155(\"\") {\r\n        _owner = msg.sender;\r\n        _hasRole[uint(ROLE.STUDENT)] = true;\r\n        _hasRole[uint(ROLE.TEACHER)] = true;\r\n    }\r\n\r\n    function getTokenType(uint256 tokenId) public pure returns (uint256) {\r\n        return tokenId >> INDEX_BITS;\r\n    }\r\n\r\n    function getNftOfTokenId(\r\n        uint256 tokenId\r\n    ) public view returns (NftIdentityResponse memory) {\r\n        uint256 nftType = getTokenType(tokenId);\r\n        uint256 pos = _nftPosOfTokenId[tokenId];\r\n        require(pos > 0, \"Nft is not exist\");\r\n        NftIdentity memory nftIdentity = _nftsOfRole[nftType][pos - 1];\r\n\r\n        NftIdentityResponse memory nftIdentityResponse = NftIdentityResponse(\r\n            nftIdentity,\r\n            uri(tokenId),\r\n            getTokenType(tokenId),\r\n            nftIdentity.expiredAt < block.timestamp\r\n        );\r\n\r\n        return nftIdentityResponse;\r\n    }\r\n\r\n    // function getAllExtendExpiredRequest()\r\n    //     public\r\n    //     view\r\n    //     onlyOwner\r\n    //     returns (NftIdentity[] memory, string[] memory)\r\n    // {\r\n    //     uint256 numberOfRequests = _extendRequestTokenIds.length;\r\n    //     NftIdentity[] memory nftIdentities = new NftIdentity[](\r\n    //         numberOfRequests\r\n    //     );\r\n    //     string[] memory tokenURIs = new string[](numberOfRequests);\r\n\r\n    //     for (uint256 index = 0; index < numberOfRequests; ++index) {\r\n    //         uint256 tokenId = _extendRequestTokenIds[index];\r\n    //         NftIdentity memory nftIdentity;\r\n    //         string memory tokenURI;\r\n    //         (nftIdentity, tokenURI) = getNftInfo(tokenId);\r\n\r\n    //         nftIdentities[index] = nftIdentity;\r\n    //         tokenURIs[index] = tokenURI;\r\n    //     }\r\n\r\n    //     return (nftIdentities, tokenURIs);\r\n    // }\r\n\r\n    // Used for everyone: Section end\r\n\r\n    // Used for teacher: Section start\r\n    /*\r\n        Teacher: if expired => request to extend =>\r\n            - Accept: Reset expired date\r\n            - Reject: Burn token\r\n        Student: if expired => Extend year end? (graduated won't own nft) => request to extend =>\r\n            - Accept: Reset expired date\r\n            - Reject: Burn token\r\n    */\r\n    // function requestExtendExpiredNft() public {\r\n    //     uint256 tokenId = _nftOfOwner[msg.sender];\r\n    //     require(tokenId > 0);\r\n    //     NftIdentity memory nftIdentity = getNftOfTokenId(tokenId);\r\n    //     require(nftIdentity.expiredAt < block.timestamp);\r\n\r\n    //     safeTransferFrom(msg.sender, _owner, tokenId, ONE_NFT, msg.data);\r\n    //     _extendRequestTokenIds.push(tokenId);\r\n    //     _positionOfRequestTokenId[tokenId] = _extendRequestTokenIds.length;\r\n    // }\r\n\r\n    // Used for student: Section start\r\n\r\n    function ownerOf(uint256 tokenId) external view returns (address) {\r\n        return _ownerOfNft[tokenId];\r\n    }\r\n\r\n    function isAbleToOperate(\r\n        address registerAddr,\r\n        uint256 role\r\n    ) public view returns (bool) {\r\n        uint256 tokenId = _mappingRoleToTokenIdOfOwner[registerAddr][role];\r\n        if (tokenId == 0) {\r\n            return false;\r\n        }\r\n        NftIdentity memory nftIdentity = getNftOfTokenId(tokenId).nftIdentity;\r\n\r\n        return nftIdentity.expiredAt > block.timestamp;\r\n    }\r\n\r\n    // Registration Section: Start\r\n    function registerNftIdentity(\r\n        uint256 role,\r\n        string memory documentURI\r\n    ) public payable {\r\n        require(msg.value == registerFee);\r\n        require(role == uint256(ROLE.TEACHER) || role == uint256(ROLE.STUDENT));\r\n        require(!_registeredDocumentURI[documentURI], \"Document URI exist\");\r\n        require(_positionOfRegisters[role][msg.sender] == 0, \"Has registered\");\r\n        _register(role, documentURI);\r\n    }\r\n\r\n    function grantNftIdentity(\r\n        address targetAccount,\r\n        uint256 role,\r\n        uint256 expiredAt,\r\n        string memory tokenURI\r\n    ) public onlyOwner hasRegistered(targetAccount, role) {\r\n        _mintToken(role, targetAccount, expiredAt, tokenURI);\r\n        _removeFromRegistersList(targetAccount, role);\r\n    }\r\n\r\n    function rejectNftIdentityRegistration(\r\n        address to,\r\n        uint256 role\r\n    ) public onlyOwner hasRegistered(to, role) {\r\n        _removeFromRegistersList(to, role);\r\n    }\r\n\r\n    // Registration Section: End\r\n\r\n    // function extendExpiredNft(\r\n    //     uint256 tokenId,\r\n    //     uint256 nextExpiredAt\r\n    // ) public onlyOwner tokenOwnByContract(tokenId) isAfterNow(nextExpiredAt) {\r\n    //     // For approve extend expired request\r\n    //     uint256 nftType = getTokenType(tokenId);\r\n    //     uint256 pos = _nftPosOfTokenId[tokenId];\r\n    //     require(pos > 0, \"Nft is not exist\");\r\n\r\n    //     _nftsOfRole[nftType][pos - 1].expiredAt = nextExpiredAt;\r\n    // }\r\n\r\n    function burnNft(\r\n        uint256 tokenId\r\n    ) public onlyOwner tokenOwnByContract(tokenId) {\r\n        // For reject extend expired request\r\n        _burn(_owner, tokenId, ONE_NFT);\r\n    }\r\n\r\n    function getOwnedNfts() public view returns (NftIdentityResponse[] memory) {\r\n        uint256[] memory tokenIds = _nftsOfOwner[msg.sender];\r\n        uint256 count = tokenIds.length;\r\n        NftIdentityResponse[]\r\n            memory nftIdentityResponse = new NftIdentityResponse[](count);\r\n\r\n        for (uint256 idx; idx < count; ++idx) {\r\n            nftIdentityResponse[idx] = getNftOfTokenId(tokenIds[idx]);\r\n        }\r\n\r\n        return nftIdentityResponse;\r\n    }\r\n\r\n    function getAllMembers(\r\n        uint256 role\r\n    ) external view returns (NftIdentityResponse[] memory) {\r\n        uint256 count = _nftsOfRole[role].length;\r\n        NftIdentityResponse[]\r\n            memory nftIdentitiyResponses = new NftIdentityResponse[](count);\r\n\r\n        for (uint256 idx; idx < count; ++idx) {\r\n            nftIdentitiyResponses[idx] = getNftOfTokenId(\r\n                _nftsOfRole[role][idx].tokenId\r\n            );\r\n        }\r\n\r\n        return nftIdentitiyResponses;\r\n    }\r\n\r\n    function getNftOfMemberWithRole(\r\n        uint256 role,\r\n        address sender\r\n    ) public view returns (NftIdentityResponse memory) {\r\n        uint256 tokenId = _mappingRoleToTokenIdOfOwner[sender][role];\r\n\r\n        return getNftOfTokenId(tokenId);\r\n    }\r\n\r\n    // Checker Section: Start\r\n    function getNftTokenIdOfRole(\r\n        address checkedAddr,\r\n        uint256 role\r\n    ) public view returns (uint256) {\r\n        return _mappingRoleToTokenIdOfOwner[checkedAddr][role];\r\n    }\r\n    // Checker Section: End\r\n\r\n    // Used for members: Section end\r\n    function _beforeTokenTransfer(\r\n        address operator,\r\n        address from,\r\n        address to,\r\n        uint256[] memory ids,\r\n        uint256[] memory amounts,\r\n        bytes memory data\r\n    ) internal virtual override {\r\n        super._beforeTokenTransfer(operator, from, to, ids, amounts, data);\r\n        require(\r\n            from == address(0) || to == address(0),\r\n            \"Only mint or burn is allowed\"\r\n        );\r\n\r\n        uint256 idsCount = ids.length;\r\n        for (uint256 idx = 0; idx < idsCount; ++idx) {\r\n            uint256 tokenId = ids[idx];\r\n            uint256 role = getTokenType(tokenId);\r\n\r\n            if (from != address(0)) {\r\n                // Remove from owner list\r\n                _removeTokenIdFromOwner(from, tokenId);\r\n                delete _mappingRoleToTokenIdOfOwner[from][role];\r\n                delete _ownerOfNft[tokenId];\r\n            } else {}\r\n\r\n            if (to != address(0)) {\r\n                _nftsOfOwner[to].push(tokenId);\r\n                _posOfNftOfOwner[tokenId] = _nftsOfOwner[to].length;\r\n                _mappingRoleToTokenIdOfOwner[to][role] = tokenId;\r\n                _ownerOfNft[tokenId] = to;\r\n            } else {\r\n                // burn\r\n                _removeTokenIdFromAllTokens(tokenId);\r\n                _removeTokenIdFromOwner(from, tokenId);\r\n                delete _mappingRoleToTokenIdOfOwner[from][role];\r\n                delete _ownerOfNft[tokenId];\r\n            }\r\n        }\r\n    }\r\n\r\n    function _removeTokenIdFromOwner(address owner, uint256 tokenId) private {\r\n        uint256 nftPos = _posOfNftOfOwner[tokenId];\r\n        uint256 nftCount = _nftsOfOwner[owner].length;\r\n\r\n        if (nftCount != nftPos) {\r\n            uint256 lastTokenId = _nftsOfOwner[owner][nftCount - 1];\r\n            _nftsOfOwner[owner][nftPos - 1] = lastTokenId;\r\n            _posOfNftOfOwner[lastTokenId] = nftPos;\r\n        }\r\n\r\n        _nftsOfOwner[owner].pop();\r\n        delete _posOfNftOfOwner[tokenId];\r\n    }\r\n\r\n    function _removeTokenIdFromAllTokens(uint256 tokenId) private {\r\n        uint256 nftPos = _nftPosOfTokenId[tokenId];\r\n        uint256 nftType = getTokenType(tokenId);\r\n        uint256 nftCount = _nftsOfRole[nftType].length;\r\n\r\n        if (nftCount != nftPos) {\r\n            NftIdentity memory lastNft = _nftsOfRole[nftType][nftCount - 1];\r\n            _nftsOfRole[nftType][nftPos - 1] = lastNft;\r\n            _nftPosOfTokenId[lastNft.tokenId] = nftPos;\r\n        }\r\n        _nftsOfRole[nftType].pop();\r\n        delete _nftPosOfTokenId[tokenId];\r\n    }\r\n\r\n    function _mintToken(\r\n        uint256 role,\r\n        address to,\r\n        uint256 expiredAt,\r\n        string memory tokenURI\r\n    ) private returns (uint256) {\r\n        require(!_usedTokenURI[tokenURI], \"Token URI has already used\");\r\n        uint256 tokenId = _generateNewTokenId(role);\r\n        _setURI(tokenId, tokenURI);\r\n\r\n        _createNftIdentity(to, role, tokenId, expiredAt);\r\n        _mint(to, tokenId, ONE_NFT, msg.data);\r\n\r\n        return tokenId;\r\n    }\r\n\r\n    function _createNftIdentity(\r\n        address to,\r\n        uint256 role,\r\n        uint256 tokenId,\r\n        uint256 expiredAt\r\n    ) private {\r\n        NftIdentity memory nftIdentity = NftIdentity(tokenId, to, expiredAt);\r\n\r\n        _nftsOfRole[role].push(nftIdentity);\r\n        _nftPosOfTokenId[tokenId] = _nftsOfRole[role].length;\r\n    }\r\n\r\n    function _generateNewTokenId(uint256 role) private returns (uint256) {\r\n        _maxTokenIdIndexOfRole[role].increment();\r\n        uint256 tokenId = _maxTokenIdIndexOfRole[role].current();\r\n\r\n        return (role << INDEX_BITS) | tokenId;\r\n    }\r\n}\r\n",
  "sourcePath": "E:\\learn\\learn-to-earn\\blockchain\\contracts\\NftIdentities.sol",
  "compiler": {
    "name": "solc",
    "version": "0.8.13+commit.abaa5c0e.Emscripten.clang"
  },
  "schemaVersion": "3.4.13",
  "updatedAt": "2023-07-08T08:38:41.053Z",
  "networkType": "ethereum",
  "devdoc": {
    "kind": "dev",
    "methods": {
      "balanceOf(address,uint256)": {
        "details": "See {IERC1155-balanceOf}. Requirements: - `account` cannot be the zero address."
      },
      "balanceOfBatch(address[],uint256[])": {
        "details": "See {IERC1155-balanceOfBatch}. Requirements: - `accounts` and `ids` must have the same length."
      },
      "isApprovedForAll(address,address)": {
        "details": "See {IERC1155-isApprovedForAll}."
      },
      "safeBatchTransferFrom(address,address,uint256[],uint256[],bytes)": {
        "details": "See {IERC1155-safeBatchTransferFrom}."
      },
      "safeTransferFrom(address,address,uint256,uint256,bytes)": {
        "details": "See {IERC1155-safeTransferFrom}."
      },
      "setApprovalForAll(address,bool)": {
        "details": "See {IERC1155-setApprovalForAll}."
      },
      "supportsInterface(bytes4)": {
        "details": "See {IERC165-supportsInterface}."
      },
      "uri(uint256)": {
        "details": "See {IERC1155MetadataURI-uri}. This implementation returns the concatenation of the `_baseURI` and the token-specific uri if the latter is set This enables the following behaviors: - if `_tokenURIs[tokenId]` is set, then the result is the concatenation   of `_baseURI` and `_tokenURIs[tokenId]` (keep in mind that `_baseURI`   is empty per default); - if `_tokenURIs[tokenId]` is NOT set then we fallback to `super.uri()`   which in most cases will contain `ERC1155._uri`; - if `_tokenURIs[tokenId]` is NOT set, and if the parents do not have a   uri value set, then the result is empty."
      }
    },
    "version": 1
  },
  "userdoc": {
    "kind": "user",
    "methods": {},
    "version": 1
  }
}