{
  "contractName": "NftIdentities",
  "abi": [
    {
      "inputs": [],
      "stateMutability": "nonpayable",
      "type": "constructor"
    },
    {
      "anonymous": false,
      "inputs": [
        {
          "indexed": true,
          "internalType": "address",
          "name": "account",
          "type": "address"
        },
        {
          "indexed": true,
          "internalType": "address",
          "name": "operator",
          "type": "address"
        },
        {
          "indexed": false,
          "internalType": "bool",
          "name": "approved",
          "type": "bool"
        }
      ],
      "name": "ApprovalForAll",
      "type": "event"
    },
    {
      "anonymous": false,
      "inputs": [
        {
          "indexed": true,
          "internalType": "address",
          "name": "operator",
          "type": "address"
        },
        {
          "indexed": true,
          "internalType": "address",
          "name": "from",
          "type": "address"
        },
        {
          "indexed": true,
          "internalType": "address",
          "name": "to",
          "type": "address"
        },
        {
          "indexed": false,
          "internalType": "uint256[]",
          "name": "ids",
          "type": "uint256[]"
        },
        {
          "indexed": false,
          "internalType": "uint256[]",
          "name": "values",
          "type": "uint256[]"
        }
      ],
      "name": "TransferBatch",
      "type": "event"
    },
    {
      "anonymous": false,
      "inputs": [
        {
          "indexed": true,
          "internalType": "address",
          "name": "operator",
          "type": "address"
        },
        {
          "indexed": true,
          "internalType": "address",
          "name": "from",
          "type": "address"
        },
        {
          "indexed": true,
          "internalType": "address",
          "name": "to",
          "type": "address"
        },
        {
          "indexed": false,
          "internalType": "uint256",
          "name": "id",
          "type": "uint256"
        },
        {
          "indexed": false,
          "internalType": "uint256",
          "name": "value",
          "type": "uint256"
        }
      ],
      "name": "TransferSingle",
      "type": "event"
    },
    {
      "anonymous": false,
      "inputs": [
        {
          "indexed": false,
          "internalType": "string",
          "name": "value",
          "type": "string"
        },
        {
          "indexed": true,
          "internalType": "uint256",
          "name": "id",
          "type": "uint256"
        }
      ],
      "name": "URI",
      "type": "event"
    },
    {
      "inputs": [
        {
          "internalType": "address",
          "name": "account",
          "type": "address"
        },
        {
          "internalType": "uint256",
          "name": "id",
          "type": "uint256"
        }
      ],
      "name": "balanceOf",
      "outputs": [
        {
          "internalType": "uint256",
          "name": "",
          "type": "uint256"
        }
      ],
      "stateMutability": "view",
      "type": "function",
      "constant": true
    },
    {
      "inputs": [
        {
          "internalType": "address[]",
          "name": "accounts",
          "type": "address[]"
        },
        {
          "internalType": "uint256[]",
          "name": "ids",
          "type": "uint256[]"
        }
      ],
      "name": "balanceOfBatch",
      "outputs": [
        {
          "internalType": "uint256[]",
          "name": "",
          "type": "uint256[]"
        }
      ],
      "stateMutability": "view",
      "type": "function",
      "constant": true
    },
    {
      "inputs": [
        {
          "internalType": "address",
          "name": "account",
          "type": "address"
        },
        {
          "internalType": "address",
          "name": "operator",
          "type": "address"
        }
      ],
      "name": "isApprovedForAll",
      "outputs": [
        {
          "internalType": "bool",
          "name": "",
          "type": "bool"
        }
      ],
      "stateMutability": "view",
      "type": "function",
      "constant": true
    },
    {
      "inputs": [],
      "name": "registerFee",
      "outputs": [
        {
          "internalType": "uint256",
          "name": "",
          "type": "uint256"
        }
      ],
      "stateMutability": "view",
      "type": "function",
      "constant": true
    },
    {
      "inputs": [
        {
          "internalType": "address",
          "name": "from",
          "type": "address"
        },
        {
          "internalType": "address",
          "name": "to",
          "type": "address"
        },
        {
          "internalType": "uint256[]",
          "name": "ids",
          "type": "uint256[]"
        },
        {
          "internalType": "uint256[]",
          "name": "amounts",
          "type": "uint256[]"
        },
        {
          "internalType": "bytes",
          "name": "data",
          "type": "bytes"
        }
      ],
      "name": "safeBatchTransferFrom",
      "outputs": [],
      "stateMutability": "nonpayable",
      "type": "function"
    },
    {
      "inputs": [
        {
          "internalType": "address",
          "name": "from",
          "type": "address"
        },
        {
          "internalType": "address",
          "name": "to",
          "type": "address"
        },
        {
          "internalType": "uint256",
          "name": "id",
          "type": "uint256"
        },
        {
          "internalType": "uint256",
          "name": "amount",
          "type": "uint256"
        },
        {
          "internalType": "bytes",
          "name": "data",
          "type": "bytes"
        }
      ],
      "name": "safeTransferFrom",
      "outputs": [],
      "stateMutability": "nonpayable",
      "type": "function"
    },
    {
      "inputs": [
        {
          "internalType": "address",
          "name": "operator",
          "type": "address"
        },
        {
          "internalType": "bool",
          "name": "approved",
          "type": "bool"
        }
      ],
      "name": "setApprovalForAll",
      "outputs": [],
      "stateMutability": "nonpayable",
      "type": "function"
    },
    {
      "inputs": [
        {
          "internalType": "bytes4",
          "name": "interfaceId",
          "type": "bytes4"
        }
      ],
      "name": "supportsInterface",
      "outputs": [
        {
          "internalType": "bool",
          "name": "",
          "type": "bool"
        }
      ],
      "stateMutability": "view",
      "type": "function",
      "constant": true
    },
    {
      "inputs": [
        {
          "internalType": "uint256",
          "name": "tokenId",
          "type": "uint256"
        }
      ],
      "name": "uri",
      "outputs": [
        {
          "internalType": "string",
          "name": "",
          "type": "string"
        }
      ],
      "stateMutability": "view",
      "type": "function",
      "constant": true
    },
    {
      "inputs": [
        {
          "internalType": "uint256",
          "name": "tokenId",
          "type": "uint256"
        }
      ],
      "name": "getNftInfo",
      "outputs": [
        {
          "components": [
            {
              "internalType": "uint256",
              "name": "tokenId",
              "type": "uint256"
            },
            {
              "internalType": "address",
              "name": "register",
              "type": "address"
            },
            {
              "internalType": "uint256",
              "name": "expiredAt",
              "type": "uint256"
            }
          ],
          "internalType": "struct NftIdentities.NftIdentity",
          "name": "",
          "type": "tuple"
        },
        {
          "internalType": "string",
          "name": "",
          "type": "string"
        }
      ],
      "stateMutability": "view",
      "type": "function",
      "constant": true
    },
    {
      "inputs": [
        {
          "internalType": "uint256",
          "name": "tokenId",
          "type": "uint256"
        }
      ],
      "name": "getNftOfTokenId",
      "outputs": [
        {
          "components": [
            {
              "internalType": "uint256",
              "name": "tokenId",
              "type": "uint256"
            },
            {
              "internalType": "address",
              "name": "register",
              "type": "address"
            },
            {
              "internalType": "uint256",
              "name": "expiredAt",
              "type": "uint256"
            }
          ],
          "internalType": "struct NftIdentities.NftIdentity",
          "name": "",
          "type": "tuple"
        }
      ],
      "stateMutability": "view",
      "type": "function",
      "constant": true
    },
    {
      "inputs": [
        {
          "internalType": "uint256",
          "name": "role",
          "type": "uint256"
        }
      ],
      "name": "getAllNftIdentityRegistration",
      "outputs": [
        {
          "components": [
            {
              "internalType": "address",
              "name": "applicant",
              "type": "address"
            },
            {
              "internalType": "string",
              "name": "documentURI",
              "type": "string"
            }
          ],
          "internalType": "struct Registration.RegistrationInfo[]",
          "name": "",
          "type": "tuple[]"
        }
      ],
      "stateMutability": "view",
      "type": "function",
      "constant": true
    },
    {
      "inputs": [],
      "name": "getRegisteredInfo",
      "outputs": [
        {
          "components": [
            {
              "internalType": "address",
              "name": "applicant",
              "type": "address"
            },
            {
              "internalType": "string",
              "name": "documentURI",
              "type": "string"
            }
          ],
          "internalType": "struct Registration.RegistrationInfo",
          "name": "",
          "type": "tuple"
        }
      ],
      "stateMutability": "view",
      "type": "function",
      "constant": true
    },
    {
      "inputs": [],
      "name": "getAllExtendExpiredRequest",
      "outputs": [
        {
          "components": [
            {
              "internalType": "uint256",
              "name": "tokenId",
              "type": "uint256"
            },
            {
              "internalType": "address",
              "name": "register",
              "type": "address"
            },
            {
              "internalType": "uint256",
              "name": "expiredAt",
              "type": "uint256"
            }
          ],
          "internalType": "struct NftIdentities.NftIdentity[]",
          "name": "",
          "type": "tuple[]"
        },
        {
          "internalType": "string[]",
          "name": "",
          "type": "string[]"
        }
      ],
      "stateMutability": "view",
      "type": "function",
      "constant": true
    },
    {
      "inputs": [],
      "name": "requestExtendExpiredNft",
      "outputs": [],
      "stateMutability": "nonpayable",
      "type": "function"
    },
    {
      "inputs": [
        {
          "internalType": "address",
          "name": "registerAddr",
          "type": "address"
        }
      ],
      "name": "isAbleToOperate",
      "outputs": [
        {
          "internalType": "bool",
          "name": "",
          "type": "bool"
        },
        {
          "internalType": "uint256",
          "name": "",
          "type": "uint256"
        }
      ],
      "stateMutability": "view",
      "type": "function",
      "constant": true
    },
    {
      "inputs": [
        {
          "internalType": "uint256",
          "name": "role",
          "type": "uint256"
        },
        {
          "internalType": "string",
          "name": "documentURI",
          "type": "string"
        }
      ],
      "name": "registerNftIdentity",
      "outputs": [],
      "stateMutability": "payable",
      "type": "function",
      "payable": true
    },
    {
      "inputs": [
        {
          "internalType": "address",
          "name": "targetAccount",
          "type": "address"
        },
        {
          "internalType": "uint256",
          "name": "expiredAt",
          "type": "uint256"
        },
        {
          "internalType": "string",
          "name": "tokenURI",
          "type": "string"
        }
      ],
      "name": "grantNftIdentity",
      "outputs": [],
      "stateMutability": "nonpayable",
      "type": "function"
    },
    {
      "inputs": [
        {
          "internalType": "address",
          "name": "to",
          "type": "address"
        }
      ],
      "name": "rejectNftIdentityRegistration",
      "outputs": [],
      "stateMutability": "nonpayable",
      "type": "function"
    },
    {
      "inputs": [
        {
          "internalType": "uint256",
          "name": "tokenId",
          "type": "uint256"
        },
        {
          "internalType": "uint256",
          "name": "nextExpiredAt",
          "type": "uint256"
        }
      ],
      "name": "extendExpiredNft",
      "outputs": [],
      "stateMutability": "nonpayable",
      "type": "function"
    },
    {
      "inputs": [
        {
          "internalType": "uint256",
          "name": "tokenId",
          "type": "uint256"
        }
      ],
      "name": "burnNft",
      "outputs": [],
      "stateMutability": "nonpayable",
      "type": "function"
    },
    {
      "inputs": [],
      "name": "getOwnedNft",
      "outputs": [
        {
          "components": [
            {
              "internalType": "uint256",
              "name": "tokenId",
              "type": "uint256"
            },
            {
              "internalType": "address",
              "name": "register",
              "type": "address"
            },
            {
              "internalType": "uint256",
              "name": "expiredAt",
              "type": "uint256"
            }
          ],
          "internalType": "struct NftIdentities.NftIdentity",
          "name": "",
          "type": "tuple"
        },
        {
          "internalType": "string",
          "name": "",
          "type": "string"
        },
        {
          "internalType": "bool",
          "name": "",
          "type": "bool"
        },
        {
          "internalType": "bool",
          "name": "",
          "type": "bool"
        }
      ],
      "stateMutability": "view",
      "type": "function",
      "constant": true
    },
    {
      "inputs": [],
      "name": "getRole",
      "outputs": [
        {
          "internalType": "uint256",
          "name": "",
          "type": "uint256"
        }
      ],
      "stateMutability": "view",
      "type": "function",
      "constant": true
    },
    {
      "inputs": [],
      "name": "depositNftIdentity",
      "outputs": [],
      "stateMutability": "nonpayable",
      "type": "function"
    },
    {
      "inputs": [],
      "name": "withdrawNftIdentity",
      "outputs": [],
      "stateMutability": "nonpayable",
      "type": "function"
    }
  ],
  "bytecode": "0x608060405260405180602001604052806000815250600390805190602001906200002b9291906200014c565b5066b1a2bc2ec50000600b553480156200004457600080fd5b506040518060200160405280600081525062000066816200013060201b60201c565b5033600a60006101000a81548173ffffffffffffffffffffffffffffffffffffffff021916908373ffffffffffffffffffffffffffffffffffffffff160217905550600160076000806001811115620000c457620000c3620001fc565b5b815260200190815260200160002060006101000a81548160ff021916908315150217905550600160076000600180811115620001055762000104620001fc565b5b815260200190815260200160002060006101000a81548160ff0219169083151502179055506200028f565b8060029080519060200190620001489291906200014c565b5050565b8280546200015a906200025a565b90600052602060002090601f0160209004810192826200017e5760008555620001ca565b82601f106200019957805160ff1916838001178555620001ca565b82800160010185558215620001ca579182015b82811115620001c9578251825591602001919060010190620001ac565b5b509050620001d99190620001dd565b5090565b5b80821115620001f8576000816000905550600101620001de565b5090565b7f4e487b7100000000000000000000000000000000000000000000000000000000600052602160045260246000fd5b7f4e487b7100000000000000000000000000000000000000000000000000000000600052602260045260246000fd5b600060028204905060018216806200027357607f821691505b6020821081036200028957620002886200022b565b5b50919050565b615dc7806200029f6000396000f3fe6080604052600436106101655760003560e01c806376bd1c78116100d1578063d2fd879f1161008a578063e985e9c511610064578063e985e9c514610530578063f242432a1461056d578063f9b9c44a14610596578063fde08174146105c157610165565b8063d2fd879f1461048c578063d5ec2d83146104b5578063d703df8b146104f357610165565b806376bd1c78146103915780637f256a54146103a85780639e4fdc6e146103bf578063a22cb465146103fc578063b14f793614610425578063ce268f691461044e57610165565b80632eb2c2d6116101235780632eb2c2d61461028c57806333fbd842146102b55780633a66e326146102e15780633d5efefe146102fd5780634e1273f41461032657806358e8dad21461036357610165565b8062fdd58e1461016a57806301ffc9a7146101a757806303f187ea146101e45780630a08bb531461020f5780630e89341c146102385780630fc2346d14610275575b600080fd5b34801561017657600080fd5b50610191600480360381019061018c9190613f70565b6105ec565b60405161019e9190613fbf565b60405180910390f35b3480156101b357600080fd5b506101ce60048036038101906101c99190614032565b6106b4565b6040516101db919061407a565b60405180910390f35b3480156101f057600080fd5b506101f9610796565b6040516102069190613fbf565b60405180910390f35b34801561021b57600080fd5b5061023660048036038101906102319190614095565b61079c565b005b34801561024457600080fd5b5061025f600480360381019061025a91906140d5565b610948565b60405161026c919061419b565b60405180910390f35b34801561028157600080fd5b5061028a610a2d565b005b34801561029857600080fd5b506102b360048036038101906102ae91906143ba565b610bef565b005b3480156102c157600080fd5b506102ca610c90565b6040516102d89291906146a4565b60405180910390f35b6102fb60048036038101906102f6919061477c565b610e4a565b005b34801561030957600080fd5b50610324600480360381019061031f91906140d5565b610e84565b005b34801561033257600080fd5b5061034d6004803603810190610348919061489b565b610f9e565b60405161035a91906149c2565b60405180910390f35b34801561036f57600080fd5b506103786110b7565b6040516103889493929190614a26565b60405180910390f35b34801561039d57600080fd5b506103a661115f565b005b3480156103b457600080fd5b506103bd61128c565b005b3480156103cb57600080fd5b506103e660048036038101906103e191906140d5565b6113b7565b6040516103f39190614b71565b60405180910390f35b34801561040857600080fd5b50610423600480360381019061041e9190614bbf565b611423565b005b34801561043157600080fd5b5061044c60048036038101906104479190614bff565b611439565b005b34801561045a57600080fd5b5061047560048036038101906104709190614bff565b61156f565b604051610483929190614c2c565b60405180910390f35b34801561049857600080fd5b506104b360048036038101906104ae9190614c55565b6115f4565b005b3480156104c157600080fd5b506104dc60048036038101906104d791906140d5565b6116fb565b6040516104ea929190614cc4565b60405180910390f35b3480156104ff57600080fd5b5061051a600480360381019061051591906140d5565b61172c565b6040516105279190614cf4565b60405180910390f35b34801561053c57600080fd5b5061055760048036038101906105529190614d0f565b611859565b604051610564919061407a565b60405180910390f35b34801561057957600080fd5b50610594600480360381019061058f9190614d4f565b6118ed565b005b3480156105a257600080fd5b506105ab61198e565b6040516105b89190614e23565b60405180910390f35b3480156105cd57600080fd5b506105d66119a3565b6040516105e39190613fbf565b60405180910390f35b60008073ffffffffffffffffffffffffffffffffffffffff168373ffffffffffffffffffffffffffffffffffffffff160361065c576040517f08c379a000000000000000000000000000000000000000000000000000000000815260040161065390614eb7565b60405180910390fd5b60008083815260200190815260200160002060008473ffffffffffffffffffffffffffffffffffffffff1673ffffffffffffffffffffffffffffffffffffffff16815260200190815260200160002054905092915050565b60007fd9b67a26000000000000000000000000000000000000000000000000000000007bffffffffffffffffffffffffffffffffffffffffffffffffffffffff1916827bffffffffffffffffffffffffffffffffffffffffffffffffffffffff1916148061077f57507f0e89341c000000000000000000000000000000000000000000000000000000007bffffffffffffffffffffffffffffffffffffffffffffffffffffffff1916827bffffffffffffffffffffffffffffffffffffffffffffffffffffffff1916145b8061078f575061078e82611ac0565b5b9050919050565b600b5481565b600a60009054906101000a900473ffffffffffffffffffffffffffffffffffffffff1673ffffffffffffffffffffffffffffffffffffffff163373ffffffffffffffffffffffffffffffffffffffff16146107f657600080fd5b81600a60009054906101000a900473ffffffffffffffffffffffffffffffffffffffff1673ffffffffffffffffffffffffffffffffffffffff166012600083815260200190815260200160002060009054906101000a900473ffffffffffffffffffffffffffffffffffffffff1673ffffffffffffffffffffffffffffffffffffffff161461088457600080fd5b8142811161089157600080fd5b600061089c85611b2a565b90506000600f6000878152602001908152602001600020549050600081116108f9576040517f08c379a00000000000000000000000000000000000000000000000000000000081526004016108f090614f23565b60405180910390fd5b84600e600084815260200190815260200160002060018361091a9190614f72565b8154811061092b5761092a614fa6565b5b906000526020600020906003020160020181905550505050505050565b6060600060046000848152602001908152602001600020805461096a90615004565b80601f016020809104026020016040519081016040528092919081815260200182805461099690615004565b80156109e35780601f106109b8576101008083540402835291602001916109e3565b820191906000526020600020905b8154815290600101906020018083116109c657829003601f168201915b505050505090506000815111610a01576109fc83611b38565b610a25565b600381604051602001610a15929190615105565b6040516020818303038152906040525b915050919050565b6000600c60003373ffffffffffffffffffffffffffffffffffffffff1673ffffffffffffffffffffffffffffffffffffffff16815260200190815260200160002054905060008111610ab4576040517f08c379a0000000000000000000000000000000000000000000000000000000008152600401610aab90615175565b60405180910390fd5b600a60009054906101000a900473ffffffffffffffffffffffffffffffffffffffff1673ffffffffffffffffffffffffffffffffffffffff166012600083815260200190815260200160002060009054906101000a900473ffffffffffffffffffffffffffffffffffffffff1673ffffffffffffffffffffffffffffffffffffffff1614610b77576040517f08c379a0000000000000000000000000000000000000000000000000000000008152600401610b6e906151e1565b60405180910390fd5b610bec600a60009054906101000a900473ffffffffffffffffffffffffffffffffffffffff16338360016000368080601f016020809104026020016040519081016040528093929190818152602001838380828437600081840152601f19601f820116905080830192505050505050506118ed565b50565b610bf7611bcc565b73ffffffffffffffffffffffffffffffffffffffff168573ffffffffffffffffffffffffffffffffffffffff161480610c3d5750610c3c85610c37611bcc565b611859565b5b610c7c576040517f08c379a0000000000000000000000000000000000000000000000000000000008152600401610c7390615273565b60405180910390fd5b610c898585858585611bd4565b5050505050565b606080600a60009054906101000a900473ffffffffffffffffffffffffffffffffffffffff1673ffffffffffffffffffffffffffffffffffffffff163373ffffffffffffffffffffffffffffffffffffffff1614610ced57600080fd5b6000601380549050905060008167ffffffffffffffff811115610d1357610d126141c2565b5b604051908082528060200260200182016040528015610d4c57816020015b610d39613d7e565b815260200190600190039081610d315790505b50905060008267ffffffffffffffff811115610d6b57610d6a6141c2565b5b604051908082528060200260200182016040528015610d9e57816020015b6060815260200190600190039081610d895790505b50905060005b83811015610e3c57600060138281548110610dc257610dc1614fa6565b5b90600052602060002001549050610dd7613d7e565b6060610de2836116fb565b809250819350505081868581518110610dfe57610dfd614fa6565b5b602002602001018190525080858581518110610e1d57610e1c614fa6565b5b602002602001018190525050505080610e3590615293565b9050610da4565b508181945094505050509091565b600b543414610e5857600080fd5b600180811115610e6b57610e6a6152db565b5b8214610e7657600080fd5b610e808282611ef5565b5050565b600a60009054906101000a900473ffffffffffffffffffffffffffffffffffffffff1673ffffffffffffffffffffffffffffffffffffffff163373ffffffffffffffffffffffffffffffffffffffff1614610ede57600080fd5b80600a60009054906101000a900473ffffffffffffffffffffffffffffffffffffffff1673ffffffffffffffffffffffffffffffffffffffff166012600083815260200190815260200160002060009054906101000a900473ffffffffffffffffffffffffffffffffffffffff1673ffffffffffffffffffffffffffffffffffffffff1614610f6c57600080fd5b610f9a600a60009054906101000a900473ffffffffffffffffffffffffffffffffffffffff168360016120ee565b5050565b60608151835114610fe4576040517f08c379a0000000000000000000000000000000000000000000000000000000008152600401610fdb9061537c565b60405180910390fd5b6000835167ffffffffffffffff811115611001576110006141c2565b5b60405190808252806020026020018201604052801561102f5781602001602082028036833780820191505090505b50905060005b84518110156110ac5761107c85828151811061105457611053614fa6565b5b602002602001015185838151811061106f5761106e614fa6565b5b60200260200101516105ec565b82828151811061108f5761108e614fa6565b5b602002602001018181525050806110a590615293565b9050611035565b508091505092915050565b6110bf613d7e565b60606000806000600c60003373ffffffffffffffffffffffffffffffffffffffff1673ffffffffffffffffffffffffffffffffffffffff16815260200190815260200160002054905060006111138261172c565b9050600061112083610948565b90506000428360400151111590506000806014600087815260200190815260200160002054119050838383839850985098509850505050505090919293565b6000601160003373ffffffffffffffffffffffffffffffffffffffff1673ffffffffffffffffffffffffffffffffffffffff168152602001908152602001600020549050600081116111b057600080fd5b60006111bb8261172c565b9050428160400151106111cd57600080fd5b61124233600a60009054906101000a900473ffffffffffffffffffffffffffffffffffffffff168460016000368080601f016020809104026020016040519081016040528093929190818152602001838380828437600081840152601f19601f820116905080830192505050505050506118ed565b601382908060018154018082558091505060019003906000526020600020016000909190919091505560138054905060146000848152602001908152602001600020819055505050565b6000601160003373ffffffffffffffffffffffffffffffffffffffff1673ffffffffffffffffffffffffffffffffffffffff16815260200190815260200160002054905060008111611313576040517f08c379a000000000000000000000000000000000000000000000000000000000815260040161130a906153e8565b60405180910390fd5b600061131e8261172c565b905042816040015111156113a6576113a133600a60009054906101000a900473ffffffffffffffffffffffffffffffffffffffff168460016000368080601f016020809104026020016040519081016040528093929190818152602001838380828437600081840152601f19601f820116905080830192505050505050506118ed565b6113b3565b6113b2338360016120ee565b5b5050565b6060600a60009054906101000a900473ffffffffffffffffffffffffffffffffffffffff1673ffffffffffffffffffffffffffffffffffffffff163373ffffffffffffffffffffffffffffffffffffffff161461141357600080fd5b61141c82612334565b9050919050565b61143561142e611bcc565b838361248e565b5050565b600a60009054906101000a900473ffffffffffffffffffffffffffffffffffffffff1673ffffffffffffffffffffffffffffffffffffffff163373ffffffffffffffffffffffffffffffffffffffff161461149357600080fd5b806000600860008373ffffffffffffffffffffffffffffffffffffffff1673ffffffffffffffffffffffffffffffffffffffff1681526020019081526020016000205411611516576040517f08c379a000000000000000000000000000000000000000000000000000000000815260040161150d90615454565b60405180910390fd5b6000600860008473ffffffffffffffffffffffffffffffffffffffff1673ffffffffffffffffffffffffffffffffffffffff168152602001908152602001600020541161156257600080fd5b61156b826125fa565b5050565b6000806000600c60008573ffffffffffffffffffffffffffffffffffffffff1673ffffffffffffffffffffffffffffffffffffffff168152602001908152602001600020549050600081036115cb5760008092509250506115ef565b60006115d68261172c565b9050428160400151116115e883611b2a565b9350935050505b915091565b826000600860008373ffffffffffffffffffffffffffffffffffffffff1673ffffffffffffffffffffffffffffffffffffffff1681526020019081526020016000205411611677576040517f08c379a000000000000000000000000000000000000000000000000000000000815260040161166e90615454565b60405180910390fd5b600a60009054906101000a900473ffffffffffffffffffffffffffffffffffffffff1673ffffffffffffffffffffffffffffffffffffffff163373ffffffffffffffffffffffffffffffffffffffff16146116d157600080fd5b60006116dc85612a09565b90506116ea81868686612a5e565b506116f4856125fa565b5050505050565b611703613d7e565b6060600061171084610948565b9050600061171d8561172c565b90508082935093505050915091565b611734613d7e565b600061173f83611b2a565b90506000600f60008581526020019081526020016000205490506000811161179c576040517f08c379a000000000000000000000000000000000000000000000000000000000815260040161179390614f23565b60405180910390fd5b600e60008381526020019081526020016000206001826117bc9190614f72565b815481106117cd576117cc614fa6565b5b9060005260206000209060030201604051806060016040529081600082015481526020016001820160009054906101000a900473ffffffffffffffffffffffffffffffffffffffff1673ffffffffffffffffffffffffffffffffffffffff1673ffffffffffffffffffffffffffffffffffffffff16815260200160028201548152505092505050919050565b6000600160008473ffffffffffffffffffffffffffffffffffffffff1673ffffffffffffffffffffffffffffffffffffffff16815260200190815260200160002060008373ffffffffffffffffffffffffffffffffffffffff1673ffffffffffffffffffffffffffffffffffffffff16815260200190815260200160002060009054906101000a900460ff16905092915050565b6118f5611bcc565b73ffffffffffffffffffffffffffffffffffffffff168573ffffffffffffffffffffffffffffffffffffffff16148061193b575061193a85611935611bcc565b611859565b5b61197a576040517f08c379a000000000000000000000000000000000000000000000000000000000815260040161197190615273565b60405180910390fd5b6119878585858585612b4c565b5050505050565b611996613db5565b61199e612de7565b905090565b6000600a60009054906101000a900473ffffffffffffffffffffffffffffffffffffffff1673ffffffffffffffffffffffffffffffffffffffff163373ffffffffffffffffffffffffffffffffffffffff1603611a035760659050611abd565b6000600860003373ffffffffffffffffffffffffffffffffffffffff1673ffffffffffffffffffffffffffffffffffffffff168152602001908152602001600020541115611a545760649050611abd565b6000600c60003373ffffffffffffffffffffffffffffffffffffffff1673ffffffffffffffffffffffffffffffffffffffff16815260200190815260200160002054905060008103611aaa576063915050611abd565b6000611ab582611b2a565b905080925050505b90565b60007f01ffc9a7000000000000000000000000000000000000000000000000000000007bffffffffffffffffffffffffffffffffffffffffffffffffffffffff1916827bffffffffffffffffffffffffffffffffffffffffffffffffffffffff1916149050919050565b6000601082901c9050919050565b606060028054611b4790615004565b80601f0160208091040260200160405190810160405280929190818152602001828054611b7390615004565b8015611bc05780601f10611b9557610100808354040283529160200191611bc0565b820191906000526020600020905b815481529060010190602001808311611ba357829003601f168201915b50505050509050919050565b600033905090565b8151835114611c18576040517f08c379a0000000000000000000000000000000000000000000000000000000008152600401611c0f906154e6565b60405180910390fd5b600073ffffffffffffffffffffffffffffffffffffffff168473ffffffffffffffffffffffffffffffffffffffff1603611c87576040517f08c379a0000000000000000000000000000000000000000000000000000000008152600401611c7e90615578565b60405180910390fd5b6000611c91611bcc565b9050611ca1818787878787613051565b60005b8451811015611e52576000858281518110611cc257611cc1614fa6565b5b602002602001015190506000858381518110611ce157611ce0614fa6565b5b60200260200101519050600080600084815260200190815260200160002060008b73ffffffffffffffffffffffffffffffffffffffff1673ffffffffffffffffffffffffffffffffffffffff16815260200190815260200160002054905081811015611d82576040517f08c379a0000000000000000000000000000000000000000000000000000000008152600401611d799061560a565b60405180910390fd5b81810360008085815260200190815260200160002060008c73ffffffffffffffffffffffffffffffffffffffff1673ffffffffffffffffffffffffffffffffffffffff168152602001908152602001600020819055508160008085815260200190815260200160002060008b73ffffffffffffffffffffffffffffffffffffffff1673ffffffffffffffffffffffffffffffffffffffff1681526020019081526020016000206000828254611e37919061562a565b9250508190555050505080611e4b90615293565b9050611ca4565b508473ffffffffffffffffffffffffffffffffffffffff168673ffffffffffffffffffffffffffffffffffffffff168273ffffffffffffffffffffffffffffffffffffffff167f4a39dc06d4c0dbc64b70af90fd698a233a518aa5d07e595d983b8c0526c8f7fb8787604051611ec9929190615680565b60405180910390a4611edf8187878787876132f8565b611eed818787878787613300565b505050505050565b600981604051611f0591906156b7565b908152602001604051809103902060009054906101000a900460ff1615611f2b57600080fd5b6005600083815260200190815260200160002060405180604001604052803373ffffffffffffffffffffffffffffffffffffffff16815260200183815250908060018154018082558091505060019003906000526020600020906002020160009091909190915060008201518160000160006101000a81548173ffffffffffffffffffffffffffffffffffffffff021916908373ffffffffffffffffffffffffffffffffffffffff1602179055506020820151816001019080519060200190611ff5929190613de5565b505050600182612005919061562a565b600860003373ffffffffffffffffffffffffffffffffffffffff1673ffffffffffffffffffffffffffffffffffffffff1681526020019081526020016000208190555060056000838152602001908152602001600020805490506006600084815260200190815260200160002060003373ffffffffffffffffffffffffffffffffffffffff1673ffffffffffffffffffffffffffffffffffffffff1681526020019081526020016000208190555060016009826040516120c591906156b7565b908152602001604051809103902060006101000a81548160ff0219169083151502179055505050565b600073ffffffffffffffffffffffffffffffffffffffff168373ffffffffffffffffffffffffffffffffffffffff160361215d576040517f08c379a000000000000000000000000000000000000000000000000000000000815260040161215490615740565b60405180910390fd5b6000612167611bcc565b90506000612174846134d7565b90506000612181846134d7565b90506121a183876000858560405180602001604052806000815250613051565b600080600087815260200190815260200160002060008873ffffffffffffffffffffffffffffffffffffffff1673ffffffffffffffffffffffffffffffffffffffff16815260200190815260200160002054905084811015612238576040517f08c379a000000000000000000000000000000000000000000000000000000000815260040161222f906157d2565b60405180910390fd5b84810360008088815260200190815260200160002060008973ffffffffffffffffffffffffffffffffffffffff1673ffffffffffffffffffffffffffffffffffffffff16815260200190815260200160002081905550600073ffffffffffffffffffffffffffffffffffffffff168773ffffffffffffffffffffffffffffffffffffffff168573ffffffffffffffffffffffffffffffffffffffff167fc3d58168c5ae7397731d063d5bbf3d657854427343f4c083240f7aacaa2d0f6289896040516123059291906157f2565b60405180910390a461232b848860008686604051806020016040528060008152506132f8565b50505050505050565b606060056000838152602001908152602001600020805480602002602001604051908101604052809291908181526020016000905b8282101561248357838290600052602060002090600202016040518060400160405290816000820160009054906101000a900473ffffffffffffffffffffffffffffffffffffffff1673ffffffffffffffffffffffffffffffffffffffff1673ffffffffffffffffffffffffffffffffffffffff1681526020016001820180546123f290615004565b80601f016020809104026020016040519081016040528092919081815260200182805461241e90615004565b801561246b5780601f106124405761010080835404028352916020019161246b565b820191906000526020600020905b81548152906001019060200180831161244e57829003601f168201915b50505050508152505081526020019060010190612369565b505050509050919050565b8173ffffffffffffffffffffffffffffffffffffffff168373ffffffffffffffffffffffffffffffffffffffff16036124fc576040517f08c379a00000000000000000000000000000000000000000000000000000000081526004016124f39061588d565b60405180910390fd5b80600160008573ffffffffffffffffffffffffffffffffffffffff1673ffffffffffffffffffffffffffffffffffffffff16815260200190815260200160002060008473ffffffffffffffffffffffffffffffffffffffff1673ffffffffffffffffffffffffffffffffffffffff16815260200190815260200160002060006101000a81548160ff0219169083151502179055508173ffffffffffffffffffffffffffffffffffffffff168373ffffffffffffffffffffffffffffffffffffffff167f17307eab39ab6107e8899845ad3d59bd9653f200f220920489ca2b5937696c31836040516125ed919061407a565b60405180910390a3505050565b60006001600860008473ffffffffffffffffffffffffffffffffffffffff1673ffffffffffffffffffffffffffffffffffffffff168152602001908152602001600020546126489190614f72565b905060006006600083815260200190815260200160002060008473ffffffffffffffffffffffffffffffffffffffff1673ffffffffffffffffffffffffffffffffffffffff1681526020019081526020016000205490506000600560008481526020019081526020016000208054905090508082146128f9576000600560008581526020019081526020016000206001836126e39190614f72565b815481106126f4576126f3614fa6565b5b90600052602060002090600202016040518060400160405290816000820160009054906101000a900473ffffffffffffffffffffffffffffffffffffffff1673ffffffffffffffffffffffffffffffffffffffff1673ffffffffffffffffffffffffffffffffffffffff16815260200160018201805461277390615004565b80601f016020809104026020016040519081016040528092919081815260200182805461279f90615004565b80156127ec5780601f106127c1576101008083540402835291602001916127ec565b820191906000526020600020905b8154815290600101906020018083116127cf57829003601f168201915b505050505081525050905080600560008681526020019081526020016000206001856128189190614f72565b8154811061282957612828614fa6565b5b906000526020600020906002020160008201518160000160006101000a81548173ffffffffffffffffffffffffffffffffffffffff021916908373ffffffffffffffffffffffffffffffffffffffff160217905550602082015181600101908051906020019061289a929190613de5565b5090505082600660008681526020019081526020016000206000836000015173ffffffffffffffffffffffffffffffffffffffff1673ffffffffffffffffffffffffffffffffffffffff16815260200190815260200160002081905550505b6005600084815260200190815260200160002080548061291c5761291b6158ad565b5b6001900381819060005260206000209060020201600080820160006101000a81549073ffffffffffffffffffffffffffffffffffffffff02191690556001820160006129689190613e6b565b50509055600860008573ffffffffffffffffffffffffffffffffffffffff1673ffffffffffffffffffffffffffffffffffffffff168152602001908152602001600020600090556006600084815260200190815260200160002060008573ffffffffffffffffffffffffffffffffffffffff1673ffffffffffffffffffffffffffffffffffffffff1681526020019081526020016000206000905550505050565b60006001600860008473ffffffffffffffffffffffffffffffffffffffff1673ffffffffffffffffffffffffffffffffffffffff16815260200190815260200160002054612a579190614f72565b9050919050565b6000601082604051612a7091906156b7565b908152602001604051809103902060009054906101000a900460ff1615612acc576040517f08c379a0000000000000000000000000000000000000000000000000000000008152600401612ac390615928565b60405180910390fd5b6000612ad786613551565b9050612ae3818461359c565b612aee858286613608565b612b40858260016000368080601f016020809104026020016040519081016040528093929190818152602001838380828437600081840152601f19601f8201169050808301925050505050505061375d565b80915050949350505050565b600073ffffffffffffffffffffffffffffffffffffffff168473ffffffffffffffffffffffffffffffffffffffff1603612bbb576040517f08c379a0000000000000000000000000000000000000000000000000000000008152600401612bb290615578565b60405180910390fd5b6000612bc5611bcc565b90506000612bd2856134d7565b90506000612bdf856134d7565b9050612bef838989858589613051565b600080600088815260200190815260200160002060008a73ffffffffffffffffffffffffffffffffffffffff1673ffffffffffffffffffffffffffffffffffffffff16815260200190815260200160002054905085811015612c86576040517f08c379a0000000000000000000000000000000000000000000000000000000008152600401612c7d9061560a565b60405180910390fd5b85810360008089815260200190815260200160002060008b73ffffffffffffffffffffffffffffffffffffffff1673ffffffffffffffffffffffffffffffffffffffff168152602001908152602001600020819055508560008089815260200190815260200160002060008a73ffffffffffffffffffffffffffffffffffffffff1673ffffffffffffffffffffffffffffffffffffffff1681526020019081526020016000206000828254612d3b919061562a565b925050819055508773ffffffffffffffffffffffffffffffffffffffff168973ffffffffffffffffffffffffffffffffffffffff168573ffffffffffffffffffffffffffffffffffffffff167fc3d58168c5ae7397731d063d5bbf3d657854427343f4c083240f7aacaa2d0f628a8a604051612db89291906157f2565b60405180910390a4612dce848a8a86868a6132f8565b612ddc848a8a8a8a8a61390d565b505050505050505050565b612def613db5565b336000600860008373ffffffffffffffffffffffffffffffffffffffff1673ffffffffffffffffffffffffffffffffffffffff1681526020019081526020016000205411612e72576040517f08c379a0000000000000000000000000000000000000000000000000000000008152600401612e6990615454565b60405180910390fd5b60006001600860003373ffffffffffffffffffffffffffffffffffffffff1673ffffffffffffffffffffffffffffffffffffffff16815260200190815260200160002054612ec09190614f72565b905060006006600083815260200190815260200160002060003373ffffffffffffffffffffffffffffffffffffffff1673ffffffffffffffffffffffffffffffffffffffff16815260200190815260200160002054905060056000838152602001908152602001600020600182612f379190614f72565b81548110612f4857612f47614fa6565b5b90600052602060002090600202016040518060400160405290816000820160009054906101000a900473ffffffffffffffffffffffffffffffffffffffff1673ffffffffffffffffffffffffffffffffffffffff1673ffffffffffffffffffffffffffffffffffffffff168152602001600182018054612fc790615004565b80601f0160208091040260200160405190810160405280929190818152602001828054612ff390615004565b80156130405780601f1061301557610100808354040283529160200191613040565b820191906000526020600020905b81548152906001019060200180831161302357829003601f168201915b505050505081525050935050505090565b61305f868686868686613ae4565b600073ffffffffffffffffffffffffffffffffffffffff168573ffffffffffffffffffffffffffffffffffffffff1614806130c65750600073ffffffffffffffffffffffffffffffffffffffff168473ffffffffffffffffffffffffffffffffffffffff16145b613105576040517f08c379a00000000000000000000000000000000000000000000000000000000081526004016130fc90615994565b60405180910390fd5b60008360008151811061311b5761311a614fa6565b5b60200260200101519050600073ffffffffffffffffffffffffffffffffffffffff168673ffffffffffffffffffffffffffffffffffffffff16146131d357601160008773ffffffffffffffffffffffffffffffffffffffff1673ffffffffffffffffffffffffffffffffffffffff168152602001908152602001600020600090556012600082815260200190815260200160002060006101000a81549073ffffffffffffffffffffffffffffffffffffffff02191690555b600073ffffffffffffffffffffffffffffffffffffffff168573ffffffffffffffffffffffffffffffffffffffff16146132a25780601160008773ffffffffffffffffffffffffffffffffffffffff1673ffffffffffffffffffffffffffffffffffffffff16815260200190815260200160002081905550846012600083815260200190815260200160002060006101000a81548173ffffffffffffffffffffffffffffffffffffffff021916908373ffffffffffffffffffffffffffffffffffffffff1602179055506132ef565b6132ab81613aec565b600c60008773ffffffffffffffffffffffffffffffffffffffff1673ffffffffffffffffffffffffffffffffffffffff168152602001908152602001600020600090555b50505050505050565b505050505050565b61331f8473ffffffffffffffffffffffffffffffffffffffff16613d37565b156134cf578373ffffffffffffffffffffffffffffffffffffffff1663bc197c8187878686866040518663ffffffff1660e01b8152600401613365959493929190615a18565b6020604051808303816000875af19250505080156133a157506040513d601f19601f8201168201806040525081019061339e9190615a95565b60015b613446576133ad615acf565b806308c379a00361340957506133c1615af1565b806133cc575061340b565b806040517f08c379a0000000000000000000000000000000000000000000000000000000008152600401613400919061419b565b60405180910390fd5b505b6040517f08c379a000000000000000000000000000000000000000000000000000000000815260040161343d90615bf3565b60405180910390fd5b63bc197c8160e01b7bffffffffffffffffffffffffffffffffffffffffffffffffffffffff1916817bffffffffffffffffffffffffffffffffffffffffffffffffffffffff1916146134cd576040517f08c379a00000000000000000000000000000000000000000000000000000000081526004016134c490615c85565b60405180910390fd5b505b505050505050565b60606000600167ffffffffffffffff8111156134f6576134f56141c2565b5b6040519080825280602002602001820160405280156135245781602001602082028036833780820191505090505b509050828160008151811061353c5761353b614fa6565b5b60200260200101818152505080915050919050565b600061356e600d6000848152602001908152602001600020613d5a565b600061358b600d6000858152602001908152602001600020613d70565b905080601084901b17915050919050565b806004600084815260200190815260200160002090805190602001906135c3929190613de5565b50817f6bb7ff708619ba0610cba295a58592e0451dee2622938c8755667688daf3529b6135ef84610948565b6040516135fc919061419b565b60405180910390a25050565b600061361383611b2a565b9050600060405180606001604052808581526020013373ffffffffffffffffffffffffffffffffffffffff168152602001848152509050600e60008381526020019081526020016000208190806001815401808255809150506001900390600052602060002090600302016000909190919091506000820151816000015560208201518160010160006101000a81548173ffffffffffffffffffffffffffffffffffffffff021916908373ffffffffffffffffffffffffffffffffffffffff160217905550604082015181600201555050600e600083815260200190815260200160002080549050600f60008681526020019081526020016000208190555083600c60008773ffffffffffffffffffffffffffffffffffffffff1673ffffffffffffffffffffffffffffffffffffffff168152602001908152602001600020819055505050505050565b600073ffffffffffffffffffffffffffffffffffffffff168473ffffffffffffffffffffffffffffffffffffffff16036137cc576040517f08c379a00000000000000000000000000000000000000000000000000000000081526004016137c390615d17565b60405180910390fd5b60006137d6611bcc565b905060006137e3856134d7565b905060006137f0856134d7565b905061380183600089858589613051565b8460008088815260200190815260200160002060008973ffffffffffffffffffffffffffffffffffffffff1673ffffffffffffffffffffffffffffffffffffffff1681526020019081526020016000206000828254613860919061562a565b925050819055508673ffffffffffffffffffffffffffffffffffffffff16600073ffffffffffffffffffffffffffffffffffffffff168473ffffffffffffffffffffffffffffffffffffffff167fc3d58168c5ae7397731d063d5bbf3d657854427343f4c083240f7aacaa2d0f6289896040516138de9291906157f2565b60405180910390a46138f5836000898585896132f8565b6139048360008989898961390d565b50505050505050565b61392c8473ffffffffffffffffffffffffffffffffffffffff16613d37565b15613adc578373ffffffffffffffffffffffffffffffffffffffff1663f23a6e6187878686866040518663ffffffff1660e01b8152600401613972959493929190615d37565b6020604051808303816000875af19250505080156139ae57506040513d601f19601f820116820180604052508101906139ab9190615a95565b60015b613a53576139ba615acf565b806308c379a003613a1657506139ce615af1565b806139d95750613a18565b806040517f08c379a0000000000000000000000000000000000000000000000000000000008152600401613a0d919061419b565b60405180910390fd5b505b6040517f08c379a0000000000000000000000000000000000000000000000000000000008152600401613a4a90615bf3565b60405180910390fd5b63f23a6e6160e01b7bffffffffffffffffffffffffffffffffffffffffffffffffffffffff1916817bffffffffffffffffffffffffffffffffffffffffffffffffffffffff191614613ada576040517f08c379a0000000000000000000000000000000000000000000000000000000008152600401613ad190615c85565b60405180910390fd5b505b505050505050565b505050505050565b6000600f60008381526020019081526020016000205490506000613b0f83611b2a565b90506000600e6000838152602001908152602001600020805490509050828114613ca7576000600e6000848152602001908152602001600020600183613b559190614f72565b81548110613b6657613b65614fa6565b5b9060005260206000209060030201604051806060016040529081600082015481526020016001820160009054906101000a900473ffffffffffffffffffffffffffffffffffffffff1673ffffffffffffffffffffffffffffffffffffffff1673ffffffffffffffffffffffffffffffffffffffff168152602001600282015481525050905080600e6000858152602001908152602001600020600186613c0c9190614f72565b81548110613c1d57613c1c614fa6565b5b90600052602060002090600302016000820151816000015560208201518160010160006101000a81548173ffffffffffffffffffffffffffffffffffffffff021916908373ffffffffffffffffffffffffffffffffffffffff1602179055506040820151816002015590505083600f60008360000151815260200190815260200160002081905550505b600e6000838152602001908152602001600020805480613cca57613cc96158ad565b5b60019003818190600052602060002090600302016000808201600090556001820160006101000a81549073ffffffffffffffffffffffffffffffffffffffff0219169055600282016000905550509055600f60008581526020019081526020016000206000905550505050565b6000808273ffffffffffffffffffffffffffffffffffffffff163b119050919050565b6001816000016000828254019250508190555050565b600081600001549050919050565b604051806060016040528060008152602001600073ffffffffffffffffffffffffffffffffffffffff168152602001600081525090565b6040518060400160405280600073ffffffffffffffffffffffffffffffffffffffff168152602001606081525090565b828054613df190615004565b90600052602060002090601f016020900481019282613e135760008555613e5a565b82601f10613e2c57805160ff1916838001178555613e5a565b82800160010185558215613e5a579182015b82811115613e59578251825591602001919060010190613e3e565b5b509050613e679190613eab565b5090565b508054613e7790615004565b6000825580601f10613e895750613ea8565b601f016020900490600052602060002090810190613ea79190613eab565b5b50565b5b80821115613ec4576000816000905550600101613eac565b5090565b6000604051905090565b600080fd5b600080fd5b600073ffffffffffffffffffffffffffffffffffffffff82169050919050565b6000613f0782613edc565b9050919050565b613f1781613efc565b8114613f2257600080fd5b50565b600081359050613f3481613f0e565b92915050565b6000819050919050565b613f4d81613f3a565b8114613f5857600080fd5b50565b600081359050613f6a81613f44565b92915050565b60008060408385031215613f8757613f86613ed2565b5b6000613f9585828601613f25565b9250506020613fa685828601613f5b565b9150509250929050565b613fb981613f3a565b82525050565b6000602082019050613fd46000830184613fb0565b92915050565b60007fffffffff0000000000000000000000000000000000000000000000000000000082169050919050565b61400f81613fda565b811461401a57600080fd5b50565b60008135905061402c81614006565b92915050565b60006020828403121561404857614047613ed2565b5b60006140568482850161401d565b91505092915050565b60008115159050919050565b6140748161405f565b82525050565b600060208201905061408f600083018461406b565b92915050565b600080604083850312156140ac576140ab613ed2565b5b60006140ba85828601613f5b565b92505060206140cb85828601613f5b565b9150509250929050565b6000602082840312156140eb576140ea613ed2565b5b60006140f984828501613f5b565b91505092915050565b600081519050919050565b600082825260208201905092915050565b60005b8381101561413c578082015181840152602081019050614121565b8381111561414b576000848401525b50505050565b6000601f19601f8301169050919050565b600061416d82614102565b614177818561410d565b935061418781856020860161411e565b61419081614151565b840191505092915050565b600060208201905081810360008301526141b58184614162565b905092915050565b600080fd5b7f4e487b7100000000000000000000000000000000000000000000000000000000600052604160045260246000fd5b6141fa82614151565b810181811067ffffffffffffffff82111715614219576142186141c2565b5b80604052505050565b600061422c613ec8565b905061423882826141f1565b919050565b600067ffffffffffffffff821115614258576142576141c2565b5b602082029050602081019050919050565b600080fd5b600061428161427c8461423d565b614222565b905080838252602082019050602084028301858111156142a4576142a3614269565b5b835b818110156142cd57806142b98882613f5b565b8452602084019350506020810190506142a6565b5050509392505050565b600082601f8301126142ec576142eb6141bd565b5b81356142fc84826020860161426e565b91505092915050565b600080fd5b600067ffffffffffffffff821115614325576143246141c2565b5b61432e82614151565b9050602081019050919050565b82818337600083830152505050565b600061435d6143588461430a565b614222565b90508281526020810184848401111561437957614378614305565b5b61438484828561433b565b509392505050565b600082601f8301126143a1576143a06141bd565b5b81356143b184826020860161434a565b91505092915050565b600080600080600060a086880312156143d6576143d5613ed2565b5b60006143e488828901613f25565b95505060206143f588828901613f25565b945050604086013567ffffffffffffffff81111561441657614415613ed7565b5b614422888289016142d7565b935050606086013567ffffffffffffffff81111561444357614442613ed7565b5b61444f888289016142d7565b925050608086013567ffffffffffffffff8111156144705761446f613ed7565b5b61447c8882890161438c565b9150509295509295909350565b600081519050919050565b600082825260208201905092915050565b6000819050602082019050919050565b6144be81613f3a565b82525050565b6144cd81613efc565b82525050565b6060820160008201516144e960008501826144b5565b5060208201516144fc60208501826144c4565b50604082015161450f60408501826144b5565b50505050565b600061452183836144d3565b60608301905092915050565b6000602082019050919050565b600061454582614489565b61454f8185614494565b935061455a836144a5565b8060005b8381101561458b5781516145728882614515565b975061457d8361452d565b92505060018101905061455e565b5085935050505092915050565b600081519050919050565b600082825260208201905092915050565b6000819050602082019050919050565b600082825260208201905092915050565b60006145e082614102565b6145ea81856145c4565b93506145fa81856020860161411e565b61460381614151565b840191505092915050565b600061461a83836145d5565b905092915050565b6000602082019050919050565b600061463a82614598565b61464481856145a3565b935083602082028501614656856145b4565b8060005b858110156146925784840389528151614673858261460e565b945061467e83614622565b925060208a0199505060018101905061465a565b50829750879550505050505092915050565b600060408201905081810360008301526146be818561453a565b905081810360208301526146d2818461462f565b90509392505050565b600067ffffffffffffffff8211156146f6576146f56141c2565b5b6146ff82614151565b9050602081019050919050565b600061471f61471a846146db565b614222565b90508281526020810184848401111561473b5761473a614305565b5b61474684828561433b565b509392505050565b600082601f830112614763576147626141bd565b5b813561477384826020860161470c565b91505092915050565b6000806040838503121561479357614792613ed2565b5b60006147a185828601613f5b565b925050602083013567ffffffffffffffff8111156147c2576147c1613ed7565b5b6147ce8582860161474e565b9150509250929050565b600067ffffffffffffffff8211156147f3576147f26141c2565b5b602082029050602081019050919050565b6000614817614812846147d8565b614222565b9050808382526020820190506020840283018581111561483a57614839614269565b5b835b81811015614863578061484f8882613f25565b84526020840193505060208101905061483c565b5050509392505050565b600082601f830112614882576148816141bd565b5b8135614892848260208601614804565b91505092915050565b600080604083850312156148b2576148b1613ed2565b5b600083013567ffffffffffffffff8111156148d0576148cf613ed7565b5b6148dc8582860161486d565b925050602083013567ffffffffffffffff8111156148fd576148fc613ed7565b5b614909858286016142d7565b9150509250929050565b600081519050919050565b600082825260208201905092915050565b6000819050602082019050919050565b600061494b83836144b5565b60208301905092915050565b6000602082019050919050565b600061496f82614913565b614979818561491e565b93506149848361492f565b8060005b838110156149b557815161499c888261493f565b97506149a783614957565b925050600181019050614988565b5085935050505092915050565b600060208201905081810360008301526149dc8184614964565b905092915050565b6060820160008201516149fa60008501826144b5565b506020820151614a0d60208501826144c4565b506040820151614a2060408501826144b5565b50505050565b600060c082019050614a3b60008301876149e4565b8181036060830152614a4d8186614162565b9050614a5c608083018561406b565b614a6960a083018461406b565b95945050505050565b600081519050919050565b600082825260208201905092915050565b6000819050602082019050919050565b6000604083016000830151614ab660008601826144c4565b5060208301518482036020860152614ace82826145d5565b9150508091505092915050565b6000614ae78383614a9e565b905092915050565b6000602082019050919050565b6000614b0782614a72565b614b118185614a7d565b935083602082028501614b2385614a8e565b8060005b85811015614b5f5784840389528151614b408582614adb565b9450614b4b83614aef565b925060208a01995050600181019050614b27565b50829750879550505050505092915050565b60006020820190508181036000830152614b8b8184614afc565b905092915050565b614b9c8161405f565b8114614ba757600080fd5b50565b600081359050614bb981614b93565b92915050565b60008060408385031215614bd657614bd5613ed2565b5b6000614be485828601613f25565b9250506020614bf585828601614baa565b9150509250929050565b600060208284031215614c1557614c14613ed2565b5b6000614c2384828501613f25565b91505092915050565b6000604082019050614c41600083018561406b565b614c4e6020830184613fb0565b9392505050565b600080600060608486031215614c6e57614c6d613ed2565b5b6000614c7c86828701613f25565b9350506020614c8d86828701613f5b565b925050604084013567ffffffffffffffff811115614cae57614cad613ed7565b5b614cba8682870161474e565b9150509250925092565b6000608082019050614cd960008301856149e4565b8181036060830152614ceb8184614162565b90509392505050565b6000606082019050614d0960008301846149e4565b92915050565b60008060408385031215614d2657614d25613ed2565b5b6000614d3485828601613f25565b9250506020614d4585828601613f25565b9150509250929050565b600080600080600060a08688031215614d6b57614d6a613ed2565b5b6000614d7988828901613f25565b9550506020614d8a88828901613f25565b9450506040614d9b88828901613f5b565b9350506060614dac88828901613f5b565b925050608086013567ffffffffffffffff811115614dcd57614dcc613ed7565b5b614dd98882890161438c565b9150509295509295909350565b6000604083016000830151614dfe60008601826144c4565b5060208301518482036020860152614e1682826145d5565b9150508091505092915050565b60006020820190508181036000830152614e3d8184614de6565b905092915050565b7f455243313135353a2061646472657373207a65726f206973206e6f742061207660008201527f616c6964206f776e657200000000000000000000000000000000000000000000602082015250565b6000614ea1602a8361410d565b9150614eac82614e45565b604082019050919050565b60006020820190508181036000830152614ed081614e94565b9050919050565b7f4e6674206973206e6f7420657869737400000000000000000000000000000000600082015250565b6000614f0d60108361410d565b9150614f1882614ed7565b602082019050919050565b60006020820190508181036000830152614f3c81614f00565b9050919050565b7f4e487b7100000000000000000000000000000000000000000000000000000000600052601160045260246000fd5b6000614f7d82613f3a565b9150614f8883613f3a565b925082821015614f9b57614f9a614f43565b5b828203905092915050565b7f4e487b7100000000000000000000000000000000000000000000000000000000600052603260045260246000fd5b7f4e487b7100000000000000000000000000000000000000000000000000000000600052602260045260246000fd5b6000600282049050600182168061501c57607f821691505b60208210810361502f5761502e614fd5565b5b50919050565b600081905092915050565b60008190508160005260206000209050919050565b6000815461506281615004565b61506c8186615035565b945060018216600081146150875760018114615098576150cb565b60ff198316865281860193506150cb565b6150a185615040565b60005b838110156150c3578154818901526001820191506020810190506150a4565b838801955050505b50505092915050565b60006150df82614102565b6150e98185615035565b93506150f981856020860161411e565b80840191505092915050565b60006151118285615055565b915061511d82846150d4565b91508190509392505050565b7f486176656e2774206f776e656420616e79206e66747320796574000000000000600082015250565b600061515f601a8361410d565b915061516a82615129565b602082019050919050565b6000602082019050818103600083015261518e81615152565b9050919050565b7f4e6674206861736e2774206265656e206465706f736974656400000000000000600082015250565b60006151cb60198361410d565b91506151d682615195565b602082019050919050565b600060208201905081810360008301526151fa816151be565b9050919050565b7f455243313135353a2063616c6c6572206973206e6f7420746f6b656e206f776e60008201527f6572206f7220617070726f766564000000000000000000000000000000000000602082015250565b600061525d602e8361410d565b915061526882615201565b604082019050919050565b6000602082019050818103600083015261528c81615250565b9050919050565b600061529e82613f3a565b91507fffffffffffffffffffffffffffffffffffffffffffffffffffffffffffffffff82036152d0576152cf614f43565b5b600182019050919050565b7f4e487b7100000000000000000000000000000000000000000000000000000000600052602160045260246000fd5b7f455243313135353a206163636f756e747320616e6420696473206c656e67746860008201527f206d69736d617463680000000000000000000000000000000000000000000000602082015250565b600061536660298361410d565b91506153718261530a565b604082019050919050565b6000602082019050818103600083015261539581615359565b9050919050565b7f496e76616c6964206f7065726174696f6e000000000000000000000000000000600082015250565b60006153d260118361410d565b91506153dd8261539c565b602082019050919050565b60006020820190508181036000830152615401816153c5565b9050919050565b7f4e6f742072656769737465726564000000000000000000000000000000000000600082015250565b600061543e600e8361410d565b915061544982615408565b602082019050919050565b6000602082019050818103600083015261546d81615431565b9050919050565b7f455243313135353a2069647320616e6420616d6f756e7473206c656e6774682060008201527f6d69736d61746368000000000000000000000000000000000000000000000000602082015250565b60006154d060288361410d565b91506154db82615474565b604082019050919050565b600060208201905081810360008301526154ff816154c3565b9050919050565b7f455243313135353a207472616e7366657220746f20746865207a65726f20616460008201527f6472657373000000000000000000000000000000000000000000000000000000602082015250565b600061556260258361410d565b915061556d82615506565b604082019050919050565b6000602082019050818103600083015261559181615555565b9050919050565b7f455243313135353a20696e73756666696369656e742062616c616e636520666f60008201527f72207472616e7366657200000000000000000000000000000000000000000000602082015250565b60006155f4602a8361410d565b91506155ff82615598565b604082019050919050565b60006020820190508181036000830152615623816155e7565b9050919050565b600061563582613f3a565b915061564083613f3a565b9250827fffffffffffffffffffffffffffffffffffffffffffffffffffffffffffffffff0382111561567557615674614f43565b5b828201905092915050565b6000604082019050818103600083015261569a8185614964565b905081810360208301526156ae8184614964565b90509392505050565b60006156c382846150d4565b915081905092915050565b7f455243313135353a206275726e2066726f6d20746865207a65726f206164647260008201527f6573730000000000000000000000000000000000000000000000000000000000602082015250565b600061572a60238361410d565b9150615735826156ce565b604082019050919050565b600060208201905081810360008301526157598161571d565b9050919050565b7f455243313135353a206275726e20616d6f756e7420657863656564732062616c60008201527f616e636500000000000000000000000000000000000000000000000000000000602082015250565b60006157bc60248361410d565b91506157c782615760565b604082019050919050565b600060208201905081810360008301526157eb816157af565b9050919050565b60006040820190506158076000830185613fb0565b6158146020830184613fb0565b9392505050565b7f455243313135353a2073657474696e6720617070726f76616c2073746174757360008201527f20666f722073656c660000000000000000000000000000000000000000000000602082015250565b600061587760298361410d565b91506158828261581b565b604082019050919050565b600060208201905081810360008301526158a68161586a565b9050919050565b7f4e487b7100000000000000000000000000000000000000000000000000000000600052603160045260246000fd5b7f546f6b656e205552492068617320616c72656164792075736564000000000000600082015250565b6000615912601a8361410d565b915061591d826158dc565b602082019050919050565b6000602082019050818103600083015261594181615905565b9050919050565b7f4f6e6c79206d696e74206f72206275726e20697320616c6c6f77656400000000600082015250565b600061597e601c8361410d565b915061598982615948565b602082019050919050565b600060208201905081810360008301526159ad81615971565b9050919050565b6159bd81613efc565b82525050565b600081519050919050565b600082825260208201905092915050565b60006159ea826159c3565b6159f481856159ce565b9350615a0481856020860161411e565b615a0d81614151565b840191505092915050565b600060a082019050615a2d60008301886159b4565b615a3a60208301876159b4565b8181036040830152615a4c8186614964565b90508181036060830152615a608185614964565b90508181036080830152615a7481846159df565b90509695505050505050565b600081519050615a8f81614006565b92915050565b600060208284031215615aab57615aaa613ed2565b5b6000615ab984828501615a80565b91505092915050565b60008160e01c9050919050565b600060033d1115615aee5760046000803e615aeb600051615ac2565b90505b90565b600060443d10615b7e57615b03613ec8565b60043d036004823e80513d602482011167ffffffffffffffff82111715615b2b575050615b7e565b808201805167ffffffffffffffff811115615b495750505050615b7e565b80602083010160043d038501811115615b66575050505050615b7e565b615b75826020018501866141f1565b82955050505050505b90565b7f455243313135353a207472616e7366657220746f206e6f6e2d4552433131353560008201527f526563656976657220696d706c656d656e746572000000000000000000000000602082015250565b6000615bdd60348361410d565b9150615be882615b81565b604082019050919050565b60006020820190508181036000830152615c0c81615bd0565b9050919050565b7f455243313135353a204552433131353552656365697665722072656a6563746560008201527f6420746f6b656e73000000000000000000000000000000000000000000000000602082015250565b6000615c6f60288361410d565b9150615c7a82615c13565b604082019050919050565b60006020820190508181036000830152615c9e81615c62565b9050919050565b7f455243313135353a206d696e7420746f20746865207a65726f2061646472657360008201527f7300000000000000000000000000000000000000000000000000000000000000602082015250565b6000615d0160218361410d565b9150615d0c82615ca5565b604082019050919050565b60006020820190508181036000830152615d3081615cf4565b9050919050565b600060a082019050615d4c60008301886159b4565b615d5960208301876159b4565b615d666040830186613fb0565b615d736060830185613fb0565b8181036080830152615d8581846159df565b9050969550505050505056fea2646970667358221220c979fc1acf9c39491b957e293fe146c6c7945c4687f59c267a30d9f7c028fdf264736f6c634300080d0033",
  "immutableReferences": {},
  "source": "// SPDX-License-Identifier: MIT\r\n// Tells the Solidity compiler to compile only from v0.8.13 to v0.9.0\r\npragma solidity ^0.8.13;\r\n\r\nimport \"@openzeppelin/contracts/token/ERC1155/extensions/ERC1155URIStorage.sol\";\r\nimport \"@openzeppelin/contracts/utils/Counters.sol\";\r\nimport \"@openzeppelin/contracts/access/Ownable.sol\";\r\nimport \"./Registration.sol\";\r\nimport \"./interfaces/INftIdentities.sol\";\r\n\r\ncontract NftIdentities is ERC1155URIStorage, Registration, INftIdentities {\r\n    using Counters for Counters.Counter;\r\n\r\n    struct NftIdentity {\r\n        uint256 tokenId;\r\n        address register;\r\n        uint256 expiredAt;\r\n    }\r\n\r\n    uint256 constant INDEX_BITS = 16;\r\n    uint256 constant MAX_NFT_INDEX = uint256(~uint16(0));\r\n    uint256 constant ONE_NFT = 1;\r\n\r\n    uint256 constant VISITOR_ID = 99;\r\n    uint256 constant REGISTERED_ID = 100;\r\n    uint256 constant HIGHEST_OPERATOR_ID = 101;\r\n    address private _owner;\r\n\r\n    // Registration vars\r\n    uint256 public registerFee = 0.05 ether;\r\n    mapping(address => uint256) _tokenIdOfRegisters;\r\n\r\n    mapping(uint256 => Counters.Counter) _maxTokenIdIndexOfRole; // type => max token id\r\n    mapping(uint256 => NftIdentity[]) private _nftsOfRole; // type => Nft\r\n    mapping(uint256 => uint256) private _nftPosOfTokenId; // tokenId => index\r\n    mapping(string => bool) private _usedTokenURI;\r\n\r\n    mapping(address => uint256) private _nftOfOwner; // address => tokenId[]\r\n\r\n    mapping(uint256 => address) private _ownerOfNft;\r\n\r\n    uint256[] _extendRequestTokenIds;\r\n    mapping(uint256 => uint256) _positionOfRequestTokenId;\r\n\r\n    modifier onlyOwner() {\r\n        require(msg.sender == _owner);\r\n        _;\r\n    }\r\n\r\n    modifier isAfterNow(uint256 timestamp) {\r\n        require(timestamp > block.timestamp);\r\n        _;\r\n    }\r\n\r\n    modifier canGenerateNewTokens(uint256 role, uint256 amount) {\r\n        uint256 currentIndex = _maxTokenIdIndexOfRole[role].current() +\r\n            amount -\r\n            1;\r\n        require(currentIndex | MAX_NFT_INDEX == MAX_NFT_INDEX);\r\n        _;\r\n    }\r\n\r\n    modifier ownZeroNft(address addr) {\r\n        require(_nftOfOwner[addr] == 0);\r\n        _;\r\n    }\r\n\r\n    modifier ownNft(uint256 tokenId) {\r\n        require(_ownerOfNft[tokenId] == msg.sender);\r\n        _;\r\n    }\r\n\r\n    modifier tokenOwnByContract(uint256 tokenId) {\r\n        require(_ownerOfNft[tokenId] == _owner);\r\n        _;\r\n    }\r\n\r\n    constructor() ERC1155(\"\") {\r\n        _owner = msg.sender;\r\n        _hasRole[uint(ROLE.STUDENT)] = true;\r\n        _hasRole[uint(ROLE.TEACHER)] = true;\r\n    }\r\n\r\n    // Used for everyone: Section start\r\n    function getNftInfo(\r\n        uint256 tokenId\r\n    ) public view returns (NftIdentity memory, string memory) {\r\n        string memory tokenURI = uri(tokenId);\r\n        NftIdentity memory nftIdentity = getNftOfTokenId(tokenId);\r\n\r\n        return (nftIdentity, tokenURI);\r\n    }\r\n\r\n    function getNftOfTokenId(\r\n        uint256 tokenId\r\n    ) public view returns (NftIdentity memory) {\r\n        uint256 nftType = _getNftType(tokenId);\r\n        uint256 pos = _nftPosOfTokenId[tokenId];\r\n        require(pos > 0, \"Nft is not exist\");\r\n\r\n        return _nftsOfRole[nftType][pos - 1];\r\n    }\r\n\r\n    function getAllNftIdentityRegistration(\r\n        uint256 role\r\n    ) public view onlyOwner returns (RegistrationInfo[] memory) {\r\n        return _getAllRegistration(role);\r\n    }\r\n\r\n    function getRegisteredInfo() public view returns (RegistrationInfo memory) {\r\n        return _getRegisteredInfo();\r\n    }\r\n\r\n    function getAllExtendExpiredRequest()\r\n        public\r\n        view\r\n        onlyOwner\r\n        returns (NftIdentity[] memory, string[] memory)\r\n    {\r\n        uint256 numberOfRequests = _extendRequestTokenIds.length;\r\n        NftIdentity[] memory nftIdentities = new NftIdentity[](\r\n            numberOfRequests\r\n        );\r\n        string[] memory tokenURIs = new string[](numberOfRequests);\r\n\r\n        for (uint256 index = 0; index < numberOfRequests; ++index) {\r\n            uint256 tokenId = _extendRequestTokenIds[index];\r\n            NftIdentity memory nftIdentity;\r\n            string memory tokenURI;\r\n            (nftIdentity, tokenURI) = getNftInfo(tokenId);\r\n\r\n            nftIdentities[index] = nftIdentity;\r\n            tokenURIs[index] = tokenURI;\r\n        }\r\n\r\n        return (nftIdentities, tokenURIs);\r\n    }\r\n\r\n    // Used for everyone: Section end\r\n\r\n    // Used for teacher: Section start\r\n    /*\r\n        Teacher: if expired => request to extend =>\r\n            - Accept: Reset expired date\r\n            - Reject: Burn token\r\n        Student: if expired => Extend year end? (graduated won't own nft) => request to extend =>\r\n            - Accept: Reset expired date\r\n            - Reject: Burn token\r\n    */\r\n    function requestExtendExpiredNft() public {\r\n        uint256 tokenId = _nftOfOwner[msg.sender];\r\n        require(tokenId > 0);\r\n        NftIdentity memory nftIdentity = getNftOfTokenId(tokenId);\r\n        require(nftIdentity.expiredAt < block.timestamp);\r\n\r\n        safeTransferFrom(msg.sender, _owner, tokenId, ONE_NFT, msg.data);\r\n        _extendRequestTokenIds.push(tokenId);\r\n        _positionOfRequestTokenId[tokenId] = _extendRequestTokenIds.length;\r\n    }\r\n\r\n    // Used for student: Section start\r\n\r\n    // Used for other contracts: Section start\r\n    function isAbleToOperate(\r\n        address registerAddr\r\n    ) public view returns (bool, uint256) {\r\n        uint256 tokenId = _tokenIdOfRegisters[registerAddr];\r\n        if (tokenId == 0) {\r\n            return (false, 0);\r\n        }\r\n        NftIdentity memory nftIdentity = getNftOfTokenId(tokenId);\r\n\r\n        return (nftIdentity.expiredAt > block.timestamp, _getNftType(tokenId));\r\n    }\r\n\r\n    // Used for other contracts: Section end\r\n\r\n    // Used for owner: Section start\r\n    function registerNftIdentity(\r\n        uint256 role,\r\n        string memory documentURI\r\n    ) public payable {\r\n        require(msg.value == registerFee);\r\n        require(role == uint256(ROLE.TEACHER));\r\n        _register(role, documentURI);\r\n    }\r\n\r\n    function grantNftIdentity(\r\n        address targetAccount,\r\n        uint256 expiredAt,\r\n        string memory tokenURI\r\n    ) public hasRegistered(targetAccount) onlyOwner {\r\n        uint256 role = _getRegisteredRole(targetAccount);\r\n        _mintToken(role, targetAccount, expiredAt, tokenURI);\r\n        _removeFromRegistersList(targetAccount);\r\n    }\r\n\r\n    function rejectNftIdentityRegistration(address to)\r\n        public\r\n        onlyOwner\r\n        hasRegistered(to)\r\n    {\r\n        require(_registeredAddr[to] > 0);\r\n        _removeFromRegistersList(to);\r\n    }\r\n\r\n    function extendExpiredNft(\r\n        uint256 tokenId,\r\n        uint256 nextExpiredAt\r\n    ) public onlyOwner tokenOwnByContract(tokenId) isAfterNow(nextExpiredAt) {\r\n        // For approve extend expired request\r\n        uint256 nftType = _getNftType(tokenId);\r\n        uint256 pos = _nftPosOfTokenId[tokenId];\r\n        require(pos > 0, \"Nft is not exist\");\r\n\r\n        _nftsOfRole[nftType][pos - 1].expiredAt = nextExpiredAt;\r\n    }\r\n\r\n    function burnNft(\r\n        uint256 tokenId\r\n    ) public onlyOwner tokenOwnByContract(tokenId) {\r\n        // For reject extend expired request\r\n        _burn(_owner, tokenId, ONE_NFT);\r\n    }\r\n\r\n    // Used for owner: Section start\r\n\r\n    // Used for members: Section start\r\n    function getOwnedNft()\r\n        public\r\n        view\r\n        returns (NftIdentity memory, string memory, bool, bool)\r\n    {\r\n        uint256 tokenId = _tokenIdOfRegisters[msg.sender];\r\n        NftIdentity memory nftIdentity = getNftOfTokenId(tokenId);\r\n        string memory tokenURI = uri(tokenId);\r\n        bool isExpired = nftIdentity.expiredAt <= block.timestamp;\r\n        bool isExpiredRequest = _positionOfRequestTokenId[tokenId] > 0;\r\n\r\n        return (nftIdentity, tokenURI, isExpired, isExpiredRequest);\r\n    }\r\n\r\n    function getRole() public view returns (uint256) {\r\n        if (msg.sender == _owner) {\r\n            return uint256(HIGHEST_OPERATOR_ID);\r\n        }\r\n\r\n        if (_registeredAddr[msg.sender] > 0) {\r\n            return uint256(REGISTERED_ID);\r\n        }\r\n\r\n        uint256 tokenId = _tokenIdOfRegisters[msg.sender];\r\n        if (tokenId == 0) {\r\n            return uint256(VISITOR_ID);\r\n        }\r\n\r\n        uint256 role = _getNftType(tokenId);\r\n\r\n        return role;\r\n    }\r\n\r\n    function depositNftIdentity() public {\r\n        uint256 tokenId = _nftOfOwner[msg.sender];\r\n        require(tokenId > 0, \"Invalid operation\");\r\n        NftIdentity memory nftIdentity = getNftOfTokenId(tokenId);\r\n\r\n        if (nftIdentity.expiredAt > block.timestamp) {\r\n            safeTransferFrom(msg.sender, _owner, tokenId, ONE_NFT, msg.data);\r\n        } else {\r\n            // If NFT haven't extend but try to operate\r\n            _burn(msg.sender, tokenId, ONE_NFT);\r\n        }\r\n    }\r\n\r\n    function withdrawNftIdentity() public {\r\n        uint256 tokenId = _tokenIdOfRegisters[msg.sender];\r\n        require(tokenId > 0, \"Haven't owned any nfts yet\");\r\n        require(_ownerOfNft[tokenId] == _owner, \"Nft hasn't been deposited\");\r\n\r\n        safeTransferFrom(_owner, msg.sender, tokenId, ONE_NFT, msg.data);\r\n    }\r\n\r\n    // Used for members: Section end\r\n\r\n    function _beforeTokenTransfer(\r\n        address operator,\r\n        address from,\r\n        address to,\r\n        uint256[] memory ids,\r\n        uint256[] memory amounts,\r\n        bytes memory data\r\n    ) internal virtual override {\r\n        super._beforeTokenTransfer(operator, from, to, ids, amounts, data);\r\n        require(\r\n            from == address(0) || to == address(0),\r\n            \"Only mint or burn is allowed\"\r\n        );\r\n\r\n        uint256 tokenId = ids[0];\r\n\r\n        if (from != address(0)) {\r\n            delete _nftOfOwner[from];\r\n            delete _ownerOfNft[tokenId];\r\n        }\r\n\r\n        if (to != address(0)) {\r\n            _nftOfOwner[to] = tokenId;\r\n            _ownerOfNft[tokenId] = to;\r\n        } else {\r\n            // burn\r\n            _removeTokenIdFromAllTokens(tokenId);\r\n            delete _tokenIdOfRegisters[from];\r\n        }\r\n    }\r\n\r\n    function _removeTokenIdFromAllTokens(uint256 tokenId) private {\r\n        uint256 nftPos = _nftPosOfTokenId[tokenId];\r\n        uint256 nftType = _getNftType(tokenId);\r\n        uint256 nftCount = _nftsOfRole[nftType].length;\r\n\r\n        if (nftCount != nftPos) {\r\n            NftIdentity memory lastNft = _nftsOfRole[nftType][nftCount - 1];\r\n            _nftsOfRole[nftType][nftPos - 1] = lastNft;\r\n            _nftPosOfTokenId[lastNft.tokenId] = nftPos;\r\n        }\r\n        _nftsOfRole[nftType].pop();\r\n        delete _nftPosOfTokenId[tokenId];\r\n    }\r\n\r\n    function _mintTokens(\r\n        uint256 role,\r\n        address[] memory to,\r\n        uint256[] memory expiredAt,\r\n        string[] memory tokenURI\r\n    ) private allowedRole(role) canGenerateNewTokens(role, to.length) {\r\n        require(to.length == expiredAt.length, \"Invalid params\");\r\n        require(to.length == tokenURI.length, \"Invalid params\");\r\n        uint256 targetCount = to.length;\r\n\r\n        for (uint256 index = 0; index < targetCount; ++index) {\r\n            if (_nftOfOwner[to[index]] > 0) {\r\n                revert(\"Nft Identity must be unique\");\r\n            }\r\n            _mintToken(role, to[index], expiredAt[index], tokenURI[index]);\r\n        }\r\n    }\r\n\r\n    function _mintToken(\r\n        uint256 role,\r\n        address to,\r\n        uint256 expiredAt,\r\n        string memory tokenURI\r\n    ) private returns (uint256) {\r\n        require(!_usedTokenURI[tokenURI], \"Token URI has already used\");\r\n        uint256 tokenId = _generateNewTokenId(role);\r\n        _setURI(tokenId, tokenURI);\r\n\r\n        _createNftIdentity(to, tokenId, expiredAt);\r\n        _mint(to, tokenId, ONE_NFT, msg.data);\r\n\r\n        return tokenId;\r\n    }\r\n\r\n    function _createNftIdentity(address to, uint256 tokenId, uint256 expiredAt) private {\r\n        uint256 nftType = _getNftType(tokenId);\r\n        NftIdentity memory nftIdentity = NftIdentity(\r\n            tokenId,\r\n            msg.sender,\r\n            expiredAt\r\n        );\r\n\r\n        _nftsOfRole[nftType].push(nftIdentity);\r\n        _nftPosOfTokenId[tokenId] = _nftsOfRole[nftType].length;\r\n        _tokenIdOfRegisters[to] = tokenId;\r\n    }\r\n\r\n    function _getNftType(uint256 tokenId) private pure returns (uint256) {\r\n        return tokenId >> INDEX_BITS;\r\n    }\r\n\r\n    function _generateNewTokenId(uint256 role) private returns (uint256) {\r\n        _maxTokenIdIndexOfRole[role].increment();\r\n        uint256 tokenId = _maxTokenIdIndexOfRole[role].current();\r\n\r\n        return (role << INDEX_BITS) | tokenId;\r\n    }\r\n}\r\n",
  "sourcePath": "E:\\learn\\learn-to-earn\\contracts\\NftIdentities.sol",
  "compiler": {
    "name": "solc",
    "version": "0.8.13+commit.abaa5c0e.Emscripten.clang"
  },
  "schemaVersion": "3.4.13",
  "updatedAt": "2023-03-26T22:50:10.603Z",
  "networkType": "ethereum",
  "devdoc": {
    "kind": "dev",
    "methods": {
      "balanceOf(address,uint256)": {
        "details": "See {IERC1155-balanceOf}. Requirements: - `account` cannot be the zero address."
      },
      "balanceOfBatch(address[],uint256[])": {
        "details": "See {IERC1155-balanceOfBatch}. Requirements: - `accounts` and `ids` must have the same length."
      },
      "isApprovedForAll(address,address)": {
        "details": "See {IERC1155-isApprovedForAll}."
      },
      "safeBatchTransferFrom(address,address,uint256[],uint256[],bytes)": {
        "details": "See {IERC1155-safeBatchTransferFrom}."
      },
      "safeTransferFrom(address,address,uint256,uint256,bytes)": {
        "details": "See {IERC1155-safeTransferFrom}."
      },
      "setApprovalForAll(address,bool)": {
        "details": "See {IERC1155-setApprovalForAll}."
      },
      "supportsInterface(bytes4)": {
        "details": "See {IERC165-supportsInterface}."
      },
      "uri(uint256)": {
        "details": "See {IERC1155MetadataURI-uri}. This implementation returns the concatenation of the `_baseURI` and the token-specific uri if the latter is set This enables the following behaviors: - if `_tokenURIs[tokenId]` is set, then the result is the concatenation   of `_baseURI` and `_tokenURIs[tokenId]` (keep in mind that `_baseURI`   is empty per default); - if `_tokenURIs[tokenId]` is NOT set then we fallback to `super.uri()`   which in most cases will contain `ERC1155._uri`; - if `_tokenURIs[tokenId]` is NOT set, and if the parents do not have a   uri value set, then the result is empty."
      }
    },
    "version": 1
  },
  "userdoc": {
    "kind": "user",
    "methods": {},
    "version": 1
  }
}