{
  "contractName": "NftIdentities",
  "abi": [
    {
      "inputs": [],
      "stateMutability": "nonpayable",
      "type": "constructor"
    },
    {
      "anonymous": false,
      "inputs": [
        {
          "indexed": true,
          "internalType": "address",
          "name": "account",
          "type": "address"
        },
        {
          "indexed": true,
          "internalType": "address",
          "name": "operator",
          "type": "address"
        },
        {
          "indexed": false,
          "internalType": "bool",
          "name": "approved",
          "type": "bool"
        }
      ],
      "name": "ApprovalForAll",
      "type": "event"
    },
    {
      "anonymous": false,
      "inputs": [
        {
          "indexed": true,
          "internalType": "address",
          "name": "operator",
          "type": "address"
        },
        {
          "indexed": true,
          "internalType": "address",
          "name": "from",
          "type": "address"
        },
        {
          "indexed": true,
          "internalType": "address",
          "name": "to",
          "type": "address"
        },
        {
          "indexed": false,
          "internalType": "uint256[]",
          "name": "ids",
          "type": "uint256[]"
        },
        {
          "indexed": false,
          "internalType": "uint256[]",
          "name": "values",
          "type": "uint256[]"
        }
      ],
      "name": "TransferBatch",
      "type": "event"
    },
    {
      "anonymous": false,
      "inputs": [
        {
          "indexed": true,
          "internalType": "address",
          "name": "operator",
          "type": "address"
        },
        {
          "indexed": true,
          "internalType": "address",
          "name": "from",
          "type": "address"
        },
        {
          "indexed": true,
          "internalType": "address",
          "name": "to",
          "type": "address"
        },
        {
          "indexed": false,
          "internalType": "uint256",
          "name": "id",
          "type": "uint256"
        },
        {
          "indexed": false,
          "internalType": "uint256",
          "name": "value",
          "type": "uint256"
        }
      ],
      "name": "TransferSingle",
      "type": "event"
    },
    {
      "anonymous": false,
      "inputs": [
        {
          "indexed": false,
          "internalType": "string",
          "name": "value",
          "type": "string"
        },
        {
          "indexed": true,
          "internalType": "uint256",
          "name": "id",
          "type": "uint256"
        }
      ],
      "name": "URI",
      "type": "event"
    },
    {
      "inputs": [
        {
          "internalType": "address",
          "name": "account",
          "type": "address"
        },
        {
          "internalType": "uint256",
          "name": "id",
          "type": "uint256"
        }
      ],
      "name": "balanceOf",
      "outputs": [
        {
          "internalType": "uint256",
          "name": "",
          "type": "uint256"
        }
      ],
      "stateMutability": "view",
      "type": "function",
      "constant": true
    },
    {
      "inputs": [
        {
          "internalType": "address[]",
          "name": "accounts",
          "type": "address[]"
        },
        {
          "internalType": "uint256[]",
          "name": "ids",
          "type": "uint256[]"
        }
      ],
      "name": "balanceOfBatch",
      "outputs": [
        {
          "internalType": "uint256[]",
          "name": "",
          "type": "uint256[]"
        }
      ],
      "stateMutability": "view",
      "type": "function",
      "constant": true
    },
    {
      "inputs": [
        {
          "internalType": "address",
          "name": "account",
          "type": "address"
        },
        {
          "internalType": "address",
          "name": "operator",
          "type": "address"
        }
      ],
      "name": "isApprovedForAll",
      "outputs": [
        {
          "internalType": "bool",
          "name": "",
          "type": "bool"
        }
      ],
      "stateMutability": "view",
      "type": "function",
      "constant": true
    },
    {
      "inputs": [],
      "name": "registerFee",
      "outputs": [
        {
          "internalType": "uint256",
          "name": "",
          "type": "uint256"
        }
      ],
      "stateMutability": "view",
      "type": "function",
      "constant": true
    },
    {
      "inputs": [
        {
          "internalType": "address",
          "name": "from",
          "type": "address"
        },
        {
          "internalType": "address",
          "name": "to",
          "type": "address"
        },
        {
          "internalType": "uint256[]",
          "name": "ids",
          "type": "uint256[]"
        },
        {
          "internalType": "uint256[]",
          "name": "amounts",
          "type": "uint256[]"
        },
        {
          "internalType": "bytes",
          "name": "data",
          "type": "bytes"
        }
      ],
      "name": "safeBatchTransferFrom",
      "outputs": [],
      "stateMutability": "nonpayable",
      "type": "function"
    },
    {
      "inputs": [
        {
          "internalType": "address",
          "name": "from",
          "type": "address"
        },
        {
          "internalType": "address",
          "name": "to",
          "type": "address"
        },
        {
          "internalType": "uint256",
          "name": "id",
          "type": "uint256"
        },
        {
          "internalType": "uint256",
          "name": "amount",
          "type": "uint256"
        },
        {
          "internalType": "bytes",
          "name": "data",
          "type": "bytes"
        }
      ],
      "name": "safeTransferFrom",
      "outputs": [],
      "stateMutability": "nonpayable",
      "type": "function"
    },
    {
      "inputs": [
        {
          "internalType": "address",
          "name": "operator",
          "type": "address"
        },
        {
          "internalType": "bool",
          "name": "approved",
          "type": "bool"
        }
      ],
      "name": "setApprovalForAll",
      "outputs": [],
      "stateMutability": "nonpayable",
      "type": "function"
    },
    {
      "inputs": [
        {
          "internalType": "bytes4",
          "name": "interfaceId",
          "type": "bytes4"
        }
      ],
      "name": "supportsInterface",
      "outputs": [
        {
          "internalType": "bool",
          "name": "",
          "type": "bool"
        }
      ],
      "stateMutability": "view",
      "type": "function",
      "constant": true
    },
    {
      "inputs": [
        {
          "internalType": "uint256",
          "name": "tokenId",
          "type": "uint256"
        }
      ],
      "name": "uri",
      "outputs": [
        {
          "internalType": "string",
          "name": "",
          "type": "string"
        }
      ],
      "stateMutability": "view",
      "type": "function",
      "constant": true
    },
    {
      "inputs": [
        {
          "internalType": "uint256",
          "name": "tokenId",
          "type": "uint256"
        }
      ],
      "name": "getNftInfo",
      "outputs": [
        {
          "components": [
            {
              "internalType": "uint256",
              "name": "tokenId",
              "type": "uint256"
            },
            {
              "internalType": "address",
              "name": "register",
              "type": "address"
            },
            {
              "internalType": "uint256",
              "name": "expiredAt",
              "type": "uint256"
            }
          ],
          "internalType": "struct NftIdentities.NftIdentity",
          "name": "",
          "type": "tuple"
        },
        {
          "internalType": "string",
          "name": "",
          "type": "string"
        }
      ],
      "stateMutability": "view",
      "type": "function",
      "constant": true
    },
    {
      "inputs": [
        {
          "internalType": "uint256",
          "name": "tokenId",
          "type": "uint256"
        }
      ],
      "name": "getNftOfTokenId",
      "outputs": [
        {
          "components": [
            {
              "internalType": "uint256",
              "name": "tokenId",
              "type": "uint256"
            },
            {
              "internalType": "address",
              "name": "register",
              "type": "address"
            },
            {
              "internalType": "uint256",
              "name": "expiredAt",
              "type": "uint256"
            }
          ],
          "internalType": "struct NftIdentities.NftIdentity",
          "name": "",
          "type": "tuple"
        }
      ],
      "stateMutability": "view",
      "type": "function",
      "constant": true
    },
    {
      "inputs": [
        {
          "internalType": "uint256",
          "name": "role",
          "type": "uint256"
        }
      ],
      "name": "getAllNftIdentityRegistration",
      "outputs": [
        {
          "components": [
            {
              "internalType": "address",
              "name": "applicant",
              "type": "address"
            },
            {
              "internalType": "string",
              "name": "documentURI",
              "type": "string"
            }
          ],
          "internalType": "struct Registration.RegistrationInfo[]",
          "name": "",
          "type": "tuple[]"
        }
      ],
      "stateMutability": "view",
      "type": "function",
      "constant": true
    },
    {
      "inputs": [],
      "name": "getRegisteredInfo",
      "outputs": [
        {
          "components": [
            {
              "internalType": "address",
              "name": "applicant",
              "type": "address"
            },
            {
              "internalType": "string",
              "name": "documentURI",
              "type": "string"
            }
          ],
          "internalType": "struct Registration.RegistrationInfo",
          "name": "",
          "type": "tuple"
        }
      ],
      "stateMutability": "view",
      "type": "function",
      "constant": true
    },
    {
      "inputs": [],
      "name": "getAllExtendExpiredRequest",
      "outputs": [
        {
          "components": [
            {
              "internalType": "uint256",
              "name": "tokenId",
              "type": "uint256"
            },
            {
              "internalType": "address",
              "name": "register",
              "type": "address"
            },
            {
              "internalType": "uint256",
              "name": "expiredAt",
              "type": "uint256"
            }
          ],
          "internalType": "struct NftIdentities.NftIdentity[]",
          "name": "",
          "type": "tuple[]"
        },
        {
          "internalType": "string[]",
          "name": "",
          "type": "string[]"
        }
      ],
      "stateMutability": "view",
      "type": "function",
      "constant": true
    },
    {
      "inputs": [],
      "name": "requestExtendExpiredNft",
      "outputs": [],
      "stateMutability": "nonpayable",
      "type": "function"
    },
    {
      "inputs": [
        {
          "internalType": "address",
          "name": "registerAddr",
          "type": "address"
        }
      ],
      "name": "isAbleToOperate",
      "outputs": [
        {
          "internalType": "bool",
          "name": "",
          "type": "bool"
        },
        {
          "internalType": "uint256",
          "name": "",
          "type": "uint256"
        }
      ],
      "stateMutability": "view",
      "type": "function",
      "constant": true
    },
    {
      "inputs": [
        {
          "internalType": "uint256",
          "name": "role",
          "type": "uint256"
        },
        {
          "internalType": "string",
          "name": "documentURI",
          "type": "string"
        }
      ],
      "name": "registerNftIdentity",
      "outputs": [],
      "stateMutability": "payable",
      "type": "function",
      "payable": true
    },
    {
      "inputs": [
        {
          "internalType": "address",
          "name": "targetAccount",
          "type": "address"
        },
        {
          "internalType": "uint256",
          "name": "expiredAt",
          "type": "uint256"
        },
        {
          "internalType": "string",
          "name": "tokenURI",
          "type": "string"
        }
      ],
      "name": "grantNftIdentity",
      "outputs": [],
      "stateMutability": "nonpayable",
      "type": "function"
    },
    {
      "inputs": [],
      "name": "rejectNftIdentityRegistration",
      "outputs": [],
      "stateMutability": "nonpayable",
      "type": "function"
    },
    {
      "inputs": [
        {
          "internalType": "uint256",
          "name": "tokenId",
          "type": "uint256"
        },
        {
          "internalType": "uint256",
          "name": "nextExpiredAt",
          "type": "uint256"
        }
      ],
      "name": "extendExpiredNft",
      "outputs": [],
      "stateMutability": "nonpayable",
      "type": "function"
    },
    {
      "inputs": [
        {
          "internalType": "uint256",
          "name": "tokenId",
          "type": "uint256"
        }
      ],
      "name": "burnNft",
      "outputs": [],
      "stateMutability": "nonpayable",
      "type": "function"
    },
    {
      "inputs": [],
      "name": "getOwnedNft",
      "outputs": [
        {
          "components": [
            {
              "internalType": "uint256",
              "name": "tokenId",
              "type": "uint256"
            },
            {
              "internalType": "address",
              "name": "register",
              "type": "address"
            },
            {
              "internalType": "uint256",
              "name": "expiredAt",
              "type": "uint256"
            }
          ],
          "internalType": "struct NftIdentities.NftIdentity",
          "name": "",
          "type": "tuple"
        },
        {
          "internalType": "string",
          "name": "",
          "type": "string"
        },
        {
          "internalType": "bool",
          "name": "",
          "type": "bool"
        },
        {
          "internalType": "bool",
          "name": "",
          "type": "bool"
        }
      ],
      "stateMutability": "view",
      "type": "function",
      "constant": true
    },
    {
      "inputs": [],
      "name": "getRole",
      "outputs": [
        {
          "internalType": "uint256",
          "name": "",
          "type": "uint256"
        }
      ],
      "stateMutability": "view",
      "type": "function",
      "constant": true
    },
    {
      "inputs": [],
      "name": "depositNftIdentity",
      "outputs": [],
      "stateMutability": "nonpayable",
      "type": "function"
    },
    {
      "inputs": [],
      "name": "withdrawNftIdentity",
      "outputs": [],
      "stateMutability": "nonpayable",
      "type": "function"
    }
  ],
  "bytecode": "0x608060405260405180602001604052806000815250600390805190602001906200002b9291906200014c565b5066b1a2bc2ec50000600b553480156200004457600080fd5b506040518060200160405280600081525062000066816200013060201b60201c565b5033600a60006101000a81548173ffffffffffffffffffffffffffffffffffffffff021916908373ffffffffffffffffffffffffffffffffffffffff160217905550600160076000806001811115620000c457620000c3620001fc565b5b815260200190815260200160002060006101000a81548160ff021916908315150217905550600160076000600180811115620001055762000104620001fc565b5b815260200190815260200160002060006101000a81548160ff0219169083151502179055506200028f565b8060029080519060200190620001489291906200014c565b5050565b8280546200015a906200025a565b90600052602060002090601f0160209004810192826200017e5760008555620001ca565b82601f106200019957805160ff1916838001178555620001ca565b82800160010185558215620001ca579182015b82811115620001c9578251825591602001919060010190620001ac565b5b509050620001d99190620001dd565b5090565b5b80821115620001f8576000816000905550600101620001de565b5090565b7f4e487b7100000000000000000000000000000000000000000000000000000000600052602160045260246000fd5b7f4e487b7100000000000000000000000000000000000000000000000000000000600052602260045260246000fd5b600060028204905060018216806200027357607f821691505b6020821081036200028957620002886200022b565b5b50919050565b615da9806200029f6000396000f3fe6080604052600436106101655760003560e01c8063605f18b9116100d1578063d2fd879f1161008a578063e985e9c511610064578063e985e9c51461051e578063f242432a1461055b578063f9b9c44a14610584578063fde08174146105af57610165565b8063d2fd879f1461047a578063d5ec2d83146104a3578063d703df8b146104e157610165565b8063605f18b91461039157806376bd1c78146103a85780637f256a54146103bf5780639e4fdc6e146103d6578063a22cb46514610413578063ce268f691461043c57610165565b80632eb2c2d6116101235780632eb2c2d61461028c57806333fbd842146102b55780633a66e326146102e15780633d5efefe146102fd5780634e1273f41461032657806358e8dad21461036357610165565b8062fdd58e1461016a57806301ffc9a7146101a757806303f187ea146101e45780630a08bb531461020f5780630e89341c146102385780630fc2346d14610275575b600080fd5b34801561017657600080fd5b50610191600480360381019061018c9190613f52565b6105da565b60405161019e9190613fa1565b60405180910390f35b3480156101b357600080fd5b506101ce60048036038101906101c99190614014565b6106a2565b6040516101db919061405c565b60405180910390f35b3480156101f057600080fd5b506101f9610784565b6040516102069190613fa1565b60405180910390f35b34801561021b57600080fd5b5061023660048036038101906102319190614077565b61078a565b005b34801561024457600080fd5b5061025f600480360381019061025a91906140b7565b610936565b60405161026c919061417d565b60405180910390f35b34801561028157600080fd5b5061028a610a1b565b005b34801561029857600080fd5b506102b360048036038101906102ae919061439c565b610bdd565b005b3480156102c157600080fd5b506102ca610c7e565b6040516102d8929190614686565b60405180910390f35b6102fb60048036038101906102f6919061475e565b610e38565b005b34801561030957600080fd5b50610324600480360381019061031f91906140b7565b610e72565b005b34801561033257600080fd5b5061034d6004803603810190610348919061487d565b610f8c565b60405161035a91906149a4565b60405180910390f35b34801561036f57600080fd5b506103786110a5565b6040516103889493929190614a08565b60405180910390f35b34801561039d57600080fd5b506103a661114d565b005b3480156103b457600080fd5b506103bd611282565b005b3480156103cb57600080fd5b506103d46113af565b005b3480156103e257600080fd5b506103fd60048036038101906103f891906140b7565b6114da565b60405161040a9190614b53565b60405180910390f35b34801561041f57600080fd5b5061043a60048036038101906104359190614ba1565b611546565b005b34801561044857600080fd5b50610463600480360381019061045e9190614be1565b61155c565b604051610471929190614c0e565b60405180910390f35b34801561048657600080fd5b506104a1600480360381019061049c9190614c37565b6115e1565b005b3480156104af57600080fd5b506104ca60048036038101906104c591906140b7565b6116df565b6040516104d8929190614ca6565b60405180910390f35b3480156104ed57600080fd5b50610508600480360381019061050391906140b7565b611710565b6040516105159190614cd6565b60405180910390f35b34801561052a57600080fd5b5061054560048036038101906105409190614cf1565b61183d565b604051610552919061405c565b60405180910390f35b34801561056757600080fd5b50610582600480360381019061057d9190614d31565b6118d1565b005b34801561059057600080fd5b50610599611972565b6040516105a69190614e05565b60405180910390f35b3480156105bb57600080fd5b506105c4611987565b6040516105d19190613fa1565b60405180910390f35b60008073ffffffffffffffffffffffffffffffffffffffff168373ffffffffffffffffffffffffffffffffffffffff160361064a576040517f08c379a000000000000000000000000000000000000000000000000000000000815260040161064190614e99565b60405180910390fd5b60008083815260200190815260200160002060008473ffffffffffffffffffffffffffffffffffffffff1673ffffffffffffffffffffffffffffffffffffffff16815260200190815260200160002054905092915050565b60007fd9b67a26000000000000000000000000000000000000000000000000000000007bffffffffffffffffffffffffffffffffffffffffffffffffffffffff1916827bffffffffffffffffffffffffffffffffffffffffffffffffffffffff1916148061076d57507f0e89341c000000000000000000000000000000000000000000000000000000007bffffffffffffffffffffffffffffffffffffffffffffffffffffffff1916827bffffffffffffffffffffffffffffffffffffffffffffffffffffffff1916145b8061077d575061077c82611aa4565b5b9050919050565b600b5481565b600a60009054906101000a900473ffffffffffffffffffffffffffffffffffffffff1673ffffffffffffffffffffffffffffffffffffffff163373ffffffffffffffffffffffffffffffffffffffff16146107e457600080fd5b81600a60009054906101000a900473ffffffffffffffffffffffffffffffffffffffff1673ffffffffffffffffffffffffffffffffffffffff166012600083815260200190815260200160002060009054906101000a900473ffffffffffffffffffffffffffffffffffffffff1673ffffffffffffffffffffffffffffffffffffffff161461087257600080fd5b8142811161087f57600080fd5b600061088a85611b0e565b90506000600f6000878152602001908152602001600020549050600081116108e7576040517f08c379a00000000000000000000000000000000000000000000000000000000081526004016108de90614f05565b60405180910390fd5b84600e60008481526020019081526020016000206001836109089190614f54565b8154811061091957610918614f88565b5b906000526020600020906003020160020181905550505050505050565b6060600060046000848152602001908152602001600020805461095890614fe6565b80601f016020809104026020016040519081016040528092919081815260200182805461098490614fe6565b80156109d15780601f106109a6576101008083540402835291602001916109d1565b820191906000526020600020905b8154815290600101906020018083116109b457829003601f168201915b5050505050905060008151116109ef576109ea83611b1c565b610a13565b600381604051602001610a039291906150e7565b6040516020818303038152906040525b915050919050565b6000600c60003373ffffffffffffffffffffffffffffffffffffffff1673ffffffffffffffffffffffffffffffffffffffff16815260200190815260200160002054905060008111610aa2576040517f08c379a0000000000000000000000000000000000000000000000000000000008152600401610a9990615157565b60405180910390fd5b600a60009054906101000a900473ffffffffffffffffffffffffffffffffffffffff1673ffffffffffffffffffffffffffffffffffffffff166012600083815260200190815260200160002060009054906101000a900473ffffffffffffffffffffffffffffffffffffffff1673ffffffffffffffffffffffffffffffffffffffff1614610b65576040517f08c379a0000000000000000000000000000000000000000000000000000000008152600401610b5c906151c3565b60405180910390fd5b610bda600a60009054906101000a900473ffffffffffffffffffffffffffffffffffffffff16338360016000368080601f016020809104026020016040519081016040528093929190818152602001838380828437600081840152601f19601f820116905080830192505050505050506118d1565b50565b610be5611bb0565b73ffffffffffffffffffffffffffffffffffffffff168573ffffffffffffffffffffffffffffffffffffffff161480610c2b5750610c2a85610c25611bb0565b61183d565b5b610c6a576040517f08c379a0000000000000000000000000000000000000000000000000000000008152600401610c6190615255565b60405180910390fd5b610c778585858585611bb8565b5050505050565b606080600a60009054906101000a900473ffffffffffffffffffffffffffffffffffffffff1673ffffffffffffffffffffffffffffffffffffffff163373ffffffffffffffffffffffffffffffffffffffff1614610cdb57600080fd5b6000601380549050905060008167ffffffffffffffff811115610d0157610d006141a4565b5b604051908082528060200260200182016040528015610d3a57816020015b610d27613d60565b815260200190600190039081610d1f5790505b50905060008267ffffffffffffffff811115610d5957610d586141a4565b5b604051908082528060200260200182016040528015610d8c57816020015b6060815260200190600190039081610d775790505b50905060005b83811015610e2a57600060138281548110610db057610daf614f88565b5b90600052602060002001549050610dc5613d60565b6060610dd0836116df565b809250819350505081868581518110610dec57610deb614f88565b5b602002602001018190525080858581518110610e0b57610e0a614f88565b5b602002602001018190525050505080610e2390615275565b9050610d92565b508181945094505050509091565b600b543414610e4657600080fd5b600180811115610e5957610e586152bd565b5b8214610e6457600080fd5b610e6e8282611ed9565b5050565b600a60009054906101000a900473ffffffffffffffffffffffffffffffffffffffff1673ffffffffffffffffffffffffffffffffffffffff163373ffffffffffffffffffffffffffffffffffffffff1614610ecc57600080fd5b80600a60009054906101000a900473ffffffffffffffffffffffffffffffffffffffff1673ffffffffffffffffffffffffffffffffffffffff166012600083815260200190815260200160002060009054906101000a900473ffffffffffffffffffffffffffffffffffffffff1673ffffffffffffffffffffffffffffffffffffffff1614610f5a57600080fd5b610f88600a60009054906101000a900473ffffffffffffffffffffffffffffffffffffffff168360016120d2565b5050565b60608151835114610fd2576040517f08c379a0000000000000000000000000000000000000000000000000000000008152600401610fc99061535e565b60405180910390fd5b6000835167ffffffffffffffff811115610fef57610fee6141a4565b5b60405190808252806020026020018201604052801561101d5781602001602082028036833780820191505090505b50905060005b845181101561109a5761106a85828151811061104257611041614f88565b5b602002602001015185838151811061105d5761105c614f88565b5b60200260200101516105da565b82828151811061107d5761107c614f88565b5b6020026020010181815250508061109390615275565b9050611023565b508091505092915050565b6110ad613d60565b60606000806000600c60003373ffffffffffffffffffffffffffffffffffffffff1673ffffffffffffffffffffffffffffffffffffffff168152602001908152602001600020549050600061110182611710565b9050600061110e83610936565b90506000428360400151111590506000806014600087815260200190815260200160002054119050838383839850985098509850505050505090919293565b600a60009054906101000a900473ffffffffffffffffffffffffffffffffffffffff1673ffffffffffffffffffffffffffffffffffffffff163373ffffffffffffffffffffffffffffffffffffffff16146111a757600080fd5b336000600860008373ffffffffffffffffffffffffffffffffffffffff1673ffffffffffffffffffffffffffffffffffffffff168152602001908152602001600020541161122a576040517f08c379a0000000000000000000000000000000000000000000000000000000008152600401611221906153ca565b60405180910390fd5b6000600860003373ffffffffffffffffffffffffffffffffffffffff1673ffffffffffffffffffffffffffffffffffffffff168152602001908152602001600020541161127657600080fd5b61127f33612318565b50565b6000601160003373ffffffffffffffffffffffffffffffffffffffff1673ffffffffffffffffffffffffffffffffffffffff168152602001908152602001600020549050600081116112d357600080fd5b60006112de82611710565b9050428160400151106112f057600080fd5b61136533600a60009054906101000a900473ffffffffffffffffffffffffffffffffffffffff168460016000368080601f016020809104026020016040519081016040528093929190818152602001838380828437600081840152601f19601f820116905080830192505050505050506118d1565b601382908060018154018082558091505060019003906000526020600020016000909190919091505560138054905060146000848152602001908152602001600020819055505050565b6000601160003373ffffffffffffffffffffffffffffffffffffffff1673ffffffffffffffffffffffffffffffffffffffff16815260200190815260200160002054905060008111611436576040517f08c379a000000000000000000000000000000000000000000000000000000000815260040161142d90615436565b60405180910390fd5b600061144182611710565b905042816040015111156114c9576114c433600a60009054906101000a900473ffffffffffffffffffffffffffffffffffffffff168460016000368080601f016020809104026020016040519081016040528093929190818152602001838380828437600081840152601f19601f820116905080830192505050505050506118d1565b6114d6565b6114d5338360016120d2565b5b5050565b6060600a60009054906101000a900473ffffffffffffffffffffffffffffffffffffffff1673ffffffffffffffffffffffffffffffffffffffff163373ffffffffffffffffffffffffffffffffffffffff161461153657600080fd5b61153f82612727565b9050919050565b611558611551611bb0565b8383612881565b5050565b6000806000600c60008573ffffffffffffffffffffffffffffffffffffffff1673ffffffffffffffffffffffffffffffffffffffff168152602001908152602001600020549050600081036115b85760008092509250506115dc565b60006115c382611710565b9050428160400151116115d583611b0e565b9350935050505b915091565b826000600860008373ffffffffffffffffffffffffffffffffffffffff1673ffffffffffffffffffffffffffffffffffffffff1681526020019081526020016000205411611664576040517f08c379a000000000000000000000000000000000000000000000000000000000815260040161165b906153ca565b60405180910390fd5b600a60009054906101000a900473ffffffffffffffffffffffffffffffffffffffff1673ffffffffffffffffffffffffffffffffffffffff163373ffffffffffffffffffffffffffffffffffffffff16146116be57600080fd5b60006116c9856129ed565b90506116d781868686612a42565b505050505050565b6116e7613d60565b606060006116f484610936565b9050600061170185611710565b90508082935093505050915091565b611718613d60565b600061172383611b0e565b90506000600f600085815260200190815260200160002054905060008111611780576040517f08c379a000000000000000000000000000000000000000000000000000000000815260040161177790614f05565b60405180910390fd5b600e60008381526020019081526020016000206001826117a09190614f54565b815481106117b1576117b0614f88565b5b9060005260206000209060030201604051806060016040529081600082015481526020016001820160009054906101000a900473ffffffffffffffffffffffffffffffffffffffff1673ffffffffffffffffffffffffffffffffffffffff1673ffffffffffffffffffffffffffffffffffffffff16815260200160028201548152505092505050919050565b6000600160008473ffffffffffffffffffffffffffffffffffffffff1673ffffffffffffffffffffffffffffffffffffffff16815260200190815260200160002060008373ffffffffffffffffffffffffffffffffffffffff1673ffffffffffffffffffffffffffffffffffffffff16815260200190815260200160002060009054906101000a900460ff16905092915050565b6118d9611bb0565b73ffffffffffffffffffffffffffffffffffffffff168573ffffffffffffffffffffffffffffffffffffffff16148061191f575061191e85611919611bb0565b61183d565b5b61195e576040517f08c379a000000000000000000000000000000000000000000000000000000000815260040161195590615255565b60405180910390fd5b61196b8585858585612b2f565b5050505050565b61197a613d97565b611982612dca565b905090565b6000600a60009054906101000a900473ffffffffffffffffffffffffffffffffffffffff1673ffffffffffffffffffffffffffffffffffffffff163373ffffffffffffffffffffffffffffffffffffffff16036119e75760659050611aa1565b6000600860003373ffffffffffffffffffffffffffffffffffffffff1673ffffffffffffffffffffffffffffffffffffffff168152602001908152602001600020541115611a385760649050611aa1565b6000600c60003373ffffffffffffffffffffffffffffffffffffffff1673ffffffffffffffffffffffffffffffffffffffff16815260200190815260200160002054905060008103611a8e576063915050611aa1565b6000611a9982611b0e565b905080925050505b90565b60007f01ffc9a7000000000000000000000000000000000000000000000000000000007bffffffffffffffffffffffffffffffffffffffffffffffffffffffff1916827bffffffffffffffffffffffffffffffffffffffffffffffffffffffff1916149050919050565b6000601082901c9050919050565b606060028054611b2b90614fe6565b80601f0160208091040260200160405190810160405280929190818152602001828054611b5790614fe6565b8015611ba45780601f10611b7957610100808354040283529160200191611ba4565b820191906000526020600020905b815481529060010190602001808311611b8757829003601f168201915b50505050509050919050565b600033905090565b8151835114611bfc576040517f08c379a0000000000000000000000000000000000000000000000000000000008152600401611bf3906154c8565b60405180910390fd5b600073ffffffffffffffffffffffffffffffffffffffff168473ffffffffffffffffffffffffffffffffffffffff1603611c6b576040517f08c379a0000000000000000000000000000000000000000000000000000000008152600401611c629061555a565b60405180910390fd5b6000611c75611bb0565b9050611c85818787878787613034565b60005b8451811015611e36576000858281518110611ca657611ca5614f88565b5b602002602001015190506000858381518110611cc557611cc4614f88565b5b60200260200101519050600080600084815260200190815260200160002060008b73ffffffffffffffffffffffffffffffffffffffff1673ffffffffffffffffffffffffffffffffffffffff16815260200190815260200160002054905081811015611d66576040517f08c379a0000000000000000000000000000000000000000000000000000000008152600401611d5d906155ec565b60405180910390fd5b81810360008085815260200190815260200160002060008c73ffffffffffffffffffffffffffffffffffffffff1673ffffffffffffffffffffffffffffffffffffffff168152602001908152602001600020819055508160008085815260200190815260200160002060008b73ffffffffffffffffffffffffffffffffffffffff1673ffffffffffffffffffffffffffffffffffffffff1681526020019081526020016000206000828254611e1b919061560c565b9250508190555050505080611e2f90615275565b9050611c88565b508473ffffffffffffffffffffffffffffffffffffffff168673ffffffffffffffffffffffffffffffffffffffff168273ffffffffffffffffffffffffffffffffffffffff167f4a39dc06d4c0dbc64b70af90fd698a233a518aa5d07e595d983b8c0526c8f7fb8787604051611ead929190615662565b60405180910390a4611ec38187878787876132db565b611ed18187878787876132e3565b505050505050565b600981604051611ee99190615699565b908152602001604051809103902060009054906101000a900460ff1615611f0f57600080fd5b6005600083815260200190815260200160002060405180604001604052803373ffffffffffffffffffffffffffffffffffffffff16815260200183815250908060018154018082558091505060019003906000526020600020906002020160009091909190915060008201518160000160006101000a81548173ffffffffffffffffffffffffffffffffffffffff021916908373ffffffffffffffffffffffffffffffffffffffff1602179055506020820151816001019080519060200190611fd9929190613dc7565b505050600182611fe9919061560c565b600860003373ffffffffffffffffffffffffffffffffffffffff1673ffffffffffffffffffffffffffffffffffffffff1681526020019081526020016000208190555060056000838152602001908152602001600020805490506006600084815260200190815260200160002060003373ffffffffffffffffffffffffffffffffffffffff1673ffffffffffffffffffffffffffffffffffffffff1681526020019081526020016000208190555060016009826040516120a99190615699565b908152602001604051809103902060006101000a81548160ff0219169083151502179055505050565b600073ffffffffffffffffffffffffffffffffffffffff168373ffffffffffffffffffffffffffffffffffffffff1603612141576040517f08c379a000000000000000000000000000000000000000000000000000000000815260040161213890615722565b60405180910390fd5b600061214b611bb0565b90506000612158846134ba565b90506000612165846134ba565b905061218583876000858560405180602001604052806000815250613034565b600080600087815260200190815260200160002060008873ffffffffffffffffffffffffffffffffffffffff1673ffffffffffffffffffffffffffffffffffffffff1681526020019081526020016000205490508481101561221c576040517f08c379a0000000000000000000000000000000000000000000000000000000008152600401612213906157b4565b60405180910390fd5b84810360008088815260200190815260200160002060008973ffffffffffffffffffffffffffffffffffffffff1673ffffffffffffffffffffffffffffffffffffffff16815260200190815260200160002081905550600073ffffffffffffffffffffffffffffffffffffffff168773ffffffffffffffffffffffffffffffffffffffff168573ffffffffffffffffffffffffffffffffffffffff167fc3d58168c5ae7397731d063d5bbf3d657854427343f4c083240f7aacaa2d0f6289896040516122e99291906157d4565b60405180910390a461230f848860008686604051806020016040528060008152506132db565b50505050505050565b60006001600860008473ffffffffffffffffffffffffffffffffffffffff1673ffffffffffffffffffffffffffffffffffffffff168152602001908152602001600020546123669190614f54565b905060006006600083815260200190815260200160002060008473ffffffffffffffffffffffffffffffffffffffff1673ffffffffffffffffffffffffffffffffffffffff168152602001908152602001600020549050600060056000848152602001908152602001600020805490509050808214612617576000600560008581526020019081526020016000206001836124019190614f54565b8154811061241257612411614f88565b5b90600052602060002090600202016040518060400160405290816000820160009054906101000a900473ffffffffffffffffffffffffffffffffffffffff1673ffffffffffffffffffffffffffffffffffffffff1673ffffffffffffffffffffffffffffffffffffffff16815260200160018201805461249190614fe6565b80601f01602080910402602001604051908101604052809291908181526020018280546124bd90614fe6565b801561250a5780601f106124df5761010080835404028352916020019161250a565b820191906000526020600020905b8154815290600101906020018083116124ed57829003601f168201915b505050505081525050905080600560008681526020019081526020016000206001856125369190614f54565b8154811061254757612546614f88565b5b906000526020600020906002020160008201518160000160006101000a81548173ffffffffffffffffffffffffffffffffffffffff021916908373ffffffffffffffffffffffffffffffffffffffff16021790555060208201518160010190805190602001906125b8929190613dc7565b5090505082600660008681526020019081526020016000206000836000015173ffffffffffffffffffffffffffffffffffffffff1673ffffffffffffffffffffffffffffffffffffffff16815260200190815260200160002081905550505b6005600084815260200190815260200160002080548061263a576126396157fd565b5b6001900381819060005260206000209060020201600080820160006101000a81549073ffffffffffffffffffffffffffffffffffffffff02191690556001820160006126869190613e4d565b50509055600860008573ffffffffffffffffffffffffffffffffffffffff1673ffffffffffffffffffffffffffffffffffffffff168152602001908152602001600020600090556006600084815260200190815260200160002060008573ffffffffffffffffffffffffffffffffffffffff1673ffffffffffffffffffffffffffffffffffffffff1681526020019081526020016000206000905550505050565b606060056000838152602001908152602001600020805480602002602001604051908101604052809291908181526020016000905b8282101561287657838290600052602060002090600202016040518060400160405290816000820160009054906101000a900473ffffffffffffffffffffffffffffffffffffffff1673ffffffffffffffffffffffffffffffffffffffff1673ffffffffffffffffffffffffffffffffffffffff1681526020016001820180546127e590614fe6565b80601f016020809104026020016040519081016040528092919081815260200182805461281190614fe6565b801561285e5780601f106128335761010080835404028352916020019161285e565b820191906000526020600020905b81548152906001019060200180831161284157829003601f168201915b5050505050815250508152602001906001019061275c565b505050509050919050565b8173ffffffffffffffffffffffffffffffffffffffff168373ffffffffffffffffffffffffffffffffffffffff16036128ef576040517f08c379a00000000000000000000000000000000000000000000000000000000081526004016128e69061589e565b60405180910390fd5b80600160008573ffffffffffffffffffffffffffffffffffffffff1673ffffffffffffffffffffffffffffffffffffffff16815260200190815260200160002060008473ffffffffffffffffffffffffffffffffffffffff1673ffffffffffffffffffffffffffffffffffffffff16815260200190815260200160002060006101000a81548160ff0219169083151502179055508173ffffffffffffffffffffffffffffffffffffffff168373ffffffffffffffffffffffffffffffffffffffff167f17307eab39ab6107e8899845ad3d59bd9653f200f220920489ca2b5937696c31836040516129e0919061405c565b60405180910390a3505050565b60006001600860008473ffffffffffffffffffffffffffffffffffffffff1673ffffffffffffffffffffffffffffffffffffffff16815260200190815260200160002054612a3b9190614f54565b9050919050565b6000601082604051612a549190615699565b908152602001604051809103902060009054906101000a900460ff1615612ab0576040517f08c379a0000000000000000000000000000000000000000000000000000000008152600401612aa79061590a565b60405180910390fd5b6000612abb86613534565b9050612ac7818461357f565b612ad181856135eb565b612b23858260016000368080601f016020809104026020016040519081016040528093929190818152602001838380828437600081840152601f19601f8201169050808301925050505050505061373f565b80915050949350505050565b600073ffffffffffffffffffffffffffffffffffffffff168473ffffffffffffffffffffffffffffffffffffffff1603612b9e576040517f08c379a0000000000000000000000000000000000000000000000000000000008152600401612b959061555a565b60405180910390fd5b6000612ba8611bb0565b90506000612bb5856134ba565b90506000612bc2856134ba565b9050612bd2838989858589613034565b600080600088815260200190815260200160002060008a73ffffffffffffffffffffffffffffffffffffffff1673ffffffffffffffffffffffffffffffffffffffff16815260200190815260200160002054905085811015612c69576040517f08c379a0000000000000000000000000000000000000000000000000000000008152600401612c60906155ec565b60405180910390fd5b85810360008089815260200190815260200160002060008b73ffffffffffffffffffffffffffffffffffffffff1673ffffffffffffffffffffffffffffffffffffffff168152602001908152602001600020819055508560008089815260200190815260200160002060008a73ffffffffffffffffffffffffffffffffffffffff1673ffffffffffffffffffffffffffffffffffffffff1681526020019081526020016000206000828254612d1e919061560c565b925050819055508773ffffffffffffffffffffffffffffffffffffffff168973ffffffffffffffffffffffffffffffffffffffff168573ffffffffffffffffffffffffffffffffffffffff167fc3d58168c5ae7397731d063d5bbf3d657854427343f4c083240f7aacaa2d0f628a8a604051612d9b9291906157d4565b60405180910390a4612db1848a8a86868a6132db565b612dbf848a8a8a8a8a6138ef565b505050505050505050565b612dd2613d97565b336000600860008373ffffffffffffffffffffffffffffffffffffffff1673ffffffffffffffffffffffffffffffffffffffff1681526020019081526020016000205411612e55576040517f08c379a0000000000000000000000000000000000000000000000000000000008152600401612e4c906153ca565b60405180910390fd5b60006001600860003373ffffffffffffffffffffffffffffffffffffffff1673ffffffffffffffffffffffffffffffffffffffff16815260200190815260200160002054612ea39190614f54565b905060006006600083815260200190815260200160002060003373ffffffffffffffffffffffffffffffffffffffff1673ffffffffffffffffffffffffffffffffffffffff16815260200190815260200160002054905060056000838152602001908152602001600020600182612f1a9190614f54565b81548110612f2b57612f2a614f88565b5b90600052602060002090600202016040518060400160405290816000820160009054906101000a900473ffffffffffffffffffffffffffffffffffffffff1673ffffffffffffffffffffffffffffffffffffffff1673ffffffffffffffffffffffffffffffffffffffff168152602001600182018054612faa90614fe6565b80601f0160208091040260200160405190810160405280929190818152602001828054612fd690614fe6565b80156130235780601f10612ff857610100808354040283529160200191613023565b820191906000526020600020905b81548152906001019060200180831161300657829003601f168201915b505050505081525050935050505090565b613042868686868686613ac6565b600073ffffffffffffffffffffffffffffffffffffffff168573ffffffffffffffffffffffffffffffffffffffff1614806130a95750600073ffffffffffffffffffffffffffffffffffffffff168473ffffffffffffffffffffffffffffffffffffffff16145b6130e8576040517f08c379a00000000000000000000000000000000000000000000000000000000081526004016130df90615976565b60405180910390fd5b6000836000815181106130fe576130fd614f88565b5b60200260200101519050600073ffffffffffffffffffffffffffffffffffffffff168673ffffffffffffffffffffffffffffffffffffffff16146131b657601160008773ffffffffffffffffffffffffffffffffffffffff1673ffffffffffffffffffffffffffffffffffffffff168152602001908152602001600020600090556012600082815260200190815260200160002060006101000a81549073ffffffffffffffffffffffffffffffffffffffff02191690555b600073ffffffffffffffffffffffffffffffffffffffff168573ffffffffffffffffffffffffffffffffffffffff16146132855780601160008773ffffffffffffffffffffffffffffffffffffffff1673ffffffffffffffffffffffffffffffffffffffff16815260200190815260200160002081905550846012600083815260200190815260200160002060006101000a81548173ffffffffffffffffffffffffffffffffffffffff021916908373ffffffffffffffffffffffffffffffffffffffff1602179055506132d2565b61328e81613ace565b600c60008773ffffffffffffffffffffffffffffffffffffffff1673ffffffffffffffffffffffffffffffffffffffff168152602001908152602001600020600090555b50505050505050565b505050505050565b6133028473ffffffffffffffffffffffffffffffffffffffff16613d19565b156134b2578373ffffffffffffffffffffffffffffffffffffffff1663bc197c8187878686866040518663ffffffff1660e01b81526004016133489594939291906159fa565b6020604051808303816000875af192505050801561338457506040513d601f19601f820116820180604052508101906133819190615a77565b60015b61342957613390615ab1565b806308c379a0036133ec57506133a4615ad3565b806133af57506133ee565b806040517f08c379a00000000000000000000000000000000000000000000000000000000081526004016133e3919061417d565b60405180910390fd5b505b6040517f08c379a000000000000000000000000000000000000000000000000000000000815260040161342090615bd5565b60405180910390fd5b63bc197c8160e01b7bffffffffffffffffffffffffffffffffffffffffffffffffffffffff1916817bffffffffffffffffffffffffffffffffffffffffffffffffffffffff1916146134b0576040517f08c379a00000000000000000000000000000000000000000000000000000000081526004016134a790615c67565b60405180910390fd5b505b505050505050565b60606000600167ffffffffffffffff8111156134d9576134d86141a4565b5b6040519080825280602002602001820160405280156135075781602001602082028036833780820191505090505b509050828160008151811061351f5761351e614f88565b5b60200260200101818152505080915050919050565b6000613551600d6000848152602001908152602001600020613d3c565b600061356e600d6000858152602001908152602001600020613d52565b905080601084901b17915050919050565b806004600084815260200190815260200160002090805190602001906135a6929190613dc7565b50817f6bb7ff708619ba0610cba295a58592e0451dee2622938c8755667688daf3529b6135d284610936565b6040516135df919061417d565b60405180910390a25050565b60006135f683611b0e565b9050600060405180606001604052808581526020013373ffffffffffffffffffffffffffffffffffffffff168152602001848152509050600e60008381526020019081526020016000208190806001815401808255809150506001900390600052602060002090600302016000909190919091506000820151816000015560208201518160010160006101000a81548173ffffffffffffffffffffffffffffffffffffffff021916908373ffffffffffffffffffffffffffffffffffffffff160217905550604082015181600201555050600e600083815260200190815260200160002080549050600f60008681526020019081526020016000208190555083600c60003373ffffffffffffffffffffffffffffffffffffffff1673ffffffffffffffffffffffffffffffffffffffff1681526020019081526020016000208190555050505050565b600073ffffffffffffffffffffffffffffffffffffffff168473ffffffffffffffffffffffffffffffffffffffff16036137ae576040517f08c379a00000000000000000000000000000000000000000000000000000000081526004016137a590615cf9565b60405180910390fd5b60006137b8611bb0565b905060006137c5856134ba565b905060006137d2856134ba565b90506137e383600089858589613034565b8460008088815260200190815260200160002060008973ffffffffffffffffffffffffffffffffffffffff1673ffffffffffffffffffffffffffffffffffffffff1681526020019081526020016000206000828254613842919061560c565b925050819055508673ffffffffffffffffffffffffffffffffffffffff16600073ffffffffffffffffffffffffffffffffffffffff168473ffffffffffffffffffffffffffffffffffffffff167fc3d58168c5ae7397731d063d5bbf3d657854427343f4c083240f7aacaa2d0f6289896040516138c09291906157d4565b60405180910390a46138d7836000898585896132db565b6138e6836000898989896138ef565b50505050505050565b61390e8473ffffffffffffffffffffffffffffffffffffffff16613d19565b15613abe578373ffffffffffffffffffffffffffffffffffffffff1663f23a6e6187878686866040518663ffffffff1660e01b8152600401613954959493929190615d19565b6020604051808303816000875af192505050801561399057506040513d601f19601f8201168201806040525081019061398d9190615a77565b60015b613a355761399c615ab1565b806308c379a0036139f857506139b0615ad3565b806139bb57506139fa565b806040517f08c379a00000000000000000000000000000000000000000000000000000000081526004016139ef919061417d565b60405180910390fd5b505b6040517f08c379a0000000000000000000000000000000000000000000000000000000008152600401613a2c90615bd5565b60405180910390fd5b63f23a6e6160e01b7bffffffffffffffffffffffffffffffffffffffffffffffffffffffff1916817bffffffffffffffffffffffffffffffffffffffffffffffffffffffff191614613abc576040517f08c379a0000000000000000000000000000000000000000000000000000000008152600401613ab390615c67565b60405180910390fd5b505b505050505050565b505050505050565b6000600f60008381526020019081526020016000205490506000613af183611b0e565b90506000600e6000838152602001908152602001600020805490509050828114613c89576000600e6000848152602001908152602001600020600183613b379190614f54565b81548110613b4857613b47614f88565b5b9060005260206000209060030201604051806060016040529081600082015481526020016001820160009054906101000a900473ffffffffffffffffffffffffffffffffffffffff1673ffffffffffffffffffffffffffffffffffffffff1673ffffffffffffffffffffffffffffffffffffffff168152602001600282015481525050905080600e6000858152602001908152602001600020600186613bee9190614f54565b81548110613bff57613bfe614f88565b5b90600052602060002090600302016000820151816000015560208201518160010160006101000a81548173ffffffffffffffffffffffffffffffffffffffff021916908373ffffffffffffffffffffffffffffffffffffffff1602179055506040820151816002015590505083600f60008360000151815260200190815260200160002081905550505b600e6000838152602001908152602001600020805480613cac57613cab6157fd565b5b60019003818190600052602060002090600302016000808201600090556001820160006101000a81549073ffffffffffffffffffffffffffffffffffffffff0219169055600282016000905550509055600f60008581526020019081526020016000206000905550505050565b6000808273ffffffffffffffffffffffffffffffffffffffff163b119050919050565b6001816000016000828254019250508190555050565b600081600001549050919050565b604051806060016040528060008152602001600073ffffffffffffffffffffffffffffffffffffffff168152602001600081525090565b6040518060400160405280600073ffffffffffffffffffffffffffffffffffffffff168152602001606081525090565b828054613dd390614fe6565b90600052602060002090601f016020900481019282613df55760008555613e3c565b82601f10613e0e57805160ff1916838001178555613e3c565b82800160010185558215613e3c579182015b82811115613e3b578251825591602001919060010190613e20565b5b509050613e499190613e8d565b5090565b508054613e5990614fe6565b6000825580601f10613e6b5750613e8a565b601f016020900490600052602060002090810190613e899190613e8d565b5b50565b5b80821115613ea6576000816000905550600101613e8e565b5090565b6000604051905090565b600080fd5b600080fd5b600073ffffffffffffffffffffffffffffffffffffffff82169050919050565b6000613ee982613ebe565b9050919050565b613ef981613ede565b8114613f0457600080fd5b50565b600081359050613f1681613ef0565b92915050565b6000819050919050565b613f2f81613f1c565b8114613f3a57600080fd5b50565b600081359050613f4c81613f26565b92915050565b60008060408385031215613f6957613f68613eb4565b5b6000613f7785828601613f07565b9250506020613f8885828601613f3d565b9150509250929050565b613f9b81613f1c565b82525050565b6000602082019050613fb66000830184613f92565b92915050565b60007fffffffff0000000000000000000000000000000000000000000000000000000082169050919050565b613ff181613fbc565b8114613ffc57600080fd5b50565b60008135905061400e81613fe8565b92915050565b60006020828403121561402a57614029613eb4565b5b600061403884828501613fff565b91505092915050565b60008115159050919050565b61405681614041565b82525050565b6000602082019050614071600083018461404d565b92915050565b6000806040838503121561408e5761408d613eb4565b5b600061409c85828601613f3d565b92505060206140ad85828601613f3d565b9150509250929050565b6000602082840312156140cd576140cc613eb4565b5b60006140db84828501613f3d565b91505092915050565b600081519050919050565b600082825260208201905092915050565b60005b8381101561411e578082015181840152602081019050614103565b8381111561412d576000848401525b50505050565b6000601f19601f8301169050919050565b600061414f826140e4565b61415981856140ef565b9350614169818560208601614100565b61417281614133565b840191505092915050565b600060208201905081810360008301526141978184614144565b905092915050565b600080fd5b7f4e487b7100000000000000000000000000000000000000000000000000000000600052604160045260246000fd5b6141dc82614133565b810181811067ffffffffffffffff821117156141fb576141fa6141a4565b5b80604052505050565b600061420e613eaa565b905061421a82826141d3565b919050565b600067ffffffffffffffff82111561423a576142396141a4565b5b602082029050602081019050919050565b600080fd5b600061426361425e8461421f565b614204565b905080838252602082019050602084028301858111156142865761428561424b565b5b835b818110156142af578061429b8882613f3d565b845260208401935050602081019050614288565b5050509392505050565b600082601f8301126142ce576142cd61419f565b5b81356142de848260208601614250565b91505092915050565b600080fd5b600067ffffffffffffffff821115614307576143066141a4565b5b61431082614133565b9050602081019050919050565b82818337600083830152505050565b600061433f61433a846142ec565b614204565b90508281526020810184848401111561435b5761435a6142e7565b5b61436684828561431d565b509392505050565b600082601f8301126143835761438261419f565b5b813561439384826020860161432c565b91505092915050565b600080600080600060a086880312156143b8576143b7613eb4565b5b60006143c688828901613f07565b95505060206143d788828901613f07565b945050604086013567ffffffffffffffff8111156143f8576143f7613eb9565b5b614404888289016142b9565b935050606086013567ffffffffffffffff81111561442557614424613eb9565b5b614431888289016142b9565b925050608086013567ffffffffffffffff81111561445257614451613eb9565b5b61445e8882890161436e565b9150509295509295909350565b600081519050919050565b600082825260208201905092915050565b6000819050602082019050919050565b6144a081613f1c565b82525050565b6144af81613ede565b82525050565b6060820160008201516144cb6000850182614497565b5060208201516144de60208501826144a6565b5060408201516144f16040850182614497565b50505050565b600061450383836144b5565b60608301905092915050565b6000602082019050919050565b60006145278261446b565b6145318185614476565b935061453c83614487565b8060005b8381101561456d57815161455488826144f7565b975061455f8361450f565b925050600181019050614540565b5085935050505092915050565b600081519050919050565b600082825260208201905092915050565b6000819050602082019050919050565b600082825260208201905092915050565b60006145c2826140e4565b6145cc81856145a6565b93506145dc818560208601614100565b6145e581614133565b840191505092915050565b60006145fc83836145b7565b905092915050565b6000602082019050919050565b600061461c8261457a565b6146268185614585565b93508360208202850161463885614596565b8060005b85811015614674578484038952815161465585826145f0565b945061466083614604565b925060208a0199505060018101905061463c565b50829750879550505050505092915050565b600060408201905081810360008301526146a0818561451c565b905081810360208301526146b48184614611565b90509392505050565b600067ffffffffffffffff8211156146d8576146d76141a4565b5b6146e182614133565b9050602081019050919050565b60006147016146fc846146bd565b614204565b90508281526020810184848401111561471d5761471c6142e7565b5b61472884828561431d565b509392505050565b600082601f8301126147455761474461419f565b5b81356147558482602086016146ee565b91505092915050565b6000806040838503121561477557614774613eb4565b5b600061478385828601613f3d565b925050602083013567ffffffffffffffff8111156147a4576147a3613eb9565b5b6147b085828601614730565b9150509250929050565b600067ffffffffffffffff8211156147d5576147d46141a4565b5b602082029050602081019050919050565b60006147f96147f4846147ba565b614204565b9050808382526020820190506020840283018581111561481c5761481b61424b565b5b835b8181101561484557806148318882613f07565b84526020840193505060208101905061481e565b5050509392505050565b600082601f8301126148645761486361419f565b5b81356148748482602086016147e6565b91505092915050565b6000806040838503121561489457614893613eb4565b5b600083013567ffffffffffffffff8111156148b2576148b1613eb9565b5b6148be8582860161484f565b925050602083013567ffffffffffffffff8111156148df576148de613eb9565b5b6148eb858286016142b9565b9150509250929050565b600081519050919050565b600082825260208201905092915050565b6000819050602082019050919050565b600061492d8383614497565b60208301905092915050565b6000602082019050919050565b6000614951826148f5565b61495b8185614900565b935061496683614911565b8060005b8381101561499757815161497e8882614921565b975061498983614939565b92505060018101905061496a565b5085935050505092915050565b600060208201905081810360008301526149be8184614946565b905092915050565b6060820160008201516149dc6000850182614497565b5060208201516149ef60208501826144a6565b506040820151614a026040850182614497565b50505050565b600060c082019050614a1d60008301876149c6565b8181036060830152614a2f8186614144565b9050614a3e608083018561404d565b614a4b60a083018461404d565b95945050505050565b600081519050919050565b600082825260208201905092915050565b6000819050602082019050919050565b6000604083016000830151614a9860008601826144a6565b5060208301518482036020860152614ab082826145b7565b9150508091505092915050565b6000614ac98383614a80565b905092915050565b6000602082019050919050565b6000614ae982614a54565b614af38185614a5f565b935083602082028501614b0585614a70565b8060005b85811015614b415784840389528151614b228582614abd565b9450614b2d83614ad1565b925060208a01995050600181019050614b09565b50829750879550505050505092915050565b60006020820190508181036000830152614b6d8184614ade565b905092915050565b614b7e81614041565b8114614b8957600080fd5b50565b600081359050614b9b81614b75565b92915050565b60008060408385031215614bb857614bb7613eb4565b5b6000614bc685828601613f07565b9250506020614bd785828601614b8c565b9150509250929050565b600060208284031215614bf757614bf6613eb4565b5b6000614c0584828501613f07565b91505092915050565b6000604082019050614c23600083018561404d565b614c306020830184613f92565b9392505050565b600080600060608486031215614c5057614c4f613eb4565b5b6000614c5e86828701613f07565b9350506020614c6f86828701613f3d565b925050604084013567ffffffffffffffff811115614c9057614c8f613eb9565b5b614c9c86828701614730565b9150509250925092565b6000608082019050614cbb60008301856149c6565b8181036060830152614ccd8184614144565b90509392505050565b6000606082019050614ceb60008301846149c6565b92915050565b60008060408385031215614d0857614d07613eb4565b5b6000614d1685828601613f07565b9250506020614d2785828601613f07565b9150509250929050565b600080600080600060a08688031215614d4d57614d4c613eb4565b5b6000614d5b88828901613f07565b9550506020614d6c88828901613f07565b9450506040614d7d88828901613f3d565b9350506060614d8e88828901613f3d565b925050608086013567ffffffffffffffff811115614daf57614dae613eb9565b5b614dbb8882890161436e565b9150509295509295909350565b6000604083016000830151614de060008601826144a6565b5060208301518482036020860152614df882826145b7565b9150508091505092915050565b60006020820190508181036000830152614e1f8184614dc8565b905092915050565b7f455243313135353a2061646472657373207a65726f206973206e6f742061207660008201527f616c6964206f776e657200000000000000000000000000000000000000000000602082015250565b6000614e83602a836140ef565b9150614e8e82614e27565b604082019050919050565b60006020820190508181036000830152614eb281614e76565b9050919050565b7f4e6674206973206e6f7420657869737400000000000000000000000000000000600082015250565b6000614eef6010836140ef565b9150614efa82614eb9565b602082019050919050565b60006020820190508181036000830152614f1e81614ee2565b9050919050565b7f4e487b7100000000000000000000000000000000000000000000000000000000600052601160045260246000fd5b6000614f5f82613f1c565b9150614f6a83613f1c565b925082821015614f7d57614f7c614f25565b5b828203905092915050565b7f4e487b7100000000000000000000000000000000000000000000000000000000600052603260045260246000fd5b7f4e487b7100000000000000000000000000000000000000000000000000000000600052602260045260246000fd5b60006002820490506001821680614ffe57607f821691505b60208210810361501157615010614fb7565b5b50919050565b600081905092915050565b60008190508160005260206000209050919050565b6000815461504481614fe6565b61504e8186615017565b94506001821660008114615069576001811461507a576150ad565b60ff198316865281860193506150ad565b61508385615022565b60005b838110156150a557815481890152600182019150602081019050615086565b838801955050505b50505092915050565b60006150c1826140e4565b6150cb8185615017565b93506150db818560208601614100565b80840191505092915050565b60006150f38285615037565b91506150ff82846150b6565b91508190509392505050565b7f486176656e2774206f776e656420616e79206e66747320796574000000000000600082015250565b6000615141601a836140ef565b915061514c8261510b565b602082019050919050565b6000602082019050818103600083015261517081615134565b9050919050565b7f4e6674206861736e2774206265656e206465706f736974656400000000000000600082015250565b60006151ad6019836140ef565b91506151b882615177565b602082019050919050565b600060208201905081810360008301526151dc816151a0565b9050919050565b7f455243313135353a2063616c6c6572206973206e6f7420746f6b656e206f776e60008201527f6572206f7220617070726f766564000000000000000000000000000000000000602082015250565b600061523f602e836140ef565b915061524a826151e3565b604082019050919050565b6000602082019050818103600083015261526e81615232565b9050919050565b600061528082613f1c565b91507fffffffffffffffffffffffffffffffffffffffffffffffffffffffffffffffff82036152b2576152b1614f25565b5b600182019050919050565b7f4e487b7100000000000000000000000000000000000000000000000000000000600052602160045260246000fd5b7f455243313135353a206163636f756e747320616e6420696473206c656e67746860008201527f206d69736d617463680000000000000000000000000000000000000000000000602082015250565b60006153486029836140ef565b9150615353826152ec565b604082019050919050565b600060208201905081810360008301526153778161533b565b9050919050565b7f4e6f742072656769737465726564000000000000000000000000000000000000600082015250565b60006153b4600e836140ef565b91506153bf8261537e565b602082019050919050565b600060208201905081810360008301526153e3816153a7565b9050919050565b7f496e76616c6964206f7065726174696f6e000000000000000000000000000000600082015250565b60006154206011836140ef565b915061542b826153ea565b602082019050919050565b6000602082019050818103600083015261544f81615413565b9050919050565b7f455243313135353a2069647320616e6420616d6f756e7473206c656e6774682060008201527f6d69736d61746368000000000000000000000000000000000000000000000000602082015250565b60006154b26028836140ef565b91506154bd82615456565b604082019050919050565b600060208201905081810360008301526154e1816154a5565b9050919050565b7f455243313135353a207472616e7366657220746f20746865207a65726f20616460008201527f6472657373000000000000000000000000000000000000000000000000000000602082015250565b60006155446025836140ef565b915061554f826154e8565b604082019050919050565b6000602082019050818103600083015261557381615537565b9050919050565b7f455243313135353a20696e73756666696369656e742062616c616e636520666f60008201527f72207472616e7366657200000000000000000000000000000000000000000000602082015250565b60006155d6602a836140ef565b91506155e18261557a565b604082019050919050565b60006020820190508181036000830152615605816155c9565b9050919050565b600061561782613f1c565b915061562283613f1c565b9250827fffffffffffffffffffffffffffffffffffffffffffffffffffffffffffffffff0382111561565757615656614f25565b5b828201905092915050565b6000604082019050818103600083015261567c8185614946565b905081810360208301526156908184614946565b90509392505050565b60006156a582846150b6565b915081905092915050565b7f455243313135353a206275726e2066726f6d20746865207a65726f206164647260008201527f6573730000000000000000000000000000000000000000000000000000000000602082015250565b600061570c6023836140ef565b9150615717826156b0565b604082019050919050565b6000602082019050818103600083015261573b816156ff565b9050919050565b7f455243313135353a206275726e20616d6f756e7420657863656564732062616c60008201527f616e636500000000000000000000000000000000000000000000000000000000602082015250565b600061579e6024836140ef565b91506157a982615742565b604082019050919050565b600060208201905081810360008301526157cd81615791565b9050919050565b60006040820190506157e96000830185613f92565b6157f66020830184613f92565b9392505050565b7f4e487b7100000000000000000000000000000000000000000000000000000000600052603160045260246000fd5b7f455243313135353a2073657474696e6720617070726f76616c2073746174757360008201527f20666f722073656c660000000000000000000000000000000000000000000000602082015250565b60006158886029836140ef565b91506158938261582c565b604082019050919050565b600060208201905081810360008301526158b78161587b565b9050919050565b7f546f6b656e205552492068617320616c72656164792075736564000000000000600082015250565b60006158f4601a836140ef565b91506158ff826158be565b602082019050919050565b60006020820190508181036000830152615923816158e7565b9050919050565b7f4f6e6c79206d696e74206f72206275726e20697320616c6c6f77656400000000600082015250565b6000615960601c836140ef565b915061596b8261592a565b602082019050919050565b6000602082019050818103600083015261598f81615953565b9050919050565b61599f81613ede565b82525050565b600081519050919050565b600082825260208201905092915050565b60006159cc826159a5565b6159d681856159b0565b93506159e6818560208601614100565b6159ef81614133565b840191505092915050565b600060a082019050615a0f6000830188615996565b615a1c6020830187615996565b8181036040830152615a2e8186614946565b90508181036060830152615a428185614946565b90508181036080830152615a5681846159c1565b90509695505050505050565b600081519050615a7181613fe8565b92915050565b600060208284031215615a8d57615a8c613eb4565b5b6000615a9b84828501615a62565b91505092915050565b60008160e01c9050919050565b600060033d1115615ad05760046000803e615acd600051615aa4565b90505b90565b600060443d10615b6057615ae5613eaa565b60043d036004823e80513d602482011167ffffffffffffffff82111715615b0d575050615b60565b808201805167ffffffffffffffff811115615b2b5750505050615b60565b80602083010160043d038501811115615b48575050505050615b60565b615b57826020018501866141d3565b82955050505050505b90565b7f455243313135353a207472616e7366657220746f206e6f6e2d4552433131353560008201527f526563656976657220696d706c656d656e746572000000000000000000000000602082015250565b6000615bbf6034836140ef565b9150615bca82615b63565b604082019050919050565b60006020820190508181036000830152615bee81615bb2565b9050919050565b7f455243313135353a204552433131353552656365697665722072656a6563746560008201527f6420746f6b656e73000000000000000000000000000000000000000000000000602082015250565b6000615c516028836140ef565b9150615c5c82615bf5565b604082019050919050565b60006020820190508181036000830152615c8081615c44565b9050919050565b7f455243313135353a206d696e7420746f20746865207a65726f2061646472657360008201527f7300000000000000000000000000000000000000000000000000000000000000602082015250565b6000615ce36021836140ef565b9150615cee82615c87565b604082019050919050565b60006020820190508181036000830152615d1281615cd6565b9050919050565b600060a082019050615d2e6000830188615996565b615d3b6020830187615996565b615d486040830186613f92565b615d556060830185613f92565b8181036080830152615d6781846159c1565b9050969550505050505056fea2646970667358221220b0f3713f507d963916f6b88208f167cb4d55de48d2f7a3e345cffa9effe4db4e64736f6c634300080d0033",
  "immutableReferences": {},
  "source": "// SPDX-License-Identifier: MIT\r\n// Tells the Solidity compiler to compile only from v0.8.13 to v0.9.0\r\npragma solidity ^0.8.13;\r\n\r\nimport \"@openzeppelin/contracts/token/ERC1155/extensions/ERC1155URIStorage.sol\";\r\nimport \"@openzeppelin/contracts/utils/Counters.sol\";\r\nimport \"@openzeppelin/contracts/access/Ownable.sol\";\r\nimport \"./Registration.sol\";\r\nimport \"./interfaces/INftIdentities.sol\";\r\n\r\ncontract NftIdentities is ERC1155URIStorage, Registration, INftIdentities {\r\n    using Counters for Counters.Counter;\r\n\r\n    struct NftIdentity {\r\n        uint256 tokenId;\r\n        address register;\r\n        uint256 expiredAt;\r\n    }\r\n\r\n    uint256 constant INDEX_BITS = 16;\r\n    uint256 constant MAX_NFT_INDEX = uint256(~uint16(0));\r\n    uint256 constant ONE_NFT = 1;\r\n\r\n    uint256 constant VISITOR_ID = 99;\r\n    uint256 constant REGISTERED_ID = 100;\r\n    uint256 constant HIGHEST_OPERATOR_ID = 101;\r\n    address private _owner;\r\n\r\n    // Registration vars\r\n    uint256 public registerFee = 0.05 ether;\r\n    mapping(address => uint256) _tokenIdOfRegisters;\r\n\r\n    mapping(uint256 => Counters.Counter) _maxTokenIdIndexOfRole; // type => max token id\r\n    mapping(uint256 => NftIdentity[]) private _nftsOfRole; // type => Nft\r\n    mapping(uint256 => uint256) private _nftPosOfTokenId; // tokenId => index\r\n    mapping(string => bool) private _usedTokenURI;\r\n\r\n    mapping(address => uint256) private _nftOfOwner; // address => tokenId[]\r\n\r\n    mapping(uint256 => address) private _ownerOfNft;\r\n\r\n    uint256[] _extendRequestTokenIds;\r\n    mapping(uint256 => uint256) _positionOfRequestTokenId;\r\n\r\n    modifier onlyOwner() {\r\n        require(msg.sender == _owner);\r\n        _;\r\n    }\r\n\r\n    modifier isAfterNow(uint256 timestamp) {\r\n        require(timestamp > block.timestamp);\r\n        _;\r\n    }\r\n\r\n    modifier canGenerateNewTokens(uint256 role, uint256 amount) {\r\n        uint256 currentIndex = _maxTokenIdIndexOfRole[role].current() +\r\n            amount -\r\n            1;\r\n        require(currentIndex | MAX_NFT_INDEX == MAX_NFT_INDEX);\r\n        _;\r\n    }\r\n\r\n    modifier ownZeroNft(address addr) {\r\n        require(_nftOfOwner[addr] == 0);\r\n        _;\r\n    }\r\n\r\n    modifier ownNft(uint256 tokenId) {\r\n        require(_ownerOfNft[tokenId] == msg.sender);\r\n        _;\r\n    }\r\n\r\n    modifier tokenOwnByContract(uint256 tokenId) {\r\n        require(_ownerOfNft[tokenId] == _owner);\r\n        _;\r\n    }\r\n\r\n    constructor() ERC1155(\"\") {\r\n        _owner = msg.sender;\r\n        _hasRole[uint(ROLE.STUDENT)] = true;\r\n        _hasRole[uint(ROLE.TEACHER)] = true;\r\n    }\r\n\r\n    // Used for everyone: Section start\r\n    function getNftInfo(\r\n        uint256 tokenId\r\n    ) public view returns (NftIdentity memory, string memory) {\r\n        string memory tokenURI = uri(tokenId);\r\n        NftIdentity memory nftIdentity = getNftOfTokenId(tokenId);\r\n\r\n        return (nftIdentity, tokenURI);\r\n    }\r\n\r\n    function getNftOfTokenId(\r\n        uint256 tokenId\r\n    ) public view returns (NftIdentity memory) {\r\n        uint256 nftType = _getNftType(tokenId);\r\n        uint256 pos = _nftPosOfTokenId[tokenId];\r\n        require(pos > 0, \"Nft is not exist\");\r\n\r\n        return _nftsOfRole[nftType][pos - 1];\r\n    }\r\n\r\n    function getAllNftIdentityRegistration(\r\n        uint256 role\r\n    ) public view onlyOwner returns (RegistrationInfo[] memory) {\r\n        return _getAllRegistration(role);\r\n    }\r\n\r\n    function getRegisteredInfo() public view returns (RegistrationInfo memory) {\r\n        return _getRegisteredInfo();\r\n    }\r\n\r\n    function getAllExtendExpiredRequest()\r\n        public\r\n        view\r\n        onlyOwner\r\n        returns (NftIdentity[] memory, string[] memory)\r\n    {\r\n        uint256 numberOfRequests = _extendRequestTokenIds.length;\r\n        NftIdentity[] memory nftIdentities = new NftIdentity[](\r\n            numberOfRequests\r\n        );\r\n        string[] memory tokenURIs = new string[](numberOfRequests);\r\n\r\n        for (uint256 index = 0; index < numberOfRequests; ++index) {\r\n            uint256 tokenId = _extendRequestTokenIds[index];\r\n            NftIdentity memory nftIdentity;\r\n            string memory tokenURI;\r\n            (nftIdentity, tokenURI) = getNftInfo(tokenId);\r\n\r\n            nftIdentities[index] = nftIdentity;\r\n            tokenURIs[index] = tokenURI;\r\n        }\r\n\r\n        return (nftIdentities, tokenURIs);\r\n    }\r\n\r\n    // Used for everyone: Section end\r\n\r\n    // Used for teacher: Section start\r\n    /*\r\n        Teacher: if expired => request to extend =>\r\n            - Accept: Reset expired date\r\n            - Reject: Burn token\r\n        Student: if expired => Extend year end? (graduated won't own nft) => request to extend =>\r\n            - Accept: Reset expired date\r\n            - Reject: Burn token\r\n    */\r\n    function requestExtendExpiredNft() public {\r\n        uint256 tokenId = _nftOfOwner[msg.sender];\r\n        require(tokenId > 0);\r\n        NftIdentity memory nftIdentity = getNftOfTokenId(tokenId);\r\n        require(nftIdentity.expiredAt < block.timestamp);\r\n\r\n        safeTransferFrom(msg.sender, _owner, tokenId, ONE_NFT, msg.data);\r\n        _extendRequestTokenIds.push(tokenId);\r\n        _positionOfRequestTokenId[tokenId] = _extendRequestTokenIds.length;\r\n    }\r\n\r\n    // Used for student: Section start\r\n\r\n    // Used for other contracts: Section start\r\n    function isAbleToOperate(\r\n        address registerAddr\r\n    ) public view returns (bool, uint256) {\r\n        uint256 tokenId = _tokenIdOfRegisters[registerAddr];\r\n        if (tokenId == 0) {\r\n            return (false, 0);\r\n        }\r\n        NftIdentity memory nftIdentity = getNftOfTokenId(tokenId);\r\n\r\n        return (nftIdentity.expiredAt > block.timestamp, _getNftType(tokenId));\r\n    }\r\n\r\n    // Used for other contracts: Section end\r\n\r\n    // Used for owner: Section start\r\n    function registerNftIdentity(\r\n        uint256 role,\r\n        string memory documentURI\r\n    ) public payable {\r\n        require(msg.value == registerFee);\r\n        require(role == uint256(ROLE.TEACHER));\r\n        _register(role, documentURI);\r\n    }\r\n\r\n    function grantNftIdentity(\r\n        address targetAccount,\r\n        uint256 expiredAt,\r\n        string memory tokenURI\r\n    ) public hasRegistered(targetAccount) onlyOwner {\r\n        uint256 role = _getRegisteredRole(targetAccount);\r\n        _mintToken(role, targetAccount, expiredAt, tokenURI);\r\n    }\r\n\r\n    function rejectNftIdentityRegistration()\r\n        public\r\n        onlyOwner\r\n        hasRegistered(msg.sender)\r\n    {\r\n        require(_registeredAddr[msg.sender] > 0);\r\n        _removeFromRegistersList(msg.sender);\r\n    }\r\n\r\n    function extendExpiredNft(\r\n        uint256 tokenId,\r\n        uint256 nextExpiredAt\r\n    ) public onlyOwner tokenOwnByContract(tokenId) isAfterNow(nextExpiredAt) {\r\n        // For approve extend expired request\r\n        uint256 nftType = _getNftType(tokenId);\r\n        uint256 pos = _nftPosOfTokenId[tokenId];\r\n        require(pos > 0, \"Nft is not exist\");\r\n\r\n        _nftsOfRole[nftType][pos - 1].expiredAt = nextExpiredAt;\r\n    }\r\n\r\n    function burnNft(\r\n        uint256 tokenId\r\n    ) public onlyOwner tokenOwnByContract(tokenId) {\r\n        // For reject extend expired request\r\n        _burn(_owner, tokenId, ONE_NFT);\r\n    }\r\n\r\n    // Used for owner: Section start\r\n\r\n    // Used for members: Section start\r\n    function getOwnedNft()\r\n        public\r\n        view\r\n        returns (NftIdentity memory, string memory, bool, bool)\r\n    {\r\n        uint256 tokenId = _tokenIdOfRegisters[msg.sender];\r\n        NftIdentity memory nftIdentity = getNftOfTokenId(tokenId);\r\n        string memory tokenURI = uri(tokenId);\r\n        bool isExpired = nftIdentity.expiredAt <= block.timestamp;\r\n        bool isExpiredRequest = _positionOfRequestTokenId[tokenId] > 0;\r\n\r\n        return (nftIdentity, tokenURI, isExpired, isExpiredRequest);\r\n    }\r\n\r\n    function getRole() public view returns (uint256) {\r\n        if (msg.sender == _owner) {\r\n            return uint256(HIGHEST_OPERATOR_ID);\r\n        }\r\n\r\n        if (_registeredAddr[msg.sender] > 0) {\r\n            return uint256(REGISTERED_ID);\r\n        }\r\n\r\n        uint256 tokenId = _tokenIdOfRegisters[msg.sender];\r\n        if (tokenId == 0) {\r\n            return uint256(VISITOR_ID);\r\n        }\r\n\r\n        uint256 role = _getNftType(tokenId);\r\n\r\n        return role;\r\n    }\r\n\r\n    function depositNftIdentity() public {\r\n        uint256 tokenId = _nftOfOwner[msg.sender];\r\n        require(tokenId > 0, \"Invalid operation\");\r\n        NftIdentity memory nftIdentity = getNftOfTokenId(tokenId);\r\n\r\n        if (nftIdentity.expiredAt > block.timestamp) {\r\n            safeTransferFrom(msg.sender, _owner, tokenId, ONE_NFT, msg.data);\r\n        } else {\r\n            // If NFT haven't extend but try to operate\r\n            _burn(msg.sender, tokenId, ONE_NFT);\r\n        }\r\n    }\r\n\r\n    function withdrawNftIdentity() public {\r\n        uint256 tokenId = _tokenIdOfRegisters[msg.sender];\r\n        require(tokenId > 0, \"Haven't owned any nfts yet\");\r\n        require(_ownerOfNft[tokenId] == _owner, \"Nft hasn't been deposited\");\r\n\r\n        safeTransferFrom(_owner, msg.sender, tokenId, ONE_NFT, msg.data);\r\n    }\r\n\r\n    // Used for members: Section end\r\n\r\n    function _beforeTokenTransfer(\r\n        address operator,\r\n        address from,\r\n        address to,\r\n        uint256[] memory ids,\r\n        uint256[] memory amounts,\r\n        bytes memory data\r\n    ) internal virtual override {\r\n        super._beforeTokenTransfer(operator, from, to, ids, amounts, data);\r\n        require(\r\n            from == address(0) || to == address(0),\r\n            \"Only mint or burn is allowed\"\r\n        );\r\n\r\n        uint256 tokenId = ids[0];\r\n\r\n        if (from != address(0)) {\r\n            delete _nftOfOwner[from];\r\n            delete _ownerOfNft[tokenId];\r\n        }\r\n\r\n        if (to != address(0)) {\r\n            _nftOfOwner[to] = tokenId;\r\n            _ownerOfNft[tokenId] = to;\r\n        } else {\r\n            // burn\r\n            _removeTokenIdFromAllTokens(tokenId);\r\n            delete _tokenIdOfRegisters[from];\r\n        }\r\n    }\r\n\r\n    function _removeTokenIdFromAllTokens(uint256 tokenId) private {\r\n        uint256 nftPos = _nftPosOfTokenId[tokenId];\r\n        uint256 nftType = _getNftType(tokenId);\r\n        uint256 nftCount = _nftsOfRole[nftType].length;\r\n\r\n        if (nftCount != nftPos) {\r\n            NftIdentity memory lastNft = _nftsOfRole[nftType][nftCount - 1];\r\n            _nftsOfRole[nftType][nftPos - 1] = lastNft;\r\n            _nftPosOfTokenId[lastNft.tokenId] = nftPos;\r\n        }\r\n        _nftsOfRole[nftType].pop();\r\n        delete _nftPosOfTokenId[tokenId];\r\n    }\r\n\r\n    function _mintTokens(\r\n        uint256 role,\r\n        address[] memory to,\r\n        uint256[] memory expiredAt,\r\n        string[] memory tokenURI\r\n    ) private allowedRole(role) canGenerateNewTokens(role, to.length) {\r\n        require(to.length == expiredAt.length, \"Invalid params\");\r\n        require(to.length == tokenURI.length, \"Invalid params\");\r\n        uint256 targetCount = to.length;\r\n\r\n        for (uint256 index = 0; index < targetCount; ++index) {\r\n            if (_nftOfOwner[to[index]] > 0) {\r\n                revert(\"Nft Identity must be unique\");\r\n            }\r\n            _mintToken(role, to[index], expiredAt[index], tokenURI[index]);\r\n        }\r\n    }\r\n\r\n    function _mintToken(\r\n        uint256 role,\r\n        address to,\r\n        uint256 expiredAt,\r\n        string memory tokenURI\r\n    ) private returns (uint256) {\r\n        require(!_usedTokenURI[tokenURI], \"Token URI has already used\");\r\n        uint256 tokenId = _generateNewTokenId(role);\r\n        _setURI(tokenId, tokenURI);\r\n\r\n        _createNftIdentity(tokenId, expiredAt);\r\n        _mint(to, tokenId, ONE_NFT, msg.data);\r\n\r\n        return tokenId;\r\n    }\r\n\r\n    function _createNftIdentity(uint256 tokenId, uint256 expiredAt) private {\r\n        uint256 nftType = _getNftType(tokenId);\r\n        NftIdentity memory nftIdentity = NftIdentity(\r\n            tokenId,\r\n            msg.sender,\r\n            expiredAt\r\n        );\r\n\r\n        _nftsOfRole[nftType].push(nftIdentity);\r\n        _nftPosOfTokenId[tokenId] = _nftsOfRole[nftType].length;\r\n        _tokenIdOfRegisters[msg.sender] = tokenId;\r\n    }\r\n\r\n    function _getNftType(uint256 tokenId) private pure returns (uint256) {\r\n        return tokenId >> INDEX_BITS;\r\n    }\r\n\r\n    function _generateNewTokenId(uint256 role) private returns (uint256) {\r\n        _maxTokenIdIndexOfRole[role].increment();\r\n        uint256 tokenId = _maxTokenIdIndexOfRole[role].current();\r\n\r\n        return (role << INDEX_BITS) | tokenId;\r\n    }\r\n}\r\n",
  "sourcePath": "E:\\learn\\learn-to-earn\\contracts\\NftIdentities.sol",
  "compiler": {
    "name": "solc",
    "version": "0.8.13+commit.abaa5c0e.Emscripten.clang"
  },
  "schemaVersion": "3.4.13",
  "updatedAt": "2023-03-22T23:17:07.058Z",
  "networkType": "ethereum",
  "devdoc": {
    "kind": "dev",
    "methods": {
      "balanceOf(address,uint256)": {
        "details": "See {IERC1155-balanceOf}. Requirements: - `account` cannot be the zero address."
      },
      "balanceOfBatch(address[],uint256[])": {
        "details": "See {IERC1155-balanceOfBatch}. Requirements: - `accounts` and `ids` must have the same length."
      },
      "isApprovedForAll(address,address)": {
        "details": "See {IERC1155-isApprovedForAll}."
      },
      "safeBatchTransferFrom(address,address,uint256[],uint256[],bytes)": {
        "details": "See {IERC1155-safeBatchTransferFrom}."
      },
      "safeTransferFrom(address,address,uint256,uint256,bytes)": {
        "details": "See {IERC1155-safeTransferFrom}."
      },
      "setApprovalForAll(address,bool)": {
        "details": "See {IERC1155-setApprovalForAll}."
      },
      "supportsInterface(bytes4)": {
        "details": "See {IERC165-supportsInterface}."
      },
      "uri(uint256)": {
        "details": "See {IERC1155MetadataURI-uri}. This implementation returns the concatenation of the `_baseURI` and the token-specific uri if the latter is set This enables the following behaviors: - if `_tokenURIs[tokenId]` is set, then the result is the concatenation   of `_baseURI` and `_tokenURIs[tokenId]` (keep in mind that `_baseURI`   is empty per default); - if `_tokenURIs[tokenId]` is NOT set then we fallback to `super.uri()`   which in most cases will contain `ERC1155._uri`; - if `_tokenURIs[tokenId]` is NOT set, and if the parents do not have a   uri value set, then the result is empty."
      }
    },
    "version": 1
  },
  "userdoc": {
    "kind": "user",
    "methods": {},
    "version": 1
  }
}