{
  "contractName": "NftMarket",
  "abi": [
    {
      "inputs": [],
      "stateMutability": "nonpayable",
      "type": "constructor"
    },
    {
      "anonymous": false,
      "inputs": [
        {
          "indexed": true,
          "internalType": "address",
          "name": "owner",
          "type": "address"
        },
        {
          "indexed": true,
          "internalType": "address",
          "name": "approved",
          "type": "address"
        },
        {
          "indexed": true,
          "internalType": "uint256",
          "name": "tokenId",
          "type": "uint256"
        }
      ],
      "name": "Approval",
      "type": "event"
    },
    {
      "anonymous": false,
      "inputs": [
        {
          "indexed": true,
          "internalType": "address",
          "name": "owner",
          "type": "address"
        },
        {
          "indexed": true,
          "internalType": "address",
          "name": "operator",
          "type": "address"
        },
        {
          "indexed": false,
          "internalType": "bool",
          "name": "approved",
          "type": "bool"
        }
      ],
      "name": "ApprovalForAll",
      "type": "event"
    },
    {
      "anonymous": false,
      "inputs": [
        {
          "indexed": false,
          "internalType": "uint256",
          "name": "tokenId",
          "type": "uint256"
        },
        {
          "indexed": false,
          "internalType": "uint256",
          "name": "price",
          "type": "uint256"
        },
        {
          "indexed": false,
          "internalType": "address",
          "name": "creator",
          "type": "address"
        },
        {
          "indexed": false,
          "internalType": "bool",
          "name": "isListed",
          "type": "bool"
        }
      ],
      "name": "NftItemCreated",
      "type": "event"
    },
    {
      "anonymous": false,
      "inputs": [
        {
          "indexed": true,
          "internalType": "address",
          "name": "previousOwner",
          "type": "address"
        },
        {
          "indexed": true,
          "internalType": "address",
          "name": "newOwner",
          "type": "address"
        }
      ],
      "name": "OwnershipTransferred",
      "type": "event"
    },
    {
      "anonymous": false,
      "inputs": [
        {
          "indexed": true,
          "internalType": "address",
          "name": "from",
          "type": "address"
        },
        {
          "indexed": true,
          "internalType": "address",
          "name": "to",
          "type": "address"
        },
        {
          "indexed": true,
          "internalType": "uint256",
          "name": "tokenId",
          "type": "uint256"
        }
      ],
      "name": "Transfer",
      "type": "event"
    },
    {
      "inputs": [
        {
          "internalType": "address",
          "name": "to",
          "type": "address"
        },
        {
          "internalType": "uint256",
          "name": "tokenId",
          "type": "uint256"
        }
      ],
      "name": "approve",
      "outputs": [],
      "stateMutability": "nonpayable",
      "type": "function"
    },
    {
      "inputs": [
        {
          "internalType": "address",
          "name": "owner",
          "type": "address"
        }
      ],
      "name": "balanceOf",
      "outputs": [
        {
          "internalType": "uint256",
          "name": "",
          "type": "uint256"
        }
      ],
      "stateMutability": "view",
      "type": "function",
      "constant": true
    },
    {
      "inputs": [
        {
          "internalType": "uint256",
          "name": "tokenId",
          "type": "uint256"
        }
      ],
      "name": "getApproved",
      "outputs": [
        {
          "internalType": "address",
          "name": "",
          "type": "address"
        }
      ],
      "stateMutability": "view",
      "type": "function",
      "constant": true
    },
    {
      "inputs": [
        {
          "internalType": "address",
          "name": "owner",
          "type": "address"
        },
        {
          "internalType": "address",
          "name": "operator",
          "type": "address"
        }
      ],
      "name": "isApprovedForAll",
      "outputs": [
        {
          "internalType": "bool",
          "name": "",
          "type": "bool"
        }
      ],
      "stateMutability": "view",
      "type": "function",
      "constant": true
    },
    {
      "inputs": [],
      "name": "listingPrice",
      "outputs": [
        {
          "internalType": "uint256",
          "name": "",
          "type": "uint256"
        }
      ],
      "stateMutability": "view",
      "type": "function",
      "constant": true
    },
    {
      "inputs": [],
      "name": "name",
      "outputs": [
        {
          "internalType": "string",
          "name": "",
          "type": "string"
        }
      ],
      "stateMutability": "view",
      "type": "function",
      "constant": true
    },
    {
      "inputs": [],
      "name": "owner",
      "outputs": [
        {
          "internalType": "address",
          "name": "",
          "type": "address"
        }
      ],
      "stateMutability": "view",
      "type": "function",
      "constant": true
    },
    {
      "inputs": [
        {
          "internalType": "uint256",
          "name": "tokenId",
          "type": "uint256"
        }
      ],
      "name": "ownerOf",
      "outputs": [
        {
          "internalType": "address",
          "name": "",
          "type": "address"
        }
      ],
      "stateMutability": "view",
      "type": "function",
      "constant": true
    },
    {
      "inputs": [],
      "name": "renounceOwnership",
      "outputs": [],
      "stateMutability": "nonpayable",
      "type": "function"
    },
    {
      "inputs": [
        {
          "internalType": "address",
          "name": "from",
          "type": "address"
        },
        {
          "internalType": "address",
          "name": "to",
          "type": "address"
        },
        {
          "internalType": "uint256",
          "name": "tokenId",
          "type": "uint256"
        }
      ],
      "name": "safeTransferFrom",
      "outputs": [],
      "stateMutability": "nonpayable",
      "type": "function"
    },
    {
      "inputs": [
        {
          "internalType": "address",
          "name": "from",
          "type": "address"
        },
        {
          "internalType": "address",
          "name": "to",
          "type": "address"
        },
        {
          "internalType": "uint256",
          "name": "tokenId",
          "type": "uint256"
        },
        {
          "internalType": "bytes",
          "name": "data",
          "type": "bytes"
        }
      ],
      "name": "safeTransferFrom",
      "outputs": [],
      "stateMutability": "nonpayable",
      "type": "function"
    },
    {
      "inputs": [
        {
          "internalType": "address",
          "name": "operator",
          "type": "address"
        },
        {
          "internalType": "bool",
          "name": "approved",
          "type": "bool"
        }
      ],
      "name": "setApprovalForAll",
      "outputs": [],
      "stateMutability": "nonpayable",
      "type": "function"
    },
    {
      "inputs": [
        {
          "internalType": "bytes4",
          "name": "interfaceId",
          "type": "bytes4"
        }
      ],
      "name": "supportsInterface",
      "outputs": [
        {
          "internalType": "bool",
          "name": "",
          "type": "bool"
        }
      ],
      "stateMutability": "view",
      "type": "function",
      "constant": true
    },
    {
      "inputs": [],
      "name": "symbol",
      "outputs": [
        {
          "internalType": "string",
          "name": "",
          "type": "string"
        }
      ],
      "stateMutability": "view",
      "type": "function",
      "constant": true
    },
    {
      "inputs": [
        {
          "internalType": "uint256",
          "name": "tokenId",
          "type": "uint256"
        }
      ],
      "name": "tokenURI",
      "outputs": [
        {
          "internalType": "string",
          "name": "",
          "type": "string"
        }
      ],
      "stateMutability": "view",
      "type": "function",
      "constant": true
    },
    {
      "inputs": [
        {
          "internalType": "address",
          "name": "from",
          "type": "address"
        },
        {
          "internalType": "address",
          "name": "to",
          "type": "address"
        },
        {
          "internalType": "uint256",
          "name": "tokenId",
          "type": "uint256"
        }
      ],
      "name": "transferFrom",
      "outputs": [],
      "stateMutability": "nonpayable",
      "type": "function"
    },
    {
      "inputs": [
        {
          "internalType": "address",
          "name": "newOwner",
          "type": "address"
        }
      ],
      "name": "transferOwnership",
      "outputs": [],
      "stateMutability": "nonpayable",
      "type": "function"
    },
    {
      "inputs": [
        {
          "internalType": "uint256",
          "name": "price",
          "type": "uint256"
        }
      ],
      "name": "setListingPrice",
      "outputs": [],
      "stateMutability": "nonpayable",
      "type": "function"
    },
    {
      "inputs": [
        {
          "internalType": "uint256",
          "name": "tokenId",
          "type": "uint256"
        }
      ],
      "name": "getNftItem",
      "outputs": [
        {
          "components": [
            {
              "internalType": "uint256",
              "name": "tokenId",
              "type": "uint256"
            },
            {
              "internalType": "uint256",
              "name": "price",
              "type": "uint256"
            },
            {
              "internalType": "address",
              "name": "creator",
              "type": "address"
            },
            {
              "internalType": "bool",
              "name": "isListed",
              "type": "bool"
            }
          ],
          "internalType": "struct NftMarket.NftItem",
          "name": "",
          "type": "tuple"
        }
      ],
      "stateMutability": "view",
      "type": "function",
      "constant": true
    },
    {
      "inputs": [],
      "name": "listedItemsCount",
      "outputs": [
        {
          "internalType": "uint256",
          "name": "",
          "type": "uint256"
        }
      ],
      "stateMutability": "view",
      "type": "function",
      "constant": true
    },
    {
      "inputs": [
        {
          "internalType": "string",
          "name": "tokenURI",
          "type": "string"
        }
      ],
      "name": "tokenURIExists",
      "outputs": [
        {
          "internalType": "bool",
          "name": "",
          "type": "bool"
        }
      ],
      "stateMutability": "view",
      "type": "function",
      "constant": true
    },
    {
      "inputs": [],
      "name": "totalSupply",
      "outputs": [
        {
          "internalType": "uint256",
          "name": "",
          "type": "uint256"
        }
      ],
      "stateMutability": "view",
      "type": "function",
      "constant": true
    },
    {
      "inputs": [
        {
          "internalType": "uint256",
          "name": "index",
          "type": "uint256"
        }
      ],
      "name": "tokenByIndex",
      "outputs": [
        {
          "internalType": "uint256",
          "name": "",
          "type": "uint256"
        }
      ],
      "stateMutability": "view",
      "type": "function",
      "constant": true
    },
    {
      "inputs": [
        {
          "internalType": "address",
          "name": "owner",
          "type": "address"
        },
        {
          "internalType": "uint256",
          "name": "index",
          "type": "uint256"
        }
      ],
      "name": "tokenOfOwnerByIndex",
      "outputs": [
        {
          "internalType": "uint256",
          "name": "",
          "type": "uint256"
        }
      ],
      "stateMutability": "view",
      "type": "function",
      "constant": true
    },
    {
      "inputs": [],
      "name": "getAllNftsOnSale",
      "outputs": [
        {
          "components": [
            {
              "internalType": "uint256",
              "name": "tokenId",
              "type": "uint256"
            },
            {
              "internalType": "uint256",
              "name": "price",
              "type": "uint256"
            },
            {
              "internalType": "address",
              "name": "creator",
              "type": "address"
            },
            {
              "internalType": "bool",
              "name": "isListed",
              "type": "bool"
            }
          ],
          "internalType": "struct NftMarket.NftItem[]",
          "name": "",
          "type": "tuple[]"
        }
      ],
      "stateMutability": "view",
      "type": "function",
      "constant": true
    },
    {
      "inputs": [],
      "name": "getOwnedNfts",
      "outputs": [
        {
          "components": [
            {
              "internalType": "uint256",
              "name": "tokenId",
              "type": "uint256"
            },
            {
              "internalType": "uint256",
              "name": "price",
              "type": "uint256"
            },
            {
              "internalType": "address",
              "name": "creator",
              "type": "address"
            },
            {
              "internalType": "bool",
              "name": "isListed",
              "type": "bool"
            }
          ],
          "internalType": "struct NftMarket.NftItem[]",
          "name": "",
          "type": "tuple[]"
        }
      ],
      "stateMutability": "view",
      "type": "function",
      "constant": true
    },
    {
      "inputs": [
        {
          "internalType": "string",
          "name": "tokenURI",
          "type": "string"
        },
        {
          "internalType": "uint256",
          "name": "price",
          "type": "uint256"
        }
      ],
      "name": "mintToken",
      "outputs": [
        {
          "internalType": "uint256",
          "name": "",
          "type": "uint256"
        }
      ],
      "stateMutability": "payable",
      "type": "function",
      "payable": true
    },
    {
      "inputs": [
        {
          "internalType": "uint256",
          "name": "tokenId",
          "type": "uint256"
        }
      ],
      "name": "buyNft",
      "outputs": [],
      "stateMutability": "payable",
      "type": "function",
      "payable": true
    },
    {
      "inputs": [
        {
          "internalType": "uint256",
          "name": "tokenId",
          "type": "uint256"
        },
        {
          "internalType": "uint256",
          "name": "price",
          "type": "uint256"
        }
      ],
      "name": "placeNftOnSale",
      "outputs": [],
      "stateMutability": "payable",
      "type": "function",
      "payable": true
    }
  ],
  "bytecode": "0x60806040526658d15e176280006008553480156200001c57600080fd5b506040518060400160405280600c81526020017f4372656174757265734e465400000000000000000000000000000000000000008152506040518060400160405280600481526020017f434e46540000000000000000000000000000000000000000000000000000000081525081600090816200009a91906200041d565b508060019081620000ac91906200041d565b505050620000cf620000c3620000d560201b60201c565b620000dd60201b60201c565b62000504565b600033905090565b6000600760009054906101000a900473ffffffffffffffffffffffffffffffffffffffff16905081600760006101000a81548173ffffffffffffffffffffffffffffffffffffffff021916908373ffffffffffffffffffffffffffffffffffffffff1602179055508173ffffffffffffffffffffffffffffffffffffffff168173ffffffffffffffffffffffffffffffffffffffff167f8be0079c531659141344cd1fd0a4f28419497f9722a3daafe3b4186f6b6457e060405160405180910390a35050565b600081519050919050565b7f4e487b7100000000000000000000000000000000000000000000000000000000600052604160045260246000fd5b7f4e487b7100000000000000000000000000000000000000000000000000000000600052602260045260246000fd5b600060028204905060018216806200022557607f821691505b6020821081036200023b576200023a620001dd565b5b50919050565b60008190508160005260206000209050919050565b60006020601f8301049050919050565b600082821b905092915050565b600060088302620002a57fffffffffffffffffffffffffffffffffffffffffffffffffffffffffffffffff8262000266565b620002b1868362000266565b95508019841693508086168417925050509392505050565b6000819050919050565b6000819050919050565b6000620002fe620002f8620002f284620002c9565b620002d3565b620002c9565b9050919050565b6000819050919050565b6200031a83620002dd565b62000332620003298262000305565b84845462000273565b825550505050565b600090565b620003496200033a565b620003568184846200030f565b505050565b5b818110156200037e57620003726000826200033f565b6001810190506200035c565b5050565b601f821115620003cd57620003978162000241565b620003a28462000256565b81016020851015620003b2578190505b620003ca620003c18562000256565b8301826200035b565b50505b505050565b600082821c905092915050565b6000620003f260001984600802620003d2565b1980831691505092915050565b60006200040d8383620003df565b9150826002028217905092915050565b6200042882620001a3565b67ffffffffffffffff811115620004445762000443620001ae565b5b6200045082546200020c565b6200045d82828562000382565b600060209050601f83116001811462000495576000841562000480578287015190505b6200048c8582620003ff565b865550620004fc565b601f198416620004a58662000241565b60005b82811015620004cf57848901518255600182019150602085019450602081019050620004a8565b86831015620004ef5784890151620004eb601f891682620003df565b8355505b6001600288020188555050505b505050505050565b614a9080620005146000396000f3fe6080604052600436106101c25760003560e01c80636f1a0af5116100f7578063a22cb46511610095578063c87b56dd11610064578063c87b56dd14610651578063ccb4918d1461068e578063e985e9c5146106b9578063f2fde38b146106f6576101c2565b8063a22cb465146105a4578063b88d4fde146105cd578063c046372c146105f6578063c78f19f914610626576101c2565b8063715018a6116100d1578063715018a61461050e5780637c726b69146105255780638da5cb5b1461054e57806395d89b4114610579576101c2565b80636f1a0af51461046957806370a08231146104a657806370cbcb43146104e3576101c2565b8063243adbdd1161016457806342842e0e1161013e57806342842e0e1461038957806343d32ae7146103b25780634f6ccce7146103ef5780636352211e1461042c576101c2565b8063243adbdd146103055780632f745c591461032157806336b536be1461035e576101c2565b8063095ea7b3116101a0578063095ea7b31461026c57806318160ddd1461029557806321f422e5146102c057806323b872dd146102dc576101c2565b806301ffc9a7146101c757806306fdde0314610204578063081812fc1461022f575b600080fd5b3480156101d357600080fd5b506101ee60048036038101906101e99190613018565b61071f565b6040516101fb9190613060565b60405180910390f35b34801561021057600080fd5b50610219610801565b604051610226919061310b565b60405180910390f35b34801561023b57600080fd5b5061025660048036038101906102519190613163565b610893565b60405161026391906131d1565b60405180910390f35b34801561027857600080fd5b50610293600480360381019061028e9190613218565b6108d9565b005b3480156102a157600080fd5b506102aa6109f0565b6040516102b79190613267565b60405180910390f35b6102da60048036038101906102d59190613282565b6109fd565b005b3480156102e857600080fd5b5061030360048036038101906102fe91906132c2565b610b73565b005b61031f600480360381019061031a9190613163565b610bd3565b005b34801561032d57600080fd5b5061034860048036038101906103439190613218565b610d3b565b6040516103559190613267565b60405180910390f35b34801561036a57600080fd5b50610373610de0565b6040516103809190613446565b60405180910390f35b34801561039557600080fd5b506103b060048036038101906103ab91906132c2565b610f6f565b005b3480156103be57600080fd5b506103d960048036038101906103d4919061359d565b610f8f565b6040516103e69190613060565b60405180910390f35b3480156103fb57600080fd5b5061041660048036038101906104119190613163565b610fc4565b6040516104239190613267565b60405180910390f35b34801561043857600080fd5b50610453600480360381019061044e9190613163565b611035565b60405161046091906131d1565b60405180910390f35b34801561047557600080fd5b50610490600480360381019061048b9190613163565b6110bb565b60405161049d919061363b565b60405180910390f35b3480156104b257600080fd5b506104cd60048036038101906104c89190613656565b61116d565b6040516104da9190613267565b60405180910390f35b3480156104ef57600080fd5b506104f8611224565b6040516105059190613446565b60405180910390f35b34801561051a57600080fd5b50610523611386565b005b34801561053157600080fd5b5061054c60048036038101906105479190613163565b61139a565b005b34801561055a57600080fd5b506105636113ef565b60405161057091906131d1565b60405180910390f35b34801561058557600080fd5b5061058e611419565b60405161059b919061310b565b60405180910390f35b3480156105b057600080fd5b506105cb60048036038101906105c691906136af565b6114ab565b005b3480156105d957600080fd5b506105f460048036038101906105ef9190613790565b6114c1565b005b610610600480360381019061060b9190613813565b611523565b60405161061d9190613267565b60405180910390f35b34801561063257600080fd5b5061063b611633565b6040516106489190613267565b60405180910390f35b34801561065d57600080fd5b5061067860048036038101906106739190613163565b611639565b604051610685919061310b565b60405180910390f35b34801561069a57600080fd5b506106a361174b565b6040516106b09190613267565b60405180910390f35b3480156106c557600080fd5b506106e060048036038101906106db919061386f565b61175c565b6040516106ed9190613060565b60405180910390f35b34801561070257600080fd5b5061071d60048036038101906107189190613656565b6117f0565b005b60007f80ac58cd000000000000000000000000000000000000000000000000000000007bffffffffffffffffffffffffffffffffffffffffffffffffffffffff1916827bffffffffffffffffffffffffffffffffffffffffffffffffffffffff191614806107ea57507f5b5e139f000000000000000000000000000000000000000000000000000000007bffffffffffffffffffffffffffffffffffffffffffffffffffffffff1916827bffffffffffffffffffffffffffffffffffffffffffffffffffffffff1916145b806107fa57506107f982611873565b5b9050919050565b606060008054610810906138de565b80601f016020809104026020016040519081016040528092919081815260200182805461083c906138de565b80156108895780601f1061085e57610100808354040283529160200191610889565b820191906000526020600020905b81548152906001019060200180831161086c57829003601f168201915b5050505050905090565b600061089e826118dd565b6004600083815260200190815260200160002060009054906101000a900473ffffffffffffffffffffffffffffffffffffffff169050919050565b60006108e482611035565b90508073ffffffffffffffffffffffffffffffffffffffff168373ffffffffffffffffffffffffffffffffffffffff1603610954576040517f08c379a000000000000000000000000000000000000000000000000000000000815260040161094b90613981565b60405180910390fd5b8073ffffffffffffffffffffffffffffffffffffffff16610973611928565b73ffffffffffffffffffffffffffffffffffffffff1614806109a257506109a18161099c611928565b61175c565b5b6109e1576040517f08c379a00000000000000000000000000000000000000000000000000000000081526004016109d890613a13565b60405180910390fd5b6109eb8383611930565b505050565b6000600b80549050905090565b3373ffffffffffffffffffffffffffffffffffffffff16610a1d83611035565b73ffffffffffffffffffffffffffffffffffffffff1614610a73576040517f08c379a0000000000000000000000000000000000000000000000000000000008152600401610a6a90613a7f565b60405180910390fd5b600e600083815260200190815260200160002060020160149054906101000a900460ff1615610ad7576040517f08c379a0000000000000000000000000000000000000000000000000000000008152600401610ace90613aeb565b60405180910390fd5b6008543414610b1b576040517f08c379a0000000000000000000000000000000000000000000000000000000008152600401610b1290613b7d565b60405180910390fd5b6001600e600084815260200190815260200160002060020160146101000a81548160ff02191690831515021790555080600e600084815260200190815260200160002060010181905550610b6f60096119e9565b5050565b610b84610b7e611928565b826119ff565b610bc3576040517f08c379a0000000000000000000000000000000000000000000000000000000008152600401610bba90613c0f565b60405180910390fd5b610bce838383611a94565b505050565b6000600e60008381526020019081526020016000206001015490506000610bf983611035565b90508073ffffffffffffffffffffffffffffffffffffffff163373ffffffffffffffffffffffffffffffffffffffff1603610c69576040517f08c379a0000000000000000000000000000000000000000000000000000000008152600401610c6090613c7b565b60405180910390fd5b813414610cab576040517f08c379a0000000000000000000000000000000000000000000000000000000008152600401610ca290613ce7565b60405180910390fd5b6000600e600085815260200190815260200160002060020160146101000a81548160ff021916908315150217905550610ce46009611d8d565b610cef813385611a94565b8073ffffffffffffffffffffffffffffffffffffffff166108fc349081150290604051600060405180830381858888f19350505050158015610d35573d6000803e3d6000fd5b50505050565b6000610d468361116d565b8210610d87576040517f08c379a0000000000000000000000000000000000000000000000000000000008152600401610d7e90613d53565b60405180910390fd5b600f60008473ffffffffffffffffffffffffffffffffffffffff1673ffffffffffffffffffffffffffffffffffffffff168152602001908152602001600020600083815260200190815260200160002054905092915050565b60606000610dec6109f0565b9050600080610dfb6009611de9565b67ffffffffffffffff811115610e1457610e13613472565b5b604051908082528060200260200182016040528015610e4d57816020015b610e3a612f6c565b815260200190600190039081610e325790505b50905060005b83811015610f65576000610e6682610fc4565b90506000600e600083815260200190815260200160002090508060020160149054906101000a900460ff1615610f52578060405180608001604052908160008201548152602001600182015481526020016002820160009054906101000a900473ffffffffffffffffffffffffffffffffffffffff1673ffffffffffffffffffffffffffffffffffffffff1673ffffffffffffffffffffffffffffffffffffffff1681526020016002820160149054906101000a900460ff161515151581525050848681518110610f3a57610f39613d73565b5b602002602001018190525084610f4f90613dd1565b94505b505080610f5e90613dd1565b9050610e53565b5080935050505090565b610f8a838383604051806020016040528060008152506114c1565b505050565b6000600d82604051610fa19190613e55565b908152602001604051809103902060009054906101000a900460ff169050919050565b6000610fce6109f0565b821061100f576040517f08c379a000000000000000000000000000000000000000000000000000000000815260040161100690613d53565b60405180910390fd5b600b828154811061102357611022613d73565b5b90600052602060002001549050919050565b60008061104183611df7565b9050600073ffffffffffffffffffffffffffffffffffffffff168173ffffffffffffffffffffffffffffffffffffffff16036110b2576040517f08c379a00000000000000000000000000000000000000000000000000000000081526004016110a990613eb8565b60405180910390fd5b80915050919050565b6110c3612f6c565b600e600083815260200190815260200160002060405180608001604052908160008201548152602001600182015481526020016002820160009054906101000a900473ffffffffffffffffffffffffffffffffffffffff1673ffffffffffffffffffffffffffffffffffffffff1673ffffffffffffffffffffffffffffffffffffffff1681526020016002820160149054906101000a900460ff1615151515815250509050919050565b60008073ffffffffffffffffffffffffffffffffffffffff168273ffffffffffffffffffffffffffffffffffffffff16036111dd576040517f08c379a00000000000000000000000000000000000000000000000000000000081526004016111d490613f4a565b60405180910390fd5b600360008373ffffffffffffffffffffffffffffffffffffffff1673ffffffffffffffffffffffffffffffffffffffff168152602001908152602001600020549050919050565b606060006112313361116d565b905060008167ffffffffffffffff81111561124f5761124e613472565b5b60405190808252806020026020018201604052801561128857816020015b611275612f6c565b81526020019060019003908161126d5790505b50905060005b8281101561137d5760006112a23383610d3b565b90506000600e600083815260200190815260200160002060405180608001604052908160008201548152602001600182015481526020016002820160009054906101000a900473ffffffffffffffffffffffffffffffffffffffff1673ffffffffffffffffffffffffffffffffffffffff1673ffffffffffffffffffffffffffffffffffffffff1681526020016002820160149054906101000a900460ff16151515158152505090508084848151811061135f5761135e613d73565b5b602002602001018190525050508061137690613dd1565b905061128e565b50809250505090565b61138e611e34565b6113986000611eb2565b565b6113a2611e34565b600081116113e5576040517f08c379a00000000000000000000000000000000000000000000000000000000081526004016113dc90613fb6565b60405180910390fd5b8060088190555050565b6000600760009054906101000a900473ffffffffffffffffffffffffffffffffffffffff16905090565b606060018054611428906138de565b80601f0160208091040260200160405190810160405280929190818152602001828054611454906138de565b80156114a15780601f10611476576101008083540402835291602001916114a1565b820191906000526020600020905b81548152906001019060200180831161148457829003601f168201915b5050505050905090565b6114bd6114b6611928565b8383611f78565b5050565b6114d26114cc611928565b836119ff565b611511576040517f08c379a000000000000000000000000000000000000000000000000000000000815260040161150890613c0f565b60405180910390fd5b61151d848484846120e4565b50505050565b600061152e83610f8f565b1561156e576040517f08c379a000000000000000000000000000000000000000000000000000000000815260040161156590614022565b60405180910390fd5b60085434146115b2576040517f08c379a00000000000000000000000000000000000000000000000000000000081526004016115a9906140b4565b60405180910390fd5b6115bc60096119e9565b6115c6600a6119e9565b60006115d2600a611de9565b90506115de3382612140565b6115e8818561215e565b6115f281846121cb565b6001600d856040516116049190613e55565b908152602001604051809103902060006101000a81548160ff0219169083151502179055508091505092915050565b60085481565b6060611644826118dd565b6000600660008481526020019081526020016000208054611664906138de565b80601f0160208091040260200160405190810160405280929190818152602001828054611690906138de565b80156116dd5780601f106116b2576101008083540402835291602001916116dd565b820191906000526020600020905b8154815290600101906020018083116116c057829003601f168201915b5050505050905060006116ee61231b565b90506000815103611703578192505050611746565b6000825111156117385780826040516020016117209291906140d4565b60405160208183030381529060405292505050611746565b61174184612332565b925050505b919050565b60006117576009611de9565b905090565b6000600560008473ffffffffffffffffffffffffffffffffffffffff1673ffffffffffffffffffffffffffffffffffffffff16815260200190815260200160002060008373ffffffffffffffffffffffffffffffffffffffff1673ffffffffffffffffffffffffffffffffffffffff16815260200190815260200160002060009054906101000a900460ff16905092915050565b6117f8611e34565b600073ffffffffffffffffffffffffffffffffffffffff168173ffffffffffffffffffffffffffffffffffffffff1603611867576040517f08c379a000000000000000000000000000000000000000000000000000000000815260040161185e9061416a565b60405180910390fd5b61187081611eb2565b50565b60007f01ffc9a7000000000000000000000000000000000000000000000000000000007bffffffffffffffffffffffffffffffffffffffffffffffffffffffff1916827bffffffffffffffffffffffffffffffffffffffffffffffffffffffff1916149050919050565b6118e68161239a565b611925576040517f08c379a000000000000000000000000000000000000000000000000000000000815260040161191c90613eb8565b60405180910390fd5b50565b600033905090565b816004600083815260200190815260200160002060006101000a81548173ffffffffffffffffffffffffffffffffffffffff021916908373ffffffffffffffffffffffffffffffffffffffff160217905550808273ffffffffffffffffffffffffffffffffffffffff166119a383611035565b73ffffffffffffffffffffffffffffffffffffffff167f8c5be1e5ebec7d5bd14f71427d1e84f3dd0314c0f7b2291e5b200ac8c7c3b92560405160405180910390a45050565b6001816000016000828254019250508190555050565b600080611a0b83611035565b90508073ffffffffffffffffffffffffffffffffffffffff168473ffffffffffffffffffffffffffffffffffffffff161480611a4d5750611a4c818561175c565b5b80611a8b57508373ffffffffffffffffffffffffffffffffffffffff16611a7384610893565b73ffffffffffffffffffffffffffffffffffffffff16145b91505092915050565b8273ffffffffffffffffffffffffffffffffffffffff16611ab482611035565b73ffffffffffffffffffffffffffffffffffffffff1614611b0a576040517f08c379a0000000000000000000000000000000000000000000000000000000008152600401611b01906141fc565b60405180910390fd5b600073ffffffffffffffffffffffffffffffffffffffff168273ffffffffffffffffffffffffffffffffffffffff1603611b79576040517f08c379a0000000000000000000000000000000000000000000000000000000008152600401611b709061428e565b60405180910390fd5b611b8683838360016123db565b8273ffffffffffffffffffffffffffffffffffffffff16611ba682611035565b73ffffffffffffffffffffffffffffffffffffffff1614611bfc576040517f08c379a0000000000000000000000000000000000000000000000000000000008152600401611bf3906141fc565b60405180910390fd5b6004600082815260200190815260200160002060006101000a81549073ffffffffffffffffffffffffffffffffffffffff02191690556001600360008573ffffffffffffffffffffffffffffffffffffffff1673ffffffffffffffffffffffffffffffffffffffff168152602001908152602001600020600082825403925050819055506001600360008473ffffffffffffffffffffffffffffffffffffffff1673ffffffffffffffffffffffffffffffffffffffff16815260200190815260200160002060008282540192505081905550816002600083815260200190815260200160002060006101000a81548173ffffffffffffffffffffffffffffffffffffffff021916908373ffffffffffffffffffffffffffffffffffffffff160217905550808273ffffffffffffffffffffffffffffffffffffffff168473ffffffffffffffffffffffffffffffffffffffff167fddf252ad1be2c89b69c2b068fc378daa952ba7f163c4a11628f55a4df523b3ef60405160405180910390a4611d8883838360016124ef565b505050565b60008160000154905060008111611dd9576040517f08c379a0000000000000000000000000000000000000000000000000000000008152600401611dd0906142fa565b60405180910390fd5b6001810382600001819055505050565b600081600001549050919050565b60006002600083815260200190815260200160002060009054906101000a900473ffffffffffffffffffffffffffffffffffffffff169050919050565b611e3c611928565b73ffffffffffffffffffffffffffffffffffffffff16611e5a6113ef565b73ffffffffffffffffffffffffffffffffffffffff1614611eb0576040517f08c379a0000000000000000000000000000000000000000000000000000000008152600401611ea790614366565b60405180910390fd5b565b6000600760009054906101000a900473ffffffffffffffffffffffffffffffffffffffff16905081600760006101000a81548173ffffffffffffffffffffffffffffffffffffffff021916908373ffffffffffffffffffffffffffffffffffffffff1602179055508173ffffffffffffffffffffffffffffffffffffffff168173ffffffffffffffffffffffffffffffffffffffff167f8be0079c531659141344cd1fd0a4f28419497f9722a3daafe3b4186f6b6457e060405160405180910390a35050565b8173ffffffffffffffffffffffffffffffffffffffff168373ffffffffffffffffffffffffffffffffffffffff1603611fe6576040517f08c379a0000000000000000000000000000000000000000000000000000000008152600401611fdd906143d2565b60405180910390fd5b80600560008573ffffffffffffffffffffffffffffffffffffffff1673ffffffffffffffffffffffffffffffffffffffff16815260200190815260200160002060008473ffffffffffffffffffffffffffffffffffffffff1673ffffffffffffffffffffffffffffffffffffffff16815260200190815260200160002060006101000a81548160ff0219169083151502179055508173ffffffffffffffffffffffffffffffffffffffff168373ffffffffffffffffffffffffffffffffffffffff167f17307eab39ab6107e8899845ad3d59bd9653f200f220920489ca2b5937696c31836040516120d79190613060565b60405180910390a3505050565b6120ef848484611a94565b6120fb848484846124f5565b61213a576040517f08c379a000000000000000000000000000000000000000000000000000000000815260040161213190614464565b60405180910390fd5b50505050565b61215a82826040518060200160405280600081525061267c565b5050565b6121678261239a565b6121a6576040517f08c379a000000000000000000000000000000000000000000000000000000000815260040161219d906144f6565b60405180910390fd5b806006600084815260200190815260200160002090816121c691906146c2565b505050565b6000811161220e576040517f08c379a000000000000000000000000000000000000000000000000000000000815260040161220590613fb6565b60405180910390fd5b60405180608001604052808381526020018281526020013373ffffffffffffffffffffffffffffffffffffffff16815260200160011515815250600e6000848152602001908152602001600020600082015181600001556020820151816001015560408201518160020160006101000a81548173ffffffffffffffffffffffffffffffffffffffff021916908373ffffffffffffffffffffffffffffffffffffffff16021790555060608201518160020160146101000a81548160ff0219169083151502179055509050507f470031062672bc0246e132c723a729c4676710ec663a29e86c88678032daddea828233600160405161230f9493929190614794565b60405180910390a15050565b606060405180602001604052806000815250905090565b606061233d826118dd565b600061234761231b565b905060008151116123675760405180602001604052806000815250612392565b80612371846126d7565b6040516020016123829291906140d4565b6040516020818303038152906040525b915050919050565b60008073ffffffffffffffffffffffffffffffffffffffff166123bc83611df7565b73ffffffffffffffffffffffffffffffffffffffff1614159050919050565b6123e7848484846127a5565b600073ffffffffffffffffffffffffffffffffffffffff168473ffffffffffffffffffffffffffffffffffffffff160361242957612424826128cb565b612468565b8273ffffffffffffffffffffffffffffffffffffffff168473ffffffffffffffffffffffffffffffffffffffff1614612467576124668483612914565b5b5b600073ffffffffffffffffffffffffffffffffffffffff168373ffffffffffffffffffffffffffffffffffffffff16036124aa576124a582612a81565b6124e9565b8273ffffffffffffffffffffffffffffffffffffffff168473ffffffffffffffffffffffffffffffffffffffff16146124e8576124e78383612b5a565b5b5b50505050565b50505050565b60006125168473ffffffffffffffffffffffffffffffffffffffff16612bd9565b1561266f578373ffffffffffffffffffffffffffffffffffffffff1663150b7a0261253f611928565b8786866040518563ffffffff1660e01b8152600401612561949392919061482e565b6020604051808303816000875af192505050801561259d57506040513d601f19601f8201168201806040525081019061259a919061488f565b60015b61261f573d80600081146125cd576040519150601f19603f3d011682016040523d82523d6000602084013e6125d2565b606091505b506000815103612617576040517f08c379a000000000000000000000000000000000000000000000000000000000815260040161260e90614464565b60405180910390fd5b805181602001fd5b63150b7a0260e01b7bffffffffffffffffffffffffffffffffffffffffffffffffffffffff1916817bffffffffffffffffffffffffffffffffffffffffffffffffffffffff191614915050612674565b600190505b949350505050565b6126868383612bfc565b61269360008484846124f5565b6126d2576040517f08c379a00000000000000000000000000000000000000000000000000000000081526004016126c990614464565b60405180910390fd5b505050565b6060600060016126e684612e19565b01905060008167ffffffffffffffff81111561270557612704613472565b5b6040519080825280601f01601f1916602001820160405280156127375781602001600182028036833780820191505090505b509050600082602001820190505b60011561279a578080600190039150507f3031323334353637383961626364656600000000000000000000000000000000600a86061a8153600a858161278e5761278d6148bc565b5b04945060008503612745575b819350505050919050565b60018111156128c557600073ffffffffffffffffffffffffffffffffffffffff168473ffffffffffffffffffffffffffffffffffffffff16146128395780600360008673ffffffffffffffffffffffffffffffffffffffff1673ffffffffffffffffffffffffffffffffffffffff168152602001908152602001600020600082825461283191906148eb565b925050819055505b600073ffffffffffffffffffffffffffffffffffffffff168373ffffffffffffffffffffffffffffffffffffffff16146128c45780600360008573ffffffffffffffffffffffffffffffffffffffff1673ffffffffffffffffffffffffffffffffffffffff16815260200190815260200160002060008282546128bc919061491f565b925050819055505b5b50505050565b600b80549050600c600083815260200190815260200160002081905550600b81908060018154018082558091505060019003906000526020600020016000909190919091505550565b600060016129218461116d565b61292b91906148eb565b9050600060106000848152602001908152602001600020549050818114612a10576000600f60008673ffffffffffffffffffffffffffffffffffffffff1673ffffffffffffffffffffffffffffffffffffffff168152602001908152602001600020600084815260200190815260200160002054905080600f60008773ffffffffffffffffffffffffffffffffffffffff1673ffffffffffffffffffffffffffffffffffffffff168152602001908152602001600020600084815260200190815260200160002081905550816010600083815260200190815260200160002081905550505b6010600084815260200190815260200160002060009055600f60008573ffffffffffffffffffffffffffffffffffffffff1673ffffffffffffffffffffffffffffffffffffffff16815260200190815260200160002060008381526020019081526020016000206000905550505050565b60006001600b80549050612a9591906148eb565b90506000600b8281548110612aad57612aac613d73565b5b906000526020600020015490506000600c6000858152602001908152602001600020549050838214612b155781600b8281548110612aee57612aed613d73565b5b906000526020600020018190555080600c6000848152602001908152602001600020819055505b600c600085815260200190815260200160002060009055600b805480612b3e57612b3d614953565b5b6001900381819060005260206000200160009055905550505050565b6000612b658361116d565b905081600f60008573ffffffffffffffffffffffffffffffffffffffff1673ffffffffffffffffffffffffffffffffffffffff168152602001908152602001600020600083815260200190815260200160002081905550806010600084815260200190815260200160002081905550505050565b6000808273ffffffffffffffffffffffffffffffffffffffff163b119050919050565b600073ffffffffffffffffffffffffffffffffffffffff168273ffffffffffffffffffffffffffffffffffffffff1603612c6b576040517f08c379a0000000000000000000000000000000000000000000000000000000008152600401612c62906149ce565b60405180910390fd5b612c748161239a565b15612cb4576040517f08c379a0000000000000000000000000000000000000000000000000000000008152600401612cab90614a3a565b60405180910390fd5b612cc26000838360016123db565b612ccb8161239a565b15612d0b576040517f08c379a0000000000000000000000000000000000000000000000000000000008152600401612d0290614a3a565b60405180910390fd5b6001600360008473ffffffffffffffffffffffffffffffffffffffff1673ffffffffffffffffffffffffffffffffffffffff16815260200190815260200160002060008282540192505081905550816002600083815260200190815260200160002060006101000a81548173ffffffffffffffffffffffffffffffffffffffff021916908373ffffffffffffffffffffffffffffffffffffffff160217905550808273ffffffffffffffffffffffffffffffffffffffff16600073ffffffffffffffffffffffffffffffffffffffff167fddf252ad1be2c89b69c2b068fc378daa952ba7f163c4a11628f55a4df523b3ef60405160405180910390a4612e156000838360016124ef565b5050565b600080600090507a184f03e93ff9f4daa797ed6e38ed64bf6a1f0100000000000000008310612e77577a184f03e93ff9f4daa797ed6e38ed64bf6a1f0100000000000000008381612e6d57612e6c6148bc565b5b0492506040810190505b6d04ee2d6d415b85acef81000000008310612eb4576d04ee2d6d415b85acef81000000008381612eaa57612ea96148bc565b5b0492506020810190505b662386f26fc100008310612ee357662386f26fc100008381612ed957612ed86148bc565b5b0492506010810190505b6305f5e1008310612f0c576305f5e1008381612f0257612f016148bc565b5b0492506008810190505b6127108310612f31576127108381612f2757612f266148bc565b5b0492506004810190505b60648310612f545760648381612f4a57612f496148bc565b5b0492506002810190505b600a8310612f63576001810190505b80915050919050565b60405180608001604052806000815260200160008152602001600073ffffffffffffffffffffffffffffffffffffffff1681526020016000151581525090565b6000604051905090565b600080fd5b600080fd5b60007fffffffff0000000000000000000000000000000000000000000000000000000082169050919050565b612ff581612fc0565b811461300057600080fd5b50565b60008135905061301281612fec565b92915050565b60006020828403121561302e5761302d612fb6565b5b600061303c84828501613003565b91505092915050565b60008115159050919050565b61305a81613045565b82525050565b60006020820190506130756000830184613051565b92915050565b600081519050919050565b600082825260208201905092915050565b60005b838110156130b557808201518184015260208101905061309a565b60008484015250505050565b6000601f19601f8301169050919050565b60006130dd8261307b565b6130e78185613086565b93506130f7818560208601613097565b613100816130c1565b840191505092915050565b6000602082019050818103600083015261312581846130d2565b905092915050565b6000819050919050565b6131408161312d565b811461314b57600080fd5b50565b60008135905061315d81613137565b92915050565b60006020828403121561317957613178612fb6565b5b60006131878482850161314e565b91505092915050565b600073ffffffffffffffffffffffffffffffffffffffff82169050919050565b60006131bb82613190565b9050919050565b6131cb816131b0565b82525050565b60006020820190506131e660008301846131c2565b92915050565b6131f5816131b0565b811461320057600080fd5b50565b600081359050613212816131ec565b92915050565b6000806040838503121561322f5761322e612fb6565b5b600061323d85828601613203565b925050602061324e8582860161314e565b9150509250929050565b6132618161312d565b82525050565b600060208201905061327c6000830184613258565b92915050565b6000806040838503121561329957613298612fb6565b5b60006132a78582860161314e565b92505060206132b88582860161314e565b9150509250929050565b6000806000606084860312156132db576132da612fb6565b5b60006132e986828701613203565b93505060206132fa86828701613203565b925050604061330b8682870161314e565b9150509250925092565b600081519050919050565b600082825260208201905092915050565b6000819050602082019050919050565b61334a8161312d565b82525050565b613359816131b0565b82525050565b61336881613045565b82525050565b6080820160008201516133846000850182613341565b5060208201516133976020850182613341565b5060408201516133aa6040850182613350565b5060608201516133bd606085018261335f565b50505050565b60006133cf838361336e565b60808301905092915050565b6000602082019050919050565b60006133f382613315565b6133fd8185613320565b935061340883613331565b8060005b8381101561343957815161342088826133c3565b975061342b836133db565b92505060018101905061340c565b5085935050505092915050565b6000602082019050818103600083015261346081846133e8565b905092915050565b600080fd5b600080fd5b7f4e487b7100000000000000000000000000000000000000000000000000000000600052604160045260246000fd5b6134aa826130c1565b810181811067ffffffffffffffff821117156134c9576134c8613472565b5b80604052505050565b60006134dc612fac565b90506134e882826134a1565b919050565b600067ffffffffffffffff82111561350857613507613472565b5b613511826130c1565b9050602081019050919050565b82818337600083830152505050565b600061354061353b846134ed565b6134d2565b90508281526020810184848401111561355c5761355b61346d565b5b61356784828561351e565b509392505050565b600082601f83011261358457613583613468565b5b813561359484826020860161352d565b91505092915050565b6000602082840312156135b3576135b2612fb6565b5b600082013567ffffffffffffffff8111156135d1576135d0612fbb565b5b6135dd8482850161356f565b91505092915050565b6080820160008201516135fc6000850182613341565b50602082015161360f6020850182613341565b5060408201516136226040850182613350565b506060820151613635606085018261335f565b50505050565b600060808201905061365060008301846135e6565b92915050565b60006020828403121561366c5761366b612fb6565b5b600061367a84828501613203565b91505092915050565b61368c81613045565b811461369757600080fd5b50565b6000813590506136a981613683565b92915050565b600080604083850312156136c6576136c5612fb6565b5b60006136d485828601613203565b92505060206136e58582860161369a565b9150509250929050565b600067ffffffffffffffff82111561370a57613709613472565b5b613713826130c1565b9050602081019050919050565b600061373361372e846136ef565b6134d2565b90508281526020810184848401111561374f5761374e61346d565b5b61375a84828561351e565b509392505050565b600082601f83011261377757613776613468565b5b8135613787848260208601613720565b91505092915050565b600080600080608085870312156137aa576137a9612fb6565b5b60006137b887828801613203565b94505060206137c987828801613203565b93505060406137da8782880161314e565b925050606085013567ffffffffffffffff8111156137fb576137fa612fbb565b5b61380787828801613762565b91505092959194509250565b6000806040838503121561382a57613829612fb6565b5b600083013567ffffffffffffffff81111561384857613847612fbb565b5b6138548582860161356f565b92505060206138658582860161314e565b9150509250929050565b6000806040838503121561388657613885612fb6565b5b600061389485828601613203565b92505060206138a585828601613203565b9150509250929050565b7f4e487b7100000000000000000000000000000000000000000000000000000000600052602260045260246000fd5b600060028204905060018216806138f657607f821691505b602082108103613909576139086138af565b5b50919050565b7f4552433732313a20617070726f76616c20746f2063757272656e74206f776e6560008201527f7200000000000000000000000000000000000000000000000000000000000000602082015250565b600061396b602183613086565b91506139768261390f565b604082019050919050565b6000602082019050818103600083015261399a8161395e565b9050919050565b7f4552433732313a20617070726f76652063616c6c6572206973206e6f7420746f60008201527f6b656e206f776e6572206f7220617070726f76656420666f7220616c6c000000602082015250565b60006139fd603d83613086565b9150613a08826139a1565b604082019050919050565b60006020820190508181036000830152613a2c816139f0565b9050919050565b7f596f7520686176656e2774206f776e65642074686973206e6674000000000000600082015250565b6000613a69601a83613086565b9150613a7482613a33565b602082019050919050565b60006020820190508181036000830152613a9881613a5c565b9050919050565b7f54686973206974656d206861766520616c7265616479206c6973746564000000600082015250565b6000613ad5601d83613086565b9150613ae082613a9f565b602082019050919050565b60006020820190508181036000830152613b0481613ac8565b9050919050565b7f5072696365206d75737420626520657175616c206c697374696e67207072696360008201527f6500000000000000000000000000000000000000000000000000000000000000602082015250565b6000613b67602183613086565b9150613b7282613b0b565b604082019050919050565b60006020820190508181036000830152613b9681613b5a565b9050919050565b7f4552433732313a2063616c6c6572206973206e6f7420746f6b656e206f776e6560008201527f72206f7220617070726f76656400000000000000000000000000000000000000602082015250565b6000613bf9602d83613086565b9150613c0482613b9d565b604082019050919050565b60006020820190508181036000830152613c2881613bec565b9050919050565b7f596f7520616c7265616479206f776e2074686973204e46540000000000000000600082015250565b6000613c65601883613086565b9150613c7082613c2f565b602082019050919050565b60006020820190508181036000830152613c9481613c58565b9050919050565b7f506c65617365207375626d6974207468652061736b696e672076616c75650000600082015250565b6000613cd1601e83613086565b9150613cdc82613c9b565b602082019050919050565b60006020820190508181036000830152613d0081613cc4565b9050919050565b7f496e646578206f7574206f6620626f756e640000000000000000000000000000600082015250565b6000613d3d601283613086565b9150613d4882613d07565b602082019050919050565b60006020820190508181036000830152613d6c81613d30565b9050919050565b7f4e487b7100000000000000000000000000000000000000000000000000000000600052603260045260246000fd5b7f4e487b7100000000000000000000000000000000000000000000000000000000600052601160045260246000fd5b6000613ddc8261312d565b91507fffffffffffffffffffffffffffffffffffffffffffffffffffffffffffffffff8203613e0e57613e0d613da2565b5b600182019050919050565b600081905092915050565b6000613e2f8261307b565b613e398185613e19565b9350613e49818560208601613097565b80840191505092915050565b6000613e618284613e24565b915081905092915050565b7f4552433732313a20696e76616c696420746f6b656e2049440000000000000000600082015250565b6000613ea2601883613086565b9150613ead82613e6c565b602082019050919050565b60006020820190508181036000830152613ed181613e95565b9050919050565b7f4552433732313a2061646472657373207a65726f206973206e6f74206120766160008201527f6c6964206f776e65720000000000000000000000000000000000000000000000602082015250565b6000613f34602983613086565b9150613f3f82613ed8565b604082019050919050565b60006020820190508181036000830152613f6381613f27565b9050919050565b7f5072696365206d757374206265206174206c6561736520312077656900000000600082015250565b6000613fa0601c83613086565b9150613fab82613f6a565b602082019050919050565b60006020820190508181036000830152613fcf81613f93565b9050919050565b7f546f6b656e2055524920616c7265616479206578697374730000000000000000600082015250565b600061400c601883613086565b915061401782613fd6565b602082019050919050565b6000602082019050818103600083015261403b81613fff565b9050919050565b7f5072696365206d75737420626520657175616c20746f206c697374696e67207060008201527f7269636500000000000000000000000000000000000000000000000000000000602082015250565b600061409e602483613086565b91506140a982614042565b604082019050919050565b600060208201905081810360008301526140cd81614091565b9050919050565b60006140e08285613e24565b91506140ec8284613e24565b91508190509392505050565b7f4f776e61626c653a206e6577206f776e657220697320746865207a65726f206160008201527f6464726573730000000000000000000000000000000000000000000000000000602082015250565b6000614154602683613086565b915061415f826140f8565b604082019050919050565b6000602082019050818103600083015261418381614147565b9050919050565b7f4552433732313a207472616e736665722066726f6d20696e636f72726563742060008201527f6f776e6572000000000000000000000000000000000000000000000000000000602082015250565b60006141e6602583613086565b91506141f18261418a565b604082019050919050565b60006020820190508181036000830152614215816141d9565b9050919050565b7f4552433732313a207472616e7366657220746f20746865207a65726f2061646460008201527f7265737300000000000000000000000000000000000000000000000000000000602082015250565b6000614278602483613086565b91506142838261421c565b604082019050919050565b600060208201905081810360008301526142a78161426b565b9050919050565b7f436f756e7465723a2064656372656d656e74206f766572666c6f770000000000600082015250565b60006142e4601b83613086565b91506142ef826142ae565b602082019050919050565b60006020820190508181036000830152614313816142d7565b9050919050565b7f4f776e61626c653a2063616c6c6572206973206e6f7420746865206f776e6572600082015250565b6000614350602083613086565b915061435b8261431a565b602082019050919050565b6000602082019050818103600083015261437f81614343565b9050919050565b7f4552433732313a20617070726f766520746f2063616c6c657200000000000000600082015250565b60006143bc601983613086565b91506143c782614386565b602082019050919050565b600060208201905081810360008301526143eb816143af565b9050919050565b7f4552433732313a207472616e7366657220746f206e6f6e20455243373231526560008201527f63656976657220696d706c656d656e7465720000000000000000000000000000602082015250565b600061444e603283613086565b9150614459826143f2565b604082019050919050565b6000602082019050818103600083015261447d81614441565b9050919050565b7f45524337323155524953746f726167653a2055524920736574206f66206e6f6e60008201527f6578697374656e7420746f6b656e000000000000000000000000000000000000602082015250565b60006144e0602e83613086565b91506144eb82614484565b604082019050919050565b6000602082019050818103600083015261450f816144d3565b9050919050565b60008190508160005260206000209050919050565b60006020601f8301049050919050565b600082821b905092915050565b6000600883026145787fffffffffffffffffffffffffffffffffffffffffffffffffffffffffffffffff8261453b565b614582868361453b565b95508019841693508086168417925050509392505050565b6000819050919050565b60006145bf6145ba6145b58461312d565b61459a565b61312d565b9050919050565b6000819050919050565b6145d9836145a4565b6145ed6145e5826145c6565b848454614548565b825550505050565b600090565b6146026145f5565b61460d8184846145d0565b505050565b5b81811015614631576146266000826145fa565b600181019050614613565b5050565b601f8211156146765761464781614516565b6146508461452b565b8101602085101561465f578190505b61467361466b8561452b565b830182614612565b50505b505050565b600082821c905092915050565b60006146996000198460080261467b565b1980831691505092915050565b60006146b28383614688565b9150826002028217905092915050565b6146cb8261307b565b67ffffffffffffffff8111156146e4576146e3613472565b5b6146ee82546138de565b6146f9828285614635565b600060209050601f83116001811461472c576000841561471a578287015190505b61472485826146a6565b86555061478c565b601f19841661473a86614516565b60005b828110156147625784890151825560018201915060208501945060208101905061473d565b8683101561477f578489015161477b601f891682614688565b8355505b6001600288020188555050505b505050505050565b60006080820190506147a96000830187613258565b6147b66020830186613258565b6147c360408301856131c2565b6147d06060830184613051565b95945050505050565b600081519050919050565b600082825260208201905092915050565b6000614800826147d9565b61480a81856147e4565b935061481a818560208601613097565b614823816130c1565b840191505092915050565b600060808201905061484360008301876131c2565b61485060208301866131c2565b61485d6040830185613258565b818103606083015261486f81846147f5565b905095945050505050565b60008151905061488981612fec565b92915050565b6000602082840312156148a5576148a4612fb6565b5b60006148b38482850161487a565b91505092915050565b7f4e487b7100000000000000000000000000000000000000000000000000000000600052601260045260246000fd5b60006148f68261312d565b91506149018361312d565b925082820390508181111561491957614918613da2565b5b92915050565b600061492a8261312d565b91506149358361312d565b925082820190508082111561494d5761494c613da2565b5b92915050565b7f4e487b7100000000000000000000000000000000000000000000000000000000600052603160045260246000fd5b7f4552433732313a206d696e7420746f20746865207a65726f2061646472657373600082015250565b60006149b8602083613086565b91506149c382614982565b602082019050919050565b600060208201905081810360008301526149e7816149ab565b9050919050565b7f4552433732313a20746f6b656e20616c7265616479206d696e74656400000000600082015250565b6000614a24601c83613086565b9150614a2f826149ee565b602082019050919050565b60006020820190508181036000830152614a5381614a17565b905091905056fea2646970667358221220307f4f8c336f2488ced4542fc29a37d220531d6a0313bc2a4a52341ef57ee24c64736f6c63430008110033",
  "immutableReferences": {},
  "source": "// SPDX-License-Identifier: MIT\r\npragma solidity >=0.4.22 <0.9.0;\r\n\r\nimport \"@openzeppelin/contracts/token/ERC721/extensions/ERC721URIStorage.sol\";\r\nimport \"@openzeppelin/contracts/utils/Counters.sol\";\r\nimport \"@openzeppelin/contracts/access/Ownable.sol\";\r\n\r\ncontract NftMarket is ERC721URIStorage, Ownable {\r\n    using Counters for Counters.Counter;\r\n\r\n    struct NftItem {\r\n        uint256 tokenId;\r\n        uint256 price;\r\n        address creator;\r\n        bool isListed;\r\n    }\r\n\r\n    uint256 public listingPrice = 0.025 ether;\r\n\r\n    Counters.Counter private _listItems;\r\n    Counters.Counter private _tokenIds;\r\n\r\n    uint256[] private _allNfts;\r\n    mapping(uint256 => uint256) private _idToNftIndex;\r\n\r\n    mapping(string => bool) private _usedTokenURIs;\r\n    mapping(uint256 => NftItem) private _idToNftItem;\r\n\r\n    mapping(address => mapping(uint256 => uint256)) private _ownedToken;\r\n    mapping(uint256 => uint256) private _idToOwnedIndex;\r\n\r\n    event NftItemCreated(\r\n        uint256 tokenId,\r\n        uint256 price,\r\n        address creator,\r\n        bool isListed\r\n    );\r\n\r\n    constructor() ERC721(\"CreaturesNFT\", \"CNFT\") {}\r\n\r\n    function setListingPrice(uint256 price) external onlyOwner {\r\n        require(price > 0, \"Price must be at lease 1 wei\");\r\n\r\n        listingPrice = price;\r\n    }\r\n\r\n    function getNftItem(uint256 tokenId) public view returns (NftItem memory) {\r\n        return _idToNftItem[tokenId];\r\n    }\r\n\r\n    function listedItemsCount() public view returns (uint256) {\r\n        return _listItems.current();\r\n    }\r\n\r\n    function tokenURIExists(string memory tokenURI) public view returns (bool) {\r\n        return _usedTokenURIs[tokenURI];\r\n    }\r\n\r\n    function totalSupply() public view returns (uint256) {\r\n        return _allNfts.length;\r\n    }\r\n\r\n    function tokenByIndex(uint256 index) public view returns (uint256) {\r\n        require(index < totalSupply(), \"Index out of bound\");\r\n        return _allNfts[index];\r\n    }\r\n\r\n    function tokenOfOwnerByIndex(address owner, uint256 index)\r\n        public\r\n        view\r\n        returns (uint256)\r\n    {\r\n        require(index < balanceOf(owner), \"Index out of bound\");\r\n        return _ownedToken[owner][index];\r\n    }\r\n\r\n    function getAllNftsOnSale() public view returns (NftItem[] memory) {\r\n        uint256 allItemCounts = totalSupply();\r\n        uint256 currentIndex = 0;\r\n        NftItem[] memory items = new NftItem[](_listItems.current());\r\n\r\n        for (uint256 index = 0; index < allItemCounts; ++index) {\r\n            uint256 tokenId = tokenByIndex(index);\r\n            NftItem storage nftItem = _idToNftItem[tokenId];\r\n\r\n            if (nftItem.isListed) {\r\n                items[currentIndex] = nftItem;\r\n                ++currentIndex;\r\n            }\r\n        }\r\n\r\n        return items;\r\n    }\r\n\r\n    function getOwnedNfts() public view returns (NftItem[] memory) {\r\n        uint256 ownedItemCounts = balanceOf(msg.sender);\r\n        NftItem[] memory items = new NftItem[](ownedItemCounts);\r\n\r\n        for (uint256 index = 0; index < ownedItemCounts; ++index) {\r\n            uint256 tokenId = tokenOfOwnerByIndex(msg.sender, index);\r\n            NftItem memory nftItem = _idToNftItem[tokenId];\r\n            items[index] = nftItem;\r\n        }\r\n\r\n        return items;\r\n    }\r\n\r\n    function mintToken(string memory tokenURI, uint256 price)\r\n        public\r\n        payable\r\n        returns (uint256)\r\n    {\r\n        require(!tokenURIExists(tokenURI), \"Token URI already exists\");\r\n        require(\r\n            msg.value == listingPrice,\r\n            \"Price must be equal to listing price\"\r\n        );\r\n        _listItems.increment();\r\n        _tokenIds.increment();\r\n\r\n        uint256 newTokenId = _tokenIds.current();\r\n        _safeMint(msg.sender, newTokenId);\r\n        _setTokenURI(newTokenId, tokenURI);\r\n        _createNftItem(newTokenId, price);\r\n        _usedTokenURIs[tokenURI] = true;\r\n\r\n        return newTokenId;\r\n    }\r\n\r\n    function buyNft(uint256 tokenId) public payable {\r\n        uint256 price = _idToNftItem[tokenId].price;\r\n        address owner = ownerOf(tokenId);\r\n\r\n        require(msg.sender != owner, \"You already own this NFT\");\r\n        require(msg.value == price, \"Please submit the asking value\");\r\n\r\n        _idToNftItem[tokenId].isListed = false;\r\n        _listItems.decrement();\r\n\r\n        _transfer(owner, msg.sender, tokenId);\r\n        payable(owner).transfer(msg.value);\r\n    }\r\n\r\n    function placeNftOnSale(uint256 tokenId, uint256 price) public payable {\r\n        require(ownerOf(tokenId) == msg.sender, \"You haven't owned this nft\");\r\n        require(\r\n            !_idToNftItem[tokenId].isListed,\r\n            \"This item have already listed\"\r\n        );\r\n        require(msg.value == listingPrice, \"Price must be equal listing price\");\r\n\r\n        _idToNftItem[tokenId].isListed = true;\r\n        _idToNftItem[tokenId].price = price;\r\n        _listItems.increment();\r\n    }\r\n\r\n    function _createNftItem(uint256 tokenId, uint256 price) private {\r\n        require(price > 0, \"Price must be at lease 1 wei\");\r\n\r\n        _idToNftItem[tokenId] = NftItem(tokenId, price, msg.sender, true);\r\n\r\n        emit NftItemCreated(tokenId, price, msg.sender, true);\r\n    }\r\n\r\n    function _beforeTokenTransfer(\r\n        address from,\r\n        address to,\r\n        uint256 tokenId,\r\n        uint256 batchSize\r\n    ) internal virtual override {\r\n        super._beforeTokenTransfer(from, to, tokenId, batchSize);\r\n\r\n        if (from == address(0)) {\r\n            _addTokenToAllTokensEnumeration(tokenId);\r\n        } else if (from != to) {\r\n            _removeTokenFromOwnerTokensEnumeration(from, tokenId);\r\n        }\r\n\r\n        if (to == address(0)) {\r\n            _removeTokenFromAllTokensEnumeration(tokenId);\r\n        } else if (from != to) {\r\n            _addTokenToOwnerTokensEnumeration(to, tokenId);\r\n        }\r\n    }\r\n\r\n    function _addTokenToAllTokensEnumeration(uint256 tokenId) private {\r\n        _idToNftIndex[tokenId] = _allNfts.length;\r\n        _allNfts.push(tokenId);\r\n    }\r\n\r\n    function _addTokenToOwnerTokensEnumeration(address to, uint256 tokenId)\r\n        private\r\n    {\r\n        uint256 length = balanceOf(to);\r\n        _ownedToken[to][length] = tokenId;\r\n        _idToOwnedIndex[tokenId] = length;\r\n    }\r\n\r\n    function _removeTokenFromOwnerTokensEnumeration(\r\n        address from,\r\n        uint256 tokenId\r\n    ) private {\r\n        uint256 lastTokenIndex = balanceOf(from) - 1;\r\n        uint256 tokenIndex = _idToOwnedIndex[tokenId];\r\n\r\n        if (tokenIndex != lastTokenIndex) {\r\n            uint256 lastTokenId = _ownedToken[from][lastTokenIndex];\r\n\r\n            _ownedToken[from][tokenIndex] = lastTokenId;\r\n            _idToOwnedIndex[lastTokenId] = tokenIndex;\r\n        }\r\n\r\n        delete _idToOwnedIndex[tokenId];\r\n        delete _ownedToken[from][lastTokenIndex];\r\n    }\r\n\r\n    function _removeTokenFromAllTokensEnumeration(uint256 tokenId) private {\r\n        uint256 lastTokenIndex = _allNfts.length - 1;\r\n        uint256 lastTokenId = _allNfts[lastTokenIndex];\r\n        uint256 tokenIndex = _idToNftIndex[tokenId];\r\n\r\n        if (lastTokenId != tokenId) {\r\n            _allNfts[tokenIndex] = lastTokenId;\r\n            _idToNftIndex[lastTokenId] = tokenIndex;\r\n        }\r\n\r\n        delete _idToNftIndex[tokenId];\r\n        _allNfts.pop();\r\n    }\r\n}\r\n",
  "sourcePath": "E:\\learn\\udemy-nft-marketplace\\contracts\\NftMarket.sol",
  "compiler": {
    "name": "solc",
    "version": "0.8.17+commit.8df45f5f.Emscripten.clang"
  },
  "schemaVersion": "3.4.11",
  "updatedAt": "2023-01-24T07:59:16.704Z",
  "networkType": "ethereum",
  "devdoc": {
    "kind": "dev",
    "methods": {
      "approve(address,uint256)": {
        "details": "See {IERC721-approve}."
      },
      "balanceOf(address)": {
        "details": "See {IERC721-balanceOf}."
      },
      "getApproved(uint256)": {
        "details": "See {IERC721-getApproved}."
      },
      "isApprovedForAll(address,address)": {
        "details": "See {IERC721-isApprovedForAll}."
      },
      "name()": {
        "details": "See {IERC721Metadata-name}."
      },
      "owner()": {
        "details": "Returns the address of the current owner."
      },
      "ownerOf(uint256)": {
        "details": "See {IERC721-ownerOf}."
      },
      "renounceOwnership()": {
        "details": "Leaves the contract without owner. It will not be possible to call `onlyOwner` functions anymore. Can only be called by the current owner. NOTE: Renouncing ownership will leave the contract without an owner, thereby removing any functionality that is only available to the owner."
      },
      "safeTransferFrom(address,address,uint256)": {
        "details": "See {IERC721-safeTransferFrom}."
      },
      "safeTransferFrom(address,address,uint256,bytes)": {
        "details": "See {IERC721-safeTransferFrom}."
      },
      "setApprovalForAll(address,bool)": {
        "details": "See {IERC721-setApprovalForAll}."
      },
      "supportsInterface(bytes4)": {
        "details": "See {IERC165-supportsInterface}."
      },
      "symbol()": {
        "details": "See {IERC721Metadata-symbol}."
      },
      "tokenURI(uint256)": {
        "details": "See {IERC721Metadata-tokenURI}."
      },
      "transferFrom(address,address,uint256)": {
        "details": "See {IERC721-transferFrom}."
      },
      "transferOwnership(address)": {
        "details": "Transfers ownership of the contract to a new account (`newOwner`). Can only be called by the current owner."
      }
    },
    "version": 1
  },
  "userdoc": {
    "kind": "user",
    "methods": {},
    "version": 1
  }
}