{
  "contractName": "NftSchool",
  "abi": [
    {
      "inputs": [
        {
          "internalType": "address",
          "name": "nftIdentities",
          "type": "address"
        },
        {
          "internalType": "string[]",
          "name": "knowledgeBlockNames",
          "type": "string[]"
        },
        {
          "internalType": "uint256[]",
          "name": "knowledgeBlockCredits",
          "type": "uint256[]"
        }
      ],
      "stateMutability": "nonpayable",
      "type": "constructor"
    },
    {
      "anonymous": false,
      "inputs": [
        {
          "indexed": true,
          "internalType": "address",
          "name": "account",
          "type": "address"
        },
        {
          "indexed": true,
          "internalType": "address",
          "name": "operator",
          "type": "address"
        },
        {
          "indexed": false,
          "internalType": "bool",
          "name": "approved",
          "type": "bool"
        }
      ],
      "name": "ApprovalForAll",
      "type": "event"
    },
    {
      "anonymous": false,
      "inputs": [
        {
          "indexed": true,
          "internalType": "address",
          "name": "operator",
          "type": "address"
        },
        {
          "indexed": true,
          "internalType": "address",
          "name": "from",
          "type": "address"
        },
        {
          "indexed": true,
          "internalType": "address",
          "name": "to",
          "type": "address"
        },
        {
          "indexed": false,
          "internalType": "uint256[]",
          "name": "ids",
          "type": "uint256[]"
        },
        {
          "indexed": false,
          "internalType": "uint256[]",
          "name": "values",
          "type": "uint256[]"
        }
      ],
      "name": "TransferBatch",
      "type": "event"
    },
    {
      "anonymous": false,
      "inputs": [
        {
          "indexed": true,
          "internalType": "address",
          "name": "operator",
          "type": "address"
        },
        {
          "indexed": true,
          "internalType": "address",
          "name": "from",
          "type": "address"
        },
        {
          "indexed": true,
          "internalType": "address",
          "name": "to",
          "type": "address"
        },
        {
          "indexed": false,
          "internalType": "uint256",
          "name": "id",
          "type": "uint256"
        },
        {
          "indexed": false,
          "internalType": "uint256",
          "name": "value",
          "type": "uint256"
        }
      ],
      "name": "TransferSingle",
      "type": "event"
    },
    {
      "anonymous": false,
      "inputs": [
        {
          "indexed": false,
          "internalType": "string",
          "name": "value",
          "type": "string"
        },
        {
          "indexed": true,
          "internalType": "uint256",
          "name": "id",
          "type": "uint256"
        }
      ],
      "name": "URI",
      "type": "event"
    },
    {
      "inputs": [],
      "name": "_isInitialize",
      "outputs": [
        {
          "internalType": "bool",
          "name": "",
          "type": "bool"
        }
      ],
      "stateMutability": "view",
      "type": "function",
      "constant": true
    },
    {
      "inputs": [
        {
          "internalType": "address",
          "name": "account",
          "type": "address"
        },
        {
          "internalType": "uint256",
          "name": "id",
          "type": "uint256"
        }
      ],
      "name": "balanceOf",
      "outputs": [
        {
          "internalType": "uint256",
          "name": "",
          "type": "uint256"
        }
      ],
      "stateMutability": "view",
      "type": "function",
      "constant": true
    },
    {
      "inputs": [
        {
          "internalType": "address[]",
          "name": "accounts",
          "type": "address[]"
        },
        {
          "internalType": "uint256[]",
          "name": "ids",
          "type": "uint256[]"
        }
      ],
      "name": "balanceOfBatch",
      "outputs": [
        {
          "internalType": "uint256[]",
          "name": "",
          "type": "uint256[]"
        }
      ],
      "stateMutability": "view",
      "type": "function",
      "constant": true
    },
    {
      "inputs": [
        {
          "internalType": "address",
          "name": "account",
          "type": "address"
        },
        {
          "internalType": "address",
          "name": "operator",
          "type": "address"
        }
      ],
      "name": "isApprovedForAll",
      "outputs": [
        {
          "internalType": "bool",
          "name": "",
          "type": "bool"
        }
      ],
      "stateMutability": "view",
      "type": "function",
      "constant": true
    },
    {
      "inputs": [],
      "name": "minimumGraduationScore",
      "outputs": [
        {
          "internalType": "uint256",
          "name": "",
          "type": "uint256"
        }
      ],
      "stateMutability": "view",
      "type": "function",
      "constant": true
    },
    {
      "inputs": [],
      "name": "registerClassFee",
      "outputs": [
        {
          "internalType": "uint256",
          "name": "",
          "type": "uint256"
        }
      ],
      "stateMutability": "view",
      "type": "function",
      "constant": true
    },
    {
      "inputs": [
        {
          "internalType": "address",
          "name": "from",
          "type": "address"
        },
        {
          "internalType": "address",
          "name": "to",
          "type": "address"
        },
        {
          "internalType": "uint256[]",
          "name": "ids",
          "type": "uint256[]"
        },
        {
          "internalType": "uint256[]",
          "name": "amounts",
          "type": "uint256[]"
        },
        {
          "internalType": "bytes",
          "name": "data",
          "type": "bytes"
        }
      ],
      "name": "safeBatchTransferFrom",
      "outputs": [],
      "stateMutability": "nonpayable",
      "type": "function"
    },
    {
      "inputs": [
        {
          "internalType": "address",
          "name": "from",
          "type": "address"
        },
        {
          "internalType": "address",
          "name": "to",
          "type": "address"
        },
        {
          "internalType": "uint256",
          "name": "id",
          "type": "uint256"
        },
        {
          "internalType": "uint256",
          "name": "amount",
          "type": "uint256"
        },
        {
          "internalType": "bytes",
          "name": "data",
          "type": "bytes"
        }
      ],
      "name": "safeTransferFrom",
      "outputs": [],
      "stateMutability": "nonpayable",
      "type": "function"
    },
    {
      "inputs": [
        {
          "internalType": "address",
          "name": "operator",
          "type": "address"
        },
        {
          "internalType": "bool",
          "name": "approved",
          "type": "bool"
        }
      ],
      "name": "setApprovalForAll",
      "outputs": [],
      "stateMutability": "nonpayable",
      "type": "function"
    },
    {
      "inputs": [
        {
          "internalType": "bytes4",
          "name": "interfaceId",
          "type": "bytes4"
        }
      ],
      "name": "supportsInterface",
      "outputs": [
        {
          "internalType": "bool",
          "name": "",
          "type": "bool"
        }
      ],
      "stateMutability": "view",
      "type": "function",
      "constant": true
    },
    {
      "inputs": [
        {
          "internalType": "uint256",
          "name": "tokenId",
          "type": "uint256"
        }
      ],
      "name": "uri",
      "outputs": [
        {
          "internalType": "string",
          "name": "",
          "type": "string"
        }
      ],
      "stateMutability": "view",
      "type": "function",
      "constant": true
    },
    {
      "inputs": [
        {
          "internalType": "address",
          "name": "nftCertificates",
          "type": "address"
        }
      ],
      "name": "initialize",
      "outputs": [],
      "stateMutability": "nonpayable",
      "type": "function"
    },
    {
      "inputs": [],
      "name": "getAllKnowledgeBlocks",
      "outputs": [
        {
          "components": [
            {
              "internalType": "uint256",
              "name": "id",
              "type": "uint256"
            },
            {
              "internalType": "string",
              "name": "name",
              "type": "string"
            },
            {
              "internalType": "uint256",
              "name": "credits",
              "type": "uint256"
            }
          ],
          "internalType": "struct IConstant.KnowledgeBlock[]",
          "name": "",
          "type": "tuple[]"
        }
      ],
      "stateMutability": "view",
      "type": "function",
      "constant": true
    },
    {
      "inputs": [
        {
          "internalType": "uint256",
          "name": "id",
          "type": "uint256"
        }
      ],
      "name": "getKnowledgeBlockById",
      "outputs": [
        {
          "components": [
            {
              "internalType": "uint256",
              "name": "id",
              "type": "uint256"
            },
            {
              "internalType": "string",
              "name": "name",
              "type": "string"
            },
            {
              "internalType": "uint256",
              "name": "credits",
              "type": "uint256"
            }
          ],
          "internalType": "struct IConstant.KnowledgeBlock",
          "name": "",
          "type": "tuple"
        }
      ],
      "stateMutability": "view",
      "type": "function",
      "constant": true
    },
    {
      "inputs": [
        {
          "internalType": "uint256",
          "name": "registeredStartAt",
          "type": "uint256"
        },
        {
          "internalType": "uint256",
          "name": "registeredEndAt",
          "type": "uint256"
        }
      ],
      "name": "updateRegisteredTime",
      "outputs": [],
      "stateMutability": "nonpayable",
      "type": "function"
    },
    {
      "inputs": [],
      "name": "getRegisterTime",
      "outputs": [
        {
          "internalType": "uint256",
          "name": "",
          "type": "uint256"
        },
        {
          "internalType": "uint256",
          "name": "",
          "type": "uint256"
        }
      ],
      "stateMutability": "view",
      "type": "function",
      "constant": true
    },
    {
      "inputs": [],
      "name": "getAllCourses",
      "outputs": [
        {
          "components": [
            {
              "internalType": "uint256",
              "name": "id",
              "type": "uint256"
            },
            {
              "internalType": "uint256",
              "name": "knowledgeBlockId",
              "type": "uint256"
            },
            {
              "internalType": "uint256",
              "name": "prevCourseId",
              "type": "uint256"
            },
            {
              "internalType": "uint256",
              "name": "credits",
              "type": "uint256"
            },
            {
              "internalType": "uint256",
              "name": "status",
              "type": "uint256"
            },
            {
              "internalType": "string",
              "name": "uri",
              "type": "string"
            }
          ],
          "internalType": "struct IConstant.Course[]",
          "name": "",
          "type": "tuple[]"
        }
      ],
      "stateMutability": "view",
      "type": "function",
      "constant": true
    },
    {
      "inputs": [
        {
          "internalType": "uint256",
          "name": "id",
          "type": "uint256"
        }
      ],
      "name": "getCourseById",
      "outputs": [
        {
          "components": [
            {
              "internalType": "uint256",
              "name": "id",
              "type": "uint256"
            },
            {
              "internalType": "uint256",
              "name": "knowledgeBlockId",
              "type": "uint256"
            },
            {
              "internalType": "uint256",
              "name": "prevCourseId",
              "type": "uint256"
            },
            {
              "internalType": "uint256",
              "name": "credits",
              "type": "uint256"
            },
            {
              "internalType": "uint256",
              "name": "status",
              "type": "uint256"
            },
            {
              "internalType": "string",
              "name": "uri",
              "type": "string"
            }
          ],
          "internalType": "struct IConstant.Course",
          "name": "",
          "type": "tuple"
        }
      ],
      "stateMutability": "view",
      "type": "function",
      "constant": true
    },
    {
      "inputs": [
        {
          "internalType": "string",
          "name": "tokenURI",
          "type": "string"
        }
      ],
      "name": "getCourseByURI",
      "outputs": [
        {
          "components": [
            {
              "internalType": "uint256",
              "name": "id",
              "type": "uint256"
            },
            {
              "internalType": "uint256",
              "name": "knowledgeBlockId",
              "type": "uint256"
            },
            {
              "internalType": "uint256",
              "name": "prevCourseId",
              "type": "uint256"
            },
            {
              "internalType": "uint256",
              "name": "credits",
              "type": "uint256"
            },
            {
              "internalType": "uint256",
              "name": "status",
              "type": "uint256"
            },
            {
              "internalType": "string",
              "name": "uri",
              "type": "string"
            }
          ],
          "internalType": "struct IConstant.Course",
          "name": "",
          "type": "tuple"
        }
      ],
      "stateMutability": "view",
      "type": "function",
      "constant": true
    },
    {
      "inputs": [
        {
          "internalType": "string",
          "name": "tokenURI",
          "type": "string"
        }
      ],
      "name": "getCourseIdByURI",
      "outputs": [
        {
          "internalType": "uint256",
          "name": "",
          "type": "uint256"
        }
      ],
      "stateMutability": "view",
      "type": "function",
      "constant": true
    },
    {
      "inputs": [
        {
          "internalType": "uint256",
          "name": "prevCourseId",
          "type": "uint256"
        },
        {
          "internalType": "uint256",
          "name": "knowledgeBlockId",
          "type": "uint256"
        },
        {
          "internalType": "uint256",
          "name": "credits",
          "type": "uint256"
        },
        {
          "internalType": "string",
          "name": "uri",
          "type": "string"
        }
      ],
      "name": "createCourse",
      "outputs": [
        {
          "internalType": "uint256",
          "name": "",
          "type": "uint256"
        }
      ],
      "stateMutability": "nonpayable",
      "type": "function"
    },
    {
      "inputs": [
        {
          "internalType": "uint256",
          "name": "id",
          "type": "uint256"
        },
        {
          "internalType": "uint256",
          "name": "credits",
          "type": "uint256"
        }
      ],
      "name": "updateCourse",
      "outputs": [],
      "stateMutability": "nonpayable",
      "type": "function"
    },
    {
      "inputs": [
        {
          "internalType": "uint256",
          "name": "id",
          "type": "uint256"
        }
      ],
      "name": "getClassById",
      "outputs": [
        {
          "components": [
            {
              "internalType": "uint256",
              "name": "id",
              "type": "uint256"
            },
            {
              "internalType": "uint256",
              "name": "courseId",
              "type": "uint256"
            },
            {
              "internalType": "uint256",
              "name": "knowledgeBlockId",
              "type": "uint256"
            },
            {
              "internalType": "uint256",
              "name": "prevCourseId",
              "type": "uint256"
            },
            {
              "internalType": "uint256",
              "name": "credits",
              "type": "uint256"
            },
            {
              "internalType": "uint256",
              "name": "registeredStartAt",
              "type": "uint256"
            },
            {
              "internalType": "uint256",
              "name": "registeredEndAt",
              "type": "uint256"
            },
            {
              "internalType": "uint256",
              "name": "completeAt",
              "type": "uint256"
            },
            {
              "internalType": "uint256",
              "name": "maxSize",
              "type": "uint256"
            },
            {
              "internalType": "uint256",
              "name": "teacherTokenId",
              "type": "uint256"
            },
            {
              "internalType": "string",
              "name": "uri",
              "type": "string"
            }
          ],
          "internalType": "struct IConstant.Class",
          "name": "",
          "type": "tuple"
        }
      ],
      "stateMutability": "view",
      "type": "function",
      "constant": true
    },
    {
      "inputs": [],
      "name": "getAllClasses",
      "outputs": [
        {
          "components": [
            {
              "internalType": "uint256",
              "name": "id",
              "type": "uint256"
            },
            {
              "internalType": "uint256",
              "name": "courseId",
              "type": "uint256"
            },
            {
              "internalType": "uint256",
              "name": "knowledgeBlockId",
              "type": "uint256"
            },
            {
              "internalType": "uint256",
              "name": "prevCourseId",
              "type": "uint256"
            },
            {
              "internalType": "uint256",
              "name": "credits",
              "type": "uint256"
            },
            {
              "internalType": "uint256",
              "name": "registeredStartAt",
              "type": "uint256"
            },
            {
              "internalType": "uint256",
              "name": "registeredEndAt",
              "type": "uint256"
            },
            {
              "internalType": "uint256",
              "name": "completeAt",
              "type": "uint256"
            },
            {
              "internalType": "uint256",
              "name": "maxSize",
              "type": "uint256"
            },
            {
              "internalType": "uint256",
              "name": "teacherTokenId",
              "type": "uint256"
            },
            {
              "internalType": "string",
              "name": "uri",
              "type": "string"
            }
          ],
          "internalType": "struct IConstant.Class[]",
          "name": "",
          "type": "tuple[]"
        }
      ],
      "stateMutability": "view",
      "type": "function",
      "constant": true
    },
    {
      "inputs": [],
      "name": "getCurrentRegisteredClasses",
      "outputs": [
        {
          "components": [
            {
              "internalType": "uint256",
              "name": "id",
              "type": "uint256"
            },
            {
              "internalType": "uint256",
              "name": "courseId",
              "type": "uint256"
            },
            {
              "internalType": "uint256",
              "name": "knowledgeBlockId",
              "type": "uint256"
            },
            {
              "internalType": "uint256",
              "name": "prevCourseId",
              "type": "uint256"
            },
            {
              "internalType": "uint256",
              "name": "credits",
              "type": "uint256"
            },
            {
              "internalType": "uint256",
              "name": "registeredStartAt",
              "type": "uint256"
            },
            {
              "internalType": "uint256",
              "name": "registeredEndAt",
              "type": "uint256"
            },
            {
              "internalType": "uint256",
              "name": "completeAt",
              "type": "uint256"
            },
            {
              "internalType": "uint256",
              "name": "maxSize",
              "type": "uint256"
            },
            {
              "internalType": "uint256",
              "name": "teacherTokenId",
              "type": "uint256"
            },
            {
              "internalType": "string",
              "name": "uri",
              "type": "string"
            }
          ],
          "internalType": "struct IConstant.Class[]",
          "name": "",
          "type": "tuple[]"
        }
      ],
      "stateMutability": "view",
      "type": "function",
      "constant": true
    },
    {
      "inputs": [
        {
          "internalType": "uint256",
          "name": "courseId",
          "type": "uint256"
        },
        {
          "internalType": "uint256",
          "name": "completeAt",
          "type": "uint256"
        },
        {
          "internalType": "uint256",
          "name": "maxSize",
          "type": "uint256"
        },
        {
          "internalType": "uint256",
          "name": "teacherTokenId",
          "type": "uint256"
        },
        {
          "internalType": "string",
          "name": "uri",
          "type": "string"
        }
      ],
      "name": "createClass",
      "outputs": [
        {
          "internalType": "uint256",
          "name": "",
          "type": "uint256"
        }
      ],
      "stateMutability": "nonpayable",
      "type": "function"
    },
    {
      "inputs": [],
      "name": "getRegisteredClasses",
      "outputs": [
        {
          "components": [
            {
              "components": [
                {
                  "internalType": "uint256",
                  "name": "tokenId",
                  "type": "uint256"
                },
                {
                  "internalType": "uint256",
                  "name": "classId",
                  "type": "uint256"
                },
                {
                  "internalType": "uint256",
                  "name": "studentTokenId",
                  "type": "uint256"
                }
              ],
              "internalType": "struct IConstant.NftClassRegistration",
              "name": "nftClassRegistration",
              "type": "tuple"
            },
            {
              "components": [
                {
                  "internalType": "uint256",
                  "name": "id",
                  "type": "uint256"
                },
                {
                  "internalType": "uint256",
                  "name": "courseId",
                  "type": "uint256"
                },
                {
                  "internalType": "uint256",
                  "name": "knowledgeBlockId",
                  "type": "uint256"
                },
                {
                  "internalType": "uint256",
                  "name": "prevCourseId",
                  "type": "uint256"
                },
                {
                  "internalType": "uint256",
                  "name": "credits",
                  "type": "uint256"
                },
                {
                  "internalType": "uint256",
                  "name": "registeredStartAt",
                  "type": "uint256"
                },
                {
                  "internalType": "uint256",
                  "name": "registeredEndAt",
                  "type": "uint256"
                },
                {
                  "internalType": "uint256",
                  "name": "completeAt",
                  "type": "uint256"
                },
                {
                  "internalType": "uint256",
                  "name": "maxSize",
                  "type": "uint256"
                },
                {
                  "internalType": "uint256",
                  "name": "teacherTokenId",
                  "type": "uint256"
                },
                {
                  "internalType": "string",
                  "name": "uri",
                  "type": "string"
                }
              ],
              "internalType": "struct IConstant.Class",
              "name": "class",
              "type": "tuple"
            },
            {
              "internalType": "string",
              "name": "tokenURI",
              "type": "string"
            }
          ],
          "internalType": "struct IConstant.NftClassRegistrationResponse[]",
          "name": "",
          "type": "tuple[]"
        }
      ],
      "stateMutability": "view",
      "type": "function",
      "constant": true
    },
    {
      "inputs": [
        {
          "internalType": "uint256",
          "name": "tokenId",
          "type": "uint256"
        }
      ],
      "name": "getNftClassRegistration",
      "outputs": [
        {
          "components": [
            {
              "internalType": "uint256",
              "name": "tokenId",
              "type": "uint256"
            },
            {
              "internalType": "uint256",
              "name": "classId",
              "type": "uint256"
            },
            {
              "internalType": "uint256",
              "name": "studentTokenId",
              "type": "uint256"
            }
          ],
          "internalType": "struct IConstant.NftClassRegistration",
          "name": "",
          "type": "tuple"
        }
      ],
      "stateMutability": "view",
      "type": "function",
      "constant": true
    },
    {
      "inputs": [
        {
          "internalType": "uint256",
          "name": "classId",
          "type": "uint256"
        },
        {
          "internalType": "string",
          "name": "uri",
          "type": "string"
        }
      ],
      "name": "registerClass",
      "outputs": [],
      "stateMutability": "payable",
      "type": "function",
      "payable": true
    },
    {
      "inputs": [
        {
          "internalType": "uint256",
          "name": "tokenId",
          "type": "uint256"
        },
        {
          "internalType": "uint256",
          "name": "requiredType",
          "type": "uint256"
        }
      ],
      "name": "checkTokenOfTypeExists",
      "outputs": [
        {
          "internalType": "bool",
          "name": "",
          "type": "bool"
        }
      ],
      "stateMutability": "view",
      "type": "function",
      "constant": true
    },
    {
      "inputs": [
        {
          "internalType": "uint256",
          "name": "currentRegisterTimeId",
          "type": "uint256"
        }
      ],
      "name": "checkInRegisterDate",
      "outputs": [
        {
          "internalType": "bool",
          "name": "",
          "type": "bool"
        }
      ],
      "stateMutability": "view",
      "type": "function",
      "constant": true
    }
  ],
  "bytecode": "0x608060405260405180602001604052806000815250600390805190602001906200002b92919062000227565b506101f46009556706f05b59d3b20000600d553480156200004b57600080fd5b50604051620068bc380380620068bc8339818101604052810190620000719190620006e6565b604051806020016040528060008152508062000093816200020b60201b60201c565b5033600560006101000a81548173ffffffffffffffffffffffffffffffffffffffff021916908373ffffffffffffffffffffffffffffffffffffffff1602179055505082600b60006101000a81548173ffffffffffffffffffffffffffffffffffffffff021916908373ffffffffffffffffffffffffffffffffffffffff16021790555060008251905060005b81811015620002005760146040518060600160405280600184620001459190620007af565b815260200186848151811062000160576200015f6200080c565b5b602002602001015181526020018584815181106200018357620001826200080c565b5b60200260200101518152509080600181540180825580915050600190039060005260206000209060030201600090919091909150600082015181600001556020820151816001019080519060200190620001df92919062000227565b5060408201518160020155505080620001f8906200083b565b905062000120565b5050505050620008ec565b80600290805190602001906200022392919062000227565b5050565b8280546200023590620008b7565b90600052602060002090601f016020900481019282620002595760008555620002a5565b82601f106200027457805160ff1916838001178555620002a5565b82800160010185558215620002a5579182015b82811115620002a457825182559160200191906001019062000287565b5b509050620002b49190620002b8565b5090565b5b80821115620002d3576000816000905550600101620002b9565b5090565b6000604051905090565b600080fd5b600080fd5b600073ffffffffffffffffffffffffffffffffffffffff82169050919050565b60006200031882620002eb565b9050919050565b6200032a816200030b565b81146200033657600080fd5b50565b6000815190506200034a816200031f565b92915050565b600080fd5b6000601f19601f8301169050919050565b7f4e487b7100000000000000000000000000000000000000000000000000000000600052604160045260246000fd5b620003a08262000355565b810181811067ffffffffffffffff82111715620003c257620003c162000366565b5b80604052505050565b6000620003d7620002d7565b9050620003e5828262000395565b919050565b600067ffffffffffffffff82111562000408576200040762000366565b5b602082029050602081019050919050565b600080fd5b600080fd5b600067ffffffffffffffff82111562000441576200044062000366565b5b6200044c8262000355565b9050602081019050919050565b60005b83811015620004795780820151818401526020810190506200045c565b8381111562000489576000848401525b50505050565b6000620004a6620004a08462000423565b620003cb565b905082815260208101848484011115620004c557620004c46200041e565b5b620004d284828562000459565b509392505050565b600082601f830112620004f257620004f162000350565b5b8151620005048482602086016200048f565b91505092915050565b6000620005246200051e84620003ea565b620003cb565b905080838252602082019050602084028301858111156200054a576200054962000419565b5b835b818110156200059857805167ffffffffffffffff81111562000573576200057262000350565b5b808601620005828982620004da565b855260208501945050506020810190506200054c565b5050509392505050565b600082601f830112620005ba57620005b962000350565b5b8151620005cc8482602086016200050d565b91505092915050565b600067ffffffffffffffff821115620005f357620005f262000366565b5b602082029050602081019050919050565b6000819050919050565b620006198162000604565b81146200062557600080fd5b50565b60008151905062000639816200060e565b92915050565b6000620006566200065084620005d5565b620003cb565b905080838252602082019050602084028301858111156200067c576200067b62000419565b5b835b81811015620006a9578062000694888262000628565b8452602084019350506020810190506200067e565b5050509392505050565b600082601f830112620006cb57620006ca62000350565b5b8151620006dd8482602086016200063f565b91505092915050565b600080600060608486031215620007025762000701620002e1565b5b6000620007128682870162000339565b935050602084015167ffffffffffffffff811115620007365762000735620002e6565b5b6200074486828701620005a2565b925050604084015167ffffffffffffffff811115620007685762000767620002e6565b5b6200077686828701620006b3565b9150509250925092565b7f4e487b7100000000000000000000000000000000000000000000000000000000600052601160045260246000fd5b6000620007bc8262000604565b9150620007c98362000604565b9250827fffffffffffffffffffffffffffffffffffffffffffffffffffffffffffffffff0382111562000801576200080062000780565b5b828201905092915050565b7f4e487b7100000000000000000000000000000000000000000000000000000000600052603260045260246000fd5b6000620008488262000604565b91507fffffffffffffffffffffffffffffffffffffffffffffffffffffffffffffffff82036200087d576200087c62000780565b5b600182019050919050565b7f4e487b7100000000000000000000000000000000000000000000000000000000600052602260045260246000fd5b60006002820490506001821680620008d057607f821691505b602082108103620008e657620008e562000888565b5b50919050565b615fc080620008fc6000396000f3fe6080604052600436106101d75760003560e01c80635fe0377911610102578063b5bee31711610095578063e38e8a1b11610064578063e38e8a1b14610725578063e985e9c514610762578063ea5b210f1461079f578063f242432a146107dc576101d7565b8063b5bee31714610678578063bdb566c014610694578063c4d66de8146106d1578063e04ac318146106fa576101d7565b80639742d964116100d15780639742d964146105aa578063a22cb465146105e7578063a24a7c3014610610578063b564529f1461064d576101d7565b80635fe03779146104ec5780636bda75dd146105175780636d6ffaf61461054257806390be3d4f1461056d576101d7565b80631a53e4841161017a5780634799f19d116101495780634799f19d1461040a5780634e1273f41461044757806356cbf41f146104845780635f7b9d73146104c1576101d7565b80631a53e4841461035257806328abafe81461038f57806329f60c4f146103b85780632eb2c2d6146103e1576101d7565b806304e48bd1116101b657806304e48bd1146102935780630e89341c146102be5780630eb36321146102fb57806313a0967914610327576101d7565b8062fdd58e146101dc57806301ffc9a71461021957806303d658e014610256575b600080fd5b3480156101e857600080fd5b5061020360048036038101906101fe9190613d66565b610805565b6040516102109190613db5565b60405180910390f35b34801561022557600080fd5b50610240600480360381019061023b9190613e28565b6108cd565b60405161024d9190613e70565b60405180910390f35b34801561026257600080fd5b5061027d60048036038101906102789190613e8b565b6109af565b60405161028a919061404f565b60405180910390f35b34801561029f57600080fd5b506102a8610b14565b6040516102b591906141bc565b60405180910390f35b3480156102ca57600080fd5b506102e560048036038101906102e09190613e8b565b610c91565b6040516102f29190614228565b60405180910390f35b34801561030757600080fd5b50610310610d76565b60405161031e92919061424a565b60405180910390f35b34801561033357600080fd5b5061033c610db8565b6040516103499190613db5565b60405180910390f35b34801561035e57600080fd5b5061037960048036038101906103749190614273565b610dbe565b6040516103869190613e70565b60405180910390f35b34801561039b57600080fd5b506103b660048036038101906103b19190614273565b610e0e565b005b3480156103c457600080fd5b506103df60048036038101906103da9190614273565b610f41565b005b3480156103ed57600080fd5b50610408600480360381019061040391906144b0565b61103a565b005b34801561041657600080fd5b50610431600480360381019061042c9190613e8b565b6110db565b60405161043e91906145cf565b60405180910390f35b34801561045357600080fd5b5061046e600480360381019061046991906146b4565b6111c9565b60405161047b91906147db565b60405180910390f35b34801561049057600080fd5b506104ab60048036038101906104a69190613e8b565b6112e2565b6040516104b89190613e70565b60405180910390f35b3480156104cd57600080fd5b506104d6611321565b6040516104e3919061490f565b60405180910390f35b3480156104f857600080fd5b50610501611426565b60405161050e9190613db5565b60405180910390f35b34801561052357600080fd5b5061052c61142c565b6040516105399190614ae2565b60405180910390f35b34801561054e57600080fd5b506105576115dc565b6040516105649190614c5f565b60405180910390f35b34801561057957600080fd5b50610594600480360381019061058f9190614d22565b61180a565b6040516105a19190614df4565b60405180910390f35b3480156105b657600080fd5b506105d160048036038101906105cc9190614d22565b611858565b6040516105de9190613db5565b60405180910390f35b3480156105f357600080fd5b5061060e60048036038101906106099190614e42565b611892565b005b34801561061c57600080fd5b5061063760048036038101906106329190613e8b565b6118a8565b6040516106449190614ec4565b60405180910390f35b34801561065957600080fd5b50610662611934565b60405161066f9190613e70565b60405180910390f35b610692600480360381019061068d9190614edf565b611947565b005b3480156106a057600080fd5b506106bb60048036038101906106b69190614f3b565b611cb4565b6040516106c89190613db5565b60405180910390f35b3480156106dd57600080fd5b506106f860048036038101906106f39190614fd2565b611fcb565b005b34801561070657600080fd5b5061070f61209e565b60405161071c9190614ae2565b60405180910390f35b34801561073157600080fd5b5061074c60048036038101906107479190614fff565b612127565b6040516107599190613db5565b60405180910390f35b34801561076e57600080fd5b5061078960048036038101906107849190615082565b612320565b6040516107969190613e70565b60405180910390f35b3480156107ab57600080fd5b506107c660048036038101906107c19190613e8b565b6123b4565b6040516107d39190614df4565b60405180910390f35b3480156107e857600080fd5b5061080360048036038101906107fe91906150c2565b6124e6565b005b60008073ffffffffffffffffffffffffffffffffffffffff168373ffffffffffffffffffffffffffffffffffffffff1603610875576040517f08c379a000000000000000000000000000000000000000000000000000000000815260040161086c906151cb565b60405180910390fd5b60008083815260200190815260200160002060008473ffffffffffffffffffffffffffffffffffffffff1673ffffffffffffffffffffffffffffffffffffffff16815260200190815260200160002054905092915050565b60007fd9b67a26000000000000000000000000000000000000000000000000000000007bffffffffffffffffffffffffffffffffffffffffffffffffffffffff1916827bffffffffffffffffffffffffffffffffffffffffffffffffffffffff1916148061099857507f0e89341c000000000000000000000000000000000000000000000000000000007bffffffffffffffffffffffffffffffffffffffffffffffffffffffff1916827bffffffffffffffffffffffffffffffffffffffffffffffffffffffff1916145b806109a857506109a782612587565b5b9050919050565b6109b7613b1c565b600060166000848152602001908152602001600020549050600081116109dc57600080fd5b60156001826109eb919061521a565b815481106109fc576109fb61524e565b5b90600052602060002090600b02016040518061016001604052908160008201548152602001600182015481526020016002820154815260200160038201548152602001600482015481526020016005820154815260200160068201548152602001600782015481526020016008820154815260200160098201548152602001600a82018054610a8a906152ac565b80601f0160208091040260200160405190810160405280929190818152602001828054610ab6906152ac565b8015610b035780601f10610ad857610100808354040283529160200191610b03565b820191906000526020600020905b815481529060010190602001808311610ae657829003601f168201915b505050505081525050915050919050565b60603373ffffffffffffffffffffffffffffffffffffffff16600560009054906101000a900473ffffffffffffffffffffffffffffffffffffffff1673ffffffffffffffffffffffffffffffffffffffff1614610b7057600080fd5b6012805480602002602001604051908101604052809291908181526020016000905b82821015610c8857838290600052602060002090600602016040518060c00160405290816000820154815260200160018201548152602001600282015481526020016003820154815260200160048201548152602001600582018054610bf7906152ac565b80601f0160208091040260200160405190810160405280929190818152602001828054610c23906152ac565b8015610c705780601f10610c4557610100808354040283529160200191610c70565b820191906000526020600020905b815481529060010190602001808311610c5357829003601f168201915b50505050508152505081526020019060010190610b92565b50505050905090565b60606000600460008481526020019081526020016000208054610cb3906152ac565b80601f0160208091040260200160405190810160405280929190818152602001828054610cdf906152ac565b8015610d2c5780601f10610d0157610100808354040283529160200191610d2c565b820191906000526020600020905b815481529060010190602001808311610d0f57829003601f168201915b505050505090506000815111610d4a57610d45836125f1565b610d6e565b600381604051602001610d5e9291906153ad565b6040516020818303038152906040525b915050919050565b6000806000610d856003612685565b9050600e600082815260200190815260200160002054600f60008381526020019081526020016000205492509250509091565b600d5481565b600080610dca846126a2565b90506000601c60008381526020019081526020016000206000868152602001908152602001600020549050600081118015610e0457508382145b9250505092915050565b3373ffffffffffffffffffffffffffffffffffffffff16600560009054906101000a900473ffffffffffffffffffffffffffffffffffffffff1673ffffffffffffffffffffffffffffffffffffffff1614610e6857600080fd5b60008111610eab576040517f08c379a0000000000000000000000000000000000000000000000000000000008152600401610ea29061541d565b60405180910390fd5b60006013600084815260200190815260200160002054905060008111610f06576040517f08c379a0000000000000000000000000000000000000000000000000000000008152600401610efd90615489565b60405180910390fd5b816012600183610f16919061521a565b81548110610f2757610f2661524e565b5b906000526020600020906006020160030181905550505050565b3373ffffffffffffffffffffffffffffffffffffffff16600560009054906101000a900473ffffffffffffffffffffffffffffffffffffffff1673ffffffffffffffffffffffffffffffffffffffff1614610f9b57600080fd5b6000610fa76003612685565b9050600060106000838152602001908152602001600020805490501480610fe1575042600f60008381526020019081526020016000205411155b610fea57600080fd5b828211610ff657600080fd5b600061100260036126b0565b905083600e60008381526020019081526020016000208190555082600f60008381526020019081526020016000208190555050505050565b6110426126f8565b73ffffffffffffffffffffffffffffffffffffffff168573ffffffffffffffffffffffffffffffffffffffff1614806110885750611087856110826126f8565b612320565b5b6110c7576040517f08c379a00000000000000000000000000000000000000000000000000000000081526004016110be9061551b565b60405180910390fd5b6110d48585858585612700565b5050505050565b6110e3613b76565b60146001836110f2919061521a565b815481106111035761110261524e565b5b906000526020600020906003020160405180606001604052908160008201548152602001600182018054611136906152ac565b80601f0160208091040260200160405190810160405280929190818152602001828054611162906152ac565b80156111af5780601f10611184576101008083540402835291602001916111af565b820191906000526020600020905b81548152906001019060200180831161119257829003601f168201915b505050505081526020016002820154815250509050919050565b6060815183511461120f576040517f08c379a0000000000000000000000000000000000000000000000000000000008152600401611206906155ad565b60405180910390fd5b6000835167ffffffffffffffff81111561122c5761122b6142b8565b5b60405190808252806020026020018201604052801561125a5781602001602082028036833780820191505090505b50905060005b84518110156112d7576112a785828151811061127f5761127e61524e565b5b602002602001015185838151811061129a5761129961524e565b5b6020026020010151610805565b8282815181106112ba576112b961524e565b5b602002602001018181525050806112d0906155cd565b9050611260565b508091505092915050565b6000600e600083815260200190815260200160002054421015801561131a5750600f6000838152602001908152602001600020544211155b9050919050565b60606014805480602002602001604051908101604052809291908181526020016000905b8282101561141d578382906000526020600020906003020160405180606001604052908160008201548152602001600182018054611382906152ac565b80601f01602080910402602001604051908101604052809291908181526020018280546113ae906152ac565b80156113fb5780601f106113d0576101008083540402835291602001916113fb565b820191906000526020600020905b8154815290600101906020018083116113de57829003601f168201915b5050505050815260200160028201548152505081526020019060010190611345565b50505050905090565b60095481565b60603373ffffffffffffffffffffffffffffffffffffffff16600560009054906101000a900473ffffffffffffffffffffffffffffffffffffffff1673ffffffffffffffffffffffffffffffffffffffff161461148857600080fd5b6015805480602002602001604051908101604052809291908181526020016000905b828210156115d357838290600052602060002090600b02016040518061016001604052908160008201548152602001600182015481526020016002820154815260200160038201548152602001600482015481526020016005820154815260200160068201548152602001600782015481526020016008820154815260200160098201548152602001600a82018054611542906152ac565b80601f016020809104026020016040519081016040528092919081815260200182805461156e906152ac565b80156115bb5780601f10611590576101008083540402835291602001916115bb565b820191906000526020600020905b81548152906001019060200180831161159e57829003601f168201915b505050505081525050815260200190600101906114aa565b50505050905090565b60606000600b60009054906101000a900473ffffffffffffffffffffffffffffffffffffffff1673ffffffffffffffffffffffffffffffffffffffff166352db77c46000600181111561163257611631615615565b5b336040518363ffffffff1660e01b8152600401611650929190615653565b600060405180830381865afa15801561166d573d6000803e3d6000fd5b505050506040513d6000823e3d601f19601f82011682018060405250810190611696919061582d565b90506000816000015160000151905060006019600083815260200190815260200160002080548060200260200160405190810160405280929190818152602001828054801561170457602002820191906000526020600020905b8154815260200190600101908083116116f0575b5050505050905060008151905060008167ffffffffffffffff81111561172d5761172c6142b8565b5b60405190808252806020026020018201604052801561176657816020015b611753613b97565b81526020019060019003908161174b5790505b50905060005b828110156117fe57600061179985838151811061178c5761178b61524e565b5b60200260200101516118a8565b905060405180606001604052808281526020016117b983602001516109af565b81526020016117cb8360000151610c91565b8152508383815181106117e1576117e061524e565b5b602002602001018190525050806117f7906155cd565b905061176c565b50809550505050505090565b611812613bc4565b60006011600060018152602001908152602001600020836040516118369190615876565b9081526020016040518091039020549050611850816123b4565b915050919050565b600060116000600181526020019081526020016000208260405161187c9190615876565b9081526020016040518091039020549050919050565b6118a461189d6126f8565b8383612a21565b5050565b6118b0613bfa565b600060186000848152602001908152602001600020549050600081116118d557600080fd5b60176001826118e4919061521a565b815481106118f5576118f461524e565b5b90600052602060002090600302016040518060600160405290816000820154815260200160018201548152602001600282015481525050915050919050565b600c60149054906101000a900460ff1681565b6000600b60009054906101000a900473ffffffffffffffffffffffffffffffffffffffff1673ffffffffffffffffffffffffffffffffffffffff166352db77c46000600181111561199b5761199a615615565b5b336040518363ffffffff1660e01b81526004016119b9929190615653565b600060405180830381865afa1580156119d6573d6000803e3d6000fd5b505050506040513d6000823e3d601f19601f820116820180604052508101906119ff919061582d565b9050600081600001516000015190506000611a19856109af565b9050826060015115611a2a57600080fd5b806101000151601b6000836000015181526020019081526020016000208054905010611a5557600080fd5b8060a00151421015611a6657600080fd5b8060c00151421115611a7757600080fd5b600081606001511480611b285750600c60009054906101000a900473ffffffffffffffffffffffffffffffffffffffff1673ffffffffffffffffffffffffffffffffffffffff16636eabe75f8260600151336040518363ffffffff1660e01b8152600401611ae6929190615653565b602060405180830381865afa158015611b03573d6000803e3d6000fd5b505050506040513d601f19601f82011682018060405250810190611b27919061588d565b5b611b3157600080fd5b6000601a60008481526020019081526020016000206000836020015181526020019081526020016000205414611b6657600080fd5b600d543414611b7457600080fd5b6000611b8233600087612b8d565b905060176040518060600160405280838152602001888152602001858152509080600181540180825580915050600190039060005260206000209060030201600090919091909150600082015181600001556020820151816001015560408201518160020155505060178054905060186000838152602001908152602001600020819055506019600084815260200190815260200160002081908060018154018082558091505060019003906000526020600020016000909190919091505580601a600085815260200190815260200160002060008460200151815260200190815260200160002081905550601b600083600001518152602001908152602001600020819080600181540180825580915050600190039060005260206000200160009091909190915055505050505050565b60003373ffffffffffffffffffffffffffffffffffffffff16600560009054906101000a900473ffffffffffffffffffffffffffffffffffffffff1673ffffffffffffffffffffffffffffffffffffffff1614611d1057600080fd5b6000611d1b876123b4565b90506000611d296003612685565b90506000600b60009054906101000a900473ffffffffffffffffffffffffffffffffffffffff1673ffffffffffffffffffffffffffffffffffffffff166376aed2e1876040518263ffffffff1660e01b8152600401611d889190613db5565b602060405180830381865afa158015611da5573d6000803e3d6000fd5b505050506040513d601f19601f82011682018060405250810190611dc991906158ba565b9050600f6000838152602001908152602001600020548811611dea57600080fd5b42600f60008481526020019081526020016000205411611e0957600080fd5b600180811115611e1c57611e1b615615565b5b8114611e2757600080fd5b6000611e3360026126b0565b905060156040518061016001604052808381526020018c8152602001866020015181526020018660400151815260200186606001518152602001600e6000878152602001908152602001600020548152602001600f60008781526020019081526020016000205481526020018b81526020018a81526020018981526020018881525090806001815401808255809150506001900390600052602060002090600b0201600090919091909150600082015181600001556020820151816001015560408201518160020155606082015181600301556080820151816004015560a0820151816005015560c0820151816006015560e082015181600701556101008201518160080155610120820151816009015561014082015181600a019080519060200190611f61929190613c1b565b5050506015805490506016600083815260200190815260200160002081905550601060008481526020019081526020016000208190806001815401808255809150506001900390600052602060002001600090919091909150558094505050505095945050505050565b3373ffffffffffffffffffffffffffffffffffffffff16600560009054906101000a900473ffffffffffffffffffffffffffffffffffffffff1673ffffffffffffffffffffffffffffffffffffffff161461202557600080fd5b600c60149054906101000a900460ff161561203f57600080fd5b6001600c60146101000a81548160ff02191690831515021790555080600c60006101000a81548173ffffffffffffffffffffffffffffffffffffffff021916908373ffffffffffffffffffffffffffffffffffffffff16021790555050565b606060006120ac6003612685565b9050600560009054906101000a900473ffffffffffffffffffffffffffffffffffffffff1673ffffffffffffffffffffffffffffffffffffffff163373ffffffffffffffffffffffffffffffffffffffff16148061210f575061210e816112e2565b5b61211857600080fd5b61212181612c02565b91505090565b60003373ffffffffffffffffffffffffffffffffffffffff16600560009054906101000a900473ffffffffffffffffffffffffffffffffffffffff1673ffffffffffffffffffffffffffffffffffffffff161461218357600080fd5b60148054905084111561219557600080fd5b600083116121a257600080fd5b60008514806121c4575060006013600087815260200190815260200160002054115b6121cd57600080fd5b60006011600060018152602001908152602001600020836040516121f19190615876565b9081526020016040518091039020541461220a57600080fd5b600061221660016126b0565b905060126040518060c0016040528083815260200187815260200188815260200186815260200160018152602001858152509080600181540180825580915050600190039060005260206000209060060201600090919091909150600082015181600001556020820151816001015560408201518160020155606082015181600301556080820151816004015560a08201518160050190805190602001906122bf929190613c1b565b505050806011600060018152602001908152602001600020846040516122e59190615876565b908152602001604051809103902081905550601280549050601360008381526020019081526020016000208190555080915050949350505050565b6000600160008473ffffffffffffffffffffffffffffffffffffffff1673ffffffffffffffffffffffffffffffffffffffff16815260200190815260200160002060008373ffffffffffffffffffffffffffffffffffffffff1673ffffffffffffffffffffffffffffffffffffffff16815260200190815260200160002060009054906101000a900460ff16905092915050565b6123bc613bc4565b600060136000848152602001908152602001600020549050600081116123e157600080fd5b60126001826123f0919061521a565b815481106124015761240061524e565b5b90600052602060002090600602016040518060c0016040529081600082015481526020016001820154815260200160028201548152602001600382015481526020016004820154815260200160058201805461245c906152ac565b80601f0160208091040260200160405190810160405280929190818152602001828054612488906152ac565b80156124d55780601f106124aa576101008083540402835291602001916124d5565b820191906000526020600020905b8154815290600101906020018083116124b857829003601f168201915b505050505081525050915050919050565b6124ee6126f8565b73ffffffffffffffffffffffffffffffffffffffff168573ffffffffffffffffffffffffffffffffffffffff16148061253457506125338561252e6126f8565b612320565b5b612573576040517f08c379a000000000000000000000000000000000000000000000000000000000815260040161256a9061551b565b60405180910390fd5b6125808585858585612e71565b5050505050565b60007f01ffc9a7000000000000000000000000000000000000000000000000000000007bffffffffffffffffffffffffffffffffffffffffffffffffffffffff1916827bffffffffffffffffffffffffffffffffffffffffffffffffffffffff1916149050919050565b606060028054612600906152ac565b80601f016020809104026020016040519081016040528092919081815260200182805461262c906152ac565b80156126795780601f1061264e57610100808354040283529160200191612679565b820191906000526020600020905b81548152906001019060200180831161265c57829003601f168201915b50505050509050919050565b600060086000838152602001908152602001600020549050919050565b6000601082901c9050919050565b600060016008600084815260200190815260200160002060008282546126d691906158e7565b9250508190555060086000838152602001908152602001600020549050919050565b600033905090565b8151835114612744576040517f08c379a000000000000000000000000000000000000000000000000000000000815260040161273b906159af565b60405180910390fd5b600073ffffffffffffffffffffffffffffffffffffffff168473ffffffffffffffffffffffffffffffffffffffff16036127b3576040517f08c379a00000000000000000000000000000000000000000000000000000000081526004016127aa90615a41565b60405180910390fd5b60006127bd6126f8565b90506127cd81878787878761310c565b60005b845181101561297e5760008582815181106127ee576127ed61524e565b5b60200260200101519050600085838151811061280d5761280c61524e565b5b60200260200101519050600080600084815260200190815260200160002060008b73ffffffffffffffffffffffffffffffffffffffff1673ffffffffffffffffffffffffffffffffffffffff168152602001908152602001600020549050818110156128ae576040517f08c379a00000000000000000000000000000000000000000000000000000000081526004016128a590615ad3565b60405180910390fd5b81810360008085815260200190815260200160002060008c73ffffffffffffffffffffffffffffffffffffffff1673ffffffffffffffffffffffffffffffffffffffff168152602001908152602001600020819055508160008085815260200190815260200160002060008b73ffffffffffffffffffffffffffffffffffffffff1673ffffffffffffffffffffffffffffffffffffffff168152602001908152602001600020600082825461296391906158e7565b9250508190555050505080612977906155cd565b90506127d0565b508473ffffffffffffffffffffffffffffffffffffffff168673ffffffffffffffffffffffffffffffffffffffff168273ffffffffffffffffffffffffffffffffffffffff167f4a39dc06d4c0dbc64b70af90fd698a233a518aa5d07e595d983b8c0526c8f7fb87876040516129f5929190615af3565b60405180910390a4612a0b818787878787613436565b612a1981878787878761343e565b505050505050565b8173ffffffffffffffffffffffffffffffffffffffff168373ffffffffffffffffffffffffffffffffffffffff1603612a8f576040517f08c379a0000000000000000000000000000000000000000000000000000000008152600401612a8690615b9c565b60405180910390fd5b80600160008573ffffffffffffffffffffffffffffffffffffffff1673ffffffffffffffffffffffffffffffffffffffff16815260200190815260200160002060008473ffffffffffffffffffffffffffffffffffffffff1673ffffffffffffffffffffffffffffffffffffffff16815260200190815260200160002060006101000a81548160ff0219169083151502179055508173ffffffffffffffffffffffffffffffffffffffff168373ffffffffffffffffffffffffffffffffffffffff167f17307eab39ab6107e8899845ad3d59bd9653f200f220920489ca2b5937696c3183604051612b809190613e70565b60405180910390a3505050565b600080612b9984613615565b9050612bed858260016000368080601f016020809104026020016040519081016040528093929190818152602001838380828437600081840152601f19601f82011690508083019250505050505050613660565b612bf78184613810565b809150509392505050565b6060600060106000848152602001908152602001600020805480602002602001604051908101604052809291908181526020018280548015612c6357602002820191906000526020600020905b815481526020019060010190808311612c4f575b5050505050905060008151905060008167ffffffffffffffff811115612c8c57612c8b6142b8565b5b604051908082528060200260200182016040528015612cc557816020015b612cb2613b1c565b815260200190600190039081612caa5790505b50905060005b82811015612e6557600060166000868481518110612cec57612ceb61524e565b5b602002602001015181526020019081526020016000205490506015600182612d14919061521a565b81548110612d2557612d2461524e565b5b90600052602060002090600b02016040518061016001604052908160008201548152602001600182015481526020016002820154815260200160038201548152602001600482015481526020016005820154815260200160068201548152602001600782015481526020016008820154815260200160098201548152602001600a82018054612db3906152ac565b80601f0160208091040260200160405190810160405280929190818152602001828054612ddf906152ac565b8015612e2c5780601f10612e0157610100808354040283529160200191612e2c565b820191906000526020600020905b815481529060010190602001808311612e0f57829003601f168201915b505050505081525050838381518110612e4857612e4761524e565b5b60200260200101819052505080612e5e906155cd565b9050612ccb565b50809350505050919050565b600073ffffffffffffffffffffffffffffffffffffffff168473ffffffffffffffffffffffffffffffffffffffff1603612ee0576040517f08c379a0000000000000000000000000000000000000000000000000000000008152600401612ed790615a41565b60405180910390fd5b6000612eea6126f8565b90506000612ef78561387c565b90506000612f048561387c565b9050612f1483898985858961310c565b600080600088815260200190815260200160002060008a73ffffffffffffffffffffffffffffffffffffffff1673ffffffffffffffffffffffffffffffffffffffff16815260200190815260200160002054905085811015612fab576040517f08c379a0000000000000000000000000000000000000000000000000000000008152600401612fa290615ad3565b60405180910390fd5b85810360008089815260200190815260200160002060008b73ffffffffffffffffffffffffffffffffffffffff1673ffffffffffffffffffffffffffffffffffffffff168152602001908152602001600020819055508560008089815260200190815260200160002060008a73ffffffffffffffffffffffffffffffffffffffff1673ffffffffffffffffffffffffffffffffffffffff168152602001908152602001600020600082825461306091906158e7565b925050819055508773ffffffffffffffffffffffffffffffffffffffff168973ffffffffffffffffffffffffffffffffffffffff168573ffffffffffffffffffffffffffffffffffffffff167fc3d58168c5ae7397731d063d5bbf3d657854427343f4c083240f7aacaa2d0f628a8a6040516130dd92919061424a565b60405180910390a46130f3848a8a86868a613436565b613101848a8a8a8a8a6138f6565b505050505050505050565b61311a868686868686613acd565b600083519050600073ffffffffffffffffffffffffffffffffffffffff168673ffffffffffffffffffffffffffffffffffffffff160361321c5760005b818110156132155760006131848683815181106131775761317661524e565b5b60200260200101516126a2565b9050866007600083815260200190815260200160002060008885815181106131af576131ae61524e565b5b6020026020010151815260200190815260200160002060006101000a81548173ffffffffffffffffffffffffffffffffffffffff021916908373ffffffffffffffffffffffffffffffffffffffff160217905550508061320e906155cd565b9050613157565b505061342e565b600073ffffffffffffffffffffffffffffffffffffffff168573ffffffffffffffffffffffffffffffffffffffff16036132fb5760005b8181116132f457600061327f8683815181106132725761327161524e565b5b60200260200101516126a2565b90506007600082815260200190815260200160002060008784815181106132a9576132a861524e565b5b6020026020010151815260200190815260200160002060006101000a81549073ffffffffffffffffffffffffffffffffffffffff021916905550806132ed906155cd565b9050613253565b505061342e565b600073ffffffffffffffffffffffffffffffffffffffff168673ffffffffffffffffffffffffffffffffffffffff16141580156133655750600073ffffffffffffffffffffffffffffffffffffffff168573ffffffffffffffffffffffffffffffffffffffff1614155b1561342c5760005b81811161342a57600061339986838151811061338c5761338b61524e565b5b60200260200101516126a2565b9050866007600083815260200190815260200160002060008885815181106133c4576133c361524e565b5b6020026020010151815260200190815260200160002060006101000a81548173ffffffffffffffffffffffffffffffffffffffff021916908373ffffffffffffffffffffffffffffffffffffffff1602179055505080613423906155cd565b905061336d565b505b505b505050505050565b505050505050565b61345d8473ffffffffffffffffffffffffffffffffffffffff16613ad5565b1561360d578373ffffffffffffffffffffffffffffffffffffffff1663bc197c8187878686866040518663ffffffff1660e01b81526004016134a3959493929190615c11565b6020604051808303816000875af19250505080156134df57506040513d601f19601f820116820180604052508101906134dc9190615c8e565b60015b613584576134eb615cc8565b806308c379a00361354757506134ff615cea565b8061350a5750613549565b806040517f08c379a000000000000000000000000000000000000000000000000000000000815260040161353e9190614228565b60405180910390fd5b505b6040517f08c379a000000000000000000000000000000000000000000000000000000000815260040161357b90615dec565b60405180910390fd5b63bc197c8160e01b7bffffffffffffffffffffffffffffffffffffffffffffffffffffffff1916817bffffffffffffffffffffffffffffffffffffffffffffffffffffffff19161461360b576040517f08c379a000000000000000000000000000000000000000000000000000000000815260040161360290615e7e565b60405180910390fd5b505b505050505050565b600061363260066000848152602001908152602001600020613af8565b600061364f60066000858152602001908152602001600020613b0e565b905080601084901b17915050919050565b600073ffffffffffffffffffffffffffffffffffffffff168473ffffffffffffffffffffffffffffffffffffffff16036136cf576040517f08c379a00000000000000000000000000000000000000000000000000000000081526004016136c690615f10565b60405180910390fd5b60006136d96126f8565b905060006136e68561387c565b905060006136f38561387c565b90506137048360008985858961310c565b8460008088815260200190815260200160002060008973ffffffffffffffffffffffffffffffffffffffff1673ffffffffffffffffffffffffffffffffffffffff168152602001908152602001600020600082825461376391906158e7565b925050819055508673ffffffffffffffffffffffffffffffffffffffff16600073ffffffffffffffffffffffffffffffffffffffff168473ffffffffffffffffffffffffffffffffffffffff167fc3d58168c5ae7397731d063d5bbf3d657854427343f4c083240f7aacaa2d0f6289896040516137e192919061424a565b60405180910390a46137f883600089858589613436565b613807836000898989896138f6565b50505050505050565b80600460008481526020019081526020016000209080519060200190613837929190613c1b565b50817f6bb7ff708619ba0610cba295a58592e0451dee2622938c8755667688daf3529b61386384610c91565b6040516138709190614228565b60405180910390a25050565b60606000600167ffffffffffffffff81111561389b5761389a6142b8565b5b6040519080825280602002602001820160405280156138c95781602001602082028036833780820191505090505b50905082816000815181106138e1576138e061524e565b5b60200260200101818152505080915050919050565b6139158473ffffffffffffffffffffffffffffffffffffffff16613ad5565b15613ac5578373ffffffffffffffffffffffffffffffffffffffff1663f23a6e6187878686866040518663ffffffff1660e01b815260040161395b959493929190615f30565b6020604051808303816000875af192505050801561399757506040513d601f19601f820116820180604052508101906139949190615c8e565b60015b613a3c576139a3615cc8565b806308c379a0036139ff57506139b7615cea565b806139c25750613a01565b806040517f08c379a00000000000000000000000000000000000000000000000000000000081526004016139f69190614228565b60405180910390fd5b505b6040517f08c379a0000000000000000000000000000000000000000000000000000000008152600401613a3390615dec565b60405180910390fd5b63f23a6e6160e01b7bffffffffffffffffffffffffffffffffffffffffffffffffffffffff1916817bffffffffffffffffffffffffffffffffffffffffffffffffffffffff191614613ac3576040517f08c379a0000000000000000000000000000000000000000000000000000000008152600401613aba90615e7e565b60405180910390fd5b505b505050505050565b505050505050565b6000808273ffffffffffffffffffffffffffffffffffffffff163b119050919050565b6001816000016000828254019250508190555050565b600081600001549050919050565b60405180610160016040528060008152602001600081526020016000815260200160008152602001600081526020016000815260200160008152602001600081526020016000815260200160008152602001606081525090565b60405180606001604052806000815260200160608152602001600081525090565b6040518060600160405280613baa613bfa565b8152602001613bb7613b1c565b8152602001606081525090565b6040518060c001604052806000815260200160008152602001600081526020016000815260200160008152602001606081525090565b60405180606001604052806000815260200160008152602001600081525090565b828054613c27906152ac565b90600052602060002090601f016020900481019282613c495760008555613c90565b82601f10613c6257805160ff1916838001178555613c90565b82800160010185558215613c90579182015b82811115613c8f578251825591602001919060010190613c74565b5b509050613c9d9190613ca1565b5090565b5b80821115613cba576000816000905550600101613ca2565b5090565b6000604051905090565b600080fd5b600080fd5b600073ffffffffffffffffffffffffffffffffffffffff82169050919050565b6000613cfd82613cd2565b9050919050565b613d0d81613cf2565b8114613d1857600080fd5b50565b600081359050613d2a81613d04565b92915050565b6000819050919050565b613d4381613d30565b8114613d4e57600080fd5b50565b600081359050613d6081613d3a565b92915050565b60008060408385031215613d7d57613d7c613cc8565b5b6000613d8b85828601613d1b565b9250506020613d9c85828601613d51565b9150509250929050565b613daf81613d30565b82525050565b6000602082019050613dca6000830184613da6565b92915050565b60007fffffffff0000000000000000000000000000000000000000000000000000000082169050919050565b613e0581613dd0565b8114613e1057600080fd5b50565b600081359050613e2281613dfc565b92915050565b600060208284031215613e3e57613e3d613cc8565b5b6000613e4c84828501613e13565b91505092915050565b60008115159050919050565b613e6a81613e55565b82525050565b6000602082019050613e856000830184613e61565b92915050565b600060208284031215613ea157613ea0613cc8565b5b6000613eaf84828501613d51565b91505092915050565b613ec181613d30565b82525050565b600081519050919050565b600082825260208201905092915050565b60005b83811015613f01578082015181840152602081019050613ee6565b83811115613f10576000848401525b50505050565b6000601f19601f8301169050919050565b6000613f3282613ec7565b613f3c8185613ed2565b9350613f4c818560208601613ee3565b613f5581613f16565b840191505092915050565b600061016083016000830151613f796000860182613eb8565b506020830151613f8c6020860182613eb8565b506040830151613f9f6040860182613eb8565b506060830151613fb26060860182613eb8565b506080830151613fc56080860182613eb8565b5060a0830151613fd860a0860182613eb8565b5060c0830151613feb60c0860182613eb8565b5060e0830151613ffe60e0860182613eb8565b50610100830151614013610100860182613eb8565b50610120830151614028610120860182613eb8565b506101408301518482036101408601526140428282613f27565b9150508091505092915050565b600060208201905081810360008301526140698184613f60565b905092915050565b600081519050919050565b600082825260208201905092915050565b6000819050602082019050919050565b600060c0830160008301516140b56000860182613eb8565b5060208301516140c86020860182613eb8565b5060408301516140db6040860182613eb8565b5060608301516140ee6060860182613eb8565b5060808301516141016080860182613eb8565b5060a083015184820360a08601526141198282613f27565b9150508091505092915050565b6000614132838361409d565b905092915050565b6000602082019050919050565b600061415282614071565b61415c818561407c565b93508360208202850161416e8561408d565b8060005b858110156141aa578484038952815161418b8582614126565b94506141968361413a565b925060208a01995050600181019050614172565b50829750879550505050505092915050565b600060208201905081810360008301526141d68184614147565b905092915050565b600082825260208201905092915050565b60006141fa82613ec7565b61420481856141de565b9350614214818560208601613ee3565b61421d81613f16565b840191505092915050565b6000602082019050818103600083015261424281846141ef565b905092915050565b600060408201905061425f6000830185613da6565b61426c6020830184613da6565b9392505050565b6000806040838503121561428a57614289613cc8565b5b600061429885828601613d51565b92505060206142a985828601613d51565b9150509250929050565b600080fd5b7f4e487b7100000000000000000000000000000000000000000000000000000000600052604160045260246000fd5b6142f082613f16565b810181811067ffffffffffffffff8211171561430f5761430e6142b8565b5b80604052505050565b6000614322613cbe565b905061432e82826142e7565b919050565b600067ffffffffffffffff82111561434e5761434d6142b8565b5b602082029050602081019050919050565b600080fd5b600061437761437284614333565b614318565b9050808382526020820190506020840283018581111561439a5761439961435f565b5b835b818110156143c357806143af8882613d51565b84526020840193505060208101905061439c565b5050509392505050565b600082601f8301126143e2576143e16142b3565b5b81356143f2848260208601614364565b91505092915050565b600080fd5b600067ffffffffffffffff82111561441b5761441a6142b8565b5b61442482613f16565b9050602081019050919050565b82818337600083830152505050565b600061445361444e84614400565b614318565b90508281526020810184848401111561446f5761446e6143fb565b5b61447a848285614431565b509392505050565b600082601f830112614497576144966142b3565b5b81356144a7848260208601614440565b91505092915050565b600080600080600060a086880312156144cc576144cb613cc8565b5b60006144da88828901613d1b565b95505060206144eb88828901613d1b565b945050604086013567ffffffffffffffff81111561450c5761450b613ccd565b5b614518888289016143cd565b935050606086013567ffffffffffffffff81111561453957614538613ccd565b5b614545888289016143cd565b925050608086013567ffffffffffffffff81111561456657614565613ccd565b5b61457288828901614482565b9150509295509295909350565b60006060830160008301516145976000860182613eb8565b50602083015184820360208601526145af8282613f27565b91505060408301516145c46040860182613eb8565b508091505092915050565b600060208201905081810360008301526145e9818461457f565b905092915050565b600067ffffffffffffffff82111561460c5761460b6142b8565b5b602082029050602081019050919050565b600061463061462b846145f1565b614318565b905080838252602082019050602084028301858111156146535761465261435f565b5b835b8181101561467c57806146688882613d1b565b845260208401935050602081019050614655565b5050509392505050565b600082601f83011261469b5761469a6142b3565b5b81356146ab84826020860161461d565b91505092915050565b600080604083850312156146cb576146ca613cc8565b5b600083013567ffffffffffffffff8111156146e9576146e8613ccd565b5b6146f585828601614686565b925050602083013567ffffffffffffffff81111561471657614715613ccd565b5b614722858286016143cd565b9150509250929050565b600081519050919050565b600082825260208201905092915050565b6000819050602082019050919050565b60006147648383613eb8565b60208301905092915050565b6000602082019050919050565b60006147888261472c565b6147928185614737565b935061479d83614748565b8060005b838110156147ce5781516147b58882614758565b97506147c083614770565b9250506001810190506147a1565b5085935050505092915050565b600060208201905081810360008301526147f5818461477d565b905092915050565b600081519050919050565b600082825260208201905092915050565b6000819050602082019050919050565b60006060830160008301516148416000860182613eb8565b50602083015184820360208601526148598282613f27565b915050604083015161486e6040860182613eb8565b508091505092915050565b60006148858383614829565b905092915050565b6000602082019050919050565b60006148a5826147fd565b6148af8185614808565b9350836020820285016148c185614819565b8060005b858110156148fd57848403895281516148de8582614879565b94506148e98361488d565b925060208a019950506001810190506148c5565b50829750879550505050505092915050565b60006020820190508181036000830152614929818461489a565b905092915050565b600081519050919050565b600082825260208201905092915050565b6000819050602082019050919050565b6000610160830160008301516149766000860182613eb8565b5060208301516149896020860182613eb8565b50604083015161499c6040860182613eb8565b5060608301516149af6060860182613eb8565b5060808301516149c26080860182613eb8565b5060a08301516149d560a0860182613eb8565b5060c08301516149e860c0860182613eb8565b5060e08301516149fb60e0860182613eb8565b50610100830151614a10610100860182613eb8565b50610120830151614a25610120860182613eb8565b50610140830151848203610140860152614a3f8282613f27565b9150508091505092915050565b6000614a58838361495d565b905092915050565b6000602082019050919050565b6000614a7882614931565b614a82818561493c565b935083602082028501614a948561494d565b8060005b85811015614ad05784840389528151614ab18582614a4c565b9450614abc83614a60565b925060208a01995050600181019050614a98565b50829750879550505050505092915050565b60006020820190508181036000830152614afc8184614a6d565b905092915050565b600081519050919050565b600082825260208201905092915050565b6000819050602082019050919050565b606082016000820151614b466000850182613eb8565b506020820151614b596020850182613eb8565b506040820151614b6c6040850182613eb8565b50505050565b600060a083016000830151614b8a6000860182614b30565b5060208301518482036060860152614ba2828261495d565b91505060408301518482036080860152614bbc8282613f27565b9150508091505092915050565b6000614bd58383614b72565b905092915050565b6000602082019050919050565b6000614bf582614b04565b614bff8185614b0f565b935083602082028501614c1185614b20565b8060005b85811015614c4d5784840389528151614c2e8582614bc9565b9450614c3983614bdd565b925060208a01995050600181019050614c15565b50829750879550505050505092915050565b60006020820190508181036000830152614c798184614bea565b905092915050565b600067ffffffffffffffff821115614c9c57614c9b6142b8565b5b614ca582613f16565b9050602081019050919050565b6000614cc5614cc084614c81565b614318565b905082815260208101848484011115614ce157614ce06143fb565b5b614cec848285614431565b509392505050565b600082601f830112614d0957614d086142b3565b5b8135614d19848260208601614cb2565b91505092915050565b600060208284031215614d3857614d37613cc8565b5b600082013567ffffffffffffffff811115614d5657614d55613ccd565b5b614d6284828501614cf4565b91505092915050565b600060c083016000830151614d836000860182613eb8565b506020830151614d966020860182613eb8565b506040830151614da96040860182613eb8565b506060830151614dbc6060860182613eb8565b506080830151614dcf6080860182613eb8565b5060a083015184820360a0860152614de78282613f27565b9150508091505092915050565b60006020820190508181036000830152614e0e8184614d6b565b905092915050565b614e1f81613e55565b8114614e2a57600080fd5b50565b600081359050614e3c81614e16565b92915050565b60008060408385031215614e5957614e58613cc8565b5b6000614e6785828601613d1b565b9250506020614e7885828601614e2d565b9150509250929050565b606082016000820151614e986000850182613eb8565b506020820151614eab6020850182613eb8565b506040820151614ebe6040850182613eb8565b50505050565b6000606082019050614ed96000830184614e82565b92915050565b60008060408385031215614ef657614ef5613cc8565b5b6000614f0485828601613d51565b925050602083013567ffffffffffffffff811115614f2557614f24613ccd565b5b614f3185828601614cf4565b9150509250929050565b600080600080600060a08688031215614f5757614f56613cc8565b5b6000614f6588828901613d51565b9550506020614f7688828901613d51565b9450506040614f8788828901613d51565b9350506060614f9888828901613d51565b925050608086013567ffffffffffffffff811115614fb957614fb8613ccd565b5b614fc588828901614cf4565b9150509295509295909350565b600060208284031215614fe857614fe7613cc8565b5b6000614ff684828501613d1b565b91505092915050565b6000806000806080858703121561501957615018613cc8565b5b600061502787828801613d51565b945050602061503887828801613d51565b935050604061504987828801613d51565b925050606085013567ffffffffffffffff81111561506a57615069613ccd565b5b61507687828801614cf4565b91505092959194509250565b6000806040838503121561509957615098613cc8565b5b60006150a785828601613d1b565b92505060206150b885828601613d1b565b9150509250929050565b600080600080600060a086880312156150de576150dd613cc8565b5b60006150ec88828901613d1b565b95505060206150fd88828901613d1b565b945050604061510e88828901613d51565b935050606061511f88828901613d51565b925050608086013567ffffffffffffffff8111156151405761513f613ccd565b5b61514c88828901614482565b9150509295509295909350565b7f455243313135353a2061646472657373207a65726f206973206e6f742061207660008201527f616c6964206f776e657200000000000000000000000000000000000000000000602082015250565b60006151b5602a836141de565b91506151c082615159565b604082019050919050565b600060208201905081810360008301526151e4816151a8565b9050919050565b7f4e487b7100000000000000000000000000000000000000000000000000000000600052601160045260246000fd5b600061522582613d30565b915061523083613d30565b925082821015615243576152426151eb565b5b828203905092915050565b7f4e487b7100000000000000000000000000000000000000000000000000000000600052603260045260246000fd5b7f4e487b7100000000000000000000000000000000000000000000000000000000600052602260045260246000fd5b600060028204905060018216806152c457607f821691505b6020821081036152d7576152d661527d565b5b50919050565b600081905092915050565b60008190508160005260206000209050919050565b6000815461530a816152ac565b61531481866152dd565b9450600182166000811461532f576001811461534057615373565b60ff19831686528186019350615373565b615349856152e8565b60005b8381101561536b5781548189015260018201915060208101905061534c565b838801955050505b50505092915050565b600061538782613ec7565b61539181856152dd565b93506153a1818560208601613ee3565b80840191505092915050565b60006153b982856152fd565b91506153c5828461537c565b91508190509392505050565b7f437265646974206d757374206265206120706f736974697665206e756d626572600082015250565b60006154076020836141de565b9150615412826153d1565b602082019050919050565b60006020820190508181036000830152615436816153fa565b9050919050565b7f4e667420646f6573206e6f742065786973740000000000000000000000000000600082015250565b60006154736012836141de565b915061547e8261543d565b602082019050919050565b600060208201905081810360008301526154a281615466565b9050919050565b7f455243313135353a2063616c6c6572206973206e6f7420746f6b656e206f776e60008201527f6572206f7220617070726f766564000000000000000000000000000000000000602082015250565b6000615505602e836141de565b9150615510826154a9565b604082019050919050565b60006020820190508181036000830152615534816154f8565b9050919050565b7f455243313135353a206163636f756e747320616e6420696473206c656e67746860008201527f206d69736d617463680000000000000000000000000000000000000000000000602082015250565b60006155976029836141de565b91506155a28261553b565b604082019050919050565b600060208201905081810360008301526155c68161558a565b9050919050565b60006155d882613d30565b91507fffffffffffffffffffffffffffffffffffffffffffffffffffffffffffffffff820361560a576156096151eb565b5b600182019050919050565b7f4e487b7100000000000000000000000000000000000000000000000000000000600052602160045260246000fd5b61564d81613cf2565b82525050565b60006040820190506156686000830185613da6565b6156756020830184615644565b9392505050565b600080fd5b600080fd5b60008151905061569581613d3a565b92915050565b6000815190506156aa81613d04565b92915050565b6000606082840312156156c6576156c561567c565b5b6156d06060614318565b905060006156e084828501615686565b60008301525060206156f48482850161569b565b602083015250604061570884828501615686565b60408301525092915050565b600061572761572284614c81565b614318565b905082815260208101848484011115615743576157426143fb565b5b61574e848285613ee3565b509392505050565b600082601f83011261576b5761576a6142b3565b5b815161577b848260208601615714565b91505092915050565b60008151905061579381614e16565b92915050565b600060c082840312156157af576157ae61567c565b5b6157b96080614318565b905060006157c9848285016156b0565b600083015250606082015167ffffffffffffffff8111156157ed576157ec615681565b5b6157f984828501615756565b602083015250608061580d84828501615686565b60408301525060a061582184828501615784565b60608301525092915050565b60006020828403121561584357615842613cc8565b5b600082015167ffffffffffffffff81111561586157615860613ccd565b5b61586d84828501615799565b91505092915050565b6000615882828461537c565b915081905092915050565b6000602082840312156158a3576158a2613cc8565b5b60006158b184828501615784565b91505092915050565b6000602082840312156158d0576158cf613cc8565b5b60006158de84828501615686565b91505092915050565b60006158f282613d30565b91506158fd83613d30565b9250827fffffffffffffffffffffffffffffffffffffffffffffffffffffffffffffffff03821115615932576159316151eb565b5b828201905092915050565b7f455243313135353a2069647320616e6420616d6f756e7473206c656e6774682060008201527f6d69736d61746368000000000000000000000000000000000000000000000000602082015250565b60006159996028836141de565b91506159a48261593d565b604082019050919050565b600060208201905081810360008301526159c88161598c565b9050919050565b7f455243313135353a207472616e7366657220746f20746865207a65726f20616460008201527f6472657373000000000000000000000000000000000000000000000000000000602082015250565b6000615a2b6025836141de565b9150615a36826159cf565b604082019050919050565b60006020820190508181036000830152615a5a81615a1e565b9050919050565b7f455243313135353a20696e73756666696369656e742062616c616e636520666f60008201527f72207472616e7366657200000000000000000000000000000000000000000000602082015250565b6000615abd602a836141de565b9150615ac882615a61565b604082019050919050565b60006020820190508181036000830152615aec81615ab0565b9050919050565b60006040820190508181036000830152615b0d818561477d565b90508181036020830152615b21818461477d565b90509392505050565b7f455243313135353a2073657474696e6720617070726f76616c2073746174757360008201527f20666f722073656c660000000000000000000000000000000000000000000000602082015250565b6000615b866029836141de565b9150615b9182615b2a565b604082019050919050565b60006020820190508181036000830152615bb581615b79565b9050919050565b600081519050919050565b600082825260208201905092915050565b6000615be382615bbc565b615bed8185615bc7565b9350615bfd818560208601613ee3565b615c0681613f16565b840191505092915050565b600060a082019050615c266000830188615644565b615c336020830187615644565b8181036040830152615c45818661477d565b90508181036060830152615c59818561477d565b90508181036080830152615c6d8184615bd8565b90509695505050505050565b600081519050615c8881613dfc565b92915050565b600060208284031215615ca457615ca3613cc8565b5b6000615cb284828501615c79565b91505092915050565b60008160e01c9050919050565b600060033d1115615ce75760046000803e615ce4600051615cbb565b90505b90565b600060443d10615d7757615cfc613cbe565b60043d036004823e80513d602482011167ffffffffffffffff82111715615d24575050615d77565b808201805167ffffffffffffffff811115615d425750505050615d77565b80602083010160043d038501811115615d5f575050505050615d77565b615d6e826020018501866142e7565b82955050505050505b90565b7f455243313135353a207472616e7366657220746f206e6f6e2d4552433131353560008201527f526563656976657220696d706c656d656e746572000000000000000000000000602082015250565b6000615dd66034836141de565b9150615de182615d7a565b604082019050919050565b60006020820190508181036000830152615e0581615dc9565b9050919050565b7f455243313135353a204552433131353552656365697665722072656a6563746560008201527f6420746f6b656e73000000000000000000000000000000000000000000000000602082015250565b6000615e686028836141de565b9150615e7382615e0c565b604082019050919050565b60006020820190508181036000830152615e9781615e5b565b9050919050565b7f455243313135353a206d696e7420746f20746865207a65726f2061646472657360008201527f7300000000000000000000000000000000000000000000000000000000000000602082015250565b6000615efa6021836141de565b9150615f0582615e9e565b604082019050919050565b60006020820190508181036000830152615f2981615eed565b9050919050565b600060a082019050615f456000830188615644565b615f526020830187615644565b615f5f6040830186613da6565b615f6c6060830185613da6565b8181036080830152615f7e8184615bd8565b9050969550505050505056fea26469706673582212205ce1597ec529122d46a41c0523bb3b01127f41307325d525c59b218a1cc928ae64736f6c634300080d0033",
  "immutableReferences": {},
  "source": "// SPDX-License-Identifier: MIT\r\n// Tells the Solidity compiler to compile only from v0.8.13 to v0.9.0\r\npragma solidity ^0.8.13;\r\n\r\nimport \"./ERC1155BaseContract.sol\";\r\nimport \"./utils/IdentityGenerator.sol\";\r\nimport \"./interfaces/INftSchool.sol\";\r\nimport \"./interfaces/INftIdentities.sol\";\r\nimport \"./interfaces/INftCertificates.sol\";\r\n\r\ncontract NftSchool is ERC1155BaseContract, INftSchool, IdentityGenerator {\r\n    using Counters for Counters.Counter;\r\n\r\n    uint256 constant COURSE_ID = 1;\r\n    uint256 constant CLASS_ID = 2;\r\n    uint256 constant REGISTERED_TIME_ID = 3;\r\n\r\n    uint256 constant NFT_COURSE_REGISTRATION_ID = 0;\r\n\r\n    uint256 public minimumGraduationScore = 500;\r\n\r\n    string[] private courseURIs;\r\n\r\n    INftIdentities private _nftIdentities;\r\n    INftCertificates private _nftCertificates;\r\n\r\n    bool public _isInitialize;\r\n    uint256 public registerClassFee = 0.5 ether;\r\n\r\n    mapping(uint256 => uint256) private _registeredStartAt;\r\n    mapping(uint256 => uint256) private _registeredEndAt;\r\n\r\n    mapping(uint256 => uint256[]) private _classIdByRegisterTime;\r\n    mapping(uint256 => mapping(string => uint256)) private _idOfURIOfType;\r\n\r\n    Course[] private _allCourses;\r\n    mapping(uint256 => uint256) _posOfCourses;\r\n\r\n    KnowledgeBlock[] private _knowledgeBlocks;\r\n\r\n    Class[] private _allClasses;\r\n    mapping(uint256 => uint256) private _posOfClasses;\r\n\r\n    NftClassRegistration[] private _allNftClassRegistrations;\r\n    mapping(uint256 => uint256) private _posOfNftClassRegistrationTokenId;\r\n    mapping(uint256 => uint256[]) private _registeredClassTokenIdOfStudent; // tokenId => currentRegisterTimeId => courseId\r\n    mapping(uint256 => mapping(uint256 => uint256))\r\n        private _registeredCourseOfStudent;\r\n    mapping(uint256 => uint256[]) private _registeredTokenIdOfClass;\r\n\r\n    mapping(uint256 => mapping(uint256 => uint256)) _posOfTokenIdOfNftType;\r\n\r\n    modifier onlyOwner() {\r\n        require(_owner == msg.sender);\r\n        _;\r\n    }\r\n\r\n    constructor(\r\n        address nftIdentities,\r\n        string[] memory knowledgeBlockNames,\r\n        uint256[] memory knowledgeBlockCredits\r\n    ) ERC1155BaseContract(\"\") {\r\n        _nftIdentities = INftIdentities(nftIdentities);\r\n\r\n        uint256 knowledgeBlockCount = knowledgeBlockNames.length;\r\n        for (uint256 idx = 0; idx < knowledgeBlockCount; ++idx) {\r\n            _knowledgeBlocks.push(\r\n                KnowledgeBlock(\r\n                    idx + 1,\r\n                    knowledgeBlockNames[idx],\r\n                    knowledgeBlockCredits[idx]\r\n                )\r\n            );\r\n        }\r\n    }\r\n\r\n    function initialize(address nftCertificates) public onlyOwner {\r\n        require(!_isInitialize);\r\n        _isInitialize = true;\r\n        _nftCertificates = INftCertificates(nftCertificates);\r\n    }\r\n\r\n    // Knowledge Block: Start\r\n    function getAllKnowledgeBlocks()\r\n        external\r\n        view\r\n        returns (KnowledgeBlock[] memory)\r\n    {\r\n        return _knowledgeBlocks;\r\n    }\r\n\r\n    function getKnowledgeBlockById(\r\n        uint256 id\r\n    ) external view returns (KnowledgeBlock memory) {\r\n        return _knowledgeBlocks[id - 1];\r\n    }\r\n\r\n    // Knowledge Block: End\r\n\r\n    // Register time Section: Start\r\n    function updateRegisteredTime(\r\n        uint256 registeredStartAt,\r\n        uint256 registeredEndAt\r\n    ) external onlyOwner {\r\n        uint256 currentRegisterTimeId = getCurrentId(REGISTERED_TIME_ID);\r\n        require(\r\n            _classIdByRegisterTime[currentRegisterTimeId].length == 0 ||\r\n                _registeredEndAt[currentRegisterTimeId] <= block.timestamp\r\n        );\r\n        require(registeredEndAt > registeredStartAt);\r\n        uint256 nextRegisterTimeId = generateNewId(REGISTERED_TIME_ID);\r\n        _registeredStartAt[nextRegisterTimeId] = registeredStartAt;\r\n        _registeredEndAt[nextRegisterTimeId] = registeredEndAt;\r\n    }\r\n\r\n    function getRegisterTime() public view returns (uint256, uint256) {\r\n        uint256 currentRegisteredTimeId = getCurrentId(REGISTERED_TIME_ID);\r\n\r\n        return (\r\n            _registeredStartAt[currentRegisteredTimeId],\r\n            _registeredEndAt[currentRegisteredTimeId]\r\n        );\r\n    }\r\n\r\n    // Register time Section: End\r\n\r\n    // Course Block: Start\r\n    function getAllCourses() external view onlyOwner returns (Course[] memory) {\r\n        return _allCourses;\r\n    }\r\n\r\n    function getCourseById(uint256 id) public view returns (Course memory) {\r\n        uint256 pos = _posOfCourses[id];\r\n        require(pos > 0);\r\n\r\n        return _allCourses[pos - 1];\r\n    }\r\n\r\n    function getCourseByURI(\r\n        string memory tokenURI\r\n    ) public view returns (Course memory) {\r\n        uint256 tokenId = _idOfURIOfType[COURSE_ID][tokenURI];\r\n\r\n        return getCourseById(tokenId);\r\n    }\r\n\r\n    function getCourseIdByURI(\r\n        string memory tokenURI\r\n    ) public view returns (uint256) {\r\n        return _idOfURIOfType[COURSE_ID][tokenURI];\r\n    }\r\n\r\n    function createCourse(\r\n        uint256 prevCourseId,\r\n        uint256 knowledgeBlockId,\r\n        uint256 credits,\r\n        string memory uri\r\n    ) public onlyOwner returns (uint256) {\r\n        require(knowledgeBlockId <= _knowledgeBlocks.length);\r\n        require(credits > 0);\r\n        require(prevCourseId == 0 || _posOfCourses[prevCourseId] > 0);\r\n        require(_idOfURIOfType[COURSE_ID][uri] == 0);\r\n        uint256 id = generateNewId(COURSE_ID);\r\n        _allCourses.push(\r\n            Course(id, knowledgeBlockId, prevCourseId, credits, 1, uri)\r\n        );\r\n        _idOfURIOfType[COURSE_ID][uri] = id;\r\n        _posOfCourses[id] = _allCourses.length;\r\n\r\n        return id;\r\n    }\r\n\r\n    function updateCourse(uint256 id, uint256 credits) external onlyOwner {\r\n        require(credits > 0, \"Credit must be a positive number\");\r\n        uint256 pos = _posOfCourses[id];\r\n        require(pos > 0, \"Nft does not exist\");\r\n\r\n        _allCourses[pos - 1].credits = credits;\r\n    }\r\n\r\n    // Course Block: End\r\n\r\n    // Class Block: Start\r\n    function getClassById(uint256 id) public view returns (Class memory) {\r\n        uint256 pos = _posOfClasses[id];\r\n        require(pos > 0);\r\n\r\n        return _allClasses[pos - 1];\r\n    }\r\n\r\n    function getAllClasses() external view onlyOwner returns (Class[] memory) {\r\n        return _allClasses;\r\n    }\r\n\r\n    function getCurrentRegisteredClasses()\r\n        external\r\n        view\r\n        returns (Class[] memory)\r\n    {\r\n        uint256 currentRegisterTimeId = getCurrentId(REGISTERED_TIME_ID);\r\n        require(\r\n            msg.sender == _owner || checkInRegisterDate(currentRegisterTimeId)\r\n        );\r\n        return _getClassesByRegisteredTime(currentRegisterTimeId);\r\n    }\r\n\r\n    function createClass(\r\n        uint256 courseId,\r\n        uint256 completeAt,\r\n        uint256 maxSize,\r\n        uint256 teacherTokenId,\r\n        string memory uri\r\n    ) public onlyOwner returns (uint256) {\r\n        Course memory course = getCourseById(courseId);\r\n        uint256 currentRegisterTimeId = getCurrentId(REGISTERED_TIME_ID);\r\n        uint256 nftTeacherRole = _nftIdentities.getTokenType(teacherTokenId);\r\n\r\n        require(completeAt > _registeredEndAt[currentRegisterTimeId]);\r\n        require(_registeredEndAt[currentRegisterTimeId] > block.timestamp);\r\n        require(nftTeacherRole == uint256(ROLE.TEACHER));\r\n        uint256 id = generateNewId(CLASS_ID);\r\n        _allClasses.push(\r\n            Class(\r\n                id,\r\n                courseId,\r\n                course.knowledgeBlockId,\r\n                course.prevCourseId,\r\n                course.credits,\r\n                _registeredStartAt[currentRegisterTimeId],\r\n                _registeredEndAt[currentRegisterTimeId],\r\n                completeAt,\r\n                maxSize,\r\n                teacherTokenId,\r\n                uri\r\n            )\r\n        );\r\n        _posOfClasses[id] = _allClasses.length;\r\n        _classIdByRegisterTime[currentRegisterTimeId].push(id);\r\n\r\n        return id;\r\n    }\r\n\r\n    function _getClassesByRegisteredTime(\r\n        uint256 registeredId\r\n    ) private view returns (Class[] memory) {\r\n        uint256[] memory ids = _classIdByRegisterTime[registeredId];\r\n        uint256 count = ids.length;\r\n        Class[] memory classes = new Class[](count);\r\n\r\n        for (uint256 idx; idx < count; ++idx) {\r\n            uint256 pos = _posOfClasses[ids[idx]];\r\n            classes[idx] = _allClasses[pos - 1];\r\n        }\r\n\r\n        return classes;\r\n    }\r\n\r\n    // Class Block: End\r\n\r\n    // Register class block: start\r\n    function getRegisteredClasses()\r\n        public\r\n        view\r\n        returns (NftClassRegistrationResponse[] memory)\r\n    {\r\n        NftIdentityResponse memory nftIdentityResponse = _nftIdentities\r\n            .getNftOfMemberWithRole(uint256(ROLE.STUDENT), msg.sender);\r\n        uint256 studentTokenId = nftIdentityResponse.nftIdentity.tokenId;\r\n        uint256[]\r\n            memory nftClassRegistrationTokenIds = _registeredClassTokenIdOfStudent[\r\n                studentTokenId\r\n            ];\r\n        uint256 count = nftClassRegistrationTokenIds.length;\r\n\r\n        NftClassRegistrationResponse[]\r\n            memory nftClassRegistrationResponses = new NftClassRegistrationResponse[](\r\n                count\r\n            );\r\n\r\n        for (uint256 idx = 0; idx < count; ++idx) {\r\n            NftClassRegistration\r\n                memory nftClassRegistration = getNftClassRegistration(\r\n                    nftClassRegistrationTokenIds[idx]\r\n                );\r\n\r\n            nftClassRegistrationResponses[idx] = NftClassRegistrationResponse(\r\n                nftClassRegistration,\r\n                getClassById(nftClassRegistration.classId),\r\n                uri(nftClassRegistration.tokenId)\r\n            );\r\n        }\r\n\r\n        return nftClassRegistrationResponses;\r\n    }\r\n\r\n    function getNftClassRegistration(\r\n        uint256 tokenId\r\n    ) public view returns (NftClassRegistration memory) {\r\n        uint256 posOfNft = _posOfNftClassRegistrationTokenId[tokenId];\r\n        require(posOfNft > 0);\r\n\r\n        return _allNftClassRegistrations[posOfNft - 1];\r\n    }\r\n\r\n    function registerClass(uint256 classId, string memory uri) public payable {\r\n        NftIdentityResponse memory nftIdentityResponse = _nftIdentities\r\n            .getNftOfMemberWithRole(uint256(ROLE.STUDENT), msg.sender);\r\n        uint256 studentTokenId = nftIdentityResponse.nftIdentity.tokenId;\r\n        Class memory class = getClassById(classId);\r\n\r\n        require(!nftIdentityResponse.isExpired);\r\n        require(_registeredTokenIdOfClass[class.id].length < class.maxSize);\r\n        require(block.timestamp >= class.registeredStartAt);\r\n        require(block.timestamp <= class.registeredEndAt);\r\n        require(\r\n            class.prevCourseId == 0 ||\r\n                _nftCertificates.checkCompleteCourse(\r\n                    class.prevCourseId,\r\n                    msg.sender\r\n                )\r\n        );\r\n        require(\r\n            _registeredCourseOfStudent[studentTokenId][class.courseId] == 0\r\n        );\r\n        require(msg.value == registerClassFee);\r\n        uint256 tokenId = _mintToken(\r\n            msg.sender,\r\n            NFT_COURSE_REGISTRATION_ID,\r\n            uri\r\n        );\r\n        _allNftClassRegistrations.push(\r\n            NftClassRegistration(tokenId, classId, studentTokenId)\r\n        );\r\n        _posOfNftClassRegistrationTokenId[tokenId] = _allNftClassRegistrations\r\n            .length;\r\n        _registeredClassTokenIdOfStudent[studentTokenId].push(tokenId);\r\n        _registeredCourseOfStudent[studentTokenId][class.courseId] = tokenId;\r\n        _registeredTokenIdOfClass[class.id].push(tokenId);\r\n    }\r\n\r\n    // Register class block: end\r\n\r\n    function checkTokenOfTypeExists(\r\n        uint256 tokenId,\r\n        uint256 requiredType\r\n    ) external view returns (bool) {\r\n        uint256 nftType = _getNftType(tokenId);\r\n        uint256 pos = _posOfTokenIdOfNftType[nftType][tokenId];\r\n        return pos > 0 && nftType == requiredType;\r\n    }\r\n\r\n    function checkInRegisterDate(\r\n        uint256 currentRegisterTimeId\r\n    ) public view returns (bool) {\r\n        return\r\n            block.timestamp >= _registeredStartAt[currentRegisterTimeId] &&\r\n            block.timestamp <= _registeredEndAt[currentRegisterTimeId];\r\n    }\r\n}\r\n",
  "sourcePath": "E:\\learn\\learn-to-earn\\blockchain\\contracts\\NftSchool.sol",
  "compiler": {
    "name": "solc",
    "version": "0.8.13+commit.abaa5c0e.Emscripten.clang"
  },
  "schemaVersion": "3.4.13",
  "updatedAt": "2023-05-06T17:32:25.008Z",
  "networkType": "ethereum",
  "devdoc": {
    "kind": "dev",
    "methods": {
      "balanceOf(address,uint256)": {
        "details": "See {IERC1155-balanceOf}. Requirements: - `account` cannot be the zero address."
      },
      "balanceOfBatch(address[],uint256[])": {
        "details": "See {IERC1155-balanceOfBatch}. Requirements: - `accounts` and `ids` must have the same length."
      },
      "isApprovedForAll(address,address)": {
        "details": "See {IERC1155-isApprovedForAll}."
      },
      "safeBatchTransferFrom(address,address,uint256[],uint256[],bytes)": {
        "details": "See {IERC1155-safeBatchTransferFrom}."
      },
      "safeTransferFrom(address,address,uint256,uint256,bytes)": {
        "details": "See {IERC1155-safeTransferFrom}."
      },
      "setApprovalForAll(address,bool)": {
        "details": "See {IERC1155-setApprovalForAll}."
      },
      "supportsInterface(bytes4)": {
        "details": "See {IERC165-supportsInterface}."
      },
      "uri(uint256)": {
        "details": "See {IERC1155MetadataURI-uri}. This implementation returns the concatenation of the `_baseURI` and the token-specific uri if the latter is set This enables the following behaviors: - if `_tokenURIs[tokenId]` is set, then the result is the concatenation   of `_baseURI` and `_tokenURIs[tokenId]` (keep in mind that `_baseURI`   is empty per default); - if `_tokenURIs[tokenId]` is NOT set then we fallback to `super.uri()`   which in most cases will contain `ERC1155._uri`; - if `_tokenURIs[tokenId]` is NOT set, and if the parents do not have a   uri value set, then the result is empty."
      }
    },
    "version": 1
  },
  "userdoc": {
    "kind": "user",
    "methods": {},
    "version": 1
  }
}