{
  "contractName": "NftSchool",
  "abi": [
    {
      "inputs": [
        {
          "internalType": "address",
          "name": "nftIdentities",
          "type": "address"
        },
        {
          "internalType": "string[]",
          "name": "knowledgeBlockNames",
          "type": "string[]"
        },
        {
          "internalType": "uint256[]",
          "name": "knowledgeBlockCredits",
          "type": "uint256[]"
        }
      ],
      "stateMutability": "nonpayable",
      "type": "constructor"
    },
    {
      "anonymous": false,
      "inputs": [
        {
          "indexed": false,
          "internalType": "uint256",
          "name": "id",
          "type": "uint256"
        }
      ],
      "name": "NewClassCreated",
      "type": "event"
    },
    {
      "inputs": [],
      "name": "_isInitialize",
      "outputs": [
        {
          "internalType": "bool",
          "name": "",
          "type": "bool"
        }
      ],
      "stateMutability": "view",
      "type": "function",
      "constant": true
    },
    {
      "inputs": [],
      "name": "minimumGraduationScore",
      "outputs": [
        {
          "internalType": "uint256",
          "name": "",
          "type": "uint256"
        }
      ],
      "stateMutability": "view",
      "type": "function",
      "constant": true
    },
    {
      "inputs": [
        {
          "internalType": "address",
          "name": "nftCertificates",
          "type": "address"
        }
      ],
      "name": "initialize",
      "outputs": [],
      "stateMutability": "nonpayable",
      "type": "function"
    },
    {
      "inputs": [],
      "name": "getAllKnowledgeBlocks",
      "outputs": [
        {
          "components": [
            {
              "internalType": "uint256",
              "name": "id",
              "type": "uint256"
            },
            {
              "internalType": "string",
              "name": "name",
              "type": "string"
            },
            {
              "internalType": "uint256",
              "name": "credits",
              "type": "uint256"
            }
          ],
          "internalType": "struct IConstant.KnowledgeBlock[]",
          "name": "",
          "type": "tuple[]"
        }
      ],
      "stateMutability": "view",
      "type": "function",
      "constant": true
    },
    {
      "inputs": [
        {
          "internalType": "uint256",
          "name": "semesterId",
          "type": "uint256"
        },
        {
          "internalType": "uint256",
          "name": "registeredStartAt",
          "type": "uint256"
        },
        {
          "internalType": "uint256",
          "name": "registeredEndAt",
          "type": "uint256"
        }
      ],
      "name": "updateRegisteredTime",
      "outputs": [],
      "stateMutability": "nonpayable",
      "type": "function"
    },
    {
      "inputs": [
        {
          "internalType": "uint256",
          "name": "semesterId",
          "type": "uint256"
        }
      ],
      "name": "getRegisterTime",
      "outputs": [
        {
          "internalType": "uint256",
          "name": "",
          "type": "uint256"
        },
        {
          "internalType": "uint256",
          "name": "",
          "type": "uint256"
        }
      ],
      "stateMutability": "view",
      "type": "function",
      "constant": true
    },
    {
      "inputs": [],
      "name": "getAllCourses",
      "outputs": [
        {
          "components": [
            {
              "internalType": "uint256",
              "name": "id",
              "type": "uint256"
            },
            {
              "internalType": "uint256",
              "name": "knowledgeBlockId",
              "type": "uint256"
            },
            {
              "internalType": "uint256",
              "name": "prevCourseId",
              "type": "uint256"
            },
            {
              "internalType": "uint256",
              "name": "credits",
              "type": "uint256"
            },
            {
              "internalType": "uint256",
              "name": "status",
              "type": "uint256"
            },
            {
              "internalType": "string",
              "name": "uri",
              "type": "string"
            }
          ],
          "internalType": "struct IConstant.Course[]",
          "name": "",
          "type": "tuple[]"
        }
      ],
      "stateMutability": "view",
      "type": "function",
      "constant": true
    },
    {
      "inputs": [
        {
          "internalType": "uint256",
          "name": "id",
          "type": "uint256"
        }
      ],
      "name": "getCourseById",
      "outputs": [
        {
          "components": [
            {
              "internalType": "uint256",
              "name": "id",
              "type": "uint256"
            },
            {
              "internalType": "uint256",
              "name": "knowledgeBlockId",
              "type": "uint256"
            },
            {
              "internalType": "uint256",
              "name": "prevCourseId",
              "type": "uint256"
            },
            {
              "internalType": "uint256",
              "name": "credits",
              "type": "uint256"
            },
            {
              "internalType": "uint256",
              "name": "status",
              "type": "uint256"
            },
            {
              "internalType": "string",
              "name": "uri",
              "type": "string"
            }
          ],
          "internalType": "struct IConstant.Course",
          "name": "",
          "type": "tuple"
        }
      ],
      "stateMutability": "view",
      "type": "function",
      "constant": true
    },
    {
      "inputs": [
        {
          "internalType": "string",
          "name": "tokenURI",
          "type": "string"
        }
      ],
      "name": "getCourseIdByURI",
      "outputs": [
        {
          "internalType": "uint256",
          "name": "",
          "type": "uint256"
        }
      ],
      "stateMutability": "view",
      "type": "function",
      "constant": true
    },
    {
      "inputs": [
        {
          "internalType": "uint256",
          "name": "prevCourseId",
          "type": "uint256"
        },
        {
          "internalType": "uint256",
          "name": "knowledgeBlockId",
          "type": "uint256"
        },
        {
          "internalType": "uint256",
          "name": "credits",
          "type": "uint256"
        },
        {
          "internalType": "string",
          "name": "uri",
          "type": "string"
        }
      ],
      "name": "createCourse",
      "outputs": [
        {
          "internalType": "uint256",
          "name": "",
          "type": "uint256"
        }
      ],
      "stateMutability": "nonpayable",
      "type": "function"
    },
    {
      "inputs": [
        {
          "internalType": "uint256",
          "name": "id",
          "type": "uint256"
        }
      ],
      "name": "getClassById",
      "outputs": [
        {
          "components": [
            {
              "internalType": "uint256",
              "name": "id",
              "type": "uint256"
            },
            {
              "internalType": "uint256",
              "name": "courseId",
              "type": "uint256"
            },
            {
              "internalType": "uint256",
              "name": "knowledgeBlockId",
              "type": "uint256"
            },
            {
              "internalType": "uint256",
              "name": "prevCourseId",
              "type": "uint256"
            },
            {
              "internalType": "uint256",
              "name": "credits",
              "type": "uint256"
            },
            {
              "internalType": "uint256",
              "name": "completeAt",
              "type": "uint256"
            },
            {
              "internalType": "uint256",
              "name": "maxSize",
              "type": "uint256"
            },
            {
              "internalType": "uint256",
              "name": "teacherTokenId",
              "type": "uint256"
            },
            {
              "internalType": "uint256",
              "name": "semester",
              "type": "uint256"
            },
            {
              "internalType": "uint256",
              "name": "registerClassFee",
              "type": "uint256"
            },
            {
              "internalType": "string",
              "name": "uri",
              "type": "string"
            }
          ],
          "internalType": "struct IConstant.Class",
          "name": "",
          "type": "tuple"
        }
      ],
      "stateMutability": "view",
      "type": "function",
      "constant": true
    },
    {
      "inputs": [],
      "name": "getAllClasses",
      "outputs": [
        {
          "components": [
            {
              "internalType": "uint256",
              "name": "id",
              "type": "uint256"
            },
            {
              "internalType": "uint256",
              "name": "courseId",
              "type": "uint256"
            },
            {
              "internalType": "uint256",
              "name": "knowledgeBlockId",
              "type": "uint256"
            },
            {
              "internalType": "uint256",
              "name": "prevCourseId",
              "type": "uint256"
            },
            {
              "internalType": "uint256",
              "name": "credits",
              "type": "uint256"
            },
            {
              "internalType": "uint256",
              "name": "completeAt",
              "type": "uint256"
            },
            {
              "internalType": "uint256",
              "name": "maxSize",
              "type": "uint256"
            },
            {
              "internalType": "uint256",
              "name": "teacherTokenId",
              "type": "uint256"
            },
            {
              "internalType": "uint256",
              "name": "semester",
              "type": "uint256"
            },
            {
              "internalType": "uint256",
              "name": "registerClassFee",
              "type": "uint256"
            },
            {
              "internalType": "string",
              "name": "uri",
              "type": "string"
            }
          ],
          "internalType": "struct IConstant.Class[]",
          "name": "",
          "type": "tuple[]"
        }
      ],
      "stateMutability": "view",
      "type": "function",
      "constant": true
    },
    {
      "inputs": [
        {
          "internalType": "uint256",
          "name": "semester",
          "type": "uint256"
        }
      ],
      "name": "getClassBySemester",
      "outputs": [
        {
          "components": [
            {
              "internalType": "uint256",
              "name": "id",
              "type": "uint256"
            },
            {
              "internalType": "uint256",
              "name": "courseId",
              "type": "uint256"
            },
            {
              "internalType": "uint256",
              "name": "knowledgeBlockId",
              "type": "uint256"
            },
            {
              "internalType": "uint256",
              "name": "prevCourseId",
              "type": "uint256"
            },
            {
              "internalType": "uint256",
              "name": "credits",
              "type": "uint256"
            },
            {
              "internalType": "uint256",
              "name": "completeAt",
              "type": "uint256"
            },
            {
              "internalType": "uint256",
              "name": "maxSize",
              "type": "uint256"
            },
            {
              "internalType": "uint256",
              "name": "teacherTokenId",
              "type": "uint256"
            },
            {
              "internalType": "uint256",
              "name": "semester",
              "type": "uint256"
            },
            {
              "internalType": "uint256",
              "name": "registerClassFee",
              "type": "uint256"
            },
            {
              "internalType": "string",
              "name": "uri",
              "type": "string"
            }
          ],
          "internalType": "struct IConstant.Class[]",
          "name": "",
          "type": "tuple[]"
        }
      ],
      "stateMutability": "view",
      "type": "function",
      "constant": true
    },
    {
      "inputs": [
        {
          "internalType": "uint256",
          "name": "teacherTokenId",
          "type": "uint256"
        }
      ],
      "name": "getAssignedClasses",
      "outputs": [
        {
          "components": [
            {
              "internalType": "uint256",
              "name": "id",
              "type": "uint256"
            },
            {
              "internalType": "uint256",
              "name": "courseId",
              "type": "uint256"
            },
            {
              "internalType": "uint256",
              "name": "knowledgeBlockId",
              "type": "uint256"
            },
            {
              "internalType": "uint256",
              "name": "prevCourseId",
              "type": "uint256"
            },
            {
              "internalType": "uint256",
              "name": "credits",
              "type": "uint256"
            },
            {
              "internalType": "uint256",
              "name": "completeAt",
              "type": "uint256"
            },
            {
              "internalType": "uint256",
              "name": "maxSize",
              "type": "uint256"
            },
            {
              "internalType": "uint256",
              "name": "teacherTokenId",
              "type": "uint256"
            },
            {
              "internalType": "uint256",
              "name": "semester",
              "type": "uint256"
            },
            {
              "internalType": "uint256",
              "name": "registerClassFee",
              "type": "uint256"
            },
            {
              "internalType": "string",
              "name": "uri",
              "type": "string"
            }
          ],
          "internalType": "struct IConstant.Class[]",
          "name": "",
          "type": "tuple[]"
        }
      ],
      "stateMutability": "view",
      "type": "function",
      "constant": true
    },
    {
      "inputs": [
        {
          "internalType": "uint256",
          "name": "courseId",
          "type": "uint256"
        },
        {
          "internalType": "uint256",
          "name": "completeAt",
          "type": "uint256"
        },
        {
          "internalType": "uint256",
          "name": "maxSize",
          "type": "uint256"
        },
        {
          "internalType": "uint256",
          "name": "teacherTokenId",
          "type": "uint256"
        },
        {
          "internalType": "uint256",
          "name": "semester",
          "type": "uint256"
        },
        {
          "internalType": "uint256",
          "name": "registerClassFee",
          "type": "uint256"
        },
        {
          "internalType": "string",
          "name": "uri",
          "type": "string"
        }
      ],
      "name": "createClass",
      "outputs": [
        {
          "internalType": "uint256",
          "name": "",
          "type": "uint256"
        }
      ],
      "stateMutability": "nonpayable",
      "type": "function"
    },
    {
      "inputs": [
        {
          "internalType": "uint256",
          "name": "tokenId",
          "type": "uint256"
        }
      ],
      "name": "getRegisterFeeClassById",
      "outputs": [
        {
          "internalType": "uint256",
          "name": "",
          "type": "uint256"
        }
      ],
      "stateMutability": "view",
      "type": "function",
      "constant": true
    }
  ],
  "bytecode": "0x60806040526101f46001553480156200001757600080fd5b50604051620030383803806200303883398181016040528101906200003d919062000672565b33600360006101000a81548173ffffffffffffffffffffffffffffffffffffffff021916908373ffffffffffffffffffffffffffffffffffffffff16021790555082600460006101000a81548173ffffffffffffffffffffffffffffffffffffffff021916908373ffffffffffffffffffffffffffffffffffffffff16021790555060008251905060005b81811015620001a857600c6040518060600160405280600184620000ed91906200073b565b815260200186848151811062000108576200010762000798565b5b602002602001015181526020018584815181106200012b576200012a62000798565b5b6020026020010151815250908060018154018082558091505060019003906000526020600020906003020160009091909190915060008201518160000155602082015181600101908051906020019062000187929190620001b3565b5060408201518160020155505080620001a090620007c7565b9050620000c8565b505050505062000878565b828054620001c19062000843565b90600052602060002090601f016020900481019282620001e5576000855562000231565b82601f106200020057805160ff191683800117855562000231565b8280016001018555821562000231579182015b828111156200023057825182559160200191906001019062000213565b5b50905062000240919062000244565b5090565b5b808211156200025f57600081600090555060010162000245565b5090565b6000604051905090565b600080fd5b600080fd5b600073ffffffffffffffffffffffffffffffffffffffff82169050919050565b6000620002a48262000277565b9050919050565b620002b68162000297565b8114620002c257600080fd5b50565b600081519050620002d681620002ab565b92915050565b600080fd5b6000601f19601f8301169050919050565b7f4e487b7100000000000000000000000000000000000000000000000000000000600052604160045260246000fd5b6200032c82620002e1565b810181811067ffffffffffffffff821117156200034e576200034d620002f2565b5b80604052505050565b60006200036362000263565b905062000371828262000321565b919050565b600067ffffffffffffffff821115620003945762000393620002f2565b5b602082029050602081019050919050565b600080fd5b600080fd5b600067ffffffffffffffff821115620003cd57620003cc620002f2565b5b620003d882620002e1565b9050602081019050919050565b60005b8381101562000405578082015181840152602081019050620003e8565b8381111562000415576000848401525b50505050565b6000620004326200042c84620003af565b62000357565b905082815260208101848484011115620004515762000450620003aa565b5b6200045e848285620003e5565b509392505050565b600082601f8301126200047e576200047d620002dc565b5b8151620004908482602086016200041b565b91505092915050565b6000620004b0620004aa8462000376565b62000357565b90508083825260208201905060208402830185811115620004d657620004d5620003a5565b5b835b818110156200052457805167ffffffffffffffff811115620004ff57620004fe620002dc565b5b8086016200050e898262000466565b85526020850194505050602081019050620004d8565b5050509392505050565b600082601f830112620005465762000545620002dc565b5b81516200055884826020860162000499565b91505092915050565b600067ffffffffffffffff8211156200057f576200057e620002f2565b5b602082029050602081019050919050565b6000819050919050565b620005a58162000590565b8114620005b157600080fd5b50565b600081519050620005c5816200059a565b92915050565b6000620005e2620005dc8462000561565b62000357565b90508083825260208201905060208402830185811115620006085762000607620003a5565b5b835b81811015620006355780620006208882620005b4565b8452602084019350506020810190506200060a565b5050509392505050565b600082601f830112620006575762000656620002dc565b5b815162000669848260208601620005cb565b91505092915050565b6000806000606084860312156200068e576200068d6200026d565b5b60006200069e86828701620002c5565b935050602084015167ffffffffffffffff811115620006c257620006c162000272565b5b620006d0868287016200052e565b925050604084015167ffffffffffffffff811115620006f457620006f362000272565b5b62000702868287016200063f565b9150509250925092565b7f4e487b7100000000000000000000000000000000000000000000000000000000600052601160045260246000fd5b6000620007488262000590565b9150620007558362000590565b9250827fffffffffffffffffffffffffffffffffffffffffffffffffffffffffffffffff038211156200078d576200078c6200070c565b5b828201905092915050565b7f4e487b7100000000000000000000000000000000000000000000000000000000600052603260045260246000fd5b6000620007d48262000590565b91507fffffffffffffffffffffffffffffffffffffffffffffffffffffffffffffffff82036200080957620008086200070c565b5b600182019050919050565b7f4e487b7100000000000000000000000000000000000000000000000000000000600052602260045260246000fd5b600060028204905060018216806200085c57607f821691505b60208210810362000872576200087162000814565b5b50919050565b6127b080620008886000396000f3fe608060405234801561001057600080fd5b50600436106101005760003560e01c80637071b86911610097578063c4d66de811610066578063c4d66de8146102d7578063d9ac23d9146102f3578063e38e8a1b14610324578063ea5b210f1461035457610100565b80637071b869146102295780639742d96414610259578063b564529f14610289578063bbaa15e3146102a757610100565b80635f7b9d73116100d35780635f7b9d731461019f5780635fe03779146101bd5780636bda75dd146101db5780636be72764146101f957610100565b806303d658e01461010557806304e48bd1146101355780630cd190fa14610153578063192ac44214610183575b600080fd5b61011f600480360381019061011a91906117ff565b610384565b60405161012c91906119c3565b60405180910390f35b61013d6104e9565b60405161014a9190611b30565b60405180910390f35b61016d600480360381019061016891906117ff565b610666565b60405161017a9190611b61565b60405180910390f35b61019d60048036038101906101989190611b7c565b6106c6565b005b6101a7610761565b6040516101b49190611ce1565b60405180910390f35b6101c5610866565b6040516101d29190611b61565b60405180910390f35b6101e361086c565b6040516101f09190611eb4565b60405180910390f35b610213600480360381019061020e919061200b565b610a91565b6040516102209190611b61565b60405180910390f35b610243600480360381019061023e91906117ff565b610e62565b6040516102509190611eb4565b60405180910390f35b610273600480360381019061026e91906120c9565b6110cb565b6040516102809190611b61565b60405180910390f35b610291611105565b60405161029e919061212d565b60405180910390f35b6102c160048036038101906102bc91906117ff565b611118565b6040516102ce9190611eb4565b60405180910390f35b6102f160048036038101906102ec91906121a6565b61120a565b005b61030d600480360381019061030891906117ff565b6112dd565b60405161031b9291906121d3565b60405180910390f35b61033e600480360381019061033991906121fc565b611311565b60405161034b9190611b61565b60405180910390f35b61036e600480360381019061036991906117ff565b61150a565b60405161037b9190612308565b60405180910390f35b61038c611682565b6000600e6000848152602001908152602001600020549050600081116103b157600080fd5b600d6001826103c09190612359565b815481106103d1576103d061238d565b5b90600052602060002090600b02016040518061016001604052908160008201548152602001600182015481526020016002820154815260200160038201548152602001600482015481526020016005820154815260200160068201548152602001600782015481526020016008820154815260200160098201548152602001600a8201805461045f906123eb565b80601f016020809104026020016040519081016040528092919081815260200182805461048b906123eb565b80156104d85780601f106104ad576101008083540402835291602001916104d8565b820191906000526020600020905b8154815290600101906020018083116104bb57829003601f168201915b505050505081525050915050919050565b60603373ffffffffffffffffffffffffffffffffffffffff16600360009054906101000a900473ffffffffffffffffffffffffffffffffffffffff1673ffffffffffffffffffffffffffffffffffffffff161461054557600080fd5b600a805480602002602001604051908101604052809291908181526020016000905b8282101561065d57838290600052602060002090600602016040518060c001604052908160008201548152602001600182015481526020016002820154815260200160038201548152602001600482015481526020016005820180546105cc906123eb565b80601f01602080910402602001604051908101604052809291908181526020018280546105f8906123eb565b80156106455780601f1061061a57610100808354040283529160200191610645565b820191906000526020600020905b81548152906001019060200180831161062857829003601f168201915b50505050508152505081526020019060010190610567565b50505050905090565b600080600e60008481526020019081526020016000205490506000811161068c57600080fd5b600d60018261069b9190612359565b815481106106ac576106ab61238d565b5b90600052602060002090600b020160090154915050919050565b3373ffffffffffffffffffffffffffffffffffffffff16600360009054906101000a900473ffffffffffffffffffffffffffffffffffffffff1673ffffffffffffffffffffffffffffffffffffffff161461072057600080fd5b81811161072c57600080fd5b816006600085815260200190815260200160002081905550806007600085815260200190815260200160002081905550505050565b6060600c805480602002602001604051908101604052809291908181526020016000905b8282101561085d5783829060005260206000209060030201604051806060016040529081600082015481526020016001820180546107c2906123eb565b80601f01602080910402602001604051908101604052809291908181526020018280546107ee906123eb565b801561083b5780601f106108105761010080835404028352916020019161083b565b820191906000526020600020905b81548152906001019060200180831161081e57829003601f168201915b5050505050815260200160028201548152505081526020019060010190610785565b50505050905090565b60015481565b60603373ffffffffffffffffffffffffffffffffffffffff16600360009054906101000a900473ffffffffffffffffffffffffffffffffffffffff1673ffffffffffffffffffffffffffffffffffffffff16146108c857600080fd5b6000600d80549050905060008167ffffffffffffffff8111156108ee576108ed611ee0565b5b60405190808252806020026020018201604052801561092757816020015b610914611682565b81526020019060019003908161090c5790505b50905060005b82811015610a8857600d81815481106109495761094861238d565b5b90600052602060002090600b02016040518061016001604052908160008201548152602001600182015481526020016002820154815260200160038201548152602001600482015481526020016005820154815260200160068201548152602001600782015481526020016008820154815260200160098201548152602001600a820180546109d7906123eb565b80601f0160208091040260200160405190810160405280929190818152602001828054610a03906123eb565b8015610a505780601f10610a2557610100808354040283529160200191610a50565b820191906000526020600020905b815481529060010190602001808311610a3357829003601f168201915b505050505081525050828281518110610a6c57610a6b61238d565b5b602002602001018190525080610a819061241c565b905061092d565b50809250505090565b60003373ffffffffffffffffffffffffffffffffffffffff16600360009054906101000a900473ffffffffffffffffffffffffffffffffffffffff1673ffffffffffffffffffffffffffffffffffffffff1614610aed57600080fd5b6000610af88961150a565b90506000600460009054906101000a900473ffffffffffffffffffffffffffffffffffffffff1673ffffffffffffffffffffffffffffffffffffffff1663d703df8b886040518263ffffffff1660e01b8152600401610b579190611b61565b600060405180830381865afa158015610b74573d6000803e3d6000fd5b505050506040513d6000823e3d601f19601f82011682018060405250810190610b9d919061262c565b90506000600460009054906101000a900473ffffffffffffffffffffffffffffffffffffffff1673ffffffffffffffffffffffffffffffffffffffff166376aed2e1896040518263ffffffff1660e01b8152600401610bfc9190611b61565b602060405180830381865afa158015610c19573d6000803e3d6000fd5b505050506040513d601f19601f82011682018060405250810190610c3d9190612675565b9050600180811115610c5257610c516126a2565b5b8114610c5d57600080fd5b8982600001516040015111610c7157600080fd5b6000610c7d600261163c565b9050600d6040518061016001604052808381526020018e81526020018660200151815260200186604001518152602001866060015181526020018d81526020018c81526020018b81526020018a81526020018981526020018881525090806001815401808255809150506001900390600052602060002090600b0201600090919091909150600082015181600001556020820151816001015560408201518160020155606082015181600301556080820151816004015560a0820151816005015560c0820151816006015560e082015181600701556101008201518160080155610120820151816009015561014082015181600a019080519060200190610d859291906116dc565b505050600d80549050600e60008381526020019081526020016000208190555060086000898152602001908152602001600020819080600181540180825580915050600190039060005260206000200160009091909190915055600f60008a81526020019081526020016000208190806001815401808255809150506001900390600052602060002001600090919091909150557f85ea935a5969f304d55f08078ec0395f62519aa6ca78076ff75b8d729bbc625f81604051610e489190611b61565b60405180910390a180945050505050979650505050505050565b6060600060086000848152602001908152602001600020805480602002602001604051908101604052809291908181526020018280548015610ec357602002820191906000526020600020905b815481526020019060010190808311610eaf575b5050505050905060008151905060008167ffffffffffffffff811115610eec57610eeb611ee0565b5b604051908082528060200260200182016040528015610f2557816020015b610f12611682565b815260200190600190039081610f0a5790505b50905060005b828110156110bf57600d6001600e6000878581518110610f4e57610f4d61238d565b5b6020026020010151815260200190815260200160002054610f6f9190612359565b81548110610f8057610f7f61238d565b5b90600052602060002090600b02016040518061016001604052908160008201548152602001600182015481526020016002820154815260200160038201548152602001600482015481526020016005820154815260200160068201548152602001600782015481526020016008820154815260200160098201548152602001600a8201805461100e906123eb565b80601f016020809104026020016040519081016040528092919081815260200182805461103a906123eb565b80156110875780601f1061105c57610100808354040283529160200191611087565b820191906000526020600020905b81548152906001019060200180831161106a57829003601f168201915b5050505050815250508282815181106110a3576110a261238d565b5b6020026020010181905250806110b89061241c565b9050610f2b565b50809350505050919050565b60006009600060018152602001908152602001600020826040516110ef919061270d565b9081526020016040518091039020549050919050565b600560149054906101000a900460ff1681565b60606000600f600084815260200190815260200160002080549050905060008167ffffffffffffffff81111561115157611150611ee0565b5b60405190808252806020026020018201604052801561118a57816020015b611177611682565b81526020019060019003908161116f5790505b50905060005b828110156111ff576111d0600f600087815260200190815260200160002082815481106111c0576111bf61238d565b5b9060005260206000200154610384565b8282815181106111e3576111e261238d565b5b6020026020010181905250806111f89061241c565b9050611190565b508092505050919050565b3373ffffffffffffffffffffffffffffffffffffffff16600360009054906101000a900473ffffffffffffffffffffffffffffffffffffffff1673ffffffffffffffffffffffffffffffffffffffff161461126457600080fd5b600560149054906101000a900460ff161561127e57600080fd5b6001600560146101000a81548160ff02191690831515021790555080600560006101000a81548173ffffffffffffffffffffffffffffffffffffffff021916908373ffffffffffffffffffffffffffffffffffffffff16021790555050565b6000806006600084815260200190815260200160002054600760008581526020019081526020016000205491509150915091565b60003373ffffffffffffffffffffffffffffffffffffffff16600360009054906101000a900473ffffffffffffffffffffffffffffffffffffffff1673ffffffffffffffffffffffffffffffffffffffff161461136d57600080fd5b600c8054905084111561137f57600080fd5b6000831161138c57600080fd5b60008514806113ae57506000600b600087815260200190815260200160002054115b6113b757600080fd5b60006009600060018152602001908152602001600020836040516113db919061270d565b908152602001604051809103902054146113f457600080fd5b6000611400600161163c565b9050600a6040518060c0016040528083815260200187815260200188815260200186815260200160018152602001858152509080600181540180825580915050600190039060005260206000209060060201600090919091909150600082015181600001556020820151816001015560408201518160020155606082015181600301556080820151816004015560a08201518160050190805190602001906114a99291906116dc565b505050806009600060018152602001908152602001600020846040516114cf919061270d565b908152602001604051809103902081905550600a80549050600b60008381526020019081526020016000208190555080915050949350505050565b611512611762565b6000600b60008481526020019081526020016000205490506000811161153757600080fd5b600a6001826115469190612359565b815481106115575761155661238d565b5b90600052602060002090600602016040518060c001604052908160008201548152602001600182015481526020016002820154815260200160038201548152602001600482015481526020016005820180546115b2906123eb565b80601f01602080910402602001604051908101604052809291908181526020018280546115de906123eb565b801561162b5780601f106116005761010080835404028352916020019161162b565b820191906000526020600020905b81548152906001019060200180831161160e57829003601f168201915b505050505081525050915050919050565b6000600160008084815260200190815260200160002060008282546116619190612724565b92505081905550600080838152602001908152602001600020549050919050565b60405180610160016040528060008152602001600081526020016000815260200160008152602001600081526020016000815260200160008152602001600081526020016000815260200160008152602001606081525090565b8280546116e8906123eb565b90600052602060002090601f01602090048101928261170a5760008555611751565b82601f1061172357805160ff1916838001178555611751565b82800160010185558215611751579182015b82811115611750578251825591602001919060010190611735565b5b50905061175e9190611798565b5090565b6040518060c001604052806000815260200160008152602001600081526020016000815260200160008152602001606081525090565b5b808211156117b1576000816000905550600101611799565b5090565b6000604051905090565b600080fd5b600080fd5b6000819050919050565b6117dc816117c9565b81146117e757600080fd5b50565b6000813590506117f9816117d3565b92915050565b600060208284031215611815576118146117bf565b5b6000611823848285016117ea565b91505092915050565b611835816117c9565b82525050565b600081519050919050565b600082825260208201905092915050565b60005b8381101561187557808201518184015260208101905061185a565b83811115611884576000848401525b50505050565b6000601f19601f8301169050919050565b60006118a68261183b565b6118b08185611846565b93506118c0818560208601611857565b6118c98161188a565b840191505092915050565b6000610160830160008301516118ed600086018261182c565b506020830151611900602086018261182c565b506040830151611913604086018261182c565b506060830151611926606086018261182c565b506080830151611939608086018261182c565b5060a083015161194c60a086018261182c565b5060c083015161195f60c086018261182c565b5060e083015161197260e086018261182c565b5061010083015161198761010086018261182c565b5061012083015161199c61012086018261182c565b506101408301518482036101408601526119b6828261189b565b9150508091505092915050565b600060208201905081810360008301526119dd81846118d4565b905092915050565b600081519050919050565b600082825260208201905092915050565b6000819050602082019050919050565b600060c083016000830151611a29600086018261182c565b506020830151611a3c602086018261182c565b506040830151611a4f604086018261182c565b506060830151611a62606086018261182c565b506080830151611a75608086018261182c565b5060a083015184820360a0860152611a8d828261189b565b9150508091505092915050565b6000611aa68383611a11565b905092915050565b6000602082019050919050565b6000611ac6826119e5565b611ad081856119f0565b935083602082028501611ae285611a01565b8060005b85811015611b1e5784840389528151611aff8582611a9a565b9450611b0a83611aae565b925060208a01995050600181019050611ae6565b50829750879550505050505092915050565b60006020820190508181036000830152611b4a8184611abb565b905092915050565b611b5b816117c9565b82525050565b6000602082019050611b766000830184611b52565b92915050565b600080600060608486031215611b9557611b946117bf565b5b6000611ba3868287016117ea565b9350506020611bb4868287016117ea565b9250506040611bc5868287016117ea565b9150509250925092565b600081519050919050565b600082825260208201905092915050565b6000819050602082019050919050565b6000606083016000830151611c13600086018261182c565b5060208301518482036020860152611c2b828261189b565b9150506040830151611c40604086018261182c565b508091505092915050565b6000611c578383611bfb565b905092915050565b6000602082019050919050565b6000611c7782611bcf565b611c818185611bda565b935083602082028501611c9385611beb565b8060005b85811015611ccf5784840389528151611cb08582611c4b565b9450611cbb83611c5f565b925060208a01995050600181019050611c97565b50829750879550505050505092915050565b60006020820190508181036000830152611cfb8184611c6c565b905092915050565b600081519050919050565b600082825260208201905092915050565b6000819050602082019050919050565b600061016083016000830151611d48600086018261182c565b506020830151611d5b602086018261182c565b506040830151611d6e604086018261182c565b506060830151611d81606086018261182c565b506080830151611d94608086018261182c565b5060a0830151611da760a086018261182c565b5060c0830151611dba60c086018261182c565b5060e0830151611dcd60e086018261182c565b50610100830151611de261010086018261182c565b50610120830151611df761012086018261182c565b50610140830151848203610140860152611e11828261189b565b9150508091505092915050565b6000611e2a8383611d2f565b905092915050565b6000602082019050919050565b6000611e4a82611d03565b611e548185611d0e565b935083602082028501611e6685611d1f565b8060005b85811015611ea25784840389528151611e838582611e1e565b9450611e8e83611e32565b925060208a01995050600181019050611e6a565b50829750879550505050505092915050565b60006020820190508181036000830152611ece8184611e3f565b905092915050565b600080fd5b600080fd5b7f4e487b7100000000000000000000000000000000000000000000000000000000600052604160045260246000fd5b611f188261188a565b810181811067ffffffffffffffff82111715611f3757611f36611ee0565b5b80604052505050565b6000611f4a6117b5565b9050611f568282611f0f565b919050565b600067ffffffffffffffff821115611f7657611f75611ee0565b5b611f7f8261188a565b9050602081019050919050565b82818337600083830152505050565b6000611fae611fa984611f5b565b611f40565b905082815260208101848484011115611fca57611fc9611edb565b5b611fd5848285611f8c565b509392505050565b600082601f830112611ff257611ff1611ed6565b5b8135612002848260208601611f9b565b91505092915050565b600080600080600080600060e0888a03121561202a576120296117bf565b5b60006120388a828b016117ea565b97505060206120498a828b016117ea565b965050604061205a8a828b016117ea565b955050606061206b8a828b016117ea565b945050608061207c8a828b016117ea565b93505060a061208d8a828b016117ea565b92505060c088013567ffffffffffffffff8111156120ae576120ad6117c4565b5b6120ba8a828b01611fdd565b91505092959891949750929550565b6000602082840312156120df576120de6117bf565b5b600082013567ffffffffffffffff8111156120fd576120fc6117c4565b5b61210984828501611fdd565b91505092915050565b60008115159050919050565b61212781612112565b82525050565b6000602082019050612142600083018461211e565b92915050565b600073ffffffffffffffffffffffffffffffffffffffff82169050919050565b600061217382612148565b9050919050565b61218381612168565b811461218e57600080fd5b50565b6000813590506121a08161217a565b92915050565b6000602082840312156121bc576121bb6117bf565b5b60006121ca84828501612191565b91505092915050565b60006040820190506121e86000830185611b52565b6121f56020830184611b52565b9392505050565b60008060008060808587031215612216576122156117bf565b5b6000612224878288016117ea565b9450506020612235878288016117ea565b9350506040612246878288016117ea565b925050606085013567ffffffffffffffff811115612267576122666117c4565b5b61227387828801611fdd565b91505092959194509250565b600060c083016000830151612297600086018261182c565b5060208301516122aa602086018261182c565b5060408301516122bd604086018261182c565b5060608301516122d0606086018261182c565b5060808301516122e3608086018261182c565b5060a083015184820360a08601526122fb828261189b565b9150508091505092915050565b60006020820190508181036000830152612322818461227f565b905092915050565b7f4e487b7100000000000000000000000000000000000000000000000000000000600052601160045260246000fd5b6000612364826117c9565b915061236f836117c9565b9250828210156123825761238161232a565b5b828203905092915050565b7f4e487b7100000000000000000000000000000000000000000000000000000000600052603260045260246000fd5b7f4e487b7100000000000000000000000000000000000000000000000000000000600052602260045260246000fd5b6000600282049050600182168061240357607f821691505b602082108103612416576124156123bc565b5b50919050565b6000612427826117c9565b91507fffffffffffffffffffffffffffffffffffffffffffffffffffffffffffffffff82036124595761245861232a565b5b600182019050919050565b600080fd5b600080fd5b60008151905061247d816117d3565b92915050565b6000815190506124928161217a565b92915050565b6000606082840312156124ae576124ad612464565b5b6124b86060611f40565b905060006124c88482850161246e565b60008301525060206124dc84828501612483565b60208301525060406124f08482850161246e565b60408301525092915050565b600061250f61250a84611f5b565b611f40565b90508281526020810184848401111561252b5761252a611edb565b5b612536848285611857565b509392505050565b600082601f83011261255357612552611ed6565b5b81516125638482602086016124fc565b91505092915050565b61257581612112565b811461258057600080fd5b50565b6000815190506125928161256c565b92915050565b600060c082840312156125ae576125ad612464565b5b6125b86080611f40565b905060006125c884828501612498565b600083015250606082015167ffffffffffffffff8111156125ec576125eb612469565b5b6125f88482850161253e565b602083015250608061260c8482850161246e565b60408301525060a061262084828501612583565b60608301525092915050565b600060208284031215612642576126416117bf565b5b600082015167ffffffffffffffff8111156126605761265f6117c4565b5b61266c84828501612598565b91505092915050565b60006020828403121561268b5761268a6117bf565b5b60006126998482850161246e565b91505092915050565b7f4e487b7100000000000000000000000000000000000000000000000000000000600052602160045260246000fd5b600081905092915050565b60006126e78261183b565b6126f181856126d1565b9350612701818560208601611857565b80840191505092915050565b600061271982846126dc565b915081905092915050565b600061272f826117c9565b915061273a836117c9565b9250827fffffffffffffffffffffffffffffffffffffffffffffffffffffffffffffffff0382111561276f5761276e61232a565b5b82820190509291505056fea26469706673582212202bb9a3559bcdb1539dde9d969799181a6396cb75aa7ddc2cb8b8da82190d971664736f6c634300080d0033",
  "immutableReferences": {},
  "source": "// SPDX-License-Identifier: MIT\r\n// Tells the Solidity compiler to compile only from v0.8.13 to v0.9.0\r\npragma solidity ^0.8.13;\r\n\r\nimport \"./ERC1155BaseContract.sol\";\r\nimport \"./utils/IdentityGenerator.sol\";\r\nimport \"./interfaces/INftSchool.sol\";\r\nimport \"./interfaces/INftIdentities.sol\";\r\nimport \"./interfaces/INftCertificates.sol\";\r\n\r\ncontract NftSchool is INftSchool, IdentityGenerator {\r\n    using Counters for Counters.Counter;\r\n\r\n    uint256 constant COURSE_ID = 1;\r\n    uint256 constant CLASS_ID = 2;\r\n    uint256 constant REGISTERED_TIME_ID = 3;\r\n\r\n    uint256 constant NFT_COURSE_REGISTRATION_ID = 0;\r\n\r\n    uint256 public minimumGraduationScore = 500;\r\n\r\n    string[] private courseURIs;\r\n\r\n    address private _owner;\r\n    \r\n    INftIdentities private _nftIdentities;\r\n    INftCertificates private _nftCertificates;\r\n\r\n    bool public _isInitialize;\r\n\r\n    event NewClassCreated(uint256 id);\r\n\r\n    mapping(uint256 => uint256) private _registeredStartAt;\r\n    mapping(uint256 => uint256) private _registeredEndAt;\r\n\r\n    mapping(uint256 => uint256[]) private _classIdsOfSemeter;\r\n    mapping(uint256 => mapping(string => uint256)) private _idOfURIOfType;\r\n\r\n    Course[] private _allCourses;\r\n    mapping(uint256 => uint256) _posOfCourses;\r\n\r\n    KnowledgeBlock[] private _knowledgeBlocks;\r\n\r\n    Class[] private _allClasses;\r\n    mapping(uint256 => uint256) private _posOfClasses;\r\n    mapping(uint256 => uint256[]) private _assignedClassesOfTeacher;\r\n\r\n    modifier onlyOwner() {\r\n        require(_owner == msg.sender);\r\n        _;\r\n    }\r\n\r\n    constructor(\r\n        address nftIdentities,\r\n        string[] memory knowledgeBlockNames,\r\n        uint256[] memory knowledgeBlockCredits\r\n    ) {\r\n        _owner = msg.sender;\r\n        _nftIdentities = INftIdentities(nftIdentities);\r\n\r\n        uint256 knowledgeBlockCount = knowledgeBlockNames.length;\r\n        for (uint256 idx = 0; idx < knowledgeBlockCount; ++idx) {\r\n            _knowledgeBlocks.push(\r\n                KnowledgeBlock(\r\n                    idx + 1,\r\n                    knowledgeBlockNames[idx],\r\n                    knowledgeBlockCredits[idx]\r\n                )\r\n            );\r\n        }\r\n    }\r\n\r\n    function initialize(address nftCertificates) public onlyOwner {\r\n        require(!_isInitialize);\r\n        _isInitialize = true;\r\n        _nftCertificates = INftCertificates(nftCertificates);\r\n    }\r\n\r\n    // Knowledge Block: Start\r\n    function getAllKnowledgeBlocks()\r\n        external\r\n        view\r\n        returns (KnowledgeBlock[] memory)\r\n    {\r\n        return _knowledgeBlocks;\r\n    }\r\n\r\n    // Knowledge Block: End\r\n\r\n    // Register time Section: Start\r\n    function updateRegisteredTime(\r\n        uint256 semesterId,\r\n        uint256 registeredStartAt,\r\n        uint256 registeredEndAt\r\n    ) external onlyOwner {\r\n        require(registeredEndAt > registeredStartAt);\r\n        _registeredStartAt[semesterId] = registeredStartAt;\r\n        _registeredEndAt[semesterId] = registeredEndAt;\r\n    }\r\n\r\n    function getRegisterTime(\r\n        uint256 semesterId\r\n    ) external view returns (uint256, uint256) {\r\n        return (_registeredStartAt[semesterId], _registeredEndAt[semesterId]);\r\n    }\r\n\r\n    // Register time Section: End\r\n\r\n    // Course Block: Start\r\n    function getAllCourses() external view onlyOwner returns (Course[] memory) {\r\n        return _allCourses;\r\n    }\r\n\r\n    function getCourseById(uint256 id) public view returns (Course memory) {\r\n        uint256 pos = _posOfCourses[id];\r\n        require(pos > 0);\r\n\r\n        return _allCourses[pos - 1];\r\n    }\r\n\r\n    function getCourseIdByURI(\r\n        string memory tokenURI\r\n    ) public view returns (uint256) {\r\n        return _idOfURIOfType[COURSE_ID][tokenURI];\r\n    }\r\n\r\n    function createCourse(\r\n        uint256 prevCourseId,\r\n        uint256 knowledgeBlockId,\r\n        uint256 credits,\r\n        string memory uri\r\n    ) public onlyOwner returns (uint256) {\r\n        require(knowledgeBlockId <= _knowledgeBlocks.length);\r\n        require(credits > 0);\r\n        require(prevCourseId == 0 || _posOfCourses[prevCourseId] > 0);\r\n        require(_idOfURIOfType[COURSE_ID][uri] == 0);\r\n        uint256 id = generateNewId(COURSE_ID);\r\n        _allCourses.push(\r\n            Course(id, knowledgeBlockId, prevCourseId, credits, 1, uri)\r\n        );\r\n        _idOfURIOfType[COURSE_ID][uri] = id;\r\n        _posOfCourses[id] = _allCourses.length;\r\n\r\n        return id;\r\n    }\r\n\r\n    // Course Block: End\r\n\r\n    // Class Block: Start\r\n    function getClassById(\r\n        uint256 id\r\n    ) public view returns (Class memory) {\r\n        uint256 pos = _posOfClasses[id];\r\n        require(pos > 0);\r\n\r\n        return _allClasses[pos - 1];\r\n    }\r\n\r\n    function getAllClasses()\r\n        external\r\n        view\r\n        onlyOwner\r\n        returns (Class[] memory)\r\n    {\r\n        uint256 length = _allClasses.length;\r\n        Class[] memory classes = new Class[](length);\r\n\r\n        for (uint256 idx; idx < length; ++idx) {\r\n            classes[idx] = _allClasses[idx];\r\n        }\r\n\r\n        return classes;\r\n    }\r\n\r\n    function getClassBySemester(\r\n        uint256 semester\r\n    ) external view returns (Class[] memory) {\r\n        uint256[] memory ids = _classIdsOfSemeter[semester];\r\n        uint256 count = ids.length;\r\n        Class[] memory classes = new Class[](count);\r\n\r\n        for (uint256 idx; idx < count; ++idx) {\r\n            classes[idx] = _allClasses[_posOfClasses[ids[idx]] - 1];\r\n        }\r\n\r\n        return classes;\r\n    }\r\n\r\n    function getAssignedClasses(\r\n        uint256 teacherTokenId\r\n    ) external view returns (Class[] memory) {\r\n        uint256 count = _assignedClassesOfTeacher[teacherTokenId].length;\r\n        Class[] memory result = new Class[](count);\r\n\r\n        for (uint256 idx; idx < count; ++idx) {\r\n            result[idx] = getClassById(_assignedClassesOfTeacher[teacherTokenId][idx]);\r\n        }\r\n\r\n        return result;\r\n    }\r\n\r\n    function createClass(\r\n        uint256 courseId,\r\n        uint256 completeAt,\r\n        uint256 maxSize,\r\n        uint256 teacherTokenId,\r\n        uint256 semester,\r\n        uint256 registerClassFee,\r\n        string memory uri\r\n    ) public onlyOwner returns (uint256) {\r\n        Course memory course = getCourseById(courseId);\r\n        // get nft => check expired date > completeAt\r\n        NftIdentityResponse memory nftTeacher = _nftIdentities.getNftOfTokenId(\r\n            teacherTokenId\r\n        );\r\n        uint256 nftTeacherRole = _nftIdentities.getTokenType(teacherTokenId);\r\n\r\n        require(nftTeacherRole == uint256(ROLE.TEACHER));\r\n        require(nftTeacher.nftIdentity.expiredAt > completeAt);\r\n        uint256 id = generateNewId(CLASS_ID);\r\n        _allClasses.push(\r\n            Class(\r\n                id,\r\n                courseId,\r\n                course.knowledgeBlockId,\r\n                course.prevCourseId,\r\n                course.credits,\r\n                completeAt,\r\n                maxSize,\r\n                teacherTokenId,\r\n                semester,\r\n                registerClassFee,\r\n                uri\r\n            )\r\n        );\r\n        _posOfClasses[id] = _allClasses.length;\r\n        _classIdsOfSemeter[semester].push(id);\r\n        _assignedClassesOfTeacher[teacherTokenId].push(id);\r\n        emit NewClassCreated(id);\r\n\r\n        return id;\r\n    }\r\n\r\n    function getRegisterFeeClassById(\r\n        uint256 tokenId\r\n    ) public view returns (uint256) {\r\n        uint256 pos = _posOfClasses[tokenId];\r\n        require(pos > 0);\r\n\r\n        return _allClasses[pos - 1].registerClassFee;\r\n    }\r\n    // Class Block: End\r\n}\r\n",
  "sourcePath": "E:\\learn\\learn-to-earn\\blockchain\\contracts\\NftSchool.sol",
  "compiler": {
    "name": "solc",
    "version": "0.8.13+commit.abaa5c0e.Emscripten.clang"
  },
  "schemaVersion": "3.4.13",
  "updatedAt": "2023-05-24T16:45:52.734Z",
  "networkType": "ethereum",
  "devdoc": {
    "kind": "dev",
    "methods": {},
    "version": 1
  },
  "userdoc": {
    "kind": "user",
    "methods": {},
    "version": 1
  }
}