{
  "contractName": "NftSchool",
  "abi": [
    {
      "inputs": [
        {
          "internalType": "address",
          "name": "nftIdentities",
          "type": "address"
        },
        {
          "internalType": "string[]",
          "name": "knowledgeBlockNames",
          "type": "string[]"
        },
        {
          "internalType": "uint256[]",
          "name": "knowledgeBlockCredits",
          "type": "uint256[]"
        }
      ],
      "stateMutability": "nonpayable",
      "type": "constructor"
    },
    {
      "anonymous": false,
      "inputs": [
        {
          "indexed": true,
          "internalType": "address",
          "name": "account",
          "type": "address"
        },
        {
          "indexed": true,
          "internalType": "address",
          "name": "operator",
          "type": "address"
        },
        {
          "indexed": false,
          "internalType": "bool",
          "name": "approved",
          "type": "bool"
        }
      ],
      "name": "ApprovalForAll",
      "type": "event"
    },
    {
      "anonymous": false,
      "inputs": [
        {
          "indexed": true,
          "internalType": "address",
          "name": "operator",
          "type": "address"
        },
        {
          "indexed": true,
          "internalType": "address",
          "name": "from",
          "type": "address"
        },
        {
          "indexed": true,
          "internalType": "address",
          "name": "to",
          "type": "address"
        },
        {
          "indexed": false,
          "internalType": "uint256[]",
          "name": "ids",
          "type": "uint256[]"
        },
        {
          "indexed": false,
          "internalType": "uint256[]",
          "name": "values",
          "type": "uint256[]"
        }
      ],
      "name": "TransferBatch",
      "type": "event"
    },
    {
      "anonymous": false,
      "inputs": [
        {
          "indexed": true,
          "internalType": "address",
          "name": "operator",
          "type": "address"
        },
        {
          "indexed": true,
          "internalType": "address",
          "name": "from",
          "type": "address"
        },
        {
          "indexed": true,
          "internalType": "address",
          "name": "to",
          "type": "address"
        },
        {
          "indexed": false,
          "internalType": "uint256",
          "name": "id",
          "type": "uint256"
        },
        {
          "indexed": false,
          "internalType": "uint256",
          "name": "value",
          "type": "uint256"
        }
      ],
      "name": "TransferSingle",
      "type": "event"
    },
    {
      "anonymous": false,
      "inputs": [
        {
          "indexed": false,
          "internalType": "string",
          "name": "value",
          "type": "string"
        },
        {
          "indexed": true,
          "internalType": "uint256",
          "name": "id",
          "type": "uint256"
        }
      ],
      "name": "URI",
      "type": "event"
    },
    {
      "inputs": [],
      "name": "_isInitialize",
      "outputs": [
        {
          "internalType": "bool",
          "name": "",
          "type": "bool"
        }
      ],
      "stateMutability": "view",
      "type": "function",
      "constant": true
    },
    {
      "inputs": [
        {
          "internalType": "address",
          "name": "account",
          "type": "address"
        },
        {
          "internalType": "uint256",
          "name": "id",
          "type": "uint256"
        }
      ],
      "name": "balanceOf",
      "outputs": [
        {
          "internalType": "uint256",
          "name": "",
          "type": "uint256"
        }
      ],
      "stateMutability": "view",
      "type": "function",
      "constant": true
    },
    {
      "inputs": [
        {
          "internalType": "address[]",
          "name": "accounts",
          "type": "address[]"
        },
        {
          "internalType": "uint256[]",
          "name": "ids",
          "type": "uint256[]"
        }
      ],
      "name": "balanceOfBatch",
      "outputs": [
        {
          "internalType": "uint256[]",
          "name": "",
          "type": "uint256[]"
        }
      ],
      "stateMutability": "view",
      "type": "function",
      "constant": true
    },
    {
      "inputs": [
        {
          "internalType": "address",
          "name": "account",
          "type": "address"
        },
        {
          "internalType": "address",
          "name": "operator",
          "type": "address"
        }
      ],
      "name": "isApprovedForAll",
      "outputs": [
        {
          "internalType": "bool",
          "name": "",
          "type": "bool"
        }
      ],
      "stateMutability": "view",
      "type": "function",
      "constant": true
    },
    {
      "inputs": [],
      "name": "minimumGraduationScore",
      "outputs": [
        {
          "internalType": "uint256",
          "name": "",
          "type": "uint256"
        }
      ],
      "stateMutability": "view",
      "type": "function",
      "constant": true
    },
    {
      "inputs": [],
      "name": "registerClassFee",
      "outputs": [
        {
          "internalType": "uint256",
          "name": "",
          "type": "uint256"
        }
      ],
      "stateMutability": "view",
      "type": "function",
      "constant": true
    },
    {
      "inputs": [
        {
          "internalType": "address",
          "name": "from",
          "type": "address"
        },
        {
          "internalType": "address",
          "name": "to",
          "type": "address"
        },
        {
          "internalType": "uint256[]",
          "name": "ids",
          "type": "uint256[]"
        },
        {
          "internalType": "uint256[]",
          "name": "amounts",
          "type": "uint256[]"
        },
        {
          "internalType": "bytes",
          "name": "data",
          "type": "bytes"
        }
      ],
      "name": "safeBatchTransferFrom",
      "outputs": [],
      "stateMutability": "nonpayable",
      "type": "function"
    },
    {
      "inputs": [
        {
          "internalType": "address",
          "name": "from",
          "type": "address"
        },
        {
          "internalType": "address",
          "name": "to",
          "type": "address"
        },
        {
          "internalType": "uint256",
          "name": "id",
          "type": "uint256"
        },
        {
          "internalType": "uint256",
          "name": "amount",
          "type": "uint256"
        },
        {
          "internalType": "bytes",
          "name": "data",
          "type": "bytes"
        }
      ],
      "name": "safeTransferFrom",
      "outputs": [],
      "stateMutability": "nonpayable",
      "type": "function"
    },
    {
      "inputs": [
        {
          "internalType": "address",
          "name": "operator",
          "type": "address"
        },
        {
          "internalType": "bool",
          "name": "approved",
          "type": "bool"
        }
      ],
      "name": "setApprovalForAll",
      "outputs": [],
      "stateMutability": "nonpayable",
      "type": "function"
    },
    {
      "inputs": [
        {
          "internalType": "bytes4",
          "name": "interfaceId",
          "type": "bytes4"
        }
      ],
      "name": "supportsInterface",
      "outputs": [
        {
          "internalType": "bool",
          "name": "",
          "type": "bool"
        }
      ],
      "stateMutability": "view",
      "type": "function",
      "constant": true
    },
    {
      "inputs": [
        {
          "internalType": "uint256",
          "name": "tokenId",
          "type": "uint256"
        }
      ],
      "name": "uri",
      "outputs": [
        {
          "internalType": "string",
          "name": "",
          "type": "string"
        }
      ],
      "stateMutability": "view",
      "type": "function",
      "constant": true
    },
    {
      "inputs": [
        {
          "internalType": "address",
          "name": "nftCertificates",
          "type": "address"
        }
      ],
      "name": "initialize",
      "outputs": [],
      "stateMutability": "nonpayable",
      "type": "function"
    },
    {
      "inputs": [],
      "name": "getAllKnowledgeBlocks",
      "outputs": [
        {
          "components": [
            {
              "internalType": "uint256",
              "name": "id",
              "type": "uint256"
            },
            {
              "internalType": "string",
              "name": "name",
              "type": "string"
            },
            {
              "internalType": "uint256",
              "name": "credits",
              "type": "uint256"
            }
          ],
          "internalType": "struct IConstant.KnowledgeBlock[]",
          "name": "",
          "type": "tuple[]"
        }
      ],
      "stateMutability": "view",
      "type": "function",
      "constant": true
    },
    {
      "inputs": [
        {
          "internalType": "uint256",
          "name": "registeredStartAt",
          "type": "uint256"
        },
        {
          "internalType": "uint256",
          "name": "registeredEndAt",
          "type": "uint256"
        }
      ],
      "name": "updateRegisteredTime",
      "outputs": [],
      "stateMutability": "nonpayable",
      "type": "function"
    },
    {
      "inputs": [],
      "name": "getRegisterTime",
      "outputs": [
        {
          "internalType": "uint256",
          "name": "",
          "type": "uint256"
        },
        {
          "internalType": "uint256",
          "name": "",
          "type": "uint256"
        }
      ],
      "stateMutability": "view",
      "type": "function",
      "constant": true
    },
    {
      "inputs": [],
      "name": "getAllCourses",
      "outputs": [
        {
          "components": [
            {
              "internalType": "uint256",
              "name": "id",
              "type": "uint256"
            },
            {
              "internalType": "uint256",
              "name": "knowledgeBlockId",
              "type": "uint256"
            },
            {
              "internalType": "uint256",
              "name": "prevCourseId",
              "type": "uint256"
            },
            {
              "internalType": "uint256",
              "name": "credits",
              "type": "uint256"
            },
            {
              "internalType": "uint256",
              "name": "status",
              "type": "uint256"
            },
            {
              "internalType": "string",
              "name": "uri",
              "type": "string"
            }
          ],
          "internalType": "struct IConstant.Course[]",
          "name": "",
          "type": "tuple[]"
        }
      ],
      "stateMutability": "view",
      "type": "function",
      "constant": true
    },
    {
      "inputs": [
        {
          "internalType": "uint256",
          "name": "id",
          "type": "uint256"
        }
      ],
      "name": "getCourseById",
      "outputs": [
        {
          "components": [
            {
              "internalType": "uint256",
              "name": "id",
              "type": "uint256"
            },
            {
              "internalType": "uint256",
              "name": "knowledgeBlockId",
              "type": "uint256"
            },
            {
              "internalType": "uint256",
              "name": "prevCourseId",
              "type": "uint256"
            },
            {
              "internalType": "uint256",
              "name": "credits",
              "type": "uint256"
            },
            {
              "internalType": "uint256",
              "name": "status",
              "type": "uint256"
            },
            {
              "internalType": "string",
              "name": "uri",
              "type": "string"
            }
          ],
          "internalType": "struct IConstant.Course",
          "name": "",
          "type": "tuple"
        }
      ],
      "stateMutability": "view",
      "type": "function",
      "constant": true
    },
    {
      "inputs": [
        {
          "internalType": "string",
          "name": "tokenURI",
          "type": "string"
        }
      ],
      "name": "getCourseIdByURI",
      "outputs": [
        {
          "internalType": "uint256",
          "name": "",
          "type": "uint256"
        }
      ],
      "stateMutability": "view",
      "type": "function",
      "constant": true
    },
    {
      "inputs": [
        {
          "internalType": "uint256",
          "name": "prevCourseId",
          "type": "uint256"
        },
        {
          "internalType": "uint256",
          "name": "knowledgeBlockId",
          "type": "uint256"
        },
        {
          "internalType": "uint256",
          "name": "credits",
          "type": "uint256"
        },
        {
          "internalType": "string",
          "name": "uri",
          "type": "string"
        }
      ],
      "name": "createCourse",
      "outputs": [
        {
          "internalType": "uint256",
          "name": "",
          "type": "uint256"
        }
      ],
      "stateMutability": "nonpayable",
      "type": "function"
    },
    {
      "inputs": [
        {
          "internalType": "uint256",
          "name": "id",
          "type": "uint256"
        }
      ],
      "name": "getClassById",
      "outputs": [
        {
          "components": [
            {
              "components": [
                {
                  "internalType": "uint256",
                  "name": "id",
                  "type": "uint256"
                },
                {
                  "internalType": "uint256",
                  "name": "courseId",
                  "type": "uint256"
                },
                {
                  "internalType": "uint256",
                  "name": "knowledgeBlockId",
                  "type": "uint256"
                },
                {
                  "internalType": "uint256",
                  "name": "prevCourseId",
                  "type": "uint256"
                },
                {
                  "internalType": "uint256",
                  "name": "credits",
                  "type": "uint256"
                },
                {
                  "internalType": "uint256",
                  "name": "registeredStartAt",
                  "type": "uint256"
                },
                {
                  "internalType": "uint256",
                  "name": "registeredEndAt",
                  "type": "uint256"
                },
                {
                  "internalType": "uint256",
                  "name": "completeAt",
                  "type": "uint256"
                },
                {
                  "internalType": "uint256",
                  "name": "maxSize",
                  "type": "uint256"
                },
                {
                  "internalType": "uint256",
                  "name": "teacherTokenId",
                  "type": "uint256"
                },
                {
                  "internalType": "string",
                  "name": "uri",
                  "type": "string"
                }
              ],
              "internalType": "struct IConstant.Class",
              "name": "class",
              "type": "tuple"
            },
            {
              "internalType": "uint256",
              "name": "numberOfStudents",
              "type": "uint256"
            }
          ],
          "internalType": "struct IConstant.ClassResponse",
          "name": "",
          "type": "tuple"
        }
      ],
      "stateMutability": "view",
      "type": "function",
      "constant": true
    },
    {
      "inputs": [],
      "name": "getAllClasses",
      "outputs": [
        {
          "components": [
            {
              "components": [
                {
                  "internalType": "uint256",
                  "name": "id",
                  "type": "uint256"
                },
                {
                  "internalType": "uint256",
                  "name": "courseId",
                  "type": "uint256"
                },
                {
                  "internalType": "uint256",
                  "name": "knowledgeBlockId",
                  "type": "uint256"
                },
                {
                  "internalType": "uint256",
                  "name": "prevCourseId",
                  "type": "uint256"
                },
                {
                  "internalType": "uint256",
                  "name": "credits",
                  "type": "uint256"
                },
                {
                  "internalType": "uint256",
                  "name": "registeredStartAt",
                  "type": "uint256"
                },
                {
                  "internalType": "uint256",
                  "name": "registeredEndAt",
                  "type": "uint256"
                },
                {
                  "internalType": "uint256",
                  "name": "completeAt",
                  "type": "uint256"
                },
                {
                  "internalType": "uint256",
                  "name": "maxSize",
                  "type": "uint256"
                },
                {
                  "internalType": "uint256",
                  "name": "teacherTokenId",
                  "type": "uint256"
                },
                {
                  "internalType": "string",
                  "name": "uri",
                  "type": "string"
                }
              ],
              "internalType": "struct IConstant.Class",
              "name": "class",
              "type": "tuple"
            },
            {
              "internalType": "uint256",
              "name": "numberOfStudents",
              "type": "uint256"
            }
          ],
          "internalType": "struct IConstant.ClassResponse[]",
          "name": "",
          "type": "tuple[]"
        }
      ],
      "stateMutability": "view",
      "type": "function",
      "constant": true
    },
    {
      "inputs": [],
      "name": "getCurrentRegisteredClasses",
      "outputs": [
        {
          "components": [
            {
              "components": [
                {
                  "internalType": "uint256",
                  "name": "id",
                  "type": "uint256"
                },
                {
                  "internalType": "uint256",
                  "name": "courseId",
                  "type": "uint256"
                },
                {
                  "internalType": "uint256",
                  "name": "knowledgeBlockId",
                  "type": "uint256"
                },
                {
                  "internalType": "uint256",
                  "name": "prevCourseId",
                  "type": "uint256"
                },
                {
                  "internalType": "uint256",
                  "name": "credits",
                  "type": "uint256"
                },
                {
                  "internalType": "uint256",
                  "name": "registeredStartAt",
                  "type": "uint256"
                },
                {
                  "internalType": "uint256",
                  "name": "registeredEndAt",
                  "type": "uint256"
                },
                {
                  "internalType": "uint256",
                  "name": "completeAt",
                  "type": "uint256"
                },
                {
                  "internalType": "uint256",
                  "name": "maxSize",
                  "type": "uint256"
                },
                {
                  "internalType": "uint256",
                  "name": "teacherTokenId",
                  "type": "uint256"
                },
                {
                  "internalType": "string",
                  "name": "uri",
                  "type": "string"
                }
              ],
              "internalType": "struct IConstant.Class",
              "name": "class",
              "type": "tuple"
            },
            {
              "internalType": "uint256",
              "name": "numberOfStudents",
              "type": "uint256"
            }
          ],
          "internalType": "struct IConstant.ClassResponse[]",
          "name": "",
          "type": "tuple[]"
        }
      ],
      "stateMutability": "view",
      "type": "function",
      "constant": true
    },
    {
      "inputs": [
        {
          "internalType": "uint256",
          "name": "tokenId",
          "type": "uint256"
        }
      ],
      "name": "getAssignedClasses",
      "outputs": [
        {
          "components": [
            {
              "components": [
                {
                  "internalType": "uint256",
                  "name": "id",
                  "type": "uint256"
                },
                {
                  "internalType": "uint256",
                  "name": "courseId",
                  "type": "uint256"
                },
                {
                  "internalType": "uint256",
                  "name": "knowledgeBlockId",
                  "type": "uint256"
                },
                {
                  "internalType": "uint256",
                  "name": "prevCourseId",
                  "type": "uint256"
                },
                {
                  "internalType": "uint256",
                  "name": "credits",
                  "type": "uint256"
                },
                {
                  "internalType": "uint256",
                  "name": "registeredStartAt",
                  "type": "uint256"
                },
                {
                  "internalType": "uint256",
                  "name": "registeredEndAt",
                  "type": "uint256"
                },
                {
                  "internalType": "uint256",
                  "name": "completeAt",
                  "type": "uint256"
                },
                {
                  "internalType": "uint256",
                  "name": "maxSize",
                  "type": "uint256"
                },
                {
                  "internalType": "uint256",
                  "name": "teacherTokenId",
                  "type": "uint256"
                },
                {
                  "internalType": "string",
                  "name": "uri",
                  "type": "string"
                }
              ],
              "internalType": "struct IConstant.Class",
              "name": "class",
              "type": "tuple"
            },
            {
              "internalType": "uint256",
              "name": "numberOfStudents",
              "type": "uint256"
            }
          ],
          "internalType": "struct IConstant.ClassResponse[]",
          "name": "",
          "type": "tuple[]"
        }
      ],
      "stateMutability": "view",
      "type": "function",
      "constant": true
    },
    {
      "inputs": [
        {
          "internalType": "uint256",
          "name": "courseId",
          "type": "uint256"
        },
        {
          "internalType": "uint256",
          "name": "completeAt",
          "type": "uint256"
        },
        {
          "internalType": "uint256",
          "name": "maxSize",
          "type": "uint256"
        },
        {
          "internalType": "uint256",
          "name": "teacherTokenId",
          "type": "uint256"
        },
        {
          "internalType": "string",
          "name": "uri",
          "type": "string"
        }
      ],
      "name": "createClass",
      "outputs": [
        {
          "internalType": "uint256",
          "name": "",
          "type": "uint256"
        }
      ],
      "stateMutability": "nonpayable",
      "type": "function"
    },
    {
      "inputs": [],
      "name": "getRegisteredClasses",
      "outputs": [
        {
          "components": [
            {
              "components": [
                {
                  "internalType": "uint256",
                  "name": "tokenId",
                  "type": "uint256"
                },
                {
                  "internalType": "uint256",
                  "name": "classId",
                  "type": "uint256"
                },
                {
                  "internalType": "uint256",
                  "name": "studentTokenId",
                  "type": "uint256"
                }
              ],
              "internalType": "struct IConstant.NftClassRegistration",
              "name": "nftClassRegistration",
              "type": "tuple"
            },
            {
              "components": [
                {
                  "internalType": "uint256",
                  "name": "id",
                  "type": "uint256"
                },
                {
                  "internalType": "uint256",
                  "name": "courseId",
                  "type": "uint256"
                },
                {
                  "internalType": "uint256",
                  "name": "knowledgeBlockId",
                  "type": "uint256"
                },
                {
                  "internalType": "uint256",
                  "name": "prevCourseId",
                  "type": "uint256"
                },
                {
                  "internalType": "uint256",
                  "name": "credits",
                  "type": "uint256"
                },
                {
                  "internalType": "uint256",
                  "name": "registeredStartAt",
                  "type": "uint256"
                },
                {
                  "internalType": "uint256",
                  "name": "registeredEndAt",
                  "type": "uint256"
                },
                {
                  "internalType": "uint256",
                  "name": "completeAt",
                  "type": "uint256"
                },
                {
                  "internalType": "uint256",
                  "name": "maxSize",
                  "type": "uint256"
                },
                {
                  "internalType": "uint256",
                  "name": "teacherTokenId",
                  "type": "uint256"
                },
                {
                  "internalType": "string",
                  "name": "uri",
                  "type": "string"
                }
              ],
              "internalType": "struct IConstant.Class",
              "name": "class",
              "type": "tuple"
            },
            {
              "internalType": "string",
              "name": "tokenURI",
              "type": "string"
            }
          ],
          "internalType": "struct IConstant.NftClassRegistrationResponse[]",
          "name": "",
          "type": "tuple[]"
        }
      ],
      "stateMutability": "view",
      "type": "function",
      "constant": true
    },
    {
      "inputs": [
        {
          "internalType": "uint256",
          "name": "tokenId",
          "type": "uint256"
        }
      ],
      "name": "getNftClassRegistration",
      "outputs": [
        {
          "components": [
            {
              "internalType": "uint256",
              "name": "tokenId",
              "type": "uint256"
            },
            {
              "internalType": "uint256",
              "name": "classId",
              "type": "uint256"
            },
            {
              "internalType": "uint256",
              "name": "studentTokenId",
              "type": "uint256"
            }
          ],
          "internalType": "struct IConstant.NftClassRegistration",
          "name": "",
          "type": "tuple"
        }
      ],
      "stateMutability": "view",
      "type": "function",
      "constant": true
    },
    {
      "inputs": [
        {
          "internalType": "uint256",
          "name": "id",
          "type": "uint256"
        }
      ],
      "name": "getStudentListOfClass",
      "outputs": [
        {
          "components": [
            {
              "components": [
                {
                  "internalType": "uint256",
                  "name": "tokenId",
                  "type": "uint256"
                },
                {
                  "internalType": "address",
                  "name": "register",
                  "type": "address"
                },
                {
                  "internalType": "uint256",
                  "name": "expiredAt",
                  "type": "uint256"
                }
              ],
              "internalType": "struct IConstant.NftIdentity",
              "name": "nftIdentity",
              "type": "tuple"
            },
            {
              "internalType": "string",
              "name": "tokenURI",
              "type": "string"
            },
            {
              "internalType": "uint256",
              "name": "role",
              "type": "uint256"
            },
            {
              "internalType": "bool",
              "name": "isExpired",
              "type": "bool"
            }
          ],
          "internalType": "struct IConstant.NftIdentityResponse[]",
          "name": "",
          "type": "tuple[]"
        }
      ],
      "stateMutability": "view",
      "type": "function",
      "constant": true
    },
    {
      "inputs": [
        {
          "internalType": "uint256",
          "name": "classId",
          "type": "uint256"
        },
        {
          "internalType": "string",
          "name": "uri",
          "type": "string"
        }
      ],
      "name": "registerClass",
      "outputs": [],
      "stateMutability": "payable",
      "type": "function",
      "payable": true
    }
  ],
  "bytecode": "0x608060405260405180602001604052806000815250600390805190602001906200002b92919062000227565b506101f46009556706f05b59d3b20000600d553480156200004b57600080fd5b50604051620066e4380380620066e48339818101604052810190620000719190620006e6565b604051806020016040528060008152508062000093816200020b60201b60201c565b5033600560006101000a81548173ffffffffffffffffffffffffffffffffffffffff021916908373ffffffffffffffffffffffffffffffffffffffff1602179055505082600b60006101000a81548173ffffffffffffffffffffffffffffffffffffffff021916908373ffffffffffffffffffffffffffffffffffffffff16021790555060008251905060005b81811015620002005760146040518060600160405280600184620001459190620007af565b815260200186848151811062000160576200015f6200080c565b5b602002602001015181526020018584815181106200018357620001826200080c565b5b60200260200101518152509080600181540180825580915050600190039060005260206000209060030201600090919091909150600082015181600001556020820151816001019080519060200190620001df92919062000227565b5060408201518160020155505080620001f8906200083b565b905062000120565b5050505050620008ec565b80600290805190602001906200022392919062000227565b5050565b8280546200023590620008b7565b90600052602060002090601f016020900481019282620002595760008555620002a5565b82601f106200027457805160ff1916838001178555620002a5565b82800160010185558215620002a5579182015b82811115620002a457825182559160200191906001019062000287565b5b509050620002b49190620002b8565b5090565b5b80821115620002d3576000816000905550600101620002b9565b5090565b6000604051905090565b600080fd5b600080fd5b600073ffffffffffffffffffffffffffffffffffffffff82169050919050565b60006200031882620002eb565b9050919050565b6200032a816200030b565b81146200033657600080fd5b50565b6000815190506200034a816200031f565b92915050565b600080fd5b6000601f19601f8301169050919050565b7f4e487b7100000000000000000000000000000000000000000000000000000000600052604160045260246000fd5b620003a08262000355565b810181811067ffffffffffffffff82111715620003c257620003c162000366565b5b80604052505050565b6000620003d7620002d7565b9050620003e5828262000395565b919050565b600067ffffffffffffffff82111562000408576200040762000366565b5b602082029050602081019050919050565b600080fd5b600080fd5b600067ffffffffffffffff82111562000441576200044062000366565b5b6200044c8262000355565b9050602081019050919050565b60005b83811015620004795780820151818401526020810190506200045c565b8381111562000489576000848401525b50505050565b6000620004a6620004a08462000423565b620003cb565b905082815260208101848484011115620004c557620004c46200041e565b5b620004d284828562000459565b509392505050565b600082601f830112620004f257620004f162000350565b5b8151620005048482602086016200048f565b91505092915050565b6000620005246200051e84620003ea565b620003cb565b905080838252602082019050602084028301858111156200054a576200054962000419565b5b835b818110156200059857805167ffffffffffffffff81111562000573576200057262000350565b5b808601620005828982620004da565b855260208501945050506020810190506200054c565b5050509392505050565b600082601f830112620005ba57620005b962000350565b5b8151620005cc8482602086016200050d565b91505092915050565b600067ffffffffffffffff821115620005f357620005f262000366565b5b602082029050602081019050919050565b6000819050919050565b620006198162000604565b81146200062557600080fd5b50565b60008151905062000639816200060e565b92915050565b6000620006566200065084620005d5565b620003cb565b905080838252602082019050602084028301858111156200067c576200067b62000419565b5b835b81811015620006a9578062000694888262000628565b8452602084019350506020810190506200067e565b5050509392505050565b600082601f830112620006cb57620006ca62000350565b5b8151620006dd8482602086016200063f565b91505092915050565b600080600060608486031215620007025762000701620002e1565b5b6000620007128682870162000339565b935050602084015167ffffffffffffffff811115620007365762000735620002e6565b5b6200074486828701620005a2565b925050604084015167ffffffffffffffff811115620007685762000767620002e6565b5b6200077686828701620006b3565b9150509250925092565b7f4e487b7100000000000000000000000000000000000000000000000000000000600052601160045260246000fd5b6000620007bc8262000604565b9150620007c98362000604565b9250827fffffffffffffffffffffffffffffffffffffffffffffffffffffffffffffffff0382111562000801576200080062000780565b5b828201905092915050565b7f4e487b7100000000000000000000000000000000000000000000000000000000600052603260045260246000fd5b6000620008488262000604565b91507fffffffffffffffffffffffffffffffffffffffffffffffffffffffffffffffff82036200087d576200087c62000780565b5b600182019050919050565b7f4e487b7100000000000000000000000000000000000000000000000000000000600052602260045260246000fd5b60006002820490506001821680620008d057607f821691505b602082108103620008e657620008e562000888565b5b50919050565b615de880620008fc6000396000f3fe6080604052600436106101b65760003560e01c80636d6ffaf6116100ec578063bdb566c01161008a578063e38e8a1b11610064578063e38e8a1b14610661578063e985e9c51461069e578063ea5b210f146106db578063f242432a14610718576101b6565b8063bdb566c0146105d0578063c4d66de81461060d578063e04ac31814610636576101b6565b8063a24a7c30116100c6578063a24a7c301461050f578063b564529f1461054c578063b5bee31714610577578063bbaa15e314610593576101b6565b80636d6ffaf61461047e5780639742d964146104a9578063a22cb465146104e6576101b6565b8063256283ed116101595780634e1273f4116101335780634e1273f4146103c05780635f7b9d73146103fd5780635fe03779146104285780636bda75dd14610453576101b6565b8063256283ed1461033157806329f60c4f1461036e5780632eb2c2d614610397576101b6565b806304e48bd11161019557806304e48bd1146102725780630e89341c1461029d5780630eb36321146102da57806313a0967914610306576101b6565b8062fdd58e146101bb57806301ffc9a7146101f857806303d658e014610235575b600080fd5b3480156101c757600080fd5b506101e260048036038101906101dd9190613ba6565b610741565b6040516101ef9190613bf5565b60405180910390f35b34801561020457600080fd5b5061021f600480360381019061021a9190613c68565b610809565b60405161022c9190613cb0565b60405180910390f35b34801561024157600080fd5b5061025c60048036038101906102579190613ccb565b6108eb565b6040516102699190613ecc565b60405180910390f35b34801561027e57600080fd5b50610287610935565b6040516102949190614039565b60405180910390f35b3480156102a957600080fd5b506102c460048036038101906102bf9190613ccb565b610ab2565b6040516102d191906140a5565b60405180910390f35b3480156102e657600080fd5b506102ef610b97565b6040516102fd9291906140c7565b60405180910390f35b34801561031257600080fd5b5061031b610bd9565b6040516103289190613bf5565b60405180910390f35b34801561033d57600080fd5b5061035860048036038101906103539190613ccb565b610bdf565b6040516103659190614275565b60405180910390f35b34801561037a57600080fd5b5061039560048036038101906103909190614297565b610d69565b005b3480156103a357600080fd5b506103be60048036038101906103b991906144d4565b610e62565b005b3480156103cc57600080fd5b506103e760048036038101906103e29190614666565b610f03565b6040516103f4919061478d565b60405180910390f35b34801561040957600080fd5b5061041261101c565b60405161041f91906148c1565b60405180910390f35b34801561043457600080fd5b5061043d611121565b60405161044a9190613bf5565b60405180910390f35b34801561045f57600080fd5b50610468611127565b60405161047591906149e2565b60405180910390f35b34801561048a57600080fd5b50610493611231565b6040516104a09190614b5f565b60405180910390f35b3480156104b557600080fd5b506104d060048036038101906104cb9190614c22565b611463565b6040516104dd9190613bf5565b60405180910390f35b3480156104f257600080fd5b5061050d60048036038101906105089190614c97565b61149d565b005b34801561051b57600080fd5b5061053660048036038101906105319190613ccb565b6114b3565b6040516105439190614d19565b60405180910390f35b34801561055857600080fd5b5061056161153f565b60405161056e9190613cb0565b60405180910390f35b610591600480360381019061058c9190614d34565b611552565b005b34801561059f57600080fd5b506105ba60048036038101906105b59190613ccb565b6118c3565b6040516105c791906149e2565b60405180910390f35b3480156105dc57600080fd5b506105f760048036038101906105f29190614d90565b6119b5565b6040516106049190613bf5565b60405180910390f35b34801561061957600080fd5b50610634600480360381019061062f9190614e27565b611dc0565b005b34801561064257600080fd5b5061064b611e93565b60405161065891906149e2565b60405180910390f35b34801561066d57600080fd5b5061068860048036038101906106839190614e54565b611fee565b6040516106959190613bf5565b60405180910390f35b3480156106aa57600080fd5b506106c560048036038101906106c09190614ed7565b6121e7565b6040516106d29190613cb0565b60405180910390f35b3480156106e757600080fd5b5061070260048036038101906106fd9190613ccb565b61227b565b60405161070f9190614fa0565b60405180910390f35b34801561072457600080fd5b5061073f600480360381019061073a9190614fc2565b6123ad565b005b60008073ffffffffffffffffffffffffffffffffffffffff168373ffffffffffffffffffffffffffffffffffffffff16036107b1576040517f08c379a00000000000000000000000000000000000000000000000000000000081526004016107a8906150cb565b60405180910390fd5b60008083815260200190815260200160002060008473ffffffffffffffffffffffffffffffffffffffff1673ffffffffffffffffffffffffffffffffffffffff16815260200190815260200160002054905092915050565b60007fd9b67a26000000000000000000000000000000000000000000000000000000007bffffffffffffffffffffffffffffffffffffffffffffffffffffffff1916827bffffffffffffffffffffffffffffffffffffffffffffffffffffffff191614806108d457507f0e89341c000000000000000000000000000000000000000000000000000000007bffffffffffffffffffffffffffffffffffffffffffffffffffffffff1916827bffffffffffffffffffffffffffffffffffffffffffffffffffffffff1916145b806108e457506108e38261244e565b5b9050919050565b6108f36138f6565b6000601660008481526020019081526020016000205490506000811161091857600080fd5b61092d600182610928919061511a565b6124b8565b915050919050565b60603373ffffffffffffffffffffffffffffffffffffffff16600560009054906101000a900473ffffffffffffffffffffffffffffffffffffffff1673ffffffffffffffffffffffffffffffffffffffff161461099157600080fd5b6012805480602002602001604051908101604052809291908181526020016000905b82821015610aa957838290600052602060002090600602016040518060c00160405290816000820154815260200160018201548152602001600282015481526020016003820154815260200160048201548152602001600582018054610a189061517d565b80601f0160208091040260200160405190810160405280929190818152602001828054610a449061517d565b8015610a915780601f10610a6657610100808354040283529160200191610a91565b820191906000526020600020905b815481529060010190602001808311610a7457829003601f168201915b505050505081525050815260200190600101906109b3565b50505050905090565b60606000600460008481526020019081526020016000208054610ad49061517d565b80601f0160208091040260200160405190810160405280929190818152602001828054610b009061517d565b8015610b4d5780601f10610b2257610100808354040283529160200191610b4d565b820191906000526020600020905b815481529060010190602001808311610b3057829003601f168201915b505050505090506000815111610b6b57610b668361263a565b610b8f565b600381604051602001610b7f92919061527e565b6040516020818303038152906040525b915050919050565b6000806000610ba660036126ce565b9050600e600082815260200190815260200160002054600f60008381526020019081526020016000205492509250509091565b600d5481565b60606000601a600084815260200190815260200160002080549050905060008167ffffffffffffffff811115610c1857610c176142dc565b5b604051908082528060200260200182016040528015610c5157816020015b610c3e613916565b815260200190600190039081610c365790505b50905060005b82811015610d5e57600b60009054906101000a900473ffffffffffffffffffffffffffffffffffffffff1673ffffffffffffffffffffffffffffffffffffffff1663d703df8b601a60008881526020019081526020016000208381548110610cc257610cc16152a2565b5b90600052602060002001546040518263ffffffff1660e01b8152600401610ce99190613bf5565b600060405180830381865afa158015610d06573d6000803e3d6000fd5b505050506040513d6000823e3d601f19601f82011682018060405250810190610d2f9190615482565b828281518110610d4257610d416152a2565b5b602002602001018190525080610d57906154cb565b9050610c57565b508092505050919050565b3373ffffffffffffffffffffffffffffffffffffffff16600560009054906101000a900473ffffffffffffffffffffffffffffffffffffffff1673ffffffffffffffffffffffffffffffffffffffff1614610dc357600080fd5b6000610dcf60036126ce565b9050600060106000838152602001908152602001600020805490501480610e09575042600f60008381526020019081526020016000205411155b610e1257600080fd5b828211610e1e57600080fd5b6000610e2a60036126eb565b905083600e60008381526020019081526020016000208190555082600f60008381526020019081526020016000208190555050505050565b610e6a612733565b73ffffffffffffffffffffffffffffffffffffffff168573ffffffffffffffffffffffffffffffffffffffff161480610eb05750610eaf85610eaa612733565b6121e7565b5b610eef576040517f08c379a0000000000000000000000000000000000000000000000000000000008152600401610ee690615585565b60405180910390fd5b610efc858585858561273b565b5050505050565b60608151835114610f49576040517f08c379a0000000000000000000000000000000000000000000000000000000008152600401610f4090615617565b60405180910390fd5b6000835167ffffffffffffffff811115610f6657610f656142dc565b5b604051908082528060200260200182016040528015610f945781602001602082028036833780820191505090505b50905060005b845181101561101157610fe1858281518110610fb957610fb86152a2565b5b6020026020010151858381518110610fd457610fd36152a2565b5b6020026020010151610741565b828281518110610ff457610ff36152a2565b5b6020026020010181815250508061100a906154cb565b9050610f9a565b508091505092915050565b60606014805480602002602001604051908101604052809291908181526020016000905b8282101561111857838290600052602060002090600302016040518060600160405290816000820154815260200160018201805461107d9061517d565b80601f01602080910402602001604051908101604052809291908181526020018280546110a99061517d565b80156110f65780601f106110cb576101008083540402835291602001916110f6565b820191906000526020600020905b8154815290600101906020018083116110d957829003601f168201915b5050505050815260200160028201548152505081526020019060010190611040565b50505050905090565b60095481565b60603373ffffffffffffffffffffffffffffffffffffffff16600560009054906101000a900473ffffffffffffffffffffffffffffffffffffffff1673ffffffffffffffffffffffffffffffffffffffff161461118357600080fd5b6000601580549050905060008167ffffffffffffffff8111156111a9576111a86142dc565b5b6040519080825280602002602001820160405280156111e257816020015b6111cf6138f6565b8152602001906001900390816111c75790505b50905060005b82811015611228576111f9816124b8565b82828151811061120c5761120b6152a2565b5b602002602001018190525080611221906154cb565b90506111e8565b50809250505090565b60606000600b60009054906101000a900473ffffffffffffffffffffffffffffffffffffffff1673ffffffffffffffffffffffffffffffffffffffff166352db77c46000600181111561128757611286615637565b5b336040518363ffffffff1660e01b81526004016112a5929190615675565b600060405180830381865afa1580156112c2573d6000803e3d6000fd5b505050506040513d6000823e3d601f19601f820116820180604052508101906112eb9190615482565b9050600081600001516000015190506000601a600083815260200190815260200160002080548060200260200160405190810160405280929190818152602001828054801561135957602002820191906000526020600020905b815481526020019060010190808311611345575b5050505050905060008151905060008167ffffffffffffffff811115611382576113816142dc565b5b6040519080825280602002602001820160405280156113bb57816020015b6113a8613946565b8152602001906001900390816113a05790505b50905060005b828110156114575760006113ee8583815181106113e1576113e06152a2565b5b60200260200101516114b3565b9050604051806060016040528082815260200161140e83602001516108eb565b6000015181526020016114248360000151610ab2565b81525083838151811061143a576114396152a2565b5b60200260200101819052505080611450906154cb565b90506113c1565b50809550505050505090565b6000601160006001815260200190815260200160002082604051611487919061569e565b9081526020016040518091039020549050919050565b6114af6114a8612733565b8383612a5c565b5050565b6114bb613973565b600060196000848152602001908152602001600020549050600081116114e057600080fd5b60186001826114ef919061511a565b81548110611500576114ff6152a2565b5b90600052602060002090600302016040518060600160405290816000820154815260200160018201548152602001600282015481525050915050919050565b600c60149054906101000a900460ff1681565b6000600b60009054906101000a900473ffffffffffffffffffffffffffffffffffffffff1673ffffffffffffffffffffffffffffffffffffffff166352db77c4600060018111156115a6576115a5615637565b5b336040518363ffffffff1660e01b81526004016115c4929190615675565b600060405180830381865afa1580156115e1573d6000803e3d6000fd5b505050506040513d6000823e3d601f19601f8201168201806040525081019061160a9190615482565b9050600081600001516000015190506000611624856108eb565b60000151905082606001511561163957600080fd5b806101000151601c600083600001518152602001908152602001600020805490501061166457600080fd5b8060a0015142101561167557600080fd5b8060c0015142111561168657600080fd5b6000816060015114806117375750600c60009054906101000a900473ffffffffffffffffffffffffffffffffffffffff1673ffffffffffffffffffffffffffffffffffffffff16636eabe75f8260600151336040518363ffffffff1660e01b81526004016116f5929190615675565b602060405180830381865afa158015611712573d6000803e3d6000fd5b505050506040513d601f19601f8201168201806040525081019061173691906156b5565b5b61174057600080fd5b6000601b6000848152602001908152602001600020600083602001518152602001908152602001600020541461177557600080fd5b600d54341461178357600080fd5b600061179133600087612bc8565b90506018604051806060016040528083815260200188815260200185815250908060018154018082558091505060019003906000526020600020906003020160009091909190915060008201518160000155602082015181600101556040820151816002015550506018805490506019600083815260200190815260200160002081905550601a600084815260200190815260200160002081908060018154018082558091505060019003906000526020600020016000909190919091505580601b600085815260200190815260200160002060008460200151815260200190815260200160002081905550601c600083600001518152602001908152602001600020819080600181540180825580915050600190039060005260206000200160009091909190915055505050505050565b606060006017600084815260200190815260200160002080549050905060008167ffffffffffffffff8111156118fc576118fb6142dc565b5b60405190808252806020026020018201604052801561193557816020015b6119226138f6565b81526020019060019003908161191a5790505b50905060005b828110156119aa5761197b60176000878152602001908152602001600020828154811061196b5761196a6152a2565b5b90600052602060002001546108eb565b82828151811061198e5761198d6152a2565b5b6020026020010181905250806119a3906154cb565b905061193b565b508092505050919050565b60003373ffffffffffffffffffffffffffffffffffffffff16600560009054906101000a900473ffffffffffffffffffffffffffffffffffffffff1673ffffffffffffffffffffffffffffffffffffffff1614611a1157600080fd5b6000611a1c8761227b565b90506000611a2a60036126ce565b90506000600b60009054906101000a900473ffffffffffffffffffffffffffffffffffffffff1673ffffffffffffffffffffffffffffffffffffffff1663d703df8b876040518263ffffffff1660e01b8152600401611a899190613bf5565b600060405180830381865afa158015611aa6573d6000803e3d6000fd5b505050506040513d6000823e3d601f19601f82011682018060405250810190611acf9190615482565b90506000600b60009054906101000a900473ffffffffffffffffffffffffffffffffffffffff1673ffffffffffffffffffffffffffffffffffffffff166376aed2e1886040518263ffffffff1660e01b8152600401611b2e9190613bf5565b602060405180830381865afa158015611b4b573d6000803e3d6000fd5b505050506040513d601f19601f82011682018060405250810190611b6f91906156e2565b9050600f6000848152602001908152602001600020548911611b9057600080fd5b42600f60008581526020019081526020016000205411611baf57600080fd5b600180811115611bc257611bc1615637565b5b8114611bcd57600080fd5b8882600001516040015111611be157600080fd5b6000611bed60026126eb565b905060156040518061016001604052808381526020018d8152602001876020015181526020018760400151815260200187606001518152602001600e6000888152602001908152602001600020548152602001600f60008881526020019081526020016000205481526020018c81526020018b81526020018a81526020018981525090806001815401808255809150506001900390600052602060002090600b0201600090919091909150600082015181600001556020820151816001015560408201518160020155606082015181600301556080820151816004015560a0820151816005015560c0820151816006015560e082015181600701556101008201518160080155610120820151816009015561014082015181600a019080519060200190611d1b929190613994565b50505060158054905060166000838152602001908152602001600020819055506010600085815260200190815260200160002081908060018154018082558091505060019003906000526020600020016000909190919091505560176000898152602001908152602001600020819080600181540180825580915050600190039060005260206000200160009091909190915055809550505050505095945050505050565b3373ffffffffffffffffffffffffffffffffffffffff16600560009054906101000a900473ffffffffffffffffffffffffffffffffffffffff1673ffffffffffffffffffffffffffffffffffffffff1614611e1a57600080fd5b600c60149054906101000a900460ff1615611e3457600080fd5b6001600c60146101000a81548160ff02191690831515021790555080600c60006101000a81548173ffffffffffffffffffffffffffffffffffffffff021916908373ffffffffffffffffffffffffffffffffffffffff16021790555050565b60606000611ea160036126ce565b9050600060106000838152602001908152602001600020805480602002602001604051908101604052809291908181526020018280548015611f0257602002820191906000526020600020905b815481526020019060010190808311611eee575b5050505050905060008151905060008167ffffffffffffffff811115611f2b57611f2a6142dc565b5b604051908082528060200260200182016040528015611f6457816020015b611f516138f6565b815260200190600190039081611f495790505b50905060005b82811015611fe357611fb4600160166000878581518110611f8e57611f8d6152a2565b5b6020026020010151815260200190815260200160002054611faf919061511a565b6124b8565b828281518110611fc757611fc66152a2565b5b602002602001018190525080611fdc906154cb565b9050611f6a565b508094505050505090565b60003373ffffffffffffffffffffffffffffffffffffffff16600560009054906101000a900473ffffffffffffffffffffffffffffffffffffffff1673ffffffffffffffffffffffffffffffffffffffff161461204a57600080fd5b60148054905084111561205c57600080fd5b6000831161206957600080fd5b600085148061208b575060006013600087815260200190815260200160002054115b61209457600080fd5b60006011600060018152602001908152602001600020836040516120b8919061569e565b908152602001604051809103902054146120d157600080fd5b60006120dd60016126eb565b905060126040518060c0016040528083815260200187815260200188815260200186815260200160018152602001858152509080600181540180825580915050600190039060005260206000209060060201600090919091909150600082015181600001556020820151816001015560408201518160020155606082015181600301556080820151816004015560a0820151816005019080519060200190612186929190613994565b505050806011600060018152602001908152602001600020846040516121ac919061569e565b908152602001604051809103902081905550601280549050601360008381526020019081526020016000208190555080915050949350505050565b6000600160008473ffffffffffffffffffffffffffffffffffffffff1673ffffffffffffffffffffffffffffffffffffffff16815260200190815260200160002060008373ffffffffffffffffffffffffffffffffffffffff1673ffffffffffffffffffffffffffffffffffffffff16815260200190815260200160002060009054906101000a900460ff16905092915050565b612283613a1a565b600060136000848152602001908152602001600020549050600081116122a857600080fd5b60126001826122b7919061511a565b815481106122c8576122c76152a2565b5b90600052602060002090600602016040518060c001604052908160008201548152602001600182015481526020016002820154815260200160038201548152602001600482015481526020016005820180546123239061517d565b80601f016020809104026020016040519081016040528092919081815260200182805461234f9061517d565b801561239c5780601f106123715761010080835404028352916020019161239c565b820191906000526020600020905b81548152906001019060200180831161237f57829003601f168201915b505050505081525050915050919050565b6123b5612733565b73ffffffffffffffffffffffffffffffffffffffff168573ffffffffffffffffffffffffffffffffffffffff1614806123fb57506123fa856123f5612733565b6121e7565b5b61243a576040517f08c379a000000000000000000000000000000000000000000000000000000000815260040161243190615585565b60405180910390fd5b6124478585858585612c3d565b5050505050565b60007f01ffc9a7000000000000000000000000000000000000000000000000000000007bffffffffffffffffffffffffffffffffffffffffffffffffffffffff1916827bffffffffffffffffffffffffffffffffffffffffffffffffffffffff1916149050919050565b6124c06138f6565b6040518060400160405280601584815481106124df576124de6152a2565b5b90600052602060002090600b02016040518061016001604052908160008201548152602001600182015481526020016002820154815260200160038201548152602001600482015481526020016005820154815260200160068201548152602001600782015481526020016008820154815260200160098201548152602001600a8201805461256d9061517d565b80601f01602080910402602001604051908101604052809291908181526020018280546125999061517d565b80156125e65780601f106125bb576101008083540402835291602001916125e6565b820191906000526020600020905b8154815290600101906020018083116125c957829003601f168201915b5050505050815250508152602001601c60006015868154811061260c5761260b6152a2565b5b90600052602060002090600b0201600001548152602001908152602001600020805490508152509050919050565b6060600280546126499061517d565b80601f01602080910402602001604051908101604052809291908181526020018280546126759061517d565b80156126c25780601f10612697576101008083540402835291602001916126c2565b820191906000526020600020905b8154815290600101906020018083116126a557829003601f168201915b50505050509050919050565b600060086000838152602001908152602001600020549050919050565b60006001600860008481526020019081526020016000206000828254612711919061570f565b9250508190555060086000838152602001908152602001600020549050919050565b600033905090565b815183511461277f576040517f08c379a0000000000000000000000000000000000000000000000000000000008152600401612776906157d7565b60405180910390fd5b600073ffffffffffffffffffffffffffffffffffffffff168473ffffffffffffffffffffffffffffffffffffffff16036127ee576040517f08c379a00000000000000000000000000000000000000000000000000000000081526004016127e590615869565b60405180910390fd5b60006127f8612733565b9050612808818787878787612ed8565b60005b84518110156129b9576000858281518110612829576128286152a2565b5b602002602001015190506000858381518110612848576128476152a2565b5b60200260200101519050600080600084815260200190815260200160002060008b73ffffffffffffffffffffffffffffffffffffffff1673ffffffffffffffffffffffffffffffffffffffff168152602001908152602001600020549050818110156128e9576040517f08c379a00000000000000000000000000000000000000000000000000000000081526004016128e0906158fb565b60405180910390fd5b81810360008085815260200190815260200160002060008c73ffffffffffffffffffffffffffffffffffffffff1673ffffffffffffffffffffffffffffffffffffffff168152602001908152602001600020819055508160008085815260200190815260200160002060008b73ffffffffffffffffffffffffffffffffffffffff1673ffffffffffffffffffffffffffffffffffffffff168152602001908152602001600020600082825461299e919061570f565b92505081905550505050806129b2906154cb565b905061280b565b508473ffffffffffffffffffffffffffffffffffffffff168673ffffffffffffffffffffffffffffffffffffffff168273ffffffffffffffffffffffffffffffffffffffff167f4a39dc06d4c0dbc64b70af90fd698a233a518aa5d07e595d983b8c0526c8f7fb8787604051612a3092919061591b565b60405180910390a4612a46818787878787613202565b612a5481878787878761320a565b505050505050565b8173ffffffffffffffffffffffffffffffffffffffff168373ffffffffffffffffffffffffffffffffffffffff1603612aca576040517f08c379a0000000000000000000000000000000000000000000000000000000008152600401612ac1906159c4565b60405180910390fd5b80600160008573ffffffffffffffffffffffffffffffffffffffff1673ffffffffffffffffffffffffffffffffffffffff16815260200190815260200160002060008473ffffffffffffffffffffffffffffffffffffffff1673ffffffffffffffffffffffffffffffffffffffff16815260200190815260200160002060006101000a81548160ff0219169083151502179055508173ffffffffffffffffffffffffffffffffffffffff168373ffffffffffffffffffffffffffffffffffffffff167f17307eab39ab6107e8899845ad3d59bd9653f200f220920489ca2b5937696c3183604051612bbb9190613cb0565b60405180910390a3505050565b600080612bd4846133e1565b9050612c28858260016000368080601f016020809104026020016040519081016040528093929190818152602001838380828437600081840152601f19601f8201169050808301925050505050505061342c565b612c3281846135dc565b809150509392505050565b600073ffffffffffffffffffffffffffffffffffffffff168473ffffffffffffffffffffffffffffffffffffffff1603612cac576040517f08c379a0000000000000000000000000000000000000000000000000000000008152600401612ca390615869565b60405180910390fd5b6000612cb6612733565b90506000612cc385613648565b90506000612cd085613648565b9050612ce0838989858589612ed8565b600080600088815260200190815260200160002060008a73ffffffffffffffffffffffffffffffffffffffff1673ffffffffffffffffffffffffffffffffffffffff16815260200190815260200160002054905085811015612d77576040517f08c379a0000000000000000000000000000000000000000000000000000000008152600401612d6e906158fb565b60405180910390fd5b85810360008089815260200190815260200160002060008b73ffffffffffffffffffffffffffffffffffffffff1673ffffffffffffffffffffffffffffffffffffffff168152602001908152602001600020819055508560008089815260200190815260200160002060008a73ffffffffffffffffffffffffffffffffffffffff1673ffffffffffffffffffffffffffffffffffffffff1681526020019081526020016000206000828254612e2c919061570f565b925050819055508773ffffffffffffffffffffffffffffffffffffffff168973ffffffffffffffffffffffffffffffffffffffff168573ffffffffffffffffffffffffffffffffffffffff167fc3d58168c5ae7397731d063d5bbf3d657854427343f4c083240f7aacaa2d0f628a8a604051612ea99291906140c7565b60405180910390a4612ebf848a8a86868a613202565b612ecd848a8a8a8a8a6136c2565b505050505050505050565b612ee6868686868686613899565b600083519050600073ffffffffffffffffffffffffffffffffffffffff168673ffffffffffffffffffffffffffffffffffffffff1603612fe85760005b81811015612fe1576000612f50868381518110612f4357612f426152a2565b5b60200260200101516138a1565b905086600760008381526020019081526020016000206000888581518110612f7b57612f7a6152a2565b5b6020026020010151815260200190815260200160002060006101000a81548173ffffffffffffffffffffffffffffffffffffffff021916908373ffffffffffffffffffffffffffffffffffffffff1602179055505080612fda906154cb565b9050612f23565b50506131fa565b600073ffffffffffffffffffffffffffffffffffffffff168573ffffffffffffffffffffffffffffffffffffffff16036130c75760005b8181116130c057600061304b86838151811061303e5761303d6152a2565b5b60200260200101516138a1565b9050600760008281526020019081526020016000206000878481518110613075576130746152a2565b5b6020026020010151815260200190815260200160002060006101000a81549073ffffffffffffffffffffffffffffffffffffffff021916905550806130b9906154cb565b905061301f565b50506131fa565b600073ffffffffffffffffffffffffffffffffffffffff168673ffffffffffffffffffffffffffffffffffffffff16141580156131315750600073ffffffffffffffffffffffffffffffffffffffff168573ffffffffffffffffffffffffffffffffffffffff1614155b156131f85760005b8181116131f6576000613165868381518110613158576131576152a2565b5b60200260200101516138a1565b9050866007600083815260200190815260200160002060008885815181106131905761318f6152a2565b5b6020026020010151815260200190815260200160002060006101000a81548173ffffffffffffffffffffffffffffffffffffffff021916908373ffffffffffffffffffffffffffffffffffffffff16021790555050806131ef906154cb565b9050613139565b505b505b505050505050565b505050505050565b6132298473ffffffffffffffffffffffffffffffffffffffff166138af565b156133d9578373ffffffffffffffffffffffffffffffffffffffff1663bc197c8187878686866040518663ffffffff1660e01b815260040161326f959493929190615a39565b6020604051808303816000875af19250505080156132ab57506040513d601f19601f820116820180604052508101906132a89190615ab6565b60015b613350576132b7615af0565b806308c379a00361331357506132cb615b12565b806132d65750613315565b806040517f08c379a000000000000000000000000000000000000000000000000000000000815260040161330a91906140a5565b60405180910390fd5b505b6040517f08c379a000000000000000000000000000000000000000000000000000000000815260040161334790615c14565b60405180910390fd5b63bc197c8160e01b7bffffffffffffffffffffffffffffffffffffffffffffffffffffffff1916817bffffffffffffffffffffffffffffffffffffffffffffffffffffffff1916146133d7576040517f08c379a00000000000000000000000000000000000000000000000000000000081526004016133ce90615ca6565b60405180910390fd5b505b505050505050565b60006133fe600660008481526020019081526020016000206138d2565b600061341b600660008581526020019081526020016000206138e8565b905080601084901b17915050919050565b600073ffffffffffffffffffffffffffffffffffffffff168473ffffffffffffffffffffffffffffffffffffffff160361349b576040517f08c379a000000000000000000000000000000000000000000000000000000000815260040161349290615d38565b60405180910390fd5b60006134a5612733565b905060006134b285613648565b905060006134bf85613648565b90506134d083600089858589612ed8565b8460008088815260200190815260200160002060008973ffffffffffffffffffffffffffffffffffffffff1673ffffffffffffffffffffffffffffffffffffffff168152602001908152602001600020600082825461352f919061570f565b925050819055508673ffffffffffffffffffffffffffffffffffffffff16600073ffffffffffffffffffffffffffffffffffffffff168473ffffffffffffffffffffffffffffffffffffffff167fc3d58168c5ae7397731d063d5bbf3d657854427343f4c083240f7aacaa2d0f6289896040516135ad9291906140c7565b60405180910390a46135c483600089858589613202565b6135d3836000898989896136c2565b50505050505050565b80600460008481526020019081526020016000209080519060200190613603929190613994565b50817f6bb7ff708619ba0610cba295a58592e0451dee2622938c8755667688daf3529b61362f84610ab2565b60405161363c91906140a5565b60405180910390a25050565b60606000600167ffffffffffffffff811115613667576136666142dc565b5b6040519080825280602002602001820160405280156136955781602001602082028036833780820191505090505b50905082816000815181106136ad576136ac6152a2565b5b60200260200101818152505080915050919050565b6136e18473ffffffffffffffffffffffffffffffffffffffff166138af565b15613891578373ffffffffffffffffffffffffffffffffffffffff1663f23a6e6187878686866040518663ffffffff1660e01b8152600401613727959493929190615d58565b6020604051808303816000875af192505050801561376357506040513d601f19601f820116820180604052508101906137609190615ab6565b60015b6138085761376f615af0565b806308c379a0036137cb5750613783615b12565b8061378e57506137cd565b806040517f08c379a00000000000000000000000000000000000000000000000000000000081526004016137c291906140a5565b60405180910390fd5b505b6040517f08c379a00000000000000000000000000000000000000000000000000000000081526004016137ff90615c14565b60405180910390fd5b63f23a6e6160e01b7bffffffffffffffffffffffffffffffffffffffffffffffffffffffff1916817bffffffffffffffffffffffffffffffffffffffffffffffffffffffff19161461388f576040517f08c379a000000000000000000000000000000000000000000000000000000000815260040161388690615ca6565b60405180910390fd5b505b505050505050565b505050505050565b6000601082901c9050919050565b6000808273ffffffffffffffffffffffffffffffffffffffff163b119050919050565b6001816000016000828254019250508190555050565b600081600001549050919050565b6040518060400160405280613909613a50565b8152602001600081525090565b6040518060800160405280613929613aaa565b815260200160608152602001600081526020016000151581525090565b6040518060600160405280613959613973565b8152602001613966613a50565b8152602001606081525090565b60405180606001604052806000815260200160008152602001600081525090565b8280546139a09061517d565b90600052602060002090601f0160209004810192826139c25760008555613a09565b82601f106139db57805160ff1916838001178555613a09565b82800160010185558215613a09579182015b82811115613a085782518255916020019190600101906139ed565b5b509050613a169190613ae1565b5090565b6040518060c001604052806000815260200160008152602001600081526020016000815260200160008152602001606081525090565b60405180610160016040528060008152602001600081526020016000815260200160008152602001600081526020016000815260200160008152602001600081526020016000815260200160008152602001606081525090565b604051806060016040528060008152602001600073ffffffffffffffffffffffffffffffffffffffff168152602001600081525090565b5b80821115613afa576000816000905550600101613ae2565b5090565b6000604051905090565b600080fd5b600080fd5b600073ffffffffffffffffffffffffffffffffffffffff82169050919050565b6000613b3d82613b12565b9050919050565b613b4d81613b32565b8114613b5857600080fd5b50565b600081359050613b6a81613b44565b92915050565b6000819050919050565b613b8381613b70565b8114613b8e57600080fd5b50565b600081359050613ba081613b7a565b92915050565b60008060408385031215613bbd57613bbc613b08565b5b6000613bcb85828601613b5b565b9250506020613bdc85828601613b91565b9150509250929050565b613bef81613b70565b82525050565b6000602082019050613c0a6000830184613be6565b92915050565b60007fffffffff0000000000000000000000000000000000000000000000000000000082169050919050565b613c4581613c10565b8114613c5057600080fd5b50565b600081359050613c6281613c3c565b92915050565b600060208284031215613c7e57613c7d613b08565b5b6000613c8c84828501613c53565b91505092915050565b60008115159050919050565b613caa81613c95565b82525050565b6000602082019050613cc56000830184613ca1565b92915050565b600060208284031215613ce157613ce0613b08565b5b6000613cef84828501613b91565b91505092915050565b613d0181613b70565b82525050565b600081519050919050565b600082825260208201905092915050565b60005b83811015613d41578082015181840152602081019050613d26565b83811115613d50576000848401525b50505050565b6000601f19601f8301169050919050565b6000613d7282613d07565b613d7c8185613d12565b9350613d8c818560208601613d23565b613d9581613d56565b840191505092915050565b600061016083016000830151613db96000860182613cf8565b506020830151613dcc6020860182613cf8565b506040830151613ddf6040860182613cf8565b506060830151613df26060860182613cf8565b506080830151613e056080860182613cf8565b5060a0830151613e1860a0860182613cf8565b5060c0830151613e2b60c0860182613cf8565b5060e0830151613e3e60e0860182613cf8565b50610100830151613e53610100860182613cf8565b50610120830151613e68610120860182613cf8565b50610140830151848203610140860152613e828282613d67565b9150508091505092915050565b60006040830160008301518482036000860152613eac8282613da0565b9150506020830151613ec16020860182613cf8565b508091505092915050565b60006020820190508181036000830152613ee68184613e8f565b905092915050565b600081519050919050565b600082825260208201905092915050565b6000819050602082019050919050565b600060c083016000830151613f326000860182613cf8565b506020830151613f456020860182613cf8565b506040830151613f586040860182613cf8565b506060830151613f6b6060860182613cf8565b506080830151613f7e6080860182613cf8565b5060a083015184820360a0860152613f968282613d67565b9150508091505092915050565b6000613faf8383613f1a565b905092915050565b6000602082019050919050565b6000613fcf82613eee565b613fd98185613ef9565b935083602082028501613feb85613f0a565b8060005b8581101561402757848403895281516140088582613fa3565b945061401383613fb7565b925060208a01995050600181019050613fef565b50829750879550505050505092915050565b600060208201905081810360008301526140538184613fc4565b905092915050565b600082825260208201905092915050565b600061407782613d07565b614081818561405b565b9350614091818560208601613d23565b61409a81613d56565b840191505092915050565b600060208201905081810360008301526140bf818461406c565b905092915050565b60006040820190506140dc6000830185613be6565b6140e96020830184613be6565b9392505050565b600081519050919050565b600082825260208201905092915050565b6000819050602082019050919050565b61412581613b32565b82525050565b6060820160008201516141416000850182613cf8565b506020820151614154602085018261411c565b5060408201516141676040850182613cf8565b50505050565b61417681613c95565b82525050565b600060c083016000830151614194600086018261412b565b50602083015184820360608601526141ac8282613d67565b91505060408301516141c16080860182613cf8565b5060608301516141d460a086018261416d565b508091505092915050565b60006141eb838361417c565b905092915050565b6000602082019050919050565b600061420b826140f0565b61421581856140fb565b9350836020820285016142278561410c565b8060005b85811015614263578484038952815161424485826141df565b945061424f836141f3565b925060208a0199505060018101905061422b565b50829750879550505050505092915050565b6000602082019050818103600083015261428f8184614200565b905092915050565b600080604083850312156142ae576142ad613b08565b5b60006142bc85828601613b91565b92505060206142cd85828601613b91565b9150509250929050565b600080fd5b7f4e487b7100000000000000000000000000000000000000000000000000000000600052604160045260246000fd5b61431482613d56565b810181811067ffffffffffffffff82111715614333576143326142dc565b5b80604052505050565b6000614346613afe565b9050614352828261430b565b919050565b600067ffffffffffffffff821115614372576143716142dc565b5b602082029050602081019050919050565b600080fd5b600061439b61439684614357565b61433c565b905080838252602082019050602084028301858111156143be576143bd614383565b5b835b818110156143e757806143d38882613b91565b8452602084019350506020810190506143c0565b5050509392505050565b600082601f830112614406576144056142d7565b5b8135614416848260208601614388565b91505092915050565b600080fd5b600067ffffffffffffffff82111561443f5761443e6142dc565b5b61444882613d56565b9050602081019050919050565b82818337600083830152505050565b600061447761447284614424565b61433c565b9050828152602081018484840111156144935761449261441f565b5b61449e848285614455565b509392505050565b600082601f8301126144bb576144ba6142d7565b5b81356144cb848260208601614464565b91505092915050565b600080600080600060a086880312156144f0576144ef613b08565b5b60006144fe88828901613b5b565b955050602061450f88828901613b5b565b945050604086013567ffffffffffffffff8111156145305761452f613b0d565b5b61453c888289016143f1565b935050606086013567ffffffffffffffff81111561455d5761455c613b0d565b5b614569888289016143f1565b925050608086013567ffffffffffffffff81111561458a57614589613b0d565b5b614596888289016144a6565b9150509295509295909350565b600067ffffffffffffffff8211156145be576145bd6142dc565b5b602082029050602081019050919050565b60006145e26145dd846145a3565b61433c565b9050808382526020820190506020840283018581111561460557614604614383565b5b835b8181101561462e578061461a8882613b5b565b845260208401935050602081019050614607565b5050509392505050565b600082601f83011261464d5761464c6142d7565b5b813561465d8482602086016145cf565b91505092915050565b6000806040838503121561467d5761467c613b08565b5b600083013567ffffffffffffffff81111561469b5761469a613b0d565b5b6146a785828601614638565b925050602083013567ffffffffffffffff8111156146c8576146c7613b0d565b5b6146d4858286016143f1565b9150509250929050565b600081519050919050565b600082825260208201905092915050565b6000819050602082019050919050565b60006147168383613cf8565b60208301905092915050565b6000602082019050919050565b600061473a826146de565b61474481856146e9565b935061474f836146fa565b8060005b83811015614780578151614767888261470a565b975061477283614722565b925050600181019050614753565b5085935050505092915050565b600060208201905081810360008301526147a7818461472f565b905092915050565b600081519050919050565b600082825260208201905092915050565b6000819050602082019050919050565b60006060830160008301516147f36000860182613cf8565b506020830151848203602086015261480b8282613d67565b91505060408301516148206040860182613cf8565b508091505092915050565b600061483783836147db565b905092915050565b6000602082019050919050565b6000614857826147af565b61486181856147ba565b935083602082028501614873856147cb565b8060005b858110156148af5784840389528151614890858261482b565b945061489b8361483f565b925060208a01995050600181019050614877565b50829750879550505050505092915050565b600060208201905081810360008301526148db818461484c565b905092915050565b600081519050919050565b600082825260208201905092915050565b6000819050602082019050919050565b6000604083016000830151848203600086015261492c8282613da0565b91505060208301516149416020860182613cf8565b508091505092915050565b6000614958838361490f565b905092915050565b6000602082019050919050565b6000614978826148e3565b61498281856148ee565b935083602082028501614994856148ff565b8060005b858110156149d057848403895281516149b1858261494c565b94506149bc83614960565b925060208a01995050600181019050614998565b50829750879550505050505092915050565b600060208201905081810360008301526149fc818461496d565b905092915050565b600081519050919050565b600082825260208201905092915050565b6000819050602082019050919050565b606082016000820151614a466000850182613cf8565b506020820151614a596020850182613cf8565b506040820151614a6c6040850182613cf8565b50505050565b600060a083016000830151614a8a6000860182614a30565b5060208301518482036060860152614aa28282613da0565b91505060408301518482036080860152614abc8282613d67565b9150508091505092915050565b6000614ad58383614a72565b905092915050565b6000602082019050919050565b6000614af582614a04565b614aff8185614a0f565b935083602082028501614b1185614a20565b8060005b85811015614b4d5784840389528151614b2e8582614ac9565b9450614b3983614add565b925060208a01995050600181019050614b15565b50829750879550505050505092915050565b60006020820190508181036000830152614b798184614aea565b905092915050565b600067ffffffffffffffff821115614b9c57614b9b6142dc565b5b614ba582613d56565b9050602081019050919050565b6000614bc5614bc084614b81565b61433c565b905082815260208101848484011115614be157614be061441f565b5b614bec848285614455565b509392505050565b600082601f830112614c0957614c086142d7565b5b8135614c19848260208601614bb2565b91505092915050565b600060208284031215614c3857614c37613b08565b5b600082013567ffffffffffffffff811115614c5657614c55613b0d565b5b614c6284828501614bf4565b91505092915050565b614c7481613c95565b8114614c7f57600080fd5b50565b600081359050614c9181614c6b565b92915050565b60008060408385031215614cae57614cad613b08565b5b6000614cbc85828601613b5b565b9250506020614ccd85828601614c82565b9150509250929050565b606082016000820151614ced6000850182613cf8565b506020820151614d006020850182613cf8565b506040820151614d136040850182613cf8565b50505050565b6000606082019050614d2e6000830184614cd7565b92915050565b60008060408385031215614d4b57614d4a613b08565b5b6000614d5985828601613b91565b925050602083013567ffffffffffffffff811115614d7a57614d79613b0d565b5b614d8685828601614bf4565b9150509250929050565b600080600080600060a08688031215614dac57614dab613b08565b5b6000614dba88828901613b91565b9550506020614dcb88828901613b91565b9450506040614ddc88828901613b91565b9350506060614ded88828901613b91565b925050608086013567ffffffffffffffff811115614e0e57614e0d613b0d565b5b614e1a88828901614bf4565b9150509295509295909350565b600060208284031215614e3d57614e3c613b08565b5b6000614e4b84828501613b5b565b91505092915050565b60008060008060808587031215614e6e57614e6d613b08565b5b6000614e7c87828801613b91565b9450506020614e8d87828801613b91565b9350506040614e9e87828801613b91565b925050606085013567ffffffffffffffff811115614ebf57614ebe613b0d565b5b614ecb87828801614bf4565b91505092959194509250565b60008060408385031215614eee57614eed613b08565b5b6000614efc85828601613b5b565b9250506020614f0d85828601613b5b565b9150509250929050565b600060c083016000830151614f2f6000860182613cf8565b506020830151614f426020860182613cf8565b506040830151614f556040860182613cf8565b506060830151614f686060860182613cf8565b506080830151614f7b6080860182613cf8565b5060a083015184820360a0860152614f938282613d67565b9150508091505092915050565b60006020820190508181036000830152614fba8184614f17565b905092915050565b600080600080600060a08688031215614fde57614fdd613b08565b5b6000614fec88828901613b5b565b9550506020614ffd88828901613b5b565b945050604061500e88828901613b91565b935050606061501f88828901613b91565b925050608086013567ffffffffffffffff8111156150405761503f613b0d565b5b61504c888289016144a6565b9150509295509295909350565b7f455243313135353a2061646472657373207a65726f206973206e6f742061207660008201527f616c6964206f776e657200000000000000000000000000000000000000000000602082015250565b60006150b5602a8361405b565b91506150c082615059565b604082019050919050565b600060208201905081810360008301526150e4816150a8565b9050919050565b7f4e487b7100000000000000000000000000000000000000000000000000000000600052601160045260246000fd5b600061512582613b70565b915061513083613b70565b925082821015615143576151426150eb565b5b828203905092915050565b7f4e487b7100000000000000000000000000000000000000000000000000000000600052602260045260246000fd5b6000600282049050600182168061519557607f821691505b6020821081036151a8576151a761514e565b5b50919050565b600081905092915050565b60008190508160005260206000209050919050565b600081546151db8161517d565b6151e581866151ae565b94506001821660008114615200576001811461521157615244565b60ff19831686528186019350615244565b61521a856151b9565b60005b8381101561523c5781548189015260018201915060208101905061521d565b838801955050505b50505092915050565b600061525882613d07565b61526281856151ae565b9350615272818560208601613d23565b80840191505092915050565b600061528a82856151ce565b9150615296828461524d565b91508190509392505050565b7f4e487b7100000000000000000000000000000000000000000000000000000000600052603260045260246000fd5b600080fd5b600080fd5b6000815190506152ea81613b7a565b92915050565b6000815190506152ff81613b44565b92915050565b60006060828403121561531b5761531a6152d1565b5b615325606061433c565b90506000615335848285016152db565b6000830152506020615349848285016152f0565b602083015250604061535d848285016152db565b60408301525092915050565b600061537c61537784614b81565b61433c565b9050828152602081018484840111156153985761539761441f565b5b6153a3848285613d23565b509392505050565b600082601f8301126153c0576153bf6142d7565b5b81516153d0848260208601615369565b91505092915050565b6000815190506153e881614c6b565b92915050565b600060c08284031215615404576154036152d1565b5b61540e608061433c565b9050600061541e84828501615305565b600083015250606082015167ffffffffffffffff811115615442576154416152d6565b5b61544e848285016153ab565b6020830152506080615462848285016152db565b60408301525060a0615476848285016153d9565b60608301525092915050565b60006020828403121561549857615497613b08565b5b600082015167ffffffffffffffff8111156154b6576154b5613b0d565b5b6154c2848285016153ee565b91505092915050565b60006154d682613b70565b91507fffffffffffffffffffffffffffffffffffffffffffffffffffffffffffffffff8203615508576155076150eb565b5b600182019050919050565b7f455243313135353a2063616c6c6572206973206e6f7420746f6b656e206f776e60008201527f6572206f7220617070726f766564000000000000000000000000000000000000602082015250565b600061556f602e8361405b565b915061557a82615513565b604082019050919050565b6000602082019050818103600083015261559e81615562565b9050919050565b7f455243313135353a206163636f756e747320616e6420696473206c656e67746860008201527f206d69736d617463680000000000000000000000000000000000000000000000602082015250565b600061560160298361405b565b915061560c826155a5565b604082019050919050565b60006020820190508181036000830152615630816155f4565b9050919050565b7f4e487b7100000000000000000000000000000000000000000000000000000000600052602160045260246000fd5b61566f81613b32565b82525050565b600060408201905061568a6000830185613be6565b6156976020830184615666565b9392505050565b60006156aa828461524d565b915081905092915050565b6000602082840312156156cb576156ca613b08565b5b60006156d9848285016153d9565b91505092915050565b6000602082840312156156f8576156f7613b08565b5b6000615706848285016152db565b91505092915050565b600061571a82613b70565b915061572583613b70565b9250827fffffffffffffffffffffffffffffffffffffffffffffffffffffffffffffffff0382111561575a576157596150eb565b5b828201905092915050565b7f455243313135353a2069647320616e6420616d6f756e7473206c656e6774682060008201527f6d69736d61746368000000000000000000000000000000000000000000000000602082015250565b60006157c160288361405b565b91506157cc82615765565b604082019050919050565b600060208201905081810360008301526157f0816157b4565b9050919050565b7f455243313135353a207472616e7366657220746f20746865207a65726f20616460008201527f6472657373000000000000000000000000000000000000000000000000000000602082015250565b600061585360258361405b565b915061585e826157f7565b604082019050919050565b6000602082019050818103600083015261588281615846565b9050919050565b7f455243313135353a20696e73756666696369656e742062616c616e636520666f60008201527f72207472616e7366657200000000000000000000000000000000000000000000602082015250565b60006158e5602a8361405b565b91506158f082615889565b604082019050919050565b60006020820190508181036000830152615914816158d8565b9050919050565b60006040820190508181036000830152615935818561472f565b90508181036020830152615949818461472f565b90509392505050565b7f455243313135353a2073657474696e6720617070726f76616c2073746174757360008201527f20666f722073656c660000000000000000000000000000000000000000000000602082015250565b60006159ae60298361405b565b91506159b982615952565b604082019050919050565b600060208201905081810360008301526159dd816159a1565b9050919050565b600081519050919050565b600082825260208201905092915050565b6000615a0b826159e4565b615a1581856159ef565b9350615a25818560208601613d23565b615a2e81613d56565b840191505092915050565b600060a082019050615a4e6000830188615666565b615a5b6020830187615666565b8181036040830152615a6d818661472f565b90508181036060830152615a81818561472f565b90508181036080830152615a958184615a00565b90509695505050505050565b600081519050615ab081613c3c565b92915050565b600060208284031215615acc57615acb613b08565b5b6000615ada84828501615aa1565b91505092915050565b60008160e01c9050919050565b600060033d1115615b0f5760046000803e615b0c600051615ae3565b90505b90565b600060443d10615b9f57615b24613afe565b60043d036004823e80513d602482011167ffffffffffffffff82111715615b4c575050615b9f565b808201805167ffffffffffffffff811115615b6a5750505050615b9f565b80602083010160043d038501811115615b87575050505050615b9f565b615b968260200185018661430b565b82955050505050505b90565b7f455243313135353a207472616e7366657220746f206e6f6e2d4552433131353560008201527f526563656976657220696d706c656d656e746572000000000000000000000000602082015250565b6000615bfe60348361405b565b9150615c0982615ba2565b604082019050919050565b60006020820190508181036000830152615c2d81615bf1565b9050919050565b7f455243313135353a204552433131353552656365697665722072656a6563746560008201527f6420746f6b656e73000000000000000000000000000000000000000000000000602082015250565b6000615c9060288361405b565b9150615c9b82615c34565b604082019050919050565b60006020820190508181036000830152615cbf81615c83565b9050919050565b7f455243313135353a206d696e7420746f20746865207a65726f2061646472657360008201527f7300000000000000000000000000000000000000000000000000000000000000602082015250565b6000615d2260218361405b565b9150615d2d82615cc6565b604082019050919050565b60006020820190508181036000830152615d5181615d15565b9050919050565b600060a082019050615d6d6000830188615666565b615d7a6020830187615666565b615d876040830186613be6565b615d946060830185613be6565b8181036080830152615da68184615a00565b9050969550505050505056fea2646970667358221220c55c88e519aaacd6651b80714687ea0e4c43a45145e40a69f31a31bf7b7cea2764736f6c634300080d0033",
  "immutableReferences": {},
  "source": "// SPDX-License-Identifier: MIT\r\n// Tells the Solidity compiler to compile only from v0.8.13 to v0.9.0\r\npragma solidity ^0.8.13;\r\n\r\nimport \"./ERC1155BaseContract.sol\";\r\nimport \"./utils/IdentityGenerator.sol\";\r\nimport \"./interfaces/INftSchool.sol\";\r\nimport \"./interfaces/INftIdentities.sol\";\r\nimport \"./interfaces/INftCertificates.sol\";\r\n\r\ncontract NftSchool is ERC1155BaseContract, INftSchool, IdentityGenerator {\r\n    using Counters for Counters.Counter;\r\n\r\n    uint256 constant COURSE_ID = 1;\r\n    uint256 constant CLASS_ID = 2;\r\n    uint256 constant REGISTERED_TIME_ID = 3;\r\n\r\n    uint256 constant NFT_COURSE_REGISTRATION_ID = 0;\r\n\r\n    uint256 public minimumGraduationScore = 500;\r\n\r\n    string[] private courseURIs;\r\n\r\n    INftIdentities private _nftIdentities;\r\n    INftCertificates private _nftCertificates;\r\n\r\n    bool public _isInitialize;\r\n    uint256 public registerClassFee = 0.5 ether;\r\n\r\n    mapping(uint256 => uint256) private _registeredStartAt;\r\n    mapping(uint256 => uint256) private _registeredEndAt;\r\n\r\n    mapping(uint256 => uint256[]) private _classIdByRegisterTime;\r\n    mapping(uint256 => mapping(string => uint256)) private _idOfURIOfType;\r\n\r\n    Course[] private _allCourses;\r\n    mapping(uint256 => uint256) _posOfCourses;\r\n\r\n    KnowledgeBlock[] private _knowledgeBlocks;\r\n\r\n    Class[] private _allClasses;\r\n    mapping(uint256 => uint256) private _posOfClasses;\r\n    mapping(uint256 => uint256[]) private _assignedClassesOfTeacher;\r\n\r\n    NftClassRegistration[] private _allNftClassRegistrations;\r\n    mapping(uint256 => uint256) private _posOfNftClassRegistrationTokenId;\r\n    mapping(uint256 => uint256[]) private _registeredClassTokenIdOfStudent; // tokenId => currentRegisterTimeId => courseId\r\n    mapping(uint256 => mapping(uint256 => uint256))\r\n        private _registeredCourseOfStudent;\r\n    mapping(uint256 => uint256[]) private _registeredTokenIdOfClass;\r\n\r\n    mapping(uint256 => mapping(uint256 => uint256)) _posOfTokenIdOfNftType;\r\n\r\n    modifier onlyOwner() {\r\n        require(_owner == msg.sender);\r\n        _;\r\n    }\r\n\r\n    constructor(\r\n        address nftIdentities,\r\n        string[] memory knowledgeBlockNames,\r\n        uint256[] memory knowledgeBlockCredits\r\n    ) ERC1155BaseContract(\"\") {\r\n        _nftIdentities = INftIdentities(nftIdentities);\r\n\r\n        uint256 knowledgeBlockCount = knowledgeBlockNames.length;\r\n        for (uint256 idx = 0; idx < knowledgeBlockCount; ++idx) {\r\n            _knowledgeBlocks.push(\r\n                KnowledgeBlock(\r\n                    idx + 1,\r\n                    knowledgeBlockNames[idx],\r\n                    knowledgeBlockCredits[idx]\r\n                )\r\n            );\r\n        }\r\n    }\r\n\r\n    function initialize(address nftCertificates) public onlyOwner {\r\n        require(!_isInitialize);\r\n        _isInitialize = true;\r\n        _nftCertificates = INftCertificates(nftCertificates);\r\n    }\r\n\r\n    // Knowledge Block: Start\r\n    function getAllKnowledgeBlocks()\r\n        external\r\n        view\r\n        returns (KnowledgeBlock[] memory)\r\n    {\r\n        return _knowledgeBlocks;\r\n    }\r\n\r\n    // Knowledge Block: End\r\n\r\n    // Register time Section: Start\r\n    function updateRegisteredTime(\r\n        uint256 registeredStartAt,\r\n        uint256 registeredEndAt\r\n    ) external onlyOwner {\r\n        uint256 currentRegisterTimeId = getCurrentId(REGISTERED_TIME_ID);\r\n        require(\r\n            _classIdByRegisterTime[currentRegisterTimeId].length == 0 ||\r\n                _registeredEndAt[currentRegisterTimeId] <= block.timestamp\r\n        );\r\n        require(registeredEndAt > registeredStartAt);\r\n        uint256 nextRegisterTimeId = generateNewId(REGISTERED_TIME_ID);\r\n        _registeredStartAt[nextRegisterTimeId] = registeredStartAt;\r\n        _registeredEndAt[nextRegisterTimeId] = registeredEndAt;\r\n    }\r\n\r\n    function getRegisterTime() public view returns (uint256, uint256) {\r\n        uint256 currentRegisteredTimeId = getCurrentId(REGISTERED_TIME_ID);\r\n\r\n        return (\r\n            _registeredStartAt[currentRegisteredTimeId],\r\n            _registeredEndAt[currentRegisteredTimeId]\r\n        );\r\n    }\r\n\r\n    // Register time Section: End\r\n\r\n    // Course Block: Start\r\n    function getAllCourses() external view onlyOwner returns (Course[] memory) {\r\n        return _allCourses;\r\n    }\r\n\r\n    function getCourseById(uint256 id) public view returns (Course memory) {\r\n        uint256 pos = _posOfCourses[id];\r\n        require(pos > 0);\r\n\r\n        return _allCourses[pos - 1];\r\n    }\r\n\r\n    function getCourseIdByURI(\r\n        string memory tokenURI\r\n    ) public view returns (uint256) {\r\n        return _idOfURIOfType[COURSE_ID][tokenURI];\r\n    }\r\n\r\n    function createCourse(\r\n        uint256 prevCourseId,\r\n        uint256 knowledgeBlockId,\r\n        uint256 credits,\r\n        string memory uri\r\n    ) public onlyOwner returns (uint256) {\r\n        require(knowledgeBlockId <= _knowledgeBlocks.length);\r\n        require(credits > 0);\r\n        require(prevCourseId == 0 || _posOfCourses[prevCourseId] > 0);\r\n        require(_idOfURIOfType[COURSE_ID][uri] == 0);\r\n        uint256 id = generateNewId(COURSE_ID);\r\n        _allCourses.push(\r\n            Course(id, knowledgeBlockId, prevCourseId, credits, 1, uri)\r\n        );\r\n        _idOfURIOfType[COURSE_ID][uri] = id;\r\n        _posOfCourses[id] = _allCourses.length;\r\n\r\n        return id;\r\n    }\r\n    // Course Block: End\r\n\r\n    // Class Block: Start\r\n    function getClassById(\r\n        uint256 id\r\n    ) public view returns (ClassResponse memory) {\r\n        uint256 pos = _posOfClasses[id];\r\n        require(pos > 0);\r\n\r\n        return _getClassByIdx(pos - 1);\r\n    }\r\n\r\n    function getAllClasses()\r\n        external\r\n        view\r\n        onlyOwner\r\n        returns (ClassResponse[] memory)\r\n    {\r\n        uint256 length = _allClasses.length;\r\n        ClassResponse[] memory classResponses = new ClassResponse[](length);\r\n\r\n        for (uint256 idx; idx < length; ++idx) {\r\n            classResponses[idx] = _getClassByIdx(idx);\r\n        }\r\n\r\n        return classResponses;\r\n    }\r\n\r\n    function getCurrentRegisteredClasses()\r\n        external\r\n        view\r\n        returns (ClassResponse[] memory)\r\n    {\r\n        uint256 registeredId = getCurrentId(REGISTERED_TIME_ID);\r\n        uint256[] memory ids = _classIdByRegisterTime[registeredId];\r\n        uint256 count = ids.length;\r\n        ClassResponse[] memory classes = new ClassResponse[](count);\r\n\r\n        for (uint256 idx; idx < count; ++idx) {\r\n            classes[idx] = _getClassByIdx(_posOfClasses[ids[idx]] - 1);\r\n        }\r\n\r\n        return classes;\r\n    }\r\n\r\n    function getAssignedClasses(\r\n        uint256 tokenId\r\n    ) external view returns (ClassResponse[] memory) {\r\n        uint256 count = _assignedClassesOfTeacher[tokenId].length;\r\n        ClassResponse[] memory result = new ClassResponse[](count);\r\n\r\n        for (uint256 idx; idx < count; ++idx) {\r\n            result[idx] = getClassById(_assignedClassesOfTeacher[tokenId][idx]);\r\n        }\r\n\r\n        return result;\r\n    }\r\n\r\n    function createClass(\r\n        uint256 courseId,\r\n        uint256 completeAt,\r\n        uint256 maxSize,\r\n        uint256 teacherTokenId,\r\n        string memory uri\r\n    ) public onlyOwner returns (uint256) {\r\n        Course memory course = getCourseById(courseId);\r\n        uint256 currentRegisterTimeId = getCurrentId(REGISTERED_TIME_ID);\r\n        // get nft => check expired date > completeAt\r\n        NftIdentityResponse memory nftTeacher = _nftIdentities.getNftOfTokenId(\r\n            teacherTokenId\r\n        );\r\n        uint256 nftTeacherRole = _nftIdentities.getTokenType(teacherTokenId);\r\n\r\n        require(completeAt > _registeredEndAt[currentRegisterTimeId]);\r\n        require(_registeredEndAt[currentRegisterTimeId] > block.timestamp);\r\n        require(nftTeacherRole == uint256(ROLE.TEACHER));\r\n        require(nftTeacher.nftIdentity.expiredAt > completeAt);\r\n        uint256 id = generateNewId(CLASS_ID);\r\n        _allClasses.push(\r\n            Class(\r\n                id,\r\n                courseId,\r\n                course.knowledgeBlockId,\r\n                course.prevCourseId,\r\n                course.credits,\r\n                _registeredStartAt[currentRegisterTimeId],\r\n                _registeredEndAt[currentRegisterTimeId],\r\n                completeAt,\r\n                maxSize,\r\n                teacherTokenId,\r\n                uri\r\n            )\r\n        );\r\n        _posOfClasses[id] = _allClasses.length;\r\n        _classIdByRegisterTime[currentRegisterTimeId].push(id);\r\n        _assignedClassesOfTeacher[teacherTokenId].push(id);\r\n\r\n        return id;\r\n    }\r\n\r\n    function _getClassByIdx(\r\n        uint256 idx\r\n    ) private view returns (ClassResponse memory) {\r\n        return\r\n            ClassResponse(\r\n                _allClasses[idx],\r\n                _registeredTokenIdOfClass[_allClasses[idx].id].length\r\n            );\r\n    }\r\n\r\n    // Class Block: End\r\n\r\n    // Register class block: start\r\n    function getRegisteredClasses()\r\n        public\r\n        view\r\n        returns (NftClassRegistrationResponse[] memory)\r\n    {\r\n        NftIdentityResponse memory nftIdentityResponse = _nftIdentities\r\n            .getNftOfMemberWithRole(uint256(ROLE.STUDENT), msg.sender);\r\n        uint256 studentTokenId = nftIdentityResponse.nftIdentity.tokenId;\r\n        uint256[]\r\n            memory nftClassRegistrationTokenIds = _registeredClassTokenIdOfStudent[\r\n                studentTokenId\r\n            ];\r\n        uint256 count = nftClassRegistrationTokenIds.length;\r\n\r\n        NftClassRegistrationResponse[]\r\n            memory nftClassRegistrationResponses = new NftClassRegistrationResponse[](\r\n                count\r\n            );\r\n\r\n        for (uint256 idx = 0; idx < count; ++idx) {\r\n            NftClassRegistration\r\n                memory nftClassRegistration = getNftClassRegistration(\r\n                    nftClassRegistrationTokenIds[idx]\r\n                );\r\n\r\n            nftClassRegistrationResponses[idx] = NftClassRegistrationResponse(\r\n                nftClassRegistration,\r\n                getClassById(nftClassRegistration.classId).class,\r\n                uri(nftClassRegistration.tokenId)\r\n            );\r\n        }\r\n\r\n        return nftClassRegistrationResponses;\r\n    }\r\n\r\n    function getNftClassRegistration(\r\n        uint256 tokenId\r\n    ) public view returns (NftClassRegistration memory) {\r\n        uint256 posOfNft = _posOfNftClassRegistrationTokenId[tokenId];\r\n        require(posOfNft > 0);\r\n\r\n        return _allNftClassRegistrations[posOfNft - 1];\r\n    }\r\n\r\n    function getStudentListOfClass(\r\n        uint256 id\r\n    ) public view returns (NftIdentityResponse[] memory) {\r\n        uint256 count = _registeredClassTokenIdOfStudent[id].length;\r\n        NftIdentityResponse[] memory result = new NftIdentityResponse[](count);\r\n\r\n        for (uint256 idx; idx < count; ++idx) {\r\n            result[idx] = _nftIdentities.getNftOfTokenId(\r\n                _registeredClassTokenIdOfStudent[id][idx]\r\n            );\r\n        }\r\n\r\n        return result;\r\n    }\r\n\r\n    function registerClass(uint256 classId, string memory uri) public payable {\r\n        NftIdentityResponse memory nftIdentityResponse = _nftIdentities\r\n            .getNftOfMemberWithRole(uint256(ROLE.STUDENT), msg.sender);\r\n        uint256 studentTokenId = nftIdentityResponse.nftIdentity.tokenId;\r\n        Class memory class = getClassById(classId).class;\r\n\r\n        require(!nftIdentityResponse.isExpired);\r\n        require(_registeredTokenIdOfClass[class.id].length < class.maxSize);\r\n        require(block.timestamp >= class.registeredStartAt);\r\n        require(block.timestamp <= class.registeredEndAt);\r\n        require(\r\n            class.prevCourseId == 0 ||\r\n                _nftCertificates.checkCompleteCourse(\r\n                    class.prevCourseId,\r\n                    msg.sender\r\n                )\r\n        );\r\n        require(\r\n            _registeredCourseOfStudent[studentTokenId][class.courseId] == 0\r\n        );\r\n        require(msg.value == registerClassFee);\r\n        uint256 tokenId = _mintToken(\r\n            msg.sender,\r\n            NFT_COURSE_REGISTRATION_ID,\r\n            uri\r\n        );\r\n        _allNftClassRegistrations.push(\r\n            NftClassRegistration(tokenId, classId, studentTokenId)\r\n        );\r\n        _posOfNftClassRegistrationTokenId[tokenId] = _allNftClassRegistrations\r\n            .length;\r\n        _registeredClassTokenIdOfStudent[studentTokenId].push(tokenId);\r\n        _registeredCourseOfStudent[studentTokenId][class.courseId] = tokenId;\r\n        _registeredTokenIdOfClass[class.id].push(tokenId);\r\n    }\r\n}\r\n",
  "sourcePath": "E:\\learn\\learn-to-earn\\blockchain\\contracts\\NftSchool.sol",
  "compiler": {
    "name": "solc",
    "version": "0.8.13+commit.abaa5c0e.Emscripten.clang"
  },
  "schemaVersion": "3.4.13",
  "updatedAt": "2023-05-08T23:03:06.515Z",
  "networkType": "ethereum",
  "devdoc": {
    "kind": "dev",
    "methods": {
      "balanceOf(address,uint256)": {
        "details": "See {IERC1155-balanceOf}. Requirements: - `account` cannot be the zero address."
      },
      "balanceOfBatch(address[],uint256[])": {
        "details": "See {IERC1155-balanceOfBatch}. Requirements: - `accounts` and `ids` must have the same length."
      },
      "isApprovedForAll(address,address)": {
        "details": "See {IERC1155-isApprovedForAll}."
      },
      "safeBatchTransferFrom(address,address,uint256[],uint256[],bytes)": {
        "details": "See {IERC1155-safeBatchTransferFrom}."
      },
      "safeTransferFrom(address,address,uint256,uint256,bytes)": {
        "details": "See {IERC1155-safeTransferFrom}."
      },
      "setApprovalForAll(address,bool)": {
        "details": "See {IERC1155-setApprovalForAll}."
      },
      "supportsInterface(bytes4)": {
        "details": "See {IERC165-supportsInterface}."
      },
      "uri(uint256)": {
        "details": "See {IERC1155MetadataURI-uri}. This implementation returns the concatenation of the `_baseURI` and the token-specific uri if the latter is set This enables the following behaviors: - if `_tokenURIs[tokenId]` is set, then the result is the concatenation   of `_baseURI` and `_tokenURIs[tokenId]` (keep in mind that `_baseURI`   is empty per default); - if `_tokenURIs[tokenId]` is NOT set then we fallback to `super.uri()`   which in most cases will contain `ERC1155._uri`; - if `_tokenURIs[tokenId]` is NOT set, and if the parents do not have a   uri value set, then the result is empty."
      }
    },
    "version": 1
  },
  "userdoc": {
    "kind": "user",
    "methods": {},
    "version": 1
  }
}