{
  "contractName": "NftSchool",
  "abi": [
    {
      "inputs": [
        {
          "internalType": "address",
          "name": "nftIdentities",
          "type": "address"
        },
        {
          "internalType": "string[]",
          "name": "knowledgeBlockNames",
          "type": "string[]"
        },
        {
          "internalType": "uint256[]",
          "name": "knowledgeBlockCredits",
          "type": "uint256[]"
        }
      ],
      "stateMutability": "nonpayable",
      "type": "constructor"
    },
    {
      "anonymous": false,
      "inputs": [
        {
          "indexed": true,
          "internalType": "address",
          "name": "account",
          "type": "address"
        },
        {
          "indexed": true,
          "internalType": "address",
          "name": "operator",
          "type": "address"
        },
        {
          "indexed": false,
          "internalType": "bool",
          "name": "approved",
          "type": "bool"
        }
      ],
      "name": "ApprovalForAll",
      "type": "event"
    },
    {
      "anonymous": false,
      "inputs": [
        {
          "indexed": false,
          "internalType": "uint256",
          "name": "id",
          "type": "uint256"
        }
      ],
      "name": "NewClassCreated",
      "type": "event"
    },
    {
      "anonymous": false,
      "inputs": [
        {
          "indexed": true,
          "internalType": "address",
          "name": "operator",
          "type": "address"
        },
        {
          "indexed": true,
          "internalType": "address",
          "name": "from",
          "type": "address"
        },
        {
          "indexed": true,
          "internalType": "address",
          "name": "to",
          "type": "address"
        },
        {
          "indexed": false,
          "internalType": "uint256[]",
          "name": "ids",
          "type": "uint256[]"
        },
        {
          "indexed": false,
          "internalType": "uint256[]",
          "name": "values",
          "type": "uint256[]"
        }
      ],
      "name": "TransferBatch",
      "type": "event"
    },
    {
      "anonymous": false,
      "inputs": [
        {
          "indexed": true,
          "internalType": "address",
          "name": "operator",
          "type": "address"
        },
        {
          "indexed": true,
          "internalType": "address",
          "name": "from",
          "type": "address"
        },
        {
          "indexed": true,
          "internalType": "address",
          "name": "to",
          "type": "address"
        },
        {
          "indexed": false,
          "internalType": "uint256",
          "name": "id",
          "type": "uint256"
        },
        {
          "indexed": false,
          "internalType": "uint256",
          "name": "value",
          "type": "uint256"
        }
      ],
      "name": "TransferSingle",
      "type": "event"
    },
    {
      "anonymous": false,
      "inputs": [
        {
          "indexed": false,
          "internalType": "string",
          "name": "value",
          "type": "string"
        },
        {
          "indexed": true,
          "internalType": "uint256",
          "name": "id",
          "type": "uint256"
        }
      ],
      "name": "URI",
      "type": "event"
    },
    {
      "inputs": [],
      "name": "_isInitialize",
      "outputs": [
        {
          "internalType": "bool",
          "name": "",
          "type": "bool"
        }
      ],
      "stateMutability": "view",
      "type": "function",
      "constant": true
    },
    {
      "inputs": [
        {
          "internalType": "address",
          "name": "account",
          "type": "address"
        },
        {
          "internalType": "uint256",
          "name": "id",
          "type": "uint256"
        }
      ],
      "name": "balanceOf",
      "outputs": [
        {
          "internalType": "uint256",
          "name": "",
          "type": "uint256"
        }
      ],
      "stateMutability": "view",
      "type": "function",
      "constant": true
    },
    {
      "inputs": [
        {
          "internalType": "address[]",
          "name": "accounts",
          "type": "address[]"
        },
        {
          "internalType": "uint256[]",
          "name": "ids",
          "type": "uint256[]"
        }
      ],
      "name": "balanceOfBatch",
      "outputs": [
        {
          "internalType": "uint256[]",
          "name": "",
          "type": "uint256[]"
        }
      ],
      "stateMutability": "view",
      "type": "function",
      "constant": true
    },
    {
      "inputs": [
        {
          "internalType": "address",
          "name": "account",
          "type": "address"
        },
        {
          "internalType": "address",
          "name": "operator",
          "type": "address"
        }
      ],
      "name": "isApprovedForAll",
      "outputs": [
        {
          "internalType": "bool",
          "name": "",
          "type": "bool"
        }
      ],
      "stateMutability": "view",
      "type": "function",
      "constant": true
    },
    {
      "inputs": [],
      "name": "minimumGraduationScore",
      "outputs": [
        {
          "internalType": "uint256",
          "name": "",
          "type": "uint256"
        }
      ],
      "stateMutability": "view",
      "type": "function",
      "constant": true
    },
    {
      "inputs": [],
      "name": "registerClassFee",
      "outputs": [
        {
          "internalType": "uint256",
          "name": "",
          "type": "uint256"
        }
      ],
      "stateMutability": "view",
      "type": "function",
      "constant": true
    },
    {
      "inputs": [
        {
          "internalType": "address",
          "name": "from",
          "type": "address"
        },
        {
          "internalType": "address",
          "name": "to",
          "type": "address"
        },
        {
          "internalType": "uint256[]",
          "name": "ids",
          "type": "uint256[]"
        },
        {
          "internalType": "uint256[]",
          "name": "amounts",
          "type": "uint256[]"
        },
        {
          "internalType": "bytes",
          "name": "data",
          "type": "bytes"
        }
      ],
      "name": "safeBatchTransferFrom",
      "outputs": [],
      "stateMutability": "nonpayable",
      "type": "function"
    },
    {
      "inputs": [
        {
          "internalType": "address",
          "name": "from",
          "type": "address"
        },
        {
          "internalType": "address",
          "name": "to",
          "type": "address"
        },
        {
          "internalType": "uint256",
          "name": "id",
          "type": "uint256"
        },
        {
          "internalType": "uint256",
          "name": "amount",
          "type": "uint256"
        },
        {
          "internalType": "bytes",
          "name": "data",
          "type": "bytes"
        }
      ],
      "name": "safeTransferFrom",
      "outputs": [],
      "stateMutability": "nonpayable",
      "type": "function"
    },
    {
      "inputs": [
        {
          "internalType": "address",
          "name": "operator",
          "type": "address"
        },
        {
          "internalType": "bool",
          "name": "approved",
          "type": "bool"
        }
      ],
      "name": "setApprovalForAll",
      "outputs": [],
      "stateMutability": "nonpayable",
      "type": "function"
    },
    {
      "inputs": [
        {
          "internalType": "bytes4",
          "name": "interfaceId",
          "type": "bytes4"
        }
      ],
      "name": "supportsInterface",
      "outputs": [
        {
          "internalType": "bool",
          "name": "",
          "type": "bool"
        }
      ],
      "stateMutability": "view",
      "type": "function",
      "constant": true
    },
    {
      "inputs": [
        {
          "internalType": "uint256",
          "name": "tokenId",
          "type": "uint256"
        }
      ],
      "name": "uri",
      "outputs": [
        {
          "internalType": "string",
          "name": "",
          "type": "string"
        }
      ],
      "stateMutability": "view",
      "type": "function",
      "constant": true
    },
    {
      "inputs": [
        {
          "internalType": "address",
          "name": "nftCertificates",
          "type": "address"
        }
      ],
      "name": "initialize",
      "outputs": [],
      "stateMutability": "nonpayable",
      "type": "function"
    },
    {
      "inputs": [],
      "name": "getAllKnowledgeBlocks",
      "outputs": [
        {
          "components": [
            {
              "internalType": "uint256",
              "name": "id",
              "type": "uint256"
            },
            {
              "internalType": "string",
              "name": "name",
              "type": "string"
            },
            {
              "internalType": "uint256",
              "name": "credits",
              "type": "uint256"
            }
          ],
          "internalType": "struct IConstant.KnowledgeBlock[]",
          "name": "",
          "type": "tuple[]"
        }
      ],
      "stateMutability": "view",
      "type": "function",
      "constant": true
    },
    {
      "inputs": [
        {
          "internalType": "uint256",
          "name": "semesterId",
          "type": "uint256"
        },
        {
          "internalType": "uint256",
          "name": "registeredStartAt",
          "type": "uint256"
        },
        {
          "internalType": "uint256",
          "name": "registeredEndAt",
          "type": "uint256"
        }
      ],
      "name": "updateRegisteredTime",
      "outputs": [],
      "stateMutability": "nonpayable",
      "type": "function"
    },
    {
      "inputs": [
        {
          "internalType": "uint256",
          "name": "semesterId",
          "type": "uint256"
        }
      ],
      "name": "getRegisterTime",
      "outputs": [
        {
          "internalType": "uint256",
          "name": "",
          "type": "uint256"
        },
        {
          "internalType": "uint256",
          "name": "",
          "type": "uint256"
        }
      ],
      "stateMutability": "view",
      "type": "function",
      "constant": true
    },
    {
      "inputs": [],
      "name": "getAllCourses",
      "outputs": [
        {
          "components": [
            {
              "internalType": "uint256",
              "name": "id",
              "type": "uint256"
            },
            {
              "internalType": "uint256",
              "name": "knowledgeBlockId",
              "type": "uint256"
            },
            {
              "internalType": "uint256",
              "name": "prevCourseId",
              "type": "uint256"
            },
            {
              "internalType": "uint256",
              "name": "credits",
              "type": "uint256"
            },
            {
              "internalType": "uint256",
              "name": "status",
              "type": "uint256"
            },
            {
              "internalType": "string",
              "name": "uri",
              "type": "string"
            }
          ],
          "internalType": "struct IConstant.Course[]",
          "name": "",
          "type": "tuple[]"
        }
      ],
      "stateMutability": "view",
      "type": "function",
      "constant": true
    },
    {
      "inputs": [
        {
          "internalType": "uint256",
          "name": "id",
          "type": "uint256"
        }
      ],
      "name": "getCourseById",
      "outputs": [
        {
          "components": [
            {
              "internalType": "uint256",
              "name": "id",
              "type": "uint256"
            },
            {
              "internalType": "uint256",
              "name": "knowledgeBlockId",
              "type": "uint256"
            },
            {
              "internalType": "uint256",
              "name": "prevCourseId",
              "type": "uint256"
            },
            {
              "internalType": "uint256",
              "name": "credits",
              "type": "uint256"
            },
            {
              "internalType": "uint256",
              "name": "status",
              "type": "uint256"
            },
            {
              "internalType": "string",
              "name": "uri",
              "type": "string"
            }
          ],
          "internalType": "struct IConstant.Course",
          "name": "",
          "type": "tuple"
        }
      ],
      "stateMutability": "view",
      "type": "function",
      "constant": true
    },
    {
      "inputs": [
        {
          "internalType": "string",
          "name": "tokenURI",
          "type": "string"
        }
      ],
      "name": "getCourseIdByURI",
      "outputs": [
        {
          "internalType": "uint256",
          "name": "",
          "type": "uint256"
        }
      ],
      "stateMutability": "view",
      "type": "function",
      "constant": true
    },
    {
      "inputs": [
        {
          "internalType": "uint256",
          "name": "prevCourseId",
          "type": "uint256"
        },
        {
          "internalType": "uint256",
          "name": "knowledgeBlockId",
          "type": "uint256"
        },
        {
          "internalType": "uint256",
          "name": "credits",
          "type": "uint256"
        },
        {
          "internalType": "string",
          "name": "uri",
          "type": "string"
        }
      ],
      "name": "createCourse",
      "outputs": [
        {
          "internalType": "uint256",
          "name": "",
          "type": "uint256"
        }
      ],
      "stateMutability": "nonpayable",
      "type": "function"
    },
    {
      "inputs": [
        {
          "internalType": "uint256",
          "name": "id",
          "type": "uint256"
        }
      ],
      "name": "getClassById",
      "outputs": [
        {
          "components": [
            {
              "components": [
                {
                  "internalType": "uint256",
                  "name": "id",
                  "type": "uint256"
                },
                {
                  "internalType": "uint256",
                  "name": "courseId",
                  "type": "uint256"
                },
                {
                  "internalType": "uint256",
                  "name": "knowledgeBlockId",
                  "type": "uint256"
                },
                {
                  "internalType": "uint256",
                  "name": "prevCourseId",
                  "type": "uint256"
                },
                {
                  "internalType": "uint256",
                  "name": "credits",
                  "type": "uint256"
                },
                {
                  "internalType": "uint256",
                  "name": "completeAt",
                  "type": "uint256"
                },
                {
                  "internalType": "uint256",
                  "name": "maxSize",
                  "type": "uint256"
                },
                {
                  "internalType": "uint256",
                  "name": "teacherTokenId",
                  "type": "uint256"
                },
                {
                  "internalType": "uint256",
                  "name": "semester",
                  "type": "uint256"
                },
                {
                  "internalType": "string",
                  "name": "uri",
                  "type": "string"
                }
              ],
              "internalType": "struct IConstant.Class",
              "name": "class",
              "type": "tuple"
            },
            {
              "internalType": "uint256",
              "name": "numberOfStudents",
              "type": "uint256"
            }
          ],
          "internalType": "struct IConstant.ClassResponse",
          "name": "",
          "type": "tuple"
        }
      ],
      "stateMutability": "view",
      "type": "function",
      "constant": true
    },
    {
      "inputs": [],
      "name": "getAllClasses",
      "outputs": [
        {
          "components": [
            {
              "components": [
                {
                  "internalType": "uint256",
                  "name": "id",
                  "type": "uint256"
                },
                {
                  "internalType": "uint256",
                  "name": "courseId",
                  "type": "uint256"
                },
                {
                  "internalType": "uint256",
                  "name": "knowledgeBlockId",
                  "type": "uint256"
                },
                {
                  "internalType": "uint256",
                  "name": "prevCourseId",
                  "type": "uint256"
                },
                {
                  "internalType": "uint256",
                  "name": "credits",
                  "type": "uint256"
                },
                {
                  "internalType": "uint256",
                  "name": "completeAt",
                  "type": "uint256"
                },
                {
                  "internalType": "uint256",
                  "name": "maxSize",
                  "type": "uint256"
                },
                {
                  "internalType": "uint256",
                  "name": "teacherTokenId",
                  "type": "uint256"
                },
                {
                  "internalType": "uint256",
                  "name": "semester",
                  "type": "uint256"
                },
                {
                  "internalType": "string",
                  "name": "uri",
                  "type": "string"
                }
              ],
              "internalType": "struct IConstant.Class",
              "name": "class",
              "type": "tuple"
            },
            {
              "internalType": "uint256",
              "name": "numberOfStudents",
              "type": "uint256"
            }
          ],
          "internalType": "struct IConstant.ClassResponse[]",
          "name": "",
          "type": "tuple[]"
        }
      ],
      "stateMutability": "view",
      "type": "function",
      "constant": true
    },
    {
      "inputs": [
        {
          "internalType": "uint256",
          "name": "semester",
          "type": "uint256"
        }
      ],
      "name": "getCurrentRegisteredClasses",
      "outputs": [
        {
          "components": [
            {
              "components": [
                {
                  "internalType": "uint256",
                  "name": "id",
                  "type": "uint256"
                },
                {
                  "internalType": "uint256",
                  "name": "courseId",
                  "type": "uint256"
                },
                {
                  "internalType": "uint256",
                  "name": "knowledgeBlockId",
                  "type": "uint256"
                },
                {
                  "internalType": "uint256",
                  "name": "prevCourseId",
                  "type": "uint256"
                },
                {
                  "internalType": "uint256",
                  "name": "credits",
                  "type": "uint256"
                },
                {
                  "internalType": "uint256",
                  "name": "completeAt",
                  "type": "uint256"
                },
                {
                  "internalType": "uint256",
                  "name": "maxSize",
                  "type": "uint256"
                },
                {
                  "internalType": "uint256",
                  "name": "teacherTokenId",
                  "type": "uint256"
                },
                {
                  "internalType": "uint256",
                  "name": "semester",
                  "type": "uint256"
                },
                {
                  "internalType": "string",
                  "name": "uri",
                  "type": "string"
                }
              ],
              "internalType": "struct IConstant.Class",
              "name": "class",
              "type": "tuple"
            },
            {
              "internalType": "uint256",
              "name": "numberOfStudents",
              "type": "uint256"
            }
          ],
          "internalType": "struct IConstant.ClassResponse[]",
          "name": "",
          "type": "tuple[]"
        }
      ],
      "stateMutability": "view",
      "type": "function",
      "constant": true
    },
    {
      "inputs": [
        {
          "internalType": "uint256",
          "name": "tokenId",
          "type": "uint256"
        }
      ],
      "name": "getAssignedClasses",
      "outputs": [
        {
          "components": [
            {
              "components": [
                {
                  "internalType": "uint256",
                  "name": "id",
                  "type": "uint256"
                },
                {
                  "internalType": "uint256",
                  "name": "courseId",
                  "type": "uint256"
                },
                {
                  "internalType": "uint256",
                  "name": "knowledgeBlockId",
                  "type": "uint256"
                },
                {
                  "internalType": "uint256",
                  "name": "prevCourseId",
                  "type": "uint256"
                },
                {
                  "internalType": "uint256",
                  "name": "credits",
                  "type": "uint256"
                },
                {
                  "internalType": "uint256",
                  "name": "completeAt",
                  "type": "uint256"
                },
                {
                  "internalType": "uint256",
                  "name": "maxSize",
                  "type": "uint256"
                },
                {
                  "internalType": "uint256",
                  "name": "teacherTokenId",
                  "type": "uint256"
                },
                {
                  "internalType": "uint256",
                  "name": "semester",
                  "type": "uint256"
                },
                {
                  "internalType": "string",
                  "name": "uri",
                  "type": "string"
                }
              ],
              "internalType": "struct IConstant.Class",
              "name": "class",
              "type": "tuple"
            },
            {
              "internalType": "uint256",
              "name": "numberOfStudents",
              "type": "uint256"
            }
          ],
          "internalType": "struct IConstant.ClassResponse[]",
          "name": "",
          "type": "tuple[]"
        }
      ],
      "stateMutability": "view",
      "type": "function",
      "constant": true
    },
    {
      "inputs": [
        {
          "internalType": "uint256",
          "name": "courseId",
          "type": "uint256"
        },
        {
          "internalType": "uint256",
          "name": "completeAt",
          "type": "uint256"
        },
        {
          "internalType": "uint256",
          "name": "maxSize",
          "type": "uint256"
        },
        {
          "internalType": "uint256",
          "name": "teacherTokenId",
          "type": "uint256"
        },
        {
          "internalType": "uint256",
          "name": "semester",
          "type": "uint256"
        },
        {
          "internalType": "string",
          "name": "uri",
          "type": "string"
        }
      ],
      "name": "createClass",
      "outputs": [
        {
          "internalType": "uint256",
          "name": "",
          "type": "uint256"
        }
      ],
      "stateMutability": "nonpayable",
      "type": "function"
    }
  ],
  "bytecode": "0x608060405260405180602001604052806000815250600390805190602001906200002b92919062000227565b506101f46009556706f05b59d3b20000600d553480156200004b57600080fd5b506040516200539a3803806200539a8339818101604052810190620000719190620006e6565b604051806020016040528060008152508062000093816200020b60201b60201c565b5033600560006101000a81548173ffffffffffffffffffffffffffffffffffffffff021916908373ffffffffffffffffffffffffffffffffffffffff1602179055505082600b60006101000a81548173ffffffffffffffffffffffffffffffffffffffff021916908373ffffffffffffffffffffffffffffffffffffffff16021790555060008251905060005b81811015620002005760146040518060600160405280600184620001459190620007af565b815260200186848151811062000160576200015f6200080c565b5b602002602001015181526020018584815181106200018357620001826200080c565b5b60200260200101518152509080600181540180825580915050600190039060005260206000209060030201600090919091909150600082015181600001556020820151816001019080519060200190620001df92919062000227565b5060408201518160020155505080620001f8906200083b565b905062000120565b5050505050620008ec565b80600290805190602001906200022392919062000227565b5050565b8280546200023590620008b7565b90600052602060002090601f016020900481019282620002595760008555620002a5565b82601f106200027457805160ff1916838001178555620002a5565b82800160010185558215620002a5579182015b82811115620002a457825182559160200191906001019062000287565b5b509050620002b49190620002b8565b5090565b5b80821115620002d3576000816000905550600101620002b9565b5090565b6000604051905090565b600080fd5b600080fd5b600073ffffffffffffffffffffffffffffffffffffffff82169050919050565b60006200031882620002eb565b9050919050565b6200032a816200030b565b81146200033657600080fd5b50565b6000815190506200034a816200031f565b92915050565b600080fd5b6000601f19601f8301169050919050565b7f4e487b7100000000000000000000000000000000000000000000000000000000600052604160045260246000fd5b620003a08262000355565b810181811067ffffffffffffffff82111715620003c257620003c162000366565b5b80604052505050565b6000620003d7620002d7565b9050620003e5828262000395565b919050565b600067ffffffffffffffff82111562000408576200040762000366565b5b602082029050602081019050919050565b600080fd5b600080fd5b600067ffffffffffffffff82111562000441576200044062000366565b5b6200044c8262000355565b9050602081019050919050565b60005b83811015620004795780820151818401526020810190506200045c565b8381111562000489576000848401525b50505050565b6000620004a6620004a08462000423565b620003cb565b905082815260208101848484011115620004c557620004c46200041e565b5b620004d284828562000459565b509392505050565b600082601f830112620004f257620004f162000350565b5b8151620005048482602086016200048f565b91505092915050565b6000620005246200051e84620003ea565b620003cb565b905080838252602082019050602084028301858111156200054a576200054962000419565b5b835b818110156200059857805167ffffffffffffffff81111562000573576200057262000350565b5b808601620005828982620004da565b855260208501945050506020810190506200054c565b5050509392505050565b600082601f830112620005ba57620005b962000350565b5b8151620005cc8482602086016200050d565b91505092915050565b600067ffffffffffffffff821115620005f357620005f262000366565b5b602082029050602081019050919050565b6000819050919050565b620006198162000604565b81146200062557600080fd5b50565b60008151905062000639816200060e565b92915050565b6000620006566200065084620005d5565b620003cb565b905080838252602082019050602084028301858111156200067c576200067b62000419565b5b835b81811015620006a9578062000694888262000628565b8452602084019350506020810190506200067e565b5050509392505050565b600082601f830112620006cb57620006ca62000350565b5b8151620006dd8482602086016200063f565b91505092915050565b600080600060608486031215620007025762000701620002e1565b5b6000620007128682870162000339565b935050602084015167ffffffffffffffff811115620007365762000735620002e6565b5b6200074486828701620005a2565b925050604084015167ffffffffffffffff811115620007685762000767620002e6565b5b6200077686828701620006b3565b9150509250925092565b7f4e487b7100000000000000000000000000000000000000000000000000000000600052601160045260246000fd5b6000620007bc8262000604565b9150620007c98362000604565b9250827fffffffffffffffffffffffffffffffffffffffffffffffffffffffffffffffff0382111562000801576200080062000780565b5b828201905092915050565b7f4e487b7100000000000000000000000000000000000000000000000000000000600052603260045260246000fd5b6000620008488262000604565b91507fffffffffffffffffffffffffffffffffffffffffffffffffffffffffffffffff82036200087d576200087c62000780565b5b600182019050919050565b7f4e487b7100000000000000000000000000000000000000000000000000000000600052602260045260246000fd5b60006002820490506001821680620008d057607f821691505b602082108103620008e657620008e562000888565b5b50919050565b614a9e80620008fc6000396000f3fe608060405234801561001057600080fd5b50600436106101575760003560e01c80636bda75dd116100c3578063ced4558a1161007c578063ced4558a14610400578063d9ac23d914610430578063e38e8a1b14610461578063e985e9c514610491578063ea5b210f146104c1578063f242432a146104f157610157565b80636bda75dd1461032c5780639742d9641461034a578063a22cb4651461037a578063b564529f14610396578063bbaa15e3146103b4578063c4d66de8146103e457610157565b8063192ac44211610115578063192ac442146102585780632eb2c2d6146102745780634e1273f41461029057806359aee076146102c05780635f7b9d73146102f05780635fe037791461030e57610157565b8062fdd58e1461015c57806301ffc9a71461018c57806303d658e0146101bc57806304e48bd1146101ec5780630e89341c1461020a57806313a096791461023a575b600080fd5b61017660048036038101906101719190612d11565b61050d565b6040516101839190612d60565b60405180910390f35b6101a660048036038101906101a19190612dd3565b6105d5565b6040516101b39190612e1b565b60405180910390f35b6101d660048036038101906101d19190612e36565b6106b7565b6040516101e39190613022565b60405180910390f35b6101f4610701565b604051610201919061318f565b60405180910390f35b610224600480360381019061021f9190612e36565b61087e565b60405161023191906131fb565b60405180910390f35b610242610963565b60405161024f9190612d60565b60405180910390f35b610272600480360381019061026d919061321d565b610969565b005b61028e6004803603810190610289919061346d565b610a04565b005b6102aa60048036038101906102a591906135ff565b610aa5565b6040516102b79190613726565b60405180910390f35b6102da60048036038101906102d59190612e36565b610bbe565b6040516102e79190613847565b60405180910390f35b6102f8610d0c565b604051610305919061397b565b60405180910390f35b610316610e11565b6040516103239190612d60565b60405180910390f35b610334610e17565b6040516103419190613847565b60405180910390f35b610364600480360381019061035f9190613a3e565b610f21565b6040516103719190612d60565b60405180910390f35b610394600480360381019061038f9190613ab3565b610f5b565b005b61039e610f71565b6040516103ab9190612e1b565b60405180910390f35b6103ce60048036038101906103c99190612e36565b610f84565b6040516103db9190613847565b60405180910390f35b6103fe60048036038101906103f99190613af3565b611076565b005b61041a60048036038101906104159190613b20565b611149565b6040516104279190612d60565b60405180910390f35b61044a60048036038101906104459190612e36565b611508565b604051610458929190613bc9565b60405180910390f35b61047b60048036038101906104769190613bf2565b61153c565b6040516104889190612d60565b60405180910390f35b6104ab60048036038101906104a69190613c75565b611735565b6040516104b89190612e1b565b60405180910390f35b6104db60048036038101906104d69190612e36565b6117c9565b6040516104e89190613d3e565b60405180910390f35b61050b60048036038101906105069190613d60565b6118fb565b005b60008073ffffffffffffffffffffffffffffffffffffffff168373ffffffffffffffffffffffffffffffffffffffff160361057d576040517f08c379a000000000000000000000000000000000000000000000000000000000815260040161057490613e69565b60405180910390fd5b60008083815260200190815260200160002060008473ffffffffffffffffffffffffffffffffffffffff1673ffffffffffffffffffffffffffffffffffffffff16815260200190815260200160002054905092915050565b60007fd9b67a26000000000000000000000000000000000000000000000000000000007bffffffffffffffffffffffffffffffffffffffffffffffffffffffff1916827bffffffffffffffffffffffffffffffffffffffffffffffffffffffff191614806106a057507f0e89341c000000000000000000000000000000000000000000000000000000007bffffffffffffffffffffffffffffffffffffffffffffffffffffffff1916827bffffffffffffffffffffffffffffffffffffffffffffffffffffffff1916145b806106b057506106af8261199c565b5b9050919050565b6106bf612b1d565b600060166000848152602001908152602001600020549050600081116106e457600080fd5b6106f96001826106f49190613eb8565b611a06565b915050919050565b60603373ffffffffffffffffffffffffffffffffffffffff16600560009054906101000a900473ffffffffffffffffffffffffffffffffffffffff1673ffffffffffffffffffffffffffffffffffffffff161461075d57600080fd5b6012805480602002602001604051908101604052809291908181526020016000905b8282101561087557838290600052602060002090600602016040518060c001604052908160008201548152602001600182015481526020016002820154815260200160038201548152602001600482015481526020016005820180546107e490613f1b565b80601f016020809104026020016040519081016040528092919081815260200182805461081090613f1b565b801561085d5780601f106108325761010080835404028352916020019161085d565b820191906000526020600020905b81548152906001019060200180831161084057829003601f168201915b5050505050815250508152602001906001019061077f565b50505050905090565b606060006004600084815260200190815260200160002080546108a090613f1b565b80601f01602080910402602001604051908101604052809291908181526020018280546108cc90613f1b565b80156109195780601f106108ee57610100808354040283529160200191610919565b820191906000526020600020905b8154815290600101906020018083116108fc57829003601f168201915b5050505050905060008151116109375761093283611b7e565b61095b565b60038160405160200161094b92919061401c565b6040516020818303038152906040525b915050919050565b600d5481565b3373ffffffffffffffffffffffffffffffffffffffff16600560009054906101000a900473ffffffffffffffffffffffffffffffffffffffff1673ffffffffffffffffffffffffffffffffffffffff16146109c357600080fd5b8181116109cf57600080fd5b81600e60008581526020019081526020016000208190555080600f600085815260200190815260200160002081905550505050565b610a0c611c12565b73ffffffffffffffffffffffffffffffffffffffff168573ffffffffffffffffffffffffffffffffffffffff161480610a525750610a5185610a4c611c12565b611735565b5b610a91576040517f08c379a0000000000000000000000000000000000000000000000000000000008152600401610a88906140b2565b60405180910390fd5b610a9e8585858585611c1a565b5050505050565b60608151835114610aeb576040517f08c379a0000000000000000000000000000000000000000000000000000000008152600401610ae290614144565b60405180910390fd5b6000835167ffffffffffffffff811115610b0857610b07613275565b5b604051908082528060200260200182016040528015610b365781602001602082028036833780820191505090505b50905060005b8451811015610bb357610b83858281518110610b5b57610b5a614164565b5b6020026020010151858381518110610b7657610b75614164565b5b602002602001015161050d565b828281518110610b9657610b95614164565b5b60200260200101818152505080610bac90614193565b9050610b3c565b508091505092915050565b6060600060106000848152602001908152602001600020805480602002602001604051908101604052809291908181526020018280548015610c1f57602002820191906000526020600020905b815481526020019060010190808311610c0b575b5050505050905060008151905060008167ffffffffffffffff811115610c4857610c47613275565b5b604051908082528060200260200182016040528015610c8157816020015b610c6e612b1d565b815260200190600190039081610c665790505b50905060005b82811015610d0057610cd1600160166000878581518110610cab57610caa614164565b5b6020026020010151815260200190815260200160002054610ccc9190613eb8565b611a06565b828281518110610ce457610ce3614164565b5b602002602001018190525080610cf990614193565b9050610c87565b50809350505050919050565b60606014805480602002602001604051908101604052809291908181526020016000905b82821015610e08578382906000526020600020906003020160405180606001604052908160008201548152602001600182018054610d6d90613f1b565b80601f0160208091040260200160405190810160405280929190818152602001828054610d9990613f1b565b8015610de65780601f10610dbb57610100808354040283529160200191610de6565b820191906000526020600020905b815481529060010190602001808311610dc957829003601f168201915b5050505050815260200160028201548152505081526020019060010190610d30565b50505050905090565b60095481565b60603373ffffffffffffffffffffffffffffffffffffffff16600560009054906101000a900473ffffffffffffffffffffffffffffffffffffffff1673ffffffffffffffffffffffffffffffffffffffff1614610e7357600080fd5b6000601580549050905060008167ffffffffffffffff811115610e9957610e98613275565b5b604051908082528060200260200182016040528015610ed257816020015b610ebf612b1d565b815260200190600190039081610eb75790505b50905060005b82811015610f1857610ee981611a06565b828281518110610efc57610efb614164565b5b602002602001018190525080610f1190614193565b9050610ed8565b50809250505090565b6000601160006001815260200190815260200160002082604051610f4591906141db565b9081526020016040518091039020549050919050565b610f6d610f66611c12565b8383611f3b565b5050565b600c60149054906101000a900460ff1681565b606060006017600084815260200190815260200160002080549050905060008167ffffffffffffffff811115610fbd57610fbc613275565b5b604051908082528060200260200182016040528015610ff657816020015b610fe3612b1d565b815260200190600190039081610fdb5790505b50905060005b8281101561106b5761103c60176000878152602001908152602001600020828154811061102c5761102b614164565b5b90600052602060002001546106b7565b82828151811061104f5761104e614164565b5b60200260200101819052508061106490614193565b9050610ffc565b508092505050919050565b3373ffffffffffffffffffffffffffffffffffffffff16600560009054906101000a900473ffffffffffffffffffffffffffffffffffffffff1673ffffffffffffffffffffffffffffffffffffffff16146110d057600080fd5b600c60149054906101000a900460ff16156110ea57600080fd5b6001600c60146101000a81548160ff02191690831515021790555080600c60006101000a81548173ffffffffffffffffffffffffffffffffffffffff021916908373ffffffffffffffffffffffffffffffffffffffff16021790555050565b60003373ffffffffffffffffffffffffffffffffffffffff16600560009054906101000a900473ffffffffffffffffffffffffffffffffffffffff1673ffffffffffffffffffffffffffffffffffffffff16146111a557600080fd5b60006111b0886117c9565b90506000600b60009054906101000a900473ffffffffffffffffffffffffffffffffffffffff1673ffffffffffffffffffffffffffffffffffffffff1663d703df8b876040518263ffffffff1660e01b815260040161120f9190612d60565b600060405180830381865afa15801561122c573d6000803e3d6000fd5b505050506040513d6000823e3d601f19601f8201168201806040525081019061125591906143a3565b90506000600b60009054906101000a900473ffffffffffffffffffffffffffffffffffffffff1673ffffffffffffffffffffffffffffffffffffffff166376aed2e1886040518263ffffffff1660e01b81526004016112b49190612d60565b602060405180830381865afa1580156112d1573d6000803e3d6000fd5b505050506040513d601f19601f820116820180604052508101906112f591906143ec565b905060018081111561130a57611309614419565b5b811461131557600080fd5b888260000151604001511161132957600080fd5b600061133560026120a7565b905060156040518061014001604052808381526020018d81526020018660200151815260200186604001518152602001866060015181526020018c81526020018b81526020018a81526020018981526020018881525090806001815401808255809150506001900390600052602060002090600a0201600090919091909150600082015181600001556020820151816001015560408201518160020155606082015181600301556080820151816004015560a0820151816005015560c0820151816006015560e08201518160070155610100820151816008015561012082015181600901908051906020019061142c929190612b3d565b505050601580549050601660008381526020019081526020016000208190555060106000888152602001908152602001600020819080600181540180825580915050600190039060005260206000200160009091909190915055601760008981526020019081526020016000208190806001815401808255809150506001900390600052602060002001600090919091909150557f85ea935a5969f304d55f08078ec0395f62519aa6ca78076ff75b8d729bbc625f816040516114ef9190612d60565b60405180910390a1809450505050509695505050505050565b600080600e600084815260200190815260200160002054600f60008581526020019081526020016000205491509150915091565b60003373ffffffffffffffffffffffffffffffffffffffff16600560009054906101000a900473ffffffffffffffffffffffffffffffffffffffff1673ffffffffffffffffffffffffffffffffffffffff161461159857600080fd5b6014805490508411156115aa57600080fd5b600083116115b757600080fd5b60008514806115d9575060006013600087815260200190815260200160002054115b6115e257600080fd5b600060116000600181526020019081526020016000208360405161160691906141db565b9081526020016040518091039020541461161f57600080fd5b600061162b60016120a7565b905060126040518060c0016040528083815260200187815260200188815260200186815260200160018152602001858152509080600181540180825580915050600190039060005260206000209060060201600090919091909150600082015181600001556020820151816001015560408201518160020155606082015181600301556080820151816004015560a08201518160050190805190602001906116d4929190612b3d565b505050806011600060018152602001908152602001600020846040516116fa91906141db565b908152602001604051809103902081905550601280549050601360008381526020019081526020016000208190555080915050949350505050565b6000600160008473ffffffffffffffffffffffffffffffffffffffff1673ffffffffffffffffffffffffffffffffffffffff16815260200190815260200160002060008373ffffffffffffffffffffffffffffffffffffffff1673ffffffffffffffffffffffffffffffffffffffff16815260200190815260200160002060009054906101000a900460ff16905092915050565b6117d1612bc3565b600060136000848152602001908152602001600020549050600081116117f657600080fd5b60126001826118059190613eb8565b8154811061181657611815614164565b5b90600052602060002090600602016040518060c0016040529081600082015481526020016001820154815260200160028201548152602001600382015481526020016004820154815260200160058201805461187190613f1b565b80601f016020809104026020016040519081016040528092919081815260200182805461189d90613f1b565b80156118ea5780601f106118bf576101008083540402835291602001916118ea565b820191906000526020600020905b8154815290600101906020018083116118cd57829003601f168201915b505050505081525050915050919050565b611903611c12565b73ffffffffffffffffffffffffffffffffffffffff168573ffffffffffffffffffffffffffffffffffffffff161480611949575061194885611943611c12565b611735565b5b611988576040517f08c379a000000000000000000000000000000000000000000000000000000000815260040161197f906140b2565b60405180910390fd5b61199585858585856120ef565b5050505050565b60007f01ffc9a7000000000000000000000000000000000000000000000000000000007bffffffffffffffffffffffffffffffffffffffffffffffffffffffff1916827bffffffffffffffffffffffffffffffffffffffffffffffffffffffff1916149050919050565b611a0e612b1d565b604051806040016040528060158481548110611a2d57611a2c614164565b5b90600052602060002090600a020160405180610140016040529081600082015481526020016001820154815260200160028201548152602001600382015481526020016004820154815260200160058201548152602001600682015481526020016007820154815260200160088201548152602001600982018054611ab190613f1b565b80601f0160208091040260200160405190810160405280929190818152602001828054611add90613f1b565b8015611b2a5780601f10611aff57610100808354040283529160200191611b2a565b820191906000526020600020905b815481529060010190602001808311611b0d57829003601f168201915b5050505050815250508152602001601c600060158681548110611b5057611b4f614164565b5b90600052602060002090600a0201600001548152602001908152602001600020805490508152509050919050565b606060028054611b8d90613f1b565b80601f0160208091040260200160405190810160405280929190818152602001828054611bb990613f1b565b8015611c065780601f10611bdb57610100808354040283529160200191611c06565b820191906000526020600020905b815481529060010190602001808311611be957829003601f168201915b50505050509050919050565b600033905090565b8151835114611c5e576040517f08c379a0000000000000000000000000000000000000000000000000000000008152600401611c55906144ba565b60405180910390fd5b600073ffffffffffffffffffffffffffffffffffffffff168473ffffffffffffffffffffffffffffffffffffffff1603611ccd576040517f08c379a0000000000000000000000000000000000000000000000000000000008152600401611cc49061454c565b60405180910390fd5b6000611cd7611c12565b9050611ce781878787878761238a565b60005b8451811015611e98576000858281518110611d0857611d07614164565b5b602002602001015190506000858381518110611d2757611d26614164565b5b60200260200101519050600080600084815260200190815260200160002060008b73ffffffffffffffffffffffffffffffffffffffff1673ffffffffffffffffffffffffffffffffffffffff16815260200190815260200160002054905081811015611dc8576040517f08c379a0000000000000000000000000000000000000000000000000000000008152600401611dbf906145de565b60405180910390fd5b81810360008085815260200190815260200160002060008c73ffffffffffffffffffffffffffffffffffffffff1673ffffffffffffffffffffffffffffffffffffffff168152602001908152602001600020819055508160008085815260200190815260200160002060008b73ffffffffffffffffffffffffffffffffffffffff1673ffffffffffffffffffffffffffffffffffffffff1681526020019081526020016000206000828254611e7d91906145fe565b9250508190555050505080611e9190614193565b9050611cea565b508473ffffffffffffffffffffffffffffffffffffffff168673ffffffffffffffffffffffffffffffffffffffff168273ffffffffffffffffffffffffffffffffffffffff167f4a39dc06d4c0dbc64b70af90fd698a233a518aa5d07e595d983b8c0526c8f7fb8787604051611f0f929190614654565b60405180910390a4611f258187878787876126b4565b611f338187878787876126bc565b505050505050565b8173ffffffffffffffffffffffffffffffffffffffff168373ffffffffffffffffffffffffffffffffffffffff1603611fa9576040517f08c379a0000000000000000000000000000000000000000000000000000000008152600401611fa0906146fd565b60405180910390fd5b80600160008573ffffffffffffffffffffffffffffffffffffffff1673ffffffffffffffffffffffffffffffffffffffff16815260200190815260200160002060008473ffffffffffffffffffffffffffffffffffffffff1673ffffffffffffffffffffffffffffffffffffffff16815260200190815260200160002060006101000a81548160ff0219169083151502179055508173ffffffffffffffffffffffffffffffffffffffff168373ffffffffffffffffffffffffffffffffffffffff167f17307eab39ab6107e8899845ad3d59bd9653f200f220920489ca2b5937696c318360405161209a9190612e1b565b60405180910390a3505050565b600060016008600084815260200190815260200160002060008282546120cd91906145fe565b9250508190555060086000838152602001908152602001600020549050919050565b600073ffffffffffffffffffffffffffffffffffffffff168473ffffffffffffffffffffffffffffffffffffffff160361215e576040517f08c379a00000000000000000000000000000000000000000000000000000000081526004016121559061454c565b60405180910390fd5b6000612168611c12565b9050600061217585612893565b9050600061218285612893565b905061219283898985858961238a565b600080600088815260200190815260200160002060008a73ffffffffffffffffffffffffffffffffffffffff1673ffffffffffffffffffffffffffffffffffffffff16815260200190815260200160002054905085811015612229576040517f08c379a0000000000000000000000000000000000000000000000000000000008152600401612220906145de565b60405180910390fd5b85810360008089815260200190815260200160002060008b73ffffffffffffffffffffffffffffffffffffffff1673ffffffffffffffffffffffffffffffffffffffff168152602001908152602001600020819055508560008089815260200190815260200160002060008a73ffffffffffffffffffffffffffffffffffffffff1673ffffffffffffffffffffffffffffffffffffffff16815260200190815260200160002060008282546122de91906145fe565b925050819055508773ffffffffffffffffffffffffffffffffffffffff168973ffffffffffffffffffffffffffffffffffffffff168573ffffffffffffffffffffffffffffffffffffffff167fc3d58168c5ae7397731d063d5bbf3d657854427343f4c083240f7aacaa2d0f628a8a60405161235b929190613bc9565b60405180910390a4612371848a8a86868a6126b4565b61237f848a8a8a8a8a61290d565b505050505050505050565b612398868686868686612ae4565b600083519050600073ffffffffffffffffffffffffffffffffffffffff168673ffffffffffffffffffffffffffffffffffffffff160361249a5760005b818110156124935760006124028683815181106123f5576123f4614164565b5b6020026020010151612aec565b90508660076000838152602001908152602001600020600088858151811061242d5761242c614164565b5b6020026020010151815260200190815260200160002060006101000a81548173ffffffffffffffffffffffffffffffffffffffff021916908373ffffffffffffffffffffffffffffffffffffffff160217905550508061248c90614193565b90506123d5565b50506126ac565b600073ffffffffffffffffffffffffffffffffffffffff168573ffffffffffffffffffffffffffffffffffffffff16036125795760005b8181116125725760006124fd8683815181106124f0576124ef614164565b5b6020026020010151612aec565b905060076000828152602001908152602001600020600087848151811061252757612526614164565b5b6020026020010151815260200190815260200160002060006101000a81549073ffffffffffffffffffffffffffffffffffffffff0219169055508061256b90614193565b90506124d1565b50506126ac565b600073ffffffffffffffffffffffffffffffffffffffff168673ffffffffffffffffffffffffffffffffffffffff16141580156125e35750600073ffffffffffffffffffffffffffffffffffffffff168573ffffffffffffffffffffffffffffffffffffffff1614155b156126aa5760005b8181116126a857600061261786838151811061260a57612609614164565b5b6020026020010151612aec565b90508660076000838152602001908152602001600020600088858151811061264257612641614164565b5b6020026020010151815260200190815260200160002060006101000a81548173ffffffffffffffffffffffffffffffffffffffff021916908373ffffffffffffffffffffffffffffffffffffffff16021790555050806126a190614193565b90506125eb565b505b505b505050505050565b505050505050565b6126db8473ffffffffffffffffffffffffffffffffffffffff16612afa565b1561288b578373ffffffffffffffffffffffffffffffffffffffff1663bc197c8187878686866040518663ffffffff1660e01b8152600401612721959493929190614781565b6020604051808303816000875af192505050801561275d57506040513d601f19601f8201168201806040525081019061275a91906147fe565b60015b61280257612769614838565b806308c379a0036127c5575061277d61485a565b8061278857506127c7565b806040517f08c379a00000000000000000000000000000000000000000000000000000000081526004016127bc91906131fb565b60405180910390fd5b505b6040517f08c379a00000000000000000000000000000000000000000000000000000000081526004016127f99061495c565b60405180910390fd5b63bc197c8160e01b7bffffffffffffffffffffffffffffffffffffffffffffffffffffffff1916817bffffffffffffffffffffffffffffffffffffffffffffffffffffffff191614612889576040517f08c379a0000000000000000000000000000000000000000000000000000000008152600401612880906149ee565b60405180910390fd5b505b505050505050565b60606000600167ffffffffffffffff8111156128b2576128b1613275565b5b6040519080825280602002602001820160405280156128e05781602001602082028036833780820191505090505b50905082816000815181106128f8576128f7614164565b5b60200260200101818152505080915050919050565b61292c8473ffffffffffffffffffffffffffffffffffffffff16612afa565b15612adc578373ffffffffffffffffffffffffffffffffffffffff1663f23a6e6187878686866040518663ffffffff1660e01b8152600401612972959493929190614a0e565b6020604051808303816000875af19250505080156129ae57506040513d601f19601f820116820180604052508101906129ab91906147fe565b60015b612a53576129ba614838565b806308c379a003612a1657506129ce61485a565b806129d95750612a18565b806040517f08c379a0000000000000000000000000000000000000000000000000000000008152600401612a0d91906131fb565b60405180910390fd5b505b6040517f08c379a0000000000000000000000000000000000000000000000000000000008152600401612a4a9061495c565b60405180910390fd5b63f23a6e6160e01b7bffffffffffffffffffffffffffffffffffffffffffffffffffffffff1916817bffffffffffffffffffffffffffffffffffffffffffffffffffffffff191614612ada576040517f08c379a0000000000000000000000000000000000000000000000000000000008152600401612ad1906149ee565b60405180910390fd5b505b505050505050565b505050505050565b6000601082901c9050919050565b6000808273ffffffffffffffffffffffffffffffffffffffff163b119050919050565b6040518060400160405280612b30612bf9565b8152602001600081525090565b828054612b4990613f1b565b90600052602060002090601f016020900481019282612b6b5760008555612bb2565b82601f10612b8457805160ff1916838001178555612bb2565b82800160010185558215612bb2579182015b82811115612bb1578251825591602001919060010190612b96565b5b509050612bbf9190612c4c565b5090565b6040518060c001604052806000815260200160008152602001600081526020016000815260200160008152602001606081525090565b604051806101400160405280600081526020016000815260200160008152602001600081526020016000815260200160008152602001600081526020016000815260200160008152602001606081525090565b5b80821115612c65576000816000905550600101612c4d565b5090565b6000604051905090565b600080fd5b600080fd5b600073ffffffffffffffffffffffffffffffffffffffff82169050919050565b6000612ca882612c7d565b9050919050565b612cb881612c9d565b8114612cc357600080fd5b50565b600081359050612cd581612caf565b92915050565b6000819050919050565b612cee81612cdb565b8114612cf957600080fd5b50565b600081359050612d0b81612ce5565b92915050565b60008060408385031215612d2857612d27612c73565b5b6000612d3685828601612cc6565b9250506020612d4785828601612cfc565b9150509250929050565b612d5a81612cdb565b82525050565b6000602082019050612d756000830184612d51565b92915050565b60007fffffffff0000000000000000000000000000000000000000000000000000000082169050919050565b612db081612d7b565b8114612dbb57600080fd5b50565b600081359050612dcd81612da7565b92915050565b600060208284031215612de957612de8612c73565b5b6000612df784828501612dbe565b91505092915050565b60008115159050919050565b612e1581612e00565b82525050565b6000602082019050612e306000830184612e0c565b92915050565b600060208284031215612e4c57612e4b612c73565b5b6000612e5a84828501612cfc565b91505092915050565b612e6c81612cdb565b82525050565b600081519050919050565b600082825260208201905092915050565b60005b83811015612eac578082015181840152602081019050612e91565b83811115612ebb576000848401525b50505050565b6000601f19601f8301169050919050565b6000612edd82612e72565b612ee78185612e7d565b9350612ef7818560208601612e8e565b612f0081612ec1565b840191505092915050565b600061014083016000830151612f246000860182612e63565b506020830151612f376020860182612e63565b506040830151612f4a6040860182612e63565b506060830151612f5d6060860182612e63565b506080830151612f706080860182612e63565b5060a0830151612f8360a0860182612e63565b5060c0830151612f9660c0860182612e63565b5060e0830151612fa960e0860182612e63565b50610100830151612fbe610100860182612e63565b50610120830151848203610120860152612fd88282612ed2565b9150508091505092915050565b600060408301600083015184820360008601526130028282612f0b565b91505060208301516130176020860182612e63565b508091505092915050565b6000602082019050818103600083015261303c8184612fe5565b905092915050565b600081519050919050565b600082825260208201905092915050565b6000819050602082019050919050565b600060c0830160008301516130886000860182612e63565b50602083015161309b6020860182612e63565b5060408301516130ae6040860182612e63565b5060608301516130c16060860182612e63565b5060808301516130d46080860182612e63565b5060a083015184820360a08601526130ec8282612ed2565b9150508091505092915050565b60006131058383613070565b905092915050565b6000602082019050919050565b600061312582613044565b61312f818561304f565b93508360208202850161314185613060565b8060005b8581101561317d578484038952815161315e85826130f9565b94506131698361310d565b925060208a01995050600181019050613145565b50829750879550505050505092915050565b600060208201905081810360008301526131a9818461311a565b905092915050565b600082825260208201905092915050565b60006131cd82612e72565b6131d781856131b1565b93506131e7818560208601612e8e565b6131f081612ec1565b840191505092915050565b6000602082019050818103600083015261321581846131c2565b905092915050565b60008060006060848603121561323657613235612c73565b5b600061324486828701612cfc565b935050602061325586828701612cfc565b925050604061326686828701612cfc565b9150509250925092565b600080fd5b7f4e487b7100000000000000000000000000000000000000000000000000000000600052604160045260246000fd5b6132ad82612ec1565b810181811067ffffffffffffffff821117156132cc576132cb613275565b5b80604052505050565b60006132df612c69565b90506132eb82826132a4565b919050565b600067ffffffffffffffff82111561330b5761330a613275565b5b602082029050602081019050919050565b600080fd5b600061333461332f846132f0565b6132d5565b905080838252602082019050602084028301858111156133575761335661331c565b5b835b81811015613380578061336c8882612cfc565b845260208401935050602081019050613359565b5050509392505050565b600082601f83011261339f5761339e613270565b5b81356133af848260208601613321565b91505092915050565b600080fd5b600067ffffffffffffffff8211156133d8576133d7613275565b5b6133e182612ec1565b9050602081019050919050565b82818337600083830152505050565b600061341061340b846133bd565b6132d5565b90508281526020810184848401111561342c5761342b6133b8565b5b6134378482856133ee565b509392505050565b600082601f83011261345457613453613270565b5b81356134648482602086016133fd565b91505092915050565b600080600080600060a0868803121561348957613488612c73565b5b600061349788828901612cc6565b95505060206134a888828901612cc6565b945050604086013567ffffffffffffffff8111156134c9576134c8612c78565b5b6134d58882890161338a565b935050606086013567ffffffffffffffff8111156134f6576134f5612c78565b5b6135028882890161338a565b925050608086013567ffffffffffffffff81111561352357613522612c78565b5b61352f8882890161343f565b9150509295509295909350565b600067ffffffffffffffff82111561355757613556613275565b5b602082029050602081019050919050565b600061357b6135768461353c565b6132d5565b9050808382526020820190506020840283018581111561359e5761359d61331c565b5b835b818110156135c757806135b38882612cc6565b8452602084019350506020810190506135a0565b5050509392505050565b600082601f8301126135e6576135e5613270565b5b81356135f6848260208601613568565b91505092915050565b6000806040838503121561361657613615612c73565b5b600083013567ffffffffffffffff81111561363457613633612c78565b5b613640858286016135d1565b925050602083013567ffffffffffffffff81111561366157613660612c78565b5b61366d8582860161338a565b9150509250929050565b600081519050919050565b600082825260208201905092915050565b6000819050602082019050919050565b60006136af8383612e63565b60208301905092915050565b6000602082019050919050565b60006136d382613677565b6136dd8185613682565b93506136e883613693565b8060005b8381101561371957815161370088826136a3565b975061370b836136bb565b9250506001810190506136ec565b5085935050505092915050565b6000602082019050818103600083015261374081846136c8565b905092915050565b600081519050919050565b600082825260208201905092915050565b6000819050602082019050919050565b600060408301600083015184820360008601526137918282612f0b565b91505060208301516137a66020860182612e63565b508091505092915050565b60006137bd8383613774565b905092915050565b6000602082019050919050565b60006137dd82613748565b6137e78185613753565b9350836020820285016137f985613764565b8060005b85811015613835578484038952815161381685826137b1565b9450613821836137c5565b925060208a019950506001810190506137fd565b50829750879550505050505092915050565b6000602082019050818103600083015261386181846137d2565b905092915050565b600081519050919050565b600082825260208201905092915050565b6000819050602082019050919050565b60006060830160008301516138ad6000860182612e63565b50602083015184820360208601526138c58282612ed2565b91505060408301516138da6040860182612e63565b508091505092915050565b60006138f18383613895565b905092915050565b6000602082019050919050565b600061391182613869565b61391b8185613874565b93508360208202850161392d85613885565b8060005b85811015613969578484038952815161394a85826138e5565b9450613955836138f9565b925060208a01995050600181019050613931565b50829750879550505050505092915050565b600060208201905081810360008301526139958184613906565b905092915050565b600067ffffffffffffffff8211156139b8576139b7613275565b5b6139c182612ec1565b9050602081019050919050565b60006139e16139dc8461399d565b6132d5565b9050828152602081018484840111156139fd576139fc6133b8565b5b613a088482856133ee565b509392505050565b600082601f830112613a2557613a24613270565b5b8135613a358482602086016139ce565b91505092915050565b600060208284031215613a5457613a53612c73565b5b600082013567ffffffffffffffff811115613a7257613a71612c78565b5b613a7e84828501613a10565b91505092915050565b613a9081612e00565b8114613a9b57600080fd5b50565b600081359050613aad81613a87565b92915050565b60008060408385031215613aca57613ac9612c73565b5b6000613ad885828601612cc6565b9250506020613ae985828601613a9e565b9150509250929050565b600060208284031215613b0957613b08612c73565b5b6000613b1784828501612cc6565b91505092915050565b60008060008060008060c08789031215613b3d57613b3c612c73565b5b6000613b4b89828a01612cfc565b9650506020613b5c89828a01612cfc565b9550506040613b6d89828a01612cfc565b9450506060613b7e89828a01612cfc565b9350506080613b8f89828a01612cfc565b92505060a087013567ffffffffffffffff811115613bb057613baf612c78565b5b613bbc89828a01613a10565b9150509295509295509295565b6000604082019050613bde6000830185612d51565b613beb6020830184612d51565b9392505050565b60008060008060808587031215613c0c57613c0b612c73565b5b6000613c1a87828801612cfc565b9450506020613c2b87828801612cfc565b9350506040613c3c87828801612cfc565b925050606085013567ffffffffffffffff811115613c5d57613c5c612c78565b5b613c6987828801613a10565b91505092959194509250565b60008060408385031215613c8c57613c8b612c73565b5b6000613c9a85828601612cc6565b9250506020613cab85828601612cc6565b9150509250929050565b600060c083016000830151613ccd6000860182612e63565b506020830151613ce06020860182612e63565b506040830151613cf36040860182612e63565b506060830151613d066060860182612e63565b506080830151613d196080860182612e63565b5060a083015184820360a0860152613d318282612ed2565b9150508091505092915050565b60006020820190508181036000830152613d588184613cb5565b905092915050565b600080600080600060a08688031215613d7c57613d7b612c73565b5b6000613d8a88828901612cc6565b9550506020613d9b88828901612cc6565b9450506040613dac88828901612cfc565b9350506060613dbd88828901612cfc565b925050608086013567ffffffffffffffff811115613dde57613ddd612c78565b5b613dea8882890161343f565b9150509295509295909350565b7f455243313135353a2061646472657373207a65726f206973206e6f742061207660008201527f616c6964206f776e657200000000000000000000000000000000000000000000602082015250565b6000613e53602a836131b1565b9150613e5e82613df7565b604082019050919050565b60006020820190508181036000830152613e8281613e46565b9050919050565b7f4e487b7100000000000000000000000000000000000000000000000000000000600052601160045260246000fd5b6000613ec382612cdb565b9150613ece83612cdb565b925082821015613ee157613ee0613e89565b5b828203905092915050565b7f4e487b7100000000000000000000000000000000000000000000000000000000600052602260045260246000fd5b60006002820490506001821680613f3357607f821691505b602082108103613f4657613f45613eec565b5b50919050565b600081905092915050565b60008190508160005260206000209050919050565b60008154613f7981613f1b565b613f838186613f4c565b94506001821660008114613f9e5760018114613faf57613fe2565b60ff19831686528186019350613fe2565b613fb885613f57565b60005b83811015613fda57815481890152600182019150602081019050613fbb565b838801955050505b50505092915050565b6000613ff682612e72565b6140008185613f4c565b9350614010818560208601612e8e565b80840191505092915050565b60006140288285613f6c565b91506140348284613feb565b91508190509392505050565b7f455243313135353a2063616c6c6572206973206e6f7420746f6b656e206f776e60008201527f6572206f7220617070726f766564000000000000000000000000000000000000602082015250565b600061409c602e836131b1565b91506140a782614040565b604082019050919050565b600060208201905081810360008301526140cb8161408f565b9050919050565b7f455243313135353a206163636f756e747320616e6420696473206c656e67746860008201527f206d69736d617463680000000000000000000000000000000000000000000000602082015250565b600061412e6029836131b1565b9150614139826140d2565b604082019050919050565b6000602082019050818103600083015261415d81614121565b9050919050565b7f4e487b7100000000000000000000000000000000000000000000000000000000600052603260045260246000fd5b600061419e82612cdb565b91507fffffffffffffffffffffffffffffffffffffffffffffffffffffffffffffffff82036141d0576141cf613e89565b5b600182019050919050565b60006141e78284613feb565b915081905092915050565b600080fd5b600080fd5b60008151905061420b81612ce5565b92915050565b60008151905061422081612caf565b92915050565b60006060828403121561423c5761423b6141f2565b5b61424660606132d5565b90506000614256848285016141fc565b600083015250602061426a84828501614211565b602083015250604061427e848285016141fc565b60408301525092915050565b600061429d6142988461399d565b6132d5565b9050828152602081018484840111156142b9576142b86133b8565b5b6142c4848285612e8e565b509392505050565b600082601f8301126142e1576142e0613270565b5b81516142f184826020860161428a565b91505092915050565b60008151905061430981613a87565b92915050565b600060c08284031215614325576143246141f2565b5b61432f60806132d5565b9050600061433f84828501614226565b600083015250606082015167ffffffffffffffff811115614363576143626141f7565b5b61436f848285016142cc565b6020830152506080614383848285016141fc565b60408301525060a0614397848285016142fa565b60608301525092915050565b6000602082840312156143b9576143b8612c73565b5b600082015167ffffffffffffffff8111156143d7576143d6612c78565b5b6143e38482850161430f565b91505092915050565b60006020828403121561440257614401612c73565b5b6000614410848285016141fc565b91505092915050565b7f4e487b7100000000000000000000000000000000000000000000000000000000600052602160045260246000fd5b7f455243313135353a2069647320616e6420616d6f756e7473206c656e6774682060008201527f6d69736d61746368000000000000000000000000000000000000000000000000602082015250565b60006144a46028836131b1565b91506144af82614448565b604082019050919050565b600060208201905081810360008301526144d381614497565b9050919050565b7f455243313135353a207472616e7366657220746f20746865207a65726f20616460008201527f6472657373000000000000000000000000000000000000000000000000000000602082015250565b60006145366025836131b1565b9150614541826144da565b604082019050919050565b6000602082019050818103600083015261456581614529565b9050919050565b7f455243313135353a20696e73756666696369656e742062616c616e636520666f60008201527f72207472616e7366657200000000000000000000000000000000000000000000602082015250565b60006145c8602a836131b1565b91506145d38261456c565b604082019050919050565b600060208201905081810360008301526145f7816145bb565b9050919050565b600061460982612cdb565b915061461483612cdb565b9250827fffffffffffffffffffffffffffffffffffffffffffffffffffffffffffffffff0382111561464957614648613e89565b5b828201905092915050565b6000604082019050818103600083015261466e81856136c8565b9050818103602083015261468281846136c8565b90509392505050565b7f455243313135353a2073657474696e6720617070726f76616c2073746174757360008201527f20666f722073656c660000000000000000000000000000000000000000000000602082015250565b60006146e76029836131b1565b91506146f28261468b565b604082019050919050565b60006020820190508181036000830152614716816146da565b9050919050565b61472681612c9d565b82525050565b600081519050919050565b600082825260208201905092915050565b60006147538261472c565b61475d8185614737565b935061476d818560208601612e8e565b61477681612ec1565b840191505092915050565b600060a082019050614796600083018861471d565b6147a3602083018761471d565b81810360408301526147b581866136c8565b905081810360608301526147c981856136c8565b905081810360808301526147dd8184614748565b90509695505050505050565b6000815190506147f881612da7565b92915050565b60006020828403121561481457614813612c73565b5b6000614822848285016147e9565b91505092915050565b60008160e01c9050919050565b600060033d11156148575760046000803e61485460005161482b565b90505b90565b600060443d106148e75761486c612c69565b60043d036004823e80513d602482011167ffffffffffffffff821117156148945750506148e7565b808201805167ffffffffffffffff8111156148b257505050506148e7565b80602083010160043d0385018111156148cf5750505050506148e7565b6148de826020018501866132a4565b82955050505050505b90565b7f455243313135353a207472616e7366657220746f206e6f6e2d4552433131353560008201527f526563656976657220696d706c656d656e746572000000000000000000000000602082015250565b60006149466034836131b1565b9150614951826148ea565b604082019050919050565b6000602082019050818103600083015261497581614939565b9050919050565b7f455243313135353a204552433131353552656365697665722072656a6563746560008201527f6420746f6b656e73000000000000000000000000000000000000000000000000602082015250565b60006149d86028836131b1565b91506149e38261497c565b604082019050919050565b60006020820190508181036000830152614a07816149cb565b9050919050565b600060a082019050614a23600083018861471d565b614a30602083018761471d565b614a3d6040830186612d51565b614a4a6060830185612d51565b8181036080830152614a5c8184614748565b9050969550505050505056fea26469706673582212203073897f432941da0953922b3133d58d3b1bb95f13c67fca3426da38c034696564736f6c634300080d0033",
  "immutableReferences": {},
  "source": "// SPDX-License-Identifier: MIT\r\n// Tells the Solidity compiler to compile only from v0.8.13 to v0.9.0\r\npragma solidity ^0.8.13;\r\n\r\nimport \"./ERC1155BaseContract.sol\";\r\nimport \"./utils/IdentityGenerator.sol\";\r\nimport \"./interfaces/INftSchool.sol\";\r\nimport \"./interfaces/INftIdentities.sol\";\r\nimport \"./interfaces/INftCertificates.sol\";\r\n\r\ncontract NftSchool is ERC1155BaseContract, INftSchool, IdentityGenerator {\r\n    using Counters for Counters.Counter;\r\n\r\n    uint256 constant COURSE_ID = 1;\r\n    uint256 constant CLASS_ID = 2;\r\n    uint256 constant REGISTERED_TIME_ID = 3;\r\n\r\n    uint256 constant NFT_COURSE_REGISTRATION_ID = 0;\r\n\r\n    uint256 public minimumGraduationScore = 500;\r\n\r\n    string[] private courseURIs;\r\n\r\n    INftIdentities private _nftIdentities;\r\n    INftCertificates private _nftCertificates;\r\n\r\n    bool public _isInitialize;\r\n    uint256 public registerClassFee = 0.5 ether;\r\n\r\n    event NewClassCreated(uint256 id);\r\n\r\n    mapping(uint256 => uint256) private _registeredStartAt;\r\n    mapping(uint256 => uint256) private _registeredEndAt;\r\n\r\n    mapping(uint256 => uint256[]) private _classIdByRegisterTime;\r\n    mapping(uint256 => mapping(string => uint256)) private _idOfURIOfType;\r\n\r\n    Course[] private _allCourses;\r\n    mapping(uint256 => uint256) _posOfCourses;\r\n\r\n    KnowledgeBlock[] private _knowledgeBlocks;\r\n\r\n    Class[] private _allClasses;\r\n    mapping(uint256 => uint256) private _posOfClasses;\r\n    mapping(uint256 => uint256[]) private _assignedClassesOfTeacher;\r\n\r\n    NftClassRegistration[] private _allNftClassRegistrations;\r\n    mapping(uint256 => uint256) private _posOfNftClassRegistrationTokenId;\r\n    mapping(uint256 => uint256[]) private _registeredClassTokenIdOfStudent; // REMOVE when have certificate?\r\n    mapping(uint256 => mapping(uint256 => uint256))\r\n        private _registeredCourseOfStudent; // REMOVE when have certificate?\r\n    mapping(uint256 => uint256[]) private _registeredTokenIdOfClass; // KEEP\r\n\r\n    mapping(uint256 => mapping(uint256 => uint256)) _posOfTokenIdOfNftType;\r\n\r\n    modifier onlyOwner() {\r\n        require(_owner == msg.sender);\r\n        _;\r\n    }\r\n\r\n    constructor(\r\n        address nftIdentities,\r\n        string[] memory knowledgeBlockNames,\r\n        uint256[] memory knowledgeBlockCredits\r\n    ) ERC1155BaseContract(\"\") {\r\n        _nftIdentities = INftIdentities(nftIdentities);\r\n\r\n        uint256 knowledgeBlockCount = knowledgeBlockNames.length;\r\n        for (uint256 idx = 0; idx < knowledgeBlockCount; ++idx) {\r\n            _knowledgeBlocks.push(\r\n                KnowledgeBlock(\r\n                    idx + 1,\r\n                    knowledgeBlockNames[idx],\r\n                    knowledgeBlockCredits[idx]\r\n                )\r\n            );\r\n        }\r\n    }\r\n\r\n    function initialize(address nftCertificates) public onlyOwner {\r\n        require(!_isInitialize);\r\n        _isInitialize = true;\r\n        _nftCertificates = INftCertificates(nftCertificates);\r\n    }\r\n\r\n    // Knowledge Block: Start\r\n    function getAllKnowledgeBlocks()\r\n        external\r\n        view\r\n        returns (KnowledgeBlock[] memory)\r\n    {\r\n        return _knowledgeBlocks;\r\n    }\r\n\r\n    // Knowledge Block: End\r\n\r\n    // Register time Section: Start\r\n    function updateRegisteredTime(\r\n        uint256 semesterId,\r\n        uint256 registeredStartAt,\r\n        uint256 registeredEndAt\r\n    ) external onlyOwner {\r\n        require(registeredEndAt > registeredStartAt);\r\n        _registeredStartAt[semesterId] = registeredStartAt;\r\n        _registeredEndAt[semesterId] = registeredEndAt;\r\n    }\r\n\r\n    function getRegisterTime(\r\n        uint256 semesterId\r\n    ) public view returns (uint256, uint256) {\r\n        return (_registeredStartAt[semesterId], _registeredEndAt[semesterId]);\r\n    }\r\n\r\n    // Register time Section: End\r\n\r\n    // Course Block: Start\r\n    function getAllCourses() external view onlyOwner returns (Course[] memory) {\r\n        return _allCourses;\r\n    }\r\n\r\n    function getCourseById(uint256 id) public view returns (Course memory) {\r\n        uint256 pos = _posOfCourses[id];\r\n        require(pos > 0);\r\n\r\n        return _allCourses[pos - 1];\r\n    }\r\n\r\n    function getCourseIdByURI(\r\n        string memory tokenURI\r\n    ) public view returns (uint256) {\r\n        return _idOfURIOfType[COURSE_ID][tokenURI];\r\n    }\r\n\r\n    function createCourse(\r\n        uint256 prevCourseId,\r\n        uint256 knowledgeBlockId,\r\n        uint256 credits,\r\n        string memory uri\r\n    ) public onlyOwner returns (uint256) {\r\n        require(knowledgeBlockId <= _knowledgeBlocks.length);\r\n        require(credits > 0);\r\n        require(prevCourseId == 0 || _posOfCourses[prevCourseId] > 0);\r\n        require(_idOfURIOfType[COURSE_ID][uri] == 0);\r\n        uint256 id = generateNewId(COURSE_ID);\r\n        _allCourses.push(\r\n            Course(id, knowledgeBlockId, prevCourseId, credits, 1, uri)\r\n        );\r\n        _idOfURIOfType[COURSE_ID][uri] = id;\r\n        _posOfCourses[id] = _allCourses.length;\r\n\r\n        return id;\r\n    }\r\n\r\n    // Course Block: End\r\n\r\n    // Class Block: Start\r\n    function getClassById(\r\n        uint256 id\r\n    ) public view returns (ClassResponse memory) {\r\n        uint256 pos = _posOfClasses[id];\r\n        require(pos > 0);\r\n\r\n        return _getClassByIdx(pos - 1);\r\n    }\r\n\r\n    function getAllClasses()\r\n        external\r\n        view\r\n        onlyOwner\r\n        returns (ClassResponse[] memory)\r\n    {\r\n        uint256 length = _allClasses.length;\r\n        ClassResponse[] memory classResponses = new ClassResponse[](length);\r\n\r\n        for (uint256 idx; idx < length; ++idx) {\r\n            classResponses[idx] = _getClassByIdx(idx);\r\n        }\r\n\r\n        return classResponses;\r\n    }\r\n\r\n    function getCurrentRegisteredClasses(\r\n        uint256 semester\r\n    ) external view returns (ClassResponse[] memory) {\r\n        uint256[] memory ids = _classIdByRegisterTime[semester];\r\n        uint256 count = ids.length;\r\n        ClassResponse[] memory classes = new ClassResponse[](count);\r\n\r\n        for (uint256 idx; idx < count; ++idx) {\r\n            classes[idx] = _getClassByIdx(_posOfClasses[ids[idx]] - 1);\r\n        }\r\n\r\n        return classes;\r\n    }\r\n\r\n    function getAssignedClasses(\r\n        uint256 tokenId\r\n    ) external view returns (ClassResponse[] memory) {\r\n        uint256 count = _assignedClassesOfTeacher[tokenId].length;\r\n        ClassResponse[] memory result = new ClassResponse[](count);\r\n\r\n        for (uint256 idx; idx < count; ++idx) {\r\n            result[idx] = getClassById(_assignedClassesOfTeacher[tokenId][idx]);\r\n        }\r\n\r\n        return result;\r\n    }\r\n\r\n    function createClass(\r\n        uint256 courseId,\r\n        uint256 completeAt,\r\n        uint256 maxSize,\r\n        uint256 teacherTokenId,\r\n        uint256 semester,\r\n        string memory uri\r\n    ) public onlyOwner returns (uint256) {\r\n        Course memory course = getCourseById(courseId);\r\n        // get nft => check expired date > completeAt\r\n        NftIdentityResponse memory nftTeacher = _nftIdentities.getNftOfTokenId(\r\n            teacherTokenId\r\n        );\r\n        uint256 nftTeacherRole = _nftIdentities.getTokenType(teacherTokenId);\r\n\r\n        require(nftTeacherRole == uint256(ROLE.TEACHER));\r\n        require(nftTeacher.nftIdentity.expiredAt > completeAt);\r\n        uint256 id = generateNewId(CLASS_ID);\r\n        _allClasses.push(\r\n            Class(\r\n                id,\r\n                courseId,\r\n                course.knowledgeBlockId,\r\n                course.prevCourseId,\r\n                course.credits,\r\n                completeAt,\r\n                maxSize,\r\n                teacherTokenId,\r\n                semester,\r\n                uri\r\n            )\r\n        );\r\n        _posOfClasses[id] = _allClasses.length;\r\n        _classIdByRegisterTime[semester].push(id);\r\n        _assignedClassesOfTeacher[teacherTokenId].push(id);\r\n        emit NewClassCreated(id);\r\n\r\n        return id;\r\n    }\r\n\r\n    function _getClassByIdx(\r\n        uint256 idx\r\n    ) private view returns (ClassResponse memory) {\r\n        return\r\n            ClassResponse(\r\n                _allClasses[idx],\r\n                _registeredTokenIdOfClass[_allClasses[idx].id].length\r\n            );\r\n    }\r\n\r\n    // Class Block: End\r\n\r\n    // Register class block: start\r\n    // function getRegisteredClasses()\r\n    //     public\r\n    //     view\r\n    //     returns (NftClassRegistrationResponse[] memory)\r\n    // {\r\n    //     NftIdentityResponse memory nftIdentityResponse = _nftIdentities\r\n    //         .getNftOfMemberWithRole(uint256(ROLE.STUDENT), msg.sender);\r\n    //     uint256 studentTokenId = nftIdentityResponse.nftIdentity.tokenId;\r\n    //     uint256[]\r\n    //         memory nftClassRegistrationTokenIds = _registeredClassTokenIdOfStudent[\r\n    //             studentTokenId\r\n    //         ];\r\n    //     uint256 count = nftClassRegistrationTokenIds.length;\r\n\r\n    //     NftClassRegistrationResponse[]\r\n    //         memory nftClassRegistrationResponses = new NftClassRegistrationResponse[](\r\n    //             count\r\n    //         );\r\n\r\n    //     for (uint256 idx = 0; idx < count; ++idx) {\r\n    //         NftClassRegistration\r\n    //             memory nftClassRegistration = getNftClassRegistration(\r\n    //                 nftClassRegistrationTokenIds[idx]\r\n    //             );\r\n\r\n    //         nftClassRegistrationResponses[idx] = NftClassRegistrationResponse(\r\n    //             nftClassRegistration,\r\n    //             getClassById(nftClassRegistration.classId).class,\r\n    //             uri(nftClassRegistration.tokenId)\r\n    //         );\r\n    //     }\r\n\r\n    //     return nftClassRegistrationResponses;\r\n    // }\r\n\r\n    // function getNftClassRegistration(\r\n    //     uint256 tokenId\r\n    // ) public view returns (NftClassRegistration memory) {\r\n    //     uint256 posOfNft = _posOfNftClassRegistrationTokenId[tokenId];\r\n    //     require(posOfNft > 0);\r\n\r\n    //     return _allNftClassRegistrations[posOfNft - 1];\r\n    // }\r\n\r\n    // function getStudentListOfClass(\r\n    //     uint256 id\r\n    // ) public view returns (NftIdentityResponse[] memory) {\r\n    //     uint256 count = _registeredClassTokenIdOfStudent[id].length;\r\n    //     NftIdentityResponse[] memory result = new NftIdentityResponse[](count);\r\n\r\n    //     for (uint256 idx; idx < count; ++idx) {\r\n    //         result[idx] = _nftIdentities.getNftOfTokenId(\r\n    //             _registeredClassTokenIdOfStudent[id][idx]\r\n    //         );\r\n    //     }\r\n\r\n    //     return result;\r\n    // }\r\n\r\n    // function registerClass(uint256 classId, string memory uri) public payable {\r\n    //     NftIdentityResponse memory nftIdentityResponse = _nftIdentities\r\n    //         .getNftOfMemberWithRole(uint256(ROLE.STUDENT), msg.sender);\r\n    //     uint256 studentTokenId = nftIdentityResponse.nftIdentity.tokenId;\r\n    //     Class memory class = getClassById(classId).class;\r\n\r\n    //     require(!nftIdentityResponse.isExpired);\r\n    //     require(_registeredTokenIdOfClass[class.id].length < class.maxSize);\r\n    //     require(block.timestamp >= class.registeredStartAt);\r\n    //     require(block.timestamp <= class.registeredEndAt);\r\n    //     require(\r\n    //         class.prevCourseId == 0 ||\r\n    //             _nftCertificates.checkCompleteCourse(\r\n    //                 class.prevCourseId,\r\n    //                 msg.sender\r\n    //             )\r\n    //     );\r\n    //     require(\r\n    //         _registeredCourseOfStudent[studentTokenId][class.courseId] == 0\r\n    //     );\r\n    //     require(msg.value == registerClassFee);\r\n    //     uint256 tokenId = _mintToken(\r\n    //         msg.sender,\r\n    //         NFT_COURSE_REGISTRATION_ID,\r\n    //         uri\r\n    //     );\r\n    //     _allNftClassRegistrations.push(\r\n    //         NftClassRegistration(tokenId, classId, studentTokenId)\r\n    //     );\r\n    //     _posOfNftClassRegistrationTokenId[tokenId] = _allNftClassRegistrations\r\n    //         .length;\r\n    //     _registeredClassTokenIdOfStudent[studentTokenId].push(tokenId);\r\n    //     _registeredCourseOfStudent[studentTokenId][class.courseId] = tokenId;\r\n    //     _registeredTokenIdOfClass[class.id].push(tokenId);\r\n    // }\r\n}\r\n",
  "sourcePath": "E:\\learn\\learn-to-earn\\blockchain\\contracts\\NftSchool.sol",
  "compiler": {
    "name": "solc",
    "version": "0.8.13+commit.abaa5c0e.Emscripten.clang"
  },
  "schemaVersion": "3.4.13",
  "updatedAt": "2023-05-23T11:03:20.572Z",
  "networkType": "ethereum",
  "devdoc": {
    "kind": "dev",
    "methods": {
      "balanceOf(address,uint256)": {
        "details": "See {IERC1155-balanceOf}. Requirements: - `account` cannot be the zero address."
      },
      "balanceOfBatch(address[],uint256[])": {
        "details": "See {IERC1155-balanceOfBatch}. Requirements: - `accounts` and `ids` must have the same length."
      },
      "isApprovedForAll(address,address)": {
        "details": "See {IERC1155-isApprovedForAll}."
      },
      "safeBatchTransferFrom(address,address,uint256[],uint256[],bytes)": {
        "details": "See {IERC1155-safeBatchTransferFrom}."
      },
      "safeTransferFrom(address,address,uint256,uint256,bytes)": {
        "details": "See {IERC1155-safeTransferFrom}."
      },
      "setApprovalForAll(address,bool)": {
        "details": "See {IERC1155-setApprovalForAll}."
      },
      "supportsInterface(bytes4)": {
        "details": "See {IERC165-supportsInterface}."
      },
      "uri(uint256)": {
        "details": "See {IERC1155MetadataURI-uri}. This implementation returns the concatenation of the `_baseURI` and the token-specific uri if the latter is set This enables the following behaviors: - if `_tokenURIs[tokenId]` is set, then the result is the concatenation   of `_baseURI` and `_tokenURIs[tokenId]` (keep in mind that `_baseURI`   is empty per default); - if `_tokenURIs[tokenId]` is NOT set then we fallback to `super.uri()`   which in most cases will contain `ERC1155._uri`; - if `_tokenURIs[tokenId]` is NOT set, and if the parents do not have a   uri value set, then the result is empty."
      }
    },
    "version": 1
  },
  "userdoc": {
    "kind": "user",
    "methods": {},
    "version": 1
  }
}