{
  "contractName": "NftSchool",
  "abi": [
    {
      "inputs": [
        {
          "internalType": "address",
          "name": "nftIdentities",
          "type": "address"
        },
        {
          "internalType": "string[]",
          "name": "knowledgeBlockNames",
          "type": "string[]"
        },
        {
          "internalType": "uint256[]",
          "name": "knowledgeBlockCredits",
          "type": "uint256[]"
        }
      ],
      "stateMutability": "nonpayable",
      "type": "constructor"
    },
    {
      "anonymous": false,
      "inputs": [
        {
          "indexed": true,
          "internalType": "address",
          "name": "account",
          "type": "address"
        },
        {
          "indexed": true,
          "internalType": "address",
          "name": "operator",
          "type": "address"
        },
        {
          "indexed": false,
          "internalType": "bool",
          "name": "approved",
          "type": "bool"
        }
      ],
      "name": "ApprovalForAll",
      "type": "event"
    },
    {
      "anonymous": false,
      "inputs": [
        {
          "indexed": true,
          "internalType": "address",
          "name": "operator",
          "type": "address"
        },
        {
          "indexed": true,
          "internalType": "address",
          "name": "from",
          "type": "address"
        },
        {
          "indexed": true,
          "internalType": "address",
          "name": "to",
          "type": "address"
        },
        {
          "indexed": false,
          "internalType": "uint256[]",
          "name": "ids",
          "type": "uint256[]"
        },
        {
          "indexed": false,
          "internalType": "uint256[]",
          "name": "values",
          "type": "uint256[]"
        }
      ],
      "name": "TransferBatch",
      "type": "event"
    },
    {
      "anonymous": false,
      "inputs": [
        {
          "indexed": true,
          "internalType": "address",
          "name": "operator",
          "type": "address"
        },
        {
          "indexed": true,
          "internalType": "address",
          "name": "from",
          "type": "address"
        },
        {
          "indexed": true,
          "internalType": "address",
          "name": "to",
          "type": "address"
        },
        {
          "indexed": false,
          "internalType": "uint256",
          "name": "id",
          "type": "uint256"
        },
        {
          "indexed": false,
          "internalType": "uint256",
          "name": "value",
          "type": "uint256"
        }
      ],
      "name": "TransferSingle",
      "type": "event"
    },
    {
      "anonymous": false,
      "inputs": [
        {
          "indexed": false,
          "internalType": "string",
          "name": "value",
          "type": "string"
        },
        {
          "indexed": true,
          "internalType": "uint256",
          "name": "id",
          "type": "uint256"
        }
      ],
      "name": "URI",
      "type": "event"
    },
    {
      "inputs": [],
      "name": "_isInitialize",
      "outputs": [
        {
          "internalType": "bool",
          "name": "",
          "type": "bool"
        }
      ],
      "stateMutability": "view",
      "type": "function",
      "constant": true
    },
    {
      "inputs": [
        {
          "internalType": "address",
          "name": "account",
          "type": "address"
        },
        {
          "internalType": "uint256",
          "name": "id",
          "type": "uint256"
        }
      ],
      "name": "balanceOf",
      "outputs": [
        {
          "internalType": "uint256",
          "name": "",
          "type": "uint256"
        }
      ],
      "stateMutability": "view",
      "type": "function",
      "constant": true
    },
    {
      "inputs": [
        {
          "internalType": "address[]",
          "name": "accounts",
          "type": "address[]"
        },
        {
          "internalType": "uint256[]",
          "name": "ids",
          "type": "uint256[]"
        }
      ],
      "name": "balanceOfBatch",
      "outputs": [
        {
          "internalType": "uint256[]",
          "name": "",
          "type": "uint256[]"
        }
      ],
      "stateMutability": "view",
      "type": "function",
      "constant": true
    },
    {
      "inputs": [
        {
          "internalType": "address",
          "name": "account",
          "type": "address"
        },
        {
          "internalType": "address",
          "name": "operator",
          "type": "address"
        }
      ],
      "name": "isApprovedForAll",
      "outputs": [
        {
          "internalType": "bool",
          "name": "",
          "type": "bool"
        }
      ],
      "stateMutability": "view",
      "type": "function",
      "constant": true
    },
    {
      "inputs": [],
      "name": "minimumGraduationScore",
      "outputs": [
        {
          "internalType": "uint256",
          "name": "",
          "type": "uint256"
        }
      ],
      "stateMutability": "view",
      "type": "function",
      "constant": true
    },
    {
      "inputs": [],
      "name": "registerClassFee",
      "outputs": [
        {
          "internalType": "uint256",
          "name": "",
          "type": "uint256"
        }
      ],
      "stateMutability": "view",
      "type": "function",
      "constant": true
    },
    {
      "inputs": [
        {
          "internalType": "address",
          "name": "from",
          "type": "address"
        },
        {
          "internalType": "address",
          "name": "to",
          "type": "address"
        },
        {
          "internalType": "uint256[]",
          "name": "ids",
          "type": "uint256[]"
        },
        {
          "internalType": "uint256[]",
          "name": "amounts",
          "type": "uint256[]"
        },
        {
          "internalType": "bytes",
          "name": "data",
          "type": "bytes"
        }
      ],
      "name": "safeBatchTransferFrom",
      "outputs": [],
      "stateMutability": "nonpayable",
      "type": "function"
    },
    {
      "inputs": [
        {
          "internalType": "address",
          "name": "from",
          "type": "address"
        },
        {
          "internalType": "address",
          "name": "to",
          "type": "address"
        },
        {
          "internalType": "uint256",
          "name": "id",
          "type": "uint256"
        },
        {
          "internalType": "uint256",
          "name": "amount",
          "type": "uint256"
        },
        {
          "internalType": "bytes",
          "name": "data",
          "type": "bytes"
        }
      ],
      "name": "safeTransferFrom",
      "outputs": [],
      "stateMutability": "nonpayable",
      "type": "function"
    },
    {
      "inputs": [
        {
          "internalType": "address",
          "name": "operator",
          "type": "address"
        },
        {
          "internalType": "bool",
          "name": "approved",
          "type": "bool"
        }
      ],
      "name": "setApprovalForAll",
      "outputs": [],
      "stateMutability": "nonpayable",
      "type": "function"
    },
    {
      "inputs": [
        {
          "internalType": "bytes4",
          "name": "interfaceId",
          "type": "bytes4"
        }
      ],
      "name": "supportsInterface",
      "outputs": [
        {
          "internalType": "bool",
          "name": "",
          "type": "bool"
        }
      ],
      "stateMutability": "view",
      "type": "function",
      "constant": true
    },
    {
      "inputs": [
        {
          "internalType": "uint256",
          "name": "tokenId",
          "type": "uint256"
        }
      ],
      "name": "uri",
      "outputs": [
        {
          "internalType": "string",
          "name": "",
          "type": "string"
        }
      ],
      "stateMutability": "view",
      "type": "function",
      "constant": true
    },
    {
      "inputs": [
        {
          "internalType": "address",
          "name": "nftCertificates",
          "type": "address"
        }
      ],
      "name": "initialize",
      "outputs": [],
      "stateMutability": "nonpayable",
      "type": "function"
    },
    {
      "inputs": [],
      "name": "getAllKnowledgeBlocks",
      "outputs": [
        {
          "components": [
            {
              "internalType": "uint256",
              "name": "id",
              "type": "uint256"
            },
            {
              "internalType": "string",
              "name": "name",
              "type": "string"
            },
            {
              "internalType": "uint256",
              "name": "credits",
              "type": "uint256"
            }
          ],
          "internalType": "struct IConstant.KnowledgeBlock[]",
          "name": "",
          "type": "tuple[]"
        }
      ],
      "stateMutability": "view",
      "type": "function",
      "constant": true
    },
    {
      "inputs": [
        {
          "internalType": "uint256",
          "name": "id",
          "type": "uint256"
        }
      ],
      "name": "getKnowledgeBlockById",
      "outputs": [
        {
          "components": [
            {
              "internalType": "uint256",
              "name": "id",
              "type": "uint256"
            },
            {
              "internalType": "string",
              "name": "name",
              "type": "string"
            },
            {
              "internalType": "uint256",
              "name": "credits",
              "type": "uint256"
            }
          ],
          "internalType": "struct IConstant.KnowledgeBlock",
          "name": "",
          "type": "tuple"
        }
      ],
      "stateMutability": "view",
      "type": "function",
      "constant": true
    },
    {
      "inputs": [
        {
          "internalType": "uint256",
          "name": "registeredStartAt",
          "type": "uint256"
        },
        {
          "internalType": "uint256",
          "name": "registeredEndAt",
          "type": "uint256"
        }
      ],
      "name": "updateRegisteredTime",
      "outputs": [],
      "stateMutability": "nonpayable",
      "type": "function"
    },
    {
      "inputs": [],
      "name": "getRegisterTime",
      "outputs": [
        {
          "internalType": "uint256",
          "name": "",
          "type": "uint256"
        },
        {
          "internalType": "uint256",
          "name": "",
          "type": "uint256"
        }
      ],
      "stateMutability": "view",
      "type": "function",
      "constant": true
    },
    {
      "inputs": [],
      "name": "getAllCourses",
      "outputs": [
        {
          "components": [
            {
              "internalType": "uint256",
              "name": "id",
              "type": "uint256"
            },
            {
              "internalType": "uint256",
              "name": "knowledgeBlockId",
              "type": "uint256"
            },
            {
              "internalType": "uint256",
              "name": "prevCourseId",
              "type": "uint256"
            },
            {
              "internalType": "uint256",
              "name": "credits",
              "type": "uint256"
            },
            {
              "internalType": "uint256",
              "name": "status",
              "type": "uint256"
            },
            {
              "internalType": "string",
              "name": "uri",
              "type": "string"
            }
          ],
          "internalType": "struct IConstant.Course[]",
          "name": "",
          "type": "tuple[]"
        }
      ],
      "stateMutability": "view",
      "type": "function",
      "constant": true
    },
    {
      "inputs": [
        {
          "internalType": "uint256",
          "name": "id",
          "type": "uint256"
        }
      ],
      "name": "getCourseById",
      "outputs": [
        {
          "components": [
            {
              "internalType": "uint256",
              "name": "id",
              "type": "uint256"
            },
            {
              "internalType": "uint256",
              "name": "knowledgeBlockId",
              "type": "uint256"
            },
            {
              "internalType": "uint256",
              "name": "prevCourseId",
              "type": "uint256"
            },
            {
              "internalType": "uint256",
              "name": "credits",
              "type": "uint256"
            },
            {
              "internalType": "uint256",
              "name": "status",
              "type": "uint256"
            },
            {
              "internalType": "string",
              "name": "uri",
              "type": "string"
            }
          ],
          "internalType": "struct IConstant.Course",
          "name": "",
          "type": "tuple"
        }
      ],
      "stateMutability": "view",
      "type": "function",
      "constant": true
    },
    {
      "inputs": [
        {
          "internalType": "uint256",
          "name": "prevCourseId",
          "type": "uint256"
        },
        {
          "internalType": "uint256",
          "name": "knowledgeBlockId",
          "type": "uint256"
        },
        {
          "internalType": "uint256",
          "name": "credits",
          "type": "uint256"
        },
        {
          "internalType": "string",
          "name": "uri",
          "type": "string"
        }
      ],
      "name": "createCourse",
      "outputs": [
        {
          "internalType": "uint256",
          "name": "",
          "type": "uint256"
        }
      ],
      "stateMutability": "nonpayable",
      "type": "function"
    },
    {
      "inputs": [
        {
          "internalType": "uint256",
          "name": "id",
          "type": "uint256"
        },
        {
          "internalType": "uint256",
          "name": "credits",
          "type": "uint256"
        }
      ],
      "name": "updateCourse",
      "outputs": [],
      "stateMutability": "nonpayable",
      "type": "function"
    },
    {
      "inputs": [
        {
          "internalType": "uint256",
          "name": "id",
          "type": "uint256"
        }
      ],
      "name": "getClassById",
      "outputs": [
        {
          "components": [
            {
              "internalType": "uint256",
              "name": "id",
              "type": "uint256"
            },
            {
              "internalType": "uint256",
              "name": "courseId",
              "type": "uint256"
            },
            {
              "internalType": "uint256",
              "name": "knowledgeBlockId",
              "type": "uint256"
            },
            {
              "internalType": "uint256",
              "name": "prevCourseId",
              "type": "uint256"
            },
            {
              "internalType": "uint256",
              "name": "credits",
              "type": "uint256"
            },
            {
              "internalType": "uint256",
              "name": "registeredStartAt",
              "type": "uint256"
            },
            {
              "internalType": "uint256",
              "name": "registeredEndAt",
              "type": "uint256"
            },
            {
              "internalType": "uint256",
              "name": "completeAt",
              "type": "uint256"
            },
            {
              "internalType": "uint256",
              "name": "maxSize",
              "type": "uint256"
            },
            {
              "internalType": "uint256",
              "name": "teacherTokenId",
              "type": "uint256"
            },
            {
              "internalType": "string",
              "name": "uri",
              "type": "string"
            }
          ],
          "internalType": "struct IConstant.Class",
          "name": "",
          "type": "tuple"
        }
      ],
      "stateMutability": "view",
      "type": "function",
      "constant": true
    },
    {
      "inputs": [],
      "name": "getAllClasses",
      "outputs": [
        {
          "components": [
            {
              "internalType": "uint256",
              "name": "id",
              "type": "uint256"
            },
            {
              "internalType": "uint256",
              "name": "courseId",
              "type": "uint256"
            },
            {
              "internalType": "uint256",
              "name": "knowledgeBlockId",
              "type": "uint256"
            },
            {
              "internalType": "uint256",
              "name": "prevCourseId",
              "type": "uint256"
            },
            {
              "internalType": "uint256",
              "name": "credits",
              "type": "uint256"
            },
            {
              "internalType": "uint256",
              "name": "registeredStartAt",
              "type": "uint256"
            },
            {
              "internalType": "uint256",
              "name": "registeredEndAt",
              "type": "uint256"
            },
            {
              "internalType": "uint256",
              "name": "completeAt",
              "type": "uint256"
            },
            {
              "internalType": "uint256",
              "name": "maxSize",
              "type": "uint256"
            },
            {
              "internalType": "uint256",
              "name": "teacherTokenId",
              "type": "uint256"
            },
            {
              "internalType": "string",
              "name": "uri",
              "type": "string"
            }
          ],
          "internalType": "struct IConstant.Class[]",
          "name": "",
          "type": "tuple[]"
        }
      ],
      "stateMutability": "view",
      "type": "function",
      "constant": true
    },
    {
      "inputs": [],
      "name": "getCurrentRegisteredClasses",
      "outputs": [
        {
          "components": [
            {
              "internalType": "uint256",
              "name": "id",
              "type": "uint256"
            },
            {
              "internalType": "uint256",
              "name": "courseId",
              "type": "uint256"
            },
            {
              "internalType": "uint256",
              "name": "knowledgeBlockId",
              "type": "uint256"
            },
            {
              "internalType": "uint256",
              "name": "prevCourseId",
              "type": "uint256"
            },
            {
              "internalType": "uint256",
              "name": "credits",
              "type": "uint256"
            },
            {
              "internalType": "uint256",
              "name": "registeredStartAt",
              "type": "uint256"
            },
            {
              "internalType": "uint256",
              "name": "registeredEndAt",
              "type": "uint256"
            },
            {
              "internalType": "uint256",
              "name": "completeAt",
              "type": "uint256"
            },
            {
              "internalType": "uint256",
              "name": "maxSize",
              "type": "uint256"
            },
            {
              "internalType": "uint256",
              "name": "teacherTokenId",
              "type": "uint256"
            },
            {
              "internalType": "string",
              "name": "uri",
              "type": "string"
            }
          ],
          "internalType": "struct IConstant.Class[]",
          "name": "",
          "type": "tuple[]"
        }
      ],
      "stateMutability": "view",
      "type": "function",
      "constant": true
    },
    {
      "inputs": [
        {
          "internalType": "uint256",
          "name": "courseId",
          "type": "uint256"
        },
        {
          "internalType": "uint256",
          "name": "completeAt",
          "type": "uint256"
        },
        {
          "internalType": "uint256",
          "name": "maxSize",
          "type": "uint256"
        },
        {
          "internalType": "uint256",
          "name": "teacherTokenId",
          "type": "uint256"
        },
        {
          "internalType": "string",
          "name": "uri",
          "type": "string"
        }
      ],
      "name": "createClass",
      "outputs": [
        {
          "internalType": "uint256",
          "name": "",
          "type": "uint256"
        }
      ],
      "stateMutability": "nonpayable",
      "type": "function"
    },
    {
      "inputs": [],
      "name": "getRegisteredClasses",
      "outputs": [
        {
          "components": [
            {
              "components": [
                {
                  "internalType": "uint256",
                  "name": "tokenId",
                  "type": "uint256"
                },
                {
                  "internalType": "uint256",
                  "name": "classId",
                  "type": "uint256"
                },
                {
                  "internalType": "uint256",
                  "name": "studentTokenId",
                  "type": "uint256"
                }
              ],
              "internalType": "struct IConstant.NftClassRegistration",
              "name": "nftClassRegistration",
              "type": "tuple"
            },
            {
              "components": [
                {
                  "internalType": "uint256",
                  "name": "id",
                  "type": "uint256"
                },
                {
                  "internalType": "uint256",
                  "name": "courseId",
                  "type": "uint256"
                },
                {
                  "internalType": "uint256",
                  "name": "knowledgeBlockId",
                  "type": "uint256"
                },
                {
                  "internalType": "uint256",
                  "name": "prevCourseId",
                  "type": "uint256"
                },
                {
                  "internalType": "uint256",
                  "name": "credits",
                  "type": "uint256"
                },
                {
                  "internalType": "uint256",
                  "name": "registeredStartAt",
                  "type": "uint256"
                },
                {
                  "internalType": "uint256",
                  "name": "registeredEndAt",
                  "type": "uint256"
                },
                {
                  "internalType": "uint256",
                  "name": "completeAt",
                  "type": "uint256"
                },
                {
                  "internalType": "uint256",
                  "name": "maxSize",
                  "type": "uint256"
                },
                {
                  "internalType": "uint256",
                  "name": "teacherTokenId",
                  "type": "uint256"
                },
                {
                  "internalType": "string",
                  "name": "uri",
                  "type": "string"
                }
              ],
              "internalType": "struct IConstant.Class",
              "name": "class",
              "type": "tuple"
            },
            {
              "internalType": "string",
              "name": "tokenURI",
              "type": "string"
            }
          ],
          "internalType": "struct IConstant.NftClassRegistrationResponse[]",
          "name": "",
          "type": "tuple[]"
        }
      ],
      "stateMutability": "view",
      "type": "function",
      "constant": true
    },
    {
      "inputs": [
        {
          "internalType": "uint256",
          "name": "tokenId",
          "type": "uint256"
        }
      ],
      "name": "getNftClassRegistration",
      "outputs": [
        {
          "components": [
            {
              "internalType": "uint256",
              "name": "tokenId",
              "type": "uint256"
            },
            {
              "internalType": "uint256",
              "name": "classId",
              "type": "uint256"
            },
            {
              "internalType": "uint256",
              "name": "studentTokenId",
              "type": "uint256"
            }
          ],
          "internalType": "struct IConstant.NftClassRegistration",
          "name": "",
          "type": "tuple"
        }
      ],
      "stateMutability": "view",
      "type": "function",
      "constant": true
    },
    {
      "inputs": [
        {
          "internalType": "uint256",
          "name": "classId",
          "type": "uint256"
        },
        {
          "internalType": "string",
          "name": "uri",
          "type": "string"
        }
      ],
      "name": "registerClass",
      "outputs": [],
      "stateMutability": "payable",
      "type": "function",
      "payable": true
    },
    {
      "inputs": [
        {
          "internalType": "uint256",
          "name": "tokenId",
          "type": "uint256"
        },
        {
          "internalType": "uint256",
          "name": "requiredType",
          "type": "uint256"
        }
      ],
      "name": "checkTokenOfTypeExists",
      "outputs": [
        {
          "internalType": "bool",
          "name": "",
          "type": "bool"
        }
      ],
      "stateMutability": "view",
      "type": "function",
      "constant": true
    },
    {
      "inputs": [
        {
          "internalType": "uint256",
          "name": "currentRegisterTimeId",
          "type": "uint256"
        }
      ],
      "name": "checkInRegisterDate",
      "outputs": [
        {
          "internalType": "bool",
          "name": "",
          "type": "bool"
        }
      ],
      "stateMutability": "view",
      "type": "function",
      "constant": true
    }
  ],
  "bytecode": "0x608060405260405180602001604052806000815250600390805190602001906200002b92919062000227565b506101f46009556706f05b59d3b20000600d553480156200004b57600080fd5b50604051620066d2380380620066d28339818101604052810190620000719190620006e6565b604051806020016040528060008152508062000093816200020b60201b60201c565b5033600560006101000a81548173ffffffffffffffffffffffffffffffffffffffff021916908373ffffffffffffffffffffffffffffffffffffffff1602179055505082600b60006101000a81548173ffffffffffffffffffffffffffffffffffffffff021916908373ffffffffffffffffffffffffffffffffffffffff16021790555060008251905060005b81811015620002005760136040518060600160405280600184620001459190620007af565b815260200186848151811062000160576200015f6200080c565b5b602002602001015181526020018584815181106200018357620001826200080c565b5b60200260200101518152509080600181540180825580915050600190039060005260206000209060030201600090919091909150600082015181600001556020820151816001019080519060200190620001df92919062000227565b5060408201518160020155505080620001f8906200083b565b905062000120565b5050505050620008ec565b80600290805190602001906200022392919062000227565b5050565b8280546200023590620008b7565b90600052602060002090601f016020900481019282620002595760008555620002a5565b82601f106200027457805160ff1916838001178555620002a5565b82800160010185558215620002a5579182015b82811115620002a457825182559160200191906001019062000287565b5b509050620002b49190620002b8565b5090565b5b80821115620002d3576000816000905550600101620002b9565b5090565b6000604051905090565b600080fd5b600080fd5b600073ffffffffffffffffffffffffffffffffffffffff82169050919050565b60006200031882620002eb565b9050919050565b6200032a816200030b565b81146200033657600080fd5b50565b6000815190506200034a816200031f565b92915050565b600080fd5b6000601f19601f8301169050919050565b7f4e487b7100000000000000000000000000000000000000000000000000000000600052604160045260246000fd5b620003a08262000355565b810181811067ffffffffffffffff82111715620003c257620003c162000366565b5b80604052505050565b6000620003d7620002d7565b9050620003e5828262000395565b919050565b600067ffffffffffffffff82111562000408576200040762000366565b5b602082029050602081019050919050565b600080fd5b600080fd5b600067ffffffffffffffff82111562000441576200044062000366565b5b6200044c8262000355565b9050602081019050919050565b60005b83811015620004795780820151818401526020810190506200045c565b8381111562000489576000848401525b50505050565b6000620004a6620004a08462000423565b620003cb565b905082815260208101848484011115620004c557620004c46200041e565b5b620004d284828562000459565b509392505050565b600082601f830112620004f257620004f162000350565b5b8151620005048482602086016200048f565b91505092915050565b6000620005246200051e84620003ea565b620003cb565b905080838252602082019050602084028301858111156200054a576200054962000419565b5b835b818110156200059857805167ffffffffffffffff81111562000573576200057262000350565b5b808601620005828982620004da565b855260208501945050506020810190506200054c565b5050509392505050565b600082601f830112620005ba57620005b962000350565b5b8151620005cc8482602086016200050d565b91505092915050565b600067ffffffffffffffff821115620005f357620005f262000366565b5b602082029050602081019050919050565b6000819050919050565b620006198162000604565b81146200062557600080fd5b50565b60008151905062000639816200060e565b92915050565b6000620006566200065084620005d5565b620003cb565b905080838252602082019050602084028301858111156200067c576200067b62000419565b5b835b81811015620006a9578062000694888262000628565b8452602084019350506020810190506200067e565b5050509392505050565b600082601f830112620006cb57620006ca62000350565b5b8151620006dd8482602086016200063f565b91505092915050565b600080600060608486031215620007025762000701620002e1565b5b6000620007128682870162000339565b935050602084015167ffffffffffffffff811115620007365762000735620002e6565b5b6200074486828701620005a2565b925050604084015167ffffffffffffffff811115620007685762000767620002e6565b5b6200077686828701620006b3565b9150509250925092565b7f4e487b7100000000000000000000000000000000000000000000000000000000600052601160045260246000fd5b6000620007bc8262000604565b9150620007c98362000604565b9250827fffffffffffffffffffffffffffffffffffffffffffffffffffffffffffffffff0382111562000801576200080062000780565b5b828201905092915050565b7f4e487b7100000000000000000000000000000000000000000000000000000000600052603260045260246000fd5b6000620008488262000604565b91507fffffffffffffffffffffffffffffffffffffffffffffffffffffffffffffffff82036200087d576200087c62000780565b5b600182019050919050565b7f4e487b7100000000000000000000000000000000000000000000000000000000600052602260045260246000fd5b60006002820490506001821680620008d057607f821691505b602082108103620008e657620008e562000888565b5b50919050565b615dd680620008fc6000396000f3fe6080604052600436106101c15760003560e01c80635f7b9d73116100f7578063b5bee31711610095578063e38e8a1b11610064578063e38e8a1b14610695578063e985e9c5146106d2578063ea5b210f1461070f578063f242432a1461074c576101c1565b8063b5bee317146105e8578063bdb566c014610604578063c4d66de814610641578063e04ac3181461066a576101c1565b80636d6ffaf6116100d15780636d6ffaf61461052c578063a22cb46514610557578063a24a7c3014610580578063b564529f146105bd576101c1565b80635f7b9d73146104ab5780635fe03779146104d65780636bda75dd14610501576101c1565b80631a53e484116101645780632eb2c2d61161013e5780632eb2c2d6146103cb5780634799f19d146103f45780634e1273f41461043157806356cbf41f1461046e576101c1565b80631a53e4841461033c57806328abafe81461037957806329f60c4f146103a2576101c1565b806304e48bd1116101a057806304e48bd11461027d5780630e89341c146102a85780630eb36321146102e557806313a0967914610311576101c1565b8062fdd58e146101c657806301ffc9a71461020357806303d658e014610240575b600080fd5b3480156101d257600080fd5b506101ed60048036038101906101e89190613bdc565b610775565b6040516101fa9190613c2b565b60405180910390f35b34801561020f57600080fd5b5061022a60048036038101906102259190613c9e565b61083d565b6040516102379190613ce6565b60405180910390f35b34801561024c57600080fd5b5061026760048036038101906102629190613d01565b61091f565b6040516102749190613ec5565b60405180910390f35b34801561028957600080fd5b50610292610a84565b60405161029f9190614032565b60405180910390f35b3480156102b457600080fd5b506102cf60048036038101906102ca9190613d01565b610c01565b6040516102dc919061409e565b60405180910390f35b3480156102f157600080fd5b506102fa610ce6565b6040516103089291906140c0565b60405180910390f35b34801561031d57600080fd5b50610326610d28565b6040516103339190613c2b565b60405180910390f35b34801561034857600080fd5b50610363600480360381019061035e91906140e9565b610d2e565b6040516103709190613ce6565b60405180910390f35b34801561038557600080fd5b506103a0600480360381019061039b91906140e9565b610d7e565b005b3480156103ae57600080fd5b506103c960048036038101906103c491906140e9565b610eb1565b005b3480156103d757600080fd5b506103f260048036038101906103ed9190614326565b610faa565b005b34801561040057600080fd5b5061041b60048036038101906104169190613d01565b61104b565b6040516104289190614445565b60405180910390f35b34801561043d57600080fd5b506104586004803603810190610453919061452a565b611139565b6040516104659190614651565b60405180910390f35b34801561047a57600080fd5b5061049560048036038101906104909190613d01565b611252565b6040516104a29190613ce6565b60405180910390f35b3480156104b757600080fd5b506104c0611291565b6040516104cd9190614785565b60405180910390f35b3480156104e257600080fd5b506104eb611396565b6040516104f89190613c2b565b60405180910390f35b34801561050d57600080fd5b5061051661139c565b6040516105239190614958565b60405180910390f35b34801561053857600080fd5b5061054161154c565b60405161054e9190614ad5565b60405180910390f35b34801561056357600080fd5b5061057e60048036038101906105799190614b23565b61177a565b005b34801561058c57600080fd5b506105a760048036038101906105a29190613d01565b611790565b6040516105b49190614ba5565b60405180910390f35b3480156105c957600080fd5b506105d261181c565b6040516105df9190613ce6565b60405180910390f35b61060260048036038101906105fd9190614c61565b61182f565b005b34801561061057600080fd5b5061062b60048036038101906106269190614cbd565b611b9c565b6040516106389190613c2b565b60405180910390f35b34801561064d57600080fd5b5061066860048036038101906106639190614d54565b611eb3565b005b34801561067657600080fd5b5061067f611f86565b60405161068c9190614958565b60405180910390f35b3480156106a157600080fd5b506106bc60048036038101906106b79190614d81565b61200f565b6040516106c99190613c2b565b60405180910390f35b3480156106de57600080fd5b506106f960048036038101906106f49190614e04565b612196565b6040516107069190613ce6565b60405180910390f35b34801561071b57600080fd5b5061073660048036038101906107319190613d01565b61222a565b6040516107439190614ecd565b60405180910390f35b34801561075857600080fd5b50610773600480360381019061076e9190614eef565b61235c565b005b60008073ffffffffffffffffffffffffffffffffffffffff168373ffffffffffffffffffffffffffffffffffffffff16036107e5576040517f08c379a00000000000000000000000000000000000000000000000000000000081526004016107dc90614ff8565b60405180910390fd5b60008083815260200190815260200160002060008473ffffffffffffffffffffffffffffffffffffffff1673ffffffffffffffffffffffffffffffffffffffff16815260200190815260200160002054905092915050565b60007fd9b67a26000000000000000000000000000000000000000000000000000000007bffffffffffffffffffffffffffffffffffffffffffffffffffffffff1916827bffffffffffffffffffffffffffffffffffffffffffffffffffffffff1916148061090857507f0e89341c000000000000000000000000000000000000000000000000000000007bffffffffffffffffffffffffffffffffffffffffffffffffffffffff1916827bffffffffffffffffffffffffffffffffffffffffffffffffffffffff1916145b806109185750610917826123fd565b5b9050919050565b610927613992565b6000601560008481526020019081526020016000205490506000811161094c57600080fd5b601460018261095b9190615047565b8154811061096c5761096b61507b565b5b90600052602060002090600b02016040518061016001604052908160008201548152602001600182015481526020016002820154815260200160038201548152602001600482015481526020016005820154815260200160068201548152602001600782015481526020016008820154815260200160098201548152602001600a820180546109fa906150d9565b80601f0160208091040260200160405190810160405280929190818152602001828054610a26906150d9565b8015610a735780601f10610a4857610100808354040283529160200191610a73565b820191906000526020600020905b815481529060010190602001808311610a5657829003601f168201915b505050505081525050915050919050565b60603373ffffffffffffffffffffffffffffffffffffffff16600560009054906101000a900473ffffffffffffffffffffffffffffffffffffffff1673ffffffffffffffffffffffffffffffffffffffff1614610ae057600080fd5b6011805480602002602001604051908101604052809291908181526020016000905b82821015610bf857838290600052602060002090600602016040518060c00160405290816000820154815260200160018201548152602001600282015481526020016003820154815260200160048201548152602001600582018054610b67906150d9565b80601f0160208091040260200160405190810160405280929190818152602001828054610b93906150d9565b8015610be05780601f10610bb557610100808354040283529160200191610be0565b820191906000526020600020905b815481529060010190602001808311610bc357829003601f168201915b50505050508152505081526020019060010190610b02565b50505050905090565b60606000600460008481526020019081526020016000208054610c23906150d9565b80601f0160208091040260200160405190810160405280929190818152602001828054610c4f906150d9565b8015610c9c5780601f10610c7157610100808354040283529160200191610c9c565b820191906000526020600020905b815481529060010190602001808311610c7f57829003601f168201915b505050505090506000815111610cba57610cb583612467565b610cde565b600381604051602001610cce9291906151da565b6040516020818303038152906040525b915050919050565b6000806000610cf560036124fb565b9050600e600082815260200190815260200160002054600f60008381526020019081526020016000205492509250509091565b600d5481565b600080610d3a84612518565b90506000601b60008381526020019081526020016000206000868152602001908152602001600020549050600081118015610d7457508382145b9250505092915050565b3373ffffffffffffffffffffffffffffffffffffffff16600560009054906101000a900473ffffffffffffffffffffffffffffffffffffffff1673ffffffffffffffffffffffffffffffffffffffff1614610dd857600080fd5b60008111610e1b576040517f08c379a0000000000000000000000000000000000000000000000000000000008152600401610e129061524a565b60405180910390fd5b60006012600084815260200190815260200160002054905060008111610e76576040517f08c379a0000000000000000000000000000000000000000000000000000000008152600401610e6d906152b6565b60405180910390fd5b816011600183610e869190615047565b81548110610e9757610e9661507b565b5b906000526020600020906006020160030181905550505050565b3373ffffffffffffffffffffffffffffffffffffffff16600560009054906101000a900473ffffffffffffffffffffffffffffffffffffffff1673ffffffffffffffffffffffffffffffffffffffff1614610f0b57600080fd5b6000610f1760036124fb565b9050600060106000838152602001908152602001600020805490501480610f51575042600f60008381526020019081526020016000205411155b610f5a57600080fd5b828211610f6657600080fd5b6000610f726003612526565b905083600e60008381526020019081526020016000208190555082600f60008381526020019081526020016000208190555050505050565b610fb261256e565b73ffffffffffffffffffffffffffffffffffffffff168573ffffffffffffffffffffffffffffffffffffffff161480610ff85750610ff785610ff261256e565b612196565b5b611037576040517f08c379a000000000000000000000000000000000000000000000000000000000815260040161102e90615348565b60405180910390fd5b6110448585858585612576565b5050505050565b6110536139ec565b60136001836110629190615047565b815481106110735761107261507b565b5b9060005260206000209060030201604051806060016040529081600082015481526020016001820180546110a6906150d9565b80601f01602080910402602001604051908101604052809291908181526020018280546110d2906150d9565b801561111f5780601f106110f45761010080835404028352916020019161111f565b820191906000526020600020905b81548152906001019060200180831161110257829003601f168201915b505050505081526020016002820154815250509050919050565b6060815183511461117f576040517f08c379a0000000000000000000000000000000000000000000000000000000008152600401611176906153da565b60405180910390fd5b6000835167ffffffffffffffff81111561119c5761119b61412e565b5b6040519080825280602002602001820160405280156111ca5781602001602082028036833780820191505090505b50905060005b8451811015611247576112178582815181106111ef576111ee61507b565b5b602002602001015185838151811061120a5761120961507b565b5b6020026020010151610775565b82828151811061122a5761122961507b565b5b60200260200101818152505080611240906153fa565b90506111d0565b508091505092915050565b6000600e600083815260200190815260200160002054421015801561128a5750600f6000838152602001908152602001600020544211155b9050919050565b60606013805480602002602001604051908101604052809291908181526020016000905b8282101561138d5783829060005260206000209060030201604051806060016040529081600082015481526020016001820180546112f2906150d9565b80601f016020809104026020016040519081016040528092919081815260200182805461131e906150d9565b801561136b5780601f106113405761010080835404028352916020019161136b565b820191906000526020600020905b81548152906001019060200180831161134e57829003601f168201915b50505050508152602001600282015481525050815260200190600101906112b5565b50505050905090565b60095481565b60603373ffffffffffffffffffffffffffffffffffffffff16600560009054906101000a900473ffffffffffffffffffffffffffffffffffffffff1673ffffffffffffffffffffffffffffffffffffffff16146113f857600080fd5b6014805480602002602001604051908101604052809291908181526020016000905b8282101561154357838290600052602060002090600b02016040518061016001604052908160008201548152602001600182015481526020016002820154815260200160038201548152602001600482015481526020016005820154815260200160068201548152602001600782015481526020016008820154815260200160098201548152602001600a820180546114b2906150d9565b80601f01602080910402602001604051908101604052809291908181526020018280546114de906150d9565b801561152b5780601f106115005761010080835404028352916020019161152b565b820191906000526020600020905b81548152906001019060200180831161150e57829003601f168201915b5050505050815250508152602001906001019061141a565b50505050905090565b60606000600b60009054906101000a900473ffffffffffffffffffffffffffffffffffffffff1673ffffffffffffffffffffffffffffffffffffffff166352db77c4600060018111156115a2576115a1615442565b5b336040518363ffffffff1660e01b81526004016115c0929190615480565b600060405180830381865afa1580156115dd573d6000803e3d6000fd5b505050506040513d6000823e3d601f19601f82011682018060405250810190611606919061565a565b90506000816000015160000151905060006018600083815260200190815260200160002080548060200260200160405190810160405280929190818152602001828054801561167457602002820191906000526020600020905b815481526020019060010190808311611660575b5050505050905060008151905060008167ffffffffffffffff81111561169d5761169c61412e565b5b6040519080825280602002602001820160405280156116d657816020015b6116c3613a0d565b8152602001906001900390816116bb5790505b50905060005b8281101561176e5760006117098583815181106116fc576116fb61507b565b5b6020026020010151611790565b90506040518060600160405280828152602001611729836020015161091f565b815260200161173b8360000151610c01565b8152508383815181106117515761175061507b565b5b60200260200101819052505080611767906153fa565b90506116dc565b50809550505050505090565b61178c61178561256e565b8383612897565b5050565b611798613a3a565b600060176000848152602001908152602001600020549050600081116117bd57600080fd5b60166001826117cc9190615047565b815481106117dd576117dc61507b565b5b90600052602060002090600302016040518060600160405290816000820154815260200160018201548152602001600282015481525050915050919050565b600c60149054906101000a900460ff1681565b6000600b60009054906101000a900473ffffffffffffffffffffffffffffffffffffffff1673ffffffffffffffffffffffffffffffffffffffff166352db77c46000600181111561188357611882615442565b5b336040518363ffffffff1660e01b81526004016118a1929190615480565b600060405180830381865afa1580156118be573d6000803e3d6000fd5b505050506040513d6000823e3d601f19601f820116820180604052508101906118e7919061565a565b90506000816000015160000151905060006119018561091f565b905082606001511561191257600080fd5b806101000151601a600083600001518152602001908152602001600020805490501061193d57600080fd5b8060a0015142101561194e57600080fd5b8060c0015142111561195f57600080fd5b600081606001511480611a105750600c60009054906101000a900473ffffffffffffffffffffffffffffffffffffffff1673ffffffffffffffffffffffffffffffffffffffff16636eabe75f8260600151336040518363ffffffff1660e01b81526004016119ce929190615480565b602060405180830381865afa1580156119eb573d6000803e3d6000fd5b505050506040513d601f19601f82011682018060405250810190611a0f91906156a3565b5b611a1957600080fd5b6000601960008481526020019081526020016000206000836020015181526020019081526020016000205414611a4e57600080fd5b600d543414611a5c57600080fd5b6000611a6a33600087612a03565b9050601660405180606001604052808381526020018881526020018581525090806001815401808255809150506001900390600052602060002090600302016000909190919091506000820151816000015560208201518160010155604082015181600201555050601680549050601760008381526020019081526020016000208190555060186000848152602001908152602001600020819080600181540180825580915050600190039060005260206000200160009091909190915055806019600085815260200190815260200160002060008460200151815260200190815260200160002081905550601a600083600001518152602001908152602001600020819080600181540180825580915050600190039060005260206000200160009091909190915055505050505050565b60003373ffffffffffffffffffffffffffffffffffffffff16600560009054906101000a900473ffffffffffffffffffffffffffffffffffffffff1673ffffffffffffffffffffffffffffffffffffffff1614611bf857600080fd5b6000611c038761222a565b90506000611c1160036124fb565b90506000600b60009054906101000a900473ffffffffffffffffffffffffffffffffffffffff1673ffffffffffffffffffffffffffffffffffffffff166376aed2e1876040518263ffffffff1660e01b8152600401611c709190613c2b565b602060405180830381865afa158015611c8d573d6000803e3d6000fd5b505050506040513d601f19601f82011682018060405250810190611cb191906156d0565b9050600f6000838152602001908152602001600020548811611cd257600080fd5b42600f60008481526020019081526020016000205411611cf157600080fd5b600180811115611d0457611d03615442565b5b8114611d0f57600080fd5b6000611d1b6002612526565b905060146040518061016001604052808381526020018c8152602001866020015181526020018660400151815260200186606001518152602001600e6000878152602001908152602001600020548152602001600f60008781526020019081526020016000205481526020018b81526020018a81526020018981526020018881525090806001815401808255809150506001900390600052602060002090600b0201600090919091909150600082015181600001556020820151816001015560408201518160020155606082015181600301556080820151816004015560a0820151816005015560c0820151816006015560e082015181600701556101008201518160080155610120820151816009015561014082015181600a019080519060200190611e49929190613a5b565b5050506014805490506015600083815260200190815260200160002081905550601060008481526020019081526020016000208190806001815401808255809150506001900390600052602060002001600090919091909150558094505050505095945050505050565b3373ffffffffffffffffffffffffffffffffffffffff16600560009054906101000a900473ffffffffffffffffffffffffffffffffffffffff1673ffffffffffffffffffffffffffffffffffffffff1614611f0d57600080fd5b600c60149054906101000a900460ff1615611f2757600080fd5b6001600c60146101000a81548160ff02191690831515021790555080600c60006101000a81548173ffffffffffffffffffffffffffffffffffffffff021916908373ffffffffffffffffffffffffffffffffffffffff16021790555050565b60606000611f9460036124fb565b9050600560009054906101000a900473ffffffffffffffffffffffffffffffffffffffff1673ffffffffffffffffffffffffffffffffffffffff163373ffffffffffffffffffffffffffffffffffffffff161480611ff75750611ff681611252565b5b61200057600080fd5b61200981612a78565b91505090565b60003373ffffffffffffffffffffffffffffffffffffffff16600560009054906101000a900473ffffffffffffffffffffffffffffffffffffffff1673ffffffffffffffffffffffffffffffffffffffff161461206b57600080fd5b60138054905084111561207d57600080fd5b6000831161208a57600080fd5b60008514806120ac575060006012600087815260200190815260200160002054115b6120b557600080fd5b60006120c16001612526565b905060116040518060c0016040528083815260200187815260200188815260200186815260200160018152602001858152509080600181540180825580915050600190039060005260206000209060060201600090919091909150600082015181600001556020820151816001015560408201518160020155606082015181600301556080820151816004015560a082015181600501908051906020019061216a929190613a5b565b505050601180549050601260008381526020019081526020016000208190555080915050949350505050565b6000600160008473ffffffffffffffffffffffffffffffffffffffff1673ffffffffffffffffffffffffffffffffffffffff16815260200190815260200160002060008373ffffffffffffffffffffffffffffffffffffffff1673ffffffffffffffffffffffffffffffffffffffff16815260200190815260200160002060009054906101000a900460ff16905092915050565b612232613ae1565b6000601260008481526020019081526020016000205490506000811161225757600080fd5b60116001826122669190615047565b815481106122775761227661507b565b5b90600052602060002090600602016040518060c001604052908160008201548152602001600182015481526020016002820154815260200160038201548152602001600482015481526020016005820180546122d2906150d9565b80601f01602080910402602001604051908101604052809291908181526020018280546122fe906150d9565b801561234b5780601f106123205761010080835404028352916020019161234b565b820191906000526020600020905b81548152906001019060200180831161232e57829003601f168201915b505050505081525050915050919050565b61236461256e565b73ffffffffffffffffffffffffffffffffffffffff168573ffffffffffffffffffffffffffffffffffffffff1614806123aa57506123a9856123a461256e565b612196565b5b6123e9576040517f08c379a00000000000000000000000000000000000000000000000000000000081526004016123e090615348565b60405180910390fd5b6123f68585858585612ce7565b5050505050565b60007f01ffc9a7000000000000000000000000000000000000000000000000000000007bffffffffffffffffffffffffffffffffffffffffffffffffffffffff1916827bffffffffffffffffffffffffffffffffffffffffffffffffffffffff1916149050919050565b606060028054612476906150d9565b80601f01602080910402602001604051908101604052809291908181526020018280546124a2906150d9565b80156124ef5780601f106124c4576101008083540402835291602001916124ef565b820191906000526020600020905b8154815290600101906020018083116124d257829003601f168201915b50505050509050919050565b600060086000838152602001908152602001600020549050919050565b6000601082901c9050919050565b6000600160086000848152602001908152602001600020600082825461254c91906156fd565b9250508190555060086000838152602001908152602001600020549050919050565b600033905090565b81518351146125ba576040517f08c379a00000000000000000000000000000000000000000000000000000000081526004016125b1906157c5565b60405180910390fd5b600073ffffffffffffffffffffffffffffffffffffffff168473ffffffffffffffffffffffffffffffffffffffff1603612629576040517f08c379a000000000000000000000000000000000000000000000000000000000815260040161262090615857565b60405180910390fd5b600061263361256e565b9050612643818787878787612f82565b60005b84518110156127f45760008582815181106126645761266361507b565b5b6020026020010151905060008583815181106126835761268261507b565b5b60200260200101519050600080600084815260200190815260200160002060008b73ffffffffffffffffffffffffffffffffffffffff1673ffffffffffffffffffffffffffffffffffffffff16815260200190815260200160002054905081811015612724576040517f08c379a000000000000000000000000000000000000000000000000000000000815260040161271b906158e9565b60405180910390fd5b81810360008085815260200190815260200160002060008c73ffffffffffffffffffffffffffffffffffffffff1673ffffffffffffffffffffffffffffffffffffffff168152602001908152602001600020819055508160008085815260200190815260200160002060008b73ffffffffffffffffffffffffffffffffffffffff1673ffffffffffffffffffffffffffffffffffffffff16815260200190815260200160002060008282546127d991906156fd565b92505081905550505050806127ed906153fa565b9050612646565b508473ffffffffffffffffffffffffffffffffffffffff168673ffffffffffffffffffffffffffffffffffffffff168273ffffffffffffffffffffffffffffffffffffffff167f4a39dc06d4c0dbc64b70af90fd698a233a518aa5d07e595d983b8c0526c8f7fb878760405161286b929190615909565b60405180910390a46128818187878787876132ac565b61288f8187878787876132b4565b505050505050565b8173ffffffffffffffffffffffffffffffffffffffff168373ffffffffffffffffffffffffffffffffffffffff1603612905576040517f08c379a00000000000000000000000000000000000000000000000000000000081526004016128fc906159b2565b60405180910390fd5b80600160008573ffffffffffffffffffffffffffffffffffffffff1673ffffffffffffffffffffffffffffffffffffffff16815260200190815260200160002060008473ffffffffffffffffffffffffffffffffffffffff1673ffffffffffffffffffffffffffffffffffffffff16815260200190815260200160002060006101000a81548160ff0219169083151502179055508173ffffffffffffffffffffffffffffffffffffffff168373ffffffffffffffffffffffffffffffffffffffff167f17307eab39ab6107e8899845ad3d59bd9653f200f220920489ca2b5937696c31836040516129f69190613ce6565b60405180910390a3505050565b600080612a0f8461348b565b9050612a63858260016000368080601f016020809104026020016040519081016040528093929190818152602001838380828437600081840152601f19601f820116905080830192505050505050506134d6565b612a6d8184613686565b809150509392505050565b6060600060106000848152602001908152602001600020805480602002602001604051908101604052809291908181526020018280548015612ad957602002820191906000526020600020905b815481526020019060010190808311612ac5575b5050505050905060008151905060008167ffffffffffffffff811115612b0257612b0161412e565b5b604051908082528060200260200182016040528015612b3b57816020015b612b28613992565b815260200190600190039081612b205790505b50905060005b82811015612cdb57600060156000868481518110612b6257612b6161507b565b5b602002602001015181526020019081526020016000205490506014600182612b8a9190615047565b81548110612b9b57612b9a61507b565b5b90600052602060002090600b02016040518061016001604052908160008201548152602001600182015481526020016002820154815260200160038201548152602001600482015481526020016005820154815260200160068201548152602001600782015481526020016008820154815260200160098201548152602001600a82018054612c29906150d9565b80601f0160208091040260200160405190810160405280929190818152602001828054612c55906150d9565b8015612ca25780601f10612c7757610100808354040283529160200191612ca2565b820191906000526020600020905b815481529060010190602001808311612c8557829003601f168201915b505050505081525050838381518110612cbe57612cbd61507b565b5b60200260200101819052505080612cd4906153fa565b9050612b41565b50809350505050919050565b600073ffffffffffffffffffffffffffffffffffffffff168473ffffffffffffffffffffffffffffffffffffffff1603612d56576040517f08c379a0000000000000000000000000000000000000000000000000000000008152600401612d4d90615857565b60405180910390fd5b6000612d6061256e565b90506000612d6d856136f2565b90506000612d7a856136f2565b9050612d8a838989858589612f82565b600080600088815260200190815260200160002060008a73ffffffffffffffffffffffffffffffffffffffff1673ffffffffffffffffffffffffffffffffffffffff16815260200190815260200160002054905085811015612e21576040517f08c379a0000000000000000000000000000000000000000000000000000000008152600401612e18906158e9565b60405180910390fd5b85810360008089815260200190815260200160002060008b73ffffffffffffffffffffffffffffffffffffffff1673ffffffffffffffffffffffffffffffffffffffff168152602001908152602001600020819055508560008089815260200190815260200160002060008a73ffffffffffffffffffffffffffffffffffffffff1673ffffffffffffffffffffffffffffffffffffffff1681526020019081526020016000206000828254612ed691906156fd565b925050819055508773ffffffffffffffffffffffffffffffffffffffff168973ffffffffffffffffffffffffffffffffffffffff168573ffffffffffffffffffffffffffffffffffffffff167fc3d58168c5ae7397731d063d5bbf3d657854427343f4c083240f7aacaa2d0f628a8a604051612f539291906140c0565b60405180910390a4612f69848a8a86868a6132ac565b612f77848a8a8a8a8a61376c565b505050505050505050565b612f90868686868686613943565b600083519050600073ffffffffffffffffffffffffffffffffffffffff168673ffffffffffffffffffffffffffffffffffffffff16036130925760005b8181101561308b576000612ffa868381518110612fed57612fec61507b565b5b6020026020010151612518565b9050866007600083815260200190815260200160002060008885815181106130255761302461507b565b5b6020026020010151815260200190815260200160002060006101000a81548173ffffffffffffffffffffffffffffffffffffffff021916908373ffffffffffffffffffffffffffffffffffffffff1602179055505080613084906153fa565b9050612fcd565b50506132a4565b600073ffffffffffffffffffffffffffffffffffffffff168573ffffffffffffffffffffffffffffffffffffffff16036131715760005b81811161316a5760006130f58683815181106130e8576130e761507b565b5b6020026020010151612518565b905060076000828152602001908152602001600020600087848151811061311f5761311e61507b565b5b6020026020010151815260200190815260200160002060006101000a81549073ffffffffffffffffffffffffffffffffffffffff02191690555080613163906153fa565b90506130c9565b50506132a4565b600073ffffffffffffffffffffffffffffffffffffffff168673ffffffffffffffffffffffffffffffffffffffff16141580156131db5750600073ffffffffffffffffffffffffffffffffffffffff168573ffffffffffffffffffffffffffffffffffffffff1614155b156132a25760005b8181116132a057600061320f8683815181106132025761320161507b565b5b6020026020010151612518565b90508660076000838152602001908152602001600020600088858151811061323a5761323961507b565b5b6020026020010151815260200190815260200160002060006101000a81548173ffffffffffffffffffffffffffffffffffffffff021916908373ffffffffffffffffffffffffffffffffffffffff1602179055505080613299906153fa565b90506131e3565b505b505b505050505050565b505050505050565b6132d38473ffffffffffffffffffffffffffffffffffffffff1661394b565b15613483578373ffffffffffffffffffffffffffffffffffffffff1663bc197c8187878686866040518663ffffffff1660e01b8152600401613319959493929190615a27565b6020604051808303816000875af192505050801561335557506040513d601f19601f820116820180604052508101906133529190615aa4565b60015b6133fa57613361615ade565b806308c379a0036133bd5750613375615b00565b8061338057506133bf565b806040517f08c379a00000000000000000000000000000000000000000000000000000000081526004016133b4919061409e565b60405180910390fd5b505b6040517f08c379a00000000000000000000000000000000000000000000000000000000081526004016133f190615c02565b60405180910390fd5b63bc197c8160e01b7bffffffffffffffffffffffffffffffffffffffffffffffffffffffff1916817bffffffffffffffffffffffffffffffffffffffffffffffffffffffff191614613481576040517f08c379a000000000000000000000000000000000000000000000000000000000815260040161347890615c94565b60405180910390fd5b505b505050505050565b60006134a86006600084815260200190815260200160002061396e565b60006134c560066000858152602001908152602001600020613984565b905080601084901b17915050919050565b600073ffffffffffffffffffffffffffffffffffffffff168473ffffffffffffffffffffffffffffffffffffffff1603613545576040517f08c379a000000000000000000000000000000000000000000000000000000000815260040161353c90615d26565b60405180910390fd5b600061354f61256e565b9050600061355c856136f2565b90506000613569856136f2565b905061357a83600089858589612f82565b8460008088815260200190815260200160002060008973ffffffffffffffffffffffffffffffffffffffff1673ffffffffffffffffffffffffffffffffffffffff16815260200190815260200160002060008282546135d991906156fd565b925050819055508673ffffffffffffffffffffffffffffffffffffffff16600073ffffffffffffffffffffffffffffffffffffffff168473ffffffffffffffffffffffffffffffffffffffff167fc3d58168c5ae7397731d063d5bbf3d657854427343f4c083240f7aacaa2d0f6289896040516136579291906140c0565b60405180910390a461366e836000898585896132ac565b61367d8360008989898961376c565b50505050505050565b806004600084815260200190815260200160002090805190602001906136ad929190613a5b565b50817f6bb7ff708619ba0610cba295a58592e0451dee2622938c8755667688daf3529b6136d984610c01565b6040516136e6919061409e565b60405180910390a25050565b60606000600167ffffffffffffffff8111156137115761371061412e565b5b60405190808252806020026020018201604052801561373f5781602001602082028036833780820191505090505b50905082816000815181106137575761375661507b565b5b60200260200101818152505080915050919050565b61378b8473ffffffffffffffffffffffffffffffffffffffff1661394b565b1561393b578373ffffffffffffffffffffffffffffffffffffffff1663f23a6e6187878686866040518663ffffffff1660e01b81526004016137d1959493929190615d46565b6020604051808303816000875af192505050801561380d57506040513d601f19601f8201168201806040525081019061380a9190615aa4565b60015b6138b257613819615ade565b806308c379a003613875575061382d615b00565b806138385750613877565b806040517f08c379a000000000000000000000000000000000000000000000000000000000815260040161386c919061409e565b60405180910390fd5b505b6040517f08c379a00000000000000000000000000000000000000000000000000000000081526004016138a990615c02565b60405180910390fd5b63f23a6e6160e01b7bffffffffffffffffffffffffffffffffffffffffffffffffffffffff1916817bffffffffffffffffffffffffffffffffffffffffffffffffffffffff191614613939576040517f08c379a000000000000000000000000000000000000000000000000000000000815260040161393090615c94565b60405180910390fd5b505b505050505050565b505050505050565b6000808273ffffffffffffffffffffffffffffffffffffffff163b119050919050565b6001816000016000828254019250508190555050565b600081600001549050919050565b60405180610160016040528060008152602001600081526020016000815260200160008152602001600081526020016000815260200160008152602001600081526020016000815260200160008152602001606081525090565b60405180606001604052806000815260200160608152602001600081525090565b6040518060600160405280613a20613a3a565b8152602001613a2d613992565b8152602001606081525090565b60405180606001604052806000815260200160008152602001600081525090565b828054613a67906150d9565b90600052602060002090601f016020900481019282613a895760008555613ad0565b82601f10613aa257805160ff1916838001178555613ad0565b82800160010185558215613ad0579182015b82811115613acf578251825591602001919060010190613ab4565b5b509050613add9190613b17565b5090565b6040518060c001604052806000815260200160008152602001600081526020016000815260200160008152602001606081525090565b5b80821115613b30576000816000905550600101613b18565b5090565b6000604051905090565b600080fd5b600080fd5b600073ffffffffffffffffffffffffffffffffffffffff82169050919050565b6000613b7382613b48565b9050919050565b613b8381613b68565b8114613b8e57600080fd5b50565b600081359050613ba081613b7a565b92915050565b6000819050919050565b613bb981613ba6565b8114613bc457600080fd5b50565b600081359050613bd681613bb0565b92915050565b60008060408385031215613bf357613bf2613b3e565b5b6000613c0185828601613b91565b9250506020613c1285828601613bc7565b9150509250929050565b613c2581613ba6565b82525050565b6000602082019050613c406000830184613c1c565b92915050565b60007fffffffff0000000000000000000000000000000000000000000000000000000082169050919050565b613c7b81613c46565b8114613c8657600080fd5b50565b600081359050613c9881613c72565b92915050565b600060208284031215613cb457613cb3613b3e565b5b6000613cc284828501613c89565b91505092915050565b60008115159050919050565b613ce081613ccb565b82525050565b6000602082019050613cfb6000830184613cd7565b92915050565b600060208284031215613d1757613d16613b3e565b5b6000613d2584828501613bc7565b91505092915050565b613d3781613ba6565b82525050565b600081519050919050565b600082825260208201905092915050565b60005b83811015613d77578082015181840152602081019050613d5c565b83811115613d86576000848401525b50505050565b6000601f19601f8301169050919050565b6000613da882613d3d565b613db28185613d48565b9350613dc2818560208601613d59565b613dcb81613d8c565b840191505092915050565b600061016083016000830151613def6000860182613d2e565b506020830151613e026020860182613d2e565b506040830151613e156040860182613d2e565b506060830151613e286060860182613d2e565b506080830151613e3b6080860182613d2e565b5060a0830151613e4e60a0860182613d2e565b5060c0830151613e6160c0860182613d2e565b5060e0830151613e7460e0860182613d2e565b50610100830151613e89610100860182613d2e565b50610120830151613e9e610120860182613d2e565b50610140830151848203610140860152613eb88282613d9d565b9150508091505092915050565b60006020820190508181036000830152613edf8184613dd6565b905092915050565b600081519050919050565b600082825260208201905092915050565b6000819050602082019050919050565b600060c083016000830151613f2b6000860182613d2e565b506020830151613f3e6020860182613d2e565b506040830151613f516040860182613d2e565b506060830151613f646060860182613d2e565b506080830151613f776080860182613d2e565b5060a083015184820360a0860152613f8f8282613d9d565b9150508091505092915050565b6000613fa88383613f13565b905092915050565b6000602082019050919050565b6000613fc882613ee7565b613fd28185613ef2565b935083602082028501613fe485613f03565b8060005b8581101561402057848403895281516140018582613f9c565b945061400c83613fb0565b925060208a01995050600181019050613fe8565b50829750879550505050505092915050565b6000602082019050818103600083015261404c8184613fbd565b905092915050565b600082825260208201905092915050565b600061407082613d3d565b61407a8185614054565b935061408a818560208601613d59565b61409381613d8c565b840191505092915050565b600060208201905081810360008301526140b88184614065565b905092915050565b60006040820190506140d56000830185613c1c565b6140e26020830184613c1c565b9392505050565b60008060408385031215614100576140ff613b3e565b5b600061410e85828601613bc7565b925050602061411f85828601613bc7565b9150509250929050565b600080fd5b7f4e487b7100000000000000000000000000000000000000000000000000000000600052604160045260246000fd5b61416682613d8c565b810181811067ffffffffffffffff821117156141855761418461412e565b5b80604052505050565b6000614198613b34565b90506141a4828261415d565b919050565b600067ffffffffffffffff8211156141c4576141c361412e565b5b602082029050602081019050919050565b600080fd5b60006141ed6141e8846141a9565b61418e565b905080838252602082019050602084028301858111156142105761420f6141d5565b5b835b8181101561423957806142258882613bc7565b845260208401935050602081019050614212565b5050509392505050565b600082601f83011261425857614257614129565b5b81356142688482602086016141da565b91505092915050565b600080fd5b600067ffffffffffffffff8211156142915761429061412e565b5b61429a82613d8c565b9050602081019050919050565b82818337600083830152505050565b60006142c96142c484614276565b61418e565b9050828152602081018484840111156142e5576142e4614271565b5b6142f08482856142a7565b509392505050565b600082601f83011261430d5761430c614129565b5b813561431d8482602086016142b6565b91505092915050565b600080600080600060a0868803121561434257614341613b3e565b5b600061435088828901613b91565b955050602061436188828901613b91565b945050604086013567ffffffffffffffff81111561438257614381613b43565b5b61438e88828901614243565b935050606086013567ffffffffffffffff8111156143af576143ae613b43565b5b6143bb88828901614243565b925050608086013567ffffffffffffffff8111156143dc576143db613b43565b5b6143e8888289016142f8565b9150509295509295909350565b600060608301600083015161440d6000860182613d2e565b50602083015184820360208601526144258282613d9d565b915050604083015161443a6040860182613d2e565b508091505092915050565b6000602082019050818103600083015261445f81846143f5565b905092915050565b600067ffffffffffffffff8211156144825761448161412e565b5b602082029050602081019050919050565b60006144a66144a184614467565b61418e565b905080838252602082019050602084028301858111156144c9576144c86141d5565b5b835b818110156144f257806144de8882613b91565b8452602084019350506020810190506144cb565b5050509392505050565b600082601f83011261451157614510614129565b5b8135614521848260208601614493565b91505092915050565b6000806040838503121561454157614540613b3e565b5b600083013567ffffffffffffffff81111561455f5761455e613b43565b5b61456b858286016144fc565b925050602083013567ffffffffffffffff81111561458c5761458b613b43565b5b61459885828601614243565b9150509250929050565b600081519050919050565b600082825260208201905092915050565b6000819050602082019050919050565b60006145da8383613d2e565b60208301905092915050565b6000602082019050919050565b60006145fe826145a2565b61460881856145ad565b9350614613836145be565b8060005b8381101561464457815161462b88826145ce565b9750614636836145e6565b925050600181019050614617565b5085935050505092915050565b6000602082019050818103600083015261466b81846145f3565b905092915050565b600081519050919050565b600082825260208201905092915050565b6000819050602082019050919050565b60006060830160008301516146b76000860182613d2e565b50602083015184820360208601526146cf8282613d9d565b91505060408301516146e46040860182613d2e565b508091505092915050565b60006146fb838361469f565b905092915050565b6000602082019050919050565b600061471b82614673565b614725818561467e565b9350836020820285016147378561468f565b8060005b85811015614773578484038952815161475485826146ef565b945061475f83614703565b925060208a0199505060018101905061473b565b50829750879550505050505092915050565b6000602082019050818103600083015261479f8184614710565b905092915050565b600081519050919050565b600082825260208201905092915050565b6000819050602082019050919050565b6000610160830160008301516147ec6000860182613d2e565b5060208301516147ff6020860182613d2e565b5060408301516148126040860182613d2e565b5060608301516148256060860182613d2e565b5060808301516148386080860182613d2e565b5060a083015161484b60a0860182613d2e565b5060c083015161485e60c0860182613d2e565b5060e083015161487160e0860182613d2e565b50610100830151614886610100860182613d2e565b5061012083015161489b610120860182613d2e565b506101408301518482036101408601526148b58282613d9d565b9150508091505092915050565b60006148ce83836147d3565b905092915050565b6000602082019050919050565b60006148ee826147a7565b6148f881856147b2565b93508360208202850161490a856147c3565b8060005b85811015614946578484038952815161492785826148c2565b9450614932836148d6565b925060208a0199505060018101905061490e565b50829750879550505050505092915050565b6000602082019050818103600083015261497281846148e3565b905092915050565b600081519050919050565b600082825260208201905092915050565b6000819050602082019050919050565b6060820160008201516149bc6000850182613d2e565b5060208201516149cf6020850182613d2e565b5060408201516149e26040850182613d2e565b50505050565b600060a083016000830151614a0060008601826149a6565b5060208301518482036060860152614a1882826147d3565b91505060408301518482036080860152614a328282613d9d565b9150508091505092915050565b6000614a4b83836149e8565b905092915050565b6000602082019050919050565b6000614a6b8261497a565b614a758185614985565b935083602082028501614a8785614996565b8060005b85811015614ac35784840389528151614aa48582614a3f565b9450614aaf83614a53565b925060208a01995050600181019050614a8b565b50829750879550505050505092915050565b60006020820190508181036000830152614aef8184614a60565b905092915050565b614b0081613ccb565b8114614b0b57600080fd5b50565b600081359050614b1d81614af7565b92915050565b60008060408385031215614b3a57614b39613b3e565b5b6000614b4885828601613b91565b9250506020614b5985828601614b0e565b9150509250929050565b606082016000820151614b796000850182613d2e565b506020820151614b8c6020850182613d2e565b506040820151614b9f6040850182613d2e565b50505050565b6000606082019050614bba6000830184614b63565b92915050565b600067ffffffffffffffff821115614bdb57614bda61412e565b5b614be482613d8c565b9050602081019050919050565b6000614c04614bff84614bc0565b61418e565b905082815260208101848484011115614c2057614c1f614271565b5b614c2b8482856142a7565b509392505050565b600082601f830112614c4857614c47614129565b5b8135614c58848260208601614bf1565b91505092915050565b60008060408385031215614c7857614c77613b3e565b5b6000614c8685828601613bc7565b925050602083013567ffffffffffffffff811115614ca757614ca6613b43565b5b614cb385828601614c33565b9150509250929050565b600080600080600060a08688031215614cd957614cd8613b3e565b5b6000614ce788828901613bc7565b9550506020614cf888828901613bc7565b9450506040614d0988828901613bc7565b9350506060614d1a88828901613bc7565b925050608086013567ffffffffffffffff811115614d3b57614d3a613b43565b5b614d4788828901614c33565b9150509295509295909350565b600060208284031215614d6a57614d69613b3e565b5b6000614d7884828501613b91565b91505092915050565b60008060008060808587031215614d9b57614d9a613b3e565b5b6000614da987828801613bc7565b9450506020614dba87828801613bc7565b9350506040614dcb87828801613bc7565b925050606085013567ffffffffffffffff811115614dec57614deb613b43565b5b614df887828801614c33565b91505092959194509250565b60008060408385031215614e1b57614e1a613b3e565b5b6000614e2985828601613b91565b9250506020614e3a85828601613b91565b9150509250929050565b600060c083016000830151614e5c6000860182613d2e565b506020830151614e6f6020860182613d2e565b506040830151614e826040860182613d2e565b506060830151614e956060860182613d2e565b506080830151614ea86080860182613d2e565b5060a083015184820360a0860152614ec08282613d9d565b9150508091505092915050565b60006020820190508181036000830152614ee78184614e44565b905092915050565b600080600080600060a08688031215614f0b57614f0a613b3e565b5b6000614f1988828901613b91565b9550506020614f2a88828901613b91565b9450506040614f3b88828901613bc7565b9350506060614f4c88828901613bc7565b925050608086013567ffffffffffffffff811115614f6d57614f6c613b43565b5b614f79888289016142f8565b9150509295509295909350565b7f455243313135353a2061646472657373207a65726f206973206e6f742061207660008201527f616c6964206f776e657200000000000000000000000000000000000000000000602082015250565b6000614fe2602a83614054565b9150614fed82614f86565b604082019050919050565b6000602082019050818103600083015261501181614fd5565b9050919050565b7f4e487b7100000000000000000000000000000000000000000000000000000000600052601160045260246000fd5b600061505282613ba6565b915061505d83613ba6565b9250828210156150705761506f615018565b5b828203905092915050565b7f4e487b7100000000000000000000000000000000000000000000000000000000600052603260045260246000fd5b7f4e487b7100000000000000000000000000000000000000000000000000000000600052602260045260246000fd5b600060028204905060018216806150f157607f821691505b602082108103615104576151036150aa565b5b50919050565b600081905092915050565b60008190508160005260206000209050919050565b60008154615137816150d9565b615141818661510a565b9450600182166000811461515c576001811461516d576151a0565b60ff198316865281860193506151a0565b61517685615115565b60005b8381101561519857815481890152600182019150602081019050615179565b838801955050505b50505092915050565b60006151b482613d3d565b6151be818561510a565b93506151ce818560208601613d59565b80840191505092915050565b60006151e6828561512a565b91506151f282846151a9565b91508190509392505050565b7f437265646974206d757374206265206120706f736974697665206e756d626572600082015250565b6000615234602083614054565b915061523f826151fe565b602082019050919050565b6000602082019050818103600083015261526381615227565b9050919050565b7f4e667420646f6573206e6f742065786973740000000000000000000000000000600082015250565b60006152a0601283614054565b91506152ab8261526a565b602082019050919050565b600060208201905081810360008301526152cf81615293565b9050919050565b7f455243313135353a2063616c6c6572206973206e6f7420746f6b656e206f776e60008201527f6572206f7220617070726f766564000000000000000000000000000000000000602082015250565b6000615332602e83614054565b915061533d826152d6565b604082019050919050565b6000602082019050818103600083015261536181615325565b9050919050565b7f455243313135353a206163636f756e747320616e6420696473206c656e67746860008201527f206d69736d617463680000000000000000000000000000000000000000000000602082015250565b60006153c4602983614054565b91506153cf82615368565b604082019050919050565b600060208201905081810360008301526153f3816153b7565b9050919050565b600061540582613ba6565b91507fffffffffffffffffffffffffffffffffffffffffffffffffffffffffffffffff820361543757615436615018565b5b600182019050919050565b7f4e487b7100000000000000000000000000000000000000000000000000000000600052602160045260246000fd5b61547a81613b68565b82525050565b60006040820190506154956000830185613c1c565b6154a26020830184615471565b9392505050565b600080fd5b600080fd5b6000815190506154c281613bb0565b92915050565b6000815190506154d781613b7a565b92915050565b6000606082840312156154f3576154f26154a9565b5b6154fd606061418e565b9050600061550d848285016154b3565b6000830152506020615521848285016154c8565b6020830152506040615535848285016154b3565b60408301525092915050565b600061555461554f84614bc0565b61418e565b9050828152602081018484840111156155705761556f614271565b5b61557b848285613d59565b509392505050565b600082601f83011261559857615597614129565b5b81516155a8848260208601615541565b91505092915050565b6000815190506155c081614af7565b92915050565b600060c082840312156155dc576155db6154a9565b5b6155e6608061418e565b905060006155f6848285016154dd565b600083015250606082015167ffffffffffffffff81111561561a576156196154ae565b5b61562684828501615583565b602083015250608061563a848285016154b3565b60408301525060a061564e848285016155b1565b60608301525092915050565b6000602082840312156156705761566f613b3e565b5b600082015167ffffffffffffffff81111561568e5761568d613b43565b5b61569a848285016155c6565b91505092915050565b6000602082840312156156b9576156b8613b3e565b5b60006156c7848285016155b1565b91505092915050565b6000602082840312156156e6576156e5613b3e565b5b60006156f4848285016154b3565b91505092915050565b600061570882613ba6565b915061571383613ba6565b9250827fffffffffffffffffffffffffffffffffffffffffffffffffffffffffffffffff0382111561574857615747615018565b5b828201905092915050565b7f455243313135353a2069647320616e6420616d6f756e7473206c656e6774682060008201527f6d69736d61746368000000000000000000000000000000000000000000000000602082015250565b60006157af602883614054565b91506157ba82615753565b604082019050919050565b600060208201905081810360008301526157de816157a2565b9050919050565b7f455243313135353a207472616e7366657220746f20746865207a65726f20616460008201527f6472657373000000000000000000000000000000000000000000000000000000602082015250565b6000615841602583614054565b915061584c826157e5565b604082019050919050565b6000602082019050818103600083015261587081615834565b9050919050565b7f455243313135353a20696e73756666696369656e742062616c616e636520666f60008201527f72207472616e7366657200000000000000000000000000000000000000000000602082015250565b60006158d3602a83614054565b91506158de82615877565b604082019050919050565b60006020820190508181036000830152615902816158c6565b9050919050565b6000604082019050818103600083015261592381856145f3565b9050818103602083015261593781846145f3565b90509392505050565b7f455243313135353a2073657474696e6720617070726f76616c2073746174757360008201527f20666f722073656c660000000000000000000000000000000000000000000000602082015250565b600061599c602983614054565b91506159a782615940565b604082019050919050565b600060208201905081810360008301526159cb8161598f565b9050919050565b600081519050919050565b600082825260208201905092915050565b60006159f9826159d2565b615a0381856159dd565b9350615a13818560208601613d59565b615a1c81613d8c565b840191505092915050565b600060a082019050615a3c6000830188615471565b615a496020830187615471565b8181036040830152615a5b81866145f3565b90508181036060830152615a6f81856145f3565b90508181036080830152615a8381846159ee565b90509695505050505050565b600081519050615a9e81613c72565b92915050565b600060208284031215615aba57615ab9613b3e565b5b6000615ac884828501615a8f565b91505092915050565b60008160e01c9050919050565b600060033d1115615afd5760046000803e615afa600051615ad1565b90505b90565b600060443d10615b8d57615b12613b34565b60043d036004823e80513d602482011167ffffffffffffffff82111715615b3a575050615b8d565b808201805167ffffffffffffffff811115615b585750505050615b8d565b80602083010160043d038501811115615b75575050505050615b8d565b615b848260200185018661415d565b82955050505050505b90565b7f455243313135353a207472616e7366657220746f206e6f6e2d4552433131353560008201527f526563656976657220696d706c656d656e746572000000000000000000000000602082015250565b6000615bec603483614054565b9150615bf782615b90565b604082019050919050565b60006020820190508181036000830152615c1b81615bdf565b9050919050565b7f455243313135353a204552433131353552656365697665722072656a6563746560008201527f6420746f6b656e73000000000000000000000000000000000000000000000000602082015250565b6000615c7e602883614054565b9150615c8982615c22565b604082019050919050565b60006020820190508181036000830152615cad81615c71565b9050919050565b7f455243313135353a206d696e7420746f20746865207a65726f2061646472657360008201527f7300000000000000000000000000000000000000000000000000000000000000602082015250565b6000615d10602183614054565b9150615d1b82615cb4565b604082019050919050565b60006020820190508181036000830152615d3f81615d03565b9050919050565b600060a082019050615d5b6000830188615471565b615d686020830187615471565b615d756040830186613c1c565b615d826060830185613c1c565b8181036080830152615d9481846159ee565b9050969550505050505056fea26469706673582212205b45390242d4ed6d360df9fafc3e7fb6f8c9de6b4f0fd3148d92c150f3d81ac264736f6c634300080d0033",
  "immutableReferences": {},
  "source": "// SPDX-License-Identifier: MIT\r\n// Tells the Solidity compiler to compile only from v0.8.13 to v0.9.0\r\npragma solidity ^0.8.13;\r\n\r\nimport \"./ERC1155BaseContract.sol\";\r\nimport \"./utils/IdentityGenerator.sol\";\r\nimport \"./interfaces/INftSchool.sol\";\r\nimport \"./interfaces/INftIdentities.sol\";\r\nimport \"./interfaces/INftCertificates.sol\";\r\n\r\ncontract NftSchool is ERC1155BaseContract, INftSchool, IdentityGenerator {\r\n    using Counters for Counters.Counter;\r\n\r\n    uint256 constant COURSE_ID = 1;\r\n    uint256 constant CLASS_ID = 2;\r\n    uint256 constant REGISTERED_TIME_ID = 3;\r\n\r\n    uint256 constant NFT_COURSE_REGISTRATION_ID = 0;\r\n\r\n    uint256 public minimumGraduationScore = 500;\r\n\r\n    string[] private courseURIs;\r\n\r\n    INftIdentities private _nftIdentities;\r\n    INftCertificates private _nftCertificates;\r\n\r\n    bool public _isInitialize;\r\n    uint256 public registerClassFee = 0.5 ether;\r\n\r\n    mapping(uint256 => uint256) private _registeredStartAt;\r\n    mapping(uint256 => uint256) private _registeredEndAt;\r\n\r\n    mapping(uint256 => uint256[]) private _classIdByRegisterTime;\r\n\r\n    Course[] private _allCourses;\r\n    mapping(uint256 => uint256) _posOfCourses;\r\n\r\n    KnowledgeBlock[] private _knowledgeBlocks;\r\n\r\n    Class[] private _allClasses;\r\n    mapping(uint256 => uint256) private _posOfClasses;\r\n\r\n    NftClassRegistration[] private _allNftClassRegistrations;\r\n    mapping(uint256 => uint256) private _posOfNftClassRegistrationTokenId;\r\n    mapping(uint256 => uint256[]) private _registeredClassTokenIdOfStudent; // tokenId => currentRegisterTimeId => courseId\r\n    mapping(uint256 => mapping(uint256 => uint256))\r\n        private _registeredCourseOfStudent;\r\n    mapping(uint256 => uint256[])\r\n        private _registeredTokenIdOfClass;\r\n\r\n    mapping(uint256 => mapping(uint256 => uint256)) _posOfTokenIdOfNftType;\r\n\r\n    modifier onlyOwner() {\r\n        require(_owner == msg.sender);\r\n        _;\r\n    }\r\n\r\n    constructor(\r\n        address nftIdentities,\r\n        string[] memory knowledgeBlockNames,\r\n        uint256[] memory knowledgeBlockCredits\r\n    ) ERC1155BaseContract(\"\") {\r\n        _nftIdentities = INftIdentities(nftIdentities);\r\n\r\n        uint256 knowledgeBlockCount = knowledgeBlockNames.length;\r\n        for (uint256 idx = 0; idx < knowledgeBlockCount; ++idx) {\r\n            _knowledgeBlocks.push(\r\n                KnowledgeBlock(\r\n                    idx + 1,\r\n                    knowledgeBlockNames[idx],\r\n                    knowledgeBlockCredits[idx]\r\n                )\r\n            );\r\n        }\r\n    }\r\n\r\n    function initialize(address nftCertificates) public onlyOwner {\r\n        require(!_isInitialize);\r\n        _isInitialize = true;\r\n        _nftCertificates = INftCertificates(nftCertificates);\r\n    }\r\n\r\n    // Knowledge Block: Start\r\n    function getAllKnowledgeBlocks()\r\n        external\r\n        view\r\n        returns (KnowledgeBlock[] memory)\r\n    {\r\n        return _knowledgeBlocks;\r\n    }\r\n\r\n    function getKnowledgeBlockById(\r\n        uint256 id\r\n    ) external view returns (KnowledgeBlock memory) {\r\n        return _knowledgeBlocks[id - 1];\r\n    }\r\n\r\n    // Knowledge Block: End\r\n\r\n    // Register time Section: Start\r\n    function updateRegisteredTime(\r\n        uint256 registeredStartAt,\r\n        uint256 registeredEndAt\r\n    ) external onlyOwner {\r\n        uint256 currentRegisterTimeId = getCurrentId(REGISTERED_TIME_ID);\r\n        require(\r\n            _classIdByRegisterTime[currentRegisterTimeId].length == 0 ||\r\n                _registeredEndAt[currentRegisterTimeId] <= block.timestamp\r\n        );\r\n        require(registeredEndAt > registeredStartAt);\r\n        uint256 nextRegisterTimeId = generateNewId(REGISTERED_TIME_ID);\r\n        _registeredStartAt[nextRegisterTimeId] = registeredStartAt;\r\n        _registeredEndAt[nextRegisterTimeId] = registeredEndAt;\r\n    }\r\n\r\n    function getRegisterTime() public view returns (uint256, uint256) {\r\n        uint256 currentRegisteredTimeId = getCurrentId(REGISTERED_TIME_ID);\r\n\r\n        return (\r\n            _registeredStartAt[currentRegisteredTimeId],\r\n            _registeredEndAt[currentRegisteredTimeId]\r\n        );\r\n    }\r\n\r\n    // Register time Section: End\r\n\r\n    // Course Block: Start\r\n    function getAllCourses() external view onlyOwner returns (Course[] memory) {\r\n        return _allCourses;\r\n    }\r\n\r\n    function getCourseById(uint256 id) public view returns (Course memory) {\r\n        uint256 pos = _posOfCourses[id];\r\n        require(pos > 0);\r\n\r\n        return _allCourses[pos - 1];\r\n    }\r\n\r\n    function createCourse(\r\n        uint256 prevCourseId,\r\n        uint256 knowledgeBlockId,\r\n        uint256 credits,\r\n        string memory uri\r\n    ) public onlyOwner returns (uint256) {\r\n        require(knowledgeBlockId <= _knowledgeBlocks.length);\r\n        require(credits > 0);\r\n        require(prevCourseId == 0 || _posOfCourses[prevCourseId] > 0);\r\n        uint256 id = generateNewId(COURSE_ID);\r\n        _allCourses.push(\r\n            Course(id, knowledgeBlockId, prevCourseId, credits, 1, uri)\r\n        );\r\n        _posOfCourses[id] = _allCourses.length;\r\n\r\n        return id;\r\n    }\r\n\r\n    function updateCourse(uint256 id, uint256 credits) external onlyOwner {\r\n        require(credits > 0, \"Credit must be a positive number\");\r\n        uint256 pos = _posOfCourses[id];\r\n        require(pos > 0, \"Nft does not exist\");\r\n\r\n        _allCourses[pos - 1].credits = credits;\r\n    }\r\n\r\n    // Course Block: End\r\n\r\n    // Class Block: Start\r\n    function getClassById(uint256 id) public view returns (Class memory) {\r\n        uint256 pos = _posOfClasses[id];\r\n        require(pos > 0);\r\n\r\n        return _allClasses[pos - 1];\r\n    }\r\n\r\n    function getAllClasses() external view onlyOwner returns (Class[] memory) {\r\n        return _allClasses;\r\n    }\r\n\r\n    function getCurrentRegisteredClasses()\r\n        external\r\n        view\r\n        returns (Class[] memory)\r\n    {\r\n        uint256 currentRegisterTimeId = getCurrentId(REGISTERED_TIME_ID);\r\n        require(\r\n            msg.sender == _owner || checkInRegisterDate(currentRegisterTimeId)\r\n        );\r\n        return _getClassesByRegisteredTime(currentRegisterTimeId);\r\n    }\r\n\r\n    function createClass(\r\n        uint256 courseId,\r\n        uint256 completeAt,\r\n        uint256 maxSize,\r\n        uint256 teacherTokenId,\r\n        string memory uri\r\n    ) public onlyOwner returns (uint256) {\r\n        Course memory course = getCourseById(courseId);\r\n        uint256 currentRegisterTimeId = getCurrentId(REGISTERED_TIME_ID);\r\n        uint256 nftTeacherRole = _nftIdentities.getTokenType(teacherTokenId);\r\n\r\n        require(completeAt > _registeredEndAt[currentRegisterTimeId]);\r\n        require(_registeredEndAt[currentRegisterTimeId] > block.timestamp);\r\n        require(nftTeacherRole == uint256(ROLE.TEACHER));\r\n        uint256 id = generateNewId(CLASS_ID);\r\n        _allClasses.push(\r\n            Class(\r\n                id,\r\n                courseId,\r\n                course.knowledgeBlockId,\r\n                course.prevCourseId,\r\n                course.credits,\r\n                _registeredStartAt[currentRegisterTimeId],\r\n                _registeredEndAt[currentRegisterTimeId],\r\n                completeAt,\r\n                maxSize,\r\n                teacherTokenId,\r\n                uri\r\n            )\r\n        );\r\n        _posOfClasses[id] = _allClasses.length;\r\n        _classIdByRegisterTime[currentRegisterTimeId].push(id);\r\n\r\n        return id;\r\n    }\r\n\r\n    function _getClassesByRegisteredTime(\r\n        uint256 registeredId\r\n    ) private view returns (Class[] memory) {\r\n        uint256[] memory ids = _classIdByRegisterTime[registeredId];\r\n        uint256 count = ids.length;\r\n        Class[] memory classes = new Class[](count);\r\n\r\n        for (uint256 idx; idx < count; ++idx) {\r\n            uint256 pos = _posOfClasses[ids[idx]];\r\n            classes[idx] = _allClasses[pos - 1];\r\n        }\r\n\r\n        return classes;\r\n    }\r\n\r\n    // Class Block: End\r\n\r\n    // Register class block: start\r\n    function getRegisteredClasses()\r\n        public\r\n        view\r\n        returns (NftClassRegistrationResponse[] memory)\r\n    {\r\n        NftIdentityResponse memory nftIdentityResponse = _nftIdentities\r\n            .getNftOfMemberWithRole(uint256(ROLE.STUDENT), msg.sender);\r\n        uint256 studentTokenId = nftIdentityResponse.nftIdentity.tokenId;\r\n        uint256[]\r\n            memory nftClassRegistrationTokenIds = _registeredClassTokenIdOfStudent[\r\n                studentTokenId\r\n            ];\r\n        uint256 count = nftClassRegistrationTokenIds.length;\r\n\r\n        NftClassRegistrationResponse[]\r\n            memory nftClassRegistrationResponses = new NftClassRegistrationResponse[](\r\n                count\r\n            );\r\n\r\n        for (uint256 idx = 0; idx < count; ++idx) {\r\n            NftClassRegistration memory nftClassRegistration = getNftClassRegistration(nftClassRegistrationTokenIds[idx]);\r\n            \r\n            nftClassRegistrationResponses[idx] = NftClassRegistrationResponse(\r\n                nftClassRegistration,\r\n                getClassById(nftClassRegistration.classId),\r\n                uri(nftClassRegistration.tokenId)\r\n            );\r\n        }\r\n\r\n        return nftClassRegistrationResponses;\r\n    }\r\n\r\n    function getNftClassRegistration(uint256 tokenId) public view returns (NftClassRegistration memory) {\r\n        uint256 posOfNft = _posOfNftClassRegistrationTokenId[tokenId];\r\n        require(posOfNft > 0);\r\n\r\n        return _allNftClassRegistrations[posOfNft - 1];\r\n    }\r\n\r\n    function registerClass(uint256 classId, string memory uri) public payable {\r\n        NftIdentityResponse memory nftIdentityResponse = _nftIdentities\r\n            .getNftOfMemberWithRole(uint256(ROLE.STUDENT), msg.sender);\r\n        uint256 studentTokenId = nftIdentityResponse.nftIdentity.tokenId;\r\n        Class memory class = getClassById(classId);\r\n\r\n        require(!nftIdentityResponse.isExpired);\r\n        require(_registeredTokenIdOfClass[class.id].length < class.maxSize);\r\n        require(block.timestamp >= class.registeredStartAt);\r\n        require(block.timestamp <= class.registeredEndAt);\r\n        require(\r\n            class.prevCourseId == 0 ||\r\n                _nftCertificates.checkCompleteCourse(\r\n                    class.prevCourseId,\r\n                    msg.sender\r\n                )\r\n        );\r\n        require(\r\n            _registeredCourseOfStudent[studentTokenId][class.courseId] == 0\r\n        );\r\n        require(msg.value == registerClassFee);\r\n        uint256 tokenId = _mintToken(\r\n            msg.sender,\r\n            NFT_COURSE_REGISTRATION_ID,\r\n            uri\r\n        );\r\n        _allNftClassRegistrations.push(\r\n            NftClassRegistration(tokenId, classId, studentTokenId)\r\n        );\r\n        _posOfNftClassRegistrationTokenId[tokenId] = _allNftClassRegistrations\r\n            .length;\r\n        _registeredClassTokenIdOfStudent[studentTokenId].push(tokenId);\r\n        _registeredCourseOfStudent[studentTokenId][class.courseId] = tokenId;\r\n        _registeredTokenIdOfClass[class.id].push(tokenId);\r\n    }\r\n\r\n    // Register class block: end\r\n\r\n\r\n    function checkTokenOfTypeExists(\r\n        uint256 tokenId,\r\n        uint256 requiredType\r\n    ) external view returns (bool) {\r\n        uint256 nftType = _getNftType(tokenId);\r\n        uint256 pos = _posOfTokenIdOfNftType[nftType][tokenId];\r\n        return pos > 0 && nftType == requiredType;\r\n    }\r\n\r\n    function checkInRegisterDate(\r\n        uint256 currentRegisterTimeId\r\n    ) public view returns (bool) {\r\n        return\r\n            block.timestamp >= _registeredStartAt[currentRegisterTimeId] &&\r\n            block.timestamp <= _registeredEndAt[currentRegisterTimeId];\r\n    }\r\n}\r\n",
  "sourcePath": "E:\\learn\\learn-to-earn\\blockchain\\contracts\\NftSchool.sol",
  "compiler": {
    "name": "solc",
    "version": "0.8.13+commit.abaa5c0e.Emscripten.clang"
  },
  "schemaVersion": "3.4.13",
  "updatedAt": "2023-05-06T10:56:14.313Z",
  "networkType": "ethereum",
  "devdoc": {
    "kind": "dev",
    "methods": {
      "balanceOf(address,uint256)": {
        "details": "See {IERC1155-balanceOf}. Requirements: - `account` cannot be the zero address."
      },
      "balanceOfBatch(address[],uint256[])": {
        "details": "See {IERC1155-balanceOfBatch}. Requirements: - `accounts` and `ids` must have the same length."
      },
      "isApprovedForAll(address,address)": {
        "details": "See {IERC1155-isApprovedForAll}."
      },
      "safeBatchTransferFrom(address,address,uint256[],uint256[],bytes)": {
        "details": "See {IERC1155-safeBatchTransferFrom}."
      },
      "safeTransferFrom(address,address,uint256,uint256,bytes)": {
        "details": "See {IERC1155-safeTransferFrom}."
      },
      "setApprovalForAll(address,bool)": {
        "details": "See {IERC1155-setApprovalForAll}."
      },
      "supportsInterface(bytes4)": {
        "details": "See {IERC165-supportsInterface}."
      },
      "uri(uint256)": {
        "details": "See {IERC1155MetadataURI-uri}. This implementation returns the concatenation of the `_baseURI` and the token-specific uri if the latter is set This enables the following behaviors: - if `_tokenURIs[tokenId]` is set, then the result is the concatenation   of `_baseURI` and `_tokenURIs[tokenId]` (keep in mind that `_baseURI`   is empty per default); - if `_tokenURIs[tokenId]` is NOT set then we fallback to `super.uri()`   which in most cases will contain `ERC1155._uri`; - if `_tokenURIs[tokenId]` is NOT set, and if the parents do not have a   uri value set, then the result is empty."
      }
    },
    "version": 1
  },
  "userdoc": {
    "kind": "user",
    "methods": {},
    "version": 1
  }
}