{
  "contractName": "NftSchool",
  "abi": [
    {
      "inputs": [
        {
          "internalType": "address",
          "name": "nftIdentities",
          "type": "address"
        },
        {
          "internalType": "uint256[]",
          "name": "knowledgeBlockIds",
          "type": "uint256[]"
        },
        {
          "internalType": "uint256[]",
          "name": "knowledgeBlockCredits",
          "type": "uint256[]"
        }
      ],
      "stateMutability": "nonpayable",
      "type": "constructor"
    },
    {
      "anonymous": false,
      "inputs": [
        {
          "indexed": false,
          "internalType": "uint256",
          "name": "id",
          "type": "uint256"
        }
      ],
      "name": "NewClassCreated",
      "type": "event"
    },
    {
      "inputs": [],
      "name": "_isInitialize",
      "outputs": [
        {
          "internalType": "bool",
          "name": "",
          "type": "bool"
        }
      ],
      "stateMutability": "view",
      "type": "function",
      "constant": true
    },
    {
      "inputs": [],
      "name": "minimumGraduationScore",
      "outputs": [
        {
          "internalType": "uint256",
          "name": "",
          "type": "uint256"
        }
      ],
      "stateMutability": "view",
      "type": "function",
      "constant": true
    },
    {
      "inputs": [
        {
          "internalType": "address",
          "name": "nftCertificates",
          "type": "address"
        }
      ],
      "name": "initialize",
      "outputs": [],
      "stateMutability": "nonpayable",
      "type": "function"
    },
    {
      "inputs": [],
      "name": "getAllKnowledgeBlocks",
      "outputs": [
        {
          "components": [
            {
              "internalType": "uint256",
              "name": "id",
              "type": "uint256"
            },
            {
              "internalType": "uint256",
              "name": "credits",
              "type": "uint256"
            }
          ],
          "internalType": "struct IConstant.KnowledgeBlock[]",
          "name": "",
          "type": "tuple[]"
        }
      ],
      "stateMutability": "view",
      "type": "function",
      "constant": true
    },
    {
      "inputs": [
        {
          "internalType": "uint256",
          "name": "semesterId",
          "type": "uint256"
        },
        {
          "internalType": "uint256",
          "name": "registeredStartAt",
          "type": "uint256"
        },
        {
          "internalType": "uint256",
          "name": "registeredEndAt",
          "type": "uint256"
        }
      ],
      "name": "updateRegisteredTime",
      "outputs": [],
      "stateMutability": "nonpayable",
      "type": "function"
    },
    {
      "inputs": [
        {
          "internalType": "uint256",
          "name": "semesterId",
          "type": "uint256"
        }
      ],
      "name": "getRegisterTime",
      "outputs": [
        {
          "internalType": "uint256",
          "name": "",
          "type": "uint256"
        },
        {
          "internalType": "uint256",
          "name": "",
          "type": "uint256"
        }
      ],
      "stateMutability": "view",
      "type": "function",
      "constant": true
    },
    {
      "inputs": [],
      "name": "getAllCourses",
      "outputs": [
        {
          "components": [
            {
              "internalType": "uint256",
              "name": "id",
              "type": "uint256"
            },
            {
              "internalType": "uint256",
              "name": "knowledgeBlockId",
              "type": "uint256"
            },
            {
              "internalType": "uint256",
              "name": "prevCourseId",
              "type": "uint256"
            },
            {
              "internalType": "uint256",
              "name": "credits",
              "type": "uint256"
            },
            {
              "internalType": "uint256",
              "name": "status",
              "type": "uint256"
            },
            {
              "internalType": "string",
              "name": "courseCode",
              "type": "string"
            },
            {
              "internalType": "string",
              "name": "uri",
              "type": "string"
            }
          ],
          "internalType": "struct IConstant.Course[]",
          "name": "",
          "type": "tuple[]"
        }
      ],
      "stateMutability": "view",
      "type": "function",
      "constant": true
    },
    {
      "inputs": [
        {
          "internalType": "uint256",
          "name": "id",
          "type": "uint256"
        }
      ],
      "name": "getCourseById",
      "outputs": [
        {
          "components": [
            {
              "internalType": "uint256",
              "name": "id",
              "type": "uint256"
            },
            {
              "internalType": "uint256",
              "name": "knowledgeBlockId",
              "type": "uint256"
            },
            {
              "internalType": "uint256",
              "name": "prevCourseId",
              "type": "uint256"
            },
            {
              "internalType": "uint256",
              "name": "credits",
              "type": "uint256"
            },
            {
              "internalType": "uint256",
              "name": "status",
              "type": "uint256"
            },
            {
              "internalType": "string",
              "name": "courseCode",
              "type": "string"
            },
            {
              "internalType": "string",
              "name": "uri",
              "type": "string"
            }
          ],
          "internalType": "struct IConstant.Course",
          "name": "",
          "type": "tuple"
        }
      ],
      "stateMutability": "view",
      "type": "function",
      "constant": true
    },
    {
      "inputs": [
        {
          "internalType": "string",
          "name": "tokenURI",
          "type": "string"
        }
      ],
      "name": "getCourseIdByURI",
      "outputs": [
        {
          "internalType": "uint256",
          "name": "",
          "type": "uint256"
        }
      ],
      "stateMutability": "view",
      "type": "function",
      "constant": true
    },
    {
      "inputs": [
        {
          "internalType": "uint256",
          "name": "prevCourseId",
          "type": "uint256"
        },
        {
          "internalType": "uint256",
          "name": "knowledgeBlockId",
          "type": "uint256"
        },
        {
          "internalType": "uint256",
          "name": "credits",
          "type": "uint256"
        },
        {
          "internalType": "string",
          "name": "courseCode",
          "type": "string"
        },
        {
          "internalType": "string",
          "name": "uri",
          "type": "string"
        }
      ],
      "name": "createCourse",
      "outputs": [
        {
          "internalType": "uint256",
          "name": "",
          "type": "uint256"
        }
      ],
      "stateMutability": "nonpayable",
      "type": "function"
    },
    {
      "inputs": [
        {
          "internalType": "uint256",
          "name": "id",
          "type": "uint256"
        }
      ],
      "name": "getClassById",
      "outputs": [
        {
          "components": [
            {
              "internalType": "uint256",
              "name": "id",
              "type": "uint256"
            },
            {
              "internalType": "uint256",
              "name": "courseId",
              "type": "uint256"
            },
            {
              "internalType": "uint256",
              "name": "knowledgeBlockId",
              "type": "uint256"
            },
            {
              "internalType": "uint256",
              "name": "prevCourseId",
              "type": "uint256"
            },
            {
              "internalType": "uint256",
              "name": "credits",
              "type": "uint256"
            },
            {
              "internalType": "uint256",
              "name": "completeAt",
              "type": "uint256"
            },
            {
              "internalType": "uint256",
              "name": "maxSize",
              "type": "uint256"
            },
            {
              "internalType": "uint256",
              "name": "teacherTokenId",
              "type": "uint256"
            },
            {
              "internalType": "uint256",
              "name": "semester",
              "type": "uint256"
            },
            {
              "internalType": "uint256",
              "name": "registerClassFee",
              "type": "uint256"
            },
            {
              "internalType": "string",
              "name": "uri",
              "type": "string"
            }
          ],
          "internalType": "struct IConstant.Class",
          "name": "",
          "type": "tuple"
        }
      ],
      "stateMutability": "view",
      "type": "function",
      "constant": true
    },
    {
      "inputs": [],
      "name": "getAllClasses",
      "outputs": [
        {
          "components": [
            {
              "internalType": "uint256",
              "name": "id",
              "type": "uint256"
            },
            {
              "internalType": "uint256",
              "name": "courseId",
              "type": "uint256"
            },
            {
              "internalType": "uint256",
              "name": "knowledgeBlockId",
              "type": "uint256"
            },
            {
              "internalType": "uint256",
              "name": "prevCourseId",
              "type": "uint256"
            },
            {
              "internalType": "uint256",
              "name": "credits",
              "type": "uint256"
            },
            {
              "internalType": "uint256",
              "name": "completeAt",
              "type": "uint256"
            },
            {
              "internalType": "uint256",
              "name": "maxSize",
              "type": "uint256"
            },
            {
              "internalType": "uint256",
              "name": "teacherTokenId",
              "type": "uint256"
            },
            {
              "internalType": "uint256",
              "name": "semester",
              "type": "uint256"
            },
            {
              "internalType": "uint256",
              "name": "registerClassFee",
              "type": "uint256"
            },
            {
              "internalType": "string",
              "name": "uri",
              "type": "string"
            }
          ],
          "internalType": "struct IConstant.Class[]",
          "name": "",
          "type": "tuple[]"
        }
      ],
      "stateMutability": "view",
      "type": "function",
      "constant": true
    },
    {
      "inputs": [
        {
          "internalType": "uint256",
          "name": "semester",
          "type": "uint256"
        }
      ],
      "name": "getClassBySemester",
      "outputs": [
        {
          "components": [
            {
              "internalType": "uint256",
              "name": "id",
              "type": "uint256"
            },
            {
              "internalType": "uint256",
              "name": "courseId",
              "type": "uint256"
            },
            {
              "internalType": "uint256",
              "name": "knowledgeBlockId",
              "type": "uint256"
            },
            {
              "internalType": "uint256",
              "name": "prevCourseId",
              "type": "uint256"
            },
            {
              "internalType": "uint256",
              "name": "credits",
              "type": "uint256"
            },
            {
              "internalType": "uint256",
              "name": "completeAt",
              "type": "uint256"
            },
            {
              "internalType": "uint256",
              "name": "maxSize",
              "type": "uint256"
            },
            {
              "internalType": "uint256",
              "name": "teacherTokenId",
              "type": "uint256"
            },
            {
              "internalType": "uint256",
              "name": "semester",
              "type": "uint256"
            },
            {
              "internalType": "uint256",
              "name": "registerClassFee",
              "type": "uint256"
            },
            {
              "internalType": "string",
              "name": "uri",
              "type": "string"
            }
          ],
          "internalType": "struct IConstant.Class[]",
          "name": "",
          "type": "tuple[]"
        }
      ],
      "stateMutability": "view",
      "type": "function",
      "constant": true
    },
    {
      "inputs": [
        {
          "internalType": "uint256",
          "name": "teacherTokenId",
          "type": "uint256"
        }
      ],
      "name": "getAssignedClasses",
      "outputs": [
        {
          "components": [
            {
              "internalType": "uint256",
              "name": "id",
              "type": "uint256"
            },
            {
              "internalType": "uint256",
              "name": "courseId",
              "type": "uint256"
            },
            {
              "internalType": "uint256",
              "name": "knowledgeBlockId",
              "type": "uint256"
            },
            {
              "internalType": "uint256",
              "name": "prevCourseId",
              "type": "uint256"
            },
            {
              "internalType": "uint256",
              "name": "credits",
              "type": "uint256"
            },
            {
              "internalType": "uint256",
              "name": "completeAt",
              "type": "uint256"
            },
            {
              "internalType": "uint256",
              "name": "maxSize",
              "type": "uint256"
            },
            {
              "internalType": "uint256",
              "name": "teacherTokenId",
              "type": "uint256"
            },
            {
              "internalType": "uint256",
              "name": "semester",
              "type": "uint256"
            },
            {
              "internalType": "uint256",
              "name": "registerClassFee",
              "type": "uint256"
            },
            {
              "internalType": "string",
              "name": "uri",
              "type": "string"
            }
          ],
          "internalType": "struct IConstant.Class[]",
          "name": "",
          "type": "tuple[]"
        }
      ],
      "stateMutability": "view",
      "type": "function",
      "constant": true
    },
    {
      "inputs": [
        {
          "internalType": "uint256",
          "name": "courseId",
          "type": "uint256"
        },
        {
          "internalType": "uint256",
          "name": "completeAt",
          "type": "uint256"
        },
        {
          "internalType": "uint256",
          "name": "maxSize",
          "type": "uint256"
        },
        {
          "internalType": "uint256",
          "name": "teacherTokenId",
          "type": "uint256"
        },
        {
          "internalType": "uint256",
          "name": "semester",
          "type": "uint256"
        },
        {
          "internalType": "uint256",
          "name": "registerClassFee",
          "type": "uint256"
        },
        {
          "internalType": "string",
          "name": "uri",
          "type": "string"
        }
      ],
      "name": "createClass",
      "outputs": [
        {
          "internalType": "uint256",
          "name": "",
          "type": "uint256"
        }
      ],
      "stateMutability": "nonpayable",
      "type": "function"
    },
    {
      "inputs": [
        {
          "internalType": "uint256",
          "name": "tokenId",
          "type": "uint256"
        }
      ],
      "name": "getRegisterFeeClassById",
      "outputs": [
        {
          "internalType": "uint256",
          "name": "",
          "type": "uint256"
        }
      ],
      "stateMutability": "view",
      "type": "function",
      "constant": true
    }
  ],
  "bytecode": "0x60806040526101f46001553480156200001757600080fd5b5060405162002e9c38038062002e9c83398181016040528101906200003d9190620003a9565b33600360006101000a81548173ffffffffffffffffffffffffffffffffffffffff021916908373ffffffffffffffffffffffffffffffffffffffff16021790555082600460006101000a81548173ffffffffffffffffffffffffffffffffffffffff021916908373ffffffffffffffffffffffffffffffffffffffff16021790555060008251905060005b818110156200017557600d6040518060400160405280868481518110620000f457620000f362000443565b5b6020026020010151815260200185848151811062000117576200011662000443565b5b6020026020010151815250908060018154018082558091505060019003906000526020600020906002020160009091909190915060008201518160000155602082015181600101555050806200016d90620004a1565b9050620000c8565b5050505050620004ee565b6000604051905090565b600080fd5b600080fd5b600073ffffffffffffffffffffffffffffffffffffffff82169050919050565b6000620001c18262000194565b9050919050565b620001d381620001b4565b8114620001df57600080fd5b50565b600081519050620001f381620001c8565b92915050565b600080fd5b6000601f19601f8301169050919050565b7f4e487b7100000000000000000000000000000000000000000000000000000000600052604160045260246000fd5b6200024982620001fe565b810181811067ffffffffffffffff821117156200026b576200026a6200020f565b5b80604052505050565b60006200028062000180565b90506200028e82826200023e565b919050565b600067ffffffffffffffff821115620002b157620002b06200020f565b5b602082029050602081019050919050565b600080fd5b6000819050919050565b620002dc81620002c7565b8114620002e857600080fd5b50565b600081519050620002fc81620002d1565b92915050565b600062000319620003138462000293565b62000274565b905080838252602082019050602084028301858111156200033f576200033e620002c2565b5b835b818110156200036c5780620003578882620002eb565b84526020840193505060208101905062000341565b5050509392505050565b600082601f8301126200038e576200038d620001f9565b5b8151620003a084826020860162000302565b91505092915050565b600080600060608486031215620003c557620003c46200018a565b5b6000620003d586828701620001e2565b935050602084015167ffffffffffffffff811115620003f957620003f86200018f565b5b620004078682870162000376565b925050604084015167ffffffffffffffff8111156200042b576200042a6200018f565b5b620004398682870162000376565b9150509250925092565b7f4e487b7100000000000000000000000000000000000000000000000000000000600052603260045260246000fd5b7f4e487b7100000000000000000000000000000000000000000000000000000000600052601160045260246000fd5b6000620004ae82620002c7565b91507fffffffffffffffffffffffffffffffffffffffffffffffffffffffffffffffff8203620004e357620004e262000472565b5b600182019050919050565b61299e80620004fe6000396000f3fe608060405234801561001057600080fd5b50600436106101005760003560e01c80636be7276411610097578063bbaa15e311610066578063bbaa15e3146102d7578063c4d66de814610307578063d9ac23d914610323578063ea5b210f1461035457610100565b80636be72764146102295780637071b869146102595780639742d96414610289578063b564529f146102b957610100565b806326f766ce116100d357806326f766ce1461019f5780635f7b9d73146101cf5780635fe03779146101ed5780636bda75dd1461020b57610100565b806303d658e01461010557806304e48bd1146101355780630cd190fa14610153578063192ac44214610183575b600080fd5b61011f600480360381019061011a9190611940565b610384565b60405161012c9190611b04565b60405180910390f35b61013d61051f565b60405161014a9190611c8b565b60405180910390f35b61016d60048036038101906101689190611940565b61072e565b60405161017a9190611cbc565b60405180910390f35b61019d60048036038101906101989190611cd7565b61078e565b005b6101b960048036038101906101b49190611e5f565b610829565b6040516101c69190611cbc565b60405180910390f35b6101d7610a94565b6040516101e49190611ff0565b60405180910390f35b6101f5610b07565b6040516102029190611cbc565b60405180910390f35b610213610b0d565b60405161022091906121c3565b60405180910390f35b610243600480360381019061023e91906121e5565b610d32565b6040516102509190611cbc565b60405180910390f35b610273600480360381019061026e9190611940565b611103565b60405161028091906121c3565b60405180910390f35b6102a3600480360381019061029e91906122a3565b61136c565b6040516102b09190611cbc565b60405180910390f35b6102c16113a6565b6040516102ce9190612307565b60405180910390f35b6102f160048036038101906102ec9190611940565b6113b9565b6040516102fe91906121c3565b60405180910390f35b610321600480360381019061031c9190612380565b6114ab565b005b61033d60048036038101906103389190611940565b61157e565b60405161034b9291906123ad565b60405180910390f35b61036e60048036038101906103699190611940565b6115b2565b60405161037b9190612479565b60405180910390f35b61038c6117bc565b6000600f6000848152602001908152602001600020549050600081116103e7576040517f08c379a00000000000000000000000000000000000000000000000000000000081526004016103de906124f8565b60405180910390fd5b600e6001826103f69190612547565b815481106104075761040661257b565b5b90600052602060002090600b02016040518061016001604052908160008201548152602001600182015481526020016002820154815260200160038201548152602001600482015481526020016005820154815260200160068201548152602001600782015481526020016008820154815260200160098201548152602001600a82018054610495906125d9565b80601f01602080910402602001604051908101604052809291908181526020018280546104c1906125d9565b801561050e5780601f106104e35761010080835404028352916020019161050e565b820191906000526020600020905b8154815290600101906020018083116104f157829003601f168201915b505050505081525050915050919050565b60603373ffffffffffffffffffffffffffffffffffffffff16600360009054906101000a900473ffffffffffffffffffffffffffffffffffffffff1673ffffffffffffffffffffffffffffffffffffffff161461057b57600080fd5b600b805480602002602001604051908101604052809291908181526020016000905b8282101561072557838290600052602060002090600702016040518060e00160405290816000820154815260200160018201548152602001600282015481526020016003820154815260200160048201548152602001600582018054610602906125d9565b80601f016020809104026020016040519081016040528092919081815260200182805461062e906125d9565b801561067b5780601f106106505761010080835404028352916020019161067b565b820191906000526020600020905b81548152906001019060200180831161065e57829003601f168201915b50505050508152602001600682018054610694906125d9565b80601f01602080910402602001604051908101604052809291908181526020018280546106c0906125d9565b801561070d5780601f106106e25761010080835404028352916020019161070d565b820191906000526020600020905b8154815290600101906020018083116106f057829003601f168201915b5050505050815250508152602001906001019061059d565b50505050905090565b600080600f60008481526020019081526020016000205490506000811161075457600080fd5b600e6001826107639190612547565b815481106107745761077361257b565b5b90600052602060002090600b020160090154915050919050565b3373ffffffffffffffffffffffffffffffffffffffff16600360009054906101000a900473ffffffffffffffffffffffffffffffffffffffff1673ffffffffffffffffffffffffffffffffffffffff16146107e857600080fd5b8181116107f457600080fd5b816006600085815260200190815260200160002081905550806007600085815260200190815260200160002081905550505050565b60003373ffffffffffffffffffffffffffffffffffffffff16600360009054906101000a900473ffffffffffffffffffffffffffffffffffffffff1673ffffffffffffffffffffffffffffffffffffffff161461088557600080fd5b6000600a846040516108979190612646565b908152602001604051809103902054146108b057600080fd5b600d805490508511156108c257600080fd5b600084116108cf57600080fd5b60008614806108f157506000600c600088815260200190815260200160002054115b6108fa57600080fd5b600060096000600181526020019081526020016000208360405161091e9190612646565b9081526020016040518091039020541461093757600080fd5b60006109436001611776565b9050600b6040518060e0016040528083815260200188815260200189815260200187815260200160018152602001868152602001858152509080600181540180825580915050600190039060005260206000209060070201600090919091909150600082015181600001556020820151816001015560408201518160020155606082015181600301556080820151816004015560a08201518160050190805190602001906109f2929190611816565b5060c0820151816006019080519060200190610a0f929190611816565b50505080600960006001815260200190815260200160002084604051610a359190612646565b908152602001604051809103902081905550600b80549050600c60008381526020019081526020016000208190555080600a85604051610a759190612646565b9081526020016040518091039020819055508091505095945050505050565b6060600d805480602002602001604051908101604052809291908181526020016000905b82821015610afe57838290600052602060002090600202016040518060400160405290816000820154815260200160018201548152505081526020019060010190610ab8565b50505050905090565b60015481565b60603373ffffffffffffffffffffffffffffffffffffffff16600360009054906101000a900473ffffffffffffffffffffffffffffffffffffffff1673ffffffffffffffffffffffffffffffffffffffff1614610b6957600080fd5b6000600e80549050905060008167ffffffffffffffff811115610b8f57610b8e611d34565b5b604051908082528060200260200182016040528015610bc857816020015b610bb56117bc565b815260200190600190039081610bad5790505b50905060005b82811015610d2957600e8181548110610bea57610be961257b565b5b90600052602060002090600b02016040518061016001604052908160008201548152602001600182015481526020016002820154815260200160038201548152602001600482015481526020016005820154815260200160068201548152602001600782015481526020016008820154815260200160098201548152602001600a82018054610c78906125d9565b80601f0160208091040260200160405190810160405280929190818152602001828054610ca4906125d9565b8015610cf15780601f10610cc657610100808354040283529160200191610cf1565b820191906000526020600020905b815481529060010190602001808311610cd457829003601f168201915b505050505081525050828281518110610d0d57610d0c61257b565b5b602002602001018190525080610d229061265d565b9050610bce565b50809250505090565b60003373ffffffffffffffffffffffffffffffffffffffff16600360009054906101000a900473ffffffffffffffffffffffffffffffffffffffff1673ffffffffffffffffffffffffffffffffffffffff1614610d8e57600080fd5b6000610d99896115b2565b90506000600460009054906101000a900473ffffffffffffffffffffffffffffffffffffffff1673ffffffffffffffffffffffffffffffffffffffff1663d703df8b886040518263ffffffff1660e01b8152600401610df89190611cbc565b600060405180830381865afa158015610e15573d6000803e3d6000fd5b505050506040513d6000823e3d601f19601f82011682018060405250810190610e3e919061286d565b90506000600460009054906101000a900473ffffffffffffffffffffffffffffffffffffffff1673ffffffffffffffffffffffffffffffffffffffff166376aed2e1896040518263ffffffff1660e01b8152600401610e9d9190611cbc565b602060405180830381865afa158015610eba573d6000803e3d6000fd5b505050506040513d601f19601f82011682018060405250810190610ede91906128b6565b9050600180811115610ef357610ef26128e3565b5b8114610efe57600080fd5b8982600001516040015111610f1257600080fd5b6000610f1e6002611776565b9050600e6040518061016001604052808381526020018e81526020018660200151815260200186604001518152602001866060015181526020018d81526020018c81526020018b81526020018a81526020018981526020018881525090806001815401808255809150506001900390600052602060002090600b0201600090919091909150600082015181600001556020820151816001015560408201518160020155606082015181600301556080820151816004015560a0820151816005015560c0820151816006015560e082015181600701556101008201518160080155610120820151816009015561014082015181600a019080519060200190611026929190611816565b505050600e80549050600f60008381526020019081526020016000208190555060086000898152602001908152602001600020819080600181540180825580915050600190039060005260206000200160009091909190915055601060008a81526020019081526020016000208190806001815401808255809150506001900390600052602060002001600090919091909150557f85ea935a5969f304d55f08078ec0395f62519aa6ca78076ff75b8d729bbc625f816040516110e99190611cbc565b60405180910390a180945050505050979650505050505050565b606060006008600084815260200190815260200160002080548060200260200160405190810160405280929190818152602001828054801561116457602002820191906000526020600020905b815481526020019060010190808311611150575b5050505050905060008151905060008167ffffffffffffffff81111561118d5761118c611d34565b5b6040519080825280602002602001820160405280156111c657816020015b6111b36117bc565b8152602001906001900390816111ab5790505b50905060005b8281101561136057600e6001600f60008785815181106111ef576111ee61257b565b5b60200260200101518152602001908152602001600020546112109190612547565b815481106112215761122061257b565b5b90600052602060002090600b02016040518061016001604052908160008201548152602001600182015481526020016002820154815260200160038201548152602001600482015481526020016005820154815260200160068201548152602001600782015481526020016008820154815260200160098201548152602001600a820180546112af906125d9565b80601f01602080910402602001604051908101604052809291908181526020018280546112db906125d9565b80156113285780601f106112fd57610100808354040283529160200191611328565b820191906000526020600020905b81548152906001019060200180831161130b57829003601f168201915b5050505050815250508282815181106113445761134361257b565b5b6020026020010181905250806113599061265d565b90506111cc565b50809350505050919050565b60006009600060018152602001908152602001600020826040516113909190612646565b9081526020016040518091039020549050919050565b600560149054906101000a900460ff1681565b606060006010600084815260200190815260200160002080549050905060008167ffffffffffffffff8111156113f2576113f1611d34565b5b60405190808252806020026020018201604052801561142b57816020015b6114186117bc565b8152602001906001900390816114105790505b50905060005b828110156114a0576114716010600087815260200190815260200160002082815481106114615761146061257b565b5b9060005260206000200154610384565b8282815181106114845761148361257b565b5b6020026020010181905250806114999061265d565b9050611431565b508092505050919050565b3373ffffffffffffffffffffffffffffffffffffffff16600360009054906101000a900473ffffffffffffffffffffffffffffffffffffffff1673ffffffffffffffffffffffffffffffffffffffff161461150557600080fd5b600560149054906101000a900460ff161561151f57600080fd5b6001600560146101000a81548160ff02191690831515021790555080600560006101000a81548173ffffffffffffffffffffffffffffffffffffffff021916908373ffffffffffffffffffffffffffffffffffffffff16021790555050565b6000806006600084815260200190815260200160002054600760008581526020019081526020016000205491509150915091565b6115ba61189c565b6000600c6000848152602001908152602001600020549050600081116115df57600080fd5b600b6001826115ee9190612547565b815481106115ff576115fe61257b565b5b90600052602060002090600702016040518060e0016040529081600082015481526020016001820154815260200160028201548152602001600382015481526020016004820154815260200160058201805461165a906125d9565b80601f0160208091040260200160405190810160405280929190818152602001828054611686906125d9565b80156116d35780601f106116a8576101008083540402835291602001916116d3565b820191906000526020600020905b8154815290600101906020018083116116b657829003601f168201915b505050505081526020016006820180546116ec906125d9565b80601f0160208091040260200160405190810160405280929190818152602001828054611718906125d9565b80156117655780601f1061173a57610100808354040283529160200191611765565b820191906000526020600020905b81548152906001019060200180831161174857829003601f168201915b505050505081525050915050919050565b60006001600080848152602001908152602001600020600082825461179b9190612912565b92505081905550600080838152602001908152602001600020549050919050565b60405180610160016040528060008152602001600081526020016000815260200160008152602001600081526020016000815260200160008152602001600081526020016000815260200160008152602001606081525090565b828054611822906125d9565b90600052602060002090601f016020900481019282611844576000855561188b565b82601f1061185d57805160ff191683800117855561188b565b8280016001018555821561188b579182015b8281111561188a57825182559160200191906001019061186f565b5b50905061189891906118d9565b5090565b6040518060e00160405280600081526020016000815260200160008152602001600081526020016000815260200160608152602001606081525090565b5b808211156118f25760008160009055506001016118da565b5090565b6000604051905090565b600080fd5b600080fd5b6000819050919050565b61191d8161190a565b811461192857600080fd5b50565b60008135905061193a81611914565b92915050565b60006020828403121561195657611955611900565b5b60006119648482850161192b565b91505092915050565b6119768161190a565b82525050565b600081519050919050565b600082825260208201905092915050565b60005b838110156119b657808201518184015260208101905061199b565b838111156119c5576000848401525b50505050565b6000601f19601f8301169050919050565b60006119e78261197c565b6119f18185611987565b9350611a01818560208601611998565b611a0a816119cb565b840191505092915050565b600061016083016000830151611a2e600086018261196d565b506020830151611a41602086018261196d565b506040830151611a54604086018261196d565b506060830151611a67606086018261196d565b506080830151611a7a608086018261196d565b5060a0830151611a8d60a086018261196d565b5060c0830151611aa060c086018261196d565b5060e0830151611ab360e086018261196d565b50610100830151611ac861010086018261196d565b50610120830151611add61012086018261196d565b50610140830151848203610140860152611af782826119dc565b9150508091505092915050565b60006020820190508181036000830152611b1e8184611a15565b905092915050565b600081519050919050565b600082825260208201905092915050565b6000819050602082019050919050565b600060e083016000830151611b6a600086018261196d565b506020830151611b7d602086018261196d565b506040830151611b90604086018261196d565b506060830151611ba3606086018261196d565b506080830151611bb6608086018261196d565b5060a083015184820360a0860152611bce82826119dc565b91505060c083015184820360c0860152611be882826119dc565b9150508091505092915050565b6000611c018383611b52565b905092915050565b6000602082019050919050565b6000611c2182611b26565b611c2b8185611b31565b935083602082028501611c3d85611b42565b8060005b85811015611c795784840389528151611c5a8582611bf5565b9450611c6583611c09565b925060208a01995050600181019050611c41565b50829750879550505050505092915050565b60006020820190508181036000830152611ca58184611c16565b905092915050565b611cb68161190a565b82525050565b6000602082019050611cd16000830184611cad565b92915050565b600080600060608486031215611cf057611cef611900565b5b6000611cfe8682870161192b565b9350506020611d0f8682870161192b565b9250506040611d208682870161192b565b9150509250925092565b600080fd5b600080fd5b7f4e487b7100000000000000000000000000000000000000000000000000000000600052604160045260246000fd5b611d6c826119cb565b810181811067ffffffffffffffff82111715611d8b57611d8a611d34565b5b80604052505050565b6000611d9e6118f6565b9050611daa8282611d63565b919050565b600067ffffffffffffffff821115611dca57611dc9611d34565b5b611dd3826119cb565b9050602081019050919050565b82818337600083830152505050565b6000611e02611dfd84611daf565b611d94565b905082815260208101848484011115611e1e57611e1d611d2f565b5b611e29848285611de0565b509392505050565b600082601f830112611e4657611e45611d2a565b5b8135611e56848260208601611def565b91505092915050565b600080600080600060a08688031215611e7b57611e7a611900565b5b6000611e898882890161192b565b9550506020611e9a8882890161192b565b9450506040611eab8882890161192b565b935050606086013567ffffffffffffffff811115611ecc57611ecb611905565b5b611ed888828901611e31565b925050608086013567ffffffffffffffff811115611ef957611ef8611905565b5b611f0588828901611e31565b9150509295509295909350565b600081519050919050565b600082825260208201905092915050565b6000819050602082019050919050565b604082016000820151611f54600085018261196d565b506020820151611f67602085018261196d565b50505050565b6000611f798383611f3e565b60408301905092915050565b6000602082019050919050565b6000611f9d82611f12565b611fa78185611f1d565b9350611fb283611f2e565b8060005b83811015611fe3578151611fca8882611f6d565b9750611fd583611f85565b925050600181019050611fb6565b5085935050505092915050565b6000602082019050818103600083015261200a8184611f92565b905092915050565b600081519050919050565b600082825260208201905092915050565b6000819050602082019050919050565b600061016083016000830151612057600086018261196d565b50602083015161206a602086018261196d565b50604083015161207d604086018261196d565b506060830151612090606086018261196d565b5060808301516120a3608086018261196d565b5060a08301516120b660a086018261196d565b5060c08301516120c960c086018261196d565b5060e08301516120dc60e086018261196d565b506101008301516120f161010086018261196d565b5061012083015161210661012086018261196d565b5061014083015184820361014086015261212082826119dc565b9150508091505092915050565b6000612139838361203e565b905092915050565b6000602082019050919050565b600061215982612012565b612163818561201d565b9350836020820285016121758561202e565b8060005b858110156121b15784840389528151612192858261212d565b945061219d83612141565b925060208a01995050600181019050612179565b50829750879550505050505092915050565b600060208201905081810360008301526121dd818461214e565b905092915050565b600080600080600080600060e0888a03121561220457612203611900565b5b60006122128a828b0161192b565b97505060206122238a828b0161192b565b96505060406122348a828b0161192b565b95505060606122458a828b0161192b565b94505060806122568a828b0161192b565b93505060a06122678a828b0161192b565b92505060c088013567ffffffffffffffff81111561228857612287611905565b5b6122948a828b01611e31565b91505092959891949750929550565b6000602082840312156122b9576122b8611900565b5b600082013567ffffffffffffffff8111156122d7576122d6611905565b5b6122e384828501611e31565b91505092915050565b60008115159050919050565b612301816122ec565b82525050565b600060208201905061231c60008301846122f8565b92915050565b600073ffffffffffffffffffffffffffffffffffffffff82169050919050565b600061234d82612322565b9050919050565b61235d81612342565b811461236857600080fd5b50565b60008135905061237a81612354565b92915050565b60006020828403121561239657612395611900565b5b60006123a48482850161236b565b91505092915050565b60006040820190506123c26000830185611cad565b6123cf6020830184611cad565b9392505050565b600060e0830160008301516123ee600086018261196d565b506020830151612401602086018261196d565b506040830151612414604086018261196d565b506060830151612427606086018261196d565b50608083015161243a608086018261196d565b5060a083015184820360a086015261245282826119dc565b91505060c083015184820360c086015261246c82826119dc565b9150508091505092915050565b6000602082019050818103600083015261249381846123d6565b905092915050565b600082825260208201905092915050565b7f636c617373206e6f7420666f756e640000000000000000000000000000000000600082015250565b60006124e2600f8361249b565b91506124ed826124ac565b602082019050919050565b60006020820190508181036000830152612511816124d5565b9050919050565b7f4e487b7100000000000000000000000000000000000000000000000000000000600052601160045260246000fd5b60006125528261190a565b915061255d8361190a565b9250828210156125705761256f612518565b5b828203905092915050565b7f4e487b7100000000000000000000000000000000000000000000000000000000600052603260045260246000fd5b7f4e487b7100000000000000000000000000000000000000000000000000000000600052602260045260246000fd5b600060028204905060018216806125f157607f821691505b602082108103612604576126036125aa565b5b50919050565b600081905092915050565b60006126208261197c565b61262a818561260a565b935061263a818560208601611998565b80840191505092915050565b60006126528284612615565b915081905092915050565b60006126688261190a565b91507fffffffffffffffffffffffffffffffffffffffffffffffffffffffffffffffff820361269a57612699612518565b5b600182019050919050565b600080fd5b600080fd5b6000815190506126be81611914565b92915050565b6000815190506126d381612354565b92915050565b6000606082840312156126ef576126ee6126a5565b5b6126f96060611d94565b90506000612709848285016126af565b600083015250602061271d848285016126c4565b6020830152506040612731848285016126af565b60408301525092915050565b600061275061274b84611daf565b611d94565b90508281526020810184848401111561276c5761276b611d2f565b5b612777848285611998565b509392505050565b600082601f83011261279457612793611d2a565b5b81516127a484826020860161273d565b91505092915050565b6127b6816122ec565b81146127c157600080fd5b50565b6000815190506127d3816127ad565b92915050565b600060c082840312156127ef576127ee6126a5565b5b6127f96080611d94565b90506000612809848285016126d9565b600083015250606082015167ffffffffffffffff81111561282d5761282c6126aa565b5b6128398482850161277f565b602083015250608061284d848285016126af565b60408301525060a0612861848285016127c4565b60608301525092915050565b60006020828403121561288357612882611900565b5b600082015167ffffffffffffffff8111156128a1576128a0611905565b5b6128ad848285016127d9565b91505092915050565b6000602082840312156128cc576128cb611900565b5b60006128da848285016126af565b91505092915050565b7f4e487b7100000000000000000000000000000000000000000000000000000000600052602160045260246000fd5b600061291d8261190a565b91506129288361190a565b9250827fffffffffffffffffffffffffffffffffffffffffffffffffffffffffffffffff0382111561295d5761295c612518565b5b82820190509291505056fea26469706673582212206492b5828d663758b1636a876afeb20d50660454b0d9dc2a8ee5b723404df73264736f6c634300080d0033",
  "immutableReferences": {},
  "source": "// SPDX-License-Identifier: MIT\r\n// Tells the Solidity compiler to compile only from v0.8.13 to v0.9.0\r\npragma solidity ^0.8.13;\r\n\r\nimport \"./ERC1155BaseContract.sol\";\r\nimport \"./utils/IdentityGenerator.sol\";\r\nimport \"./interfaces/INftSchool.sol\";\r\nimport \"./interfaces/INftIdentities.sol\";\r\nimport \"./interfaces/INftCertificates.sol\";\r\n\r\ncontract NftSchool is INftSchool, IdentityGenerator {\r\n    using Counters for Counters.Counter;\r\n\r\n    uint256 constant COURSE_ID = 1;\r\n    uint256 constant CLASS_ID = 2;\r\n    uint256 constant REGISTERED_TIME_ID = 3;\r\n\r\n    uint256 constant NFT_COURSE_REGISTRATION_ID = 0;\r\n\r\n    uint256 public minimumGraduationScore = 500;\r\n\r\n    string[] private courseURIs;\r\n\r\n    address private _owner;\r\n\r\n    INftIdentities private _nftIdentities;\r\n    INftCertificates private _nftCertificates;\r\n\r\n    bool public _isInitialize;\r\n\r\n    event NewClassCreated(uint256 id);\r\n\r\n    mapping(uint256 => uint256) private _registeredStartAt;\r\n    mapping(uint256 => uint256) private _registeredEndAt;\r\n\r\n    mapping(uint256 => uint256[]) private _classIdsOfSemeter;\r\n    mapping(uint256 => mapping(string => uint256)) private _idOfURIOfType;\r\n    mapping(string => uint256) _courseIdOfCode;\r\n\r\n    Course[] private _allCourses;\r\n    mapping(uint256 => uint256) _posOfCourses;\r\n\r\n    KnowledgeBlock[] private _knowledgeBlocks;\r\n\r\n    Class[] private _allClasses;\r\n    mapping(uint256 => uint256) private _posOfClasses;\r\n    mapping(uint256 => uint256[]) private _assignedClassesOfTeacher;\r\n\r\n    modifier onlyOwner() {\r\n        require(_owner == msg.sender);\r\n        _;\r\n    }\r\n\r\n    constructor(\r\n        address nftIdentities,\r\n        uint256[] memory knowledgeBlockIds,\r\n        uint256[] memory knowledgeBlockCredits\r\n    ) {\r\n        _owner = msg.sender;\r\n        _nftIdentities = INftIdentities(nftIdentities);\r\n\r\n        uint256 knowledgeBlockCount = knowledgeBlockIds.length;\r\n        for (uint256 idx = 0; idx < knowledgeBlockCount; ++idx) {\r\n            _knowledgeBlocks.push(\r\n                KnowledgeBlock(\r\n                    knowledgeBlockIds[idx],\r\n                    knowledgeBlockCredits[idx]\r\n                )\r\n            );\r\n        }\r\n    }\r\n\r\n    function initialize(address nftCertificates) public onlyOwner {\r\n        require(!_isInitialize);\r\n        _isInitialize = true;\r\n        _nftCertificates = INftCertificates(nftCertificates);\r\n    }\r\n\r\n    // Knowledge Block: Start\r\n    function getAllKnowledgeBlocks()\r\n        external\r\n        view\r\n        returns (KnowledgeBlock[] memory)\r\n    {\r\n        return _knowledgeBlocks;\r\n    }\r\n\r\n    // Knowledge Block: End\r\n\r\n    // Register time Section: Start\r\n    function updateRegisteredTime(\r\n        uint256 semesterId,\r\n        uint256 registeredStartAt,\r\n        uint256 registeredEndAt\r\n    ) external onlyOwner {\r\n        require(registeredEndAt > registeredStartAt);\r\n        _registeredStartAt[semesterId] = registeredStartAt;\r\n        _registeredEndAt[semesterId] = registeredEndAt;\r\n    }\r\n\r\n    function getRegisterTime(\r\n        uint256 semesterId\r\n    ) external view returns (uint256, uint256) {\r\n        return (_registeredStartAt[semesterId], _registeredEndAt[semesterId]);\r\n    }\r\n\r\n    // Register time Section: End\r\n\r\n    // Course Block: Start\r\n    function getAllCourses() external view onlyOwner returns (Course[] memory) {\r\n        return _allCourses;\r\n    }\r\n\r\n    function getCourseById(uint256 id) public view returns (Course memory) {\r\n        uint256 pos = _posOfCourses[id];\r\n        require(pos > 0);\r\n\r\n        return _allCourses[pos - 1];\r\n    }\r\n\r\n    function getCourseIdByURI(\r\n        string memory tokenURI\r\n    ) public view returns (uint256) {\r\n        return _idOfURIOfType[COURSE_ID][tokenURI];\r\n    }\r\n\r\n    function createCourse(\r\n        uint256 prevCourseId,\r\n        uint256 knowledgeBlockId,\r\n        uint256 credits,\r\n        string memory courseCode,\r\n        string memory uri\r\n    ) public onlyOwner returns (uint256) {\r\n        require(_courseIdOfCode[courseCode] == 0);\r\n        require(knowledgeBlockId <= _knowledgeBlocks.length);\r\n        require(credits > 0);\r\n        require(prevCourseId == 0 || _posOfCourses[prevCourseId] > 0);\r\n        require(_idOfURIOfType[COURSE_ID][uri] == 0);\r\n        uint256 id = generateNewId(COURSE_ID);\r\n        _allCourses.push(\r\n            Course(\r\n                id,\r\n                knowledgeBlockId,\r\n                prevCourseId,\r\n                credits,\r\n                1,\r\n                courseCode,\r\n                uri\r\n            )\r\n        );\r\n        _idOfURIOfType[COURSE_ID][uri] = id;\r\n        _posOfCourses[id] = _allCourses.length;\r\n        _courseIdOfCode[courseCode] = id;\r\n\r\n        return id;\r\n    }\r\n\r\n    // Course Block: End\r\n\r\n    // Class Block: Start\r\n    function getClassById(uint256 id) public view returns (Class memory) {\r\n        uint256 pos = _posOfClasses[id];\r\n        require(pos > 0, \"class not found\");\r\n\r\n        return _allClasses[pos - 1];\r\n    }\r\n\r\n    function getAllClasses() external view onlyOwner returns (Class[] memory) {\r\n        uint256 length = _allClasses.length;\r\n        Class[] memory classes = new Class[](length);\r\n\r\n        for (uint256 idx; idx < length; ++idx) {\r\n            classes[idx] = _allClasses[idx];\r\n        }\r\n\r\n        return classes;\r\n    }\r\n\r\n    function getClassBySemester(\r\n        uint256 semester\r\n    ) external view returns (Class[] memory) {\r\n        uint256[] memory ids = _classIdsOfSemeter[semester];\r\n        uint256 count = ids.length;\r\n        Class[] memory classes = new Class[](count);\r\n\r\n        for (uint256 idx; idx < count; ++idx) {\r\n            classes[idx] = _allClasses[_posOfClasses[ids[idx]] - 1];\r\n        }\r\n\r\n        return classes;\r\n    }\r\n\r\n    function getAssignedClasses(\r\n        uint256 teacherTokenId\r\n    ) external view returns (Class[] memory) {\r\n        uint256 count = _assignedClassesOfTeacher[teacherTokenId].length;\r\n        Class[] memory result = new Class[](count);\r\n\r\n        for (uint256 idx; idx < count; ++idx) {\r\n            result[idx] = getClassById(\r\n                _assignedClassesOfTeacher[teacherTokenId][idx]\r\n            );\r\n        }\r\n\r\n        return result;\r\n    }\r\n\r\n    function createClass(\r\n        uint256 courseId,\r\n        uint256 completeAt,\r\n        uint256 maxSize,\r\n        uint256 teacherTokenId,\r\n        uint256 semester,\r\n        uint256 registerClassFee,\r\n        string memory uri\r\n    ) public onlyOwner returns (uint256) {\r\n        Course memory course = getCourseById(courseId);\r\n        // get nft => check expired date > completeAt\r\n        NftIdentityResponse memory nftTeacher = _nftIdentities.getNftOfTokenId(\r\n            teacherTokenId\r\n        );\r\n        uint256 nftTeacherRole = _nftIdentities.getTokenType(teacherTokenId);\r\n\r\n        require(nftTeacherRole == uint256(ROLE.TEACHER));\r\n        require(nftTeacher.nftIdentity.expiredAt > completeAt);\r\n        uint256 id = generateNewId(CLASS_ID);\r\n        _allClasses.push(\r\n            Class(\r\n                id,\r\n                courseId,\r\n                course.knowledgeBlockId,\r\n                course.prevCourseId,\r\n                course.credits,\r\n                completeAt,\r\n                maxSize,\r\n                teacherTokenId,\r\n                semester,\r\n                registerClassFee,\r\n                uri\r\n            )\r\n        );\r\n        _posOfClasses[id] = _allClasses.length;\r\n        _classIdsOfSemeter[semester].push(id);\r\n        _assignedClassesOfTeacher[teacherTokenId].push(id);\r\n        emit NewClassCreated(id);\r\n\r\n        return id;\r\n    }\r\n\r\n    function getRegisterFeeClassById(\r\n        uint256 tokenId\r\n    ) public view returns (uint256) {\r\n        uint256 pos = _posOfClasses[tokenId];\r\n        require(pos > 0);\r\n\r\n        return _allClasses[pos - 1].registerClassFee;\r\n    }\r\n    // Class Block: End\r\n}\r\n",
  "sourcePath": "E:\\learn\\learn-to-earn\\blockchain\\contracts\\NftSchool.sol",
  "compiler": {
    "name": "solc",
    "version": "0.8.13+commit.abaa5c0e.Emscripten.clang"
  },
  "schemaVersion": "3.4.13",
  "updatedAt": "2023-06-05T16:59:42.218Z",
  "networkType": "ethereum",
  "devdoc": {
    "kind": "dev",
    "methods": {},
    "version": 1
  },
  "userdoc": {
    "kind": "user",
    "methods": {},
    "version": 1
  }
}