{
  "contractName": "NftSchool",
  "abi": [
    {
      "inputs": [
        {
          "internalType": "address",
          "name": "nftIdentities",
          "type": "address"
        },
        {
          "internalType": "address",
          "name": "scoreAddr",
          "type": "address"
        },
        {
          "internalType": "string[]",
          "name": "knowledgeBlockNames",
          "type": "string[]"
        },
        {
          "internalType": "uint256[]",
          "name": "knowledgeBlockCredits",
          "type": "uint256[]"
        }
      ],
      "stateMutability": "nonpayable",
      "type": "constructor"
    },
    {
      "anonymous": false,
      "inputs": [
        {
          "indexed": true,
          "internalType": "address",
          "name": "account",
          "type": "address"
        },
        {
          "indexed": true,
          "internalType": "address",
          "name": "operator",
          "type": "address"
        },
        {
          "indexed": false,
          "internalType": "bool",
          "name": "approved",
          "type": "bool"
        }
      ],
      "name": "ApprovalForAll",
      "type": "event"
    },
    {
      "anonymous": false,
      "inputs": [
        {
          "indexed": true,
          "internalType": "address",
          "name": "operator",
          "type": "address"
        },
        {
          "indexed": true,
          "internalType": "address",
          "name": "from",
          "type": "address"
        },
        {
          "indexed": true,
          "internalType": "address",
          "name": "to",
          "type": "address"
        },
        {
          "indexed": false,
          "internalType": "uint256[]",
          "name": "ids",
          "type": "uint256[]"
        },
        {
          "indexed": false,
          "internalType": "uint256[]",
          "name": "values",
          "type": "uint256[]"
        }
      ],
      "name": "TransferBatch",
      "type": "event"
    },
    {
      "anonymous": false,
      "inputs": [
        {
          "indexed": true,
          "internalType": "address",
          "name": "operator",
          "type": "address"
        },
        {
          "indexed": true,
          "internalType": "address",
          "name": "from",
          "type": "address"
        },
        {
          "indexed": true,
          "internalType": "address",
          "name": "to",
          "type": "address"
        },
        {
          "indexed": false,
          "internalType": "uint256",
          "name": "id",
          "type": "uint256"
        },
        {
          "indexed": false,
          "internalType": "uint256",
          "name": "value",
          "type": "uint256"
        }
      ],
      "name": "TransferSingle",
      "type": "event"
    },
    {
      "anonymous": false,
      "inputs": [
        {
          "indexed": false,
          "internalType": "string",
          "name": "value",
          "type": "string"
        },
        {
          "indexed": true,
          "internalType": "uint256",
          "name": "id",
          "type": "uint256"
        }
      ],
      "name": "URI",
      "type": "event"
    },
    {
      "inputs": [],
      "name": "_isInitialize",
      "outputs": [
        {
          "internalType": "bool",
          "name": "",
          "type": "bool"
        }
      ],
      "stateMutability": "view",
      "type": "function",
      "constant": true
    },
    {
      "inputs": [
        {
          "internalType": "address",
          "name": "account",
          "type": "address"
        },
        {
          "internalType": "uint256",
          "name": "id",
          "type": "uint256"
        }
      ],
      "name": "balanceOf",
      "outputs": [
        {
          "internalType": "uint256",
          "name": "",
          "type": "uint256"
        }
      ],
      "stateMutability": "view",
      "type": "function",
      "constant": true
    },
    {
      "inputs": [
        {
          "internalType": "address[]",
          "name": "accounts",
          "type": "address[]"
        },
        {
          "internalType": "uint256[]",
          "name": "ids",
          "type": "uint256[]"
        }
      ],
      "name": "balanceOfBatch",
      "outputs": [
        {
          "internalType": "uint256[]",
          "name": "",
          "type": "uint256[]"
        }
      ],
      "stateMutability": "view",
      "type": "function",
      "constant": true
    },
    {
      "inputs": [
        {
          "internalType": "address",
          "name": "account",
          "type": "address"
        },
        {
          "internalType": "address",
          "name": "operator",
          "type": "address"
        }
      ],
      "name": "isApprovedForAll",
      "outputs": [
        {
          "internalType": "bool",
          "name": "",
          "type": "bool"
        }
      ],
      "stateMutability": "view",
      "type": "function",
      "constant": true
    },
    {
      "inputs": [],
      "name": "minimumGraduationScore",
      "outputs": [
        {
          "internalType": "uint256",
          "name": "",
          "type": "uint256"
        }
      ],
      "stateMutability": "view",
      "type": "function",
      "constant": true
    },
    {
      "inputs": [],
      "name": "registeredEndAt",
      "outputs": [
        {
          "internalType": "uint256",
          "name": "",
          "type": "uint256"
        }
      ],
      "stateMutability": "view",
      "type": "function",
      "constant": true
    },
    {
      "inputs": [],
      "name": "registeredStartAt",
      "outputs": [
        {
          "internalType": "uint256",
          "name": "",
          "type": "uint256"
        }
      ],
      "stateMutability": "view",
      "type": "function",
      "constant": true
    },
    {
      "inputs": [
        {
          "internalType": "address",
          "name": "from",
          "type": "address"
        },
        {
          "internalType": "address",
          "name": "to",
          "type": "address"
        },
        {
          "internalType": "uint256[]",
          "name": "ids",
          "type": "uint256[]"
        },
        {
          "internalType": "uint256[]",
          "name": "amounts",
          "type": "uint256[]"
        },
        {
          "internalType": "bytes",
          "name": "data",
          "type": "bytes"
        }
      ],
      "name": "safeBatchTransferFrom",
      "outputs": [],
      "stateMutability": "nonpayable",
      "type": "function"
    },
    {
      "inputs": [
        {
          "internalType": "address",
          "name": "from",
          "type": "address"
        },
        {
          "internalType": "address",
          "name": "to",
          "type": "address"
        },
        {
          "internalType": "uint256",
          "name": "id",
          "type": "uint256"
        },
        {
          "internalType": "uint256",
          "name": "amount",
          "type": "uint256"
        },
        {
          "internalType": "bytes",
          "name": "data",
          "type": "bytes"
        }
      ],
      "name": "safeTransferFrom",
      "outputs": [],
      "stateMutability": "nonpayable",
      "type": "function"
    },
    {
      "inputs": [],
      "name": "schoolYearEnd",
      "outputs": [
        {
          "internalType": "uint256",
          "name": "",
          "type": "uint256"
        }
      ],
      "stateMutability": "view",
      "type": "function",
      "constant": true
    },
    {
      "inputs": [
        {
          "internalType": "address",
          "name": "operator",
          "type": "address"
        },
        {
          "internalType": "bool",
          "name": "approved",
          "type": "bool"
        }
      ],
      "name": "setApprovalForAll",
      "outputs": [],
      "stateMutability": "nonpayable",
      "type": "function"
    },
    {
      "inputs": [
        {
          "internalType": "bytes4",
          "name": "interfaceId",
          "type": "bytes4"
        }
      ],
      "name": "supportsInterface",
      "outputs": [
        {
          "internalType": "bool",
          "name": "",
          "type": "bool"
        }
      ],
      "stateMutability": "view",
      "type": "function",
      "constant": true
    },
    {
      "inputs": [
        {
          "internalType": "uint256",
          "name": "tokenId",
          "type": "uint256"
        }
      ],
      "name": "uri",
      "outputs": [
        {
          "internalType": "string",
          "name": "",
          "type": "string"
        }
      ],
      "stateMutability": "view",
      "type": "function",
      "constant": true
    },
    {
      "inputs": [],
      "name": "yearId",
      "outputs": [
        {
          "internalType": "uint256",
          "name": "",
          "type": "uint256"
        }
      ],
      "stateMutability": "view",
      "type": "function",
      "constant": true
    },
    {
      "inputs": [
        {
          "internalType": "address",
          "name": "nftCertificates",
          "type": "address"
        }
      ],
      "name": "initialize",
      "outputs": [],
      "stateMutability": "nonpayable",
      "type": "function"
    },
    {
      "inputs": [
        {
          "internalType": "uint256",
          "name": "_schoolYearEnd",
          "type": "uint256"
        },
        {
          "internalType": "uint256",
          "name": "_registeredStartAt",
          "type": "uint256"
        },
        {
          "internalType": "uint256",
          "name": "_registeredEndAt",
          "type": "uint256"
        }
      ],
      "name": "initializeYear",
      "outputs": [],
      "stateMutability": "nonpayable",
      "type": "function"
    },
    {
      "inputs": [
        {
          "internalType": "uint256",
          "name": "_registeredStartAt",
          "type": "uint256"
        },
        {
          "internalType": "uint256",
          "name": "_registeredEndAt",
          "type": "uint256"
        }
      ],
      "name": "updateRegisteredTime",
      "outputs": [],
      "stateMutability": "nonpayable",
      "type": "function"
    },
    {
      "inputs": [
        {
          "internalType": "uint256",
          "name": "knowledgeBlock",
          "type": "uint256"
        },
        {
          "internalType": "uint256",
          "name": "credits",
          "type": "uint256"
        },
        {
          "internalType": "string",
          "name": "tokenURI",
          "type": "string"
        }
      ],
      "name": "createCourse",
      "outputs": [],
      "stateMutability": "nonpayable",
      "type": "function"
    },
    {
      "inputs": [
        {
          "internalType": "uint256",
          "name": "tokenId",
          "type": "uint256"
        },
        {
          "internalType": "uint256",
          "name": "credits",
          "type": "uint256"
        }
      ],
      "name": "updateCourse",
      "outputs": [],
      "stateMutability": "nonpayable",
      "type": "function"
    },
    {
      "inputs": [
        {
          "internalType": "uint256",
          "name": "tokenId",
          "type": "uint256"
        }
      ],
      "name": "burnToken",
      "outputs": [],
      "stateMutability": "nonpayable",
      "type": "function"
    },
    {
      "inputs": [],
      "name": "getRegisteredClasses",
      "outputs": [
        {
          "components": [
            {
              "internalType": "uint256",
              "name": "tokenId",
              "type": "uint256"
            },
            {
              "internalType": "uint256",
              "name": "courseId",
              "type": "uint256"
            },
            {
              "internalType": "uint256",
              "name": "knowledgeBlockId",
              "type": "uint256"
            },
            {
              "internalType": "uint256",
              "name": "credits",
              "type": "uint256"
            },
            {
              "internalType": "uint256",
              "name": "registeredStartAt",
              "type": "uint256"
            },
            {
              "internalType": "uint256",
              "name": "registeredEndAt",
              "type": "uint256"
            },
            {
              "internalType": "uint256",
              "name": "completeAt",
              "type": "uint256"
            },
            {
              "internalType": "uint256[]",
              "name": "requiredScore",
              "type": "uint256[]"
            },
            {
              "internalType": "uint256",
              "name": "maxSize",
              "type": "uint256"
            },
            {
              "internalType": "address",
              "name": "teacherAddr",
              "type": "address"
            }
          ],
          "internalType": "struct IConstant.NftClass[]",
          "name": "",
          "type": "tuple[]"
        },
        {
          "internalType": "string[]",
          "name": "",
          "type": "string[]"
        }
      ],
      "stateMutability": "view",
      "type": "function",
      "constant": true
    },
    {
      "inputs": [],
      "name": "getAllKnowledgeBlocks",
      "outputs": [
        {
          "components": [
            {
              "internalType": "uint256",
              "name": "id",
              "type": "uint256"
            },
            {
              "internalType": "string",
              "name": "name",
              "type": "string"
            },
            {
              "internalType": "uint256",
              "name": "credits",
              "type": "uint256"
            }
          ],
          "internalType": "struct IConstant.KnowledgeBlock[]",
          "name": "",
          "type": "tuple[]"
        }
      ],
      "stateMutability": "view",
      "type": "function",
      "constant": true
    },
    {
      "inputs": [
        {
          "internalType": "uint256",
          "name": "id",
          "type": "uint256"
        }
      ],
      "name": "getKnowledgeBlockById",
      "outputs": [
        {
          "components": [
            {
              "internalType": "uint256",
              "name": "id",
              "type": "uint256"
            },
            {
              "internalType": "string",
              "name": "name",
              "type": "string"
            },
            {
              "internalType": "uint256",
              "name": "credits",
              "type": "uint256"
            }
          ],
          "internalType": "struct IConstant.KnowledgeBlock",
          "name": "",
          "type": "tuple"
        }
      ],
      "stateMutability": "view",
      "type": "function",
      "constant": true
    },
    {
      "inputs": [
        {
          "internalType": "uint256",
          "name": "tokenId",
          "type": "uint256"
        }
      ],
      "name": "getNftClass",
      "outputs": [
        {
          "components": [
            {
              "internalType": "uint256",
              "name": "tokenId",
              "type": "uint256"
            },
            {
              "internalType": "uint256",
              "name": "courseId",
              "type": "uint256"
            },
            {
              "internalType": "uint256",
              "name": "knowledgeBlockId",
              "type": "uint256"
            },
            {
              "internalType": "uint256",
              "name": "credits",
              "type": "uint256"
            },
            {
              "internalType": "uint256",
              "name": "registeredStartAt",
              "type": "uint256"
            },
            {
              "internalType": "uint256",
              "name": "registeredEndAt",
              "type": "uint256"
            },
            {
              "internalType": "uint256",
              "name": "completeAt",
              "type": "uint256"
            },
            {
              "internalType": "uint256[]",
              "name": "requiredScore",
              "type": "uint256[]"
            },
            {
              "internalType": "uint256",
              "name": "maxSize",
              "type": "uint256"
            },
            {
              "internalType": "address",
              "name": "teacherAddr",
              "type": "address"
            }
          ],
          "internalType": "struct IConstant.NftClass",
          "name": "",
          "type": "tuple"
        },
        {
          "internalType": "string",
          "name": "",
          "type": "string"
        }
      ],
      "stateMutability": "view",
      "type": "function",
      "constant": true
    },
    {
      "inputs": [
        {
          "internalType": "uint256",
          "name": "_yearId",
          "type": "uint256"
        }
      ],
      "name": "getAllNftClasses",
      "outputs": [
        {
          "components": [
            {
              "internalType": "uint256",
              "name": "tokenId",
              "type": "uint256"
            },
            {
              "internalType": "uint256",
              "name": "courseId",
              "type": "uint256"
            },
            {
              "internalType": "uint256",
              "name": "knowledgeBlockId",
              "type": "uint256"
            },
            {
              "internalType": "uint256",
              "name": "credits",
              "type": "uint256"
            },
            {
              "internalType": "uint256",
              "name": "registeredStartAt",
              "type": "uint256"
            },
            {
              "internalType": "uint256",
              "name": "registeredEndAt",
              "type": "uint256"
            },
            {
              "internalType": "uint256",
              "name": "completeAt",
              "type": "uint256"
            },
            {
              "internalType": "uint256[]",
              "name": "requiredScore",
              "type": "uint256[]"
            },
            {
              "internalType": "uint256",
              "name": "maxSize",
              "type": "uint256"
            },
            {
              "internalType": "address",
              "name": "teacherAddr",
              "type": "address"
            }
          ],
          "internalType": "struct IConstant.NftClass[]",
          "name": "",
          "type": "tuple[]"
        },
        {
          "internalType": "string[]",
          "name": "",
          "type": "string[]"
        }
      ],
      "stateMutability": "view",
      "type": "function",
      "constant": true
    },
    {
      "inputs": [],
      "name": "getAllCourses",
      "outputs": [
        {
          "components": [
            {
              "internalType": "uint256",
              "name": "tokenId",
              "type": "uint256"
            },
            {
              "internalType": "uint256",
              "name": "knowledgeBlockId",
              "type": "uint256"
            },
            {
              "internalType": "uint256",
              "name": "credits",
              "type": "uint256"
            },
            {
              "internalType": "uint256",
              "name": "status",
              "type": "uint256"
            }
          ],
          "internalType": "struct IConstant.NftCourse[]",
          "name": "",
          "type": "tuple[]"
        }
      ],
      "stateMutability": "view",
      "type": "function",
      "constant": true
    },
    {
      "inputs": [
        {
          "internalType": "uint256",
          "name": "tokenId",
          "type": "uint256"
        }
      ],
      "name": "getCourse",
      "outputs": [
        {
          "components": [
            {
              "internalType": "uint256",
              "name": "tokenId",
              "type": "uint256"
            },
            {
              "internalType": "uint256",
              "name": "knowledgeBlockId",
              "type": "uint256"
            },
            {
              "internalType": "uint256",
              "name": "credits",
              "type": "uint256"
            },
            {
              "internalType": "uint256",
              "name": "status",
              "type": "uint256"
            }
          ],
          "internalType": "struct IConstant.NftCourse",
          "name": "",
          "type": "tuple"
        },
        {
          "internalType": "string",
          "name": "",
          "type": "string"
        }
      ],
      "stateMutability": "view",
      "type": "function",
      "constant": true
    },
    {
      "inputs": [
        {
          "internalType": "uint256",
          "name": "tokenId",
          "type": "uint256"
        }
      ],
      "name": "checkTokenExists",
      "outputs": [
        {
          "internalType": "bool",
          "name": "",
          "type": "bool"
        }
      ],
      "stateMutability": "view",
      "type": "function",
      "constant": true
    },
    {
      "inputs": [
        {
          "internalType": "uint256",
          "name": "tokenId",
          "type": "uint256"
        },
        {
          "internalType": "uint256",
          "name": "requiredType",
          "type": "uint256"
        }
      ],
      "name": "checkTokenOfTypeExists",
      "outputs": [
        {
          "internalType": "bool",
          "name": "",
          "type": "bool"
        }
      ],
      "stateMutability": "view",
      "type": "function",
      "constant": true
    },
    {
      "inputs": [],
      "name": "checkInRegisterDate",
      "outputs": [
        {
          "internalType": "bool",
          "name": "",
          "type": "bool"
        }
      ],
      "stateMutability": "view",
      "type": "function",
      "constant": true
    }
  ],
  "bytecode": "0x608060405260405180602001604052806000815250600390805190602001906200002b92919062000264565b506101f46009553480156200003f57600080fd5b5060405162005cc638038062005cc6833981810160405281019062000065919062000723565b604051806020016040528060008152508062000087816200024860201b60201c565b5033600560006101000a81548173ffffffffffffffffffffffffffffffffffffffff021916908373ffffffffffffffffffffffffffffffffffffffff1602179055505083600b60006101000a81548173ffffffffffffffffffffffffffffffffffffffff021916908373ffffffffffffffffffffffffffffffffffffffff16021790555082600d60006101000a81548173ffffffffffffffffffffffffffffffffffffffff021916908373ffffffffffffffffffffffffffffffffffffffff16021790555042600e8190555060008251905060005b818110156200023c576013604051806060016040528060018462000181919062000802565b81526020018684815181106200019c576200019b6200085f565b5b60200260200101518152602001858481518110620001bf57620001be6200085f565b5b602002602001015181525090806001815401808255809150506001900390600052602060002090600302016000909190919091506000820151816000015560208201518160010190805190602001906200021b92919062000264565b506040820151816002015550508062000234906200088e565b90506200015c565b5050505050506200093f565b80600290805190602001906200026092919062000264565b5050565b82805462000272906200090a565b90600052602060002090601f016020900481019282620002965760008555620002e2565b82601f10620002b157805160ff1916838001178555620002e2565b82800160010185558215620002e2579182015b82811115620002e1578251825591602001919060010190620002c4565b5b509050620002f19190620002f5565b5090565b5b8082111562000310576000816000905550600101620002f6565b5090565b6000604051905090565b600080fd5b600080fd5b600073ffffffffffffffffffffffffffffffffffffffff82169050919050565b6000620003558262000328565b9050919050565b620003678162000348565b81146200037357600080fd5b50565b60008151905062000387816200035c565b92915050565b600080fd5b6000601f19601f8301169050919050565b7f4e487b7100000000000000000000000000000000000000000000000000000000600052604160045260246000fd5b620003dd8262000392565b810181811067ffffffffffffffff82111715620003ff57620003fe620003a3565b5b80604052505050565b60006200041462000314565b9050620004228282620003d2565b919050565b600067ffffffffffffffff821115620004455762000444620003a3565b5b602082029050602081019050919050565b600080fd5b600080fd5b600067ffffffffffffffff8211156200047e576200047d620003a3565b5b620004898262000392565b9050602081019050919050565b60005b83811015620004b657808201518184015260208101905062000499565b83811115620004c6576000848401525b50505050565b6000620004e3620004dd8462000460565b62000408565b9050828152602081018484840111156200050257620005016200045b565b5b6200050f84828562000496565b509392505050565b600082601f8301126200052f576200052e6200038d565b5b815162000541848260208601620004cc565b91505092915050565b6000620005616200055b8462000427565b62000408565b9050808382526020820190506020840283018581111562000587576200058662000456565b5b835b81811015620005d557805167ffffffffffffffff811115620005b057620005af6200038d565b5b808601620005bf898262000517565b8552602085019450505060208101905062000589565b5050509392505050565b600082601f830112620005f757620005f66200038d565b5b8151620006098482602086016200054a565b91505092915050565b600067ffffffffffffffff82111562000630576200062f620003a3565b5b602082029050602081019050919050565b6000819050919050565b620006568162000641565b81146200066257600080fd5b50565b60008151905062000676816200064b565b92915050565b6000620006936200068d8462000612565b62000408565b90508083825260208201905060208402830185811115620006b957620006b862000456565b5b835b81811015620006e65780620006d1888262000665565b845260208401935050602081019050620006bb565b5050509392505050565b600082601f8301126200070857620007076200038d565b5b81516200071a8482602086016200067c565b91505092915050565b6000806000806080858703121562000740576200073f6200031e565b5b6000620007508782880162000376565b9450506020620007638782880162000376565b935050604085015167ffffffffffffffff81111562000787576200078662000323565b5b6200079587828801620005df565b925050606085015167ffffffffffffffff811115620007b957620007b862000323565b5b620007c787828801620006f0565b91505092959194509250565b7f4e487b7100000000000000000000000000000000000000000000000000000000600052601160045260246000fd5b60006200080f8262000641565b91506200081c8362000641565b9250827fffffffffffffffffffffffffffffffffffffffffffffffffffffffffffffffff03821115620008545762000853620007d3565b5b828201905092915050565b7f4e487b7100000000000000000000000000000000000000000000000000000000600052603260045260246000fd5b60006200089b8262000641565b91507fffffffffffffffffffffffffffffffffffffffffffffffffffffffffffffffff8203620008d057620008cf620007d3565b5b600182019050919050565b7f4e487b7100000000000000000000000000000000000000000000000000000000600052602260045260246000fd5b600060028204905060018216806200092357607f821691505b602082108103620009395762000938620008db565b5b50919050565b615377806200094f6000396000f3fe608060405234801561001057600080fd5b50600436106101d95760003560e01c80635fe0377911610104578063a22cb465116100a2578063c4d66de811610071578063c4d66de814610594578063df4e4891146105b0578063e985e9c5146105ce578063f242432a146105fe576101d9565b8063a22cb4651461050c578063af0d1cb514610528578063b564529f14610546578063bfd5621e14610564576101d9565b80637b47ec1a116100de5780637b47ec1a1461048557806382ae3c97146104a15780638f03802d146104bd5780638fc92b0f146104db576101d9565b80635fe037791461042a5780636d6ffaf61461044857806375f1a6e314610467576101d9565b806328abafe81161017c5780634a733c0e1161014b5780634a733c0e1461038f5780634e1273f4146103ab5780634eeb177f146103db5780635f7b9d731461040c576101d9565b806328abafe81461030b57806329f60c4f146103275780632eb2c2d6146103435780634799f19d1461035f576101d9565b80630b91e28d116101b85780630b91e28d1461025c5780630e89341c1461028d57806311394f56146102bd5780631a53e484146102db576101d9565b8062fdd58e146101de57806301ffc9a71461020e57806304e48bd11461023e575b600080fd5b6101f860048036038101906101f391906130d7565b61061a565b6040516102059190613126565b60405180910390f35b61022860048036038101906102239190613199565b6106e2565b60405161023591906131e1565b60405180910390f35b6102466107c4565b604051610253919061330f565b60405180910390f35b61027660048036038101906102719190613331565b6108a5565b60405161028492919061344c565b60405180910390f35b6102a760048036038101906102a29190613331565b610993565b6040516102b4919061347c565b60405180910390f35b6102c5610a78565b6040516102d29190613126565b60405180910390f35b6102f560048036038101906102f0919061349e565b610a7e565b60405161030291906131e1565b60405180910390f35b6103256004803603810190610320919061349e565b610ace565b005b610341600480360381019061033c919061349e565b610c21565b005b61035d600480360381019061035891906136db565b610d13565b005b61037960048036038101906103749190613331565b610db4565b6040516103869190613844565b60405180910390f35b6103a960048036038101906103a49190613907565b610ea2565b005b6103c560048036038101906103c09190613a39565b610f1b565b6040516103d29190613b60565b60405180910390f35b6103f560048036038101906103f09190613331565b611034565b604051610403929190613e5e565b60405180910390f35b6104146110e8565b6040516104219190613fa7565b60405180910390f35b6104326111ed565b60405161043f9190613126565b60405180910390f35b6104506111f3565b60405161045e929190613e5e565b60405180910390f35b61046f6112a8565b60405161047c91906131e1565b60405180910390f35b61049f600480360381019061049a9190613331565b6112c3565b005b6104bb60048036038101906104b69190613fc9565b6113a6565b005b6104c56114c6565b6040516104d29190613126565b60405180910390f35b6104f560048036038101906104f09190613331565b6114cc565b6040516105039291906140f6565b60405180910390f35b61052660048036038101906105219190614159565b611691565b005b6105306116a7565b60405161053d9190613126565b60405180910390f35b61054e6116ad565b60405161055b91906131e1565b60405180910390f35b61057e60048036038101906105799190613331565b6116c0565b60405161058b91906131e1565b60405180910390f35b6105ae60048036038101906105a99190614199565b611704565b005b6105b86117d7565b6040516105c59190613126565b60405180910390f35b6105e860048036038101906105e391906141c6565b6117dd565b6040516105f591906131e1565b60405180910390f35b61061860048036038101906106139190614206565b611871565b005b60008073ffffffffffffffffffffffffffffffffffffffff168373ffffffffffffffffffffffffffffffffffffffff160361068a576040517f08c379a00000000000000000000000000000000000000000000000000000000081526004016106819061430f565b60405180910390fd5b60008083815260200190815260200160002060008473ffffffffffffffffffffffffffffffffffffffff1673ffffffffffffffffffffffffffffffffffffffff16815260200190815260200160002054905092915050565b60007fd9b67a26000000000000000000000000000000000000000000000000000000007bffffffffffffffffffffffffffffffffffffffffffffffffffffffff1916827bffffffffffffffffffffffffffffffffffffffffffffffffffffffff191614806107ad57507f0e89341c000000000000000000000000000000000000000000000000000000007bffffffffffffffffffffffffffffffffffffffffffffffffffffffff1916827bffffffffffffffffffffffffffffffffffffffffffffffffffffffff1916145b806107bd57506107bc82611912565b5b9050919050565b60603373ffffffffffffffffffffffffffffffffffffffff16600560009054906101000a900473ffffffffffffffffffffffffffffffffffffffff1673ffffffffffffffffffffffffffffffffffffffff161461082057600080fd5b6014805480602002602001604051908101604052809291908181526020016000905b8282101561089c578382906000526020600020906004020160405180608001604052908160008201548152602001600182015481526020016002820154815260200160038201548152505081526020019060010190610842565b50505050905090565b6108ad612eda565b60606000601660006001815260200190815260200160002060008581526020019081526020016000205490506000811161091c576040517f08c379a00000000000000000000000000000000000000000000000000000000081526004016109139061437b565b60405180910390fd5b601460018261092b91906143ca565b8154811061093c5761093b6143fe565b5b906000526020600020906004020161095385610993565b8160405180608001604052908160008201548152602001600182015481526020016002820154815260200160038201548152505091509250925050915091565b606060006004600084815260200190815260200160002080546109b59061445c565b80601f01602080910402602001604051908101604052809291908181526020018280546109e19061445c565b8015610a2e5780601f10610a0357610100808354040283529160200191610a2e565b820191906000526020600020905b815481529060010190602001808311610a1157829003601f168201915b505050505090506000815111610a4c57610a478361197c565b610a70565b600381604051602001610a6092919061455d565b6040516020818303038152906040525b915050919050565b600e5481565b600080610a8a84611a10565b90506000601660008381526020019081526020016000206000868152602001908152602001600020549050600081118015610ac457508382145b9250505092915050565b3373ffffffffffffffffffffffffffffffffffffffff16600560009054906101000a900473ffffffffffffffffffffffffffffffffffffffff1673ffffffffffffffffffffffffffffffffffffffff1614610b2857600080fd5b600e544211610b3657600080fd5b60008111610b79576040517f08c379a0000000000000000000000000000000000000000000000000000000008152600401610b70906145cd565b60405180910390fd5b60006016600060018152602001908152602001600020600084815260200190815260200160002054905060008111610be6576040517f08c379a0000000000000000000000000000000000000000000000000000000008152600401610bdd9061437b565b60405180910390fd5b816014600183610bf691906143ca565b81548110610c0757610c066143fe565b5b906000526020600020906004020160020181905550505050565b3373ffffffffffffffffffffffffffffffffffffffff16600560009054906101000a900473ffffffffffffffffffffffffffffffffffffffff1673ffffffffffffffffffffffffffffffffffffffff1614610c7b57600080fd5b818111610cbd576040517f08c379a0000000000000000000000000000000000000000000000000000000008152600401610cb49061465f565b60405180910390fd5b80600e5411610d01576040517f08c379a0000000000000000000000000000000000000000000000000000000008152600401610cf8906146f1565b60405180910390fd5b81600f81905550806010819055505050565b610d1b611a1e565b73ffffffffffffffffffffffffffffffffffffffff168573ffffffffffffffffffffffffffffffffffffffff161480610d615750610d6085610d5b611a1e565b6117dd565b5b610da0576040517f08c379a0000000000000000000000000000000000000000000000000000000008152600401610d9790614783565b60405180910390fd5b610dad8585858585611a26565b5050505050565b610dbc612f02565b6013600183610dcb91906143ca565b81548110610ddc57610ddb6143fe565b5b906000526020600020906003020160405180606001604052908160008201548152602001600182018054610e0f9061445c565b80601f0160208091040260200160405190810160405280929190818152602001828054610e3b9061445c565b8015610e885780601f10610e5d57610100808354040283529160200191610e88565b820191906000526020600020905b815481529060010190602001808311610e6b57829003601f168201915b505050505081526020016002820154815250509050919050565b3373ffffffffffffffffffffffffffffffffffffffff16600560009054906101000a900473ffffffffffffffffffffffffffffffffffffffff1673ffffffffffffffffffffffffffffffffffffffff1614610efc57600080fd5b600e544211610f0a57600080fd5b610f15838383611d47565b50505050565b60608151835114610f61576040517f08c379a0000000000000000000000000000000000000000000000000000000008152600401610f5890614815565b60405180910390fd5b6000835167ffffffffffffffff811115610f7e57610f7d6134e3565b5b604051908082528060200260200182016040528015610fac5781602001602082028036833780820191505090505b50905060005b845181101561102957610ff9858281518110610fd157610fd06143fe565b5b6020026020010151858381518110610fec57610feb6143fe565b5b602002602001015161061a565b82828151811061100c5761100b6143fe565b5b6020026020010181815250508061102290614835565b9050610fb2565b508091505092915050565b6060803373ffffffffffffffffffffffffffffffffffffffff16600560009054906101000a900473ffffffffffffffffffffffffffffffffffffffff1673ffffffffffffffffffffffffffffffffffffffff161461109157600080fd5b6011548311156110d6576040517f08c379a00000000000000000000000000000000000000000000000000000000081526004016110cd906148c9565b60405180910390fd5b6110df83611d90565b91509150915091565b60606013805480602002602001604051908101604052809291908181526020016000905b828210156111e45783829060005260206000209060030201604051806060016040529081600082015481526020016001820180546111499061445c565b80601f01602080910402602001604051908101604052809291908181526020018280546111759061445c565b80156111c25780601f10611197576101008083540402835291602001916111c2565b820191906000526020600020905b8154815290600101906020018083116111a557829003601f168201915b505050505081526020016002820154815250508152602001906001019061110c565b50505050905090565b60095481565b606080600560009054906101000a900473ffffffffffffffffffffffffffffffffffffffff1673ffffffffffffffffffffffffffffffffffffffff163373ffffffffffffffffffffffffffffffffffffffff16148061125657506112556112a8565b5b611295576040517f08c379a000000000000000000000000000000000000000000000000000000000815260040161128c90614935565b60405180910390fd5b6112a0601154611d90565b915091509091565b6000600f5442101580156112be57506010544211155b905090565b3373ffffffffffffffffffffffffffffffffffffffff16600560009054906101000a900473ffffffffffffffffffffffffffffffffffffffff1673ffffffffffffffffffffffffffffffffffffffff161461131d57600080fd5b600e54421161132b57600080fd5b80611335816116c0565b611374576040517f08c379a000000000000000000000000000000000000000000000000000000000815260040161136b906149a1565b60405180910390fd5b6113a2600560009054906101000a900473ffffffffffffffffffffffffffffffffffffffff16836001611f52565b5050565b3373ffffffffffffffffffffffffffffffffffffffff16600560009054906101000a900473ffffffffffffffffffffffffffffffffffffffff1673ffffffffffffffffffffffffffffffffffffffff161461140057600080fd5b600e54421161140e57600080fd5b818111611450576040517f08c379a00000000000000000000000000000000000000000000000000000000081526004016114479061465f565b60405180910390fd5b808311611492576040517f08c379a0000000000000000000000000000000000000000000000000000000008152600401611489906146f1565b60405180910390fd5b82600e8190555081600f81905550806010819055506001601160008282546114ba91906149c1565b92505081905550505050565b60105481565b6114d4612f23565b606060006016600060028152602001908152602001600020600085815260200190815260200160002054905060008111611543576040517f08c379a000000000000000000000000000000000000000000000000000000000815260040161153a9061437b565b60405180910390fd5b601560018261155291906143ca565b81548110611563576115626143fe565b5b90600052602060002090600a020161157a85610993565b8160405180610140016040529081600082015481526020016001820154815260200160028201548152602001600382015481526020016004820154815260200160058201548152602001600682015481526020016007820180548060200260200160405190810160405280929190818152602001828054801561161c57602002820191906000526020600020905b815481526020019060010190808311611608575b50505050508152602001600882015481526020016009820160009054906101000a900473ffffffffffffffffffffffffffffffffffffffff1673ffffffffffffffffffffffffffffffffffffffff1673ffffffffffffffffffffffffffffffffffffffff168152505091509250925050915091565b6116a361169c611a1e565b8383612198565b5050565b600f5481565b600d60149054906101000a900460ff1681565b6000806116cc83611a10565b905060006016600083815260200190815260200160002060008581526020019081526020016000205490506000811192505050919050565b3373ffffffffffffffffffffffffffffffffffffffff16600560009054906101000a900473ffffffffffffffffffffffffffffffffffffffff1673ffffffffffffffffffffffffffffffffffffffff161461175e57600080fd5b600d60149054906101000a900460ff161561177857600080fd5b6001600d60146101000a81548160ff02191690831515021790555080600c60006101000a81548173ffffffffffffffffffffffffffffffffffffffff021916908373ffffffffffffffffffffffffffffffffffffffff16021790555050565b60115481565b6000600160008473ffffffffffffffffffffffffffffffffffffffff1673ffffffffffffffffffffffffffffffffffffffff16815260200190815260200160002060008373ffffffffffffffffffffffffffffffffffffffff1673ffffffffffffffffffffffffffffffffffffffff16815260200190815260200160002060009054906101000a900460ff16905092915050565b611879611a1e565b73ffffffffffffffffffffffffffffffffffffffff168573ffffffffffffffffffffffffffffffffffffffff1614806118bf57506118be856118b9611a1e565b6117dd565b5b6118fe576040517f08c379a00000000000000000000000000000000000000000000000000000000081526004016118f590614783565b60405180910390fd5b61190b8585858585612304565b5050505050565b60007f01ffc9a7000000000000000000000000000000000000000000000000000000007bffffffffffffffffffffffffffffffffffffffffffffffffffffffff1916827bffffffffffffffffffffffffffffffffffffffffffffffffffffffff1916149050919050565b60606002805461198b9061445c565b80601f01602080910402602001604051908101604052809291908181526020018280546119b79061445c565b8015611a045780601f106119d957610100808354040283529160200191611a04565b820191906000526020600020905b8154815290600101906020018083116119e757829003601f168201915b50505050509050919050565b6000601082901c9050919050565b600033905090565b8151835114611a6a576040517f08c379a0000000000000000000000000000000000000000000000000000000008152600401611a6190614a89565b60405180910390fd5b600073ffffffffffffffffffffffffffffffffffffffff168473ffffffffffffffffffffffffffffffffffffffff1603611ad9576040517f08c379a0000000000000000000000000000000000000000000000000000000008152600401611ad090614b1b565b60405180910390fd5b6000611ae3611a1e565b9050611af381878787878761259f565b60005b8451811015611ca4576000858281518110611b1457611b136143fe565b5b602002602001015190506000858381518110611b3357611b326143fe565b5b60200260200101519050600080600084815260200190815260200160002060008b73ffffffffffffffffffffffffffffffffffffffff1673ffffffffffffffffffffffffffffffffffffffff16815260200190815260200160002054905081811015611bd4576040517f08c379a0000000000000000000000000000000000000000000000000000000008152600401611bcb90614bad565b60405180910390fd5b81810360008085815260200190815260200160002060008c73ffffffffffffffffffffffffffffffffffffffff1673ffffffffffffffffffffffffffffffffffffffff168152602001908152602001600020819055508160008085815260200190815260200160002060008b73ffffffffffffffffffffffffffffffffffffffff1673ffffffffffffffffffffffffffffffffffffffff1681526020019081526020016000206000828254611c8991906149c1565b9250508190555050505080611c9d90614835565b9050611af6565b508473ffffffffffffffffffffffffffffffffffffffff168673ffffffffffffffffffffffffffffffffffffffff168273ffffffffffffffffffffffffffffffffffffffff167f4a39dc06d4c0dbc64b70af90fd698a233a518aa5d07e595d983b8c0526c8f7fb8787604051611d1b929190614bcd565b60405180910390a4611d318187878787876125a7565b611d3f8187878787876125af565b505050505050565b600080611d78600560009054906101000a900473ffffffffffffffffffffffffffffffffffffffff16600185612786565b9050611d8581868661289f565b809150509392505050565b6060803373ffffffffffffffffffffffffffffffffffffffff16600560009054906101000a900473ffffffffffffffffffffffffffffffffffffffff1673ffffffffffffffffffffffffffffffffffffffff1614611ded57600080fd5b60006012600085815260200190815260200160002080549050905060008167ffffffffffffffff811115611e2457611e236134e3565b5b604051908082528060200260200182016040528015611e5d57816020015b611e4a612f23565b815260200190600190039081611e425790505b50905060008267ffffffffffffffff811115611e7c57611e7b6134e3565b5b604051908082528060200260200182016040528015611eaf57816020015b6060815260200190600190039081611e9a5790505b50905060005b838111611f4357611ef66012600060115481526020019081526020016000208281548110611ee657611ee56143fe565b5b90600052602060002001546114cc565b848381518110611f0957611f086143fe565b5b60200260200101848481518110611f2357611f226143fe565b5b60200260200101829052829052505080611f3c90614835565b9050611eb5565b50818194509450505050915091565b600073ffffffffffffffffffffffffffffffffffffffff168373ffffffffffffffffffffffffffffffffffffffff1603611fc1576040517f08c379a0000000000000000000000000000000000000000000000000000000008152600401611fb890614c76565b60405180910390fd5b6000611fcb611a1e565b90506000611fd8846129db565b90506000611fe5846129db565b90506120058387600085856040518060200160405280600081525061259f565b600080600087815260200190815260200160002060008873ffffffffffffffffffffffffffffffffffffffff1673ffffffffffffffffffffffffffffffffffffffff1681526020019081526020016000205490508481101561209c576040517f08c379a000000000000000000000000000000000000000000000000000000000815260040161209390614d08565b60405180910390fd5b84810360008088815260200190815260200160002060008973ffffffffffffffffffffffffffffffffffffffff1673ffffffffffffffffffffffffffffffffffffffff16815260200190815260200160002081905550600073ffffffffffffffffffffffffffffffffffffffff168773ffffffffffffffffffffffffffffffffffffffff168573ffffffffffffffffffffffffffffffffffffffff167fc3d58168c5ae7397731d063d5bbf3d657854427343f4c083240f7aacaa2d0f628989604051612169929190614d28565b60405180910390a461218f848860008686604051806020016040528060008152506125a7565b50505050505050565b8173ffffffffffffffffffffffffffffffffffffffff168373ffffffffffffffffffffffffffffffffffffffff1603612206576040517f08c379a00000000000000000000000000000000000000000000000000000000081526004016121fd90614dc3565b60405180910390fd5b80600160008573ffffffffffffffffffffffffffffffffffffffff1673ffffffffffffffffffffffffffffffffffffffff16815260200190815260200160002060008473ffffffffffffffffffffffffffffffffffffffff1673ffffffffffffffffffffffffffffffffffffffff16815260200190815260200160002060006101000a81548160ff0219169083151502179055508173ffffffffffffffffffffffffffffffffffffffff168373ffffffffffffffffffffffffffffffffffffffff167f17307eab39ab6107e8899845ad3d59bd9653f200f220920489ca2b5937696c31836040516122f791906131e1565b60405180910390a3505050565b600073ffffffffffffffffffffffffffffffffffffffff168473ffffffffffffffffffffffffffffffffffffffff1603612373576040517f08c379a000000000000000000000000000000000000000000000000000000000815260040161236a90614b1b565b60405180910390fd5b600061237d611a1e565b9050600061238a856129db565b90506000612397856129db565b90506123a783898985858961259f565b600080600088815260200190815260200160002060008a73ffffffffffffffffffffffffffffffffffffffff1673ffffffffffffffffffffffffffffffffffffffff1681526020019081526020016000205490508581101561243e576040517f08c379a000000000000000000000000000000000000000000000000000000000815260040161243590614bad565b60405180910390fd5b85810360008089815260200190815260200160002060008b73ffffffffffffffffffffffffffffffffffffffff1673ffffffffffffffffffffffffffffffffffffffff168152602001908152602001600020819055508560008089815260200190815260200160002060008a73ffffffffffffffffffffffffffffffffffffffff1673ffffffffffffffffffffffffffffffffffffffff16815260200190815260200160002060008282546124f391906149c1565b925050819055508773ffffffffffffffffffffffffffffffffffffffff168973ffffffffffffffffffffffffffffffffffffffff168573ffffffffffffffffffffffffffffffffffffffff167fc3d58168c5ae7397731d063d5bbf3d657854427343f4c083240f7aacaa2d0f628a8a604051612570929190614d28565b60405180910390a4612586848a8a86868a6125a7565b612594848a8a8a8a8a612a55565b505050505050505050565b505050505050565b505050505050565b6125ce8473ffffffffffffffffffffffffffffffffffffffff16612c2c565b1561277e578373ffffffffffffffffffffffffffffffffffffffff1663bc197c8187878686866040518663ffffffff1660e01b8152600401612614959493929190614e47565b6020604051808303816000875af192505050801561265057506040513d601f19601f8201168201806040525081019061264d9190614ec4565b60015b6126f55761265c614efe565b806308c379a0036126b85750612670614f20565b8061267b57506126ba565b806040517f08c379a00000000000000000000000000000000000000000000000000000000081526004016126af919061347c565b60405180910390fd5b505b6040517f08c379a00000000000000000000000000000000000000000000000000000000081526004016126ec90615022565b60405180910390fd5b63bc197c8160e01b7bffffffffffffffffffffffffffffffffffffffffffffffffffffffff1916817bffffffffffffffffffffffffffffffffffffffffffffffffffffffff19161461277c576040517f08c379a0000000000000000000000000000000000000000000000000000000008152600401612773906150b4565b60405180910390fd5b505b505050505050565b600060078260405161279891906150d4565b908152602001604051809103902060009054906101000a900460ff16156127f4576040517f08c379a00000000000000000000000000000000000000000000000000000000081526004016127eb90615137565b60405180910390fd5b60006127ff84612c4f565b9050612853858260016000368080601f016020809104026020016040519081016040528093929190818152602001838380828437600081840152601f19601f82011690508083019250505050505050612c9a565b61285d8184612e4a565b600160078460405161286f91906150d4565b908152602001604051809103902060006101000a81548160ff021916908315150217905550809150509392505050565b6013805490508211156128e7576040517f08c379a00000000000000000000000000000000000000000000000000000000081526004016128de906151a3565b60405180910390fd5b6000811161292a576040517f08c379a000000000000000000000000000000000000000000000000000000000815260040161292190615235565b60405180910390fd5b60006040518060800160405280858152602001848152602001838152602001600181525090506014819080600181540180825580915050600190039060005260206000209060040201600090919091909150600082015181600001556020820151816001015560408201518160020155606082015181600301555050601480549050601660006001815260200190815260200160002060008681526020019081526020016000208190555050505050565b60606000600167ffffffffffffffff8111156129fa576129f96134e3565b5b604051908082528060200260200182016040528015612a285781602001602082028036833780820191505090505b5090508281600081518110612a4057612a3f6143fe565b5b60200260200101818152505080915050919050565b612a748473ffffffffffffffffffffffffffffffffffffffff16612c2c565b15612c24578373ffffffffffffffffffffffffffffffffffffffff1663f23a6e6187878686866040518663ffffffff1660e01b8152600401612aba959493929190615255565b6020604051808303816000875af1925050508015612af657506040513d601f19601f82011682018060405250810190612af39190614ec4565b60015b612b9b57612b02614efe565b806308c379a003612b5e5750612b16614f20565b80612b215750612b60565b806040517f08c379a0000000000000000000000000000000000000000000000000000000008152600401612b55919061347c565b60405180910390fd5b505b6040517f08c379a0000000000000000000000000000000000000000000000000000000008152600401612b9290615022565b60405180910390fd5b63f23a6e6160e01b7bffffffffffffffffffffffffffffffffffffffffffffffffffffffff1916817bffffffffffffffffffffffffffffffffffffffffffffffffffffffff191614612c22576040517f08c379a0000000000000000000000000000000000000000000000000000000008152600401612c19906150b4565b60405180910390fd5b505b505050505050565b6000808273ffffffffffffffffffffffffffffffffffffffff163b119050919050565b6000612c6c60066000848152602001908152602001600020612eb6565b6000612c8960066000858152602001908152602001600020612ecc565b905080601084901b17915050919050565b600073ffffffffffffffffffffffffffffffffffffffff168473ffffffffffffffffffffffffffffffffffffffff1603612d09576040517f08c379a0000000000000000000000000000000000000000000000000000000008152600401612d0090615321565b60405180910390fd5b6000612d13611a1e565b90506000612d20856129db565b90506000612d2d856129db565b9050612d3e8360008985858961259f565b8460008088815260200190815260200160002060008973ffffffffffffffffffffffffffffffffffffffff1673ffffffffffffffffffffffffffffffffffffffff1681526020019081526020016000206000828254612d9d91906149c1565b925050819055508673ffffffffffffffffffffffffffffffffffffffff16600073ffffffffffffffffffffffffffffffffffffffff168473ffffffffffffffffffffffffffffffffffffffff167fc3d58168c5ae7397731d063d5bbf3d657854427343f4c083240f7aacaa2d0f628989604051612e1b929190614d28565b60405180910390a4612e32836000898585896125a7565b612e4183600089898989612a55565b50505050505050565b80600460008481526020019081526020016000209080519060200190612e71929190612f8c565b50817f6bb7ff708619ba0610cba295a58592e0451dee2622938c8755667688daf3529b612e9d84610993565b604051612eaa919061347c565b60405180910390a25050565b6001816000016000828254019250508190555050565b600081600001549050919050565b6040518060800160405280600081526020016000815260200160008152602001600081525090565b60405180606001604052806000815260200160608152602001600081525090565b604051806101400160405280600081526020016000815260200160008152602001600081526020016000815260200160008152602001600081526020016060815260200160008152602001600073ffffffffffffffffffffffffffffffffffffffff1681525090565b828054612f989061445c565b90600052602060002090601f016020900481019282612fba5760008555613001565b82601f10612fd357805160ff1916838001178555613001565b82800160010185558215613001579182015b82811115613000578251825591602001919060010190612fe5565b5b50905061300e9190613012565b5090565b5b8082111561302b576000816000905550600101613013565b5090565b6000604051905090565b600080fd5b600080fd5b600073ffffffffffffffffffffffffffffffffffffffff82169050919050565b600061306e82613043565b9050919050565b61307e81613063565b811461308957600080fd5b50565b60008135905061309b81613075565b92915050565b6000819050919050565b6130b4816130a1565b81146130bf57600080fd5b50565b6000813590506130d1816130ab565b92915050565b600080604083850312156130ee576130ed613039565b5b60006130fc8582860161308c565b925050602061310d858286016130c2565b9150509250929050565b613120816130a1565b82525050565b600060208201905061313b6000830184613117565b92915050565b60007fffffffff0000000000000000000000000000000000000000000000000000000082169050919050565b61317681613141565b811461318157600080fd5b50565b6000813590506131938161316d565b92915050565b6000602082840312156131af576131ae613039565b5b60006131bd84828501613184565b91505092915050565b60008115159050919050565b6131db816131c6565b82525050565b60006020820190506131f660008301846131d2565b92915050565b600081519050919050565b600082825260208201905092915050565b6000819050602082019050919050565b613231816130a1565b82525050565b60808201600082015161324d6000850182613228565b5060208201516132606020850182613228565b5060408201516132736040850182613228565b5060608201516132866060850182613228565b50505050565b60006132988383613237565b60808301905092915050565b6000602082019050919050565b60006132bc826131fc565b6132c68185613207565b93506132d183613218565b8060005b838110156133025781516132e9888261328c565b97506132f4836132a4565b9250506001810190506132d5565b5085935050505092915050565b6000602082019050818103600083015261332981846132b1565b905092915050565b60006020828403121561334757613346613039565b5b6000613355848285016130c2565b91505092915050565b6080820160008201516133746000850182613228565b5060208201516133876020850182613228565b50604082015161339a6040850182613228565b5060608201516133ad6060850182613228565b50505050565b600081519050919050565b600082825260208201905092915050565b60005b838110156133ed5780820151818401526020810190506133d2565b838111156133fc576000848401525b50505050565b6000601f19601f8301169050919050565b600061341e826133b3565b61342881856133be565b93506134388185602086016133cf565b61344181613402565b840191505092915050565b600060a082019050613461600083018561335e565b81810360808301526134738184613413565b90509392505050565b600060208201905081810360008301526134968184613413565b905092915050565b600080604083850312156134b5576134b4613039565b5b60006134c3858286016130c2565b92505060206134d4858286016130c2565b9150509250929050565b600080fd5b7f4e487b7100000000000000000000000000000000000000000000000000000000600052604160045260246000fd5b61351b82613402565b810181811067ffffffffffffffff8211171561353a576135396134e3565b5b80604052505050565b600061354d61302f565b90506135598282613512565b919050565b600067ffffffffffffffff821115613579576135786134e3565b5b602082029050602081019050919050565b600080fd5b60006135a261359d8461355e565b613543565b905080838252602082019050602084028301858111156135c5576135c461358a565b5b835b818110156135ee57806135da88826130c2565b8452602084019350506020810190506135c7565b5050509392505050565b600082601f83011261360d5761360c6134de565b5b813561361d84826020860161358f565b91505092915050565b600080fd5b600067ffffffffffffffff821115613646576136456134e3565b5b61364f82613402565b9050602081019050919050565b82818337600083830152505050565b600061367e6136798461362b565b613543565b90508281526020810184848401111561369a57613699613626565b5b6136a584828561365c565b509392505050565b600082601f8301126136c2576136c16134de565b5b81356136d284826020860161366b565b91505092915050565b600080600080600060a086880312156136f7576136f6613039565b5b60006137058882890161308c565b95505060206137168882890161308c565b945050604086013567ffffffffffffffff8111156137375761373661303e565b5b613743888289016135f8565b935050606086013567ffffffffffffffff8111156137645761376361303e565b5b613770888289016135f8565b925050608086013567ffffffffffffffff8111156137915761379061303e565b5b61379d888289016136ad565b9150509295509295909350565b600082825260208201905092915050565b60006137c6826133b3565b6137d081856137aa565b93506137e08185602086016133cf565b6137e981613402565b840191505092915050565b600060608301600083015161380c6000860182613228565b506020830151848203602086015261382482826137bb565b91505060408301516138396040860182613228565b508091505092915050565b6000602082019050818103600083015261385e81846137f4565b905092915050565b600067ffffffffffffffff821115613881576138806134e3565b5b61388a82613402565b9050602081019050919050565b60006138aa6138a584613866565b613543565b9050828152602081018484840111156138c6576138c5613626565b5b6138d184828561365c565b509392505050565b600082601f8301126138ee576138ed6134de565b5b81356138fe848260208601613897565b91505092915050565b6000806000606084860312156139205761391f613039565b5b600061392e868287016130c2565b935050602061393f868287016130c2565b925050604084013567ffffffffffffffff8111156139605761395f61303e565b5b61396c868287016138d9565b9150509250925092565b600067ffffffffffffffff821115613991576139906134e3565b5b602082029050602081019050919050565b60006139b56139b084613976565b613543565b905080838252602082019050602084028301858111156139d8576139d761358a565b5b835b81811015613a0157806139ed888261308c565b8452602084019350506020810190506139da565b5050509392505050565b600082601f830112613a2057613a1f6134de565b5b8135613a308482602086016139a2565b91505092915050565b60008060408385031215613a5057613a4f613039565b5b600083013567ffffffffffffffff811115613a6e57613a6d61303e565b5b613a7a85828601613a0b565b925050602083013567ffffffffffffffff811115613a9b57613a9a61303e565b5b613aa7858286016135f8565b9150509250929050565b600081519050919050565b600082825260208201905092915050565b6000819050602082019050919050565b6000613ae98383613228565b60208301905092915050565b6000602082019050919050565b6000613b0d82613ab1565b613b178185613abc565b9350613b2283613acd565b8060005b83811015613b53578151613b3a8882613add565b9750613b4583613af5565b925050600181019050613b26565b5085935050505092915050565b60006020820190508181036000830152613b7a8184613b02565b905092915050565b600081519050919050565b600082825260208201905092915050565b6000819050602082019050919050565b600082825260208201905092915050565b6000613bca82613ab1565b613bd48185613bae565b9350613bdf83613acd565b8060005b83811015613c10578151613bf78882613add565b9750613c0283613af5565b925050600181019050613be3565b5085935050505092915050565b613c2681613063565b82525050565b600061014083016000830151613c456000860182613228565b506020830151613c586020860182613228565b506040830151613c6b6040860182613228565b506060830151613c7e6060860182613228565b506080830151613c916080860182613228565b5060a0830151613ca460a0860182613228565b5060c0830151613cb760c0860182613228565b5060e083015184820360e0860152613ccf8282613bbf565b915050610100830151613ce6610100860182613228565b50610120830151613cfb610120860182613c1d565b508091505092915050565b6000613d128383613c2c565b905092915050565b6000602082019050919050565b6000613d3282613b82565b613d3c8185613b8d565b935083602082028501613d4e85613b9e565b8060005b85811015613d8a5784840389528151613d6b8582613d06565b9450613d7683613d1a565b925060208a01995050600181019050613d52565b50829750879550505050505092915050565b600081519050919050565b600082825260208201905092915050565b6000819050602082019050919050565b6000613dd483836137bb565b905092915050565b6000602082019050919050565b6000613df482613d9c565b613dfe8185613da7565b935083602082028501613e1085613db8565b8060005b85811015613e4c5784840389528151613e2d8582613dc8565b9450613e3883613ddc565b925060208a01995050600181019050613e14565b50829750879550505050505092915050565b60006040820190508181036000830152613e788185613d27565b90508181036020830152613e8c8184613de9565b90509392505050565b600081519050919050565b600082825260208201905092915050565b6000819050602082019050919050565b6000606083016000830151613ed96000860182613228565b5060208301518482036020860152613ef182826137bb565b9150506040830151613f066040860182613228565b508091505092915050565b6000613f1d8383613ec1565b905092915050565b6000602082019050919050565b6000613f3d82613e95565b613f478185613ea0565b935083602082028501613f5985613eb1565b8060005b85811015613f955784840389528151613f768582613f11565b9450613f8183613f25565b925060208a01995050600181019050613f5d565b50829750879550505050505092915050565b60006020820190508181036000830152613fc18184613f32565b905092915050565b600080600060608486031215613fe257613fe1613039565b5b6000613ff0868287016130c2565b9350506020614001868287016130c2565b9250506040614012868287016130c2565b9150509250925092565b6000610140830160008301516140356000860182613228565b5060208301516140486020860182613228565b50604083015161405b6040860182613228565b50606083015161406e6060860182613228565b5060808301516140816080860182613228565b5060a083015161409460a0860182613228565b5060c08301516140a760c0860182613228565b5060e083015184820360e08601526140bf8282613bbf565b9150506101008301516140d6610100860182613228565b506101208301516140eb610120860182613c1d565b508091505092915050565b60006040820190508181036000830152614110818561401c565b905081810360208301526141248184613413565b90509392505050565b614136816131c6565b811461414157600080fd5b50565b6000813590506141538161412d565b92915050565b600080604083850312156141705761416f613039565b5b600061417e8582860161308c565b925050602061418f85828601614144565b9150509250929050565b6000602082840312156141af576141ae613039565b5b60006141bd8482850161308c565b91505092915050565b600080604083850312156141dd576141dc613039565b5b60006141eb8582860161308c565b92505060206141fc8582860161308c565b9150509250929050565b600080600080600060a0868803121561422257614221613039565b5b60006142308882890161308c565b95505060206142418882890161308c565b9450506040614252888289016130c2565b9350506060614263888289016130c2565b925050608086013567ffffffffffffffff8111156142845761428361303e565b5b614290888289016136ad565b9150509295509295909350565b7f455243313135353a2061646472657373207a65726f206973206e6f742061207660008201527f616c6964206f776e657200000000000000000000000000000000000000000000602082015250565b60006142f9602a836133be565b91506143048261429d565b604082019050919050565b60006020820190508181036000830152614328816142ec565b9050919050565b7f4e667420646f6573206e6f742065786973740000000000000000000000000000600082015250565b60006143656012836133be565b91506143708261432f565b602082019050919050565b6000602082019050818103600083015261439481614358565b9050919050565b7f4e487b7100000000000000000000000000000000000000000000000000000000600052601160045260246000fd5b60006143d5826130a1565b91506143e0836130a1565b9250828210156143f3576143f261439b565b5b828203905092915050565b7f4e487b7100000000000000000000000000000000000000000000000000000000600052603260045260246000fd5b7f4e487b7100000000000000000000000000000000000000000000000000000000600052602260045260246000fd5b6000600282049050600182168061447457607f821691505b6020821081036144875761448661442d565b5b50919050565b600081905092915050565b60008190508160005260206000209050919050565b600081546144ba8161445c565b6144c4818661448d565b945060018216600081146144df57600181146144f057614523565b60ff19831686528186019350614523565b6144f985614498565b60005b8381101561451b578154818901526001820191506020810190506144fc565b838801955050505b50505092915050565b6000614537826133b3565b614541818561448d565b93506145518185602086016133cf565b80840191505092915050565b600061456982856144ad565b9150614575828461452c565b91508190509392505050565b7f437265646974206d757374206265206120706f736974697665206e756d626572600082015250565b60006145b76020836133be565b91506145c282614581565b602082019050919050565b600060208201905081810360008301526145e6816145aa565b9050919050565b7f456e642074696d65206d7573742062652061667465722073746172742074696d60008201527f6500000000000000000000000000000000000000000000000000000000000000602082015250565b60006146496021836133be565b9150614654826145ed565b604082019050919050565b600060208201905081810360008301526146788161463c565b9050919050565b7f526567697374657265642064617465206d757374206265206265666f7265207960008201527f65617220656e6400000000000000000000000000000000000000000000000000602082015250565b60006146db6027836133be565b91506146e68261467f565b604082019050919050565b6000602082019050818103600083015261470a816146ce565b9050919050565b7f455243313135353a2063616c6c6572206973206e6f7420746f6b656e206f776e60008201527f6572206f7220617070726f766564000000000000000000000000000000000000602082015250565b600061476d602e836133be565b915061477882614711565b604082019050919050565b6000602082019050818103600083015261479c81614760565b9050919050565b7f455243313135353a206163636f756e747320616e6420696473206c656e67746860008201527f206d69736d617463680000000000000000000000000000000000000000000000602082015250565b60006147ff6029836133be565b915061480a826147a3565b604082019050919050565b6000602082019050818103600083015261482e816147f2565b9050919050565b6000614840826130a1565b91507fffffffffffffffffffffffffffffffffffffffffffffffffffffffffffffffff82036148725761487161439b565b5b600182019050919050565b7f446573697265642079656172206973206e6f742076616c696400000000000000600082015250565b60006148b36019836133be565b91506148be8261487d565b602082019050919050565b600060208201905081810360008301526148e2816148a6565b9050919050565b7f49742773206e6f742074696d6520746f20726567697374657220636c61737300600082015250565b600061491f601f836133be565b915061492a826148e9565b602082019050919050565b6000602082019050818103600083015261494e81614912565b9050919050565b7f546f6b656e206578697374730000000000000000000000000000000000000000600082015250565b600061498b600c836133be565b915061499682614955565b602082019050919050565b600060208201905081810360008301526149ba8161497e565b9050919050565b60006149cc826130a1565b91506149d7836130a1565b9250827fffffffffffffffffffffffffffffffffffffffffffffffffffffffffffffffff03821115614a0c57614a0b61439b565b5b828201905092915050565b7f455243313135353a2069647320616e6420616d6f756e7473206c656e6774682060008201527f6d69736d61746368000000000000000000000000000000000000000000000000602082015250565b6000614a736028836133be565b9150614a7e82614a17565b604082019050919050565b60006020820190508181036000830152614aa281614a66565b9050919050565b7f455243313135353a207472616e7366657220746f20746865207a65726f20616460008201527f6472657373000000000000000000000000000000000000000000000000000000602082015250565b6000614b056025836133be565b9150614b1082614aa9565b604082019050919050565b60006020820190508181036000830152614b3481614af8565b9050919050565b7f455243313135353a20696e73756666696369656e742062616c616e636520666f60008201527f72207472616e7366657200000000000000000000000000000000000000000000602082015250565b6000614b97602a836133be565b9150614ba282614b3b565b604082019050919050565b60006020820190508181036000830152614bc681614b8a565b9050919050565b60006040820190508181036000830152614be78185613b02565b90508181036020830152614bfb8184613b02565b90509392505050565b7f455243313135353a206275726e2066726f6d20746865207a65726f206164647260008201527f6573730000000000000000000000000000000000000000000000000000000000602082015250565b6000614c606023836133be565b9150614c6b82614c04565b604082019050919050565b60006020820190508181036000830152614c8f81614c53565b9050919050565b7f455243313135353a206275726e20616d6f756e7420657863656564732062616c60008201527f616e636500000000000000000000000000000000000000000000000000000000602082015250565b6000614cf26024836133be565b9150614cfd82614c96565b604082019050919050565b60006020820190508181036000830152614d2181614ce5565b9050919050565b6000604082019050614d3d6000830185613117565b614d4a6020830184613117565b9392505050565b7f455243313135353a2073657474696e6720617070726f76616c2073746174757360008201527f20666f722073656c660000000000000000000000000000000000000000000000602082015250565b6000614dad6029836133be565b9150614db882614d51565b604082019050919050565b60006020820190508181036000830152614ddc81614da0565b9050919050565b614dec81613063565b82525050565b600081519050919050565b600082825260208201905092915050565b6000614e1982614df2565b614e238185614dfd565b9350614e338185602086016133cf565b614e3c81613402565b840191505092915050565b600060a082019050614e5c6000830188614de3565b614e696020830187614de3565b8181036040830152614e7b8186613b02565b90508181036060830152614e8f8185613b02565b90508181036080830152614ea38184614e0e565b90509695505050505050565b600081519050614ebe8161316d565b92915050565b600060208284031215614eda57614ed9613039565b5b6000614ee884828501614eaf565b91505092915050565b60008160e01c9050919050565b600060033d1115614f1d5760046000803e614f1a600051614ef1565b90505b90565b600060443d10614fad57614f3261302f565b60043d036004823e80513d602482011167ffffffffffffffff82111715614f5a575050614fad565b808201805167ffffffffffffffff811115614f785750505050614fad565b80602083010160043d038501811115614f95575050505050614fad565b614fa482602001850186613512565b82955050505050505b90565b7f455243313135353a207472616e7366657220746f206e6f6e2d4552433131353560008201527f526563656976657220696d706c656d656e746572000000000000000000000000602082015250565b600061500c6034836133be565b915061501782614fb0565b604082019050919050565b6000602082019050818103600083015261503b81614fff565b9050919050565b7f455243313135353a204552433131353552656365697665722072656a6563746560008201527f6420746f6b656e73000000000000000000000000000000000000000000000000602082015250565b600061509e6028836133be565b91506150a982615042565b604082019050919050565b600060208201905081810360008301526150cd81615091565b9050919050565b60006150e0828461452c565b915081905092915050565b7f55524920686173206265656e2075736564000000000000000000000000000000600082015250565b60006151216011836133be565b915061512c826150eb565b602082019050919050565b6000602082019050818103600083015261515081615114565b9050919050565b7f4b6e6f776c6564676520626c6f636b20646f65736e2774206578697374000000600082015250565b600061518d601d836133be565b915061519882615157565b602082019050919050565b600060208201905081810360008301526151bc81615180565b9050919050565b7f43726564697473206d757374206265206120706f736974697665206e756d626560008201527f7200000000000000000000000000000000000000000000000000000000000000602082015250565b600061521f6021836133be565b915061522a826151c3565b604082019050919050565b6000602082019050818103600083015261524e81615212565b9050919050565b600060a08201905061526a6000830188614de3565b6152776020830187614de3565b6152846040830186613117565b6152916060830185613117565b81810360808301526152a38184614e0e565b90509695505050505050565b7f455243313135353a206d696e7420746f20746865207a65726f2061646472657360008201527f7300000000000000000000000000000000000000000000000000000000000000602082015250565b600061530b6021836133be565b9150615316826152af565b604082019050919050565b6000602082019050818103600083015261533a816152fe565b905091905056fea2646970667358221220ffb2e35879d568b7938a2a06f3bf7728a7cfc6dff1b4f994eb951f6836271b3b64736f6c634300080d0033",
  "immutableReferences": {},
  "source": "// SPDX-License-Identifier: MIT\r\n// Tells the Solidity compiler to compile only from v0.8.13 to v0.9.0\r\npragma solidity ^0.8.13;\r\n\r\nimport \"./ERC1155BaseContract.sol\";\r\nimport \"./interfaces/INftSchool.sol\";\r\nimport \"./interfaces/INftIdentities.sol\";\r\nimport \"./interfaces/INftCertificates.sol\";\r\nimport \"./interfaces/IScore.sol\";\r\n\r\n/*\r\n    Initial year: Requirements + Course Template (time available to update? --> after year end)\r\n    (Save endCurrentYear) -> Classes -> Register course -> Received Nft Scoreboard\r\n    Course end: Mint Nft complete course <-- Transfer info from Nft Scoreboard to this\r\n    Enough course: Exchange nft graduation from nft courses (payable)\r\n*/\r\n/*\r\n    - Initial year\r\n    - Requirements, course templates, classes\r\n*/\r\ncontract NftSchool is ERC1155BaseContract, INftSchool {\r\n    using Counters for Counters.Counter;\r\n\r\n    uint256 constant NFT_COURSE = 1;\r\n    uint256 constant NFT_CLASS = 2;\r\n\r\n    uint256 public minimumGraduationScore = 500;\r\n\r\n    string[] private courseURIs;\r\n\r\n    INftIdentities private _nftIdentities;\r\n    INftCertificates private _nftCertificates;\r\n    IScore private _scoreContract;\r\n\r\n    bool public _isInitialize;\r\n\r\n    uint256 public schoolYearEnd;\r\n    uint256 public registeredStartAt;\r\n    uint256 public registeredEndAt;\r\n    uint256 public yearId;\r\n\r\n    mapping(uint256 => uint256[]) private _classTokenIdsOfYear;\r\n\r\n    KnowledgeBlock[] private _knowledgeBlocks;\r\n    NftCourse[] private _allNftCourses;\r\n    NftClass[] private _allNftClasses;\r\n    mapping(uint256 => mapping(uint256 => uint256)) _posOfTokenIdOfNftType;\r\n\r\n    modifier isInitialized() {\r\n        require(_isInitialize);\r\n        _;\r\n    }\r\n\r\n    modifier onlyOwner() {\r\n        require(_owner == msg.sender);\r\n        _;\r\n    }\r\n\r\n    modifier afterYearEnd() {\r\n        require(block.timestamp > schoolYearEnd);\r\n        _;\r\n    }\r\n\r\n    modifier canOperate(uint256 role) {\r\n        (bool isDeposited, uint256 __role) = _nftIdentities.isAbleToOperate(\r\n            msg.sender\r\n        );\r\n        require(isDeposited && role == __role);\r\n        _;\r\n    }\r\n\r\n    modifier tokenExist(uint256 tokenId) {\r\n        require(checkTokenExists(tokenId), \"Token exists\");\r\n        _;\r\n    }\r\n\r\n    constructor(\r\n        address nftIdentities,\r\n        address scoreAddr,\r\n        string[] memory knowledgeBlockNames,\r\n        uint256[] memory knowledgeBlockCredits\r\n    ) ERC1155BaseContract(\"\") {\r\n        _nftIdentities = INftIdentities(nftIdentities);\r\n        _scoreContract = IScore(scoreAddr);\r\n        schoolYearEnd = block.timestamp;\r\n\r\n        uint256 knowledgeBlockCount = knowledgeBlockNames.length;\r\n        for (uint256 idx = 0; idx < knowledgeBlockCount; ++idx) {\r\n            _knowledgeBlocks.push(\r\n                KnowledgeBlock(\r\n                    idx + 1,\r\n                    knowledgeBlockNames[idx],\r\n                    knowledgeBlockCredits[idx]\r\n                )\r\n            );\r\n        }\r\n    }\r\n\r\n    function initialize(address nftCertificates) public onlyOwner {\r\n        require(!_isInitialize);\r\n        _isInitialize = true;\r\n        _nftCertificates = INftCertificates(nftCertificates);\r\n    }\r\n\r\n    function initializeYear(\r\n        uint256 _schoolYearEnd,\r\n        uint256 _registeredStartAt,\r\n        uint256 _registeredEndAt\r\n    ) public onlyOwner afterYearEnd {\r\n        require(\r\n            _registeredEndAt > _registeredStartAt,\r\n            \"End time must be after start time\"\r\n        );\r\n        require(\r\n            _schoolYearEnd > _registeredEndAt,\r\n            \"Registered date must be before year end\"\r\n        );\r\n        schoolYearEnd = _schoolYearEnd;\r\n        registeredStartAt = _registeredStartAt;\r\n        registeredEndAt = _registeredEndAt;\r\n        yearId += 1;\r\n    }\r\n\r\n    function updateRegisteredTime(\r\n        uint256 _registeredStartAt,\r\n        uint256 _registeredEndAt\r\n    ) external onlyOwner {\r\n        require(\r\n            _registeredEndAt > _registeredStartAt,\r\n            \"End time must be after start time\"\r\n        );\r\n        require(\r\n            schoolYearEnd > _registeredEndAt,\r\n            \"Registered date must be before year end\"\r\n        );\r\n        registeredStartAt = _registeredStartAt;\r\n        registeredEndAt = _registeredEndAt;\r\n    }\r\n\r\n    function createCourse(\r\n        uint256 knowledgeBlock,\r\n        uint256 credits,\r\n        string memory tokenURI\r\n    ) public onlyOwner afterYearEnd {\r\n        _mintNftCourse(knowledgeBlock, credits, tokenURI);\r\n    }\r\n\r\n    function updateCourse(\r\n        uint256 tokenId,\r\n        uint256 credits\r\n    ) external onlyOwner afterYearEnd {\r\n        require(credits > 0, \"Credit must be a positive number\");\r\n        uint256 pos = _posOfTokenIdOfNftType[NFT_COURSE][tokenId];\r\n        require(pos > 0, \"Nft does not exist\");\r\n\r\n        _allNftCourses[pos - 1].credits = credits;\r\n    }\r\n\r\n    function burnToken(\r\n        uint256 tokenId\r\n    ) external onlyOwner afterYearEnd tokenExist(tokenId) {\r\n        _burn(_owner, tokenId, ONE_NFT);\r\n    }\r\n\r\n    // (everyone)\r\n    function getRegisteredClasses()\r\n        external\r\n        view\r\n        returns (NftClass[] memory, string[] memory)\r\n    {\r\n        require(\r\n            msg.sender == _owner || checkInRegisterDate(),\r\n            \"It's not time to register class\"\r\n        );\r\n\r\n        return _getAllNftClasses(yearId);\r\n    }\r\n\r\n    function getAllKnowledgeBlocks()\r\n        external\r\n        view\r\n        returns (KnowledgeBlock[] memory)\r\n    {\r\n        return _knowledgeBlocks;\r\n    }\r\n\r\n    function getKnowledgeBlockById(\r\n        uint256 id\r\n    ) external view returns (KnowledgeBlock memory) {\r\n        return _knowledgeBlocks[id - 1];\r\n    }\r\n\r\n    function getNftClass(\r\n        uint256 tokenId\r\n    ) public view returns (NftClass memory, string memory) {\r\n        uint256 pos = _posOfTokenIdOfNftType[NFT_CLASS][tokenId];\r\n        require(pos > 0, \"Nft does not exist\");\r\n\r\n        return (_allNftClasses[pos - 1], uri(tokenId));\r\n    }\r\n\r\n    function getAllNftClasses(\r\n        uint256 _yearId\r\n    ) external view onlyOwner returns (NftClass[] memory, string[] memory) {\r\n        require(_yearId <= yearId, \"Desired year is not valid\");\r\n\r\n        return _getAllNftClasses(_yearId);\r\n    }\r\n\r\n    function getAllCourses()\r\n        external\r\n        view\r\n        onlyOwner\r\n        returns (NftCourse[] memory)\r\n    {\r\n        return _allNftCourses;\r\n    }\r\n\r\n    function getCourse(\r\n        uint256 tokenId\r\n    ) public view returns (NftCourse memory, string memory) {\r\n        uint256 pos = _posOfTokenIdOfNftType[NFT_COURSE][tokenId];\r\n        require(pos > 0, \"Nft does not exist\");\r\n\r\n        return (_allNftCourses[pos - 1], uri(tokenId));\r\n    }\r\n\r\n    function checkTokenExists(uint256 tokenId) public view returns (bool) {\r\n        uint256 nftType = _getNftType(tokenId);\r\n        uint256 pos = _posOfTokenIdOfNftType[nftType][tokenId];\r\n        return pos > 0;\r\n    }\r\n\r\n    function checkTokenOfTypeExists(\r\n        uint256 tokenId,\r\n        uint256 requiredType\r\n    ) external view returns (bool) {\r\n        uint256 nftType = _getNftType(tokenId);\r\n        uint256 pos = _posOfTokenIdOfNftType[nftType][tokenId];\r\n        return pos > 0 && nftType == requiredType;\r\n    }\r\n\r\n    function checkInRegisterDate() public view returns (bool) {\r\n        return\r\n            block.timestamp >= registeredStartAt &&\r\n            block.timestamp <= registeredEndAt;\r\n    }\r\n\r\n    function _getAllNftClasses(\r\n        uint256 _yearId\r\n    ) private view onlyOwner returns (NftClass[] memory, string[] memory) {\r\n        uint256 numberOfClasses = _classTokenIdsOfYear[_yearId].length;\r\n        NftClass[] memory nftClasses = new NftClass[](numberOfClasses);\r\n        string[] memory tokenURIs = new string[](numberOfClasses);\r\n\r\n        for (uint256 idx = 0; idx <= numberOfClasses; ++idx) {\r\n            (nftClasses[idx], tokenURIs[idx]) = getNftClass(\r\n                _classTokenIdsOfYear[yearId][idx]\r\n            );\r\n        }\r\n\r\n        return (nftClasses, tokenURIs);\r\n    }\r\n\r\n    function _mintNftCourse(\r\n        uint256 knowledgeBlockId,\r\n        uint256 credits,\r\n        string memory tokenURI\r\n    ) private returns (uint256) {\r\n        uint256 tokenId = _mintToken(_owner, NFT_COURSE, tokenURI);\r\n        _createNftCourse(tokenId, knowledgeBlockId, credits);\r\n\r\n        return tokenId;\r\n    }\r\n\r\n    function _createNftCourse(\r\n        uint256 tokenId,\r\n        uint256 knowledgeBlockId,\r\n        uint256 credits\r\n    ) private {\r\n        require(\r\n            knowledgeBlockId <= _knowledgeBlocks.length,\r\n            \"Knowledge block doesn't exist\"\r\n        );\r\n        require(credits > 0, \"Credits must be a positive number\");\r\n        NftCourse memory nftCourse = NftCourse(\r\n            tokenId,\r\n            knowledgeBlockId,\r\n            credits,\r\n            1\r\n        );\r\n        _allNftCourses.push(nftCourse);\r\n        _posOfTokenIdOfNftType[NFT_COURSE][tokenId] = _allNftCourses.length;\r\n    }\r\n\r\n    function _mintNftClass(\r\n        uint256 courseId,\r\n        uint256 credits,\r\n        uint256 completeAt,\r\n        uint256[] memory requiredScores,\r\n        uint256 maxSize,\r\n        address teacher,\r\n        string memory tokenURI\r\n    ) private returns (uint256) {\r\n        uint256 tokenId = _mintToken(_owner, NFT_CLASS, tokenURI);\r\n        _createNftClass(\r\n            tokenId,\r\n            courseId,\r\n            credits,\r\n            completeAt,\r\n            requiredScores,\r\n            maxSize,\r\n            teacher\r\n        );\r\n\r\n        return tokenId;\r\n    }\r\n\r\n    function _createNftClass(\r\n        uint256 tokenId,\r\n        uint256 courseId,\r\n        uint256 credits,\r\n        uint256 completeAt,\r\n        uint256[] memory requiredScores,\r\n        uint256 maxSize,\r\n        address teacher\r\n    ) private {\r\n        require(\r\n            registeredStartAt > block.timestamp,\r\n            \"Update registered date before creating class\"\r\n        );\r\n        (NftCourse memory nftCourse, ) = getCourse(\r\n            tokenId\r\n        );\r\n        require(credits > 0, \"Credits must be a positive number\");\r\n        require(\r\n            _scoreContract.checkValidScores(requiredScores),\r\n            \"Required scores are not valid\"\r\n        );\r\n        NftClass memory nftClass = NftClass(\r\n            tokenId,\r\n            courseId,\r\n            nftCourse.knowledgeBlockId,\r\n            credits,\r\n            registeredStartAt,\r\n            registeredEndAt,\r\n            completeAt,\r\n            requiredScores,\r\n            maxSize,\r\n            teacher\r\n        );\r\n        _allNftClasses.push(nftClass);\r\n        _posOfTokenIdOfNftType[NFT_CLASS][tokenId] = _allNftClasses\r\n            .length;\r\n    }\r\n}\r\n",
  "sourcePath": "E:\\learn\\learn-to-earn\\contracts\\NftSchool.sol",
  "compiler": {
    "name": "solc",
    "version": "0.8.13+commit.abaa5c0e.Emscripten.clang"
  },
  "schemaVersion": "3.4.13",
  "updatedAt": "2023-03-22T23:17:07.023Z",
  "networkType": "ethereum",
  "devdoc": {
    "kind": "dev",
    "methods": {
      "balanceOf(address,uint256)": {
        "details": "See {IERC1155-balanceOf}. Requirements: - `account` cannot be the zero address."
      },
      "balanceOfBatch(address[],uint256[])": {
        "details": "See {IERC1155-balanceOfBatch}. Requirements: - `accounts` and `ids` must have the same length."
      },
      "isApprovedForAll(address,address)": {
        "details": "See {IERC1155-isApprovedForAll}."
      },
      "safeBatchTransferFrom(address,address,uint256[],uint256[],bytes)": {
        "details": "See {IERC1155-safeBatchTransferFrom}."
      },
      "safeTransferFrom(address,address,uint256,uint256,bytes)": {
        "details": "See {IERC1155-safeTransferFrom}."
      },
      "setApprovalForAll(address,bool)": {
        "details": "See {IERC1155-setApprovalForAll}."
      },
      "supportsInterface(bytes4)": {
        "details": "See {IERC165-supportsInterface}."
      },
      "uri(uint256)": {
        "details": "See {IERC1155MetadataURI-uri}. This implementation returns the concatenation of the `_baseURI` and the token-specific uri if the latter is set This enables the following behaviors: - if `_tokenURIs[tokenId]` is set, then the result is the concatenation   of `_baseURI` and `_tokenURIs[tokenId]` (keep in mind that `_baseURI`   is empty per default); - if `_tokenURIs[tokenId]` is NOT set then we fallback to `super.uri()`   which in most cases will contain `ERC1155._uri`; - if `_tokenURIs[tokenId]` is NOT set, and if the parents do not have a   uri value set, then the result is empty."
      }
    },
    "version": 1
  },
  "userdoc": {
    "kind": "user",
    "methods": {},
    "version": 1
  }
}