{
  "contractName": "Registration",
  "abi": [
    {
      "inputs": [],
      "name": "reject",
      "outputs": [],
      "stateMutability": "nonpayable",
      "type": "function"
    },
    {
      "inputs": [],
      "name": "getRegisteredInfo",
      "outputs": [
        {
          "components": [
            {
              "internalType": "address",
              "name": "applicant",
              "type": "address"
            },
            {
              "internalType": "string",
              "name": "documentURI",
              "type": "string"
            }
          ],
          "internalType": "struct Registration.RegistrationInfo",
          "name": "",
          "type": "tuple"
        }
      ],
      "stateMutability": "view",
      "type": "function"
    }
  ],
  "bytecode": "0x608060405234801561001057600080fd5b50610b58806100206000396000f3fe608060405234801561001057600080fd5b50600436106100365760003560e01c80634dc415de1461003b578063f9b9c44a14610045575b600080fd5b610043610063565b005b61004d6100ba565b60405161005a9190610958565b60405180910390f35b6000600360003373ffffffffffffffffffffffffffffffffffffffff1673ffffffffffffffffffffffffffffffffffffffff16815260200190815260200160002054116100af57600080fd5b6100b833610323565b565b6100c261072e565b336000600360008373ffffffffffffffffffffffffffffffffffffffff1673ffffffffffffffffffffffffffffffffffffffff1681526020019081526020016000205411610145576040517f08c379a000000000000000000000000000000000000000000000000000000000815260040161013c906109d7565b60405180910390fd5b60006001600360003373ffffffffffffffffffffffffffffffffffffffff1673ffffffffffffffffffffffffffffffffffffffff168152602001908152602001600020546101939190610a30565b905060006001600083815260200190815260200160002060003373ffffffffffffffffffffffffffffffffffffffff1673ffffffffffffffffffffffffffffffffffffffff1681526020019081526020016000205490506000808381526020019081526020016000206001826102099190610a30565b8154811061021a57610219610a64565b5b90600052602060002090600202016040518060400160405290816000820160009054906101000a900473ffffffffffffffffffffffffffffffffffffffff1673ffffffffffffffffffffffffffffffffffffffff1673ffffffffffffffffffffffffffffffffffffffff16815260200160018201805461029990610ac2565b80601f01602080910402602001604051908101604052809291908181526020018280546102c590610ac2565b80156103125780601f106102e757610100808354040283529160200191610312565b820191906000526020600020905b8154815290600101906020018083116102f557829003601f168201915b505050505081525050935050505090565b60006001600360008473ffffffffffffffffffffffffffffffffffffffff1673ffffffffffffffffffffffffffffffffffffffff168152602001908152602001600020546103719190610a30565b905060006001600083815260200190815260200160002060008473ffffffffffffffffffffffffffffffffffffffff1673ffffffffffffffffffffffffffffffffffffffff168152602001908152602001600020549050600080600084815260200190815260200160002080549050905080821461061f57600080600085815260200190815260200160002060018361040a9190610a30565b8154811061041b5761041a610a64565b5b90600052602060002090600202016040518060400160405290816000820160009054906101000a900473ffffffffffffffffffffffffffffffffffffffff1673ffffffffffffffffffffffffffffffffffffffff1673ffffffffffffffffffffffffffffffffffffffff16815260200160018201805461049a90610ac2565b80601f01602080910402602001604051908101604052809291908181526020018280546104c690610ac2565b80156105135780601f106104e857610100808354040283529160200191610513565b820191906000526020600020905b8154815290600101906020018083116104f657829003601f168201915b50505050508152505090508060008086815260200190815260200160002060018561053e9190610a30565b8154811061054f5761054e610a64565b5b906000526020600020906002020160008201518160000160006101000a81548173ffffffffffffffffffffffffffffffffffffffff021916908373ffffffffffffffffffffffffffffffffffffffff16021790555060208201518160010190805190602001906105c092919061075e565b5090505082600160008681526020019081526020016000206000836000015173ffffffffffffffffffffffffffffffffffffffff1673ffffffffffffffffffffffffffffffffffffffff16815260200190815260200160002081905550505b60008084815260200190815260200160002080548061064157610640610af3565b5b6001900381819060005260206000209060020201600080820160006101000a81549073ffffffffffffffffffffffffffffffffffffffff021916905560018201600061068d91906107e4565b50509055600360008573ffffffffffffffffffffffffffffffffffffffff1673ffffffffffffffffffffffffffffffffffffffff168152602001908152602001600020600090556001600084815260200190815260200160002060008573ffffffffffffffffffffffffffffffffffffffff1673ffffffffffffffffffffffffffffffffffffffff1681526020019081526020016000206000905550505050565b6040518060400160405280600073ffffffffffffffffffffffffffffffffffffffff168152602001606081525090565b82805461076a90610ac2565b90600052602060002090601f01602090048101928261078c57600085556107d3565b82601f106107a557805160ff19168380011785556107d3565b828001600101855582156107d3579182015b828111156107d25782518255916020019190600101906107b7565b5b5090506107e09190610824565b5090565b5080546107f090610ac2565b6000825580601f106108025750610821565b601f0160209004906000526020600020908101906108209190610824565b5b50565b5b8082111561083d576000816000905550600101610825565b5090565b600073ffffffffffffffffffffffffffffffffffffffff82169050919050565b600061086c82610841565b9050919050565b61087c81610861565b82525050565b600081519050919050565b600082825260208201905092915050565b60005b838110156108bc5780820151818401526020810190506108a1565b838111156108cb576000848401525b50505050565b6000601f19601f8301169050919050565b60006108ed82610882565b6108f7818561088d565b935061090781856020860161089e565b610910816108d1565b840191505092915050565b60006040830160008301516109336000860182610873565b506020830151848203602086015261094b82826108e2565b9150508091505092915050565b60006020820190508181036000830152610972818461091b565b905092915050565b600082825260208201905092915050565b7f4e6f742072656769737465726564000000000000000000000000000000000000600082015250565b60006109c1600e8361097a565b91506109cc8261098b565b602082019050919050565b600060208201905081810360008301526109f0816109b4565b9050919050565b6000819050919050565b7f4e487b7100000000000000000000000000000000000000000000000000000000600052601160045260246000fd5b6000610a3b826109f7565b9150610a46836109f7565b925082821015610a5957610a58610a01565b5b828203905092915050565b7f4e487b7100000000000000000000000000000000000000000000000000000000600052603260045260246000fd5b7f4e487b7100000000000000000000000000000000000000000000000000000000600052602260045260246000fd5b60006002820490506001821680610ada57607f821691505b602082108103610aed57610aec610a93565b5b50919050565b7f4e487b7100000000000000000000000000000000000000000000000000000000600052603160045260246000fdfea2646970667358221220578881792f9effd8bb54ddbfdee77c7b5596fe7a4e1f909fbb4fa382b530c6e964736f6c634300080d0033",
  "immutableReferences": {},
  "source": "// SPDX-License-Identifier: MIT\r\n// Tells the Solidity compiler to compile only from v0.8.13 to v0.9.0\r\npragma solidity ^0.8.13;\r\n\r\ncontract Registration {\r\n    struct RegistrationInfo {\r\n        address applicant;\r\n        string documentURI;\r\n    }\r\n\r\n    mapping(uint256 => RegistrationInfo[]) private _registers; // Role => address\r\n    mapping(uint256 => mapping(address => uint256))\r\n        private _positionOfRegisters; // Role => address => position\r\n\r\n    mapping(uint256 => bool) internal _hasRole;\r\n    mapping(address => uint256) internal _registeredAddr;\r\n    mapping(string => bool) internal _registeredDocumentURI;\r\n\r\n    modifier hasRegistered(address addr) {\r\n        require(_registeredAddr[addr] > 0, \"Not registered\");\r\n        _;\r\n    }\r\n\r\n    modifier allowedRole(uint256 role) {\r\n        require(_hasRole[role], \"Role doesn't not exist\");\r\n        _;\r\n    }\r\n\r\n    function _register(uint256 role, string memory documentURI) internal {\r\n        require(!_registeredDocumentURI[documentURI]);\r\n        _registers[role].push(RegistrationInfo(msg.sender, documentURI));\r\n        _registeredAddr[msg.sender] = role + 1;\r\n        _positionOfRegisters[role][msg.sender] = _registers[role].length;\r\n        _registeredDocumentURI[documentURI] = true;\r\n    }\r\n\r\n    function _removeFromRegistersList(address addr) internal {\r\n        uint256 role = _registeredAddr[addr] - 1;\r\n        uint256 pos = _positionOfRegisters[role][addr];\r\n        uint256 len = _registers[role].length;\r\n        if (pos != len) {\r\n            // swap current with last\r\n            RegistrationInfo memory lastRegisteredAddr = _registers[role][\r\n                len - 1\r\n            ];\r\n            _registers[role][pos - 1] = lastRegisteredAddr;\r\n            _positionOfRegisters[role][lastRegisteredAddr.applicant] = pos;\r\n        }\r\n\r\n        _registers[role].pop();\r\n        delete _registeredAddr[addr];\r\n        delete _positionOfRegisters[role][addr];\r\n    }\r\n\r\n    function reject() public {\r\n        require(_registeredAddr[msg.sender] > 0);\r\n        _removeFromRegistersList(msg.sender);\r\n    }\r\n\r\n    function getRegisteredInfo()\r\n        public\r\n        view\r\n        hasRegistered(msg.sender)\r\n        returns (RegistrationInfo memory)\r\n    {\r\n        uint256 role = _registeredAddr[msg.sender] - 1;\r\n        uint256 position = _positionOfRegisters[role][msg.sender];\r\n\r\n        return _registers[role][position - 1];\r\n    }\r\n\r\n    function _getRegisteredRole(address addr) internal view returns (uint256) {\r\n        return _registeredAddr[addr] - 1;\r\n    }\r\n}\r\n",
  "sourcePath": "E:\\learn\\learn-to-earn\\contracts\\Registration.sol",
  "compiler": {
    "name": "solc",
    "version": "0.8.13+commit.abaa5c0e.Emscripten.clang"
  },
  "schemaVersion": "3.4.13",
  "updatedAt": "2023-03-19T14:27:48.676Z",
  "devdoc": {
    "kind": "dev",
    "methods": {},
    "version": 1
  },
  "userdoc": {
    "kind": "user",
    "methods": {},
    "version": 1
  }
}