{
  "contractName": "Registration",
  "abi": [
    {
      "inputs": [],
      "name": "isOwner",
      "outputs": [
        {
          "internalType": "bool",
          "name": "",
          "type": "bool"
        }
      ],
      "stateMutability": "view",
      "type": "function"
    },
    {
      "inputs": [],
      "name": "getAllOwnedRegistrationInfos",
      "outputs": [
        {
          "components": [
            {
              "components": [
                {
                  "internalType": "address",
                  "name": "applicant",
                  "type": "address"
                },
                {
                  "internalType": "string",
                  "name": "documentURI",
                  "type": "string"
                }
              ],
              "internalType": "struct Registration.RegistrationInfo",
              "name": "detail",
              "type": "tuple"
            },
            {
              "internalType": "uint256",
              "name": "role",
              "type": "uint256"
            }
          ],
          "internalType": "struct Registration.RegistrationInfoResponse[]",
          "name": "",
          "type": "tuple[]"
        }
      ],
      "stateMutability": "view",
      "type": "function"
    },
    {
      "inputs": [
        {
          "internalType": "uint256",
          "name": "role",
          "type": "uint256"
        }
      ],
      "name": "getAllRegistrationInfosByRole",
      "outputs": [
        {
          "components": [
            {
              "internalType": "address",
              "name": "applicant",
              "type": "address"
            },
            {
              "internalType": "string",
              "name": "documentURI",
              "type": "string"
            }
          ],
          "internalType": "struct Registration.RegistrationInfo[]",
          "name": "",
          "type": "tuple[]"
        }
      ],
      "stateMutability": "view",
      "type": "function"
    }
  ],
  "bytecode": "0x608060405234801561001057600080fd5b50610b0d806100206000396000f3fe608060405234801561001057600080fd5b50600436106100415760003560e01c80631108f70a1461004657806335f2e0be146100645780638f32d59b14610094575b600080fd5b61004e6100b2565b60405161005b91906107d4565b60405180910390f35b61007e60048036038101906100799190610827565b610393565b60405161008b9190610916565b60405180910390f35b61009c6104fe565b6040516100a99190610953565b60405180910390f35b60606000600460003373ffffffffffffffffffffffffffffffffffffffff1673ffffffffffffffffffffffffffffffffffffffff16815260200190815260200160002080549050905060008167ffffffffffffffff8111156101175761011661096e565b5b60405190808252806020026020018201604052801561015057816020015b61013d610555565b8152602001906001900390816101355790505b50905060005b8281101561038a576000600460003373ffffffffffffffffffffffffffffffffffffffff1673ffffffffffffffffffffffffffffffffffffffff16815260200190815260200160002082815481106101b1576101b061099d565b5b9060005260206000200154905060006002600083815260200190815260200160002060003373ffffffffffffffffffffffffffffffffffffffff1673ffffffffffffffffffffffffffffffffffffffff16815260200190815260200160002054905060405180604001604052806001600085815260200190815260200160002060018461023e91906109fb565b8154811061024f5761024e61099d565b5b90600052602060002090600202016040518060400160405290816000820160009054906101000a900473ffffffffffffffffffffffffffffffffffffffff1673ffffffffffffffffffffffffffffffffffffffff1673ffffffffffffffffffffffffffffffffffffffff1681526020016001820180546102ce90610a5e565b80601f01602080910402602001604051908101604052809291908181526020018280546102fa90610a5e565b80156103475780601f1061031c57610100808354040283529160200191610347565b820191906000526020600020905b81548152906001019060200180831161032a57829003601f168201915b50505050508152505081526020018381525084848151811061036c5761036b61099d565b5b602002602001018190525050508061038390610a8f565b9050610156565b50809250505090565b606061039d6104fe565b6103a657600080fd5b60016000838152602001908152602001600020805480602002602001604051908101604052809291908181526020016000905b828210156104f357838290600052602060002090600202016040518060400160405290816000820160009054906101000a900473ffffffffffffffffffffffffffffffffffffffff1673ffffffffffffffffffffffffffffffffffffffff1673ffffffffffffffffffffffffffffffffffffffff16815260200160018201805461046290610a5e565b80601f016020809104026020016040519081016040528092919081815260200182805461048e90610a5e565b80156104db5780601f106104b0576101008083540402835291602001916104db565b820191906000526020600020905b8154815290600101906020018083116104be57829003601f168201915b505050505081525050815260200190600101906103d9565b505050509050919050565b60008060009054906101000a900473ffffffffffffffffffffffffffffffffffffffff1673ffffffffffffffffffffffffffffffffffffffff163373ffffffffffffffffffffffffffffffffffffffff1614905090565b6040518060400160405280610568610575565b8152602001600081525090565b6040518060400160405280600073ffffffffffffffffffffffffffffffffffffffff168152602001606081525090565b600081519050919050565b600082825260208201905092915050565b6000819050602082019050919050565b600073ffffffffffffffffffffffffffffffffffffffff82169050919050565b60006105fc826105d1565b9050919050565b61060c816105f1565b82525050565b600081519050919050565b600082825260208201905092915050565b60005b8381101561064c578082015181840152602081019050610631565b8381111561065b576000848401525b50505050565b6000601f19601f8301169050919050565b600061067d82610612565b610687818561061d565b935061069781856020860161062e565b6106a081610661565b840191505092915050565b60006040830160008301516106c36000860182610603565b50602083015184820360208601526106db8282610672565b9150508091505092915050565b6000819050919050565b6106fb816106e8565b82525050565b6000604083016000830151848203600086015261071e82826106ab565b915050602083015161073360208601826106f2565b508091505092915050565b600061074a8383610701565b905092915050565b6000602082019050919050565b600061076a826105a5565b61077481856105b0565b935083602082028501610786856105c1565b8060005b858110156107c257848403895281516107a3858261073e565b94506107ae83610752565b925060208a0199505060018101905061078a565b50829750879550505050505092915050565b600060208201905081810360008301526107ee818461075f565b905092915050565b600080fd5b610804816106e8565b811461080f57600080fd5b50565b600081359050610821816107fb565b92915050565b60006020828403121561083d5761083c6107f6565b5b600061084b84828501610812565b91505092915050565b600081519050919050565b600082825260208201905092915050565b6000819050602082019050919050565b600061088c83836106ab565b905092915050565b6000602082019050919050565b60006108ac82610854565b6108b6818561085f565b9350836020820285016108c885610870565b8060005b8581101561090457848403895281516108e58582610880565b94506108f083610894565b925060208a019950506001810190506108cc565b50829750879550505050505092915050565b6000602082019050818103600083015261093081846108a1565b905092915050565b60008115159050919050565b61094d81610938565b82525050565b60006020820190506109686000830184610944565b92915050565b7f4e487b7100000000000000000000000000000000000000000000000000000000600052604160045260246000fd5b7f4e487b7100000000000000000000000000000000000000000000000000000000600052603260045260246000fd5b7f4e487b7100000000000000000000000000000000000000000000000000000000600052601160045260246000fd5b6000610a06826106e8565b9150610a11836106e8565b925082821015610a2457610a236109cc565b5b828203905092915050565b7f4e487b7100000000000000000000000000000000000000000000000000000000600052602260045260246000fd5b60006002820490506001821680610a7657607f821691505b602082108103610a8957610a88610a2f565b5b50919050565b6000610a9a826106e8565b91507fffffffffffffffffffffffffffffffffffffffffffffffffffffffffffffffff8203610acc57610acb6109cc565b5b60018201905091905056fea264697066735822122015499356ea8bf88439185eeae953d6ac3a300fc2b199f98e0761ccb232a75db064736f6c634300080d0033",
  "immutableReferences": {},
  "source": "// SPDX-License-Identifier: MIT\r\n// Tells the Solidity compiler to compile only from v0.8.13 to v0.9.0\r\npragma solidity ^0.8.13;\r\nimport \"./utils/ArraySearch.sol\";\r\n\r\ncontract Registration {\r\n    using ArraySearch for uint256[];\r\n\r\n    struct RegistrationInfo {\r\n        address applicant;\r\n        string documentURI;\r\n    }\r\n\r\n    struct RegistrationInfoResponse {\r\n        RegistrationInfo detail;\r\n        uint256 role;\r\n    }\r\n\r\n    uint256 constant REGISTRATION_START_AT = 200;\r\n    address internal _owner;\r\n\r\n    mapping(uint256 => RegistrationInfo[]) internal _registers; // Role => address\r\n    mapping(uint256 => mapping(address => uint256))\r\n        internal _positionOfRegisters; // Role => address => position\r\n\r\n    mapping(uint256 => bool) internal _hasRole;\r\n    mapping(address => uint256[]) internal _rolesOfRegister;\r\n    mapping(string => bool) internal _registeredDocumentURI;\r\n\r\n    modifier onlyOwner() {\r\n        require(isOwner());\r\n        _;\r\n    }\r\n\r\n    modifier hasRegistered(address addr, uint256 role) {\r\n        require(_positionOfRegisters[role][addr] > 0, \"Not registered\");\r\n        _;\r\n    }\r\n\r\n    modifier allowedRole(uint256 role) {\r\n        require(_hasRole[role], \"Role doesn't not exist\");\r\n        _;\r\n    }\r\n\r\n    function isOwner() public view returns (bool) {\r\n        return msg.sender == _owner;\r\n    }\r\n\r\n    function getAllOwnedRegistrationInfos()\r\n        public\r\n        view\r\n        returns (RegistrationInfoResponse[] memory)\r\n    {\r\n        uint256 len = _rolesOfRegister[msg.sender].length;\r\n        RegistrationInfoResponse[]\r\n            memory registrationInfos = new RegistrationInfoResponse[](len);\r\n        for (uint256 roleIdx; roleIdx < len; ++roleIdx) {\r\n            uint256 role = _rolesOfRegister[msg.sender][roleIdx];\r\n            uint256 pos = _positionOfRegisters[role][msg.sender];\r\n            registrationInfos[roleIdx] = RegistrationInfoResponse(\r\n                _registers[role][pos - 1],\r\n                role\r\n            );\r\n        }\r\n        return registrationInfos;\r\n    }\r\n\r\n    function getAllRegistrationInfosByRole(\r\n        uint256 role\r\n    ) public view onlyOwner returns (RegistrationInfo[] memory) {\r\n        return _registers[role];\r\n    }\r\n\r\n    function _register(uint256 role, string memory documentURI) internal {\r\n        _registers[role].push(RegistrationInfo(msg.sender, documentURI));\r\n        _rolesOfRegister[msg.sender].push(role);\r\n        _positionOfRegisters[role][msg.sender] = _registers[role].length;\r\n        _registeredDocumentURI[documentURI] = true;\r\n    }\r\n\r\n    function _removeFromRegistersList(address addr, uint256 role) internal {\r\n        uint256 pos = _positionOfRegisters[role][addr];\r\n        uint256 len = _registers[role].length;\r\n        if (pos != len) {\r\n            // swap current with last\r\n            RegistrationInfo memory lastRegisteredAddr = _registers[role][\r\n                len - 1\r\n            ];\r\n            _registers[role][pos - 1] = lastRegisteredAddr;\r\n            _positionOfRegisters[role][lastRegisteredAddr.applicant] = pos;\r\n        }\r\n\r\n        _registers[role].pop();\r\n        _removeRoleOfRegister(addr, role);\r\n        delete _positionOfRegisters[role][addr];\r\n    }\r\n\r\n    function _removeRoleOfRegister(address addr, uint256 role) private {\r\n        uint256 rolesCount = _rolesOfRegister[addr].length;\r\n        if (rolesCount == 0) return;\r\n        uint256 roleIdx = rolesCount;\r\n        for (uint256 idx; idx < rolesCount; ++idx) {\r\n            if (role == _rolesOfRegister[addr][idx]) {\r\n                roleIdx = idx;\r\n                break;\r\n            }\r\n        }\r\n        if (roleIdx == rolesCount) return;\r\n        _rolesOfRegister[addr][roleIdx] = _rolesOfRegister[addr][\r\n            rolesCount - 1\r\n        ];\r\n        _rolesOfRegister[addr].pop();\r\n    }\r\n}\r\n",
  "sourcePath": "E:\\learn\\learn-to-earn\\blockchain\\contracts\\Registration.sol",
  "compiler": {
    "name": "solc",
    "version": "0.8.13+commit.abaa5c0e.Emscripten.clang"
  },
  "schemaVersion": "3.4.13",
  "updatedAt": "2023-06-05T16:59:27.441Z",
  "devdoc": {
    "kind": "dev",
    "methods": {},
    "version": 1
  },
  "userdoc": {
    "kind": "user",
    "methods": {},
    "version": 1
  }
}