{
  "contractName": "School",
  "abi": [
    {
      "inputs": [
        {
          "internalType": "address",
          "name": "nftIdentities",
          "type": "address"
        },
        {
          "internalType": "uint256[]",
          "name": "knowledgeBlockIds",
          "type": "uint256[]"
        },
        {
          "internalType": "uint256[]",
          "name": "knowledgeBlockCredits",
          "type": "uint256[]"
        }
      ],
      "stateMutability": "nonpayable",
      "type": "constructor"
    },
    {
      "anonymous": false,
      "inputs": [
        {
          "indexed": false,
          "internalType": "uint256",
          "name": "id",
          "type": "uint256"
        }
      ],
      "name": "NewClassCreated",
      "type": "event"
    },
    {
      "inputs": [],
      "name": "_isInitialize",
      "outputs": [
        {
          "internalType": "bool",
          "name": "",
          "type": "bool"
        }
      ],
      "stateMutability": "view",
      "type": "function",
      "constant": true
    },
    {
      "inputs": [],
      "name": "getAllKnowledgeBlocks",
      "outputs": [
        {
          "components": [
            {
              "internalType": "uint256",
              "name": "id",
              "type": "uint256"
            },
            {
              "internalType": "uint256",
              "name": "credits",
              "type": "uint256"
            }
          ],
          "internalType": "struct IConstant.KnowledgeBlock[]",
          "name": "",
          "type": "tuple[]"
        }
      ],
      "stateMutability": "view",
      "type": "function",
      "constant": true
    },
    {
      "inputs": [
        {
          "internalType": "uint256",
          "name": "semesterId",
          "type": "uint256"
        },
        {
          "internalType": "uint256",
          "name": "registeredStartAt",
          "type": "uint256"
        },
        {
          "internalType": "uint256",
          "name": "registeredEndAt",
          "type": "uint256"
        }
      ],
      "name": "updateRegisteredTime",
      "outputs": [],
      "stateMutability": "nonpayable",
      "type": "function"
    },
    {
      "inputs": [
        {
          "internalType": "uint256",
          "name": "semesterId",
          "type": "uint256"
        }
      ],
      "name": "getRegisterTime",
      "outputs": [
        {
          "internalType": "uint256",
          "name": "",
          "type": "uint256"
        },
        {
          "internalType": "uint256",
          "name": "",
          "type": "uint256"
        }
      ],
      "stateMutability": "view",
      "type": "function",
      "constant": true
    },
    {
      "inputs": [],
      "name": "getAllCourses",
      "outputs": [
        {
          "components": [
            {
              "internalType": "uint256",
              "name": "id",
              "type": "uint256"
            },
            {
              "internalType": "uint256",
              "name": "knowledgeBlockId",
              "type": "uint256"
            },
            {
              "internalType": "uint256",
              "name": "prevCourseId",
              "type": "uint256"
            },
            {
              "internalType": "uint256",
              "name": "credits",
              "type": "uint256"
            },
            {
              "internalType": "uint256",
              "name": "status",
              "type": "uint256"
            },
            {
              "internalType": "string",
              "name": "courseCode",
              "type": "string"
            },
            {
              "internalType": "string",
              "name": "uri",
              "type": "string"
            }
          ],
          "internalType": "struct IConstant.Course[]",
          "name": "",
          "type": "tuple[]"
        }
      ],
      "stateMutability": "view",
      "type": "function",
      "constant": true
    },
    {
      "inputs": [
        {
          "internalType": "uint256",
          "name": "id",
          "type": "uint256"
        }
      ],
      "name": "getCourseById",
      "outputs": [
        {
          "components": [
            {
              "internalType": "uint256",
              "name": "id",
              "type": "uint256"
            },
            {
              "internalType": "uint256",
              "name": "knowledgeBlockId",
              "type": "uint256"
            },
            {
              "internalType": "uint256",
              "name": "prevCourseId",
              "type": "uint256"
            },
            {
              "internalType": "uint256",
              "name": "credits",
              "type": "uint256"
            },
            {
              "internalType": "uint256",
              "name": "status",
              "type": "uint256"
            },
            {
              "internalType": "string",
              "name": "courseCode",
              "type": "string"
            },
            {
              "internalType": "string",
              "name": "uri",
              "type": "string"
            }
          ],
          "internalType": "struct IConstant.Course",
          "name": "",
          "type": "tuple"
        }
      ],
      "stateMutability": "view",
      "type": "function",
      "constant": true
    },
    {
      "inputs": [
        {
          "internalType": "string",
          "name": "tokenURI",
          "type": "string"
        }
      ],
      "name": "getCourseIdByURI",
      "outputs": [
        {
          "internalType": "uint256",
          "name": "",
          "type": "uint256"
        }
      ],
      "stateMutability": "view",
      "type": "function",
      "constant": true
    },
    {
      "inputs": [
        {
          "internalType": "uint256",
          "name": "prevCourseId",
          "type": "uint256"
        },
        {
          "internalType": "uint256",
          "name": "knowledgeBlockId",
          "type": "uint256"
        },
        {
          "internalType": "uint256",
          "name": "credits",
          "type": "uint256"
        },
        {
          "internalType": "string",
          "name": "courseCode",
          "type": "string"
        },
        {
          "internalType": "string",
          "name": "uri",
          "type": "string"
        }
      ],
      "name": "createCourse",
      "outputs": [
        {
          "internalType": "uint256",
          "name": "",
          "type": "uint256"
        }
      ],
      "stateMutability": "nonpayable",
      "type": "function"
    },
    {
      "inputs": [
        {
          "internalType": "uint256",
          "name": "id",
          "type": "uint256"
        }
      ],
      "name": "getClassById",
      "outputs": [
        {
          "components": [
            {
              "internalType": "uint256",
              "name": "id",
              "type": "uint256"
            },
            {
              "internalType": "uint256",
              "name": "courseId",
              "type": "uint256"
            },
            {
              "internalType": "uint256",
              "name": "knowledgeBlockId",
              "type": "uint256"
            },
            {
              "internalType": "uint256",
              "name": "prevCourseId",
              "type": "uint256"
            },
            {
              "internalType": "uint256",
              "name": "credits",
              "type": "uint256"
            },
            {
              "internalType": "uint256",
              "name": "completeAt",
              "type": "uint256"
            },
            {
              "internalType": "uint256",
              "name": "maxSize",
              "type": "uint256"
            },
            {
              "internalType": "uint256",
              "name": "teacherTokenId",
              "type": "uint256"
            },
            {
              "internalType": "uint256",
              "name": "semester",
              "type": "uint256"
            },
            {
              "internalType": "uint256",
              "name": "registerClassFee",
              "type": "uint256"
            },
            {
              "internalType": "string",
              "name": "uri",
              "type": "string"
            }
          ],
          "internalType": "struct IConstant.Class",
          "name": "",
          "type": "tuple"
        }
      ],
      "stateMutability": "view",
      "type": "function",
      "constant": true
    },
    {
      "inputs": [],
      "name": "getAllClasses",
      "outputs": [
        {
          "components": [
            {
              "internalType": "uint256",
              "name": "id",
              "type": "uint256"
            },
            {
              "internalType": "uint256",
              "name": "courseId",
              "type": "uint256"
            },
            {
              "internalType": "uint256",
              "name": "knowledgeBlockId",
              "type": "uint256"
            },
            {
              "internalType": "uint256",
              "name": "prevCourseId",
              "type": "uint256"
            },
            {
              "internalType": "uint256",
              "name": "credits",
              "type": "uint256"
            },
            {
              "internalType": "uint256",
              "name": "completeAt",
              "type": "uint256"
            },
            {
              "internalType": "uint256",
              "name": "maxSize",
              "type": "uint256"
            },
            {
              "internalType": "uint256",
              "name": "teacherTokenId",
              "type": "uint256"
            },
            {
              "internalType": "uint256",
              "name": "semester",
              "type": "uint256"
            },
            {
              "internalType": "uint256",
              "name": "registerClassFee",
              "type": "uint256"
            },
            {
              "internalType": "string",
              "name": "uri",
              "type": "string"
            }
          ],
          "internalType": "struct IConstant.Class[]",
          "name": "",
          "type": "tuple[]"
        }
      ],
      "stateMutability": "view",
      "type": "function",
      "constant": true
    },
    {
      "inputs": [
        {
          "internalType": "uint256",
          "name": "semester",
          "type": "uint256"
        }
      ],
      "name": "getClassBySemester",
      "outputs": [
        {
          "components": [
            {
              "internalType": "uint256",
              "name": "id",
              "type": "uint256"
            },
            {
              "internalType": "uint256",
              "name": "courseId",
              "type": "uint256"
            },
            {
              "internalType": "uint256",
              "name": "knowledgeBlockId",
              "type": "uint256"
            },
            {
              "internalType": "uint256",
              "name": "prevCourseId",
              "type": "uint256"
            },
            {
              "internalType": "uint256",
              "name": "credits",
              "type": "uint256"
            },
            {
              "internalType": "uint256",
              "name": "completeAt",
              "type": "uint256"
            },
            {
              "internalType": "uint256",
              "name": "maxSize",
              "type": "uint256"
            },
            {
              "internalType": "uint256",
              "name": "teacherTokenId",
              "type": "uint256"
            },
            {
              "internalType": "uint256",
              "name": "semester",
              "type": "uint256"
            },
            {
              "internalType": "uint256",
              "name": "registerClassFee",
              "type": "uint256"
            },
            {
              "internalType": "string",
              "name": "uri",
              "type": "string"
            }
          ],
          "internalType": "struct IConstant.Class[]",
          "name": "",
          "type": "tuple[]"
        }
      ],
      "stateMutability": "view",
      "type": "function",
      "constant": true
    },
    {
      "inputs": [
        {
          "internalType": "uint256",
          "name": "teacherTokenId",
          "type": "uint256"
        }
      ],
      "name": "getAssignedClasses",
      "outputs": [
        {
          "components": [
            {
              "internalType": "uint256",
              "name": "id",
              "type": "uint256"
            },
            {
              "internalType": "uint256",
              "name": "courseId",
              "type": "uint256"
            },
            {
              "internalType": "uint256",
              "name": "knowledgeBlockId",
              "type": "uint256"
            },
            {
              "internalType": "uint256",
              "name": "prevCourseId",
              "type": "uint256"
            },
            {
              "internalType": "uint256",
              "name": "credits",
              "type": "uint256"
            },
            {
              "internalType": "uint256",
              "name": "completeAt",
              "type": "uint256"
            },
            {
              "internalType": "uint256",
              "name": "maxSize",
              "type": "uint256"
            },
            {
              "internalType": "uint256",
              "name": "teacherTokenId",
              "type": "uint256"
            },
            {
              "internalType": "uint256",
              "name": "semester",
              "type": "uint256"
            },
            {
              "internalType": "uint256",
              "name": "registerClassFee",
              "type": "uint256"
            },
            {
              "internalType": "string",
              "name": "uri",
              "type": "string"
            }
          ],
          "internalType": "struct IConstant.Class[]",
          "name": "",
          "type": "tuple[]"
        }
      ],
      "stateMutability": "view",
      "type": "function",
      "constant": true
    },
    {
      "inputs": [
        {
          "internalType": "uint256",
          "name": "courseId",
          "type": "uint256"
        },
        {
          "internalType": "uint256",
          "name": "completeAt",
          "type": "uint256"
        },
        {
          "internalType": "uint256",
          "name": "maxSize",
          "type": "uint256"
        },
        {
          "internalType": "uint256",
          "name": "teacherTokenId",
          "type": "uint256"
        },
        {
          "internalType": "uint256",
          "name": "semester",
          "type": "uint256"
        },
        {
          "internalType": "uint256",
          "name": "registerClassFee",
          "type": "uint256"
        },
        {
          "internalType": "string",
          "name": "uri",
          "type": "string"
        }
      ],
      "name": "createClass",
      "outputs": [
        {
          "internalType": "uint256",
          "name": "",
          "type": "uint256"
        }
      ],
      "stateMutability": "nonpayable",
      "type": "function"
    },
    {
      "inputs": [
        {
          "internalType": "uint256",
          "name": "tokenId",
          "type": "uint256"
        }
      ],
      "name": "getRegisterFeeClassById",
      "outputs": [
        {
          "internalType": "uint256",
          "name": "",
          "type": "uint256"
        }
      ],
      "stateMutability": "view",
      "type": "function",
      "constant": true
    }
  ],
  "bytecode": "0x60806040523480156200001157600080fd5b506040516200348d3803806200348d8339818101604052810190620000379190620003a3565b33600260006101000a81548173ffffffffffffffffffffffffffffffffffffffff021916908373ffffffffffffffffffffffffffffffffffffffff16021790555082600360006101000a81548173ffffffffffffffffffffffffffffffffffffffff021916908373ffffffffffffffffffffffffffffffffffffffff16021790555060008251905060005b818110156200016f57600b6040518060400160405280868481518110620000ee57620000ed6200043d565b5b602002602001015181526020018584815181106200011157620001106200043d565b5b60200260200101518152509080600181540180825580915050600190039060005260206000209060020201600090919091909150600082015181600001556020820151816001015550508062000167906200049b565b9050620000c2565b5050505050620004e8565b6000604051905090565b600080fd5b600080fd5b600073ffffffffffffffffffffffffffffffffffffffff82169050919050565b6000620001bb826200018e565b9050919050565b620001cd81620001ae565b8114620001d957600080fd5b50565b600081519050620001ed81620001c2565b92915050565b600080fd5b6000601f19601f8301169050919050565b7f4e487b7100000000000000000000000000000000000000000000000000000000600052604160045260246000fd5b6200024382620001f8565b810181811067ffffffffffffffff8211171562000265576200026462000209565b5b80604052505050565b60006200027a6200017a565b905062000288828262000238565b919050565b600067ffffffffffffffff821115620002ab57620002aa62000209565b5b602082029050602081019050919050565b600080fd5b6000819050919050565b620002d681620002c1565b8114620002e257600080fd5b50565b600081519050620002f681620002cb565b92915050565b6000620003136200030d846200028d565b6200026e565b90508083825260208201905060208402830185811115620003395762000338620002bc565b5b835b81811015620003665780620003518882620002e5565b8452602084019350506020810190506200033b565b5050509392505050565b600082601f830112620003885762000387620001f3565b5b81516200039a848260208601620002fc565b91505092915050565b600080600060608486031215620003bf57620003be62000184565b5b6000620003cf86828701620001dc565b935050602084015167ffffffffffffffff811115620003f357620003f262000189565b5b620004018682870162000370565b925050604084015167ffffffffffffffff81111562000425576200042462000189565b5b620004338682870162000370565b9150509250925092565b7f4e487b7100000000000000000000000000000000000000000000000000000000600052603260045260246000fd5b7f4e487b7100000000000000000000000000000000000000000000000000000000600052601160045260246000fd5b6000620004a882620002c1565b91507fffffffffffffffffffffffffffffffffffffffffffffffffffffffffffffffff8203620004dd57620004dc6200046c565b5b600182019050919050565b612f9580620004f86000396000f3fe608060405234801561001057600080fd5b50600436106100ea5760003560e01c80636be727641161008c578063b564529f11610066578063b564529f14610285578063bbaa15e3146102a3578063d9ac23d9146102d3578063ea5b210f14610304576100ea565b80636be72764146101f55780637071b869146102255780639742d96414610255576100ea565b8063192ac442116100c8578063192ac4421461016d57806326f766ce146101895780635f7b9d73146101b95780636bda75dd146101d7576100ea565b806303d658e0146100ef57806304e48bd11461011f5780630cd190fa1461013d575b600080fd5b61010960048036038101906101049190611b41565b610334565b6040516101169190611d05565b60405180910390f35b6101276104cf565b6040516101349190611e8c565b60405180910390f35b61015760048036038101906101529190611b41565b610714565b6040516101649190611ebd565b60405180910390f35b61018760048036038101906101829190611ed8565b6107aa565b005b6101a3600480360381019061019e9190612060565b6108b1565b6040516101b09190611ebd565b60405180910390f35b6101c1610c60565b6040516101ce91906121f1565b60405180910390f35b6101df610cd3565b6040516101ec91906123c4565b60405180910390f35b61020f600480360381019061020a91906123e6565b610f2e565b60405161021c9190611ebd565b60405180910390f35b61023f600480360381019061023a9190611b41565b6113a1565b60405161024c91906123c4565b60405180910390f35b61026f600480360381019061026a91906124a4565b61160a565b60405161027c9190611ebd565b60405180910390f35b61028d611644565b60405161029a9190612508565b60405180910390f35b6102bd60048036038101906102b89190611b41565b611657565b6040516102ca91906123c4565b60405180910390f35b6102ed60048036038101906102e89190611b41565b611749565b6040516102fb929190612523565b60405180910390f35b61031e60048036038101906103199190611b41565b61177d565b60405161032b91906125ef565b60405180910390f35b61033c6119bd565b6000600d600084815260200190815260200160002054905060008111610397576040517f08c379a000000000000000000000000000000000000000000000000000000000815260040161038e9061266e565b60405180910390fd5b600c6001826103a691906126bd565b815481106103b7576103b66126f1565b5b90600052602060002090600b02016040518061016001604052908160008201548152602001600182015481526020016002820154815260200160038201548152602001600482015481526020016005820154815260200160068201548152602001600782015481526020016008820154815260200160098201548152602001600a820180546104459061274f565b80601f01602080910402602001604051908101604052809291908181526020018280546104719061274f565b80156104be5780601f10610493576101008083540402835291602001916104be565b820191906000526020600020905b8154815290600101906020018083116104a157829003601f168201915b505050505081525050915050919050565b60603373ffffffffffffffffffffffffffffffffffffffff16600260009054906101000a900473ffffffffffffffffffffffffffffffffffffffff1673ffffffffffffffffffffffffffffffffffffffff1614610561576040517f08c379a0000000000000000000000000000000000000000000000000000000008152600401610558906127cc565b60405180910390fd5b6009805480602002602001604051908101604052809291908181526020016000905b8282101561070b57838290600052602060002090600702016040518060e001604052908160008201548152602001600182015481526020016002820154815260200160038201548152602001600482015481526020016005820180546105e89061274f565b80601f01602080910402602001604051908101604052809291908181526020018280546106149061274f565b80156106615780601f1061063657610100808354040283529160200191610661565b820191906000526020600020905b81548152906001019060200180831161064457829003601f168201915b5050505050815260200160068201805461067a9061274f565b80601f01602080910402602001604051908101604052809291908181526020018280546106a69061274f565b80156106f35780601f106106c8576101008083540402835291602001916106f3565b820191906000526020600020905b8154815290600101906020018083116106d657829003601f168201915b50505050508152505081526020019060010190610583565b50505050905090565b600080600d600084815260200190815260200160002054905060008111610770576040517f08c379a00000000000000000000000000000000000000000000000000000000081526004016107679061266e565b60405180910390fd5b600c60018261077f91906126bd565b815481106107905761078f6126f1565b5b90600052602060002090600b020160090154915050919050565b3373ffffffffffffffffffffffffffffffffffffffff16600260009054906101000a900473ffffffffffffffffffffffffffffffffffffffff1673ffffffffffffffffffffffffffffffffffffffff161461083a576040517f08c379a0000000000000000000000000000000000000000000000000000000008152600401610831906127cc565b60405180910390fd5b81811161087c576040517f08c379a000000000000000000000000000000000000000000000000000000000815260040161087390612838565b60405180910390fd5b816004600085815260200190815260200160002081905550806005600085815260200190815260200160002081905550505050565b60003373ffffffffffffffffffffffffffffffffffffffff16600260009054906101000a900473ffffffffffffffffffffffffffffffffffffffff1673ffffffffffffffffffffffffffffffffffffffff1614610943576040517f08c379a000000000000000000000000000000000000000000000000000000000815260040161093a906127cc565b60405180910390fd5b60006008846040516109559190612894565b908152602001604051809103902054146109a4576040517f08c379a000000000000000000000000000000000000000000000000000000000815260040161099b906128f7565b60405180910390fd5b600b805490508511156109ec576040517f08c379a00000000000000000000000000000000000000000000000000000000081526004016109e390612963565b60405180910390fd5b60008411610a2f576040517f08c379a0000000000000000000000000000000000000000000000000000000008152600401610a26906129cf565b60405180910390fd5b6000861480610a5157506000600a600088815260200190815260200160002054115b610a90576040517f08c379a0000000000000000000000000000000000000000000000000000000008152600401610a8790612a3b565b60405180910390fd5b6000600760006001815260200190815260200160002083604051610ab49190612894565b90815260200160405180910390205414610b03576040517f08c379a0000000000000000000000000000000000000000000000000000000008152600401610afa90612aa7565b60405180910390fd5b6000610b0f6001611977565b905060096040518060e0016040528083815260200188815260200189815260200187815260200160018152602001868152602001858152509080600181540180825580915050600190039060005260206000209060070201600090919091909150600082015181600001556020820151816001015560408201518160020155606082015181600301556080820151816004015560a0820151816005019080519060200190610bbe929190611a17565b5060c0820151816006019080519060200190610bdb929190611a17565b50505080600760006001815260200190815260200160002084604051610c019190612894565b908152602001604051809103902081905550600980549050600a60008381526020019081526020016000208190555080600885604051610c419190612894565b9081526020016040518091039020819055508091505095945050505050565b6060600b805480602002602001604051908101604052809291908181526020016000905b82821015610cca57838290600052602060002090600202016040518060400160405290816000820154815260200160018201548152505081526020019060010190610c84565b50505050905090565b60603373ffffffffffffffffffffffffffffffffffffffff16600260009054906101000a900473ffffffffffffffffffffffffffffffffffffffff1673ffffffffffffffffffffffffffffffffffffffff1614610d65576040517f08c379a0000000000000000000000000000000000000000000000000000000008152600401610d5c906127cc565b60405180910390fd5b6000600c80549050905060008167ffffffffffffffff811115610d8b57610d8a611f35565b5b604051908082528060200260200182016040528015610dc457816020015b610db16119bd565b815260200190600190039081610da95790505b50905060005b82811015610f2557600c8181548110610de657610de56126f1565b5b90600052602060002090600b02016040518061016001604052908160008201548152602001600182015481526020016002820154815260200160038201548152602001600482015481526020016005820154815260200160068201548152602001600782015481526020016008820154815260200160098201548152602001600a82018054610e749061274f565b80601f0160208091040260200160405190810160405280929190818152602001828054610ea09061274f565b8015610eed5780601f10610ec257610100808354040283529160200191610eed565b820191906000526020600020905b815481529060010190602001808311610ed057829003601f168201915b505050505081525050828281518110610f0957610f086126f1565b5b602002602001018190525080610f1e90612ac7565b9050610dca565b50809250505090565b60003373ffffffffffffffffffffffffffffffffffffffff16600260009054906101000a900473ffffffffffffffffffffffffffffffffffffffff1673ffffffffffffffffffffffffffffffffffffffff1614610fc0576040517f08c379a0000000000000000000000000000000000000000000000000000000008152600401610fb7906127cc565b60405180910390fd5b6000610fcb8961177d565b90506000600360009054906101000a900473ffffffffffffffffffffffffffffffffffffffff1673ffffffffffffffffffffffffffffffffffffffff1663d703df8b886040518263ffffffff1660e01b815260040161102a9190611ebd565b600060405180830381865afa158015611047573d6000803e3d6000fd5b505050506040513d6000823e3d601f19601f820116820180604052508101906110709190612d20565b90506000600360009054906101000a900473ffffffffffffffffffffffffffffffffffffffff1673ffffffffffffffffffffffffffffffffffffffff166376aed2e1896040518263ffffffff1660e01b81526004016110cf9190611ebd565b602060405180830381865afa1580156110ec573d6000803e3d6000fd5b505050506040513d601f19601f820116820180604052508101906111109190612d69565b905060018081111561112557611124612d96565b5b8114611166576040517f08c379a000000000000000000000000000000000000000000000000000000000815260040161115d90612e11565b60405180910390fd5b89826000015160400151116111b0576040517f08c379a00000000000000000000000000000000000000000000000000000000081526004016111a790612e7d565b60405180910390fd5b60006111bc6002611977565b9050600c6040518061016001604052808381526020018e81526020018660200151815260200186604001518152602001866060015181526020018d81526020018c81526020018b81526020018a81526020018981526020018881525090806001815401808255809150506001900390600052602060002090600b0201600090919091909150600082015181600001556020820151816001015560408201518160020155606082015181600301556080820151816004015560a0820151816005015560c0820151816006015560e082015181600701556101008201518160080155610120820151816009015561014082015181600a0190805190602001906112c4929190611a17565b505050600c80549050600d60008381526020019081526020016000208190555060066000898152602001908152602001600020819080600181540180825580915050600190039060005260206000200160009091909190915055600e60008a81526020019081526020016000208190806001815401808255809150506001900390600052602060002001600090919091909150557f85ea935a5969f304d55f08078ec0395f62519aa6ca78076ff75b8d729bbc625f816040516113879190611ebd565b60405180910390a180945050505050979650505050505050565b606060006006600084815260200190815260200160002080548060200260200160405190810160405280929190818152602001828054801561140257602002820191906000526020600020905b8154815260200190600101908083116113ee575b5050505050905060008151905060008167ffffffffffffffff81111561142b5761142a611f35565b5b60405190808252806020026020018201604052801561146457816020015b6114516119bd565b8152602001906001900390816114495790505b50905060005b828110156115fe57600c6001600d600087858151811061148d5761148c6126f1565b5b60200260200101518152602001908152602001600020546114ae91906126bd565b815481106114bf576114be6126f1565b5b90600052602060002090600b02016040518061016001604052908160008201548152602001600182015481526020016002820154815260200160038201548152602001600482015481526020016005820154815260200160068201548152602001600782015481526020016008820154815260200160098201548152602001600a8201805461154d9061274f565b80601f01602080910402602001604051908101604052809291908181526020018280546115799061274f565b80156115c65780601f1061159b576101008083540402835291602001916115c6565b820191906000526020600020905b8154815290600101906020018083116115a957829003601f168201915b5050505050815250508282815181106115e2576115e16126f1565b5b6020026020010181905250806115f790612ac7565b905061146a565b50809350505050919050565b600060076000600181526020019081526020016000208260405161162e9190612894565b9081526020016040518091039020549050919050565b600360149054906101000a900460ff1681565b60606000600e600084815260200190815260200160002080549050905060008167ffffffffffffffff8111156116905761168f611f35565b5b6040519080825280602002602001820160405280156116c957816020015b6116b66119bd565b8152602001906001900390816116ae5790505b50905060005b8281101561173e5761170f600e600087815260200190815260200160002082815481106116ff576116fe6126f1565b5b9060005260206000200154610334565b828281518110611722576117216126f1565b5b60200260200101819052508061173790612ac7565b90506116cf565b508092505050919050565b6000806004600084815260200190815260200160002054600560008581526020019081526020016000205491509150915091565b611785611a9d565b6000600a6000848152602001908152602001600020549050600081116117e0576040517f08c379a00000000000000000000000000000000000000000000000000000000081526004016117d790612ee9565b60405180910390fd5b60096001826117ef91906126bd565b81548110611800576117ff6126f1565b5b90600052602060002090600702016040518060e0016040529081600082015481526020016001820154815260200160028201548152602001600382015481526020016004820154815260200160058201805461185b9061274f565b80601f01602080910402602001604051908101604052809291908181526020018280546118879061274f565b80156118d45780601f106118a9576101008083540402835291602001916118d4565b820191906000526020600020905b8154815290600101906020018083116118b757829003601f168201915b505050505081526020016006820180546118ed9061274f565b80601f01602080910402602001604051908101604052809291908181526020018280546119199061274f565b80156119665780601f1061193b57610100808354040283529160200191611966565b820191906000526020600020905b81548152906001019060200180831161194957829003601f168201915b505050505081525050915050919050565b60006001600080848152602001908152602001600020600082825461199c9190612f09565b92505081905550600080838152602001908152602001600020549050919050565b60405180610160016040528060008152602001600081526020016000815260200160008152602001600081526020016000815260200160008152602001600081526020016000815260200160008152602001606081525090565b828054611a239061274f565b90600052602060002090601f016020900481019282611a455760008555611a8c565b82601f10611a5e57805160ff1916838001178555611a8c565b82800160010185558215611a8c579182015b82811115611a8b578251825591602001919060010190611a70565b5b509050611a999190611ada565b5090565b6040518060e00160405280600081526020016000815260200160008152602001600081526020016000815260200160608152602001606081525090565b5b80821115611af3576000816000905550600101611adb565b5090565b6000604051905090565b600080fd5b600080fd5b6000819050919050565b611b1e81611b0b565b8114611b2957600080fd5b50565b600081359050611b3b81611b15565b92915050565b600060208284031215611b5757611b56611b01565b5b6000611b6584828501611b2c565b91505092915050565b611b7781611b0b565b82525050565b600081519050919050565b600082825260208201905092915050565b60005b83811015611bb7578082015181840152602081019050611b9c565b83811115611bc6576000848401525b50505050565b6000601f19601f8301169050919050565b6000611be882611b7d565b611bf28185611b88565b9350611c02818560208601611b99565b611c0b81611bcc565b840191505092915050565b600061016083016000830151611c2f6000860182611b6e565b506020830151611c426020860182611b6e565b506040830151611c556040860182611b6e565b506060830151611c686060860182611b6e565b506080830151611c7b6080860182611b6e565b5060a0830151611c8e60a0860182611b6e565b5060c0830151611ca160c0860182611b6e565b5060e0830151611cb460e0860182611b6e565b50610100830151611cc9610100860182611b6e565b50610120830151611cde610120860182611b6e565b50610140830151848203610140860152611cf88282611bdd565b9150508091505092915050565b60006020820190508181036000830152611d1f8184611c16565b905092915050565b600081519050919050565b600082825260208201905092915050565b6000819050602082019050919050565b600060e083016000830151611d6b6000860182611b6e565b506020830151611d7e6020860182611b6e565b506040830151611d916040860182611b6e565b506060830151611da46060860182611b6e565b506080830151611db76080860182611b6e565b5060a083015184820360a0860152611dcf8282611bdd565b91505060c083015184820360c0860152611de98282611bdd565b9150508091505092915050565b6000611e028383611d53565b905092915050565b6000602082019050919050565b6000611e2282611d27565b611e2c8185611d32565b935083602082028501611e3e85611d43565b8060005b85811015611e7a5784840389528151611e5b8582611df6565b9450611e6683611e0a565b925060208a01995050600181019050611e42565b50829750879550505050505092915050565b60006020820190508181036000830152611ea68184611e17565b905092915050565b611eb781611b0b565b82525050565b6000602082019050611ed26000830184611eae565b92915050565b600080600060608486031215611ef157611ef0611b01565b5b6000611eff86828701611b2c565b9350506020611f1086828701611b2c565b9250506040611f2186828701611b2c565b9150509250925092565b600080fd5b600080fd5b7f4e487b7100000000000000000000000000000000000000000000000000000000600052604160045260246000fd5b611f6d82611bcc565b810181811067ffffffffffffffff82111715611f8c57611f8b611f35565b5b80604052505050565b6000611f9f611af7565b9050611fab8282611f64565b919050565b600067ffffffffffffffff821115611fcb57611fca611f35565b5b611fd482611bcc565b9050602081019050919050565b82818337600083830152505050565b6000612003611ffe84611fb0565b611f95565b90508281526020810184848401111561201f5761201e611f30565b5b61202a848285611fe1565b509392505050565b600082601f83011261204757612046611f2b565b5b8135612057848260208601611ff0565b91505092915050565b600080600080600060a0868803121561207c5761207b611b01565b5b600061208a88828901611b2c565b955050602061209b88828901611b2c565b94505060406120ac88828901611b2c565b935050606086013567ffffffffffffffff8111156120cd576120cc611b06565b5b6120d988828901612032565b925050608086013567ffffffffffffffff8111156120fa576120f9611b06565b5b61210688828901612032565b9150509295509295909350565b600081519050919050565b600082825260208201905092915050565b6000819050602082019050919050565b6040820160008201516121556000850182611b6e565b5060208201516121686020850182611b6e565b50505050565b600061217a838361213f565b60408301905092915050565b6000602082019050919050565b600061219e82612113565b6121a8818561211e565b93506121b38361212f565b8060005b838110156121e45781516121cb888261216e565b97506121d683612186565b9250506001810190506121b7565b5085935050505092915050565b6000602082019050818103600083015261220b8184612193565b905092915050565b600081519050919050565b600082825260208201905092915050565b6000819050602082019050919050565b6000610160830160008301516122586000860182611b6e565b50602083015161226b6020860182611b6e565b50604083015161227e6040860182611b6e565b5060608301516122916060860182611b6e565b5060808301516122a46080860182611b6e565b5060a08301516122b760a0860182611b6e565b5060c08301516122ca60c0860182611b6e565b5060e08301516122dd60e0860182611b6e565b506101008301516122f2610100860182611b6e565b50610120830151612307610120860182611b6e565b506101408301518482036101408601526123218282611bdd565b9150508091505092915050565b600061233a838361223f565b905092915050565b6000602082019050919050565b600061235a82612213565b612364818561221e565b9350836020820285016123768561222f565b8060005b858110156123b25784840389528151612393858261232e565b945061239e83612342565b925060208a0199505060018101905061237a565b50829750879550505050505092915050565b600060208201905081810360008301526123de818461234f565b905092915050565b600080600080600080600060e0888a03121561240557612404611b01565b5b60006124138a828b01611b2c565b97505060206124248a828b01611b2c565b96505060406124358a828b01611b2c565b95505060606124468a828b01611b2c565b94505060806124578a828b01611b2c565b93505060a06124688a828b01611b2c565b92505060c088013567ffffffffffffffff81111561248957612488611b06565b5b6124958a828b01612032565b91505092959891949750929550565b6000602082840312156124ba576124b9611b01565b5b600082013567ffffffffffffffff8111156124d8576124d7611b06565b5b6124e484828501612032565b91505092915050565b60008115159050919050565b612502816124ed565b82525050565b600060208201905061251d60008301846124f9565b92915050565b60006040820190506125386000830185611eae565b6125456020830184611eae565b9392505050565b600060e0830160008301516125646000860182611b6e565b5060208301516125776020860182611b6e565b50604083015161258a6040860182611b6e565b50606083015161259d6060860182611b6e565b5060808301516125b06080860182611b6e565b5060a083015184820360a08601526125c88282611bdd565b91505060c083015184820360c08601526125e28282611bdd565b9150508091505092915050565b60006020820190508181036000830152612609818461254c565b905092915050565b600082825260208201905092915050565b7f534c2d4552522d30300000000000000000000000000000000000000000000000600082015250565b6000612658600983612611565b915061266382612622565b602082019050919050565b600060208201905081810360008301526126878161264b565b9050919050565b7f4e487b7100000000000000000000000000000000000000000000000000000000600052601160045260246000fd5b60006126c882611b0b565b91506126d383611b0b565b9250828210156126e6576126e561268e565b5b828203905092915050565b7f4e487b7100000000000000000000000000000000000000000000000000000000600052603260045260246000fd5b7f4e487b7100000000000000000000000000000000000000000000000000000000600052602260045260246000fd5b6000600282049050600182168061276757607f821691505b60208210810361277a57612779612720565b5b50919050565b7f432d4552522d3038000000000000000000000000000000000000000000000000600082015250565b60006127b6600883612611565b91506127c182612780565b602082019050919050565b600060208201905081810360008301526127e5816127a9565b9050919050565b7f432d4552522d3037000000000000000000000000000000000000000000000000600082015250565b6000612822600883612611565b915061282d826127ec565b602082019050919050565b6000602082019050818103600083015261285181612815565b9050919050565b600081905092915050565b600061286e82611b7d565b6128788185612858565b9350612888818560208601611b99565b80840191505092915050565b60006128a08284612863565b915081905092915050565b7f53432d4552522d30310000000000000000000000000000000000000000000000600082015250565b60006128e1600983612611565b91506128ec826128ab565b602082019050919050565b60006020820190508181036000830152612910816128d4565b9050919050565b7f532d4552522d3031000000000000000000000000000000000000000000000000600082015250565b600061294d600883612611565b915061295882612917565b602082019050919050565b6000602082019050818103600083015261297c81612940565b9050919050565b7f532d4552522d3032000000000000000000000000000000000000000000000000600082015250565b60006129b9600883612611565b91506129c482612983565b602082019050919050565b600060208201905081810360008301526129e8816129ac565b9050919050565b7f53432d4552522d30330000000000000000000000000000000000000000000000600082015250565b6000612a25600983612611565b9150612a30826129ef565b602082019050919050565b60006020820190508181036000830152612a5481612a18565b9050919050565b7f432d4552522d3035000000000000000000000000000000000000000000000000600082015250565b6000612a91600883612611565b9150612a9c82612a5b565b602082019050919050565b60006020820190508181036000830152612ac081612a84565b9050919050565b6000612ad282611b0b565b91507fffffffffffffffffffffffffffffffffffffffffffffffffffffffffffffffff8203612b0457612b0361268e565b5b600182019050919050565b600080fd5b600080fd5b600081519050612b2881611b15565b92915050565b600073ffffffffffffffffffffffffffffffffffffffff82169050919050565b6000612b5982612b2e565b9050919050565b612b6981612b4e565b8114612b7457600080fd5b50565b600081519050612b8681612b60565b92915050565b600060608284031215612ba257612ba1612b0f565b5b612bac6060611f95565b90506000612bbc84828501612b19565b6000830152506020612bd084828501612b77565b6020830152506040612be484828501612b19565b60408301525092915050565b6000612c03612bfe84611fb0565b611f95565b905082815260208101848484011115612c1f57612c1e611f30565b5b612c2a848285611b99565b509392505050565b600082601f830112612c4757612c46611f2b565b5b8151612c57848260208601612bf0565b91505092915050565b612c69816124ed565b8114612c7457600080fd5b50565b600081519050612c8681612c60565b92915050565b600060c08284031215612ca257612ca1612b0f565b5b612cac6080611f95565b90506000612cbc84828501612b8c565b600083015250606082015167ffffffffffffffff811115612ce057612cdf612b14565b5b612cec84828501612c32565b6020830152506080612d0084828501612b19565b60408301525060a0612d1484828501612c77565b60608301525092915050565b600060208284031215612d3657612d35611b01565b5b600082015167ffffffffffffffff811115612d5457612d53611b06565b5b612d6084828501612c8c565b91505092915050565b600060208284031215612d7f57612d7e611b01565b5b6000612d8d84828501612b19565b91505092915050565b7f4e487b7100000000000000000000000000000000000000000000000000000000600052602160045260246000fd5b7f4e492d4552522d30330000000000000000000000000000000000000000000000600082015250565b6000612dfb600983612611565b9150612e0682612dc5565b602082019050919050565b60006020820190508181036000830152612e2a81612dee565b9050919050565b7f534c2d4552522d30310000000000000000000000000000000000000000000000600082015250565b6000612e67600983612611565b9150612e7282612e31565b602082019050919050565b60006020820190508181036000830152612e9681612e5a565b9050919050565b7f53432d4552522d30300000000000000000000000000000000000000000000000600082015250565b6000612ed3600983612611565b9150612ede82612e9d565b602082019050919050565b60006020820190508181036000830152612f0281612ec6565b9050919050565b6000612f1482611b0b565b9150612f1f83611b0b565b9250827fffffffffffffffffffffffffffffffffffffffffffffffffffffffffffffffff03821115612f5457612f5361268e565b5b82820190509291505056fea26469706673582212209c386da2bc066d80cfa0d98582f2552e27a8c1acc810df8633d96daae041828f64736f6c634300080d0033",
  "immutableReferences": {},
  "source": "// SPDX-License-Identifier: MIT\r\n// Tells the Solidity compiler to compile only from v0.8.13 to v0.9.0\r\npragma solidity ^0.8.13;\r\n\r\nimport \"./base/ERC1155BaseContract.sol\";\r\nimport \"./utils/IdentityGenerator.sol\";\r\nimport \"./interfaces/ISchool.sol\";\r\nimport \"./interfaces/INftIdentities.sol\";\r\nimport \"./interfaces/INftCompleteCourses.sol\";\r\n\r\ncontract School is ISchool, IdentityGenerator {\r\n    using Counters for Counters.Counter;\r\n\r\n    uint256 constant COURSE_ID = 1;\r\n    uint256 constant CLASS_ID = 2;\r\n    uint256 constant REGISTERED_TIME_ID = 3;\r\n\r\n    uint256 constant NFT_COURSE_REGISTRATION_ID = 0;\r\n\r\n    string[] private courseURIs;\r\n\r\n    address private _owner;\r\n\r\n    INftIdentities private _nftIdentities;\r\n\r\n    bool public _isInitialize;\r\n\r\n    event NewClassCreated(uint256 id);\r\n\r\n    mapping(uint256 => uint256) private _registeredStartAt;\r\n    mapping(uint256 => uint256) private _registeredEndAt;\r\n\r\n    mapping(uint256 => uint256[]) private _classIdsOfSemeter;\r\n    mapping(uint256 => mapping(string => uint256)) private _idOfURIOfType;\r\n    mapping(string => uint256) _courseIdOfCode;\r\n\r\n    Course[] private _allCourses;\r\n    mapping(uint256 => uint256) _posOfCourses;\r\n\r\n    KnowledgeBlock[] private _knowledgeBlocks;\r\n\r\n    Class[] private _allClasses;\r\n    mapping(uint256 => uint256) private _posOfClasses;\r\n    mapping(uint256 => uint256[]) private _assignedClassesOfTeacher;\r\n\r\n    modifier onlyOwner() {\r\n        require(_owner == msg.sender, \"C-ERR-08\");\r\n        _;\r\n    }\r\n\r\n    constructor(\r\n        address nftIdentities,\r\n        uint256[] memory knowledgeBlockIds,\r\n        uint256[] memory knowledgeBlockCredits\r\n    ) {\r\n        _owner = msg.sender;\r\n        _nftIdentities = INftIdentities(nftIdentities);\r\n\r\n        uint256 knowledgeBlockCount = knowledgeBlockIds.length;\r\n        for (uint256 idx = 0; idx < knowledgeBlockCount; ++idx) {\r\n            _knowledgeBlocks.push(\r\n                KnowledgeBlock(\r\n                    knowledgeBlockIds[idx],\r\n                    knowledgeBlockCredits[idx]\r\n                )\r\n            );\r\n        }\r\n    }\r\n\r\n    // Knowledge Block: Start\r\n    function getAllKnowledgeBlocks()\r\n        external\r\n        view\r\n        returns (KnowledgeBlock[] memory)\r\n    {\r\n        return _knowledgeBlocks;\r\n    }\r\n\r\n    // Knowledge Block: End\r\n\r\n    // Register time Section: Start\r\n    function updateRegisteredTime(\r\n        uint256 semesterId,\r\n        uint256 registeredStartAt,\r\n        uint256 registeredEndAt\r\n    ) external onlyOwner {\r\n        require(registeredEndAt > registeredStartAt, \"C-ERR-07\");\r\n        _registeredStartAt[semesterId] = registeredStartAt;\r\n        _registeredEndAt[semesterId] = registeredEndAt;\r\n    }\r\n\r\n    function getRegisterTime(\r\n        uint256 semesterId\r\n    ) external view returns (uint256, uint256) {\r\n        return (_registeredStartAt[semesterId], _registeredEndAt[semesterId]);\r\n    }\r\n\r\n    // Register time Section: End\r\n\r\n    // Course Block: Start\r\n    function getAllCourses() external view onlyOwner returns (Course[] memory) {\r\n        return _allCourses;\r\n    }\r\n\r\n    function getCourseById(uint256 id) public view returns (Course memory) {\r\n        uint256 pos = _posOfCourses[id];\r\n        require(pos > 0, \"SC-ERR-00\");\r\n\r\n        return _allCourses[pos - 1];\r\n    }\r\n\r\n    function getCourseIdByURI(\r\n        string memory tokenURI\r\n    ) public view returns (uint256) {\r\n        return _idOfURIOfType[COURSE_ID][tokenURI];\r\n    }\r\n\r\n    function createCourse(\r\n        uint256 prevCourseId,\r\n        uint256 knowledgeBlockId,\r\n        uint256 credits,\r\n        string memory courseCode,\r\n        string memory uri\r\n    ) public onlyOwner returns (uint256) {\r\n        require(_courseIdOfCode[courseCode] == 0, \"SC-ERR-01\");\r\n        require(knowledgeBlockId <= _knowledgeBlocks.length, \"S-ERR-01\");\r\n        require(credits > 0, \"S-ERR-02\");\r\n        require(\r\n            prevCourseId == 0 || _posOfCourses[prevCourseId] > 0,\r\n            \"SC-ERR-03\"\r\n        );\r\n        require(_idOfURIOfType[COURSE_ID][uri] == 0, \"C-ERR-05\");\r\n        uint256 id = generateNewId(COURSE_ID);\r\n        _allCourses.push(\r\n            Course(\r\n                id,\r\n                knowledgeBlockId,\r\n                prevCourseId,\r\n                credits,\r\n                1,\r\n                courseCode,\r\n                uri\r\n            )\r\n        );\r\n        _idOfURIOfType[COURSE_ID][uri] = id;\r\n        _posOfCourses[id] = _allCourses.length;\r\n        _courseIdOfCode[courseCode] = id;\r\n\r\n        return id;\r\n    }\r\n\r\n    // Course Block: End\r\n\r\n    // Class Block: Start\r\n    function getClassById(uint256 id) public view returns (Class memory) {\r\n        uint256 pos = _posOfClasses[id];\r\n        require(pos > 0, \"SL-ERR-00\");\r\n\r\n        return _allClasses[pos - 1];\r\n    }\r\n\r\n    function getAllClasses() external view onlyOwner returns (Class[] memory) {\r\n        uint256 length = _allClasses.length;\r\n        Class[] memory classes = new Class[](length);\r\n\r\n        for (uint256 idx; idx < length; ++idx) {\r\n            classes[idx] = _allClasses[idx];\r\n        }\r\n\r\n        return classes;\r\n    }\r\n\r\n    function getClassBySemester(\r\n        uint256 semester\r\n    ) external view returns (Class[] memory) {\r\n        uint256[] memory ids = _classIdsOfSemeter[semester];\r\n        uint256 count = ids.length;\r\n        Class[] memory classes = new Class[](count);\r\n\r\n        for (uint256 idx; idx < count; ++idx) {\r\n            classes[idx] = _allClasses[_posOfClasses[ids[idx]] - 1];\r\n        }\r\n\r\n        return classes;\r\n    }\r\n\r\n    function getAssignedClasses(\r\n        uint256 teacherTokenId\r\n    ) external view returns (Class[] memory) {\r\n        uint256 count = _assignedClassesOfTeacher[teacherTokenId].length;\r\n        Class[] memory result = new Class[](count);\r\n\r\n        for (uint256 idx; idx < count; ++idx) {\r\n            result[idx] = getClassById(\r\n                _assignedClassesOfTeacher[teacherTokenId][idx]\r\n            );\r\n        }\r\n\r\n        return result;\r\n    }\r\n\r\n    function createClass(\r\n        uint256 courseId,\r\n        uint256 completeAt,\r\n        uint256 maxSize,\r\n        uint256 teacherTokenId,\r\n        uint256 semester,\r\n        uint256 registerClassFee,\r\n        string memory uri\r\n    ) public onlyOwner returns (uint256) {\r\n        Course memory course = getCourseById(courseId);\r\n        NftIdentityResponse memory nftTeacher = _nftIdentities.getNftOfTokenId(\r\n            teacherTokenId\r\n        );\r\n        uint256 nftTeacherRole = _nftIdentities.getTokenType(teacherTokenId);\r\n\r\n        require(nftTeacherRole == uint256(ROLE.TEACHER), \"NI-ERR-03\");\r\n        require(nftTeacher.nftIdentity.expiredAt > completeAt, \"SL-ERR-01\");\r\n        uint256 id = generateNewId(CLASS_ID);\r\n        _allClasses.push(\r\n            Class(\r\n                id,\r\n                courseId,\r\n                course.knowledgeBlockId,\r\n                course.prevCourseId,\r\n                course.credits,\r\n                completeAt,\r\n                maxSize,\r\n                teacherTokenId,\r\n                semester,\r\n                registerClassFee,\r\n                uri\r\n            )\r\n        );\r\n        _posOfClasses[id] = _allClasses.length;\r\n        _classIdsOfSemeter[semester].push(id);\r\n        _assignedClassesOfTeacher[teacherTokenId].push(id);\r\n        emit NewClassCreated(id);\r\n\r\n        return id;\r\n    }\r\n\r\n    function getRegisterFeeClassById(\r\n        uint256 tokenId\r\n    ) public view returns (uint256) {\r\n        uint256 pos = _posOfClasses[tokenId];\r\n        require(pos > 0, \"SL-ERR-00\");\r\n\r\n        return _allClasses[pos - 1].registerClassFee;\r\n    }\r\n}\r\n",
  "sourcePath": "E:\\learn\\learn-to-earn\\blockchain\\contracts\\School.sol",
  "compiler": {
    "name": "solc",
    "version": "0.8.13+commit.abaa5c0e.Emscripten.clang"
  },
  "schemaVersion": "3.4.13",
  "updatedAt": "2023-07-20T00:38:52.851Z",
  "networkType": "ethereum",
  "devdoc": {
    "kind": "dev",
    "methods": {},
    "version": 1
  },
  "userdoc": {
    "kind": "user",
    "methods": {},
    "version": 1
  }
}