{
  "contractName": "Score",
  "abi": [
    {
      "inputs": [],
      "stateMutability": "nonpayable",
      "type": "constructor"
    },
    {
      "inputs": [
        {
          "internalType": "uint256[]",
          "name": "scores",
          "type": "uint256[]"
        }
      ],
      "name": "checkValidScores",
      "outputs": [
        {
          "internalType": "bool",
          "name": "",
          "type": "bool"
        }
      ],
      "stateMutability": "view",
      "type": "function"
    }
  ],
  "bytecode": "0x608060405234801561001057600080fd5b5060016000808060048111156100295761002861014a565b5b815260200190815260200160002060006101000a81548160ff0219169083151502179055506001600080600160048111156100675761006661014a565b5b815260200190815260200160002060006101000a81548160ff0219169083151502179055506001600080600260048111156100a5576100a461014a565b5b815260200190815260200160002060006101000a81548160ff0219169083151502179055506001600080600360048111156100e3576100e261014a565b5b815260200190815260200160002060006101000a81548160ff02191690831515021790555060016000806004808111156101205761011f61014a565b5b815260200190815260200160002060006101000a81548160ff021916908315150217905550610179565b7f4e487b7100000000000000000000000000000000000000000000000000000000600052602160045260246000fd5b6103d6806101886000396000f3fe608060405234801561001057600080fd5b506004361061002b5760003560e01c80634cecbc2814610030575b600080fd5b61004a6004803603810190610045919061027b565b610060565b60405161005791906102df565b60405180910390f35b6000808251905060005b818110156100cc57600080858381518110610088576100876102fa565b5b6020026020010151815260200190815260200160002060009054906101000a900460ff166100bb576000925050506100d3565b806100c590610358565b905061006a565b5060019150505b919050565b6000604051905090565b600080fd5b600080fd5b600080fd5b6000601f19601f8301169050919050565b7f4e487b7100000000000000000000000000000000000000000000000000000000600052604160045260246000fd5b61013a826100f1565b810181811067ffffffffffffffff8211171561015957610158610102565b5b80604052505050565b600061016c6100d8565b90506101788282610131565b919050565b600067ffffffffffffffff82111561019857610197610102565b5b602082029050602081019050919050565b600080fd5b6000819050919050565b6101c1816101ae565b81146101cc57600080fd5b50565b6000813590506101de816101b8565b92915050565b60006101f76101f28461017d565b610162565b9050808382526020820190506020840283018581111561021a576102196101a9565b5b835b81811015610243578061022f88826101cf565b84526020840193505060208101905061021c565b5050509392505050565b600082601f830112610262576102616100ec565b5b81356102728482602086016101e4565b91505092915050565b600060208284031215610291576102906100e2565b5b600082013567ffffffffffffffff8111156102af576102ae6100e7565b5b6102bb8482850161024d565b91505092915050565b60008115159050919050565b6102d9816102c4565b82525050565b60006020820190506102f460008301846102d0565b92915050565b7f4e487b7100000000000000000000000000000000000000000000000000000000600052603260045260246000fd5b7f4e487b7100000000000000000000000000000000000000000000000000000000600052601160045260246000fd5b6000610363826101ae565b91507fffffffffffffffffffffffffffffffffffffffffffffffffffffffffffffffff820361039557610394610329565b5b60018201905091905056fea2646970667358221220912e5dd9ede8666a8854de5db99982b3ee2c5c42a8f047b2ee174e7e407422ba64736f6c634300080d0033",
  "immutableReferences": {},
  "source": "// SPDX-License-Identifier: MIT\r\n// Tells the Solidity compiler to compile only from v0.8.13 to v0.9.0\r\npragma solidity ^0.8.13;\r\n\r\nimport \"./ERC1155BaseContract.sol\";\r\nimport \"./interfaces/IScore.sol\";\r\n\r\n/*\r\n    Initial year: Requirements + Course Template (time available to update? --> after year end)\r\n    (Save endCurrentYear) -> Classes -> Register course -> Received Nft Scoreboard\r\n    Course end: Mint Nft complete course <-- Transfer info from Nft Scoreboard to this\r\n    Enough course: Exchange nft graduation from nft courses (payable)\r\n*/\r\ncontract Score is IScore {\r\n    mapping(uint256 => bool) private _usableScores;\r\n    \r\n    constructor() {\r\n        _usableScores[uint256(ScoreType.Midterm)] = true;\r\n        _usableScores[uint256(ScoreType.Practice)] = true;\r\n        _usableScores[uint256(ScoreType.Plus)] = true;\r\n        _usableScores[uint256(ScoreType.Final)] = true;\r\n        _usableScores[uint256(ScoreType.Other)] = true;\r\n    }\r\n\r\n    function checkValidScores(uint256[] memory scores)\r\n        external\r\n        view\r\n        returns (bool)\r\n    {\r\n        uint256 numberOfChecks = scores.length;\r\n        for (uint256 idx = 0; idx < numberOfChecks; ++idx) {\r\n            if (!_usableScores[scores[idx]]) {\r\n                return false;\r\n            }\r\n        }\r\n\r\n        return true;\r\n    }\r\n\r\n}",
  "sourcePath": "E:\\learn\\learn-to-earn\\blockchain\\contracts\\Score.sol",
  "compiler": {
    "name": "solc",
    "version": "0.8.13+commit.abaa5c0e.Emscripten.clang"
  },
  "schemaVersion": "3.4.13",
  "updatedAt": "2023-05-24T16:45:30.281Z",
  "devdoc": {
    "kind": "dev",
    "methods": {},
    "version": 1
  },
  "userdoc": {
    "kind": "user",
    "methods": {},
    "version": 1
  }
}