{
  "contractName": "Score",
  "abi": [
    {
      "inputs": [],
      "stateMutability": "nonpayable",
      "type": "constructor"
    },
    {
      "inputs": [
        {
          "internalType": "uint256[]",
          "name": "scores",
          "type": "uint256[]"
        }
      ],
      "name": "checkValidScores",
      "outputs": [
        {
          "internalType": "bool",
          "name": "",
          "type": "bool"
        }
      ],
      "stateMutability": "view",
      "type": "function",
      "constant": true
    }
  ],
  "bytecode": "0x608060405234801561001057600080fd5b5060016000808060048111156100295761002861014a565b5b815260200190815260200160002060006101000a81548160ff0219169083151502179055506001600080600160048111156100675761006661014a565b5b815260200190815260200160002060006101000a81548160ff0219169083151502179055506001600080600260048111156100a5576100a461014a565b5b815260200190815260200160002060006101000a81548160ff0219169083151502179055506001600080600360048111156100e3576100e261014a565b5b815260200190815260200160002060006101000a81548160ff02191690831515021790555060016000806004808111156101205761011f61014a565b5b815260200190815260200160002060006101000a81548160ff021916908315150217905550610179565b7f4e487b7100000000000000000000000000000000000000000000000000000000600052602160045260246000fd5b6103d5806101886000396000f3fe608060405234801561001057600080fd5b506004361061002b5760003560e01c80634cecbc2814610030575b600080fd5b61004a6004803603810190610045919061027a565b610060565b60405161005791906102de565b60405180910390f35b6000808251905060005b8181116100cb57600080858381518110610087576100866102f9565b5b6020026020010151815260200190815260200160002060009054906101000a900460ff166100ba576000925050506100d2565b806100c490610357565b905061006a565b5060019150505b919050565b6000604051905090565b600080fd5b600080fd5b600080fd5b6000601f19601f8301169050919050565b7f4e487b7100000000000000000000000000000000000000000000000000000000600052604160045260246000fd5b610139826100f0565b810181811067ffffffffffffffff8211171561015857610157610101565b5b80604052505050565b600061016b6100d7565b90506101778282610130565b919050565b600067ffffffffffffffff82111561019757610196610101565b5b602082029050602081019050919050565b600080fd5b6000819050919050565b6101c0816101ad565b81146101cb57600080fd5b50565b6000813590506101dd816101b7565b92915050565b60006101f66101f18461017c565b610161565b90508083825260208201905060208402830185811115610219576102186101a8565b5b835b81811015610242578061022e88826101ce565b84526020840193505060208101905061021b565b5050509392505050565b600082601f830112610261576102606100eb565b5b81356102718482602086016101e3565b91505092915050565b6000602082840312156102905761028f6100e1565b5b600082013567ffffffffffffffff8111156102ae576102ad6100e6565b5b6102ba8482850161024c565b91505092915050565b60008115159050919050565b6102d8816102c3565b82525050565b60006020820190506102f360008301846102cf565b92915050565b7f4e487b7100000000000000000000000000000000000000000000000000000000600052603260045260246000fd5b7f4e487b7100000000000000000000000000000000000000000000000000000000600052601160045260246000fd5b6000610362826101ad565b91507fffffffffffffffffffffffffffffffffffffffffffffffffffffffffffffffff820361039457610393610328565b5b60018201905091905056fea2646970667358221220b680a3a25fd8bfedfa083f8e79af7d7ae0353b6c399a11b8c241ae850c2b484264736f6c634300080d0033",
  "immutableReferences": {},
  "source": "// SPDX-License-Identifier: MIT\r\n// Tells the Solidity compiler to compile only from v0.8.13 to v0.9.0\r\npragma solidity ^0.8.13;\r\n\r\nimport \"./ERC1155BaseContract.sol\";\r\nimport \"./interfaces/IScore.sol\";\r\n\r\n/*\r\n    Initial year: Requirements + Course Template (time available to update? --> after year end)\r\n    (Save endCurrentYear) -> Classes -> Register course -> Received Nft Scoreboard\r\n    Course end: Mint Nft complete course <-- Transfer info from Nft Scoreboard to this\r\n    Enough course: Exchange nft graduation from nft courses (payable)\r\n*/\r\ncontract Score is IScore {\r\n    mapping(uint256 => bool) private _usableScores;\r\n    \r\n    constructor() {\r\n        _usableScores[uint256(ScoreType.Midterm)] = true;\r\n        _usableScores[uint256(ScoreType.Practice)] = true;\r\n        _usableScores[uint256(ScoreType.Plus)] = true;\r\n        _usableScores[uint256(ScoreType.Final)] = true;\r\n        _usableScores[uint256(ScoreType.Other)] = true;\r\n    }\r\n\r\n    function checkValidScores(uint256[] memory scores)\r\n        external\r\n        view\r\n        returns (bool)\r\n    {\r\n        uint256 numberOfChecks = scores.length;\r\n        for (uint256 idx = 0; idx <= numberOfChecks; ++idx) {\r\n            if (!_usableScores[scores[idx]]) {\r\n                return false;\r\n            }\r\n        }\r\n\r\n        return true;\r\n    }\r\n\r\n}",
  "sourcePath": "E:\\learn\\learn-to-earn\\contracts\\Score.sol",
  "compiler": {
    "name": "solc",
    "version": "0.8.13+commit.abaa5c0e.Emscripten.clang"
  },
  "schemaVersion": "3.4.13",
  "updatedAt": "2023-03-19T14:27:56.736Z",
  "networkType": "ethereum",
  "devdoc": {
    "kind": "dev",
    "methods": {},
    "version": 1
  },
  "userdoc": {
    "kind": "user",
    "methods": {},
    "version": 1
  }
}