{
  "contractName": "NftCourse",
  "abi": [
    {
      "inputs": [
        {
          "internalType": "contract School",
          "name": "schoolContract",
          "type": "address"
        }
      ],
      "stateMutability": "nonpayable",
      "type": "constructor"
    },
    {
      "anonymous": false,
      "inputs": [
        {
          "indexed": true,
          "internalType": "address",
          "name": "owner",
          "type": "address"
        },
        {
          "indexed": true,
          "internalType": "address",
          "name": "approved",
          "type": "address"
        },
        {
          "indexed": true,
          "internalType": "uint256",
          "name": "tokenId",
          "type": "uint256"
        }
      ],
      "name": "Approval",
      "type": "event"
    },
    {
      "anonymous": false,
      "inputs": [
        {
          "indexed": true,
          "internalType": "address",
          "name": "owner",
          "type": "address"
        },
        {
          "indexed": true,
          "internalType": "address",
          "name": "operator",
          "type": "address"
        },
        {
          "indexed": false,
          "internalType": "bool",
          "name": "approved",
          "type": "bool"
        }
      ],
      "name": "ApprovalForAll",
      "type": "event"
    },
    {
      "anonymous": false,
      "inputs": [
        {
          "indexed": true,
          "internalType": "address",
          "name": "previousOwner",
          "type": "address"
        },
        {
          "indexed": true,
          "internalType": "address",
          "name": "newOwner",
          "type": "address"
        }
      ],
      "name": "OwnershipTransferred",
      "type": "event"
    },
    {
      "anonymous": false,
      "inputs": [
        {
          "indexed": true,
          "internalType": "address",
          "name": "from",
          "type": "address"
        },
        {
          "indexed": true,
          "internalType": "address",
          "name": "to",
          "type": "address"
        },
        {
          "indexed": true,
          "internalType": "uint256",
          "name": "tokenId",
          "type": "uint256"
        }
      ],
      "name": "Transfer",
      "type": "event"
    },
    {
      "inputs": [
        {
          "internalType": "address",
          "name": "to",
          "type": "address"
        },
        {
          "internalType": "uint256",
          "name": "tokenId",
          "type": "uint256"
        }
      ],
      "name": "approve",
      "outputs": [],
      "stateMutability": "nonpayable",
      "type": "function"
    },
    {
      "inputs": [
        {
          "internalType": "address",
          "name": "owner",
          "type": "address"
        }
      ],
      "name": "balanceOf",
      "outputs": [
        {
          "internalType": "uint256",
          "name": "",
          "type": "uint256"
        }
      ],
      "stateMutability": "view",
      "type": "function"
    },
    {
      "inputs": [
        {
          "internalType": "uint256",
          "name": "tokenId",
          "type": "uint256"
        }
      ],
      "name": "getApproved",
      "outputs": [
        {
          "internalType": "address",
          "name": "",
          "type": "address"
        }
      ],
      "stateMutability": "view",
      "type": "function"
    },
    {
      "inputs": [
        {
          "internalType": "address",
          "name": "owner",
          "type": "address"
        },
        {
          "internalType": "address",
          "name": "operator",
          "type": "address"
        }
      ],
      "name": "isApprovedForAll",
      "outputs": [
        {
          "internalType": "bool",
          "name": "",
          "type": "bool"
        }
      ],
      "stateMutability": "view",
      "type": "function"
    },
    {
      "inputs": [],
      "name": "name",
      "outputs": [
        {
          "internalType": "string",
          "name": "",
          "type": "string"
        }
      ],
      "stateMutability": "view",
      "type": "function"
    },
    {
      "inputs": [],
      "name": "owner",
      "outputs": [
        {
          "internalType": "address",
          "name": "",
          "type": "address"
        }
      ],
      "stateMutability": "view",
      "type": "function"
    },
    {
      "inputs": [
        {
          "internalType": "uint256",
          "name": "tokenId",
          "type": "uint256"
        }
      ],
      "name": "ownerOf",
      "outputs": [
        {
          "internalType": "address",
          "name": "",
          "type": "address"
        }
      ],
      "stateMutability": "view",
      "type": "function"
    },
    {
      "inputs": [],
      "name": "renounceOwnership",
      "outputs": [],
      "stateMutability": "nonpayable",
      "type": "function"
    },
    {
      "inputs": [
        {
          "internalType": "address",
          "name": "from",
          "type": "address"
        },
        {
          "internalType": "address",
          "name": "to",
          "type": "address"
        },
        {
          "internalType": "uint256",
          "name": "tokenId",
          "type": "uint256"
        }
      ],
      "name": "safeTransferFrom",
      "outputs": [],
      "stateMutability": "nonpayable",
      "type": "function"
    },
    {
      "inputs": [
        {
          "internalType": "address",
          "name": "from",
          "type": "address"
        },
        {
          "internalType": "address",
          "name": "to",
          "type": "address"
        },
        {
          "internalType": "uint256",
          "name": "tokenId",
          "type": "uint256"
        },
        {
          "internalType": "bytes",
          "name": "data",
          "type": "bytes"
        }
      ],
      "name": "safeTransferFrom",
      "outputs": [],
      "stateMutability": "nonpayable",
      "type": "function"
    },
    {
      "inputs": [
        {
          "internalType": "address",
          "name": "operator",
          "type": "address"
        },
        {
          "internalType": "bool",
          "name": "approved",
          "type": "bool"
        }
      ],
      "name": "setApprovalForAll",
      "outputs": [],
      "stateMutability": "nonpayable",
      "type": "function"
    },
    {
      "inputs": [
        {
          "internalType": "bytes4",
          "name": "interfaceId",
          "type": "bytes4"
        }
      ],
      "name": "supportsInterface",
      "outputs": [
        {
          "internalType": "bool",
          "name": "",
          "type": "bool"
        }
      ],
      "stateMutability": "view",
      "type": "function"
    },
    {
      "inputs": [],
      "name": "symbol",
      "outputs": [
        {
          "internalType": "string",
          "name": "",
          "type": "string"
        }
      ],
      "stateMutability": "view",
      "type": "function"
    },
    {
      "inputs": [
        {
          "internalType": "uint256",
          "name": "tokenId",
          "type": "uint256"
        }
      ],
      "name": "tokenURI",
      "outputs": [
        {
          "internalType": "string",
          "name": "",
          "type": "string"
        }
      ],
      "stateMutability": "view",
      "type": "function"
    },
    {
      "inputs": [
        {
          "internalType": "address",
          "name": "from",
          "type": "address"
        },
        {
          "internalType": "address",
          "name": "to",
          "type": "address"
        },
        {
          "internalType": "uint256",
          "name": "tokenId",
          "type": "uint256"
        }
      ],
      "name": "transferFrom",
      "outputs": [],
      "stateMutability": "nonpayable",
      "type": "function"
    },
    {
      "inputs": [
        {
          "internalType": "address",
          "name": "newOwner",
          "type": "address"
        }
      ],
      "name": "transferOwnership",
      "outputs": [],
      "stateMutability": "nonpayable",
      "type": "function"
    },
    {
      "inputs": [
        {
          "internalType": "uint256",
          "name": "tokenId",
          "type": "uint256"
        }
      ],
      "name": "getNftCourse",
      "outputs": [
        {
          "components": [
            {
              "internalType": "uint256",
              "name": "tokenId",
              "type": "uint256"
            },
            {
              "internalType": "string",
              "name": "studentId",
              "type": "string"
            },
            {
              "internalType": "uint256",
              "name": "courseId",
              "type": "uint256"
            }
          ],
          "internalType": "struct NftCourse.NftItem",
          "name": "",
          "type": "tuple"
        }
      ],
      "stateMutability": "view",
      "type": "function"
    },
    {
      "inputs": [
        {
          "internalType": "string",
          "name": "tokenURI",
          "type": "string"
        },
        {
          "internalType": "string",
          "name": "studentId",
          "type": "string"
        },
        {
          "internalType": "uint256",
          "name": "courseId",
          "type": "uint256"
        }
      ],
      "name": "mintToken",
      "outputs": [
        {
          "internalType": "uint256",
          "name": "",
          "type": "uint256"
        }
      ],
      "stateMutability": "nonpayable",
      "type": "function"
    },
    {
      "inputs": [
        {
          "internalType": "string",
          "name": "studentId",
          "type": "string"
        },
        {
          "internalType": "uint256[]",
          "name": "tokenIds",
          "type": "uint256[]"
        }
      ],
      "name": "validateNftGradution",
      "outputs": [
        {
          "internalType": "bool",
          "name": "",
          "type": "bool"
        }
      ],
      "stateMutability": "nonpayable",
      "type": "function"
    }
  ],
  "bytecode": "0x60a06040523480156200001157600080fd5b50604051620043a8380380620043a883398181016040528101906200003791906200032e565b6040518060400160405280600981526020017f436f757273654e465400000000000000000000000000000000000000000000008152506040518060400160405280600481526020017f434e4654000000000000000000000000000000000000000000000000000000008152508160009080519060200190620000bb92919062000200565b508060019080519060200190620000d492919062000200565b505050620000f7620000eb6200013260201b60201c565b6200013a60201b60201c565b8073ffffffffffffffffffffffffffffffffffffffff1660808173ffffffffffffffffffffffffffffffffffffffff168152505050620003c4565b600033905090565b6000600760009054906101000a900473ffffffffffffffffffffffffffffffffffffffff16905081600760006101000a81548173ffffffffffffffffffffffffffffffffffffffff021916908373ffffffffffffffffffffffffffffffffffffffff1602179055508173ffffffffffffffffffffffffffffffffffffffff168173ffffffffffffffffffffffffffffffffffffffff167f8be0079c531659141344cd1fd0a4f28419497f9722a3daafe3b4186f6b6457e060405160405180910390a35050565b8280546200020e906200038f565b90600052602060002090601f0160209004810192826200023257600085556200027e565b82601f106200024d57805160ff19168380011785556200027e565b828001600101855582156200027e579182015b828111156200027d57825182559160200191906001019062000260565b5b5090506200028d919062000291565b5090565b5b80821115620002ac57600081600090555060010162000292565b5090565b600080fd5b600073ffffffffffffffffffffffffffffffffffffffff82169050919050565b6000620002e282620002b5565b9050919050565b6000620002f682620002d5565b9050919050565b6200030881620002e9565b81146200031457600080fd5b50565b6000815190506200032881620002fd565b92915050565b600060208284031215620003475762000346620002b0565b5b6000620003578482850162000317565b91505092915050565b7f4e487b7100000000000000000000000000000000000000000000000000000000600052602260045260246000fd5b60006002820490506001821680620003a857607f821691505b602082108103620003be57620003bd62000360565b5b50919050565b608051613fc1620003e7600039600081816103ec01526111380152613fc16000f3fe608060405234801561001057600080fd5b50600436106101205760003560e01c806370a08231116100ad578063a22cb46511610071578063a22cb4651461032d578063b88d4fde14610349578063c87b56dd14610365578063e985e9c514610395578063f2fde38b146103c557610120565b806370a0823114610287578063715018a6146102b75780638da5cb5b146102c15780638e35f3f1146102df57806395d89b411461030f57610120565b8063081812fc116100f4578063081812fc146101d3578063095ea7b31461020357806323b872dd1461021f57806342842e0e1461023b5780636352211e1461025757610120565b80627938b51461012557806301ffc9a71461015557806306fdde031461018557806307e95810146101a3575b600080fd5b61013f600480360381019061013a91906129e1565b6103e1565b60405161014c9190612a74565b60405180910390f35b61016f600480360381019061016a9190612ae7565b610639565b60405161017c9190612a74565b60405180910390f35b61018d61071b565b60405161019a9190612b9c565b60405180910390f35b6101bd60048036038101906101b89190612bbe565b6107ad565b6040516101ca9190612c58565b60405180910390f35b6101ed60048036038101906101e89190612c73565b61098a565b6040516101fa9190612ce1565b60405180910390f35b61021d60048036038101906102189190612d28565b6109d0565b005b61023960048036038101906102349190612d68565b610ae7565b005b61025560048036038101906102509190612d68565b610b47565b005b610271600480360381019061026c9190612c73565b610b67565b60405161027e9190612ce1565b60405180910390f35b6102a1600480360381019061029c9190612dbb565b610bed565b6040516102ae9190612c58565b60405180910390f35b6102bf610ca4565b005b6102c9610cb8565b6040516102d69190612ce1565b60405180910390f35b6102f960048036038101906102f49190612c73565b610ce2565b6040516103069190612e91565b60405180910390f35b610317610ddd565b6040516103249190612b9c565b60405180910390f35b61034760048036038101906103429190612edf565b610e6f565b005b610363600480360381019061035e9190612fc0565b610e85565b005b61037f600480360381019061037a9190612c73565b610ee7565b60405161038c9190612b9c565b60405180910390f35b6103af60048036038101906103aa9190613043565b610ff9565b6040516103bc9190612a74565b60405180910390f35b6103df60048036038101906103da9190612dbb565b61108d565b005b6000808251905060007f000000000000000000000000000000000000000000000000000000000000000073ffffffffffffffffffffffffffffffffffffffff1663ae23977a6040518163ffffffff1660e01b8152600401600060405180830381865afa158015610455573d6000803e3d6000fd5b505050506040513d6000823e3d601f19601f8201168201806040525081019061047e91906131b5565b905060008151905060005b818110156104fb5760008382815181106104a6576104a56131fe565b5b602002602001015190506000600e896040516104c29190613269565b90815260200160405180910390206000836000015181526020019081526020016000208190555050806104f4906132af565b9050610489565b5060005b838110156105a057600061052c87838151811061051f5761051e6131fe565b5b6020026020010151610ce2565b9050600061053d8260400151611110565b90508060400151600e8a6040516105549190613269565b9081526020016040518091039020600083608001518152602001908152602001600020600082825461058691906132f7565b92505081905550505080610599906132af565b90506104ff565b5060005b8181101561062a5760008382815181106105c1576105c06131fe565b5b602002602001015190508060200151600e896040516105e09190613269565b908152602001604051809103902060008360000151815260200190815260200160002054101561061857600095505050505050610633565b5080610623906132af565b90506105a4565b50600193505050505b92915050565b60007f80ac58cd000000000000000000000000000000000000000000000000000000007bffffffffffffffffffffffffffffffffffffffffffffffffffffffff1916827bffffffffffffffffffffffffffffffffffffffffffffffffffffffff1916148061070457507f5b5e139f000000000000000000000000000000000000000000000000000000007bffffffffffffffffffffffffffffffffffffffffffffffffffffffff1916827bffffffffffffffffffffffffffffffffffffffffffffffffffffffff1916145b80610714575061071382611418565b5b9050919050565b60606000805461072a9061337c565b80601f01602080910402602001604051908101604052809291908181526020018280546107569061337c565b80156107a35780601f10610778576101008083540402835291602001916107a3565b820191906000526020600020905b81548152906001019060200180831161078657829003601f168201915b5050505050905090565b60008160006107bb82611110565b90503373ffffffffffffffffffffffffffffffffffffffff16816020015173ffffffffffffffffffffffffffffffffffffffff161461082f576040517f08c379a0000000000000000000000000000000000000000000000000000000008152600401610826906133f9565b60405180910390fd5b600b8660405161083f9190613269565b908152602001604051809103902060009054906101000a900460ff161561089b576040517f08c379a000000000000000000000000000000000000000000000000000000000815260040161089290613465565b60405180910390fd5b6108a484611482565b156108e4576040517f08c379a00000000000000000000000000000000000000000000000000000000081526004016108db906134d1565b60405180910390fd5b6108ee60086114f7565b6001600d6000868152602001908152602001600020600082825461091291906134f1565b925050819055506000610925600861150d565b9050610931338261151b565b61093b8188611539565b6109468187876115ad565b6001600b886040516109589190613269565b908152602001604051809103902060006101000a81548160ff0219169083151502179055508093505050509392505050565b60006109958261164e565b6004600083815260200190815260200160002060009054906101000a900473ffffffffffffffffffffffffffffffffffffffff169050919050565b60006109db82610b67565b90508073ffffffffffffffffffffffffffffffffffffffff168373ffffffffffffffffffffffffffffffffffffffff1603610a4b576040517f08c379a0000000000000000000000000000000000000000000000000000000008152600401610a4290613597565b60405180910390fd5b8073ffffffffffffffffffffffffffffffffffffffff16610a6a611699565b73ffffffffffffffffffffffffffffffffffffffff161480610a995750610a9881610a93611699565b610ff9565b5b610ad8576040517f08c379a0000000000000000000000000000000000000000000000000000000008152600401610acf90613629565b60405180910390fd5b610ae283836116a1565b505050565b610af8610af2611699565b8261175a565b610b37576040517f08c379a0000000000000000000000000000000000000000000000000000000008152600401610b2e906136bb565b60405180910390fd5b610b428383836117ef565b505050565b610b6283838360405180602001604052806000815250610e85565b505050565b600080610b7383611ae8565b9050600073ffffffffffffffffffffffffffffffffffffffff168173ffffffffffffffffffffffffffffffffffffffff1603610be4576040517f08c379a0000000000000000000000000000000000000000000000000000000008152600401610bdb90613727565b60405180910390fd5b80915050919050565b60008073ffffffffffffffffffffffffffffffffffffffff168273ffffffffffffffffffffffffffffffffffffffff1603610c5d576040517f08c379a0000000000000000000000000000000000000000000000000000000008152600401610c54906137b9565b60405180910390fd5b600360008373ffffffffffffffffffffffffffffffffffffffff1673ffffffffffffffffffffffffffffffffffffffff168152602001908152602001600020549050919050565b610cac611b25565b610cb66000611ba3565b565b6000600760009054906101000a900473ffffffffffffffffffffffffffffffffffffffff16905090565b610cea612660565b6000600a600084815260200190815260200160002054905060098181548110610d1657610d156131fe565b5b906000526020600020906003020160405180606001604052908160008201548152602001600182018054610d499061337c565b80601f0160208091040260200160405190810160405280929190818152602001828054610d759061337c565b8015610dc25780601f10610d9757610100808354040283529160200191610dc2565b820191906000526020600020905b815481529060010190602001808311610da557829003601f168201915b50505050508152602001600282015481525050915050919050565b606060018054610dec9061337c565b80601f0160208091040260200160405190810160405280929190818152602001828054610e189061337c565b8015610e655780601f10610e3a57610100808354040283529160200191610e65565b820191906000526020600020905b815481529060010190602001808311610e4857829003601f168201915b5050505050905090565b610e81610e7a611699565b8383611c69565b5050565b610e96610e90611699565b8361175a565b610ed5576040517f08c379a0000000000000000000000000000000000000000000000000000000008152600401610ecc906136bb565b60405180910390fd5b610ee184848484611dd5565b50505050565b6060610ef28261164e565b6000600660008481526020019081526020016000208054610f129061337c565b80601f0160208091040260200160405190810160405280929190818152602001828054610f3e9061337c565b8015610f8b5780601f10610f6057610100808354040283529160200191610f8b565b820191906000526020600020905b815481529060010190602001808311610f6e57829003601f168201915b505050505090506000610f9c611e31565b90506000815103610fb1578192505050610ff4565b600082511115610fe6578082604051602001610fce9291906137d9565b60405160208183030381529060405292505050610ff4565b610fef84611e48565b925050505b919050565b6000600560008473ffffffffffffffffffffffffffffffffffffffff1673ffffffffffffffffffffffffffffffffffffffff16815260200190815260200160002060008373ffffffffffffffffffffffffffffffffffffffff1673ffffffffffffffffffffffffffffffffffffffff16815260200190815260200160002060009054906101000a900460ff16905092915050565b611095611b25565b600073ffffffffffffffffffffffffffffffffffffffff168173ffffffffffffffffffffffffffffffffffffffff1603611104576040517f08c379a00000000000000000000000000000000000000000000000000000000081526004016110fb9061386f565b60405180910390fd5b61110d81611ba3565b50565b611118612681565b6000600c600084815260200190815260200160002060000154036112a8577f000000000000000000000000000000000000000000000000000000000000000073ffffffffffffffffffffffffffffffffffffffff16630b91e28d836040518263ffffffff1660e01b815260040161118f9190612c58565b600060405180830381865afa1580156111ac573d6000803e3d6000fd5b505050506040513d6000823e3d601f19601f820116820180604052508101906111d59190613a09565b600c60008481526020019081526020016000206000820151816000015560208201518160010160006101000a81548173ffffffffffffffffffffffffffffffffffffffff021916908373ffffffffffffffffffffffffffffffffffffffff16021790555060408201518160020155606082015181600301556080820151816004015560a08201518160050190805190602001906112739291906126e6565b5060c08201518160060160006101000a81548160ff0219169083600181111561129f5761129e613a52565b5b02179055509050505b600c60008381526020019081526020016000206040518060e0016040529081600082015481526020016001820160009054906101000a900473ffffffffffffffffffffffffffffffffffffffff1673ffffffffffffffffffffffffffffffffffffffff1673ffffffffffffffffffffffffffffffffffffffff1681526020016002820154815260200160038201548152602001600482015481526020016005820180546113549061337c565b80601f01602080910402602001604051908101604052809291908181526020018280546113809061337c565b80156113cd5780601f106113a2576101008083540402835291602001916113cd565b820191906000526020600020905b8154815290600101906020018083116113b057829003601f168201915b505050505081526020016006820160009054906101000a900460ff1660018111156113fb576113fa613a52565b5b600181111561140d5761140c613a52565b5b815250509050919050565b60007f01ffc9a7000000000000000000000000000000000000000000000000000000007bffffffffffffffffffffffffffffffffffffffffffffffffffffffff1916827bffffffffffffffffffffffffffffffffffffffffffffffffffffffff1916149050919050565b600080600d600084815260200190815260200160002054036114d557600c600083815260200190815260200160002060030154600d600084815260200190815260200160002081905550600190506114f2565b6000600c6000848152602001908152602001600020600301541490505b919050565b6001816000016000828254019250508190555050565b600081600001549050919050565b611535828260405180602001604052806000815250611eb0565b5050565b61154282611f0b565b611581576040517f08c379a000000000000000000000000000000000000000000000000000000000815260040161157890613af3565b60405180910390fd5b806006600084815260200190815260200160002090805190602001906115a89291906126e6565b505050565b60006040518060600160405280858152602001848152602001838152509050600981908060018154018082558091505060019003906000526020600020906003020160009091909190915060008201518160000155602082015181600101908051906020019061161e9291906126e6565b50604082015181600201555050600980549050600a60008681526020019081526020016000208190555050505050565b61165781611f0b565b611696576040517f08c379a000000000000000000000000000000000000000000000000000000000815260040161168d90613727565b60405180910390fd5b50565b600033905090565b816004600083815260200190815260200160002060006101000a81548173ffffffffffffffffffffffffffffffffffffffff021916908373ffffffffffffffffffffffffffffffffffffffff160217905550808273ffffffffffffffffffffffffffffffffffffffff1661171483610b67565b73ffffffffffffffffffffffffffffffffffffffff167f8c5be1e5ebec7d5bd14f71427d1e84f3dd0314c0f7b2291e5b200ac8c7c3b92560405160405180910390a45050565b60008061176683610b67565b90508073ffffffffffffffffffffffffffffffffffffffff168473ffffffffffffffffffffffffffffffffffffffff1614806117a857506117a78185610ff9565b5b806117e657508373ffffffffffffffffffffffffffffffffffffffff166117ce8461098a565b73ffffffffffffffffffffffffffffffffffffffff16145b91505092915050565b8273ffffffffffffffffffffffffffffffffffffffff1661180f82610b67565b73ffffffffffffffffffffffffffffffffffffffff1614611865576040517f08c379a000000000000000000000000000000000000000000000000000000000815260040161185c90613b85565b60405180910390fd5b600073ffffffffffffffffffffffffffffffffffffffff168273ffffffffffffffffffffffffffffffffffffffff16036118d4576040517f08c379a00000000000000000000000000000000000000000000000000000000081526004016118cb90613c17565b60405180910390fd5b6118e18383836001611f4c565b8273ffffffffffffffffffffffffffffffffffffffff1661190182610b67565b73ffffffffffffffffffffffffffffffffffffffff1614611957576040517f08c379a000000000000000000000000000000000000000000000000000000000815260040161194e90613b85565b60405180910390fd5b6004600082815260200190815260200160002060006101000a81549073ffffffffffffffffffffffffffffffffffffffff02191690556001600360008573ffffffffffffffffffffffffffffffffffffffff1673ffffffffffffffffffffffffffffffffffffffff168152602001908152602001600020600082825403925050819055506001600360008473ffffffffffffffffffffffffffffffffffffffff1673ffffffffffffffffffffffffffffffffffffffff16815260200190815260200160002060008282540192505081905550816002600083815260200190815260200160002060006101000a81548173ffffffffffffffffffffffffffffffffffffffff021916908373ffffffffffffffffffffffffffffffffffffffff160217905550808273ffffffffffffffffffffffffffffffffffffffff168473ffffffffffffffffffffffffffffffffffffffff167fddf252ad1be2c89b69c2b068fc378daa952ba7f163c4a11628f55a4df523b3ef60405160405180910390a4611ae38383836001612072565b505050565b60006002600083815260200190815260200160002060009054906101000a900473ffffffffffffffffffffffffffffffffffffffff169050919050565b611b2d611699565b73ffffffffffffffffffffffffffffffffffffffff16611b4b610cb8565b73ffffffffffffffffffffffffffffffffffffffff1614611ba1576040517f08c379a0000000000000000000000000000000000000000000000000000000008152600401611b9890613c83565b60405180910390fd5b565b6000600760009054906101000a900473ffffffffffffffffffffffffffffffffffffffff16905081600760006101000a81548173ffffffffffffffffffffffffffffffffffffffff021916908373ffffffffffffffffffffffffffffffffffffffff1602179055508173ffffffffffffffffffffffffffffffffffffffff168173ffffffffffffffffffffffffffffffffffffffff167f8be0079c531659141344cd1fd0a4f28419497f9722a3daafe3b4186f6b6457e060405160405180910390a35050565b8173ffffffffffffffffffffffffffffffffffffffff168373ffffffffffffffffffffffffffffffffffffffff1603611cd7576040517f08c379a0000000000000000000000000000000000000000000000000000000008152600401611cce90613cef565b60405180910390fd5b80600560008573ffffffffffffffffffffffffffffffffffffffff1673ffffffffffffffffffffffffffffffffffffffff16815260200190815260200160002060008473ffffffffffffffffffffffffffffffffffffffff1673ffffffffffffffffffffffffffffffffffffffff16815260200190815260200160002060006101000a81548160ff0219169083151502179055508173ffffffffffffffffffffffffffffffffffffffff168373ffffffffffffffffffffffffffffffffffffffff167f17307eab39ab6107e8899845ad3d59bd9653f200f220920489ca2b5937696c3183604051611dc89190612a74565b60405180910390a3505050565b611de08484846117ef565b611dec84848484612078565b611e2b576040517f08c379a0000000000000000000000000000000000000000000000000000000008152600401611e2290613d81565b60405180910390fd5b50505050565b606060405180602001604052806000815250905090565b6060611e538261164e565b6000611e5d611e31565b90506000815111611e7d5760405180602001604052806000815250611ea8565b80611e87846121ff565b604051602001611e989291906137d9565b6040516020818303038152906040525b915050919050565b611eba83836122cd565b611ec76000848484612078565b611f06576040517f08c379a0000000000000000000000000000000000000000000000000000000008152600401611efd90613d81565b60405180910390fd5b505050565b60008073ffffffffffffffffffffffffffffffffffffffff16611f2d83611ae8565b73ffffffffffffffffffffffffffffffffffffffff1614159050919050565b600181111561206c57600073ffffffffffffffffffffffffffffffffffffffff168473ffffffffffffffffffffffffffffffffffffffff1614611fe05780600360008673ffffffffffffffffffffffffffffffffffffffff1673ffffffffffffffffffffffffffffffffffffffff1681526020019081526020016000206000828254611fd891906134f1565b925050819055505b600073ffffffffffffffffffffffffffffffffffffffff168373ffffffffffffffffffffffffffffffffffffffff161461206b5780600360008573ffffffffffffffffffffffffffffffffffffffff1673ffffffffffffffffffffffffffffffffffffffff168152602001908152602001600020600082825461206391906132f7565b925050819055505b5b50505050565b50505050565b60006120998473ffffffffffffffffffffffffffffffffffffffff166124ea565b156121f2578373ffffffffffffffffffffffffffffffffffffffff1663150b7a026120c2611699565b8786866040518563ffffffff1660e01b81526004016120e49493929190613df6565b6020604051808303816000875af192505050801561212057506040513d601f19601f8201168201806040525081019061211d9190613e57565b60015b6121a2573d8060008114612150576040519150601f19603f3d011682016040523d82523d6000602084013e612155565b606091505b50600081510361219a576040517f08c379a000000000000000000000000000000000000000000000000000000000815260040161219190613d81565b60405180910390fd5b805181602001fd5b63150b7a0260e01b7bffffffffffffffffffffffffffffffffffffffffffffffffffffffff1916817bffffffffffffffffffffffffffffffffffffffffffffffffffffffff1916149150506121f7565b600190505b949350505050565b60606000600161220e8461250d565b01905060008167ffffffffffffffff81111561222d5761222c6127b8565b5b6040519080825280601f01601f19166020018201604052801561225f5781602001600182028036833780820191505090505b509050600082602001820190505b6001156122c2578080600190039150507f3031323334353637383961626364656600000000000000000000000000000000600a86061a8153600a85816122b6576122b5613e84565b5b0494506000850361226d575b819350505050919050565b600073ffffffffffffffffffffffffffffffffffffffff168273ffffffffffffffffffffffffffffffffffffffff160361233c576040517f08c379a000000000000000000000000000000000000000000000000000000000815260040161233390613eff565b60405180910390fd5b61234581611f0b565b15612385576040517f08c379a000000000000000000000000000000000000000000000000000000000815260040161237c90613f6b565b60405180910390fd5b612393600083836001611f4c565b61239c81611f0b565b156123dc576040517f08c379a00000000000000000000000000000000000000000000000000000000081526004016123d390613f6b565b60405180910390fd5b6001600360008473ffffffffffffffffffffffffffffffffffffffff1673ffffffffffffffffffffffffffffffffffffffff16815260200190815260200160002060008282540192505081905550816002600083815260200190815260200160002060006101000a81548173ffffffffffffffffffffffffffffffffffffffff021916908373ffffffffffffffffffffffffffffffffffffffff160217905550808273ffffffffffffffffffffffffffffffffffffffff16600073ffffffffffffffffffffffffffffffffffffffff167fddf252ad1be2c89b69c2b068fc378daa952ba7f163c4a11628f55a4df523b3ef60405160405180910390a46124e6600083836001612072565b5050565b6000808273ffffffffffffffffffffffffffffffffffffffff163b119050919050565b600080600090507a184f03e93ff9f4daa797ed6e38ed64bf6a1f010000000000000000831061256b577a184f03e93ff9f4daa797ed6e38ed64bf6a1f010000000000000000838161256157612560613e84565b5b0492506040810190505b6d04ee2d6d415b85acef810000000083106125a8576d04ee2d6d415b85acef8100000000838161259e5761259d613e84565b5b0492506020810190505b662386f26fc1000083106125d757662386f26fc1000083816125cd576125cc613e84565b5b0492506010810190505b6305f5e1008310612600576305f5e10083816125f6576125f5613e84565b5b0492506008810190505b612710831061262557612710838161261b5761261a613e84565b5b0492506004810190505b60648310612648576064838161263e5761263d613e84565b5b0492506002810190505b600a8310612657576001810190505b80915050919050565b60405180606001604052806000815260200160608152602001600081525090565b6040518060e0016040528060008152602001600073ffffffffffffffffffffffffffffffffffffffff16815260200160008152602001600081526020016000815260200160608152602001600060018111156126e0576126df613a52565b5b81525090565b8280546126f29061337c565b90600052602060002090601f016020900481019282612714576000855561275b565b82601f1061272d57805160ff191683800117855561275b565b8280016001018555821561275b579182015b8281111561275a57825182559160200191906001019061273f565b5b509050612768919061276c565b5090565b5b8082111561278557600081600090555060010161276d565b5090565b6000604051905090565b600080fd5b600080fd5b600080fd5b600080fd5b6000601f19601f8301169050919050565b7f4e487b7100000000000000000000000000000000000000000000000000000000600052604160045260246000fd5b6127f0826127a7565b810181811067ffffffffffffffff8211171561280f5761280e6127b8565b5b80604052505050565b6000612822612789565b905061282e82826127e7565b919050565b600067ffffffffffffffff82111561284e5761284d6127b8565b5b612857826127a7565b9050602081019050919050565b82818337600083830152505050565b600061288661288184612833565b612818565b9050828152602081018484840111156128a2576128a16127a2565b5b6128ad848285612864565b509392505050565b600082601f8301126128ca576128c961279d565b5b81356128da848260208601612873565b91505092915050565b600067ffffffffffffffff8211156128fe576128fd6127b8565b5b602082029050602081019050919050565b600080fd5b6000819050919050565b61292781612914565b811461293257600080fd5b50565b6000813590506129448161291e565b92915050565b600061295d612958846128e3565b612818565b905080838252602082019050602084028301858111156129805761297f61290f565b5b835b818110156129a957806129958882612935565b845260208401935050602081019050612982565b5050509392505050565b600082601f8301126129c8576129c761279d565b5b81356129d884826020860161294a565b91505092915050565b600080604083850312156129f8576129f7612793565b5b600083013567ffffffffffffffff811115612a1657612a15612798565b5b612a22858286016128b5565b925050602083013567ffffffffffffffff811115612a4357612a42612798565b5b612a4f858286016129b3565b9150509250929050565b60008115159050919050565b612a6e81612a59565b82525050565b6000602082019050612a896000830184612a65565b92915050565b60007fffffffff0000000000000000000000000000000000000000000000000000000082169050919050565b612ac481612a8f565b8114612acf57600080fd5b50565b600081359050612ae181612abb565b92915050565b600060208284031215612afd57612afc612793565b5b6000612b0b84828501612ad2565b91505092915050565b600081519050919050565b600082825260208201905092915050565b60005b83811015612b4e578082015181840152602081019050612b33565b83811115612b5d576000848401525b50505050565b6000612b6e82612b14565b612b788185612b1f565b9350612b88818560208601612b30565b612b91816127a7565b840191505092915050565b60006020820190508181036000830152612bb68184612b63565b905092915050565b600080600060608486031215612bd757612bd6612793565b5b600084013567ffffffffffffffff811115612bf557612bf4612798565b5b612c01868287016128b5565b935050602084013567ffffffffffffffff811115612c2257612c21612798565b5b612c2e868287016128b5565b9250506040612c3f86828701612935565b9150509250925092565b612c5281612914565b82525050565b6000602082019050612c6d6000830184612c49565b92915050565b600060208284031215612c8957612c88612793565b5b6000612c9784828501612935565b91505092915050565b600073ffffffffffffffffffffffffffffffffffffffff82169050919050565b6000612ccb82612ca0565b9050919050565b612cdb81612cc0565b82525050565b6000602082019050612cf66000830184612cd2565b92915050565b612d0581612cc0565b8114612d1057600080fd5b50565b600081359050612d2281612cfc565b92915050565b60008060408385031215612d3f57612d3e612793565b5b6000612d4d85828601612d13565b9250506020612d5e85828601612935565b9150509250929050565b600080600060608486031215612d8157612d80612793565b5b6000612d8f86828701612d13565b9350506020612da086828701612d13565b9250506040612db186828701612935565b9150509250925092565b600060208284031215612dd157612dd0612793565b5b6000612ddf84828501612d13565b91505092915050565b612df181612914565b82525050565b600082825260208201905092915050565b6000612e1382612b14565b612e1d8185612df7565b9350612e2d818560208601612b30565b612e36816127a7565b840191505092915050565b6000606083016000830151612e596000860182612de8565b5060208301518482036020860152612e718282612e08565b9150506040830151612e866040860182612de8565b508091505092915050565b60006020820190508181036000830152612eab8184612e41565b905092915050565b612ebc81612a59565b8114612ec757600080fd5b50565b600081359050612ed981612eb3565b92915050565b60008060408385031215612ef657612ef5612793565b5b6000612f0485828601612d13565b9250506020612f1585828601612eca565b9150509250929050565b600067ffffffffffffffff821115612f3a57612f396127b8565b5b612f43826127a7565b9050602081019050919050565b6000612f63612f5e84612f1f565b612818565b905082815260208101848484011115612f7f57612f7e6127a2565b5b612f8a848285612864565b509392505050565b600082601f830112612fa757612fa661279d565b5b8135612fb7848260208601612f50565b91505092915050565b60008060008060808587031215612fda57612fd9612793565b5b6000612fe887828801612d13565b9450506020612ff987828801612d13565b935050604061300a87828801612935565b925050606085013567ffffffffffffffff81111561302b5761302a612798565b5b61303787828801612f92565b91505092959194509250565b6000806040838503121561305a57613059612793565b5b600061306885828601612d13565b925050602061307985828601612d13565b9150509250929050565b600067ffffffffffffffff82111561309e5761309d6127b8565b5b602082029050602081019050919050565b600080fd5b600080fd5b6000815190506130c88161291e565b92915050565b6000604082840312156130e4576130e36130af565b5b6130ee6040612818565b905060006130fe848285016130b9565b6000830152506020613112848285016130b9565b60208301525092915050565b600061313161312c84613083565b612818565b905080838252602082019050604084028301858111156131545761315361290f565b5b835b8181101561317d578061316988826130ce565b845260208401935050604081019050613156565b5050509392505050565b600082601f83011261319c5761319b61279d565b5b81516131ac84826020860161311e565b91505092915050565b6000602082840312156131cb576131ca612793565b5b600082015167ffffffffffffffff8111156131e9576131e8612798565b5b6131f584828501613187565b91505092915050565b7f4e487b7100000000000000000000000000000000000000000000000000000000600052603260045260246000fd5b600081905092915050565b600061324382612b14565b61324d818561322d565b935061325d818560208601612b30565b80840191505092915050565b60006132758284613238565b915081905092915050565b7f4e487b7100000000000000000000000000000000000000000000000000000000600052601160045260246000fd5b60006132ba82612914565b91507fffffffffffffffffffffffffffffffffffffffffffffffffffffffffffffffff82036132ec576132eb613280565b5b600182019050919050565b600061330282612914565b915061330d83612914565b9250827fffffffffffffffffffffffffffffffffffffffffffffffffffffffffffffffff0382111561334257613341613280565b5b828201905092915050565b7f4e487b7100000000000000000000000000000000000000000000000000000000600052602260045260246000fd5b6000600282049050600182168061339457607f821691505b6020821081036133a7576133a661334d565b5b50919050565b7f6163636573732064656e69656400000000000000000000000000000000000000600082015250565b60006133e3600d83612b1f565b91506133ee826133ad565b602082019050919050565b60006020820190508181036000830152613412816133d6565b9050919050565b7f5552492068617320616c72656164792065786973746564000000000000000000600082015250565b600061344f601783612b1f565b915061345a82613419565b602082019050919050565b6000602082019050818103600083015261347e81613442565b9050919050565b7f4f7574206f66206e667400000000000000000000000000000000000000000000600082015250565b60006134bb600a83612b1f565b91506134c682613485565b602082019050919050565b600060208201905081810360008301526134ea816134ae565b9050919050565b60006134fc82612914565b915061350783612914565b92508282101561351a57613519613280565b5b828203905092915050565b7f4552433732313a20617070726f76616c20746f2063757272656e74206f776e6560008201527f7200000000000000000000000000000000000000000000000000000000000000602082015250565b6000613581602183612b1f565b915061358c82613525565b604082019050919050565b600060208201905081810360008301526135b081613574565b9050919050565b7f4552433732313a20617070726f76652063616c6c6572206973206e6f7420746f60008201527f6b656e206f776e6572206f7220617070726f76656420666f7220616c6c000000602082015250565b6000613613603d83612b1f565b915061361e826135b7565b604082019050919050565b6000602082019050818103600083015261364281613606565b9050919050565b7f4552433732313a2063616c6c6572206973206e6f7420746f6b656e206f776e6560008201527f72206f7220617070726f76656400000000000000000000000000000000000000602082015250565b60006136a5602d83612b1f565b91506136b082613649565b604082019050919050565b600060208201905081810360008301526136d481613698565b9050919050565b7f4552433732313a20696e76616c696420746f6b656e2049440000000000000000600082015250565b6000613711601883612b1f565b915061371c826136db565b602082019050919050565b6000602082019050818103600083015261374081613704565b9050919050565b7f4552433732313a2061646472657373207a65726f206973206e6f74206120766160008201527f6c6964206f776e65720000000000000000000000000000000000000000000000602082015250565b60006137a3602983612b1f565b91506137ae82613747565b604082019050919050565b600060208201905081810360008301526137d281613796565b9050919050565b60006137e58285613238565b91506137f18284613238565b91508190509392505050565b7f4f776e61626c653a206e6577206f776e657220697320746865207a65726f206160008201527f6464726573730000000000000000000000000000000000000000000000000000602082015250565b6000613859602683612b1f565b9150613864826137fd565b604082019050919050565b600060208201905081810360008301526138888161384c565b9050919050565b60008151905061389e81612cfc565b92915050565b60006138b76138b284612833565b612818565b9050828152602081018484840111156138d3576138d26127a2565b5b6138de848285612b30565b509392505050565b600082601f8301126138fb576138fa61279d565b5b815161390b8482602086016138a4565b91505092915050565b6002811061392157600080fd5b50565b60008151905061393381613914565b92915050565b600060e0828403121561394f5761394e6130af565b5b61395960e0612818565b90506000613969848285016130b9565b600083015250602061397d8482850161388f565b6020830152506040613991848285016130b9565b60408301525060606139a5848285016130b9565b60608301525060806139b9848285016130b9565b60808301525060a082015167ffffffffffffffff8111156139dd576139dc6130b4565b5b6139e9848285016138e6565b60a08301525060c06139fd84828501613924565b60c08301525092915050565b600060208284031215613a1f57613a1e612793565b5b600082015167ffffffffffffffff811115613a3d57613a3c612798565b5b613a4984828501613939565b91505092915050565b7f4e487b7100000000000000000000000000000000000000000000000000000000600052602160045260246000fd5b7f45524337323155524953746f726167653a2055524920736574206f66206e6f6e60008201527f6578697374656e7420746f6b656e000000000000000000000000000000000000602082015250565b6000613add602e83612b1f565b9150613ae882613a81565b604082019050919050565b60006020820190508181036000830152613b0c81613ad0565b9050919050565b7f4552433732313a207472616e736665722066726f6d20696e636f72726563742060008201527f6f776e6572000000000000000000000000000000000000000000000000000000602082015250565b6000613b6f602583612b1f565b9150613b7a82613b13565b604082019050919050565b60006020820190508181036000830152613b9e81613b62565b9050919050565b7f4552433732313a207472616e7366657220746f20746865207a65726f2061646460008201527f7265737300000000000000000000000000000000000000000000000000000000602082015250565b6000613c01602483612b1f565b9150613c0c82613ba5565b604082019050919050565b60006020820190508181036000830152613c3081613bf4565b9050919050565b7f4f776e61626c653a2063616c6c6572206973206e6f7420746865206f776e6572600082015250565b6000613c6d602083612b1f565b9150613c7882613c37565b602082019050919050565b60006020820190508181036000830152613c9c81613c60565b9050919050565b7f4552433732313a20617070726f766520746f2063616c6c657200000000000000600082015250565b6000613cd9601983612b1f565b9150613ce482613ca3565b602082019050919050565b60006020820190508181036000830152613d0881613ccc565b9050919050565b7f4552433732313a207472616e7366657220746f206e6f6e20455243373231526560008201527f63656976657220696d706c656d656e7465720000000000000000000000000000602082015250565b6000613d6b603283612b1f565b9150613d7682613d0f565b604082019050919050565b60006020820190508181036000830152613d9a81613d5e565b9050919050565b600081519050919050565b600082825260208201905092915050565b6000613dc882613da1565b613dd28185613dac565b9350613de2818560208601612b30565b613deb816127a7565b840191505092915050565b6000608082019050613e0b6000830187612cd2565b613e186020830186612cd2565b613e256040830185612c49565b8181036060830152613e378184613dbd565b905095945050505050565b600081519050613e5181612abb565b92915050565b600060208284031215613e6d57613e6c612793565b5b6000613e7b84828501613e42565b91505092915050565b7f4e487b7100000000000000000000000000000000000000000000000000000000600052601260045260246000fd5b7f4552433732313a206d696e7420746f20746865207a65726f2061646472657373600082015250565b6000613ee9602083612b1f565b9150613ef482613eb3565b602082019050919050565b60006020820190508181036000830152613f1881613edc565b9050919050565b7f4552433732313a20746f6b656e20616c7265616479206d696e74656400000000600082015250565b6000613f55601c83612b1f565b9150613f6082613f1f565b602082019050919050565b60006020820190508181036000830152613f8481613f48565b905091905056fea26469706673582212204f4a716c939bdd65199d54ece5787b9407c5c6a84a307c04546f3320725bc27e64736f6c634300080d0033",
  "immutableReferences": {
    "2870": [
      {
        "length": 32,
        "start": 1004
      },
      {
        "length": 32,
        "start": 4408
      }
    ]
  },
  "source": "// SPDX-License-Identifier: MIT\r\n// Tells the Solidity compiler to compile only from v0.8.13 to v0.9.0\r\npragma solidity ^0.8.13;\r\n\r\nimport \"@openzeppelin/contracts/token/ERC721/extensions/ERC721URIStorage.sol\";\r\nimport \"@openzeppelin/contracts/utils/Counters.sol\";\r\nimport \"@openzeppelin/contracts/access/Ownable.sol\";\r\nimport \"./School.sol\";\r\nimport \"./Type.sol\";\r\n\r\ncontract NftCourse is ERC721URIStorage, Ownable {\r\n    using Counters for Counters.Counter;\r\n\r\n    struct NftItem {\r\n        uint256 tokenId;\r\n        string studentId;\r\n        uint256 courseId;\r\n    }\r\n\r\n\tSchool private immutable _schoolContract;\r\n\r\n    Counters.Counter private _tokenIds;\r\n    NftItem[] private _allNftItems;\r\n    mapping(uint256 => uint256) private _idToNftIndex; // tokenId =>NftItem \r\n    // mapping(string => mapping(CourseType => uint256[])) private _completedCourse;\r\n    mapping(string => bool) private _usedTokenURIs;\r\n\r\n    mapping(uint256 => Type.Course) private _idToCourse;\r\n    mapping(uint256 => uint256) private _remainNftOfCourse;\r\n    mapping(string => mapping(uint256 => uint256)) creditsOfCourse;\r\n    \r\n    constructor(School schoolContract) ERC721(\"CourseNFT\", \"CNFT\") {\r\n        _schoolContract = schoolContract;\r\n    }\r\n\r\n    modifier onlyTeacher(uint256 courseId) {\r\n        Type.Course memory course = _getCourse(courseId);\r\n        require(course.teacherAddress == msg.sender, \"access denied\");\r\n        _;\r\n    }\r\n\r\n    function getNftCourse(uint256 tokenId) public view returns (NftItem memory) {\r\n        uint256 tokenIndex = _idToNftIndex[tokenId];\r\n\r\n        return _allNftItems[tokenIndex];\r\n    }\r\n\r\n    function mintToken(\r\n        string memory tokenURI,\r\n        string memory studentId,\r\n        uint256 courseId\r\n        // score?\r\n    ) public onlyTeacher(courseId) returns (uint256)\r\n    {\r\n        require(!_usedTokenURIs[tokenURI], \"URI has already existed\");\r\n        require(!_isOutOfNft(courseId), \"Out of nft\");\r\n        _tokenIds.increment();\r\n        _remainNftOfCourse[courseId] -= 1;\r\n\r\n        uint256 newTokenId = _tokenIds.current();\r\n        _safeMint(msg.sender, newTokenId);\r\n        _setTokenURI(newTokenId, tokenURI);\r\n        _createNftItem(newTokenId, studentId, courseId);\r\n        _usedTokenURIs[tokenURI] = true;\r\n\r\n        return newTokenId;\r\n    }\r\n\r\n    function validateNftGradution(\r\n        string memory studentId,\r\n        uint256[] memory tokenIds\r\n    ) public returns (bool) {\r\n        uint256 tokenIdLength = tokenIds.length;\r\n        Type.Requirement[] memory requirements = _schoolContract.getAllRequirements();\r\n        uint256 requirementLength = requirements.length;\r\n\r\n        for (uint256 index = 0; index < requirementLength; ++index) {\r\n            Type.Requirement memory requirement = requirements[index];\r\n            creditsOfCourse[studentId][requirement.courseGroupId] = 0;\r\n        }\r\n\r\n        for (uint256 index = 0; index < tokenIdLength; ++index) {\r\n            NftItem memory nftItem = getNftCourse(tokenIds[index]);\r\n            Type.Course memory course = _getCourse(nftItem.courseId);\r\n            creditsOfCourse[studentId][course.courseGroup] += course.credits;\r\n        }\r\n\r\n        for (uint256 index = 0; index < requirementLength; ++index) {\r\n            Type.Requirement memory requirement = requirements[index];\r\n            if (creditsOfCourse[studentId][requirement.courseGroupId] < requirement.credits) {\r\n                return false;\r\n            }\r\n        }\r\n\r\n        return true;\r\n    }\r\n\r\n    function _isOutOfNft(uint256 courseId) private returns (bool)\r\n    {\r\n        if (_remainNftOfCourse[courseId] == 0)\r\n        {\r\n            _remainNftOfCourse[courseId] = _idToCourse[courseId].maxNftCounts;\r\n            return true;\r\n        }\r\n\r\n        return _idToCourse[courseId].maxNftCounts == 0;\r\n    }\r\n\r\n    function _createNftItem(\r\n        uint256 tokenId,\r\n        string memory studentId,\r\n        uint256 courseId\r\n    ) private {\r\n        NftItem memory nftItem = NftItem(tokenId, studentId, courseId);\r\n        _allNftItems.push(nftItem);\r\n        _idToNftIndex[tokenId] = _allNftItems.length;\r\n    }\r\n\r\n    function _getCourse(uint256 courseId) private returns (Type.Course memory) {\r\n        if (_idToCourse[courseId].id == 0) {\r\n            _idToCourse[courseId] = _schoolContract.getCourse(courseId);\r\n        }\r\n\r\n        return _idToCourse[courseId];\r\n    }\r\n}",
  "sourcePath": "E:\\learn\\learn-to-earn\\contracts\\NftCourse.sol",
  "compiler": {
    "name": "solc",
    "version": "0.8.13+commit.abaa5c0e.Emscripten.clang"
  },
  "schemaVersion": "3.4.11",
  "updatedAt": "2023-02-25T17:47:14.044Z",
  "devdoc": {
    "kind": "dev",
    "methods": {
      "approve(address,uint256)": {
        "details": "See {IERC721-approve}."
      },
      "balanceOf(address)": {
        "details": "See {IERC721-balanceOf}."
      },
      "getApproved(uint256)": {
        "details": "See {IERC721-getApproved}."
      },
      "isApprovedForAll(address,address)": {
        "details": "See {IERC721-isApprovedForAll}."
      },
      "name()": {
        "details": "See {IERC721Metadata-name}."
      },
      "owner()": {
        "details": "Returns the address of the current owner."
      },
      "ownerOf(uint256)": {
        "details": "See {IERC721-ownerOf}."
      },
      "renounceOwnership()": {
        "details": "Leaves the contract without owner. It will not be possible to call `onlyOwner` functions anymore. Can only be called by the current owner. NOTE: Renouncing ownership will leave the contract without an owner, thereby removing any functionality that is only available to the owner."
      },
      "safeTransferFrom(address,address,uint256)": {
        "details": "See {IERC721-safeTransferFrom}."
      },
      "safeTransferFrom(address,address,uint256,bytes)": {
        "details": "See {IERC721-safeTransferFrom}."
      },
      "setApprovalForAll(address,bool)": {
        "details": "See {IERC721-setApprovalForAll}."
      },
      "supportsInterface(bytes4)": {
        "details": "See {IERC165-supportsInterface}."
      },
      "symbol()": {
        "details": "See {IERC721Metadata-symbol}."
      },
      "tokenURI(uint256)": {
        "details": "See {IERC721Metadata-tokenURI}."
      },
      "transferFrom(address,address,uint256)": {
        "details": "See {IERC721-transferFrom}."
      },
      "transferOwnership(address)": {
        "details": "Transfers ownership of the contract to a new account (`newOwner`). Can only be called by the current owner."
      }
    },
    "version": 1
  },
  "userdoc": {
    "kind": "user",
    "methods": {},
    "version": 1
  }
}