{
  "contractName": "NftCourse",
  "abi": [
    {
      "inputs": [
        {
          "internalType": "contract School",
          "name": "schoolContract",
          "type": "address"
        }
      ],
      "stateMutability": "nonpayable",
      "type": "constructor"
    },
    {
      "anonymous": false,
      "inputs": [
        {
          "indexed": true,
          "internalType": "address",
          "name": "owner",
          "type": "address"
        },
        {
          "indexed": true,
          "internalType": "address",
          "name": "approved",
          "type": "address"
        },
        {
          "indexed": true,
          "internalType": "uint256",
          "name": "tokenId",
          "type": "uint256"
        }
      ],
      "name": "Approval",
      "type": "event"
    },
    {
      "anonymous": false,
      "inputs": [
        {
          "indexed": true,
          "internalType": "address",
          "name": "owner",
          "type": "address"
        },
        {
          "indexed": true,
          "internalType": "address",
          "name": "operator",
          "type": "address"
        },
        {
          "indexed": false,
          "internalType": "bool",
          "name": "approved",
          "type": "bool"
        }
      ],
      "name": "ApprovalForAll",
      "type": "event"
    },
    {
      "anonymous": false,
      "inputs": [
        {
          "indexed": true,
          "internalType": "address",
          "name": "previousOwner",
          "type": "address"
        },
        {
          "indexed": true,
          "internalType": "address",
          "name": "newOwner",
          "type": "address"
        }
      ],
      "name": "OwnershipTransferred",
      "type": "event"
    },
    {
      "anonymous": false,
      "inputs": [
        {
          "indexed": true,
          "internalType": "address",
          "name": "from",
          "type": "address"
        },
        {
          "indexed": true,
          "internalType": "address",
          "name": "to",
          "type": "address"
        },
        {
          "indexed": true,
          "internalType": "uint256",
          "name": "tokenId",
          "type": "uint256"
        }
      ],
      "name": "Transfer",
      "type": "event"
    },
    {
      "inputs": [
        {
          "internalType": "address",
          "name": "to",
          "type": "address"
        },
        {
          "internalType": "uint256",
          "name": "tokenId",
          "type": "uint256"
        }
      ],
      "name": "approve",
      "outputs": [],
      "stateMutability": "nonpayable",
      "type": "function"
    },
    {
      "inputs": [
        {
          "internalType": "address",
          "name": "owner",
          "type": "address"
        }
      ],
      "name": "balanceOf",
      "outputs": [
        {
          "internalType": "uint256",
          "name": "",
          "type": "uint256"
        }
      ],
      "stateMutability": "view",
      "type": "function"
    },
    {
      "inputs": [
        {
          "internalType": "uint256",
          "name": "tokenId",
          "type": "uint256"
        }
      ],
      "name": "getApproved",
      "outputs": [
        {
          "internalType": "address",
          "name": "",
          "type": "address"
        }
      ],
      "stateMutability": "view",
      "type": "function"
    },
    {
      "inputs": [
        {
          "internalType": "address",
          "name": "owner",
          "type": "address"
        },
        {
          "internalType": "address",
          "name": "operator",
          "type": "address"
        }
      ],
      "name": "isApprovedForAll",
      "outputs": [
        {
          "internalType": "bool",
          "name": "",
          "type": "bool"
        }
      ],
      "stateMutability": "view",
      "type": "function"
    },
    {
      "inputs": [],
      "name": "name",
      "outputs": [
        {
          "internalType": "string",
          "name": "",
          "type": "string"
        }
      ],
      "stateMutability": "view",
      "type": "function"
    },
    {
      "inputs": [],
      "name": "owner",
      "outputs": [
        {
          "internalType": "address",
          "name": "",
          "type": "address"
        }
      ],
      "stateMutability": "view",
      "type": "function"
    },
    {
      "inputs": [
        {
          "internalType": "uint256",
          "name": "tokenId",
          "type": "uint256"
        }
      ],
      "name": "ownerOf",
      "outputs": [
        {
          "internalType": "address",
          "name": "",
          "type": "address"
        }
      ],
      "stateMutability": "view",
      "type": "function"
    },
    {
      "inputs": [],
      "name": "renounceOwnership",
      "outputs": [],
      "stateMutability": "nonpayable",
      "type": "function"
    },
    {
      "inputs": [
        {
          "internalType": "address",
          "name": "from",
          "type": "address"
        },
        {
          "internalType": "address",
          "name": "to",
          "type": "address"
        },
        {
          "internalType": "uint256",
          "name": "tokenId",
          "type": "uint256"
        }
      ],
      "name": "safeTransferFrom",
      "outputs": [],
      "stateMutability": "nonpayable",
      "type": "function"
    },
    {
      "inputs": [
        {
          "internalType": "address",
          "name": "from",
          "type": "address"
        },
        {
          "internalType": "address",
          "name": "to",
          "type": "address"
        },
        {
          "internalType": "uint256",
          "name": "tokenId",
          "type": "uint256"
        },
        {
          "internalType": "bytes",
          "name": "data",
          "type": "bytes"
        }
      ],
      "name": "safeTransferFrom",
      "outputs": [],
      "stateMutability": "nonpayable",
      "type": "function"
    },
    {
      "inputs": [
        {
          "internalType": "address",
          "name": "operator",
          "type": "address"
        },
        {
          "internalType": "bool",
          "name": "approved",
          "type": "bool"
        }
      ],
      "name": "setApprovalForAll",
      "outputs": [],
      "stateMutability": "nonpayable",
      "type": "function"
    },
    {
      "inputs": [
        {
          "internalType": "bytes4",
          "name": "interfaceId",
          "type": "bytes4"
        }
      ],
      "name": "supportsInterface",
      "outputs": [
        {
          "internalType": "bool",
          "name": "",
          "type": "bool"
        }
      ],
      "stateMutability": "view",
      "type": "function"
    },
    {
      "inputs": [],
      "name": "symbol",
      "outputs": [
        {
          "internalType": "string",
          "name": "",
          "type": "string"
        }
      ],
      "stateMutability": "view",
      "type": "function"
    },
    {
      "inputs": [
        {
          "internalType": "uint256",
          "name": "tokenId",
          "type": "uint256"
        }
      ],
      "name": "tokenURI",
      "outputs": [
        {
          "internalType": "string",
          "name": "",
          "type": "string"
        }
      ],
      "stateMutability": "view",
      "type": "function"
    },
    {
      "inputs": [
        {
          "internalType": "address",
          "name": "from",
          "type": "address"
        },
        {
          "internalType": "address",
          "name": "to",
          "type": "address"
        },
        {
          "internalType": "uint256",
          "name": "tokenId",
          "type": "uint256"
        }
      ],
      "name": "transferFrom",
      "outputs": [],
      "stateMutability": "nonpayable",
      "type": "function"
    },
    {
      "inputs": [
        {
          "internalType": "address",
          "name": "newOwner",
          "type": "address"
        }
      ],
      "name": "transferOwnership",
      "outputs": [],
      "stateMutability": "nonpayable",
      "type": "function"
    },
    {
      "inputs": [
        {
          "internalType": "uint256",
          "name": "tokenId",
          "type": "uint256"
        }
      ],
      "name": "getNftCourse",
      "outputs": [
        {
          "components": [
            {
              "internalType": "uint256",
              "name": "tokenId",
              "type": "uint256"
            },
            {
              "internalType": "string",
              "name": "studentId",
              "type": "string"
            },
            {
              "internalType": "uint256",
              "name": "courseId",
              "type": "uint256"
            }
          ],
          "internalType": "struct NftCourse.NftItem",
          "name": "",
          "type": "tuple"
        }
      ],
      "stateMutability": "view",
      "type": "function"
    },
    {
      "inputs": [
        {
          "internalType": "string",
          "name": "studentId",
          "type": "string"
        }
      ],
      "name": "getNftCourses",
      "outputs": [
        {
          "components": [
            {
              "internalType": "uint256",
              "name": "tokenId",
              "type": "uint256"
            },
            {
              "internalType": "string",
              "name": "studentId",
              "type": "string"
            },
            {
              "internalType": "uint256",
              "name": "courseId",
              "type": "uint256"
            }
          ],
          "internalType": "struct NftCourse.NftItem[]",
          "name": "",
          "type": "tuple[]"
        }
      ],
      "stateMutability": "view",
      "type": "function"
    },
    {
      "inputs": [
        {
          "internalType": "string",
          "name": "studentId",
          "type": "string"
        }
      ],
      "name": "getNumberOfNftCourses",
      "outputs": [
        {
          "internalType": "uint256",
          "name": "",
          "type": "uint256"
        }
      ],
      "stateMutability": "view",
      "type": "function"
    },
    {
      "inputs": [
        {
          "internalType": "string",
          "name": "tokenURI",
          "type": "string"
        },
        {
          "internalType": "string",
          "name": "studentId",
          "type": "string"
        },
        {
          "internalType": "uint256",
          "name": "courseId",
          "type": "uint256"
        }
      ],
      "name": "mintToken",
      "outputs": [
        {
          "internalType": "uint256",
          "name": "",
          "type": "uint256"
        }
      ],
      "stateMutability": "nonpayable",
      "type": "function"
    },
    {
      "inputs": [
        {
          "internalType": "string",
          "name": "studentId",
          "type": "string"
        },
        {
          "internalType": "uint256[]",
          "name": "tokenIds",
          "type": "uint256[]"
        }
      ],
      "name": "validateNftGradution",
      "outputs": [
        {
          "internalType": "bool",
          "name": "",
          "type": "bool"
        }
      ],
      "stateMutability": "nonpayable",
      "type": "function"
    }
  ],
  "bytecode": "0x60a06040523480156200001157600080fd5b50604051620049673803806200496783398181016040528101906200003791906200032e565b6040518060400160405280600981526020017f436f757273654e465400000000000000000000000000000000000000000000008152506040518060400160405280600481526020017f434e4654000000000000000000000000000000000000000000000000000000008152508160009080519060200190620000bb92919062000200565b508060019080519060200190620000d492919062000200565b505050620000f7620000eb6200013260201b60201c565b6200013a60201b60201c565b8073ffffffffffffffffffffffffffffffffffffffff1660808173ffffffffffffffffffffffffffffffffffffffff168152505050620003c4565b600033905090565b6000600760009054906101000a900473ffffffffffffffffffffffffffffffffffffffff16905081600760006101000a81548173ffffffffffffffffffffffffffffffffffffffff021916908373ffffffffffffffffffffffffffffffffffffffff1602179055508173ffffffffffffffffffffffffffffffffffffffff168173ffffffffffffffffffffffffffffffffffffffff167f8be0079c531659141344cd1fd0a4f28419497f9722a3daafe3b4186f6b6457e060405160405180910390a35050565b8280546200020e906200038f565b90600052602060002090601f0160209004810192826200023257600085556200027e565b82601f106200024d57805160ff19168380011785556200027e565b828001600101855582156200027e579182015b828111156200027d57825182559160200191906001019062000260565b5b5090506200028d919062000291565b5090565b5b80821115620002ac57600081600090555060010162000292565b5090565b600080fd5b600073ffffffffffffffffffffffffffffffffffffffff82169050919050565b6000620002e282620002b5565b9050919050565b6000620002f682620002d5565b9050919050565b6200030881620002e9565b81146200031457600080fd5b50565b6000815190506200032881620002fd565b92915050565b600060208284031215620003475762000346620002b0565b5b6000620003578482850162000317565b91505092915050565b7f4e487b7100000000000000000000000000000000000000000000000000000000600052602260045260246000fd5b60006002820490506001821680620003a857607f821691505b602082108103620003be57620003bd62000360565b5b50919050565b608051614580620003e760003960008181610462015261151c01526145806000f3fe608060405234801561001057600080fd5b50600436106101365760003560e01c8063715018a6116100b8578063b88d4fde1161007c578063b88d4fde1461035f578063c87b56dd1461037b578063e0b85828146103ab578063e985e9c5146103db578063f06f8bf91461040b578063f2fde38b1461043b57610136565b8063715018a6146102cd5780638da5cb5b146102d75780638e35f3f1146102f557806395d89b4114610325578063a22cb4651461034357610136565b8063095ea7b3116100ff578063095ea7b31461021957806323b872dd1461023557806342842e0e146102515780636352211e1461026d57806370a082311461029d57610136565b80627938b51461013b57806301ffc9a71461016b57806306fdde031461019b57806307e95810146101b9578063081812fc146101e9575b600080fd5b61015560048036038101906101509190612cdf565b610457565b6040516101629190612d72565b60405180910390f35b61018560048036038101906101809190612de5565b610792565b6040516101929190612d72565b60405180910390f35b6101a3610874565b6040516101b09190612e9a565b60405180910390f35b6101d360048036038101906101ce9190612ebc565b610906565b6040516101e09190612f56565b60405180910390f35b61020360048036038101906101fe9190612f71565b610b63565b6040516102109190612fdf565b60405180910390f35b610233600480360381019061022e9190613026565b610ba9565b005b61024f600480360381019061024a9190613066565b610cc0565b005b61026b60048036038101906102669190613066565b610d20565b005b61028760048036038101906102829190612f71565b610d40565b6040516102949190612fdf565b60405180910390f35b6102b760048036038101906102b291906130b9565b610dc6565b6040516102c49190612f56565b60405180910390f35b6102d5610e7d565b005b6102df610e91565b6040516102ec9190612fdf565b60405180910390f35b61030f600480360381019061030a9190612f71565b610ebb565b60405161031c919061318f565b60405180910390f35b61032d611005565b60405161033a9190612e9a565b60405180910390f35b61035d600480360381019061035891906131dd565b611097565b005b610379600480360381019061037491906132be565b6110ad565b005b61039560048036038101906103909190612f71565b61110f565b6040516103a29190612e9a565b60405180910390f35b6103c560048036038101906103c09190613341565b611221565b6040516103d29190612f56565b60405180910390f35b6103f560048036038101906103f0919061338a565b6112a3565b6040516104029190612d72565b60405180910390f35b61042560048036038101906104209190613341565b611337565b60405161043291906134dc565b60405180910390f35b610455600480360381019061045091906130b9565b611471565b005b6000808251905060007f000000000000000000000000000000000000000000000000000000000000000073ffffffffffffffffffffffffffffffffffffffff1663ae23977a6040518163ffffffff1660e01b8152600401600060405180830381865afa1580156104cb573d6000803e3d6000fd5b505050506040513d6000823e3d601f19601f820116820180604052508101906104f49190613630565b905060008151905060005b8181101561057157600083828151811061051c5761051b613679565b5b602002602001015190506000600f8960405161053891906136e4565b908152602001604051809103902060008360000151815260200190815260200160002081905550508061056a9061372a565b90506104ff565b5060005b838110156106f95760006105a287838151811061059557610594613679565b5b6020026020010151610ebb565b905060006105b382604001516114f4565b90506010896040516105c591906136e4565b90815260200160405180910390208160a001516040516105e591906136e4565b908152602001604051809103902060009054906101000a900460ff1615610641576040517f08c379a0000000000000000000000000000000000000000000000000000000008152600401610638906137be565b60405180910390fd5b8060400151600f8a60405161065691906136e4565b9081526020016040518091039020600083608001518152602001908152602001600020600082825461068891906137de565b92505081905550600160108a6040516106a191906136e4565b90815260200160405180910390208260a001516040516106c191906136e4565b908152602001604051809103902060006101000a81548160ff0219169083151502179055505050806106f29061372a565b9050610575565b5060005b8181101561078357600083828151811061071a57610719613679565b5b602002602001015190508060200151600f8960405161073991906136e4565b90815260200160405180910390206000836000015181526020019081526020016000205410156107715760009550505050505061078c565b508061077c9061372a565b90506106fd565b50600193505050505b92915050565b60007f80ac58cd000000000000000000000000000000000000000000000000000000007bffffffffffffffffffffffffffffffffffffffffffffffffffffffff1916827bffffffffffffffffffffffffffffffffffffffffffffffffffffffff1916148061085d57507f5b5e139f000000000000000000000000000000000000000000000000000000007bffffffffffffffffffffffffffffffffffffffffffffffffffffffff1916827bffffffffffffffffffffffffffffffffffffffffffffffffffffffff1916145b8061086d575061086c826117fc565b5b9050919050565b60606000805461088390613863565b80601f01602080910402602001604051908101604052809291908181526020018280546108af90613863565b80156108fc5780601f106108d1576101008083540402835291602001916108fc565b820191906000526020600020905b8154815290600101906020018083116108df57829003601f168201915b5050505050905090565b6000816000610914826114f4565b90503373ffffffffffffffffffffffffffffffffffffffff16816020015173ffffffffffffffffffffffffffffffffffffffff1614610988576040517f08c379a000000000000000000000000000000000000000000000000000000000815260040161097f906138e0565b60405180910390fd5b600d8660405161099891906136e4565b908152602001604051809103902060009054906101000a900460ff16156109f4576040517f08c379a00000000000000000000000000000000000000000000000000000000081526004016109eb9061394c565b60405180910390fd5b600b85604051610a0491906136e4565b9081526020016040518091039020600085815260200190815260200160002060009054906101000a900460ff1615610a71576040517f08c379a0000000000000000000000000000000000000000000000000000000008152600401610a68906139b8565b60405180910390fd5b610a7a84611866565b15610aba576040517f08c379a0000000000000000000000000000000000000000000000000000000008152600401610ab190613a24565b60405180910390fd5b610ac46008611888565b6001600e60008681526020019081526020016000206003016000828254610aeb9190613a44565b925050819055506000610afe600861189e565b9050610b0a33826118ac565b610b1481886118ca565b610b1f81878761193e565b6001600d88604051610b3191906136e4565b908152602001604051809103902060006101000a81548160ff0219169083151502179055508093505050509392505050565b6000610b6e82611a6c565b6004600083815260200190815260200160002060009054906101000a900473ffffffffffffffffffffffffffffffffffffffff169050919050565b6000610bb482610d40565b90508073ffffffffffffffffffffffffffffffffffffffff168373ffffffffffffffffffffffffffffffffffffffff1603610c24576040517f08c379a0000000000000000000000000000000000000000000000000000000008152600401610c1b90613aea565b60405180910390fd5b8073ffffffffffffffffffffffffffffffffffffffff16610c43611ab7565b73ffffffffffffffffffffffffffffffffffffffff161480610c725750610c7181610c6c611ab7565b6112a3565b5b610cb1576040517f08c379a0000000000000000000000000000000000000000000000000000000008152600401610ca890613b7c565b60405180910390fd5b610cbb8383611abf565b505050565b610cd1610ccb611ab7565b82611b78565b610d10576040517f08c379a0000000000000000000000000000000000000000000000000000000008152600401610d0790613c0e565b60405180910390fd5b610d1b838383611c0d565b505050565b610d3b838383604051806020016040528060008152506110ad565b505050565b600080610d4c83611f06565b9050600073ffffffffffffffffffffffffffffffffffffffff168173ffffffffffffffffffffffffffffffffffffffff1603610dbd576040517f08c379a0000000000000000000000000000000000000000000000000000000008152600401610db490613c7a565b60405180910390fd5b80915050919050565b60008073ffffffffffffffffffffffffffffffffffffffff168273ffffffffffffffffffffffffffffffffffffffff1603610e36576040517f08c379a0000000000000000000000000000000000000000000000000000000008152600401610e2d90613d0c565b60405180910390fd5b600360008373ffffffffffffffffffffffffffffffffffffffff1673ffffffffffffffffffffffffffffffffffffffff168152602001908152602001600020549050919050565b610e85611f43565b610e8f6000611fc1565b565b6000600760009054906101000a900473ffffffffffffffffffffffffffffffffffffffff16905090565b610ec361295e565b6000600a600084815260200190815260200160002054905060008103610f1e576040517f08c379a0000000000000000000000000000000000000000000000000000000008152600401610f1590613d78565b60405180910390fd5b6009600182610f2d9190613a44565b81548110610f3e57610f3d613679565b5b906000526020600020906003020160405180606001604052908160008201548152602001600182018054610f7190613863565b80601f0160208091040260200160405190810160405280929190818152602001828054610f9d90613863565b8015610fea5780601f10610fbf57610100808354040283529160200191610fea565b820191906000526020600020905b815481529060010190602001808311610fcd57829003601f168201915b50505050508152602001600282015481525050915050919050565b60606001805461101490613863565b80601f016020809104026020016040519081016040528092919081815260200182805461104090613863565b801561108d5780601f106110625761010080835404028352916020019161108d565b820191906000526020600020905b81548152906001019060200180831161107057829003601f168201915b5050505050905090565b6110a96110a2611ab7565b8383612087565b5050565b6110be6110b8611ab7565b83611b78565b6110fd576040517f08c379a00000000000000000000000000000000000000000000000000000000081526004016110f490613c0e565b60405180910390fd5b611109848484846121f3565b50505050565b606061111a82611a6c565b600060066000848152602001908152602001600020805461113a90613863565b80601f016020809104026020016040519081016040528092919081815260200182805461116690613863565b80156111b35780601f10611188576101008083540402835291602001916111b3565b820191906000526020600020905b81548152906001019060200180831161119657829003601f168201915b5050505050905060006111c461224f565b905060008151036111d957819250505061121c565b60008251111561120e5780826040516020016111f6929190613d98565b6040516020818303038152906040529250505061121c565b61121784612266565b925050505b919050565b600080600c8360405161123491906136e4565b908152602001604051809103902080548060200260200160405190810160405280929190818152602001828054801561128c57602002820191906000526020600020905b815481526020019060010190808311611278575b505050505090506000815190508092505050919050565b6000600560008473ffffffffffffffffffffffffffffffffffffffff1673ffffffffffffffffffffffffffffffffffffffff16815260200190815260200160002060008373ffffffffffffffffffffffffffffffffffffffff1673ffffffffffffffffffffffffffffffffffffffff16815260200190815260200160002060009054906101000a900460ff16905092915050565b60606000600c8360405161134b91906136e4565b90815260200160405180910390208054806020026020016040519081016040528092919081815260200182805480156113a357602002820191906000526020600020905b81548152602001906001019080831161138f575b5050505050905060008151905060008167ffffffffffffffff8111156113cc576113cb612ab6565b5b60405190808252806020026020018201604052801561140557816020015b6113f261295e565b8152602001906001900390816113ea5790505b50905060005b828110156114655761143684828151811061142957611428613679565b5b6020026020010151610ebb565b82828151811061144957611448613679565b5b60200260200101819052508061145e9061372a565b905061140b565b50809350505050919050565b611479611f43565b600073ffffffffffffffffffffffffffffffffffffffff168173ffffffffffffffffffffffffffffffffffffffff16036114e8576040517f08c379a00000000000000000000000000000000000000000000000000000000081526004016114df90613e2e565b60405180910390fd5b6114f181611fc1565b50565b6114fc61297f565b6000600e6000848152602001908152602001600020600001540361168c577f000000000000000000000000000000000000000000000000000000000000000073ffffffffffffffffffffffffffffffffffffffff16630b91e28d836040518263ffffffff1660e01b81526004016115739190612f56565b600060405180830381865afa158015611590573d6000803e3d6000fd5b505050506040513d6000823e3d601f19601f820116820180604052508101906115b99190613fc8565b600e60008481526020019081526020016000206000820151816000015560208201518160010160006101000a81548173ffffffffffffffffffffffffffffffffffffffff021916908373ffffffffffffffffffffffffffffffffffffffff16021790555060408201518160020155606082015181600301556080820151816004015560a08201518160050190805190602001906116579291906129e4565b5060c08201518160060160006101000a81548160ff0219169083600181111561168357611682614011565b5b02179055509050505b600e60008381526020019081526020016000206040518060e0016040529081600082015481526020016001820160009054906101000a900473ffffffffffffffffffffffffffffffffffffffff1673ffffffffffffffffffffffffffffffffffffffff1673ffffffffffffffffffffffffffffffffffffffff16815260200160028201548152602001600382015481526020016004820154815260200160058201805461173890613863565b80601f016020809104026020016040519081016040528092919081815260200182805461176490613863565b80156117b15780601f10611786576101008083540402835291602001916117b1565b820191906000526020600020905b81548152906001019060200180831161179457829003601f168201915b505050505081526020016006820160009054906101000a900460ff1660018111156117df576117de614011565b5b60018111156117f1576117f0614011565b5b815250509050919050565b60007f01ffc9a7000000000000000000000000000000000000000000000000000000007bffffffffffffffffffffffffffffffffffffffffffffffffffffffff1916827bffffffffffffffffffffffffffffffffffffffffffffffffffffffff1916149050919050565b600080600e600084815260200190815260200160002060030154149050919050565b6001816000016000828254019250508190555050565b600081600001549050919050565b6118c68282604051806020016040528060008152506122ce565b5050565b6118d382612329565b611912576040517f08c379a0000000000000000000000000000000000000000000000000000000008152600401611909906140b2565b60405180910390fd5b806006600084815260200190815260200160002090805190602001906119399291906129e4565b505050565b6000604051806060016040528085815260200184815260200183815250905060098190806001815401808255809150506001900390600052602060002090600302016000909190919091506000820151816000015560208201518160010190805190602001906119af9291906129e4565b50604082015181600201555050600980549050600a600086815260200190815260200160002081905550600c836040516119e991906136e4565b90815260200160405180910390208490806001815401808255809150506001900390600052602060002001600090919091909150556001600b84604051611a3091906136e4565b9081526020016040518091039020600084815260200190815260200160002060006101000a81548160ff02191690831515021790555050505050565b611a7581612329565b611ab4576040517f08c379a0000000000000000000000000000000000000000000000000000000008152600401611aab90613c7a565b60405180910390fd5b50565b600033905090565b816004600083815260200190815260200160002060006101000a81548173ffffffffffffffffffffffffffffffffffffffff021916908373ffffffffffffffffffffffffffffffffffffffff160217905550808273ffffffffffffffffffffffffffffffffffffffff16611b3283610d40565b73ffffffffffffffffffffffffffffffffffffffff167f8c5be1e5ebec7d5bd14f71427d1e84f3dd0314c0f7b2291e5b200ac8c7c3b92560405160405180910390a45050565b600080611b8483610d40565b90508073ffffffffffffffffffffffffffffffffffffffff168473ffffffffffffffffffffffffffffffffffffffff161480611bc65750611bc581856112a3565b5b80611c0457508373ffffffffffffffffffffffffffffffffffffffff16611bec84610b63565b73ffffffffffffffffffffffffffffffffffffffff16145b91505092915050565b8273ffffffffffffffffffffffffffffffffffffffff16611c2d82610d40565b73ffffffffffffffffffffffffffffffffffffffff1614611c83576040517f08c379a0000000000000000000000000000000000000000000000000000000008152600401611c7a90614144565b60405180910390fd5b600073ffffffffffffffffffffffffffffffffffffffff168273ffffffffffffffffffffffffffffffffffffffff1603611cf2576040517f08c379a0000000000000000000000000000000000000000000000000000000008152600401611ce9906141d6565b60405180910390fd5b611cff838383600161236a565b8273ffffffffffffffffffffffffffffffffffffffff16611d1f82610d40565b73ffffffffffffffffffffffffffffffffffffffff1614611d75576040517f08c379a0000000000000000000000000000000000000000000000000000000008152600401611d6c90614144565b60405180910390fd5b6004600082815260200190815260200160002060006101000a81549073ffffffffffffffffffffffffffffffffffffffff02191690556001600360008573ffffffffffffffffffffffffffffffffffffffff1673ffffffffffffffffffffffffffffffffffffffff168152602001908152602001600020600082825403925050819055506001600360008473ffffffffffffffffffffffffffffffffffffffff1673ffffffffffffffffffffffffffffffffffffffff16815260200190815260200160002060008282540192505081905550816002600083815260200190815260200160002060006101000a81548173ffffffffffffffffffffffffffffffffffffffff021916908373ffffffffffffffffffffffffffffffffffffffff160217905550808273ffffffffffffffffffffffffffffffffffffffff168473ffffffffffffffffffffffffffffffffffffffff167fddf252ad1be2c89b69c2b068fc378daa952ba7f163c4a11628f55a4df523b3ef60405160405180910390a4611f018383836001612370565b505050565b60006002600083815260200190815260200160002060009054906101000a900473ffffffffffffffffffffffffffffffffffffffff169050919050565b611f4b611ab7565b73ffffffffffffffffffffffffffffffffffffffff16611f69610e91565b73ffffffffffffffffffffffffffffffffffffffff1614611fbf576040517f08c379a0000000000000000000000000000000000000000000000000000000008152600401611fb690614242565b60405180910390fd5b565b6000600760009054906101000a900473ffffffffffffffffffffffffffffffffffffffff16905081600760006101000a81548173ffffffffffffffffffffffffffffffffffffffff021916908373ffffffffffffffffffffffffffffffffffffffff1602179055508173ffffffffffffffffffffffffffffffffffffffff168173ffffffffffffffffffffffffffffffffffffffff167f8be0079c531659141344cd1fd0a4f28419497f9722a3daafe3b4186f6b6457e060405160405180910390a35050565b8173ffffffffffffffffffffffffffffffffffffffff168373ffffffffffffffffffffffffffffffffffffffff16036120f5576040517f08c379a00000000000000000000000000000000000000000000000000000000081526004016120ec906142ae565b60405180910390fd5b80600560008573ffffffffffffffffffffffffffffffffffffffff1673ffffffffffffffffffffffffffffffffffffffff16815260200190815260200160002060008473ffffffffffffffffffffffffffffffffffffffff1673ffffffffffffffffffffffffffffffffffffffff16815260200190815260200160002060006101000a81548160ff0219169083151502179055508173ffffffffffffffffffffffffffffffffffffffff168373ffffffffffffffffffffffffffffffffffffffff167f17307eab39ab6107e8899845ad3d59bd9653f200f220920489ca2b5937696c31836040516121e69190612d72565b60405180910390a3505050565b6121fe848484611c0d565b61220a84848484612376565b612249576040517f08c379a000000000000000000000000000000000000000000000000000000000815260040161224090614340565b60405180910390fd5b50505050565b606060405180602001604052806000815250905090565b606061227182611a6c565b600061227b61224f565b9050600081511161229b57604051806020016040528060008152506122c6565b806122a5846124fd565b6040516020016122b6929190613d98565b6040516020818303038152906040525b915050919050565b6122d883836125cb565b6122e56000848484612376565b612324576040517f08c379a000000000000000000000000000000000000000000000000000000000815260040161231b90614340565b60405180910390fd5b505050565b60008073ffffffffffffffffffffffffffffffffffffffff1661234b83611f06565b73ffffffffffffffffffffffffffffffffffffffff1614159050919050565b50505050565b50505050565b60006123978473ffffffffffffffffffffffffffffffffffffffff166127e8565b156124f0578373ffffffffffffffffffffffffffffffffffffffff1663150b7a026123c0611ab7565b8786866040518563ffffffff1660e01b81526004016123e294939291906143b5565b6020604051808303816000875af192505050801561241e57506040513d601f19601f8201168201806040525081019061241b9190614416565b60015b6124a0573d806000811461244e576040519150601f19603f3d011682016040523d82523d6000602084013e612453565b606091505b506000815103612498576040517f08c379a000000000000000000000000000000000000000000000000000000000815260040161248f90614340565b60405180910390fd5b805181602001fd5b63150b7a0260e01b7bffffffffffffffffffffffffffffffffffffffffffffffffffffffff1916817bffffffffffffffffffffffffffffffffffffffffffffffffffffffff1916149150506124f5565b600190505b949350505050565b60606000600161250c8461280b565b01905060008167ffffffffffffffff81111561252b5761252a612ab6565b5b6040519080825280601f01601f19166020018201604052801561255d5781602001600182028036833780820191505090505b509050600082602001820190505b6001156125c0578080600190039150507f3031323334353637383961626364656600000000000000000000000000000000600a86061a8153600a85816125b4576125b3614443565b5b0494506000850361256b575b819350505050919050565b600073ffffffffffffffffffffffffffffffffffffffff168273ffffffffffffffffffffffffffffffffffffffff160361263a576040517f08c379a0000000000000000000000000000000000000000000000000000000008152600401612631906144be565b60405180910390fd5b61264381612329565b15612683576040517f08c379a000000000000000000000000000000000000000000000000000000000815260040161267a9061452a565b60405180910390fd5b61269160008383600161236a565b61269a81612329565b156126da576040517f08c379a00000000000000000000000000000000000000000000000000000000081526004016126d19061452a565b60405180910390fd5b6001600360008473ffffffffffffffffffffffffffffffffffffffff1673ffffffffffffffffffffffffffffffffffffffff16815260200190815260200160002060008282540192505081905550816002600083815260200190815260200160002060006101000a81548173ffffffffffffffffffffffffffffffffffffffff021916908373ffffffffffffffffffffffffffffffffffffffff160217905550808273ffffffffffffffffffffffffffffffffffffffff16600073ffffffffffffffffffffffffffffffffffffffff167fddf252ad1be2c89b69c2b068fc378daa952ba7f163c4a11628f55a4df523b3ef60405160405180910390a46127e4600083836001612370565b5050565b6000808273ffffffffffffffffffffffffffffffffffffffff163b119050919050565b600080600090507a184f03e93ff9f4daa797ed6e38ed64bf6a1f0100000000000000008310612869577a184f03e93ff9f4daa797ed6e38ed64bf6a1f010000000000000000838161285f5761285e614443565b5b0492506040810190505b6d04ee2d6d415b85acef810000000083106128a6576d04ee2d6d415b85acef8100000000838161289c5761289b614443565b5b0492506020810190505b662386f26fc1000083106128d557662386f26fc1000083816128cb576128ca614443565b5b0492506010810190505b6305f5e10083106128fe576305f5e10083816128f4576128f3614443565b5b0492506008810190505b612710831061292357612710838161291957612918614443565b5b0492506004810190505b60648310612946576064838161293c5761293b614443565b5b0492506002810190505b600a8310612955576001810190505b80915050919050565b60405180606001604052806000815260200160608152602001600081525090565b6040518060e0016040528060008152602001600073ffffffffffffffffffffffffffffffffffffffff16815260200160008152602001600081526020016000815260200160608152602001600060018111156129de576129dd614011565b5b81525090565b8280546129f090613863565b90600052602060002090601f016020900481019282612a125760008555612a59565b82601f10612a2b57805160ff1916838001178555612a59565b82800160010185558215612a59579182015b82811115612a58578251825591602001919060010190612a3d565b5b509050612a669190612a6a565b5090565b5b80821115612a83576000816000905550600101612a6b565b5090565b6000604051905090565b600080fd5b600080fd5b600080fd5b600080fd5b6000601f19601f8301169050919050565b7f4e487b7100000000000000000000000000000000000000000000000000000000600052604160045260246000fd5b612aee82612aa5565b810181811067ffffffffffffffff82111715612b0d57612b0c612ab6565b5b80604052505050565b6000612b20612a87565b9050612b2c8282612ae5565b919050565b600067ffffffffffffffff821115612b4c57612b4b612ab6565b5b612b5582612aa5565b9050602081019050919050565b82818337600083830152505050565b6000612b84612b7f84612b31565b612b16565b905082815260208101848484011115612ba057612b9f612aa0565b5b612bab848285612b62565b509392505050565b600082601f830112612bc857612bc7612a9b565b5b8135612bd8848260208601612b71565b91505092915050565b600067ffffffffffffffff821115612bfc57612bfb612ab6565b5b602082029050602081019050919050565b600080fd5b6000819050919050565b612c2581612c12565b8114612c3057600080fd5b50565b600081359050612c4281612c1c565b92915050565b6000612c5b612c5684612be1565b612b16565b90508083825260208201905060208402830185811115612c7e57612c7d612c0d565b5b835b81811015612ca75780612c938882612c33565b845260208401935050602081019050612c80565b5050509392505050565b600082601f830112612cc657612cc5612a9b565b5b8135612cd6848260208601612c48565b91505092915050565b60008060408385031215612cf657612cf5612a91565b5b600083013567ffffffffffffffff811115612d1457612d13612a96565b5b612d2085828601612bb3565b925050602083013567ffffffffffffffff811115612d4157612d40612a96565b5b612d4d85828601612cb1565b9150509250929050565b60008115159050919050565b612d6c81612d57565b82525050565b6000602082019050612d876000830184612d63565b92915050565b60007fffffffff0000000000000000000000000000000000000000000000000000000082169050919050565b612dc281612d8d565b8114612dcd57600080fd5b50565b600081359050612ddf81612db9565b92915050565b600060208284031215612dfb57612dfa612a91565b5b6000612e0984828501612dd0565b91505092915050565b600081519050919050565b600082825260208201905092915050565b60005b83811015612e4c578082015181840152602081019050612e31565b83811115612e5b576000848401525b50505050565b6000612e6c82612e12565b612e768185612e1d565b9350612e86818560208601612e2e565b612e8f81612aa5565b840191505092915050565b60006020820190508181036000830152612eb48184612e61565b905092915050565b600080600060608486031215612ed557612ed4612a91565b5b600084013567ffffffffffffffff811115612ef357612ef2612a96565b5b612eff86828701612bb3565b935050602084013567ffffffffffffffff811115612f2057612f1f612a96565b5b612f2c86828701612bb3565b9250506040612f3d86828701612c33565b9150509250925092565b612f5081612c12565b82525050565b6000602082019050612f6b6000830184612f47565b92915050565b600060208284031215612f8757612f86612a91565b5b6000612f9584828501612c33565b91505092915050565b600073ffffffffffffffffffffffffffffffffffffffff82169050919050565b6000612fc982612f9e565b9050919050565b612fd981612fbe565b82525050565b6000602082019050612ff46000830184612fd0565b92915050565b61300381612fbe565b811461300e57600080fd5b50565b60008135905061302081612ffa565b92915050565b6000806040838503121561303d5761303c612a91565b5b600061304b85828601613011565b925050602061305c85828601612c33565b9150509250929050565b60008060006060848603121561307f5761307e612a91565b5b600061308d86828701613011565b935050602061309e86828701613011565b92505060406130af86828701612c33565b9150509250925092565b6000602082840312156130cf576130ce612a91565b5b60006130dd84828501613011565b91505092915050565b6130ef81612c12565b82525050565b600082825260208201905092915050565b600061311182612e12565b61311b81856130f5565b935061312b818560208601612e2e565b61313481612aa5565b840191505092915050565b600060608301600083015161315760008601826130e6565b506020830151848203602086015261316f8282613106565b915050604083015161318460408601826130e6565b508091505092915050565b600060208201905081810360008301526131a9818461313f565b905092915050565b6131ba81612d57565b81146131c557600080fd5b50565b6000813590506131d7816131b1565b92915050565b600080604083850312156131f4576131f3612a91565b5b600061320285828601613011565b9250506020613213858286016131c8565b9150509250929050565b600067ffffffffffffffff82111561323857613237612ab6565b5b61324182612aa5565b9050602081019050919050565b600061326161325c8461321d565b612b16565b90508281526020810184848401111561327d5761327c612aa0565b5b613288848285612b62565b509392505050565b600082601f8301126132a5576132a4612a9b565b5b81356132b584826020860161324e565b91505092915050565b600080600080608085870312156132d8576132d7612a91565b5b60006132e687828801613011565b94505060206132f787828801613011565b935050604061330887828801612c33565b925050606085013567ffffffffffffffff81111561332957613328612a96565b5b61333587828801613290565b91505092959194509250565b60006020828403121561335757613356612a91565b5b600082013567ffffffffffffffff81111561337557613374612a96565b5b61338184828501612bb3565b91505092915050565b600080604083850312156133a1576133a0612a91565b5b60006133af85828601613011565b92505060206133c085828601613011565b9150509250929050565b600081519050919050565b600082825260208201905092915050565b6000819050602082019050919050565b600060608301600083015161340e60008601826130e6565b50602083015184820360208601526134268282613106565b915050604083015161343b60408601826130e6565b508091505092915050565b600061345283836133f6565b905092915050565b6000602082019050919050565b6000613472826133ca565b61347c81856133d5565b93508360208202850161348e856133e6565b8060005b858110156134ca57848403895281516134ab8582613446565b94506134b68361345a565b925060208a01995050600181019050613492565b50829750879550505050505092915050565b600060208201905081810360008301526134f68184613467565b905092915050565b600067ffffffffffffffff82111561351957613518612ab6565b5b602082029050602081019050919050565b600080fd5b600080fd5b60008151905061354381612c1c565b92915050565b60006040828403121561355f5761355e61352a565b5b6135696040612b16565b9050600061357984828501613534565b600083015250602061358d84828501613534565b60208301525092915050565b60006135ac6135a7846134fe565b612b16565b905080838252602082019050604084028301858111156135cf576135ce612c0d565b5b835b818110156135f857806135e48882613549565b8452602084019350506040810190506135d1565b5050509392505050565b600082601f83011261361757613616612a9b565b5b8151613627848260208601613599565b91505092915050565b60006020828403121561364657613645612a91565b5b600082015167ffffffffffffffff81111561366457613663612a96565b5b61367084828501613602565b91505092915050565b7f4e487b7100000000000000000000000000000000000000000000000000000000600052603260045260246000fd5b600081905092915050565b60006136be82612e12565b6136c881856136a8565b93506136d8818560208601612e2e565b80840191505092915050565b60006136f082846136b3565b915081905092915050565b7f4e487b7100000000000000000000000000000000000000000000000000000000600052601160045260246000fd5b600061373582612c12565b91507fffffffffffffffffffffffffffffffffffffffffffffffffffffffffffffffff8203613767576137666136fb565b5b600182019050919050565b7f4475706c696361746520636f7572736500000000000000000000000000000000600082015250565b60006137a8601083612e1d565b91506137b382613772565b602082019050919050565b600060208201905081810360008301526137d78161379b565b9050919050565b60006137e982612c12565b91506137f483612c12565b9250827fffffffffffffffffffffffffffffffffffffffffffffffffffffffffffffffff03821115613829576138286136fb565b5b828201905092915050565b7f4e487b7100000000000000000000000000000000000000000000000000000000600052602260045260246000fd5b6000600282049050600182168061387b57607f821691505b60208210810361388e5761388d613834565b5b50919050565b7f6163636573732064656e69656400000000000000000000000000000000000000600082015250565b60006138ca600d83612e1d565b91506138d582613894565b602082019050919050565b600060208201905081810360008301526138f9816138bd565b9050919050565b7f5552492068617320616c72656164792065786973746564000000000000000000600082015250565b6000613936601783612e1d565b915061394182613900565b602082019050919050565b6000602082019050818103600083015261396581613929565b9050919050565b7f53747564656e7420686173206265656e206772616e7465640000000000000000600082015250565b60006139a2601883612e1d565b91506139ad8261396c565b602082019050919050565b600060208201905081810360008301526139d181613995565b9050919050565b7f4f7574206f66206e667400000000000000000000000000000000000000000000600082015250565b6000613a0e600a83612e1d565b9150613a19826139d8565b602082019050919050565b60006020820190508181036000830152613a3d81613a01565b9050919050565b6000613a4f82612c12565b9150613a5a83612c12565b925082821015613a6d57613a6c6136fb565b5b828203905092915050565b7f4552433732313a20617070726f76616c20746f2063757272656e74206f776e6560008201527f7200000000000000000000000000000000000000000000000000000000000000602082015250565b6000613ad4602183612e1d565b9150613adf82613a78565b604082019050919050565b60006020820190508181036000830152613b0381613ac7565b9050919050565b7f4552433732313a20617070726f76652063616c6c6572206973206e6f7420746f60008201527f6b656e206f776e6572206f7220617070726f76656420666f7220616c6c000000602082015250565b6000613b66603d83612e1d565b9150613b7182613b0a565b604082019050919050565b60006020820190508181036000830152613b9581613b59565b9050919050565b7f4552433732313a2063616c6c6572206973206e6f7420746f6b656e206f776e6560008201527f72206f7220617070726f76656400000000000000000000000000000000000000602082015250565b6000613bf8602d83612e1d565b9150613c0382613b9c565b604082019050919050565b60006020820190508181036000830152613c2781613beb565b9050919050565b7f4552433732313a20696e76616c696420746f6b656e2049440000000000000000600082015250565b6000613c64601883612e1d565b9150613c6f82613c2e565b602082019050919050565b60006020820190508181036000830152613c9381613c57565b9050919050565b7f4552433732313a2061646472657373207a65726f206973206e6f74206120766160008201527f6c6964206f776e65720000000000000000000000000000000000000000000000602082015250565b6000613cf6602983612e1d565b9150613d0182613c9a565b604082019050919050565b60006020820190508181036000830152613d2581613ce9565b9050919050565b7f4e6f7420657869737473206e667420636f757273650000000000000000000000600082015250565b6000613d62601583612e1d565b9150613d6d82613d2c565b602082019050919050565b60006020820190508181036000830152613d9181613d55565b9050919050565b6000613da482856136b3565b9150613db082846136b3565b91508190509392505050565b7f4f776e61626c653a206e6577206f776e657220697320746865207a65726f206160008201527f6464726573730000000000000000000000000000000000000000000000000000602082015250565b6000613e18602683612e1d565b9150613e2382613dbc565b604082019050919050565b60006020820190508181036000830152613e4781613e0b565b9050919050565b600081519050613e5d81612ffa565b92915050565b6000613e76613e7184612b31565b612b16565b905082815260208101848484011115613e9257613e91612aa0565b5b613e9d848285612e2e565b509392505050565b600082601f830112613eba57613eb9612a9b565b5b8151613eca848260208601613e63565b91505092915050565b60028110613ee057600080fd5b50565b600081519050613ef281613ed3565b92915050565b600060e08284031215613f0e57613f0d61352a565b5b613f1860e0612b16565b90506000613f2884828501613534565b6000830152506020613f3c84828501613e4e565b6020830152506040613f5084828501613534565b6040830152506060613f6484828501613534565b6060830152506080613f7884828501613534565b60808301525060a082015167ffffffffffffffff811115613f9c57613f9b61352f565b5b613fa884828501613ea5565b60a08301525060c0613fbc84828501613ee3565b60c08301525092915050565b600060208284031215613fde57613fdd612a91565b5b600082015167ffffffffffffffff811115613ffc57613ffb612a96565b5b61400884828501613ef8565b91505092915050565b7f4e487b7100000000000000000000000000000000000000000000000000000000600052602160045260246000fd5b7f45524337323155524953746f726167653a2055524920736574206f66206e6f6e60008201527f6578697374656e7420746f6b656e000000000000000000000000000000000000602082015250565b600061409c602e83612e1d565b91506140a782614040565b604082019050919050565b600060208201905081810360008301526140cb8161408f565b9050919050565b7f4552433732313a207472616e736665722066726f6d20696e636f72726563742060008201527f6f776e6572000000000000000000000000000000000000000000000000000000602082015250565b600061412e602583612e1d565b9150614139826140d2565b604082019050919050565b6000602082019050818103600083015261415d81614121565b9050919050565b7f4552433732313a207472616e7366657220746f20746865207a65726f2061646460008201527f7265737300000000000000000000000000000000000000000000000000000000602082015250565b60006141c0602483612e1d565b91506141cb82614164565b604082019050919050565b600060208201905081810360008301526141ef816141b3565b9050919050565b7f4f776e61626c653a2063616c6c6572206973206e6f7420746865206f776e6572600082015250565b600061422c602083612e1d565b9150614237826141f6565b602082019050919050565b6000602082019050818103600083015261425b8161421f565b9050919050565b7f4552433732313a20617070726f766520746f2063616c6c657200000000000000600082015250565b6000614298601983612e1d565b91506142a382614262565b602082019050919050565b600060208201905081810360008301526142c78161428b565b9050919050565b7f4552433732313a207472616e7366657220746f206e6f6e20455243373231526560008201527f63656976657220696d706c656d656e7465720000000000000000000000000000602082015250565b600061432a603283612e1d565b9150614335826142ce565b604082019050919050565b600060208201905081810360008301526143598161431d565b9050919050565b600081519050919050565b600082825260208201905092915050565b600061438782614360565b614391818561436b565b93506143a1818560208601612e2e565b6143aa81612aa5565b840191505092915050565b60006080820190506143ca6000830187612fd0565b6143d76020830186612fd0565b6143e46040830185612f47565b81810360608301526143f6818461437c565b905095945050505050565b60008151905061441081612db9565b92915050565b60006020828403121561442c5761442b612a91565b5b600061443a84828501614401565b91505092915050565b7f4e487b7100000000000000000000000000000000000000000000000000000000600052601260045260246000fd5b7f4552433732313a206d696e7420746f20746865207a65726f2061646472657373600082015250565b60006144a8602083612e1d565b91506144b382614472565b602082019050919050565b600060208201905081810360008301526144d78161449b565b9050919050565b7f4552433732313a20746f6b656e20616c7265616479206d696e74656400000000600082015250565b6000614514601c83612e1d565b915061451f826144de565b602082019050919050565b6000602082019050818103600083015261454381614507565b905091905056fea2646970667358221220a504ebc2e7a6ec3a732b4af8aec4f16b758c30bee3ca2ac39efcf0eb70c27f1164736f6c634300080d0033",
  "immutableReferences": {
    "5185": [
      {
        "length": 32,
        "start": 1122
      },
      {
        "length": 32,
        "start": 5404
      }
    ]
  },
  "source": "// SPDX-License-Identifier: MIT\r\n// Tells the Solidity compiler to compile only from v0.8.13 to v0.9.0\r\npragma solidity ^0.8.13;\r\n\r\nimport \"@openzeppelin/contracts/token/ERC721/extensions/ERC721URIStorage.sol\";\r\nimport \"@openzeppelin/contracts/utils/Counters.sol\";\r\nimport \"@openzeppelin/contracts/access/Ownable.sol\";\r\nimport \"./School.sol\";\r\nimport \"./Type.sol\";\r\n\r\ncontract NftCourse is ERC721URIStorage, Ownable {\r\n    using Counters for Counters.Counter;\r\n\r\n    struct NftItem {\r\n        uint256 tokenId;\r\n        string studentId;\r\n        uint256 courseId;\r\n    }\r\n\r\n\tSchool private immutable _schoolContract;\r\n\r\n    Counters.Counter private _tokenIds;\r\n    NftItem[] private _allNftItems;\r\n    mapping(uint256 => uint256) private _idToNftIndex; // tokenId =>NftItem \r\n    mapping(string => mapping(uint256 => bool)) private _completedCourse;\r\n    mapping(string => uint256[]) private _nftCoursesOfStudent;\r\n    // mapping(string => mapping(CourseType => uint256[])) private _completedCourse;\r\n    mapping(string => bool) private _usedTokenURIs;\r\n\r\n    mapping(uint256 => Type.Course) private _idToCourse;\r\n    mapping(string => mapping(uint256 => uint256)) private _creditsOfCourse;\r\n    mapping(string => mapping(string => bool)) private _checkedCourse;\r\n    \r\n    constructor(School schoolContract) ERC721(\"CourseNFT\", \"CNFT\") {\r\n        _schoolContract = schoolContract;\r\n    }\r\n\r\n    modifier onlyTeacher(uint256 courseId) {\r\n        Type.Course memory course = _getCourse(courseId);\r\n        require(course.teacherAddress == msg.sender, \"access denied\");\r\n        _;\r\n    }\r\n\r\n    function getNftCourse(uint256 tokenId) public view returns (NftItem memory) {\r\n        uint256 tokenIndex = _idToNftIndex[tokenId];\r\n        if (tokenIndex == 0) { revert(\"Not exists nft course\"); }\r\n\r\n        return _allNftItems[tokenIndex - 1];\r\n    }\r\n\r\n    function getNftCourses(string memory studentId) public view returns (NftItem[] memory) {\r\n        uint256[] memory tokenIds = _nftCoursesOfStudent[studentId];\r\n        uint256 nftCount = tokenIds.length;\r\n        NftItem[] memory nftItems = new NftItem[](nftCount);\r\n\r\n        for (uint256 index = 0; index < nftCount; ++index) {\r\n            nftItems[index] = getNftCourse(tokenIds[index]);\r\n        }\r\n\r\n        return nftItems;\r\n    }\r\n\r\n    function getNumberOfNftCourses(string memory studentId) public view returns (uint256) {\r\n        uint256[] memory tokenIds = _nftCoursesOfStudent[studentId];\r\n        uint256 nftCount = tokenIds.length;\r\n\r\n        return nftCount;\r\n    }\r\n\r\n    function mintToken(\r\n        string memory tokenURI,\r\n        string memory studentId,\r\n        uint256 courseId\r\n        // score?\r\n    ) public onlyTeacher(courseId) returns (uint256)\r\n    {\r\n        require(!_usedTokenURIs[tokenURI], \"URI has already existed\");\r\n        require(!_completedCourse[studentId][courseId], \"Student has been granted\");\r\n        require(!_isOutOfNft(courseId), \"Out of nft\");\r\n        _tokenIds.increment();\r\n        _idToCourse[courseId].nftCounts -= 1;\r\n\r\n        uint256 newTokenId = _tokenIds.current();\r\n        _safeMint(msg.sender, newTokenId);\r\n        _setTokenURI(newTokenId, tokenURI);\r\n        _createNftItem(newTokenId, studentId, courseId);\r\n        _usedTokenURIs[tokenURI] = true;\r\n\r\n        return newTokenId;\r\n    }\r\n\r\n    function validateNftGradution(\r\n        string memory studentId,\r\n        uint256[] memory tokenIds\r\n    ) public returns (bool) {\r\n        uint256 tokenIdLength = tokenIds.length;\r\n        Type.Requirement[] memory requirements = _schoolContract.getAllRequirements();\r\n        uint256 requirementLength = requirements.length;\r\n\r\n        for (uint256 index = 0; index < requirementLength; ++index) {\r\n            Type.Requirement memory requirement = requirements[index];\r\n            _creditsOfCourse[studentId][requirement.courseGroupId] = 0;\r\n        }\r\n\r\n        for (uint256 index = 0; index < tokenIdLength; ++index) {\r\n            NftItem memory nftItem = getNftCourse(tokenIds[index]);\r\n            Type.Course memory course = _getCourse(nftItem.courseId);\r\n            if (_checkedCourse[studentId][course.metadata]) {\r\n                revert(\"Duplicate course\");\r\n            }\r\n            _creditsOfCourse[studentId][course.courseGroup] += course.credits;\r\n            _checkedCourse[studentId][course.metadata] = true;\r\n        }\r\n\r\n        for (uint256 index = 0; index < requirementLength; ++index) {\r\n            Type.Requirement memory requirement = requirements[index];\r\n            if (_creditsOfCourse[studentId][requirement.courseGroupId] < requirement.credits) {\r\n                return false;\r\n            }\r\n        }\r\n\r\n        return true;\r\n    }\r\n\r\n    function _isOutOfNft(uint256 courseId) private view returns (bool)\r\n    {\r\n        return _idToCourse[courseId].nftCounts == 0;\r\n    }\r\n\r\n    function _createNftItem(\r\n        uint256 tokenId,\r\n        string memory studentId,\r\n        uint256 courseId\r\n    ) private {\r\n        NftItem memory nftItem = NftItem(tokenId, studentId, courseId);\r\n        _allNftItems.push(nftItem);\r\n        _idToNftIndex[tokenId] = _allNftItems.length;\r\n        _nftCoursesOfStudent[studentId].push(tokenId);\r\n        _completedCourse[studentId][courseId] = true;\r\n    }\r\n\r\n    function _getCourse(uint256 courseId) private returns (Type.Course memory) {\r\n        if (_idToCourse[courseId].id == 0) {\r\n            _idToCourse[courseId] = _schoolContract.getCourse(courseId);\r\n        }\r\n\r\n        return _idToCourse[courseId];\r\n    }\r\n}\r\n",
  "sourcePath": "E:\\learn\\learn-to-earn\\contracts\\NftCourse.sol",
  "compiler": {
    "name": "solc",
    "version": "0.8.13+commit.abaa5c0e.Emscripten.clang"
  },
  "schemaVersion": "3.4.11",
  "updatedAt": "2023-03-07T22:43:33.070Z",
  "devdoc": {
    "kind": "dev",
    "methods": {
      "approve(address,uint256)": {
        "details": "See {IERC721-approve}."
      },
      "balanceOf(address)": {
        "details": "See {IERC721-balanceOf}."
      },
      "getApproved(uint256)": {
        "details": "See {IERC721-getApproved}."
      },
      "isApprovedForAll(address,address)": {
        "details": "See {IERC721-isApprovedForAll}."
      },
      "name()": {
        "details": "See {IERC721Metadata-name}."
      },
      "owner()": {
        "details": "Returns the address of the current owner."
      },
      "ownerOf(uint256)": {
        "details": "See {IERC721-ownerOf}."
      },
      "renounceOwnership()": {
        "details": "Leaves the contract without owner. It will not be possible to call `onlyOwner` functions anymore. Can only be called by the current owner. NOTE: Renouncing ownership will leave the contract without an owner, thereby removing any functionality that is only available to the owner."
      },
      "safeTransferFrom(address,address,uint256)": {
        "details": "See {IERC721-safeTransferFrom}."
      },
      "safeTransferFrom(address,address,uint256,bytes)": {
        "details": "See {IERC721-safeTransferFrom}."
      },
      "setApprovalForAll(address,bool)": {
        "details": "See {IERC721-setApprovalForAll}."
      },
      "supportsInterface(bytes4)": {
        "details": "See {IERC165-supportsInterface}."
      },
      "symbol()": {
        "details": "See {IERC721Metadata-symbol}."
      },
      "tokenURI(uint256)": {
        "details": "See {IERC721Metadata-tokenURI}."
      },
      "transferFrom(address,address,uint256)": {
        "details": "See {IERC721-transferFrom}."
      },
      "transferOwnership(address)": {
        "details": "Transfers ownership of the contract to a new account (`newOwner`). Can only be called by the current owner."
      }
    },
    "version": 1
  },
  "userdoc": {
    "kind": "user",
    "methods": {},
    "version": 1
  }
}