{
  "contractName": "NftCertificates",
  "abi": [
    {
      "inputs": [
        {
          "internalType": "address",
          "name": "nftIdentities",
          "type": "address"
        },
        {
          "internalType": "address",
          "name": "nftSchool",
          "type": "address"
        }
      ],
      "stateMutability": "nonpayable",
      "type": "constructor"
    },
    {
      "anonymous": false,
      "inputs": [
        {
          "indexed": true,
          "internalType": "address",
          "name": "account",
          "type": "address"
        },
        {
          "indexed": true,
          "internalType": "address",
          "name": "operator",
          "type": "address"
        },
        {
          "indexed": false,
          "internalType": "bool",
          "name": "approved",
          "type": "bool"
        }
      ],
      "name": "ApprovalForAll",
      "type": "event"
    },
    {
      "anonymous": false,
      "inputs": [
        {
          "indexed": true,
          "internalType": "address",
          "name": "operator",
          "type": "address"
        },
        {
          "indexed": true,
          "internalType": "address",
          "name": "from",
          "type": "address"
        },
        {
          "indexed": true,
          "internalType": "address",
          "name": "to",
          "type": "address"
        },
        {
          "indexed": false,
          "internalType": "uint256[]",
          "name": "ids",
          "type": "uint256[]"
        },
        {
          "indexed": false,
          "internalType": "uint256[]",
          "name": "values",
          "type": "uint256[]"
        }
      ],
      "name": "TransferBatch",
      "type": "event"
    },
    {
      "anonymous": false,
      "inputs": [
        {
          "indexed": true,
          "internalType": "address",
          "name": "operator",
          "type": "address"
        },
        {
          "indexed": true,
          "internalType": "address",
          "name": "from",
          "type": "address"
        },
        {
          "indexed": true,
          "internalType": "address",
          "name": "to",
          "type": "address"
        },
        {
          "indexed": false,
          "internalType": "uint256",
          "name": "id",
          "type": "uint256"
        },
        {
          "indexed": false,
          "internalType": "uint256",
          "name": "value",
          "type": "uint256"
        }
      ],
      "name": "TransferSingle",
      "type": "event"
    },
    {
      "anonymous": false,
      "inputs": [
        {
          "indexed": false,
          "internalType": "string",
          "name": "value",
          "type": "string"
        },
        {
          "indexed": true,
          "internalType": "uint256",
          "name": "id",
          "type": "uint256"
        }
      ],
      "name": "URI",
      "type": "event"
    },
    {
      "inputs": [
        {
          "internalType": "address",
          "name": "account",
          "type": "address"
        },
        {
          "internalType": "uint256",
          "name": "id",
          "type": "uint256"
        }
      ],
      "name": "balanceOf",
      "outputs": [
        {
          "internalType": "uint256",
          "name": "",
          "type": "uint256"
        }
      ],
      "stateMutability": "view",
      "type": "function"
    },
    {
      "inputs": [
        {
          "internalType": "address[]",
          "name": "accounts",
          "type": "address[]"
        },
        {
          "internalType": "uint256[]",
          "name": "ids",
          "type": "uint256[]"
        }
      ],
      "name": "balanceOfBatch",
      "outputs": [
        {
          "internalType": "uint256[]",
          "name": "",
          "type": "uint256[]"
        }
      ],
      "stateMutability": "view",
      "type": "function"
    },
    {
      "inputs": [
        {
          "internalType": "address",
          "name": "account",
          "type": "address"
        },
        {
          "internalType": "address",
          "name": "operator",
          "type": "address"
        }
      ],
      "name": "isApprovedForAll",
      "outputs": [
        {
          "internalType": "bool",
          "name": "",
          "type": "bool"
        }
      ],
      "stateMutability": "view",
      "type": "function"
    },
    {
      "inputs": [],
      "name": "registeredEndAt",
      "outputs": [
        {
          "internalType": "uint256",
          "name": "",
          "type": "uint256"
        }
      ],
      "stateMutability": "view",
      "type": "function"
    },
    {
      "inputs": [],
      "name": "registeredStartAt",
      "outputs": [
        {
          "internalType": "uint256",
          "name": "",
          "type": "uint256"
        }
      ],
      "stateMutability": "view",
      "type": "function"
    },
    {
      "inputs": [
        {
          "internalType": "address",
          "name": "from",
          "type": "address"
        },
        {
          "internalType": "address",
          "name": "to",
          "type": "address"
        },
        {
          "internalType": "uint256[]",
          "name": "ids",
          "type": "uint256[]"
        },
        {
          "internalType": "uint256[]",
          "name": "amounts",
          "type": "uint256[]"
        },
        {
          "internalType": "bytes",
          "name": "data",
          "type": "bytes"
        }
      ],
      "name": "safeBatchTransferFrom",
      "outputs": [],
      "stateMutability": "nonpayable",
      "type": "function"
    },
    {
      "inputs": [
        {
          "internalType": "address",
          "name": "from",
          "type": "address"
        },
        {
          "internalType": "address",
          "name": "to",
          "type": "address"
        },
        {
          "internalType": "uint256",
          "name": "id",
          "type": "uint256"
        },
        {
          "internalType": "uint256",
          "name": "amount",
          "type": "uint256"
        },
        {
          "internalType": "bytes",
          "name": "data",
          "type": "bytes"
        }
      ],
      "name": "safeTransferFrom",
      "outputs": [],
      "stateMutability": "nonpayable",
      "type": "function"
    },
    {
      "inputs": [],
      "name": "schoolYearEnd",
      "outputs": [
        {
          "internalType": "uint256",
          "name": "",
          "type": "uint256"
        }
      ],
      "stateMutability": "view",
      "type": "function"
    },
    {
      "inputs": [
        {
          "internalType": "address",
          "name": "operator",
          "type": "address"
        },
        {
          "internalType": "bool",
          "name": "approved",
          "type": "bool"
        }
      ],
      "name": "setApprovalForAll",
      "outputs": [],
      "stateMutability": "nonpayable",
      "type": "function"
    },
    {
      "inputs": [
        {
          "internalType": "bytes4",
          "name": "interfaceId",
          "type": "bytes4"
        }
      ],
      "name": "supportsInterface",
      "outputs": [
        {
          "internalType": "bool",
          "name": "",
          "type": "bool"
        }
      ],
      "stateMutability": "view",
      "type": "function"
    },
    {
      "inputs": [
        {
          "internalType": "uint256",
          "name": "tokenId",
          "type": "uint256"
        }
      ],
      "name": "uri",
      "outputs": [
        {
          "internalType": "string",
          "name": "",
          "type": "string"
        }
      ],
      "stateMutability": "view",
      "type": "function"
    },
    {
      "inputs": [],
      "name": "yearId",
      "outputs": [
        {
          "internalType": "uint256",
          "name": "",
          "type": "uint256"
        }
      ],
      "stateMutability": "view",
      "type": "function"
    },
    {
      "inputs": [],
      "name": "getOwnedNftCompleteCourse",
      "outputs": [
        {
          "components": [
            {
              "internalType": "uint256",
              "name": "tokenId",
              "type": "uint256"
            },
            {
              "internalType": "uint256",
              "name": "credits",
              "type": "uint256"
            },
            {
              "internalType": "uint256",
              "name": "avgScore",
              "type": "uint256"
            }
          ],
          "internalType": "struct IConstant.NftCompleteCourse[]",
          "name": "",
          "type": "tuple[]"
        },
        {
          "internalType": "string[]",
          "name": "",
          "type": "string[]"
        }
      ],
      "stateMutability": "view",
      "type": "function"
    },
    {
      "inputs": [
        {
          "internalType": "uint256",
          "name": "tokenId",
          "type": "uint256"
        }
      ],
      "name": "getNftCompleteCourse",
      "outputs": [
        {
          "components": [
            {
              "internalType": "uint256",
              "name": "tokenId",
              "type": "uint256"
            },
            {
              "internalType": "uint256",
              "name": "credits",
              "type": "uint256"
            },
            {
              "internalType": "uint256",
              "name": "avgScore",
              "type": "uint256"
            }
          ],
          "internalType": "struct IConstant.NftCompleteCourse",
          "name": "",
          "type": "tuple"
        },
        {
          "internalType": "string",
          "name": "",
          "type": "string"
        }
      ],
      "stateMutability": "view",
      "type": "function"
    },
    {
      "inputs": [],
      "name": "getOwnedNftGraduation",
      "outputs": [
        {
          "components": [
            {
              "internalType": "uint256",
              "name": "tokenId",
              "type": "uint256"
            }
          ],
          "internalType": "struct IConstant.NftGraduation",
          "name": "",
          "type": "tuple"
        },
        {
          "internalType": "string",
          "name": "",
          "type": "string"
        }
      ],
      "stateMutability": "view",
      "type": "function"
    },
    {
      "inputs": [
        {
          "internalType": "uint256",
          "name": "tokenId",
          "type": "uint256"
        }
      ],
      "name": "getNftGraduation",
      "outputs": [
        {
          "components": [
            {
              "internalType": "uint256",
              "name": "tokenId",
              "type": "uint256"
            }
          ],
          "internalType": "struct IConstant.NftGraduation",
          "name": "",
          "type": "tuple"
        },
        {
          "internalType": "string",
          "name": "",
          "type": "string"
        }
      ],
      "stateMutability": "view",
      "type": "function"
    }
  ],
  "bytecode": "0x60c060405260405180602001604052806000815250600390805190602001906200002b9291906200029f565b503480156200003957600080fd5b50604051620037393803806200373983398181016040528101906200005f9190620003b9565b604051806020016040528060008152508062000081816200028360201b60201c565b5033600560006101000a81548173ffffffffffffffffffffffffffffffffffffffff021916908373ffffffffffffffffffffffffffffffffffffffff160217905550508173ffffffffffffffffffffffffffffffffffffffff1660808173ffffffffffffffffffffffffffffffffffffffff16815250508073ffffffffffffffffffffffffffffffffffffffff1660a08173ffffffffffffffffffffffffffffffffffffffff168152505042600a819055506001600e60008060048111156200014f576200014e62000400565b5b815260200190815260200160002060006101000a81548160ff0219169083151502179055506001600e60006001600481111562000191576200019062000400565b5b815260200190815260200160002060006101000a81548160ff0219169083151502179055506001600e600060026004811115620001d357620001d262000400565b5b815260200190815260200160002060006101000a81548160ff0219169083151502179055506001600e60006003600481111562000215576200021462000400565b5b815260200190815260200160002060006101000a81548160ff0219169083151502179055506001600e600060048081111562000256576200025562000400565b5b815260200190815260200160002060006101000a81548160ff021916908315150217905550505062000493565b80600290805190602001906200029b9291906200029f565b5050565b828054620002ad906200045e565b90600052602060002090601f016020900481019282620002d157600085556200031d565b82601f10620002ec57805160ff19168380011785556200031d565b828001600101855582156200031d579182015b828111156200031c578251825591602001919060010190620002ff565b5b5090506200032c919062000330565b5090565b5b808211156200034b57600081600090555060010162000331565b5090565b600080fd5b600073ffffffffffffffffffffffffffffffffffffffff82169050919050565b6000620003818262000354565b9050919050565b620003938162000374565b81146200039f57600080fd5b50565b600081519050620003b38162000388565b92915050565b60008060408385031215620003d357620003d26200034f565b5b6000620003e385828601620003a2565b9250506020620003f685828601620003a2565b9150509250929050565b7f4e487b7100000000000000000000000000000000000000000000000000000000600052602160045260246000fd5b7f4e487b7100000000000000000000000000000000000000000000000000000000600052602260045260246000fd5b600060028204905060018216806200047757607f821691505b6020821081036200048d576200048c6200042f565b5b50919050565b60805160a051613286620004b360003960005050600050506132866000f3fe608060405234801561001057600080fd5b50600436106100ff5760003560e01c8063a22cb46511610097578063df4e489111610066578063df4e4891146102c5578063e985e9c5146102e3578063ec7d2f7514610313578063f242432a14610344576100ff565b8063a22cb4651461024d578063af0d1cb514610269578063b12a611514610287578063df264a5e146102a6576100ff565b80632eb2c2d6116100d35780632eb2c2d6146101b25780634e1273f4146101ce57806385c7744c146101fe5780638f03802d1461022f576100ff565b8062fdd58e1461010457806301ffc9a7146101345780630e89341c1461016457806311394f5614610194575b600080fd5b61011e60048036038101906101199190611bfc565b610360565b60405161012b9190611c4b565b60405180910390f35b61014e60048036038101906101499190611cbe565b610428565b60405161015b9190611d06565b60405180910390f35b61017e60048036038101906101799190611d21565b61050a565b60405161018b9190611de7565b60405180910390f35b61019c6105ef565b6040516101a99190611c4b565b60405180910390f35b6101cc60048036038101906101c79190612006565b6105f5565b005b6101e860048036038101906101e39190612198565b610696565b6040516101f591906122ce565b60405180910390f35b61021860048036038101906102139190611d21565b6107af565b604051610226929190612332565b60405180910390f35b610237610893565b6040516102449190611c4b565b60405180910390f35b6102676004803603810190610262919061238e565b610899565b005b6102716108af565b60405161027e9190611c4b565b60405180910390f35b61028f6108b5565b60405161029d9291906123ea565b60405180910390f35b6102ae610915565b6040516102bc929190612617565b60405180910390f35b6102cd610b15565b6040516102da9190611c4b565b60405180910390f35b6102fd60048036038101906102f8919061264e565b610b1b565b60405161030a9190611d06565b60405180910390f35b61032d60048036038101906103289190611d21565b610baf565b60405161033b9291906123ea565b60405180910390f35b61035e6004803603810190610359919061268e565b610c7b565b005b60008073ffffffffffffffffffffffffffffffffffffffff168373ffffffffffffffffffffffffffffffffffffffff16036103d0576040517f08c379a00000000000000000000000000000000000000000000000000000000081526004016103c790612797565b60405180910390fd5b60008083815260200190815260200160002060008473ffffffffffffffffffffffffffffffffffffffff1673ffffffffffffffffffffffffffffffffffffffff16815260200190815260200160002054905092915050565b60007fd9b67a26000000000000000000000000000000000000000000000000000000007bffffffffffffffffffffffffffffffffffffffffffffffffffffffff1916827bffffffffffffffffffffffffffffffffffffffffffffffffffffffff191614806104f357507f0e89341c000000000000000000000000000000000000000000000000000000007bffffffffffffffffffffffffffffffffffffffffffffffffffffffff1916827bffffffffffffffffffffffffffffffffffffffffffffffffffffffff1916145b80610503575061050282610d1c565b5b9050919050565b6060600060046000848152602001908152602001600020805461052c906127e6565b80601f0160208091040260200160405190810160405280929190818152602001828054610558906127e6565b80156105a55780601f1061057a576101008083540402835291602001916105a5565b820191906000526020600020905b81548152906001019060200180831161058857829003601f168201915b5050505050905060008151116105c3576105be83610d86565b6105e7565b6003816040516020016105d79291906128e7565b6040516020818303038152906040525b915050919050565b600a5481565b6105fd610e1a565b73ffffffffffffffffffffffffffffffffffffffff168573ffffffffffffffffffffffffffffffffffffffff16148061064357506106428561063d610e1a565b610b1b565b5b610682576040517f08c379a00000000000000000000000000000000000000000000000000000000081526004016106799061297d565b60405180910390fd5b61068f8585858585610e22565b5050505050565b606081518351146106dc576040517f08c379a00000000000000000000000000000000000000000000000000000000081526004016106d390612a0f565b60405180910390fd5b6000835167ffffffffffffffff8111156106f9576106f8611e0e565b5b6040519080825280602002602001820160405280156107275781602001602082028036833780820191505090505b50905060005b84518110156107a45761077485828151811061074c5761074b612a2f565b5b602002602001015185838151811061076757610766612a2f565b5b6020026020010151610360565b82828151811061078757610786612a2f565b5b6020026020010181815250508061079d90612a8d565b905061072d565b508091505092915050565b6107b7611b20565b606060006012600060058152602001908152602001600020600085815260200190815260200160002054905060008111610826576040517f08c379a000000000000000000000000000000000000000000000000000000000815260040161081d90612b21565b60405180910390fd5b60106001826108359190612b41565b8154811061084657610845612a2f565b5b906000526020600020906003020161085d8561050a565b81604051806060016040529081600082015481526020016001820154815260200160028201548152505091509250925050915091565b600c5481565b6108ab6108a4610e1a565b8383611143565b5050565b600b5481565b6108bd611b41565b60606000601460003373ffffffffffffffffffffffffffffffffffffffff1673ffffffffffffffffffffffffffffffffffffffff16815260200190815260200160002054905061090c81610baf565b92509250509091565b6060806000601360003373ffffffffffffffffffffffffffffffffffffffff1673ffffffffffffffffffffffffffffffffffffffff168152602001908152602001600020805490509050600081116109a2576040517f08c379a000000000000000000000000000000000000000000000000000000000815260040161099990612be7565b60405180910390fd5b60008167ffffffffffffffff8111156109be576109bd611e0e565b5b6040519080825280602002602001820160405280156109f757816020015b6109e4611b20565b8152602001906001900390816109dc5790505b50905060008267ffffffffffffffff811115610a1657610a15611e0e565b5b604051908082528060200260200182016040528015610a4957816020015b6060815260200190600190039081610a345790505b50905060005b838111610b0757610aba601360003373ffffffffffffffffffffffffffffffffffffffff1673ffffffffffffffffffffffffffffffffffffffff1681526020019081526020016000208281548110610aaa57610aa9612a2f565b5b90600052602060002001546107af565b848381518110610acd57610acc612a2f565b5b60200260200101848481518110610ae757610ae6612a2f565b5b60200260200101829052829052505080610b0090612a8d565b9050610a4f565b508181945094505050509091565b600d5481565b6000600160008473ffffffffffffffffffffffffffffffffffffffff1673ffffffffffffffffffffffffffffffffffffffff16815260200190815260200160002060008373ffffffffffffffffffffffffffffffffffffffff1673ffffffffffffffffffffffffffffffffffffffff16815260200190815260200160002060009054906101000a900460ff16905092915050565b610bb7611b41565b606060006012600060068152602001908152602001600020600085815260200190815260200160002054905060008111610c26576040517f08c379a0000000000000000000000000000000000000000000000000000000008152600401610c1d90612b21565b60405180910390fd5b6011600182610c359190612b41565b81548110610c4657610c45612a2f565b5b90600052602060002001610c598561050a565b8160405180602001604052908160008201548152505091509250925050915091565b610c83610e1a565b73ffffffffffffffffffffffffffffffffffffffff168573ffffffffffffffffffffffffffffffffffffffff161480610cc95750610cc885610cc3610e1a565b610b1b565b5b610d08576040517f08c379a0000000000000000000000000000000000000000000000000000000008152600401610cff9061297d565b60405180910390fd5b610d1585858585856112af565b5050505050565b60007f01ffc9a7000000000000000000000000000000000000000000000000000000007bffffffffffffffffffffffffffffffffffffffffffffffffffffffff1916827bffffffffffffffffffffffffffffffffffffffffffffffffffffffff1916149050919050565b606060028054610d95906127e6565b80601f0160208091040260200160405190810160405280929190818152602001828054610dc1906127e6565b8015610e0e5780601f10610de357610100808354040283529160200191610e0e565b820191906000526020600020905b815481529060010190602001808311610df157829003601f168201915b50505050509050919050565b600033905090565b8151835114610e66576040517f08c379a0000000000000000000000000000000000000000000000000000000008152600401610e5d90612c79565b60405180910390fd5b600073ffffffffffffffffffffffffffffffffffffffff168473ffffffffffffffffffffffffffffffffffffffff1603610ed5576040517f08c379a0000000000000000000000000000000000000000000000000000000008152600401610ecc90612d0b565b60405180910390fd5b6000610edf610e1a565b9050610eef81878787878761154a565b60005b84518110156110a0576000858281518110610f1057610f0f612a2f565b5b602002602001015190506000858381518110610f2f57610f2e612a2f565b5b60200260200101519050600080600084815260200190815260200160002060008b73ffffffffffffffffffffffffffffffffffffffff1673ffffffffffffffffffffffffffffffffffffffff16815260200190815260200160002054905081811015610fd0576040517f08c379a0000000000000000000000000000000000000000000000000000000008152600401610fc790612d9d565b60405180910390fd5b81810360008085815260200190815260200160002060008c73ffffffffffffffffffffffffffffffffffffffff1673ffffffffffffffffffffffffffffffffffffffff168152602001908152602001600020819055508160008085815260200190815260200160002060008b73ffffffffffffffffffffffffffffffffffffffff1673ffffffffffffffffffffffffffffffffffffffff16815260200190815260200160002060008282546110859190612dbd565b925050819055505050508061109990612a8d565b9050610ef2565b508473ffffffffffffffffffffffffffffffffffffffff168673ffffffffffffffffffffffffffffffffffffffff168273ffffffffffffffffffffffffffffffffffffffff167f4a39dc06d4c0dbc64b70af90fd698a233a518aa5d07e595d983b8c0526c8f7fb8787604051611117929190612e13565b60405180910390a461112d8187878787876116c5565b61113b8187878787876116cd565b505050505050565b8173ffffffffffffffffffffffffffffffffffffffff168373ffffffffffffffffffffffffffffffffffffffff16036111b1576040517f08c379a00000000000000000000000000000000000000000000000000000000081526004016111a890612ebc565b60405180910390fd5b80600160008573ffffffffffffffffffffffffffffffffffffffff1673ffffffffffffffffffffffffffffffffffffffff16815260200190815260200160002060008473ffffffffffffffffffffffffffffffffffffffff1673ffffffffffffffffffffffffffffffffffffffff16815260200190815260200160002060006101000a81548160ff0219169083151502179055508173ffffffffffffffffffffffffffffffffffffffff168373ffffffffffffffffffffffffffffffffffffffff167f17307eab39ab6107e8899845ad3d59bd9653f200f220920489ca2b5937696c31836040516112a29190611d06565b60405180910390a3505050565b600073ffffffffffffffffffffffffffffffffffffffff168473ffffffffffffffffffffffffffffffffffffffff160361131e576040517f08c379a000000000000000000000000000000000000000000000000000000000815260040161131590612d0b565b60405180910390fd5b6000611328610e1a565b90506000611335856118a4565b90506000611342856118a4565b905061135283898985858961154a565b600080600088815260200190815260200160002060008a73ffffffffffffffffffffffffffffffffffffffff1673ffffffffffffffffffffffffffffffffffffffff168152602001908152602001600020549050858110156113e9576040517f08c379a00000000000000000000000000000000000000000000000000000000081526004016113e090612d9d565b60405180910390fd5b85810360008089815260200190815260200160002060008b73ffffffffffffffffffffffffffffffffffffffff1673ffffffffffffffffffffffffffffffffffffffff168152602001908152602001600020819055508560008089815260200190815260200160002060008a73ffffffffffffffffffffffffffffffffffffffff1673ffffffffffffffffffffffffffffffffffffffff168152602001908152602001600020600082825461149e9190612dbd565b925050819055508773ffffffffffffffffffffffffffffffffffffffff168973ffffffffffffffffffffffffffffffffffffffff168573ffffffffffffffffffffffffffffffffffffffff167fc3d58168c5ae7397731d063d5bbf3d657854427343f4c083240f7aacaa2d0f628a8a60405161151b929190612edc565b60405180910390a4611531848a8a86868a6116c5565b61153f848a8a8a8a8a61191e565b505050505050505050565b611558868686868686611af5565b600083519050600073ffffffffffffffffffffffffffffffffffffffff168673ffffffffffffffffffffffffffffffffffffffff160361161b5760005b8181116116195785600860008784815181106115b4576115b3612a2f565b5b6020026020010151815260200190815260200160002060006101000a81548173ffffffffffffffffffffffffffffffffffffffff021916908373ffffffffffffffffffffffffffffffffffffffff1602179055508061161290612a8d565b9050611595565b505b600073ffffffffffffffffffffffffffffffffffffffff168573ffffffffffffffffffffffffffffffffffffffff16036116bc5760005b8181116116ba57600860008683815181106116705761166f612a2f565b5b6020026020010151815260200190815260200160002060006101000a81549073ffffffffffffffffffffffffffffffffffffffff0219169055806116b390612a8d565b9050611652565b505b50505050505050565b505050505050565b6116ec8473ffffffffffffffffffffffffffffffffffffffff16611afd565b1561189c578373ffffffffffffffffffffffffffffffffffffffff1663bc197c8187878686866040518663ffffffff1660e01b8152600401611732959493929190612f69565b6020604051808303816000875af192505050801561176e57506040513d601f19601f8201168201806040525081019061176b9190612fe6565b60015b6118135761177a613020565b806308c379a0036117d6575061178e613042565b8061179957506117d8565b806040517f08c379a00000000000000000000000000000000000000000000000000000000081526004016117cd9190611de7565b60405180910390fd5b505b6040517f08c379a000000000000000000000000000000000000000000000000000000000815260040161180a90613144565b60405180910390fd5b63bc197c8160e01b7bffffffffffffffffffffffffffffffffffffffffffffffffffffffff1916817bffffffffffffffffffffffffffffffffffffffffffffffffffffffff19161461189a576040517f08c379a0000000000000000000000000000000000000000000000000000000008152600401611891906131d6565b60405180910390fd5b505b505050505050565b60606000600167ffffffffffffffff8111156118c3576118c2611e0e565b5b6040519080825280602002602001820160405280156118f15781602001602082028036833780820191505090505b509050828160008151811061190957611908612a2f565b5b60200260200101818152505080915050919050565b61193d8473ffffffffffffffffffffffffffffffffffffffff16611afd565b15611aed578373ffffffffffffffffffffffffffffffffffffffff1663f23a6e6187878686866040518663ffffffff1660e01b81526004016119839594939291906131f6565b6020604051808303816000875af19250505080156119bf57506040513d601f19601f820116820180604052508101906119bc9190612fe6565b60015b611a64576119cb613020565b806308c379a003611a2757506119df613042565b806119ea5750611a29565b806040517f08c379a0000000000000000000000000000000000000000000000000000000008152600401611a1e9190611de7565b60405180910390fd5b505b6040517f08c379a0000000000000000000000000000000000000000000000000000000008152600401611a5b90613144565b60405180910390fd5b63f23a6e6160e01b7bffffffffffffffffffffffffffffffffffffffffffffffffffffffff1916817bffffffffffffffffffffffffffffffffffffffffffffffffffffffff191614611aeb576040517f08c379a0000000000000000000000000000000000000000000000000000000008152600401611ae2906131d6565b60405180910390fd5b505b505050505050565b505050505050565b6000808273ffffffffffffffffffffffffffffffffffffffff163b119050919050565b60405180606001604052806000815260200160008152602001600081525090565b6040518060200160405280600081525090565b6000604051905090565b600080fd5b600080fd5b600073ffffffffffffffffffffffffffffffffffffffff82169050919050565b6000611b9382611b68565b9050919050565b611ba381611b88565b8114611bae57600080fd5b50565b600081359050611bc081611b9a565b92915050565b6000819050919050565b611bd981611bc6565b8114611be457600080fd5b50565b600081359050611bf681611bd0565b92915050565b60008060408385031215611c1357611c12611b5e565b5b6000611c2185828601611bb1565b9250506020611c3285828601611be7565b9150509250929050565b611c4581611bc6565b82525050565b6000602082019050611c606000830184611c3c565b92915050565b60007fffffffff0000000000000000000000000000000000000000000000000000000082169050919050565b611c9b81611c66565b8114611ca657600080fd5b50565b600081359050611cb881611c92565b92915050565b600060208284031215611cd457611cd3611b5e565b5b6000611ce284828501611ca9565b91505092915050565b60008115159050919050565b611d0081611ceb565b82525050565b6000602082019050611d1b6000830184611cf7565b92915050565b600060208284031215611d3757611d36611b5e565b5b6000611d4584828501611be7565b91505092915050565b600081519050919050565b600082825260208201905092915050565b60005b83811015611d88578082015181840152602081019050611d6d565b83811115611d97576000848401525b50505050565b6000601f19601f8301169050919050565b6000611db982611d4e565b611dc38185611d59565b9350611dd3818560208601611d6a565b611ddc81611d9d565b840191505092915050565b60006020820190508181036000830152611e018184611dae565b905092915050565b600080fd5b7f4e487b7100000000000000000000000000000000000000000000000000000000600052604160045260246000fd5b611e4682611d9d565b810181811067ffffffffffffffff82111715611e6557611e64611e0e565b5b80604052505050565b6000611e78611b54565b9050611e848282611e3d565b919050565b600067ffffffffffffffff821115611ea457611ea3611e0e565b5b602082029050602081019050919050565b600080fd5b6000611ecd611ec884611e89565b611e6e565b90508083825260208201905060208402830185811115611ef057611eef611eb5565b5b835b81811015611f195780611f058882611be7565b845260208401935050602081019050611ef2565b5050509392505050565b600082601f830112611f3857611f37611e09565b5b8135611f48848260208601611eba565b91505092915050565b600080fd5b600067ffffffffffffffff821115611f7157611f70611e0e565b5b611f7a82611d9d565b9050602081019050919050565b82818337600083830152505050565b6000611fa9611fa484611f56565b611e6e565b905082815260208101848484011115611fc557611fc4611f51565b5b611fd0848285611f87565b509392505050565b600082601f830112611fed57611fec611e09565b5b8135611ffd848260208601611f96565b91505092915050565b600080600080600060a0868803121561202257612021611b5e565b5b600061203088828901611bb1565b955050602061204188828901611bb1565b945050604086013567ffffffffffffffff81111561206257612061611b63565b5b61206e88828901611f23565b935050606086013567ffffffffffffffff81111561208f5761208e611b63565b5b61209b88828901611f23565b925050608086013567ffffffffffffffff8111156120bc576120bb611b63565b5b6120c888828901611fd8565b9150509295509295909350565b600067ffffffffffffffff8211156120f0576120ef611e0e565b5b602082029050602081019050919050565b600061211461210f846120d5565b611e6e565b9050808382526020820190506020840283018581111561213757612136611eb5565b5b835b81811015612160578061214c8882611bb1565b845260208401935050602081019050612139565b5050509392505050565b600082601f83011261217f5761217e611e09565b5b813561218f848260208601612101565b91505092915050565b600080604083850312156121af576121ae611b5e565b5b600083013567ffffffffffffffff8111156121cd576121cc611b63565b5b6121d98582860161216a565b925050602083013567ffffffffffffffff8111156121fa576121f9611b63565b5b61220685828601611f23565b9150509250929050565b600081519050919050565b600082825260208201905092915050565b6000819050602082019050919050565b61224581611bc6565b82525050565b6000612257838361223c565b60208301905092915050565b6000602082019050919050565b600061227b82612210565b612285818561221b565b93506122908361222c565b8060005b838110156122c15781516122a8888261224b565b97506122b383612263565b925050600181019050612294565b5085935050505092915050565b600060208201905081810360008301526122e88184612270565b905092915050565b606082016000820151612306600085018261223c565b506020820151612319602085018261223c565b50604082015161232c604085018261223c565b50505050565b600060808201905061234760008301856122f0565b81810360608301526123598184611dae565b90509392505050565b61236b81611ceb565b811461237657600080fd5b50565b60008135905061238881612362565b92915050565b600080604083850312156123a5576123a4611b5e565b5b60006123b385828601611bb1565b92505060206123c485828601612379565b9150509250929050565b6020820160008201516123e4600085018261223c565b50505050565b60006040820190506123ff60008301856123ce565b81810360208301526124118184611dae565b90509392505050565b600081519050919050565b600082825260208201905092915050565b6000819050602082019050919050565b60608201600082015161245c600085018261223c565b50602082015161246f602085018261223c565b506040820151612482604085018261223c565b50505050565b60006124948383612446565b60608301905092915050565b6000602082019050919050565b60006124b88261241a565b6124c28185612425565b93506124cd83612436565b8060005b838110156124fe5781516124e58882612488565b97506124f0836124a0565b9250506001810190506124d1565b5085935050505092915050565b600081519050919050565b600082825260208201905092915050565b6000819050602082019050919050565b600082825260208201905092915050565b600061255382611d4e565b61255d8185612537565b935061256d818560208601611d6a565b61257681611d9d565b840191505092915050565b600061258d8383612548565b905092915050565b6000602082019050919050565b60006125ad8261250b565b6125b78185612516565b9350836020820285016125c985612527565b8060005b8581101561260557848403895281516125e68582612581565b94506125f183612595565b925060208a019950506001810190506125cd565b50829750879550505050505092915050565b6000604082019050818103600083015261263181856124ad565b9050818103602083015261264581846125a2565b90509392505050565b6000806040838503121561266557612664611b5e565b5b600061267385828601611bb1565b925050602061268485828601611bb1565b9150509250929050565b600080600080600060a086880312156126aa576126a9611b5e565b5b60006126b888828901611bb1565b95505060206126c988828901611bb1565b94505060406126da88828901611be7565b93505060606126eb88828901611be7565b925050608086013567ffffffffffffffff81111561270c5761270b611b63565b5b61271888828901611fd8565b9150509295509295909350565b7f455243313135353a2061646472657373207a65726f206973206e6f742061207660008201527f616c6964206f776e657200000000000000000000000000000000000000000000602082015250565b6000612781602a83611d59565b915061278c82612725565b604082019050919050565b600060208201905081810360008301526127b081612774565b9050919050565b7f4e487b7100000000000000000000000000000000000000000000000000000000600052602260045260246000fd5b600060028204905060018216806127fe57607f821691505b602082108103612811576128106127b7565b5b50919050565b600081905092915050565b60008190508160005260206000209050919050565b60008154612844816127e6565b61284e8186612817565b94506001821660008114612869576001811461287a576128ad565b60ff198316865281860193506128ad565b61288385612822565b60005b838110156128a557815481890152600182019150602081019050612886565b838801955050505b50505092915050565b60006128c182611d4e565b6128cb8185612817565b93506128db818560208601611d6a565b80840191505092915050565b60006128f38285612837565b91506128ff82846128b6565b91508190509392505050565b7f455243313135353a2063616c6c6572206973206e6f7420746f6b656e206f776e60008201527f6572206f7220617070726f766564000000000000000000000000000000000000602082015250565b6000612967602e83611d59565b91506129728261290b565b604082019050919050565b600060208201905081810360008301526129968161295a565b9050919050565b7f455243313135353a206163636f756e747320616e6420696473206c656e67746860008201527f206d69736d617463680000000000000000000000000000000000000000000000602082015250565b60006129f9602983611d59565b9150612a048261299d565b604082019050919050565b60006020820190508181036000830152612a28816129ec565b9050919050565b7f4e487b7100000000000000000000000000000000000000000000000000000000600052603260045260246000fd5b7f4e487b7100000000000000000000000000000000000000000000000000000000600052601160045260246000fd5b6000612a9882611bc6565b91507fffffffffffffffffffffffffffffffffffffffffffffffffffffffffffffffff8203612aca57612ac9612a5e565b5b600182019050919050565b7f4e667420646f6573206e6f742065786973740000000000000000000000000000600082015250565b6000612b0b601283611d59565b9150612b1682612ad5565b602082019050919050565b60006020820190508181036000830152612b3a81612afe565b9050919050565b6000612b4c82611bc6565b9150612b5783611bc6565b925082821015612b6a57612b69612a5e565b5b828203905092915050565b7f596f7520686176656e277420636f6d706c6574656420616e7920636f7572736560008201527f7300000000000000000000000000000000000000000000000000000000000000602082015250565b6000612bd1602183611d59565b9150612bdc82612b75565b604082019050919050565b60006020820190508181036000830152612c0081612bc4565b9050919050565b7f455243313135353a2069647320616e6420616d6f756e7473206c656e6774682060008201527f6d69736d61746368000000000000000000000000000000000000000000000000602082015250565b6000612c63602883611d59565b9150612c6e82612c07565b604082019050919050565b60006020820190508181036000830152612c9281612c56565b9050919050565b7f455243313135353a207472616e7366657220746f20746865207a65726f20616460008201527f6472657373000000000000000000000000000000000000000000000000000000602082015250565b6000612cf5602583611d59565b9150612d0082612c99565b604082019050919050565b60006020820190508181036000830152612d2481612ce8565b9050919050565b7f455243313135353a20696e73756666696369656e742062616c616e636520666f60008201527f72207472616e7366657200000000000000000000000000000000000000000000602082015250565b6000612d87602a83611d59565b9150612d9282612d2b565b604082019050919050565b60006020820190508181036000830152612db681612d7a565b9050919050565b6000612dc882611bc6565b9150612dd383611bc6565b9250827fffffffffffffffffffffffffffffffffffffffffffffffffffffffffffffffff03821115612e0857612e07612a5e565b5b828201905092915050565b60006040820190508181036000830152612e2d8185612270565b90508181036020830152612e418184612270565b90509392505050565b7f455243313135353a2073657474696e6720617070726f76616c2073746174757360008201527f20666f722073656c660000000000000000000000000000000000000000000000602082015250565b6000612ea6602983611d59565b9150612eb182612e4a565b604082019050919050565b60006020820190508181036000830152612ed581612e99565b9050919050565b6000604082019050612ef16000830185611c3c565b612efe6020830184611c3c565b9392505050565b612f0e81611b88565b82525050565b600081519050919050565b600082825260208201905092915050565b6000612f3b82612f14565b612f458185612f1f565b9350612f55818560208601611d6a565b612f5e81611d9d565b840191505092915050565b600060a082019050612f7e6000830188612f05565b612f8b6020830187612f05565b8181036040830152612f9d8186612270565b90508181036060830152612fb18185612270565b90508181036080830152612fc58184612f30565b90509695505050505050565b600081519050612fe081611c92565b92915050565b600060208284031215612ffc57612ffb611b5e565b5b600061300a84828501612fd1565b91505092915050565b60008160e01c9050919050565b600060033d111561303f5760046000803e61303c600051613013565b90505b90565b600060443d106130cf57613054611b54565b60043d036004823e80513d602482011167ffffffffffffffff8211171561307c5750506130cf565b808201805167ffffffffffffffff81111561309a57505050506130cf565b80602083010160043d0385018111156130b75750505050506130cf565b6130c682602001850186611e3d565b82955050505050505b90565b7f455243313135353a207472616e7366657220746f206e6f6e2d4552433131353560008201527f526563656976657220696d706c656d656e746572000000000000000000000000602082015250565b600061312e603483611d59565b9150613139826130d2565b604082019050919050565b6000602082019050818103600083015261315d81613121565b9050919050565b7f455243313135353a204552433131353552656365697665722072656a6563746560008201527f6420746f6b656e73000000000000000000000000000000000000000000000000602082015250565b60006131c0602883611d59565b91506131cb82613164565b604082019050919050565b600060208201905081810360008301526131ef816131b3565b9050919050565b600060a08201905061320b6000830188612f05565b6132186020830187612f05565b6132256040830186611c3c565b6132326060830185611c3c565b81810360808301526132448184612f30565b9050969550505050505056fea2646970667358221220368843b0219d38eca4227c8a7d0b4944bcb052bb1ca052c9ea5555aaa1dbc59e64736f6c634300080d0033",
  "immutableReferences": {},
  "source": "// SPDX-License-Identifier: MIT\r\n// Tells the Solidity compiler to compile only from v0.8.13 to v0.9.0\r\npragma solidity ^0.8.13;\r\n\r\nimport \"./CertificateDefinition.sol\";\r\nimport \"./ERC1155BaseContract.sol\";\r\nimport \"./interfaces/INftSchool.sol\";\r\nimport \"./interfaces/INftCertificates.sol\";\r\nimport \"./interfaces/INftIdentities.sol\";\r\n\r\n/*\r\n    Initial year: Requirements + Course Template (time available to update? --> after year end)\r\n    (Save endCurrentYear) -> Classes -> Register course -> Received Nft Scoreboard\r\n    Course end: Mint Nft complete course <-- Transfer info from Nft Scoreboard to this\r\n    Enough course: Exchange nft graduation from nft courses (payable)\r\n*/\r\ncontract NftCertificates is ERC1155BaseContract, INftCertificates {\r\n    using Counters for Counters.Counter;\r\n    uint256 constant NFT_CLASS = 3;\r\n    uint256 constant NFT_SCORE_BOARD = 4;\r\n    uint256 constant NFT_COMPLETE_COURSE = 5;\r\n    uint256 constant NFT_GRADUATION = 6;\r\n\r\n    string[] private courseURIs;\r\n\r\n    INftIdentities private immutable _nftIdentities;\r\n    INftSchool private immutable _nftSchool;\r\n\r\n    uint256 public schoolYearEnd;\r\n    uint256 public registeredStartAt;\r\n    uint256 public registeredEndAt;\r\n    uint256 public yearId;\r\n\r\n    mapping(uint256 => bool) private _usableScores;\r\n\r\n    NftScoreBoard[] private _allNftScoreBoards;\r\n    NftCompleteCourse[] private _allNftCompleteCourses;\r\n    NftGraduation[] private _allNftGraduations;\r\n    mapping(uint256 => mapping(uint256 => uint256)) _posOfTokenIdOfNftType;\r\n\r\n    mapping(address => uint256[]) private _studentOwnedCompleteCourseNfts;\r\n    mapping(address => uint256) private _studentOwnedNftGraduation;\r\n\r\n    modifier onlyOwner() {\r\n        require(_owner == msg.sender);\r\n        _;\r\n    }\r\n\r\n    modifier afterYearEnd() {\r\n        require(block.timestamp > schoolYearEnd);\r\n        _;\r\n    }\r\n\r\n    modifier canOperate(uint256 role) {\r\n        (bool isDeposited, uint256 __role) = _nftIdentities.isAbleToOperate(\r\n            msg.sender\r\n        );\r\n        require(isDeposited && role == __role);\r\n        _;\r\n    }\r\n\r\n    constructor(address nftIdentities, address nftSchool) ERC1155BaseContract(\"\") {\r\n        _nftIdentities = INftIdentities(nftIdentities);\r\n        _nftSchool = INftSchool(nftSchool);\r\n        schoolYearEnd = block.timestamp;\r\n\r\n        _usableScores[uint256(ScoreType.Midterm)] = true;\r\n        _usableScores[uint256(ScoreType.Practice)] = true;\r\n        _usableScores[uint256(ScoreType.Plus)] = true;\r\n        _usableScores[uint256(ScoreType.Final)] = true;\r\n        _usableScores[uint256(ScoreType.Other)] = true;\r\n    }\r\n\r\n    /*\r\n        Initialize requirement before any operation in the system including\r\n        - Requirement\r\n        - Course template\r\n    */\r\n\r\n    // (everyone)\r\n    function getOwnedNftCompleteCourse()\r\n        external\r\n        view\r\n        returns (NftCompleteCourse[] memory, string[] memory)\r\n    {\r\n        uint256 numberOfNftCompleteCourses = _studentOwnedCompleteCourseNfts[\r\n            msg.sender\r\n        ].length;\r\n        require(\r\n            numberOfNftCompleteCourses > 0,\r\n            \"You haven't completed any courses\"\r\n        );\r\n\r\n        NftCompleteCourse[] memory nfts = new NftCompleteCourse[](\r\n            numberOfNftCompleteCourses\r\n        );\r\n        string[] memory nftURIs = new string[](numberOfNftCompleteCourses);\r\n\r\n        for (uint256 idx = 0; idx <= numberOfNftCompleteCourses; ++idx) {\r\n            (nfts[idx], nftURIs[idx]) = getNftCompleteCourse(\r\n                _studentOwnedCompleteCourseNfts[msg.sender][idx]\r\n            );\r\n        }\r\n\r\n        return (nfts, nftURIs);\r\n    }\r\n\r\n    function getNftCompleteCourse(uint256 tokenId)\r\n        public\r\n        view\r\n        returns (NftCompleteCourse memory, string memory)\r\n    {\r\n        uint256 pos = _posOfTokenIdOfNftType[NFT_COMPLETE_COURSE][tokenId];\r\n        require(pos > 0, \"Nft does not exist\");\r\n\r\n        return (_allNftCompleteCourses[pos - 1], uri(tokenId));\r\n    }\r\n\r\n    function getOwnedNftGraduation()\r\n        external\r\n        view\r\n        returns (NftGraduation memory, string memory)\r\n    {\r\n        uint256 tokenId = _studentOwnedNftGraduation[msg.sender];\r\n\r\n        return getNftGraduation(tokenId);\r\n    }\r\n\r\n    function getNftGraduation(uint256 tokenId)\r\n        public\r\n        view\r\n        returns (NftGraduation memory, string memory)\r\n    {\r\n        uint256 pos = _posOfTokenIdOfNftType[NFT_GRADUATION][tokenId];\r\n        require(pos > 0, \"Nft does not exist\");\r\n\r\n        return (_allNftGraduations[pos - 1], uri(tokenId));\r\n    }\r\n\r\n    // (everyone)\r\n\r\n    // onlyOwner\r\n    function _checkValidScores(uint256[] memory scores)\r\n        private\r\n        view\r\n        returns (bool)\r\n    {\r\n        uint256 numberOfChecks = scores.length;\r\n        for (uint256 idx = 0; idx <= numberOfChecks; ++idx) {\r\n            if (!_usableScores[scores[idx]]) {\r\n                return false;\r\n            }\r\n        }\r\n\r\n        return true;\r\n    }\r\n\r\n    function _beforeTokenTransfer(\r\n        address operator,\r\n        address from,\r\n        address to,\r\n        uint256[] memory ids,\r\n        uint256[] memory amounts,\r\n        bytes memory data\r\n    ) internal virtual override {\r\n        super._beforeTokenTransfer(operator, from, to, ids, amounts, data);\r\n        uint256 numberOfTokens = ids.length;\r\n\r\n        if (from == address(0)) {\r\n            // mint token\r\n            for (uint256 idx = 0; idx <= numberOfTokens; ++idx) {\r\n                _ownerOfNft[ids[idx]] = to;\r\n            }\r\n        }\r\n\r\n        if (to == address(0)) {\r\n            // burn token\r\n            for (uint256 idx = 0; idx <= numberOfTokens; ++idx) {\r\n                delete _ownerOfNft[ids[idx]];\r\n            }\r\n        }\r\n    }\r\n\r\n    function _mintNftScoreBoard(\r\n        uint256 classId,\r\n        address studentAddr,\r\n        uint256[] memory requiredScore,\r\n        string memory tokenURI\r\n    ) private returns (uint256) {\r\n        uint256 tokenId = _mintToken(NFT_SCORE_BOARD, tokenURI);\r\n        _createNftScoreBoard(tokenId, classId, studentAddr, requiredScore);\r\n\r\n        return tokenId;\r\n    }\r\n\r\n    function _createNftScoreBoard(\r\n        uint256 tokenId,\r\n        uint256 classId,\r\n        address studentAddr,\r\n        uint256[] memory requiredScore\r\n    ) private {\r\n        bool classExists = _nftSchool.checkTokenOfTypeExists(tokenId, NFT_CLASS);\r\n        require(\r\n            classExists,\r\n            \"Nft requirement must be created before creating nft course template for it\"\r\n        );\r\n        NftScoreBoard memory nftScoreBoard = NftScoreBoard(\r\n            tokenId,\r\n            classId,\r\n            studentAddr,\r\n            requiredScore,\r\n            new uint256[](requiredScore.length)\r\n        );\r\n        _allNftScoreBoards.push(nftScoreBoard);\r\n        _posOfTokenIdOfNftType[NFT_SCORE_BOARD][tokenId] = _allNftScoreBoards\r\n            .length;\r\n    }\r\n\r\n    function _mintNftCompleteCourse(\r\n        uint256 credits,\r\n        uint256 avgScore,\r\n        string memory tokenURI\r\n    ) private returns (uint256) {\r\n        uint256 tokenId = _mintToken(NFT_COMPLETE_COURSE, tokenURI);\r\n        _createNftCompleteCourse(tokenId, credits, avgScore);\r\n\r\n        return tokenId;\r\n    }\r\n\r\n    function _createNftCompleteCourse(\r\n        uint256 tokenId,\r\n        uint256 credits,\r\n        uint256 avgScore\r\n    ) private {\r\n        NftCompleteCourse memory nftCompleteCourse = NftCompleteCourse(\r\n            tokenId,\r\n            credits,\r\n            avgScore\r\n        );\r\n        _allNftCompleteCourses.push(nftCompleteCourse);\r\n        _posOfTokenIdOfNftType[NFT_COMPLETE_COURSE][\r\n            tokenId\r\n        ] = _allNftCompleteCourses.length;\r\n    }\r\n\r\n    function _mintNftGraduation(string memory tokenURI)\r\n        private\r\n        returns (uint256)\r\n    {\r\n        uint256 tokenId = _mintToken(NFT_GRADUATION, tokenURI);\r\n        _createNftGraduation(tokenId);\r\n\r\n        return tokenId;\r\n    }\r\n\r\n    function _createNftGraduation(uint256 tokenId) private {\r\n        NftGraduation memory nftGraduation = NftGraduation(tokenId);\r\n        _allNftGraduations.push(nftGraduation);\r\n        _posOfTokenIdOfNftType[NFT_GRADUATION][tokenId] = _allNftGraduations\r\n            .length;\r\n    }\r\n}\r\n",
  "sourcePath": "E:\\learn\\learn-to-earn\\contracts\\NftCertificates.sol",
  "compiler": {
    "name": "solc",
    "version": "0.8.13+commit.abaa5c0e.Emscripten.clang"
  },
  "schemaVersion": "3.4.11",
  "updatedAt": "2023-03-06T23:34:50.067Z",
  "devdoc": {
    "kind": "dev",
    "methods": {
      "balanceOf(address,uint256)": {
        "details": "See {IERC1155-balanceOf}. Requirements: - `account` cannot be the zero address."
      },
      "balanceOfBatch(address[],uint256[])": {
        "details": "See {IERC1155-balanceOfBatch}. Requirements: - `accounts` and `ids` must have the same length."
      },
      "isApprovedForAll(address,address)": {
        "details": "See {IERC1155-isApprovedForAll}."
      },
      "safeBatchTransferFrom(address,address,uint256[],uint256[],bytes)": {
        "details": "See {IERC1155-safeBatchTransferFrom}."
      },
      "safeTransferFrom(address,address,uint256,uint256,bytes)": {
        "details": "See {IERC1155-safeTransferFrom}."
      },
      "setApprovalForAll(address,bool)": {
        "details": "See {IERC1155-setApprovalForAll}."
      },
      "supportsInterface(bytes4)": {
        "details": "See {IERC165-supportsInterface}."
      },
      "uri(uint256)": {
        "details": "See {IERC1155MetadataURI-uri}. This implementation returns the concatenation of the `_baseURI` and the token-specific uri if the latter is set This enables the following behaviors: - if `_tokenURIs[tokenId]` is set, then the result is the concatenation   of `_baseURI` and `_tokenURIs[tokenId]` (keep in mind that `_baseURI`   is empty per default); - if `_tokenURIs[tokenId]` is NOT set then we fallback to `super.uri()`   which in most cases will contain `ERC1155._uri`; - if `_tokenURIs[tokenId]` is NOT set, and if the parents do not have a   uri value set, then the result is empty."
      }
    },
    "version": 1
  },
  "userdoc": {
    "kind": "user",
    "methods": {},
    "version": 1
  }
}