{
  "contractName": "NftCourse",
  "abi": [
    {
      "inputs": [
        {
          "internalType": "contract School",
          "name": "schoolContract",
          "type": "address"
        }
      ],
      "stateMutability": "nonpayable",
      "type": "constructor"
    },
    {
      "anonymous": false,
      "inputs": [
        {
          "indexed": true,
          "internalType": "address",
          "name": "owner",
          "type": "address"
        },
        {
          "indexed": true,
          "internalType": "address",
          "name": "approved",
          "type": "address"
        },
        {
          "indexed": true,
          "internalType": "uint256",
          "name": "tokenId",
          "type": "uint256"
        }
      ],
      "name": "Approval",
      "type": "event"
    },
    {
      "anonymous": false,
      "inputs": [
        {
          "indexed": true,
          "internalType": "address",
          "name": "owner",
          "type": "address"
        },
        {
          "indexed": true,
          "internalType": "address",
          "name": "operator",
          "type": "address"
        },
        {
          "indexed": false,
          "internalType": "bool",
          "name": "approved",
          "type": "bool"
        }
      ],
      "name": "ApprovalForAll",
      "type": "event"
    },
    {
      "anonymous": false,
      "inputs": [
        {
          "indexed": true,
          "internalType": "address",
          "name": "previousOwner",
          "type": "address"
        },
        {
          "indexed": true,
          "internalType": "address",
          "name": "newOwner",
          "type": "address"
        }
      ],
      "name": "OwnershipTransferred",
      "type": "event"
    },
    {
      "anonymous": false,
      "inputs": [
        {
          "indexed": true,
          "internalType": "address",
          "name": "from",
          "type": "address"
        },
        {
          "indexed": true,
          "internalType": "address",
          "name": "to",
          "type": "address"
        },
        {
          "indexed": true,
          "internalType": "uint256",
          "name": "tokenId",
          "type": "uint256"
        }
      ],
      "name": "Transfer",
      "type": "event"
    },
    {
      "inputs": [
        {
          "internalType": "address",
          "name": "to",
          "type": "address"
        },
        {
          "internalType": "uint256",
          "name": "tokenId",
          "type": "uint256"
        }
      ],
      "name": "approve",
      "outputs": [],
      "stateMutability": "nonpayable",
      "type": "function"
    },
    {
      "inputs": [
        {
          "internalType": "address",
          "name": "owner",
          "type": "address"
        }
      ],
      "name": "balanceOf",
      "outputs": [
        {
          "internalType": "uint256",
          "name": "",
          "type": "uint256"
        }
      ],
      "stateMutability": "view",
      "type": "function",
      "constant": true
    },
    {
      "inputs": [
        {
          "internalType": "uint256",
          "name": "tokenId",
          "type": "uint256"
        }
      ],
      "name": "getApproved",
      "outputs": [
        {
          "internalType": "address",
          "name": "",
          "type": "address"
        }
      ],
      "stateMutability": "view",
      "type": "function",
      "constant": true
    },
    {
      "inputs": [
        {
          "internalType": "address",
          "name": "owner",
          "type": "address"
        },
        {
          "internalType": "address",
          "name": "operator",
          "type": "address"
        }
      ],
      "name": "isApprovedForAll",
      "outputs": [
        {
          "internalType": "bool",
          "name": "",
          "type": "bool"
        }
      ],
      "stateMutability": "view",
      "type": "function",
      "constant": true
    },
    {
      "inputs": [],
      "name": "name",
      "outputs": [
        {
          "internalType": "string",
          "name": "",
          "type": "string"
        }
      ],
      "stateMutability": "view",
      "type": "function",
      "constant": true
    },
    {
      "inputs": [],
      "name": "owner",
      "outputs": [
        {
          "internalType": "address",
          "name": "",
          "type": "address"
        }
      ],
      "stateMutability": "view",
      "type": "function",
      "constant": true
    },
    {
      "inputs": [
        {
          "internalType": "uint256",
          "name": "tokenId",
          "type": "uint256"
        }
      ],
      "name": "ownerOf",
      "outputs": [
        {
          "internalType": "address",
          "name": "",
          "type": "address"
        }
      ],
      "stateMutability": "view",
      "type": "function",
      "constant": true
    },
    {
      "inputs": [],
      "name": "renounceOwnership",
      "outputs": [],
      "stateMutability": "nonpayable",
      "type": "function"
    },
    {
      "inputs": [
        {
          "internalType": "address",
          "name": "from",
          "type": "address"
        },
        {
          "internalType": "address",
          "name": "to",
          "type": "address"
        },
        {
          "internalType": "uint256",
          "name": "tokenId",
          "type": "uint256"
        }
      ],
      "name": "safeTransferFrom",
      "outputs": [],
      "stateMutability": "nonpayable",
      "type": "function"
    },
    {
      "inputs": [
        {
          "internalType": "address",
          "name": "from",
          "type": "address"
        },
        {
          "internalType": "address",
          "name": "to",
          "type": "address"
        },
        {
          "internalType": "uint256",
          "name": "tokenId",
          "type": "uint256"
        },
        {
          "internalType": "bytes",
          "name": "data",
          "type": "bytes"
        }
      ],
      "name": "safeTransferFrom",
      "outputs": [],
      "stateMutability": "nonpayable",
      "type": "function"
    },
    {
      "inputs": [
        {
          "internalType": "address",
          "name": "operator",
          "type": "address"
        },
        {
          "internalType": "bool",
          "name": "approved",
          "type": "bool"
        }
      ],
      "name": "setApprovalForAll",
      "outputs": [],
      "stateMutability": "nonpayable",
      "type": "function"
    },
    {
      "inputs": [
        {
          "internalType": "bytes4",
          "name": "interfaceId",
          "type": "bytes4"
        }
      ],
      "name": "supportsInterface",
      "outputs": [
        {
          "internalType": "bool",
          "name": "",
          "type": "bool"
        }
      ],
      "stateMutability": "view",
      "type": "function",
      "constant": true
    },
    {
      "inputs": [],
      "name": "symbol",
      "outputs": [
        {
          "internalType": "string",
          "name": "",
          "type": "string"
        }
      ],
      "stateMutability": "view",
      "type": "function",
      "constant": true
    },
    {
      "inputs": [
        {
          "internalType": "uint256",
          "name": "tokenId",
          "type": "uint256"
        }
      ],
      "name": "tokenURI",
      "outputs": [
        {
          "internalType": "string",
          "name": "",
          "type": "string"
        }
      ],
      "stateMutability": "view",
      "type": "function",
      "constant": true
    },
    {
      "inputs": [
        {
          "internalType": "address",
          "name": "from",
          "type": "address"
        },
        {
          "internalType": "address",
          "name": "to",
          "type": "address"
        },
        {
          "internalType": "uint256",
          "name": "tokenId",
          "type": "uint256"
        }
      ],
      "name": "transferFrom",
      "outputs": [],
      "stateMutability": "nonpayable",
      "type": "function"
    },
    {
      "inputs": [
        {
          "internalType": "address",
          "name": "newOwner",
          "type": "address"
        }
      ],
      "name": "transferOwnership",
      "outputs": [],
      "stateMutability": "nonpayable",
      "type": "function"
    },
    {
      "inputs": [
        {
          "internalType": "uint256",
          "name": "tokenId",
          "type": "uint256"
        }
      ],
      "name": "getNftCourse",
      "outputs": [
        {
          "components": [
            {
              "internalType": "uint256",
              "name": "tokenId",
              "type": "uint256"
            },
            {
              "internalType": "string",
              "name": "studentId",
              "type": "string"
            },
            {
              "internalType": "uint256",
              "name": "courseId",
              "type": "uint256"
            }
          ],
          "internalType": "struct NftCourse.NftItem",
          "name": "",
          "type": "tuple"
        }
      ],
      "stateMutability": "view",
      "type": "function",
      "constant": true
    },
    {
      "inputs": [
        {
          "internalType": "string",
          "name": "studentId",
          "type": "string"
        }
      ],
      "name": "getNftCourses",
      "outputs": [
        {
          "components": [
            {
              "internalType": "uint256",
              "name": "tokenId",
              "type": "uint256"
            },
            {
              "internalType": "string",
              "name": "studentId",
              "type": "string"
            },
            {
              "internalType": "uint256",
              "name": "courseId",
              "type": "uint256"
            }
          ],
          "internalType": "struct NftCourse.NftItem[]",
          "name": "",
          "type": "tuple[]"
        }
      ],
      "stateMutability": "view",
      "type": "function",
      "constant": true
    },
    {
      "inputs": [
        {
          "internalType": "string",
          "name": "studentId",
          "type": "string"
        }
      ],
      "name": "getNumberOfNftCourses",
      "outputs": [
        {
          "internalType": "uint256",
          "name": "",
          "type": "uint256"
        }
      ],
      "stateMutability": "view",
      "type": "function",
      "constant": true
    },
    {
      "inputs": [
        {
          "internalType": "string",
          "name": "tokenURI",
          "type": "string"
        },
        {
          "internalType": "string",
          "name": "studentId",
          "type": "string"
        },
        {
          "internalType": "uint256",
          "name": "courseId",
          "type": "uint256"
        }
      ],
      "name": "mintToken",
      "outputs": [
        {
          "internalType": "uint256",
          "name": "",
          "type": "uint256"
        }
      ],
      "stateMutability": "nonpayable",
      "type": "function"
    },
    {
      "inputs": [
        {
          "internalType": "string",
          "name": "studentId",
          "type": "string"
        },
        {
          "internalType": "uint256[]",
          "name": "tokenIds",
          "type": "uint256[]"
        }
      ],
      "name": "validateNftGradution",
      "outputs": [
        {
          "internalType": "bool",
          "name": "",
          "type": "bool"
        }
      ],
      "stateMutability": "nonpayable",
      "type": "function"
    }
  ],
  "bytecode": "0x60a06040523480156200001157600080fd5b50604051620049cc380380620049cc83398181016040528101906200003791906200032e565b6040518060400160405280600981526020017f436f757273654e465400000000000000000000000000000000000000000000008152506040518060400160405280600481526020017f434e4654000000000000000000000000000000000000000000000000000000008152508160009080519060200190620000bb92919062000200565b508060019080519060200190620000d492919062000200565b505050620000f7620000eb6200013260201b60201c565b6200013a60201b60201c565b8073ffffffffffffffffffffffffffffffffffffffff1660808173ffffffffffffffffffffffffffffffffffffffff168152505050620003c4565b600033905090565b6000600760009054906101000a900473ffffffffffffffffffffffffffffffffffffffff16905081600760006101000a81548173ffffffffffffffffffffffffffffffffffffffff021916908373ffffffffffffffffffffffffffffffffffffffff1602179055508173ffffffffffffffffffffffffffffffffffffffff168173ffffffffffffffffffffffffffffffffffffffff167f8be0079c531659141344cd1fd0a4f28419497f9722a3daafe3b4186f6b6457e060405160405180910390a35050565b8280546200020e906200038f565b90600052602060002090601f0160209004810192826200023257600085556200027e565b82601f106200024d57805160ff19168380011785556200027e565b828001600101855582156200027e579182015b828111156200027d57825182559160200191906001019062000260565b5b5090506200028d919062000291565b5090565b5b80821115620002ac57600081600090555060010162000292565b5090565b600080fd5b600073ffffffffffffffffffffffffffffffffffffffff82169050919050565b6000620002e282620002b5565b9050919050565b6000620002f682620002d5565b9050919050565b6200030881620002e9565b81146200031457600080fd5b50565b6000815190506200032881620002fd565b92915050565b600060208284031215620003475762000346620002b0565b5b6000620003578482850162000317565b91505092915050565b7f4e487b7100000000000000000000000000000000000000000000000000000000600052602260045260246000fd5b60006002820490506001821680620003a857607f821691505b602082108103620003be57620003bd62000360565b5b50919050565b6080516145e5620003e76000396000818161046201526114cd01526145e56000f3fe608060405234801561001057600080fd5b50600436106101365760003560e01c8063715018a6116100b8578063b88d4fde1161007c578063b88d4fde1461035f578063c87b56dd1461037b578063e0b85828146103ab578063e985e9c5146103db578063f06f8bf91461040b578063f2fde38b1461043b57610136565b8063715018a6146102cd5780638da5cb5b146102d75780638e35f3f1146102f557806395d89b4114610325578063a22cb4651461034357610136565b8063095ea7b3116100ff578063095ea7b31461021957806323b872dd1461023557806342842e0e146102515780636352211e1461026d57806370a082311461029d57610136565b80627938b51461013b57806301ffc9a71461016b57806306fdde031461019b57806307e95810146101b9578063081812fc146101e9575b600080fd5b61015560048036038101906101509190612db0565b610457565b6040516101629190612e43565b60405180910390f35b61018560048036038101906101809190612eb6565b610792565b6040516101929190612e43565b60405180910390f35b6101a3610874565b6040516101b09190612f6b565b60405180910390f35b6101d360048036038101906101ce9190612f8d565b610906565b6040516101e09190613027565b60405180910390f35b61020360048036038101906101fe9190613042565b610b63565b60405161021091906130b0565b60405180910390f35b610233600480360381019061022e91906130f7565b610ba9565b005b61024f600480360381019061024a9190613137565b610cc0565b005b61026b60048036038101906102669190613137565b610d20565b005b61028760048036038101906102829190613042565b610d40565b60405161029491906130b0565b60405180910390f35b6102b760048036038101906102b2919061318a565b610dc6565b6040516102c49190613027565b60405180910390f35b6102d5610e7d565b005b6102df610e91565b6040516102ec91906130b0565b60405180910390f35b61030f600480360381019061030a9190613042565b610ebb565b60405161031c9190613260565b60405180910390f35b61032d610fb6565b60405161033a9190612f6b565b60405180910390f35b61035d600480360381019061035891906132ae565b611048565b005b6103796004803603810190610374919061338f565b61105e565b005b61039560048036038101906103909190613042565b6110c0565b6040516103a29190612f6b565b60405180910390f35b6103c560048036038101906103c09190613412565b6111d2565b6040516103d29190613027565b60405180910390f35b6103f560048036038101906103f0919061345b565b611254565b6040516104029190612e43565b60405180910390f35b61042560048036038101906104209190613412565b6112e8565b60405161043291906135ad565b60405180910390f35b6104556004803603810190610450919061318a565b611422565b005b6000808251905060007f000000000000000000000000000000000000000000000000000000000000000073ffffffffffffffffffffffffffffffffffffffff1663ae23977a6040518163ffffffff1660e01b8152600401600060405180830381865afa1580156104cb573d6000803e3d6000fd5b505050506040513d6000823e3d601f19601f820116820180604052508101906104f49190613701565b905060008151905060005b8181101561057157600083828151811061051c5761051b61374a565b5b602002602001015190506000600f8960405161053891906137b5565b908152602001604051809103902060008360000151815260200190815260200160002081905550508061056a906137fb565b90506104ff565b5060005b838110156106f95760006105a28783815181106105955761059461374a565b5b6020026020010151610ebb565b905060006105b382604001516114a5565b90506010896040516105c591906137b5565b90815260200160405180910390208160a001516040516105e591906137b5565b908152602001604051809103902060009054906101000a900460ff1615610641576040517f08c379a00000000000000000000000000000000000000000000000000000000081526004016106389061388f565b60405180910390fd5b8060400151600f8a60405161065691906137b5565b9081526020016040518091039020600083608001518152602001908152602001600020600082825461068891906138af565b92505081905550600160108a6040516106a191906137b5565b90815260200160405180910390208260a001516040516106c191906137b5565b908152602001604051809103902060006101000a81548160ff0219169083151502179055505050806106f2906137fb565b9050610575565b5060005b8181101561078357600083828151811061071a5761071961374a565b5b602002602001015190508060200151600f8960405161073991906137b5565b90815260200160405180910390206000836000015181526020019081526020016000205410156107715760009550505050505061078c565b508061077c906137fb565b90506106fd565b50600193505050505b92915050565b60007f80ac58cd000000000000000000000000000000000000000000000000000000007bffffffffffffffffffffffffffffffffffffffffffffffffffffffff1916827bffffffffffffffffffffffffffffffffffffffffffffffffffffffff1916148061085d57507f5b5e139f000000000000000000000000000000000000000000000000000000007bffffffffffffffffffffffffffffffffffffffffffffffffffffffff1916827bffffffffffffffffffffffffffffffffffffffffffffffffffffffff1916145b8061086d575061086c826117ad565b5b9050919050565b60606000805461088390613934565b80601f01602080910402602001604051908101604052809291908181526020018280546108af90613934565b80156108fc5780601f106108d1576101008083540402835291602001916108fc565b820191906000526020600020905b8154815290600101906020018083116108df57829003601f168201915b5050505050905090565b6000816000610914826114a5565b90503373ffffffffffffffffffffffffffffffffffffffff16816020015173ffffffffffffffffffffffffffffffffffffffff1614610988576040517f08c379a000000000000000000000000000000000000000000000000000000000815260040161097f906139b1565b60405180910390fd5b600d8660405161099891906137b5565b908152602001604051809103902060009054906101000a900460ff16156109f4576040517f08c379a00000000000000000000000000000000000000000000000000000000081526004016109eb90613a1d565b60405180910390fd5b600b85604051610a0491906137b5565b9081526020016040518091039020600085815260200190815260200160002060009054906101000a900460ff1615610a71576040517f08c379a0000000000000000000000000000000000000000000000000000000008152600401610a6890613a89565b60405180910390fd5b610a7a84611817565b15610aba576040517f08c379a0000000000000000000000000000000000000000000000000000000008152600401610ab190613af5565b60405180910390fd5b610ac46008611839565b6001600e60008681526020019081526020016000206003016000828254610aeb9190613b15565b925050819055506000610afe600861184f565b9050610b0a338261185d565b610b14818861187b565b610b1f8187876118ef565b6001600d88604051610b3191906137b5565b908152602001604051809103902060006101000a81548160ff0219169083151502179055508093505050509392505050565b6000610b6e82611a1d565b6004600083815260200190815260200160002060009054906101000a900473ffffffffffffffffffffffffffffffffffffffff169050919050565b6000610bb482610d40565b90508073ffffffffffffffffffffffffffffffffffffffff168373ffffffffffffffffffffffffffffffffffffffff1603610c24576040517f08c379a0000000000000000000000000000000000000000000000000000000008152600401610c1b90613bbb565b60405180910390fd5b8073ffffffffffffffffffffffffffffffffffffffff16610c43611a68565b73ffffffffffffffffffffffffffffffffffffffff161480610c725750610c7181610c6c611a68565b611254565b5b610cb1576040517f08c379a0000000000000000000000000000000000000000000000000000000008152600401610ca890613c4d565b60405180910390fd5b610cbb8383611a70565b505050565b610cd1610ccb611a68565b82611b29565b610d10576040517f08c379a0000000000000000000000000000000000000000000000000000000008152600401610d0790613cdf565b60405180910390fd5b610d1b838383611bbe565b505050565b610d3b8383836040518060200160405280600081525061105e565b505050565b600080610d4c83611eb7565b9050600073ffffffffffffffffffffffffffffffffffffffff168173ffffffffffffffffffffffffffffffffffffffff1603610dbd576040517f08c379a0000000000000000000000000000000000000000000000000000000008152600401610db490613d4b565b60405180910390fd5b80915050919050565b60008073ffffffffffffffffffffffffffffffffffffffff168273ffffffffffffffffffffffffffffffffffffffff1603610e36576040517f08c379a0000000000000000000000000000000000000000000000000000000008152600401610e2d90613ddd565b60405180910390fd5b600360008373ffffffffffffffffffffffffffffffffffffffff1673ffffffffffffffffffffffffffffffffffffffff168152602001908152602001600020549050919050565b610e85611ef4565b610e8f6000611f72565b565b6000600760009054906101000a900473ffffffffffffffffffffffffffffffffffffffff16905090565b610ec3612a2f565b6000600a600084815260200190815260200160002054905060098181548110610eef57610eee61374a565b5b906000526020600020906003020160405180606001604052908160008201548152602001600182018054610f2290613934565b80601f0160208091040260200160405190810160405280929190818152602001828054610f4e90613934565b8015610f9b5780601f10610f7057610100808354040283529160200191610f9b565b820191906000526020600020905b815481529060010190602001808311610f7e57829003601f168201915b50505050508152602001600282015481525050915050919050565b606060018054610fc590613934565b80601f0160208091040260200160405190810160405280929190818152602001828054610ff190613934565b801561103e5780601f106110135761010080835404028352916020019161103e565b820191906000526020600020905b81548152906001019060200180831161102157829003601f168201915b5050505050905090565b61105a611053611a68565b8383612038565b5050565b61106f611069611a68565b83611b29565b6110ae576040517f08c379a00000000000000000000000000000000000000000000000000000000081526004016110a590613cdf565b60405180910390fd5b6110ba848484846121a4565b50505050565b60606110cb82611a1d565b60006006600084815260200190815260200160002080546110eb90613934565b80601f016020809104026020016040519081016040528092919081815260200182805461111790613934565b80156111645780601f1061113957610100808354040283529160200191611164565b820191906000526020600020905b81548152906001019060200180831161114757829003601f168201915b505050505090506000611175612200565b9050600081510361118a5781925050506111cd565b6000825111156111bf5780826040516020016111a7929190613dfd565b604051602081830303815290604052925050506111cd565b6111c884612217565b925050505b919050565b600080600c836040516111e591906137b5565b908152602001604051809103902080548060200260200160405190810160405280929190818152602001828054801561123d57602002820191906000526020600020905b815481526020019060010190808311611229575b505050505090506000815190508092505050919050565b6000600560008473ffffffffffffffffffffffffffffffffffffffff1673ffffffffffffffffffffffffffffffffffffffff16815260200190815260200160002060008373ffffffffffffffffffffffffffffffffffffffff1673ffffffffffffffffffffffffffffffffffffffff16815260200190815260200160002060009054906101000a900460ff16905092915050565b60606000600c836040516112fc91906137b5565b908152602001604051809103902080548060200260200160405190810160405280929190818152602001828054801561135457602002820191906000526020600020905b815481526020019060010190808311611340575b5050505050905060008151905060008167ffffffffffffffff81111561137d5761137c612b87565b5b6040519080825280602002602001820160405280156113b657816020015b6113a3612a2f565b81526020019060019003908161139b5790505b50905060005b82811015611416576113e78482815181106113da576113d961374a565b5b6020026020010151610ebb565b8282815181106113fa576113f961374a565b5b60200260200101819052508061140f906137fb565b90506113bc565b50809350505050919050565b61142a611ef4565b600073ffffffffffffffffffffffffffffffffffffffff168173ffffffffffffffffffffffffffffffffffffffff1603611499576040517f08c379a000000000000000000000000000000000000000000000000000000000815260040161149090613e93565b60405180910390fd5b6114a281611f72565b50565b6114ad612a50565b6000600e6000848152602001908152602001600020600001540361163d577f000000000000000000000000000000000000000000000000000000000000000073ffffffffffffffffffffffffffffffffffffffff16630b91e28d836040518263ffffffff1660e01b81526004016115249190613027565b600060405180830381865afa158015611541573d6000803e3d6000fd5b505050506040513d6000823e3d601f19601f8201168201806040525081019061156a919061402d565b600e60008481526020019081526020016000206000820151816000015560208201518160010160006101000a81548173ffffffffffffffffffffffffffffffffffffffff021916908373ffffffffffffffffffffffffffffffffffffffff16021790555060408201518160020155606082015181600301556080820151816004015560a0820151816005019080519060200190611608929190612ab5565b5060c08201518160060160006101000a81548160ff0219169083600181111561163457611633614076565b5b02179055509050505b600e60008381526020019081526020016000206040518060e0016040529081600082015481526020016001820160009054906101000a900473ffffffffffffffffffffffffffffffffffffffff1673ffffffffffffffffffffffffffffffffffffffff1673ffffffffffffffffffffffffffffffffffffffff1681526020016002820154815260200160038201548152602001600482015481526020016005820180546116e990613934565b80601f016020809104026020016040519081016040528092919081815260200182805461171590613934565b80156117625780601f1061173757610100808354040283529160200191611762565b820191906000526020600020905b81548152906001019060200180831161174557829003601f168201915b505050505081526020016006820160009054906101000a900460ff1660018111156117905761178f614076565b5b60018111156117a2576117a1614076565b5b815250509050919050565b60007f01ffc9a7000000000000000000000000000000000000000000000000000000007bffffffffffffffffffffffffffffffffffffffffffffffffffffffff1916827bffffffffffffffffffffffffffffffffffffffffffffffffffffffff1916149050919050565b600080600e600084815260200190815260200160002060030154149050919050565b6001816000016000828254019250508190555050565b600081600001549050919050565b61187782826040518060200160405280600081525061227f565b5050565b611884826122da565b6118c3576040517f08c379a00000000000000000000000000000000000000000000000000000000081526004016118ba90614117565b60405180910390fd5b806006600084815260200190815260200160002090805190602001906118ea929190612ab5565b505050565b600060405180606001604052808581526020018481526020018381525090506009819080600181540180825580915050600190039060005260206000209060030201600090919091909150600082015181600001556020820151816001019080519060200190611960929190612ab5565b50604082015181600201555050600980549050600a600086815260200190815260200160002081905550600c8360405161199a91906137b5565b90815260200160405180910390208490806001815401808255809150506001900390600052602060002001600090919091909150556001600b846040516119e191906137b5565b9081526020016040518091039020600084815260200190815260200160002060006101000a81548160ff02191690831515021790555050505050565b611a26816122da565b611a65576040517f08c379a0000000000000000000000000000000000000000000000000000000008152600401611a5c90613d4b565b60405180910390fd5b50565b600033905090565b816004600083815260200190815260200160002060006101000a81548173ffffffffffffffffffffffffffffffffffffffff021916908373ffffffffffffffffffffffffffffffffffffffff160217905550808273ffffffffffffffffffffffffffffffffffffffff16611ae383610d40565b73ffffffffffffffffffffffffffffffffffffffff167f8c5be1e5ebec7d5bd14f71427d1e84f3dd0314c0f7b2291e5b200ac8c7c3b92560405160405180910390a45050565b600080611b3583610d40565b90508073ffffffffffffffffffffffffffffffffffffffff168473ffffffffffffffffffffffffffffffffffffffff161480611b775750611b768185611254565b5b80611bb557508373ffffffffffffffffffffffffffffffffffffffff16611b9d84610b63565b73ffffffffffffffffffffffffffffffffffffffff16145b91505092915050565b8273ffffffffffffffffffffffffffffffffffffffff16611bde82610d40565b73ffffffffffffffffffffffffffffffffffffffff1614611c34576040517f08c379a0000000000000000000000000000000000000000000000000000000008152600401611c2b906141a9565b60405180910390fd5b600073ffffffffffffffffffffffffffffffffffffffff168273ffffffffffffffffffffffffffffffffffffffff1603611ca3576040517f08c379a0000000000000000000000000000000000000000000000000000000008152600401611c9a9061423b565b60405180910390fd5b611cb0838383600161231b565b8273ffffffffffffffffffffffffffffffffffffffff16611cd082610d40565b73ffffffffffffffffffffffffffffffffffffffff1614611d26576040517f08c379a0000000000000000000000000000000000000000000000000000000008152600401611d1d906141a9565b60405180910390fd5b6004600082815260200190815260200160002060006101000a81549073ffffffffffffffffffffffffffffffffffffffff02191690556001600360008573ffffffffffffffffffffffffffffffffffffffff1673ffffffffffffffffffffffffffffffffffffffff168152602001908152602001600020600082825403925050819055506001600360008473ffffffffffffffffffffffffffffffffffffffff1673ffffffffffffffffffffffffffffffffffffffff16815260200190815260200160002060008282540192505081905550816002600083815260200190815260200160002060006101000a81548173ffffffffffffffffffffffffffffffffffffffff021916908373ffffffffffffffffffffffffffffffffffffffff160217905550808273ffffffffffffffffffffffffffffffffffffffff168473ffffffffffffffffffffffffffffffffffffffff167fddf252ad1be2c89b69c2b068fc378daa952ba7f163c4a11628f55a4df523b3ef60405160405180910390a4611eb28383836001612441565b505050565b60006002600083815260200190815260200160002060009054906101000a900473ffffffffffffffffffffffffffffffffffffffff169050919050565b611efc611a68565b73ffffffffffffffffffffffffffffffffffffffff16611f1a610e91565b73ffffffffffffffffffffffffffffffffffffffff1614611f70576040517f08c379a0000000000000000000000000000000000000000000000000000000008152600401611f67906142a7565b60405180910390fd5b565b6000600760009054906101000a900473ffffffffffffffffffffffffffffffffffffffff16905081600760006101000a81548173ffffffffffffffffffffffffffffffffffffffff021916908373ffffffffffffffffffffffffffffffffffffffff1602179055508173ffffffffffffffffffffffffffffffffffffffff168173ffffffffffffffffffffffffffffffffffffffff167f8be0079c531659141344cd1fd0a4f28419497f9722a3daafe3b4186f6b6457e060405160405180910390a35050565b8173ffffffffffffffffffffffffffffffffffffffff168373ffffffffffffffffffffffffffffffffffffffff16036120a6576040517f08c379a000000000000000000000000000000000000000000000000000000000815260040161209d90614313565b60405180910390fd5b80600560008573ffffffffffffffffffffffffffffffffffffffff1673ffffffffffffffffffffffffffffffffffffffff16815260200190815260200160002060008473ffffffffffffffffffffffffffffffffffffffff1673ffffffffffffffffffffffffffffffffffffffff16815260200190815260200160002060006101000a81548160ff0219169083151502179055508173ffffffffffffffffffffffffffffffffffffffff168373ffffffffffffffffffffffffffffffffffffffff167f17307eab39ab6107e8899845ad3d59bd9653f200f220920489ca2b5937696c31836040516121979190612e43565b60405180910390a3505050565b6121af848484611bbe565b6121bb84848484612447565b6121fa576040517f08c379a00000000000000000000000000000000000000000000000000000000081526004016121f1906143a5565b60405180910390fd5b50505050565b606060405180602001604052806000815250905090565b606061222282611a1d565b600061222c612200565b9050600081511161224c5760405180602001604052806000815250612277565b80612256846125ce565b604051602001612267929190613dfd565b6040516020818303038152906040525b915050919050565b612289838361269c565b6122966000848484612447565b6122d5576040517f08c379a00000000000000000000000000000000000000000000000000000000081526004016122cc906143a5565b60405180910390fd5b505050565b60008073ffffffffffffffffffffffffffffffffffffffff166122fc83611eb7565b73ffffffffffffffffffffffffffffffffffffffff1614159050919050565b600181111561243b57600073ffffffffffffffffffffffffffffffffffffffff168473ffffffffffffffffffffffffffffffffffffffff16146123af5780600360008673ffffffffffffffffffffffffffffffffffffffff1673ffffffffffffffffffffffffffffffffffffffff16815260200190815260200160002060008282546123a79190613b15565b925050819055505b600073ffffffffffffffffffffffffffffffffffffffff168373ffffffffffffffffffffffffffffffffffffffff161461243a5780600360008573ffffffffffffffffffffffffffffffffffffffff1673ffffffffffffffffffffffffffffffffffffffff168152602001908152602001600020600082825461243291906138af565b925050819055505b5b50505050565b50505050565b60006124688473ffffffffffffffffffffffffffffffffffffffff166128b9565b156125c1578373ffffffffffffffffffffffffffffffffffffffff1663150b7a02612491611a68565b8786866040518563ffffffff1660e01b81526004016124b3949392919061441a565b6020604051808303816000875af19250505080156124ef57506040513d601f19601f820116820180604052508101906124ec919061447b565b60015b612571573d806000811461251f576040519150601f19603f3d011682016040523d82523d6000602084013e612524565b606091505b506000815103612569576040517f08c379a0000000000000000000000000000000000000000000000000000000008152600401612560906143a5565b60405180910390fd5b805181602001fd5b63150b7a0260e01b7bffffffffffffffffffffffffffffffffffffffffffffffffffffffff1916817bffffffffffffffffffffffffffffffffffffffffffffffffffffffff1916149150506125c6565b600190505b949350505050565b6060600060016125dd846128dc565b01905060008167ffffffffffffffff8111156125fc576125fb612b87565b5b6040519080825280601f01601f19166020018201604052801561262e5781602001600182028036833780820191505090505b509050600082602001820190505b600115612691578080600190039150507f3031323334353637383961626364656600000000000000000000000000000000600a86061a8153600a8581612685576126846144a8565b5b0494506000850361263c575b819350505050919050565b600073ffffffffffffffffffffffffffffffffffffffff168273ffffffffffffffffffffffffffffffffffffffff160361270b576040517f08c379a000000000000000000000000000000000000000000000000000000000815260040161270290614523565b60405180910390fd5b612714816122da565b15612754576040517f08c379a000000000000000000000000000000000000000000000000000000000815260040161274b9061458f565b60405180910390fd5b61276260008383600161231b565b61276b816122da565b156127ab576040517f08c379a00000000000000000000000000000000000000000000000000000000081526004016127a29061458f565b60405180910390fd5b6001600360008473ffffffffffffffffffffffffffffffffffffffff1673ffffffffffffffffffffffffffffffffffffffff16815260200190815260200160002060008282540192505081905550816002600083815260200190815260200160002060006101000a81548173ffffffffffffffffffffffffffffffffffffffff021916908373ffffffffffffffffffffffffffffffffffffffff160217905550808273ffffffffffffffffffffffffffffffffffffffff16600073ffffffffffffffffffffffffffffffffffffffff167fddf252ad1be2c89b69c2b068fc378daa952ba7f163c4a11628f55a4df523b3ef60405160405180910390a46128b5600083836001612441565b5050565b6000808273ffffffffffffffffffffffffffffffffffffffff163b119050919050565b600080600090507a184f03e93ff9f4daa797ed6e38ed64bf6a1f010000000000000000831061293a577a184f03e93ff9f4daa797ed6e38ed64bf6a1f01000000000000000083816129305761292f6144a8565b5b0492506040810190505b6d04ee2d6d415b85acef81000000008310612977576d04ee2d6d415b85acef8100000000838161296d5761296c6144a8565b5b0492506020810190505b662386f26fc1000083106129a657662386f26fc10000838161299c5761299b6144a8565b5b0492506010810190505b6305f5e10083106129cf576305f5e10083816129c5576129c46144a8565b5b0492506008810190505b61271083106129f45761271083816129ea576129e96144a8565b5b0492506004810190505b60648310612a175760648381612a0d57612a0c6144a8565b5b0492506002810190505b600a8310612a26576001810190505b80915050919050565b60405180606001604052806000815260200160608152602001600081525090565b6040518060e0016040528060008152602001600073ffffffffffffffffffffffffffffffffffffffff1681526020016000815260200160008152602001600081526020016060815260200160006001811115612aaf57612aae614076565b5b81525090565b828054612ac190613934565b90600052602060002090601f016020900481019282612ae35760008555612b2a565b82601f10612afc57805160ff1916838001178555612b2a565b82800160010185558215612b2a579182015b82811115612b29578251825591602001919060010190612b0e565b5b509050612b379190612b3b565b5090565b5b80821115612b54576000816000905550600101612b3c565b5090565b6000604051905090565b600080fd5b600080fd5b600080fd5b600080fd5b6000601f19601f8301169050919050565b7f4e487b7100000000000000000000000000000000000000000000000000000000600052604160045260246000fd5b612bbf82612b76565b810181811067ffffffffffffffff82111715612bde57612bdd612b87565b5b80604052505050565b6000612bf1612b58565b9050612bfd8282612bb6565b919050565b600067ffffffffffffffff821115612c1d57612c1c612b87565b5b612c2682612b76565b9050602081019050919050565b82818337600083830152505050565b6000612c55612c5084612c02565b612be7565b905082815260208101848484011115612c7157612c70612b71565b5b612c7c848285612c33565b509392505050565b600082601f830112612c9957612c98612b6c565b5b8135612ca9848260208601612c42565b91505092915050565b600067ffffffffffffffff821115612ccd57612ccc612b87565b5b602082029050602081019050919050565b600080fd5b6000819050919050565b612cf681612ce3565b8114612d0157600080fd5b50565b600081359050612d1381612ced565b92915050565b6000612d2c612d2784612cb2565b612be7565b90508083825260208201905060208402830185811115612d4f57612d4e612cde565b5b835b81811015612d785780612d648882612d04565b845260208401935050602081019050612d51565b5050509392505050565b600082601f830112612d9757612d96612b6c565b5b8135612da7848260208601612d19565b91505092915050565b60008060408385031215612dc757612dc6612b62565b5b600083013567ffffffffffffffff811115612de557612de4612b67565b5b612df185828601612c84565b925050602083013567ffffffffffffffff811115612e1257612e11612b67565b5b612e1e85828601612d82565b9150509250929050565b60008115159050919050565b612e3d81612e28565b82525050565b6000602082019050612e586000830184612e34565b92915050565b60007fffffffff0000000000000000000000000000000000000000000000000000000082169050919050565b612e9381612e5e565b8114612e9e57600080fd5b50565b600081359050612eb081612e8a565b92915050565b600060208284031215612ecc57612ecb612b62565b5b6000612eda84828501612ea1565b91505092915050565b600081519050919050565b600082825260208201905092915050565b60005b83811015612f1d578082015181840152602081019050612f02565b83811115612f2c576000848401525b50505050565b6000612f3d82612ee3565b612f478185612eee565b9350612f57818560208601612eff565b612f6081612b76565b840191505092915050565b60006020820190508181036000830152612f858184612f32565b905092915050565b600080600060608486031215612fa657612fa5612b62565b5b600084013567ffffffffffffffff811115612fc457612fc3612b67565b5b612fd086828701612c84565b935050602084013567ffffffffffffffff811115612ff157612ff0612b67565b5b612ffd86828701612c84565b925050604061300e86828701612d04565b9150509250925092565b61302181612ce3565b82525050565b600060208201905061303c6000830184613018565b92915050565b60006020828403121561305857613057612b62565b5b600061306684828501612d04565b91505092915050565b600073ffffffffffffffffffffffffffffffffffffffff82169050919050565b600061309a8261306f565b9050919050565b6130aa8161308f565b82525050565b60006020820190506130c560008301846130a1565b92915050565b6130d48161308f565b81146130df57600080fd5b50565b6000813590506130f1816130cb565b92915050565b6000806040838503121561310e5761310d612b62565b5b600061311c858286016130e2565b925050602061312d85828601612d04565b9150509250929050565b6000806000606084860312156131505761314f612b62565b5b600061315e868287016130e2565b935050602061316f868287016130e2565b925050604061318086828701612d04565b9150509250925092565b6000602082840312156131a05761319f612b62565b5b60006131ae848285016130e2565b91505092915050565b6131c081612ce3565b82525050565b600082825260208201905092915050565b60006131e282612ee3565b6131ec81856131c6565b93506131fc818560208601612eff565b61320581612b76565b840191505092915050565b600060608301600083015161322860008601826131b7565b506020830151848203602086015261324082826131d7565b915050604083015161325560408601826131b7565b508091505092915050565b6000602082019050818103600083015261327a8184613210565b905092915050565b61328b81612e28565b811461329657600080fd5b50565b6000813590506132a881613282565b92915050565b600080604083850312156132c5576132c4612b62565b5b60006132d3858286016130e2565b92505060206132e485828601613299565b9150509250929050565b600067ffffffffffffffff82111561330957613308612b87565b5b61331282612b76565b9050602081019050919050565b600061333261332d846132ee565b612be7565b90508281526020810184848401111561334e5761334d612b71565b5b613359848285612c33565b509392505050565b600082601f83011261337657613375612b6c565b5b813561338684826020860161331f565b91505092915050565b600080600080608085870312156133a9576133a8612b62565b5b60006133b7878288016130e2565b94505060206133c8878288016130e2565b93505060406133d987828801612d04565b925050606085013567ffffffffffffffff8111156133fa576133f9612b67565b5b61340687828801613361565b91505092959194509250565b60006020828403121561342857613427612b62565b5b600082013567ffffffffffffffff81111561344657613445612b67565b5b61345284828501612c84565b91505092915050565b6000806040838503121561347257613471612b62565b5b6000613480858286016130e2565b9250506020613491858286016130e2565b9150509250929050565b600081519050919050565b600082825260208201905092915050565b6000819050602082019050919050565b60006060830160008301516134df60008601826131b7565b50602083015184820360208601526134f782826131d7565b915050604083015161350c60408601826131b7565b508091505092915050565b600061352383836134c7565b905092915050565b6000602082019050919050565b60006135438261349b565b61354d81856134a6565b93508360208202850161355f856134b7565b8060005b8581101561359b578484038952815161357c8582613517565b94506135878361352b565b925060208a01995050600181019050613563565b50829750879550505050505092915050565b600060208201905081810360008301526135c78184613538565b905092915050565b600067ffffffffffffffff8211156135ea576135e9612b87565b5b602082029050602081019050919050565b600080fd5b600080fd5b60008151905061361481612ced565b92915050565b6000604082840312156136305761362f6135fb565b5b61363a6040612be7565b9050600061364a84828501613605565b600083015250602061365e84828501613605565b60208301525092915050565b600061367d613678846135cf565b612be7565b905080838252602082019050604084028301858111156136a05761369f612cde565b5b835b818110156136c957806136b5888261361a565b8452602084019350506040810190506136a2565b5050509392505050565b600082601f8301126136e8576136e7612b6c565b5b81516136f884826020860161366a565b91505092915050565b60006020828403121561371757613716612b62565b5b600082015167ffffffffffffffff81111561373557613734612b67565b5b613741848285016136d3565b91505092915050565b7f4e487b7100000000000000000000000000000000000000000000000000000000600052603260045260246000fd5b600081905092915050565b600061378f82612ee3565b6137998185613779565b93506137a9818560208601612eff565b80840191505092915050565b60006137c18284613784565b915081905092915050565b7f4e487b7100000000000000000000000000000000000000000000000000000000600052601160045260246000fd5b600061380682612ce3565b91507fffffffffffffffffffffffffffffffffffffffffffffffffffffffffffffffff8203613838576138376137cc565b5b600182019050919050565b7f4475706c696361746520636f7572736500000000000000000000000000000000600082015250565b6000613879601083612eee565b915061388482613843565b602082019050919050565b600060208201905081810360008301526138a88161386c565b9050919050565b60006138ba82612ce3565b91506138c583612ce3565b9250827fffffffffffffffffffffffffffffffffffffffffffffffffffffffffffffffff038211156138fa576138f96137cc565b5b828201905092915050565b7f4e487b7100000000000000000000000000000000000000000000000000000000600052602260045260246000fd5b6000600282049050600182168061394c57607f821691505b60208210810361395f5761395e613905565b5b50919050565b7f6163636573732064656e69656400000000000000000000000000000000000000600082015250565b600061399b600d83612eee565b91506139a682613965565b602082019050919050565b600060208201905081810360008301526139ca8161398e565b9050919050565b7f5552492068617320616c72656164792065786973746564000000000000000000600082015250565b6000613a07601783612eee565b9150613a12826139d1565b602082019050919050565b60006020820190508181036000830152613a36816139fa565b9050919050565b7f53747564656e7420686173206265656e206772616e7465640000000000000000600082015250565b6000613a73601883612eee565b9150613a7e82613a3d565b602082019050919050565b60006020820190508181036000830152613aa281613a66565b9050919050565b7f4f7574206f66206e667400000000000000000000000000000000000000000000600082015250565b6000613adf600a83612eee565b9150613aea82613aa9565b602082019050919050565b60006020820190508181036000830152613b0e81613ad2565b9050919050565b6000613b2082612ce3565b9150613b2b83612ce3565b925082821015613b3e57613b3d6137cc565b5b828203905092915050565b7f4552433732313a20617070726f76616c20746f2063757272656e74206f776e6560008201527f7200000000000000000000000000000000000000000000000000000000000000602082015250565b6000613ba5602183612eee565b9150613bb082613b49565b604082019050919050565b60006020820190508181036000830152613bd481613b98565b9050919050565b7f4552433732313a20617070726f76652063616c6c6572206973206e6f7420746f60008201527f6b656e206f776e6572206f7220617070726f76656420666f7220616c6c000000602082015250565b6000613c37603d83612eee565b9150613c4282613bdb565b604082019050919050565b60006020820190508181036000830152613c6681613c2a565b9050919050565b7f4552433732313a2063616c6c6572206973206e6f7420746f6b656e206f776e6560008201527f72206f7220617070726f76656400000000000000000000000000000000000000602082015250565b6000613cc9602d83612eee565b9150613cd482613c6d565b604082019050919050565b60006020820190508181036000830152613cf881613cbc565b9050919050565b7f4552433732313a20696e76616c696420746f6b656e2049440000000000000000600082015250565b6000613d35601883612eee565b9150613d4082613cff565b602082019050919050565b60006020820190508181036000830152613d6481613d28565b9050919050565b7f4552433732313a2061646472657373207a65726f206973206e6f74206120766160008201527f6c6964206f776e65720000000000000000000000000000000000000000000000602082015250565b6000613dc7602983612eee565b9150613dd282613d6b565b604082019050919050565b60006020820190508181036000830152613df681613dba565b9050919050565b6000613e098285613784565b9150613e158284613784565b91508190509392505050565b7f4f776e61626c653a206e6577206f776e657220697320746865207a65726f206160008201527f6464726573730000000000000000000000000000000000000000000000000000602082015250565b6000613e7d602683612eee565b9150613e8882613e21565b604082019050919050565b60006020820190508181036000830152613eac81613e70565b9050919050565b600081519050613ec2816130cb565b92915050565b6000613edb613ed684612c02565b612be7565b905082815260208101848484011115613ef757613ef6612b71565b5b613f02848285612eff565b509392505050565b600082601f830112613f1f57613f1e612b6c565b5b8151613f2f848260208601613ec8565b91505092915050565b60028110613f4557600080fd5b50565b600081519050613f5781613f38565b92915050565b600060e08284031215613f7357613f726135fb565b5b613f7d60e0612be7565b90506000613f8d84828501613605565b6000830152506020613fa184828501613eb3565b6020830152506040613fb584828501613605565b6040830152506060613fc984828501613605565b6060830152506080613fdd84828501613605565b60808301525060a082015167ffffffffffffffff81111561400157614000613600565b5b61400d84828501613f0a565b60a08301525060c061402184828501613f48565b60c08301525092915050565b60006020828403121561404357614042612b62565b5b600082015167ffffffffffffffff81111561406157614060612b67565b5b61406d84828501613f5d565b91505092915050565b7f4e487b7100000000000000000000000000000000000000000000000000000000600052602160045260246000fd5b7f45524337323155524953746f726167653a2055524920736574206f66206e6f6e60008201527f6578697374656e7420746f6b656e000000000000000000000000000000000000602082015250565b6000614101602e83612eee565b915061410c826140a5565b604082019050919050565b60006020820190508181036000830152614130816140f4565b9050919050565b7f4552433732313a207472616e736665722066726f6d20696e636f72726563742060008201527f6f776e6572000000000000000000000000000000000000000000000000000000602082015250565b6000614193602583612eee565b915061419e82614137565b604082019050919050565b600060208201905081810360008301526141c281614186565b9050919050565b7f4552433732313a207472616e7366657220746f20746865207a65726f2061646460008201527f7265737300000000000000000000000000000000000000000000000000000000602082015250565b6000614225602483612eee565b9150614230826141c9565b604082019050919050565b6000602082019050818103600083015261425481614218565b9050919050565b7f4f776e61626c653a2063616c6c6572206973206e6f7420746865206f776e6572600082015250565b6000614291602083612eee565b915061429c8261425b565b602082019050919050565b600060208201905081810360008301526142c081614284565b9050919050565b7f4552433732313a20617070726f766520746f2063616c6c657200000000000000600082015250565b60006142fd601983612eee565b9150614308826142c7565b602082019050919050565b6000602082019050818103600083015261432c816142f0565b9050919050565b7f4552433732313a207472616e7366657220746f206e6f6e20455243373231526560008201527f63656976657220696d706c656d656e7465720000000000000000000000000000602082015250565b600061438f603283612eee565b915061439a82614333565b604082019050919050565b600060208201905081810360008301526143be81614382565b9050919050565b600081519050919050565b600082825260208201905092915050565b60006143ec826143c5565b6143f681856143d0565b9350614406818560208601612eff565b61440f81612b76565b840191505092915050565b600060808201905061442f60008301876130a1565b61443c60208301866130a1565b6144496040830185613018565b818103606083015261445b81846143e1565b905095945050505050565b60008151905061447581612e8a565b92915050565b60006020828403121561449157614490612b62565b5b600061449f84828501614466565b91505092915050565b7f4e487b7100000000000000000000000000000000000000000000000000000000600052601260045260246000fd5b7f4552433732313a206d696e7420746f20746865207a65726f2061646472657373600082015250565b600061450d602083612eee565b9150614518826144d7565b602082019050919050565b6000602082019050818103600083015261453c81614500565b9050919050565b7f4552433732313a20746f6b656e20616c7265616479206d696e74656400000000600082015250565b6000614579601c83612eee565b915061458482614543565b602082019050919050565b600060208201905081810360008301526145a88161456c565b905091905056fea264697066735822122042603dfb791262fa54d93b6a40fc350f0ecd0ddb3294e8616e7951667fa1783764736f6c634300080d0033",
  "immutableReferences": {
    "2870": [
      {
        "length": 32,
        "start": 1122
      },
      {
        "length": 32,
        "start": 5325
      }
    ]
  },
  "source": "// SPDX-License-Identifier: MIT\r\n// Tells the Solidity compiler to compile only from v0.8.13 to v0.9.0\r\npragma solidity ^0.8.13;\r\n\r\nimport \"@openzeppelin/contracts/token/ERC721/extensions/ERC721URIStorage.sol\";\r\nimport \"@openzeppelin/contracts/utils/Counters.sol\";\r\nimport \"@openzeppelin/contracts/access/Ownable.sol\";\r\nimport \"./School.sol\";\r\nimport \"./Type.sol\";\r\n\r\ncontract NftCourse is ERC721URIStorage, Ownable {\r\n    using Counters for Counters.Counter;\r\n\r\n    struct NftItem {\r\n        uint256 tokenId;\r\n        string studentId;\r\n        uint256 courseId;\r\n    }\r\n\r\n\tSchool private immutable _schoolContract;\r\n\r\n    Counters.Counter private _tokenIds;\r\n    NftItem[] private _allNftItems;\r\n    mapping(uint256 => uint256) private _idToNftIndex; // tokenId =>NftItem \r\n    mapping(string => mapping(uint256 => bool)) private _completedCourse;\r\n    mapping(string => uint256[]) private _nftCoursesOfStudent;\r\n    // mapping(string => mapping(CourseType => uint256[])) private _completedCourse;\r\n    mapping(string => bool) private _usedTokenURIs;\r\n\r\n    mapping(uint256 => Type.Course) private _idToCourse;\r\n    mapping(string => mapping(uint256 => uint256)) private _creditsOfCourse;\r\n    mapping(string => mapping(string => bool)) private _checkedCourse;\r\n    \r\n    constructor(School schoolContract) ERC721(\"CourseNFT\", \"CNFT\") {\r\n        _schoolContract = schoolContract;\r\n    }\r\n\r\n    modifier onlyTeacher(uint256 courseId) {\r\n        Type.Course memory course = _getCourse(courseId);\r\n        require(course.teacherAddress == msg.sender, \"access denied\");\r\n        _;\r\n    }\r\n\r\n    function getNftCourse(uint256 tokenId) public view returns (NftItem memory) {\r\n        uint256 tokenIndex = _idToNftIndex[tokenId];\r\n\r\n        return _allNftItems[tokenIndex];\r\n    }\r\n\r\n    function getNftCourses(string memory studentId) public view returns (NftItem[] memory) {\r\n        uint256[] memory tokenIds = _nftCoursesOfStudent[studentId];\r\n        uint256 nftCount = tokenIds.length;\r\n        NftItem[] memory nftItems = new NftItem[](nftCount);\r\n\r\n        for (uint256 index = 0; index < nftCount; ++index) {\r\n            nftItems[index] = getNftCourse(tokenIds[index]);\r\n        }\r\n\r\n        return nftItems;\r\n    }\r\n\r\n    function getNumberOfNftCourses(string memory studentId) public view returns (uint256) {\r\n        uint256[] memory tokenIds = _nftCoursesOfStudent[studentId];\r\n        uint256 nftCount = tokenIds.length;\r\n\r\n        return nftCount;\r\n    }\r\n\r\n    function mintToken(\r\n        string memory tokenURI,\r\n        string memory studentId,\r\n        uint256 courseId\r\n        // score?\r\n    ) public onlyTeacher(courseId) returns (uint256)\r\n    {\r\n        require(!_usedTokenURIs[tokenURI], \"URI has already existed\");\r\n        require(!_completedCourse[studentId][courseId], \"Student has been granted\");\r\n        require(!_isOutOfNft(courseId), \"Out of nft\");\r\n        _tokenIds.increment();\r\n        _idToCourse[courseId].nftCounts -= 1;\r\n\r\n        uint256 newTokenId = _tokenIds.current();\r\n        _safeMint(msg.sender, newTokenId);\r\n        _setTokenURI(newTokenId, tokenURI);\r\n        _createNftItem(newTokenId, studentId, courseId);\r\n        _usedTokenURIs[tokenURI] = true;\r\n\r\n        return newTokenId;\r\n    }\r\n\r\n    function validateNftGradution(\r\n        string memory studentId,\r\n        uint256[] memory tokenIds\r\n    ) public returns (bool) {\r\n        uint256 tokenIdLength = tokenIds.length;\r\n        Type.Requirement[] memory requirements = _schoolContract.getAllRequirements();\r\n        uint256 requirementLength = requirements.length;\r\n\r\n        for (uint256 index = 0; index < requirementLength; ++index) {\r\n            Type.Requirement memory requirement = requirements[index];\r\n            _creditsOfCourse[studentId][requirement.courseGroupId] = 0;\r\n        }\r\n\r\n        for (uint256 index = 0; index < tokenIdLength; ++index) {\r\n            NftItem memory nftItem = getNftCourse(tokenIds[index]);\r\n            Type.Course memory course = _getCourse(nftItem.courseId);\r\n            if (_checkedCourse[studentId][course.metadata]) {\r\n                revert(\"Duplicate course\");\r\n            }\r\n            _creditsOfCourse[studentId][course.courseGroup] += course.credits;\r\n            _checkedCourse[studentId][course.metadata] = true;\r\n        }\r\n\r\n        for (uint256 index = 0; index < requirementLength; ++index) {\r\n            Type.Requirement memory requirement = requirements[index];\r\n            if (_creditsOfCourse[studentId][requirement.courseGroupId] < requirement.credits) {\r\n                return false;\r\n            }\r\n        }\r\n\r\n        return true;\r\n    }\r\n\r\n    function _isOutOfNft(uint256 courseId) private view returns (bool)\r\n    {\r\n        return _idToCourse[courseId].nftCounts == 0;\r\n    }\r\n\r\n    function _createNftItem(\r\n        uint256 tokenId,\r\n        string memory studentId,\r\n        uint256 courseId\r\n    ) private {\r\n        NftItem memory nftItem = NftItem(tokenId, studentId, courseId);\r\n        _allNftItems.push(nftItem);\r\n        _idToNftIndex[tokenId] = _allNftItems.length;\r\n        _nftCoursesOfStudent[studentId].push(tokenId);\r\n        _completedCourse[studentId][courseId] = true;\r\n    }\r\n\r\n    function _getCourse(uint256 courseId) private returns (Type.Course memory) {\r\n        if (_idToCourse[courseId].id == 0) {\r\n            _idToCourse[courseId] = _schoolContract.getCourse(courseId);\r\n        }\r\n\r\n        return _idToCourse[courseId];\r\n    }\r\n}",
  "sourcePath": "E:\\learn\\learn-to-earn\\contracts\\NftCourse.sol",
  "compiler": {
    "name": "solc",
    "version": "0.8.13+commit.abaa5c0e.Emscripten.clang"
  },
  "schemaVersion": "3.4.11",
  "updatedAt": "2023-02-26T10:24:10.498Z",
  "networkType": "ethereum",
  "devdoc": {
    "kind": "dev",
    "methods": {
      "approve(address,uint256)": {
        "details": "See {IERC721-approve}."
      },
      "balanceOf(address)": {
        "details": "See {IERC721-balanceOf}."
      },
      "getApproved(uint256)": {
        "details": "See {IERC721-getApproved}."
      },
      "isApprovedForAll(address,address)": {
        "details": "See {IERC721-isApprovedForAll}."
      },
      "name()": {
        "details": "See {IERC721Metadata-name}."
      },
      "owner()": {
        "details": "Returns the address of the current owner."
      },
      "ownerOf(uint256)": {
        "details": "See {IERC721-ownerOf}."
      },
      "renounceOwnership()": {
        "details": "Leaves the contract without owner. It will not be possible to call `onlyOwner` functions anymore. Can only be called by the current owner. NOTE: Renouncing ownership will leave the contract without an owner, thereby removing any functionality that is only available to the owner."
      },
      "safeTransferFrom(address,address,uint256)": {
        "details": "See {IERC721-safeTransferFrom}."
      },
      "safeTransferFrom(address,address,uint256,bytes)": {
        "details": "See {IERC721-safeTransferFrom}."
      },
      "setApprovalForAll(address,bool)": {
        "details": "See {IERC721-setApprovalForAll}."
      },
      "supportsInterface(bytes4)": {
        "details": "See {IERC165-supportsInterface}."
      },
      "symbol()": {
        "details": "See {IERC721Metadata-symbol}."
      },
      "tokenURI(uint256)": {
        "details": "See {IERC721Metadata-tokenURI}."
      },
      "transferFrom(address,address,uint256)": {
        "details": "See {IERC721-transferFrom}."
      },
      "transferOwnership(address)": {
        "details": "Transfers ownership of the contract to a new account (`newOwner`). Can only be called by the current owner."
      }
    },
    "version": 1
  },
  "userdoc": {
    "kind": "user",
    "methods": {},
    "version": 1
  }
}