{
  "contractName": "NftCertificates",
  "abi": [
    {
      "inputs": [
        {
          "internalType": "address",
          "name": "nftIdentities",
          "type": "address"
        },
        {
          "internalType": "address",
          "name": "nftSchool",
          "type": "address"
        }
      ],
      "stateMutability": "nonpayable",
      "type": "constructor"
    },
    {
      "anonymous": false,
      "inputs": [
        {
          "indexed": true,
          "internalType": "address",
          "name": "account",
          "type": "address"
        },
        {
          "indexed": true,
          "internalType": "address",
          "name": "operator",
          "type": "address"
        },
        {
          "indexed": false,
          "internalType": "bool",
          "name": "approved",
          "type": "bool"
        }
      ],
      "name": "ApprovalForAll",
      "type": "event"
    },
    {
      "anonymous": false,
      "inputs": [
        {
          "indexed": true,
          "internalType": "address",
          "name": "operator",
          "type": "address"
        },
        {
          "indexed": true,
          "internalType": "address",
          "name": "from",
          "type": "address"
        },
        {
          "indexed": true,
          "internalType": "address",
          "name": "to",
          "type": "address"
        },
        {
          "indexed": false,
          "internalType": "uint256[]",
          "name": "ids",
          "type": "uint256[]"
        },
        {
          "indexed": false,
          "internalType": "uint256[]",
          "name": "values",
          "type": "uint256[]"
        }
      ],
      "name": "TransferBatch",
      "type": "event"
    },
    {
      "anonymous": false,
      "inputs": [
        {
          "indexed": true,
          "internalType": "address",
          "name": "operator",
          "type": "address"
        },
        {
          "indexed": true,
          "internalType": "address",
          "name": "from",
          "type": "address"
        },
        {
          "indexed": true,
          "internalType": "address",
          "name": "to",
          "type": "address"
        },
        {
          "indexed": false,
          "internalType": "uint256",
          "name": "id",
          "type": "uint256"
        },
        {
          "indexed": false,
          "internalType": "uint256",
          "name": "value",
          "type": "uint256"
        }
      ],
      "name": "TransferSingle",
      "type": "event"
    },
    {
      "anonymous": false,
      "inputs": [
        {
          "indexed": false,
          "internalType": "string",
          "name": "value",
          "type": "string"
        },
        {
          "indexed": true,
          "internalType": "uint256",
          "name": "id",
          "type": "uint256"
        }
      ],
      "name": "URI",
      "type": "event"
    },
    {
      "inputs": [
        {
          "internalType": "address",
          "name": "account",
          "type": "address"
        },
        {
          "internalType": "uint256",
          "name": "id",
          "type": "uint256"
        }
      ],
      "name": "balanceOf",
      "outputs": [
        {
          "internalType": "uint256",
          "name": "",
          "type": "uint256"
        }
      ],
      "stateMutability": "view",
      "type": "function"
    },
    {
      "inputs": [
        {
          "internalType": "address[]",
          "name": "accounts",
          "type": "address[]"
        },
        {
          "internalType": "uint256[]",
          "name": "ids",
          "type": "uint256[]"
        }
      ],
      "name": "balanceOfBatch",
      "outputs": [
        {
          "internalType": "uint256[]",
          "name": "",
          "type": "uint256[]"
        }
      ],
      "stateMutability": "view",
      "type": "function"
    },
    {
      "inputs": [],
      "name": "graduationPrice",
      "outputs": [
        {
          "internalType": "uint256",
          "name": "",
          "type": "uint256"
        }
      ],
      "stateMutability": "view",
      "type": "function"
    },
    {
      "inputs": [
        {
          "internalType": "address",
          "name": "account",
          "type": "address"
        },
        {
          "internalType": "address",
          "name": "operator",
          "type": "address"
        }
      ],
      "name": "isApprovedForAll",
      "outputs": [
        {
          "internalType": "bool",
          "name": "",
          "type": "bool"
        }
      ],
      "stateMutability": "view",
      "type": "function"
    },
    {
      "inputs": [],
      "name": "registeredEndAt",
      "outputs": [
        {
          "internalType": "uint256",
          "name": "",
          "type": "uint256"
        }
      ],
      "stateMutability": "view",
      "type": "function"
    },
    {
      "inputs": [],
      "name": "registeredPrice",
      "outputs": [
        {
          "internalType": "uint256",
          "name": "",
          "type": "uint256"
        }
      ],
      "stateMutability": "view",
      "type": "function"
    },
    {
      "inputs": [],
      "name": "registeredStartAt",
      "outputs": [
        {
          "internalType": "uint256",
          "name": "",
          "type": "uint256"
        }
      ],
      "stateMutability": "view",
      "type": "function"
    },
    {
      "inputs": [
        {
          "internalType": "address",
          "name": "from",
          "type": "address"
        },
        {
          "internalType": "address",
          "name": "to",
          "type": "address"
        },
        {
          "internalType": "uint256[]",
          "name": "ids",
          "type": "uint256[]"
        },
        {
          "internalType": "uint256[]",
          "name": "amounts",
          "type": "uint256[]"
        },
        {
          "internalType": "bytes",
          "name": "data",
          "type": "bytes"
        }
      ],
      "name": "safeBatchTransferFrom",
      "outputs": [],
      "stateMutability": "nonpayable",
      "type": "function"
    },
    {
      "inputs": [
        {
          "internalType": "address",
          "name": "from",
          "type": "address"
        },
        {
          "internalType": "address",
          "name": "to",
          "type": "address"
        },
        {
          "internalType": "uint256",
          "name": "id",
          "type": "uint256"
        },
        {
          "internalType": "uint256",
          "name": "amount",
          "type": "uint256"
        },
        {
          "internalType": "bytes",
          "name": "data",
          "type": "bytes"
        }
      ],
      "name": "safeTransferFrom",
      "outputs": [],
      "stateMutability": "nonpayable",
      "type": "function"
    },
    {
      "inputs": [],
      "name": "schoolYearEnd",
      "outputs": [
        {
          "internalType": "uint256",
          "name": "",
          "type": "uint256"
        }
      ],
      "stateMutability": "view",
      "type": "function"
    },
    {
      "inputs": [
        {
          "internalType": "address",
          "name": "operator",
          "type": "address"
        },
        {
          "internalType": "bool",
          "name": "approved",
          "type": "bool"
        }
      ],
      "name": "setApprovalForAll",
      "outputs": [],
      "stateMutability": "nonpayable",
      "type": "function"
    },
    {
      "inputs": [
        {
          "internalType": "bytes4",
          "name": "interfaceId",
          "type": "bytes4"
        }
      ],
      "name": "supportsInterface",
      "outputs": [
        {
          "internalType": "bool",
          "name": "",
          "type": "bool"
        }
      ],
      "stateMutability": "view",
      "type": "function"
    },
    {
      "inputs": [
        {
          "internalType": "uint256",
          "name": "tokenId",
          "type": "uint256"
        }
      ],
      "name": "uri",
      "outputs": [
        {
          "internalType": "string",
          "name": "",
          "type": "string"
        }
      ],
      "stateMutability": "view",
      "type": "function"
    },
    {
      "inputs": [],
      "name": "yearId",
      "outputs": [
        {
          "internalType": "uint256",
          "name": "",
          "type": "uint256"
        }
      ],
      "stateMutability": "view",
      "type": "function"
    },
    {
      "inputs": [],
      "name": "getOwnedNftCompleteCourse",
      "outputs": [
        {
          "components": [
            {
              "internalType": "uint256",
              "name": "tokenId",
              "type": "uint256"
            },
            {
              "internalType": "uint256",
              "name": "courseTemplateId",
              "type": "uint256"
            },
            {
              "internalType": "uint256",
              "name": "requirementId",
              "type": "uint256"
            },
            {
              "internalType": "uint256",
              "name": "credits",
              "type": "uint256"
            },
            {
              "internalType": "uint256",
              "name": "avgScore",
              "type": "uint256"
            }
          ],
          "internalType": "struct IConstant.NftCompleteCourse[]",
          "name": "",
          "type": "tuple[]"
        },
        {
          "internalType": "string[]",
          "name": "",
          "type": "string[]"
        }
      ],
      "stateMutability": "view",
      "type": "function"
    },
    {
      "inputs": [
        {
          "internalType": "uint256",
          "name": "tokenId",
          "type": "uint256"
        }
      ],
      "name": "getNftCompleteCourse",
      "outputs": [
        {
          "components": [
            {
              "internalType": "uint256",
              "name": "tokenId",
              "type": "uint256"
            },
            {
              "internalType": "uint256",
              "name": "courseTemplateId",
              "type": "uint256"
            },
            {
              "internalType": "uint256",
              "name": "requirementId",
              "type": "uint256"
            },
            {
              "internalType": "uint256",
              "name": "credits",
              "type": "uint256"
            },
            {
              "internalType": "uint256",
              "name": "avgScore",
              "type": "uint256"
            }
          ],
          "internalType": "struct IConstant.NftCompleteCourse",
          "name": "",
          "type": "tuple"
        },
        {
          "internalType": "string",
          "name": "",
          "type": "string"
        }
      ],
      "stateMutability": "view",
      "type": "function"
    },
    {
      "inputs": [],
      "name": "getOwnedNftGraduation",
      "outputs": [
        {
          "components": [
            {
              "internalType": "uint256",
              "name": "tokenId",
              "type": "uint256"
            }
          ],
          "internalType": "struct IConstant.NftGraduation",
          "name": "",
          "type": "tuple"
        },
        {
          "internalType": "string",
          "name": "",
          "type": "string"
        }
      ],
      "stateMutability": "view",
      "type": "function"
    },
    {
      "inputs": [
        {
          "internalType": "uint256",
          "name": "tokenId",
          "type": "uint256"
        }
      ],
      "name": "getNftGraduation",
      "outputs": [
        {
          "components": [
            {
              "internalType": "uint256",
              "name": "tokenId",
              "type": "uint256"
            }
          ],
          "internalType": "struct IConstant.NftGraduation",
          "name": "",
          "type": "tuple"
        },
        {
          "internalType": "string",
          "name": "",
          "type": "string"
        }
      ],
      "stateMutability": "view",
      "type": "function"
    },
    {
      "inputs": [
        {
          "internalType": "uint256",
          "name": "tokenId",
          "type": "uint256"
        }
      ],
      "name": "getNftScoreBoard",
      "outputs": [
        {
          "components": [
            {
              "internalType": "uint256",
              "name": "tokenId",
              "type": "uint256"
            },
            {
              "internalType": "uint256",
              "name": "classId",
              "type": "uint256"
            },
            {
              "internalType": "uint256",
              "name": "courseTemplateId",
              "type": "uint256"
            },
            {
              "internalType": "uint256",
              "name": "requirementId",
              "type": "uint256"
            },
            {
              "internalType": "uint256",
              "name": "credits",
              "type": "uint256"
            },
            {
              "internalType": "uint256",
              "name": "completeAt",
              "type": "uint256"
            },
            {
              "internalType": "address",
              "name": "studentAddr",
              "type": "address"
            },
            {
              "internalType": "address",
              "name": "teacherAddr",
              "type": "address"
            },
            {
              "internalType": "uint256[]",
              "name": "requiredScore",
              "type": "uint256[]"
            },
            {
              "internalType": "uint256[]",
              "name": "scores",
              "type": "uint256[]"
            }
          ],
          "internalType": "struct IConstant.NftScoreBoard",
          "name": "",
          "type": "tuple"
        },
        {
          "internalType": "string",
          "name": "",
          "type": "string"
        }
      ],
      "stateMutability": "view",
      "type": "function"
    },
    {
      "inputs": [
        {
          "internalType": "uint256",
          "name": "classId",
          "type": "uint256"
        },
        {
          "internalType": "string",
          "name": "tokenURI",
          "type": "string"
        }
      ],
      "name": "registerClass",
      "outputs": [],
      "stateMutability": "payable",
      "type": "function"
    },
    {
      "inputs": [
        {
          "internalType": "uint256",
          "name": "scoreBoardId",
          "type": "uint256"
        },
        {
          "internalType": "uint256[]",
          "name": "requireScore",
          "type": "uint256[]"
        },
        {
          "internalType": "uint256[]",
          "name": "scores",
          "type": "uint256[]"
        }
      ],
      "name": "updateScores",
      "outputs": [],
      "stateMutability": "nonpayable",
      "type": "function"
    },
    {
      "inputs": [
        {
          "internalType": "uint256",
          "name": "scoreBoardId",
          "type": "uint256"
        },
        {
          "internalType": "string",
          "name": "tokenURI",
          "type": "string"
        }
      ],
      "name": "exchangeCompleteCourse",
      "outputs": [],
      "stateMutability": "payable",
      "type": "function"
    },
    {
      "inputs": [
        {
          "internalType": "uint256[]",
          "name": "nftCompleteCourseIds",
          "type": "uint256[]"
        },
        {
          "internalType": "string",
          "name": "tokenURI",
          "type": "string"
        }
      ],
      "name": "exchangeGraduation",
      "outputs": [],
      "stateMutability": "payable",
      "type": "function"
    }
  ],
  "bytecode": "0x60c060405260405180602001604052806000815250600390805190602001906200002b9291906200016f565b50670de0b6b3a7640000600955670de0b6b3a7640000600a553480156200005157600080fd5b5060405162005f5338038062005f53833981810160405281019062000077919062000289565b604051806020016040528060008152508062000099816200015360201b60201c565b5033600560006101000a81548173ffffffffffffffffffffffffffffffffffffffff021916908373ffffffffffffffffffffffffffffffffffffffff160217905550508173ffffffffffffffffffffffffffffffffffffffff1660808173ffffffffffffffffffffffffffffffffffffffff16815250508073ffffffffffffffffffffffffffffffffffffffff1660a08173ffffffffffffffffffffffffffffffffffffffff168152505042600c81905550505062000334565b80600290805190602001906200016b9291906200016f565b5050565b8280546200017d90620002ff565b90600052602060002090601f016020900481019282620001a15760008555620001ed565b82601f10620001bc57805160ff1916838001178555620001ed565b82800160010185558215620001ed579182015b82811115620001ec578251825591602001919060010190620001cf565b5b509050620001fc919062000200565b5090565b5b808211156200021b57600081600090555060010162000201565b5090565b600080fd5b600073ffffffffffffffffffffffffffffffffffffffff82169050919050565b6000620002518262000224565b9050919050565b620002638162000244565b81146200026f57600080fd5b50565b600081519050620002838162000258565b92915050565b60008060408385031215620002a357620002a26200021f565b5b6000620002b38582860162000272565b9250506020620002c68582860162000272565b9150509250929050565b7f4e487b7100000000000000000000000000000000000000000000000000000000600052602260045260246000fd5b600060028204905060018216806200031857607f821691505b6020821081036200032e576200032d620002d0565b5b50919050565b60805160a051615bdd620003766000396000818161094301528181610bf5015261223801526000818161082f01528181610cc30152610f5d0152615bdd6000f3fe60806040526004361061013f5760003560e01c80637b722c9d116100b6578063b5bee3171161006f578063b5bee3171461046a578063df264a5e14610486578063df4e4891146104b2578063e985e9c5146104dd578063ec7d2f751461051a578063f242432a146105585761013f565b80637b722c9d1461034357806385c7744c146103815780638f03802d146103bf578063a22cb465146103ea578063af0d1cb514610413578063b12a61151461043e5761013f565b806311394f561161010857806311394f56146102425780631d63ed4e1461026d5780632eb2c2d6146102895780633172c563146102b25780634e1273f4146102dd578063679a09dc1461031a5761013f565b8062fdd58e1461014457806301ffc9a71461018157806303ece623146101be5780630e89341c146101e9578063111868a614610226575b600080fd5b34801561015057600080fd5b5061016b600480360381019061016691906138c7565b610581565b6040516101789190613916565b60405180910390f35b34801561018d57600080fd5b506101a860048036038101906101a39190613989565b610649565b6040516101b591906139d1565b60405180910390f35b3480156101ca57600080fd5b506101d361072b565b6040516101e09190613916565b60405180910390f35b3480156101f557600080fd5b50610210600480360381019061020b91906139ec565b610731565b60405161021d9190613ab2565b60405180910390f35b610240600480360381019061023b9190613cd1565b610816565b005b34801561024e57600080fd5b50610257610ca5565b6040516102649190613916565b60405180910390f35b61028760048036038101906102829190613d49565b610cab565b005b34801561029557600080fd5b506102b060048036038101906102ab9190613e46565b610d85565b005b3480156102be57600080fd5b506102c7610e26565b6040516102d49190613916565b60405180910390f35b3480156102e957600080fd5b5061030460048036038101906102ff9190613fd8565b610e2c565b604051610311919061410e565b60405180910390f35b34801561032657600080fd5b50610341600480360381019061033c9190614130565b610f45565b005b34801561034f57600080fd5b5061036a600480360381019061036591906139ec565b6111bd565b60405161037892919061431a565b60405180910390f35b34801561038d57600080fd5b506103a860048036038101906103a391906139ec565b6113e6565b6040516103b69291906143b9565b60405180910390f35b3480156103cb57600080fd5b506103d46114a8565b6040516103e19190613916565b60405180910390f35b3480156103f657600080fd5b50610411600480360381019061040c9190614415565b6114ae565b005b34801561041f57600080fd5b506104286114c4565b6040516104359190613916565b60405180910390f35b34801561044a57600080fd5b506104536114ca565b604051610461929190614471565b60405180910390f35b610484600480360381019061047f9190613d49565b61152a565b005b34801561049257600080fd5b5061049b611547565b6040516104a99291906146c4565b60405180910390f35b3480156104be57600080fd5b506104c7611711565b6040516104d49190613916565b60405180910390f35b3480156104e957600080fd5b5061050460048036038101906104ff91906146fb565b611717565b60405161051191906139d1565b60405180910390f35b34801561052657600080fd5b50610541600480360381019061053c91906139ec565b6117ab565b60405161054f929190614471565b60405180910390f35b34801561056457600080fd5b5061057f600480360381019061057a919061473b565b611841565b005b60008073ffffffffffffffffffffffffffffffffffffffff168373ffffffffffffffffffffffffffffffffffffffff16036105f1576040517f08c379a00000000000000000000000000000000000000000000000000000000081526004016105e890614844565b60405180910390fd5b60008083815260200190815260200160002060008473ffffffffffffffffffffffffffffffffffffffff1673ffffffffffffffffffffffffffffffffffffffff16815260200190815260200160002054905092915050565b60007fd9b67a26000000000000000000000000000000000000000000000000000000007bffffffffffffffffffffffffffffffffffffffffffffffffffffffff1916827bffffffffffffffffffffffffffffffffffffffffffffffffffffffff1916148061071457507f0e89341c000000000000000000000000000000000000000000000000000000007bffffffffffffffffffffffffffffffffffffffffffffffffffffffff1916827bffffffffffffffffffffffffffffffffffffffffffffffffffffffff1916145b806107245750610723826118e2565b5b9050919050565b600a5481565b6060600060046000848152602001908152602001600020805461075390614893565b80601f016020809104026020016040519081016040528092919081815260200182805461077f90614893565b80156107cc5780601f106107a1576101008083540402835291602001916107cc565b820191906000526020600020905b8154815290600101906020018083116107af57829003601f168201915b5050505050905060008151116107ea576107e58361194c565b61080e565b6003816040516020016107fe929190614994565b6040516020818303038152906040525b915050919050565b6000600181111561082a576108296149b8565b5b6000807f000000000000000000000000000000000000000000000000000000000000000073ffffffffffffffffffffffffffffffffffffffff1663ce268f69336040518263ffffffff1660e01b815260040161088691906149f6565b6040805180830381865afa1580156108a2573d6000803e3d6000fd5b505050506040513d601f19601f820116820180604052508101906108c69190614a3b565b915091508180156108d657508083145b6108df57600080fd5b600a5434146108ed57600080fd5b6000601760003373ffffffffffffffffffffffffffffffffffffffff1673ffffffffffffffffffffffffffffffffffffffff168152602001908152602001600020541461093957600080fd5b60008551905060007f000000000000000000000000000000000000000000000000000000000000000073ffffffffffffffffffffffffffffffffffffffff1663645f833f6040518163ffffffff1660e01b8152600401600060405180830381865afa1580156109ac573d6000803e3d6000fd5b505050506040513d6000823e3d601f19601f820116820180604052508101906109d59190614ce9565b50905060008151905060008167ffffffffffffffff8111156109fa576109f9613ad9565b5b604051908082528060200260200182016040528015610a285781602001602082028036833780820191505090505b50905060008060005b86811015610b62573373ffffffffffffffffffffffffffffffffffffffff16600860008e8481518110610a6757610a66614d61565b5b6020026020010151815260200190815260200160002060009054906101000a900473ffffffffffffffffffffffffffffffffffffffff1673ffffffffffffffffffffffffffffffffffffffff1614610abe57600080fd5b6000610ae38d8381518110610ad657610ad5614d61565b5b60200260200101516113e6565b509050806060015185826040015181518110610b0257610b01614d61565b5b60200260200101818151610b169190614dbf565b91508181525050806060015184610b2d9190614dbf565b935080606001518160800151610b439190614e15565b83610b4e9190614dbf565b92505080610b5b90614e6f565b9050610a31565b5060005b84811015610be257858181518110610b8157610b80614d61565b5b60200260200101516020015184878381518110610ba157610ba0614d61565b5b60200260200101516000015181518110610bbe57610bbd614d61565b5b60200260200101511015610bd157600080fd5b80610bdb90614e6f565b9050610b66565b5060008282610bf19190614ee6565b90507f000000000000000000000000000000000000000000000000000000000000000073ffffffffffffffffffffffffffffffffffffffff16635fe037796040518163ffffffff1660e01b8152600401602060405180830381865afa158015610c5e573d6000803e3d6000fd5b505050506040513d601f19601f82011682018060405250810190610c829190614f17565b8111610c8d57600080fd5b610c968b6119e0565b50505050505050505050505050565b600c5481565b600180811115610cbe57610cbd6149b8565b5b6000807f000000000000000000000000000000000000000000000000000000000000000073ffffffffffffffffffffffffffffffffffffffff1663ce268f69336040518263ffffffff1660e01b8152600401610d1a91906149f6565b6040805180830381865afa158015610d36573d6000803e3d6000fd5b505050506040513d601f19601f82011682018060405250810190610d5a9190614a3b565b91509150818015610d6a57508083145b610d7357600080fd5b610d7d8585611a47565b505050505050565b610d8d611d41565b73ffffffffffffffffffffffffffffffffffffffff168573ffffffffffffffffffffffffffffffffffffffff161480610dd35750610dd285610dcd611d41565b611717565b5b610e12576040517f08c379a0000000000000000000000000000000000000000000000000000000008152600401610e0990614fb6565b60405180910390fd5b610e1f8585858585611d49565b5050505050565b60095481565b60608151835114610e72576040517f08c379a0000000000000000000000000000000000000000000000000000000008152600401610e6990615048565b60405180910390fd5b6000835167ffffffffffffffff811115610e8f57610e8e613ad9565b5b604051908082528060200260200182016040528015610ebd5781602001602082028036833780820191505090505b50905060005b8451811015610f3a57610f0a858281518110610ee257610ee1614d61565b5b6020026020010151858381518110610efd57610efc614d61565b5b6020026020010151610581565b828281518110610f1d57610f1c614d61565b5b60200260200101818152505080610f3390614e6f565b9050610ec3565b508091505092915050565b600180811115610f5857610f576149b8565b5b6000807f000000000000000000000000000000000000000000000000000000000000000073ffffffffffffffffffffffffffffffffffffffff1663ce268f69336040518263ffffffff1660e01b8152600401610fb491906149f6565b6040805180830381865afa158015610fd0573d6000803e3d6000fd5b505050506040513d601f19601f82011682018060405250810190610ff49190614a3b565b9150915081801561100457508083145b61100d57600080fd5b6000601360006004815260200190815260200160002060008881526020019081526020016000205490506000811161104457600080fd5b4260106001836110549190615068565b8154811061106557611064614d61565b5b90600052602060002090600a0201600501541061108157600080fd5b3373ffffffffffffffffffffffffffffffffffffffff1660106001836110a79190615068565b815481106110b8576110b7614d61565b5b90600052602060002090600a020160070160009054906101000a900473ffffffffffffffffffffffffffffffffffffffff1673ffffffffffffffffffffffffffffffffffffffff161461110a57600080fd5b60008651905060005b818110156111b25786818151811061112e5761112d614d61565b5b602002602001015160106001856111459190615068565b8154811061115657611155614d61565b5b90600052602060002090600a020160090189838151811061117a57611179614d61565b5b60200260200101518154811061119357611192614d61565b5b9060005260206000200181905550806111ab90614e6f565b9050611113565b505050505050505050565b6111c561366e565b6060600060136000600481526020019081526020016000206000858152602001908152602001600020549050600081116111fe57600080fd5b601060018261120d9190615068565b8154811061121e5761121d614d61565b5b90600052602060002090600a020161123585610731565b81604051806101400160405290816000820154815260200160018201548152602001600282015481526020016003820154815260200160048201548152602001600582015481526020016006820160009054906101000a900473ffffffffffffffffffffffffffffffffffffffff1673ffffffffffffffffffffffffffffffffffffffff1673ffffffffffffffffffffffffffffffffffffffff1681526020016007820160009054906101000a900473ffffffffffffffffffffffffffffffffffffffff1673ffffffffffffffffffffffffffffffffffffffff1673ffffffffffffffffffffffffffffffffffffffff1681526020016008820180548060200260200160405190810160405280929190818152602001828054801561137957602002820191906000526020600020905b815481526020019060010190808311611365575b50505050508152602001600982018054806020026020016040519081016040528092919081815260200182805480156113d157602002820191906000526020600020905b8154815260200190600101908083116113bd575b50505050508152505091509250925050915091565b6113ee6136ed565b60606000601360006005815260200190815260200160002060008581526020019081526020016000205490506000811161142757600080fd5b60116001826114369190615068565b8154811061144757611446614d61565b5b906000526020600020906005020161145e85610731565b816040518060a00160405290816000820154815260200160018201548152602001600282015481526020016003820154815260200160048201548152505091509250925050915091565b600e5481565b6114c06114b9611d41565b838361206a565b5050565b600d5481565b6114d261371c565b60606000601760003373ffffffffffffffffffffffffffffffffffffffff1673ffffffffffffffffffffffffffffffffffffffff168152602001908152602001600020549050611521816117ab565b92509250509091565b600954341461153857600080fd5b61154282826121d6565b505050565b6060806000601660003373ffffffffffffffffffffffffffffffffffffffff1673ffffffffffffffffffffffffffffffffffffffff1681526020019081526020016000208054905090506000811161159e57600080fd5b60008167ffffffffffffffff8111156115ba576115b9613ad9565b5b6040519080825280602002602001820160405280156115f357816020015b6115e06136ed565b8152602001906001900390816115d85790505b50905060008267ffffffffffffffff81111561161257611611613ad9565b5b60405190808252806020026020018201604052801561164557816020015b60608152602001906001900390816116305790505b50905060005b838111611703576116b6601660003373ffffffffffffffffffffffffffffffffffffffff1673ffffffffffffffffffffffffffffffffffffffff16815260200190815260200160002082815481106116a6576116a5614d61565b5b90600052602060002001546113e6565b8483815181106116c9576116c8614d61565b5b602002602001018484815181106116e3576116e2614d61565b5b602002602001018290528290525050806116fc90614e6f565b905061164b565b508181945094505050509091565b600f5481565b6000600160008473ffffffffffffffffffffffffffffffffffffffff1673ffffffffffffffffffffffffffffffffffffffff16815260200190815260200160002060008373ffffffffffffffffffffffffffffffffffffffff1673ffffffffffffffffffffffffffffffffffffffff16815260200190815260200160002060009054906101000a900460ff16905092915050565b6117b361371c565b6060600060136000600681526020019081526020016000206000858152602001908152602001600020549050600081116117ec57600080fd5b60126001826117fb9190615068565b8154811061180c5761180b614d61565b5b9060005260206000200161181f85610731565b8160405180602001604052908160008201548152505091509250925050915091565b611849611d41565b73ffffffffffffffffffffffffffffffffffffffff168573ffffffffffffffffffffffffffffffffffffffff16148061188f575061188e85611889611d41565b611717565b5b6118ce576040517f08c379a00000000000000000000000000000000000000000000000000000000081526004016118c590614fb6565b60405180910390fd5b6118db8585858585612304565b5050505050565b60007f01ffc9a7000000000000000000000000000000000000000000000000000000007bffffffffffffffffffffffffffffffffffffffffffffffffffffffff1916827bffffffffffffffffffffffffffffffffffffffffffffffffffffffff1916149050919050565b60606002805461195b90614893565b80601f016020809104026020016040519081016040528092919081815260200182805461198790614893565b80156119d45780601f106119a9576101008083540402835291602001916119d4565b820191906000526020600020905b8154815290600101906020018083116119b757829003601f168201915b50505050509050919050565b6000806119ef3360068561259f565b90506119fa816126b8565b80601760003373ffffffffffffffffffffffffffffffffffffffff1673ffffffffffffffffffffffffffffffffffffffff1681526020019081526020016000208190555080915050919050565b6000806013600060048152602001908152602001600020600085815260200190815260200160002054905060006010600186611a839190615068565b81548110611a9457611a93614d61565b5b90600052602060002090600a0201604051806101400160405290816000820154815260200160018201548152602001600282015481526020016003820154815260200160048201548152602001600582015481526020016006820160009054906101000a900473ffffffffffffffffffffffffffffffffffffffff1673ffffffffffffffffffffffffffffffffffffffff1673ffffffffffffffffffffffffffffffffffffffff1681526020016007820160009054906101000a900473ffffffffffffffffffffffffffffffffffffffff1673ffffffffffffffffffffffffffffffffffffffff1673ffffffffffffffffffffffffffffffffffffffff16815260200160088201805480602002602001604051908101604052809291908181526020018280548015611be557602002820191906000526020600020905b815481526020019060010190808311611bd1575b5050505050815260200160098201805480602002602001604051908101604052809291908181526020018280548015611c3d57602002820191906000526020600020905b815481526020019060010190808311611c29575b505050505081525050905060008211611c5557600080fd5b3373ffffffffffffffffffffffffffffffffffffffff168160e0015173ffffffffffffffffffffffffffffffffffffffff1614611c9157600080fd5b428160a0015111611ca157600080fd5b6000611cb38260c0015160058761259f565b9050611cc133876001612732565b611ccb8183612978565b601660008360c0015173ffffffffffffffffffffffffffffffffffffffff1673ffffffffffffffffffffffffffffffffffffffff16815260200190815260200160002081908060018154018082558091505060019003906000526020600020016000909190919091505580935050505092915050565b600033905090565b8151835114611d8d576040517f08c379a0000000000000000000000000000000000000000000000000000000008152600401611d849061510e565b60405180910390fd5b600073ffffffffffffffffffffffffffffffffffffffff168473ffffffffffffffffffffffffffffffffffffffff1603611dfc576040517f08c379a0000000000000000000000000000000000000000000000000000000008152600401611df3906151a0565b60405180910390fd5b6000611e06611d41565b9050611e16818787878787612ac1565b60005b8451811015611fc7576000858281518110611e3757611e36614d61565b5b602002602001015190506000858381518110611e5657611e55614d61565b5b60200260200101519050600080600084815260200190815260200160002060008b73ffffffffffffffffffffffffffffffffffffffff1673ffffffffffffffffffffffffffffffffffffffff16815260200190815260200160002054905081811015611ef7576040517f08c379a0000000000000000000000000000000000000000000000000000000008152600401611eee90615232565b60405180910390fd5b81810360008085815260200190815260200160002060008c73ffffffffffffffffffffffffffffffffffffffff1673ffffffffffffffffffffffffffffffffffffffff168152602001908152602001600020819055508160008085815260200190815260200160002060008b73ffffffffffffffffffffffffffffffffffffffff1673ffffffffffffffffffffffffffffffffffffffff1681526020019081526020016000206000828254611fac9190614dbf565b9250508190555050505080611fc090614e6f565b9050611e19565b508473ffffffffffffffffffffffffffffffffffffffff168673ffffffffffffffffffffffffffffffffffffffff168273ffffffffffffffffffffffffffffffffffffffff167f4a39dc06d4c0dbc64b70af90fd698a233a518aa5d07e595d983b8c0526c8f7fb878760405161203e929190615252565b60405180910390a4612054818787878787612c3c565b612062818787878787612c44565b505050505050565b8173ffffffffffffffffffffffffffffffffffffffff168373ffffffffffffffffffffffffffffffffffffffff16036120d8576040517f08c379a00000000000000000000000000000000000000000000000000000000081526004016120cf906152fb565b60405180910390fd5b80600160008573ffffffffffffffffffffffffffffffffffffffff1673ffffffffffffffffffffffffffffffffffffffff16815260200190815260200160002060008473ffffffffffffffffffffffffffffffffffffffff1673ffffffffffffffffffffffffffffffffffffffff16815260200190815260200160002060006101000a81548160ff0219169083151502179055508173ffffffffffffffffffffffffffffffffffffffff168373ffffffffffffffffffffffffffffffffffffffff167f17307eab39ab6107e8899845ad3d59bd9653f200f220920489ca2b5937696c31836040516121c991906139d1565b60405180910390a3505050565b6000806015600085815260200190815260200160002060003373ffffffffffffffffffffffffffffffffffffffff1673ffffffffffffffffffffffffffffffffffffffff168152602001908152602001600020541461223457600080fd5b60007f000000000000000000000000000000000000000000000000000000000000000073ffffffffffffffffffffffffffffffffffffffff16638fc92b0f856040518263ffffffff1660e01b815260040161228f9190613916565b600060405180830381865afa1580156122ac573d6000803e3d6000fd5b505050506040513d6000823e3d601f19601f820116820180604052508101906122d591906154d9565b50905060006122eb82610120015160048661259f565b90506122f981868433612e1b565b809250505092915050565b600073ffffffffffffffffffffffffffffffffffffffff168473ffffffffffffffffffffffffffffffffffffffff1603612373576040517f08c379a000000000000000000000000000000000000000000000000000000000815260040161236a906151a0565b60405180910390fd5b600061237d611d41565b9050600061238a85613167565b9050600061239785613167565b90506123a7838989858589612ac1565b600080600088815260200190815260200160002060008a73ffffffffffffffffffffffffffffffffffffffff1673ffffffffffffffffffffffffffffffffffffffff1681526020019081526020016000205490508581101561243e576040517f08c379a000000000000000000000000000000000000000000000000000000000815260040161243590615232565b60405180910390fd5b85810360008089815260200190815260200160002060008b73ffffffffffffffffffffffffffffffffffffffff1673ffffffffffffffffffffffffffffffffffffffff168152602001908152602001600020819055508560008089815260200190815260200160002060008a73ffffffffffffffffffffffffffffffffffffffff1673ffffffffffffffffffffffffffffffffffffffff16815260200190815260200160002060008282546124f39190614dbf565b925050819055508773ffffffffffffffffffffffffffffffffffffffff168973ffffffffffffffffffffffffffffffffffffffff168573ffffffffffffffffffffffffffffffffffffffff167fc3d58168c5ae7397731d063d5bbf3d657854427343f4c083240f7aacaa2d0f628a8a604051612570929190615551565b60405180910390a4612586848a8a86868a612c3c565b612594848a8a8a8a8a6131e1565b505050505050505050565b60006007826040516125b1919061557a565b908152602001604051809103902060009054906101000a900460ff161561260d576040517f08c379a0000000000000000000000000000000000000000000000000000000008152600401612604906155dd565b60405180910390fd5b6000612618846133b8565b905061266c858260016000368080601f016020809104026020016040519081016040528093929190818152602001838380828437600081840152601f19601f82011690508083019250505050505050613403565b61267681846135b3565b6001600784604051612688919061557a565b908152602001604051809103902060006101000a81548160ff021916908315150217905550809150509392505050565b600060405180602001604052808381525090506012819080600181540180825580915050600190039060005260206000200160009091909190915060008201518160000155505060128054905060136000600681526020019081526020016000206000848152602001908152602001600020819055505050565b600073ffffffffffffffffffffffffffffffffffffffff168373ffffffffffffffffffffffffffffffffffffffff16036127a1576040517f08c379a00000000000000000000000000000000000000000000000000000000081526004016127989061566f565b60405180910390fd5b60006127ab611d41565b905060006127b884613167565b905060006127c584613167565b90506127e583876000858560405180602001604052806000815250612ac1565b600080600087815260200190815260200160002060008873ffffffffffffffffffffffffffffffffffffffff1673ffffffffffffffffffffffffffffffffffffffff1681526020019081526020016000205490508481101561287c576040517f08c379a000000000000000000000000000000000000000000000000000000000815260040161287390615701565b60405180910390fd5b84810360008088815260200190815260200160002060008973ffffffffffffffffffffffffffffffffffffffff1673ffffffffffffffffffffffffffffffffffffffff16815260200190815260200160002081905550600073ffffffffffffffffffffffffffffffffffffffff168773ffffffffffffffffffffffffffffffffffffffff168573ffffffffffffffffffffffffffffffffffffffff167fc3d58168c5ae7397731d063d5bbf3d657854427343f4c083240f7aacaa2d0f628989604051612949929190615551565b60405180910390a461296f84886000868660405180602001604052806000815250612c3c565b50505050505050565b60006040518060a0016040528084815260200183604001518152602001836060015181526020018360800151815260200183610120015173__ArrayMath_____________________________63a8606b8290916040518263ffffffff1660e01b81526004016129e791906157b7565b602060405180830381865af4158015612a04573d6000803e3d6000fd5b505050506040513d601f19601f82011682018060405250810190612a289190614f17565b81525090506011819080600181540180825580915050600190039060005260206000209060050201600090919091909150600082015181600001556020820151816001015560408201518160020155606082015181600301556080820151816004015550506011805490506013600060058152602001908152602001600020600085815260200190815260200160002081905550505050565b612acf86868686868661361f565b600083519050600073ffffffffffffffffffffffffffffffffffffffff168673ffffffffffffffffffffffffffffffffffffffff1603612b925760005b818111612b90578560086000878481518110612b2b57612b2a614d61565b5b6020026020010151815260200190815260200160002060006101000a81548173ffffffffffffffffffffffffffffffffffffffff021916908373ffffffffffffffffffffffffffffffffffffffff16021790555080612b8990614e6f565b9050612b0c565b505b600073ffffffffffffffffffffffffffffffffffffffff168573ffffffffffffffffffffffffffffffffffffffff1603612c335760005b818111612c315760086000868381518110612be757612be6614d61565b5b6020026020010151815260200190815260200160002060006101000a81549073ffffffffffffffffffffffffffffffffffffffff021916905580612c2a90614e6f565b9050612bc9565b505b50505050505050565b505050505050565b612c638473ffffffffffffffffffffffffffffffffffffffff16613627565b15612e13578373ffffffffffffffffffffffffffffffffffffffff1663bc197c8187878686866040518663ffffffff1660e01b8152600401612ca995949392919061582e565b6020604051808303816000875af1925050508015612ce557506040513d601f19601f82011682018060405250810190612ce291906158ab565b60015b612d8a57612cf16158e5565b806308c379a003612d4d5750612d05615907565b80612d105750612d4f565b806040517f08c379a0000000000000000000000000000000000000000000000000000000008152600401612d449190613ab2565b60405180910390fd5b505b6040517f08c379a0000000000000000000000000000000000000000000000000000000008152600401612d8190615a09565b60405180910390fd5b63bc197c8160e01b7bffffffffffffffffffffffffffffffffffffffffffffffffffffffff1916817bffffffffffffffffffffffffffffffffffffffffffffffffffffffff191614612e11576040517f08c379a0000000000000000000000000000000000000000000000000000000008152600401612e0890615a9b565b60405180910390fd5b505b505050505050565b816101000151601460008581526020019081526020016000208054905010612e4257600080fd5b60006040518061014001604052808681526020018581526020018460200151815260200184604001518152602001846060015181526020018460c0015181526020018373ffffffffffffffffffffffffffffffffffffffff16815260200184610120015173ffffffffffffffffffffffffffffffffffffffff1681526020018460e0015181526020018460e001515167ffffffffffffffff811115612eea57612ee9613ad9565b5b604051908082528060200260200182016040528015612f185781602001602082028036833780820191505090505b50815250905060108190806001815401808255809150506001900390600052602060002090600a0201600090919091909150600082015181600001556020820151816001015560408201518160020155606082015181600301556080820151816004015560a0820151816005015560c08201518160060160006101000a81548173ffffffffffffffffffffffffffffffffffffffff021916908373ffffffffffffffffffffffffffffffffffffffff16021790555060e08201518160070160006101000a81548173ffffffffffffffffffffffffffffffffffffffff021916908373ffffffffffffffffffffffffffffffffffffffff16021790555061010082015181600801908051906020019061303192919061372f565b5061012082015181600901908051906020019061304f92919061372f565b50505060146000858152602001908152602001600020829080600181540180825580915050600190039060005260206000200160009091909190916101000a81548173ffffffffffffffffffffffffffffffffffffffff021916908373ffffffffffffffffffffffffffffffffffffffff160217905550601080549050601360006004815260200190815260200160002060008781526020019081526020016000208190555060146000858152602001908152602001600020805490506015600086815260200190815260200160002060008473ffffffffffffffffffffffffffffffffffffffff1673ffffffffffffffffffffffffffffffffffffffff168152602001908152602001600020819055505050505050565b60606000600167ffffffffffffffff81111561318657613185613ad9565b5b6040519080825280602002602001820160405280156131b45781602001602082028036833780820191505090505b50905082816000815181106131cc576131cb614d61565b5b60200260200101818152505080915050919050565b6132008473ffffffffffffffffffffffffffffffffffffffff16613627565b156133b0578373ffffffffffffffffffffffffffffffffffffffff1663f23a6e6187878686866040518663ffffffff1660e01b8152600401613246959493929190615abb565b6020604051808303816000875af192505050801561328257506040513d601f19601f8201168201806040525081019061327f91906158ab565b60015b6133275761328e6158e5565b806308c379a0036132ea57506132a2615907565b806132ad57506132ec565b806040517f08c379a00000000000000000000000000000000000000000000000000000000081526004016132e19190613ab2565b60405180910390fd5b505b6040517f08c379a000000000000000000000000000000000000000000000000000000000815260040161331e90615a09565b60405180910390fd5b63f23a6e6160e01b7bffffffffffffffffffffffffffffffffffffffffffffffffffffffff1916817bffffffffffffffffffffffffffffffffffffffffffffffffffffffff1916146133ae576040517f08c379a00000000000000000000000000000000000000000000000000000000081526004016133a590615a9b565b60405180910390fd5b505b505050505050565b60006133d56006600084815260200190815260200160002061364a565b60006133f260066000858152602001908152602001600020613660565b905080601084901b17915050919050565b600073ffffffffffffffffffffffffffffffffffffffff168473ffffffffffffffffffffffffffffffffffffffff1603613472576040517f08c379a000000000000000000000000000000000000000000000000000000000815260040161346990615b87565b60405180910390fd5b600061347c611d41565b9050600061348985613167565b9050600061349685613167565b90506134a783600089858589612ac1565b8460008088815260200190815260200160002060008973ffffffffffffffffffffffffffffffffffffffff1673ffffffffffffffffffffffffffffffffffffffff16815260200190815260200160002060008282546135069190614dbf565b925050819055508673ffffffffffffffffffffffffffffffffffffffff16600073ffffffffffffffffffffffffffffffffffffffff168473ffffffffffffffffffffffffffffffffffffffff167fc3d58168c5ae7397731d063d5bbf3d657854427343f4c083240f7aacaa2d0f628989604051613584929190615551565b60405180910390a461359b83600089858589612c3c565b6135aa836000898989896131e1565b50505050505050565b806004600084815260200190815260200160002090805190602001906135da92919061377c565b50817f6bb7ff708619ba0610cba295a58592e0451dee2622938c8755667688daf3529b61360684610731565b6040516136139190613ab2565b60405180910390a25050565b505050505050565b6000808273ffffffffffffffffffffffffffffffffffffffff163b119050919050565b6001816000016000828254019250508190555050565b600081600001549050919050565b604051806101400160405280600081526020016000815260200160008152602001600081526020016000815260200160008152602001600073ffffffffffffffffffffffffffffffffffffffff168152602001600073ffffffffffffffffffffffffffffffffffffffff16815260200160608152602001606081525090565b6040518060a0016040528060008152602001600081526020016000815260200160008152602001600081525090565b6040518060200160405280600081525090565b82805482825590600052602060002090810192821561376b579160200282015b8281111561376a57825182559160200191906001019061374f565b5b5090506137789190613802565b5090565b82805461378890614893565b90600052602060002090601f0160209004810192826137aa57600085556137f1565b82601f106137c357805160ff19168380011785556137f1565b828001600101855582156137f1579182015b828111156137f05782518255916020019190600101906137d5565b5b5090506137fe9190613802565b5090565b5b8082111561381b576000816000905550600101613803565b5090565b6000604051905090565b600080fd5b600080fd5b600073ffffffffffffffffffffffffffffffffffffffff82169050919050565b600061385e82613833565b9050919050565b61386e81613853565b811461387957600080fd5b50565b60008135905061388b81613865565b92915050565b6000819050919050565b6138a481613891565b81146138af57600080fd5b50565b6000813590506138c18161389b565b92915050565b600080604083850312156138de576138dd613829565b5b60006138ec8582860161387c565b92505060206138fd858286016138b2565b9150509250929050565b61391081613891565b82525050565b600060208201905061392b6000830184613907565b92915050565b60007fffffffff0000000000000000000000000000000000000000000000000000000082169050919050565b61396681613931565b811461397157600080fd5b50565b6000813590506139838161395d565b92915050565b60006020828403121561399f5761399e613829565b5b60006139ad84828501613974565b91505092915050565b60008115159050919050565b6139cb816139b6565b82525050565b60006020820190506139e660008301846139c2565b92915050565b600060208284031215613a0257613a01613829565b5b6000613a10848285016138b2565b91505092915050565b600081519050919050565b600082825260208201905092915050565b60005b83811015613a53578082015181840152602081019050613a38565b83811115613a62576000848401525b50505050565b6000601f19601f8301169050919050565b6000613a8482613a19565b613a8e8185613a24565b9350613a9e818560208601613a35565b613aa781613a68565b840191505092915050565b60006020820190508181036000830152613acc8184613a79565b905092915050565b600080fd5b7f4e487b7100000000000000000000000000000000000000000000000000000000600052604160045260246000fd5b613b1182613a68565b810181811067ffffffffffffffff82111715613b3057613b2f613ad9565b5b80604052505050565b6000613b4361381f565b9050613b4f8282613b08565b919050565b600067ffffffffffffffff821115613b6f57613b6e613ad9565b5b602082029050602081019050919050565b600080fd5b6000613b98613b9384613b54565b613b39565b90508083825260208201905060208402830185811115613bbb57613bba613b80565b5b835b81811015613be45780613bd088826138b2565b845260208401935050602081019050613bbd565b5050509392505050565b600082601f830112613c0357613c02613ad4565b5b8135613c13848260208601613b85565b91505092915050565b600080fd5b600067ffffffffffffffff821115613c3c57613c3b613ad9565b5b613c4582613a68565b9050602081019050919050565b82818337600083830152505050565b6000613c74613c6f84613c21565b613b39565b905082815260208101848484011115613c9057613c8f613c1c565b5b613c9b848285613c52565b509392505050565b600082601f830112613cb857613cb7613ad4565b5b8135613cc8848260208601613c61565b91505092915050565b60008060408385031215613ce857613ce7613829565b5b600083013567ffffffffffffffff811115613d0657613d0561382e565b5b613d1285828601613bee565b925050602083013567ffffffffffffffff811115613d3357613d3261382e565b5b613d3f85828601613ca3565b9150509250929050565b60008060408385031215613d6057613d5f613829565b5b6000613d6e858286016138b2565b925050602083013567ffffffffffffffff811115613d8f57613d8e61382e565b5b613d9b85828601613ca3565b9150509250929050565b600067ffffffffffffffff821115613dc057613dbf613ad9565b5b613dc982613a68565b9050602081019050919050565b6000613de9613de484613da5565b613b39565b905082815260208101848484011115613e0557613e04613c1c565b5b613e10848285613c52565b509392505050565b600082601f830112613e2d57613e2c613ad4565b5b8135613e3d848260208601613dd6565b91505092915050565b600080600080600060a08688031215613e6257613e61613829565b5b6000613e708882890161387c565b9550506020613e818882890161387c565b945050604086013567ffffffffffffffff811115613ea257613ea161382e565b5b613eae88828901613bee565b935050606086013567ffffffffffffffff811115613ecf57613ece61382e565b5b613edb88828901613bee565b925050608086013567ffffffffffffffff811115613efc57613efb61382e565b5b613f0888828901613e18565b9150509295509295909350565b600067ffffffffffffffff821115613f3057613f2f613ad9565b5b602082029050602081019050919050565b6000613f54613f4f84613f15565b613b39565b90508083825260208201905060208402830185811115613f7757613f76613b80565b5b835b81811015613fa05780613f8c888261387c565b845260208401935050602081019050613f79565b5050509392505050565b600082601f830112613fbf57613fbe613ad4565b5b8135613fcf848260208601613f41565b91505092915050565b60008060408385031215613fef57613fee613829565b5b600083013567ffffffffffffffff81111561400d5761400c61382e565b5b61401985828601613faa565b925050602083013567ffffffffffffffff81111561403a5761403961382e565b5b61404685828601613bee565b9150509250929050565b600081519050919050565b600082825260208201905092915050565b6000819050602082019050919050565b61408581613891565b82525050565b6000614097838361407c565b60208301905092915050565b6000602082019050919050565b60006140bb82614050565b6140c5818561405b565b93506140d08361406c565b8060005b838110156141015781516140e8888261408b565b97506140f3836140a3565b9250506001810190506140d4565b5085935050505092915050565b6000602082019050818103600083015261412881846140b0565b905092915050565b60008060006060848603121561414957614148613829565b5b6000614157868287016138b2565b935050602084013567ffffffffffffffff8111156141785761417761382e565b5b61418486828701613bee565b925050604084013567ffffffffffffffff8111156141a5576141a461382e565b5b6141b186828701613bee565b9150509250925092565b6141c481613853565b82525050565b600082825260208201905092915050565b60006141e682614050565b6141f081856141ca565b93506141fb8361406c565b8060005b8381101561422c578151614213888261408b565b975061421e836140a3565b9250506001810190506141ff565b5085935050505092915050565b600061014083016000830151614252600086018261407c565b506020830151614265602086018261407c565b506040830151614278604086018261407c565b50606083015161428b606086018261407c565b50608083015161429e608086018261407c565b5060a08301516142b160a086018261407c565b5060c08301516142c460c08601826141bb565b5060e08301516142d760e08601826141bb565b506101008301518482036101008601526142f182826141db565b91505061012083015184820361012086015261430d82826141db565b9150508091505092915050565b600060408201905081810360008301526143348185614239565b905081810360208301526143488184613a79565b90509392505050565b60a082016000820151614367600085018261407c565b50602082015161437a602085018261407c565b50604082015161438d604085018261407c565b5060608201516143a0606085018261407c565b5060808201516143b3608085018261407c565b50505050565b600060c0820190506143ce6000830185614351565b81810360a08301526143e08184613a79565b90509392505050565b6143f2816139b6565b81146143fd57600080fd5b50565b60008135905061440f816143e9565b92915050565b6000806040838503121561442c5761442b613829565b5b600061443a8582860161387c565b925050602061444b85828601614400565b9150509250929050565b60208201600082015161446b600085018261407c565b50505050565b60006040820190506144866000830185614455565b81810360208301526144988184613a79565b90509392505050565b600081519050919050565b600082825260208201905092915050565b6000819050602082019050919050565b60a0820160008201516144e3600085018261407c565b5060208201516144f6602085018261407c565b506040820151614509604085018261407c565b50606082015161451c606085018261407c565b50608082015161452f608085018261407c565b50505050565b600061454183836144cd565b60a08301905092915050565b6000602082019050919050565b6000614565826144a1565b61456f81856144ac565b935061457a836144bd565b8060005b838110156145ab5781516145928882614535565b975061459d8361454d565b92505060018101905061457e565b5085935050505092915050565b600081519050919050565b600082825260208201905092915050565b6000819050602082019050919050565b600082825260208201905092915050565b600061460082613a19565b61460a81856145e4565b935061461a818560208601613a35565b61462381613a68565b840191505092915050565b600061463a83836145f5565b905092915050565b6000602082019050919050565b600061465a826145b8565b61466481856145c3565b935083602082028501614676856145d4565b8060005b858110156146b25784840389528151614693858261462e565b945061469e83614642565b925060208a0199505060018101905061467a565b50829750879550505050505092915050565b600060408201905081810360008301526146de818561455a565b905081810360208301526146f2818461464f565b90509392505050565b6000806040838503121561471257614711613829565b5b60006147208582860161387c565b92505060206147318582860161387c565b9150509250929050565b600080600080600060a0868803121561475757614756613829565b5b60006147658882890161387c565b95505060206147768882890161387c565b9450506040614787888289016138b2565b9350506060614798888289016138b2565b925050608086013567ffffffffffffffff8111156147b9576147b861382e565b5b6147c588828901613e18565b9150509295509295909350565b7f455243313135353a2061646472657373207a65726f206973206e6f742061207660008201527f616c6964206f776e657200000000000000000000000000000000000000000000602082015250565b600061482e602a83613a24565b9150614839826147d2565b604082019050919050565b6000602082019050818103600083015261485d81614821565b9050919050565b7f4e487b7100000000000000000000000000000000000000000000000000000000600052602260045260246000fd5b600060028204905060018216806148ab57607f821691505b6020821081036148be576148bd614864565b5b50919050565b600081905092915050565b60008190508160005260206000209050919050565b600081546148f181614893565b6148fb81866148c4565b9450600182166000811461491657600181146149275761495a565b60ff1983168652818601935061495a565b614930856148cf565b60005b8381101561495257815481890152600182019150602081019050614933565b838801955050505b50505092915050565b600061496e82613a19565b61497881856148c4565b9350614988818560208601613a35565b80840191505092915050565b60006149a082856148e4565b91506149ac8284614963565b91508190509392505050565b7f4e487b7100000000000000000000000000000000000000000000000000000000600052602160045260246000fd5b6149f081613853565b82525050565b6000602082019050614a0b60008301846149e7565b92915050565b600081519050614a20816143e9565b92915050565b600081519050614a358161389b565b92915050565b60008060408385031215614a5257614a51613829565b5b6000614a6085828601614a11565b9250506020614a7185828601614a26565b9150509250929050565b600067ffffffffffffffff821115614a9657614a95613ad9565b5b602082029050602081019050919050565b600080fd5b600080fd5b600060408284031215614ac757614ac6614aa7565b5b614ad16040613b39565b90506000614ae184828501614a26565b6000830152506020614af584828501614a26565b60208301525092915050565b6000614b14614b0f84614a7b565b613b39565b90508083825260208201905060408402830185811115614b3757614b36613b80565b5b835b81811015614b605780614b4c8882614ab1565b845260208401935050604081019050614b39565b5050509392505050565b600082601f830112614b7f57614b7e613ad4565b5b8151614b8f848260208601614b01565b91505092915050565b600067ffffffffffffffff821115614bb357614bb2613ad9565b5b602082029050602081019050919050565b6000614bd7614bd284613c21565b613b39565b905082815260208101848484011115614bf357614bf2613c1c565b5b614bfe848285613a35565b509392505050565b600082601f830112614c1b57614c1a613ad4565b5b8151614c2b848260208601614bc4565b91505092915050565b6000614c47614c4284614b98565b613b39565b90508083825260208201905060208402830185811115614c6a57614c69613b80565b5b835b81811015614cb157805167ffffffffffffffff811115614c8f57614c8e613ad4565b5b808601614c9c8982614c06565b85526020850194505050602081019050614c6c565b5050509392505050565b600082601f830112614cd057614ccf613ad4565b5b8151614ce0848260208601614c34565b91505092915050565b60008060408385031215614d0057614cff613829565b5b600083015167ffffffffffffffff811115614d1e57614d1d61382e565b5b614d2a85828601614b6a565b925050602083015167ffffffffffffffff811115614d4b57614d4a61382e565b5b614d5785828601614cbb565b9150509250929050565b7f4e487b7100000000000000000000000000000000000000000000000000000000600052603260045260246000fd5b7f4e487b7100000000000000000000000000000000000000000000000000000000600052601160045260246000fd5b6000614dca82613891565b9150614dd583613891565b9250827fffffffffffffffffffffffffffffffffffffffffffffffffffffffffffffffff03821115614e0a57614e09614d90565b5b828201905092915050565b6000614e2082613891565b9150614e2b83613891565b9250817fffffffffffffffffffffffffffffffffffffffffffffffffffffffffffffffff0483118215151615614e6457614e63614d90565b5b828202905092915050565b6000614e7a82613891565b91507fffffffffffffffffffffffffffffffffffffffffffffffffffffffffffffffff8203614eac57614eab614d90565b5b600182019050919050565b7f4e487b7100000000000000000000000000000000000000000000000000000000600052601260045260246000fd5b6000614ef182613891565b9150614efc83613891565b925082614f0c57614f0b614eb7565b5b828204905092915050565b600060208284031215614f2d57614f2c613829565b5b6000614f3b84828501614a26565b91505092915050565b7f455243313135353a2063616c6c6572206973206e6f7420746f6b656e206f776e60008201527f6572206f7220617070726f766564000000000000000000000000000000000000602082015250565b6000614fa0602e83613a24565b9150614fab82614f44565b604082019050919050565b60006020820190508181036000830152614fcf81614f93565b9050919050565b7f455243313135353a206163636f756e747320616e6420696473206c656e67746860008201527f206d69736d617463680000000000000000000000000000000000000000000000602082015250565b6000615032602983613a24565b915061503d82614fd6565b604082019050919050565b6000602082019050818103600083015261506181615025565b9050919050565b600061507382613891565b915061507e83613891565b92508282101561509157615090614d90565b5b828203905092915050565b7f455243313135353a2069647320616e6420616d6f756e7473206c656e6774682060008201527f6d69736d61746368000000000000000000000000000000000000000000000000602082015250565b60006150f8602883613a24565b91506151038261509c565b604082019050919050565b60006020820190508181036000830152615127816150eb565b9050919050565b7f455243313135353a207472616e7366657220746f20746865207a65726f20616460008201527f6472657373000000000000000000000000000000000000000000000000000000602082015250565b600061518a602583613a24565b91506151958261512e565b604082019050919050565b600060208201905081810360008301526151b98161517d565b9050919050565b7f455243313135353a20696e73756666696369656e742062616c616e636520666f60008201527f72207472616e7366657200000000000000000000000000000000000000000000602082015250565b600061521c602a83613a24565b9150615227826151c0565b604082019050919050565b6000602082019050818103600083015261524b8161520f565b9050919050565b6000604082019050818103600083015261526c81856140b0565b9050818103602083015261528081846140b0565b90509392505050565b7f455243313135353a2073657474696e6720617070726f76616c2073746174757360008201527f20666f722073656c660000000000000000000000000000000000000000000000602082015250565b60006152e5602983613a24565b91506152f082615289565b604082019050919050565b60006020820190508181036000830152615314816152d8565b9050919050565b600061532e61532984613b54565b613b39565b9050808382526020820190506020840283018581111561535157615350613b80565b5b835b8181101561537a57806153668882614a26565b845260208401935050602081019050615353565b5050509392505050565b600082601f83011261539957615398613ad4565b5b81516153a984826020860161531b565b91505092915050565b6000815190506153c181613865565b92915050565b600061014082840312156153de576153dd614aa7565b5b6153e9610140613b39565b905060006153f984828501614a26565b600083015250602061540d84828501614a26565b602083015250604061542184828501614a26565b604083015250606061543584828501614a26565b606083015250608061544984828501614a26565b60808301525060a061545d84828501614a26565b60a08301525060c061547184828501614a26565b60c08301525060e082015167ffffffffffffffff81111561549557615494614aac565b5b6154a184828501615384565b60e0830152506101006154b684828501614a26565b610100830152506101206154cc848285016153b2565b6101208301525092915050565b600080604083850312156154f0576154ef613829565b5b600083015167ffffffffffffffff81111561550e5761550d61382e565b5b61551a858286016153c7565b925050602083015167ffffffffffffffff81111561553b5761553a61382e565b5b61554785828601614c06565b9150509250929050565b60006040820190506155666000830185613907565b6155736020830184613907565b9392505050565b60006155868284614963565b915081905092915050565b7f55524920686173206265656e2075736564000000000000000000000000000000600082015250565b60006155c7601183613a24565b91506155d282615591565b602082019050919050565b600060208201905081810360008301526155f6816155ba565b9050919050565b7f455243313135353a206275726e2066726f6d20746865207a65726f206164647260008201527f6573730000000000000000000000000000000000000000000000000000000000602082015250565b6000615659602383613a24565b9150615664826155fd565b604082019050919050565b600060208201905081810360008301526156888161564c565b9050919050565b7f455243313135353a206275726e20616d6f756e7420657863656564732062616c60008201527f616e636500000000000000000000000000000000000000000000000000000000602082015250565b60006156eb602483613a24565b91506156f68261568f565b604082019050919050565b6000602082019050818103600083015261571a816156de565b9050919050565b600082825260208201905092915050565b61573b81613891565b82525050565b600061574d8383615732565b60208301905092915050565b600061576482614050565b61576e8185615721565b93506157798361406c565b8060005b838110156157aa5781516157918882615741565b975061579c836140a3565b92505060018101905061577d565b5085935050505092915050565b600060208201905081810360008301526157d18184615759565b905092915050565b600081519050919050565b600082825260208201905092915050565b6000615800826157d9565b61580a81856157e4565b935061581a818560208601613a35565b61582381613a68565b840191505092915050565b600060a08201905061584360008301886149e7565b61585060208301876149e7565b818103604083015261586281866140b0565b9050818103606083015261587681856140b0565b9050818103608083015261588a81846157f5565b90509695505050505050565b6000815190506158a58161395d565b92915050565b6000602082840312156158c1576158c0613829565b5b60006158cf84828501615896565b91505092915050565b60008160e01c9050919050565b600060033d11156159045760046000803e6159016000516158d8565b90505b90565b600060443d106159945761591961381f565b60043d036004823e80513d602482011167ffffffffffffffff82111715615941575050615994565b808201805167ffffffffffffffff81111561595f5750505050615994565b80602083010160043d03850181111561597c575050505050615994565b61598b82602001850186613b08565b82955050505050505b90565b7f455243313135353a207472616e7366657220746f206e6f6e2d4552433131353560008201527f526563656976657220696d706c656d656e746572000000000000000000000000602082015250565b60006159f3603483613a24565b91506159fe82615997565b604082019050919050565b60006020820190508181036000830152615a22816159e6565b9050919050565b7f455243313135353a204552433131353552656365697665722072656a6563746560008201527f6420746f6b656e73000000000000000000000000000000000000000000000000602082015250565b6000615a85602883613a24565b9150615a9082615a29565b604082019050919050565b60006020820190508181036000830152615ab481615a78565b9050919050565b600060a082019050615ad060008301886149e7565b615add60208301876149e7565b615aea6040830186613907565b615af76060830185613907565b8181036080830152615b0981846157f5565b90509695505050505050565b7f455243313135353a206d696e7420746f20746865207a65726f2061646472657360008201527f7300000000000000000000000000000000000000000000000000000000000000602082015250565b6000615b71602183613a24565b9150615b7c82615b15565b604082019050919050565b60006020820190508181036000830152615ba081615b64565b905091905056fea264697066735822122016980ca0998fe59bc23f7565f375e512c40db1b4c4aed4769ebd23f73335046164736f6c634300080d0033",
  "immutableReferences": {
    "3290": [
      {
        "length": 32,
        "start": 2095
      },
      {
        "length": 32,
        "start": 3267
      },
      {
        "length": 32,
        "start": 3933
      }
    ],
    "3293": [
      {
        "length": 32,
        "start": 2371
      },
      {
        "length": 32,
        "start": 3061
      },
      {
        "length": 32,
        "start": 8760
      }
    ]
  },
  "source": "// SPDX-License-Identifier: MIT\r\n// Tells the Solidity compiler to compile only from v0.8.13 to v0.9.0\r\npragma solidity ^0.8.13;\r\n\r\nimport \"./ERC1155BaseContract.sol\";\r\nimport \"./interfaces/INftSchool.sol\";\r\nimport \"./interfaces/INftCertificates.sol\";\r\nimport \"./interfaces/INftIdentities.sol\";\r\nimport \"./utils/ArrayMath.sol\";\r\n\r\n/*\r\n    - Register class -> NftScoreboard\r\n    - Exchange Nft Complete Course\r\n    - Exchange Nft Graduation\r\n*/\r\ncontract NftCertificates is ERC1155BaseContract, INftCertificates {\r\n    using Counters for Counters.Counter;\r\n    using ArrayMath for uint256[];\r\n    uint256 constant NFT_CLASS = 3;\r\n    uint256 constant NFT_SCORE_BOARD = 4;\r\n    uint256 constant NFT_COMPLETE_COURSE = 5;\r\n    uint256 constant NFT_GRADUATION = 6;\r\n\r\n    uint256 public registeredPrice = 1 ether;\r\n    uint256 public graduationPrice = 1 ether;\r\n\r\n    string[] private courseURIs;\r\n\r\n    INftIdentities private immutable _nftIdentities;\r\n    INftSchool private immutable _nftSchool;\r\n\r\n    uint256 public schoolYearEnd;\r\n    uint256 public registeredStartAt;\r\n    uint256 public registeredEndAt;\r\n    uint256 public yearId;\r\n\r\n    NftScoreBoard[] private _allNftScoreBoards;\r\n    NftCompleteCourse[] private _allNftCompleteCourses;\r\n    NftGraduation[] private _allNftGraduations;\r\n    mapping(uint256 => mapping(uint256 => uint256)) _posOfTokenIdOfNftType;\r\n\r\n    mapping(uint256 => address[]) _studentsOfClass;\r\n    mapping(uint256 => mapping(address => uint256)) _posOfStudentInClass;\r\n    mapping(address => uint256[]) private _studentOwnedCompleteCourseNfts;\r\n    mapping(address => uint256) private _studentOwnedNftGraduation;\r\n\r\n    modifier onlyOwner() {\r\n        require(_owner == msg.sender);\r\n        _;\r\n    }\r\n\r\n    modifier afterYearEnd() {\r\n        require(block.timestamp > schoolYearEnd);\r\n        _;\r\n    }\r\n\r\n    modifier canOperate(uint256 role) {\r\n        (bool isDeposited, uint256 __role) = _nftIdentities.isAbleToOperate(\r\n            msg.sender\r\n        );\r\n        require(isDeposited && role == __role);\r\n        _;\r\n    }\r\n\r\n    constructor(\r\n        address nftIdentities,\r\n        address nftSchool\r\n    ) ERC1155BaseContract(\"\") {\r\n        _nftIdentities = INftIdentities(nftIdentities);\r\n        _nftSchool = INftSchool(nftSchool);\r\n        schoolYearEnd = block.timestamp;\r\n    }\r\n\r\n    /*\r\n        Initialize requirement before any operation in the system including\r\n        - Requirement\r\n        - Course template\r\n    */\r\n\r\n    // (everyone)\r\n    function getOwnedNftCompleteCourse()\r\n        external\r\n        view\r\n        returns (NftCompleteCourse[] memory, string[] memory)\r\n    {\r\n        uint256 numberOfNftCompleteCourses = _studentOwnedCompleteCourseNfts[\r\n            msg.sender\r\n        ].length;\r\n        require(numberOfNftCompleteCourses > 0);\r\n\r\n        NftCompleteCourse[] memory nfts = new NftCompleteCourse[](\r\n            numberOfNftCompleteCourses\r\n        );\r\n        string[] memory nftURIs = new string[](numberOfNftCompleteCourses);\r\n\r\n        for (uint256 idx = 0; idx <= numberOfNftCompleteCourses; ++idx) {\r\n            (nfts[idx], nftURIs[idx]) = getNftCompleteCourse(\r\n                _studentOwnedCompleteCourseNfts[msg.sender][idx]\r\n            );\r\n        }\r\n\r\n        return (nfts, nftURIs);\r\n    }\r\n\r\n    function getNftCompleteCourse(\r\n        uint256 tokenId\r\n    ) public view returns (NftCompleteCourse memory, string memory) {\r\n        uint256 pos = _posOfTokenIdOfNftType[NFT_COMPLETE_COURSE][tokenId];\r\n        require(pos > 0);\r\n\r\n        return (_allNftCompleteCourses[pos - 1], uri(tokenId));\r\n    }\r\n\r\n    function getOwnedNftGraduation()\r\n        external\r\n        view\r\n        returns (NftGraduation memory, string memory)\r\n    {\r\n        uint256 tokenId = _studentOwnedNftGraduation[msg.sender];\r\n\r\n        return getNftGraduation(tokenId);\r\n    }\r\n\r\n    function getNftGraduation(\r\n        uint256 tokenId\r\n    ) public view returns (NftGraduation memory, string memory) {\r\n        uint256 pos = _posOfTokenIdOfNftType[NFT_GRADUATION][tokenId];\r\n        require(pos > 0);\r\n\r\n        return (_allNftGraduations[pos - 1], uri(tokenId));\r\n    }\r\n\r\n    function getNftScoreBoard(\r\n        uint256 tokenId\r\n    ) public view returns (NftScoreBoard memory, string memory) {\r\n        uint256 pos = _posOfTokenIdOfNftType[NFT_SCORE_BOARD][tokenId];\r\n        require(pos > 0);\r\n\r\n        return (_allNftScoreBoards[pos - 1], uri(tokenId));\r\n    }\r\n\r\n    function registerClass(\r\n        uint256 classId,\r\n        string memory tokenURI\r\n    ) public payable {\r\n        require(msg.value == registeredPrice);\r\n        _mintNftScoreBoard(classId, tokenURI);\r\n    }\r\n\r\n    function updateScores(\r\n        uint256 scoreBoardId,\r\n        uint256[] memory requireScore,\r\n        uint256[] memory scores\r\n    ) public canOperate(uint256(ROLE.TEACHER)) {\r\n        // Require time to update\r\n        uint256 pos = _posOfTokenIdOfNftType[NFT_SCORE_BOARD][scoreBoardId];\r\n        require(pos > 0);\r\n        require(_allNftScoreBoards[pos - 1].completeAt < block.timestamp);\r\n        require(_allNftScoreBoards[pos - 1].teacherAddr == msg.sender);\r\n        uint256 scoreLength = requireScore.length;\r\n\r\n        for (uint256 idx = 0; idx < scoreLength; ++idx) {\r\n            _allNftScoreBoards[pos - 1].scores[requireScore[idx]] = scores[idx];\r\n        }\r\n    }\r\n\r\n    function exchangeCompleteCourse(\r\n        uint256 scoreBoardId,\r\n        string memory tokenURI\r\n    ) public payable canOperate(uint256(ROLE.TEACHER)) {\r\n        _mintNftCompleteCourse(scoreBoardId, tokenURI);\r\n    }\r\n\r\n    function exchangeGraduation(\r\n        uint256[] memory nftCompleteCourseIds,\r\n        string memory tokenURI\r\n    ) public payable canOperate(uint256(ROLE.STUDENT)) {\r\n        require(msg.value == graduationPrice);\r\n        require(_studentOwnedNftGraduation[msg.sender] == 0);\r\n        uint256 numOfCompleteCourses = nftCompleteCourseIds.length;\r\n        (NftRequirement[] memory nftRequirements, ) = _nftSchool\r\n            .getAllNftRequirements();\r\n        uint256 numOfRequirements = nftRequirements.length;\r\n        uint256[] memory acquiredCreditsByRequirementId = new uint256[](\r\n            numOfRequirements\r\n        );\r\n        uint256 acquiredCredits;\r\n        uint256 totalScore;\r\n\r\n        for (uint256 idx = 0; idx < numOfCompleteCourses; ++idx) {\r\n            if (_ownerOfNft[nftCompleteCourseIds[idx]] != msg.sender) {\r\n                revert();\r\n            }\r\n            (\r\n                NftCompleteCourse memory nftCompleteCourse,\r\n\r\n            ) = getNftCompleteCourse(nftCompleteCourseIds[idx]);\r\n            acquiredCreditsByRequirementId[\r\n                nftCompleteCourse.requirementId\r\n            ] += nftCompleteCourse.credits;\r\n            acquiredCredits += nftCompleteCourse.credits;\r\n            totalScore += (nftCompleteCourse.avgScore *\r\n                nftCompleteCourse.credits);\r\n        }\r\n\r\n        for (uint256 idx = 0; idx < numOfRequirements; ++idx) {\r\n            if (\r\n                acquiredCreditsByRequirementId[nftRequirements[idx].tokenId] <\r\n                nftRequirements[idx].credits\r\n            ) {\r\n                revert();\r\n            }\r\n        }\r\n\r\n        uint256 avgScore = totalScore / acquiredCredits;\r\n        if (avgScore <= _nftSchool.minimumGraduationScore()) {\r\n            revert();\r\n        }\r\n\r\n        _mintNftGraduation(tokenURI);\r\n    }\r\n\r\n    // (everyone)\r\n\r\n    // onlyOwner\r\n    function _beforeTokenTransfer(\r\n        address operator,\r\n        address from,\r\n        address to,\r\n        uint256[] memory ids,\r\n        uint256[] memory amounts,\r\n        bytes memory data\r\n    ) internal virtual override {\r\n        super._beforeTokenTransfer(operator, from, to, ids, amounts, data);\r\n        uint256 numberOfTokens = ids.length;\r\n\r\n        if (from == address(0)) {\r\n            // mint token\r\n            for (uint256 idx = 0; idx <= numberOfTokens; ++idx) {\r\n                _ownerOfNft[ids[idx]] = to;\r\n            }\r\n        }\r\n\r\n        if (to == address(0)) {\r\n            // burn token\r\n            for (uint256 idx = 0; idx <= numberOfTokens; ++idx) {\r\n                delete _ownerOfNft[ids[idx]];\r\n            }\r\n        }\r\n    }\r\n\r\n    function _mintNftScoreBoard(\r\n        uint256 classId,\r\n        string memory tokenURI\r\n    ) private returns (uint256) {\r\n        require(_posOfStudentInClass[classId][msg.sender] == 0);\r\n        (NftClass memory classInfo, ) = _nftSchool.getNftClass(classId);\r\n        uint256 tokenId = _mintToken(\r\n            classInfo.teacherAddr,\r\n            NFT_SCORE_BOARD,\r\n            tokenURI\r\n        );\r\n        _createNftScoreBoard(tokenId, classId, classInfo, msg.sender);\r\n\r\n        return tokenId;\r\n    }\r\n\r\n    function _createNftScoreBoard(\r\n        uint256 tokenId,\r\n        uint256 classId,\r\n        NftClass memory classInfo,\r\n        address studentAddr\r\n    ) private {\r\n        // TODO: position of student in class = 0\r\n        require(_studentsOfClass[classId].length < classInfo.maxSize);\r\n        NftScoreBoard memory nftScoreBoard = NftScoreBoard(\r\n            tokenId,\r\n            classId,\r\n            classInfo.courseTemplateId,\r\n            classInfo.requirementId,\r\n            classInfo.credits,\r\n            classInfo.completeAt,\r\n            studentAddr,\r\n            classInfo.teacherAddr,\r\n            classInfo.requiredScore,\r\n            new uint256[](classInfo.requiredScore.length)\r\n        );\r\n        _allNftScoreBoards.push(nftScoreBoard);\r\n        _studentsOfClass[classId].push(studentAddr);\r\n        _posOfTokenIdOfNftType[NFT_SCORE_BOARD][tokenId] = _allNftScoreBoards\r\n            .length;\r\n        _posOfStudentInClass[classId][studentAddr] = _studentsOfClass[classId]\r\n            .length;\r\n    }\r\n\r\n    function _mintNftCompleteCourse(\r\n        uint256 scoreBoardId,\r\n        string memory tokenURI\r\n    ) private returns (uint256) {\r\n        uint256 scoreBoardPos = _posOfTokenIdOfNftType[NFT_SCORE_BOARD][\r\n            scoreBoardId\r\n        ];\r\n        NftScoreBoard memory nftScoreBoard = _allNftScoreBoards[\r\n            scoreBoardId - 1\r\n        ];\r\n        require(scoreBoardPos > 0);\r\n        require(nftScoreBoard.teacherAddr == msg.sender);\r\n        require(nftScoreBoard.completeAt > block.timestamp);\r\n        uint256 tokenId = _mintToken(\r\n            nftScoreBoard.studentAddr,\r\n            NFT_COMPLETE_COURSE,\r\n            tokenURI\r\n        );\r\n        _burn(msg.sender, scoreBoardId, ONE_NFT);\r\n        _createNftCompleteCourse(tokenId, nftScoreBoard);\r\n        _studentOwnedCompleteCourseNfts[nftScoreBoard.studentAddr].push(\r\n            tokenId\r\n        );\r\n\r\n        return tokenId;\r\n    }\r\n\r\n    function _createNftCompleteCourse(\r\n        uint256 tokenId,\r\n        NftScoreBoard memory nftScoreBoard\r\n    ) private {\r\n        // TODO: transfer from nft scoreboard to this\r\n        NftCompleteCourse memory nftCompleteCourse = NftCompleteCourse(\r\n            tokenId,\r\n            nftScoreBoard.courseTemplateId,\r\n            nftScoreBoard.requirementId,\r\n            nftScoreBoard.credits,\r\n            nftScoreBoard.scores.average()\r\n        );\r\n        _allNftCompleteCourses.push(nftCompleteCourse);\r\n        _posOfTokenIdOfNftType[NFT_COMPLETE_COURSE][\r\n            tokenId\r\n        ] = _allNftCompleteCourses.length;\r\n    }\r\n\r\n    function _mintNftGraduation(\r\n        string memory tokenURI\r\n    ) private returns (uint256) {\r\n        uint256 tokenId = _mintToken(msg.sender, NFT_GRADUATION, tokenURI);\r\n        _createNftGraduation(tokenId);\r\n        _studentOwnedNftGraduation[msg.sender] = tokenId;\r\n\r\n        return tokenId;\r\n    }\r\n\r\n    function _createNftGraduation(uint256 tokenId) private {\r\n        NftGraduation memory nftGraduation = NftGraduation(tokenId);\r\n        _allNftGraduations.push(nftGraduation);\r\n        _posOfTokenIdOfNftType[NFT_GRADUATION][tokenId] = _allNftGraduations\r\n            .length;\r\n    }\r\n}\r\n",
  "sourcePath": "E:\\learn\\learn-to-earn\\contracts\\NftCertificates.sol",
  "compiler": {
    "name": "solc",
    "version": "0.8.13+commit.abaa5c0e.Emscripten.clang"
  },
  "schemaVersion": "3.4.11",
  "updatedAt": "2023-03-14T06:04:41.449Z",
  "devdoc": {
    "kind": "dev",
    "methods": {
      "balanceOf(address,uint256)": {
        "details": "See {IERC1155-balanceOf}. Requirements: - `account` cannot be the zero address."
      },
      "balanceOfBatch(address[],uint256[])": {
        "details": "See {IERC1155-balanceOfBatch}. Requirements: - `accounts` and `ids` must have the same length."
      },
      "isApprovedForAll(address,address)": {
        "details": "See {IERC1155-isApprovedForAll}."
      },
      "safeBatchTransferFrom(address,address,uint256[],uint256[],bytes)": {
        "details": "See {IERC1155-safeBatchTransferFrom}."
      },
      "safeTransferFrom(address,address,uint256,uint256,bytes)": {
        "details": "See {IERC1155-safeTransferFrom}."
      },
      "setApprovalForAll(address,bool)": {
        "details": "See {IERC1155-setApprovalForAll}."
      },
      "supportsInterface(bytes4)": {
        "details": "See {IERC165-supportsInterface}."
      },
      "uri(uint256)": {
        "details": "See {IERC1155MetadataURI-uri}. This implementation returns the concatenation of the `_baseURI` and the token-specific uri if the latter is set This enables the following behaviors: - if `_tokenURIs[tokenId]` is set, then the result is the concatenation   of `_baseURI` and `_tokenURIs[tokenId]` (keep in mind that `_baseURI`   is empty per default); - if `_tokenURIs[tokenId]` is NOT set then we fallback to `super.uri()`   which in most cases will contain `ERC1155._uri`; - if `_tokenURIs[tokenId]` is NOT set, and if the parents do not have a   uri value set, then the result is empty."
      }
    },
    "version": 1
  },
  "userdoc": {
    "kind": "user",
    "methods": {},
    "version": 1
  }
}