{
  "contractName": "NftCourse",
  "abi": [
    {
      "inputs": [
        {
          "internalType": "contract School",
          "name": "schoolContract",
          "type": "address"
        }
      ],
      "stateMutability": "nonpayable",
      "type": "constructor"
    },
    {
      "anonymous": false,
      "inputs": [
        {
          "indexed": true,
          "internalType": "address",
          "name": "owner",
          "type": "address"
        },
        {
          "indexed": true,
          "internalType": "address",
          "name": "approved",
          "type": "address"
        },
        {
          "indexed": true,
          "internalType": "uint256",
          "name": "tokenId",
          "type": "uint256"
        }
      ],
      "name": "Approval",
      "type": "event"
    },
    {
      "anonymous": false,
      "inputs": [
        {
          "indexed": true,
          "internalType": "address",
          "name": "owner",
          "type": "address"
        },
        {
          "indexed": true,
          "internalType": "address",
          "name": "operator",
          "type": "address"
        },
        {
          "indexed": false,
          "internalType": "bool",
          "name": "approved",
          "type": "bool"
        }
      ],
      "name": "ApprovalForAll",
      "type": "event"
    },
    {
      "anonymous": false,
      "inputs": [
        {
          "indexed": true,
          "internalType": "address",
          "name": "previousOwner",
          "type": "address"
        },
        {
          "indexed": true,
          "internalType": "address",
          "name": "newOwner",
          "type": "address"
        }
      ],
      "name": "OwnershipTransferred",
      "type": "event"
    },
    {
      "anonymous": false,
      "inputs": [
        {
          "indexed": true,
          "internalType": "address",
          "name": "from",
          "type": "address"
        },
        {
          "indexed": true,
          "internalType": "address",
          "name": "to",
          "type": "address"
        },
        {
          "indexed": true,
          "internalType": "uint256",
          "name": "tokenId",
          "type": "uint256"
        }
      ],
      "name": "Transfer",
      "type": "event"
    },
    {
      "inputs": [
        {
          "internalType": "address",
          "name": "to",
          "type": "address"
        },
        {
          "internalType": "uint256",
          "name": "tokenId",
          "type": "uint256"
        }
      ],
      "name": "approve",
      "outputs": [],
      "stateMutability": "nonpayable",
      "type": "function"
    },
    {
      "inputs": [
        {
          "internalType": "address",
          "name": "owner",
          "type": "address"
        }
      ],
      "name": "balanceOf",
      "outputs": [
        {
          "internalType": "uint256",
          "name": "",
          "type": "uint256"
        }
      ],
      "stateMutability": "view",
      "type": "function",
      "constant": true
    },
    {
      "inputs": [
        {
          "internalType": "uint256",
          "name": "tokenId",
          "type": "uint256"
        }
      ],
      "name": "getApproved",
      "outputs": [
        {
          "internalType": "address",
          "name": "",
          "type": "address"
        }
      ],
      "stateMutability": "view",
      "type": "function",
      "constant": true
    },
    {
      "inputs": [
        {
          "internalType": "address",
          "name": "owner",
          "type": "address"
        },
        {
          "internalType": "address",
          "name": "operator",
          "type": "address"
        }
      ],
      "name": "isApprovedForAll",
      "outputs": [
        {
          "internalType": "bool",
          "name": "",
          "type": "bool"
        }
      ],
      "stateMutability": "view",
      "type": "function",
      "constant": true
    },
    {
      "inputs": [],
      "name": "name",
      "outputs": [
        {
          "internalType": "string",
          "name": "",
          "type": "string"
        }
      ],
      "stateMutability": "view",
      "type": "function",
      "constant": true
    },
    {
      "inputs": [],
      "name": "owner",
      "outputs": [
        {
          "internalType": "address",
          "name": "",
          "type": "address"
        }
      ],
      "stateMutability": "view",
      "type": "function",
      "constant": true
    },
    {
      "inputs": [
        {
          "internalType": "uint256",
          "name": "tokenId",
          "type": "uint256"
        }
      ],
      "name": "ownerOf",
      "outputs": [
        {
          "internalType": "address",
          "name": "",
          "type": "address"
        }
      ],
      "stateMutability": "view",
      "type": "function",
      "constant": true
    },
    {
      "inputs": [],
      "name": "renounceOwnership",
      "outputs": [],
      "stateMutability": "nonpayable",
      "type": "function"
    },
    {
      "inputs": [
        {
          "internalType": "address",
          "name": "from",
          "type": "address"
        },
        {
          "internalType": "address",
          "name": "to",
          "type": "address"
        },
        {
          "internalType": "uint256",
          "name": "tokenId",
          "type": "uint256"
        }
      ],
      "name": "safeTransferFrom",
      "outputs": [],
      "stateMutability": "nonpayable",
      "type": "function"
    },
    {
      "inputs": [
        {
          "internalType": "address",
          "name": "from",
          "type": "address"
        },
        {
          "internalType": "address",
          "name": "to",
          "type": "address"
        },
        {
          "internalType": "uint256",
          "name": "tokenId",
          "type": "uint256"
        },
        {
          "internalType": "bytes",
          "name": "data",
          "type": "bytes"
        }
      ],
      "name": "safeTransferFrom",
      "outputs": [],
      "stateMutability": "nonpayable",
      "type": "function"
    },
    {
      "inputs": [
        {
          "internalType": "address",
          "name": "operator",
          "type": "address"
        },
        {
          "internalType": "bool",
          "name": "approved",
          "type": "bool"
        }
      ],
      "name": "setApprovalForAll",
      "outputs": [],
      "stateMutability": "nonpayable",
      "type": "function"
    },
    {
      "inputs": [
        {
          "internalType": "bytes4",
          "name": "interfaceId",
          "type": "bytes4"
        }
      ],
      "name": "supportsInterface",
      "outputs": [
        {
          "internalType": "bool",
          "name": "",
          "type": "bool"
        }
      ],
      "stateMutability": "view",
      "type": "function",
      "constant": true
    },
    {
      "inputs": [],
      "name": "symbol",
      "outputs": [
        {
          "internalType": "string",
          "name": "",
          "type": "string"
        }
      ],
      "stateMutability": "view",
      "type": "function",
      "constant": true
    },
    {
      "inputs": [
        {
          "internalType": "uint256",
          "name": "tokenId",
          "type": "uint256"
        }
      ],
      "name": "tokenURI",
      "outputs": [
        {
          "internalType": "string",
          "name": "",
          "type": "string"
        }
      ],
      "stateMutability": "view",
      "type": "function",
      "constant": true
    },
    {
      "inputs": [
        {
          "internalType": "address",
          "name": "from",
          "type": "address"
        },
        {
          "internalType": "address",
          "name": "to",
          "type": "address"
        },
        {
          "internalType": "uint256",
          "name": "tokenId",
          "type": "uint256"
        }
      ],
      "name": "transferFrom",
      "outputs": [],
      "stateMutability": "nonpayable",
      "type": "function"
    },
    {
      "inputs": [
        {
          "internalType": "address",
          "name": "newOwner",
          "type": "address"
        }
      ],
      "name": "transferOwnership",
      "outputs": [],
      "stateMutability": "nonpayable",
      "type": "function"
    },
    {
      "inputs": [
        {
          "internalType": "uint256",
          "name": "tokenId",
          "type": "uint256"
        }
      ],
      "name": "getNftCourse",
      "outputs": [
        {
          "components": [
            {
              "internalType": "uint256",
              "name": "tokenId",
              "type": "uint256"
            },
            {
              "internalType": "string",
              "name": "studentId",
              "type": "string"
            },
            {
              "internalType": "uint256",
              "name": "courseId",
              "type": "uint256"
            }
          ],
          "internalType": "struct NftCourse.NftItem",
          "name": "",
          "type": "tuple"
        }
      ],
      "stateMutability": "view",
      "type": "function",
      "constant": true
    }
  ],
  "bytecode": "0x60a06040523480156200001157600080fd5b5060405162002dba38038062002dba83398181016040528101906200003791906200032e565b6040518060400160405280600981526020017f436f757273654e465400000000000000000000000000000000000000000000008152506040518060400160405280600481526020017f434e4654000000000000000000000000000000000000000000000000000000008152508160009080519060200190620000bb92919062000200565b508060019080519060200190620000d492919062000200565b505050620000f7620000eb6200013260201b60201c565b6200013a60201b60201c565b8073ffffffffffffffffffffffffffffffffffffffff1660808173ffffffffffffffffffffffffffffffffffffffff168152505050620003c4565b600033905090565b6000600760009054906101000a900473ffffffffffffffffffffffffffffffffffffffff16905081600760006101000a81548173ffffffffffffffffffffffffffffffffffffffff021916908373ffffffffffffffffffffffffffffffffffffffff1602179055508173ffffffffffffffffffffffffffffffffffffffff168173ffffffffffffffffffffffffffffffffffffffff167f8be0079c531659141344cd1fd0a4f28419497f9722a3daafe3b4186f6b6457e060405160405180910390a35050565b8280546200020e906200038f565b90600052602060002090601f0160209004810192826200023257600085556200027e565b82601f106200024d57805160ff19168380011785556200027e565b828001600101855582156200027e579182015b828111156200027d57825182559160200191906001019062000260565b5b5090506200028d919062000291565b5090565b5b80821115620002ac57600081600090555060010162000292565b5090565b600080fd5b600073ffffffffffffffffffffffffffffffffffffffff82169050919050565b6000620002e282620002b5565b9050919050565b6000620002f682620002d5565b9050919050565b6200030881620002e9565b81146200031457600080fd5b50565b6000815190506200032881620002fd565b92915050565b600060208284031215620003475762000346620002b0565b5b6000620003578482850162000317565b91505092915050565b7f4e487b7100000000000000000000000000000000000000000000000000000000600052602260045260246000fd5b60006002820490506001821680620003a857607f821691505b602082108103620003be57620003bd62000360565b5b50919050565b6080516129dd620003dd600039600050506129dd6000f3fe608060405234801561001057600080fd5b506004361061010b5760003560e01c8063715018a6116100a2578063a22cb46511610071578063a22cb465146102b8578063b88d4fde146102d4578063c87b56dd146102f0578063e985e9c514610320578063f2fde38b146103505761010b565b8063715018a6146102425780638da5cb5b1461024c5780638e35f3f11461026a57806395d89b411461029a5761010b565b806323b872dd116100de57806323b872dd146101aa57806342842e0e146101c65780636352211e146101e257806370a08231146102125761010b565b806301ffc9a71461011057806306fdde0314610140578063081812fc1461015e578063095ea7b31461018e575b600080fd5b61012a60048036038101906101259190611af7565b61036c565b6040516101379190611b3f565b60405180910390f35b61014861044e565b6040516101559190611bf3565b60405180910390f35b61017860048036038101906101739190611c4b565b6104e0565b6040516101859190611cb9565b60405180910390f35b6101a860048036038101906101a39190611d00565b610526565b005b6101c460048036038101906101bf9190611d40565b61063d565b005b6101e060048036038101906101db9190611d40565b61069d565b005b6101fc60048036038101906101f79190611c4b565b6106bd565b6040516102099190611cb9565b60405180910390f35b61022c60048036038101906102279190611d93565b610743565b6040516102399190611dcf565b60405180910390f35b61024a6107fa565b005b61025461080e565b6040516102619190611cb9565b60405180910390f35b610284600480360381019061027f9190611c4b565b610838565b6040516102919190611e93565b60405180910390f35b6102a2610933565b6040516102af9190611bf3565b60405180910390f35b6102d260048036038101906102cd9190611ee1565b6109c5565b005b6102ee60048036038101906102e99190612056565b6109db565b005b61030a60048036038101906103059190611c4b565b610a3d565b6040516103179190611bf3565b60405180910390f35b61033a600480360381019061033591906120d9565b610b4f565b6040516103479190611b3f565b60405180910390f35b61036a60048036038101906103659190611d93565b610be3565b005b60007f80ac58cd000000000000000000000000000000000000000000000000000000007bffffffffffffffffffffffffffffffffffffffffffffffffffffffff1916827bffffffffffffffffffffffffffffffffffffffffffffffffffffffff1916148061043757507f5b5e139f000000000000000000000000000000000000000000000000000000007bffffffffffffffffffffffffffffffffffffffffffffffffffffffff1916827bffffffffffffffffffffffffffffffffffffffffffffffffffffffff1916145b80610447575061044682610c66565b5b9050919050565b60606000805461045d90612148565b80601f016020809104026020016040519081016040528092919081815260200182805461048990612148565b80156104d65780601f106104ab576101008083540402835291602001916104d6565b820191906000526020600020905b8154815290600101906020018083116104b957829003601f168201915b5050505050905090565b60006104eb82610cd0565b6004600083815260200190815260200160002060009054906101000a900473ffffffffffffffffffffffffffffffffffffffff169050919050565b6000610531826106bd565b90508073ffffffffffffffffffffffffffffffffffffffff168373ffffffffffffffffffffffffffffffffffffffff16036105a1576040517f08c379a0000000000000000000000000000000000000000000000000000000008152600401610598906121eb565b60405180910390fd5b8073ffffffffffffffffffffffffffffffffffffffff166105c0610d1b565b73ffffffffffffffffffffffffffffffffffffffff1614806105ef57506105ee816105e9610d1b565b610b4f565b5b61062e576040517f08c379a00000000000000000000000000000000000000000000000000000000081526004016106259061227d565b60405180910390fd5b6106388383610d23565b505050565b61064e610648610d1b565b82610ddc565b61068d576040517f08c379a00000000000000000000000000000000000000000000000000000000081526004016106849061230f565b60405180910390fd5b610698838383610e71565b505050565b6106b8838383604051806020016040528060008152506109db565b505050565b6000806106c98361116a565b9050600073ffffffffffffffffffffffffffffffffffffffff168173ffffffffffffffffffffffffffffffffffffffff160361073a576040517f08c379a00000000000000000000000000000000000000000000000000000000081526004016107319061237b565b60405180910390fd5b80915050919050565b60008073ffffffffffffffffffffffffffffffffffffffff168273ffffffffffffffffffffffffffffffffffffffff16036107b3576040517f08c379a00000000000000000000000000000000000000000000000000000000081526004016107aa9061240d565b60405180910390fd5b600360008373ffffffffffffffffffffffffffffffffffffffff1673ffffffffffffffffffffffffffffffffffffffff168152602001908152602001600020549050919050565b6108026111a7565b61080c6000611225565b565b6000600760009054906101000a900473ffffffffffffffffffffffffffffffffffffffff16905090565b610840611a6a565b6000600960008481526020019081526020016000205490506008818154811061086c5761086b61242d565b5b90600052602060002090600302016040518060600160405290816000820154815260200160018201805461089f90612148565b80601f01602080910402602001604051908101604052809291908181526020018280546108cb90612148565b80156109185780601f106108ed57610100808354040283529160200191610918565b820191906000526020600020905b8154815290600101906020018083116108fb57829003601f168201915b50505050508152602001600282015481525050915050919050565b60606001805461094290612148565b80601f016020809104026020016040519081016040528092919081815260200182805461096e90612148565b80156109bb5780601f10610990576101008083540402835291602001916109bb565b820191906000526020600020905b81548152906001019060200180831161099e57829003601f168201915b5050505050905090565b6109d76109d0610d1b565b83836112eb565b5050565b6109ec6109e6610d1b565b83610ddc565b610a2b576040517f08c379a0000000000000000000000000000000000000000000000000000000008152600401610a229061230f565b60405180910390fd5b610a3784848484611457565b50505050565b6060610a4882610cd0565b6000600660008481526020019081526020016000208054610a6890612148565b80601f0160208091040260200160405190810160405280929190818152602001828054610a9490612148565b8015610ae15780601f10610ab657610100808354040283529160200191610ae1565b820191906000526020600020905b815481529060010190602001808311610ac457829003601f168201915b505050505090506000610af26114b3565b90506000815103610b07578192505050610b4a565b600082511115610b3c578082604051602001610b24929190612498565b60405160208183030381529060405292505050610b4a565b610b45846114ca565b925050505b919050565b6000600560008473ffffffffffffffffffffffffffffffffffffffff1673ffffffffffffffffffffffffffffffffffffffff16815260200190815260200160002060008373ffffffffffffffffffffffffffffffffffffffff1673ffffffffffffffffffffffffffffffffffffffff16815260200190815260200160002060009054906101000a900460ff16905092915050565b610beb6111a7565b600073ffffffffffffffffffffffffffffffffffffffff168173ffffffffffffffffffffffffffffffffffffffff1603610c5a576040517f08c379a0000000000000000000000000000000000000000000000000000000008152600401610c519061252e565b60405180910390fd5b610c6381611225565b50565b60007f01ffc9a7000000000000000000000000000000000000000000000000000000007bffffffffffffffffffffffffffffffffffffffffffffffffffffffff1916827bffffffffffffffffffffffffffffffffffffffffffffffffffffffff1916149050919050565b610cd981611532565b610d18576040517f08c379a0000000000000000000000000000000000000000000000000000000008152600401610d0f9061237b565b60405180910390fd5b50565b600033905090565b816004600083815260200190815260200160002060006101000a81548173ffffffffffffffffffffffffffffffffffffffff021916908373ffffffffffffffffffffffffffffffffffffffff160217905550808273ffffffffffffffffffffffffffffffffffffffff16610d96836106bd565b73ffffffffffffffffffffffffffffffffffffffff167f8c5be1e5ebec7d5bd14f71427d1e84f3dd0314c0f7b2291e5b200ac8c7c3b92560405160405180910390a45050565b600080610de8836106bd565b90508073ffffffffffffffffffffffffffffffffffffffff168473ffffffffffffffffffffffffffffffffffffffff161480610e2a5750610e298185610b4f565b5b80610e6857508373ffffffffffffffffffffffffffffffffffffffff16610e50846104e0565b73ffffffffffffffffffffffffffffffffffffffff16145b91505092915050565b8273ffffffffffffffffffffffffffffffffffffffff16610e91826106bd565b73ffffffffffffffffffffffffffffffffffffffff1614610ee7576040517f08c379a0000000000000000000000000000000000000000000000000000000008152600401610ede906125c0565b60405180910390fd5b600073ffffffffffffffffffffffffffffffffffffffff168273ffffffffffffffffffffffffffffffffffffffff1603610f56576040517f08c379a0000000000000000000000000000000000000000000000000000000008152600401610f4d90612652565b60405180910390fd5b610f638383836001611573565b8273ffffffffffffffffffffffffffffffffffffffff16610f83826106bd565b73ffffffffffffffffffffffffffffffffffffffff1614610fd9576040517f08c379a0000000000000000000000000000000000000000000000000000000008152600401610fd0906125c0565b60405180910390fd5b6004600082815260200190815260200160002060006101000a81549073ffffffffffffffffffffffffffffffffffffffff02191690556001600360008573ffffffffffffffffffffffffffffffffffffffff1673ffffffffffffffffffffffffffffffffffffffff168152602001908152602001600020600082825403925050819055506001600360008473ffffffffffffffffffffffffffffffffffffffff1673ffffffffffffffffffffffffffffffffffffffff16815260200190815260200160002060008282540192505081905550816002600083815260200190815260200160002060006101000a81548173ffffffffffffffffffffffffffffffffffffffff021916908373ffffffffffffffffffffffffffffffffffffffff160217905550808273ffffffffffffffffffffffffffffffffffffffff168473ffffffffffffffffffffffffffffffffffffffff167fddf252ad1be2c89b69c2b068fc378daa952ba7f163c4a11628f55a4df523b3ef60405160405180910390a46111658383836001611699565b505050565b60006002600083815260200190815260200160002060009054906101000a900473ffffffffffffffffffffffffffffffffffffffff169050919050565b6111af610d1b565b73ffffffffffffffffffffffffffffffffffffffff166111cd61080e565b73ffffffffffffffffffffffffffffffffffffffff1614611223576040517f08c379a000000000000000000000000000000000000000000000000000000000815260040161121a906126be565b60405180910390fd5b565b6000600760009054906101000a900473ffffffffffffffffffffffffffffffffffffffff16905081600760006101000a81548173ffffffffffffffffffffffffffffffffffffffff021916908373ffffffffffffffffffffffffffffffffffffffff1602179055508173ffffffffffffffffffffffffffffffffffffffff168173ffffffffffffffffffffffffffffffffffffffff167f8be0079c531659141344cd1fd0a4f28419497f9722a3daafe3b4186f6b6457e060405160405180910390a35050565b8173ffffffffffffffffffffffffffffffffffffffff168373ffffffffffffffffffffffffffffffffffffffff1603611359576040517f08c379a00000000000000000000000000000000000000000000000000000000081526004016113509061272a565b60405180910390fd5b80600560008573ffffffffffffffffffffffffffffffffffffffff1673ffffffffffffffffffffffffffffffffffffffff16815260200190815260200160002060008473ffffffffffffffffffffffffffffffffffffffff1673ffffffffffffffffffffffffffffffffffffffff16815260200190815260200160002060006101000a81548160ff0219169083151502179055508173ffffffffffffffffffffffffffffffffffffffff168373ffffffffffffffffffffffffffffffffffffffff167f17307eab39ab6107e8899845ad3d59bd9653f200f220920489ca2b5937696c318360405161144a9190611b3f565b60405180910390a3505050565b611462848484610e71565b61146e8484848461169f565b6114ad576040517f08c379a00000000000000000000000000000000000000000000000000000000081526004016114a4906127bc565b60405180910390fd5b50505050565b606060405180602001604052806000815250905090565b60606114d582610cd0565b60006114df6114b3565b905060008151116114ff576040518060200160405280600081525061152a565b8061150984611826565b60405160200161151a929190612498565b6040516020818303038152906040525b915050919050565b60008073ffffffffffffffffffffffffffffffffffffffff166115548361116a565b73ffffffffffffffffffffffffffffffffffffffff1614159050919050565b600181111561169357600073ffffffffffffffffffffffffffffffffffffffff168473ffffffffffffffffffffffffffffffffffffffff16146116075780600360008673ffffffffffffffffffffffffffffffffffffffff1673ffffffffffffffffffffffffffffffffffffffff16815260200190815260200160002060008282546115ff919061280b565b925050819055505b600073ffffffffffffffffffffffffffffffffffffffff168373ffffffffffffffffffffffffffffffffffffffff16146116925780600360008573ffffffffffffffffffffffffffffffffffffffff1673ffffffffffffffffffffffffffffffffffffffff168152602001908152602001600020600082825461168a919061283f565b925050819055505b5b50505050565b50505050565b60006116c08473ffffffffffffffffffffffffffffffffffffffff166118f4565b15611819578373ffffffffffffffffffffffffffffffffffffffff1663150b7a026116e9610d1b565b8786866040518563ffffffff1660e01b815260040161170b94939291906128ea565b6020604051808303816000875af192505050801561174757506040513d601f19601f82011682018060405250810190611744919061294b565b60015b6117c9573d8060008114611777576040519150601f19603f3d011682016040523d82523d6000602084013e61177c565b606091505b5060008151036117c1576040517f08c379a00000000000000000000000000000000000000000000000000000000081526004016117b8906127bc565b60405180910390fd5b805181602001fd5b63150b7a0260e01b7bffffffffffffffffffffffffffffffffffffffffffffffffffffffff1916817bffffffffffffffffffffffffffffffffffffffffffffffffffffffff19161491505061181e565b600190505b949350505050565b60606000600161183584611917565b01905060008167ffffffffffffffff81111561185457611853611f2b565b5b6040519080825280601f01601f1916602001820160405280156118865781602001600182028036833780820191505090505b509050600082602001820190505b6001156118e9578080600190039150507f3031323334353637383961626364656600000000000000000000000000000000600a86061a8153600a85816118dd576118dc612978565b5b04945060008503611894575b819350505050919050565b6000808273ffffffffffffffffffffffffffffffffffffffff163b119050919050565b600080600090507a184f03e93ff9f4daa797ed6e38ed64bf6a1f0100000000000000008310611975577a184f03e93ff9f4daa797ed6e38ed64bf6a1f010000000000000000838161196b5761196a612978565b5b0492506040810190505b6d04ee2d6d415b85acef810000000083106119b2576d04ee2d6d415b85acef810000000083816119a8576119a7612978565b5b0492506020810190505b662386f26fc1000083106119e157662386f26fc1000083816119d7576119d6612978565b5b0492506010810190505b6305f5e1008310611a0a576305f5e1008381611a00576119ff612978565b5b0492506008810190505b6127108310611a2f576127108381611a2557611a24612978565b5b0492506004810190505b60648310611a525760648381611a4857611a47612978565b5b0492506002810190505b600a8310611a61576001810190505b80915050919050565b60405180606001604052806000815260200160608152602001600081525090565b6000604051905090565b600080fd5b600080fd5b60007fffffffff0000000000000000000000000000000000000000000000000000000082169050919050565b611ad481611a9f565b8114611adf57600080fd5b50565b600081359050611af181611acb565b92915050565b600060208284031215611b0d57611b0c611a95565b5b6000611b1b84828501611ae2565b91505092915050565b60008115159050919050565b611b3981611b24565b82525050565b6000602082019050611b546000830184611b30565b92915050565b600081519050919050565b600082825260208201905092915050565b60005b83811015611b94578082015181840152602081019050611b79565b83811115611ba3576000848401525b50505050565b6000601f19601f8301169050919050565b6000611bc582611b5a565b611bcf8185611b65565b9350611bdf818560208601611b76565b611be881611ba9565b840191505092915050565b60006020820190508181036000830152611c0d8184611bba565b905092915050565b6000819050919050565b611c2881611c15565b8114611c3357600080fd5b50565b600081359050611c4581611c1f565b92915050565b600060208284031215611c6157611c60611a95565b5b6000611c6f84828501611c36565b91505092915050565b600073ffffffffffffffffffffffffffffffffffffffff82169050919050565b6000611ca382611c78565b9050919050565b611cb381611c98565b82525050565b6000602082019050611cce6000830184611caa565b92915050565b611cdd81611c98565b8114611ce857600080fd5b50565b600081359050611cfa81611cd4565b92915050565b60008060408385031215611d1757611d16611a95565b5b6000611d2585828601611ceb565b9250506020611d3685828601611c36565b9150509250929050565b600080600060608486031215611d5957611d58611a95565b5b6000611d6786828701611ceb565b9350506020611d7886828701611ceb565b9250506040611d8986828701611c36565b9150509250925092565b600060208284031215611da957611da8611a95565b5b6000611db784828501611ceb565b91505092915050565b611dc981611c15565b82525050565b6000602082019050611de46000830184611dc0565b92915050565b611df381611c15565b82525050565b600082825260208201905092915050565b6000611e1582611b5a565b611e1f8185611df9565b9350611e2f818560208601611b76565b611e3881611ba9565b840191505092915050565b6000606083016000830151611e5b6000860182611dea565b5060208301518482036020860152611e738282611e0a565b9150506040830151611e886040860182611dea565b508091505092915050565b60006020820190508181036000830152611ead8184611e43565b905092915050565b611ebe81611b24565b8114611ec957600080fd5b50565b600081359050611edb81611eb5565b92915050565b60008060408385031215611ef857611ef7611a95565b5b6000611f0685828601611ceb565b9250506020611f1785828601611ecc565b9150509250929050565b600080fd5b600080fd5b7f4e487b7100000000000000000000000000000000000000000000000000000000600052604160045260246000fd5b611f6382611ba9565b810181811067ffffffffffffffff82111715611f8257611f81611f2b565b5b80604052505050565b6000611f95611a8b565b9050611fa18282611f5a565b919050565b600067ffffffffffffffff821115611fc157611fc0611f2b565b5b611fca82611ba9565b9050602081019050919050565b82818337600083830152505050565b6000611ff9611ff484611fa6565b611f8b565b90508281526020810184848401111561201557612014611f26565b5b612020848285611fd7565b509392505050565b600082601f83011261203d5761203c611f21565b5b813561204d848260208601611fe6565b91505092915050565b600080600080608085870312156120705761206f611a95565b5b600061207e87828801611ceb565b945050602061208f87828801611ceb565b93505060406120a087828801611c36565b925050606085013567ffffffffffffffff8111156120c1576120c0611a9a565b5b6120cd87828801612028565b91505092959194509250565b600080604083850312156120f0576120ef611a95565b5b60006120fe85828601611ceb565b925050602061210f85828601611ceb565b9150509250929050565b7f4e487b7100000000000000000000000000000000000000000000000000000000600052602260045260246000fd5b6000600282049050600182168061216057607f821691505b60208210810361217357612172612119565b5b50919050565b7f4552433732313a20617070726f76616c20746f2063757272656e74206f776e6560008201527f7200000000000000000000000000000000000000000000000000000000000000602082015250565b60006121d5602183611b65565b91506121e082612179565b604082019050919050565b60006020820190508181036000830152612204816121c8565b9050919050565b7f4552433732313a20617070726f76652063616c6c6572206973206e6f7420746f60008201527f6b656e206f776e6572206f7220617070726f76656420666f7220616c6c000000602082015250565b6000612267603d83611b65565b91506122728261220b565b604082019050919050565b600060208201905081810360008301526122968161225a565b9050919050565b7f4552433732313a2063616c6c6572206973206e6f7420746f6b656e206f776e6560008201527f72206f7220617070726f76656400000000000000000000000000000000000000602082015250565b60006122f9602d83611b65565b91506123048261229d565b604082019050919050565b60006020820190508181036000830152612328816122ec565b9050919050565b7f4552433732313a20696e76616c696420746f6b656e2049440000000000000000600082015250565b6000612365601883611b65565b91506123708261232f565b602082019050919050565b6000602082019050818103600083015261239481612358565b9050919050565b7f4552433732313a2061646472657373207a65726f206973206e6f74206120766160008201527f6c6964206f776e65720000000000000000000000000000000000000000000000602082015250565b60006123f7602983611b65565b91506124028261239b565b604082019050919050565b60006020820190508181036000830152612426816123ea565b9050919050565b7f4e487b7100000000000000000000000000000000000000000000000000000000600052603260045260246000fd5b600081905092915050565b600061247282611b5a565b61247c818561245c565b935061248c818560208601611b76565b80840191505092915050565b60006124a48285612467565b91506124b08284612467565b91508190509392505050565b7f4f776e61626c653a206e6577206f776e657220697320746865207a65726f206160008201527f6464726573730000000000000000000000000000000000000000000000000000602082015250565b6000612518602683611b65565b9150612523826124bc565b604082019050919050565b600060208201905081810360008301526125478161250b565b9050919050565b7f4552433732313a207472616e736665722066726f6d20696e636f72726563742060008201527f6f776e6572000000000000000000000000000000000000000000000000000000602082015250565b60006125aa602583611b65565b91506125b58261254e565b604082019050919050565b600060208201905081810360008301526125d98161259d565b9050919050565b7f4552433732313a207472616e7366657220746f20746865207a65726f2061646460008201527f7265737300000000000000000000000000000000000000000000000000000000602082015250565b600061263c602483611b65565b9150612647826125e0565b604082019050919050565b6000602082019050818103600083015261266b8161262f565b9050919050565b7f4f776e61626c653a2063616c6c6572206973206e6f7420746865206f776e6572600082015250565b60006126a8602083611b65565b91506126b382612672565b602082019050919050565b600060208201905081810360008301526126d78161269b565b9050919050565b7f4552433732313a20617070726f766520746f2063616c6c657200000000000000600082015250565b6000612714601983611b65565b915061271f826126de565b602082019050919050565b6000602082019050818103600083015261274381612707565b9050919050565b7f4552433732313a207472616e7366657220746f206e6f6e20455243373231526560008201527f63656976657220696d706c656d656e7465720000000000000000000000000000602082015250565b60006127a6603283611b65565b91506127b18261274a565b604082019050919050565b600060208201905081810360008301526127d581612799565b9050919050565b7f4e487b7100000000000000000000000000000000000000000000000000000000600052601160045260246000fd5b600061281682611c15565b915061282183611c15565b925082821015612834576128336127dc565b5b828203905092915050565b600061284a82611c15565b915061285583611c15565b9250827fffffffffffffffffffffffffffffffffffffffffffffffffffffffffffffffff0382111561288a576128896127dc565b5b828201905092915050565b600081519050919050565b600082825260208201905092915050565b60006128bc82612895565b6128c681856128a0565b93506128d6818560208601611b76565b6128df81611ba9565b840191505092915050565b60006080820190506128ff6000830187611caa565b61290c6020830186611caa565b6129196040830185611dc0565b818103606083015261292b81846128b1565b905095945050505050565b60008151905061294581611acb565b92915050565b60006020828403121561296157612960611a95565b5b600061296f84828501612936565b91505092915050565b7f4e487b7100000000000000000000000000000000000000000000000000000000600052601260045260246000fdfea26469706673582212208c041262b8624eed9f620ed8ba327515fc2bcba527ce3e6dd20ff4f744c4012564736f6c634300080d0033",
  "immutableReferences": {},
  "source": "pragma solidity ^0.8.13;\r\n\r\nimport \"@openzeppelin/contracts/token/ERC721/extensions/ERC721URIStorage.sol\";\r\nimport \"@openzeppelin/contracts/utils/Counters.sol\";\r\nimport \"@openzeppelin/contracts/access/Ownable.sol\";\r\nimport \"./School.sol\";\r\n\r\ncontract NftCourse is ERC721URIStorage, Ownable {\r\n    // using Counters for Counters.Counter;\r\n\r\n    struct NftItem {\r\n        uint256 tokenId;\r\n        string studentId;\r\n        uint256 courseId;\r\n    }\r\n\r\n\tSchool private immutable _schoolContract;\r\n    // // Nft Course\r\n    // // studentId => type => NftCourse?\r\n    // Counters.Counter private _tokenIds;\r\n    \r\n    NftItem[] private _allNftItems;\r\n    mapping(uint256 => uint256) private _idToNftIndex; // tokenId =>NftItem \r\n    // mapping(string => mapping(CourseType => uint256[])) private _completedCourse;\r\n    mapping(string => bool) private _usedTokenURIs;\r\n    \r\n    // modifier onlyTeacher(uint256 courseId) {\r\n    //     require(teacherAddressOf(courseId) == address(0), 'access denied');\r\n    //     _;\r\n    // }\r\n \r\n    // event TeacherRegistered(string metadata);\r\n \r\n    constructor(School schoolContract) ERC721(\"CourseNFT\", \"CNFT\") {\r\n        _schoolContract = schoolContract;\r\n    }\r\n\r\n    function getNftCourse(uint256 tokenId) public view returns (NftItem memory) {\r\n        uint256 tokenIndex = _idToNftIndex[tokenId];\r\n\r\n        return _allNftItems[tokenIndex];\r\n    }\r\n\r\n    // function mintToken(\r\n    //     string memory tokenURI,\r\n    //     string memory studentId,\r\n    //     uint256 courseId\r\n    // ) public onlyTeacher(courseId) returns (uint256)\r\n    // {\r\n        // require(!_usedTokenURIs[tokenURI], \"URI has already existed\");\r\n        // _tokenIds.increment();\r\n\r\n        // uint256 newTokenId = _tokenIds.current();\r\n        // _safeMint(msg.sender, newTokenId);\r\n        // _setTokenURI(newTokenId, tokenURI);\r\n        // _createNftItem(newTokenId, studentId, courseId);\r\n        // _usedTokenURIs[tokenURI] = true;\r\n\r\n        // return newTokenId;\r\n    // }\r\n\r\n    function _createNftItem(\r\n        uint256 tokenId,\r\n        string memory studentId,\r\n        uint256 courseId\r\n    ) private {\r\n        // NftItem memory nftItem = NftItem(tokenId, studentId, courseId);\r\n        // _allNftItems.push(nftItem);\r\n        // _idToNftIndex[tokenId] = _allNftItems.length;\r\n        // studentId => \r\n    }\r\n\r\n    // function exchangeNftGradution(\r\n    //     string memory studentId,\r\n    //     uint256[] memory tokenIds\r\n    // ) public allowGetNftGraduation {\r\n    //     bool isAllBelongsToStudent = true;\r\n    //     uint256 tokenIdLength = tokenIds.length;\r\n    //     // mapping(uint256 => uint256) tokenIds;\r\n\r\n    //     for (uint256 index; index < tokenIdLength; ++index) {\r\n            \r\n    //         isAllBelongsToStudent = false;\r\n    //     }\r\n        \r\n    //     // _graduationContract.mintToken();\r\n    // }\r\n}",
  "sourcePath": "E:\\learn\\learn-to-earn\\contracts\\NftCourse.sol",
  "compiler": {
    "name": "solc",
    "version": "0.8.13+commit.abaa5c0e.Emscripten.clang"
  },
  "schemaVersion": "3.4.11",
  "updatedAt": "2023-02-25T12:29:02.679Z",
  "networkType": "ethereum",
  "devdoc": {
    "kind": "dev",
    "methods": {
      "approve(address,uint256)": {
        "details": "See {IERC721-approve}."
      },
      "balanceOf(address)": {
        "details": "See {IERC721-balanceOf}."
      },
      "getApproved(uint256)": {
        "details": "See {IERC721-getApproved}."
      },
      "isApprovedForAll(address,address)": {
        "details": "See {IERC721-isApprovedForAll}."
      },
      "name()": {
        "details": "See {IERC721Metadata-name}."
      },
      "owner()": {
        "details": "Returns the address of the current owner."
      },
      "ownerOf(uint256)": {
        "details": "See {IERC721-ownerOf}."
      },
      "renounceOwnership()": {
        "details": "Leaves the contract without owner. It will not be possible to call `onlyOwner` functions anymore. Can only be called by the current owner. NOTE: Renouncing ownership will leave the contract without an owner, thereby removing any functionality that is only available to the owner."
      },
      "safeTransferFrom(address,address,uint256)": {
        "details": "See {IERC721-safeTransferFrom}."
      },
      "safeTransferFrom(address,address,uint256,bytes)": {
        "details": "See {IERC721-safeTransferFrom}."
      },
      "setApprovalForAll(address,bool)": {
        "details": "See {IERC721-setApprovalForAll}."
      },
      "supportsInterface(bytes4)": {
        "details": "See {IERC165-supportsInterface}."
      },
      "symbol()": {
        "details": "See {IERC721Metadata-symbol}."
      },
      "tokenURI(uint256)": {
        "details": "See {IERC721Metadata-tokenURI}."
      },
      "transferFrom(address,address,uint256)": {
        "details": "See {IERC721-transferFrom}."
      },
      "transferOwnership(address)": {
        "details": "Transfers ownership of the contract to a new account (`newOwner`). Can only be called by the current owner."
      }
    },
    "version": 1
  },
  "userdoc": {
    "kind": "user",
    "methods": {},
    "version": 1
  }
}