{
  "contractName": "NftGraduation",
  "abi": [
    {
      "inputs": [
        {
          "internalType": "contract NftCourse",
          "name": "courseContract",
          "type": "address"
        }
      ],
      "stateMutability": "nonpayable",
      "type": "constructor"
    },
    {
      "anonymous": false,
      "inputs": [
        {
          "indexed": true,
          "internalType": "address",
          "name": "owner",
          "type": "address"
        },
        {
          "indexed": true,
          "internalType": "address",
          "name": "approved",
          "type": "address"
        },
        {
          "indexed": true,
          "internalType": "uint256",
          "name": "tokenId",
          "type": "uint256"
        }
      ],
      "name": "Approval",
      "type": "event"
    },
    {
      "anonymous": false,
      "inputs": [
        {
          "indexed": true,
          "internalType": "address",
          "name": "owner",
          "type": "address"
        },
        {
          "indexed": true,
          "internalType": "address",
          "name": "operator",
          "type": "address"
        },
        {
          "indexed": false,
          "internalType": "bool",
          "name": "approved",
          "type": "bool"
        }
      ],
      "name": "ApprovalForAll",
      "type": "event"
    },
    {
      "anonymous": false,
      "inputs": [
        {
          "indexed": true,
          "internalType": "address",
          "name": "previousOwner",
          "type": "address"
        },
        {
          "indexed": true,
          "internalType": "address",
          "name": "newOwner",
          "type": "address"
        }
      ],
      "name": "OwnershipTransferred",
      "type": "event"
    },
    {
      "anonymous": false,
      "inputs": [
        {
          "indexed": true,
          "internalType": "address",
          "name": "from",
          "type": "address"
        },
        {
          "indexed": true,
          "internalType": "address",
          "name": "to",
          "type": "address"
        },
        {
          "indexed": true,
          "internalType": "uint256",
          "name": "tokenId",
          "type": "uint256"
        }
      ],
      "name": "Transfer",
      "type": "event"
    },
    {
      "inputs": [
        {
          "internalType": "address",
          "name": "to",
          "type": "address"
        },
        {
          "internalType": "uint256",
          "name": "tokenId",
          "type": "uint256"
        }
      ],
      "name": "approve",
      "outputs": [],
      "stateMutability": "nonpayable",
      "type": "function"
    },
    {
      "inputs": [
        {
          "internalType": "address",
          "name": "owner",
          "type": "address"
        }
      ],
      "name": "balanceOf",
      "outputs": [
        {
          "internalType": "uint256",
          "name": "",
          "type": "uint256"
        }
      ],
      "stateMutability": "view",
      "type": "function"
    },
    {
      "inputs": [
        {
          "internalType": "uint256",
          "name": "tokenId",
          "type": "uint256"
        }
      ],
      "name": "getApproved",
      "outputs": [
        {
          "internalType": "address",
          "name": "",
          "type": "address"
        }
      ],
      "stateMutability": "view",
      "type": "function"
    },
    {
      "inputs": [
        {
          "internalType": "address",
          "name": "owner",
          "type": "address"
        },
        {
          "internalType": "address",
          "name": "operator",
          "type": "address"
        }
      ],
      "name": "isApprovedForAll",
      "outputs": [
        {
          "internalType": "bool",
          "name": "",
          "type": "bool"
        }
      ],
      "stateMutability": "view",
      "type": "function"
    },
    {
      "inputs": [],
      "name": "name",
      "outputs": [
        {
          "internalType": "string",
          "name": "",
          "type": "string"
        }
      ],
      "stateMutability": "view",
      "type": "function"
    },
    {
      "inputs": [],
      "name": "owner",
      "outputs": [
        {
          "internalType": "address",
          "name": "",
          "type": "address"
        }
      ],
      "stateMutability": "view",
      "type": "function"
    },
    {
      "inputs": [
        {
          "internalType": "uint256",
          "name": "tokenId",
          "type": "uint256"
        }
      ],
      "name": "ownerOf",
      "outputs": [
        {
          "internalType": "address",
          "name": "",
          "type": "address"
        }
      ],
      "stateMutability": "view",
      "type": "function"
    },
    {
      "inputs": [],
      "name": "renounceOwnership",
      "outputs": [],
      "stateMutability": "nonpayable",
      "type": "function"
    },
    {
      "inputs": [
        {
          "internalType": "address",
          "name": "from",
          "type": "address"
        },
        {
          "internalType": "address",
          "name": "to",
          "type": "address"
        },
        {
          "internalType": "uint256",
          "name": "tokenId",
          "type": "uint256"
        }
      ],
      "name": "safeTransferFrom",
      "outputs": [],
      "stateMutability": "nonpayable",
      "type": "function"
    },
    {
      "inputs": [
        {
          "internalType": "address",
          "name": "from",
          "type": "address"
        },
        {
          "internalType": "address",
          "name": "to",
          "type": "address"
        },
        {
          "internalType": "uint256",
          "name": "tokenId",
          "type": "uint256"
        },
        {
          "internalType": "bytes",
          "name": "data",
          "type": "bytes"
        }
      ],
      "name": "safeTransferFrom",
      "outputs": [],
      "stateMutability": "nonpayable",
      "type": "function"
    },
    {
      "inputs": [
        {
          "internalType": "address",
          "name": "operator",
          "type": "address"
        },
        {
          "internalType": "bool",
          "name": "approved",
          "type": "bool"
        }
      ],
      "name": "setApprovalForAll",
      "outputs": [],
      "stateMutability": "nonpayable",
      "type": "function"
    },
    {
      "inputs": [
        {
          "internalType": "bytes4",
          "name": "interfaceId",
          "type": "bytes4"
        }
      ],
      "name": "supportsInterface",
      "outputs": [
        {
          "internalType": "bool",
          "name": "",
          "type": "bool"
        }
      ],
      "stateMutability": "view",
      "type": "function"
    },
    {
      "inputs": [],
      "name": "symbol",
      "outputs": [
        {
          "internalType": "string",
          "name": "",
          "type": "string"
        }
      ],
      "stateMutability": "view",
      "type": "function"
    },
    {
      "inputs": [
        {
          "internalType": "uint256",
          "name": "tokenId",
          "type": "uint256"
        }
      ],
      "name": "tokenURI",
      "outputs": [
        {
          "internalType": "string",
          "name": "",
          "type": "string"
        }
      ],
      "stateMutability": "view",
      "type": "function"
    },
    {
      "inputs": [
        {
          "internalType": "address",
          "name": "from",
          "type": "address"
        },
        {
          "internalType": "address",
          "name": "to",
          "type": "address"
        },
        {
          "internalType": "uint256",
          "name": "tokenId",
          "type": "uint256"
        }
      ],
      "name": "transferFrom",
      "outputs": [],
      "stateMutability": "nonpayable",
      "type": "function"
    },
    {
      "inputs": [
        {
          "internalType": "address",
          "name": "newOwner",
          "type": "address"
        }
      ],
      "name": "transferOwnership",
      "outputs": [],
      "stateMutability": "nonpayable",
      "type": "function"
    },
    {
      "inputs": [],
      "name": "getAllNftGraduations",
      "outputs": [
        {
          "components": [
            {
              "internalType": "string",
              "name": "studentId",
              "type": "string"
            },
            {
              "internalType": "uint256",
              "name": "tokenId",
              "type": "uint256"
            }
          ],
          "internalType": "struct NftGraduation.NftItem[]",
          "name": "",
          "type": "tuple[]"
        }
      ],
      "stateMutability": "view",
      "type": "function"
    },
    {
      "inputs": [
        {
          "internalType": "string",
          "name": "studentId",
          "type": "string"
        }
      ],
      "name": "getNftGraduation",
      "outputs": [
        {
          "components": [
            {
              "internalType": "string",
              "name": "studentId",
              "type": "string"
            },
            {
              "internalType": "uint256",
              "name": "tokenId",
              "type": "uint256"
            }
          ],
          "internalType": "struct NftGraduation.NftItem",
          "name": "",
          "type": "tuple"
        }
      ],
      "stateMutability": "view",
      "type": "function"
    },
    {
      "inputs": [
        {
          "internalType": "string",
          "name": "studentId",
          "type": "string"
        },
        {
          "internalType": "uint256[]",
          "name": "tokenIds",
          "type": "uint256[]"
        }
      ],
      "name": "exchangeNftGraduation",
      "outputs": [
        {
          "components": [
            {
              "internalType": "string",
              "name": "studentId",
              "type": "string"
            },
            {
              "internalType": "uint256",
              "name": "tokenId",
              "type": "uint256"
            }
          ],
          "internalType": "struct NftGraduation.NftItem",
          "name": "",
          "type": "tuple"
        }
      ],
      "stateMutability": "nonpayable",
      "type": "function"
    }
  ],
  "bytecode": "0x60a06040523480156200001157600080fd5b506040516200394a3803806200394a83398181016040528101906200003791906200032e565b6040518060400160405280600d81526020017f47726164756174696f6e4e6674000000000000000000000000000000000000008152506040518060400160405280600481526020017f474e4654000000000000000000000000000000000000000000000000000000008152508160009080519060200190620000bb92919062000200565b508060019080519060200190620000d492919062000200565b505050620000f7620000eb6200013260201b60201c565b6200013a60201b60201c565b8073ffffffffffffffffffffffffffffffffffffffff1660808173ffffffffffffffffffffffffffffffffffffffff168152505050620003c4565b600033905090565b6000600660009054906101000a900473ffffffffffffffffffffffffffffffffffffffff16905081600660006101000a81548173ffffffffffffffffffffffffffffffffffffffff021916908373ffffffffffffffffffffffffffffffffffffffff1602179055508173ffffffffffffffffffffffffffffffffffffffff168173ffffffffffffffffffffffffffffffffffffffff167f8be0079c531659141344cd1fd0a4f28419497f9722a3daafe3b4186f6b6457e060405160405180910390a35050565b8280546200020e906200038f565b90600052602060002090601f0160209004810192826200023257600085556200027e565b82601f106200024d57805160ff19168380011785556200027e565b828001600101855582156200027e579182015b828111156200027d57825182559160200191906001019062000260565b5b5090506200028d919062000291565b5090565b5b80821115620002ac57600081600090555060010162000292565b5090565b600080fd5b600073ffffffffffffffffffffffffffffffffffffffff82169050919050565b6000620002e282620002b5565b9050919050565b6000620002f682620002d5565b9050919050565b6200030881620002e9565b81146200031457600080fd5b50565b6000815190506200032881620002fd565b92915050565b600060208284031215620003475762000346620002b0565b5b6000620003578482850162000317565b91505092915050565b7f4e487b7100000000000000000000000000000000000000000000000000000000600052602260045260246000fd5b60006002820490506001821680620003a857607f821691505b602082108103620003be57620003bd62000360565b5b50919050565b60805161356a620003e0600039600061087c015261356a6000f3fe608060405234801561001057600080fd5b50600436106101215760003560e01c8063739d3341116100ad578063c87b56dd11610071578063c87b56dd14610306578063d27306a414610336578063e985e9c514610366578063f2fde38b14610396578063f9d8cae2146103b257610121565b8063739d3341146102625780638da5cb5b1461029257806395d89b41146102b0578063a22cb465146102ce578063b88d4fde146102ea57610121565b806323b872dd116100f457806323b872dd146101c057806342842e0e146101dc5780636352211e146101f857806370a0823114610228578063715018a61461025857610121565b806301ffc9a71461012657806306fdde0314610156578063081812fc14610174578063095ea7b3146101a4575b600080fd5b610140600480360381019061013b9190612021565b6103d0565b60405161014d9190612069565b60405180910390f35b61015e6104b2565b60405161016b919061211d565b60405180910390f35b61018e60048036038101906101899190612175565b610544565b60405161019b91906121e3565b60405180910390f35b6101be60048036038101906101b9919061222a565b61058a565b005b6101da60048036038101906101d5919061226a565b6106a1565b005b6101f660048036038101906101f1919061226a565b610701565b005b610212600480360381019061020d9190612175565b610721565b60405161021f91906121e3565b60405180910390f35b610242600480360381019061023d91906122bd565b6107a7565b60405161024f91906122f9565b60405180910390f35b61026061085e565b005b61027c60048036038101906102779190612511565b610872565b604051610289919061261f565b60405180910390f35b61029a610967565b6040516102a791906121e3565b60405180910390f35b6102b8610991565b6040516102c5919061211d565b60405180910390f35b6102e860048036038101906102e3919061266d565b610a23565b005b61030460048036038101906102ff919061274e565b610a39565b005b610320600480360381019061031b9190612175565b610a9b565b60405161032d919061211d565b60405180910390f35b610350600480360381019061034b91906127d1565b610b03565b60405161035d919061261f565b60405180910390f35b610380600480360381019061037b919061281a565b610c4e565b60405161038d9190612069565b60405180910390f35b6103b060048036038101906103ab91906122bd565b610ce2565b005b6103ba610d65565b6040516103c79190612959565b60405180910390f35b60007f80ac58cd000000000000000000000000000000000000000000000000000000007bffffffffffffffffffffffffffffffffffffffffffffffffffffffff1916827bffffffffffffffffffffffffffffffffffffffffffffffffffffffff1916148061049b57507f5b5e139f000000000000000000000000000000000000000000000000000000007bffffffffffffffffffffffffffffffffffffffffffffffffffffffff1916827bffffffffffffffffffffffffffffffffffffffffffffffffffffffff1916145b806104ab57506104aa82610e60565b5b9050919050565b6060600080546104c1906129aa565b80601f01602080910402602001604051908101604052809291908181526020018280546104ed906129aa565b801561053a5780601f1061050f5761010080835404028352916020019161053a565b820191906000526020600020905b81548152906001019060200180831161051d57829003601f168201915b5050505050905090565b600061054f82610eca565b6004600083815260200190815260200160002060009054906101000a900473ffffffffffffffffffffffffffffffffffffffff169050919050565b600061059582610721565b90508073ffffffffffffffffffffffffffffffffffffffff168373ffffffffffffffffffffffffffffffffffffffff1603610605576040517f08c379a00000000000000000000000000000000000000000000000000000000081526004016105fc90612a4d565b60405180910390fd5b8073ffffffffffffffffffffffffffffffffffffffff16610624610f15565b73ffffffffffffffffffffffffffffffffffffffff16148061065357506106528161064d610f15565b610c4e565b5b610692576040517f08c379a000000000000000000000000000000000000000000000000000000000815260040161068990612adf565b60405180910390fd5b61069c8383610f1d565b505050565b6106b26106ac610f15565b82610fd6565b6106f1576040517f08c379a00000000000000000000000000000000000000000000000000000000081526004016106e890612b71565b60405180910390fd5b6106fc83838361106b565b505050565b61071c83838360405180602001604052806000815250610a39565b505050565b60008061072d83611364565b9050600073ffffffffffffffffffffffffffffffffffffffff168173ffffffffffffffffffffffffffffffffffffffff160361079e576040517f08c379a000000000000000000000000000000000000000000000000000000000815260040161079590612bdd565b60405180910390fd5b80915050919050565b60008073ffffffffffffffffffffffffffffffffffffffff168273ffffffffffffffffffffffffffffffffffffffff1603610817576040517f08c379a000000000000000000000000000000000000000000000000000000000815260040161080e90612c6f565b60405180910390fd5b600360008373ffffffffffffffffffffffffffffffffffffffff1673ffffffffffffffffffffffffffffffffffffffff168152602001908152602001600020549050919050565b6108666113a1565b610870600061141f565b565b61087a611ef8565b7f000000000000000000000000000000000000000000000000000000000000000073ffffffffffffffffffffffffffffffffffffffff16627938b584846040518363ffffffff1660e01b81526004016108d4929190612d3e565b6020604051808303816000875af11580156108f3573d6000803e3d6000fd5b505050506040513d601f19601f820116820180604052508101906109179190612d8a565b610956576040517f08c379a000000000000000000000000000000000000000000000000000000000815260040161094d90612e03565b60405180910390fd5b61095f836114e5565b905092915050565b6000600660009054906101000a900473ffffffffffffffffffffffffffffffffffffffff16905090565b6060600180546109a0906129aa565b80601f01602080910402602001604051908101604052809291908181526020018280546109cc906129aa565b8015610a195780601f106109ee57610100808354040283529160200191610a19565b820191906000526020600020905b8154815290600101906020018083116109fc57829003601f168201915b5050505050905090565b610a35610a2e610f15565b8383611582565b5050565b610a4a610a44610f15565b83610fd6565b610a89576040517f08c379a0000000000000000000000000000000000000000000000000000000008152600401610a8090612b71565b60405180910390fd5b610a95848484846116ee565b50505050565b6060610aa682610eca565b6000610ab061174a565b90506000815111610ad05760405180602001604052806000815250610afb565b80610ada84611761565b604051602001610aeb929190612e5f565b6040516020818303038152906040525b915050919050565b610b0b611ef8565b6000600a83604051610b1d9190612e83565b908152602001604051809103902054905060008103610b71576040517f08c379a0000000000000000000000000000000000000000000000000000000008152600401610b6890612ee6565b60405180910390fd5b6008600182610b809190612f35565b81548110610b9157610b90612f69565b5b9060005260206000209060020201604051806040016040529081600082018054610bba906129aa565b80601f0160208091040260200160405190810160405280929190818152602001828054610be6906129aa565b8015610c335780601f10610c0857610100808354040283529160200191610c33565b820191906000526020600020905b815481529060010190602001808311610c1657829003601f168201915b50505050508152602001600182015481525050915050919050565b6000600560008473ffffffffffffffffffffffffffffffffffffffff1673ffffffffffffffffffffffffffffffffffffffff16815260200190815260200160002060008373ffffffffffffffffffffffffffffffffffffffff1673ffffffffffffffffffffffffffffffffffffffff16815260200190815260200160002060009054906101000a900460ff16905092915050565b610cea6113a1565b600073ffffffffffffffffffffffffffffffffffffffff168173ffffffffffffffffffffffffffffffffffffffff1603610d59576040517f08c379a0000000000000000000000000000000000000000000000000000000008152600401610d509061300a565b60405180910390fd5b610d628161141f565b50565b60606008805480602002602001604051908101604052809291908181526020016000905b82821015610e575783829060005260206000209060020201604051806040016040529081600082018054610dbc906129aa565b80601f0160208091040260200160405190810160405280929190818152602001828054610de8906129aa565b8015610e355780601f10610e0a57610100808354040283529160200191610e35565b820191906000526020600020905b815481529060010190602001808311610e1857829003601f168201915b5050505050815260200160018201548152505081526020019060010190610d89565b50505050905090565b60007f01ffc9a7000000000000000000000000000000000000000000000000000000007bffffffffffffffffffffffffffffffffffffffffffffffffffffffff1916827bffffffffffffffffffffffffffffffffffffffffffffffffffffffff1916149050919050565b610ed38161182f565b610f12576040517f08c379a0000000000000000000000000000000000000000000000000000000008152600401610f0990612bdd565b60405180910390fd5b50565b600033905090565b816004600083815260200190815260200160002060006101000a81548173ffffffffffffffffffffffffffffffffffffffff021916908373ffffffffffffffffffffffffffffffffffffffff160217905550808273ffffffffffffffffffffffffffffffffffffffff16610f9083610721565b73ffffffffffffffffffffffffffffffffffffffff167f8c5be1e5ebec7d5bd14f71427d1e84f3dd0314c0f7b2291e5b200ac8c7c3b92560405160405180910390a45050565b600080610fe283610721565b90508073ffffffffffffffffffffffffffffffffffffffff168473ffffffffffffffffffffffffffffffffffffffff16148061102457506110238185610c4e565b5b8061106257508373ffffffffffffffffffffffffffffffffffffffff1661104a84610544565b73ffffffffffffffffffffffffffffffffffffffff16145b91505092915050565b8273ffffffffffffffffffffffffffffffffffffffff1661108b82610721565b73ffffffffffffffffffffffffffffffffffffffff16146110e1576040517f08c379a00000000000000000000000000000000000000000000000000000000081526004016110d89061309c565b60405180910390fd5b600073ffffffffffffffffffffffffffffffffffffffff168273ffffffffffffffffffffffffffffffffffffffff1603611150576040517f08c379a00000000000000000000000000000000000000000000000000000000081526004016111479061312e565b60405180910390fd5b61115d8383836001611870565b8273ffffffffffffffffffffffffffffffffffffffff1661117d82610721565b73ffffffffffffffffffffffffffffffffffffffff16146111d3576040517f08c379a00000000000000000000000000000000000000000000000000000000081526004016111ca9061309c565b60405180910390fd5b6004600082815260200190815260200160002060006101000a81549073ffffffffffffffffffffffffffffffffffffffff02191690556001600360008573ffffffffffffffffffffffffffffffffffffffff1673ffffffffffffffffffffffffffffffffffffffff168152602001908152602001600020600082825403925050819055506001600360008473ffffffffffffffffffffffffffffffffffffffff1673ffffffffffffffffffffffffffffffffffffffff16815260200190815260200160002060008282540192505081905550816002600083815260200190815260200160002060006101000a81548173ffffffffffffffffffffffffffffffffffffffff021916908373ffffffffffffffffffffffffffffffffffffffff160217905550808273ffffffffffffffffffffffffffffffffffffffff168473ffffffffffffffffffffffffffffffffffffffff167fddf252ad1be2c89b69c2b068fc378daa952ba7f163c4a11628f55a4df523b3ef60405160405180910390a461135f8383836001611876565b505050565b60006002600083815260200190815260200160002060009054906101000a900473ffffffffffffffffffffffffffffffffffffffff169050919050565b6113a9610f15565b73ffffffffffffffffffffffffffffffffffffffff166113c7610967565b73ffffffffffffffffffffffffffffffffffffffff161461141d576040517f08c379a00000000000000000000000000000000000000000000000000000000081526004016114149061319a565b60405180910390fd5b565b6000600660009054906101000a900473ffffffffffffffffffffffffffffffffffffffff16905081600660006101000a81548173ffffffffffffffffffffffffffffffffffffffff021916908373ffffffffffffffffffffffffffffffffffffffff1602179055508173ffffffffffffffffffffffffffffffffffffffff168173ffffffffffffffffffffffffffffffffffffffff167f8be0079c531659141344cd1fd0a4f28419497f9722a3daafe3b4186f6b6457e060405160405180910390a35050565b6114ed611ef8565b6000600a836040516114ff9190612e83565b9081526020016040518091039020541461154e576040517f08c379a00000000000000000000000000000000000000000000000000000000081526004016115459061322c565b60405180910390fd5b611558600761187c565b60006115646007611892565b905061157033826118a0565b61157a81846118be565b915050919050565b8173ffffffffffffffffffffffffffffffffffffffff168373ffffffffffffffffffffffffffffffffffffffff16036115f0576040517f08c379a00000000000000000000000000000000000000000000000000000000081526004016115e790613298565b60405180910390fd5b80600560008573ffffffffffffffffffffffffffffffffffffffff1673ffffffffffffffffffffffffffffffffffffffff16815260200190815260200160002060008473ffffffffffffffffffffffffffffffffffffffff1673ffffffffffffffffffffffffffffffffffffffff16815260200190815260200160002060006101000a81548160ff0219169083151502179055508173ffffffffffffffffffffffffffffffffffffffff168373ffffffffffffffffffffffffffffffffffffffff167f17307eab39ab6107e8899845ad3d59bd9653f200f220920489ca2b5937696c31836040516116e19190612069565b60405180910390a3505050565b6116f984848461106b565b61170584848484611983565b611744576040517f08c379a000000000000000000000000000000000000000000000000000000000815260040161173b9061332a565b60405180910390fd5b50505050565b606060405180602001604052806000815250905090565b60606000600161177084611b0a565b01905060008167ffffffffffffffff81111561178f5761178e61231e565b5b6040519080825280601f01601f1916602001820160405280156117c15781602001600182028036833780820191505090505b509050600082602001820190505b600115611824578080600190039150507f3031323334353637383961626364656600000000000000000000000000000000600a86061a8153600a85816118185761181761334a565b5b049450600085036117cf575b819350505050919050565b60008073ffffffffffffffffffffffffffffffffffffffff1661185183611364565b73ffffffffffffffffffffffffffffffffffffffff1614159050919050565b50505050565b50505050565b6001816000016000828254019250508190555050565b600081600001549050919050565b6118ba828260405180602001604052806000815250611c5d565b5050565b6118c6611ef8565b6000604051806040016040528084815260200185815250905060088190806001815401808255809150506001900390600052602060002090600202016000909190919091506000820151816000019080519060200190611927929190611f12565b506020820151816001015550506008805490506009600086815260200190815260200160002081905550600880549050600a846040516119679190612e83565b9081526020016040518091039020819055508091505092915050565b60006119a48473ffffffffffffffffffffffffffffffffffffffff16611cb8565b15611afd578373ffffffffffffffffffffffffffffffffffffffff1663150b7a026119cd610f15565b8786866040518563ffffffff1660e01b81526004016119ef94939291906133ce565b6020604051808303816000875af1925050508015611a2b57506040513d601f19601f82011682018060405250810190611a28919061342f565b60015b611aad573d8060008114611a5b576040519150601f19603f3d011682016040523d82523d6000602084013e611a60565b606091505b506000815103611aa5576040517f08c379a0000000000000000000000000000000000000000000000000000000008152600401611a9c9061332a565b60405180910390fd5b805181602001fd5b63150b7a0260e01b7bffffffffffffffffffffffffffffffffffffffffffffffffffffffff1916817bffffffffffffffffffffffffffffffffffffffffffffffffffffffff191614915050611b02565b600190505b949350505050565b600080600090507a184f03e93ff9f4daa797ed6e38ed64bf6a1f0100000000000000008310611b68577a184f03e93ff9f4daa797ed6e38ed64bf6a1f0100000000000000008381611b5e57611b5d61334a565b5b0492506040810190505b6d04ee2d6d415b85acef81000000008310611ba5576d04ee2d6d415b85acef81000000008381611b9b57611b9a61334a565b5b0492506020810190505b662386f26fc100008310611bd457662386f26fc100008381611bca57611bc961334a565b5b0492506010810190505b6305f5e1008310611bfd576305f5e1008381611bf357611bf261334a565b5b0492506008810190505b6127108310611c22576127108381611c1857611c1761334a565b5b0492506004810190505b60648310611c455760648381611c3b57611c3a61334a565b5b0492506002810190505b600a8310611c54576001810190505b80915050919050565b611c678383611cdb565b611c746000848484611983565b611cb3576040517f08c379a0000000000000000000000000000000000000000000000000000000008152600401611caa9061332a565b60405180910390fd5b505050565b6000808273ffffffffffffffffffffffffffffffffffffffff163b119050919050565b600073ffffffffffffffffffffffffffffffffffffffff168273ffffffffffffffffffffffffffffffffffffffff1603611d4a576040517f08c379a0000000000000000000000000000000000000000000000000000000008152600401611d41906134a8565b60405180910390fd5b611d538161182f565b15611d93576040517f08c379a0000000000000000000000000000000000000000000000000000000008152600401611d8a90613514565b60405180910390fd5b611da1600083836001611870565b611daa8161182f565b15611dea576040517f08c379a0000000000000000000000000000000000000000000000000000000008152600401611de190613514565b60405180910390fd5b6001600360008473ffffffffffffffffffffffffffffffffffffffff1673ffffffffffffffffffffffffffffffffffffffff16815260200190815260200160002060008282540192505081905550816002600083815260200190815260200160002060006101000a81548173ffffffffffffffffffffffffffffffffffffffff021916908373ffffffffffffffffffffffffffffffffffffffff160217905550808273ffffffffffffffffffffffffffffffffffffffff16600073ffffffffffffffffffffffffffffffffffffffff167fddf252ad1be2c89b69c2b068fc378daa952ba7f163c4a11628f55a4df523b3ef60405160405180910390a4611ef4600083836001611876565b5050565b604051806040016040528060608152602001600081525090565b828054611f1e906129aa565b90600052602060002090601f016020900481019282611f405760008555611f87565b82601f10611f5957805160ff1916838001178555611f87565b82800160010185558215611f87579182015b82811115611f86578251825591602001919060010190611f6b565b5b509050611f949190611f98565b5090565b5b80821115611fb1576000816000905550600101611f99565b5090565b6000604051905090565b600080fd5b600080fd5b60007fffffffff0000000000000000000000000000000000000000000000000000000082169050919050565b611ffe81611fc9565b811461200957600080fd5b50565b60008135905061201b81611ff5565b92915050565b60006020828403121561203757612036611fbf565b5b60006120458482850161200c565b91505092915050565b60008115159050919050565b6120638161204e565b82525050565b600060208201905061207e600083018461205a565b92915050565b600081519050919050565b600082825260208201905092915050565b60005b838110156120be5780820151818401526020810190506120a3565b838111156120cd576000848401525b50505050565b6000601f19601f8301169050919050565b60006120ef82612084565b6120f9818561208f565b93506121098185602086016120a0565b612112816120d3565b840191505092915050565b6000602082019050818103600083015261213781846120e4565b905092915050565b6000819050919050565b6121528161213f565b811461215d57600080fd5b50565b60008135905061216f81612149565b92915050565b60006020828403121561218b5761218a611fbf565b5b600061219984828501612160565b91505092915050565b600073ffffffffffffffffffffffffffffffffffffffff82169050919050565b60006121cd826121a2565b9050919050565b6121dd816121c2565b82525050565b60006020820190506121f860008301846121d4565b92915050565b612207816121c2565b811461221257600080fd5b50565b600081359050612224816121fe565b92915050565b6000806040838503121561224157612240611fbf565b5b600061224f85828601612215565b925050602061226085828601612160565b9150509250929050565b60008060006060848603121561228357612282611fbf565b5b600061229186828701612215565b93505060206122a286828701612215565b92505060406122b386828701612160565b9150509250925092565b6000602082840312156122d3576122d2611fbf565b5b60006122e184828501612215565b91505092915050565b6122f38161213f565b82525050565b600060208201905061230e60008301846122ea565b92915050565b600080fd5b600080fd5b7f4e487b7100000000000000000000000000000000000000000000000000000000600052604160045260246000fd5b612356826120d3565b810181811067ffffffffffffffff821117156123755761237461231e565b5b80604052505050565b6000612388611fb5565b9050612394828261234d565b919050565b600067ffffffffffffffff8211156123b4576123b361231e565b5b6123bd826120d3565b9050602081019050919050565b82818337600083830152505050565b60006123ec6123e784612399565b61237e565b90508281526020810184848401111561240857612407612319565b5b6124138482856123ca565b509392505050565b600082601f8301126124305761242f612314565b5b81356124408482602086016123d9565b91505092915050565b600067ffffffffffffffff8211156124645761246361231e565b5b602082029050602081019050919050565b600080fd5b600061248d61248884612449565b61237e565b905080838252602082019050602084028301858111156124b0576124af612475565b5b835b818110156124d957806124c58882612160565b8452602084019350506020810190506124b2565b5050509392505050565b600082601f8301126124f8576124f7612314565b5b813561250884826020860161247a565b91505092915050565b6000806040838503121561252857612527611fbf565b5b600083013567ffffffffffffffff81111561254657612545611fc4565b5b6125528582860161241b565b925050602083013567ffffffffffffffff81111561257357612572611fc4565b5b61257f858286016124e3565b9150509250929050565b600082825260208201905092915050565b60006125a582612084565b6125af8185612589565b93506125bf8185602086016120a0565b6125c8816120d3565b840191505092915050565b6125dc8161213f565b82525050565b600060408301600083015184820360008601526125ff828261259a565b915050602083015161261460208601826125d3565b508091505092915050565b6000602082019050818103600083015261263981846125e2565b905092915050565b61264a8161204e565b811461265557600080fd5b50565b60008135905061266781612641565b92915050565b6000806040838503121561268457612683611fbf565b5b600061269285828601612215565b92505060206126a385828601612658565b9150509250929050565b600067ffffffffffffffff8211156126c8576126c761231e565b5b6126d1826120d3565b9050602081019050919050565b60006126f16126ec846126ad565b61237e565b90508281526020810184848401111561270d5761270c612319565b5b6127188482856123ca565b509392505050565b600082601f83011261273557612734612314565b5b81356127458482602086016126de565b91505092915050565b6000806000806080858703121561276857612767611fbf565b5b600061277687828801612215565b945050602061278787828801612215565b935050604061279887828801612160565b925050606085013567ffffffffffffffff8111156127b9576127b8611fc4565b5b6127c587828801612720565b91505092959194509250565b6000602082840312156127e7576127e6611fbf565b5b600082013567ffffffffffffffff81111561280557612804611fc4565b5b6128118482850161241b565b91505092915050565b6000806040838503121561283157612830611fbf565b5b600061283f85828601612215565b925050602061285085828601612215565b9150509250929050565b600081519050919050565b600082825260208201905092915050565b6000819050602082019050919050565b600060408301600083015184820360008601526128a3828261259a565b91505060208301516128b860208601826125d3565b508091505092915050565b60006128cf8383612886565b905092915050565b6000602082019050919050565b60006128ef8261285a565b6128f98185612865565b93508360208202850161290b85612876565b8060005b85811015612947578484038952815161292885826128c3565b9450612933836128d7565b925060208a0199505060018101905061290f565b50829750879550505050505092915050565b6000602082019050818103600083015261297381846128e4565b905092915050565b7f4e487b7100000000000000000000000000000000000000000000000000000000600052602260045260246000fd5b600060028204905060018216806129c257607f821691505b6020821081036129d5576129d461297b565b5b50919050565b7f4552433732313a20617070726f76616c20746f2063757272656e74206f776e6560008201527f7200000000000000000000000000000000000000000000000000000000000000602082015250565b6000612a3760218361208f565b9150612a42826129db565b604082019050919050565b60006020820190508181036000830152612a6681612a2a565b9050919050565b7f4552433732313a20617070726f76652063616c6c6572206973206e6f7420746f60008201527f6b656e206f776e6572206f7220617070726f76656420666f7220616c6c000000602082015250565b6000612ac9603d8361208f565b9150612ad482612a6d565b604082019050919050565b60006020820190508181036000830152612af881612abc565b9050919050565b7f4552433732313a2063616c6c6572206973206e6f7420746f6b656e206f776e6560008201527f72206f7220617070726f76656400000000000000000000000000000000000000602082015250565b6000612b5b602d8361208f565b9150612b6682612aff565b604082019050919050565b60006020820190508181036000830152612b8a81612b4e565b9050919050565b7f4552433732313a20696e76616c696420746f6b656e2049440000000000000000600082015250565b6000612bc760188361208f565b9150612bd282612b91565b602082019050919050565b60006020820190508181036000830152612bf681612bba565b9050919050565b7f4552433732313a2061646472657373207a65726f206973206e6f74206120766160008201527f6c6964206f776e65720000000000000000000000000000000000000000000000602082015250565b6000612c5960298361208f565b9150612c6482612bfd565b604082019050919050565b60006020820190508181036000830152612c8881612c4c565b9050919050565b600081519050919050565b600082825260208201905092915050565b6000819050602082019050919050565b6000612cc783836125d3565b60208301905092915050565b6000602082019050919050565b6000612ceb82612c8f565b612cf58185612c9a565b9350612d0083612cab565b8060005b83811015612d31578151612d188882612cbb565b9750612d2383612cd3565b925050600181019050612d04565b5085935050505092915050565b60006040820190508181036000830152612d5881856120e4565b90508181036020830152612d6c8184612ce0565b90509392505050565b600081519050612d8481612641565b92915050565b600060208284031215612da057612d9f611fbf565b5b6000612dae84828501612d75565b91505092915050565b7f4e6f74206372656469747320656e6f7567680000000000000000000000000000600082015250565b6000612ded60128361208f565b9150612df882612db7565b602082019050919050565b60006020820190508181036000830152612e1c81612de0565b9050919050565b600081905092915050565b6000612e3982612084565b612e438185612e23565b9350612e538185602086016120a0565b80840191505092915050565b6000612e6b8285612e2e565b9150612e778284612e2e565b91508190509392505050565b6000612e8f8284612e2e565b915081905092915050565b7f4e6f742065786973747300000000000000000000000000000000000000000000600082015250565b6000612ed0600a8361208f565b9150612edb82612e9a565b602082019050919050565b60006020820190508181036000830152612eff81612ec3565b9050919050565b7f4e487b7100000000000000000000000000000000000000000000000000000000600052601160045260246000fd5b6000612f408261213f565b9150612f4b8361213f565b925082821015612f5e57612f5d612f06565b5b828203905092915050565b7f4e487b7100000000000000000000000000000000000000000000000000000000600052603260045260246000fd5b7f4f776e61626c653a206e6577206f776e657220697320746865207a65726f206160008201527f6464726573730000000000000000000000000000000000000000000000000000602082015250565b6000612ff460268361208f565b9150612fff82612f98565b604082019050919050565b6000602082019050818103600083015261302381612fe7565b9050919050565b7f4552433732313a207472616e736665722066726f6d20696e636f72726563742060008201527f6f776e6572000000000000000000000000000000000000000000000000000000602082015250565b600061308660258361208f565b91506130918261302a565b604082019050919050565b600060208201905081810360008301526130b581613079565b9050919050565b7f4552433732313a207472616e7366657220746f20746865207a65726f2061646460008201527f7265737300000000000000000000000000000000000000000000000000000000602082015250565b600061311860248361208f565b9150613123826130bc565b604082019050919050565b600060208201905081810360008301526131478161310b565b9050919050565b7f4f776e61626c653a2063616c6c6572206973206e6f7420746865206f776e6572600082015250565b600061318460208361208f565b915061318f8261314e565b602082019050919050565b600060208201905081810360008301526131b381613177565b9050919050565b7f53747564656e7420686173206265656e206772616e746564206e66742067726160008201527f64756174696f6e00000000000000000000000000000000000000000000000000602082015250565b600061321660278361208f565b9150613221826131ba565b604082019050919050565b6000602082019050818103600083015261324581613209565b9050919050565b7f4552433732313a20617070726f766520746f2063616c6c657200000000000000600082015250565b600061328260198361208f565b915061328d8261324c565b602082019050919050565b600060208201905081810360008301526132b181613275565b9050919050565b7f4552433732313a207472616e7366657220746f206e6f6e20455243373231526560008201527f63656976657220696d706c656d656e7465720000000000000000000000000000602082015250565b600061331460328361208f565b915061331f826132b8565b604082019050919050565b6000602082019050818103600083015261334381613307565b9050919050565b7f4e487b7100000000000000000000000000000000000000000000000000000000600052601260045260246000fd5b600081519050919050565b600082825260208201905092915050565b60006133a082613379565b6133aa8185613384565b93506133ba8185602086016120a0565b6133c3816120d3565b840191505092915050565b60006080820190506133e360008301876121d4565b6133f060208301866121d4565b6133fd60408301856122ea565b818103606083015261340f8184613395565b905095945050505050565b60008151905061342981611ff5565b92915050565b60006020828403121561344557613444611fbf565b5b60006134538482850161341a565b91505092915050565b7f4552433732313a206d696e7420746f20746865207a65726f2061646472657373600082015250565b600061349260208361208f565b915061349d8261345c565b602082019050919050565b600060208201905081810360008301526134c181613485565b9050919050565b7f4552433732313a20746f6b656e20616c7265616479206d696e74656400000000600082015250565b60006134fe601c8361208f565b9150613509826134c8565b602082019050919050565b6000602082019050818103600083015261352d816134f1565b905091905056fea2646970667358221220476bb26adb40ba0f235cb7791f31256ebbf366425e19327605f426be6367b7f664736f6c634300080d0033",
  "immutableReferences": {
    "5739": [
      {
        "length": 32,
        "start": 2172
      }
    ]
  },
  "source": "// SPDX-License-Identifier: MIT\r\n// Tells the Solidity compiler to compile only from v0.8.13 to v0.9.0\r\npragma solidity ^0.8.13;\r\n\r\nimport \"@openzeppelin/contracts/token/ERC721/ERC721.sol\";\r\nimport \"@openzeppelin/contracts/utils/Counters.sol\";\r\nimport \"@openzeppelin/contracts/access/Ownable.sol\";\r\nimport \"./NftCourse.sol\";\r\n\r\ncontract NftGraduation is ERC721, Ownable {\r\n\tusing Counters for Counters.Counter;\r\n    struct NftItem {\r\n    \tstring studentId;\r\n    \tuint256 tokenId;\r\n    }\r\n\r\n\tNftCourse private immutable _courseContract;\r\n\r\n    // // Nft Graduation\r\n    Counters.Counter private _tokenIds;\r\n    NftItem[] private _allNftItems;\r\n    mapping(uint256 => uint256) private _idToNftIndex; // tokenId =>NftItem \r\n    mapping(string => uint256) private _studentIdToNftIndex; // tokenId =>NftItem \r\n\r\n    modifier onlyCourseContract {\r\n    \trequire(msg.sender == address(_courseContract), 'access denied');\r\n    \t_;\r\n    }\r\n\r\n    constructor(NftCourse courseContract) ERC721(\"GraduationNft\", \"GNFT\") {\r\n        _courseContract = courseContract;\r\n    }\r\n\r\n    function getAllNftGraduations() public view returns (NftItem[] memory) {\r\n        return _allNftItems;\r\n    }\r\n\r\n    function getNftGraduation(string memory studentId) public view returns (NftItem memory){\r\n        uint256 nftIndex = _studentIdToNftIndex[studentId];\r\n        if (nftIndex == 0) {\r\n            revert(\"Not exists\");\r\n        }\r\n\r\n        return _allNftItems[nftIndex - 1];\r\n    }\r\n\r\n    function exchangeNftGraduation(\r\n        string memory studentId,\r\n\t\tuint256[] memory tokenIds\r\n    ) public returns (NftItem memory) {\r\n        require(_courseContract.validateNftGradution(studentId, tokenIds), \"Not credits enough\");\r\n\t\treturn _mintToken(studentId);\r\n    }\r\n    \r\n    function _mintToken(string memory studentId) private returns (NftItem memory) {\r\n\t\trequire(_studentIdToNftIndex[studentId] == 0, \"Student has been granted nft graduation\");\r\n        _tokenIds.increment();\r\n\r\n        uint256 newTokenId = _tokenIds.current();\r\n        _safeMint(msg.sender, newTokenId);\r\n        return _createNftItem(newTokenId, studentId);\r\n    }\r\n\r\n\tfunction _createNftItem(uint256 tokenId, string memory studentId) private returns (NftItem memory) {\r\n        NftItem memory nftItem = NftItem(studentId, tokenId);\r\n        _allNftItems.push(nftItem);\r\n        _idToNftIndex[tokenId] = _allNftItems.length;\r\n\t\t_studentIdToNftIndex[studentId] = _allNftItems.length;\r\n\r\n\t\treturn nftItem;\r\n\t}\r\n}\r\n",
  "sourcePath": "E:\\learn\\learn-to-earn\\contracts\\NftGraduation.sol",
  "compiler": {
    "name": "solc",
    "version": "0.8.13+commit.abaa5c0e.Emscripten.clang"
  },
  "schemaVersion": "3.4.11",
  "updatedAt": "2023-03-07T22:43:33.092Z",
  "devdoc": {
    "kind": "dev",
    "methods": {
      "approve(address,uint256)": {
        "details": "See {IERC721-approve}."
      },
      "balanceOf(address)": {
        "details": "See {IERC721-balanceOf}."
      },
      "getApproved(uint256)": {
        "details": "See {IERC721-getApproved}."
      },
      "isApprovedForAll(address,address)": {
        "details": "See {IERC721-isApprovedForAll}."
      },
      "name()": {
        "details": "See {IERC721Metadata-name}."
      },
      "owner()": {
        "details": "Returns the address of the current owner."
      },
      "ownerOf(uint256)": {
        "details": "See {IERC721-ownerOf}."
      },
      "renounceOwnership()": {
        "details": "Leaves the contract without owner. It will not be possible to call `onlyOwner` functions anymore. Can only be called by the current owner. NOTE: Renouncing ownership will leave the contract without an owner, thereby removing any functionality that is only available to the owner."
      },
      "safeTransferFrom(address,address,uint256)": {
        "details": "See {IERC721-safeTransferFrom}."
      },
      "safeTransferFrom(address,address,uint256,bytes)": {
        "details": "See {IERC721-safeTransferFrom}."
      },
      "setApprovalForAll(address,bool)": {
        "details": "See {IERC721-setApprovalForAll}."
      },
      "supportsInterface(bytes4)": {
        "details": "See {IERC165-supportsInterface}."
      },
      "symbol()": {
        "details": "See {IERC721Metadata-symbol}."
      },
      "tokenURI(uint256)": {
        "details": "See {IERC721Metadata-tokenURI}."
      },
      "transferFrom(address,address,uint256)": {
        "details": "See {IERC721-transferFrom}."
      },
      "transferOwnership(address)": {
        "details": "Transfers ownership of the contract to a new account (`newOwner`). Can only be called by the current owner."
      }
    },
    "version": 1
  },
  "userdoc": {
    "kind": "user",
    "methods": {},
    "version": 1
  }
}