{
  "contractName": "NftGraduation",
  "abi": [
    {
      "inputs": [
        {
          "internalType": "contract NftCourse",
          "name": "courseContract",
          "type": "address"
        }
      ],
      "stateMutability": "nonpayable",
      "type": "constructor"
    },
    {
      "anonymous": false,
      "inputs": [
        {
          "indexed": true,
          "internalType": "address",
          "name": "owner",
          "type": "address"
        },
        {
          "indexed": true,
          "internalType": "address",
          "name": "approved",
          "type": "address"
        },
        {
          "indexed": true,
          "internalType": "uint256",
          "name": "tokenId",
          "type": "uint256"
        }
      ],
      "name": "Approval",
      "type": "event"
    },
    {
      "anonymous": false,
      "inputs": [
        {
          "indexed": true,
          "internalType": "address",
          "name": "owner",
          "type": "address"
        },
        {
          "indexed": true,
          "internalType": "address",
          "name": "operator",
          "type": "address"
        },
        {
          "indexed": false,
          "internalType": "bool",
          "name": "approved",
          "type": "bool"
        }
      ],
      "name": "ApprovalForAll",
      "type": "event"
    },
    {
      "anonymous": false,
      "inputs": [
        {
          "indexed": true,
          "internalType": "address",
          "name": "previousOwner",
          "type": "address"
        },
        {
          "indexed": true,
          "internalType": "address",
          "name": "newOwner",
          "type": "address"
        }
      ],
      "name": "OwnershipTransferred",
      "type": "event"
    },
    {
      "anonymous": false,
      "inputs": [
        {
          "indexed": true,
          "internalType": "address",
          "name": "from",
          "type": "address"
        },
        {
          "indexed": true,
          "internalType": "address",
          "name": "to",
          "type": "address"
        },
        {
          "indexed": true,
          "internalType": "uint256",
          "name": "tokenId",
          "type": "uint256"
        }
      ],
      "name": "Transfer",
      "type": "event"
    },
    {
      "inputs": [
        {
          "internalType": "address",
          "name": "to",
          "type": "address"
        },
        {
          "internalType": "uint256",
          "name": "tokenId",
          "type": "uint256"
        }
      ],
      "name": "approve",
      "outputs": [],
      "stateMutability": "nonpayable",
      "type": "function"
    },
    {
      "inputs": [
        {
          "internalType": "address",
          "name": "owner",
          "type": "address"
        }
      ],
      "name": "balanceOf",
      "outputs": [
        {
          "internalType": "uint256",
          "name": "",
          "type": "uint256"
        }
      ],
      "stateMutability": "view",
      "type": "function",
      "constant": true
    },
    {
      "inputs": [
        {
          "internalType": "uint256",
          "name": "tokenId",
          "type": "uint256"
        }
      ],
      "name": "getApproved",
      "outputs": [
        {
          "internalType": "address",
          "name": "",
          "type": "address"
        }
      ],
      "stateMutability": "view",
      "type": "function",
      "constant": true
    },
    {
      "inputs": [
        {
          "internalType": "address",
          "name": "owner",
          "type": "address"
        },
        {
          "internalType": "address",
          "name": "operator",
          "type": "address"
        }
      ],
      "name": "isApprovedForAll",
      "outputs": [
        {
          "internalType": "bool",
          "name": "",
          "type": "bool"
        }
      ],
      "stateMutability": "view",
      "type": "function",
      "constant": true
    },
    {
      "inputs": [],
      "name": "name",
      "outputs": [
        {
          "internalType": "string",
          "name": "",
          "type": "string"
        }
      ],
      "stateMutability": "view",
      "type": "function",
      "constant": true
    },
    {
      "inputs": [],
      "name": "owner",
      "outputs": [
        {
          "internalType": "address",
          "name": "",
          "type": "address"
        }
      ],
      "stateMutability": "view",
      "type": "function",
      "constant": true
    },
    {
      "inputs": [
        {
          "internalType": "uint256",
          "name": "tokenId",
          "type": "uint256"
        }
      ],
      "name": "ownerOf",
      "outputs": [
        {
          "internalType": "address",
          "name": "",
          "type": "address"
        }
      ],
      "stateMutability": "view",
      "type": "function",
      "constant": true
    },
    {
      "inputs": [],
      "name": "renounceOwnership",
      "outputs": [],
      "stateMutability": "nonpayable",
      "type": "function"
    },
    {
      "inputs": [
        {
          "internalType": "address",
          "name": "from",
          "type": "address"
        },
        {
          "internalType": "address",
          "name": "to",
          "type": "address"
        },
        {
          "internalType": "uint256",
          "name": "tokenId",
          "type": "uint256"
        }
      ],
      "name": "safeTransferFrom",
      "outputs": [],
      "stateMutability": "nonpayable",
      "type": "function"
    },
    {
      "inputs": [
        {
          "internalType": "address",
          "name": "from",
          "type": "address"
        },
        {
          "internalType": "address",
          "name": "to",
          "type": "address"
        },
        {
          "internalType": "uint256",
          "name": "tokenId",
          "type": "uint256"
        },
        {
          "internalType": "bytes",
          "name": "data",
          "type": "bytes"
        }
      ],
      "name": "safeTransferFrom",
      "outputs": [],
      "stateMutability": "nonpayable",
      "type": "function"
    },
    {
      "inputs": [
        {
          "internalType": "address",
          "name": "operator",
          "type": "address"
        },
        {
          "internalType": "bool",
          "name": "approved",
          "type": "bool"
        }
      ],
      "name": "setApprovalForAll",
      "outputs": [],
      "stateMutability": "nonpayable",
      "type": "function"
    },
    {
      "inputs": [
        {
          "internalType": "bytes4",
          "name": "interfaceId",
          "type": "bytes4"
        }
      ],
      "name": "supportsInterface",
      "outputs": [
        {
          "internalType": "bool",
          "name": "",
          "type": "bool"
        }
      ],
      "stateMutability": "view",
      "type": "function",
      "constant": true
    },
    {
      "inputs": [],
      "name": "symbol",
      "outputs": [
        {
          "internalType": "string",
          "name": "",
          "type": "string"
        }
      ],
      "stateMutability": "view",
      "type": "function",
      "constant": true
    },
    {
      "inputs": [
        {
          "internalType": "uint256",
          "name": "tokenId",
          "type": "uint256"
        }
      ],
      "name": "tokenURI",
      "outputs": [
        {
          "internalType": "string",
          "name": "",
          "type": "string"
        }
      ],
      "stateMutability": "view",
      "type": "function",
      "constant": true
    },
    {
      "inputs": [
        {
          "internalType": "address",
          "name": "from",
          "type": "address"
        },
        {
          "internalType": "address",
          "name": "to",
          "type": "address"
        },
        {
          "internalType": "uint256",
          "name": "tokenId",
          "type": "uint256"
        }
      ],
      "name": "transferFrom",
      "outputs": [],
      "stateMutability": "nonpayable",
      "type": "function"
    },
    {
      "inputs": [
        {
          "internalType": "address",
          "name": "newOwner",
          "type": "address"
        }
      ],
      "name": "transferOwnership",
      "outputs": [],
      "stateMutability": "nonpayable",
      "type": "function"
    },
    {
      "inputs": [
        {
          "internalType": "string",
          "name": "studentId",
          "type": "string"
        },
        {
          "internalType": "uint256[]",
          "name": "tokenIds",
          "type": "uint256[]"
        }
      ],
      "name": "exchangeNftGraduation",
      "outputs": [
        {
          "components": [
            {
              "internalType": "string",
              "name": "studentId",
              "type": "string"
            },
            {
              "internalType": "uint256",
              "name": "tokenId",
              "type": "uint256"
            }
          ],
          "internalType": "struct NftGraduation.NftItem",
          "name": "",
          "type": "tuple"
        }
      ],
      "stateMutability": "nonpayable",
      "type": "function"
    }
  ],
  "bytecode": "0x60a06040523480156200001157600080fd5b50604051620037123803806200371283398181016040528101906200003791906200032e565b6040518060400160405280600d81526020017f47726164756174696f6e4e6674000000000000000000000000000000000000008152506040518060400160405280600481526020017f474e4654000000000000000000000000000000000000000000000000000000008152508160009080519060200190620000bb92919062000200565b508060019080519060200190620000d492919062000200565b505050620000f7620000eb6200013260201b60201c565b6200013a60201b60201c565b8073ffffffffffffffffffffffffffffffffffffffff1660808173ffffffffffffffffffffffffffffffffffffffff168152505050620003c4565b600033905090565b6000600660009054906101000a900473ffffffffffffffffffffffffffffffffffffffff16905081600660006101000a81548173ffffffffffffffffffffffffffffffffffffffff021916908373ffffffffffffffffffffffffffffffffffffffff1602179055508173ffffffffffffffffffffffffffffffffffffffff168173ffffffffffffffffffffffffffffffffffffffff167f8be0079c531659141344cd1fd0a4f28419497f9722a3daafe3b4186f6b6457e060405160405180910390a35050565b8280546200020e906200038f565b90600052602060002090601f0160209004810192826200023257600085556200027e565b82601f106200024d57805160ff19168380011785556200027e565b828001600101855582156200027e579182015b828111156200027d57825182559160200191906001019062000260565b5b5090506200028d919062000291565b5090565b5b80821115620002ac57600081600090555060010162000292565b5090565b600080fd5b600073ffffffffffffffffffffffffffffffffffffffff82169050919050565b6000620002e282620002b5565b9050919050565b6000620002f682620002d5565b9050919050565b6200030881620002e9565b81146200031457600080fd5b50565b6000815190506200032881620002fd565b92915050565b600060208284031215620003475762000346620002b0565b5b6000620003578482850162000317565b91505092915050565b7f4e487b7100000000000000000000000000000000000000000000000000000000600052602260045260246000fd5b60006002820490506001821680620003a857607f821691505b602082108103620003be57620003bd62000360565b5b50919050565b60805161332b620003e7600039600081816108180152611245015261332b6000f3fe608060405234801561001057600080fd5b506004361061010b5760003560e01c8063715018a6116100a2578063a22cb46511610071578063a22cb465146102b8578063b88d4fde146102d4578063c87b56dd146102f0578063e985e9c514610320578063f2fde38b146103505761010b565b8063715018a614610242578063739d33411461024c5780638da5cb5b1461027c57806395d89b411461029a5761010b565b806323b872dd116100de57806323b872dd146101aa57806342842e0e146101c65780636352211e146101e257806370a08231146102125761010b565b806301ffc9a71461011057806306fdde0314610140578063081812fc1461015e578063095ea7b31461018e575b600080fd5b61012a60048036038101906101259190611f25565b61036c565b6040516101379190611f6d565b60405180910390f35b61014861044e565b6040516101559190612021565b60405180910390f35b61017860048036038101906101739190612079565b6104e0565b60405161018591906120e7565b60405180910390f35b6101a860048036038101906101a3919061212e565b610526565b005b6101c460048036038101906101bf919061216e565b61063d565b005b6101e060048036038101906101db919061216e565b61069d565b005b6101fc60048036038101906101f79190612079565b6106bd565b60405161020991906120e7565b60405180910390f35b61022c600480360381019061022791906121c1565b610743565b60405161023991906121fd565b60405180910390f35b61024a6107fa565b005b61026660048036038101906102619190612415565b61080e565b6040516102739190612523565b60405180910390f35b610284610903565b60405161029191906120e7565b60405180910390f35b6102a261092d565b6040516102af9190612021565b60405180910390f35b6102d260048036038101906102cd9190612571565b6109bf565b005b6102ee60048036038101906102e99190612652565b6109d5565b005b61030a60048036038101906103059190612079565b610a37565b6040516103179190612021565b60405180910390f35b61033a600480360381019061033591906126d5565b610a9f565b6040516103479190611f6d565b60405180910390f35b61036a600480360381019061036591906121c1565b610b33565b005b60007f80ac58cd000000000000000000000000000000000000000000000000000000007bffffffffffffffffffffffffffffffffffffffffffffffffffffffff1916827bffffffffffffffffffffffffffffffffffffffffffffffffffffffff1916148061043757507f5b5e139f000000000000000000000000000000000000000000000000000000007bffffffffffffffffffffffffffffffffffffffffffffffffffffffff1916827bffffffffffffffffffffffffffffffffffffffffffffffffffffffff1916145b80610447575061044682610bb6565b5b9050919050565b60606000805461045d90612744565b80601f016020809104026020016040519081016040528092919081815260200182805461048990612744565b80156104d65780601f106104ab576101008083540402835291602001916104d6565b820191906000526020600020905b8154815290600101906020018083116104b957829003601f168201915b5050505050905090565b60006104eb82610c20565b6004600083815260200190815260200160002060009054906101000a900473ffffffffffffffffffffffffffffffffffffffff169050919050565b6000610531826106bd565b90508073ffffffffffffffffffffffffffffffffffffffff168373ffffffffffffffffffffffffffffffffffffffff16036105a1576040517f08c379a0000000000000000000000000000000000000000000000000000000008152600401610598906127e7565b60405180910390fd5b8073ffffffffffffffffffffffffffffffffffffffff166105c0610c6b565b73ffffffffffffffffffffffffffffffffffffffff1614806105ef57506105ee816105e9610c6b565b610a9f565b5b61062e576040517f08c379a000000000000000000000000000000000000000000000000000000000815260040161062590612879565b60405180910390fd5b6106388383610c73565b505050565b61064e610648610c6b565b82610d2c565b61068d576040517f08c379a00000000000000000000000000000000000000000000000000000000081526004016106849061290b565b60405180910390fd5b610698838383610dc1565b505050565b6106b8838383604051806020016040528060008152506109d5565b505050565b6000806106c9836110ba565b9050600073ffffffffffffffffffffffffffffffffffffffff168173ffffffffffffffffffffffffffffffffffffffff160361073a576040517f08c379a000000000000000000000000000000000000000000000000000000000815260040161073190612977565b60405180910390fd5b80915050919050565b60008073ffffffffffffffffffffffffffffffffffffffff168273ffffffffffffffffffffffffffffffffffffffff16036107b3576040517f08c379a00000000000000000000000000000000000000000000000000000000081526004016107aa90612a09565b60405180910390fd5b600360008373ffffffffffffffffffffffffffffffffffffffff1673ffffffffffffffffffffffffffffffffffffffff168152602001908152602001600020549050919050565b6108026110f7565b61080c6000611175565b565b610816611dfc565b7f000000000000000000000000000000000000000000000000000000000000000073ffffffffffffffffffffffffffffffffffffffff16627938b584846040518363ffffffff1660e01b8152600401610870929190612ad8565b6020604051808303816000875af115801561088f573d6000803e3d6000fd5b505050506040513d601f19601f820116820180604052508101906108b39190612b24565b6108f2576040517f08c379a00000000000000000000000000000000000000000000000000000000081526004016108e990612b9d565b60405180910390fd5b6108fb8361123b565b905092915050565b6000600660009054906101000a900473ffffffffffffffffffffffffffffffffffffffff16905090565b60606001805461093c90612744565b80601f016020809104026020016040519081016040528092919081815260200182805461096890612744565b80156109b55780601f1061098a576101008083540402835291602001916109b5565b820191906000526020600020905b81548152906001019060200180831161099857829003601f168201915b5050505050905090565b6109d16109ca610c6b565b8383611366565b5050565b6109e66109e0610c6b565b83610d2c565b610a25576040517f08c379a0000000000000000000000000000000000000000000000000000000008152600401610a1c9061290b565b60405180910390fd5b610a31848484846114d2565b50505050565b6060610a4282610c20565b6000610a4c61152e565b90506000815111610a6c5760405180602001604052806000815250610a97565b80610a7684611545565b604051602001610a87929190612bf9565b6040516020818303038152906040525b915050919050565b6000600560008473ffffffffffffffffffffffffffffffffffffffff1673ffffffffffffffffffffffffffffffffffffffff16815260200190815260200160002060008373ffffffffffffffffffffffffffffffffffffffff1673ffffffffffffffffffffffffffffffffffffffff16815260200190815260200160002060009054906101000a900460ff16905092915050565b610b3b6110f7565b600073ffffffffffffffffffffffffffffffffffffffff168173ffffffffffffffffffffffffffffffffffffffff1603610baa576040517f08c379a0000000000000000000000000000000000000000000000000000000008152600401610ba190612c8f565b60405180910390fd5b610bb381611175565b50565b60007f01ffc9a7000000000000000000000000000000000000000000000000000000007bffffffffffffffffffffffffffffffffffffffffffffffffffffffff1916827bffffffffffffffffffffffffffffffffffffffffffffffffffffffff1916149050919050565b610c2981611613565b610c68576040517f08c379a0000000000000000000000000000000000000000000000000000000008152600401610c5f90612977565b60405180910390fd5b50565b600033905090565b816004600083815260200190815260200160002060006101000a81548173ffffffffffffffffffffffffffffffffffffffff021916908373ffffffffffffffffffffffffffffffffffffffff160217905550808273ffffffffffffffffffffffffffffffffffffffff16610ce6836106bd565b73ffffffffffffffffffffffffffffffffffffffff167f8c5be1e5ebec7d5bd14f71427d1e84f3dd0314c0f7b2291e5b200ac8c7c3b92560405160405180910390a45050565b600080610d38836106bd565b90508073ffffffffffffffffffffffffffffffffffffffff168473ffffffffffffffffffffffffffffffffffffffff161480610d7a5750610d798185610a9f565b5b80610db857508373ffffffffffffffffffffffffffffffffffffffff16610da0846104e0565b73ffffffffffffffffffffffffffffffffffffffff16145b91505092915050565b8273ffffffffffffffffffffffffffffffffffffffff16610de1826106bd565b73ffffffffffffffffffffffffffffffffffffffff1614610e37576040517f08c379a0000000000000000000000000000000000000000000000000000000008152600401610e2e90612d21565b60405180910390fd5b600073ffffffffffffffffffffffffffffffffffffffff168273ffffffffffffffffffffffffffffffffffffffff1603610ea6576040517f08c379a0000000000000000000000000000000000000000000000000000000008152600401610e9d90612db3565b60405180910390fd5b610eb38383836001611654565b8273ffffffffffffffffffffffffffffffffffffffff16610ed3826106bd565b73ffffffffffffffffffffffffffffffffffffffff1614610f29576040517f08c379a0000000000000000000000000000000000000000000000000000000008152600401610f2090612d21565b60405180910390fd5b6004600082815260200190815260200160002060006101000a81549073ffffffffffffffffffffffffffffffffffffffff02191690556001600360008573ffffffffffffffffffffffffffffffffffffffff1673ffffffffffffffffffffffffffffffffffffffff168152602001908152602001600020600082825403925050819055506001600360008473ffffffffffffffffffffffffffffffffffffffff1673ffffffffffffffffffffffffffffffffffffffff16815260200190815260200160002060008282540192505081905550816002600083815260200190815260200160002060006101000a81548173ffffffffffffffffffffffffffffffffffffffff021916908373ffffffffffffffffffffffffffffffffffffffff160217905550808273ffffffffffffffffffffffffffffffffffffffff168473ffffffffffffffffffffffffffffffffffffffff167fddf252ad1be2c89b69c2b068fc378daa952ba7f163c4a11628f55a4df523b3ef60405160405180910390a46110b5838383600161177a565b505050565b60006002600083815260200190815260200160002060009054906101000a900473ffffffffffffffffffffffffffffffffffffffff169050919050565b6110ff610c6b565b73ffffffffffffffffffffffffffffffffffffffff1661111d610903565b73ffffffffffffffffffffffffffffffffffffffff1614611173576040517f08c379a000000000000000000000000000000000000000000000000000000000815260040161116a90612e1f565b60405180910390fd5b565b6000600660009054906101000a900473ffffffffffffffffffffffffffffffffffffffff16905081600660006101000a81548173ffffffffffffffffffffffffffffffffffffffff021916908373ffffffffffffffffffffffffffffffffffffffff1602179055508173ffffffffffffffffffffffffffffffffffffffff168173ffffffffffffffffffffffffffffffffffffffff167f8be0079c531659141344cd1fd0a4f28419497f9722a3daafe3b4186f6b6457e060405160405180910390a35050565b611243611dfc565b7f000000000000000000000000000000000000000000000000000000000000000073ffffffffffffffffffffffffffffffffffffffff163373ffffffffffffffffffffffffffffffffffffffff16146112d1576040517f08c379a00000000000000000000000000000000000000000000000000000000081526004016112c890612e8b565b60405180910390fd5b6000600a836040516112e39190612eab565b90815260200160405180910390205414611332576040517f08c379a000000000000000000000000000000000000000000000000000000000815260040161132990612f34565b60405180910390fd5b61133c6007611780565b60006113486007611796565b905061135433826117a4565b61135e81846117c2565b915050919050565b8173ffffffffffffffffffffffffffffffffffffffff168373ffffffffffffffffffffffffffffffffffffffff16036113d4576040517f08c379a00000000000000000000000000000000000000000000000000000000081526004016113cb90612fa0565b60405180910390fd5b80600560008573ffffffffffffffffffffffffffffffffffffffff1673ffffffffffffffffffffffffffffffffffffffff16815260200190815260200160002060008473ffffffffffffffffffffffffffffffffffffffff1673ffffffffffffffffffffffffffffffffffffffff16815260200190815260200160002060006101000a81548160ff0219169083151502179055508173ffffffffffffffffffffffffffffffffffffffff168373ffffffffffffffffffffffffffffffffffffffff167f17307eab39ab6107e8899845ad3d59bd9653f200f220920489ca2b5937696c31836040516114c59190611f6d565b60405180910390a3505050565b6114dd848484610dc1565b6114e984848484611887565b611528576040517f08c379a000000000000000000000000000000000000000000000000000000000815260040161151f90613032565b60405180910390fd5b50505050565b606060405180602001604052806000815250905090565b60606000600161155484611a0e565b01905060008167ffffffffffffffff81111561157357611572612222565b5b6040519080825280601f01601f1916602001820160405280156115a55781602001600182028036833780820191505090505b509050600082602001820190505b600115611608578080600190039150507f3031323334353637383961626364656600000000000000000000000000000000600a86061a8153600a85816115fc576115fb613052565b5b049450600085036115b3575b819350505050919050565b60008073ffffffffffffffffffffffffffffffffffffffff16611635836110ba565b73ffffffffffffffffffffffffffffffffffffffff1614159050919050565b600181111561177457600073ffffffffffffffffffffffffffffffffffffffff168473ffffffffffffffffffffffffffffffffffffffff16146116e85780600360008673ffffffffffffffffffffffffffffffffffffffff1673ffffffffffffffffffffffffffffffffffffffff16815260200190815260200160002060008282546116e091906130b0565b925050819055505b600073ffffffffffffffffffffffffffffffffffffffff168373ffffffffffffffffffffffffffffffffffffffff16146117735780600360008573ffffffffffffffffffffffffffffffffffffffff1673ffffffffffffffffffffffffffffffffffffffff168152602001908152602001600020600082825461176b91906130e4565b925050819055505b5b50505050565b50505050565b6001816000016000828254019250508190555050565b600081600001549050919050565b6117be828260405180602001604052806000815250611b61565b5050565b6117ca611dfc565b600060405180604001604052808481526020018581525090506008819080600181540180825580915050600190039060005260206000209060020201600090919091909150600082015181600001908051906020019061182b929190611e16565b506020820151816001015550506008805490506009600086815260200190815260200160002081905550600880549050600a8460405161186b9190612eab565b9081526020016040518091039020819055508091505092915050565b60006118a88473ffffffffffffffffffffffffffffffffffffffff16611bbc565b15611a01578373ffffffffffffffffffffffffffffffffffffffff1663150b7a026118d1610c6b565b8786866040518563ffffffff1660e01b81526004016118f3949392919061318f565b6020604051808303816000875af192505050801561192f57506040513d601f19601f8201168201806040525081019061192c91906131f0565b60015b6119b1573d806000811461195f576040519150601f19603f3d011682016040523d82523d6000602084013e611964565b606091505b5060008151036119a9576040517f08c379a00000000000000000000000000000000000000000000000000000000081526004016119a090613032565b60405180910390fd5b805181602001fd5b63150b7a0260e01b7bffffffffffffffffffffffffffffffffffffffffffffffffffffffff1916817bffffffffffffffffffffffffffffffffffffffffffffffffffffffff191614915050611a06565b600190505b949350505050565b600080600090507a184f03e93ff9f4daa797ed6e38ed64bf6a1f0100000000000000008310611a6c577a184f03e93ff9f4daa797ed6e38ed64bf6a1f0100000000000000008381611a6257611a61613052565b5b0492506040810190505b6d04ee2d6d415b85acef81000000008310611aa9576d04ee2d6d415b85acef81000000008381611a9f57611a9e613052565b5b0492506020810190505b662386f26fc100008310611ad857662386f26fc100008381611ace57611acd613052565b5b0492506010810190505b6305f5e1008310611b01576305f5e1008381611af757611af6613052565b5b0492506008810190505b6127108310611b26576127108381611b1c57611b1b613052565b5b0492506004810190505b60648310611b495760648381611b3f57611b3e613052565b5b0492506002810190505b600a8310611b58576001810190505b80915050919050565b611b6b8383611bdf565b611b786000848484611887565b611bb7576040517f08c379a0000000000000000000000000000000000000000000000000000000008152600401611bae90613032565b60405180910390fd5b505050565b6000808273ffffffffffffffffffffffffffffffffffffffff163b119050919050565b600073ffffffffffffffffffffffffffffffffffffffff168273ffffffffffffffffffffffffffffffffffffffff1603611c4e576040517f08c379a0000000000000000000000000000000000000000000000000000000008152600401611c4590613269565b60405180910390fd5b611c5781611613565b15611c97576040517f08c379a0000000000000000000000000000000000000000000000000000000008152600401611c8e906132d5565b60405180910390fd5b611ca5600083836001611654565b611cae81611613565b15611cee576040517f08c379a0000000000000000000000000000000000000000000000000000000008152600401611ce5906132d5565b60405180910390fd5b6001600360008473ffffffffffffffffffffffffffffffffffffffff1673ffffffffffffffffffffffffffffffffffffffff16815260200190815260200160002060008282540192505081905550816002600083815260200190815260200160002060006101000a81548173ffffffffffffffffffffffffffffffffffffffff021916908373ffffffffffffffffffffffffffffffffffffffff160217905550808273ffffffffffffffffffffffffffffffffffffffff16600073ffffffffffffffffffffffffffffffffffffffff167fddf252ad1be2c89b69c2b068fc378daa952ba7f163c4a11628f55a4df523b3ef60405160405180910390a4611df860008383600161177a565b5050565b604051806040016040528060608152602001600081525090565b828054611e2290612744565b90600052602060002090601f016020900481019282611e445760008555611e8b565b82601f10611e5d57805160ff1916838001178555611e8b565b82800160010185558215611e8b579182015b82811115611e8a578251825591602001919060010190611e6f565b5b509050611e989190611e9c565b5090565b5b80821115611eb5576000816000905550600101611e9d565b5090565b6000604051905090565b600080fd5b600080fd5b60007fffffffff0000000000000000000000000000000000000000000000000000000082169050919050565b611f0281611ecd565b8114611f0d57600080fd5b50565b600081359050611f1f81611ef9565b92915050565b600060208284031215611f3b57611f3a611ec3565b5b6000611f4984828501611f10565b91505092915050565b60008115159050919050565b611f6781611f52565b82525050565b6000602082019050611f826000830184611f5e565b92915050565b600081519050919050565b600082825260208201905092915050565b60005b83811015611fc2578082015181840152602081019050611fa7565b83811115611fd1576000848401525b50505050565b6000601f19601f8301169050919050565b6000611ff382611f88565b611ffd8185611f93565b935061200d818560208601611fa4565b61201681611fd7565b840191505092915050565b6000602082019050818103600083015261203b8184611fe8565b905092915050565b6000819050919050565b61205681612043565b811461206157600080fd5b50565b6000813590506120738161204d565b92915050565b60006020828403121561208f5761208e611ec3565b5b600061209d84828501612064565b91505092915050565b600073ffffffffffffffffffffffffffffffffffffffff82169050919050565b60006120d1826120a6565b9050919050565b6120e1816120c6565b82525050565b60006020820190506120fc60008301846120d8565b92915050565b61210b816120c6565b811461211657600080fd5b50565b60008135905061212881612102565b92915050565b6000806040838503121561214557612144611ec3565b5b600061215385828601612119565b925050602061216485828601612064565b9150509250929050565b60008060006060848603121561218757612186611ec3565b5b600061219586828701612119565b93505060206121a686828701612119565b92505060406121b786828701612064565b9150509250925092565b6000602082840312156121d7576121d6611ec3565b5b60006121e584828501612119565b91505092915050565b6121f781612043565b82525050565b600060208201905061221260008301846121ee565b92915050565b600080fd5b600080fd5b7f4e487b7100000000000000000000000000000000000000000000000000000000600052604160045260246000fd5b61225a82611fd7565b810181811067ffffffffffffffff8211171561227957612278612222565b5b80604052505050565b600061228c611eb9565b90506122988282612251565b919050565b600067ffffffffffffffff8211156122b8576122b7612222565b5b6122c182611fd7565b9050602081019050919050565b82818337600083830152505050565b60006122f06122eb8461229d565b612282565b90508281526020810184848401111561230c5761230b61221d565b5b6123178482856122ce565b509392505050565b600082601f83011261233457612333612218565b5b81356123448482602086016122dd565b91505092915050565b600067ffffffffffffffff82111561236857612367612222565b5b602082029050602081019050919050565b600080fd5b600061239161238c8461234d565b612282565b905080838252602082019050602084028301858111156123b4576123b3612379565b5b835b818110156123dd57806123c98882612064565b8452602084019350506020810190506123b6565b5050509392505050565b600082601f8301126123fc576123fb612218565b5b813561240c84826020860161237e565b91505092915050565b6000806040838503121561242c5761242b611ec3565b5b600083013567ffffffffffffffff81111561244a57612449611ec8565b5b6124568582860161231f565b925050602083013567ffffffffffffffff81111561247757612476611ec8565b5b612483858286016123e7565b9150509250929050565b600082825260208201905092915050565b60006124a982611f88565b6124b3818561248d565b93506124c3818560208601611fa4565b6124cc81611fd7565b840191505092915050565b6124e081612043565b82525050565b60006040830160008301518482036000860152612503828261249e565b915050602083015161251860208601826124d7565b508091505092915050565b6000602082019050818103600083015261253d81846124e6565b905092915050565b61254e81611f52565b811461255957600080fd5b50565b60008135905061256b81612545565b92915050565b6000806040838503121561258857612587611ec3565b5b600061259685828601612119565b92505060206125a78582860161255c565b9150509250929050565b600067ffffffffffffffff8211156125cc576125cb612222565b5b6125d582611fd7565b9050602081019050919050565b60006125f56125f0846125b1565b612282565b9050828152602081018484840111156126115761261061221d565b5b61261c8482856122ce565b509392505050565b600082601f83011261263957612638612218565b5b81356126498482602086016125e2565b91505092915050565b6000806000806080858703121561266c5761266b611ec3565b5b600061267a87828801612119565b945050602061268b87828801612119565b935050604061269c87828801612064565b925050606085013567ffffffffffffffff8111156126bd576126bc611ec8565b5b6126c987828801612624565b91505092959194509250565b600080604083850312156126ec576126eb611ec3565b5b60006126fa85828601612119565b925050602061270b85828601612119565b9150509250929050565b7f4e487b7100000000000000000000000000000000000000000000000000000000600052602260045260246000fd5b6000600282049050600182168061275c57607f821691505b60208210810361276f5761276e612715565b5b50919050565b7f4552433732313a20617070726f76616c20746f2063757272656e74206f776e6560008201527f7200000000000000000000000000000000000000000000000000000000000000602082015250565b60006127d1602183611f93565b91506127dc82612775565b604082019050919050565b60006020820190508181036000830152612800816127c4565b9050919050565b7f4552433732313a20617070726f76652063616c6c6572206973206e6f7420746f60008201527f6b656e206f776e6572206f7220617070726f76656420666f7220616c6c000000602082015250565b6000612863603d83611f93565b915061286e82612807565b604082019050919050565b6000602082019050818103600083015261289281612856565b9050919050565b7f4552433732313a2063616c6c6572206973206e6f7420746f6b656e206f776e6560008201527f72206f7220617070726f76656400000000000000000000000000000000000000602082015250565b60006128f5602d83611f93565b915061290082612899565b604082019050919050565b60006020820190508181036000830152612924816128e8565b9050919050565b7f4552433732313a20696e76616c696420746f6b656e2049440000000000000000600082015250565b6000612961601883611f93565b915061296c8261292b565b602082019050919050565b6000602082019050818103600083015261299081612954565b9050919050565b7f4552433732313a2061646472657373207a65726f206973206e6f74206120766160008201527f6c6964206f776e65720000000000000000000000000000000000000000000000602082015250565b60006129f3602983611f93565b91506129fe82612997565b604082019050919050565b60006020820190508181036000830152612a22816129e6565b9050919050565b600081519050919050565b600082825260208201905092915050565b6000819050602082019050919050565b6000612a6183836124d7565b60208301905092915050565b6000602082019050919050565b6000612a8582612a29565b612a8f8185612a34565b9350612a9a83612a45565b8060005b83811015612acb578151612ab28882612a55565b9750612abd83612a6d565b925050600181019050612a9e565b5085935050505092915050565b60006040820190508181036000830152612af28185611fe8565b90508181036020830152612b068184612a7a565b90509392505050565b600081519050612b1e81612545565b92915050565b600060208284031215612b3a57612b39611ec3565b5b6000612b4884828501612b0f565b91505092915050565b7f4e6f74206372656469747320656e6f7567680000000000000000000000000000600082015250565b6000612b87601283611f93565b9150612b9282612b51565b602082019050919050565b60006020820190508181036000830152612bb681612b7a565b9050919050565b600081905092915050565b6000612bd382611f88565b612bdd8185612bbd565b9350612bed818560208601611fa4565b80840191505092915050565b6000612c058285612bc8565b9150612c118284612bc8565b91508190509392505050565b7f4f776e61626c653a206e6577206f776e657220697320746865207a65726f206160008201527f6464726573730000000000000000000000000000000000000000000000000000602082015250565b6000612c79602683611f93565b9150612c8482612c1d565b604082019050919050565b60006020820190508181036000830152612ca881612c6c565b9050919050565b7f4552433732313a207472616e736665722066726f6d20696e636f72726563742060008201527f6f776e6572000000000000000000000000000000000000000000000000000000602082015250565b6000612d0b602583611f93565b9150612d1682612caf565b604082019050919050565b60006020820190508181036000830152612d3a81612cfe565b9050919050565b7f4552433732313a207472616e7366657220746f20746865207a65726f2061646460008201527f7265737300000000000000000000000000000000000000000000000000000000602082015250565b6000612d9d602483611f93565b9150612da882612d41565b604082019050919050565b60006020820190508181036000830152612dcc81612d90565b9050919050565b7f4f776e61626c653a2063616c6c6572206973206e6f7420746865206f776e6572600082015250565b6000612e09602083611f93565b9150612e1482612dd3565b602082019050919050565b60006020820190508181036000830152612e3881612dfc565b9050919050565b7f6163636573732064656e69656400000000000000000000000000000000000000600082015250565b6000612e75600d83611f93565b9150612e8082612e3f565b602082019050919050565b60006020820190508181036000830152612ea481612e68565b9050919050565b6000612eb78284612bc8565b915081905092915050565b7f53747564656e7420686173206265656e206772616e746564206e66742067726160008201527f64756174696f6e00000000000000000000000000000000000000000000000000602082015250565b6000612f1e602783611f93565b9150612f2982612ec2565b604082019050919050565b60006020820190508181036000830152612f4d81612f11565b9050919050565b7f4552433732313a20617070726f766520746f2063616c6c657200000000000000600082015250565b6000612f8a601983611f93565b9150612f9582612f54565b602082019050919050565b60006020820190508181036000830152612fb981612f7d565b9050919050565b7f4552433732313a207472616e7366657220746f206e6f6e20455243373231526560008201527f63656976657220696d706c656d656e7465720000000000000000000000000000602082015250565b600061301c603283611f93565b915061302782612fc0565b604082019050919050565b6000602082019050818103600083015261304b8161300f565b9050919050565b7f4e487b7100000000000000000000000000000000000000000000000000000000600052601260045260246000fd5b7f4e487b7100000000000000000000000000000000000000000000000000000000600052601160045260246000fd5b60006130bb82612043565b91506130c683612043565b9250828210156130d9576130d8613081565b5b828203905092915050565b60006130ef82612043565b91506130fa83612043565b9250827fffffffffffffffffffffffffffffffffffffffffffffffffffffffffffffffff0382111561312f5761312e613081565b5b828201905092915050565b600081519050919050565b600082825260208201905092915050565b60006131618261313a565b61316b8185613145565b935061317b818560208601611fa4565b61318481611fd7565b840191505092915050565b60006080820190506131a460008301876120d8565b6131b160208301866120d8565b6131be60408301856121ee565b81810360608301526131d08184613156565b905095945050505050565b6000815190506131ea81611ef9565b92915050565b60006020828403121561320657613205611ec3565b5b6000613214848285016131db565b91505092915050565b7f4552433732313a206d696e7420746f20746865207a65726f2061646472657373600082015250565b6000613253602083611f93565b915061325e8261321d565b602082019050919050565b6000602082019050818103600083015261328281613246565b9050919050565b7f4552433732313a20746f6b656e20616c7265616479206d696e74656400000000600082015250565b60006132bf601c83611f93565b91506132ca82613289565b602082019050919050565b600060208201905081810360008301526132ee816132b2565b905091905056fea264697066735822122085a98c14c69c04feb3e5164a9fa09b37c6c5f8f2640e12ff17758434005dff9364736f6c634300080d0033",
  "immutableReferences": {
    "3413": [
      {
        "length": 32,
        "start": 2072
      },
      {
        "length": 32,
        "start": 4677
      }
    ]
  },
  "source": "// SPDX-License-Identifier: MIT\n// Tells the Solidity compiler to compile only from v0.8.13 to v0.9.0\npragma solidity ^0.8.13;\n\nimport \"@openzeppelin/contracts/token/ERC721/ERC721.sol\";\nimport \"@openzeppelin/contracts/utils/Counters.sol\";\nimport \"@openzeppelin/contracts/access/Ownable.sol\";\nimport \"./NftCourse.sol\";\n\ncontract NftGraduation is ERC721, Ownable {\n\tusing Counters for Counters.Counter;\n    struct NftItem {\n    \tstring studentId;\n    \tuint256 tokenId;\n    }\n\n\tNftCourse private immutable _courseContract;\n\n    // // Nft Graduation\n    Counters.Counter private _tokenIds;\n    NftItem[] private _allNftItems;\n    mapping(uint256 => uint256) private _idToNftIndex; // tokenId =>NftItem \n    mapping(string => uint256) private _studentIdToNftIndex; // tokenId =>NftItem \n\n    modifier onlyCourseContract {\n    \trequire(msg.sender == address(_courseContract), 'access denied');\n    \t_;\n    }\n\n    constructor(NftCourse courseContract) ERC721(\"GraduationNft\", \"GNFT\") {\n        _courseContract = courseContract;\n    }\n\n    function exchangeNftGraduation(\n        string memory studentId,\n\t\tuint256[] memory tokenIds\n    ) public returns (NftItem memory) {\n        require(_courseContract.validateNftGradution(studentId, tokenIds), \"Not credits enough\");\n\t\treturn mintToken(studentId);\n    }\n    \n    function mintToken(string memory studentId) private onlyCourseContract returns (NftItem memory) {\n\t\trequire(_studentIdToNftIndex[studentId] == 0, \"Student has been granted nft graduation\");\n        _tokenIds.increment();\n\n        uint256 newTokenId = _tokenIds.current();\n        _safeMint(msg.sender, newTokenId);\n        return _createNftItem(newTokenId, studentId);\n    }\n\n\tfunction _createNftItem(uint256 tokenId, string memory studentId) private returns (NftItem memory) {\n        NftItem memory nftItem = NftItem(studentId, tokenId);\n        _allNftItems.push(nftItem);\n        _idToNftIndex[tokenId] = _allNftItems.length;\n\t\t_studentIdToNftIndex[studentId] = _allNftItems.length;\n\n\t\treturn nftItem;\n\t}\n}\n",
  "sourcePath": "E:\\learn\\learn-to-earn\\contracts\\NftGraduation.sol",
  "compiler": {
    "name": "solc",
    "version": "0.8.13+commit.abaa5c0e.Emscripten.clang"
  },
  "schemaVersion": "3.4.11",
  "updatedAt": "2023-02-26T10:24:10.522Z",
  "networkType": "ethereum",
  "devdoc": {
    "kind": "dev",
    "methods": {
      "approve(address,uint256)": {
        "details": "See {IERC721-approve}."
      },
      "balanceOf(address)": {
        "details": "See {IERC721-balanceOf}."
      },
      "getApproved(uint256)": {
        "details": "See {IERC721-getApproved}."
      },
      "isApprovedForAll(address,address)": {
        "details": "See {IERC721-isApprovedForAll}."
      },
      "name()": {
        "details": "See {IERC721Metadata-name}."
      },
      "owner()": {
        "details": "Returns the address of the current owner."
      },
      "ownerOf(uint256)": {
        "details": "See {IERC721-ownerOf}."
      },
      "renounceOwnership()": {
        "details": "Leaves the contract without owner. It will not be possible to call `onlyOwner` functions anymore. Can only be called by the current owner. NOTE: Renouncing ownership will leave the contract without an owner, thereby removing any functionality that is only available to the owner."
      },
      "safeTransferFrom(address,address,uint256)": {
        "details": "See {IERC721-safeTransferFrom}."
      },
      "safeTransferFrom(address,address,uint256,bytes)": {
        "details": "See {IERC721-safeTransferFrom}."
      },
      "setApprovalForAll(address,bool)": {
        "details": "See {IERC721-setApprovalForAll}."
      },
      "supportsInterface(bytes4)": {
        "details": "See {IERC165-supportsInterface}."
      },
      "symbol()": {
        "details": "See {IERC721Metadata-symbol}."
      },
      "tokenURI(uint256)": {
        "details": "See {IERC721Metadata-tokenURI}."
      },
      "transferFrom(address,address,uint256)": {
        "details": "See {IERC721-transferFrom}."
      },
      "transferOwnership(address)": {
        "details": "Transfers ownership of the contract to a new account (`newOwner`). Can only be called by the current owner."
      }
    },
    "version": 1
  },
  "userdoc": {
    "kind": "user",
    "methods": {},
    "version": 1
  }
}