{
  "contractName": "NftIdentities",
  "abi": [
    {
      "inputs": [],
      "stateMutability": "nonpayable",
      "type": "constructor"
    },
    {
      "anonymous": false,
      "inputs": [
        {
          "indexed": true,
          "internalType": "address",
          "name": "account",
          "type": "address"
        },
        {
          "indexed": true,
          "internalType": "address",
          "name": "operator",
          "type": "address"
        },
        {
          "indexed": false,
          "internalType": "bool",
          "name": "approved",
          "type": "bool"
        }
      ],
      "name": "ApprovalForAll",
      "type": "event"
    },
    {
      "anonymous": false,
      "inputs": [
        {
          "indexed": true,
          "internalType": "address",
          "name": "operator",
          "type": "address"
        },
        {
          "indexed": true,
          "internalType": "address",
          "name": "from",
          "type": "address"
        },
        {
          "indexed": true,
          "internalType": "address",
          "name": "to",
          "type": "address"
        },
        {
          "indexed": false,
          "internalType": "uint256[]",
          "name": "ids",
          "type": "uint256[]"
        },
        {
          "indexed": false,
          "internalType": "uint256[]",
          "name": "values",
          "type": "uint256[]"
        }
      ],
      "name": "TransferBatch",
      "type": "event"
    },
    {
      "anonymous": false,
      "inputs": [
        {
          "indexed": true,
          "internalType": "address",
          "name": "operator",
          "type": "address"
        },
        {
          "indexed": true,
          "internalType": "address",
          "name": "from",
          "type": "address"
        },
        {
          "indexed": true,
          "internalType": "address",
          "name": "to",
          "type": "address"
        },
        {
          "indexed": false,
          "internalType": "uint256",
          "name": "id",
          "type": "uint256"
        },
        {
          "indexed": false,
          "internalType": "uint256",
          "name": "value",
          "type": "uint256"
        }
      ],
      "name": "TransferSingle",
      "type": "event"
    },
    {
      "anonymous": false,
      "inputs": [
        {
          "indexed": false,
          "internalType": "string",
          "name": "value",
          "type": "string"
        },
        {
          "indexed": true,
          "internalType": "uint256",
          "name": "id",
          "type": "uint256"
        }
      ],
      "name": "URI",
      "type": "event"
    },
    {
      "inputs": [
        {
          "internalType": "address",
          "name": "account",
          "type": "address"
        },
        {
          "internalType": "uint256",
          "name": "id",
          "type": "uint256"
        }
      ],
      "name": "balanceOf",
      "outputs": [
        {
          "internalType": "uint256",
          "name": "",
          "type": "uint256"
        }
      ],
      "stateMutability": "view",
      "type": "function"
    },
    {
      "inputs": [
        {
          "internalType": "address[]",
          "name": "accounts",
          "type": "address[]"
        },
        {
          "internalType": "uint256[]",
          "name": "ids",
          "type": "uint256[]"
        }
      ],
      "name": "balanceOfBatch",
      "outputs": [
        {
          "internalType": "uint256[]",
          "name": "",
          "type": "uint256[]"
        }
      ],
      "stateMutability": "view",
      "type": "function"
    },
    {
      "inputs": [
        {
          "internalType": "address",
          "name": "account",
          "type": "address"
        },
        {
          "internalType": "address",
          "name": "operator",
          "type": "address"
        }
      ],
      "name": "isApprovedForAll",
      "outputs": [
        {
          "internalType": "bool",
          "name": "",
          "type": "bool"
        }
      ],
      "stateMutability": "view",
      "type": "function"
    },
    {
      "inputs": [],
      "name": "registerFee",
      "outputs": [
        {
          "internalType": "uint256",
          "name": "",
          "type": "uint256"
        }
      ],
      "stateMutability": "view",
      "type": "function"
    },
    {
      "inputs": [
        {
          "internalType": "address",
          "name": "from",
          "type": "address"
        },
        {
          "internalType": "address",
          "name": "to",
          "type": "address"
        },
        {
          "internalType": "uint256[]",
          "name": "ids",
          "type": "uint256[]"
        },
        {
          "internalType": "uint256[]",
          "name": "amounts",
          "type": "uint256[]"
        },
        {
          "internalType": "bytes",
          "name": "data",
          "type": "bytes"
        }
      ],
      "name": "safeBatchTransferFrom",
      "outputs": [],
      "stateMutability": "nonpayable",
      "type": "function"
    },
    {
      "inputs": [
        {
          "internalType": "address",
          "name": "from",
          "type": "address"
        },
        {
          "internalType": "address",
          "name": "to",
          "type": "address"
        },
        {
          "internalType": "uint256",
          "name": "id",
          "type": "uint256"
        },
        {
          "internalType": "uint256",
          "name": "amount",
          "type": "uint256"
        },
        {
          "internalType": "bytes",
          "name": "data",
          "type": "bytes"
        }
      ],
      "name": "safeTransferFrom",
      "outputs": [],
      "stateMutability": "nonpayable",
      "type": "function"
    },
    {
      "inputs": [
        {
          "internalType": "address",
          "name": "operator",
          "type": "address"
        },
        {
          "internalType": "bool",
          "name": "approved",
          "type": "bool"
        }
      ],
      "name": "setApprovalForAll",
      "outputs": [],
      "stateMutability": "nonpayable",
      "type": "function"
    },
    {
      "inputs": [
        {
          "internalType": "bytes4",
          "name": "interfaceId",
          "type": "bytes4"
        }
      ],
      "name": "supportsInterface",
      "outputs": [
        {
          "internalType": "bool",
          "name": "",
          "type": "bool"
        }
      ],
      "stateMutability": "view",
      "type": "function"
    },
    {
      "inputs": [
        {
          "internalType": "uint256",
          "name": "tokenId",
          "type": "uint256"
        }
      ],
      "name": "uri",
      "outputs": [
        {
          "internalType": "string",
          "name": "",
          "type": "string"
        }
      ],
      "stateMutability": "view",
      "type": "function"
    },
    {
      "inputs": [
        {
          "internalType": "uint256",
          "name": "tokenId",
          "type": "uint256"
        }
      ],
      "name": "getNftInfo",
      "outputs": [
        {
          "components": [
            {
              "internalType": "uint256",
              "name": "tokenId",
              "type": "uint256"
            },
            {
              "internalType": "address",
              "name": "register",
              "type": "address"
            },
            {
              "internalType": "uint256",
              "name": "expiredAt",
              "type": "uint256"
            }
          ],
          "internalType": "struct NftIdentities.NftIdentity",
          "name": "",
          "type": "tuple"
        },
        {
          "internalType": "string",
          "name": "",
          "type": "string"
        }
      ],
      "stateMutability": "view",
      "type": "function"
    },
    {
      "inputs": [
        {
          "internalType": "uint256",
          "name": "tokenId",
          "type": "uint256"
        }
      ],
      "name": "getNftOfTokenId",
      "outputs": [
        {
          "components": [
            {
              "internalType": "uint256",
              "name": "tokenId",
              "type": "uint256"
            },
            {
              "internalType": "address",
              "name": "register",
              "type": "address"
            },
            {
              "internalType": "uint256",
              "name": "expiredAt",
              "type": "uint256"
            }
          ],
          "internalType": "struct NftIdentities.NftIdentity",
          "name": "",
          "type": "tuple"
        }
      ],
      "stateMutability": "view",
      "type": "function"
    },
    {
      "inputs": [
        {
          "internalType": "uint256",
          "name": "role",
          "type": "uint256"
        },
        {
          "internalType": "string",
          "name": "tokenURI",
          "type": "string"
        }
      ],
      "name": "registerNft",
      "outputs": [],
      "stateMutability": "payable",
      "type": "function"
    },
    {
      "inputs": [],
      "name": "requestExtendExpiredNft",
      "outputs": [],
      "stateMutability": "nonpayable",
      "type": "function"
    },
    {
      "inputs": [
        {
          "internalType": "address",
          "name": "registerAddr",
          "type": "address"
        }
      ],
      "name": "isAbleToOperate",
      "outputs": [
        {
          "internalType": "bool",
          "name": "",
          "type": "bool"
        },
        {
          "internalType": "uint256",
          "name": "",
          "type": "uint256"
        }
      ],
      "stateMutability": "view",
      "type": "function"
    },
    {
      "inputs": [],
      "name": "getAllExtendExpiredRequest",
      "outputs": [
        {
          "components": [
            {
              "internalType": "uint256",
              "name": "tokenId",
              "type": "uint256"
            },
            {
              "internalType": "address",
              "name": "register",
              "type": "address"
            },
            {
              "internalType": "uint256",
              "name": "expiredAt",
              "type": "uint256"
            }
          ],
          "internalType": "struct NftIdentities.NftIdentity[]",
          "name": "",
          "type": "tuple[]"
        },
        {
          "internalType": "string[]",
          "name": "",
          "type": "string[]"
        }
      ],
      "stateMutability": "view",
      "type": "function"
    },
    {
      "inputs": [
        {
          "internalType": "uint256",
          "name": "tokenId",
          "type": "uint256"
        },
        {
          "internalType": "uint256",
          "name": "nextExpiredAt",
          "type": "uint256"
        }
      ],
      "name": "extendExpiredNft",
      "outputs": [],
      "stateMutability": "nonpayable",
      "type": "function"
    },
    {
      "inputs": [
        {
          "internalType": "uint256",
          "name": "tokenId",
          "type": "uint256"
        }
      ],
      "name": "burnNft",
      "outputs": [],
      "stateMutability": "nonpayable",
      "type": "function"
    },
    {
      "inputs": [
        {
          "internalType": "address",
          "name": "registerAddr",
          "type": "address"
        },
        {
          "internalType": "uint256",
          "name": "nextExpiredAt",
          "type": "uint256"
        }
      ],
      "name": "approveNft",
      "outputs": [],
      "stateMutability": "nonpayable",
      "type": "function"
    },
    {
      "inputs": [
        {
          "internalType": "address",
          "name": "registerAddr",
          "type": "address"
        }
      ],
      "name": "rejectNft",
      "outputs": [],
      "stateMutability": "nonpayable",
      "type": "function"
    },
    {
      "inputs": [],
      "name": "getOwnedNft",
      "outputs": [
        {
          "components": [
            {
              "internalType": "uint256",
              "name": "tokenId",
              "type": "uint256"
            },
            {
              "internalType": "address",
              "name": "register",
              "type": "address"
            },
            {
              "internalType": "uint256",
              "name": "expiredAt",
              "type": "uint256"
            }
          ],
          "internalType": "struct NftIdentities.NftIdentity",
          "name": "",
          "type": "tuple"
        },
        {
          "internalType": "string",
          "name": "",
          "type": "string"
        },
        {
          "internalType": "bool",
          "name": "",
          "type": "bool"
        },
        {
          "internalType": "bool",
          "name": "",
          "type": "bool"
        },
        {
          "internalType": "bool",
          "name": "",
          "type": "bool"
        }
      ],
      "stateMutability": "view",
      "type": "function"
    },
    {
      "inputs": [],
      "name": "getRole",
      "outputs": [
        {
          "internalType": "uint256",
          "name": "",
          "type": "uint256"
        }
      ],
      "stateMutability": "view",
      "type": "function"
    },
    {
      "inputs": [],
      "name": "depositNftIdentity",
      "outputs": [],
      "stateMutability": "nonpayable",
      "type": "function"
    },
    {
      "inputs": [],
      "name": "withdrawNftIdentity",
      "outputs": [],
      "stateMutability": "nonpayable",
      "type": "function"
    }
  ],
  "bytecode": "0x608060405260405180602001604052806000815250600390805190602001906200002b9291906200014c565b5066b1a2bc2ec500006009553480156200004457600080fd5b506040518060200160405280600081525062000066816200013060201b60201c565b5033600860006101000a81548173ffffffffffffffffffffffffffffffffffffffff021916908373ffffffffffffffffffffffffffffffffffffffff160217905550600160076000806001811115620000c457620000c3620001fc565b5b815260200190815260200160002060006101000a81548160ff021916908315150217905550600160076000600180811115620001055762000104620001fc565b5b815260200190815260200160002060006101000a81548160ff0219169083151502179055506200028f565b8060029080519060200190620001489291906200014c565b5050565b8280546200015a906200025a565b90600052602060002090601f0160209004810192826200017e5760008555620001ca565b82601f106200019957805160ff1916838001178555620001ca565b82800160010185558215620001ca579182015b82811115620001c9578251825591602001919060010190620001ac565b5b509050620001d99190620001dd565b5090565b5b80821115620001f8576000816000905550600101620001de565b5090565b7f4e487b7100000000000000000000000000000000000000000000000000000000600052602160045260246000fd5b7f4e487b7100000000000000000000000000000000000000000000000000000000600052602260045260246000fd5b600060028204905060018216806200027357607f821691505b6020821081036200028957620002886200022b565b5b50919050565b61585b806200029f6000396000f3fe60806040526004361061013f5760003560e01c80634e1273f4116100b6578063ce268f691161006f578063ce268f6914610415578063d5ec2d8314610453578063d703df8b14610491578063e985e9c5146104ce578063f242432a1461050b578063fde08174146105345761013f565b80634e1273f41461032957806358e8dad21461036657806376bd1c78146103955780637f256a54146103ac578063899b7898146103c3578063a22cb465146103ec5761013f565b80630fc2346d116101085780630fc2346d1461024f5780631e5ec762146102665780632eb2c2d61461028257806333fbd842146102ab5780633679f68f146102d75780633d5efefe146103005761013f565b8062fdd58e1461014457806301ffc9a71461018157806303f187ea146101be5780630a08bb53146101e95780630e89341c14610212575b600080fd5b34801561015057600080fd5b5061016b60048036038101906101669190613a64565b61055f565b6040516101789190613ab3565b60405180910390f35b34801561018d57600080fd5b506101a860048036038101906101a39190613b26565b610627565b6040516101b59190613b6e565b60405180910390f35b3480156101ca57600080fd5b506101d3610709565b6040516101e09190613ab3565b60405180910390f35b3480156101f557600080fd5b50610210600480360381019061020b9190613b89565b61070f565b005b34801561021e57600080fd5b5061023960048036038101906102349190613bc9565b6108bb565b6040516102469190613c8f565b60405180910390f35b34801561025b57600080fd5b506102646109a0565b005b610280600480360381019061027b9190613de6565b610b62565b005b34801561028e57600080fd5b506102a960048036038101906102a49190613fab565b610d1d565b005b3480156102b757600080fd5b506102c0610dbe565b6040516102ce929190614295565b60405180910390f35b3480156102e357600080fd5b506102fe60048036038101906102f991906142cc565b610f78565b005b34801561030c57600080fd5b5061032760048036038101906103229190613bc9565b6110b6565b005b34801561033557600080fd5b50610350600480360381019061034b91906143bc565b6111d0565b60405161035d91906144e3565b60405180910390f35b34801561037257600080fd5b5061037b6112e9565b60405161038c959493929190614547565b60405180910390f35b3480156103a157600080fd5b506103aa6113a5565b005b3480156103b857600080fd5b506103c1611596565b005b3480156103cf57600080fd5b506103ea60048036038101906103e59190613a64565b6116c1565b005b3480156103f857600080fd5b50610413600480360381019061040e91906145cd565b611851565b005b34801561042157600080fd5b5061043c600480360381019061043791906142cc565b611867565b60405161044a92919061460d565b60405180910390f35b34801561045f57600080fd5b5061047a60048036038101906104759190613bc9565b611978565b604051610488929190614636565b60405180910390f35b34801561049d57600080fd5b506104b860048036038101906104b39190613bc9565b6119a9565b6040516104c59190614666565b60405180910390f35b3480156104da57600080fd5b506104f560048036038101906104f09190614681565b611ad6565b6040516105029190613b6e565b60405180910390f35b34801561051757600080fd5b50610532600480360381019061052d91906146c1565b611b6a565b005b34801561054057600080fd5b50610549611c0b565b6040516105569190613ab3565b60405180910390f35b60008073ffffffffffffffffffffffffffffffffffffffff168373ffffffffffffffffffffffffffffffffffffffff16036105cf576040517f08c379a00000000000000000000000000000000000000000000000000000000081526004016105c6906147ca565b60405180910390fd5b60008083815260200190815260200160002060008473ffffffffffffffffffffffffffffffffffffffff1673ffffffffffffffffffffffffffffffffffffffff16815260200190815260200160002054905092915050565b60007fd9b67a26000000000000000000000000000000000000000000000000000000007bffffffffffffffffffffffffffffffffffffffffffffffffffffffff1916827bffffffffffffffffffffffffffffffffffffffffffffffffffffffff191614806106f257507f0e89341c000000000000000000000000000000000000000000000000000000007bffffffffffffffffffffffffffffffffffffffffffffffffffffffff1916827bffffffffffffffffffffffffffffffffffffffffffffffffffffffff1916145b80610702575061070182611cf1565b5b9050919050565b60095481565b600860009054906101000a900473ffffffffffffffffffffffffffffffffffffffff1673ffffffffffffffffffffffffffffffffffffffff163373ffffffffffffffffffffffffffffffffffffffff161461076957600080fd5b81600860009054906101000a900473ffffffffffffffffffffffffffffffffffffffff1673ffffffffffffffffffffffffffffffffffffffff166010600083815260200190815260200160002060009054906101000a900473ffffffffffffffffffffffffffffffffffffffff1673ffffffffffffffffffffffffffffffffffffffff16146107f757600080fd5b8142811161080457600080fd5b600061080f85611d5b565b90506000600d60008781526020019081526020016000205490506000811161086c576040517f08c379a000000000000000000000000000000000000000000000000000000000815260040161086390614836565b60405180910390fd5b84600c600084815260200190815260200160002060018361088d9190614885565b8154811061089e5761089d6148b9565b5b906000526020600020906003020160020181905550505050505050565b606060006004600084815260200190815260200160002080546108dd90614917565b80601f016020809104026020016040519081016040528092919081815260200182805461090990614917565b80156109565780601f1061092b57610100808354040283529160200191610956565b820191906000526020600020905b81548152906001019060200180831161093957829003601f168201915b5050505050905060008151116109745761096f83611d69565b610998565b600381604051602001610988929190614a18565b6040516020818303038152906040525b915050919050565b6000600a60003373ffffffffffffffffffffffffffffffffffffffff1673ffffffffffffffffffffffffffffffffffffffff16815260200190815260200160002054905060008111610a27576040517f08c379a0000000000000000000000000000000000000000000000000000000008152600401610a1e90614a88565b60405180910390fd5b600860009054906101000a900473ffffffffffffffffffffffffffffffffffffffff1673ffffffffffffffffffffffffffffffffffffffff166010600083815260200190815260200160002060009054906101000a900473ffffffffffffffffffffffffffffffffffffffff1673ffffffffffffffffffffffffffffffffffffffff1614610aea576040517f08c379a0000000000000000000000000000000000000000000000000000000008152600401610ae190614af4565b60405180910390fd5b610b5f600860009054906101000a900473ffffffffffffffffffffffffffffffffffffffff16338360016000368080601f016020809104026020016040519081016040528093929190818152602001838380828437600081840152601f19601f82011690508083019250505050505050611b6a565b50565b816007600082815260200190815260200160002060009054906101000a900460ff16610bc3576040517f08c379a0000000000000000000000000000000000000000000000000000000008152600401610bba90614b60565b60405180910390fd5b8260016000600182610be6600b6000878152602001908152602001600020611dfd565b610bf09190614b80565b610bfa9190614885565b905060001961ffff1660001961ffff16821714610c1657600080fd5b6009543414610c5a576040517f08c379a0000000000000000000000000000000000000000000000000000000008152600401610c5190614c22565b60405180910390fd5b6000600f60003373ffffffffffffffffffffffffffffffffffffffff1673ffffffffffffffffffffffffffffffffffffffff1681526020019081526020016000205414610cdc576040517f08c379a0000000000000000000000000000000000000000000000000000000008152600401610cd390614c8e565b60405180910390fd5b610d0a86600860009054906101000a900473ffffffffffffffffffffffffffffffffffffffff164288611e0b565b50610d158633611ef8565b505050505050565b610d2561203d565b73ffffffffffffffffffffffffffffffffffffffff168573ffffffffffffffffffffffffffffffffffffffff161480610d6b5750610d6a85610d6561203d565b611ad6565b5b610daa576040517f08c379a0000000000000000000000000000000000000000000000000000000008152600401610da190614d20565b60405180910390fd5b610db78585858585612045565b5050505050565b606080600860009054906101000a900473ffffffffffffffffffffffffffffffffffffffff1673ffffffffffffffffffffffffffffffffffffffff163373ffffffffffffffffffffffffffffffffffffffff1614610e1b57600080fd5b6000601180549050905060008167ffffffffffffffff811115610e4157610e40613cbb565b5b604051908082528060200260200182016040528015610e7a57816020015b610e676138e2565b815260200190600190039081610e5f5790505b50905060008267ffffffffffffffff811115610e9957610e98613cbb565b5b604051908082528060200260200182016040528015610ecc57816020015b6060815260200190600190039081610eb75790505b50905060005b83811015610f6a57600060118281548110610ef057610eef6148b9565b5b90600052602060002001549050610f056138e2565b6060610f1083611978565b809250819350505081868581518110610f2c57610f2b6148b9565b5b602002602001018190525080858581518110610f4b57610f4a6148b9565b5b602002602001018190525050505080610f6390614d40565b9050610ed2565b508181945094505050509091565b600860009054906101000a900473ffffffffffffffffffffffffffffffffffffffff1673ffffffffffffffffffffffffffffffffffffffff163373ffffffffffffffffffffffffffffffffffffffff1614610fd257600080fd5b6000600a60008373ffffffffffffffffffffffffffffffffffffffff1673ffffffffffffffffffffffffffffffffffffffff16815260200190815260200160002054905060008111611059576040517f08c379a000000000000000000000000000000000000000000000000000000000815260040161105090614dd4565b60405180910390fd5b600061106482611d5b565b90506110708184612366565b61107957600080fd5b61108381846123c3565b6110b1600860009054906101000a900473ffffffffffffffffffffffffffffffffffffffff1683600161261d565b505050565b600860009054906101000a900473ffffffffffffffffffffffffffffffffffffffff1673ffffffffffffffffffffffffffffffffffffffff163373ffffffffffffffffffffffffffffffffffffffff161461111057600080fd5b80600860009054906101000a900473ffffffffffffffffffffffffffffffffffffffff1673ffffffffffffffffffffffffffffffffffffffff166010600083815260200190815260200160002060009054906101000a900473ffffffffffffffffffffffffffffffffffffffff1673ffffffffffffffffffffffffffffffffffffffff161461119e57600080fd5b6111cc600860009054906101000a900473ffffffffffffffffffffffffffffffffffffffff1683600161261d565b5050565b60608151835114611216576040517f08c379a000000000000000000000000000000000000000000000000000000000815260040161120d90614e66565b60405180910390fd5b6000835167ffffffffffffffff81111561123357611232613cbb565b5b6040519080825280602002602001820160405280156112615781602001602082028036833780820191505090505b50905060005b84518110156112de576112ae858281518110611286576112856148b9565b5b60200260200101518583815181106112a1576112a06148b9565b5b602002602001015161055f565b8282815181106112c1576112c06148b9565b5b602002602001018181525050806112d790614d40565b9050611267565b508091505092915050565b6112f16138e2565b6060600080600080600a60003373ffffffffffffffffffffffffffffffffffffffff1673ffffffffffffffffffffffffffffffffffffffff1681526020019081526020016000205490506000611346826119a9565b90506000611353836108bb565b9050600042836040015111159050600061136c33611867565b509050600080601260008881526020019081526020016000205411905084848484849a509a509a509a509a505050505050509091929394565b6000600f60003373ffffffffffffffffffffffffffffffffffffffff1673ffffffffffffffffffffffffffffffffffffffff1681526020019081526020016000205490506000811161142c576040517f08c379a000000000000000000000000000000000000000000000000000000000815260040161142390614ed2565b60405180910390fd5b600061143782611d5b565b90506114438133612366565b15611483576040517f08c379a000000000000000000000000000000000000000000000000000000000815260040161147a90614f3e565b60405180910390fd5b600061148e836119a9565b9050428160400151106114d6576040517f08c379a00000000000000000000000000000000000000000000000000000000081526004016114cd90614faa565b60405180910390fd5b61154b33600860009054906101000a900473ffffffffffffffffffffffffffffffffffffffff168560016000368080601f016020809104026020016040519081016040528093929190818152602001838380828437600081840152601f19601f82011690508083019250505050505050611b6a565b60118390806001815401808255809150506001900390600052602060002001600090919091909150556011805490506012600085815260200190815260200160002081905550505050565b6000600f60003373ffffffffffffffffffffffffffffffffffffffff1673ffffffffffffffffffffffffffffffffffffffff1681526020019081526020016000205490506000811161161d576040517f08c379a000000000000000000000000000000000000000000000000000000000815260040161161490614dd4565b60405180910390fd5b6000611628826119a9565b905042816040015111156116b0576116ab33600860009054906101000a900473ffffffffffffffffffffffffffffffffffffffff168460016000368080601f016020809104026020016040519081016040528093929190818152602001838380828437600081840152601f19601f82011690508083019250505050505050611b6a565b6116bd565b6116bc3383600161261d565b5b5050565b600860009054906101000a900473ffffffffffffffffffffffffffffffffffffffff1673ffffffffffffffffffffffffffffffffffffffff163373ffffffffffffffffffffffffffffffffffffffff161461171b57600080fd5b6000600a60008473ffffffffffffffffffffffffffffffffffffffff1673ffffffffffffffffffffffffffffffffffffffff168152602001908152602001600020549050600081116117a2576040517f08c379a000000000000000000000000000000000000000000000000000000000815260040161179990614dd4565b60405180910390fd5b60006117ad82611d5b565b90506117b98185612366565b6117c257600080fd5b6117cc828461070f565b6117d681856123c3565b61184b600860009054906101000a900473ffffffffffffffffffffffffffffffffffffffff16858460016000368080601f016020809104026020016040519081016040528093929190818152602001838380828437600081840152601f19601f82011690508083019250505050505050611b6a565b50505050565b61186361185c61203d565b8383612863565b5050565b6000806000600a60008573ffffffffffffffffffffffffffffffffffffffff1673ffffffffffffffffffffffffffffffffffffffff168152602001908152602001600020549050600081036118c3576000809250925050611973565b60006118ce826119a9565b9050600860009054906101000a900473ffffffffffffffffffffffffffffffffffffffff1673ffffffffffffffffffffffffffffffffffffffff166010600084815260200190815260200160002060009054906101000a900473ffffffffffffffffffffffffffffffffffffffff1673ffffffffffffffffffffffffffffffffffffffff161480156119635750428160400151115b61196c83611d5b565b9350935050505b915091565b6119806138e2565b6060600061198d846108bb565b9050600061199a856119a9565b90508082935093505050915091565b6119b16138e2565b60006119bc83611d5b565b90506000600d600085815260200190815260200160002054905060008111611a19576040517f08c379a0000000000000000000000000000000000000000000000000000000008152600401611a1090614836565b60405180910390fd5b600c6000838152602001908152602001600020600182611a399190614885565b81548110611a4a57611a496148b9565b5b9060005260206000209060030201604051806060016040529081600082015481526020016001820160009054906101000a900473ffffffffffffffffffffffffffffffffffffffff1673ffffffffffffffffffffffffffffffffffffffff1673ffffffffffffffffffffffffffffffffffffffff16815260200160028201548152505092505050919050565b6000600160008473ffffffffffffffffffffffffffffffffffffffff1673ffffffffffffffffffffffffffffffffffffffff16815260200190815260200160002060008373ffffffffffffffffffffffffffffffffffffffff1673ffffffffffffffffffffffffffffffffffffffff16815260200190815260200160002060009054906101000a900460ff16905092915050565b611b7261203d565b73ffffffffffffffffffffffffffffffffffffffff168573ffffffffffffffffffffffffffffffffffffffff161480611bb85750611bb785611bb261203d565b611ad6565b5b611bf7576040517f08c379a0000000000000000000000000000000000000000000000000000000008152600401611bee90614d20565b60405180910390fd5b611c0485858585856129cf565b5050505050565b6000600860009054906101000a900473ffffffffffffffffffffffffffffffffffffffff1673ffffffffffffffffffffffffffffffffffffffff163373ffffffffffffffffffffffffffffffffffffffff1603611c6b5760659050611cee565b6000600a60003373ffffffffffffffffffffffffffffffffffffffff1673ffffffffffffffffffffffffffffffffffffffff16815260200190815260200160002054905060008103611cc1576063915050611cee565b6000611ccc82611d5b565b9050611cd88133612366565b15611ce857606492505050611cee565b80925050505b90565b60007f01ffc9a7000000000000000000000000000000000000000000000000000000007bffffffffffffffffffffffffffffffffffffffffffffffffffffffff1916827bffffffffffffffffffffffffffffffffffffffffffffffffffffffff1916149050919050565b6000601082901c9050919050565b606060028054611d7890614917565b80601f0160208091040260200160405190810160405280929190818152602001828054611da490614917565b8015611df15780601f10611dc657610100808354040283529160200191611df1565b820191906000526020600020905b815481529060010190602001808311611dd457829003601f168201915b50505050509050919050565b600081600001549050919050565b6000600e82604051611e1d9190614fca565b908152602001604051809103902060009054906101000a900460ff1615611e79576040517f08c379a0000000000000000000000000000000000000000000000000000000008152600401611e709061502d565b60405180910390fd5b6000611e8486612c6a565b9050611e908184612cb5565b611e9a8185612d21565b611eec858260016000368080601f016020809104026020016040519081016040528093929190818152602001838380828437600081840152601f19601f82011690508083019250505050505050612e75565b80915050949350505050565b816007600082815260200190815260200160002060009054906101000a900460ff16611f59576040517f08c379a0000000000000000000000000000000000000000000000000000000008152600401611f5090614b60565b60405180910390fd5b60056000848152602001908152602001600020829080600181540180825580915050600190039060005260206000200160009091909190916101000a81548173ffffffffffffffffffffffffffffffffffffffff021916908373ffffffffffffffffffffffffffffffffffffffff16021790555060056000848152602001908152602001600020805490506006600085815260200190815260200160002060008473ffffffffffffffffffffffffffffffffffffffff1673ffffffffffffffffffffffffffffffffffffffff16815260200190815260200160002081905550505050565b600033905090565b8151835114612089576040517f08c379a0000000000000000000000000000000000000000000000000000000008152600401612080906150bf565b60405180910390fd5b600073ffffffffffffffffffffffffffffffffffffffff168473ffffffffffffffffffffffffffffffffffffffff16036120f8576040517f08c379a00000000000000000000000000000000000000000000000000000000081526004016120ef90615151565b60405180910390fd5b600061210261203d565b9050612112818787878787613025565b60005b84518110156122c3576000858281518110612133576121326148b9565b5b602002602001015190506000858381518110612152576121516148b9565b5b60200260200101519050600080600084815260200190815260200160002060008b73ffffffffffffffffffffffffffffffffffffffff1673ffffffffffffffffffffffffffffffffffffffff168152602001908152602001600020549050818110156121f3576040517f08c379a00000000000000000000000000000000000000000000000000000000081526004016121ea906151e3565b60405180910390fd5b81810360008085815260200190815260200160002060008c73ffffffffffffffffffffffffffffffffffffffff1673ffffffffffffffffffffffffffffffffffffffff168152602001908152602001600020819055508160008085815260200190815260200160002060008b73ffffffffffffffffffffffffffffffffffffffff1673ffffffffffffffffffffffffffffffffffffffff16815260200190815260200160002060008282546122a89190614b80565b92505081905550505050806122bc90614d40565b9050612115565b508473ffffffffffffffffffffffffffffffffffffffff168673ffffffffffffffffffffffffffffffffffffffff168273ffffffffffffffffffffffffffffffffffffffff167f4a39dc06d4c0dbc64b70af90fd698a233a518aa5d07e595d983b8c0526c8f7fb878760405161233a929190615203565b60405180910390a4612350818787878787613226565b61235e81878787878761322e565b505050505050565b6000806006600085815260200190815260200160002060008473ffffffffffffffffffffffffffffffffffffffff1673ffffffffffffffffffffffffffffffffffffffff1681526020019081526020016000205411905092915050565b60006006600084815260200190815260200160002060008373ffffffffffffffffffffffffffffffffffffffff1673ffffffffffffffffffffffffffffffffffffffff16815260200190815260200160002054905060006005600085815260200190815260200160002080549050905080821461256b5760006005600086815260200190815260200160002060018361245c9190614885565b8154811061246d5761246c6148b9565b5b9060005260206000200160009054906101000a900473ffffffffffffffffffffffffffffffffffffffff16905080600560008781526020019081526020016000206001856124bb9190614885565b815481106124cc576124cb6148b9565b5b9060005260206000200160006101000a81548173ffffffffffffffffffffffffffffffffffffffff021916908373ffffffffffffffffffffffffffffffffffffffff160217905550826006600087815260200190815260200160002060008373ffffffffffffffffffffffffffffffffffffffff1673ffffffffffffffffffffffffffffffffffffffff16815260200190815260200160002081905550505b6005600085815260200190815260200160002080548061258e5761258d61523a565b5b6001900381819060005260206000200160006101000a81549073ffffffffffffffffffffffffffffffffffffffff021916905590556006600085815260200190815260200160002060008473ffffffffffffffffffffffffffffffffffffffff1673ffffffffffffffffffffffffffffffffffffffff1681526020019081526020016000206000905550505050565b600073ffffffffffffffffffffffffffffffffffffffff168373ffffffffffffffffffffffffffffffffffffffff160361268c576040517f08c379a0000000000000000000000000000000000000000000000000000000008152600401612683906152db565b60405180910390fd5b600061269661203d565b905060006126a384613405565b905060006126b084613405565b90506126d083876000858560405180602001604052806000815250613025565b600080600087815260200190815260200160002060008873ffffffffffffffffffffffffffffffffffffffff1673ffffffffffffffffffffffffffffffffffffffff16815260200190815260200160002054905084811015612767576040517f08c379a000000000000000000000000000000000000000000000000000000000815260040161275e9061536d565b60405180910390fd5b84810360008088815260200190815260200160002060008973ffffffffffffffffffffffffffffffffffffffff1673ffffffffffffffffffffffffffffffffffffffff16815260200190815260200160002081905550600073ffffffffffffffffffffffffffffffffffffffff168773ffffffffffffffffffffffffffffffffffffffff168573ffffffffffffffffffffffffffffffffffffffff167fc3d58168c5ae7397731d063d5bbf3d657854427343f4c083240f7aacaa2d0f62898960405161283492919061538d565b60405180910390a461285a84886000868660405180602001604052806000815250613226565b50505050505050565b8173ffffffffffffffffffffffffffffffffffffffff168373ffffffffffffffffffffffffffffffffffffffff16036128d1576040517f08c379a00000000000000000000000000000000000000000000000000000000081526004016128c890615428565b60405180910390fd5b80600160008573ffffffffffffffffffffffffffffffffffffffff1673ffffffffffffffffffffffffffffffffffffffff16815260200190815260200160002060008473ffffffffffffffffffffffffffffffffffffffff1673ffffffffffffffffffffffffffffffffffffffff16815260200190815260200160002060006101000a81548160ff0219169083151502179055508173ffffffffffffffffffffffffffffffffffffffff168373ffffffffffffffffffffffffffffffffffffffff167f17307eab39ab6107e8899845ad3d59bd9653f200f220920489ca2b5937696c31836040516129c29190613b6e565b60405180910390a3505050565b600073ffffffffffffffffffffffffffffffffffffffff168473ffffffffffffffffffffffffffffffffffffffff1603612a3e576040517f08c379a0000000000000000000000000000000000000000000000000000000008152600401612a3590615151565b60405180910390fd5b6000612a4861203d565b90506000612a5585613405565b90506000612a6285613405565b9050612a72838989858589613025565b600080600088815260200190815260200160002060008a73ffffffffffffffffffffffffffffffffffffffff1673ffffffffffffffffffffffffffffffffffffffff16815260200190815260200160002054905085811015612b09576040517f08c379a0000000000000000000000000000000000000000000000000000000008152600401612b00906151e3565b60405180910390fd5b85810360008089815260200190815260200160002060008b73ffffffffffffffffffffffffffffffffffffffff1673ffffffffffffffffffffffffffffffffffffffff168152602001908152602001600020819055508560008089815260200190815260200160002060008a73ffffffffffffffffffffffffffffffffffffffff1673ffffffffffffffffffffffffffffffffffffffff1681526020019081526020016000206000828254612bbe9190614b80565b925050819055508773ffffffffffffffffffffffffffffffffffffffff168973ffffffffffffffffffffffffffffffffffffffff168573ffffffffffffffffffffffffffffffffffffffff167fc3d58168c5ae7397731d063d5bbf3d657854427343f4c083240f7aacaa2d0f628a8a604051612c3b92919061538d565b60405180910390a4612c51848a8a86868a613226565b612c5f848a8a8a8a8a61347f565b505050505050505050565b6000612c87600b6000848152602001908152602001600020613656565b6000612ca4600b6000858152602001908152602001600020611dfd565b905080601084901b17915050919050565b80600460008481526020019081526020016000209080519060200190612cdc929190613919565b50817f6bb7ff708619ba0610cba295a58592e0451dee2622938c8755667688daf3529b612d08846108bb565b604051612d159190613c8f565b60405180910390a25050565b6000612d2c83611d5b565b9050600060405180606001604052808581526020013373ffffffffffffffffffffffffffffffffffffffff168152602001848152509050600c60008381526020019081526020016000208190806001815401808255809150506001900390600052602060002090600302016000909190919091506000820151816000015560208201518160010160006101000a81548173ffffffffffffffffffffffffffffffffffffffff021916908373ffffffffffffffffffffffffffffffffffffffff160217905550604082015181600201555050600c600083815260200190815260200160002080549050600d60008681526020019081526020016000208190555083600a60003373ffffffffffffffffffffffffffffffffffffffff1673ffffffffffffffffffffffffffffffffffffffff1681526020019081526020016000208190555050505050565b600073ffffffffffffffffffffffffffffffffffffffff168473ffffffffffffffffffffffffffffffffffffffff1603612ee4576040517f08c379a0000000000000000000000000000000000000000000000000000000008152600401612edb906154ba565b60405180910390fd5b6000612eee61203d565b90506000612efb85613405565b90506000612f0885613405565b9050612f1983600089858589613025565b8460008088815260200190815260200160002060008973ffffffffffffffffffffffffffffffffffffffff1673ffffffffffffffffffffffffffffffffffffffff1681526020019081526020016000206000828254612f789190614b80565b925050819055508673ffffffffffffffffffffffffffffffffffffffff16600073ffffffffffffffffffffffffffffffffffffffff168473ffffffffffffffffffffffffffffffffffffffff167fc3d58168c5ae7397731d063d5bbf3d657854427343f4c083240f7aacaa2d0f628989604051612ff692919061538d565b60405180910390a461300d83600089858589613226565b61301c8360008989898961347f565b50505050505050565b61303386868686868661366c565b600083600081518110613049576130486148b9565b5b60200260200101519050600073ffffffffffffffffffffffffffffffffffffffff168673ffffffffffffffffffffffffffffffffffffffff161461310157600f60008773ffffffffffffffffffffffffffffffffffffffff1673ffffffffffffffffffffffffffffffffffffffff168152602001908152602001600020600090556010600082815260200190815260200160002060006101000a81549073ffffffffffffffffffffffffffffffffffffffff02191690555b600073ffffffffffffffffffffffffffffffffffffffff168573ffffffffffffffffffffffffffffffffffffffff16146131d05780600f60008773ffffffffffffffffffffffffffffffffffffffff1673ffffffffffffffffffffffffffffffffffffffff16815260200190815260200160002081905550846010600083815260200190815260200160002060006101000a81548173ffffffffffffffffffffffffffffffffffffffff021916908373ffffffffffffffffffffffffffffffffffffffff16021790555061321d565b6131d981613674565b600a60008773ffffffffffffffffffffffffffffffffffffffff1673ffffffffffffffffffffffffffffffffffffffff168152602001908152602001600020600090555b50505050505050565b505050505050565b61324d8473ffffffffffffffffffffffffffffffffffffffff166138bf565b156133fd578373ffffffffffffffffffffffffffffffffffffffff1663bc197c8187878686866040518663ffffffff1660e01b815260040161329395949392919061553e565b6020604051808303816000875af19250505080156132cf57506040513d601f19601f820116820180604052508101906132cc91906155bb565b60015b613374576132db6155f5565b806308c379a00361333757506132ef615617565b806132fa5750613339565b806040517f08c379a000000000000000000000000000000000000000000000000000000000815260040161332e9190613c8f565b60405180910390fd5b505b6040517f08c379a000000000000000000000000000000000000000000000000000000000815260040161336b90615719565b60405180910390fd5b63bc197c8160e01b7bffffffffffffffffffffffffffffffffffffffffffffffffffffffff1916817bffffffffffffffffffffffffffffffffffffffffffffffffffffffff1916146133fb576040517f08c379a00000000000000000000000000000000000000000000000000000000081526004016133f2906157ab565b60405180910390fd5b505b505050505050565b60606000600167ffffffffffffffff81111561342457613423613cbb565b5b6040519080825280602002602001820160405280156134525781602001602082028036833780820191505090505b509050828160008151811061346a576134696148b9565b5b60200260200101818152505080915050919050565b61349e8473ffffffffffffffffffffffffffffffffffffffff166138bf565b1561364e578373ffffffffffffffffffffffffffffffffffffffff1663f23a6e6187878686866040518663ffffffff1660e01b81526004016134e49594939291906157cb565b6020604051808303816000875af192505050801561352057506040513d601f19601f8201168201806040525081019061351d91906155bb565b60015b6135c55761352c6155f5565b806308c379a0036135885750613540615617565b8061354b575061358a565b806040517f08c379a000000000000000000000000000000000000000000000000000000000815260040161357f9190613c8f565b60405180910390fd5b505b6040517f08c379a00000000000000000000000000000000000000000000000000000000081526004016135bc90615719565b60405180910390fd5b63f23a6e6160e01b7bffffffffffffffffffffffffffffffffffffffffffffffffffffffff1916817bffffffffffffffffffffffffffffffffffffffffffffffffffffffff19161461364c576040517f08c379a0000000000000000000000000000000000000000000000000000000008152600401613643906157ab565b60405180910390fd5b505b505050505050565b6001816000016000828254019250508190555050565b505050505050565b6000600d6000838152602001908152602001600020549050600061369783611d5b565b90506000600c600083815260200190815260200160002080549050905082811461382f576000600c60008481526020019081526020016000206001836136dd9190614885565b815481106136ee576136ed6148b9565b5b9060005260206000209060030201604051806060016040529081600082015481526020016001820160009054906101000a900473ffffffffffffffffffffffffffffffffffffffff1673ffffffffffffffffffffffffffffffffffffffff1673ffffffffffffffffffffffffffffffffffffffff168152602001600282015481525050905080600c60008581526020019081526020016000206001866137949190614885565b815481106137a5576137a46148b9565b5b90600052602060002090600302016000820151816000015560208201518160010160006101000a81548173ffffffffffffffffffffffffffffffffffffffff021916908373ffffffffffffffffffffffffffffffffffffffff1602179055506040820151816002015590505083600d60008360000151815260200190815260200160002081905550505b600c60008381526020019081526020016000208054806138525761385161523a565b5b60019003818190600052602060002090600302016000808201600090556001820160006101000a81549073ffffffffffffffffffffffffffffffffffffffff0219169055600282016000905550509055600d60008581526020019081526020016000206000905550505050565b6000808273ffffffffffffffffffffffffffffffffffffffff163b119050919050565b604051806060016040528060008152602001600073ffffffffffffffffffffffffffffffffffffffff168152602001600081525090565b82805461392590614917565b90600052602060002090601f016020900481019282613947576000855561398e565b82601f1061396057805160ff191683800117855561398e565b8280016001018555821561398e579182015b8281111561398d578251825591602001919060010190613972565b5b50905061399b919061399f565b5090565b5b808211156139b85760008160009055506001016139a0565b5090565b6000604051905090565b600080fd5b600080fd5b600073ffffffffffffffffffffffffffffffffffffffff82169050919050565b60006139fb826139d0565b9050919050565b613a0b816139f0565b8114613a1657600080fd5b50565b600081359050613a2881613a02565b92915050565b6000819050919050565b613a4181613a2e565b8114613a4c57600080fd5b50565b600081359050613a5e81613a38565b92915050565b60008060408385031215613a7b57613a7a6139c6565b5b6000613a8985828601613a19565b9250506020613a9a85828601613a4f565b9150509250929050565b613aad81613a2e565b82525050565b6000602082019050613ac86000830184613aa4565b92915050565b60007fffffffff0000000000000000000000000000000000000000000000000000000082169050919050565b613b0381613ace565b8114613b0e57600080fd5b50565b600081359050613b2081613afa565b92915050565b600060208284031215613b3c57613b3b6139c6565b5b6000613b4a84828501613b11565b91505092915050565b60008115159050919050565b613b6881613b53565b82525050565b6000602082019050613b836000830184613b5f565b92915050565b60008060408385031215613ba057613b9f6139c6565b5b6000613bae85828601613a4f565b9250506020613bbf85828601613a4f565b9150509250929050565b600060208284031215613bdf57613bde6139c6565b5b6000613bed84828501613a4f565b91505092915050565b600081519050919050565b600082825260208201905092915050565b60005b83811015613c30578082015181840152602081019050613c15565b83811115613c3f576000848401525b50505050565b6000601f19601f8301169050919050565b6000613c6182613bf6565b613c6b8185613c01565b9350613c7b818560208601613c12565b613c8481613c45565b840191505092915050565b60006020820190508181036000830152613ca98184613c56565b905092915050565b600080fd5b600080fd5b7f4e487b7100000000000000000000000000000000000000000000000000000000600052604160045260246000fd5b613cf382613c45565b810181811067ffffffffffffffff82111715613d1257613d11613cbb565b5b80604052505050565b6000613d256139bc565b9050613d318282613cea565b919050565b600067ffffffffffffffff821115613d5157613d50613cbb565b5b613d5a82613c45565b9050602081019050919050565b82818337600083830152505050565b6000613d89613d8484613d36565b613d1b565b905082815260208101848484011115613da557613da4613cb6565b5b613db0848285613d67565b509392505050565b600082601f830112613dcd57613dcc613cb1565b5b8135613ddd848260208601613d76565b91505092915050565b60008060408385031215613dfd57613dfc6139c6565b5b6000613e0b85828601613a4f565b925050602083013567ffffffffffffffff811115613e2c57613e2b6139cb565b5b613e3885828601613db8565b9150509250929050565b600067ffffffffffffffff821115613e5d57613e5c613cbb565b5b602082029050602081019050919050565b600080fd5b6000613e86613e8184613e42565b613d1b565b90508083825260208201905060208402830185811115613ea957613ea8613e6e565b5b835b81811015613ed25780613ebe8882613a4f565b845260208401935050602081019050613eab565b5050509392505050565b600082601f830112613ef157613ef0613cb1565b5b8135613f01848260208601613e73565b91505092915050565b600067ffffffffffffffff821115613f2557613f24613cbb565b5b613f2e82613c45565b9050602081019050919050565b6000613f4e613f4984613f0a565b613d1b565b905082815260208101848484011115613f6a57613f69613cb6565b5b613f75848285613d67565b509392505050565b600082601f830112613f9257613f91613cb1565b5b8135613fa2848260208601613f3b565b91505092915050565b600080600080600060a08688031215613fc757613fc66139c6565b5b6000613fd588828901613a19565b9550506020613fe688828901613a19565b945050604086013567ffffffffffffffff811115614007576140066139cb565b5b61401388828901613edc565b935050606086013567ffffffffffffffff811115614034576140336139cb565b5b61404088828901613edc565b925050608086013567ffffffffffffffff811115614061576140606139cb565b5b61406d88828901613f7d565b9150509295509295909350565b600081519050919050565b600082825260208201905092915050565b6000819050602082019050919050565b6140af81613a2e565b82525050565b6140be816139f0565b82525050565b6060820160008201516140da60008501826140a6565b5060208201516140ed60208501826140b5565b50604082015161410060408501826140a6565b50505050565b600061411283836140c4565b60608301905092915050565b6000602082019050919050565b60006141368261407a565b6141408185614085565b935061414b83614096565b8060005b8381101561417c5781516141638882614106565b975061416e8361411e565b92505060018101905061414f565b5085935050505092915050565b600081519050919050565b600082825260208201905092915050565b6000819050602082019050919050565b600082825260208201905092915050565b60006141d182613bf6565b6141db81856141b5565b93506141eb818560208601613c12565b6141f481613c45565b840191505092915050565b600061420b83836141c6565b905092915050565b6000602082019050919050565b600061422b82614189565b6142358185614194565b935083602082028501614247856141a5565b8060005b85811015614283578484038952815161426485826141ff565b945061426f83614213565b925060208a0199505060018101905061424b565b50829750879550505050505092915050565b600060408201905081810360008301526142af818561412b565b905081810360208301526142c38184614220565b90509392505050565b6000602082840312156142e2576142e16139c6565b5b60006142f084828501613a19565b91505092915050565b600067ffffffffffffffff82111561431457614313613cbb565b5b602082029050602081019050919050565b6000614338614333846142f9565b613d1b565b9050808382526020820190506020840283018581111561435b5761435a613e6e565b5b835b8181101561438457806143708882613a19565b84526020840193505060208101905061435d565b5050509392505050565b600082601f8301126143a3576143a2613cb1565b5b81356143b3848260208601614325565b91505092915050565b600080604083850312156143d3576143d26139c6565b5b600083013567ffffffffffffffff8111156143f1576143f06139cb565b5b6143fd8582860161438e565b925050602083013567ffffffffffffffff81111561441e5761441d6139cb565b5b61442a85828601613edc565b9150509250929050565b600081519050919050565b600082825260208201905092915050565b6000819050602082019050919050565b600061446c83836140a6565b60208301905092915050565b6000602082019050919050565b600061449082614434565b61449a818561443f565b93506144a583614450565b8060005b838110156144d65781516144bd8882614460565b97506144c883614478565b9250506001810190506144a9565b5085935050505092915050565b600060208201905081810360008301526144fd8184614485565b905092915050565b60608201600082015161451b60008501826140a6565b50602082015161452e60208501826140b5565b50604082015161454160408501826140a6565b50505050565b600060e08201905061455c6000830188614505565b818103606083015261456e8187613c56565b905061457d6080830186613b5f565b61458a60a0830185613b5f565b61459760c0830184613b5f565b9695505050505050565b6145aa81613b53565b81146145b557600080fd5b50565b6000813590506145c7816145a1565b92915050565b600080604083850312156145e4576145e36139c6565b5b60006145f285828601613a19565b9250506020614603858286016145b8565b9150509250929050565b60006040820190506146226000830185613b5f565b61462f6020830184613aa4565b9392505050565b600060808201905061464b6000830185614505565b818103606083015261465d8184613c56565b90509392505050565b600060608201905061467b6000830184614505565b92915050565b60008060408385031215614698576146976139c6565b5b60006146a685828601613a19565b92505060206146b785828601613a19565b9150509250929050565b600080600080600060a086880312156146dd576146dc6139c6565b5b60006146eb88828901613a19565b95505060206146fc88828901613a19565b945050604061470d88828901613a4f565b935050606061471e88828901613a4f565b925050608086013567ffffffffffffffff81111561473f5761473e6139cb565b5b61474b88828901613f7d565b9150509295509295909350565b7f455243313135353a2061646472657373207a65726f206973206e6f742061207660008201527f616c6964206f776e657200000000000000000000000000000000000000000000602082015250565b60006147b4602a83613c01565b91506147bf82614758565b604082019050919050565b600060208201905081810360008301526147e3816147a7565b9050919050565b7f4e6674206973206e6f7420657869737400000000000000000000000000000000600082015250565b6000614820601083613c01565b915061482b826147ea565b602082019050919050565b6000602082019050818103600083015261484f81614813565b9050919050565b7f4e487b7100000000000000000000000000000000000000000000000000000000600052601160045260246000fd5b600061489082613a2e565b915061489b83613a2e565b9250828210156148ae576148ad614856565b5b828203905092915050565b7f4e487b7100000000000000000000000000000000000000000000000000000000600052603260045260246000fd5b7f4e487b7100000000000000000000000000000000000000000000000000000000600052602260045260246000fd5b6000600282049050600182168061492f57607f821691505b602082108103614942576149416148e8565b5b50919050565b600081905092915050565b60008190508160005260206000209050919050565b6000815461497581614917565b61497f8186614948565b9450600182166000811461499a57600181146149ab576149de565b60ff198316865281860193506149de565b6149b485614953565b60005b838110156149d6578154818901526001820191506020810190506149b7565b838801955050505b50505092915050565b60006149f282613bf6565b6149fc8185614948565b9350614a0c818560208601613c12565b80840191505092915050565b6000614a248285614968565b9150614a3082846149e7565b91508190509392505050565b7f486176656e2774206f776e656420616e79206e66747320796574000000000000600082015250565b6000614a72601a83613c01565b9150614a7d82614a3c565b602082019050919050565b60006020820190508181036000830152614aa181614a65565b9050919050565b7f4e6674206861736e2774206265656e206465706f736974656400000000000000600082015250565b6000614ade601983613c01565b9150614ae982614aa8565b602082019050919050565b60006020820190508181036000830152614b0d81614ad1565b9050919050565b7f526f6c6520646f65736e2774206e6f7420657869737400000000000000000000600082015250565b6000614b4a601683613c01565b9150614b5582614b14565b602082019050919050565b60006020820190508181036000830152614b7981614b3d565b9050919050565b6000614b8b82613a2e565b9150614b9683613a2e565b9250827fffffffffffffffffffffffffffffffffffffffffffffffffffffffffffffffff03821115614bcb57614bca614856565b5b828201905092915050565b7f52656769737465722066656520697320696e636f727265637400000000000000600082015250565b6000614c0c601983613c01565b9150614c1782614bd6565b602082019050919050565b60006020820190508181036000830152614c3b81614bff565b9050919050565b7f416c7265616479206f776e2031206e6674000000000000000000000000000000600082015250565b6000614c78601183613c01565b9150614c8382614c42565b602082019050919050565b60006020820190508181036000830152614ca781614c6b565b9050919050565b7f455243313135353a2063616c6c6572206973206e6f7420746f6b656e206f776e60008201527f6572206f7220617070726f766564000000000000000000000000000000000000602082015250565b6000614d0a602e83613c01565b9150614d1582614cae565b604082019050919050565b60006020820190508181036000830152614d3981614cfd565b9050919050565b6000614d4b82613a2e565b91507fffffffffffffffffffffffffffffffffffffffffffffffffffffffffffffffff8203614d7d57614d7c614856565b5b600182019050919050565b7f496e76616c6964206f7065726174696f6e000000000000000000000000000000600082015250565b6000614dbe601183613c01565b9150614dc982614d88565b602082019050919050565b60006020820190508181036000830152614ded81614db1565b9050919050565b7f455243313135353a206163636f756e747320616e6420696473206c656e67746860008201527f206d69736d617463680000000000000000000000000000000000000000000000602082015250565b6000614e50602983613c01565b9150614e5b82614df4565b604082019050919050565b60006020820190508181036000830152614e7f81614e43565b9050919050565b7f486176656e2774206f776e20616e7920746f6b656e7300000000000000000000600082015250565b6000614ebc601683613c01565b9150614ec782614e86565b602082019050919050565b60006020820190508181036000830152614eeb81614eaf565b9050919050565b7f596f75206172652063757272656e746c79207265676973746572696e67000000600082015250565b6000614f28601d83613c01565b9150614f3382614ef2565b602082019050919050565b60006020820190508181036000830152614f5781614f1b565b9050919050565b7f4e667420746f6b656e206861736e2774206265656e2065787069726564000000600082015250565b6000614f94601d83613c01565b9150614f9f82614f5e565b602082019050919050565b60006020820190508181036000830152614fc381614f87565b9050919050565b6000614fd682846149e7565b915081905092915050565b7f546f6b656e205552492068617320616c72656164792075736564000000000000600082015250565b6000615017601a83613c01565b915061502282614fe1565b602082019050919050565b600060208201905081810360008301526150468161500a565b9050919050565b7f455243313135353a2069647320616e6420616d6f756e7473206c656e6774682060008201527f6d69736d61746368000000000000000000000000000000000000000000000000602082015250565b60006150a9602883613c01565b91506150b48261504d565b604082019050919050565b600060208201905081810360008301526150d88161509c565b9050919050565b7f455243313135353a207472616e7366657220746f20746865207a65726f20616460008201527f6472657373000000000000000000000000000000000000000000000000000000602082015250565b600061513b602583613c01565b9150615146826150df565b604082019050919050565b6000602082019050818103600083015261516a8161512e565b9050919050565b7f455243313135353a20696e73756666696369656e742062616c616e636520666f60008201527f72207472616e7366657200000000000000000000000000000000000000000000602082015250565b60006151cd602a83613c01565b91506151d882615171565b604082019050919050565b600060208201905081810360008301526151fc816151c0565b9050919050565b6000604082019050818103600083015261521d8185614485565b905081810360208301526152318184614485565b90509392505050565b7f4e487b7100000000000000000000000000000000000000000000000000000000600052603160045260246000fd5b7f455243313135353a206275726e2066726f6d20746865207a65726f206164647260008201527f6573730000000000000000000000000000000000000000000000000000000000602082015250565b60006152c5602383613c01565b91506152d082615269565b604082019050919050565b600060208201905081810360008301526152f4816152b8565b9050919050565b7f455243313135353a206275726e20616d6f756e7420657863656564732062616c60008201527f616e636500000000000000000000000000000000000000000000000000000000602082015250565b6000615357602483613c01565b9150615362826152fb565b604082019050919050565b600060208201905081810360008301526153868161534a565b9050919050565b60006040820190506153a26000830185613aa4565b6153af6020830184613aa4565b9392505050565b7f455243313135353a2073657474696e6720617070726f76616c2073746174757360008201527f20666f722073656c660000000000000000000000000000000000000000000000602082015250565b6000615412602983613c01565b915061541d826153b6565b604082019050919050565b6000602082019050818103600083015261544181615405565b9050919050565b7f455243313135353a206d696e7420746f20746865207a65726f2061646472657360008201527f7300000000000000000000000000000000000000000000000000000000000000602082015250565b60006154a4602183613c01565b91506154af82615448565b604082019050919050565b600060208201905081810360008301526154d381615497565b9050919050565b6154e3816139f0565b82525050565b600081519050919050565b600082825260208201905092915050565b6000615510826154e9565b61551a81856154f4565b935061552a818560208601613c12565b61553381613c45565b840191505092915050565b600060a08201905061555360008301886154da565b61556060208301876154da565b81810360408301526155728186614485565b905081810360608301526155868185614485565b9050818103608083015261559a8184615505565b90509695505050505050565b6000815190506155b581613afa565b92915050565b6000602082840312156155d1576155d06139c6565b5b60006155df848285016155a6565b91505092915050565b60008160e01c9050919050565b600060033d11156156145760046000803e6156116000516155e8565b90505b90565b600060443d106156a4576156296139bc565b60043d036004823e80513d602482011167ffffffffffffffff821117156156515750506156a4565b808201805167ffffffffffffffff81111561566f57505050506156a4565b80602083010160043d03850181111561568c5750505050506156a4565b61569b82602001850186613cea565b82955050505050505b90565b7f455243313135353a207472616e7366657220746f206e6f6e2d4552433131353560008201527f526563656976657220696d706c656d656e746572000000000000000000000000602082015250565b6000615703603483613c01565b915061570e826156a7565b604082019050919050565b60006020820190508181036000830152615732816156f6565b9050919050565b7f455243313135353a204552433131353552656365697665722072656a6563746560008201527f6420746f6b656e73000000000000000000000000000000000000000000000000602082015250565b6000615795602883613c01565b91506157a082615739565b604082019050919050565b600060208201905081810360008301526157c481615788565b9050919050565b600060a0820190506157e060008301886154da565b6157ed60208301876154da565b6157fa6040830186613aa4565b6158076060830185613aa4565b81810360808301526158198184615505565b9050969550505050505056fea264697066735822122097994d34413d05e8fe78b4365d90e4e6576c4f59ff9d548e27a0bc3d241fc93964736f6c634300080d0033",
  "immutableReferences": {},
  "source": "// SPDX-License-Identifier: MIT\r\n// Tells the Solidity compiler to compile only from v0.8.13 to v0.9.0\r\npragma solidity ^0.8.13;\r\n\r\nimport \"@openzeppelin/contracts/token/ERC1155/extensions/ERC1155URIStorage.sol\";\r\nimport \"@openzeppelin/contracts/utils/Counters.sol\";\r\nimport \"@openzeppelin/contracts/access/Ownable.sol\";\r\nimport \"./Registration.sol\";\r\nimport \"./interfaces/INftIdentities.sol\";\r\n\r\ncontract NftIdentities is ERC1155URIStorage, Registration, INftIdentities {\r\n    using Counters for Counters.Counter;\r\n\r\n    struct NftIdentity {\r\n        uint256 tokenId;\r\n        address register;\r\n        uint256 expiredAt;\r\n    }\r\n\r\n    uint256 constant INDEX_BITS = 16;\r\n    uint256 constant MAX_NFT_INDEX = uint256(~uint16(0));\r\n    uint256 constant ONE_NFT = 1;\r\n\r\n    uint256 constant VISITOR_ID = 99;\r\n    uint256 constant REGISTERED_ID = 100;\r\n    uint256 constant HIGHEST_OPERATOR_ID = 101;\r\n    address private _owner;\r\n\r\n    // Registration vars\r\n    uint256 public registerFee = 0.05 ether;\r\n    mapping(address => uint256) _tokenIdOfRegisters;\r\n\r\n    mapping(uint256 => Counters.Counter) _maxTokenIdIndexOfRole; // type => max token id\r\n    mapping(uint256 => NftIdentity[]) private _nftsOfRole; // type => Nft\r\n    mapping(uint256 => uint256) private _nftPosOfTokenId; // tokenId => index\r\n    mapping(string => bool) private _usedTokenURI;\r\n\r\n    mapping(address => uint256) private _nftOfOwner; // address => tokenId[]\r\n\r\n    mapping(uint256 => address) private _ownerOfNft;\r\n\r\n    uint256[] _extendRequestTokenIds;\r\n    mapping(uint256 => uint256) _positionOfRequestTokenId;\r\n\r\n    modifier onlyOwner() {\r\n        require(msg.sender == _owner);\r\n        _;\r\n    }\r\n\r\n    modifier isAfterNow(uint256 timestamp) {\r\n        require(timestamp > block.timestamp);\r\n        _;\r\n    }\r\n\r\n    modifier canGenerateNewTokens(uint256 role, uint256 amount) {\r\n        uint256 currentIndex = _maxTokenIdIndexOfRole[role].current() +\r\n            amount -\r\n            1;\r\n        require(currentIndex | MAX_NFT_INDEX == MAX_NFT_INDEX);\r\n        _;\r\n    }\r\n\r\n    modifier ownZeroNft(address addr) {\r\n        require(_nftOfOwner[addr] == 0);\r\n        _;\r\n    }\r\n\r\n    modifier ownNft(uint256 tokenId) {\r\n        require(_ownerOfNft[tokenId] == msg.sender);\r\n        _;\r\n    }\r\n\r\n    modifier tokenOwnByContract(uint256 tokenId) {\r\n        require(_ownerOfNft[tokenId] == _owner);\r\n        _;\r\n    }\r\n\r\n    constructor() ERC1155(\"\") {\r\n        _owner = msg.sender;\r\n        _hasRole[uint(ROLE.STUDENT)] = true;\r\n        _hasRole[uint(ROLE.TEACHER)] = true;\r\n    }\r\n\r\n    // Used for everyone: Section start\r\n    function getNftInfo(uint256 tokenId)\r\n        public\r\n        view\r\n        returns (NftIdentity memory, string memory)\r\n    {\r\n        string memory tokenURI = uri(tokenId);\r\n        NftIdentity memory nftIdentity = getNftOfTokenId(tokenId);\r\n\r\n        return (nftIdentity, tokenURI);\r\n    }\r\n\r\n    function getNftOfTokenId(uint256 tokenId)\r\n        public\r\n        view\r\n        returns (NftIdentity memory)\r\n    {\r\n        uint256 nftType = _getNftType(tokenId);\r\n        uint256 pos = _nftPosOfTokenId[tokenId];\r\n        require(pos > 0, \"Nft is not exist\");\r\n\r\n        return _nftsOfRole[nftType][pos - 1];\r\n    }\r\n\r\n    function registerNft(uint256 role, string memory tokenURI)\r\n        public\r\n        payable\r\n        allowedRole(role)\r\n        canGenerateNewTokens(role, 1)\r\n    {\r\n        require(msg.value == registerFee, \"Register fee is incorrect\");\r\n        require(_nftOfOwner[msg.sender] == 0, \"Already own 1 nft\");\r\n        _mintToken(role, _owner, block.timestamp, tokenURI);\r\n\r\n        _register(role, msg.sender);\r\n    }\r\n\r\n    // Used for everyone: Section end\r\n\r\n    // Used for teacher: Section start\r\n    /*\r\n        Teacher: if expired => request to extend =>\r\n            - Accept: Reset expired date\r\n            - Reject: Burn token\r\n        Student: if expired => Extend year end? (graduated won't own nft) => request to extend =>\r\n            - Accept: Reset expired date\r\n            - Reject: Burn token\r\n    */\r\n    function requestExtendExpiredNft() public {\r\n        uint256 tokenId = _nftOfOwner[msg.sender];\r\n        require(tokenId > 0, \"Haven't own any tokens\");\r\n        uint256 role = _getNftType(tokenId);\r\n        require(\r\n            !_isRegister(role, msg.sender),\r\n            \"You are currently registering\"\r\n        );\r\n        NftIdentity memory nftIdentity = getNftOfTokenId(tokenId);\r\n        require(\r\n            nftIdentity.expiredAt < block.timestamp,\r\n            \"Nft token hasn't been expired\"\r\n        );\r\n\r\n        safeTransferFrom(msg.sender, _owner, tokenId, ONE_NFT, msg.data);\r\n        _extendRequestTokenIds.push(tokenId);\r\n        _positionOfRequestTokenId[tokenId] = _extendRequestTokenIds.length;\r\n    }\r\n\r\n    // Used for student: Section start\r\n\r\n    // Used for other contracts: Section start\r\n    function isAbleToOperate(address registerAddr)\r\n        public\r\n        view\r\n        returns (bool, uint256)\r\n    {\r\n        uint256 tokenId = _tokenIdOfRegisters[registerAddr];\r\n        if (tokenId == 0) {\r\n            return (false, 0);\r\n        }\r\n        NftIdentity memory nftIdentity = getNftOfTokenId(tokenId);\r\n\r\n        return (\r\n            _ownerOfNft[tokenId] == _owner &&\r\n                nftIdentity.expiredAt > block.timestamp,\r\n            _getNftType(tokenId)\r\n        );\r\n    }\r\n\r\n    // Used for other contracts: Section end\r\n\r\n    // Used for owner: Section start\r\n    function getAllExtendExpiredRequest()\r\n        public\r\n        view\r\n        onlyOwner\r\n        returns (NftIdentity[] memory, string[] memory)\r\n    {\r\n        uint256 numberOfRequests = _extendRequestTokenIds.length;\r\n        NftIdentity[] memory nftIdentities = new NftIdentity[](\r\n            numberOfRequests\r\n        );\r\n        string[] memory tokenURIs = new string[](numberOfRequests);\r\n\r\n        for (uint256 index = 0; index < numberOfRequests; ++index) {\r\n            uint256 tokenId = _extendRequestTokenIds[index];\r\n            NftIdentity memory nftIdentity;\r\n            string memory tokenURI;\r\n            (nftIdentity, tokenURI) = getNftInfo(tokenId);\r\n\r\n            nftIdentities[index] = nftIdentity;\r\n            tokenURIs[index] = tokenURI;\r\n        }\r\n\r\n        return (nftIdentities, tokenURIs);\r\n    }\r\n\r\n    function extendExpiredNft(uint256 tokenId, uint256 nextExpiredAt)\r\n        public\r\n        onlyOwner\r\n        tokenOwnByContract(tokenId)\r\n        isAfterNow(nextExpiredAt)\r\n    {\r\n        // For approve extend expired request\r\n        uint256 nftType = _getNftType(tokenId);\r\n        uint256 pos = _nftPosOfTokenId[tokenId];\r\n        require(pos > 0, \"Nft is not exist\");\r\n\r\n        _nftsOfRole[nftType][pos - 1].expiredAt = nextExpiredAt;\r\n    }\r\n\r\n    function burnNft(uint256 tokenId)\r\n        public\r\n        onlyOwner\r\n        tokenOwnByContract(tokenId)\r\n    {\r\n        // For reject extend expired request\r\n        _burn(_owner, tokenId, ONE_NFT);\r\n    }\r\n\r\n    function approveNft(address registerAddr, uint256 nextExpiredAt)\r\n        public\r\n        onlyOwner\r\n    {\r\n        uint256 tokenId = _tokenIdOfRegisters[registerAddr];\r\n        require(tokenId > 0, \"Invalid operation\");\r\n        uint256 role = _getNftType(tokenId);\r\n        require(_isRegister(role, registerAddr));\r\n\r\n        extendExpiredNft(tokenId, nextExpiredAt);\r\n        _removeFromRegistersList(role, registerAddr); // validate register\r\n        safeTransferFrom(_owner, registerAddr, tokenId, ONE_NFT, msg.data);\r\n    }\r\n\r\n    function rejectNft(address registerAddr) public onlyOwner {\r\n        uint256 tokenId = _tokenIdOfRegisters[registerAddr];\r\n        require(tokenId > 0, \"Invalid operation\");\r\n        uint256 role = _getNftType(tokenId);\r\n        require(_isRegister(role, registerAddr));\r\n\r\n        _removeFromRegistersList(role, registerAddr);\r\n        _burn(_owner, tokenId, ONE_NFT);\r\n    }\r\n\r\n    // Used for owner: Section start\r\n\r\n    // Used for members: Section start\r\n    function getOwnedNft()\r\n        public\r\n        view\r\n        returns (\r\n            NftIdentity memory,\r\n            string memory,\r\n            bool,\r\n            bool,\r\n            bool\r\n        )\r\n    {\r\n        uint256 tokenId = _tokenIdOfRegisters[msg.sender];\r\n        NftIdentity memory nftIdentity = getNftOfTokenId(tokenId);\r\n        string memory tokenURI = uri(tokenId);\r\n        bool isExpired = nftIdentity.expiredAt <= block.timestamp;\r\n        (bool isOperate,) = isAbleToOperate(msg.sender);\r\n        bool isExpiredRequest = _positionOfRequestTokenId[tokenId] > 0;\r\n\r\n        return (nftIdentity, tokenURI, isExpired, isOperate, isExpiredRequest);\r\n    }\r\n\r\n    function getRole() public view returns (uint256) {\r\n        if (msg.sender == _owner) {\r\n            return HIGHEST_OPERATOR_ID;\r\n        }\r\n\r\n        uint256 tokenId = _tokenIdOfRegisters[msg.sender];\r\n        if (tokenId == 0) {\r\n            return VISITOR_ID;\r\n        }\r\n\r\n        uint256 role = _getNftType(tokenId);\r\n        if (_isRegister(role, msg.sender)) {\r\n            return REGISTERED_ID;\r\n        }\r\n\r\n        return role;\r\n    }\r\n\r\n    function depositNftIdentity() public {\r\n        uint256 tokenId = _nftOfOwner[msg.sender];\r\n        require(tokenId > 0, \"Invalid operation\");\r\n        NftIdentity memory nftIdentity = getNftOfTokenId(tokenId);\r\n\r\n        if (nftIdentity.expiredAt > block.timestamp) {\r\n            safeTransferFrom(msg.sender, _owner, tokenId, ONE_NFT, msg.data);\r\n        } else {\r\n            // If NFT haven't extend but try to operate\r\n            _burn(msg.sender, tokenId, ONE_NFT);\r\n        }\r\n    }\r\n\r\n    function withdrawNftIdentity() public {\r\n        uint256 tokenId = _tokenIdOfRegisters[msg.sender];\r\n        require(tokenId > 0, \"Haven't owned any nfts yet\");\r\n        require(_ownerOfNft[tokenId] == _owner, \"Nft hasn't been deposited\");\r\n\r\n        safeTransferFrom(_owner, msg.sender, tokenId, ONE_NFT, msg.data);\r\n    }\r\n\r\n    // Used for members: Section end\r\n\r\n    function _beforeTokenTransfer(\r\n        address operator,\r\n        address from,\r\n        address to,\r\n        uint256[] memory ids,\r\n        uint256[] memory amounts,\r\n        bytes memory data\r\n    ) internal virtual override {\r\n        super._beforeTokenTransfer(operator, from, to, ids, amounts, data);\r\n        uint256 tokenId = ids[0];\r\n\r\n        if (from != address(0)) {\r\n            delete _nftOfOwner[from];\r\n            delete _ownerOfNft[tokenId];\r\n        }\r\n\r\n        if (to != address(0)) {\r\n            _nftOfOwner[to] = tokenId;\r\n            _ownerOfNft[tokenId] = to;\r\n        } else {\r\n            // burn\r\n            _removeTokenIdFromAllTokens(tokenId);\r\n            delete _tokenIdOfRegisters[from];\r\n        }\r\n    }\r\n\r\n    function _removeTokenIdFromAllTokens(uint256 tokenId) private {\r\n        uint256 nftPos = _nftPosOfTokenId[tokenId];\r\n        uint256 nftType = _getNftType(tokenId);\r\n        uint256 nftCount = _nftsOfRole[nftType].length;\r\n\r\n        if (nftCount != nftPos) {\r\n            NftIdentity memory lastNft = _nftsOfRole[nftType][nftCount - 1];\r\n            _nftsOfRole[nftType][nftPos - 1] = lastNft;\r\n            _nftPosOfTokenId[lastNft.tokenId] = nftPos;\r\n        }\r\n        _nftsOfRole[nftType].pop();\r\n        delete _nftPosOfTokenId[tokenId];\r\n    }\r\n\r\n    function _mintTokens(\r\n        uint256 role,\r\n        address[] memory to,\r\n        uint256[] memory expiredAt,\r\n        string[] memory tokenURI\r\n    ) private allowedRole(role) canGenerateNewTokens(role, to.length) {\r\n        require(to.length == expiredAt.length, \"Invalid params\");\r\n        require(to.length == tokenURI.length, \"Invalid params\");\r\n        uint256 targetCount = to.length;\r\n\r\n        for (uint256 index = 0; index < targetCount; ++index) {\r\n            if (_nftOfOwner[to[index]] > 0) {\r\n                revert(\"Nft Identity must be unique\");\r\n            }\r\n            _mintToken(role, to[index], expiredAt[index], tokenURI[index]);\r\n        }\r\n    }\r\n\r\n    function _mintToken(\r\n        uint256 role,\r\n        address to,\r\n        uint256 expiredAt,\r\n        string memory tokenURI\r\n    ) private returns (uint256) {\r\n        require(!_usedTokenURI[tokenURI], \"Token URI has already used\");\r\n        uint256 tokenId = _generateNewTokenId(role);\r\n        _setURI(tokenId, tokenURI);\r\n\r\n        _createNftIdentity(tokenId, expiredAt);\r\n        _mint(to, tokenId, ONE_NFT, msg.data);\r\n\r\n        return tokenId;\r\n    }\r\n\r\n    function _createNftIdentity(uint256 tokenId, uint256 expiredAt) private {\r\n        uint256 nftType = _getNftType(tokenId);\r\n        NftIdentity memory nftIdentity = NftIdentity(\r\n            tokenId,\r\n            msg.sender,\r\n            expiredAt\r\n        );\r\n\r\n        _nftsOfRole[nftType].push(nftIdentity);\r\n        _nftPosOfTokenId[tokenId] = _nftsOfRole[nftType].length;\r\n        _tokenIdOfRegisters[msg.sender] = tokenId;\r\n    }\r\n\r\n    function _getNftType(uint256 tokenId) private pure returns (uint256) {\r\n        return tokenId >> INDEX_BITS;\r\n    }\r\n\r\n    function _generateNewTokenId(uint256 role) private returns (uint256) {\r\n        _maxTokenIdIndexOfRole[role].increment();\r\n        uint256 tokenId = _maxTokenIdIndexOfRole[role].current();\r\n\r\n        return (role << INDEX_BITS) | tokenId;\r\n    }\r\n}\r\n",
  "sourcePath": "E:\\learn\\learn-to-earn\\contracts\\NftIdentities.sol",
  "compiler": {
    "name": "solc",
    "version": "0.8.13+commit.abaa5c0e.Emscripten.clang"
  },
  "schemaVersion": "3.4.11",
  "updatedAt": "2023-03-14T06:04:41.582Z",
  "devdoc": {
    "kind": "dev",
    "methods": {
      "balanceOf(address,uint256)": {
        "details": "See {IERC1155-balanceOf}. Requirements: - `account` cannot be the zero address."
      },
      "balanceOfBatch(address[],uint256[])": {
        "details": "See {IERC1155-balanceOfBatch}. Requirements: - `accounts` and `ids` must have the same length."
      },
      "isApprovedForAll(address,address)": {
        "details": "See {IERC1155-isApprovedForAll}."
      },
      "safeBatchTransferFrom(address,address,uint256[],uint256[],bytes)": {
        "details": "See {IERC1155-safeBatchTransferFrom}."
      },
      "safeTransferFrom(address,address,uint256,uint256,bytes)": {
        "details": "See {IERC1155-safeTransferFrom}."
      },
      "setApprovalForAll(address,bool)": {
        "details": "See {IERC1155-setApprovalForAll}."
      },
      "supportsInterface(bytes4)": {
        "details": "See {IERC165-supportsInterface}."
      },
      "uri(uint256)": {
        "details": "See {IERC1155MetadataURI-uri}. This implementation returns the concatenation of the `_baseURI` and the token-specific uri if the latter is set This enables the following behaviors: - if `_tokenURIs[tokenId]` is set, then the result is the concatenation   of `_baseURI` and `_tokenURIs[tokenId]` (keep in mind that `_baseURI`   is empty per default); - if `_tokenURIs[tokenId]` is NOT set then we fallback to `super.uri()`   which in most cases will contain `ERC1155._uri`; - if `_tokenURIs[tokenId]` is NOT set, and if the parents do not have a   uri value set, then the result is empty."
      }
    },
    "version": 1
  },
  "userdoc": {
    "kind": "user",
    "methods": {},
    "version": 1
  }
}