{
  "contractName": "NftIdentities",
  "abi": [
    {
      "inputs": [],
      "stateMutability": "nonpayable",
      "type": "constructor"
    },
    {
      "anonymous": false,
      "inputs": [
        {
          "indexed": true,
          "internalType": "address",
          "name": "account",
          "type": "address"
        },
        {
          "indexed": true,
          "internalType": "address",
          "name": "operator",
          "type": "address"
        },
        {
          "indexed": false,
          "internalType": "bool",
          "name": "approved",
          "type": "bool"
        }
      ],
      "name": "ApprovalForAll",
      "type": "event"
    },
    {
      "anonymous": false,
      "inputs": [
        {
          "indexed": true,
          "internalType": "address",
          "name": "operator",
          "type": "address"
        },
        {
          "indexed": true,
          "internalType": "address",
          "name": "from",
          "type": "address"
        },
        {
          "indexed": true,
          "internalType": "address",
          "name": "to",
          "type": "address"
        },
        {
          "indexed": false,
          "internalType": "uint256[]",
          "name": "ids",
          "type": "uint256[]"
        },
        {
          "indexed": false,
          "internalType": "uint256[]",
          "name": "values",
          "type": "uint256[]"
        }
      ],
      "name": "TransferBatch",
      "type": "event"
    },
    {
      "anonymous": false,
      "inputs": [
        {
          "indexed": true,
          "internalType": "address",
          "name": "operator",
          "type": "address"
        },
        {
          "indexed": true,
          "internalType": "address",
          "name": "from",
          "type": "address"
        },
        {
          "indexed": true,
          "internalType": "address",
          "name": "to",
          "type": "address"
        },
        {
          "indexed": false,
          "internalType": "uint256",
          "name": "id",
          "type": "uint256"
        },
        {
          "indexed": false,
          "internalType": "uint256",
          "name": "value",
          "type": "uint256"
        }
      ],
      "name": "TransferSingle",
      "type": "event"
    },
    {
      "anonymous": false,
      "inputs": [
        {
          "indexed": false,
          "internalType": "string",
          "name": "value",
          "type": "string"
        },
        {
          "indexed": true,
          "internalType": "uint256",
          "name": "id",
          "type": "uint256"
        }
      ],
      "name": "URI",
      "type": "event"
    },
    {
      "inputs": [
        {
          "internalType": "address",
          "name": "account",
          "type": "address"
        },
        {
          "internalType": "uint256",
          "name": "id",
          "type": "uint256"
        }
      ],
      "name": "balanceOf",
      "outputs": [
        {
          "internalType": "uint256",
          "name": "",
          "type": "uint256"
        }
      ],
      "stateMutability": "view",
      "type": "function"
    },
    {
      "inputs": [
        {
          "internalType": "address[]",
          "name": "accounts",
          "type": "address[]"
        },
        {
          "internalType": "uint256[]",
          "name": "ids",
          "type": "uint256[]"
        }
      ],
      "name": "balanceOfBatch",
      "outputs": [
        {
          "internalType": "uint256[]",
          "name": "",
          "type": "uint256[]"
        }
      ],
      "stateMutability": "view",
      "type": "function"
    },
    {
      "inputs": [
        {
          "internalType": "address",
          "name": "account",
          "type": "address"
        },
        {
          "internalType": "address",
          "name": "operator",
          "type": "address"
        }
      ],
      "name": "isApprovedForAll",
      "outputs": [
        {
          "internalType": "bool",
          "name": "",
          "type": "bool"
        }
      ],
      "stateMutability": "view",
      "type": "function"
    },
    {
      "inputs": [],
      "name": "registerFee",
      "outputs": [
        {
          "internalType": "uint256",
          "name": "",
          "type": "uint256"
        }
      ],
      "stateMutability": "view",
      "type": "function"
    },
    {
      "inputs": [
        {
          "internalType": "address",
          "name": "from",
          "type": "address"
        },
        {
          "internalType": "address",
          "name": "to",
          "type": "address"
        },
        {
          "internalType": "uint256[]",
          "name": "ids",
          "type": "uint256[]"
        },
        {
          "internalType": "uint256[]",
          "name": "amounts",
          "type": "uint256[]"
        },
        {
          "internalType": "bytes",
          "name": "data",
          "type": "bytes"
        }
      ],
      "name": "safeBatchTransferFrom",
      "outputs": [],
      "stateMutability": "nonpayable",
      "type": "function"
    },
    {
      "inputs": [
        {
          "internalType": "address",
          "name": "from",
          "type": "address"
        },
        {
          "internalType": "address",
          "name": "to",
          "type": "address"
        },
        {
          "internalType": "uint256",
          "name": "id",
          "type": "uint256"
        },
        {
          "internalType": "uint256",
          "name": "amount",
          "type": "uint256"
        },
        {
          "internalType": "bytes",
          "name": "data",
          "type": "bytes"
        }
      ],
      "name": "safeTransferFrom",
      "outputs": [],
      "stateMutability": "nonpayable",
      "type": "function"
    },
    {
      "inputs": [
        {
          "internalType": "address",
          "name": "operator",
          "type": "address"
        },
        {
          "internalType": "bool",
          "name": "approved",
          "type": "bool"
        }
      ],
      "name": "setApprovalForAll",
      "outputs": [],
      "stateMutability": "nonpayable",
      "type": "function"
    },
    {
      "inputs": [
        {
          "internalType": "bytes4",
          "name": "interfaceId",
          "type": "bytes4"
        }
      ],
      "name": "supportsInterface",
      "outputs": [
        {
          "internalType": "bool",
          "name": "",
          "type": "bool"
        }
      ],
      "stateMutability": "view",
      "type": "function"
    },
    {
      "inputs": [
        {
          "internalType": "uint256",
          "name": "tokenId",
          "type": "uint256"
        }
      ],
      "name": "uri",
      "outputs": [
        {
          "internalType": "string",
          "name": "",
          "type": "string"
        }
      ],
      "stateMutability": "view",
      "type": "function"
    },
    {
      "inputs": [
        {
          "internalType": "uint256",
          "name": "tokenId",
          "type": "uint256"
        }
      ],
      "name": "getNftInfo",
      "outputs": [
        {
          "components": [
            {
              "internalType": "uint256",
              "name": "tokenId",
              "type": "uint256"
            },
            {
              "internalType": "address",
              "name": "register",
              "type": "address"
            },
            {
              "internalType": "uint256",
              "name": "expiredAt",
              "type": "uint256"
            }
          ],
          "internalType": "struct NftIdentities.NftIdentity",
          "name": "",
          "type": "tuple"
        },
        {
          "internalType": "string",
          "name": "",
          "type": "string"
        }
      ],
      "stateMutability": "view",
      "type": "function"
    },
    {
      "inputs": [
        {
          "internalType": "uint256",
          "name": "tokenId",
          "type": "uint256"
        }
      ],
      "name": "getNftOfTokenId",
      "outputs": [
        {
          "components": [
            {
              "internalType": "uint256",
              "name": "tokenId",
              "type": "uint256"
            },
            {
              "internalType": "address",
              "name": "register",
              "type": "address"
            },
            {
              "internalType": "uint256",
              "name": "expiredAt",
              "type": "uint256"
            }
          ],
          "internalType": "struct NftIdentities.NftIdentity",
          "name": "",
          "type": "tuple"
        }
      ],
      "stateMutability": "view",
      "type": "function"
    },
    {
      "inputs": [
        {
          "internalType": "uint256",
          "name": "role",
          "type": "uint256"
        },
        {
          "internalType": "string",
          "name": "tokenURI",
          "type": "string"
        }
      ],
      "name": "registerNft",
      "outputs": [],
      "stateMutability": "payable",
      "type": "function"
    },
    {
      "inputs": [],
      "name": "requestExtendExpiredNft",
      "outputs": [],
      "stateMutability": "nonpayable",
      "type": "function"
    },
    {
      "inputs": [
        {
          "internalType": "address",
          "name": "registerAddr",
          "type": "address"
        }
      ],
      "name": "isAbleToOperate",
      "outputs": [
        {
          "internalType": "bool",
          "name": "",
          "type": "bool"
        }
      ],
      "stateMutability": "view",
      "type": "function"
    },
    {
      "inputs": [],
      "name": "getAllExtendExpiredRequest",
      "outputs": [
        {
          "components": [
            {
              "internalType": "uint256",
              "name": "tokenId",
              "type": "uint256"
            },
            {
              "internalType": "address",
              "name": "register",
              "type": "address"
            },
            {
              "internalType": "uint256",
              "name": "expiredAt",
              "type": "uint256"
            }
          ],
          "internalType": "struct NftIdentities.NftIdentity[]",
          "name": "",
          "type": "tuple[]"
        },
        {
          "internalType": "string[]",
          "name": "",
          "type": "string[]"
        }
      ],
      "stateMutability": "view",
      "type": "function"
    },
    {
      "inputs": [
        {
          "internalType": "uint256",
          "name": "tokenId",
          "type": "uint256"
        },
        {
          "internalType": "uint256",
          "name": "nextExpiredAt",
          "type": "uint256"
        }
      ],
      "name": "extendExpiredNft",
      "outputs": [],
      "stateMutability": "nonpayable",
      "type": "function"
    },
    {
      "inputs": [
        {
          "internalType": "uint256",
          "name": "tokenId",
          "type": "uint256"
        }
      ],
      "name": "burnNft",
      "outputs": [],
      "stateMutability": "nonpayable",
      "type": "function"
    },
    {
      "inputs": [
        {
          "internalType": "address",
          "name": "registerAddr",
          "type": "address"
        },
        {
          "internalType": "uint256",
          "name": "nextExpiredAt",
          "type": "uint256"
        }
      ],
      "name": "approveNft",
      "outputs": [],
      "stateMutability": "nonpayable",
      "type": "function"
    },
    {
      "inputs": [
        {
          "internalType": "address",
          "name": "registerAddr",
          "type": "address"
        }
      ],
      "name": "rejectNft",
      "outputs": [],
      "stateMutability": "nonpayable",
      "type": "function"
    },
    {
      "inputs": [],
      "name": "getOwnedNft",
      "outputs": [
        {
          "components": [
            {
              "internalType": "uint256",
              "name": "tokenId",
              "type": "uint256"
            },
            {
              "internalType": "address",
              "name": "register",
              "type": "address"
            },
            {
              "internalType": "uint256",
              "name": "expiredAt",
              "type": "uint256"
            }
          ],
          "internalType": "struct NftIdentities.NftIdentity",
          "name": "",
          "type": "tuple"
        },
        {
          "internalType": "string",
          "name": "",
          "type": "string"
        },
        {
          "internalType": "bool",
          "name": "",
          "type": "bool"
        },
        {
          "internalType": "bool",
          "name": "",
          "type": "bool"
        },
        {
          "internalType": "bool",
          "name": "",
          "type": "bool"
        }
      ],
      "stateMutability": "view",
      "type": "function"
    },
    {
      "inputs": [],
      "name": "getRole",
      "outputs": [
        {
          "internalType": "uint256",
          "name": "",
          "type": "uint256"
        }
      ],
      "stateMutability": "view",
      "type": "function"
    },
    {
      "inputs": [],
      "name": "depositNftIdentity",
      "outputs": [],
      "stateMutability": "nonpayable",
      "type": "function"
    },
    {
      "inputs": [],
      "name": "withdrawNftIdentity",
      "outputs": [],
      "stateMutability": "nonpayable",
      "type": "function"
    }
  ],
  "bytecode": "0x608060405260405180602001604052806000815250600390805190602001906200002b9291906200014c565b5066b1a2bc2ec500006009553480156200004457600080fd5b506040518060200160405280600081525062000066816200013060201b60201c565b50600160076000806001811115620000835762000082620001fc565b5b815260200190815260200160002060006101000a81548160ff021916908315150217905550600160076000600180811115620000c457620000c3620001fc565b5b815260200190815260200160002060006101000a81548160ff02191690831515021790555033600860006101000a81548173ffffffffffffffffffffffffffffffffffffffff021916908373ffffffffffffffffffffffffffffffffffffffff1602179055506200028f565b8060029080519060200190620001489291906200014c565b5050565b8280546200015a906200025a565b90600052602060002090601f0160209004810192826200017e5760008555620001ca565b82601f106200019957805160ff1916838001178555620001ca565b82800160010185558215620001ca579182015b82811115620001c9578251825591602001919060010190620001ac565b5b509050620001d99190620001dd565b5090565b5b80821115620001f8576000816000905550600101620001de565b5090565b7f4e487b7100000000000000000000000000000000000000000000000000000000600052602160045260246000fd5b7f4e487b7100000000000000000000000000000000000000000000000000000000600052602260045260246000fd5b600060028204905060018216806200027357607f821691505b6020821081036200028957620002886200022b565b5b50919050565b615820806200029f6000396000f3fe60806040526004361061013f5760003560e01c80634e1273f4116100b6578063ce268f691161006f578063ce268f6914610415578063d5ec2d8314610452578063d703df8b14610490578063e985e9c5146104cd578063f242432a1461050a578063fde08174146105335761013f565b80634e1273f41461032957806358e8dad21461036657806376bd1c78146103955780637f256a54146103ac578063899b7898146103c3578063a22cb465146103ec5761013f565b80630fc2346d116101085780630fc2346d1461024f5780631e5ec762146102665780632eb2c2d61461028257806333fbd842146102ab5780633679f68f146102d75780633d5efefe146103005761013f565b8062fdd58e1461014457806301ffc9a71461018157806303f187ea146101be5780630a08bb53146101e95780630e89341c14610212575b600080fd5b34801561015057600080fd5b5061016b60048036038101906101669190613a52565b61055e565b6040516101789190613aa1565b60405180910390f35b34801561018d57600080fd5b506101a860048036038101906101a39190613b14565b610626565b6040516101b59190613b5c565b60405180910390f35b3480156101ca57600080fd5b506101d3610708565b6040516101e09190613aa1565b60405180910390f35b3480156101f557600080fd5b50610210600480360381019061020b9190613b77565b61070e565b005b34801561021e57600080fd5b5061023960048036038101906102349190613bb7565b6108ba565b6040516102469190613c7d565b60405180910390f35b34801561025b57600080fd5b5061026461099f565b005b610280600480360381019061027b9190613dd4565b610b61565b005b34801561028e57600080fd5b506102a960048036038101906102a49190613f99565b610d1c565b005b3480156102b757600080fd5b506102c0610dbd565b6040516102ce929190614283565b60405180910390f35b3480156102e357600080fd5b506102fe60048036038101906102f991906142ba565b610f77565b005b34801561030c57600080fd5b5061032760048036038101906103229190613bb7565b6110b5565b005b34801561033557600080fd5b50610350600480360381019061034b91906143aa565b6111cf565b60405161035d91906144d1565b60405180910390f35b34801561037257600080fd5b5061037b6112e8565b60405161038c959493929190614535565b60405180910390f35b3480156103a157600080fd5b506103aa6113a3565b005b3480156103b857600080fd5b506103c1611594565b005b3480156103cf57600080fd5b506103ea60048036038101906103e59190613a52565b6116bf565b005b3480156103f857600080fd5b50610413600480360381019061040e91906145bb565b61184f565b005b34801561042157600080fd5b5061043c600480360381019061043791906142ba565b611865565b6040516104499190613b5c565b60405180910390f35b34801561045e57600080fd5b5061047960048036038101906104749190613bb7565b611966565b6040516104879291906145fb565b60405180910390f35b34801561049c57600080fd5b506104b760048036038101906104b29190613bb7565b611997565b6040516104c4919061462b565b60405180910390f35b3480156104d957600080fd5b506104f460048036038101906104ef9190614646565b611ac4565b6040516105019190613b5c565b60405180910390f35b34801561051657600080fd5b50610531600480360381019061052c9190614686565b611b58565b005b34801561053f57600080fd5b50610548611bf9565b6040516105559190613aa1565b60405180910390f35b60008073ffffffffffffffffffffffffffffffffffffffff168373ffffffffffffffffffffffffffffffffffffffff16036105ce576040517f08c379a00000000000000000000000000000000000000000000000000000000081526004016105c59061478f565b60405180910390fd5b60008083815260200190815260200160002060008473ffffffffffffffffffffffffffffffffffffffff1673ffffffffffffffffffffffffffffffffffffffff16815260200190815260200160002054905092915050565b60007fd9b67a26000000000000000000000000000000000000000000000000000000007bffffffffffffffffffffffffffffffffffffffffffffffffffffffff1916827bffffffffffffffffffffffffffffffffffffffffffffffffffffffff191614806106f157507f0e89341c000000000000000000000000000000000000000000000000000000007bffffffffffffffffffffffffffffffffffffffffffffffffffffffff1916827bffffffffffffffffffffffffffffffffffffffffffffffffffffffff1916145b80610701575061070082611cdf565b5b9050919050565b60095481565b600860009054906101000a900473ffffffffffffffffffffffffffffffffffffffff1673ffffffffffffffffffffffffffffffffffffffff163373ffffffffffffffffffffffffffffffffffffffff161461076857600080fd5b81600860009054906101000a900473ffffffffffffffffffffffffffffffffffffffff1673ffffffffffffffffffffffffffffffffffffffff166010600083815260200190815260200160002060009054906101000a900473ffffffffffffffffffffffffffffffffffffffff1673ffffffffffffffffffffffffffffffffffffffff16146107f657600080fd5b8142811161080357600080fd5b600061080e85611d49565b90506000600d60008781526020019081526020016000205490506000811161086b576040517f08c379a0000000000000000000000000000000000000000000000000000000008152600401610862906147fb565b60405180910390fd5b84600c600084815260200190815260200160002060018361088c919061484a565b8154811061089d5761089c61487e565b5b906000526020600020906003020160020181905550505050505050565b606060006004600084815260200190815260200160002080546108dc906148dc565b80601f0160208091040260200160405190810160405280929190818152602001828054610908906148dc565b80156109555780601f1061092a57610100808354040283529160200191610955565b820191906000526020600020905b81548152906001019060200180831161093857829003601f168201915b5050505050905060008151116109735761096e83611d57565b610997565b6003816040516020016109879291906149dd565b6040516020818303038152906040525b915050919050565b6000600a60003373ffffffffffffffffffffffffffffffffffffffff1673ffffffffffffffffffffffffffffffffffffffff16815260200190815260200160002054905060008111610a26576040517f08c379a0000000000000000000000000000000000000000000000000000000008152600401610a1d90614a4d565b60405180910390fd5b600860009054906101000a900473ffffffffffffffffffffffffffffffffffffffff1673ffffffffffffffffffffffffffffffffffffffff166010600083815260200190815260200160002060009054906101000a900473ffffffffffffffffffffffffffffffffffffffff1673ffffffffffffffffffffffffffffffffffffffff1614610ae9576040517f08c379a0000000000000000000000000000000000000000000000000000000008152600401610ae090614ab9565b60405180910390fd5b610b5e600860009054906101000a900473ffffffffffffffffffffffffffffffffffffffff16338360016000368080601f016020809104026020016040519081016040528093929190818152602001838380828437600081840152601f19601f82011690508083019250505050505050611b58565b50565b816007600082815260200190815260200160002060009054906101000a900460ff16610bc2576040517f08c379a0000000000000000000000000000000000000000000000000000000008152600401610bb990614b25565b60405180910390fd5b8260016000600182610be5600b6000878152602001908152602001600020611deb565b610bef9190614b45565b610bf9919061484a565b905060001961ffff1660001961ffff16821714610c1557600080fd5b6009543414610c59576040517f08c379a0000000000000000000000000000000000000000000000000000000008152600401610c5090614be7565b60405180910390fd5b6000600f60003373ffffffffffffffffffffffffffffffffffffffff1673ffffffffffffffffffffffffffffffffffffffff1681526020019081526020016000205414610cdb576040517f08c379a0000000000000000000000000000000000000000000000000000000008152600401610cd290614c53565b60405180910390fd5b610d0986600860009054906101000a900473ffffffffffffffffffffffffffffffffffffffff164288611df9565b50610d148633611ee6565b505050505050565b610d2461202b565b73ffffffffffffffffffffffffffffffffffffffff168573ffffffffffffffffffffffffffffffffffffffff161480610d6a5750610d6985610d6461202b565b611ac4565b5b610da9576040517f08c379a0000000000000000000000000000000000000000000000000000000008152600401610da090614ce5565b60405180910390fd5b610db68585858585612033565b5050505050565b606080600860009054906101000a900473ffffffffffffffffffffffffffffffffffffffff1673ffffffffffffffffffffffffffffffffffffffff163373ffffffffffffffffffffffffffffffffffffffff1614610e1a57600080fd5b6000601180549050905060008167ffffffffffffffff811115610e4057610e3f613ca9565b5b604051908082528060200260200182016040528015610e7957816020015b610e666138d0565b815260200190600190039081610e5e5790505b50905060008267ffffffffffffffff811115610e9857610e97613ca9565b5b604051908082528060200260200182016040528015610ecb57816020015b6060815260200190600190039081610eb65790505b50905060005b83811015610f6957600060118281548110610eef57610eee61487e565b5b90600052602060002001549050610f046138d0565b6060610f0f83611966565b809250819350505081868581518110610f2b57610f2a61487e565b5b602002602001018190525080858581518110610f4a57610f4961487e565b5b602002602001018190525050505080610f6290614d05565b9050610ed1565b508181945094505050509091565b600860009054906101000a900473ffffffffffffffffffffffffffffffffffffffff1673ffffffffffffffffffffffffffffffffffffffff163373ffffffffffffffffffffffffffffffffffffffff1614610fd157600080fd5b6000600a60008373ffffffffffffffffffffffffffffffffffffffff1673ffffffffffffffffffffffffffffffffffffffff16815260200190815260200160002054905060008111611058576040517f08c379a000000000000000000000000000000000000000000000000000000000815260040161104f90614d99565b60405180910390fd5b600061106382611d49565b905061106f8184612354565b61107857600080fd5b61108281846123b1565b6110b0600860009054906101000a900473ffffffffffffffffffffffffffffffffffffffff1683600161260b565b505050565b600860009054906101000a900473ffffffffffffffffffffffffffffffffffffffff1673ffffffffffffffffffffffffffffffffffffffff163373ffffffffffffffffffffffffffffffffffffffff161461110f57600080fd5b80600860009054906101000a900473ffffffffffffffffffffffffffffffffffffffff1673ffffffffffffffffffffffffffffffffffffffff166010600083815260200190815260200160002060009054906101000a900473ffffffffffffffffffffffffffffffffffffffff1673ffffffffffffffffffffffffffffffffffffffff161461119d57600080fd5b6111cb600860009054906101000a900473ffffffffffffffffffffffffffffffffffffffff1683600161260b565b5050565b60608151835114611215576040517f08c379a000000000000000000000000000000000000000000000000000000000815260040161120c90614e2b565b60405180910390fd5b6000835167ffffffffffffffff81111561123257611231613ca9565b5b6040519080825280602002602001820160405280156112605781602001602082028036833780820191505090505b50905060005b84518110156112dd576112ad8582815181106112855761128461487e565b5b60200260200101518583815181106112a05761129f61487e565b5b602002602001015161055e565b8282815181106112c0576112bf61487e565b5b602002602001018181525050806112d690614d05565b9050611266565b508091505092915050565b6112f06138d0565b6060600080600080600a60003373ffffffffffffffffffffffffffffffffffffffff1673ffffffffffffffffffffffffffffffffffffffff168152602001908152602001600020549050600061134582611997565b90506000611352836108ba565b9050600042836040015111159050600061136b33611865565b9050600080601260008881526020019081526020016000205411905084848484849a509a509a509a509a505050505050509091929394565b6000600f60003373ffffffffffffffffffffffffffffffffffffffff1673ffffffffffffffffffffffffffffffffffffffff1681526020019081526020016000205490506000811161142a576040517f08c379a000000000000000000000000000000000000000000000000000000000815260040161142190614e97565b60405180910390fd5b600061143582611d49565b90506114418133612354565b15611481576040517f08c379a000000000000000000000000000000000000000000000000000000000815260040161147890614f03565b60405180910390fd5b600061148c83611997565b9050428160400151106114d4576040517f08c379a00000000000000000000000000000000000000000000000000000000081526004016114cb90614f6f565b60405180910390fd5b61154933600860009054906101000a900473ffffffffffffffffffffffffffffffffffffffff168560016000368080601f016020809104026020016040519081016040528093929190818152602001838380828437600081840152601f19601f82011690508083019250505050505050611b58565b60118390806001815401808255809150506001900390600052602060002001600090919091909150556011805490506012600085815260200190815260200160002081905550505050565b6000600f60003373ffffffffffffffffffffffffffffffffffffffff1673ffffffffffffffffffffffffffffffffffffffff1681526020019081526020016000205490506000811161161b576040517f08c379a000000000000000000000000000000000000000000000000000000000815260040161161290614d99565b60405180910390fd5b600061162682611997565b905042816040015111156116ae576116a933600860009054906101000a900473ffffffffffffffffffffffffffffffffffffffff168460016000368080601f016020809104026020016040519081016040528093929190818152602001838380828437600081840152601f19601f82011690508083019250505050505050611b58565b6116bb565b6116ba3383600161260b565b5b5050565b600860009054906101000a900473ffffffffffffffffffffffffffffffffffffffff1673ffffffffffffffffffffffffffffffffffffffff163373ffffffffffffffffffffffffffffffffffffffff161461171957600080fd5b6000600a60008473ffffffffffffffffffffffffffffffffffffffff1673ffffffffffffffffffffffffffffffffffffffff168152602001908152602001600020549050600081116117a0576040517f08c379a000000000000000000000000000000000000000000000000000000000815260040161179790614d99565b60405180910390fd5b60006117ab82611d49565b90506117b78185612354565b6117c057600080fd5b6117ca828461070e565b6117d481856123b1565b611849600860009054906101000a900473ffffffffffffffffffffffffffffffffffffffff16858460016000368080601f016020809104026020016040519081016040528093929190818152602001838380828437600081840152601f19601f82011690508083019250505050505050611b58565b50505050565b61186161185a61202b565b8383612851565b5050565b600080600a60008473ffffffffffffffffffffffffffffffffffffffff1673ffffffffffffffffffffffffffffffffffffffff168152602001908152602001600020549050600081036118bc576000915050611961565b60006118c782611997565b9050600860009054906101000a900473ffffffffffffffffffffffffffffffffffffffff1673ffffffffffffffffffffffffffffffffffffffff166010600084815260200190815260200160002060009054906101000a900473ffffffffffffffffffffffffffffffffffffffff1673ffffffffffffffffffffffffffffffffffffffff1614801561195c5750428160400151115b925050505b919050565b61196e6138d0565b6060600061197b846108ba565b9050600061198885611997565b90508082935093505050915091565b61199f6138d0565b60006119aa83611d49565b90506000600d600085815260200190815260200160002054905060008111611a07576040517f08c379a00000000000000000000000000000000000000000000000000000000081526004016119fe906147fb565b60405180910390fd5b600c6000838152602001908152602001600020600182611a27919061484a565b81548110611a3857611a3761487e565b5b9060005260206000209060030201604051806060016040529081600082015481526020016001820160009054906101000a900473ffffffffffffffffffffffffffffffffffffffff1673ffffffffffffffffffffffffffffffffffffffff1673ffffffffffffffffffffffffffffffffffffffff16815260200160028201548152505092505050919050565b6000600160008473ffffffffffffffffffffffffffffffffffffffff1673ffffffffffffffffffffffffffffffffffffffff16815260200190815260200160002060008373ffffffffffffffffffffffffffffffffffffffff1673ffffffffffffffffffffffffffffffffffffffff16815260200190815260200160002060009054906101000a900460ff16905092915050565b611b6061202b565b73ffffffffffffffffffffffffffffffffffffffff168573ffffffffffffffffffffffffffffffffffffffff161480611ba65750611ba585611ba061202b565b611ac4565b5b611be5576040517f08c379a0000000000000000000000000000000000000000000000000000000008152600401611bdc90614ce5565b60405180910390fd5b611bf285858585856129bd565b5050505050565b6000600860009054906101000a900473ffffffffffffffffffffffffffffffffffffffff1673ffffffffffffffffffffffffffffffffffffffff163373ffffffffffffffffffffffffffffffffffffffff1603611c595760659050611cdc565b6000600a60003373ffffffffffffffffffffffffffffffffffffffff1673ffffffffffffffffffffffffffffffffffffffff16815260200190815260200160002054905060008103611caf576063915050611cdc565b6000611cba82611d49565b9050611cc68133612354565b15611cd657606492505050611cdc565b80925050505b90565b60007f01ffc9a7000000000000000000000000000000000000000000000000000000007bffffffffffffffffffffffffffffffffffffffffffffffffffffffff1916827bffffffffffffffffffffffffffffffffffffffffffffffffffffffff1916149050919050565b6000601082901c9050919050565b606060028054611d66906148dc565b80601f0160208091040260200160405190810160405280929190818152602001828054611d92906148dc565b8015611ddf5780601f10611db457610100808354040283529160200191611ddf565b820191906000526020600020905b815481529060010190602001808311611dc257829003601f168201915b50505050509050919050565b600081600001549050919050565b6000600e82604051611e0b9190614f8f565b908152602001604051809103902060009054906101000a900460ff1615611e67576040517f08c379a0000000000000000000000000000000000000000000000000000000008152600401611e5e90614ff2565b60405180910390fd5b6000611e7286612c58565b9050611e7e8184612ca3565b611e888185612d0f565b611eda858260016000368080601f016020809104026020016040519081016040528093929190818152602001838380828437600081840152601f19601f82011690508083019250505050505050612e63565b80915050949350505050565b816007600082815260200190815260200160002060009054906101000a900460ff16611f47576040517f08c379a0000000000000000000000000000000000000000000000000000000008152600401611f3e90614b25565b60405180910390fd5b60056000848152602001908152602001600020829080600181540180825580915050600190039060005260206000200160009091909190916101000a81548173ffffffffffffffffffffffffffffffffffffffff021916908373ffffffffffffffffffffffffffffffffffffffff16021790555060056000848152602001908152602001600020805490506006600085815260200190815260200160002060008473ffffffffffffffffffffffffffffffffffffffff1673ffffffffffffffffffffffffffffffffffffffff16815260200190815260200160002081905550505050565b600033905090565b8151835114612077576040517f08c379a000000000000000000000000000000000000000000000000000000000815260040161206e90615084565b60405180910390fd5b600073ffffffffffffffffffffffffffffffffffffffff168473ffffffffffffffffffffffffffffffffffffffff16036120e6576040517f08c379a00000000000000000000000000000000000000000000000000000000081526004016120dd90615116565b60405180910390fd5b60006120f061202b565b9050612100818787878787613013565b60005b84518110156122b15760008582815181106121215761212061487e565b5b6020026020010151905060008583815181106121405761213f61487e565b5b60200260200101519050600080600084815260200190815260200160002060008b73ffffffffffffffffffffffffffffffffffffffff1673ffffffffffffffffffffffffffffffffffffffff168152602001908152602001600020549050818110156121e1576040517f08c379a00000000000000000000000000000000000000000000000000000000081526004016121d8906151a8565b60405180910390fd5b81810360008085815260200190815260200160002060008c73ffffffffffffffffffffffffffffffffffffffff1673ffffffffffffffffffffffffffffffffffffffff168152602001908152602001600020819055508160008085815260200190815260200160002060008b73ffffffffffffffffffffffffffffffffffffffff1673ffffffffffffffffffffffffffffffffffffffff16815260200190815260200160002060008282546122969190614b45565b92505081905550505050806122aa90614d05565b9050612103565b508473ffffffffffffffffffffffffffffffffffffffff168673ffffffffffffffffffffffffffffffffffffffff168273ffffffffffffffffffffffffffffffffffffffff167f4a39dc06d4c0dbc64b70af90fd698a233a518aa5d07e595d983b8c0526c8f7fb87876040516123289291906151c8565b60405180910390a461233e818787878787613214565b61234c81878787878761321c565b505050505050565b6000806006600085815260200190815260200160002060008473ffffffffffffffffffffffffffffffffffffffff1673ffffffffffffffffffffffffffffffffffffffff1681526020019081526020016000205411905092915050565b60006006600084815260200190815260200160002060008373ffffffffffffffffffffffffffffffffffffffff1673ffffffffffffffffffffffffffffffffffffffff1681526020019081526020016000205490506000600560008581526020019081526020016000208054905090508082146125595760006005600086815260200190815260200160002060018361244a919061484a565b8154811061245b5761245a61487e565b5b9060005260206000200160009054906101000a900473ffffffffffffffffffffffffffffffffffffffff16905080600560008781526020019081526020016000206001856124a9919061484a565b815481106124ba576124b961487e565b5b9060005260206000200160006101000a81548173ffffffffffffffffffffffffffffffffffffffff021916908373ffffffffffffffffffffffffffffffffffffffff160217905550826006600087815260200190815260200160002060008373ffffffffffffffffffffffffffffffffffffffff1673ffffffffffffffffffffffffffffffffffffffff16815260200190815260200160002081905550505b6005600085815260200190815260200160002080548061257c5761257b6151ff565b5b6001900381819060005260206000200160006101000a81549073ffffffffffffffffffffffffffffffffffffffff021916905590556006600085815260200190815260200160002060008473ffffffffffffffffffffffffffffffffffffffff1673ffffffffffffffffffffffffffffffffffffffff1681526020019081526020016000206000905550505050565b600073ffffffffffffffffffffffffffffffffffffffff168373ffffffffffffffffffffffffffffffffffffffff160361267a576040517f08c379a0000000000000000000000000000000000000000000000000000000008152600401612671906152a0565b60405180910390fd5b600061268461202b565b90506000612691846133f3565b9050600061269e846133f3565b90506126be83876000858560405180602001604052806000815250613013565b600080600087815260200190815260200160002060008873ffffffffffffffffffffffffffffffffffffffff1673ffffffffffffffffffffffffffffffffffffffff16815260200190815260200160002054905084811015612755576040517f08c379a000000000000000000000000000000000000000000000000000000000815260040161274c90615332565b60405180910390fd5b84810360008088815260200190815260200160002060008973ffffffffffffffffffffffffffffffffffffffff1673ffffffffffffffffffffffffffffffffffffffff16815260200190815260200160002081905550600073ffffffffffffffffffffffffffffffffffffffff168773ffffffffffffffffffffffffffffffffffffffff168573ffffffffffffffffffffffffffffffffffffffff167fc3d58168c5ae7397731d063d5bbf3d657854427343f4c083240f7aacaa2d0f628989604051612822929190615352565b60405180910390a461284884886000868660405180602001604052806000815250613214565b50505050505050565b8173ffffffffffffffffffffffffffffffffffffffff168373ffffffffffffffffffffffffffffffffffffffff16036128bf576040517f08c379a00000000000000000000000000000000000000000000000000000000081526004016128b6906153ed565b60405180910390fd5b80600160008573ffffffffffffffffffffffffffffffffffffffff1673ffffffffffffffffffffffffffffffffffffffff16815260200190815260200160002060008473ffffffffffffffffffffffffffffffffffffffff1673ffffffffffffffffffffffffffffffffffffffff16815260200190815260200160002060006101000a81548160ff0219169083151502179055508173ffffffffffffffffffffffffffffffffffffffff168373ffffffffffffffffffffffffffffffffffffffff167f17307eab39ab6107e8899845ad3d59bd9653f200f220920489ca2b5937696c31836040516129b09190613b5c565b60405180910390a3505050565b600073ffffffffffffffffffffffffffffffffffffffff168473ffffffffffffffffffffffffffffffffffffffff1603612a2c576040517f08c379a0000000000000000000000000000000000000000000000000000000008152600401612a2390615116565b60405180910390fd5b6000612a3661202b565b90506000612a43856133f3565b90506000612a50856133f3565b9050612a60838989858589613013565b600080600088815260200190815260200160002060008a73ffffffffffffffffffffffffffffffffffffffff1673ffffffffffffffffffffffffffffffffffffffff16815260200190815260200160002054905085811015612af7576040517f08c379a0000000000000000000000000000000000000000000000000000000008152600401612aee906151a8565b60405180910390fd5b85810360008089815260200190815260200160002060008b73ffffffffffffffffffffffffffffffffffffffff1673ffffffffffffffffffffffffffffffffffffffff168152602001908152602001600020819055508560008089815260200190815260200160002060008a73ffffffffffffffffffffffffffffffffffffffff1673ffffffffffffffffffffffffffffffffffffffff1681526020019081526020016000206000828254612bac9190614b45565b925050819055508773ffffffffffffffffffffffffffffffffffffffff168973ffffffffffffffffffffffffffffffffffffffff168573ffffffffffffffffffffffffffffffffffffffff167fc3d58168c5ae7397731d063d5bbf3d657854427343f4c083240f7aacaa2d0f628a8a604051612c29929190615352565b60405180910390a4612c3f848a8a86868a613214565b612c4d848a8a8a8a8a61346d565b505050505050505050565b6000612c75600b6000848152602001908152602001600020613644565b6000612c92600b6000858152602001908152602001600020611deb565b905080601084901b17915050919050565b80600460008481526020019081526020016000209080519060200190612cca929190613907565b50817f6bb7ff708619ba0610cba295a58592e0451dee2622938c8755667688daf3529b612cf6846108ba565b604051612d039190613c7d565b60405180910390a25050565b6000612d1a83611d49565b9050600060405180606001604052808581526020013373ffffffffffffffffffffffffffffffffffffffff168152602001848152509050600c60008381526020019081526020016000208190806001815401808255809150506001900390600052602060002090600302016000909190919091506000820151816000015560208201518160010160006101000a81548173ffffffffffffffffffffffffffffffffffffffff021916908373ffffffffffffffffffffffffffffffffffffffff160217905550604082015181600201555050600c600083815260200190815260200160002080549050600d60008681526020019081526020016000208190555083600a60003373ffffffffffffffffffffffffffffffffffffffff1673ffffffffffffffffffffffffffffffffffffffff1681526020019081526020016000208190555050505050565b600073ffffffffffffffffffffffffffffffffffffffff168473ffffffffffffffffffffffffffffffffffffffff1603612ed2576040517f08c379a0000000000000000000000000000000000000000000000000000000008152600401612ec99061547f565b60405180910390fd5b6000612edc61202b565b90506000612ee9856133f3565b90506000612ef6856133f3565b9050612f0783600089858589613013565b8460008088815260200190815260200160002060008973ffffffffffffffffffffffffffffffffffffffff1673ffffffffffffffffffffffffffffffffffffffff1681526020019081526020016000206000828254612f669190614b45565b925050819055508673ffffffffffffffffffffffffffffffffffffffff16600073ffffffffffffffffffffffffffffffffffffffff168473ffffffffffffffffffffffffffffffffffffffff167fc3d58168c5ae7397731d063d5bbf3d657854427343f4c083240f7aacaa2d0f628989604051612fe4929190615352565b60405180910390a4612ffb83600089858589613214565b61300a8360008989898961346d565b50505050505050565b61302186868686868661365a565b6000836000815181106130375761303661487e565b5b60200260200101519050600073ffffffffffffffffffffffffffffffffffffffff168673ffffffffffffffffffffffffffffffffffffffff16146130ef57600f60008773ffffffffffffffffffffffffffffffffffffffff1673ffffffffffffffffffffffffffffffffffffffff168152602001908152602001600020600090556010600082815260200190815260200160002060006101000a81549073ffffffffffffffffffffffffffffffffffffffff02191690555b600073ffffffffffffffffffffffffffffffffffffffff168573ffffffffffffffffffffffffffffffffffffffff16146131be5780600f60008773ffffffffffffffffffffffffffffffffffffffff1673ffffffffffffffffffffffffffffffffffffffff16815260200190815260200160002081905550846010600083815260200190815260200160002060006101000a81548173ffffffffffffffffffffffffffffffffffffffff021916908373ffffffffffffffffffffffffffffffffffffffff16021790555061320b565b6131c781613662565b600a60008773ffffffffffffffffffffffffffffffffffffffff1673ffffffffffffffffffffffffffffffffffffffff168152602001908152602001600020600090555b50505050505050565b505050505050565b61323b8473ffffffffffffffffffffffffffffffffffffffff166138ad565b156133eb578373ffffffffffffffffffffffffffffffffffffffff1663bc197c8187878686866040518663ffffffff1660e01b8152600401613281959493929190615503565b6020604051808303816000875af19250505080156132bd57506040513d601f19601f820116820180604052508101906132ba9190615580565b60015b613362576132c96155ba565b806308c379a00361332557506132dd6155dc565b806132e85750613327565b806040517f08c379a000000000000000000000000000000000000000000000000000000000815260040161331c9190613c7d565b60405180910390fd5b505b6040517f08c379a0000000000000000000000000000000000000000000000000000000008152600401613359906156de565b60405180910390fd5b63bc197c8160e01b7bffffffffffffffffffffffffffffffffffffffffffffffffffffffff1916817bffffffffffffffffffffffffffffffffffffffffffffffffffffffff1916146133e9576040517f08c379a00000000000000000000000000000000000000000000000000000000081526004016133e090615770565b60405180910390fd5b505b505050505050565b60606000600167ffffffffffffffff81111561341257613411613ca9565b5b6040519080825280602002602001820160405280156134405781602001602082028036833780820191505090505b50905082816000815181106134585761345761487e565b5b60200260200101818152505080915050919050565b61348c8473ffffffffffffffffffffffffffffffffffffffff166138ad565b1561363c578373ffffffffffffffffffffffffffffffffffffffff1663f23a6e6187878686866040518663ffffffff1660e01b81526004016134d2959493929190615790565b6020604051808303816000875af192505050801561350e57506040513d601f19601f8201168201806040525081019061350b9190615580565b60015b6135b35761351a6155ba565b806308c379a003613576575061352e6155dc565b806135395750613578565b806040517f08c379a000000000000000000000000000000000000000000000000000000000815260040161356d9190613c7d565b60405180910390fd5b505b6040517f08c379a00000000000000000000000000000000000000000000000000000000081526004016135aa906156de565b60405180910390fd5b63f23a6e6160e01b7bffffffffffffffffffffffffffffffffffffffffffffffffffffffff1916817bffffffffffffffffffffffffffffffffffffffffffffffffffffffff19161461363a576040517f08c379a000000000000000000000000000000000000000000000000000000000815260040161363190615770565b60405180910390fd5b505b505050505050565b6001816000016000828254019250508190555050565b505050505050565b6000600d6000838152602001908152602001600020549050600061368583611d49565b90506000600c600083815260200190815260200160002080549050905082811461381d576000600c60008481526020019081526020016000206001836136cb919061484a565b815481106136dc576136db61487e565b5b9060005260206000209060030201604051806060016040529081600082015481526020016001820160009054906101000a900473ffffffffffffffffffffffffffffffffffffffff1673ffffffffffffffffffffffffffffffffffffffff1673ffffffffffffffffffffffffffffffffffffffff168152602001600282015481525050905080600c6000858152602001908152602001600020600186613782919061484a565b815481106137935761379261487e565b5b90600052602060002090600302016000820151816000015560208201518160010160006101000a81548173ffffffffffffffffffffffffffffffffffffffff021916908373ffffffffffffffffffffffffffffffffffffffff1602179055506040820151816002015590505083600d60008360000151815260200190815260200160002081905550505b600c60008381526020019081526020016000208054806138405761383f6151ff565b5b60019003818190600052602060002090600302016000808201600090556001820160006101000a81549073ffffffffffffffffffffffffffffffffffffffff0219169055600282016000905550509055600d60008581526020019081526020016000206000905550505050565b6000808273ffffffffffffffffffffffffffffffffffffffff163b119050919050565b604051806060016040528060008152602001600073ffffffffffffffffffffffffffffffffffffffff168152602001600081525090565b828054613913906148dc565b90600052602060002090601f016020900481019282613935576000855561397c565b82601f1061394e57805160ff191683800117855561397c565b8280016001018555821561397c579182015b8281111561397b578251825591602001919060010190613960565b5b509050613989919061398d565b5090565b5b808211156139a657600081600090555060010161398e565b5090565b6000604051905090565b600080fd5b600080fd5b600073ffffffffffffffffffffffffffffffffffffffff82169050919050565b60006139e9826139be565b9050919050565b6139f9816139de565b8114613a0457600080fd5b50565b600081359050613a16816139f0565b92915050565b6000819050919050565b613a2f81613a1c565b8114613a3a57600080fd5b50565b600081359050613a4c81613a26565b92915050565b60008060408385031215613a6957613a686139b4565b5b6000613a7785828601613a07565b9250506020613a8885828601613a3d565b9150509250929050565b613a9b81613a1c565b82525050565b6000602082019050613ab66000830184613a92565b92915050565b60007fffffffff0000000000000000000000000000000000000000000000000000000082169050919050565b613af181613abc565b8114613afc57600080fd5b50565b600081359050613b0e81613ae8565b92915050565b600060208284031215613b2a57613b296139b4565b5b6000613b3884828501613aff565b91505092915050565b60008115159050919050565b613b5681613b41565b82525050565b6000602082019050613b716000830184613b4d565b92915050565b60008060408385031215613b8e57613b8d6139b4565b5b6000613b9c85828601613a3d565b9250506020613bad85828601613a3d565b9150509250929050565b600060208284031215613bcd57613bcc6139b4565b5b6000613bdb84828501613a3d565b91505092915050565b600081519050919050565b600082825260208201905092915050565b60005b83811015613c1e578082015181840152602081019050613c03565b83811115613c2d576000848401525b50505050565b6000601f19601f8301169050919050565b6000613c4f82613be4565b613c598185613bef565b9350613c69818560208601613c00565b613c7281613c33565b840191505092915050565b60006020820190508181036000830152613c978184613c44565b905092915050565b600080fd5b600080fd5b7f4e487b7100000000000000000000000000000000000000000000000000000000600052604160045260246000fd5b613ce182613c33565b810181811067ffffffffffffffff82111715613d0057613cff613ca9565b5b80604052505050565b6000613d136139aa565b9050613d1f8282613cd8565b919050565b600067ffffffffffffffff821115613d3f57613d3e613ca9565b5b613d4882613c33565b9050602081019050919050565b82818337600083830152505050565b6000613d77613d7284613d24565b613d09565b905082815260208101848484011115613d9357613d92613ca4565b5b613d9e848285613d55565b509392505050565b600082601f830112613dbb57613dba613c9f565b5b8135613dcb848260208601613d64565b91505092915050565b60008060408385031215613deb57613dea6139b4565b5b6000613df985828601613a3d565b925050602083013567ffffffffffffffff811115613e1a57613e196139b9565b5b613e2685828601613da6565b9150509250929050565b600067ffffffffffffffff821115613e4b57613e4a613ca9565b5b602082029050602081019050919050565b600080fd5b6000613e74613e6f84613e30565b613d09565b90508083825260208201905060208402830185811115613e9757613e96613e5c565b5b835b81811015613ec05780613eac8882613a3d565b845260208401935050602081019050613e99565b5050509392505050565b600082601f830112613edf57613ede613c9f565b5b8135613eef848260208601613e61565b91505092915050565b600067ffffffffffffffff821115613f1357613f12613ca9565b5b613f1c82613c33565b9050602081019050919050565b6000613f3c613f3784613ef8565b613d09565b905082815260208101848484011115613f5857613f57613ca4565b5b613f63848285613d55565b509392505050565b600082601f830112613f8057613f7f613c9f565b5b8135613f90848260208601613f29565b91505092915050565b600080600080600060a08688031215613fb557613fb46139b4565b5b6000613fc388828901613a07565b9550506020613fd488828901613a07565b945050604086013567ffffffffffffffff811115613ff557613ff46139b9565b5b61400188828901613eca565b935050606086013567ffffffffffffffff811115614022576140216139b9565b5b61402e88828901613eca565b925050608086013567ffffffffffffffff81111561404f5761404e6139b9565b5b61405b88828901613f6b565b9150509295509295909350565b600081519050919050565b600082825260208201905092915050565b6000819050602082019050919050565b61409d81613a1c565b82525050565b6140ac816139de565b82525050565b6060820160008201516140c86000850182614094565b5060208201516140db60208501826140a3565b5060408201516140ee6040850182614094565b50505050565b600061410083836140b2565b60608301905092915050565b6000602082019050919050565b600061412482614068565b61412e8185614073565b935061413983614084565b8060005b8381101561416a57815161415188826140f4565b975061415c8361410c565b92505060018101905061413d565b5085935050505092915050565b600081519050919050565b600082825260208201905092915050565b6000819050602082019050919050565b600082825260208201905092915050565b60006141bf82613be4565b6141c981856141a3565b93506141d9818560208601613c00565b6141e281613c33565b840191505092915050565b60006141f983836141b4565b905092915050565b6000602082019050919050565b600061421982614177565b6142238185614182565b93508360208202850161423585614193565b8060005b85811015614271578484038952815161425285826141ed565b945061425d83614201565b925060208a01995050600181019050614239565b50829750879550505050505092915050565b6000604082019050818103600083015261429d8185614119565b905081810360208301526142b1818461420e565b90509392505050565b6000602082840312156142d0576142cf6139b4565b5b60006142de84828501613a07565b91505092915050565b600067ffffffffffffffff82111561430257614301613ca9565b5b602082029050602081019050919050565b6000614326614321846142e7565b613d09565b9050808382526020820190506020840283018581111561434957614348613e5c565b5b835b81811015614372578061435e8882613a07565b84526020840193505060208101905061434b565b5050509392505050565b600082601f83011261439157614390613c9f565b5b81356143a1848260208601614313565b91505092915050565b600080604083850312156143c1576143c06139b4565b5b600083013567ffffffffffffffff8111156143df576143de6139b9565b5b6143eb8582860161437c565b925050602083013567ffffffffffffffff81111561440c5761440b6139b9565b5b61441885828601613eca565b9150509250929050565b600081519050919050565b600082825260208201905092915050565b6000819050602082019050919050565b600061445a8383614094565b60208301905092915050565b6000602082019050919050565b600061447e82614422565b614488818561442d565b93506144938361443e565b8060005b838110156144c45781516144ab888261444e565b97506144b683614466565b925050600181019050614497565b5085935050505092915050565b600060208201905081810360008301526144eb8184614473565b905092915050565b6060820160008201516145096000850182614094565b50602082015161451c60208501826140a3565b50604082015161452f6040850182614094565b50505050565b600060e08201905061454a60008301886144f3565b818103606083015261455c8187613c44565b905061456b6080830186613b4d565b61457860a0830185613b4d565b61458560c0830184613b4d565b9695505050505050565b61459881613b41565b81146145a357600080fd5b50565b6000813590506145b58161458f565b92915050565b600080604083850312156145d2576145d16139b4565b5b60006145e085828601613a07565b92505060206145f1858286016145a6565b9150509250929050565b600060808201905061461060008301856144f3565b81810360608301526146228184613c44565b90509392505050565b600060608201905061464060008301846144f3565b92915050565b6000806040838503121561465d5761465c6139b4565b5b600061466b85828601613a07565b925050602061467c85828601613a07565b9150509250929050565b600080600080600060a086880312156146a2576146a16139b4565b5b60006146b088828901613a07565b95505060206146c188828901613a07565b94505060406146d288828901613a3d565b93505060606146e388828901613a3d565b925050608086013567ffffffffffffffff811115614704576147036139b9565b5b61471088828901613f6b565b9150509295509295909350565b7f455243313135353a2061646472657373207a65726f206973206e6f742061207660008201527f616c6964206f776e657200000000000000000000000000000000000000000000602082015250565b6000614779602a83613bef565b91506147848261471d565b604082019050919050565b600060208201905081810360008301526147a88161476c565b9050919050565b7f4e6674206973206e6f7420657869737400000000000000000000000000000000600082015250565b60006147e5601083613bef565b91506147f0826147af565b602082019050919050565b60006020820190508181036000830152614814816147d8565b9050919050565b7f4e487b7100000000000000000000000000000000000000000000000000000000600052601160045260246000fd5b600061485582613a1c565b915061486083613a1c565b9250828210156148735761487261481b565b5b828203905092915050565b7f4e487b7100000000000000000000000000000000000000000000000000000000600052603260045260246000fd5b7f4e487b7100000000000000000000000000000000000000000000000000000000600052602260045260246000fd5b600060028204905060018216806148f457607f821691505b602082108103614907576149066148ad565b5b50919050565b600081905092915050565b60008190508160005260206000209050919050565b6000815461493a816148dc565b614944818661490d565b9450600182166000811461495f5760018114614970576149a3565b60ff198316865281860193506149a3565b61497985614918565b60005b8381101561499b5781548189015260018201915060208101905061497c565b838801955050505b50505092915050565b60006149b782613be4565b6149c1818561490d565b93506149d1818560208601613c00565b80840191505092915050565b60006149e9828561492d565b91506149f582846149ac565b91508190509392505050565b7f486176656e2774206f776e656420616e79206e66747320796574000000000000600082015250565b6000614a37601a83613bef565b9150614a4282614a01565b602082019050919050565b60006020820190508181036000830152614a6681614a2a565b9050919050565b7f4e6674206861736e2774206265656e206465706f736974656400000000000000600082015250565b6000614aa3601983613bef565b9150614aae82614a6d565b602082019050919050565b60006020820190508181036000830152614ad281614a96565b9050919050565b7f526f6c6520646f65736e2774206e6f7420657869737400000000000000000000600082015250565b6000614b0f601683613bef565b9150614b1a82614ad9565b602082019050919050565b60006020820190508181036000830152614b3e81614b02565b9050919050565b6000614b5082613a1c565b9150614b5b83613a1c565b9250827fffffffffffffffffffffffffffffffffffffffffffffffffffffffffffffffff03821115614b9057614b8f61481b565b5b828201905092915050565b7f52656769737465722066656520697320696e636f727265637400000000000000600082015250565b6000614bd1601983613bef565b9150614bdc82614b9b565b602082019050919050565b60006020820190508181036000830152614c0081614bc4565b9050919050565b7f416c7265616479206f776e2031206e6674000000000000000000000000000000600082015250565b6000614c3d601183613bef565b9150614c4882614c07565b602082019050919050565b60006020820190508181036000830152614c6c81614c30565b9050919050565b7f455243313135353a2063616c6c6572206973206e6f7420746f6b656e206f776e60008201527f6572206f7220617070726f766564000000000000000000000000000000000000602082015250565b6000614ccf602e83613bef565b9150614cda82614c73565b604082019050919050565b60006020820190508181036000830152614cfe81614cc2565b9050919050565b6000614d1082613a1c565b91507fffffffffffffffffffffffffffffffffffffffffffffffffffffffffffffffff8203614d4257614d4161481b565b5b600182019050919050565b7f496e76616c6964206f7065726174696f6e000000000000000000000000000000600082015250565b6000614d83601183613bef565b9150614d8e82614d4d565b602082019050919050565b60006020820190508181036000830152614db281614d76565b9050919050565b7f455243313135353a206163636f756e747320616e6420696473206c656e67746860008201527f206d69736d617463680000000000000000000000000000000000000000000000602082015250565b6000614e15602983613bef565b9150614e2082614db9565b604082019050919050565b60006020820190508181036000830152614e4481614e08565b9050919050565b7f486176656e2774206f776e20616e7920746f6b656e7300000000000000000000600082015250565b6000614e81601683613bef565b9150614e8c82614e4b565b602082019050919050565b60006020820190508181036000830152614eb081614e74565b9050919050565b7f596f75206172652063757272656e746c79207265676973746572696e67000000600082015250565b6000614eed601d83613bef565b9150614ef882614eb7565b602082019050919050565b60006020820190508181036000830152614f1c81614ee0565b9050919050565b7f4e667420746f6b656e206861736e2774206265656e2065787069726564000000600082015250565b6000614f59601d83613bef565b9150614f6482614f23565b602082019050919050565b60006020820190508181036000830152614f8881614f4c565b9050919050565b6000614f9b82846149ac565b915081905092915050565b7f546f6b656e205552492068617320616c72656164792075736564000000000000600082015250565b6000614fdc601a83613bef565b9150614fe782614fa6565b602082019050919050565b6000602082019050818103600083015261500b81614fcf565b9050919050565b7f455243313135353a2069647320616e6420616d6f756e7473206c656e6774682060008201527f6d69736d61746368000000000000000000000000000000000000000000000000602082015250565b600061506e602883613bef565b915061507982615012565b604082019050919050565b6000602082019050818103600083015261509d81615061565b9050919050565b7f455243313135353a207472616e7366657220746f20746865207a65726f20616460008201527f6472657373000000000000000000000000000000000000000000000000000000602082015250565b6000615100602583613bef565b915061510b826150a4565b604082019050919050565b6000602082019050818103600083015261512f816150f3565b9050919050565b7f455243313135353a20696e73756666696369656e742062616c616e636520666f60008201527f72207472616e7366657200000000000000000000000000000000000000000000602082015250565b6000615192602a83613bef565b915061519d82615136565b604082019050919050565b600060208201905081810360008301526151c181615185565b9050919050565b600060408201905081810360008301526151e28185614473565b905081810360208301526151f68184614473565b90509392505050565b7f4e487b7100000000000000000000000000000000000000000000000000000000600052603160045260246000fd5b7f455243313135353a206275726e2066726f6d20746865207a65726f206164647260008201527f6573730000000000000000000000000000000000000000000000000000000000602082015250565b600061528a602383613bef565b91506152958261522e565b604082019050919050565b600060208201905081810360008301526152b98161527d565b9050919050565b7f455243313135353a206275726e20616d6f756e7420657863656564732062616c60008201527f616e636500000000000000000000000000000000000000000000000000000000602082015250565b600061531c602483613bef565b9150615327826152c0565b604082019050919050565b6000602082019050818103600083015261534b8161530f565b9050919050565b60006040820190506153676000830185613a92565b6153746020830184613a92565b9392505050565b7f455243313135353a2073657474696e6720617070726f76616c2073746174757360008201527f20666f722073656c660000000000000000000000000000000000000000000000602082015250565b60006153d7602983613bef565b91506153e28261537b565b604082019050919050565b60006020820190508181036000830152615406816153ca565b9050919050565b7f455243313135353a206d696e7420746f20746865207a65726f2061646472657360008201527f7300000000000000000000000000000000000000000000000000000000000000602082015250565b6000615469602183613bef565b91506154748261540d565b604082019050919050565b600060208201905081810360008301526154988161545c565b9050919050565b6154a8816139de565b82525050565b600081519050919050565b600082825260208201905092915050565b60006154d5826154ae565b6154df81856154b9565b93506154ef818560208601613c00565b6154f881613c33565b840191505092915050565b600060a082019050615518600083018861549f565b615525602083018761549f565b81810360408301526155378186614473565b9050818103606083015261554b8185614473565b9050818103608083015261555f81846154ca565b90509695505050505050565b60008151905061557a81613ae8565b92915050565b600060208284031215615596576155956139b4565b5b60006155a48482850161556b565b91505092915050565b60008160e01c9050919050565b600060033d11156155d95760046000803e6155d66000516155ad565b90505b90565b600060443d10615669576155ee6139aa565b60043d036004823e80513d602482011167ffffffffffffffff82111715615616575050615669565b808201805167ffffffffffffffff8111156156345750505050615669565b80602083010160043d038501811115615651575050505050615669565b61566082602001850186613cd8565b82955050505050505b90565b7f455243313135353a207472616e7366657220746f206e6f6e2d4552433131353560008201527f526563656976657220696d706c656d656e746572000000000000000000000000602082015250565b60006156c8603483613bef565b91506156d38261566c565b604082019050919050565b600060208201905081810360008301526156f7816156bb565b9050919050565b7f455243313135353a204552433131353552656365697665722072656a6563746560008201527f6420746f6b656e73000000000000000000000000000000000000000000000000602082015250565b600061575a602883613bef565b9150615765826156fe565b604082019050919050565b600060208201905081810360008301526157898161574d565b9050919050565b600060a0820190506157a5600083018861549f565b6157b2602083018761549f565b6157bf6040830186613a92565b6157cc6060830185613a92565b81810360808301526157de81846154ca565b9050969550505050505056fea2646970667358221220c4724a7f102e47e6159c1a135f0739d0d374d2fbfdad8f5e1a40c53c7301178764736f6c634300080d0033",
  "immutableReferences": {},
  "source": "// SPDX-License-Identifier: MIT\r\n// Tells the Solidity compiler to compile only from v0.8.13 to v0.9.0\r\npragma solidity ^0.8.13;\r\n\r\nimport \"@openzeppelin/contracts/token/ERC1155/extensions/ERC1155URIStorage.sol\";\r\nimport \"@openzeppelin/contracts/utils/Counters.sol\";\r\nimport \"@openzeppelin/contracts/access/Ownable.sol\";\r\nimport \"./Registration.sol\";\r\n\r\ncontract NftIdentities is ERC1155URIStorage, Registration {\r\n    using Counters for Counters.Counter;\r\n    \r\n    struct NftIdentity {\r\n        uint256 tokenId;\r\n        address register;\r\n        uint256 expiredAt;\r\n    }\r\n    \r\n    uint256 constant INDEX_BITS = 16;\r\n    uint256 constant MAX_NFT_INDEX = uint256(~uint16(0));\r\n    uint256 constant ONE_NFT = 1;\r\n\r\n    uint256 constant VISITOR_ID = 99;\r\n    uint256 constant REGISTERED_ID = 100;\r\n    uint256 constant HIGHEST_OPERATOR_ID = 101;\r\n    address private _owner;\r\n\r\n    // Registration vars\r\n    uint256 public registerFee = 0.05 ether;\r\n    mapping(address => uint256) _tokenIdOfRegisters;\r\n\r\n    mapping(uint256 => Counters.Counter) _maxTokenIdIndexOfRole; // type => max token id\r\n    mapping(uint256 => NftIdentity[]) private _nftsOfRole; // type => Nft\r\n    mapping(uint256 => uint256) private _nftPosOfTokenId; // tokenId => index\r\n    mapping(string => bool) private _usedTokenURI;\r\n\r\n    mapping(address => uint256) private _nftOfOwner; // address => tokenId[]\r\n\r\n    mapping(uint256 => address) private _ownerOfNft;\r\n\r\n    uint256[] _extendRequestTokenIds;\r\n    mapping(uint256 => uint256) _positionOfRequestTokenId;\r\n\r\n    modifier onlyOwner() {\r\n        require(msg.sender == _owner);\r\n        _;\r\n    }\r\n\r\n    modifier isAfterNow(uint256 timestamp) {\r\n        require(timestamp > block.timestamp);\r\n        _;\r\n    }\r\n\r\n    modifier canGenerateNewTokens(uint256 role, uint256 amount) {\r\n        uint256 currentIndex = _maxTokenIdIndexOfRole[role].current() + amount - 1;\r\n        require(currentIndex | MAX_NFT_INDEX == MAX_NFT_INDEX);\r\n        _;\r\n    }\r\n\r\n    modifier ownZeroNft(address addr) {\r\n        require(_nftOfOwner[addr] == 0);\r\n        _;\r\n    }\r\n\r\n    modifier ownNft(uint256 tokenId) {\r\n        require(_ownerOfNft[tokenId] == msg.sender);\r\n        _;\r\n    }\r\n\r\n    modifier tokenOwnByContract(uint256 tokenId) {\r\n        require(_ownerOfNft[tokenId] == _owner);\r\n        _;\r\n    }\r\n\r\n    constructor() ERC1155(\"\") {\r\n        _owner = msg.sender;\r\n    }\r\n\r\n    // Used for everyone: Section start\r\n    function getNftInfo(uint256 tokenId) public view returns (NftIdentity memory, string memory) {\r\n        string memory tokenURI = uri(tokenId);\r\n        NftIdentity memory nftIdentity = getNftOfTokenId(tokenId);\r\n\r\n        return (nftIdentity, tokenURI);\r\n    }\r\n    \r\n    function getNftOfTokenId(uint256 tokenId) public view returns (NftIdentity memory) {\r\n        uint256 nftType = _getNftType(tokenId);\r\n        uint256 pos = _nftPosOfTokenId[tokenId];\r\n        require(pos > 0, \"Nft is not exist\");\r\n\r\n        return _nftsOfRole[nftType][pos - 1];\r\n    }\r\n\r\n    function registerNft(uint256 role, string memory tokenURI) public payable allowedRole(role) canGenerateNewTokens(role, 1) {\r\n        require(msg.value == registerFee, \"Register fee is incorrect\");\r\n        require(_nftOfOwner[msg.sender] == 0, \"Already own 1 nft\");\r\n        _mintToken(role, _owner, block.timestamp, tokenURI);\r\n\r\n        _register(role, msg.sender);\r\n    }\r\n    // Used for everyone: Section end\r\n\r\n    // Used for teacher: Section start\r\n    /*\r\n        Teacher: if expired => request to extend =>\r\n            - Accept: Reset expired date\r\n            - Reject: Burn token\r\n        Student: if expired => Extend year end? (graduated won't own nft) => request to extend =>\r\n            - Accept: Reset expired date\r\n            - Reject: Burn token\r\n    */\r\n    function requestExtendExpiredNft() public {\r\n        uint256 tokenId = _nftOfOwner[msg.sender];\r\n        require(tokenId > 0, \"Haven't own any tokens\");\r\n        uint256 role = _getNftType(tokenId);\r\n        require(!_isRegister(role, msg.sender), \"You are currently registering\");\r\n        NftIdentity memory nftIdentity = getNftOfTokenId(tokenId);\r\n        require(nftIdentity.expiredAt < block.timestamp, \"Nft token hasn't been expired\");\r\n\r\n        safeTransferFrom(msg.sender, _owner, tokenId, ONE_NFT, msg.data);\r\n        _extendRequestTokenIds.push(tokenId);\r\n        _positionOfRequestTokenId[tokenId] = _extendRequestTokenIds.length;\r\n    }\r\n    // Used for student: Section start\r\n\r\n    // Used for other contracts: Section start\r\n    function isAbleToOperate(address registerAddr) public view returns (bool) {\r\n        uint256 tokenId = _tokenIdOfRegisters[registerAddr];\r\n        if (tokenId == 0) {\r\n            return false;\r\n        }\r\n        NftIdentity memory nftIdentity = getNftOfTokenId(tokenId);\r\n\r\n        return _ownerOfNft[tokenId] == _owner && nftIdentity.expiredAt > block.timestamp;\r\n    }\r\n    // Used for other contracts: Section end\r\n    \r\n    // Used for owner: Section start\r\n    function getAllExtendExpiredRequest() public view onlyOwner returns(NftIdentity[] memory, string[] memory) {\r\n        uint256 numberOfRequests = _extendRequestTokenIds.length;\r\n        NftIdentity[] memory nftIdentities = new NftIdentity[](numberOfRequests);\r\n        string[] memory tokenURIs = new string[](numberOfRequests);\r\n\r\n        for (uint256 index = 0; index < numberOfRequests; ++index) {\r\n            uint256 tokenId = _extendRequestTokenIds[index];\r\n            NftIdentity memory nftIdentity;\r\n            string memory tokenURI;\r\n            (nftIdentity, tokenURI) = getNftInfo(tokenId);\r\n\r\n            nftIdentities[index] = nftIdentity;\r\n            tokenURIs[index] = tokenURI;\r\n        }\r\n\r\n        return (nftIdentities, tokenURIs);\r\n    }\r\n    \r\n    function extendExpiredNft(uint256 tokenId, uint256 nextExpiredAt) public onlyOwner tokenOwnByContract(tokenId) isAfterNow(nextExpiredAt) {\r\n        // For approve extend expired request\r\n        uint256 nftType = _getNftType(tokenId);\r\n        uint256 pos = _nftPosOfTokenId[tokenId];\r\n        require(pos > 0, \"Nft is not exist\");\r\n\r\n        _nftsOfRole[nftType][pos - 1].expiredAt = nextExpiredAt;\r\n    }\r\n\r\n    function burnNft(uint256 tokenId) public onlyOwner tokenOwnByContract(tokenId) {\r\n        // For reject extend expired request\r\n        _burn(_owner, tokenId, ONE_NFT);\r\n    }\r\n\r\n    function approveNft(address registerAddr, uint256 nextExpiredAt) public onlyOwner {\r\n        uint256 tokenId = _tokenIdOfRegisters[registerAddr];\r\n        require(tokenId > 0, \"Invalid operation\");\r\n        uint256 role = _getNftType(tokenId);\r\n        require(_isRegister(role, registerAddr));\r\n\r\n        extendExpiredNft(tokenId, nextExpiredAt);\r\n        _removeFromRegistersList(role, registerAddr); // validate register\r\n        safeTransferFrom(_owner, registerAddr, tokenId, ONE_NFT, msg.data);\r\n    }\r\n\r\n    function rejectNft(address registerAddr) public onlyOwner {\r\n        uint256 tokenId = _tokenIdOfRegisters[registerAddr];\r\n        require(tokenId > 0, \"Invalid operation\");\r\n        uint256 role = _getNftType(tokenId);\r\n        require(_isRegister(role, registerAddr));\r\n\r\n        _removeFromRegistersList(role, registerAddr);\r\n        _burn(_owner, tokenId, ONE_NFT);\r\n    }\r\n    // Used for owner: Section start\r\n\r\n    // Used for members: Section start\r\n    function getOwnedNft() public view returns (NftIdentity memory, string memory, bool, bool, bool) {\r\n        uint256 tokenId = _tokenIdOfRegisters[msg.sender];\r\n        NftIdentity memory nftIdentity = getNftOfTokenId(tokenId);\r\n        string memory tokenURI = uri(tokenId);\r\n        bool isExpired = nftIdentity.expiredAt <= block.timestamp;\r\n        bool isOperate = isAbleToOperate(msg.sender);\r\n        bool isExpiredRequest = _positionOfRequestTokenId[tokenId] > 0;\r\n\r\n        return (nftIdentity, tokenURI, isExpired, isOperate, isExpiredRequest);\r\n    }\r\n\r\n    function getRole() public view returns (uint256) {\r\n        if (msg.sender == _owner) {\r\n            return HIGHEST_OPERATOR_ID;\r\n        }\r\n\r\n        uint256 tokenId = _tokenIdOfRegisters[msg.sender];\r\n        if (tokenId == 0) {\r\n            return VISITOR_ID;\r\n        }\r\n        \r\n        uint256 role = _getNftType(tokenId);\r\n        if (_isRegister(role, msg.sender)) {\r\n            return REGISTERED_ID;\r\n        }\r\n\r\n        return role;\r\n    }\r\n\r\n    function depositNftIdentity() public {\r\n        uint256 tokenId = _nftOfOwner[msg.sender];\r\n        require(tokenId > 0, \"Invalid operation\");\r\n        NftIdentity memory nftIdentity = getNftOfTokenId(tokenId);\r\n\r\n        if (nftIdentity.expiredAt > block.timestamp) {\r\n            safeTransferFrom(msg.sender, _owner, tokenId, ONE_NFT, msg.data);\r\n        } else {\r\n            // If NFT haven't extend but try to operate\r\n            _burn(msg.sender, tokenId, ONE_NFT);\r\n        }\r\n    }\r\n\r\n    function withdrawNftIdentity() public {\r\n        uint256 tokenId = _tokenIdOfRegisters[msg.sender];\r\n        require(tokenId > 0, \"Haven't owned any nfts yet\");\r\n        require(_ownerOfNft[tokenId] == _owner, \"Nft hasn't been deposited\");\r\n\r\n        safeTransferFrom(_owner, msg.sender, tokenId, ONE_NFT, msg.data);\r\n    }\r\n    // Used for members: Section end\r\n\r\n    function _beforeTokenTransfer(\r\n        address operator,\r\n        address from,\r\n        address to,\r\n        uint256[] memory ids,\r\n        uint256[] memory amounts,\r\n        bytes memory data\r\n    ) internal virtual override {\r\n        super._beforeTokenTransfer(operator, from, to, ids, amounts, data);\r\n        uint256 tokenId = ids[0];\r\n        \r\n        if (from != address(0)) {\r\n            delete _nftOfOwner[from];\r\n            delete _ownerOfNft[tokenId];\r\n        }\r\n\r\n        if (to != address(0)) {\r\n            _nftOfOwner[to] = tokenId;\r\n            _ownerOfNft[tokenId] = to;\r\n        } else {\r\n            // burn\r\n            _removeTokenIdFromAllTokens(tokenId);\r\n            delete _tokenIdOfRegisters[from];\r\n        }\r\n    }\r\n\r\n    function _removeTokenIdFromAllTokens(uint256 tokenId) private {\r\n        uint256 nftPos = _nftPosOfTokenId[tokenId];\r\n        uint256 nftType = _getNftType(tokenId);\r\n        uint256 nftCount = _nftsOfRole[nftType].length;\r\n\r\n        if (nftCount != nftPos) {\r\n            NftIdentity memory lastNft = _nftsOfRole[nftType][nftCount - 1];\r\n            _nftsOfRole[nftType][nftPos - 1] = lastNft;\r\n            _nftPosOfTokenId[lastNft.tokenId] = nftPos;\r\n        }\r\n        _nftsOfRole[nftType].pop(); \r\n        delete _nftPosOfTokenId[tokenId];\r\n    }\r\n    \r\n    function _mintTokens(\r\n        uint256 role,\r\n        address[] memory to,\r\n        uint256[] memory expiredAt,\r\n        string[] memory tokenURI\r\n    ) private allowedRole(role) canGenerateNewTokens(role, to.length) {\r\n        require(to.length == expiredAt.length, \"Invalid params\");\r\n        require(to.length == tokenURI.length, \"Invalid params\");\r\n        uint256 targetCount = to.length;\r\n\r\n        for (uint256 index = 0; index < targetCount; ++index) {\r\n            if (_nftOfOwner[to[index]] > 0) {\r\n                revert(\"Nft Identity must be unique\");\r\n            }\r\n            _mintToken(role, to[index], expiredAt[index], tokenURI[index]);\r\n        }\r\n    }\r\n\r\n    function _mintToken(\r\n        uint256 role,\r\n        address to,\r\n        uint256 expiredAt,\r\n        string memory tokenURI\r\n    ) private returns (uint256) {\r\n        require(!_usedTokenURI[tokenURI], \"Token URI has already used\");\r\n        uint256 tokenId = _generateNewTokenId(role);\r\n        _setURI(tokenId, tokenURI);\r\n\r\n        _createNftIdentity(tokenId, expiredAt);\r\n        _mint(to, tokenId, ONE_NFT, msg.data);\r\n\r\n        return tokenId;\r\n    }\r\n\r\n    function _createNftIdentity(uint256 tokenId, uint256 expiredAt) private {\r\n        uint256 nftType = _getNftType(tokenId);\r\n        NftIdentity memory nftIdentity = NftIdentity(tokenId, msg.sender, expiredAt);\r\n\r\n        _nftsOfRole[nftType].push(nftIdentity);\r\n        _nftPosOfTokenId[tokenId] = _nftsOfRole[nftType].length;\r\n        _tokenIdOfRegisters[msg.sender] = tokenId;\r\n    }\r\n\r\n    function _getNftType(uint256 tokenId) private pure returns (uint256) {\r\n        return tokenId >> INDEX_BITS;\r\n    }\r\n\r\n    function _generateNewTokenId(uint256 role) private returns (uint256) {\r\n        _maxTokenIdIndexOfRole[role].increment();\r\n        uint256 tokenId = _maxTokenIdIndexOfRole[role].current();\r\n\r\n        return (role << INDEX_BITS) | tokenId;\r\n    }\r\n}\r\n",
  "sourcePath": "E:\\learn\\learn-to-earn\\contracts\\NftIdentities.sol",
  "compiler": {
    "name": "solc",
    "version": "0.8.13+commit.abaa5c0e.Emscripten.clang"
  },
  "schemaVersion": "3.4.11",
  "updatedAt": "2023-03-04T06:30:54.222Z",
  "devdoc": {
    "kind": "dev",
    "methods": {
      "balanceOf(address,uint256)": {
        "details": "See {IERC1155-balanceOf}. Requirements: - `account` cannot be the zero address."
      },
      "balanceOfBatch(address[],uint256[])": {
        "details": "See {IERC1155-balanceOfBatch}. Requirements: - `accounts` and `ids` must have the same length."
      },
      "isApprovedForAll(address,address)": {
        "details": "See {IERC1155-isApprovedForAll}."
      },
      "safeBatchTransferFrom(address,address,uint256[],uint256[],bytes)": {
        "details": "See {IERC1155-safeBatchTransferFrom}."
      },
      "safeTransferFrom(address,address,uint256,uint256,bytes)": {
        "details": "See {IERC1155-safeTransferFrom}."
      },
      "setApprovalForAll(address,bool)": {
        "details": "See {IERC1155-setApprovalForAll}."
      },
      "supportsInterface(bytes4)": {
        "details": "See {IERC165-supportsInterface}."
      },
      "uri(uint256)": {
        "details": "See {IERC1155MetadataURI-uri}. This implementation returns the concatenation of the `_baseURI` and the token-specific uri if the latter is set This enables the following behaviors: - if `_tokenURIs[tokenId]` is set, then the result is the concatenation   of `_baseURI` and `_tokenURIs[tokenId]` (keep in mind that `_baseURI`   is empty per default); - if `_tokenURIs[tokenId]` is NOT set then we fallback to `super.uri()`   which in most cases will contain `ERC1155._uri`; - if `_tokenURIs[tokenId]` is NOT set, and if the parents do not have a   uri value set, then the result is empty."
      }
    },
    "version": 1
  },
  "userdoc": {
    "kind": "user",
    "methods": {},
    "version": 1
  }
}