{
  "contractName": "NftSchool",
  "abi": [
    {
      "inputs": [
        {
          "internalType": "address",
          "name": "nftIdentities",
          "type": "address"
        },
        {
          "internalType": "address",
          "name": "scoreAddr",
          "type": "address"
        }
      ],
      "stateMutability": "nonpayable",
      "type": "constructor"
    },
    {
      "anonymous": false,
      "inputs": [
        {
          "indexed": true,
          "internalType": "address",
          "name": "account",
          "type": "address"
        },
        {
          "indexed": true,
          "internalType": "address",
          "name": "operator",
          "type": "address"
        },
        {
          "indexed": false,
          "internalType": "bool",
          "name": "approved",
          "type": "bool"
        }
      ],
      "name": "ApprovalForAll",
      "type": "event"
    },
    {
      "anonymous": false,
      "inputs": [
        {
          "indexed": true,
          "internalType": "address",
          "name": "operator",
          "type": "address"
        },
        {
          "indexed": true,
          "internalType": "address",
          "name": "from",
          "type": "address"
        },
        {
          "indexed": true,
          "internalType": "address",
          "name": "to",
          "type": "address"
        },
        {
          "indexed": false,
          "internalType": "uint256[]",
          "name": "ids",
          "type": "uint256[]"
        },
        {
          "indexed": false,
          "internalType": "uint256[]",
          "name": "values",
          "type": "uint256[]"
        }
      ],
      "name": "TransferBatch",
      "type": "event"
    },
    {
      "anonymous": false,
      "inputs": [
        {
          "indexed": true,
          "internalType": "address",
          "name": "operator",
          "type": "address"
        },
        {
          "indexed": true,
          "internalType": "address",
          "name": "from",
          "type": "address"
        },
        {
          "indexed": true,
          "internalType": "address",
          "name": "to",
          "type": "address"
        },
        {
          "indexed": false,
          "internalType": "uint256",
          "name": "id",
          "type": "uint256"
        },
        {
          "indexed": false,
          "internalType": "uint256",
          "name": "value",
          "type": "uint256"
        }
      ],
      "name": "TransferSingle",
      "type": "event"
    },
    {
      "anonymous": false,
      "inputs": [
        {
          "indexed": false,
          "internalType": "string",
          "name": "value",
          "type": "string"
        },
        {
          "indexed": true,
          "internalType": "uint256",
          "name": "id",
          "type": "uint256"
        }
      ],
      "name": "URI",
      "type": "event"
    },
    {
      "inputs": [
        {
          "internalType": "address",
          "name": "account",
          "type": "address"
        },
        {
          "internalType": "uint256",
          "name": "id",
          "type": "uint256"
        }
      ],
      "name": "balanceOf",
      "outputs": [
        {
          "internalType": "uint256",
          "name": "",
          "type": "uint256"
        }
      ],
      "stateMutability": "view",
      "type": "function"
    },
    {
      "inputs": [
        {
          "internalType": "address[]",
          "name": "accounts",
          "type": "address[]"
        },
        {
          "internalType": "uint256[]",
          "name": "ids",
          "type": "uint256[]"
        }
      ],
      "name": "balanceOfBatch",
      "outputs": [
        {
          "internalType": "uint256[]",
          "name": "",
          "type": "uint256[]"
        }
      ],
      "stateMutability": "view",
      "type": "function"
    },
    {
      "inputs": [
        {
          "internalType": "address",
          "name": "account",
          "type": "address"
        },
        {
          "internalType": "address",
          "name": "operator",
          "type": "address"
        }
      ],
      "name": "isApprovedForAll",
      "outputs": [
        {
          "internalType": "bool",
          "name": "",
          "type": "bool"
        }
      ],
      "stateMutability": "view",
      "type": "function"
    },
    {
      "inputs": [],
      "name": "minimumGraduationScore",
      "outputs": [
        {
          "internalType": "uint256",
          "name": "",
          "type": "uint256"
        }
      ],
      "stateMutability": "view",
      "type": "function"
    },
    {
      "inputs": [],
      "name": "registeredEndAt",
      "outputs": [
        {
          "internalType": "uint256",
          "name": "",
          "type": "uint256"
        }
      ],
      "stateMutability": "view",
      "type": "function"
    },
    {
      "inputs": [],
      "name": "registeredStartAt",
      "outputs": [
        {
          "internalType": "uint256",
          "name": "",
          "type": "uint256"
        }
      ],
      "stateMutability": "view",
      "type": "function"
    },
    {
      "inputs": [
        {
          "internalType": "address",
          "name": "from",
          "type": "address"
        },
        {
          "internalType": "address",
          "name": "to",
          "type": "address"
        },
        {
          "internalType": "uint256[]",
          "name": "ids",
          "type": "uint256[]"
        },
        {
          "internalType": "uint256[]",
          "name": "amounts",
          "type": "uint256[]"
        },
        {
          "internalType": "bytes",
          "name": "data",
          "type": "bytes"
        }
      ],
      "name": "safeBatchTransferFrom",
      "outputs": [],
      "stateMutability": "nonpayable",
      "type": "function"
    },
    {
      "inputs": [
        {
          "internalType": "address",
          "name": "from",
          "type": "address"
        },
        {
          "internalType": "address",
          "name": "to",
          "type": "address"
        },
        {
          "internalType": "uint256",
          "name": "id",
          "type": "uint256"
        },
        {
          "internalType": "uint256",
          "name": "amount",
          "type": "uint256"
        },
        {
          "internalType": "bytes",
          "name": "data",
          "type": "bytes"
        }
      ],
      "name": "safeTransferFrom",
      "outputs": [],
      "stateMutability": "nonpayable",
      "type": "function"
    },
    {
      "inputs": [],
      "name": "schoolYearEnd",
      "outputs": [
        {
          "internalType": "uint256",
          "name": "",
          "type": "uint256"
        }
      ],
      "stateMutability": "view",
      "type": "function"
    },
    {
      "inputs": [
        {
          "internalType": "address",
          "name": "operator",
          "type": "address"
        },
        {
          "internalType": "bool",
          "name": "approved",
          "type": "bool"
        }
      ],
      "name": "setApprovalForAll",
      "outputs": [],
      "stateMutability": "nonpayable",
      "type": "function"
    },
    {
      "inputs": [
        {
          "internalType": "bytes4",
          "name": "interfaceId",
          "type": "bytes4"
        }
      ],
      "name": "supportsInterface",
      "outputs": [
        {
          "internalType": "bool",
          "name": "",
          "type": "bool"
        }
      ],
      "stateMutability": "view",
      "type": "function"
    },
    {
      "inputs": [
        {
          "internalType": "uint256",
          "name": "tokenId",
          "type": "uint256"
        }
      ],
      "name": "uri",
      "outputs": [
        {
          "internalType": "string",
          "name": "",
          "type": "string"
        }
      ],
      "stateMutability": "view",
      "type": "function"
    },
    {
      "inputs": [],
      "name": "yearId",
      "outputs": [
        {
          "internalType": "uint256",
          "name": "",
          "type": "uint256"
        }
      ],
      "stateMutability": "view",
      "type": "function"
    },
    {
      "inputs": [
        {
          "internalType": "address",
          "name": "nftCertificates",
          "type": "address"
        }
      ],
      "name": "initialize",
      "outputs": [],
      "stateMutability": "nonpayable",
      "type": "function"
    },
    {
      "inputs": [
        {
          "internalType": "uint256[]",
          "name": "credits",
          "type": "uint256[]"
        },
        {
          "internalType": "string[]",
          "name": "tokenURIs",
          "type": "string[]"
        }
      ],
      "name": "initializeRequirement",
      "outputs": [],
      "stateMutability": "nonpayable",
      "type": "function"
    },
    {
      "inputs": [
        {
          "internalType": "uint256[]",
          "name": "requirementIds",
          "type": "uint256[]"
        },
        {
          "internalType": "uint256[]",
          "name": "credits",
          "type": "uint256[]"
        },
        {
          "internalType": "string[]",
          "name": "tokenURIs",
          "type": "string[]"
        }
      ],
      "name": "initializeCourseTemplate",
      "outputs": [],
      "stateMutability": "nonpayable",
      "type": "function"
    },
    {
      "inputs": [
        {
          "internalType": "uint256",
          "name": "_schoolYearEnd",
          "type": "uint256"
        },
        {
          "internalType": "uint256",
          "name": "_registeredStartAt",
          "type": "uint256"
        },
        {
          "internalType": "uint256",
          "name": "_registeredEndAt",
          "type": "uint256"
        }
      ],
      "name": "initializeYear",
      "outputs": [],
      "stateMutability": "nonpayable",
      "type": "function"
    },
    {
      "inputs": [
        {
          "internalType": "uint256",
          "name": "_registeredStartAt",
          "type": "uint256"
        },
        {
          "internalType": "uint256",
          "name": "_registeredEndAt",
          "type": "uint256"
        }
      ],
      "name": "updateRegisteredTime",
      "outputs": [],
      "stateMutability": "nonpayable",
      "type": "function"
    },
    {
      "inputs": [
        {
          "internalType": "uint256",
          "name": "credits",
          "type": "uint256"
        },
        {
          "internalType": "string",
          "name": "tokenURI",
          "type": "string"
        }
      ],
      "name": "createRequirement",
      "outputs": [],
      "stateMutability": "nonpayable",
      "type": "function"
    },
    {
      "inputs": [
        {
          "internalType": "uint256",
          "name": "tokenId",
          "type": "uint256"
        },
        {
          "internalType": "uint256",
          "name": "credits",
          "type": "uint256"
        }
      ],
      "name": "updateRequirement",
      "outputs": [],
      "stateMutability": "nonpayable",
      "type": "function"
    },
    {
      "inputs": [
        {
          "internalType": "uint256",
          "name": "requirementId",
          "type": "uint256"
        },
        {
          "internalType": "uint256",
          "name": "credits",
          "type": "uint256"
        },
        {
          "internalType": "string",
          "name": "tokenURI",
          "type": "string"
        }
      ],
      "name": "createCourseTemplate",
      "outputs": [],
      "stateMutability": "nonpayable",
      "type": "function"
    },
    {
      "inputs": [
        {
          "internalType": "uint256",
          "name": "tokenId",
          "type": "uint256"
        },
        {
          "internalType": "uint256",
          "name": "credits",
          "type": "uint256"
        }
      ],
      "name": "updateCourseTemplate",
      "outputs": [],
      "stateMutability": "nonpayable",
      "type": "function"
    },
    {
      "inputs": [
        {
          "internalType": "uint256",
          "name": "tokenId",
          "type": "uint256"
        }
      ],
      "name": "burnToken",
      "outputs": [],
      "stateMutability": "nonpayable",
      "type": "function"
    },
    {
      "inputs": [],
      "name": "getRegisteredClasses",
      "outputs": [
        {
          "components": [
            {
              "internalType": "uint256",
              "name": "tokenId",
              "type": "uint256"
            },
            {
              "internalType": "uint256",
              "name": "courseTemplateId",
              "type": "uint256"
            },
            {
              "internalType": "uint256",
              "name": "requirementId",
              "type": "uint256"
            },
            {
              "internalType": "uint256",
              "name": "credits",
              "type": "uint256"
            },
            {
              "internalType": "uint256",
              "name": "registeredStartAt",
              "type": "uint256"
            },
            {
              "internalType": "uint256",
              "name": "registeredEndAt",
              "type": "uint256"
            },
            {
              "internalType": "uint256",
              "name": "completeAt",
              "type": "uint256"
            },
            {
              "internalType": "uint256[]",
              "name": "requiredScore",
              "type": "uint256[]"
            },
            {
              "internalType": "uint256",
              "name": "maxSize",
              "type": "uint256"
            },
            {
              "internalType": "address",
              "name": "teacherAddr",
              "type": "address"
            }
          ],
          "internalType": "struct IConstant.NftClass[]",
          "name": "",
          "type": "tuple[]"
        },
        {
          "internalType": "string[]",
          "name": "",
          "type": "string[]"
        }
      ],
      "stateMutability": "view",
      "type": "function"
    },
    {
      "inputs": [],
      "name": "getAllNftRequirements",
      "outputs": [
        {
          "components": [
            {
              "internalType": "uint256",
              "name": "tokenId",
              "type": "uint256"
            },
            {
              "internalType": "uint256",
              "name": "credits",
              "type": "uint256"
            }
          ],
          "internalType": "struct IConstant.NftRequirement[]",
          "name": "",
          "type": "tuple[]"
        },
        {
          "internalType": "string[]",
          "name": "",
          "type": "string[]"
        }
      ],
      "stateMutability": "view",
      "type": "function"
    },
    {
      "inputs": [
        {
          "internalType": "uint256",
          "name": "tokenId",
          "type": "uint256"
        }
      ],
      "name": "getNftRequirement",
      "outputs": [
        {
          "components": [
            {
              "internalType": "uint256",
              "name": "tokenId",
              "type": "uint256"
            },
            {
              "internalType": "uint256",
              "name": "credits",
              "type": "uint256"
            }
          ],
          "internalType": "struct IConstant.NftRequirement",
          "name": "",
          "type": "tuple"
        },
        {
          "internalType": "string",
          "name": "",
          "type": "string"
        }
      ],
      "stateMutability": "view",
      "type": "function"
    },
    {
      "inputs": [
        {
          "internalType": "uint256",
          "name": "tokenId",
          "type": "uint256"
        }
      ],
      "name": "getNftClass",
      "outputs": [
        {
          "components": [
            {
              "internalType": "uint256",
              "name": "tokenId",
              "type": "uint256"
            },
            {
              "internalType": "uint256",
              "name": "courseTemplateId",
              "type": "uint256"
            },
            {
              "internalType": "uint256",
              "name": "requirementId",
              "type": "uint256"
            },
            {
              "internalType": "uint256",
              "name": "credits",
              "type": "uint256"
            },
            {
              "internalType": "uint256",
              "name": "registeredStartAt",
              "type": "uint256"
            },
            {
              "internalType": "uint256",
              "name": "registeredEndAt",
              "type": "uint256"
            },
            {
              "internalType": "uint256",
              "name": "completeAt",
              "type": "uint256"
            },
            {
              "internalType": "uint256[]",
              "name": "requiredScore",
              "type": "uint256[]"
            },
            {
              "internalType": "uint256",
              "name": "maxSize",
              "type": "uint256"
            },
            {
              "internalType": "address",
              "name": "teacherAddr",
              "type": "address"
            }
          ],
          "internalType": "struct IConstant.NftClass",
          "name": "",
          "type": "tuple"
        },
        {
          "internalType": "string",
          "name": "",
          "type": "string"
        }
      ],
      "stateMutability": "view",
      "type": "function"
    },
    {
      "inputs": [
        {
          "internalType": "uint256",
          "name": "_yearId",
          "type": "uint256"
        }
      ],
      "name": "getAllNftClasses",
      "outputs": [
        {
          "components": [
            {
              "internalType": "uint256",
              "name": "tokenId",
              "type": "uint256"
            },
            {
              "internalType": "uint256",
              "name": "courseTemplateId",
              "type": "uint256"
            },
            {
              "internalType": "uint256",
              "name": "requirementId",
              "type": "uint256"
            },
            {
              "internalType": "uint256",
              "name": "credits",
              "type": "uint256"
            },
            {
              "internalType": "uint256",
              "name": "registeredStartAt",
              "type": "uint256"
            },
            {
              "internalType": "uint256",
              "name": "registeredEndAt",
              "type": "uint256"
            },
            {
              "internalType": "uint256",
              "name": "completeAt",
              "type": "uint256"
            },
            {
              "internalType": "uint256[]",
              "name": "requiredScore",
              "type": "uint256[]"
            },
            {
              "internalType": "uint256",
              "name": "maxSize",
              "type": "uint256"
            },
            {
              "internalType": "address",
              "name": "teacherAddr",
              "type": "address"
            }
          ],
          "internalType": "struct IConstant.NftClass[]",
          "name": "",
          "type": "tuple[]"
        },
        {
          "internalType": "string[]",
          "name": "",
          "type": "string[]"
        }
      ],
      "stateMutability": "view",
      "type": "function"
    },
    {
      "inputs": [],
      "name": "getAllNftCourseTemplate",
      "outputs": [
        {
          "components": [
            {
              "internalType": "uint256",
              "name": "tokenId",
              "type": "uint256"
            },
            {
              "internalType": "uint256",
              "name": "requirementId",
              "type": "uint256"
            },
            {
              "internalType": "uint256",
              "name": "credits",
              "type": "uint256"
            }
          ],
          "internalType": "struct IConstant.NftCourseTemplate[]",
          "name": "",
          "type": "tuple[]"
        }
      ],
      "stateMutability": "view",
      "type": "function"
    },
    {
      "inputs": [
        {
          "internalType": "uint256",
          "name": "tokenId",
          "type": "uint256"
        }
      ],
      "name": "getNftCourseTemplate",
      "outputs": [
        {
          "components": [
            {
              "internalType": "uint256",
              "name": "tokenId",
              "type": "uint256"
            },
            {
              "internalType": "uint256",
              "name": "requirementId",
              "type": "uint256"
            },
            {
              "internalType": "uint256",
              "name": "credits",
              "type": "uint256"
            }
          ],
          "internalType": "struct IConstant.NftCourseTemplate",
          "name": "",
          "type": "tuple"
        },
        {
          "internalType": "string",
          "name": "",
          "type": "string"
        }
      ],
      "stateMutability": "view",
      "type": "function"
    },
    {
      "inputs": [
        {
          "internalType": "uint256",
          "name": "tokenId",
          "type": "uint256"
        }
      ],
      "name": "checkTokenExists",
      "outputs": [
        {
          "internalType": "bool",
          "name": "",
          "type": "bool"
        }
      ],
      "stateMutability": "view",
      "type": "function"
    },
    {
      "inputs": [
        {
          "internalType": "uint256",
          "name": "tokenId",
          "type": "uint256"
        },
        {
          "internalType": "uint256",
          "name": "requiredType",
          "type": "uint256"
        }
      ],
      "name": "checkTokenOfTypeExists",
      "outputs": [
        {
          "internalType": "bool",
          "name": "",
          "type": "bool"
        }
      ],
      "stateMutability": "view",
      "type": "function"
    },
    {
      "inputs": [],
      "name": "checkInRegisterDate",
      "outputs": [
        {
          "internalType": "bool",
          "name": "",
          "type": "bool"
        }
      ],
      "stateMutability": "view",
      "type": "function"
    },
    {
      "inputs": [
        {
          "internalType": "uint256",
          "name": "credits",
          "type": "uint256"
        },
        {
          "internalType": "string",
          "name": "tokenURI",
          "type": "string"
        }
      ],
      "name": "_mintNftRequirement",
      "outputs": [
        {
          "internalType": "uint256",
          "name": "",
          "type": "uint256"
        }
      ],
      "stateMutability": "nonpayable",
      "type": "function"
    }
  ],
  "bytecode": "0x608060405260405180602001604052806000815250600390805190602001906200002b92919062000177565b506101f46009553480156200003f57600080fd5b506040516200622238038062006222833981810160405281019062000065919062000291565b604051806020016040528060008152508062000087816200015b60201b60201c565b5033600560006101000a81548173ffffffffffffffffffffffffffffffffffffffff021916908373ffffffffffffffffffffffffffffffffffffffff1602179055505081600b60006101000a81548173ffffffffffffffffffffffffffffffffffffffff021916908373ffffffffffffffffffffffffffffffffffffffff16021790555080600d60006101000a81548173ffffffffffffffffffffffffffffffffffffffff021916908373ffffffffffffffffffffffffffffffffffffffff16021790555042600e8190555050506200033c565b80600290805190602001906200017392919062000177565b5050565b828054620001859062000307565b90600052602060002090601f016020900481019282620001a95760008555620001f5565b82601f10620001c457805160ff1916838001178555620001f5565b82800160010185558215620001f5579182015b82811115620001f4578251825591602001919060010190620001d7565b5b50905062000204919062000208565b5090565b5b808211156200022357600081600090555060010162000209565b5090565b600080fd5b600073ffffffffffffffffffffffffffffffffffffffff82169050919050565b600062000259826200022c565b9050919050565b6200026b816200024c565b81146200027757600080fd5b50565b6000815190506200028b8162000260565b92915050565b60008060408385031215620002ab57620002aa62000227565b5b6000620002bb858286016200027a565b9250506020620002ce858286016200027a565b9150509250929050565b7f4e487b7100000000000000000000000000000000000000000000000000000000600052602260045260246000fd5b600060028204905060018216806200032057607f821691505b602082108103620003365762000335620002d8565b5b50919050565b615ed6806200034c6000396000f3fe608060405234801561001057600080fd5b50600436106102055760003560e01c806382ae3c971161011a578063bfd5621e116100ad578063e985e9c51161007c578063e985e9c514610613578063ecb1fa5514610643578063f0b841df14610674578063f242432a14610692578063fe7a85e5146106ae57610205565b8063bfd5621e14610579578063c4d66de8146105a9578063c6a3c0db146105c5578063df4e4891146105f557610205565b8063a45f35c4116100e9578063a45f35c414610507578063ace48af914610523578063af0d1cb51461053f578063b10550751461055d57610205565b806382ae3c97146104805780638f03802d1461049c5780638fc92b0f146104ba578063a22cb465146104eb57610205565b80632eb2c2d61161019d5780635fe037791161016c5780635fe03779146103ea578063645f833f146104085780636d6ffaf61461042757806375f1a6e3146104465780637b47ec1a1461046457610205565b80632eb2c2d61461033c5780633a9f61d9146103585780634e1273f4146103895780634eeb177f146103b957610205565b806311394f56116101d957806311394f56146102b657806317b63e89146102d45780631a53e484146102f057806329f60c4f1461032057610205565b8062fdd58e1461020a57806301ffc9a71461023a57806303aa731e1461026a5780630e89341c14610286575b600080fd5b610224600480360381019061021f91906137ea565b6106ca565b6040516102319190613839565b60405180910390f35b610254600480360381019061024f91906138ac565b610792565b60405161026191906138f4565b60405180910390f35b610284600480360381019061027f919061390f565b610874565b005b6102a0600480360381019061029b919061394f565b6109c7565b6040516102ad9190613a15565b60405180910390f35b6102be610aac565b6040516102cb9190613839565b60405180910390f35b6102ee60048036038101906102e99190613b6c565b610ab2565b005b61030a6004803603810190610305919061390f565b610b78565b60405161031791906138f4565b60405180910390f35b61033a6004803603810190610335919061390f565b610bc8565b005b61035660048036038101906103519190613d31565b610cba565b005b610372600480360381019061036d919061394f565b610d5b565b604051610380929190613e51565b60405180910390f35b6103a3600480360381019061039e9190613f44565b610e3f565b6040516103b0919061406b565b60405180910390f35b6103d360048036038101906103ce919061394f565b610f58565b6040516103e19291906143b3565b60405180910390f35b6103f261100c565b6040516103ff9190613839565b60405180910390f35b610410611012565b60405161041e9291906144c8565b60405180910390f35b61042f611153565b60405161043d9291906143b3565b60405180910390f35b61044e611208565b60405161045b91906138f4565b60405180910390f35b61047e6004803603810190610479919061394f565b611223565b005b61049a600480360381019061049591906144ff565b611306565b005b6104a4611426565b6040516104b19190613839565b60405180910390f35b6104d460048036038101906104cf919061394f565b61142c565b6040516104e292919061462c565b60405180910390f35b6105056004803603810190610500919061468f565b6115f1565b005b610521600480360381019061051c91906146cf565b611607565b005b61053d6004803603810190610538919061481f565b6116cf565b005b6105476117ed565b6040516105549190613839565b60405180910390f35b6105776004803603810190610572919061390f565b6117f3565b005b610593600480360381019061058e919061394f565b611946565b6040516105a091906138f4565b60405180910390f35b6105c360048036038101906105be9190614897565b61198a565b005b6105df60048036038101906105da9190613b6c565b611a5d565b6040516105ec9190613839565b60405180910390f35b6105fd611b18565b60405161060a9190613839565b60405180910390f35b61062d600480360381019061062891906148c4565b611b1e565b60405161063a91906138f4565b60405180910390f35b61065d6004803603810190610658919061394f565b611bb2565b60405161066b929190614933565b60405180910390f35b61067c611c8c565b6040516106899190614a54565b60405180910390f35b6106ac60048036038101906106a79190614a76565b611d63565b005b6106c860048036038101906106c39190614b0d565b611e04565b005b60008073ffffffffffffffffffffffffffffffffffffffff168373ffffffffffffffffffffffffffffffffffffffff160361073a576040517f08c379a000000000000000000000000000000000000000000000000000000000815260040161073190614c26565b60405180910390fd5b60008083815260200190815260200160002060008473ffffffffffffffffffffffffffffffffffffffff1673ffffffffffffffffffffffffffffffffffffffff16815260200190815260200160002054905092915050565b60007fd9b67a26000000000000000000000000000000000000000000000000000000007bffffffffffffffffffffffffffffffffffffffffffffffffffffffff1916827bffffffffffffffffffffffffffffffffffffffffffffffffffffffff1916148061085d57507f0e89341c000000000000000000000000000000000000000000000000000000007bffffffffffffffffffffffffffffffffffffffffffffffffffffffff1916827bffffffffffffffffffffffffffffffffffffffffffffffffffffffff1916145b8061086d575061086c82611f4c565b5b9050919050565b3373ffffffffffffffffffffffffffffffffffffffff16600560009054906101000a900473ffffffffffffffffffffffffffffffffffffffff1673ffffffffffffffffffffffffffffffffffffffff16146108ce57600080fd5b600e5442116108dc57600080fd5b6000811161091f576040517f08c379a000000000000000000000000000000000000000000000000000000000815260040161091690614c92565b60405180910390fd5b6000601660006001815260200190815260200160002060008481526020019081526020016000205490506000811161098c576040517f08c379a000000000000000000000000000000000000000000000000000000000815260040161098390614cfe565b60405180910390fd5b81601360018361099c9190614d4d565b815481106109ad576109ac614d81565b5b906000526020600020906002020160010181905550505050565b606060006004600084815260200190815260200160002080546109e990614ddf565b80601f0160208091040260200160405190810160405280929190818152602001828054610a1590614ddf565b8015610a625780601f10610a3757610100808354040283529160200191610a62565b820191906000526020600020905b815481529060010190602001808311610a4557829003601f168201915b505050505090506000815111610a8057610a7b83611fb6565b610aa4565b600381604051602001610a94929190614ee0565b6040516020818303038152906040525b915050919050565b600e5481565b3373ffffffffffffffffffffffffffffffffffffffff16600560009054906101000a900473ffffffffffffffffffffffffffffffffffffffff1673ffffffffffffffffffffffffffffffffffffffff1614610b0c57600080fd5b600e544211610b1a57600080fd5b600d60159054906101000a900460ff16610b69576040517f08c379a0000000000000000000000000000000000000000000000000000000008152600401610b6090614f76565b60405180910390fd5b610b738282611a5d565b505050565b600080610b848461204a565b90506000601660008381526020019081526020016000206000868152602001908152602001600020549050600081118015610bbe57508382145b9250505092915050565b3373ffffffffffffffffffffffffffffffffffffffff16600560009054906101000a900473ffffffffffffffffffffffffffffffffffffffff1673ffffffffffffffffffffffffffffffffffffffff1614610c2257600080fd5b818111610c64576040517f08c379a0000000000000000000000000000000000000000000000000000000008152600401610c5b90615008565b60405180910390fd5b80600e5411610ca8576040517f08c379a0000000000000000000000000000000000000000000000000000000008152600401610c9f9061509a565b60405180910390fd5b81600f81905550806010819055505050565b610cc2612058565b73ffffffffffffffffffffffffffffffffffffffff168573ffffffffffffffffffffffffffffffffffffffff161480610d085750610d0785610d02612058565b611b1e565b5b610d47576040517f08c379a0000000000000000000000000000000000000000000000000000000008152600401610d3e9061512c565b60405180910390fd5b610d548585858585612060565b5050505050565b610d636135fb565b606060006016600060028152602001908152602001600020600085815260200190815260200160002054905060008111610dd2576040517f08c379a0000000000000000000000000000000000000000000000000000000008152600401610dc990614cfe565b60405180910390fd5b6014600182610de19190614d4d565b81548110610df257610df1614d81565b5b9060005260206000209060030201610e09856109c7565b81604051806060016040529081600082015481526020016001820154815260200160028201548152505091509250925050915091565b60608151835114610e85576040517f08c379a0000000000000000000000000000000000000000000000000000000008152600401610e7c906151be565b60405180910390fd5b6000835167ffffffffffffffff811115610ea257610ea1613a41565b5b604051908082528060200260200182016040528015610ed05781602001602082028036833780820191505090505b50905060005b8451811015610f4d57610f1d858281518110610ef557610ef4614d81565b5b6020026020010151858381518110610f1057610f0f614d81565b5b60200260200101516106ca565b828281518110610f3057610f2f614d81565b5b60200260200101818152505080610f46906151de565b9050610ed6565b508091505092915050565b6060803373ffffffffffffffffffffffffffffffffffffffff16600560009054906101000a900473ffffffffffffffffffffffffffffffffffffffff1673ffffffffffffffffffffffffffffffffffffffff1614610fb557600080fd5b601154831115610ffa576040517f08c379a0000000000000000000000000000000000000000000000000000000008152600401610ff190615272565b60405180910390fd5b61100383612381565b91509150915091565b60095481565b6060806000601380549050905060008167ffffffffffffffff81111561103b5761103a613a41565b5b60405190808252806020026020018201604052801561106e57816020015b60608152602001906001900390816110595790505b50905060005b8281116110d8576110a96013828154811061109257611091614d81565b5b9060005260206000209060020201600001546109c7565b8282815181106110bc576110bb614d81565b5b6020026020010181905250806110d1906151de565b9050611074565b5060138181805480602002602001604051908101604052809291908181526020016000905b82821015611143578382906000526020600020906002020160405180604001604052908160008201548152602001600182015481525050815260200190600101906110fd565b5050505091509350935050509091565b606080600560009054906101000a900473ffffffffffffffffffffffffffffffffffffffff1673ffffffffffffffffffffffffffffffffffffffff163373ffffffffffffffffffffffffffffffffffffffff1614806111b657506111b5611208565b5b6111f5576040517f08c379a00000000000000000000000000000000000000000000000000000000081526004016111ec906152de565b60405180910390fd5b611200601154612381565b915091509091565b6000600f54421015801561121e57506010544211155b905090565b3373ffffffffffffffffffffffffffffffffffffffff16600560009054906101000a900473ffffffffffffffffffffffffffffffffffffffff1673ffffffffffffffffffffffffffffffffffffffff161461127d57600080fd5b600e54421161128b57600080fd5b8061129581611946565b6112d4576040517f08c379a00000000000000000000000000000000000000000000000000000000081526004016112cb9061534a565b60405180910390fd5b611302600560009054906101000a900473ffffffffffffffffffffffffffffffffffffffff16836001612543565b5050565b3373ffffffffffffffffffffffffffffffffffffffff16600560009054906101000a900473ffffffffffffffffffffffffffffffffffffffff1673ffffffffffffffffffffffffffffffffffffffff161461136057600080fd5b600e54421161136e57600080fd5b8181116113b0576040517f08c379a00000000000000000000000000000000000000000000000000000000081526004016113a790615008565b60405180910390fd5b8083116113f2576040517f08c379a00000000000000000000000000000000000000000000000000000000081526004016113e99061509a565b60405180910390fd5b82600e8190555081600f819055508060108190555060016011600082825461141a919061536a565b92505081905550505050565b60105481565b61143461361c565b6060600060166000600381526020019081526020016000206000858152602001908152602001600020549050600081116114a3576040517f08c379a000000000000000000000000000000000000000000000000000000000815260040161149a90614cfe565b60405180910390fd5b60156001826114b29190614d4d565b815481106114c3576114c2614d81565b5b90600052602060002090600a02016114da856109c7565b8160405180610140016040529081600082015481526020016001820154815260200160028201548152602001600382015481526020016004820154815260200160058201548152602001600682015481526020016007820180548060200260200160405190810160405280929190818152602001828054801561157c57602002820191906000526020600020905b815481526020019060010190808311611568575b50505050508152602001600882015481526020016009820160009054906101000a900473ffffffffffffffffffffffffffffffffffffffff1673ffffffffffffffffffffffffffffffffffffffff1673ffffffffffffffffffffffffffffffffffffffff168152505091509250925050915091565b6116036115fc612058565b8383612789565b5050565b3373ffffffffffffffffffffffffffffffffffffffff16600560009054906101000a900473ffffffffffffffffffffffffffffffffffffffff1673ffffffffffffffffffffffffffffffffffffffff161461166157600080fd5b600e54421161166f57600080fd5b600d60169054906101000a900460ff166116be576040517f08c379a00000000000000000000000000000000000000000000000000000000081526004016116b590615432565b60405180910390fd5b6116c98383836128f5565b50505050565b3373ffffffffffffffffffffffffffffffffffffffff16600560009054906101000a900473ffffffffffffffffffffffffffffffffffffffff1673ffffffffffffffffffffffffffffffffffffffff161461172957600080fd5b600d60159054906101000a900460ff1615611779576040517f08c379a00000000000000000000000000000000000000000000000000000000081526004016117709061549e565b60405180910390fd5b805182511461178757600080fd5b60008251905060005b8181116117e7576117d58482815181106117ad576117ac614d81565b5b60200260200101518483815181106117c8576117c7614d81565b5b6020026020010151611a5d565b50806117e0906151de565b9050611790565b50505050565b600f5481565b3373ffffffffffffffffffffffffffffffffffffffff16600560009054906101000a900473ffffffffffffffffffffffffffffffffffffffff1673ffffffffffffffffffffffffffffffffffffffff161461184d57600080fd5b600e54421161185b57600080fd5b6000811161189e576040517f08c379a000000000000000000000000000000000000000000000000000000000815260040161189590614c92565b60405180910390fd5b6000601660006002815260200190815260200160002060008481526020019081526020016000205490506000811161190b576040517f08c379a000000000000000000000000000000000000000000000000000000000815260040161190290614cfe565b60405180910390fd5b81601460018361191b9190614d4d565b8154811061192c5761192b614d81565b5b906000526020600020906003020160020181905550505050565b6000806119528361204a565b905060006016600083815260200190815260200160002060008581526020019081526020016000205490506000811192505050919050565b3373ffffffffffffffffffffffffffffffffffffffff16600560009054906101000a900473ffffffffffffffffffffffffffffffffffffffff1673ffffffffffffffffffffffffffffffffffffffff16146119e457600080fd5b600d60149054906101000a900460ff16156119fe57600080fd5b6001600d60146101000a81548160ff02191690831515021790555080600c60006101000a81548173ffffffffffffffffffffffffffffffffffffffff021916908373ffffffffffffffffffffffffffffffffffffffff16021790555050565b600080611a8e600560009054906101000a900473ffffffffffffffffffffffffffffffffffffffff1660018561293e565b9050611a9a8185612a57565b611b0e600560009054906101000a900473ffffffffffffffffffffffffffffffffffffffff168260016000368080601f016020809104026020016040519081016040528093929190818152602001838380828437600081840152601f19601f82011690508083019250505050505050612b29565b8091505092915050565b60115481565b6000600160008473ffffffffffffffffffffffffffffffffffffffff1673ffffffffffffffffffffffffffffffffffffffff16815260200190815260200160002060008373ffffffffffffffffffffffffffffffffffffffff1673ffffffffffffffffffffffffffffffffffffffff16815260200190815260200160002060009054906101000a900460ff16905092915050565b611bba613685565b606060006016600060018152602001908152602001600020600085815260200190815260200160002054905060008111611c29576040517f08c379a0000000000000000000000000000000000000000000000000000000008152600401611c2090614cfe565b60405180910390fd5b6013600182611c389190614d4d565b81548110611c4957611c48614d81565b5b9060005260206000209060020201611c60856109c7565b816040518060400160405290816000820154815260200160018201548152505091509250925050915091565b60603373ffffffffffffffffffffffffffffffffffffffff16600560009054906101000a900473ffffffffffffffffffffffffffffffffffffffff1673ffffffffffffffffffffffffffffffffffffffff1614611ce857600080fd5b6014805480602002602001604051908101604052809291908181526020016000905b82821015611d5a5783829060005260206000209060030201604051806060016040529081600082015481526020016001820154815260200160028201548152505081526020019060010190611d0a565b50505050905090565b611d6b612058565b73ffffffffffffffffffffffffffffffffffffffff168573ffffffffffffffffffffffffffffffffffffffff161480611db15750611db085611dab612058565b611b1e565b5b611df0576040517f08c379a0000000000000000000000000000000000000000000000000000000008152600401611de79061512c565b60405180910390fd5b611dfd8585858585612cd9565b5050505050565b3373ffffffffffffffffffffffffffffffffffffffff16600560009054906101000a900473ffffffffffffffffffffffffffffffffffffffff1673ffffffffffffffffffffffffffffffffffffffff1614611e5e57600080fd5b600d60169054906101000a900460ff1615611eae576040517f08c379a0000000000000000000000000000000000000000000000000000000008152600401611ea59061550a565b60405180910390fd5b8051835114611ebc57600080fd5b8051835114611eca57600080fd5b60008251905060005b818111611f4557611f33858281518110611ef057611eef614d81565b5b6020026020010151858381518110611f0b57611f0a614d81565b5b6020026020010151858481518110611f2657611f25614d81565b5b60200260200101516128f5565b5080611f3e906151de565b9050611ed3565b5050505050565b60007f01ffc9a7000000000000000000000000000000000000000000000000000000007bffffffffffffffffffffffffffffffffffffffffffffffffffffffff1916827bffffffffffffffffffffffffffffffffffffffffffffffffffffffff1916149050919050565b606060028054611fc590614ddf565b80601f0160208091040260200160405190810160405280929190818152602001828054611ff190614ddf565b801561203e5780601f106120135761010080835404028352916020019161203e565b820191906000526020600020905b81548152906001019060200180831161202157829003601f168201915b50505050509050919050565b6000601082901c9050919050565b600033905090565b81518351146120a4576040517f08c379a000000000000000000000000000000000000000000000000000000000815260040161209b9061559c565b60405180910390fd5b600073ffffffffffffffffffffffffffffffffffffffff168473ffffffffffffffffffffffffffffffffffffffff1603612113576040517f08c379a000000000000000000000000000000000000000000000000000000000815260040161210a9061562e565b60405180910390fd5b600061211d612058565b905061212d818787878787612f74565b60005b84518110156122de57600085828151811061214e5761214d614d81565b5b60200260200101519050600085838151811061216d5761216c614d81565b5b60200260200101519050600080600084815260200190815260200160002060008b73ffffffffffffffffffffffffffffffffffffffff1673ffffffffffffffffffffffffffffffffffffffff1681526020019081526020016000205490508181101561220e576040517f08c379a0000000000000000000000000000000000000000000000000000000008152600401612205906156c0565b60405180910390fd5b81810360008085815260200190815260200160002060008c73ffffffffffffffffffffffffffffffffffffffff1673ffffffffffffffffffffffffffffffffffffffff168152602001908152602001600020819055508160008085815260200190815260200160002060008b73ffffffffffffffffffffffffffffffffffffffff1673ffffffffffffffffffffffffffffffffffffffff16815260200190815260200160002060008282546122c3919061536a565b92505081905550505050806122d7906151de565b9050612130565b508473ffffffffffffffffffffffffffffffffffffffff168673ffffffffffffffffffffffffffffffffffffffff168273ffffffffffffffffffffffffffffffffffffffff167f4a39dc06d4c0dbc64b70af90fd698a233a518aa5d07e595d983b8c0526c8f7fb87876040516123559291906156e0565b60405180910390a461236b818787878787612f7c565b612379818787878787612f84565b505050505050565b6060803373ffffffffffffffffffffffffffffffffffffffff16600560009054906101000a900473ffffffffffffffffffffffffffffffffffffffff1673ffffffffffffffffffffffffffffffffffffffff16146123de57600080fd5b60006012600085815260200190815260200160002080549050905060008167ffffffffffffffff81111561241557612414613a41565b5b60405190808252806020026020018201604052801561244e57816020015b61243b61361c565b8152602001906001900390816124335790505b50905060008267ffffffffffffffff81111561246d5761246c613a41565b5b6040519080825280602002602001820160405280156124a057816020015b606081526020019060019003908161248b5790505b50905060005b838111612534576124e760126000601154815260200190815260200160002082815481106124d7576124d6614d81565b5b906000526020600020015461142c565b8483815181106124fa576124f9614d81565b5b6020026020010184848151811061251457612513614d81565b5b6020026020010182905282905250508061252d906151de565b90506124a6565b50818194509450505050915091565b600073ffffffffffffffffffffffffffffffffffffffff168373ffffffffffffffffffffffffffffffffffffffff16036125b2576040517f08c379a00000000000000000000000000000000000000000000000000000000081526004016125a990615789565b60405180910390fd5b60006125bc612058565b905060006125c98461315b565b905060006125d68461315b565b90506125f683876000858560405180602001604052806000815250612f74565b600080600087815260200190815260200160002060008873ffffffffffffffffffffffffffffffffffffffff1673ffffffffffffffffffffffffffffffffffffffff1681526020019081526020016000205490508481101561268d576040517f08c379a00000000000000000000000000000000000000000000000000000000081526004016126849061581b565b60405180910390fd5b84810360008088815260200190815260200160002060008973ffffffffffffffffffffffffffffffffffffffff1673ffffffffffffffffffffffffffffffffffffffff16815260200190815260200160002081905550600073ffffffffffffffffffffffffffffffffffffffff168773ffffffffffffffffffffffffffffffffffffffff168573ffffffffffffffffffffffffffffffffffffffff167fc3d58168c5ae7397731d063d5bbf3d657854427343f4c083240f7aacaa2d0f62898960405161275a92919061583b565b60405180910390a461278084886000868660405180602001604052806000815250612f7c565b50505050505050565b8173ffffffffffffffffffffffffffffffffffffffff168373ffffffffffffffffffffffffffffffffffffffff16036127f7576040517f08c379a00000000000000000000000000000000000000000000000000000000081526004016127ee906158d6565b60405180910390fd5b80600160008573ffffffffffffffffffffffffffffffffffffffff1673ffffffffffffffffffffffffffffffffffffffff16815260200190815260200160002060008473ffffffffffffffffffffffffffffffffffffffff1673ffffffffffffffffffffffffffffffffffffffff16815260200190815260200160002060006101000a81548160ff0219169083151502179055508173ffffffffffffffffffffffffffffffffffffffff168373ffffffffffffffffffffffffffffffffffffffff167f17307eab39ab6107e8899845ad3d59bd9653f200f220920489ca2b5937696c31836040516128e891906138f4565b60405180910390a3505050565b600080612926600560009054906101000a900473ffffffffffffffffffffffffffffffffffffffff1660028561293e565b90506129338186866131d5565b809150509392505050565b600060078260405161295091906158f6565b908152602001604051809103902060009054906101000a900460ff16156129ac576040517f08c379a00000000000000000000000000000000000000000000000000000000081526004016129a390615959565b60405180910390fd5b60006129b784613326565b9050612a0b858260016000368080601f016020809104026020016040519081016040528093929190818152602001838380828437600081840152601f19601f82011690508083019250505050505050612b29565b612a158184613371565b6001600784604051612a2791906158f6565b908152602001604051809103902060006101000a81548160ff021916908315150217905550809150509392505050565b60008111612a9a576040517f08c379a0000000000000000000000000000000000000000000000000000000008152600401612a91906159eb565b60405180910390fd5b600060405180604001604052808481526020018381525090506013819080600181540180825580915050600190039060005260206000209060020201600090919091909150600082015181600001556020820151816001015550506013805490506016600060018152602001908152602001600020600085815260200190815260200160002081905550505050565b600073ffffffffffffffffffffffffffffffffffffffff168473ffffffffffffffffffffffffffffffffffffffff1603612b98576040517f08c379a0000000000000000000000000000000000000000000000000000000008152600401612b8f90615a7d565b60405180910390fd5b6000612ba2612058565b90506000612baf8561315b565b90506000612bbc8561315b565b9050612bcd83600089858589612f74565b8460008088815260200190815260200160002060008973ffffffffffffffffffffffffffffffffffffffff1673ffffffffffffffffffffffffffffffffffffffff1681526020019081526020016000206000828254612c2c919061536a565b925050819055508673ffffffffffffffffffffffffffffffffffffffff16600073ffffffffffffffffffffffffffffffffffffffff168473ffffffffffffffffffffffffffffffffffffffff167fc3d58168c5ae7397731d063d5bbf3d657854427343f4c083240f7aacaa2d0f628989604051612caa92919061583b565b60405180910390a4612cc183600089858589612f7c565b612cd0836000898989896133dd565b50505050505050565b600073ffffffffffffffffffffffffffffffffffffffff168473ffffffffffffffffffffffffffffffffffffffff1603612d48576040517f08c379a0000000000000000000000000000000000000000000000000000000008152600401612d3f9061562e565b60405180910390fd5b6000612d52612058565b90506000612d5f8561315b565b90506000612d6c8561315b565b9050612d7c838989858589612f74565b600080600088815260200190815260200160002060008a73ffffffffffffffffffffffffffffffffffffffff1673ffffffffffffffffffffffffffffffffffffffff16815260200190815260200160002054905085811015612e13576040517f08c379a0000000000000000000000000000000000000000000000000000000008152600401612e0a906156c0565b60405180910390fd5b85810360008089815260200190815260200160002060008b73ffffffffffffffffffffffffffffffffffffffff1673ffffffffffffffffffffffffffffffffffffffff168152602001908152602001600020819055508560008089815260200190815260200160002060008a73ffffffffffffffffffffffffffffffffffffffff1673ffffffffffffffffffffffffffffffffffffffff1681526020019081526020016000206000828254612ec8919061536a565b925050819055508773ffffffffffffffffffffffffffffffffffffffff168973ffffffffffffffffffffffffffffffffffffffff168573ffffffffffffffffffffffffffffffffffffffff167fc3d58168c5ae7397731d063d5bbf3d657854427343f4c083240f7aacaa2d0f628a8a604051612f4592919061583b565b60405180910390a4612f5b848a8a86868a612f7c565b612f69848a8a8a8a8a6133dd565b505050505050505050565b505050505050565b505050505050565b612fa38473ffffffffffffffffffffffffffffffffffffffff166135b4565b15613153578373ffffffffffffffffffffffffffffffffffffffff1663bc197c8187878686866040518663ffffffff1660e01b8152600401612fe9959493929190615b01565b6020604051808303816000875af192505050801561302557506040513d601f19601f820116820180604052508101906130229190615b7e565b60015b6130ca57613031615bb8565b806308c379a00361308d5750613045615bda565b80613050575061308f565b806040517f08c379a00000000000000000000000000000000000000000000000000000000081526004016130849190613a15565b60405180910390fd5b505b6040517f08c379a00000000000000000000000000000000000000000000000000000000081526004016130c190615cdc565b60405180910390fd5b63bc197c8160e01b7bffffffffffffffffffffffffffffffffffffffffffffffffffffffff1916817bffffffffffffffffffffffffffffffffffffffffffffffffffffffff191614613151576040517f08c379a000000000000000000000000000000000000000000000000000000000815260040161314890615d6e565b60405180910390fd5b505b505050505050565b60606000600167ffffffffffffffff81111561317a57613179613a41565b5b6040519080825280602002602001820160405280156131a85781602001602082028036833780820191505090505b50905082816000815181106131c0576131bf614d81565b5b60200260200101818152505080915050919050565b60006016600060018152602001908152602001600020600084815260200190815260200160002054905060008111613242576040517f08c379a000000000000000000000000000000000000000000000000000000000815260040161323990615e26565b60405180910390fd5b60008211613285576040517f08c379a000000000000000000000000000000000000000000000000000000000815260040161327c906159eb565b60405180910390fd5b600060405180606001604052808681526020018581526020018481525090506014819080600181540180825580915050600190039060005260206000209060030201600090919091909150600082015181600001556020820151816001015560408201518160020155505060148054905060166000600281526020019081526020016000206000878152602001908152602001600020819055505050505050565b6000613343600660008481526020019081526020016000206135d7565b6000613360600660008581526020019081526020016000206135ed565b905080601084901b17915050919050565b8060046000848152602001908152602001600020908051906020019061339892919061369f565b50817f6bb7ff708619ba0610cba295a58592e0451dee2622938c8755667688daf3529b6133c4846109c7565b6040516133d19190613a15565b60405180910390a25050565b6133fc8473ffffffffffffffffffffffffffffffffffffffff166135b4565b156135ac578373ffffffffffffffffffffffffffffffffffffffff1663f23a6e6187878686866040518663ffffffff1660e01b8152600401613442959493929190615e46565b6020604051808303816000875af192505050801561347e57506040513d601f19601f8201168201806040525081019061347b9190615b7e565b60015b6135235761348a615bb8565b806308c379a0036134e6575061349e615bda565b806134a957506134e8565b806040517f08c379a00000000000000000000000000000000000000000000000000000000081526004016134dd9190613a15565b60405180910390fd5b505b6040517f08c379a000000000000000000000000000000000000000000000000000000000815260040161351a90615cdc565b60405180910390fd5b63f23a6e6160e01b7bffffffffffffffffffffffffffffffffffffffffffffffffffffffff1916817bffffffffffffffffffffffffffffffffffffffffffffffffffffffff1916146135aa576040517f08c379a00000000000000000000000000000000000000000000000000000000081526004016135a190615d6e565b60405180910390fd5b505b505050505050565b6000808273ffffffffffffffffffffffffffffffffffffffff163b119050919050565b6001816000016000828254019250508190555050565b600081600001549050919050565b60405180606001604052806000815260200160008152602001600081525090565b604051806101400160405280600081526020016000815260200160008152602001600081526020016000815260200160008152602001600081526020016060815260200160008152602001600073ffffffffffffffffffffffffffffffffffffffff1681525090565b604051806040016040528060008152602001600081525090565b8280546136ab90614ddf565b90600052602060002090601f0160209004810192826136cd5760008555613714565b82601f106136e657805160ff1916838001178555613714565b82800160010185558215613714579182015b828111156137135782518255916020019190600101906136f8565b5b5090506137219190613725565b5090565b5b8082111561373e576000816000905550600101613726565b5090565b6000604051905090565b600080fd5b600080fd5b600073ffffffffffffffffffffffffffffffffffffffff82169050919050565b600061378182613756565b9050919050565b61379181613776565b811461379c57600080fd5b50565b6000813590506137ae81613788565b92915050565b6000819050919050565b6137c7816137b4565b81146137d257600080fd5b50565b6000813590506137e4816137be565b92915050565b600080604083850312156138015761380061374c565b5b600061380f8582860161379f565b9250506020613820858286016137d5565b9150509250929050565b613833816137b4565b82525050565b600060208201905061384e600083018461382a565b92915050565b60007fffffffff0000000000000000000000000000000000000000000000000000000082169050919050565b61388981613854565b811461389457600080fd5b50565b6000813590506138a681613880565b92915050565b6000602082840312156138c2576138c161374c565b5b60006138d084828501613897565b91505092915050565b60008115159050919050565b6138ee816138d9565b82525050565b600060208201905061390960008301846138e5565b92915050565b600080604083850312156139265761392561374c565b5b6000613934858286016137d5565b9250506020613945858286016137d5565b9150509250929050565b6000602082840312156139655761396461374c565b5b6000613973848285016137d5565b91505092915050565b600081519050919050565b600082825260208201905092915050565b60005b838110156139b657808201518184015260208101905061399b565b838111156139c5576000848401525b50505050565b6000601f19601f8301169050919050565b60006139e78261397c565b6139f18185613987565b9350613a01818560208601613998565b613a0a816139cb565b840191505092915050565b60006020820190508181036000830152613a2f81846139dc565b905092915050565b600080fd5b600080fd5b7f4e487b7100000000000000000000000000000000000000000000000000000000600052604160045260246000fd5b613a79826139cb565b810181811067ffffffffffffffff82111715613a9857613a97613a41565b5b80604052505050565b6000613aab613742565b9050613ab78282613a70565b919050565b600067ffffffffffffffff821115613ad757613ad6613a41565b5b613ae0826139cb565b9050602081019050919050565b82818337600083830152505050565b6000613b0f613b0a84613abc565b613aa1565b905082815260208101848484011115613b2b57613b2a613a3c565b5b613b36848285613aed565b509392505050565b600082601f830112613b5357613b52613a37565b5b8135613b63848260208601613afc565b91505092915050565b60008060408385031215613b8357613b8261374c565b5b6000613b91858286016137d5565b925050602083013567ffffffffffffffff811115613bb257613bb1613751565b5b613bbe85828601613b3e565b9150509250929050565b600067ffffffffffffffff821115613be357613be2613a41565b5b602082029050602081019050919050565b600080fd5b6000613c0c613c0784613bc8565b613aa1565b90508083825260208201905060208402830185811115613c2f57613c2e613bf4565b5b835b81811015613c585780613c4488826137d5565b845260208401935050602081019050613c31565b5050509392505050565b600082601f830112613c7757613c76613a37565b5b8135613c87848260208601613bf9565b91505092915050565b600067ffffffffffffffff821115613cab57613caa613a41565b5b613cb4826139cb565b9050602081019050919050565b6000613cd4613ccf84613c90565b613aa1565b905082815260208101848484011115613cf057613cef613a3c565b5b613cfb848285613aed565b509392505050565b600082601f830112613d1857613d17613a37565b5b8135613d28848260208601613cc1565b91505092915050565b600080600080600060a08688031215613d4d57613d4c61374c565b5b6000613d5b8882890161379f565b9550506020613d6c8882890161379f565b945050604086013567ffffffffffffffff811115613d8d57613d8c613751565b5b613d9988828901613c62565b935050606086013567ffffffffffffffff811115613dba57613db9613751565b5b613dc688828901613c62565b925050608086013567ffffffffffffffff811115613de757613de6613751565b5b613df388828901613d03565b9150509295509295909350565b613e09816137b4565b82525050565b606082016000820151613e256000850182613e00565b506020820151613e386020850182613e00565b506040820151613e4b6040850182613e00565b50505050565b6000608082019050613e666000830185613e0f565b8181036060830152613e7881846139dc565b90509392505050565b600067ffffffffffffffff821115613e9c57613e9b613a41565b5b602082029050602081019050919050565b6000613ec0613ebb84613e81565b613aa1565b90508083825260208201905060208402830185811115613ee357613ee2613bf4565b5b835b81811015613f0c5780613ef8888261379f565b845260208401935050602081019050613ee5565b5050509392505050565b600082601f830112613f2b57613f2a613a37565b5b8135613f3b848260208601613ead565b91505092915050565b60008060408385031215613f5b57613f5a61374c565b5b600083013567ffffffffffffffff811115613f7957613f78613751565b5b613f8585828601613f16565b925050602083013567ffffffffffffffff811115613fa657613fa5613751565b5b613fb285828601613c62565b9150509250929050565b600081519050919050565b600082825260208201905092915050565b6000819050602082019050919050565b6000613ff48383613e00565b60208301905092915050565b6000602082019050919050565b600061401882613fbc565b6140228185613fc7565b935061402d83613fd8565b8060005b8381101561405e5781516140458882613fe8565b975061405083614000565b925050600181019050614031565b5085935050505092915050565b60006020820190508181036000830152614085818461400d565b905092915050565b600081519050919050565b600082825260208201905092915050565b6000819050602082019050919050565b600082825260208201905092915050565b60006140d582613fbc565b6140df81856140b9565b93506140ea83613fd8565b8060005b8381101561411b5781516141028882613fe8565b975061410d83614000565b9250506001810190506140ee565b5085935050505092915050565b61413181613776565b82525050565b6000610140830160008301516141506000860182613e00565b5060208301516141636020860182613e00565b5060408301516141766040860182613e00565b5060608301516141896060860182613e00565b50608083015161419c6080860182613e00565b5060a08301516141af60a0860182613e00565b5060c08301516141c260c0860182613e00565b5060e083015184820360e08601526141da82826140ca565b9150506101008301516141f1610100860182613e00565b50610120830151614206610120860182614128565b508091505092915050565b600061421d8383614137565b905092915050565b6000602082019050919050565b600061423d8261408d565b6142478185614098565b935083602082028501614259856140a9565b8060005b8581101561429557848403895281516142768582614211565b945061428183614225565b925060208a0199505060018101905061425d565b50829750879550505050505092915050565b600081519050919050565b600082825260208201905092915050565b6000819050602082019050919050565b600082825260208201905092915050565b60006142ef8261397c565b6142f981856142d3565b9350614309818560208601613998565b614312816139cb565b840191505092915050565b600061432983836142e4565b905092915050565b6000602082019050919050565b6000614349826142a7565b61435381856142b2565b935083602082028501614365856142c3565b8060005b858110156143a15784840389528151614382858261431d565b945061438d83614331565b925060208a01995050600181019050614369565b50829750879550505050505092915050565b600060408201905081810360008301526143cd8185614232565b905081810360208301526143e1818461433e565b90509392505050565b600081519050919050565b600082825260208201905092915050565b6000819050602082019050919050565b60408201600082015161442c6000850182613e00565b50602082015161443f6020850182613e00565b50505050565b60006144518383614416565b60408301905092915050565b6000602082019050919050565b6000614475826143ea565b61447f81856143f5565b935061448a83614406565b8060005b838110156144bb5781516144a28882614445565b97506144ad8361445d565b92505060018101905061448e565b5085935050505092915050565b600060408201905081810360008301526144e2818561446a565b905081810360208301526144f6818461433e565b90509392505050565b6000806000606084860312156145185761451761374c565b5b6000614526868287016137d5565b9350506020614537868287016137d5565b9250506040614548868287016137d5565b9150509250925092565b60006101408301600083015161456b6000860182613e00565b50602083015161457e6020860182613e00565b5060408301516145916040860182613e00565b5060608301516145a46060860182613e00565b5060808301516145b76080860182613e00565b5060a08301516145ca60a0860182613e00565b5060c08301516145dd60c0860182613e00565b5060e083015184820360e08601526145f582826140ca565b91505061010083015161460c610100860182613e00565b50610120830151614621610120860182614128565b508091505092915050565b600060408201905081810360008301526146468185614552565b9050818103602083015261465a81846139dc565b90509392505050565b61466c816138d9565b811461467757600080fd5b50565b60008135905061468981614663565b92915050565b600080604083850312156146a6576146a561374c565b5b60006146b48582860161379f565b92505060206146c58582860161467a565b9150509250929050565b6000806000606084860312156146e8576146e761374c565b5b60006146f6868287016137d5565b9350506020614707868287016137d5565b925050604084013567ffffffffffffffff81111561472857614727613751565b5b61473486828701613b3e565b9150509250925092565b600067ffffffffffffffff82111561475957614758613a41565b5b602082029050602081019050919050565b600061477d6147788461473e565b613aa1565b905080838252602082019050602084028301858111156147a05761479f613bf4565b5b835b818110156147e757803567ffffffffffffffff8111156147c5576147c4613a37565b5b8086016147d28982613b3e565b855260208501945050506020810190506147a2565b5050509392505050565b600082601f83011261480657614805613a37565b5b813561481684826020860161476a565b91505092915050565b600080604083850312156148365761483561374c565b5b600083013567ffffffffffffffff81111561485457614853613751565b5b61486085828601613c62565b925050602083013567ffffffffffffffff81111561488157614880613751565b5b61488d858286016147f1565b9150509250929050565b6000602082840312156148ad576148ac61374c565b5b60006148bb8482850161379f565b91505092915050565b600080604083850312156148db576148da61374c565b5b60006148e98582860161379f565b92505060206148fa8582860161379f565b9150509250929050565b60408201600082015161491a6000850182613e00565b50602082015161492d6020850182613e00565b50505050565b60006060820190506149486000830185614904565b818103604083015261495a81846139dc565b90509392505050565b600081519050919050565b600082825260208201905092915050565b6000819050602082019050919050565b6060820160008201516149a56000850182613e00565b5060208201516149b86020850182613e00565b5060408201516149cb6040850182613e00565b50505050565b60006149dd838361498f565b60608301905092915050565b6000602082019050919050565b6000614a0182614963565b614a0b818561496e565b9350614a168361497f565b8060005b83811015614a47578151614a2e88826149d1565b9750614a39836149e9565b925050600181019050614a1a565b5085935050505092915050565b60006020820190508181036000830152614a6e81846149f6565b905092915050565b600080600080600060a08688031215614a9257614a9161374c565b5b6000614aa08882890161379f565b9550506020614ab18882890161379f565b9450506040614ac2888289016137d5565b9350506060614ad3888289016137d5565b925050608086013567ffffffffffffffff811115614af457614af3613751565b5b614b0088828901613d03565b9150509295509295909350565b600080600060608486031215614b2657614b2561374c565b5b600084013567ffffffffffffffff811115614b4457614b43613751565b5b614b5086828701613c62565b935050602084013567ffffffffffffffff811115614b7157614b70613751565b5b614b7d86828701613c62565b925050604084013567ffffffffffffffff811115614b9e57614b9d613751565b5b614baa868287016147f1565b9150509250925092565b7f455243313135353a2061646472657373207a65726f206973206e6f742061207660008201527f616c6964206f776e657200000000000000000000000000000000000000000000602082015250565b6000614c10602a83613987565b9150614c1b82614bb4565b604082019050919050565b60006020820190508181036000830152614c3f81614c03565b9050919050565b7f437265646974206d757374206265206120706f736974697665206e756d626572600082015250565b6000614c7c602083613987565b9150614c8782614c46565b602082019050919050565b60006020820190508181036000830152614cab81614c6f565b9050919050565b7f4e667420646f6573206e6f742065786973740000000000000000000000000000600082015250565b6000614ce8601283613987565b9150614cf382614cb2565b602082019050919050565b60006020820190508181036000830152614d1781614cdb565b9050919050565b7f4e487b7100000000000000000000000000000000000000000000000000000000600052601160045260246000fd5b6000614d58826137b4565b9150614d63836137b4565b925082821015614d7657614d75614d1e565b5b828203905092915050565b7f4e487b7100000000000000000000000000000000000000000000000000000000600052603260045260246000fd5b7f4e487b7100000000000000000000000000000000000000000000000000000000600052602260045260246000fd5b60006002820490506001821680614df757607f821691505b602082108103614e0a57614e09614db0565b5b50919050565b600081905092915050565b60008190508160005260206000209050919050565b60008154614e3d81614ddf565b614e478186614e10565b94506001821660008114614e625760018114614e7357614ea6565b60ff19831686528186019350614ea6565b614e7c85614e1b565b60005b83811015614e9e57815481890152600182019150602081019050614e7f565b838801955050505b50505092915050565b6000614eba8261397c565b614ec48185614e10565b9350614ed4818560208601613998565b80840191505092915050565b6000614eec8285614e30565b9150614ef88284614eaf565b91508190509392505050565b7f526571756972656d656e74206d75737420626520696e697469616c697a65642060008201527f6265666f7265206372656174696e67206e657700000000000000000000000000602082015250565b6000614f60603383613987565b9150614f6b82614f04565b604082019050919050565b60006020820190508181036000830152614f8f81614f53565b9050919050565b7f456e642074696d65206d7573742062652061667465722073746172742074696d60008201527f6500000000000000000000000000000000000000000000000000000000000000602082015250565b6000614ff2602183613987565b9150614ffd82614f96565b604082019050919050565b6000602082019050818103600083015261502181614fe5565b9050919050565b7f526567697374657265642064617465206d757374206265206265666f7265207960008201527f65617220656e6400000000000000000000000000000000000000000000000000602082015250565b6000615084602783613987565b915061508f82615028565b604082019050919050565b600060208201905081810360008301526150b381615077565b9050919050565b7f455243313135353a2063616c6c6572206973206e6f7420746f6b656e206f776e60008201527f6572206f7220617070726f766564000000000000000000000000000000000000602082015250565b6000615116602e83613987565b9150615121826150ba565b604082019050919050565b6000602082019050818103600083015261514581615109565b9050919050565b7f455243313135353a206163636f756e747320616e6420696473206c656e67746860008201527f206d69736d617463680000000000000000000000000000000000000000000000602082015250565b60006151a8602983613987565b91506151b38261514c565b604082019050919050565b600060208201905081810360008301526151d78161519b565b9050919050565b60006151e9826137b4565b91507fffffffffffffffffffffffffffffffffffffffffffffffffffffffffffffffff820361521b5761521a614d1e565b5b600182019050919050565b7f446573697265642079656172206973206e6f742076616c696400000000000000600082015250565b600061525c601983613987565b915061526782615226565b602082019050919050565b6000602082019050818103600083015261528b8161524f565b9050919050565b7f49742773206e6f742074696d6520746f20726567697374657220636c61737300600082015250565b60006152c8601f83613987565b91506152d382615292565b602082019050919050565b600060208201905081810360008301526152f7816152bb565b9050919050565b7f546f6b656e206578697374730000000000000000000000000000000000000000600082015250565b6000615334600c83613987565b915061533f826152fe565b602082019050919050565b6000602082019050818103600083015261536381615327565b9050919050565b6000615375826137b4565b9150615380836137b4565b9250827fffffffffffffffffffffffffffffffffffffffffffffffffffffffffffffffff038211156153b5576153b4614d1e565b5b828201905092915050565b7f436f75727365206d75737420626520696e697469616c697a6564206265666f7260008201527f65206372656174696e67206e6577000000000000000000000000000000000000602082015250565b600061541c602e83613987565b9150615427826153c0565b604082019050919050565b6000602082019050818103600083015261544b8161540f565b9050919050565b7f526571756972656d656e7420686173206265656e20696e697469616c697a6564600082015250565b6000615488602083613987565b915061549382615452565b602082019050919050565b600060208201905081810360008301526154b78161547b565b9050919050565b7f436f7572736520686173206265656e20696e697469616c697a65640000000000600082015250565b60006154f4601b83613987565b91506154ff826154be565b602082019050919050565b60006020820190508181036000830152615523816154e7565b9050919050565b7f455243313135353a2069647320616e6420616d6f756e7473206c656e6774682060008201527f6d69736d61746368000000000000000000000000000000000000000000000000602082015250565b6000615586602883613987565b91506155918261552a565b604082019050919050565b600060208201905081810360008301526155b581615579565b9050919050565b7f455243313135353a207472616e7366657220746f20746865207a65726f20616460008201527f6472657373000000000000000000000000000000000000000000000000000000602082015250565b6000615618602583613987565b9150615623826155bc565b604082019050919050565b600060208201905081810360008301526156478161560b565b9050919050565b7f455243313135353a20696e73756666696369656e742062616c616e636520666f60008201527f72207472616e7366657200000000000000000000000000000000000000000000602082015250565b60006156aa602a83613987565b91506156b58261564e565b604082019050919050565b600060208201905081810360008301526156d98161569d565b9050919050565b600060408201905081810360008301526156fa818561400d565b9050818103602083015261570e818461400d565b90509392505050565b7f455243313135353a206275726e2066726f6d20746865207a65726f206164647260008201527f6573730000000000000000000000000000000000000000000000000000000000602082015250565b6000615773602383613987565b915061577e82615717565b604082019050919050565b600060208201905081810360008301526157a281615766565b9050919050565b7f455243313135353a206275726e20616d6f756e7420657863656564732062616c60008201527f616e636500000000000000000000000000000000000000000000000000000000602082015250565b6000615805602483613987565b9150615810826157a9565b604082019050919050565b60006020820190508181036000830152615834816157f8565b9050919050565b6000604082019050615850600083018561382a565b61585d602083018461382a565b9392505050565b7f455243313135353a2073657474696e6720617070726f76616c2073746174757360008201527f20666f722073656c660000000000000000000000000000000000000000000000602082015250565b60006158c0602983613987565b91506158cb82615864565b604082019050919050565b600060208201905081810360008301526158ef816158b3565b9050919050565b60006159028284614eaf565b915081905092915050565b7f55524920686173206265656e2075736564000000000000000000000000000000600082015250565b6000615943601183613987565b915061594e8261590d565b602082019050919050565b6000602082019050818103600083015261597281615936565b9050919050565b7f43726564697473206d757374206265206120706f736974697665206e756d626560008201527f7200000000000000000000000000000000000000000000000000000000000000602082015250565b60006159d5602183613987565b91506159e082615979565b604082019050919050565b60006020820190508181036000830152615a04816159c8565b9050919050565b7f455243313135353a206d696e7420746f20746865207a65726f2061646472657360008201527f7300000000000000000000000000000000000000000000000000000000000000602082015250565b6000615a67602183613987565b9150615a7282615a0b565b604082019050919050565b60006020820190508181036000830152615a9681615a5a565b9050919050565b615aa681613776565b82525050565b600081519050919050565b600082825260208201905092915050565b6000615ad382615aac565b615add8185615ab7565b9350615aed818560208601613998565b615af6816139cb565b840191505092915050565b600060a082019050615b166000830188615a9d565b615b236020830187615a9d565b8181036040830152615b35818661400d565b90508181036060830152615b49818561400d565b90508181036080830152615b5d8184615ac8565b90509695505050505050565b600081519050615b7881613880565b92915050565b600060208284031215615b9457615b9361374c565b5b6000615ba284828501615b69565b91505092915050565b60008160e01c9050919050565b600060033d1115615bd75760046000803e615bd4600051615bab565b90505b90565b600060443d10615c6757615bec613742565b60043d036004823e80513d602482011167ffffffffffffffff82111715615c14575050615c67565b808201805167ffffffffffffffff811115615c325750505050615c67565b80602083010160043d038501811115615c4f575050505050615c67565b615c5e82602001850186613a70565b82955050505050505b90565b7f455243313135353a207472616e7366657220746f206e6f6e2d4552433131353560008201527f526563656976657220696d706c656d656e746572000000000000000000000000602082015250565b6000615cc6603483613987565b9150615cd182615c6a565b604082019050919050565b60006020820190508181036000830152615cf581615cb9565b9050919050565b7f455243313135353a204552433131353552656365697665722072656a6563746560008201527f6420746f6b656e73000000000000000000000000000000000000000000000000602082015250565b6000615d58602883613987565b9150615d6382615cfc565b604082019050919050565b60006020820190508181036000830152615d8781615d4b565b9050919050565b7f4e667420726571756972656d656e74206d75737420626520637265617465642060008201527f6265666f7265206372656174696e67206e667420636f757273652074656d706c60208201527f61746520666f7220697400000000000000000000000000000000000000000000604082015250565b6000615e10604a83613987565b9150615e1b82615d8e565b606082019050919050565b60006020820190508181036000830152615e3f81615e03565b9050919050565b600060a082019050615e5b6000830188615a9d565b615e686020830187615a9d565b615e75604083018661382a565b615e82606083018561382a565b8181036080830152615e948184615ac8565b9050969550505050505056fea2646970667358221220469e8857887bd4472e95043a8d7d606f9c0bee066c3189db93fc0ac2ed1d720e64736f6c634300080d0033",
  "immutableReferences": {},
  "source": "// SPDX-License-Identifier: MIT\r\n// Tells the Solidity compiler to compile only from v0.8.13 to v0.9.0\r\npragma solidity ^0.8.13;\r\n\r\nimport \"./ERC1155BaseContract.sol\";\r\nimport \"./interfaces/INftSchool.sol\";\r\nimport \"./interfaces/INftIdentities.sol\";\r\nimport \"./interfaces/INftCertificates.sol\";\r\nimport \"./interfaces/IScore.sol\";\r\n\r\n/*\r\n    Initial year: Requirements + Course Template (time available to update? --> after year end)\r\n    (Save endCurrentYear) -> Classes -> Register course -> Received Nft Scoreboard\r\n    Course end: Mint Nft complete course <-- Transfer info from Nft Scoreboard to this\r\n    Enough course: Exchange nft graduation from nft courses (payable)\r\n*/\r\n/*\r\n    - Initial year\r\n    - Requirements, course templates, classes\r\n*/\r\ncontract NftSchool is ERC1155BaseContract, INftSchool {\r\n    using Counters for Counters.Counter;\r\n\r\n    uint256 constant NFT_REQUIREMENT = 1;\r\n    uint256 constant NFT_COURSE_TEMPLATE = 2;\r\n    uint256 constant NFT_CLASS = 3;\r\n\r\n    uint256 public minimumGraduationScore = 500;\r\n\r\n    string[] private courseURIs;\r\n\r\n    INftIdentities private _nftIdentities;\r\n    INftCertificates private _nftCertificates;\r\n    IScore private _scoreContract;\r\n\r\n    bool private _isInitialize;\r\n    bool private _isInitializeRequirement;\r\n    bool private _isInitializeCourse;\r\n\r\n    uint256 public schoolYearEnd;\r\n    uint256 public registeredStartAt;\r\n    uint256 public registeredEndAt;\r\n    uint256 public yearId;\r\n\r\n    mapping(uint256 => uint256[]) private _classTokenIdsOfYear;\r\n\r\n    NftRequirement[] private _allNftRequirements;\r\n    NftCourseTemplate[] private _allNftCourseTemplates;\r\n    NftClass[] private _allNftClasses;\r\n    mapping(uint256 => mapping(uint256 => uint256)) _posOfTokenIdOfNftType;\r\n\r\n    modifier isInitialized() {\r\n        require(_isInitialize);\r\n        _;\r\n    }\r\n\r\n    modifier onlyOwner() {\r\n        require(_owner == msg.sender);\r\n        _;\r\n    }\r\n\r\n    modifier afterYearEnd() {\r\n        require(block.timestamp > schoolYearEnd);\r\n        _;\r\n    }\r\n\r\n    modifier canOperate(uint256 role) {\r\n        (bool isDeposited, uint256 __role) = _nftIdentities.isAbleToOperate(\r\n            msg.sender\r\n        );\r\n        require(isDeposited && role == __role);\r\n        _;\r\n    }\r\n\r\n    modifier tokenExist(uint256 tokenId) {\r\n        require(checkTokenExists(tokenId), \"Token exists\");\r\n        _;\r\n    }\r\n\r\n    constructor(\r\n        address nftIdentities,\r\n        address scoreAddr\r\n    ) ERC1155BaseContract(\"\") {\r\n        _nftIdentities = INftIdentities(nftIdentities);\r\n        _scoreContract = IScore(scoreAddr);\r\n        schoolYearEnd = block.timestamp;\r\n    }\r\n\r\n    function initialize(address nftCertificates) public onlyOwner {\r\n        require(!_isInitialize);\r\n        _isInitialize = true;\r\n        _nftCertificates = INftCertificates(nftCertificates);\r\n    }\r\n\r\n    /*\r\n        Initialize requirement before any operation in the system including\r\n        - Requirement\r\n        - Course template\r\n    */\r\n    function initializeRequirement(\r\n        uint256[] memory credits,\r\n        string[] memory tokenURIs\r\n    ) public onlyOwner {\r\n        require(!_isInitializeRequirement, \"Requirement has been initialized\");\r\n        require(credits.length == tokenURIs.length);\r\n        uint256 numberOfTokens = credits.length;\r\n\r\n        for (uint256 idx = 0; idx <= numberOfTokens; ++idx) {\r\n            _mintNftRequirement(credits[idx], tokenURIs[idx]);\r\n        }\r\n    }\r\n\r\n    function initializeCourseTemplate(\r\n        uint256[] memory requirementIds,\r\n        uint256[] memory credits,\r\n        string[] memory tokenURIs\r\n    ) public onlyOwner {\r\n        require(!_isInitializeCourse, \"Course has been initialized\");\r\n        require(requirementIds.length == tokenURIs.length);\r\n        require(requirementIds.length == tokenURIs.length);\r\n        uint256 numberOfTokens = credits.length;\r\n\r\n        for (uint256 idx = 0; idx <= numberOfTokens; ++idx) {\r\n            _mintNftCourseTemplate(\r\n                requirementIds[idx],\r\n                credits[idx],\r\n                tokenURIs[idx]\r\n            );\r\n        }\r\n    }\r\n\r\n    function initializeYear(\r\n        uint256 _schoolYearEnd,\r\n        uint256 _registeredStartAt,\r\n        uint256 _registeredEndAt\r\n    ) public onlyOwner afterYearEnd {\r\n        require(\r\n            _registeredEndAt > _registeredStartAt,\r\n            \"End time must be after start time\"\r\n        );\r\n        require(\r\n            _schoolYearEnd > _registeredEndAt,\r\n            \"Registered date must be before year end\"\r\n        );\r\n        schoolYearEnd = _schoolYearEnd;\r\n        registeredStartAt = _registeredStartAt;\r\n        registeredEndAt = _registeredEndAt;\r\n        yearId += 1;\r\n    }\r\n\r\n    function updateRegisteredTime(\r\n        uint256 _registeredStartAt,\r\n        uint256 _registeredEndAt\r\n    ) external onlyOwner {\r\n        require(\r\n            _registeredEndAt > _registeredStartAt,\r\n            \"End time must be after start time\"\r\n        );\r\n        require(\r\n            schoolYearEnd > _registeredEndAt,\r\n            \"Registered date must be before year end\"\r\n        );\r\n        registeredStartAt = _registeredStartAt;\r\n        registeredEndAt = _registeredEndAt;\r\n    }\r\n\r\n    function createRequirement(\r\n        uint256 credits,\r\n        string memory tokenURI\r\n    ) public onlyOwner afterYearEnd {\r\n        require(\r\n            _isInitializeRequirement,\r\n            \"Requirement must be initialized before creating new\"\r\n        );\r\n        _mintNftRequirement(credits, tokenURI);\r\n    }\r\n\r\n    function updateRequirement(\r\n        uint256 tokenId,\r\n        uint256 credits\r\n    ) external onlyOwner afterYearEnd {\r\n        require(credits > 0, \"Credit must be a positive number\");\r\n        uint256 pos = _posOfTokenIdOfNftType[NFT_REQUIREMENT][tokenId];\r\n        require(pos > 0, \"Nft does not exist\");\r\n\r\n        _allNftRequirements[pos - 1].credits = credits;\r\n    }\r\n\r\n    function createCourseTemplate(\r\n        uint256 requirementId,\r\n        uint256 credits,\r\n        string memory tokenURI\r\n    ) public onlyOwner afterYearEnd {\r\n        require(\r\n            _isInitializeCourse,\r\n            \"Course must be initialized before creating new\"\r\n        );\r\n        _mintNftCourseTemplate(requirementId, credits, tokenURI);\r\n    }\r\n\r\n    function updateCourseTemplate(\r\n        uint256 tokenId,\r\n        uint256 credits\r\n    ) external onlyOwner afterYearEnd {\r\n        require(credits > 0, \"Credit must be a positive number\");\r\n        uint256 pos = _posOfTokenIdOfNftType[NFT_COURSE_TEMPLATE][tokenId];\r\n        require(pos > 0, \"Nft does not exist\");\r\n\r\n        _allNftCourseTemplates[pos - 1].credits = credits;\r\n    }\r\n\r\n    function burnToken(\r\n        uint256 tokenId\r\n    ) external onlyOwner afterYearEnd tokenExist(tokenId) {\r\n        _burn(_owner, tokenId, ONE_NFT);\r\n    }\r\n\r\n    // (everyone)\r\n    function getRegisteredClasses()\r\n        external\r\n        view\r\n        returns (NftClass[] memory, string[] memory)\r\n    {\r\n        require(\r\n            msg.sender == _owner || checkInRegisterDate(),\r\n            \"It's not time to register class\"\r\n        );\r\n\r\n        return _getAllNftClasses(yearId);\r\n    }\r\n\r\n    function getAllNftRequirements()\r\n        external\r\n        view\r\n        returns (NftRequirement[] memory, string[] memory)\r\n    {\r\n        uint256 numberOfNft = _allNftRequirements.length;\r\n        string[] memory tokenURIs = new string[](numberOfNft);\r\n\r\n        for (uint256 idx = 0; idx <= numberOfNft; ++idx) {\r\n            tokenURIs[idx] = uri(_allNftRequirements[idx].tokenId);\r\n        }\r\n\r\n        return (_allNftRequirements, tokenURIs);\r\n    }\r\n\r\n    function getNftRequirement(\r\n        uint256 tokenId\r\n    ) external view returns (NftRequirement memory, string memory) {\r\n        uint256 pos = _posOfTokenIdOfNftType[NFT_REQUIREMENT][tokenId];\r\n        require(pos > 0, \"Nft does not exist\");\r\n\r\n        return (_allNftRequirements[pos - 1], uri(tokenId));\r\n    }\r\n\r\n    function getNftClass(\r\n        uint256 tokenId\r\n    ) public view returns (NftClass memory, string memory) {\r\n        uint256 pos = _posOfTokenIdOfNftType[NFT_CLASS][tokenId];\r\n        require(pos > 0, \"Nft does not exist\");\r\n\r\n        return (_allNftClasses[pos - 1], uri(tokenId));\r\n    }\r\n\r\n    function getAllNftClasses(\r\n        uint256 _yearId\r\n    ) external view onlyOwner returns (NftClass[] memory, string[] memory) {\r\n        require(_yearId <= yearId, \"Desired year is not valid\");\r\n\r\n        return _getAllNftClasses(_yearId);\r\n    }\r\n\r\n    function getAllNftCourseTemplate()\r\n        external\r\n        view\r\n        onlyOwner\r\n        returns (NftCourseTemplate[] memory)\r\n    {\r\n        return _allNftCourseTemplates;\r\n    }\r\n\r\n    function getNftCourseTemplate(\r\n        uint256 tokenId\r\n    ) public view returns (NftCourseTemplate memory, string memory) {\r\n        uint256 pos = _posOfTokenIdOfNftType[NFT_COURSE_TEMPLATE][tokenId];\r\n        require(pos > 0, \"Nft does not exist\");\r\n\r\n        return (_allNftCourseTemplates[pos - 1], uri(tokenId));\r\n    }\r\n\r\n    function checkTokenExists(uint256 tokenId) public view returns (bool) {\r\n        uint256 nftType = _getNftType(tokenId);\r\n        uint256 pos = _posOfTokenIdOfNftType[nftType][tokenId];\r\n        return pos > 0;\r\n    }\r\n\r\n    function checkTokenOfTypeExists(\r\n        uint256 tokenId,\r\n        uint256 requiredType\r\n    ) external view returns (bool) {\r\n        uint256 nftType = _getNftType(tokenId);\r\n        uint256 pos = _posOfTokenIdOfNftType[nftType][tokenId];\r\n        return pos > 0 && nftType == requiredType;\r\n    }\r\n\r\n    function checkInRegisterDate() public view returns (bool) {\r\n        return\r\n            block.timestamp >= registeredStartAt &&\r\n            block.timestamp <= registeredEndAt;\r\n    }\r\n\r\n    function _getAllNftClasses(\r\n        uint256 _yearId\r\n    ) private view onlyOwner returns (NftClass[] memory, string[] memory) {\r\n        uint256 numberOfClasses = _classTokenIdsOfYear[_yearId].length;\r\n        NftClass[] memory nftClasses = new NftClass[](numberOfClasses);\r\n        string[] memory tokenURIs = new string[](numberOfClasses);\r\n\r\n        for (uint256 idx = 0; idx <= numberOfClasses; ++idx) {\r\n            (nftClasses[idx], tokenURIs[idx]) = getNftClass(\r\n                _classTokenIdsOfYear[yearId][idx]\r\n            );\r\n        }\r\n\r\n        return (nftClasses, tokenURIs);\r\n    }\r\n\r\n    function _mintNftRequirement(\r\n        uint256 credits,\r\n        string memory tokenURI\r\n    ) public returns (uint256) {\r\n        uint256 tokenId = _mintToken(_owner, NFT_REQUIREMENT, tokenURI);\r\n        _createNftRequirement(tokenId, credits);\r\n        _mint(_owner, tokenId, ONE_NFT, msg.data);\r\n\r\n        return tokenId;\r\n    }\r\n\r\n    function _createNftRequirement(uint256 tokenId, uint256 credits) private {\r\n        require(credits > 0, \"Credits must be a positive number\");\r\n        NftRequirement memory nftRequirement = NftRequirement(tokenId, credits);\r\n        _allNftRequirements.push(nftRequirement);\r\n        _posOfTokenIdOfNftType[NFT_REQUIREMENT][tokenId] = _allNftRequirements\r\n            .length;\r\n    }\r\n\r\n    function _mintNftCourseTemplate(\r\n        uint256 requirementId,\r\n        uint256 credits,\r\n        string memory tokenURI\r\n    ) private returns (uint256) {\r\n        uint256 tokenId = _mintToken(_owner, NFT_COURSE_TEMPLATE, tokenURI);\r\n        _createNftCourseTemplate(tokenId, requirementId, credits);\r\n\r\n        return tokenId;\r\n    }\r\n\r\n    function _createNftCourseTemplate(\r\n        uint256 tokenId,\r\n        uint256 requirementId,\r\n        uint256 credits\r\n    ) private {\r\n        uint256 pos = _posOfTokenIdOfNftType[NFT_REQUIREMENT][requirementId];\r\n        require(\r\n            pos > 0,\r\n            \"Nft requirement must be created before creating nft course template for it\"\r\n        );\r\n        require(credits > 0, \"Credits must be a positive number\");\r\n        NftCourseTemplate memory nftCourseTemplate = NftCourseTemplate(\r\n            tokenId,\r\n            requirementId,\r\n            credits\r\n        );\r\n        _allNftCourseTemplates.push(nftCourseTemplate);\r\n        _posOfTokenIdOfNftType[NFT_COURSE_TEMPLATE][\r\n            tokenId\r\n        ] = _allNftCourseTemplates.length;\r\n    }\r\n\r\n    function _mintNftClass(\r\n        uint256 courseTemplateId,\r\n        uint256 credits,\r\n        uint256 completeAt,\r\n        uint256[] memory requiredScores,\r\n        uint256 maxSize,\r\n        address teacher,\r\n        string memory tokenURI\r\n    ) private returns (uint256) {\r\n        uint256 tokenId = _mintToken(_owner, NFT_COURSE_TEMPLATE, tokenURI);\r\n        _createNftClass(\r\n            tokenId,\r\n            courseTemplateId,\r\n            credits,\r\n            completeAt,\r\n            requiredScores,\r\n            maxSize,\r\n            teacher\r\n        );\r\n\r\n        return tokenId;\r\n    }\r\n\r\n    function _createNftClass(\r\n        uint256 tokenId,\r\n        uint256 courseTemplateId,\r\n        uint256 credits,\r\n        uint256 completeAt,\r\n        uint256[] memory requiredScores,\r\n        uint256 maxSize,\r\n        address teacher\r\n    ) private {\r\n        require(\r\n            registeredStartAt > block.timestamp,\r\n            \"Update registered date before creating class\"\r\n        );\r\n        (NftCourseTemplate memory nftCourseTemplate, ) = getNftCourseTemplate(\r\n            tokenId\r\n        );\r\n        require(credits > 0, \"Credits must be a positive number\");\r\n        require(\r\n            _scoreContract.checkValidScores(requiredScores),\r\n            \"Required scores are not valid\"\r\n        );\r\n        NftClass memory nftClass = NftClass(\r\n            tokenId,\r\n            courseTemplateId,\r\n            nftCourseTemplate.requirementId,\r\n            credits,\r\n            registeredStartAt,\r\n            registeredEndAt,\r\n            completeAt,\r\n            requiredScores,\r\n            maxSize,\r\n            teacher\r\n        );\r\n        _allNftClasses.push(nftClass);\r\n        _posOfTokenIdOfNftType[NFT_COURSE_TEMPLATE][tokenId] = _allNftClasses\r\n            .length;\r\n    }\r\n}\r\n",
  "sourcePath": "E:\\learn\\learn-to-earn\\contracts\\NftSchool.sol",
  "compiler": {
    "name": "solc",
    "version": "0.8.13+commit.abaa5c0e.Emscripten.clang"
  },
  "schemaVersion": "3.4.11",
  "updatedAt": "2023-03-14T06:04:41.704Z",
  "devdoc": {
    "kind": "dev",
    "methods": {
      "balanceOf(address,uint256)": {
        "details": "See {IERC1155-balanceOf}. Requirements: - `account` cannot be the zero address."
      },
      "balanceOfBatch(address[],uint256[])": {
        "details": "See {IERC1155-balanceOfBatch}. Requirements: - `accounts` and `ids` must have the same length."
      },
      "isApprovedForAll(address,address)": {
        "details": "See {IERC1155-isApprovedForAll}."
      },
      "safeBatchTransferFrom(address,address,uint256[],uint256[],bytes)": {
        "details": "See {IERC1155-safeBatchTransferFrom}."
      },
      "safeTransferFrom(address,address,uint256,uint256,bytes)": {
        "details": "See {IERC1155-safeTransferFrom}."
      },
      "setApprovalForAll(address,bool)": {
        "details": "See {IERC1155-setApprovalForAll}."
      },
      "supportsInterface(bytes4)": {
        "details": "See {IERC165-supportsInterface}."
      },
      "uri(uint256)": {
        "details": "See {IERC1155MetadataURI-uri}. This implementation returns the concatenation of the `_baseURI` and the token-specific uri if the latter is set This enables the following behaviors: - if `_tokenURIs[tokenId]` is set, then the result is the concatenation   of `_baseURI` and `_tokenURIs[tokenId]` (keep in mind that `_baseURI`   is empty per default); - if `_tokenURIs[tokenId]` is NOT set then we fallback to `super.uri()`   which in most cases will contain `ERC1155._uri`; - if `_tokenURIs[tokenId]` is NOT set, and if the parents do not have a   uri value set, then the result is empty."
      }
    },
    "version": 1
  },
  "userdoc": {
    "kind": "user",
    "methods": {},
    "version": 1
  }
}