{
  "contractName": "NftSchool",
  "abi": [
    {
      "inputs": [
        {
          "internalType": "address",
          "name": "nftIdentities",
          "type": "address"
        }
      ],
      "stateMutability": "nonpayable",
      "type": "constructor"
    },
    {
      "anonymous": false,
      "inputs": [
        {
          "indexed": true,
          "internalType": "address",
          "name": "account",
          "type": "address"
        },
        {
          "indexed": true,
          "internalType": "address",
          "name": "operator",
          "type": "address"
        },
        {
          "indexed": false,
          "internalType": "bool",
          "name": "approved",
          "type": "bool"
        }
      ],
      "name": "ApprovalForAll",
      "type": "event"
    },
    {
      "anonymous": false,
      "inputs": [
        {
          "indexed": true,
          "internalType": "address",
          "name": "operator",
          "type": "address"
        },
        {
          "indexed": true,
          "internalType": "address",
          "name": "from",
          "type": "address"
        },
        {
          "indexed": true,
          "internalType": "address",
          "name": "to",
          "type": "address"
        },
        {
          "indexed": false,
          "internalType": "uint256[]",
          "name": "ids",
          "type": "uint256[]"
        },
        {
          "indexed": false,
          "internalType": "uint256[]",
          "name": "values",
          "type": "uint256[]"
        }
      ],
      "name": "TransferBatch",
      "type": "event"
    },
    {
      "anonymous": false,
      "inputs": [
        {
          "indexed": true,
          "internalType": "address",
          "name": "operator",
          "type": "address"
        },
        {
          "indexed": true,
          "internalType": "address",
          "name": "from",
          "type": "address"
        },
        {
          "indexed": true,
          "internalType": "address",
          "name": "to",
          "type": "address"
        },
        {
          "indexed": false,
          "internalType": "uint256",
          "name": "id",
          "type": "uint256"
        },
        {
          "indexed": false,
          "internalType": "uint256",
          "name": "value",
          "type": "uint256"
        }
      ],
      "name": "TransferSingle",
      "type": "event"
    },
    {
      "anonymous": false,
      "inputs": [
        {
          "indexed": false,
          "internalType": "string",
          "name": "value",
          "type": "string"
        },
        {
          "indexed": true,
          "internalType": "uint256",
          "name": "id",
          "type": "uint256"
        }
      ],
      "name": "URI",
      "type": "event"
    },
    {
      "inputs": [
        {
          "internalType": "address",
          "name": "account",
          "type": "address"
        },
        {
          "internalType": "uint256",
          "name": "id",
          "type": "uint256"
        }
      ],
      "name": "balanceOf",
      "outputs": [
        {
          "internalType": "uint256",
          "name": "",
          "type": "uint256"
        }
      ],
      "stateMutability": "view",
      "type": "function"
    },
    {
      "inputs": [
        {
          "internalType": "address[]",
          "name": "accounts",
          "type": "address[]"
        },
        {
          "internalType": "uint256[]",
          "name": "ids",
          "type": "uint256[]"
        }
      ],
      "name": "balanceOfBatch",
      "outputs": [
        {
          "internalType": "uint256[]",
          "name": "",
          "type": "uint256[]"
        }
      ],
      "stateMutability": "view",
      "type": "function"
    },
    {
      "inputs": [
        {
          "internalType": "address",
          "name": "account",
          "type": "address"
        },
        {
          "internalType": "address",
          "name": "operator",
          "type": "address"
        }
      ],
      "name": "isApprovedForAll",
      "outputs": [
        {
          "internalType": "bool",
          "name": "",
          "type": "bool"
        }
      ],
      "stateMutability": "view",
      "type": "function"
    },
    {
      "inputs": [],
      "name": "registeredEndAt",
      "outputs": [
        {
          "internalType": "uint256",
          "name": "",
          "type": "uint256"
        }
      ],
      "stateMutability": "view",
      "type": "function"
    },
    {
      "inputs": [],
      "name": "registeredStartAt",
      "outputs": [
        {
          "internalType": "uint256",
          "name": "",
          "type": "uint256"
        }
      ],
      "stateMutability": "view",
      "type": "function"
    },
    {
      "inputs": [
        {
          "internalType": "address",
          "name": "from",
          "type": "address"
        },
        {
          "internalType": "address",
          "name": "to",
          "type": "address"
        },
        {
          "internalType": "uint256[]",
          "name": "ids",
          "type": "uint256[]"
        },
        {
          "internalType": "uint256[]",
          "name": "amounts",
          "type": "uint256[]"
        },
        {
          "internalType": "bytes",
          "name": "data",
          "type": "bytes"
        }
      ],
      "name": "safeBatchTransferFrom",
      "outputs": [],
      "stateMutability": "nonpayable",
      "type": "function"
    },
    {
      "inputs": [
        {
          "internalType": "address",
          "name": "from",
          "type": "address"
        },
        {
          "internalType": "address",
          "name": "to",
          "type": "address"
        },
        {
          "internalType": "uint256",
          "name": "id",
          "type": "uint256"
        },
        {
          "internalType": "uint256",
          "name": "amount",
          "type": "uint256"
        },
        {
          "internalType": "bytes",
          "name": "data",
          "type": "bytes"
        }
      ],
      "name": "safeTransferFrom",
      "outputs": [],
      "stateMutability": "nonpayable",
      "type": "function"
    },
    {
      "inputs": [],
      "name": "schoolYearEnd",
      "outputs": [
        {
          "internalType": "uint256",
          "name": "",
          "type": "uint256"
        }
      ],
      "stateMutability": "view",
      "type": "function"
    },
    {
      "inputs": [
        {
          "internalType": "address",
          "name": "operator",
          "type": "address"
        },
        {
          "internalType": "bool",
          "name": "approved",
          "type": "bool"
        }
      ],
      "name": "setApprovalForAll",
      "outputs": [],
      "stateMutability": "nonpayable",
      "type": "function"
    },
    {
      "inputs": [
        {
          "internalType": "bytes4",
          "name": "interfaceId",
          "type": "bytes4"
        }
      ],
      "name": "supportsInterface",
      "outputs": [
        {
          "internalType": "bool",
          "name": "",
          "type": "bool"
        }
      ],
      "stateMutability": "view",
      "type": "function"
    },
    {
      "inputs": [
        {
          "internalType": "uint256",
          "name": "tokenId",
          "type": "uint256"
        }
      ],
      "name": "uri",
      "outputs": [
        {
          "internalType": "string",
          "name": "",
          "type": "string"
        }
      ],
      "stateMutability": "view",
      "type": "function"
    },
    {
      "inputs": [],
      "name": "yearId",
      "outputs": [
        {
          "internalType": "uint256",
          "name": "",
          "type": "uint256"
        }
      ],
      "stateMutability": "view",
      "type": "function"
    },
    {
      "inputs": [
        {
          "internalType": "uint256[]",
          "name": "credits",
          "type": "uint256[]"
        },
        {
          "internalType": "string[]",
          "name": "tokenURIs",
          "type": "string[]"
        }
      ],
      "name": "initializeRequirement",
      "outputs": [],
      "stateMutability": "nonpayable",
      "type": "function"
    },
    {
      "inputs": [
        {
          "internalType": "uint256[]",
          "name": "requirementIds",
          "type": "uint256[]"
        },
        {
          "internalType": "uint256[]",
          "name": "credits",
          "type": "uint256[]"
        },
        {
          "internalType": "string[]",
          "name": "tokenURIs",
          "type": "string[]"
        }
      ],
      "name": "initializeCourseTemplate",
      "outputs": [],
      "stateMutability": "nonpayable",
      "type": "function"
    },
    {
      "inputs": [
        {
          "internalType": "uint256",
          "name": "_schoolYearEnd",
          "type": "uint256"
        },
        {
          "internalType": "uint256",
          "name": "_registeredStartAt",
          "type": "uint256"
        },
        {
          "internalType": "uint256",
          "name": "_registeredEndAt",
          "type": "uint256"
        }
      ],
      "name": "initializeYear",
      "outputs": [],
      "stateMutability": "nonpayable",
      "type": "function"
    },
    {
      "inputs": [
        {
          "internalType": "uint256",
          "name": "_registeredStartAt",
          "type": "uint256"
        },
        {
          "internalType": "uint256",
          "name": "_registeredEndAt",
          "type": "uint256"
        }
      ],
      "name": "updateRegisteredTime",
      "outputs": [],
      "stateMutability": "nonpayable",
      "type": "function"
    },
    {
      "inputs": [
        {
          "internalType": "uint256",
          "name": "credits",
          "type": "uint256"
        },
        {
          "internalType": "string",
          "name": "tokenURI",
          "type": "string"
        }
      ],
      "name": "createRequirement",
      "outputs": [],
      "stateMutability": "nonpayable",
      "type": "function"
    },
    {
      "inputs": [
        {
          "internalType": "uint256",
          "name": "tokenId",
          "type": "uint256"
        },
        {
          "internalType": "uint256",
          "name": "credits",
          "type": "uint256"
        }
      ],
      "name": "updateRequirement",
      "outputs": [],
      "stateMutability": "nonpayable",
      "type": "function"
    },
    {
      "inputs": [
        {
          "internalType": "uint256",
          "name": "requirementId",
          "type": "uint256"
        },
        {
          "internalType": "uint256",
          "name": "credits",
          "type": "uint256"
        },
        {
          "internalType": "string",
          "name": "tokenURI",
          "type": "string"
        }
      ],
      "name": "createCourseTemplate",
      "outputs": [],
      "stateMutability": "nonpayable",
      "type": "function"
    },
    {
      "inputs": [
        {
          "internalType": "uint256",
          "name": "tokenId",
          "type": "uint256"
        },
        {
          "internalType": "uint256",
          "name": "credits",
          "type": "uint256"
        }
      ],
      "name": "updateCourseTemplate",
      "outputs": [],
      "stateMutability": "nonpayable",
      "type": "function"
    },
    {
      "inputs": [
        {
          "internalType": "uint256",
          "name": "tokenId",
          "type": "uint256"
        }
      ],
      "name": "burnToken",
      "outputs": [],
      "stateMutability": "nonpayable",
      "type": "function"
    },
    {
      "inputs": [],
      "name": "getRegisteredClasses",
      "outputs": [
        {
          "components": [
            {
              "internalType": "uint256",
              "name": "tokenId",
              "type": "uint256"
            },
            {
              "internalType": "uint256",
              "name": "courseTemplateId",
              "type": "uint256"
            },
            {
              "internalType": "uint256",
              "name": "credits",
              "type": "uint256"
            },
            {
              "internalType": "uint256",
              "name": "completeAt",
              "type": "uint256"
            },
            {
              "internalType": "uint256[]",
              "name": "requiredScore",
              "type": "uint256[]"
            },
            {
              "internalType": "address[]",
              "name": "studentAddresses",
              "type": "address[]"
            },
            {
              "internalType": "uint256",
              "name": "maxSize",
              "type": "uint256"
            },
            {
              "internalType": "address",
              "name": "teacherAddr",
              "type": "address"
            }
          ],
          "internalType": "struct IConstant.NftClass[]",
          "name": "",
          "type": "tuple[]"
        },
        {
          "internalType": "string[]",
          "name": "",
          "type": "string[]"
        }
      ],
      "stateMutability": "view",
      "type": "function"
    },
    {
      "inputs": [],
      "name": "getAllNftRequirements",
      "outputs": [
        {
          "components": [
            {
              "internalType": "uint256",
              "name": "tokenId",
              "type": "uint256"
            },
            {
              "internalType": "uint256",
              "name": "credits",
              "type": "uint256"
            }
          ],
          "internalType": "struct IConstant.NftRequirement[]",
          "name": "",
          "type": "tuple[]"
        },
        {
          "internalType": "string[]",
          "name": "",
          "type": "string[]"
        }
      ],
      "stateMutability": "view",
      "type": "function"
    },
    {
      "inputs": [
        {
          "internalType": "uint256",
          "name": "tokenId",
          "type": "uint256"
        }
      ],
      "name": "getNftRequirement",
      "outputs": [
        {
          "components": [
            {
              "internalType": "uint256",
              "name": "tokenId",
              "type": "uint256"
            },
            {
              "internalType": "uint256",
              "name": "credits",
              "type": "uint256"
            }
          ],
          "internalType": "struct IConstant.NftRequirement",
          "name": "",
          "type": "tuple"
        },
        {
          "internalType": "string",
          "name": "",
          "type": "string"
        }
      ],
      "stateMutability": "view",
      "type": "function"
    },
    {
      "inputs": [
        {
          "internalType": "uint256",
          "name": "tokenId",
          "type": "uint256"
        }
      ],
      "name": "getNftClass",
      "outputs": [
        {
          "components": [
            {
              "internalType": "uint256",
              "name": "tokenId",
              "type": "uint256"
            },
            {
              "internalType": "uint256",
              "name": "courseTemplateId",
              "type": "uint256"
            },
            {
              "internalType": "uint256",
              "name": "credits",
              "type": "uint256"
            },
            {
              "internalType": "uint256",
              "name": "completeAt",
              "type": "uint256"
            },
            {
              "internalType": "uint256[]",
              "name": "requiredScore",
              "type": "uint256[]"
            },
            {
              "internalType": "address[]",
              "name": "studentAddresses",
              "type": "address[]"
            },
            {
              "internalType": "uint256",
              "name": "maxSize",
              "type": "uint256"
            },
            {
              "internalType": "address",
              "name": "teacherAddr",
              "type": "address"
            }
          ],
          "internalType": "struct IConstant.NftClass",
          "name": "",
          "type": "tuple"
        },
        {
          "internalType": "string",
          "name": "",
          "type": "string"
        }
      ],
      "stateMutability": "view",
      "type": "function"
    },
    {
      "inputs": [
        {
          "internalType": "uint256",
          "name": "_yearId",
          "type": "uint256"
        }
      ],
      "name": "getAllNftClasses",
      "outputs": [
        {
          "components": [
            {
              "internalType": "uint256",
              "name": "tokenId",
              "type": "uint256"
            },
            {
              "internalType": "uint256",
              "name": "courseTemplateId",
              "type": "uint256"
            },
            {
              "internalType": "uint256",
              "name": "credits",
              "type": "uint256"
            },
            {
              "internalType": "uint256",
              "name": "completeAt",
              "type": "uint256"
            },
            {
              "internalType": "uint256[]",
              "name": "requiredScore",
              "type": "uint256[]"
            },
            {
              "internalType": "address[]",
              "name": "studentAddresses",
              "type": "address[]"
            },
            {
              "internalType": "uint256",
              "name": "maxSize",
              "type": "uint256"
            },
            {
              "internalType": "address",
              "name": "teacherAddr",
              "type": "address"
            }
          ],
          "internalType": "struct IConstant.NftClass[]",
          "name": "",
          "type": "tuple[]"
        },
        {
          "internalType": "string[]",
          "name": "",
          "type": "string[]"
        }
      ],
      "stateMutability": "view",
      "type": "function"
    },
    {
      "inputs": [],
      "name": "getAllNftCourseTemplate",
      "outputs": [
        {
          "components": [
            {
              "internalType": "uint256",
              "name": "tokenId",
              "type": "uint256"
            },
            {
              "internalType": "uint256",
              "name": "requirementId",
              "type": "uint256"
            },
            {
              "internalType": "uint256",
              "name": "credits",
              "type": "uint256"
            }
          ],
          "internalType": "struct IConstant.NftCourseTemplate[]",
          "name": "",
          "type": "tuple[]"
        }
      ],
      "stateMutability": "view",
      "type": "function"
    },
    {
      "inputs": [
        {
          "internalType": "uint256",
          "name": "tokenId",
          "type": "uint256"
        }
      ],
      "name": "getNftCourseTemplate",
      "outputs": [
        {
          "components": [
            {
              "internalType": "uint256",
              "name": "tokenId",
              "type": "uint256"
            },
            {
              "internalType": "uint256",
              "name": "requirementId",
              "type": "uint256"
            },
            {
              "internalType": "uint256",
              "name": "credits",
              "type": "uint256"
            }
          ],
          "internalType": "struct IConstant.NftCourseTemplate",
          "name": "",
          "type": "tuple"
        }
      ],
      "stateMutability": "view",
      "type": "function"
    },
    {
      "inputs": [
        {
          "internalType": "uint256",
          "name": "tokenId",
          "type": "uint256"
        }
      ],
      "name": "checkTokenExists",
      "outputs": [
        {
          "internalType": "bool",
          "name": "",
          "type": "bool"
        }
      ],
      "stateMutability": "view",
      "type": "function"
    },
    {
      "inputs": [
        {
          "internalType": "uint256",
          "name": "tokenId",
          "type": "uint256"
        },
        {
          "internalType": "uint256",
          "name": "requiredType",
          "type": "uint256"
        }
      ],
      "name": "checkTokenOfTypeExists",
      "outputs": [
        {
          "internalType": "bool",
          "name": "",
          "type": "bool"
        }
      ],
      "stateMutability": "view",
      "type": "function"
    },
    {
      "inputs": [],
      "name": "checkInRegisterDate",
      "outputs": [
        {
          "internalType": "bool",
          "name": "",
          "type": "bool"
        }
      ],
      "stateMutability": "view",
      "type": "function"
    },
    {
      "inputs": [
        {
          "internalType": "uint256",
          "name": "credits",
          "type": "uint256"
        },
        {
          "internalType": "string",
          "name": "tokenURI",
          "type": "string"
        }
      ],
      "name": "_mintNftRequirement",
      "outputs": [
        {
          "internalType": "uint256",
          "name": "",
          "type": "uint256"
        }
      ],
      "stateMutability": "nonpayable",
      "type": "function"
    }
  ],
  "bytecode": "0x608060405260405180602001604052806000815250600390805190602001906200002b92919062000277565b503480156200003957600080fd5b50604051620062663803806200626683398181016040528101906200005f919062000391565b604051806020016040528060008152508062000081816200025b60201b60201c565b5033600560006101000a81548173ffffffffffffffffffffffffffffffffffffffff021916908373ffffffffffffffffffffffffffffffffffffffff1602179055505080600a60006101000a81548173ffffffffffffffffffffffffffffffffffffffff021916908373ffffffffffffffffffffffffffffffffffffffff16021790555042600b81905550600160106000806004811115620001285762000127620003c3565b5b815260200190815260200160002060006101000a81548160ff021916908315150217905550600160106000600160048111156200016a5762000169620003c3565b5b815260200190815260200160002060006101000a81548160ff02191690831515021790555060016010600060026004811115620001ac57620001ab620003c3565b5b815260200190815260200160002060006101000a81548160ff02191690831515021790555060016010600060036004811115620001ee57620001ed620003c3565b5b815260200190815260200160002060006101000a81548160ff0219169083151502179055506001601060006004808111156200022f576200022e620003c3565b5b815260200190815260200160002060006101000a81548160ff0219169083151502179055505062000456565b80600290805190602001906200027392919062000277565b5050565b828054620002859062000421565b90600052602060002090601f016020900481019282620002a95760008555620002f5565b82601f10620002c457805160ff1916838001178555620002f5565b82800160010185558215620002f5579182015b82811115620002f4578251825591602001919060010190620002d7565b5b50905062000304919062000308565b5090565b5b808211156200032357600081600090555060010162000309565b5090565b600080fd5b600073ffffffffffffffffffffffffffffffffffffffff82169050919050565b600062000359826200032c565b9050919050565b6200036b816200034c565b81146200037757600080fd5b50565b6000815190506200038b8162000360565b92915050565b600060208284031215620003aa57620003a962000327565b5b6000620003ba848285016200037a565b91505092915050565b7f4e487b7100000000000000000000000000000000000000000000000000000000600052602160045260246000fd5b7f4e487b7100000000000000000000000000000000000000000000000000000000600052602260045260246000fd5b600060028204905060018216806200043a57607f821691505b60208210810362000450576200044f620003f2565b5b50919050565b615e0080620004666000396000f3fe608060405234801561001057600080fd5b50600436106101ef5760003560e01c806382ae3c971161010f578063bfd5621e116100a2578063ecb1fa5511610071578063ecb1fa55146105f2578063f0b841df14610623578063f242432a14610641578063fe7a85e51461065d576101ef565b8063bfd5621e14610544578063c6a3c0db14610574578063df4e4891146105a4578063e985e9c5146105c2576101ef565b8063a45f35c4116100de578063a45f35c4146104d2578063ace48af9146104ee578063af0d1cb51461050a578063b105507514610528576101ef565b806382ae3c971461044b5780638f03802d146104675780638fc92b0f14610485578063a22cb465146104b6576101ef565b80632eb2c2d611610187578063645f833f11610156578063645f833f146103d35780636d6ffaf6146103f257806375f1a6e3146104115780637b47ec1a1461042f576101ef565b80632eb2c2d6146103265780633a9f61d9146103425780634e1273f4146103725780634eeb177f146103a2576101ef565b806311394f56116101c357806311394f56146102a057806317b63e89146102be5780631a53e484146102da57806329f60c4f1461030a576101ef565b8062fdd58e146101f457806301ffc9a71461022457806303aa731e146102545780630e89341c14610270575b600080fd5b61020e600480360381019061020991906136ed565b610679565b60405161021b919061373c565b60405180910390f35b61023e600480360381019061023991906137af565b610741565b60405161024b91906137f7565b60405180910390f35b61026e60048036038101906102699190613812565b610823565b005b61028a60048036038101906102859190613852565b610976565b6040516102979190613918565b60405180910390f35b6102a8610a5b565b6040516102b5919061373c565b60405180910390f35b6102d860048036038101906102d39190613a6f565b610a61565b005b6102f460048036038101906102ef9190613812565b610b27565b60405161030191906137f7565b60405180910390f35b610324600480360381019061031f9190613812565b610b77565b005b610340600480360381019061033b9190613c34565b610c69565b005b61035c60048036038101906103579190613852565b610d0a565b6040516103699190613d54565b60405180910390f35b61038c60048036038101906103879190613e32565b610dde565b6040516103999190613f59565b60405180910390f35b6103bc60048036038101906103b79190613852565b610ef7565b6040516103ca92919061432d565b60405180910390f35b6103db610fab565b6040516103e9929190614442565b60405180910390f35b6103fa6110ec565b60405161040892919061432d565b60405180910390f35b6104196111a1565b60405161042691906137f7565b60405180910390f35b61044960048036038101906104449190613852565b6111bc565b005b61046560048036038101906104609190614479565b61129f565b005b61046f6113bf565b60405161047c919061373c565b60405180910390f35b61049f600480360381019061049a9190613852565b6113c5565b6040516104ad929190614583565b60405180910390f35b6104d060048036038101906104cb91906145e6565b6115fa565b005b6104ec60048036038101906104e79190614626565b611610565b005b61050860048036038101906105039190614776565b6116d8565b005b6105126117f6565b60405161051f919061373c565b60405180910390f35b610542600480360381019061053d9190613812565b6117fc565b005b61055e60048036038101906105599190613852565b61194f565b60405161056b91906137f7565b60405180910390f35b61058e60048036038101906105899190613a6f565b611993565b60405161059b919061373c565b60405180910390f35b6105ac611a2b565b6040516105b9919061373c565b60405180910390f35b6105dc60048036038101906105d791906147ee565b611a31565b6040516105e991906137f7565b60405180910390f35b61060c60048036038101906106079190613852565b611ac5565b60405161061a92919061485d565b60405180910390f35b61062b611b9f565b604051610638919061497e565b60405180910390f35b61065b600480360381019061065691906149a0565b611c76565b005b61067760048036038101906106729190614a37565b611d17565b005b60008073ffffffffffffffffffffffffffffffffffffffff168373ffffffffffffffffffffffffffffffffffffffff16036106e9576040517f08c379a00000000000000000000000000000000000000000000000000000000081526004016106e090614b50565b60405180910390fd5b60008083815260200190815260200160002060008473ffffffffffffffffffffffffffffffffffffffff1673ffffffffffffffffffffffffffffffffffffffff16815260200190815260200160002054905092915050565b60007fd9b67a26000000000000000000000000000000000000000000000000000000007bffffffffffffffffffffffffffffffffffffffffffffffffffffffff1916827bffffffffffffffffffffffffffffffffffffffffffffffffffffffff1916148061080c57507f0e89341c000000000000000000000000000000000000000000000000000000007bffffffffffffffffffffffffffffffffffffffffffffffffffffffff1916827bffffffffffffffffffffffffffffffffffffffffffffffffffffffff1916145b8061081c575061081b82611e5f565b5b9050919050565b3373ffffffffffffffffffffffffffffffffffffffff16600560009054906101000a900473ffffffffffffffffffffffffffffffffffffffff1673ffffffffffffffffffffffffffffffffffffffff161461087d57600080fd5b600b54421161088b57600080fd5b600081116108ce576040517f08c379a00000000000000000000000000000000000000000000000000000000081526004016108c590614bbc565b60405180910390fd5b6000601460006001815260200190815260200160002060008481526020019081526020016000205490506000811161093b576040517f08c379a000000000000000000000000000000000000000000000000000000000815260040161093290614c28565b60405180910390fd5b81601160018361094b9190614c77565b8154811061095c5761095b614cab565b5b906000526020600020906002020160010181905550505050565b6060600060046000848152602001908152602001600020805461099890614d09565b80601f01602080910402602001604051908101604052809291908181526020018280546109c490614d09565b8015610a115780601f106109e657610100808354040283529160200191610a11565b820191906000526020600020905b8154815290600101906020018083116109f457829003601f168201915b505050505090506000815111610a2f57610a2a83611ec9565b610a53565b600381604051602001610a43929190614e0a565b6040516020818303038152906040525b915050919050565b600b5481565b3373ffffffffffffffffffffffffffffffffffffffff16600560009054906101000a900473ffffffffffffffffffffffffffffffffffffffff1673ffffffffffffffffffffffffffffffffffffffff1614610abb57600080fd5b600b544211610ac957600080fd5b600a60149054906101000a900460ff16610b18576040517f08c379a0000000000000000000000000000000000000000000000000000000008152600401610b0f90614ea0565b60405180910390fd5b610b228282611993565b505050565b600080610b3384611f5d565b90506000601460008381526020019081526020016000206000868152602001908152602001600020549050600081118015610b6d57508382145b9250505092915050565b3373ffffffffffffffffffffffffffffffffffffffff16600560009054906101000a900473ffffffffffffffffffffffffffffffffffffffff1673ffffffffffffffffffffffffffffffffffffffff1614610bd157600080fd5b818111610c13576040517f08c379a0000000000000000000000000000000000000000000000000000000008152600401610c0a90614f32565b60405180910390fd5b80600b5411610c57576040517f08c379a0000000000000000000000000000000000000000000000000000000008152600401610c4e90614fc4565b60405180910390fd5b81600c8190555080600d819055505050565b610c71611f6b565b73ffffffffffffffffffffffffffffffffffffffff168573ffffffffffffffffffffffffffffffffffffffff161480610cb75750610cb685610cb1611f6b565b611a31565b5b610cf6576040517f08c379a0000000000000000000000000000000000000000000000000000000008152600401610ced90615056565b60405180910390fd5b610d038585858585611f73565b5050505050565b610d1261350c565b60006014600060028152602001908152602001600020600084815260200190815260200160002054905060008111610d7f576040517f08c379a0000000000000000000000000000000000000000000000000000000008152600401610d7690614c28565b60405180910390fd5b6012600182610d8e9190614c77565b81548110610d9f57610d9e614cab565b5b90600052602060002090600302016040518060600160405290816000820154815260200160018201548152602001600282015481525050915050919050565b60608151835114610e24576040517f08c379a0000000000000000000000000000000000000000000000000000000008152600401610e1b906150e8565b60405180910390fd5b6000835167ffffffffffffffff811115610e4157610e40613944565b5b604051908082528060200260200182016040528015610e6f5781602001602082028036833780820191505090505b50905060005b8451811015610eec57610ebc858281518110610e9457610e93614cab565b5b6020026020010151858381518110610eaf57610eae614cab565b5b6020026020010151610679565b828281518110610ecf57610ece614cab565b5b60200260200101818152505080610ee590615108565b9050610e75565b508091505092915050565b6060803373ffffffffffffffffffffffffffffffffffffffff16600560009054906101000a900473ffffffffffffffffffffffffffffffffffffffff1673ffffffffffffffffffffffffffffffffffffffff1614610f5457600080fd5b600e54831115610f99576040517f08c379a0000000000000000000000000000000000000000000000000000000008152600401610f909061519c565b60405180910390fd5b610fa283612294565b91509150915091565b6060806000601180549050905060008167ffffffffffffffff811115610fd457610fd3613944565b5b60405190808252806020026020018201604052801561100757816020015b6060815260200190600190039081610ff25790505b50905060005b828111611071576110426011828154811061102b5761102a614cab565b5b906000526020600020906002020160000154610976565b82828151811061105557611054614cab565b5b60200260200101819052508061106a90615108565b905061100d565b5060118181805480602002602001604051908101604052809291908181526020016000905b828210156110dc57838290600052602060002090600202016040518060400160405290816000820154815260200160018201548152505081526020019060010190611096565b5050505091509350935050509091565b606080600560009054906101000a900473ffffffffffffffffffffffffffffffffffffffff1673ffffffffffffffffffffffffffffffffffffffff163373ffffffffffffffffffffffffffffffffffffffff16148061114f575061114e6111a1565b5b61118e576040517f08c379a000000000000000000000000000000000000000000000000000000000815260040161118590615208565b60405180910390fd5b611199600e54612294565b915091509091565b6000600c5442101580156111b75750600d544211155b905090565b3373ffffffffffffffffffffffffffffffffffffffff16600560009054906101000a900473ffffffffffffffffffffffffffffffffffffffff1673ffffffffffffffffffffffffffffffffffffffff161461121657600080fd5b600b54421161122457600080fd5b8061122e8161194f565b61126d576040517f08c379a000000000000000000000000000000000000000000000000000000000815260040161126490615274565b60405180910390fd5b61129b600560009054906101000a900473ffffffffffffffffffffffffffffffffffffffff16836001612456565b5050565b3373ffffffffffffffffffffffffffffffffffffffff16600560009054906101000a900473ffffffffffffffffffffffffffffffffffffffff1673ffffffffffffffffffffffffffffffffffffffff16146112f957600080fd5b600b54421161130757600080fd5b818111611349576040517f08c379a000000000000000000000000000000000000000000000000000000000815260040161134090614f32565b60405180910390fd5b80831161138b576040517f08c379a000000000000000000000000000000000000000000000000000000000815260040161138290614fc4565b60405180910390fd5b82600b8190555081600c8190555080600d819055506001600e60008282546113b39190615294565b92505081905550505050565b600d5481565b6113cd61352d565b60606000601460006003815260200190815260200160002060008581526020019081526020016000205490506000811161143c576040517f08c379a000000000000000000000000000000000000000000000000000000000815260040161143390614c28565b60405180910390fd5b601360018261144b9190614c77565b8154811061145c5761145b614cab565b5b906000526020600020906008020161147385610976565b816040518061010001604052908160008201548152602001600182015481526020016002820154815260200160038201548152602001600482018054806020026020016040519081016040528092919081815260200182805480156114f757602002820191906000526020600020905b8154815260200190600101908083116114e3575b505050505081526020016005820180548060200260200160405190810160405280929190818152602001828054801561158557602002820191906000526020600020905b8160009054906101000a900473ffffffffffffffffffffffffffffffffffffffff1673ffffffffffffffffffffffffffffffffffffffff168152602001906001019080831161153b575b50505050508152602001600682015481526020016007820160009054906101000a900473ffffffffffffffffffffffffffffffffffffffff1673ffffffffffffffffffffffffffffffffffffffff1673ffffffffffffffffffffffffffffffffffffffff168152505091509250925050915091565b61160c611605611f6b565b838361269c565b5050565b3373ffffffffffffffffffffffffffffffffffffffff16600560009054906101000a900473ffffffffffffffffffffffffffffffffffffffff1673ffffffffffffffffffffffffffffffffffffffff161461166a57600080fd5b600b54421161167857600080fd5b600a60159054906101000a900460ff166116c7576040517f08c379a00000000000000000000000000000000000000000000000000000000081526004016116be9061535c565b60405180910390fd5b6116d2838383612808565b50505050565b3373ffffffffffffffffffffffffffffffffffffffff16600560009054906101000a900473ffffffffffffffffffffffffffffffffffffffff1673ffffffffffffffffffffffffffffffffffffffff161461173257600080fd5b600a60149054906101000a900460ff1615611782576040517f08c379a0000000000000000000000000000000000000000000000000000000008152600401611779906153c8565b60405180910390fd5b805182511461179057600080fd5b60008251905060005b8181116117f0576117de8482815181106117b6576117b5614cab565b5b60200260200101518483815181106117d1576117d0614cab565b5b6020026020010151611993565b50806117e990615108565b9050611799565b50505050565b600c5481565b3373ffffffffffffffffffffffffffffffffffffffff16600560009054906101000a900473ffffffffffffffffffffffffffffffffffffffff1673ffffffffffffffffffffffffffffffffffffffff161461185657600080fd5b600b54421161186457600080fd5b600081116118a7576040517f08c379a000000000000000000000000000000000000000000000000000000000815260040161189e90614bbc565b60405180910390fd5b60006014600060028152602001908152602001600020600084815260200190815260200160002054905060008111611914576040517f08c379a000000000000000000000000000000000000000000000000000000000815260040161190b90614c28565b60405180910390fd5b8160126001836119249190614c77565b8154811061193557611934614cab565b5b906000526020600020906003020160020181905550505050565b60008061195b83611f5d565b905060006014600083815260200190815260200160002060008581526020019081526020016000205490506000811192505050919050565b6000806119a160018461282e565b90506119ad8185612968565b611a21600560009054906101000a900473ffffffffffffffffffffffffffffffffffffffff168260016000368080601f016020809104026020016040519081016040528093929190818152602001838380828437600081840152601f19601f82011690508083019250505050505050612a3a565b8091505092915050565b600e5481565b6000600160008473ffffffffffffffffffffffffffffffffffffffff1673ffffffffffffffffffffffffffffffffffffffff16815260200190815260200160002060008373ffffffffffffffffffffffffffffffffffffffff1673ffffffffffffffffffffffffffffffffffffffff16815260200190815260200160002060009054906101000a900460ff16905092915050565b611acd613588565b606060006014600060018152602001908152602001600020600085815260200190815260200160002054905060008111611b3c576040517f08c379a0000000000000000000000000000000000000000000000000000000008152600401611b3390614c28565b60405180910390fd5b6011600182611b4b9190614c77565b81548110611b5c57611b5b614cab565b5b9060005260206000209060020201611b7385610976565b816040518060400160405290816000820154815260200160018201548152505091509250925050915091565b60603373ffffffffffffffffffffffffffffffffffffffff16600560009054906101000a900473ffffffffffffffffffffffffffffffffffffffff1673ffffffffffffffffffffffffffffffffffffffff1614611bfb57600080fd5b6012805480602002602001604051908101604052809291908181526020016000905b82821015611c6d5783829060005260206000209060030201604051806060016040529081600082015481526020016001820154815260200160028201548152505081526020019060010190611c1d565b50505050905090565b611c7e611f6b565b73ffffffffffffffffffffffffffffffffffffffff168573ffffffffffffffffffffffffffffffffffffffff161480611cc45750611cc385611cbe611f6b565b611a31565b5b611d03576040517f08c379a0000000000000000000000000000000000000000000000000000000008152600401611cfa90615056565b60405180910390fd5b611d108585858585612bea565b5050505050565b3373ffffffffffffffffffffffffffffffffffffffff16600560009054906101000a900473ffffffffffffffffffffffffffffffffffffffff1673ffffffffffffffffffffffffffffffffffffffff1614611d7157600080fd5b600a60159054906101000a900460ff1615611dc1576040517f08c379a0000000000000000000000000000000000000000000000000000000008152600401611db890615434565b60405180910390fd5b8051835114611dcf57600080fd5b8051835114611ddd57600080fd5b60008251905060005b818111611e5857611e46858281518110611e0357611e02614cab565b5b6020026020010151858381518110611e1e57611e1d614cab565b5b6020026020010151858481518110611e3957611e38614cab565b5b6020026020010151612808565b5080611e5190615108565b9050611de6565b5050505050565b60007f01ffc9a7000000000000000000000000000000000000000000000000000000007bffffffffffffffffffffffffffffffffffffffffffffffffffffffff1916827bffffffffffffffffffffffffffffffffffffffffffffffffffffffff1916149050919050565b606060028054611ed890614d09565b80601f0160208091040260200160405190810160405280929190818152602001828054611f0490614d09565b8015611f515780601f10611f2657610100808354040283529160200191611f51565b820191906000526020600020905b815481529060010190602001808311611f3457829003601f168201915b50505050509050919050565b6000601082901c9050919050565b600033905090565b8151835114611fb7576040517f08c379a0000000000000000000000000000000000000000000000000000000008152600401611fae906154c6565b60405180910390fd5b600073ffffffffffffffffffffffffffffffffffffffff168473ffffffffffffffffffffffffffffffffffffffff1603612026576040517f08c379a000000000000000000000000000000000000000000000000000000000815260040161201d90615558565b60405180910390fd5b6000612030611f6b565b9050612040818787878787612e85565b60005b84518110156121f157600085828151811061206157612060614cab565b5b6020026020010151905060008583815181106120805761207f614cab565b5b60200260200101519050600080600084815260200190815260200160002060008b73ffffffffffffffffffffffffffffffffffffffff1673ffffffffffffffffffffffffffffffffffffffff16815260200190815260200160002054905081811015612121576040517f08c379a0000000000000000000000000000000000000000000000000000000008152600401612118906155ea565b60405180910390fd5b81810360008085815260200190815260200160002060008c73ffffffffffffffffffffffffffffffffffffffff1673ffffffffffffffffffffffffffffffffffffffff168152602001908152602001600020819055508160008085815260200190815260200160002060008b73ffffffffffffffffffffffffffffffffffffffff1673ffffffffffffffffffffffffffffffffffffffff16815260200190815260200160002060008282546121d69190615294565b92505081905550505050806121ea90615108565b9050612043565b508473ffffffffffffffffffffffffffffffffffffffff168673ffffffffffffffffffffffffffffffffffffffff168273ffffffffffffffffffffffffffffffffffffffff167f4a39dc06d4c0dbc64b70af90fd698a233a518aa5d07e595d983b8c0526c8f7fb878760405161226892919061560a565b60405180910390a461227e818787878787612e8d565b61228c818787878787612e95565b505050505050565b6060803373ffffffffffffffffffffffffffffffffffffffff16600560009054906101000a900473ffffffffffffffffffffffffffffffffffffffff1673ffffffffffffffffffffffffffffffffffffffff16146122f157600080fd5b6000600f600085815260200190815260200160002080549050905060008167ffffffffffffffff81111561232857612327613944565b5b60405190808252806020026020018201604052801561236157816020015b61234e61352d565b8152602001906001900390816123465790505b50905060008267ffffffffffffffff8111156123805761237f613944565b5b6040519080825280602002602001820160405280156123b357816020015b606081526020019060019003908161239e5790505b50905060005b838111612447576123fa600f6000600e54815260200190815260200160002082815481106123ea576123e9614cab565b5b90600052602060002001546113c5565b84838151811061240d5761240c614cab565b5b6020026020010184848151811061242757612426614cab565b5b6020026020010182905282905250508061244090615108565b90506123b9565b50818194509450505050915091565b600073ffffffffffffffffffffffffffffffffffffffff168373ffffffffffffffffffffffffffffffffffffffff16036124c5576040517f08c379a00000000000000000000000000000000000000000000000000000000081526004016124bc906156b3565b60405180910390fd5b60006124cf611f6b565b905060006124dc8461306c565b905060006124e98461306c565b905061250983876000858560405180602001604052806000815250612e85565b600080600087815260200190815260200160002060008873ffffffffffffffffffffffffffffffffffffffff1673ffffffffffffffffffffffffffffffffffffffff168152602001908152602001600020549050848110156125a0576040517f08c379a000000000000000000000000000000000000000000000000000000000815260040161259790615745565b60405180910390fd5b84810360008088815260200190815260200160002060008973ffffffffffffffffffffffffffffffffffffffff1673ffffffffffffffffffffffffffffffffffffffff16815260200190815260200160002081905550600073ffffffffffffffffffffffffffffffffffffffff168773ffffffffffffffffffffffffffffffffffffffff168573ffffffffffffffffffffffffffffffffffffffff167fc3d58168c5ae7397731d063d5bbf3d657854427343f4c083240f7aacaa2d0f62898960405161266d929190615765565b60405180910390a461269384886000868660405180602001604052806000815250612e8d565b50505050505050565b8173ffffffffffffffffffffffffffffffffffffffff168373ffffffffffffffffffffffffffffffffffffffff160361270a576040517f08c379a000000000000000000000000000000000000000000000000000000000815260040161270190615800565b60405180910390fd5b80600160008573ffffffffffffffffffffffffffffffffffffffff1673ffffffffffffffffffffffffffffffffffffffff16815260200190815260200160002060008473ffffffffffffffffffffffffffffffffffffffff1673ffffffffffffffffffffffffffffffffffffffff16815260200190815260200160002060006101000a81548160ff0219169083151502179055508173ffffffffffffffffffffffffffffffffffffffff168373ffffffffffffffffffffffffffffffffffffffff167f17307eab39ab6107e8899845ad3d59bd9653f200f220920489ca2b5937696c31836040516127fb91906137f7565b60405180910390a3505050565b60008061281660028461282e565b90506128238186866130e6565b809150509392505050565b60006007826040516128409190615820565b908152602001604051809103902060009054906101000a900460ff161561289c576040517f08c379a000000000000000000000000000000000000000000000000000000000815260040161289390615883565b60405180910390fd5b60006128a784613237565b905061291d600560009054906101000a900473ffffffffffffffffffffffffffffffffffffffff168260016000368080601f016020809104026020016040519081016040528093929190818152602001838380828437600081840152601f19601f82011690508083019250505050505050612a3a565b6129278184613282565b60016007846040516129399190615820565b908152602001604051809103902060006101000a81548160ff0219169083151502179055508091505092915050565b600081116129ab576040517f08c379a00000000000000000000000000000000000000000000000000000000081526004016129a290615915565b60405180910390fd5b600060405180604001604052808481526020018381525090506011819080600181540180825580915050600190039060005260206000209060020201600090919091909150600082015181600001556020820151816001015550506011805490506014600060018152602001908152602001600020600085815260200190815260200160002081905550505050565b600073ffffffffffffffffffffffffffffffffffffffff168473ffffffffffffffffffffffffffffffffffffffff1603612aa9576040517f08c379a0000000000000000000000000000000000000000000000000000000008152600401612aa0906159a7565b60405180910390fd5b6000612ab3611f6b565b90506000612ac08561306c565b90506000612acd8561306c565b9050612ade83600089858589612e85565b8460008088815260200190815260200160002060008973ffffffffffffffffffffffffffffffffffffffff1673ffffffffffffffffffffffffffffffffffffffff1681526020019081526020016000206000828254612b3d9190615294565b925050819055508673ffffffffffffffffffffffffffffffffffffffff16600073ffffffffffffffffffffffffffffffffffffffff168473ffffffffffffffffffffffffffffffffffffffff167fc3d58168c5ae7397731d063d5bbf3d657854427343f4c083240f7aacaa2d0f628989604051612bbb929190615765565b60405180910390a4612bd283600089858589612e8d565b612be1836000898989896132ee565b50505050505050565b600073ffffffffffffffffffffffffffffffffffffffff168473ffffffffffffffffffffffffffffffffffffffff1603612c59576040517f08c379a0000000000000000000000000000000000000000000000000000000008152600401612c5090615558565b60405180910390fd5b6000612c63611f6b565b90506000612c708561306c565b90506000612c7d8561306c565b9050612c8d838989858589612e85565b600080600088815260200190815260200160002060008a73ffffffffffffffffffffffffffffffffffffffff1673ffffffffffffffffffffffffffffffffffffffff16815260200190815260200160002054905085811015612d24576040517f08c379a0000000000000000000000000000000000000000000000000000000008152600401612d1b906155ea565b60405180910390fd5b85810360008089815260200190815260200160002060008b73ffffffffffffffffffffffffffffffffffffffff1673ffffffffffffffffffffffffffffffffffffffff168152602001908152602001600020819055508560008089815260200190815260200160002060008a73ffffffffffffffffffffffffffffffffffffffff1673ffffffffffffffffffffffffffffffffffffffff1681526020019081526020016000206000828254612dd99190615294565b925050819055508773ffffffffffffffffffffffffffffffffffffffff168973ffffffffffffffffffffffffffffffffffffffff168573ffffffffffffffffffffffffffffffffffffffff167fc3d58168c5ae7397731d063d5bbf3d657854427343f4c083240f7aacaa2d0f628a8a604051612e56929190615765565b60405180910390a4612e6c848a8a86868a612e8d565b612e7a848a8a8a8a8a6132ee565b505050505050505050565b505050505050565b505050505050565b612eb48473ffffffffffffffffffffffffffffffffffffffff166134c5565b15613064578373ffffffffffffffffffffffffffffffffffffffff1663bc197c8187878686866040518663ffffffff1660e01b8152600401612efa959493929190615a2b565b6020604051808303816000875af1925050508015612f3657506040513d601f19601f82011682018060405250810190612f339190615aa8565b60015b612fdb57612f42615ae2565b806308c379a003612f9e5750612f56615b04565b80612f615750612fa0565b806040517f08c379a0000000000000000000000000000000000000000000000000000000008152600401612f959190613918565b60405180910390fd5b505b6040517f08c379a0000000000000000000000000000000000000000000000000000000008152600401612fd290615c06565b60405180910390fd5b63bc197c8160e01b7bffffffffffffffffffffffffffffffffffffffffffffffffffffffff1916817bffffffffffffffffffffffffffffffffffffffffffffffffffffffff191614613062576040517f08c379a000000000000000000000000000000000000000000000000000000000815260040161305990615c98565b60405180910390fd5b505b505050505050565b60606000600167ffffffffffffffff81111561308b5761308a613944565b5b6040519080825280602002602001820160405280156130b95781602001602082028036833780820191505090505b50905082816000815181106130d1576130d0614cab565b5b60200260200101818152505080915050919050565b60006014600060018152602001908152602001600020600084815260200190815260200160002054905060008111613153576040517f08c379a000000000000000000000000000000000000000000000000000000000815260040161314a90615d50565b60405180910390fd5b60048211613196576040517f08c379a000000000000000000000000000000000000000000000000000000000815260040161318d90615915565b60405180910390fd5b600060405180606001604052808681526020018581526020018481525090506012819080600181540180825580915050600190039060005260206000209060030201600090919091909150600082015181600001556020820151816001015560408201518160020155505060128054905060146000600281526020019081526020016000206000878152602001908152602001600020819055505050505050565b6000613254600660008481526020019081526020016000206134e8565b6000613271600660008581526020019081526020016000206134fe565b905080601084901b17915050919050565b806004600084815260200190815260200160002090805190602001906132a99291906135a2565b50817f6bb7ff708619ba0610cba295a58592e0451dee2622938c8755667688daf3529b6132d584610976565b6040516132e29190613918565b60405180910390a25050565b61330d8473ffffffffffffffffffffffffffffffffffffffff166134c5565b156134bd578373ffffffffffffffffffffffffffffffffffffffff1663f23a6e6187878686866040518663ffffffff1660e01b8152600401613353959493929190615d70565b6020604051808303816000875af192505050801561338f57506040513d601f19601f8201168201806040525081019061338c9190615aa8565b60015b6134345761339b615ae2565b806308c379a0036133f757506133af615b04565b806133ba57506133f9565b806040517f08c379a00000000000000000000000000000000000000000000000000000000081526004016133ee9190613918565b60405180910390fd5b505b6040517f08c379a000000000000000000000000000000000000000000000000000000000815260040161342b90615c06565b60405180910390fd5b63f23a6e6160e01b7bffffffffffffffffffffffffffffffffffffffffffffffffffffffff1916817bffffffffffffffffffffffffffffffffffffffffffffffffffffffff1916146134bb576040517f08c379a00000000000000000000000000000000000000000000000000000000081526004016134b290615c98565b60405180910390fd5b505b505050505050565b6000808273ffffffffffffffffffffffffffffffffffffffff163b119050919050565b6001816000016000828254019250508190555050565b600081600001549050919050565b60405180606001604052806000815260200160008152602001600081525090565b60405180610100016040528060008152602001600081526020016000815260200160008152602001606081526020016060815260200160008152602001600073ffffffffffffffffffffffffffffffffffffffff1681525090565b604051806040016040528060008152602001600081525090565b8280546135ae90614d09565b90600052602060002090601f0160209004810192826135d05760008555613617565b82601f106135e957805160ff1916838001178555613617565b82800160010185558215613617579182015b828111156136165782518255916020019190600101906135fb565b5b5090506136249190613628565b5090565b5b80821115613641576000816000905550600101613629565b5090565b6000604051905090565b600080fd5b600080fd5b600073ffffffffffffffffffffffffffffffffffffffff82169050919050565b600061368482613659565b9050919050565b61369481613679565b811461369f57600080fd5b50565b6000813590506136b18161368b565b92915050565b6000819050919050565b6136ca816136b7565b81146136d557600080fd5b50565b6000813590506136e7816136c1565b92915050565b600080604083850312156137045761370361364f565b5b6000613712858286016136a2565b9250506020613723858286016136d8565b9150509250929050565b613736816136b7565b82525050565b6000602082019050613751600083018461372d565b92915050565b60007fffffffff0000000000000000000000000000000000000000000000000000000082169050919050565b61378c81613757565b811461379757600080fd5b50565b6000813590506137a981613783565b92915050565b6000602082840312156137c5576137c461364f565b5b60006137d38482850161379a565b91505092915050565b60008115159050919050565b6137f1816137dc565b82525050565b600060208201905061380c60008301846137e8565b92915050565b600080604083850312156138295761382861364f565b5b6000613837858286016136d8565b9250506020613848858286016136d8565b9150509250929050565b6000602082840312156138685761386761364f565b5b6000613876848285016136d8565b91505092915050565b600081519050919050565b600082825260208201905092915050565b60005b838110156138b957808201518184015260208101905061389e565b838111156138c8576000848401525b50505050565b6000601f19601f8301169050919050565b60006138ea8261387f565b6138f4818561388a565b935061390481856020860161389b565b61390d816138ce565b840191505092915050565b6000602082019050818103600083015261393281846138df565b905092915050565b600080fd5b600080fd5b7f4e487b7100000000000000000000000000000000000000000000000000000000600052604160045260246000fd5b61397c826138ce565b810181811067ffffffffffffffff8211171561399b5761399a613944565b5b80604052505050565b60006139ae613645565b90506139ba8282613973565b919050565b600067ffffffffffffffff8211156139da576139d9613944565b5b6139e3826138ce565b9050602081019050919050565b82818337600083830152505050565b6000613a12613a0d846139bf565b6139a4565b905082815260208101848484011115613a2e57613a2d61393f565b5b613a398482856139f0565b509392505050565b600082601f830112613a5657613a5561393a565b5b8135613a668482602086016139ff565b91505092915050565b60008060408385031215613a8657613a8561364f565b5b6000613a94858286016136d8565b925050602083013567ffffffffffffffff811115613ab557613ab4613654565b5b613ac185828601613a41565b9150509250929050565b600067ffffffffffffffff821115613ae657613ae5613944565b5b602082029050602081019050919050565b600080fd5b6000613b0f613b0a84613acb565b6139a4565b90508083825260208201905060208402830185811115613b3257613b31613af7565b5b835b81811015613b5b5780613b4788826136d8565b845260208401935050602081019050613b34565b5050509392505050565b600082601f830112613b7a57613b7961393a565b5b8135613b8a848260208601613afc565b91505092915050565b600067ffffffffffffffff821115613bae57613bad613944565b5b613bb7826138ce565b9050602081019050919050565b6000613bd7613bd284613b93565b6139a4565b905082815260208101848484011115613bf357613bf261393f565b5b613bfe8482856139f0565b509392505050565b600082601f830112613c1b57613c1a61393a565b5b8135613c2b848260208601613bc4565b91505092915050565b600080600080600060a08688031215613c5057613c4f61364f565b5b6000613c5e888289016136a2565b9550506020613c6f888289016136a2565b945050604086013567ffffffffffffffff811115613c9057613c8f613654565b5b613c9c88828901613b65565b935050606086013567ffffffffffffffff811115613cbd57613cbc613654565b5b613cc988828901613b65565b925050608086013567ffffffffffffffff811115613cea57613ce9613654565b5b613cf688828901613c06565b9150509295509295909350565b613d0c816136b7565b82525050565b606082016000820151613d286000850182613d03565b506020820151613d3b6020850182613d03565b506040820151613d4e6040850182613d03565b50505050565b6000606082019050613d696000830184613d12565b92915050565b600067ffffffffffffffff821115613d8a57613d89613944565b5b602082029050602081019050919050565b6000613dae613da984613d6f565b6139a4565b90508083825260208201905060208402830185811115613dd157613dd0613af7565b5b835b81811015613dfa5780613de688826136a2565b845260208401935050602081019050613dd3565b5050509392505050565b600082601f830112613e1957613e1861393a565b5b8135613e29848260208601613d9b565b91505092915050565b60008060408385031215613e4957613e4861364f565b5b600083013567ffffffffffffffff811115613e6757613e66613654565b5b613e7385828601613e04565b925050602083013567ffffffffffffffff811115613e9457613e93613654565b5b613ea085828601613b65565b9150509250929050565b600081519050919050565b600082825260208201905092915050565b6000819050602082019050919050565b6000613ee28383613d03565b60208301905092915050565b6000602082019050919050565b6000613f0682613eaa565b613f108185613eb5565b9350613f1b83613ec6565b8060005b83811015613f4c578151613f338882613ed6565b9750613f3e83613eee565b925050600181019050613f1f565b5085935050505092915050565b60006020820190508181036000830152613f738184613efb565b905092915050565b600081519050919050565b600082825260208201905092915050565b6000819050602082019050919050565b600082825260208201905092915050565b6000613fc382613eaa565b613fcd8185613fa7565b9350613fd883613ec6565b8060005b83811015614009578151613ff08882613ed6565b9750613ffb83613eee565b925050600181019050613fdc565b5085935050505092915050565b600081519050919050565b600082825260208201905092915050565b6000819050602082019050919050565b61404b81613679565b82525050565b600061405d8383614042565b60208301905092915050565b6000602082019050919050565b600061408182614016565b61408b8185614021565b935061409683614032565b8060005b838110156140c75781516140ae8882614051565b97506140b983614069565b92505060018101905061409a565b5085935050505092915050565b6000610100830160008301516140ed6000860182613d03565b5060208301516141006020860182613d03565b5060408301516141136040860182613d03565b5060608301516141266060860182613d03565b506080830151848203608086015261413e8282613fb8565b91505060a083015184820360a08601526141588282614076565b91505060c083015161416d60c0860182613d03565b5060e083015161418060e0860182614042565b508091505092915050565b600061419783836140d4565b905092915050565b6000602082019050919050565b60006141b782613f7b565b6141c18185613f86565b9350836020820285016141d385613f97565b8060005b8581101561420f57848403895281516141f0858261418b565b94506141fb8361419f565b925060208a019950506001810190506141d7565b50829750879550505050505092915050565b600081519050919050565b600082825260208201905092915050565b6000819050602082019050919050565b600082825260208201905092915050565b60006142698261387f565b614273818561424d565b935061428381856020860161389b565b61428c816138ce565b840191505092915050565b60006142a3838361425e565b905092915050565b6000602082019050919050565b60006142c382614221565b6142cd818561422c565b9350836020820285016142df8561423d565b8060005b8581101561431b57848403895281516142fc8582614297565b9450614307836142ab565b925060208a019950506001810190506142e3565b50829750879550505050505092915050565b6000604082019050818103600083015261434781856141ac565b9050818103602083015261435b81846142b8565b90509392505050565b600081519050919050565b600082825260208201905092915050565b6000819050602082019050919050565b6040820160008201516143a66000850182613d03565b5060208201516143b96020850182613d03565b50505050565b60006143cb8383614390565b60408301905092915050565b6000602082019050919050565b60006143ef82614364565b6143f9818561436f565b935061440483614380565b8060005b8381101561443557815161441c88826143bf565b9750614427836143d7565b925050600181019050614408565b5085935050505092915050565b6000604082019050818103600083015261445c81856143e4565b9050818103602083015261447081846142b8565b90509392505050565b6000806000606084860312156144925761449161364f565b5b60006144a0868287016136d8565b93505060206144b1868287016136d8565b92505060406144c2868287016136d8565b9150509250925092565b6000610100830160008301516144e56000860182613d03565b5060208301516144f86020860182613d03565b50604083015161450b6040860182613d03565b50606083015161451e6060860182613d03565b50608083015184820360808601526145368282613fb8565b91505060a083015184820360a08601526145508282614076565b91505060c083015161456560c0860182613d03565b5060e083015161457860e0860182614042565b508091505092915050565b6000604082019050818103600083015261459d81856144cc565b905081810360208301526145b181846138df565b90509392505050565b6145c3816137dc565b81146145ce57600080fd5b50565b6000813590506145e0816145ba565b92915050565b600080604083850312156145fd576145fc61364f565b5b600061460b858286016136a2565b925050602061461c858286016145d1565b9150509250929050565b60008060006060848603121561463f5761463e61364f565b5b600061464d868287016136d8565b935050602061465e868287016136d8565b925050604084013567ffffffffffffffff81111561467f5761467e613654565b5b61468b86828701613a41565b9150509250925092565b600067ffffffffffffffff8211156146b0576146af613944565b5b602082029050602081019050919050565b60006146d46146cf84614695565b6139a4565b905080838252602082019050602084028301858111156146f7576146f6613af7565b5b835b8181101561473e57803567ffffffffffffffff81111561471c5761471b61393a565b5b8086016147298982613a41565b855260208501945050506020810190506146f9565b5050509392505050565b600082601f83011261475d5761475c61393a565b5b813561476d8482602086016146c1565b91505092915050565b6000806040838503121561478d5761478c61364f565b5b600083013567ffffffffffffffff8111156147ab576147aa613654565b5b6147b785828601613b65565b925050602083013567ffffffffffffffff8111156147d8576147d7613654565b5b6147e485828601614748565b9150509250929050565b600080604083850312156148055761480461364f565b5b6000614813858286016136a2565b9250506020614824858286016136a2565b9150509250929050565b6040820160008201516148446000850182613d03565b5060208201516148576020850182613d03565b50505050565b6000606082019050614872600083018561482e565b818103604083015261488481846138df565b90509392505050565b600081519050919050565b600082825260208201905092915050565b6000819050602082019050919050565b6060820160008201516148cf6000850182613d03565b5060208201516148e26020850182613d03565b5060408201516148f56040850182613d03565b50505050565b600061490783836148b9565b60608301905092915050565b6000602082019050919050565b600061492b8261488d565b6149358185614898565b9350614940836148a9565b8060005b8381101561497157815161495888826148fb565b975061496383614913565b925050600181019050614944565b5085935050505092915050565b600060208201905081810360008301526149988184614920565b905092915050565b600080600080600060a086880312156149bc576149bb61364f565b5b60006149ca888289016136a2565b95505060206149db888289016136a2565b94505060406149ec888289016136d8565b93505060606149fd888289016136d8565b925050608086013567ffffffffffffffff811115614a1e57614a1d613654565b5b614a2a88828901613c06565b9150509295509295909350565b600080600060608486031215614a5057614a4f61364f565b5b600084013567ffffffffffffffff811115614a6e57614a6d613654565b5b614a7a86828701613b65565b935050602084013567ffffffffffffffff811115614a9b57614a9a613654565b5b614aa786828701613b65565b925050604084013567ffffffffffffffff811115614ac857614ac7613654565b5b614ad486828701614748565b9150509250925092565b7f455243313135353a2061646472657373207a65726f206973206e6f742061207660008201527f616c6964206f776e657200000000000000000000000000000000000000000000602082015250565b6000614b3a602a8361388a565b9150614b4582614ade565b604082019050919050565b60006020820190508181036000830152614b6981614b2d565b9050919050565b7f437265646974206d757374206265206120706f736974697665206e756d626572600082015250565b6000614ba660208361388a565b9150614bb182614b70565b602082019050919050565b60006020820190508181036000830152614bd581614b99565b9050919050565b7f4e667420646f6573206e6f742065786973740000000000000000000000000000600082015250565b6000614c1260128361388a565b9150614c1d82614bdc565b602082019050919050565b60006020820190508181036000830152614c4181614c05565b9050919050565b7f4e487b7100000000000000000000000000000000000000000000000000000000600052601160045260246000fd5b6000614c82826136b7565b9150614c8d836136b7565b925082821015614ca057614c9f614c48565b5b828203905092915050565b7f4e487b7100000000000000000000000000000000000000000000000000000000600052603260045260246000fd5b7f4e487b7100000000000000000000000000000000000000000000000000000000600052602260045260246000fd5b60006002820490506001821680614d2157607f821691505b602082108103614d3457614d33614cda565b5b50919050565b600081905092915050565b60008190508160005260206000209050919050565b60008154614d6781614d09565b614d718186614d3a565b94506001821660008114614d8c5760018114614d9d57614dd0565b60ff19831686528186019350614dd0565b614da685614d45565b60005b83811015614dc857815481890152600182019150602081019050614da9565b838801955050505b50505092915050565b6000614de48261387f565b614dee8185614d3a565b9350614dfe81856020860161389b565b80840191505092915050565b6000614e168285614d5a565b9150614e228284614dd9565b91508190509392505050565b7f526571756972656d656e74206d75737420626520696e697469616c697a65642060008201527f6265666f7265206372656174696e67206e657700000000000000000000000000602082015250565b6000614e8a60338361388a565b9150614e9582614e2e565b604082019050919050565b60006020820190508181036000830152614eb981614e7d565b9050919050565b7f456e642074696d65206d7573742062652061667465722073746172742074696d60008201527f6500000000000000000000000000000000000000000000000000000000000000602082015250565b6000614f1c60218361388a565b9150614f2782614ec0565b604082019050919050565b60006020820190508181036000830152614f4b81614f0f565b9050919050565b7f526567697374657265642064617465206d757374206265206265666f7265207960008201527f65617220656e6400000000000000000000000000000000000000000000000000602082015250565b6000614fae60278361388a565b9150614fb982614f52565b604082019050919050565b60006020820190508181036000830152614fdd81614fa1565b9050919050565b7f455243313135353a2063616c6c6572206973206e6f7420746f6b656e206f776e60008201527f6572206f7220617070726f766564000000000000000000000000000000000000602082015250565b6000615040602e8361388a565b915061504b82614fe4565b604082019050919050565b6000602082019050818103600083015261506f81615033565b9050919050565b7f455243313135353a206163636f756e747320616e6420696473206c656e67746860008201527f206d69736d617463680000000000000000000000000000000000000000000000602082015250565b60006150d260298361388a565b91506150dd82615076565b604082019050919050565b60006020820190508181036000830152615101816150c5565b9050919050565b6000615113826136b7565b91507fffffffffffffffffffffffffffffffffffffffffffffffffffffffffffffffff820361514557615144614c48565b5b600182019050919050565b7f446573697265642079656172206973206e6f742076616c696400000000000000600082015250565b600061518660198361388a565b915061519182615150565b602082019050919050565b600060208201905081810360008301526151b581615179565b9050919050565b7f49742773206e6f742074696d6520746f20726567697374657220636c61737300600082015250565b60006151f2601f8361388a565b91506151fd826151bc565b602082019050919050565b60006020820190508181036000830152615221816151e5565b9050919050565b7f546f6b656e206578697374730000000000000000000000000000000000000000600082015250565b600061525e600c8361388a565b915061526982615228565b602082019050919050565b6000602082019050818103600083015261528d81615251565b9050919050565b600061529f826136b7565b91506152aa836136b7565b9250827fffffffffffffffffffffffffffffffffffffffffffffffffffffffffffffffff038211156152df576152de614c48565b5b828201905092915050565b7f436f75727365206d75737420626520696e697469616c697a6564206265666f7260008201527f65206372656174696e67206e6577000000000000000000000000000000000000602082015250565b6000615346602e8361388a565b9150615351826152ea565b604082019050919050565b6000602082019050818103600083015261537581615339565b9050919050565b7f526571756972656d656e7420686173206265656e20696e697469616c697a6564600082015250565b60006153b260208361388a565b91506153bd8261537c565b602082019050919050565b600060208201905081810360008301526153e1816153a5565b9050919050565b7f436f7572736520686173206265656e20696e697469616c697a65640000000000600082015250565b600061541e601b8361388a565b9150615429826153e8565b602082019050919050565b6000602082019050818103600083015261544d81615411565b9050919050565b7f455243313135353a2069647320616e6420616d6f756e7473206c656e6774682060008201527f6d69736d61746368000000000000000000000000000000000000000000000000602082015250565b60006154b060288361388a565b91506154bb82615454565b604082019050919050565b600060208201905081810360008301526154df816154a3565b9050919050565b7f455243313135353a207472616e7366657220746f20746865207a65726f20616460008201527f6472657373000000000000000000000000000000000000000000000000000000602082015250565b600061554260258361388a565b915061554d826154e6565b604082019050919050565b6000602082019050818103600083015261557181615535565b9050919050565b7f455243313135353a20696e73756666696369656e742062616c616e636520666f60008201527f72207472616e7366657200000000000000000000000000000000000000000000602082015250565b60006155d4602a8361388a565b91506155df82615578565b604082019050919050565b60006020820190508181036000830152615603816155c7565b9050919050565b600060408201905081810360008301526156248185613efb565b905081810360208301526156388184613efb565b90509392505050565b7f455243313135353a206275726e2066726f6d20746865207a65726f206164647260008201527f6573730000000000000000000000000000000000000000000000000000000000602082015250565b600061569d60238361388a565b91506156a882615641565b604082019050919050565b600060208201905081810360008301526156cc81615690565b9050919050565b7f455243313135353a206275726e20616d6f756e7420657863656564732062616c60008201527f616e636500000000000000000000000000000000000000000000000000000000602082015250565b600061572f60248361388a565b915061573a826156d3565b604082019050919050565b6000602082019050818103600083015261575e81615722565b9050919050565b600060408201905061577a600083018561372d565b615787602083018461372d565b9392505050565b7f455243313135353a2073657474696e6720617070726f76616c2073746174757360008201527f20666f722073656c660000000000000000000000000000000000000000000000602082015250565b60006157ea60298361388a565b91506157f58261578e565b604082019050919050565b60006020820190508181036000830152615819816157dd565b9050919050565b600061582c8284614dd9565b915081905092915050565b7f55524920686173206265656e2075736564000000000000000000000000000000600082015250565b600061586d60118361388a565b915061587882615837565b602082019050919050565b6000602082019050818103600083015261589c81615860565b9050919050565b7f43726564697473206d757374206265206120706f736974697665206e756d626560008201527f7200000000000000000000000000000000000000000000000000000000000000602082015250565b60006158ff60218361388a565b915061590a826158a3565b604082019050919050565b6000602082019050818103600083015261592e816158f2565b9050919050565b7f455243313135353a206d696e7420746f20746865207a65726f2061646472657360008201527f7300000000000000000000000000000000000000000000000000000000000000602082015250565b600061599160218361388a565b915061599c82615935565b604082019050919050565b600060208201905081810360008301526159c081615984565b9050919050565b6159d081613679565b82525050565b600081519050919050565b600082825260208201905092915050565b60006159fd826159d6565b615a0781856159e1565b9350615a1781856020860161389b565b615a20816138ce565b840191505092915050565b600060a082019050615a4060008301886159c7565b615a4d60208301876159c7565b8181036040830152615a5f8186613efb565b90508181036060830152615a738185613efb565b90508181036080830152615a8781846159f2565b90509695505050505050565b600081519050615aa281613783565b92915050565b600060208284031215615abe57615abd61364f565b5b6000615acc84828501615a93565b91505092915050565b60008160e01c9050919050565b600060033d1115615b015760046000803e615afe600051615ad5565b90505b90565b600060443d10615b9157615b16613645565b60043d036004823e80513d602482011167ffffffffffffffff82111715615b3e575050615b91565b808201805167ffffffffffffffff811115615b5c5750505050615b91565b80602083010160043d038501811115615b79575050505050615b91565b615b8882602001850186613973565b82955050505050505b90565b7f455243313135353a207472616e7366657220746f206e6f6e2d4552433131353560008201527f526563656976657220696d706c656d656e746572000000000000000000000000602082015250565b6000615bf060348361388a565b9150615bfb82615b94565b604082019050919050565b60006020820190508181036000830152615c1f81615be3565b9050919050565b7f455243313135353a204552433131353552656365697665722072656a6563746560008201527f6420746f6b656e73000000000000000000000000000000000000000000000000602082015250565b6000615c8260288361388a565b9150615c8d82615c26565b604082019050919050565b60006020820190508181036000830152615cb181615c75565b9050919050565b7f4e667420726571756972656d656e74206d75737420626520637265617465642060008201527f6265666f7265206372656174696e67206e667420636f757273652074656d706c60208201527f61746520666f7220697400000000000000000000000000000000000000000000604082015250565b6000615d3a604a8361388a565b9150615d4582615cb8565b606082019050919050565b60006020820190508181036000830152615d6981615d2d565b9050919050565b600060a082019050615d8560008301886159c7565b615d9260208301876159c7565b615d9f604083018661372d565b615dac606083018561372d565b8181036080830152615dbe81846159f2565b9050969550505050505056fea26469706673582212209061e837b7f60e4ecc0c0b2f14e250fe384115e8fc112709735b0d40723d86f864736f6c634300080d0033",
  "immutableReferences": {},
  "source": "// SPDX-License-Identifier: MIT\r\n// Tells the Solidity compiler to compile only from v0.8.13 to v0.9.0\r\npragma solidity ^0.8.13;\r\n\r\nimport \"./ERC1155BaseContract.sol\";\r\nimport \"./interfaces/INftSchool.sol\";\r\nimport \"./interfaces/INftIdentities.sol\";\r\n\r\n/*\r\n    Initial year: Requirements + Course Template (time available to update? --> after year end)\r\n    (Save endCurrentYear) -> Classes -> Register course -> Received Nft Scoreboard\r\n    Course end: Mint Nft complete course <-- Transfer info from Nft Scoreboard to this\r\n    Enough course: Exchange nft graduation from nft courses (payable)\r\n*/\r\ncontract NftSchool is ERC1155BaseContract, INftSchool {\r\n    uint256 constant NFT_REQUIREMENT = 1;\r\n    uint256 constant NFT_COURSE_TEMPLATE = 2;\r\n    uint256 constant NFT_CLASS = 3;\r\n\r\n    using Counters for Counters.Counter;\r\n\r\n    string[] private courseURIs;\r\n\r\n    INftIdentities private _nftIdentities;\r\n\r\n    bool private _isInitializeRequirement;\r\n    bool private _isInitializeCourse;\r\n\r\n    uint256 public schoolYearEnd;\r\n    uint256 public registeredStartAt;\r\n    uint256 public registeredEndAt;\r\n    uint256 public yearId;\r\n\r\n    mapping(uint256 => uint256[]) private _classTokenIdsOfYear;\r\n    mapping(uint256 => bool) private _usableScores;\r\n\r\n    NftRequirement[] private _allNftRequirements;\r\n    NftCourseTemplate[] private _allNftCourseTemplates;\r\n    NftClass[] private _allNftClasses;\r\n    mapping(uint256 => mapping(uint256 => uint256)) _posOfTokenIdOfNftType;\r\n\r\n    modifier onlyOwner() {\r\n        require(_owner == msg.sender);\r\n        _;\r\n    }\r\n\r\n    modifier afterYearEnd() {\r\n        require(block.timestamp > schoolYearEnd);\r\n        _;\r\n    }\r\n\r\n    modifier canOperate(uint256 role) {\r\n        (bool isDeposited, uint256 __role) = _nftIdentities.isAbleToOperate(\r\n            msg.sender\r\n        );\r\n        require(isDeposited && role == __role);\r\n        _;\r\n    }\r\n\r\n    modifier tokenExist(uint256 tokenId) {\r\n        require(checkTokenExists(tokenId), \"Token exists\");\r\n        _;\r\n    }\r\n\r\n    constructor(address nftIdentities) ERC1155BaseContract(\"\") {\r\n        _nftIdentities = INftIdentities(nftIdentities);\r\n        schoolYearEnd = block.timestamp;\r\n\r\n        _usableScores[uint256(ScoreType.Midterm)] = true;\r\n        _usableScores[uint256(ScoreType.Practice)] = true;\r\n        _usableScores[uint256(ScoreType.Plus)] = true;\r\n        _usableScores[uint256(ScoreType.Final)] = true;\r\n        _usableScores[uint256(ScoreType.Other)] = true;\r\n    }\r\n\r\n    /*\r\n        Initialize requirement before any operation in the system including\r\n        - Requirement\r\n        - Course template\r\n    */\r\n    function initializeRequirement(\r\n        uint256[] memory credits,\r\n        string[] memory tokenURIs\r\n    ) public onlyOwner {\r\n        require(!_isInitializeRequirement, \"Requirement has been initialized\");\r\n        require(credits.length == tokenURIs.length);\r\n        uint256 numberOfTokens = credits.length;\r\n\r\n        for (uint256 idx = 0; idx <= numberOfTokens; ++idx) {\r\n            _mintNftRequirement(credits[idx], tokenURIs[idx]);\r\n        }\r\n    }\r\n\r\n    function initializeCourseTemplate(\r\n        uint256[] memory requirementIds,\r\n        uint256[] memory credits,\r\n        string[] memory tokenURIs\r\n    ) public onlyOwner {\r\n        require(!_isInitializeCourse, \"Course has been initialized\");\r\n        require(requirementIds.length == tokenURIs.length);\r\n        require(requirementIds.length == tokenURIs.length);\r\n        uint256 numberOfTokens = credits.length;\r\n\r\n        for (uint256 idx = 0; idx <= numberOfTokens; ++idx) {\r\n            _mintNftCourseTemplate(\r\n                requirementIds[idx],\r\n                credits[idx],\r\n                tokenURIs[idx]\r\n            );\r\n        }\r\n    }\r\n\r\n    function initializeYear(\r\n        uint256 _schoolYearEnd,\r\n        uint256 _registeredStartAt,\r\n        uint256 _registeredEndAt\r\n    ) public onlyOwner afterYearEnd {\r\n        require(\r\n            _registeredEndAt > _registeredStartAt,\r\n            \"End time must be after start time\"\r\n        );\r\n        require(\r\n            _schoolYearEnd > _registeredEndAt,\r\n            \"Registered date must be before year end\"\r\n        );\r\n        schoolYearEnd = _schoolYearEnd;\r\n        registeredStartAt = _registeredStartAt;\r\n        registeredEndAt = _registeredEndAt;\r\n        yearId += 1;\r\n    }\r\n    \r\n    function updateRegisteredTime(\r\n        uint256 _registeredStartAt,\r\n        uint256 _registeredEndAt\r\n    ) external onlyOwner {\r\n        require(\r\n            _registeredEndAt > _registeredStartAt,\r\n            \"End time must be after start time\"\r\n        );\r\n        require(\r\n            schoolYearEnd > _registeredEndAt,\r\n            \"Registered date must be before year end\"\r\n        );\r\n        registeredStartAt = _registeredStartAt;\r\n        registeredEndAt = _registeredEndAt;\r\n    }\r\n\r\n    function createRequirement(uint256 credits, string memory tokenURI)\r\n        public\r\n        onlyOwner\r\n        afterYearEnd\r\n    {\r\n        require(\r\n            _isInitializeRequirement,\r\n            \"Requirement must be initialized before creating new\"\r\n        );\r\n        _mintNftRequirement(credits, tokenURI);\r\n    }\r\n\r\n    function updateRequirement(uint256 tokenId, uint256 credits)\r\n        external\r\n        onlyOwner\r\n        afterYearEnd\r\n    {\r\n        require(credits > 0, \"Credit must be a positive number\");\r\n        uint256 pos = _posOfTokenIdOfNftType[NFT_REQUIREMENT][tokenId];\r\n        require(pos > 0, \"Nft does not exist\");\r\n\r\n        _allNftRequirements[pos - 1].credits = credits;\r\n    }\r\n\r\n    function createCourseTemplate(\r\n        uint256 requirementId,\r\n        uint256 credits,\r\n        string memory tokenURI\r\n    ) public onlyOwner afterYearEnd {\r\n        require(\r\n            _isInitializeCourse,\r\n            \"Course must be initialized before creating new\"\r\n        );\r\n        _mintNftCourseTemplate(requirementId, credits, tokenURI);\r\n    }\r\n\r\n    function updateCourseTemplate(uint256 tokenId, uint256 credits)\r\n        external \r\n        onlyOwner\r\n        afterYearEnd\r\n    {\r\n        require(credits > 0, \"Credit must be a positive number\");\r\n        uint256 pos = _posOfTokenIdOfNftType[NFT_COURSE_TEMPLATE][tokenId];\r\n        require(pos > 0, \"Nft does not exist\");\r\n\r\n        _allNftCourseTemplates[pos - 1].credits = credits;\r\n    }\r\n\r\n    function burnToken(uint256 tokenId) external onlyOwner afterYearEnd tokenExist(tokenId) {\r\n        _burn(_owner, tokenId, ONE_NFT);\r\n    }\r\n\r\n    // (everyone)\r\n    function getRegisteredClasses()\r\n        external\r\n        view\r\n        returns (NftClass[] memory, string[] memory)\r\n    {\r\n        require(\r\n            msg.sender == _owner || checkInRegisterDate(),\r\n            \"It's not time to register class\"\r\n        );\r\n\r\n        return _getAllNftClasses(yearId);\r\n    }\r\n\r\n    function getAllNftRequirements()\r\n        external\r\n        view\r\n        returns (NftRequirement[] memory, string[] memory)\r\n    {\r\n        uint256 numberOfNft = _allNftRequirements.length;\r\n        string[] memory tokenURIs = new string[](numberOfNft);\r\n\r\n        for (uint256 idx = 0; idx <= numberOfNft; ++idx) {\r\n            tokenURIs[idx] = uri(_allNftRequirements[idx].tokenId);\r\n        }\r\n\r\n        return (_allNftRequirements, tokenURIs);\r\n    }\r\n\r\n    function getNftRequirement(uint256 tokenId)\r\n        external\r\n        view\r\n        returns (NftRequirement memory, string memory)\r\n    {\r\n        uint256 pos = _posOfTokenIdOfNftType[NFT_REQUIREMENT][tokenId];\r\n        require(pos > 0, \"Nft does not exist\");\r\n\r\n        return (_allNftRequirements[pos - 1], uri(tokenId));\r\n    }\r\n\r\n    function getNftClass(uint256 tokenId)\r\n        public\r\n        view\r\n        returns (NftClass memory, string memory)\r\n    {\r\n        uint256 pos = _posOfTokenIdOfNftType[NFT_CLASS][tokenId];\r\n        require(pos > 0, \"Nft does not exist\");\r\n\r\n        return (_allNftClasses[pos - 1], uri(tokenId));\r\n    }\r\n\r\n    function getAllNftClasses(uint256 _yearId)\r\n        external\r\n        view\r\n        onlyOwner\r\n        returns (NftClass[] memory, string[] memory)\r\n    {\r\n        require(_yearId <= yearId, \"Desired year is not valid\");\r\n\r\n        return _getAllNftClasses(_yearId);\r\n    }\r\n\r\n    function getAllNftCourseTemplate()\r\n        external\r\n        view\r\n        onlyOwner\r\n        returns (NftCourseTemplate[] memory)\r\n    {\r\n        return _allNftCourseTemplates;\r\n    }\r\n\r\n    function getNftCourseTemplate(uint256 tokenId)\r\n        external\r\n        view\r\n        returns (NftCourseTemplate memory)\r\n    {\r\n        uint256 pos = _posOfTokenIdOfNftType[NFT_COURSE_TEMPLATE][tokenId];\r\n        require(pos > 0, \"Nft does not exist\");\r\n\r\n        return _allNftCourseTemplates[pos - 1];\r\n    }\r\n\r\n    function checkTokenExists(uint256 tokenId) public view returns (bool) {\r\n        uint256 nftType = _getNftType(tokenId);\r\n        uint256 pos = _posOfTokenIdOfNftType[nftType][tokenId];\r\n        return pos > 0;\r\n    }\r\n\r\n    function checkTokenOfTypeExists(uint256 tokenId, uint256 requiredType) external view returns (bool) {\r\n        uint256 nftType = _getNftType(tokenId);\r\n        uint256 pos = _posOfTokenIdOfNftType[nftType][tokenId];\r\n        return pos > 0 && nftType == requiredType;\r\n    }\r\n    \r\n    function checkInRegisterDate() public view returns (bool) {\r\n        return\r\n            block.timestamp >= registeredStartAt &&\r\n            block.timestamp <= registeredEndAt;\r\n    }\r\n\r\n    function _checkValidScores(uint256[] memory scores)\r\n        private\r\n        view\r\n        returns (bool)\r\n    {\r\n        uint256 numberOfChecks = scores.length;\r\n        for (uint256 idx = 0; idx <= numberOfChecks; ++idx) {\r\n            if (!_usableScores[scores[idx]]) {\r\n                return false;\r\n            }\r\n        }\r\n\r\n        return true;\r\n    }\r\n\r\n    function _getAllNftClasses(uint256 _yearId)\r\n        private\r\n        view\r\n        onlyOwner\r\n        returns (NftClass[] memory, string[] memory)\r\n    {\r\n        uint256 numberOfClasses = _classTokenIdsOfYear[_yearId].length;\r\n        NftClass[] memory nftClasses = new NftClass[](numberOfClasses);\r\n        string[] memory tokenURIs = new string[](numberOfClasses);\r\n\r\n        for (uint256 idx = 0; idx <= numberOfClasses; ++idx) {\r\n            (nftClasses[idx], tokenURIs[idx]) = getNftClass(\r\n                _classTokenIdsOfYear[yearId][idx]\r\n            );\r\n        }\r\n\r\n        return (nftClasses, tokenURIs);\r\n    }\r\n\r\n    function _mintNftRequirement(uint256 credits, string memory tokenURI)\r\n        public\r\n        returns (uint256)\r\n    {\r\n        uint256 tokenId = _mintToken(NFT_REQUIREMENT, tokenURI);\r\n        _createNftRequirement(tokenId, credits);\r\n        _mint(_owner, tokenId, ONE_NFT, msg.data);\r\n\r\n        return tokenId;\r\n    }\r\n\r\n    function _createNftRequirement(uint256 tokenId, uint256 credits) private {\r\n        require(credits > 0, \"Credits must be a positive number\");\r\n        NftRequirement memory nftRequirement = NftRequirement(tokenId, credits);\r\n        _allNftRequirements.push(nftRequirement);\r\n        _posOfTokenIdOfNftType[NFT_REQUIREMENT][tokenId] = _allNftRequirements\r\n            .length;\r\n    }\r\n\r\n    function _mintNftCourseTemplate(\r\n        uint256 requirementId,\r\n        uint256 credits,\r\n        string memory tokenURI\r\n    ) private returns (uint256) {\r\n        uint256 tokenId = _mintToken(NFT_COURSE_TEMPLATE, tokenURI);\r\n        _createNftCourseTemplate(tokenId, requirementId, credits);\r\n\r\n        return tokenId;\r\n    }\r\n\r\n    function _createNftCourseTemplate(\r\n        uint256 tokenId,\r\n        uint256 requirementId,\r\n        uint256 credits\r\n    ) private {\r\n        uint256 pos = _posOfTokenIdOfNftType[NFT_REQUIREMENT][requirementId];\r\n        require(\r\n            pos > 0,\r\n            \"Nft requirement must be created before creating nft course template for it\"\r\n        );\r\n        require(credits > 4, \"Credits must be a positive number\");\r\n        NftCourseTemplate memory nftCourseTemplate = NftCourseTemplate(\r\n            tokenId,\r\n            requirementId,\r\n            credits\r\n        );\r\n        _allNftCourseTemplates.push(nftCourseTemplate);\r\n        _posOfTokenIdOfNftType[NFT_COURSE_TEMPLATE][\r\n            tokenId\r\n        ] = _allNftCourseTemplates.length;\r\n    }\r\n}\r\n",
  "sourcePath": "E:\\learn\\learn-to-earn\\contracts\\NftSchool.sol",
  "compiler": {
    "name": "solc",
    "version": "0.8.13+commit.abaa5c0e.Emscripten.clang"
  },
  "schemaVersion": "3.4.11",
  "updatedAt": "2023-03-06T23:34:50.136Z",
  "devdoc": {
    "kind": "dev",
    "methods": {
      "balanceOf(address,uint256)": {
        "details": "See {IERC1155-balanceOf}. Requirements: - `account` cannot be the zero address."
      },
      "balanceOfBatch(address[],uint256[])": {
        "details": "See {IERC1155-balanceOfBatch}. Requirements: - `accounts` and `ids` must have the same length."
      },
      "isApprovedForAll(address,address)": {
        "details": "See {IERC1155-isApprovedForAll}."
      },
      "safeBatchTransferFrom(address,address,uint256[],uint256[],bytes)": {
        "details": "See {IERC1155-safeBatchTransferFrom}."
      },
      "safeTransferFrom(address,address,uint256,uint256,bytes)": {
        "details": "See {IERC1155-safeTransferFrom}."
      },
      "setApprovalForAll(address,bool)": {
        "details": "See {IERC1155-setApprovalForAll}."
      },
      "supportsInterface(bytes4)": {
        "details": "See {IERC165-supportsInterface}."
      },
      "uri(uint256)": {
        "details": "See {IERC1155MetadataURI-uri}. This implementation returns the concatenation of the `_baseURI` and the token-specific uri if the latter is set This enables the following behaviors: - if `_tokenURIs[tokenId]` is set, then the result is the concatenation   of `_baseURI` and `_tokenURIs[tokenId]` (keep in mind that `_baseURI`   is empty per default); - if `_tokenURIs[tokenId]` is NOT set then we fallback to `super.uri()`   which in most cases will contain `ERC1155._uri`; - if `_tokenURIs[tokenId]` is NOT set, and if the parents do not have a   uri value set, then the result is empty."
      }
    },
    "version": 1
  },
  "userdoc": {
    "kind": "user",
    "methods": {},
    "version": 1
  }
}