{
  "contractName": "NftSchool",
  "abi": [
    {
      "inputs": [
        {
          "internalType": "address",
          "name": "nftIdentities",
          "type": "address"
        }
      ],
      "stateMutability": "nonpayable",
      "type": "constructor"
    },
    {
      "anonymous": false,
      "inputs": [
        {
          "indexed": true,
          "internalType": "address",
          "name": "account",
          "type": "address"
        },
        {
          "indexed": true,
          "internalType": "address",
          "name": "operator",
          "type": "address"
        },
        {
          "indexed": false,
          "internalType": "bool",
          "name": "approved",
          "type": "bool"
        }
      ],
      "name": "ApprovalForAll",
      "type": "event"
    },
    {
      "anonymous": false,
      "inputs": [
        {
          "indexed": true,
          "internalType": "address",
          "name": "operator",
          "type": "address"
        },
        {
          "indexed": true,
          "internalType": "address",
          "name": "from",
          "type": "address"
        },
        {
          "indexed": true,
          "internalType": "address",
          "name": "to",
          "type": "address"
        },
        {
          "indexed": false,
          "internalType": "uint256[]",
          "name": "ids",
          "type": "uint256[]"
        },
        {
          "indexed": false,
          "internalType": "uint256[]",
          "name": "values",
          "type": "uint256[]"
        }
      ],
      "name": "TransferBatch",
      "type": "event"
    },
    {
      "anonymous": false,
      "inputs": [
        {
          "indexed": true,
          "internalType": "address",
          "name": "operator",
          "type": "address"
        },
        {
          "indexed": true,
          "internalType": "address",
          "name": "from",
          "type": "address"
        },
        {
          "indexed": true,
          "internalType": "address",
          "name": "to",
          "type": "address"
        },
        {
          "indexed": false,
          "internalType": "uint256",
          "name": "id",
          "type": "uint256"
        },
        {
          "indexed": false,
          "internalType": "uint256",
          "name": "value",
          "type": "uint256"
        }
      ],
      "name": "TransferSingle",
      "type": "event"
    },
    {
      "anonymous": false,
      "inputs": [
        {
          "indexed": false,
          "internalType": "string",
          "name": "value",
          "type": "string"
        },
        {
          "indexed": true,
          "internalType": "uint256",
          "name": "id",
          "type": "uint256"
        }
      ],
      "name": "URI",
      "type": "event"
    },
    {
      "inputs": [
        {
          "internalType": "address",
          "name": "account",
          "type": "address"
        },
        {
          "internalType": "uint256",
          "name": "id",
          "type": "uint256"
        }
      ],
      "name": "balanceOf",
      "outputs": [
        {
          "internalType": "uint256",
          "name": "",
          "type": "uint256"
        }
      ],
      "stateMutability": "view",
      "type": "function",
      "constant": true
    },
    {
      "inputs": [
        {
          "internalType": "address[]",
          "name": "accounts",
          "type": "address[]"
        },
        {
          "internalType": "uint256[]",
          "name": "ids",
          "type": "uint256[]"
        }
      ],
      "name": "balanceOfBatch",
      "outputs": [
        {
          "internalType": "uint256[]",
          "name": "",
          "type": "uint256[]"
        }
      ],
      "stateMutability": "view",
      "type": "function",
      "constant": true
    },
    {
      "inputs": [
        {
          "internalType": "address",
          "name": "account",
          "type": "address"
        },
        {
          "internalType": "address",
          "name": "operator",
          "type": "address"
        }
      ],
      "name": "isApprovedForAll",
      "outputs": [
        {
          "internalType": "bool",
          "name": "",
          "type": "bool"
        }
      ],
      "stateMutability": "view",
      "type": "function",
      "constant": true
    },
    {
      "inputs": [],
      "name": "registeredEndAt",
      "outputs": [
        {
          "internalType": "uint256",
          "name": "",
          "type": "uint256"
        }
      ],
      "stateMutability": "view",
      "type": "function",
      "constant": true
    },
    {
      "inputs": [],
      "name": "registeredStartAt",
      "outputs": [
        {
          "internalType": "uint256",
          "name": "",
          "type": "uint256"
        }
      ],
      "stateMutability": "view",
      "type": "function",
      "constant": true
    },
    {
      "inputs": [
        {
          "internalType": "address",
          "name": "from",
          "type": "address"
        },
        {
          "internalType": "address",
          "name": "to",
          "type": "address"
        },
        {
          "internalType": "uint256[]",
          "name": "ids",
          "type": "uint256[]"
        },
        {
          "internalType": "uint256[]",
          "name": "amounts",
          "type": "uint256[]"
        },
        {
          "internalType": "bytes",
          "name": "data",
          "type": "bytes"
        }
      ],
      "name": "safeBatchTransferFrom",
      "outputs": [],
      "stateMutability": "nonpayable",
      "type": "function"
    },
    {
      "inputs": [
        {
          "internalType": "address",
          "name": "from",
          "type": "address"
        },
        {
          "internalType": "address",
          "name": "to",
          "type": "address"
        },
        {
          "internalType": "uint256",
          "name": "id",
          "type": "uint256"
        },
        {
          "internalType": "uint256",
          "name": "amount",
          "type": "uint256"
        },
        {
          "internalType": "bytes",
          "name": "data",
          "type": "bytes"
        }
      ],
      "name": "safeTransferFrom",
      "outputs": [],
      "stateMutability": "nonpayable",
      "type": "function"
    },
    {
      "inputs": [],
      "name": "schoolYearEnd",
      "outputs": [
        {
          "internalType": "uint256",
          "name": "",
          "type": "uint256"
        }
      ],
      "stateMutability": "view",
      "type": "function",
      "constant": true
    },
    {
      "inputs": [
        {
          "internalType": "address",
          "name": "operator",
          "type": "address"
        },
        {
          "internalType": "bool",
          "name": "approved",
          "type": "bool"
        }
      ],
      "name": "setApprovalForAll",
      "outputs": [],
      "stateMutability": "nonpayable",
      "type": "function"
    },
    {
      "inputs": [
        {
          "internalType": "bytes4",
          "name": "interfaceId",
          "type": "bytes4"
        }
      ],
      "name": "supportsInterface",
      "outputs": [
        {
          "internalType": "bool",
          "name": "",
          "type": "bool"
        }
      ],
      "stateMutability": "view",
      "type": "function",
      "constant": true
    },
    {
      "inputs": [
        {
          "internalType": "uint256",
          "name": "tokenId",
          "type": "uint256"
        }
      ],
      "name": "uri",
      "outputs": [
        {
          "internalType": "string",
          "name": "",
          "type": "string"
        }
      ],
      "stateMutability": "view",
      "type": "function",
      "constant": true
    },
    {
      "inputs": [],
      "name": "yearId",
      "outputs": [
        {
          "internalType": "uint256",
          "name": "",
          "type": "uint256"
        }
      ],
      "stateMutability": "view",
      "type": "function",
      "constant": true
    },
    {
      "inputs": [
        {
          "internalType": "address",
          "name": "nftCertificates",
          "type": "address"
        }
      ],
      "name": "initialize",
      "outputs": [],
      "stateMutability": "nonpayable",
      "type": "function"
    },
    {
      "inputs": [
        {
          "internalType": "uint256[]",
          "name": "credits",
          "type": "uint256[]"
        },
        {
          "internalType": "string[]",
          "name": "tokenURIs",
          "type": "string[]"
        }
      ],
      "name": "initializeRequirement",
      "outputs": [],
      "stateMutability": "nonpayable",
      "type": "function"
    },
    {
      "inputs": [
        {
          "internalType": "uint256[]",
          "name": "requirementIds",
          "type": "uint256[]"
        },
        {
          "internalType": "uint256[]",
          "name": "credits",
          "type": "uint256[]"
        },
        {
          "internalType": "string[]",
          "name": "tokenURIs",
          "type": "string[]"
        }
      ],
      "name": "initializeCourseTemplate",
      "outputs": [],
      "stateMutability": "nonpayable",
      "type": "function"
    },
    {
      "inputs": [
        {
          "internalType": "uint256",
          "name": "_schoolYearEnd",
          "type": "uint256"
        },
        {
          "internalType": "uint256",
          "name": "_registeredStartAt",
          "type": "uint256"
        },
        {
          "internalType": "uint256",
          "name": "_registeredEndAt",
          "type": "uint256"
        }
      ],
      "name": "initializeYear",
      "outputs": [],
      "stateMutability": "nonpayable",
      "type": "function"
    },
    {
      "inputs": [
        {
          "internalType": "uint256",
          "name": "_registeredStartAt",
          "type": "uint256"
        },
        {
          "internalType": "uint256",
          "name": "_registeredEndAt",
          "type": "uint256"
        }
      ],
      "name": "updateRegisteredTime",
      "outputs": [],
      "stateMutability": "nonpayable",
      "type": "function"
    },
    {
      "inputs": [
        {
          "internalType": "uint256",
          "name": "credits",
          "type": "uint256"
        },
        {
          "internalType": "string",
          "name": "tokenURI",
          "type": "string"
        }
      ],
      "name": "createRequirement",
      "outputs": [],
      "stateMutability": "nonpayable",
      "type": "function"
    },
    {
      "inputs": [
        {
          "internalType": "uint256",
          "name": "tokenId",
          "type": "uint256"
        },
        {
          "internalType": "uint256",
          "name": "credits",
          "type": "uint256"
        }
      ],
      "name": "updateRequirement",
      "outputs": [],
      "stateMutability": "nonpayable",
      "type": "function"
    },
    {
      "inputs": [
        {
          "internalType": "uint256",
          "name": "requirementId",
          "type": "uint256"
        },
        {
          "internalType": "uint256",
          "name": "credits",
          "type": "uint256"
        },
        {
          "internalType": "string",
          "name": "tokenURI",
          "type": "string"
        }
      ],
      "name": "createCourseTemplate",
      "outputs": [],
      "stateMutability": "nonpayable",
      "type": "function"
    },
    {
      "inputs": [
        {
          "internalType": "uint256",
          "name": "tokenId",
          "type": "uint256"
        },
        {
          "internalType": "uint256",
          "name": "credits",
          "type": "uint256"
        }
      ],
      "name": "updateCourseTemplate",
      "outputs": [],
      "stateMutability": "nonpayable",
      "type": "function"
    },
    {
      "inputs": [
        {
          "internalType": "uint256",
          "name": "tokenId",
          "type": "uint256"
        }
      ],
      "name": "burnToken",
      "outputs": [],
      "stateMutability": "nonpayable",
      "type": "function"
    },
    {
      "inputs": [],
      "name": "getRegisteredClasses",
      "outputs": [
        {
          "components": [
            {
              "internalType": "uint256",
              "name": "tokenId",
              "type": "uint256"
            },
            {
              "internalType": "uint256",
              "name": "courseTemplateId",
              "type": "uint256"
            },
            {
              "internalType": "uint256",
              "name": "credits",
              "type": "uint256"
            },
            {
              "internalType": "uint256",
              "name": "completeAt",
              "type": "uint256"
            },
            {
              "internalType": "uint256[]",
              "name": "requiredScore",
              "type": "uint256[]"
            },
            {
              "internalType": "address[]",
              "name": "studentAddresses",
              "type": "address[]"
            },
            {
              "internalType": "uint256",
              "name": "maxSize",
              "type": "uint256"
            },
            {
              "internalType": "address",
              "name": "teacherAddr",
              "type": "address"
            }
          ],
          "internalType": "struct IConstant.NftClass[]",
          "name": "",
          "type": "tuple[]"
        },
        {
          "internalType": "string[]",
          "name": "",
          "type": "string[]"
        }
      ],
      "stateMutability": "view",
      "type": "function",
      "constant": true
    },
    {
      "inputs": [],
      "name": "getAllNftRequirements",
      "outputs": [
        {
          "components": [
            {
              "internalType": "uint256",
              "name": "tokenId",
              "type": "uint256"
            },
            {
              "internalType": "uint256",
              "name": "credits",
              "type": "uint256"
            }
          ],
          "internalType": "struct IConstant.NftRequirement[]",
          "name": "",
          "type": "tuple[]"
        },
        {
          "internalType": "string[]",
          "name": "",
          "type": "string[]"
        }
      ],
      "stateMutability": "view",
      "type": "function",
      "constant": true
    },
    {
      "inputs": [
        {
          "internalType": "uint256",
          "name": "tokenId",
          "type": "uint256"
        }
      ],
      "name": "getNftRequirement",
      "outputs": [
        {
          "components": [
            {
              "internalType": "uint256",
              "name": "tokenId",
              "type": "uint256"
            },
            {
              "internalType": "uint256",
              "name": "credits",
              "type": "uint256"
            }
          ],
          "internalType": "struct IConstant.NftRequirement",
          "name": "",
          "type": "tuple"
        },
        {
          "internalType": "string",
          "name": "",
          "type": "string"
        }
      ],
      "stateMutability": "view",
      "type": "function",
      "constant": true
    },
    {
      "inputs": [
        {
          "internalType": "uint256",
          "name": "tokenId",
          "type": "uint256"
        }
      ],
      "name": "getNftClass",
      "outputs": [
        {
          "components": [
            {
              "internalType": "uint256",
              "name": "tokenId",
              "type": "uint256"
            },
            {
              "internalType": "uint256",
              "name": "courseTemplateId",
              "type": "uint256"
            },
            {
              "internalType": "uint256",
              "name": "credits",
              "type": "uint256"
            },
            {
              "internalType": "uint256",
              "name": "completeAt",
              "type": "uint256"
            },
            {
              "internalType": "uint256[]",
              "name": "requiredScore",
              "type": "uint256[]"
            },
            {
              "internalType": "address[]",
              "name": "studentAddresses",
              "type": "address[]"
            },
            {
              "internalType": "uint256",
              "name": "maxSize",
              "type": "uint256"
            },
            {
              "internalType": "address",
              "name": "teacherAddr",
              "type": "address"
            }
          ],
          "internalType": "struct IConstant.NftClass",
          "name": "",
          "type": "tuple"
        },
        {
          "internalType": "string",
          "name": "",
          "type": "string"
        }
      ],
      "stateMutability": "view",
      "type": "function",
      "constant": true
    },
    {
      "inputs": [
        {
          "internalType": "uint256",
          "name": "_yearId",
          "type": "uint256"
        }
      ],
      "name": "getAllNftClasses",
      "outputs": [
        {
          "components": [
            {
              "internalType": "uint256",
              "name": "tokenId",
              "type": "uint256"
            },
            {
              "internalType": "uint256",
              "name": "courseTemplateId",
              "type": "uint256"
            },
            {
              "internalType": "uint256",
              "name": "credits",
              "type": "uint256"
            },
            {
              "internalType": "uint256",
              "name": "completeAt",
              "type": "uint256"
            },
            {
              "internalType": "uint256[]",
              "name": "requiredScore",
              "type": "uint256[]"
            },
            {
              "internalType": "address[]",
              "name": "studentAddresses",
              "type": "address[]"
            },
            {
              "internalType": "uint256",
              "name": "maxSize",
              "type": "uint256"
            },
            {
              "internalType": "address",
              "name": "teacherAddr",
              "type": "address"
            }
          ],
          "internalType": "struct IConstant.NftClass[]",
          "name": "",
          "type": "tuple[]"
        },
        {
          "internalType": "string[]",
          "name": "",
          "type": "string[]"
        }
      ],
      "stateMutability": "view",
      "type": "function",
      "constant": true
    },
    {
      "inputs": [],
      "name": "getAllNftCourseTemplate",
      "outputs": [
        {
          "components": [
            {
              "internalType": "uint256",
              "name": "tokenId",
              "type": "uint256"
            },
            {
              "internalType": "uint256",
              "name": "requirementId",
              "type": "uint256"
            },
            {
              "internalType": "uint256",
              "name": "credits",
              "type": "uint256"
            }
          ],
          "internalType": "struct IConstant.NftCourseTemplate[]",
          "name": "",
          "type": "tuple[]"
        }
      ],
      "stateMutability": "view",
      "type": "function",
      "constant": true
    },
    {
      "inputs": [
        {
          "internalType": "uint256",
          "name": "tokenId",
          "type": "uint256"
        }
      ],
      "name": "getNftCourseTemplate",
      "outputs": [
        {
          "components": [
            {
              "internalType": "uint256",
              "name": "tokenId",
              "type": "uint256"
            },
            {
              "internalType": "uint256",
              "name": "requirementId",
              "type": "uint256"
            },
            {
              "internalType": "uint256",
              "name": "credits",
              "type": "uint256"
            }
          ],
          "internalType": "struct IConstant.NftCourseTemplate",
          "name": "",
          "type": "tuple"
        }
      ],
      "stateMutability": "view",
      "type": "function",
      "constant": true
    },
    {
      "inputs": [
        {
          "internalType": "uint256",
          "name": "tokenId",
          "type": "uint256"
        }
      ],
      "name": "checkTokenExists",
      "outputs": [
        {
          "internalType": "bool",
          "name": "",
          "type": "bool"
        }
      ],
      "stateMutability": "view",
      "type": "function",
      "constant": true
    },
    {
      "inputs": [
        {
          "internalType": "uint256",
          "name": "tokenId",
          "type": "uint256"
        },
        {
          "internalType": "uint256",
          "name": "requiredType",
          "type": "uint256"
        }
      ],
      "name": "checkTokenOfTypeExists",
      "outputs": [
        {
          "internalType": "bool",
          "name": "",
          "type": "bool"
        }
      ],
      "stateMutability": "view",
      "type": "function",
      "constant": true
    },
    {
      "inputs": [],
      "name": "checkInRegisterDate",
      "outputs": [
        {
          "internalType": "bool",
          "name": "",
          "type": "bool"
        }
      ],
      "stateMutability": "view",
      "type": "function",
      "constant": true
    },
    {
      "inputs": [
        {
          "internalType": "uint256",
          "name": "credits",
          "type": "uint256"
        },
        {
          "internalType": "string",
          "name": "tokenURI",
          "type": "string"
        }
      ],
      "name": "_mintNftRequirement",
      "outputs": [
        {
          "internalType": "uint256",
          "name": "",
          "type": "uint256"
        }
      ],
      "stateMutability": "nonpayable",
      "type": "function"
    }
  ],
  "bytecode": "0x608060405260405180602001604052806000815250600390805190602001906200002b92919062000277565b503480156200003957600080fd5b506040516200638d3803806200638d83398181016040528101906200005f919062000391565b604051806020016040528060008152508062000081816200025b60201b60201c565b5033600560006101000a81548173ffffffffffffffffffffffffffffffffffffffff021916908373ffffffffffffffffffffffffffffffffffffffff1602179055505080600a60006101000a81548173ffffffffffffffffffffffffffffffffffffffff021916908373ffffffffffffffffffffffffffffffffffffffff16021790555042600c81905550600160116000806004811115620001285762000127620003c3565b5b815260200190815260200160002060006101000a81548160ff021916908315150217905550600160116000600160048111156200016a5762000169620003c3565b5b815260200190815260200160002060006101000a81548160ff02191690831515021790555060016011600060026004811115620001ac57620001ab620003c3565b5b815260200190815260200160002060006101000a81548160ff02191690831515021790555060016011600060036004811115620001ee57620001ed620003c3565b5b815260200190815260200160002060006101000a81548160ff0219169083151502179055506001601160006004808111156200022f576200022e620003c3565b5b815260200190815260200160002060006101000a81548160ff0219169083151502179055505062000456565b80600290805190602001906200027392919062000277565b5050565b828054620002859062000421565b90600052602060002090601f016020900481019282620002a95760008555620002f5565b82601f10620002c457805160ff1916838001178555620002f5565b82800160010185558215620002f5579182015b82811115620002f4578251825591602001919060010190620002d7565b5b50905062000304919062000308565b5090565b5b808211156200032357600081600090555060010162000309565b5090565b600080fd5b600073ffffffffffffffffffffffffffffffffffffffff82169050919050565b600062000359826200032c565b9050919050565b6200036b816200034c565b81146200037757600080fd5b50565b6000815190506200038b8162000360565b92915050565b600060208284031215620003aa57620003a962000327565b5b6000620003ba848285016200037a565b91505092915050565b7f4e487b7100000000000000000000000000000000000000000000000000000000600052602160045260246000fd5b7f4e487b7100000000000000000000000000000000000000000000000000000000600052602260045260246000fd5b600060028204905060018216806200043a57607f821691505b60208210810362000450576200044f620003f2565b5b50919050565b615f2780620004666000396000f3fe608060405234801561001057600080fd5b50600436106101fa5760003560e01c806382ae3c971161011a578063bfd5621e116100ad578063e985e9c51161007c578063e985e9c5146105e9578063ecb1fa5514610619578063f0b841df1461064a578063f242432a14610668578063fe7a85e514610684576101fa565b8063bfd5621e1461054f578063c4d66de81461057f578063c6a3c0db1461059b578063df4e4891146105cb576101fa565b8063a45f35c4116100e9578063a45f35c4146104dd578063ace48af9146104f9578063af0d1cb514610515578063b105507514610533576101fa565b806382ae3c97146104565780638f03802d146104725780638fc92b0f14610490578063a22cb465146104c1576101fa565b80632eb2c2d611610192578063645f833f11610161578063645f833f146103de5780636d6ffaf6146103fd57806375f1a6e31461041c5780637b47ec1a1461043a576101fa565b80632eb2c2d6146103315780633a9f61d91461034d5780634e1273f41461037d5780634eeb177f146103ad576101fa565b806311394f56116101ce57806311394f56146102ab57806317b63e89146102c95780631a53e484146102e557806329f60c4f14610315576101fa565b8062fdd58e146101ff57806301ffc9a71461022f57806303aa731e1461025f5780630e89341c1461027b575b600080fd5b610219600480360381019061021491906137e7565b6106a0565b6040516102269190613836565b60405180910390f35b610249600480360381019061024491906138a9565b610768565b60405161025691906138f1565b60405180910390f35b6102796004803603810190610274919061390c565b61084a565b005b6102956004803603810190610290919061394c565b61099d565b6040516102a29190613a12565b60405180910390f35b6102b3610a82565b6040516102c09190613836565b60405180910390f35b6102e360048036038101906102de9190613b69565b610a88565b005b6102ff60048036038101906102fa919061390c565b610b4e565b60405161030c91906138f1565b60405180910390f35b61032f600480360381019061032a919061390c565b610b9e565b005b61034b60048036038101906103469190613d2e565b610c90565b005b6103676004803603810190610362919061394c565b610d31565b6040516103749190613e4e565b60405180910390f35b61039760048036038101906103929190613f2c565b610e05565b6040516103a49190614053565b60405180910390f35b6103c760048036038101906103c2919061394c565b610f1e565b6040516103d5929190614427565b60405180910390f35b6103e6610fd2565b6040516103f492919061453c565b60405180910390f35b610405611113565b604051610413929190614427565b60405180910390f35b6104246111c8565b60405161043191906138f1565b60405180910390f35b610454600480360381019061044f919061394c565b6111e3565b005b610470600480360381019061046b9190614573565b6112c6565b005b61047a6113e6565b6040516104879190613836565b60405180910390f35b6104aa60048036038101906104a5919061394c565b6113ec565b6040516104b892919061467d565b60405180910390f35b6104db60048036038101906104d691906146e0565b611621565b005b6104f760048036038101906104f29190614720565b611637565b005b610513600480360381019061050e9190614870565b6116ff565b005b61051d61181d565b60405161052a9190613836565b60405180910390f35b61054d6004803603810190610548919061390c565b611823565b005b6105696004803603810190610564919061394c565b611976565b60405161057691906138f1565b60405180910390f35b610599600480360381019061059491906148e8565b6119ba565b005b6105b560048036038101906105b09190613b69565b611a8d565b6040516105c29190613836565b60405180910390f35b6105d3611b25565b6040516105e09190613836565b60405180910390f35b61060360048036038101906105fe9190614915565b611b2b565b60405161061091906138f1565b60405180910390f35b610633600480360381019061062e919061394c565b611bbf565b604051610641929190614984565b60405180910390f35b610652611c99565b60405161065f9190614aa5565b60405180910390f35b610682600480360381019061067d9190614ac7565b611d70565b005b61069e60048036038101906106999190614b5e565b611e11565b005b60008073ffffffffffffffffffffffffffffffffffffffff168373ffffffffffffffffffffffffffffffffffffffff1603610710576040517f08c379a000000000000000000000000000000000000000000000000000000000815260040161070790614c77565b60405180910390fd5b60008083815260200190815260200160002060008473ffffffffffffffffffffffffffffffffffffffff1673ffffffffffffffffffffffffffffffffffffffff16815260200190815260200160002054905092915050565b60007fd9b67a26000000000000000000000000000000000000000000000000000000007bffffffffffffffffffffffffffffffffffffffffffffffffffffffff1916827bffffffffffffffffffffffffffffffffffffffffffffffffffffffff1916148061083357507f0e89341c000000000000000000000000000000000000000000000000000000007bffffffffffffffffffffffffffffffffffffffffffffffffffffffff1916827bffffffffffffffffffffffffffffffffffffffffffffffffffffffff1916145b80610843575061084282611f59565b5b9050919050565b3373ffffffffffffffffffffffffffffffffffffffff16600560009054906101000a900473ffffffffffffffffffffffffffffffffffffffff1673ffffffffffffffffffffffffffffffffffffffff16146108a457600080fd5b600c5442116108b257600080fd5b600081116108f5576040517f08c379a00000000000000000000000000000000000000000000000000000000081526004016108ec90614ce3565b60405180910390fd5b60006015600060018152602001908152602001600020600084815260200190815260200160002054905060008111610962576040517f08c379a000000000000000000000000000000000000000000000000000000000815260040161095990614d4f565b60405180910390fd5b8160126001836109729190614d9e565b8154811061098357610982614dd2565b5b906000526020600020906002020160010181905550505050565b606060006004600084815260200190815260200160002080546109bf90614e30565b80601f01602080910402602001604051908101604052809291908181526020018280546109eb90614e30565b8015610a385780601f10610a0d57610100808354040283529160200191610a38565b820191906000526020600020905b815481529060010190602001808311610a1b57829003601f168201915b505050505090506000815111610a5657610a5183611fc3565b610a7a565b600381604051602001610a6a929190614f31565b6040516020818303038152906040525b915050919050565b600c5481565b3373ffffffffffffffffffffffffffffffffffffffff16600560009054906101000a900473ffffffffffffffffffffffffffffffffffffffff1673ffffffffffffffffffffffffffffffffffffffff1614610ae257600080fd5b600c544211610af057600080fd5b600b60159054906101000a900460ff16610b3f576040517f08c379a0000000000000000000000000000000000000000000000000000000008152600401610b3690614fc7565b60405180910390fd5b610b498282611a8d565b505050565b600080610b5a84612057565b90506000601560008381526020019081526020016000206000868152602001908152602001600020549050600081118015610b9457508382145b9250505092915050565b3373ffffffffffffffffffffffffffffffffffffffff16600560009054906101000a900473ffffffffffffffffffffffffffffffffffffffff1673ffffffffffffffffffffffffffffffffffffffff1614610bf857600080fd5b818111610c3a576040517f08c379a0000000000000000000000000000000000000000000000000000000008152600401610c3190615059565b60405180910390fd5b80600c5411610c7e576040517f08c379a0000000000000000000000000000000000000000000000000000000008152600401610c75906150eb565b60405180910390fd5b81600d8190555080600e819055505050565b610c98612065565b73ffffffffffffffffffffffffffffffffffffffff168573ffffffffffffffffffffffffffffffffffffffff161480610cde5750610cdd85610cd8612065565b611b2b565b5b610d1d576040517f08c379a0000000000000000000000000000000000000000000000000000000008152600401610d149061517d565b60405180910390fd5b610d2a858585858561206d565b5050505050565b610d39613606565b60006015600060028152602001908152602001600020600084815260200190815260200160002054905060008111610da6576040517f08c379a0000000000000000000000000000000000000000000000000000000008152600401610d9d90614d4f565b60405180910390fd5b6013600182610db59190614d9e565b81548110610dc657610dc5614dd2565b5b90600052602060002090600302016040518060600160405290816000820154815260200160018201548152602001600282015481525050915050919050565b60608151835114610e4b576040517f08c379a0000000000000000000000000000000000000000000000000000000008152600401610e429061520f565b60405180910390fd5b6000835167ffffffffffffffff811115610e6857610e67613a3e565b5b604051908082528060200260200182016040528015610e965781602001602082028036833780820191505090505b50905060005b8451811015610f1357610ee3858281518110610ebb57610eba614dd2565b5b6020026020010151858381518110610ed657610ed5614dd2565b5b60200260200101516106a0565b828281518110610ef657610ef5614dd2565b5b60200260200101818152505080610f0c9061522f565b9050610e9c565b508091505092915050565b6060803373ffffffffffffffffffffffffffffffffffffffff16600560009054906101000a900473ffffffffffffffffffffffffffffffffffffffff1673ffffffffffffffffffffffffffffffffffffffff1614610f7b57600080fd5b600f54831115610fc0576040517f08c379a0000000000000000000000000000000000000000000000000000000008152600401610fb7906152c3565b60405180910390fd5b610fc98361238e565b91509150915091565b6060806000601280549050905060008167ffffffffffffffff811115610ffb57610ffa613a3e565b5b60405190808252806020026020018201604052801561102e57816020015b60608152602001906001900390816110195790505b50905060005b828111611098576110696012828154811061105257611051614dd2565b5b90600052602060002090600202016000015461099d565b82828151811061107c5761107b614dd2565b5b6020026020010181905250806110919061522f565b9050611034565b5060128181805480602002602001604051908101604052809291908181526020016000905b82821015611103578382906000526020600020906002020160405180604001604052908160008201548152602001600182015481525050815260200190600101906110bd565b5050505091509350935050509091565b606080600560009054906101000a900473ffffffffffffffffffffffffffffffffffffffff1673ffffffffffffffffffffffffffffffffffffffff163373ffffffffffffffffffffffffffffffffffffffff16148061117657506111756111c8565b5b6111b5576040517f08c379a00000000000000000000000000000000000000000000000000000000081526004016111ac9061532f565b60405180910390fd5b6111c0600f5461238e565b915091509091565b6000600d5442101580156111de5750600e544211155b905090565b3373ffffffffffffffffffffffffffffffffffffffff16600560009054906101000a900473ffffffffffffffffffffffffffffffffffffffff1673ffffffffffffffffffffffffffffffffffffffff161461123d57600080fd5b600c54421161124b57600080fd5b8061125581611976565b611294576040517f08c379a000000000000000000000000000000000000000000000000000000000815260040161128b9061539b565b60405180910390fd5b6112c2600560009054906101000a900473ffffffffffffffffffffffffffffffffffffffff16836001612550565b5050565b3373ffffffffffffffffffffffffffffffffffffffff16600560009054906101000a900473ffffffffffffffffffffffffffffffffffffffff1673ffffffffffffffffffffffffffffffffffffffff161461132057600080fd5b600c54421161132e57600080fd5b818111611370576040517f08c379a000000000000000000000000000000000000000000000000000000000815260040161136790615059565b60405180910390fd5b8083116113b2576040517f08c379a00000000000000000000000000000000000000000000000000000000081526004016113a9906150eb565b60405180910390fd5b82600c8190555081600d8190555080600e819055506001600f60008282546113da91906153bb565b92505081905550505050565b600e5481565b6113f4613627565b606060006015600060038152602001908152602001600020600085815260200190815260200160002054905060008111611463576040517f08c379a000000000000000000000000000000000000000000000000000000000815260040161145a90614d4f565b60405180910390fd5b60146001826114729190614d9e565b8154811061148357611482614dd2565b5b906000526020600020906008020161149a8561099d565b8160405180610100016040529081600082015481526020016001820154815260200160028201548152602001600382015481526020016004820180548060200260200160405190810160405280929190818152602001828054801561151e57602002820191906000526020600020905b81548152602001906001019080831161150a575b50505050508152602001600582018054806020026020016040519081016040528092919081815260200182805480156115ac57602002820191906000526020600020905b8160009054906101000a900473ffffffffffffffffffffffffffffffffffffffff1673ffffffffffffffffffffffffffffffffffffffff1681526020019060010190808311611562575b50505050508152602001600682015481526020016007820160009054906101000a900473ffffffffffffffffffffffffffffffffffffffff1673ffffffffffffffffffffffffffffffffffffffff1673ffffffffffffffffffffffffffffffffffffffff168152505091509250925050915091565b61163361162c612065565b8383612796565b5050565b3373ffffffffffffffffffffffffffffffffffffffff16600560009054906101000a900473ffffffffffffffffffffffffffffffffffffffff1673ffffffffffffffffffffffffffffffffffffffff161461169157600080fd5b600c54421161169f57600080fd5b600b60169054906101000a900460ff166116ee576040517f08c379a00000000000000000000000000000000000000000000000000000000081526004016116e590615483565b60405180910390fd5b6116f9838383612902565b50505050565b3373ffffffffffffffffffffffffffffffffffffffff16600560009054906101000a900473ffffffffffffffffffffffffffffffffffffffff1673ffffffffffffffffffffffffffffffffffffffff161461175957600080fd5b600b60159054906101000a900460ff16156117a9576040517f08c379a00000000000000000000000000000000000000000000000000000000081526004016117a0906154ef565b60405180910390fd5b80518251146117b757600080fd5b60008251905060005b818111611817576118058482815181106117dd576117dc614dd2565b5b60200260200101518483815181106117f8576117f7614dd2565b5b6020026020010151611a8d565b50806118109061522f565b90506117c0565b50505050565b600d5481565b3373ffffffffffffffffffffffffffffffffffffffff16600560009054906101000a900473ffffffffffffffffffffffffffffffffffffffff1673ffffffffffffffffffffffffffffffffffffffff161461187d57600080fd5b600c54421161188b57600080fd5b600081116118ce576040517f08c379a00000000000000000000000000000000000000000000000000000000081526004016118c590614ce3565b60405180910390fd5b6000601560006002815260200190815260200160002060008481526020019081526020016000205490506000811161193b576040517f08c379a000000000000000000000000000000000000000000000000000000000815260040161193290614d4f565b60405180910390fd5b81601360018361194b9190614d9e565b8154811061195c5761195b614dd2565b5b906000526020600020906003020160020181905550505050565b60008061198283612057565b905060006015600083815260200190815260200160002060008581526020019081526020016000205490506000811192505050919050565b3373ffffffffffffffffffffffffffffffffffffffff16600560009054906101000a900473ffffffffffffffffffffffffffffffffffffffff1673ffffffffffffffffffffffffffffffffffffffff1614611a1457600080fd5b600b60149054906101000a900460ff1615611a2e57600080fd5b6001600b60146101000a81548160ff02191690831515021790555080600b60006101000a81548173ffffffffffffffffffffffffffffffffffffffff021916908373ffffffffffffffffffffffffffffffffffffffff16021790555050565b600080611a9b600184612928565b9050611aa78185612a62565b611b1b600560009054906101000a900473ffffffffffffffffffffffffffffffffffffffff168260016000368080601f016020809104026020016040519081016040528093929190818152602001838380828437600081840152601f19601f82011690508083019250505050505050612b34565b8091505092915050565b600f5481565b6000600160008473ffffffffffffffffffffffffffffffffffffffff1673ffffffffffffffffffffffffffffffffffffffff16815260200190815260200160002060008373ffffffffffffffffffffffffffffffffffffffff1673ffffffffffffffffffffffffffffffffffffffff16815260200190815260200160002060009054906101000a900460ff16905092915050565b611bc7613682565b606060006015600060018152602001908152602001600020600085815260200190815260200160002054905060008111611c36576040517f08c379a0000000000000000000000000000000000000000000000000000000008152600401611c2d90614d4f565b60405180910390fd5b6012600182611c459190614d9e565b81548110611c5657611c55614dd2565b5b9060005260206000209060020201611c6d8561099d565b816040518060400160405290816000820154815260200160018201548152505091509250925050915091565b60603373ffffffffffffffffffffffffffffffffffffffff16600560009054906101000a900473ffffffffffffffffffffffffffffffffffffffff1673ffffffffffffffffffffffffffffffffffffffff1614611cf557600080fd5b6013805480602002602001604051908101604052809291908181526020016000905b82821015611d675783829060005260206000209060030201604051806060016040529081600082015481526020016001820154815260200160028201548152505081526020019060010190611d17565b50505050905090565b611d78612065565b73ffffffffffffffffffffffffffffffffffffffff168573ffffffffffffffffffffffffffffffffffffffff161480611dbe5750611dbd85611db8612065565b611b2b565b5b611dfd576040517f08c379a0000000000000000000000000000000000000000000000000000000008152600401611df49061517d565b60405180910390fd5b611e0a8585858585612ce4565b5050505050565b3373ffffffffffffffffffffffffffffffffffffffff16600560009054906101000a900473ffffffffffffffffffffffffffffffffffffffff1673ffffffffffffffffffffffffffffffffffffffff1614611e6b57600080fd5b600b60169054906101000a900460ff1615611ebb576040517f08c379a0000000000000000000000000000000000000000000000000000000008152600401611eb29061555b565b60405180910390fd5b8051835114611ec957600080fd5b8051835114611ed757600080fd5b60008251905060005b818111611f5257611f40858281518110611efd57611efc614dd2565b5b6020026020010151858381518110611f1857611f17614dd2565b5b6020026020010151858481518110611f3357611f32614dd2565b5b6020026020010151612902565b5080611f4b9061522f565b9050611ee0565b5050505050565b60007f01ffc9a7000000000000000000000000000000000000000000000000000000007bffffffffffffffffffffffffffffffffffffffffffffffffffffffff1916827bffffffffffffffffffffffffffffffffffffffffffffffffffffffff1916149050919050565b606060028054611fd290614e30565b80601f0160208091040260200160405190810160405280929190818152602001828054611ffe90614e30565b801561204b5780601f106120205761010080835404028352916020019161204b565b820191906000526020600020905b81548152906001019060200180831161202e57829003601f168201915b50505050509050919050565b6000601082901c9050919050565b600033905090565b81518351146120b1576040517f08c379a00000000000000000000000000000000000000000000000000000000081526004016120a8906155ed565b60405180910390fd5b600073ffffffffffffffffffffffffffffffffffffffff168473ffffffffffffffffffffffffffffffffffffffff1603612120576040517f08c379a00000000000000000000000000000000000000000000000000000000081526004016121179061567f565b60405180910390fd5b600061212a612065565b905061213a818787878787612f7f565b60005b84518110156122eb57600085828151811061215b5761215a614dd2565b5b60200260200101519050600085838151811061217a57612179614dd2565b5b60200260200101519050600080600084815260200190815260200160002060008b73ffffffffffffffffffffffffffffffffffffffff1673ffffffffffffffffffffffffffffffffffffffff1681526020019081526020016000205490508181101561221b576040517f08c379a000000000000000000000000000000000000000000000000000000000815260040161221290615711565b60405180910390fd5b81810360008085815260200190815260200160002060008c73ffffffffffffffffffffffffffffffffffffffff1673ffffffffffffffffffffffffffffffffffffffff168152602001908152602001600020819055508160008085815260200190815260200160002060008b73ffffffffffffffffffffffffffffffffffffffff1673ffffffffffffffffffffffffffffffffffffffff16815260200190815260200160002060008282546122d091906153bb565b92505081905550505050806122e49061522f565b905061213d565b508473ffffffffffffffffffffffffffffffffffffffff168673ffffffffffffffffffffffffffffffffffffffff168273ffffffffffffffffffffffffffffffffffffffff167f4a39dc06d4c0dbc64b70af90fd698a233a518aa5d07e595d983b8c0526c8f7fb8787604051612362929190615731565b60405180910390a4612378818787878787612f87565b612386818787878787612f8f565b505050505050565b6060803373ffffffffffffffffffffffffffffffffffffffff16600560009054906101000a900473ffffffffffffffffffffffffffffffffffffffff1673ffffffffffffffffffffffffffffffffffffffff16146123eb57600080fd5b60006010600085815260200190815260200160002080549050905060008167ffffffffffffffff81111561242257612421613a3e565b5b60405190808252806020026020018201604052801561245b57816020015b612448613627565b8152602001906001900390816124405790505b50905060008267ffffffffffffffff81111561247a57612479613a3e565b5b6040519080825280602002602001820160405280156124ad57816020015b60608152602001906001900390816124985790505b50905060005b838111612541576124f460106000600f54815260200190815260200160002082815481106124e4576124e3614dd2565b5b90600052602060002001546113ec565b84838151811061250757612506614dd2565b5b6020026020010184848151811061252157612520614dd2565b5b6020026020010182905282905250508061253a9061522f565b90506124b3565b50818194509450505050915091565b600073ffffffffffffffffffffffffffffffffffffffff168373ffffffffffffffffffffffffffffffffffffffff16036125bf576040517f08c379a00000000000000000000000000000000000000000000000000000000081526004016125b6906157da565b60405180910390fd5b60006125c9612065565b905060006125d684613166565b905060006125e384613166565b905061260383876000858560405180602001604052806000815250612f7f565b600080600087815260200190815260200160002060008873ffffffffffffffffffffffffffffffffffffffff1673ffffffffffffffffffffffffffffffffffffffff1681526020019081526020016000205490508481101561269a576040517f08c379a00000000000000000000000000000000000000000000000000000000081526004016126919061586c565b60405180910390fd5b84810360008088815260200190815260200160002060008973ffffffffffffffffffffffffffffffffffffffff1673ffffffffffffffffffffffffffffffffffffffff16815260200190815260200160002081905550600073ffffffffffffffffffffffffffffffffffffffff168773ffffffffffffffffffffffffffffffffffffffff168573ffffffffffffffffffffffffffffffffffffffff167fc3d58168c5ae7397731d063d5bbf3d657854427343f4c083240f7aacaa2d0f62898960405161276792919061588c565b60405180910390a461278d84886000868660405180602001604052806000815250612f87565b50505050505050565b8173ffffffffffffffffffffffffffffffffffffffff168373ffffffffffffffffffffffffffffffffffffffff1603612804576040517f08c379a00000000000000000000000000000000000000000000000000000000081526004016127fb90615927565b60405180910390fd5b80600160008573ffffffffffffffffffffffffffffffffffffffff1673ffffffffffffffffffffffffffffffffffffffff16815260200190815260200160002060008473ffffffffffffffffffffffffffffffffffffffff1673ffffffffffffffffffffffffffffffffffffffff16815260200190815260200160002060006101000a81548160ff0219169083151502179055508173ffffffffffffffffffffffffffffffffffffffff168373ffffffffffffffffffffffffffffffffffffffff167f17307eab39ab6107e8899845ad3d59bd9653f200f220920489ca2b5937696c31836040516128f591906138f1565b60405180910390a3505050565b600080612910600284612928565b905061291d8186866131e0565b809150509392505050565b600060078260405161293a9190615947565b908152602001604051809103902060009054906101000a900460ff1615612996576040517f08c379a000000000000000000000000000000000000000000000000000000000815260040161298d906159aa565b60405180910390fd5b60006129a184613331565b9050612a17600560009054906101000a900473ffffffffffffffffffffffffffffffffffffffff168260016000368080601f016020809104026020016040519081016040528093929190818152602001838380828437600081840152601f19601f82011690508083019250505050505050612b34565b612a21818461337c565b6001600784604051612a339190615947565b908152602001604051809103902060006101000a81548160ff0219169083151502179055508091505092915050565b60008111612aa5576040517f08c379a0000000000000000000000000000000000000000000000000000000008152600401612a9c90615a3c565b60405180910390fd5b600060405180604001604052808481526020018381525090506012819080600181540180825580915050600190039060005260206000209060020201600090919091909150600082015181600001556020820151816001015550506012805490506015600060018152602001908152602001600020600085815260200190815260200160002081905550505050565b600073ffffffffffffffffffffffffffffffffffffffff168473ffffffffffffffffffffffffffffffffffffffff1603612ba3576040517f08c379a0000000000000000000000000000000000000000000000000000000008152600401612b9a90615ace565b60405180910390fd5b6000612bad612065565b90506000612bba85613166565b90506000612bc785613166565b9050612bd883600089858589612f7f565b8460008088815260200190815260200160002060008973ffffffffffffffffffffffffffffffffffffffff1673ffffffffffffffffffffffffffffffffffffffff1681526020019081526020016000206000828254612c3791906153bb565b925050819055508673ffffffffffffffffffffffffffffffffffffffff16600073ffffffffffffffffffffffffffffffffffffffff168473ffffffffffffffffffffffffffffffffffffffff167fc3d58168c5ae7397731d063d5bbf3d657854427343f4c083240f7aacaa2d0f628989604051612cb592919061588c565b60405180910390a4612ccc83600089858589612f87565b612cdb836000898989896133e8565b50505050505050565b600073ffffffffffffffffffffffffffffffffffffffff168473ffffffffffffffffffffffffffffffffffffffff1603612d53576040517f08c379a0000000000000000000000000000000000000000000000000000000008152600401612d4a9061567f565b60405180910390fd5b6000612d5d612065565b90506000612d6a85613166565b90506000612d7785613166565b9050612d87838989858589612f7f565b600080600088815260200190815260200160002060008a73ffffffffffffffffffffffffffffffffffffffff1673ffffffffffffffffffffffffffffffffffffffff16815260200190815260200160002054905085811015612e1e576040517f08c379a0000000000000000000000000000000000000000000000000000000008152600401612e1590615711565b60405180910390fd5b85810360008089815260200190815260200160002060008b73ffffffffffffffffffffffffffffffffffffffff1673ffffffffffffffffffffffffffffffffffffffff168152602001908152602001600020819055508560008089815260200190815260200160002060008a73ffffffffffffffffffffffffffffffffffffffff1673ffffffffffffffffffffffffffffffffffffffff1681526020019081526020016000206000828254612ed391906153bb565b925050819055508773ffffffffffffffffffffffffffffffffffffffff168973ffffffffffffffffffffffffffffffffffffffff168573ffffffffffffffffffffffffffffffffffffffff167fc3d58168c5ae7397731d063d5bbf3d657854427343f4c083240f7aacaa2d0f628a8a604051612f5092919061588c565b60405180910390a4612f66848a8a86868a612f87565b612f74848a8a8a8a8a6133e8565b505050505050505050565b505050505050565b505050505050565b612fae8473ffffffffffffffffffffffffffffffffffffffff166135bf565b1561315e578373ffffffffffffffffffffffffffffffffffffffff1663bc197c8187878686866040518663ffffffff1660e01b8152600401612ff4959493929190615b52565b6020604051808303816000875af192505050801561303057506040513d601f19601f8201168201806040525081019061302d9190615bcf565b60015b6130d55761303c615c09565b806308c379a0036130985750613050615c2b565b8061305b575061309a565b806040517f08c379a000000000000000000000000000000000000000000000000000000000815260040161308f9190613a12565b60405180910390fd5b505b6040517f08c379a00000000000000000000000000000000000000000000000000000000081526004016130cc90615d2d565b60405180910390fd5b63bc197c8160e01b7bffffffffffffffffffffffffffffffffffffffffffffffffffffffff1916817bffffffffffffffffffffffffffffffffffffffffffffffffffffffff19161461315c576040517f08c379a000000000000000000000000000000000000000000000000000000000815260040161315390615dbf565b60405180910390fd5b505b505050505050565b60606000600167ffffffffffffffff81111561318557613184613a3e565b5b6040519080825280602002602001820160405280156131b35781602001602082028036833780820191505090505b50905082816000815181106131cb576131ca614dd2565b5b60200260200101818152505080915050919050565b6000601560006001815260200190815260200160002060008481526020019081526020016000205490506000811161324d576040517f08c379a000000000000000000000000000000000000000000000000000000000815260040161324490615e77565b60405180910390fd5b60008211613290576040517f08c379a000000000000000000000000000000000000000000000000000000000815260040161328790615a3c565b60405180910390fd5b600060405180606001604052808681526020018581526020018481525090506013819080600181540180825580915050600190039060005260206000209060030201600090919091909150600082015181600001556020820151816001015560408201518160020155505060138054905060156000600281526020019081526020016000206000878152602001908152602001600020819055505050505050565b600061334e600660008481526020019081526020016000206135e2565b600061336b600660008581526020019081526020016000206135f8565b905080601084901b17915050919050565b806004600084815260200190815260200160002090805190602001906133a392919061369c565b50817f6bb7ff708619ba0610cba295a58592e0451dee2622938c8755667688daf3529b6133cf8461099d565b6040516133dc9190613a12565b60405180910390a25050565b6134078473ffffffffffffffffffffffffffffffffffffffff166135bf565b156135b7578373ffffffffffffffffffffffffffffffffffffffff1663f23a6e6187878686866040518663ffffffff1660e01b815260040161344d959493929190615e97565b6020604051808303816000875af192505050801561348957506040513d601f19601f820116820180604052508101906134869190615bcf565b60015b61352e57613495615c09565b806308c379a0036134f157506134a9615c2b565b806134b457506134f3565b806040517f08c379a00000000000000000000000000000000000000000000000000000000081526004016134e89190613a12565b60405180910390fd5b505b6040517f08c379a000000000000000000000000000000000000000000000000000000000815260040161352590615d2d565b60405180910390fd5b63f23a6e6160e01b7bffffffffffffffffffffffffffffffffffffffffffffffffffffffff1916817bffffffffffffffffffffffffffffffffffffffffffffffffffffffff1916146135b5576040517f08c379a00000000000000000000000000000000000000000000000000000000081526004016135ac90615dbf565b60405180910390fd5b505b505050505050565b6000808273ffffffffffffffffffffffffffffffffffffffff163b119050919050565b6001816000016000828254019250508190555050565b600081600001549050919050565b60405180606001604052806000815260200160008152602001600081525090565b60405180610100016040528060008152602001600081526020016000815260200160008152602001606081526020016060815260200160008152602001600073ffffffffffffffffffffffffffffffffffffffff1681525090565b604051806040016040528060008152602001600081525090565b8280546136a890614e30565b90600052602060002090601f0160209004810192826136ca5760008555613711565b82601f106136e357805160ff1916838001178555613711565b82800160010185558215613711579182015b828111156137105782518255916020019190600101906136f5565b5b50905061371e9190613722565b5090565b5b8082111561373b576000816000905550600101613723565b5090565b6000604051905090565b600080fd5b600080fd5b600073ffffffffffffffffffffffffffffffffffffffff82169050919050565b600061377e82613753565b9050919050565b61378e81613773565b811461379957600080fd5b50565b6000813590506137ab81613785565b92915050565b6000819050919050565b6137c4816137b1565b81146137cf57600080fd5b50565b6000813590506137e1816137bb565b92915050565b600080604083850312156137fe576137fd613749565b5b600061380c8582860161379c565b925050602061381d858286016137d2565b9150509250929050565b613830816137b1565b82525050565b600060208201905061384b6000830184613827565b92915050565b60007fffffffff0000000000000000000000000000000000000000000000000000000082169050919050565b61388681613851565b811461389157600080fd5b50565b6000813590506138a38161387d565b92915050565b6000602082840312156138bf576138be613749565b5b60006138cd84828501613894565b91505092915050565b60008115159050919050565b6138eb816138d6565b82525050565b600060208201905061390660008301846138e2565b92915050565b6000806040838503121561392357613922613749565b5b6000613931858286016137d2565b9250506020613942858286016137d2565b9150509250929050565b60006020828403121561396257613961613749565b5b6000613970848285016137d2565b91505092915050565b600081519050919050565b600082825260208201905092915050565b60005b838110156139b3578082015181840152602081019050613998565b838111156139c2576000848401525b50505050565b6000601f19601f8301169050919050565b60006139e482613979565b6139ee8185613984565b93506139fe818560208601613995565b613a07816139c8565b840191505092915050565b60006020820190508181036000830152613a2c81846139d9565b905092915050565b600080fd5b600080fd5b7f4e487b7100000000000000000000000000000000000000000000000000000000600052604160045260246000fd5b613a76826139c8565b810181811067ffffffffffffffff82111715613a9557613a94613a3e565b5b80604052505050565b6000613aa861373f565b9050613ab48282613a6d565b919050565b600067ffffffffffffffff821115613ad457613ad3613a3e565b5b613add826139c8565b9050602081019050919050565b82818337600083830152505050565b6000613b0c613b0784613ab9565b613a9e565b905082815260208101848484011115613b2857613b27613a39565b5b613b33848285613aea565b509392505050565b600082601f830112613b5057613b4f613a34565b5b8135613b60848260208601613af9565b91505092915050565b60008060408385031215613b8057613b7f613749565b5b6000613b8e858286016137d2565b925050602083013567ffffffffffffffff811115613baf57613bae61374e565b5b613bbb85828601613b3b565b9150509250929050565b600067ffffffffffffffff821115613be057613bdf613a3e565b5b602082029050602081019050919050565b600080fd5b6000613c09613c0484613bc5565b613a9e565b90508083825260208201905060208402830185811115613c2c57613c2b613bf1565b5b835b81811015613c555780613c4188826137d2565b845260208401935050602081019050613c2e565b5050509392505050565b600082601f830112613c7457613c73613a34565b5b8135613c84848260208601613bf6565b91505092915050565b600067ffffffffffffffff821115613ca857613ca7613a3e565b5b613cb1826139c8565b9050602081019050919050565b6000613cd1613ccc84613c8d565b613a9e565b905082815260208101848484011115613ced57613cec613a39565b5b613cf8848285613aea565b509392505050565b600082601f830112613d1557613d14613a34565b5b8135613d25848260208601613cbe565b91505092915050565b600080600080600060a08688031215613d4a57613d49613749565b5b6000613d588882890161379c565b9550506020613d698882890161379c565b945050604086013567ffffffffffffffff811115613d8a57613d8961374e565b5b613d9688828901613c5f565b935050606086013567ffffffffffffffff811115613db757613db661374e565b5b613dc388828901613c5f565b925050608086013567ffffffffffffffff811115613de457613de361374e565b5b613df088828901613d00565b9150509295509295909350565b613e06816137b1565b82525050565b606082016000820151613e226000850182613dfd565b506020820151613e356020850182613dfd565b506040820151613e486040850182613dfd565b50505050565b6000606082019050613e636000830184613e0c565b92915050565b600067ffffffffffffffff821115613e8457613e83613a3e565b5b602082029050602081019050919050565b6000613ea8613ea384613e69565b613a9e565b90508083825260208201905060208402830185811115613ecb57613eca613bf1565b5b835b81811015613ef45780613ee0888261379c565b845260208401935050602081019050613ecd565b5050509392505050565b600082601f830112613f1357613f12613a34565b5b8135613f23848260208601613e95565b91505092915050565b60008060408385031215613f4357613f42613749565b5b600083013567ffffffffffffffff811115613f6157613f6061374e565b5b613f6d85828601613efe565b925050602083013567ffffffffffffffff811115613f8e57613f8d61374e565b5b613f9a85828601613c5f565b9150509250929050565b600081519050919050565b600082825260208201905092915050565b6000819050602082019050919050565b6000613fdc8383613dfd565b60208301905092915050565b6000602082019050919050565b600061400082613fa4565b61400a8185613faf565b935061401583613fc0565b8060005b8381101561404657815161402d8882613fd0565b975061403883613fe8565b925050600181019050614019565b5085935050505092915050565b6000602082019050818103600083015261406d8184613ff5565b905092915050565b600081519050919050565b600082825260208201905092915050565b6000819050602082019050919050565b600082825260208201905092915050565b60006140bd82613fa4565b6140c781856140a1565b93506140d283613fc0565b8060005b838110156141035781516140ea8882613fd0565b97506140f583613fe8565b9250506001810190506140d6565b5085935050505092915050565b600081519050919050565b600082825260208201905092915050565b6000819050602082019050919050565b61414581613773565b82525050565b6000614157838361413c565b60208301905092915050565b6000602082019050919050565b600061417b82614110565b614185818561411b565b93506141908361412c565b8060005b838110156141c15781516141a8888261414b565b97506141b383614163565b925050600181019050614194565b5085935050505092915050565b6000610100830160008301516141e76000860182613dfd565b5060208301516141fa6020860182613dfd565b50604083015161420d6040860182613dfd565b5060608301516142206060860182613dfd565b506080830151848203608086015261423882826140b2565b91505060a083015184820360a08601526142528282614170565b91505060c083015161426760c0860182613dfd565b5060e083015161427a60e086018261413c565b508091505092915050565b600061429183836141ce565b905092915050565b6000602082019050919050565b60006142b182614075565b6142bb8185614080565b9350836020820285016142cd85614091565b8060005b8581101561430957848403895281516142ea8582614285565b94506142f583614299565b925060208a019950506001810190506142d1565b50829750879550505050505092915050565b600081519050919050565b600082825260208201905092915050565b6000819050602082019050919050565b600082825260208201905092915050565b600061436382613979565b61436d8185614347565b935061437d818560208601613995565b614386816139c8565b840191505092915050565b600061439d8383614358565b905092915050565b6000602082019050919050565b60006143bd8261431b565b6143c78185614326565b9350836020820285016143d985614337565b8060005b8581101561441557848403895281516143f68582614391565b9450614401836143a5565b925060208a019950506001810190506143dd565b50829750879550505050505092915050565b6000604082019050818103600083015261444181856142a6565b9050818103602083015261445581846143b2565b90509392505050565b600081519050919050565b600082825260208201905092915050565b6000819050602082019050919050565b6040820160008201516144a06000850182613dfd565b5060208201516144b36020850182613dfd565b50505050565b60006144c5838361448a565b60408301905092915050565b6000602082019050919050565b60006144e98261445e565b6144f38185614469565b93506144fe8361447a565b8060005b8381101561452f57815161451688826144b9565b9750614521836144d1565b925050600181019050614502565b5085935050505092915050565b6000604082019050818103600083015261455681856144de565b9050818103602083015261456a81846143b2565b90509392505050565b60008060006060848603121561458c5761458b613749565b5b600061459a868287016137d2565b93505060206145ab868287016137d2565b92505060406145bc868287016137d2565b9150509250925092565b6000610100830160008301516145df6000860182613dfd565b5060208301516145f26020860182613dfd565b5060408301516146056040860182613dfd565b5060608301516146186060860182613dfd565b506080830151848203608086015261463082826140b2565b91505060a083015184820360a086015261464a8282614170565b91505060c083015161465f60c0860182613dfd565b5060e083015161467260e086018261413c565b508091505092915050565b6000604082019050818103600083015261469781856145c6565b905081810360208301526146ab81846139d9565b90509392505050565b6146bd816138d6565b81146146c857600080fd5b50565b6000813590506146da816146b4565b92915050565b600080604083850312156146f7576146f6613749565b5b60006147058582860161379c565b9250506020614716858286016146cb565b9150509250929050565b60008060006060848603121561473957614738613749565b5b6000614747868287016137d2565b9350506020614758868287016137d2565b925050604084013567ffffffffffffffff8111156147795761477861374e565b5b61478586828701613b3b565b9150509250925092565b600067ffffffffffffffff8211156147aa576147a9613a3e565b5b602082029050602081019050919050565b60006147ce6147c98461478f565b613a9e565b905080838252602082019050602084028301858111156147f1576147f0613bf1565b5b835b8181101561483857803567ffffffffffffffff81111561481657614815613a34565b5b8086016148238982613b3b565b855260208501945050506020810190506147f3565b5050509392505050565b600082601f83011261485757614856613a34565b5b81356148678482602086016147bb565b91505092915050565b6000806040838503121561488757614886613749565b5b600083013567ffffffffffffffff8111156148a5576148a461374e565b5b6148b185828601613c5f565b925050602083013567ffffffffffffffff8111156148d2576148d161374e565b5b6148de85828601614842565b9150509250929050565b6000602082840312156148fe576148fd613749565b5b600061490c8482850161379c565b91505092915050565b6000806040838503121561492c5761492b613749565b5b600061493a8582860161379c565b925050602061494b8582860161379c565b9150509250929050565b60408201600082015161496b6000850182613dfd565b50602082015161497e6020850182613dfd565b50505050565b60006060820190506149996000830185614955565b81810360408301526149ab81846139d9565b90509392505050565b600081519050919050565b600082825260208201905092915050565b6000819050602082019050919050565b6060820160008201516149f66000850182613dfd565b506020820151614a096020850182613dfd565b506040820151614a1c6040850182613dfd565b50505050565b6000614a2e83836149e0565b60608301905092915050565b6000602082019050919050565b6000614a52826149b4565b614a5c81856149bf565b9350614a67836149d0565b8060005b83811015614a98578151614a7f8882614a22565b9750614a8a83614a3a565b925050600181019050614a6b565b5085935050505092915050565b60006020820190508181036000830152614abf8184614a47565b905092915050565b600080600080600060a08688031215614ae357614ae2613749565b5b6000614af18882890161379c565b9550506020614b028882890161379c565b9450506040614b13888289016137d2565b9350506060614b24888289016137d2565b925050608086013567ffffffffffffffff811115614b4557614b4461374e565b5b614b5188828901613d00565b9150509295509295909350565b600080600060608486031215614b7757614b76613749565b5b600084013567ffffffffffffffff811115614b9557614b9461374e565b5b614ba186828701613c5f565b935050602084013567ffffffffffffffff811115614bc257614bc161374e565b5b614bce86828701613c5f565b925050604084013567ffffffffffffffff811115614bef57614bee61374e565b5b614bfb86828701614842565b9150509250925092565b7f455243313135353a2061646472657373207a65726f206973206e6f742061207660008201527f616c6964206f776e657200000000000000000000000000000000000000000000602082015250565b6000614c61602a83613984565b9150614c6c82614c05565b604082019050919050565b60006020820190508181036000830152614c9081614c54565b9050919050565b7f437265646974206d757374206265206120706f736974697665206e756d626572600082015250565b6000614ccd602083613984565b9150614cd882614c97565b602082019050919050565b60006020820190508181036000830152614cfc81614cc0565b9050919050565b7f4e667420646f6573206e6f742065786973740000000000000000000000000000600082015250565b6000614d39601283613984565b9150614d4482614d03565b602082019050919050565b60006020820190508181036000830152614d6881614d2c565b9050919050565b7f4e487b7100000000000000000000000000000000000000000000000000000000600052601160045260246000fd5b6000614da9826137b1565b9150614db4836137b1565b925082821015614dc757614dc6614d6f565b5b828203905092915050565b7f4e487b7100000000000000000000000000000000000000000000000000000000600052603260045260246000fd5b7f4e487b7100000000000000000000000000000000000000000000000000000000600052602260045260246000fd5b60006002820490506001821680614e4857607f821691505b602082108103614e5b57614e5a614e01565b5b50919050565b600081905092915050565b60008190508160005260206000209050919050565b60008154614e8e81614e30565b614e988186614e61565b94506001821660008114614eb35760018114614ec457614ef7565b60ff19831686528186019350614ef7565b614ecd85614e6c565b60005b83811015614eef57815481890152600182019150602081019050614ed0565b838801955050505b50505092915050565b6000614f0b82613979565b614f158185614e61565b9350614f25818560208601613995565b80840191505092915050565b6000614f3d8285614e81565b9150614f498284614f00565b91508190509392505050565b7f526571756972656d656e74206d75737420626520696e697469616c697a65642060008201527f6265666f7265206372656174696e67206e657700000000000000000000000000602082015250565b6000614fb1603383613984565b9150614fbc82614f55565b604082019050919050565b60006020820190508181036000830152614fe081614fa4565b9050919050565b7f456e642074696d65206d7573742062652061667465722073746172742074696d60008201527f6500000000000000000000000000000000000000000000000000000000000000602082015250565b6000615043602183613984565b915061504e82614fe7565b604082019050919050565b6000602082019050818103600083015261507281615036565b9050919050565b7f526567697374657265642064617465206d757374206265206265666f7265207960008201527f65617220656e6400000000000000000000000000000000000000000000000000602082015250565b60006150d5602783613984565b91506150e082615079565b604082019050919050565b60006020820190508181036000830152615104816150c8565b9050919050565b7f455243313135353a2063616c6c6572206973206e6f7420746f6b656e206f776e60008201527f6572206f7220617070726f766564000000000000000000000000000000000000602082015250565b6000615167602e83613984565b91506151728261510b565b604082019050919050565b600060208201905081810360008301526151968161515a565b9050919050565b7f455243313135353a206163636f756e747320616e6420696473206c656e67746860008201527f206d69736d617463680000000000000000000000000000000000000000000000602082015250565b60006151f9602983613984565b91506152048261519d565b604082019050919050565b60006020820190508181036000830152615228816151ec565b9050919050565b600061523a826137b1565b91507fffffffffffffffffffffffffffffffffffffffffffffffffffffffffffffffff820361526c5761526b614d6f565b5b600182019050919050565b7f446573697265642079656172206973206e6f742076616c696400000000000000600082015250565b60006152ad601983613984565b91506152b882615277565b602082019050919050565b600060208201905081810360008301526152dc816152a0565b9050919050565b7f49742773206e6f742074696d6520746f20726567697374657220636c61737300600082015250565b6000615319601f83613984565b9150615324826152e3565b602082019050919050565b600060208201905081810360008301526153488161530c565b9050919050565b7f546f6b656e206578697374730000000000000000000000000000000000000000600082015250565b6000615385600c83613984565b91506153908261534f565b602082019050919050565b600060208201905081810360008301526153b481615378565b9050919050565b60006153c6826137b1565b91506153d1836137b1565b9250827fffffffffffffffffffffffffffffffffffffffffffffffffffffffffffffffff0382111561540657615405614d6f565b5b828201905092915050565b7f436f75727365206d75737420626520696e697469616c697a6564206265666f7260008201527f65206372656174696e67206e6577000000000000000000000000000000000000602082015250565b600061546d602e83613984565b915061547882615411565b604082019050919050565b6000602082019050818103600083015261549c81615460565b9050919050565b7f526571756972656d656e7420686173206265656e20696e697469616c697a6564600082015250565b60006154d9602083613984565b91506154e4826154a3565b602082019050919050565b60006020820190508181036000830152615508816154cc565b9050919050565b7f436f7572736520686173206265656e20696e697469616c697a65640000000000600082015250565b6000615545601b83613984565b91506155508261550f565b602082019050919050565b6000602082019050818103600083015261557481615538565b9050919050565b7f455243313135353a2069647320616e6420616d6f756e7473206c656e6774682060008201527f6d69736d61746368000000000000000000000000000000000000000000000000602082015250565b60006155d7602883613984565b91506155e28261557b565b604082019050919050565b60006020820190508181036000830152615606816155ca565b9050919050565b7f455243313135353a207472616e7366657220746f20746865207a65726f20616460008201527f6472657373000000000000000000000000000000000000000000000000000000602082015250565b6000615669602583613984565b91506156748261560d565b604082019050919050565b600060208201905081810360008301526156988161565c565b9050919050565b7f455243313135353a20696e73756666696369656e742062616c616e636520666f60008201527f72207472616e7366657200000000000000000000000000000000000000000000602082015250565b60006156fb602a83613984565b91506157068261569f565b604082019050919050565b6000602082019050818103600083015261572a816156ee565b9050919050565b6000604082019050818103600083015261574b8185613ff5565b9050818103602083015261575f8184613ff5565b90509392505050565b7f455243313135353a206275726e2066726f6d20746865207a65726f206164647260008201527f6573730000000000000000000000000000000000000000000000000000000000602082015250565b60006157c4602383613984565b91506157cf82615768565b604082019050919050565b600060208201905081810360008301526157f3816157b7565b9050919050565b7f455243313135353a206275726e20616d6f756e7420657863656564732062616c60008201527f616e636500000000000000000000000000000000000000000000000000000000602082015250565b6000615856602483613984565b9150615861826157fa565b604082019050919050565b6000602082019050818103600083015261588581615849565b9050919050565b60006040820190506158a16000830185613827565b6158ae6020830184613827565b9392505050565b7f455243313135353a2073657474696e6720617070726f76616c2073746174757360008201527f20666f722073656c660000000000000000000000000000000000000000000000602082015250565b6000615911602983613984565b915061591c826158b5565b604082019050919050565b6000602082019050818103600083015261594081615904565b9050919050565b60006159538284614f00565b915081905092915050565b7f55524920686173206265656e2075736564000000000000000000000000000000600082015250565b6000615994601183613984565b915061599f8261595e565b602082019050919050565b600060208201905081810360008301526159c381615987565b9050919050565b7f43726564697473206d757374206265206120706f736974697665206e756d626560008201527f7200000000000000000000000000000000000000000000000000000000000000602082015250565b6000615a26602183613984565b9150615a31826159ca565b604082019050919050565b60006020820190508181036000830152615a5581615a19565b9050919050565b7f455243313135353a206d696e7420746f20746865207a65726f2061646472657360008201527f7300000000000000000000000000000000000000000000000000000000000000602082015250565b6000615ab8602183613984565b9150615ac382615a5c565b604082019050919050565b60006020820190508181036000830152615ae781615aab565b9050919050565b615af781613773565b82525050565b600081519050919050565b600082825260208201905092915050565b6000615b2482615afd565b615b2e8185615b08565b9350615b3e818560208601613995565b615b47816139c8565b840191505092915050565b600060a082019050615b676000830188615aee565b615b746020830187615aee565b8181036040830152615b868186613ff5565b90508181036060830152615b9a8185613ff5565b90508181036080830152615bae8184615b19565b90509695505050505050565b600081519050615bc98161387d565b92915050565b600060208284031215615be557615be4613749565b5b6000615bf384828501615bba565b91505092915050565b60008160e01c9050919050565b600060033d1115615c285760046000803e615c25600051615bfc565b90505b90565b600060443d10615cb857615c3d61373f565b60043d036004823e80513d602482011167ffffffffffffffff82111715615c65575050615cb8565b808201805167ffffffffffffffff811115615c835750505050615cb8565b80602083010160043d038501811115615ca0575050505050615cb8565b615caf82602001850186613a6d565b82955050505050505b90565b7f455243313135353a207472616e7366657220746f206e6f6e2d4552433131353560008201527f526563656976657220696d706c656d656e746572000000000000000000000000602082015250565b6000615d17603483613984565b9150615d2282615cbb565b604082019050919050565b60006020820190508181036000830152615d4681615d0a565b9050919050565b7f455243313135353a204552433131353552656365697665722072656a6563746560008201527f6420746f6b656e73000000000000000000000000000000000000000000000000602082015250565b6000615da9602883613984565b9150615db482615d4d565b604082019050919050565b60006020820190508181036000830152615dd881615d9c565b9050919050565b7f4e667420726571756972656d656e74206d75737420626520637265617465642060008201527f6265666f7265206372656174696e67206e667420636f757273652074656d706c60208201527f61746520666f7220697400000000000000000000000000000000000000000000604082015250565b6000615e61604a83613984565b9150615e6c82615ddf565b606082019050919050565b60006020820190508181036000830152615e9081615e54565b9050919050565b600060a082019050615eac6000830188615aee565b615eb96020830187615aee565b615ec66040830186613827565b615ed36060830185613827565b8181036080830152615ee58184615b19565b9050969550505050505056fea26469706673582212200d097a57f1ecab5d92a4bc99c39bf3fea41f0be810eb5078fe843b19426a3eaa64736f6c634300080d0033",
  "immutableReferences": {},
  "source": "// SPDX-License-Identifier: MIT\r\n// Tells the Solidity compiler to compile only from v0.8.13 to v0.9.0\r\npragma solidity ^0.8.13;\r\n\r\nimport \"./ERC1155BaseContract.sol\";\r\nimport \"./interfaces/INftSchool.sol\";\r\nimport \"./interfaces/INftIdentities.sol\";\r\nimport \"./interfaces/INftCertificates.sol\";\r\n\r\n/*\r\n    Initial year: Requirements + Course Template (time available to update? --> after year end)\r\n    (Save endCurrentYear) -> Classes -> Register course -> Received Nft Scoreboard\r\n    Course end: Mint Nft complete course <-- Transfer info from Nft Scoreboard to this\r\n    Enough course: Exchange nft graduation from nft courses (payable)\r\n*/\r\ncontract NftSchool is ERC1155BaseContract, INftSchool {\r\n    uint256 constant NFT_REQUIREMENT = 1;\r\n    uint256 constant NFT_COURSE_TEMPLATE = 2;\r\n    uint256 constant NFT_CLASS = 3;\r\n\r\n    using Counters for Counters.Counter;\r\n\r\n    string[] private courseURIs;\r\n\r\n    INftIdentities private _nftIdentities;\r\n    INftCertificates private _nftCertificates;\r\n\r\n    bool private _isInitialize;\r\n    bool private _isInitializeRequirement;\r\n    bool private _isInitializeCourse;\r\n\r\n    uint256 public schoolYearEnd;\r\n    uint256 public registeredStartAt;\r\n    uint256 public registeredEndAt;\r\n    uint256 public yearId;\r\n\r\n    mapping(uint256 => uint256[]) private _classTokenIdsOfYear;\r\n    mapping(uint256 => bool) private _usableScores;\r\n\r\n    NftRequirement[] private _allNftRequirements;\r\n    NftCourseTemplate[] private _allNftCourseTemplates;\r\n    NftClass[] private _allNftClasses;\r\n    mapping(uint256 => mapping(uint256 => uint256)) _posOfTokenIdOfNftType;\r\n\r\n    modifier isInitialized() {\r\n        require(_isInitialize);\r\n        _;\r\n    }\r\n\r\n    modifier onlyOwner() {\r\n        require(_owner == msg.sender);\r\n        _;\r\n    }\r\n\r\n    modifier afterYearEnd() {\r\n        require(block.timestamp > schoolYearEnd);\r\n        _;\r\n    }\r\n\r\n    modifier canOperate(uint256 role) {\r\n        (bool isDeposited, uint256 __role) = _nftIdentities.isAbleToOperate(\r\n            msg.sender\r\n        );\r\n        require(isDeposited && role == __role);\r\n        _;\r\n    }\r\n\r\n    modifier tokenExist(uint256 tokenId) {\r\n        require(checkTokenExists(tokenId), \"Token exists\");\r\n        _;\r\n    }\r\n\r\n    constructor(address nftIdentities) ERC1155BaseContract(\"\") {\r\n        _nftIdentities = INftIdentities(nftIdentities);\r\n        schoolYearEnd = block.timestamp;\r\n\r\n        _usableScores[uint256(ScoreType.Midterm)] = true;\r\n        _usableScores[uint256(ScoreType.Practice)] = true;\r\n        _usableScores[uint256(ScoreType.Plus)] = true;\r\n        _usableScores[uint256(ScoreType.Final)] = true;\r\n        _usableScores[uint256(ScoreType.Other)] = true;\r\n    }\r\n\r\n    function initialize(address nftCertificates) public onlyOwner {\r\n        require(!_isInitialize);\r\n        _isInitialize = true;\r\n        _nftCertificates = INftCertificates(nftCertificates);\r\n    }\r\n\r\n    /*\r\n        Initialize requirement before any operation in the system including\r\n        - Requirement\r\n        - Course template\r\n    */\r\n    function initializeRequirement(\r\n        uint256[] memory credits,\r\n        string[] memory tokenURIs\r\n    ) public onlyOwner {\r\n        require(!_isInitializeRequirement, \"Requirement has been initialized\");\r\n        require(credits.length == tokenURIs.length);\r\n        uint256 numberOfTokens = credits.length;\r\n\r\n        for (uint256 idx = 0; idx <= numberOfTokens; ++idx) {\r\n            _mintNftRequirement(credits[idx], tokenURIs[idx]);\r\n        }\r\n    }\r\n\r\n    function initializeCourseTemplate(\r\n        uint256[] memory requirementIds,\r\n        uint256[] memory credits,\r\n        string[] memory tokenURIs\r\n    ) public onlyOwner {\r\n        require(!_isInitializeCourse, \"Course has been initialized\");\r\n        require(requirementIds.length == tokenURIs.length);\r\n        require(requirementIds.length == tokenURIs.length);\r\n        uint256 numberOfTokens = credits.length;\r\n\r\n        for (uint256 idx = 0; idx <= numberOfTokens; ++idx) {\r\n            _mintNftCourseTemplate(\r\n                requirementIds[idx],\r\n                credits[idx],\r\n                tokenURIs[idx]\r\n            );\r\n        }\r\n    }\r\n\r\n    function initializeYear(\r\n        uint256 _schoolYearEnd,\r\n        uint256 _registeredStartAt,\r\n        uint256 _registeredEndAt\r\n    ) public onlyOwner afterYearEnd {\r\n        require(\r\n            _registeredEndAt > _registeredStartAt,\r\n            \"End time must be after start time\"\r\n        );\r\n        require(\r\n            _schoolYearEnd > _registeredEndAt,\r\n            \"Registered date must be before year end\"\r\n        );\r\n        schoolYearEnd = _schoolYearEnd;\r\n        registeredStartAt = _registeredStartAt;\r\n        registeredEndAt = _registeredEndAt;\r\n        yearId += 1;\r\n    }\r\n\r\n    function updateRegisteredTime(\r\n        uint256 _registeredStartAt,\r\n        uint256 _registeredEndAt\r\n    ) external onlyOwner {\r\n        require(\r\n            _registeredEndAt > _registeredStartAt,\r\n            \"End time must be after start time\"\r\n        );\r\n        require(\r\n            schoolYearEnd > _registeredEndAt,\r\n            \"Registered date must be before year end\"\r\n        );\r\n        registeredStartAt = _registeredStartAt;\r\n        registeredEndAt = _registeredEndAt;\r\n    }\r\n\r\n    function createRequirement(uint256 credits, string memory tokenURI)\r\n        public\r\n        onlyOwner\r\n        afterYearEnd\r\n    {\r\n        require(\r\n            _isInitializeRequirement,\r\n            \"Requirement must be initialized before creating new\"\r\n        );\r\n        _mintNftRequirement(credits, tokenURI);\r\n    }\r\n\r\n    function updateRequirement(uint256 tokenId, uint256 credits)\r\n        external\r\n        onlyOwner\r\n        afterYearEnd\r\n    {\r\n        require(credits > 0, \"Credit must be a positive number\");\r\n        uint256 pos = _posOfTokenIdOfNftType[NFT_REQUIREMENT][tokenId];\r\n        require(pos > 0, \"Nft does not exist\");\r\n\r\n        _allNftRequirements[pos - 1].credits = credits;\r\n    }\r\n\r\n    function createCourseTemplate(\r\n        uint256 requirementId,\r\n        uint256 credits,\r\n        string memory tokenURI\r\n    ) public onlyOwner afterYearEnd {\r\n        require(\r\n            _isInitializeCourse,\r\n            \"Course must be initialized before creating new\"\r\n        );\r\n        _mintNftCourseTemplate(requirementId, credits, tokenURI);\r\n    }\r\n\r\n    function updateCourseTemplate(uint256 tokenId, uint256 credits)\r\n        external\r\n        onlyOwner\r\n        afterYearEnd\r\n    {\r\n        require(credits > 0, \"Credit must be a positive number\");\r\n        uint256 pos = _posOfTokenIdOfNftType[NFT_COURSE_TEMPLATE][tokenId];\r\n        require(pos > 0, \"Nft does not exist\");\r\n\r\n        _allNftCourseTemplates[pos - 1].credits = credits;\r\n    }\r\n\r\n    function burnToken(uint256 tokenId)\r\n        external\r\n        onlyOwner\r\n        afterYearEnd\r\n        tokenExist(tokenId)\r\n    {\r\n        _burn(_owner, tokenId, ONE_NFT);\r\n    }\r\n\r\n    // (everyone)\r\n    function getRegisteredClasses()\r\n        external\r\n        view\r\n        returns (NftClass[] memory, string[] memory)\r\n    {\r\n        require(\r\n            msg.sender == _owner || checkInRegisterDate(),\r\n            \"It's not time to register class\"\r\n        );\r\n\r\n        return _getAllNftClasses(yearId);\r\n    }\r\n\r\n    function getAllNftRequirements()\r\n        external\r\n        view\r\n        returns (NftRequirement[] memory, string[] memory)\r\n    {\r\n        uint256 numberOfNft = _allNftRequirements.length;\r\n        string[] memory tokenURIs = new string[](numberOfNft);\r\n\r\n        for (uint256 idx = 0; idx <= numberOfNft; ++idx) {\r\n            tokenURIs[idx] = uri(_allNftRequirements[idx].tokenId);\r\n        }\r\n\r\n        return (_allNftRequirements, tokenURIs);\r\n    }\r\n\r\n    function getNftRequirement(uint256 tokenId)\r\n        external\r\n        view\r\n        returns (NftRequirement memory, string memory)\r\n    {\r\n        uint256 pos = _posOfTokenIdOfNftType[NFT_REQUIREMENT][tokenId];\r\n        require(pos > 0, \"Nft does not exist\");\r\n\r\n        return (_allNftRequirements[pos - 1], uri(tokenId));\r\n    }\r\n\r\n    function getNftClass(uint256 tokenId)\r\n        public\r\n        view\r\n        returns (NftClass memory, string memory)\r\n    {\r\n        uint256 pos = _posOfTokenIdOfNftType[NFT_CLASS][tokenId];\r\n        require(pos > 0, \"Nft does not exist\");\r\n\r\n        return (_allNftClasses[pos - 1], uri(tokenId));\r\n    }\r\n\r\n    function getAllNftClasses(uint256 _yearId)\r\n        external\r\n        view\r\n        onlyOwner\r\n        returns (NftClass[] memory, string[] memory)\r\n    {\r\n        require(_yearId <= yearId, \"Desired year is not valid\");\r\n\r\n        return _getAllNftClasses(_yearId);\r\n    }\r\n\r\n    function getAllNftCourseTemplate()\r\n        external\r\n        view\r\n        onlyOwner\r\n        returns (NftCourseTemplate[] memory)\r\n    {\r\n        return _allNftCourseTemplates;\r\n    }\r\n\r\n    function getNftCourseTemplate(uint256 tokenId)\r\n        external\r\n        view\r\n        returns (NftCourseTemplate memory)\r\n    {\r\n        uint256 pos = _posOfTokenIdOfNftType[NFT_COURSE_TEMPLATE][tokenId];\r\n        require(pos > 0, \"Nft does not exist\");\r\n\r\n        return _allNftCourseTemplates[pos - 1];\r\n    }\r\n\r\n    function checkTokenExists(uint256 tokenId) public view returns (bool) {\r\n        uint256 nftType = _getNftType(tokenId);\r\n        uint256 pos = _posOfTokenIdOfNftType[nftType][tokenId];\r\n        return pos > 0;\r\n    }\r\n\r\n    function checkTokenOfTypeExists(uint256 tokenId, uint256 requiredType)\r\n        external\r\n        view\r\n        returns (bool)\r\n    {\r\n        uint256 nftType = _getNftType(tokenId);\r\n        uint256 pos = _posOfTokenIdOfNftType[nftType][tokenId];\r\n        return pos > 0 && nftType == requiredType;\r\n    }\r\n\r\n    function checkInRegisterDate() public view returns (bool) {\r\n        return\r\n            block.timestamp >= registeredStartAt &&\r\n            block.timestamp <= registeredEndAt;\r\n    }\r\n\r\n    function _checkValidScores(uint256[] memory scores)\r\n        private\r\n        view\r\n        returns (bool)\r\n    {\r\n        uint256 numberOfChecks = scores.length;\r\n        for (uint256 idx = 0; idx <= numberOfChecks; ++idx) {\r\n            if (!_usableScores[scores[idx]]) {\r\n                return false;\r\n            }\r\n        }\r\n\r\n        return true;\r\n    }\r\n\r\n    function _getAllNftClasses(uint256 _yearId)\r\n        private\r\n        view\r\n        onlyOwner\r\n        returns (NftClass[] memory, string[] memory)\r\n    {\r\n        uint256 numberOfClasses = _classTokenIdsOfYear[_yearId].length;\r\n        NftClass[] memory nftClasses = new NftClass[](numberOfClasses);\r\n        string[] memory tokenURIs = new string[](numberOfClasses);\r\n\r\n        for (uint256 idx = 0; idx <= numberOfClasses; ++idx) {\r\n            (nftClasses[idx], tokenURIs[idx]) = getNftClass(\r\n                _classTokenIdsOfYear[yearId][idx]\r\n            );\r\n        }\r\n\r\n        return (nftClasses, tokenURIs);\r\n    }\r\n\r\n    function _mintNftRequirement(uint256 credits, string memory tokenURI)\r\n        public\r\n        returns (uint256)\r\n    {\r\n        uint256 tokenId = _mintToken(NFT_REQUIREMENT, tokenURI);\r\n        _createNftRequirement(tokenId, credits);\r\n        _mint(_owner, tokenId, ONE_NFT, msg.data);\r\n\r\n        return tokenId;\r\n    }\r\n\r\n    function _createNftRequirement(uint256 tokenId, uint256 credits) private {\r\n        require(credits > 0, \"Credits must be a positive number\");\r\n        NftRequirement memory nftRequirement = NftRequirement(tokenId, credits);\r\n        _allNftRequirements.push(nftRequirement);\r\n        _posOfTokenIdOfNftType[NFT_REQUIREMENT][tokenId] = _allNftRequirements\r\n            .length;\r\n    }\r\n\r\n    function _mintNftCourseTemplate(\r\n        uint256 requirementId,\r\n        uint256 credits,\r\n        string memory tokenURI\r\n    ) private returns (uint256) {\r\n        uint256 tokenId = _mintToken(NFT_COURSE_TEMPLATE, tokenURI);\r\n        _createNftCourseTemplate(tokenId, requirementId, credits);\r\n\r\n        return tokenId;\r\n    }\r\n\r\n    function _createNftCourseTemplate(\r\n        uint256 tokenId,\r\n        uint256 requirementId,\r\n        uint256 credits\r\n    ) private {\r\n        uint256 pos = _posOfTokenIdOfNftType[NFT_REQUIREMENT][requirementId];\r\n        require(\r\n            pos > 0,\r\n            \"Nft requirement must be created before creating nft course template for it\"\r\n        );\r\n        require(credits > 0, \"Credits must be a positive number\");\r\n        NftCourseTemplate memory nftCourseTemplate = NftCourseTemplate(\r\n            tokenId,\r\n            requirementId,\r\n            credits\r\n        );\r\n        _allNftCourseTemplates.push(nftCourseTemplate);\r\n        _posOfTokenIdOfNftType[NFT_COURSE_TEMPLATE][\r\n            tokenId\r\n        ] = _allNftCourseTemplates.length;\r\n    }\r\n\r\n    function _mintNftClass(\r\n        uint256 courseTemplateId,\r\n        uint256 credits,\r\n        uint256 completeAt,\r\n        uint256[] memory requiredScores,\r\n        uint256 maxSize,\r\n        address teacher,\r\n        string memory tokenURI\r\n    ) private returns (uint256) {\r\n        uint256 tokenId = _mintToken(NFT_COURSE_TEMPLATE, tokenURI);\r\n        _createNftClass(\r\n            tokenId,\r\n            courseTemplateId,\r\n            credits,\r\n            completeAt,\r\n            requiredScores,\r\n            maxSize,\r\n            teacher\r\n        );\r\n\r\n        return tokenId;\r\n    }\r\n\r\n    function _createNftClass(\r\n        uint256 tokenId,\r\n        uint256 courseTemplateId,\r\n        uint256 credits,\r\n        uint256 completeAt,\r\n        uint256[] memory requiredScores,\r\n        uint256 maxSize,\r\n        address teacher\r\n    ) private {\r\n        uint256 pos = _posOfTokenIdOfNftType[NFT_COURSE_TEMPLATE][\r\n            courseTemplateId\r\n        ];\r\n        require(\r\n            pos > 0,\r\n            \"Nft course template must be created before creating nft course template for it\"\r\n        );\r\n        require(credits > 0, \"Credits must be a positive number\");\r\n        NftClass memory nftClass = NftClass(\r\n            tokenId,\r\n            courseTemplateId,\r\n            credits,\r\n            completeAt,\r\n            requiredScores,\r\n            new address[](maxSize),\r\n            maxSize,\r\n            teacher\r\n        );\r\n        _allNftClasses.push(nftClass);\r\n        _posOfTokenIdOfNftType[NFT_COURSE_TEMPLATE][tokenId] = _allNftClasses\r\n            .length;\r\n    }\r\n}\r\n",
  "sourcePath": "E:\\learn\\learn-to-earn\\contracts\\NftSchool.sol",
  "compiler": {
    "name": "solc",
    "version": "0.8.13+commit.abaa5c0e.Emscripten.clang"
  },
  "schemaVersion": "3.4.11",
  "updatedAt": "2023-03-07T22:43:44.005Z",
  "networkType": "ethereum",
  "devdoc": {
    "kind": "dev",
    "methods": {
      "balanceOf(address,uint256)": {
        "details": "See {IERC1155-balanceOf}. Requirements: - `account` cannot be the zero address."
      },
      "balanceOfBatch(address[],uint256[])": {
        "details": "See {IERC1155-balanceOfBatch}. Requirements: - `accounts` and `ids` must have the same length."
      },
      "isApprovedForAll(address,address)": {
        "details": "See {IERC1155-isApprovedForAll}."
      },
      "safeBatchTransferFrom(address,address,uint256[],uint256[],bytes)": {
        "details": "See {IERC1155-safeBatchTransferFrom}."
      },
      "safeTransferFrom(address,address,uint256,uint256,bytes)": {
        "details": "See {IERC1155-safeTransferFrom}."
      },
      "setApprovalForAll(address,bool)": {
        "details": "See {IERC1155-setApprovalForAll}."
      },
      "supportsInterface(bytes4)": {
        "details": "See {IERC165-supportsInterface}."
      },
      "uri(uint256)": {
        "details": "See {IERC1155MetadataURI-uri}. This implementation returns the concatenation of the `_baseURI` and the token-specific uri if the latter is set This enables the following behaviors: - if `_tokenURIs[tokenId]` is set, then the result is the concatenation   of `_baseURI` and `_tokenURIs[tokenId]` (keep in mind that `_baseURI`   is empty per default); - if `_tokenURIs[tokenId]` is NOT set then we fallback to `super.uri()`   which in most cases will contain `ERC1155._uri`; - if `_tokenURIs[tokenId]` is NOT set, and if the parents do not have a   uri value set, then the result is empty."
      }
    },
    "version": 1
  },
  "userdoc": {
    "kind": "user",
    "methods": {},
    "version": 1
  }
}