{
  "contractName": "School",
  "abi": [
    {
      "inputs": [],
      "stateMutability": "nonpayable",
      "type": "constructor"
    },
    {
      "anonymous": false,
      "inputs": [
        {
          "indexed": true,
          "internalType": "address",
          "name": "previousOwner",
          "type": "address"
        },
        {
          "indexed": true,
          "internalType": "address",
          "name": "newOwner",
          "type": "address"
        }
      ],
      "name": "OwnershipTransferred",
      "type": "event"
    },
    {
      "inputs": [],
      "name": "canGetNftGraduation",
      "outputs": [
        {
          "internalType": "bool",
          "name": "",
          "type": "bool"
        }
      ],
      "stateMutability": "view",
      "type": "function",
      "constant": true
    },
    {
      "inputs": [],
      "name": "canRegistered",
      "outputs": [
        {
          "internalType": "bool",
          "name": "",
          "type": "bool"
        }
      ],
      "stateMutability": "view",
      "type": "function",
      "constant": true
    },
    {
      "inputs": [],
      "name": "owner",
      "outputs": [
        {
          "internalType": "address",
          "name": "",
          "type": "address"
        }
      ],
      "stateMutability": "view",
      "type": "function",
      "constant": true
    },
    {
      "inputs": [],
      "name": "renounceOwnership",
      "outputs": [],
      "stateMutability": "nonpayable",
      "type": "function"
    },
    {
      "inputs": [
        {
          "internalType": "address",
          "name": "newOwner",
          "type": "address"
        }
      ],
      "name": "transferOwnership",
      "outputs": [],
      "stateMutability": "nonpayable",
      "type": "function"
    },
    {
      "inputs": [
        {
          "internalType": "uint256[]",
          "name": "courseGroupIds",
          "type": "uint256[]"
        },
        {
          "internalType": "uint256[]",
          "name": "credits",
          "type": "uint256[]"
        }
      ],
      "name": "initialize",
      "outputs": [],
      "stateMutability": "nonpayable",
      "type": "function"
    },
    {
      "inputs": [],
      "name": "getAllRegisteredTeachers",
      "outputs": [
        {
          "components": [
            {
              "internalType": "uint256",
              "name": "registeredDate",
              "type": "uint256"
            },
            {
              "internalType": "address",
              "name": "registeredAddress",
              "type": "address"
            },
            {
              "internalType": "string",
              "name": "metadata",
              "type": "string"
            }
          ],
          "internalType": "struct School.Teacher[]",
          "name": "",
          "type": "tuple[]"
        }
      ],
      "stateMutability": "view",
      "type": "function",
      "constant": true
    },
    {
      "inputs": [],
      "name": "getAllApprovedTeachers",
      "outputs": [
        {
          "components": [
            {
              "internalType": "uint256",
              "name": "registeredDate",
              "type": "uint256"
            },
            {
              "internalType": "address",
              "name": "registeredAddress",
              "type": "address"
            },
            {
              "internalType": "string",
              "name": "metadata",
              "type": "string"
            }
          ],
          "internalType": "struct School.Teacher[]",
          "name": "",
          "type": "tuple[]"
        }
      ],
      "stateMutability": "view",
      "type": "function",
      "constant": true
    },
    {
      "inputs": [
        {
          "internalType": "uint256",
          "name": "courseId",
          "type": "uint256"
        }
      ],
      "name": "teacherAddressOf",
      "outputs": [
        {
          "internalType": "address",
          "name": "",
          "type": "address"
        }
      ],
      "stateMutability": "view",
      "type": "function",
      "constant": true
    },
    {
      "inputs": [
        {
          "internalType": "string",
          "name": "metadata",
          "type": "string"
        }
      ],
      "name": "registerTeacher",
      "outputs": [],
      "stateMutability": "nonpayable",
      "type": "function"
    },
    {
      "inputs": [
        {
          "internalType": "address",
          "name": "teacherAddress",
          "type": "address"
        }
      ],
      "name": "approveTeacher",
      "outputs": [],
      "stateMutability": "nonpayable",
      "type": "function"
    },
    {
      "inputs": [
        {
          "internalType": "address",
          "name": "teacherAddress",
          "type": "address"
        }
      ],
      "name": "removeTeacher",
      "outputs": [],
      "stateMutability": "nonpayable",
      "type": "function"
    },
    {
      "inputs": [
        {
          "internalType": "address",
          "name": "teacherAddress",
          "type": "address"
        }
      ],
      "name": "rejectTeacher",
      "outputs": [],
      "stateMutability": "nonpayable",
      "type": "function"
    },
    {
      "inputs": [
        {
          "internalType": "address",
          "name": "teacherAddress",
          "type": "address"
        },
        {
          "internalType": "uint256",
          "name": "credits",
          "type": "uint256"
        },
        {
          "internalType": "uint256",
          "name": "remainNftCounts",
          "type": "uint256"
        },
        {
          "internalType": "uint256",
          "name": "maxNftCounts",
          "type": "uint256"
        },
        {
          "internalType": "uint256",
          "name": "courseGroup",
          "type": "uint256"
        },
        {
          "internalType": "enum School.CourseType",
          "name": "courseType",
          "type": "uint8"
        }
      ],
      "name": "createCourse",
      "outputs": [
        {
          "components": [
            {
              "internalType": "uint256",
              "name": "id",
              "type": "uint256"
            },
            {
              "internalType": "address",
              "name": "teacherAddress",
              "type": "address"
            },
            {
              "internalType": "uint256",
              "name": "credits",
              "type": "uint256"
            },
            {
              "internalType": "uint256",
              "name": "remainNftCounts",
              "type": "uint256"
            },
            {
              "internalType": "uint256",
              "name": "maxNftCounts",
              "type": "uint256"
            },
            {
              "internalType": "uint256",
              "name": "courseGroup",
              "type": "uint256"
            },
            {
              "internalType": "enum School.CourseType",
              "name": "courseType",
              "type": "uint8"
            },
            {
              "internalType": "enum School.CourseStatus",
              "name": "status",
              "type": "uint8"
            }
          ],
          "internalType": "struct School.Course",
          "name": "",
          "type": "tuple"
        }
      ],
      "stateMutability": "nonpayable",
      "type": "function"
    },
    {
      "inputs": [
        {
          "internalType": "uint256",
          "name": "courseId",
          "type": "uint256"
        }
      ],
      "name": "completeCourse",
      "outputs": [],
      "stateMutability": "nonpayable",
      "type": "function"
    }
  ],
  "bytecode": "0x60806040526064600060146101000a81548160ff021916908360ff1602179055503480156200002d57600080fd5b506200004e62000042620000a560201b60201c565b620000ad60201b60201c565b6001600060156101000a81548160ff0219169083151502179055506001600060166101000a81548160ff0219169083151502179055506001600060176101000a81548160ff02191690831515021790555062000171565b600033905090565b60008060009054906101000a900473ffffffffffffffffffffffffffffffffffffffff169050816000806101000a81548173ffffffffffffffffffffffffffffffffffffffff021916908373ffffffffffffffffffffffffffffffffffffffff1602179055508173ffffffffffffffffffffffffffffffffffffffff168173ffffffffffffffffffffffffffffffffffffffff167f8be0079c531659141344cd1fd0a4f28419497f9722a3daafe3b4186f6b6457e060405160405180910390a35050565b6131d480620001816000396000f3fe608060405234801561001057600080fd5b50600436106100f55760003560e01c80638da5cb5b11610097578063bb4b244311610066578063bb4b24431461024c578063d44c537114610268578063f2fde38b14610284578063f7824ac7146102a0576100f5565b80638da5cb5b146101c257806399295e80146101e05780639d79ce0914610210578063b8396dfd1461022e576100f5565b806345d8a326116100d357806345d8a3261461016457806352ff684614610180578063715018a61461019c57806387862b7c146101a6576100f5565b8063038ad2d8146100fa5780630ac3a174146101185780630d3b429214610148575b600080fd5b6101026102be565b60405161010f91906120e9565b60405180910390f35b610132600480360381019061012d919061214e565b6102d1565b60405161013f91906121bc565b60405180910390f35b610162600480360381019061015d919061214e565b61048a565b005b61017e60048036038101906101799190612203565b61056d565b005b61019a60048036038101906101959190612203565b610bb4565b005b6101a4610f52565b005b6101c060048036038101906101bb9190612203565b610f66565b005b6101ca611304565b6040516101d791906121bc565b60405180910390f35b6101fa60048036038101906101f59190612255565b61132d565b6040516102079190612461565b60405180910390f35b61021861159f565b60405161022591906120e9565b60405180910390f35b6102366115b2565b6040516102439190612628565b60405180910390f35b61026660048036038101906102619190612792565b611703565b005b610282600480360381019061027d91906128bf565b6118d7565b005b61029e60048036038101906102999190612203565b611c22565b005b6102a8611ca5565b6040516102b59190612628565b60405180910390f35b600060179054906101000a900460ff1681565b600080600660008481526020019081526020016000205411610328576040517f08c379a000000000000000000000000000000000000000000000000000000000815260040161031f90612965565b60405180910390fd5b6000600660008481526020019081526020016000205490506000600560018361035191906129b4565b81548110610362576103616129e8565b5b906000526020600020906007020160405180610100016040529081600082015481526020016001820160009054906101000a900473ffffffffffffffffffffffffffffffffffffffff1673ffffffffffffffffffffffffffffffffffffffff1673ffffffffffffffffffffffffffffffffffffffff168152602001600282015481526020016003820154815260200160048201548152602001600582015481526020016006820160009054906101000a900460ff16600481111561042957610428612300565b5b600481111561043b5761043a612300565b5b81526020016006820160019054906101000a900460ff16600181111561046457610463612300565b5b600181111561047657610475612300565b5b815250509050806020015192505050919050565b80600073ffffffffffffffffffffffffffffffffffffffff166104ac826102d1565b73ffffffffffffffffffffffffffffffffffffffff1614610502576040517f08c379a00000000000000000000000000000000000000000000000000000000081526004016104f990612a63565b60405180910390fd5b6000600660008481526020019081526020016000205490506001600582815481106105305761052f6129e8565b5b906000526020600020906007020160060160016101000a81548160ff0219169083600181111561056357610562612300565b5b0217905550505050565b610575611dfe565b6000600c60008373ffffffffffffffffffffffffffffffffffffffff1673ffffffffffffffffffffffffffffffffffffffff16815260200190815260200160002054146105f7576040517f08c379a00000000000000000000000000000000000000000000000000000000081526004016105ee90612acf565b60405180910390fd5b6000600b60008373ffffffffffffffffffffffffffffffffffffffff1673ffffffffffffffffffffffffffffffffffffffff1681526020019081526020016000205411610679576040517f08c379a000000000000000000000000000000000000000000000000000000000815260040161067090612b3b565b60405180910390fd5b6000600b60008373ffffffffffffffffffffffffffffffffffffffff1673ffffffffffffffffffffffffffffffffffffffff16815260200190815260200160002054905060006009805490509050600060096001846106d891906129b4565b815481106106e9576106e86129e8565b5b9060005260206000209060030201604051806060016040529081600082015481526020016001820160009054906101000a900473ffffffffffffffffffffffffffffffffffffffff1673ffffffffffffffffffffffffffffffffffffffff1673ffffffffffffffffffffffffffffffffffffffff16815260200160028201805461077290612b8a565b80601f016020809104026020016040519081016040528092919081815260200182805461079e90612b8a565b80156107eb5780601f106107c0576101008083540402835291602001916107eb565b820191906000526020600020905b8154815290600101906020018083116107ce57829003601f168201915b5050505050815250509050818314610a0a57600060098381548110610813576108126129e8565b5b9060005260206000209060030201604051806060016040529081600082015481526020016001820160009054906101000a900473ffffffffffffffffffffffffffffffffffffffff1673ffffffffffffffffffffffffffffffffffffffff1673ffffffffffffffffffffffffffffffffffffffff16815260200160028201805461089c90612b8a565b80601f01602080910402602001604051908101604052809291908181526020018280546108c890612b8a565b80156109155780601f106108ea57610100808354040283529160200191610915565b820191906000526020600020905b8154815290600101906020018083116108f857829003601f168201915b505050505081525050905080600960018661093091906129b4565b81548110610941576109406129e8565b5b90600052602060002090600302016000820151816000015560208201518160010160006101000a81548173ffffffffffffffffffffffffffffffffffffffff021916908373ffffffffffffffffffffffffffffffffffffffff16021790555060408201518160020190805190602001906109bc929190611f6c565b5090505083600b6000836020015173ffffffffffffffffffffffffffffffffffffffff1673ffffffffffffffffffffffffffffffffffffffff16815260200190815260200160002081905550505b600b60008573ffffffffffffffffffffffffffffffffffffffff1673ffffffffffffffffffffffffffffffffffffffff168152602001908152602001600020600090556009805480610a5f57610a5e612bbb565b5b60019003818190600052602060002090600302016000808201600090556001820160006101000a81549073ffffffffffffffffffffffffffffffffffffffff0219169055600282016000610ab39190611ff2565b505090556000600a805490509050600181610ace9190612bea565b600c60008773ffffffffffffffffffffffffffffffffffffffff1673ffffffffffffffffffffffffffffffffffffffff16815260200190815260200160002081905550600a8290806001815401808255809150506001900390600052602060002090600302016000909190919091506000820151816000015560208201518160010160006101000a81548173ffffffffffffffffffffffffffffffffffffffff021916908373ffffffffffffffffffffffffffffffffffffffff1602179055506040820151816002019080519060200190610baa929190611f6c565b5050505050505050565b610bbc611dfe565b6000600c60008373ffffffffffffffffffffffffffffffffffffffff1673ffffffffffffffffffffffffffffffffffffffff1681526020019081526020016000205411610c3e576040517f08c379a0000000000000000000000000000000000000000000000000000000008152600401610c3590612c8c565b60405180910390fd5b6000600c60008373ffffffffffffffffffffffffffffffffffffffff1673ffffffffffffffffffffffffffffffffffffffff1681526020019081526020016000205490506000600a805490509050808214610ea0576000600a8281548110610ca957610ca86129e8565b5b9060005260206000209060030201604051806060016040529081600082015481526020016001820160009054906101000a900473ffffffffffffffffffffffffffffffffffffffff1673ffffffffffffffffffffffffffffffffffffffff1673ffffffffffffffffffffffffffffffffffffffff168152602001600282018054610d3290612b8a565b80601f0160208091040260200160405190810160405280929190818152602001828054610d5e90612b8a565b8015610dab5780601f10610d8057610100808354040283529160200191610dab565b820191906000526020600020905b815481529060010190602001808311610d8e57829003601f168201915b505050505081525050905080600a600185610dc691906129b4565b81548110610dd757610dd66129e8565b5b90600052602060002090600302016000820151816000015560208201518160010160006101000a81548173ffffffffffffffffffffffffffffffffffffffff021916908373ffffffffffffffffffffffffffffffffffffffff1602179055506040820151816002019080519060200190610e52929190611f6c565b5090505082600c6000836020015173ffffffffffffffffffffffffffffffffffffffff1673ffffffffffffffffffffffffffffffffffffffff16815260200190815260200160002081905550505b600c60008473ffffffffffffffffffffffffffffffffffffffff1673ffffffffffffffffffffffffffffffffffffffff16815260200190815260200160002060009055600a805480610ef557610ef4612bbb565b5b60019003818190600052602060002090600302016000808201600090556001820160006101000a81549073ffffffffffffffffffffffffffffffffffffffff0219169055600282016000610f499190611ff2565b50509055505050565b610f5a611dfe565b610f646000611e7c565b565b610f6e611dfe565b6000600b60008373ffffffffffffffffffffffffffffffffffffffff1673ffffffffffffffffffffffffffffffffffffffff1681526020019081526020016000205411610ff0576040517f08c379a0000000000000000000000000000000000000000000000000000000008152600401610fe790612c8c565b60405180910390fd5b6000600b60008373ffffffffffffffffffffffffffffffffffffffff1673ffffffffffffffffffffffffffffffffffffffff168152602001908152602001600020549050600060098054905090508082146112525760006009828154811061105b5761105a6129e8565b5b9060005260206000209060030201604051806060016040529081600082015481526020016001820160009054906101000a900473ffffffffffffffffffffffffffffffffffffffff1673ffffffffffffffffffffffffffffffffffffffff1673ffffffffffffffffffffffffffffffffffffffff1681526020016002820180546110e490612b8a565b80601f016020809104026020016040519081016040528092919081815260200182805461111090612b8a565b801561115d5780601f106111325761010080835404028352916020019161115d565b820191906000526020600020905b81548152906001019060200180831161114057829003601f168201915b505050505081525050905080600960018561117891906129b4565b81548110611189576111886129e8565b5b90600052602060002090600302016000820151816000015560208201518160010160006101000a81548173ffffffffffffffffffffffffffffffffffffffff021916908373ffffffffffffffffffffffffffffffffffffffff1602179055506040820151816002019080519060200190611204929190611f6c565b5090505082600b6000836020015173ffffffffffffffffffffffffffffffffffffffff1673ffffffffffffffffffffffffffffffffffffffff16815260200190815260200160002081905550505b600b60008473ffffffffffffffffffffffffffffffffffffffff1673ffffffffffffffffffffffffffffffffffffffff1681526020019081526020016000206000905560098054806112a7576112a6612bbb565b5b60019003818190600052602060002090600302016000808201600090556001820160006101000a81549073ffffffffffffffffffffffffffffffffffffffff02191690556002820160006112fb9190611ff2565b50509055505050565b60008060009054906101000a900473ffffffffffffffffffffffffffffffffffffffff16905090565b611335612032565b61133d611dfe565b6000600c60008973ffffffffffffffffffffffffffffffffffffffff1673ffffffffffffffffffffffffffffffffffffffff16815260200190815260200160002054116113bf576040517f08c379a00000000000000000000000000000000000000000000000000000000081526004016113b690612d1e565b60405180910390fd5b6113c96003611f40565b6113d36004611f40565b60006113df6004611f56565b90506000600580549050905060006040518061010001604052808481526020018b73ffffffffffffffffffffffffffffffffffffffff1681526020018a815260200189815260200188815260200187815260200186600481111561144657611445612300565b5b81526020016000600181111561145f5761145e612300565b5b81525090506001826114719190612bea565b600660008581526020019081526020016000208190555060058190806001815401808255809150506001900390600052602060002090600702016000909190919091506000820151816000015560208201518160010160006101000a81548173ffffffffffffffffffffffffffffffffffffffff021916908373ffffffffffffffffffffffffffffffffffffffff16021790555060408201518160020155606082015181600301556080820151816004015560a0820151816005015560c08201518160060160006101000a81548160ff0219169083600481111561155857611557612300565b5b021790555060e08201518160060160016101000a81548160ff0219169083600181111561158857611587612300565b5b021790555050508093505050509695505050505050565b600060169054906101000a900460ff1681565b6060600a805480602002602001604051908101604052809291908181526020016000905b828210156116fa5783829060005260206000209060030201604051806060016040529081600082015481526020016001820160009054906101000a900473ffffffffffffffffffffffffffffffffffffffff1673ffffffffffffffffffffffffffffffffffffffff1673ffffffffffffffffffffffffffffffffffffffff16815260200160028201805461166990612b8a565b80601f016020809104026020016040519081016040528092919081815260200182805461169590612b8a565b80156116e25780601f106116b7576101008083540402835291602001916116e2565b820191906000526020600020905b8154815290600101906020018083116116c557829003601f168201915b505050505081525050815260200190600101906115d6565b50505050905090565b61170b611dfe565b805182511461174f576040517f08c379a000000000000000000000000000000000000000000000000000000000815260040161174690612d8a565b60405180910390fd5b60008251905060005b81811015611880576001838281518110611775576117746129e8565b5b602002602001015110156117be576040517f08c379a00000000000000000000000000000000000000000000000000000000081526004016117b590612df6565b60405180910390fd5b600060405180604001604052808684815181106117de576117dd6129e8565b5b602002602001015181526020018584815181106117fe576117fd6129e8565b5b60200260200101518152509050600181908060018154018082558091505060019003906000526020600020906002020160009091909190915060008201518160000155602082015181600101555050600180549050600260008360000151815260200190815260200160002081905550508061187990612e16565b9050611758565b506001600060156101000a81548160ff0219169083151502179055506001600060166101000a81548160ff0219169083151502179055506001600060176101000a81548160ff021916908315150217905550505050565b600060169054906101000a900460ff16611926576040517f08c379a000000000000000000000000000000000000000000000000000000000815260040161191d90612eaa565b60405180910390fd5b61192e611304565b73ffffffffffffffffffffffffffffffffffffffff163373ffffffffffffffffffffffffffffffffffffffff160361199b576040517f08c379a000000000000000000000000000000000000000000000000000000000815260040161199290612f16565b60405180910390fd5b6000600b60003373ffffffffffffffffffffffffffffffffffffffff1673ffffffffffffffffffffffffffffffffffffffff1681526020019081526020016000205414611a1d576040517f08c379a0000000000000000000000000000000000000000000000000000000008152600401611a1490612f82565b60405180910390fd5b6000600c60003373ffffffffffffffffffffffffffffffffffffffff1673ffffffffffffffffffffffffffffffffffffffff1681526020019081526020016000205414611a9f576040517f08c379a0000000000000000000000000000000000000000000000000000000008152600401611a9690612fee565b60405180910390fd5b600060149054906101000a900460ff1660ff1660098054905010611af8576040517f08c379a0000000000000000000000000000000000000000000000000000000008152600401611aef90613080565b60405180910390fd5b60006009805490509050600960405180606001604052804281526020013373ffffffffffffffffffffffffffffffffffffffff1681526020018481525090806001815401808255809150506001900390600052602060002090600302016000909190919091506000820151816000015560208201518160010160006101000a81548173ffffffffffffffffffffffffffffffffffffffff021916908373ffffffffffffffffffffffffffffffffffffffff1602179055506040820151816002019080519060200190611bcb929190611f6c565b505050600181611bdb9190612bea565b600b60003373ffffffffffffffffffffffffffffffffffffffff1673ffffffffffffffffffffffffffffffffffffffff168152602001908152602001600020819055505050565b611c2a611dfe565b600073ffffffffffffffffffffffffffffffffffffffff168173ffffffffffffffffffffffffffffffffffffffff1603611c99576040517f08c379a0000000000000000000000000000000000000000000000000000000008152600401611c9090613112565b60405180910390fd5b611ca281611e7c565b50565b6060611caf611dfe565b6009805480602002602001604051908101604052809291908181526020016000905b82821015611df55783829060005260206000209060030201604051806060016040529081600082015481526020016001820160009054906101000a900473ffffffffffffffffffffffffffffffffffffffff1673ffffffffffffffffffffffffffffffffffffffff1673ffffffffffffffffffffffffffffffffffffffff168152602001600282018054611d6490612b8a565b80601f0160208091040260200160405190810160405280929190818152602001828054611d9090612b8a565b8015611ddd5780601f10611db257610100808354040283529160200191611ddd565b820191906000526020600020905b815481529060010190602001808311611dc057829003601f168201915b50505050508152505081526020019060010190611cd1565b50505050905090565b611e06611f64565b73ffffffffffffffffffffffffffffffffffffffff16611e24611304565b73ffffffffffffffffffffffffffffffffffffffff1614611e7a576040517f08c379a0000000000000000000000000000000000000000000000000000000008152600401611e719061317e565b60405180910390fd5b565b60008060009054906101000a900473ffffffffffffffffffffffffffffffffffffffff169050816000806101000a81548173ffffffffffffffffffffffffffffffffffffffff021916908373ffffffffffffffffffffffffffffffffffffffff1602179055508173ffffffffffffffffffffffffffffffffffffffff168173ffffffffffffffffffffffffffffffffffffffff167f8be0079c531659141344cd1fd0a4f28419497f9722a3daafe3b4186f6b6457e060405160405180910390a35050565b6001816000016000828254019250508190555050565b600081600001549050919050565b600033905090565b828054611f7890612b8a565b90600052602060002090601f016020900481019282611f9a5760008555611fe1565b82601f10611fb357805160ff1916838001178555611fe1565b82800160010185558215611fe1579182015b82811115611fe0578251825591602001919060010190611fc5565b5b509050611fee91906120b1565b5090565b508054611ffe90612b8a565b6000825580601f10612010575061202f565b601f01602090049060005260206000209081019061202e91906120b1565b5b50565b60405180610100016040528060008152602001600073ffffffffffffffffffffffffffffffffffffffff168152602001600081526020016000815260200160008152602001600081526020016000600481111561209257612091612300565b5b8152602001600060018111156120ab576120aa612300565b5b81525090565b5b808211156120ca5760008160009055506001016120b2565b5090565b60008115159050919050565b6120e3816120ce565b82525050565b60006020820190506120fe60008301846120da565b92915050565b6000604051905090565b600080fd5b600080fd5b6000819050919050565b61212b81612118565b811461213657600080fd5b50565b60008135905061214881612122565b92915050565b6000602082840312156121645761216361210e565b5b600061217284828501612139565b91505092915050565b600073ffffffffffffffffffffffffffffffffffffffff82169050919050565b60006121a68261217b565b9050919050565b6121b68161219b565b82525050565b60006020820190506121d160008301846121ad565b92915050565b6121e08161219b565b81146121eb57600080fd5b50565b6000813590506121fd816121d7565b92915050565b6000602082840312156122195761221861210e565b5b6000612227848285016121ee565b91505092915050565b6005811061223d57600080fd5b50565b60008135905061224f81612230565b92915050565b60008060008060008060c087890312156122725761227161210e565b5b600061228089828a016121ee565b965050602061229189828a01612139565b95505060406122a289828a01612139565b94505060606122b389828a01612139565b93505060806122c489828a01612139565b92505060a06122d589828a01612240565b9150509295509295509295565b6122eb81612118565b82525050565b6122fa8161219b565b82525050565b7f4e487b7100000000000000000000000000000000000000000000000000000000600052602160045260246000fd5b600581106123405761233f612300565b5b50565b60008190506123518261232f565b919050565b600061236182612343565b9050919050565b61237181612356565b82525050565b6002811061238857612387612300565b5b50565b600081905061239982612377565b919050565b60006123a98261238b565b9050919050565b6123b98161239e565b82525050565b610100820160008201516123d660008501826122e2565b5060208201516123e960208501826122f1565b5060408201516123fc60408501826122e2565b50606082015161240f60608501826122e2565b50608082015161242260808501826122e2565b5060a082015161243560a08501826122e2565b5060c082015161244860c0850182612368565b5060e082015161245b60e08501826123b0565b50505050565b60006101008201905061247760008301846123bf565b92915050565b600081519050919050565b600082825260208201905092915050565b6000819050602082019050919050565b600081519050919050565b600082825260208201905092915050565b60005b838110156124e35780820151818401526020810190506124c8565b838111156124f2576000848401525b50505050565b6000601f19601f8301169050919050565b6000612514826124a9565b61251e81856124b4565b935061252e8185602086016124c5565b612537816124f8565b840191505092915050565b600060608301600083015161255a60008601826122e2565b50602083015161256d60208601826122f1565b50604083015184820360408601526125858282612509565b9150508091505092915050565b600061259e8383612542565b905092915050565b6000602082019050919050565b60006125be8261247d565b6125c88185612488565b9350836020820285016125da85612499565b8060005b8581101561261657848403895281516125f78582612592565b9450612602836125a6565b925060208a019950506001810190506125de565b50829750879550505050505092915050565b6000602082019050818103600083015261264281846125b3565b905092915050565b600080fd5b7f4e487b7100000000000000000000000000000000000000000000000000000000600052604160045260246000fd5b612687826124f8565b810181811067ffffffffffffffff821117156126a6576126a561264f565b5b80604052505050565b60006126b9612104565b90506126c5828261267e565b919050565b600067ffffffffffffffff8211156126e5576126e461264f565b5b602082029050602081019050919050565b600080fd5b600061270e612709846126ca565b6126af565b90508083825260208201905060208402830185811115612731576127306126f6565b5b835b8181101561275a57806127468882612139565b845260208401935050602081019050612733565b5050509392505050565b600082601f8301126127795761277861264a565b5b81356127898482602086016126fb565b91505092915050565b600080604083850312156127a9576127a861210e565b5b600083013567ffffffffffffffff8111156127c7576127c6612113565b5b6127d385828601612764565b925050602083013567ffffffffffffffff8111156127f4576127f3612113565b5b61280085828601612764565b9150509250929050565b600080fd5b600067ffffffffffffffff82111561282a5761282961264f565b5b612833826124f8565b9050602081019050919050565b82818337600083830152505050565b600061286261285d8461280f565b6126af565b90508281526020810184848401111561287e5761287d61280a565b5b612889848285612840565b509392505050565b600082601f8301126128a6576128a561264a565b5b81356128b684826020860161284f565b91505092915050565b6000602082840312156128d5576128d461210e565b5b600082013567ffffffffffffffff8111156128f3576128f2612113565b5b6128ff84828501612891565b91505092915050565b600082825260208201905092915050565b7f436f75727365206973206e6f7420657869737400000000000000000000000000600082015250565b600061294f601383612908565b915061295a82612919565b602082019050919050565b6000602082019050818103600083015261297e81612942565b9050919050565b7f4e487b7100000000000000000000000000000000000000000000000000000000600052601160045260246000fd5b60006129bf82612118565b91506129ca83612118565b9250828210156129dd576129dc612985565b5b828203905092915050565b7f4e487b7100000000000000000000000000000000000000000000000000000000600052603260045260246000fd5b7f6163636573732064656e69656400000000000000000000000000000000000000600082015250565b6000612a4d600d83612908565b9150612a5882612a17565b602082019050919050565b60006020820190508181036000830152612a7c81612a40565b9050919050565b7f5465616368657220686173206265656e20617070726f76656400000000000000600082015250565b6000612ab9601983612908565b9150612ac482612a83565b602082019050919050565b60006020820190508181036000830152612ae881612aac565b9050919050565b7f5465616368657220686173206e6f74206265656e207265676973746572656400600082015250565b6000612b25601f83612908565b9150612b3082612aef565b602082019050919050565b60006020820190508181036000830152612b5481612b18565b9050919050565b7f4e487b7100000000000000000000000000000000000000000000000000000000600052602260045260246000fd5b60006002820490506001821680612ba257607f821691505b602082108103612bb557612bb4612b5b565b5b50919050565b7f4e487b7100000000000000000000000000000000000000000000000000000000600052603160045260246000fd5b6000612bf582612118565b9150612c0083612118565b9250827fffffffffffffffffffffffffffffffffffffffffffffffffffffffffffffffff03821115612c3557612c34612985565b5b828201905092915050565b7f5465616368657220646f65736e27742065786973740000000000000000000000600082015250565b6000612c76601583612908565b9150612c8182612c40565b602082019050919050565b60006020820190508181036000830152612ca581612c69565b9050919050565b7f54656163686572206d757374207265676973746572206265666f72652061737360008201527f69676e6d656e7400000000000000000000000000000000000000000000000000602082015250565b6000612d08602783612908565b9150612d1382612cac565b604082019050919050565b60006020820190508181036000830152612d3781612cfb565b9050919050565b7f496e76616c696420696e70757400000000000000000000000000000000000000600082015250565b6000612d74600d83612908565b9150612d7f82612d3e565b602082019050919050565b60006020820190508181036000830152612da381612d67565b9050919050565b7f496e76616c6964206372656469747320696e7075740000000000000000000000600082015250565b6000612de0601583612908565b9150612deb82612daa565b602082019050919050565b60006020820190508181036000830152612e0f81612dd3565b9050919050565b6000612e2182612118565b91507fffffffffffffffffffffffffffffffffffffffffffffffffffffffffffffffff8203612e5357612e52612985565b5b600182019050919050565b7f49742773206e6f742074696d6520746f20726567697374657200000000000000600082015250565b6000612e94601983612908565b9150612e9f82612e5e565b602082019050919050565b60006020820190508181036000830152612ec381612e87565b9050919050565b7f4f776e65722063616e6e6f742072656769737465720000000000000000000000600082015250565b6000612f00601583612908565b9150612f0b82612eca565b602082019050919050565b60006020820190508181036000830152612f2f81612ef3565b9050919050565b7f596f752068617320726567697374657265640000000000000000000000000000600082015250565b6000612f6c601283612908565b9150612f7782612f36565b602082019050919050565b60006020820190508181036000830152612f9b81612f5f565b9050919050565b7f596f7520686173206265656e20617070726f7665640000000000000000000000600082015250565b6000612fd8601583612908565b9150612fe382612fa2565b602082019050919050565b6000602082019050818103600083015261300781612fcb565b9050919050565b7f546f6f206d616e792077616974696e6720726571756573742e20506c6561736560008201527f2074727920616761696e206c617465722e000000000000000000000000000000602082015250565b600061306a603183612908565b91506130758261300e565b604082019050919050565b600060208201905081810360008301526130998161305d565b9050919050565b7f4f776e61626c653a206e6577206f776e657220697320746865207a65726f206160008201527f6464726573730000000000000000000000000000000000000000000000000000602082015250565b60006130fc602683612908565b9150613107826130a0565b604082019050919050565b6000602082019050818103600083015261312b816130ef565b9050919050565b7f4f776e61626c653a2063616c6c6572206973206e6f7420746865206f776e6572600082015250565b6000613168602083612908565b915061317382613132565b602082019050919050565b600060208201905081810360008301526131978161315b565b905091905056fea2646970667358221220a0861919074a5ee4c077fd1a5d89005147a7eb1e36deab85da6e2847445707cd64736f6c634300080d0033",
  "immutableReferences": {},
  "source": "// SPDX-License-Identifier: MIT\r\n// Tells the Solidity compiler to compile only from v0.8.13 to v0.9.0\r\npragma solidity ^0.8.13;\r\n\r\nimport \"@openzeppelin/contracts/utils/Counters.sol\";\r\nimport \"@openzeppelin/contracts/access/Ownable.sol\";\r\n\r\ncontract School is Ownable {\r\n    using Counters for Counters.Counter;\r\n\r\n    enum CourseType {\r\n        General,\r\n        Foundation,\r\n        Specialized,\r\n        SpecializedElective,\r\n        Elective\r\n    }\r\n\r\n    enum CourseStatus {\r\n        InProgress,\r\n        Complete\r\n    }\r\n\r\n    struct Requirement {\r\n        uint256 courseGroupId;\r\n        uint256 credits;\r\n    }\r\n\r\n    struct Course {\r\n        uint256 id;\r\n        address teacherAddress;\r\n        uint256 credits;\r\n        uint256 remainNftCounts;\r\n        uint256 maxNftCounts; // to limit the nft course minted\r\n        uint256 courseGroup; // course group id, course name: uri\r\n        CourseType courseType;\r\n        CourseStatus status;\r\n    }\r\n\r\n    struct Teacher {\r\n        uint256 registeredDate;\r\n        address registeredAddress;\r\n        string metadata;\r\n    }\r\n\r\n    uint8 private REGISTERED_TEACHER_LIMIT = 100;\r\n    bool private _isInitialized;\r\n    bool public canRegistered;\r\n    bool public canGetNftGraduation;\r\n    Requirement[] private _graduationRequirements;\r\n    mapping(uint256 => uint256) private _idToGraduationRequirementIndex;\r\n \r\n    // Course\r\n    Counters.Counter private _courseCount;\r\n    Counters.Counter private _courseIds;\r\n    Course[] private _allCourses;\r\n    mapping(uint256 => uint256) private _idToCourseIndex;\r\n\r\n    // Metadata = Course group\r\n    string[] private _courseGroups;\r\n    mapping(string => bool) private _registeredCourseGroups;\r\n    // Registered teacher\r\n    Teacher[] private _allRegisteredTeachers;\r\n    Teacher[] private _allApprovedTeachers;\r\n    mapping(address => uint256) private _addressToRegisteredTeacherIndex;\r\n    mapping(address => uint256) private _addressToApprovedTeacherIndex;\r\n\r\n    modifier onlyInitialized {\r\n        require(_isInitialized, \"Contract haven't been initialized yet\");\r\n        _;\r\n    }\r\n\r\n    modifier allowRegistered {\r\n        require(canRegistered, \"It's not time to register\");\r\n        _;\r\n    }\r\n\r\n    modifier allowGetNftGraduation {\r\n        require(canGetNftGraduation, \"It's not time to exchange nft graduation\");\r\n        _;\r\n    }\r\n    \r\n    modifier onlyTeacher(uint256 courseId) {\r\n        require(teacherAddressOf(courseId) == address(0), 'access denied');\r\n        _;\r\n    }\r\n    \r\n    constructor() {\r\n        _isInitialized = true;\r\n        canRegistered = true;\r\n        canGetNftGraduation = true;\r\n    }\r\n\r\n    function initialize(uint256[] memory courseGroupIds, uint256[] memory credits) public onlyOwner {\r\n        require(courseGroupIds.length == credits.length, 'Invalid input');\r\n        // start, stop of year?\r\n        uint256 requirementLength = courseGroupIds.length;\r\n        for (uint256 index = 0; index < requirementLength; ++index) {\r\n            if (credits[index] < 1) {\r\n                revert('Invalid credits input');\r\n            }\r\n            Requirement memory requirement = Requirement(courseGroupIds[index], credits[index]);\r\n            _graduationRequirements.push(requirement);\r\n            _idToGraduationRequirementIndex[requirement.courseGroupId] = _graduationRequirements.length;\r\n        }\r\n\r\n        _isInitialized = true;\r\n        canRegistered = true;\r\n        canGetNftGraduation = true;\r\n    }\r\n\r\n    function getAllRegisteredTeachers() public view onlyOwner returns (Teacher[] memory) {\r\n        return _allRegisteredTeachers;\r\n    }\r\n\r\n    function getAllApprovedTeachers() public view returns (Teacher[] memory) {\r\n        return _allApprovedTeachers;\r\n    }\r\n\r\n    /* Teacher section: start\r\n    Can create smart contract inherit ChainLink to manage teacher\r\n    */\r\n    function teacherAddressOf(uint256 courseId) public view returns (address) {\r\n        require(_idToCourseIndex[courseId] > 0, \"Course is not exist\");\r\n        uint256 courseIndex = _idToCourseIndex[courseId];\r\n        Course memory course = _allCourses[courseIndex - 1];\r\n\r\n        return course.teacherAddress;\r\n    }\r\n\r\n    function registerTeacher(string memory metadata) public allowRegistered { // Use payable? (? Lost)\r\n        require(msg.sender != owner(), \"Owner cannot register\");\r\n        require(_addressToRegisteredTeacherIndex[msg.sender] == 0, 'You has registered');\r\n        require(_addressToApprovedTeacherIndex[msg.sender] == 0, 'You has been approved');\r\n        require(_allRegisteredTeachers.length < REGISTERED_TEACHER_LIMIT, 'Too many waiting request. Please try again later.');\r\n        // Idea:  chainlink to call recheckRegisteredTeacher() => auto reject after a while;\r\n\r\n        uint256 currentIndex = _allRegisteredTeachers.length;\r\n        _allRegisteredTeachers.push(Teacher(block.timestamp, msg.sender, metadata));\r\n        _addressToRegisteredTeacherIndex[msg.sender] = currentIndex + 1;\r\n\r\n        // EVENT\r\n    }\r\n\r\n    function approveTeacher(address teacherAddress) public onlyOwner { // Send back (? Lost)\r\n        require(_addressToApprovedTeacherIndex[teacherAddress] == 0, 'Teacher has been approved');\r\n        require(_addressToRegisteredTeacherIndex[teacherAddress] > 0, 'Teacher has not been registered');\r\n\r\n        uint256 teacherIndex = _addressToRegisteredTeacherIndex[teacherAddress];\r\n        uint256 lastTeacherIndex = _allRegisteredTeachers.length;\r\n        Teacher memory teacher = _allRegisteredTeachers[teacherIndex - 1];\r\n\r\n        // remove teacher from register list\r\n        if (teacherIndex != lastTeacherIndex) {\r\n            Teacher memory lastTeacher = _allRegisteredTeachers[lastTeacherIndex];\r\n            _allRegisteredTeachers[teacherIndex - 1] = lastTeacher;\r\n            _addressToRegisteredTeacherIndex[lastTeacher.registeredAddress] = teacherIndex;\r\n        }\r\n\r\n        delete _addressToRegisteredTeacherIndex[teacherAddress];\r\n        _allRegisteredTeachers.pop();\r\n\r\n        // add teacher to approve list\r\n        uint256 currentIndex = _allApprovedTeachers.length;\r\n        _addressToApprovedTeacherIndex[teacherAddress] = currentIndex + 1;\r\n        _allApprovedTeachers.push(teacher);\r\n\r\n        // EVENT\r\n    }\r\n\r\n    function removeTeacher(address teacherAddress) public onlyOwner {\r\n        require(_addressToApprovedTeacherIndex[teacherAddress] > 0, \"Teacher doesn't exist\");\r\n        // Check if teacher currently has class?\r\n        uint256 teacherIndex = _addressToApprovedTeacherIndex[teacherAddress];\r\n        uint256 lastTeacherIndex = _allApprovedTeachers.length;\r\n\r\n        if (teacherIndex != lastTeacherIndex) {\r\n            Teacher memory lastTeacher = _allApprovedTeachers[lastTeacherIndex];\r\n            _allApprovedTeachers[teacherIndex - 1] = lastTeacher;\r\n            _addressToApprovedTeacherIndex[lastTeacher.registeredAddress] = teacherIndex;\r\n        }\r\n\r\n        delete _addressToApprovedTeacherIndex[teacherAddress];\r\n        _allApprovedTeachers.pop();\r\n\r\n        // EVENT\r\n    }\r\n\r\n    // Idea:  Use chainlink to remove registered teacher after 30 days if he/she is not registered\r\n    // function recheckRegisteredTeacher() public onlyOwner {\r\n        // require(_approvedTeacher[msg.sender].registeredDate == 0)\r\n    // }\r\n\r\n    function rejectTeacher(address teacherAddress) public onlyOwner {\r\n        // Idea: Add address to blacklist in a particular time => prevent address from registering in a while?\r\n        require(_addressToRegisteredTeacherIndex[teacherAddress] > 0, \"Teacher doesn't exist\");\r\n        uint256 teacherIndex = _addressToRegisteredTeacherIndex[teacherAddress];\r\n        uint256 lastTeacherIndex = _allRegisteredTeachers.length;\r\n\r\n        if (teacherIndex != lastTeacherIndex) {\r\n            Teacher memory lastTeacher = _allRegisteredTeachers[lastTeacherIndex];\r\n            _allRegisteredTeachers[teacherIndex - 1] = lastTeacher;\r\n            _addressToRegisteredTeacherIndex[lastTeacher.registeredAddress] = teacherIndex;\r\n        }\r\n\r\n        delete _addressToRegisteredTeacherIndex[teacherAddress];\r\n        _allRegisteredTeachers.pop();\r\n\r\n        // EVENT\r\n    }\r\n    // Teacher section: end\r\n    \r\n\r\n    function createCourse(\r\n        address teacherAddress,\r\n        uint256 credits,\r\n        uint256 remainNftCounts,\r\n        uint256 maxNftCounts,\r\n        uint256 courseGroup, // -> course group?\r\n        CourseType courseType \r\n    ) public onlyOwner returns (Course memory) {\r\n        require(_addressToApprovedTeacherIndex[teacherAddress] > 0, 'Teacher must register before assignment');\r\n\r\n        _courseCount.increment();\r\n        _courseIds.increment();\r\n        uint256 currentId = _courseIds.current();\r\n        uint256 currentIndex = _allCourses.length;\r\n        Course memory course = Course(\r\n            currentId,\r\n            teacherAddress,\r\n            credits,\r\n            remainNftCounts,\r\n            maxNftCounts,\r\n            courseGroup,\r\n            courseType,\r\n            CourseStatus.InProgress\r\n        );\r\n\r\n        _idToCourseIndex[currentId] = currentIndex + 1;\r\n        _allCourses.push(course);\r\n\r\n        // EVENT\r\n        return course;\r\n    }\r\n\r\n    function completeCourse(\r\n        uint256 courseId\r\n    ) public onlyTeacher(courseId) {\r\n        uint256 courseIndex = _idToCourseIndex[courseId];\r\n        _allCourses[courseIndex].status = CourseStatus.Complete;\r\n    }\r\n}\r\n\r\n\r\n\r\n",
  "sourcePath": "E:\\learn\\learn-to-earn\\contracts\\School.sol",
  "compiler": {
    "name": "solc",
    "version": "0.8.13+commit.abaa5c0e.Emscripten.clang"
  },
  "schemaVersion": "3.4.11",
  "updatedAt": "2023-02-25T12:29:02.975Z",
  "networkType": "ethereum",
  "devdoc": {
    "kind": "dev",
    "methods": {
      "owner()": {
        "details": "Returns the address of the current owner."
      },
      "renounceOwnership()": {
        "details": "Leaves the contract without owner. It will not be possible to call `onlyOwner` functions anymore. Can only be called by the current owner. NOTE: Renouncing ownership will leave the contract without an owner, thereby removing any functionality that is only available to the owner."
      },
      "transferOwnership(address)": {
        "details": "Transfers ownership of the contract to a new account (`newOwner`). Can only be called by the current owner."
      }
    },
    "version": 1
  },
  "userdoc": {
    "kind": "user",
    "methods": {},
    "version": 1
  }
}