{
  "contractName": "School",
  "abi": [
    {
      "inputs": [],
      "stateMutability": "nonpayable",
      "type": "constructor"
    },
    {
      "anonymous": false,
      "inputs": [
        {
          "indexed": true,
          "internalType": "address",
          "name": "previousOwner",
          "type": "address"
        },
        {
          "indexed": true,
          "internalType": "address",
          "name": "newOwner",
          "type": "address"
        }
      ],
      "name": "OwnershipTransferred",
      "type": "event"
    },
    {
      "inputs": [],
      "name": "canGetNftGraduation",
      "outputs": [
        {
          "internalType": "bool",
          "name": "",
          "type": "bool"
        }
      ],
      "stateMutability": "view",
      "type": "function"
    },
    {
      "inputs": [],
      "name": "canRegistered",
      "outputs": [
        {
          "internalType": "bool",
          "name": "",
          "type": "bool"
        }
      ],
      "stateMutability": "view",
      "type": "function"
    },
    {
      "inputs": [],
      "name": "owner",
      "outputs": [
        {
          "internalType": "address",
          "name": "",
          "type": "address"
        }
      ],
      "stateMutability": "view",
      "type": "function"
    },
    {
      "inputs": [],
      "name": "renounceOwnership",
      "outputs": [],
      "stateMutability": "nonpayable",
      "type": "function"
    },
    {
      "inputs": [
        {
          "internalType": "address",
          "name": "newOwner",
          "type": "address"
        }
      ],
      "name": "transferOwnership",
      "outputs": [],
      "stateMutability": "nonpayable",
      "type": "function"
    },
    {
      "inputs": [
        {
          "internalType": "uint256[]",
          "name": "courseGroupIds",
          "type": "uint256[]"
        },
        {
          "internalType": "uint256[]",
          "name": "credits",
          "type": "uint256[]"
        }
      ],
      "name": "initialize",
      "outputs": [],
      "stateMutability": "nonpayable",
      "type": "function"
    },
    {
      "inputs": [],
      "name": "getAllRequirements",
      "outputs": [
        {
          "components": [
            {
              "internalType": "uint256",
              "name": "courseGroupId",
              "type": "uint256"
            },
            {
              "internalType": "uint256",
              "name": "credits",
              "type": "uint256"
            }
          ],
          "internalType": "struct Type.Requirement[]",
          "name": "requirements",
          "type": "tuple[]"
        }
      ],
      "stateMutability": "view",
      "type": "function"
    },
    {
      "inputs": [],
      "name": "getAllRegisteredTeachers",
      "outputs": [
        {
          "components": [
            {
              "internalType": "uint256",
              "name": "registeredDate",
              "type": "uint256"
            },
            {
              "internalType": "address",
              "name": "registeredAddress",
              "type": "address"
            },
            {
              "internalType": "string",
              "name": "metadata",
              "type": "string"
            }
          ],
          "internalType": "struct School.Teacher[]",
          "name": "",
          "type": "tuple[]"
        }
      ],
      "stateMutability": "view",
      "type": "function"
    },
    {
      "inputs": [],
      "name": "getAllApprovedTeachers",
      "outputs": [
        {
          "components": [
            {
              "internalType": "uint256",
              "name": "registeredDate",
              "type": "uint256"
            },
            {
              "internalType": "address",
              "name": "registeredAddress",
              "type": "address"
            },
            {
              "internalType": "string",
              "name": "metadata",
              "type": "string"
            }
          ],
          "internalType": "struct School.Teacher[]",
          "name": "",
          "type": "tuple[]"
        }
      ],
      "stateMutability": "view",
      "type": "function"
    },
    {
      "inputs": [],
      "name": "getAllCourses",
      "outputs": [
        {
          "components": [
            {
              "internalType": "uint256",
              "name": "id",
              "type": "uint256"
            },
            {
              "internalType": "address",
              "name": "teacherAddress",
              "type": "address"
            },
            {
              "internalType": "uint256",
              "name": "credits",
              "type": "uint256"
            },
            {
              "internalType": "uint256",
              "name": "maxNftCounts",
              "type": "uint256"
            },
            {
              "internalType": "uint256",
              "name": "courseGroup",
              "type": "uint256"
            },
            {
              "internalType": "string",
              "name": "metadata",
              "type": "string"
            },
            {
              "internalType": "enum Type.CourseStatus",
              "name": "status",
              "type": "uint8"
            }
          ],
          "internalType": "struct Type.Course[]",
          "name": "",
          "type": "tuple[]"
        }
      ],
      "stateMutability": "view",
      "type": "function"
    },
    {
      "inputs": [
        {
          "internalType": "uint256",
          "name": "courseId",
          "type": "uint256"
        }
      ],
      "name": "getCourse",
      "outputs": [
        {
          "components": [
            {
              "internalType": "uint256",
              "name": "id",
              "type": "uint256"
            },
            {
              "internalType": "address",
              "name": "teacherAddress",
              "type": "address"
            },
            {
              "internalType": "uint256",
              "name": "credits",
              "type": "uint256"
            },
            {
              "internalType": "uint256",
              "name": "maxNftCounts",
              "type": "uint256"
            },
            {
              "internalType": "uint256",
              "name": "courseGroup",
              "type": "uint256"
            },
            {
              "internalType": "string",
              "name": "metadata",
              "type": "string"
            },
            {
              "internalType": "enum Type.CourseStatus",
              "name": "status",
              "type": "uint8"
            }
          ],
          "internalType": "struct Type.Course",
          "name": "",
          "type": "tuple"
        }
      ],
      "stateMutability": "view",
      "type": "function"
    },
    {
      "inputs": [
        {
          "internalType": "uint256",
          "name": "courseId",
          "type": "uint256"
        }
      ],
      "name": "teacherAddressOf",
      "outputs": [
        {
          "internalType": "address",
          "name": "",
          "type": "address"
        }
      ],
      "stateMutability": "view",
      "type": "function"
    },
    {
      "inputs": [
        {
          "internalType": "string",
          "name": "metadata",
          "type": "string"
        }
      ],
      "name": "registerTeacher",
      "outputs": [],
      "stateMutability": "nonpayable",
      "type": "function"
    },
    {
      "inputs": [
        {
          "internalType": "address",
          "name": "teacherAddress",
          "type": "address"
        }
      ],
      "name": "approveTeacher",
      "outputs": [],
      "stateMutability": "nonpayable",
      "type": "function"
    },
    {
      "inputs": [
        {
          "internalType": "address",
          "name": "teacherAddress",
          "type": "address"
        }
      ],
      "name": "removeTeacher",
      "outputs": [],
      "stateMutability": "nonpayable",
      "type": "function"
    },
    {
      "inputs": [
        {
          "internalType": "address",
          "name": "teacherAddress",
          "type": "address"
        }
      ],
      "name": "rejectTeacher",
      "outputs": [],
      "stateMutability": "nonpayable",
      "type": "function"
    },
    {
      "inputs": [
        {
          "internalType": "address",
          "name": "teacherAddress",
          "type": "address"
        },
        {
          "internalType": "uint256",
          "name": "credits",
          "type": "uint256"
        },
        {
          "internalType": "uint256",
          "name": "nftCounts",
          "type": "uint256"
        },
        {
          "internalType": "uint256",
          "name": "courseGroupId",
          "type": "uint256"
        },
        {
          "internalType": "string",
          "name": "metadata",
          "type": "string"
        }
      ],
      "name": "createCourse",
      "outputs": [
        {
          "internalType": "uint256",
          "name": "",
          "type": "uint256"
        }
      ],
      "stateMutability": "nonpayable",
      "type": "function"
    },
    {
      "inputs": [
        {
          "internalType": "uint256",
          "name": "courseId",
          "type": "uint256"
        }
      ],
      "name": "completeCourse",
      "outputs": [],
      "stateMutability": "nonpayable",
      "type": "function"
    }
  ],
  "bytecode": "0x60806040526064600060146101000a81548160ff021916908360ff1602179055503480156200002d57600080fd5b506200004e620000426200005460201b60201c565b6200005c60201b60201c565b62000120565b600033905090565b60008060009054906101000a900473ffffffffffffffffffffffffffffffffffffffff169050816000806101000a81548173ffffffffffffffffffffffffffffffffffffffff021916908373ffffffffffffffffffffffffffffffffffffffff1602179055508173ffffffffffffffffffffffffffffffffffffffff168173ffffffffffffffffffffffffffffffffffffffff167f8be0079c531659141344cd1fd0a4f28419497f9722a3daafe3b4186f6b6457e060405160405180910390a35050565b613a2580620001306000396000f3fe608060405234801561001057600080fd5b50600436106101165760003560e01c80638da5cb5b116100a2578063b8396dfd11610071578063b8396dfd146102bb578063bb4b2443146102d9578063d44c5371146102f5578063f2fde38b14610311578063f7824ac71461032d57610116565b80638da5cb5b146102315780639c9fa1381461024f5780639d79ce091461027f578063ae23977a1461029d57610116565b80630d3b4292116100e95780630d3b4292146101b757806345d8a326146101d357806352ff6846146101ef578063715018a61461020b57806387862b7c1461021557610116565b8063038ad2d81461011b57806304e48bd1146101395780630ac3a174146101575780630b91e28d14610187575b600080fd5b61012361034b565b60405161013091906124d1565b60405180910390f35b61014161035e565b60405161014e91906127b4565b60405180910390f35b610171600480360381019061016c9190612816565b610508565b60405161017e9190612852565b60405180910390f35b6101a1600480360381019061019c9190612816565b610523565b6040516101ae9190612909565b60405180910390f35b6101d160048036038101906101cc9190612816565b61072b565b005b6101ed60048036038101906101e89190612957565b61080e565b005b61020960048036038101906102049190612957565b610e55565b005b6102136111f3565b005b61022f600480360381019061022a9190612957565b611207565b005b6102396115a5565b6040516102469190612852565b60405180910390f35b61026960048036038101906102649190612ab9565b6115ce565b6040516102769190612b5f565b60405180910390f35b61028761192e565b60405161029491906124d1565b60405180910390f35b6102a5611941565b6040516102b29190612c58565b60405180910390f35b6102c36119b4565b6040516102d09190612d8c565b60405180910390f35b6102f360048036038101906102ee9190612e76565b611b05565b005b61030f600480360381019061030a9190612eee565b611cd9565b005b61032b60048036038101906103269190612957565b612024565b005b6103356120a7565b6040516103429190612d8c565b60405180910390f35b600060179054906101000a900460ff1681565b60606005805480602002602001604051908101604052809291908181526020016000905b828210156104ff57838290600052602060002090600702016040518060e0016040529081600082015481526020016001820160009054906101000a900473ffffffffffffffffffffffffffffffffffffffff1673ffffffffffffffffffffffffffffffffffffffff1673ffffffffffffffffffffffffffffffffffffffff16815260200160028201548152602001600382015481526020016004820154815260200160058201805461043390612f66565b80601f016020809104026020016040519081016040528092919081815260200182805461045f90612f66565b80156104ac5780601f10610481576101008083540402835291602001916104ac565b820191906000526020600020905b81548152906001019060200180831161048f57829003601f168201915b505050505081526020016006820160009054906101000a900460ff1660018111156104da576104d961260b565b5b60018111156104ec576104eb61260b565b5b8152505081526020019060010190610382565b50505050905090565b60008061051483610523565b90508060200151915050919050565b61052b61236e565b6000600660008481526020019081526020016000205411610581576040517f08c379a000000000000000000000000000000000000000000000000000000000815260040161057890612ff4565b60405180910390fd5b600060066000848152602001908152602001600020549050600060056001836105aa9190613043565b815481106105bb576105ba613077565b5b90600052602060002090600702016040518060e0016040529081600082015481526020016001820160009054906101000a900473ffffffffffffffffffffffffffffffffffffffff1673ffffffffffffffffffffffffffffffffffffffff1673ffffffffffffffffffffffffffffffffffffffff16815260200160028201548152602001600382015481526020016004820154815260200160058201805461066290612f66565b80601f016020809104026020016040519081016040528092919081815260200182805461068e90612f66565b80156106db5780601f106106b0576101008083540402835291602001916106db565b820191906000526020600020905b8154815290600101906020018083116106be57829003601f168201915b505050505081526020016006820160009054906101000a900460ff1660018111156107095761070861260b565b5b600181111561071b5761071a61260b565b5b8152505090508092505050919050565b80600073ffffffffffffffffffffffffffffffffffffffff1661074d82610508565b73ffffffffffffffffffffffffffffffffffffffff16146107a3576040517f08c379a000000000000000000000000000000000000000000000000000000000815260040161079a906130f2565b60405180910390fd5b6000600660008481526020019081526020016000205490506001600582815481106107d1576107d0613077565b5b906000526020600020906007020160060160006101000a81548160ff021916908360018111156108045761080361260b565b5b0217905550505050565b610816612200565b6000600c60008373ffffffffffffffffffffffffffffffffffffffff1673ffffffffffffffffffffffffffffffffffffffff1681526020019081526020016000205414610898576040517f08c379a000000000000000000000000000000000000000000000000000000000815260040161088f9061315e565b60405180910390fd5b6000600b60008373ffffffffffffffffffffffffffffffffffffffff1673ffffffffffffffffffffffffffffffffffffffff168152602001908152602001600020541161091a576040517f08c379a0000000000000000000000000000000000000000000000000000000008152600401610911906131ca565b60405180910390fd5b6000600b60008373ffffffffffffffffffffffffffffffffffffffff1673ffffffffffffffffffffffffffffffffffffffff16815260200190815260200160002054905060006009805490509050600060096001846109799190613043565b8154811061098a57610989613077565b5b9060005260206000209060030201604051806060016040529081600082015481526020016001820160009054906101000a900473ffffffffffffffffffffffffffffffffffffffff1673ffffffffffffffffffffffffffffffffffffffff1673ffffffffffffffffffffffffffffffffffffffff168152602001600282018054610a1390612f66565b80601f0160208091040260200160405190810160405280929190818152602001828054610a3f90612f66565b8015610a8c5780601f10610a6157610100808354040283529160200191610a8c565b820191906000526020600020905b815481529060010190602001808311610a6f57829003601f168201915b5050505050815250509050818314610cab57600060098381548110610ab457610ab3613077565b5b9060005260206000209060030201604051806060016040529081600082015481526020016001820160009054906101000a900473ffffffffffffffffffffffffffffffffffffffff1673ffffffffffffffffffffffffffffffffffffffff1673ffffffffffffffffffffffffffffffffffffffff168152602001600282018054610b3d90612f66565b80601f0160208091040260200160405190810160405280929190818152602001828054610b6990612f66565b8015610bb65780601f10610b8b57610100808354040283529160200191610bb6565b820191906000526020600020905b815481529060010190602001808311610b9957829003601f168201915b5050505050815250509050806009600186610bd19190613043565b81548110610be257610be1613077565b5b90600052602060002090600302016000820151816000015560208201518160010160006101000a81548173ffffffffffffffffffffffffffffffffffffffff021916908373ffffffffffffffffffffffffffffffffffffffff1602179055506040820151816002019080519060200190610c5d9291906123d3565b5090505083600b6000836020015173ffffffffffffffffffffffffffffffffffffffff1673ffffffffffffffffffffffffffffffffffffffff16815260200190815260200160002081905550505b600b60008573ffffffffffffffffffffffffffffffffffffffff1673ffffffffffffffffffffffffffffffffffffffff168152602001908152602001600020600090556009805480610d0057610cff6131ea565b5b60019003818190600052602060002090600302016000808201600090556001820160006101000a81549073ffffffffffffffffffffffffffffffffffffffff0219169055600282016000610d549190612459565b505090556000600a805490509050600181610d6f9190613219565b600c60008773ffffffffffffffffffffffffffffffffffffffff1673ffffffffffffffffffffffffffffffffffffffff16815260200190815260200160002081905550600a8290806001815401808255809150506001900390600052602060002090600302016000909190919091506000820151816000015560208201518160010160006101000a81548173ffffffffffffffffffffffffffffffffffffffff021916908373ffffffffffffffffffffffffffffffffffffffff1602179055506040820151816002019080519060200190610e4b9291906123d3565b5050505050505050565b610e5d612200565b6000600c60008373ffffffffffffffffffffffffffffffffffffffff1673ffffffffffffffffffffffffffffffffffffffff1681526020019081526020016000205411610edf576040517f08c379a0000000000000000000000000000000000000000000000000000000008152600401610ed6906132bb565b60405180910390fd5b6000600c60008373ffffffffffffffffffffffffffffffffffffffff1673ffffffffffffffffffffffffffffffffffffffff1681526020019081526020016000205490506000600a805490509050808214611141576000600a8281548110610f4a57610f49613077565b5b9060005260206000209060030201604051806060016040529081600082015481526020016001820160009054906101000a900473ffffffffffffffffffffffffffffffffffffffff1673ffffffffffffffffffffffffffffffffffffffff1673ffffffffffffffffffffffffffffffffffffffff168152602001600282018054610fd390612f66565b80601f0160208091040260200160405190810160405280929190818152602001828054610fff90612f66565b801561104c5780601f106110215761010080835404028352916020019161104c565b820191906000526020600020905b81548152906001019060200180831161102f57829003601f168201915b505050505081525050905080600a6001856110679190613043565b8154811061107857611077613077565b5b90600052602060002090600302016000820151816000015560208201518160010160006101000a81548173ffffffffffffffffffffffffffffffffffffffff021916908373ffffffffffffffffffffffffffffffffffffffff16021790555060408201518160020190805190602001906110f39291906123d3565b5090505082600c6000836020015173ffffffffffffffffffffffffffffffffffffffff1673ffffffffffffffffffffffffffffffffffffffff16815260200190815260200160002081905550505b600c60008473ffffffffffffffffffffffffffffffffffffffff1673ffffffffffffffffffffffffffffffffffffffff16815260200190815260200160002060009055600a805480611196576111956131ea565b5b60019003818190600052602060002090600302016000808201600090556001820160006101000a81549073ffffffffffffffffffffffffffffffffffffffff02191690556002820160006111ea9190612459565b50509055505050565b6111fb612200565b611205600061227e565b565b61120f612200565b6000600b60008373ffffffffffffffffffffffffffffffffffffffff1673ffffffffffffffffffffffffffffffffffffffff1681526020019081526020016000205411611291576040517f08c379a0000000000000000000000000000000000000000000000000000000008152600401611288906132bb565b60405180910390fd5b6000600b60008373ffffffffffffffffffffffffffffffffffffffff1673ffffffffffffffffffffffffffffffffffffffff168152602001908152602001600020549050600060098054905090508082146114f3576000600982815481106112fc576112fb613077565b5b9060005260206000209060030201604051806060016040529081600082015481526020016001820160009054906101000a900473ffffffffffffffffffffffffffffffffffffffff1673ffffffffffffffffffffffffffffffffffffffff1673ffffffffffffffffffffffffffffffffffffffff16815260200160028201805461138590612f66565b80601f01602080910402602001604051908101604052809291908181526020018280546113b190612f66565b80156113fe5780601f106113d3576101008083540402835291602001916113fe565b820191906000526020600020905b8154815290600101906020018083116113e157829003601f168201915b50505050508152505090508060096001856114199190613043565b8154811061142a57611429613077565b5b90600052602060002090600302016000820151816000015560208201518160010160006101000a81548173ffffffffffffffffffffffffffffffffffffffff021916908373ffffffffffffffffffffffffffffffffffffffff16021790555060408201518160020190805190602001906114a59291906123d3565b5090505082600b6000836020015173ffffffffffffffffffffffffffffffffffffffff1673ffffffffffffffffffffffffffffffffffffffff16815260200190815260200160002081905550505b600b60008473ffffffffffffffffffffffffffffffffffffffff1673ffffffffffffffffffffffffffffffffffffffff168152602001908152602001600020600090556009805480611548576115476131ea565b5b60019003818190600052602060002090600302016000808201600090556001820160006101000a81549073ffffffffffffffffffffffffffffffffffffffff021916905560028201600061159c9190612459565b50509055505050565b60008060009054906101000a900473ffffffffffffffffffffffffffffffffffffffff16905090565b60006115d8612200565b600060159054906101000a900460ff16611627576040517f08c379a000000000000000000000000000000000000000000000000000000000815260040161161e9061334d565b60405180910390fd5b6000600c60008873ffffffffffffffffffffffffffffffffffffffff1673ffffffffffffffffffffffffffffffffffffffff16815260200190815260200160002054116116a9576040517f08c379a00000000000000000000000000000000000000000000000000000000081526004016116a0906133df565b60405180910390fd5b60006002600085815260200190815260200160002054116116ff576040517f08c379a00000000000000000000000000000000000000000000000000000000081526004016116f69061344b565b60405180910390fd5b60008511611742576040517f08c379a0000000000000000000000000000000000000000000000000000000008152600401611739906134dd565b60405180910390fd5b60008411611785576040517f08c379a000000000000000000000000000000000000000000000000000000000815260040161177c9061356f565b60405180910390fd5b61178f6003612342565b6117996004612342565b60006117a56004612358565b90506000600580549050905060006040518060e001604052808481526020018a73ffffffffffffffffffffffffffffffffffffffff1681526020018981526020018881526020018781526020018681526020016000600181111561180c5761180b61260b565b5b815250905060018261181e9190613219565b600660008581526020019081526020016000208190555060058190806001815401808255809150506001900390600052602060002090600702016000909190919091506000820151816000015560208201518160010160006101000a81548173ffffffffffffffffffffffffffffffffffffffff021916908373ffffffffffffffffffffffffffffffffffffffff16021790555060408201518160020155606082015181600301556080820151816004015560a08201518160050190805190602001906118ec9291906123d3565b5060c08201518160060160006101000a81548160ff021916908360018111156119185761191761260b565b5b0217905550505082935050505095945050505050565b600060169054906101000a900460ff1681565b60606001805480602002602001604051908101604052809291908181526020016000905b828210156119ab57838290600052602060002090600202016040518060400160405290816000820154815260200160018201548152505081526020019060010190611965565b50505050905090565b6060600a805480602002602001604051908101604052809291908181526020016000905b82821015611afc5783829060005260206000209060030201604051806060016040529081600082015481526020016001820160009054906101000a900473ffffffffffffffffffffffffffffffffffffffff1673ffffffffffffffffffffffffffffffffffffffff1673ffffffffffffffffffffffffffffffffffffffff168152602001600282018054611a6b90612f66565b80601f0160208091040260200160405190810160405280929190818152602001828054611a9790612f66565b8015611ae45780601f10611ab957610100808354040283529160200191611ae4565b820191906000526020600020905b815481529060010190602001808311611ac757829003601f168201915b505050505081525050815260200190600101906119d8565b50505050905090565b611b0d612200565b8051825114611b51576040517f08c379a0000000000000000000000000000000000000000000000000000000008152600401611b48906135db565b60405180910390fd5b60008251905060005b81811015611c82576001838281518110611b7757611b76613077565b5b60200260200101511015611bc0576040517f08c379a0000000000000000000000000000000000000000000000000000000008152600401611bb790613647565b60405180910390fd5b60006040518060400160405280868481518110611be057611bdf613077565b5b60200260200101518152602001858481518110611c0057611bff613077565b5b602002602001015181525090506001819080600181540180825580915050600190039060005260206000209060020201600090919091909150600082015181600001556020820151816001015550506001805490506002600083600001518152602001908152602001600020819055505080611c7b90613667565b9050611b5a565b506001600060156101000a81548160ff0219169083151502179055506001600060166101000a81548160ff0219169083151502179055506001600060176101000a81548160ff021916908315150217905550505050565b600060169054906101000a900460ff16611d28576040517f08c379a0000000000000000000000000000000000000000000000000000000008152600401611d1f906136fb565b60405180910390fd5b611d306115a5565b73ffffffffffffffffffffffffffffffffffffffff163373ffffffffffffffffffffffffffffffffffffffff1603611d9d576040517f08c379a0000000000000000000000000000000000000000000000000000000008152600401611d9490613767565b60405180910390fd5b6000600b60003373ffffffffffffffffffffffffffffffffffffffff1673ffffffffffffffffffffffffffffffffffffffff1681526020019081526020016000205414611e1f576040517f08c379a0000000000000000000000000000000000000000000000000000000008152600401611e16906137d3565b60405180910390fd5b6000600c60003373ffffffffffffffffffffffffffffffffffffffff1673ffffffffffffffffffffffffffffffffffffffff1681526020019081526020016000205414611ea1576040517f08c379a0000000000000000000000000000000000000000000000000000000008152600401611e989061383f565b60405180910390fd5b600060149054906101000a900460ff1660ff1660098054905010611efa576040517f08c379a0000000000000000000000000000000000000000000000000000000008152600401611ef1906138d1565b60405180910390fd5b60006009805490509050600960405180606001604052804281526020013373ffffffffffffffffffffffffffffffffffffffff1681526020018481525090806001815401808255809150506001900390600052602060002090600302016000909190919091506000820151816000015560208201518160010160006101000a81548173ffffffffffffffffffffffffffffffffffffffff021916908373ffffffffffffffffffffffffffffffffffffffff1602179055506040820151816002019080519060200190611fcd9291906123d3565b505050600181611fdd9190613219565b600b60003373ffffffffffffffffffffffffffffffffffffffff1673ffffffffffffffffffffffffffffffffffffffff168152602001908152602001600020819055505050565b61202c612200565b600073ffffffffffffffffffffffffffffffffffffffff168173ffffffffffffffffffffffffffffffffffffffff160361209b576040517f08c379a000000000000000000000000000000000000000000000000000000000815260040161209290613963565b60405180910390fd5b6120a48161227e565b50565b60606120b1612200565b6009805480602002602001604051908101604052809291908181526020016000905b828210156121f75783829060005260206000209060030201604051806060016040529081600082015481526020016001820160009054906101000a900473ffffffffffffffffffffffffffffffffffffffff1673ffffffffffffffffffffffffffffffffffffffff1673ffffffffffffffffffffffffffffffffffffffff16815260200160028201805461216690612f66565b80601f016020809104026020016040519081016040528092919081815260200182805461219290612f66565b80156121df5780601f106121b4576101008083540402835291602001916121df565b820191906000526020600020905b8154815290600101906020018083116121c257829003601f168201915b505050505081525050815260200190600101906120d3565b50505050905090565b612208612366565b73ffffffffffffffffffffffffffffffffffffffff166122266115a5565b73ffffffffffffffffffffffffffffffffffffffff161461227c576040517f08c379a0000000000000000000000000000000000000000000000000000000008152600401612273906139cf565b60405180910390fd5b565b60008060009054906101000a900473ffffffffffffffffffffffffffffffffffffffff169050816000806101000a81548173ffffffffffffffffffffffffffffffffffffffff021916908373ffffffffffffffffffffffffffffffffffffffff1602179055508173ffffffffffffffffffffffffffffffffffffffff168173ffffffffffffffffffffffffffffffffffffffff167f8be0079c531659141344cd1fd0a4f28419497f9722a3daafe3b4186f6b6457e060405160405180910390a35050565b6001816000016000828254019250508190555050565b600081600001549050919050565b600033905090565b6040518060e0016040528060008152602001600073ffffffffffffffffffffffffffffffffffffffff16815260200160008152602001600081526020016000815260200160608152602001600060018111156123cd576123cc61260b565b5b81525090565b8280546123df90612f66565b90600052602060002090601f0160209004810192826124015760008555612448565b82601f1061241a57805160ff1916838001178555612448565b82800160010185558215612448579182015b8281111561244757825182559160200191906001019061242c565b5b5090506124559190612499565b5090565b50805461246590612f66565b6000825580601f106124775750612496565b601f0160209004906000526020600020908101906124959190612499565b5b50565b5b808211156124b257600081600090555060010161249a565b5090565b60008115159050919050565b6124cb816124b6565b82525050565b60006020820190506124e660008301846124c2565b92915050565b600081519050919050565b600082825260208201905092915050565b6000819050602082019050919050565b6000819050919050565b61252b81612518565b82525050565b600073ffffffffffffffffffffffffffffffffffffffff82169050919050565b600061255c82612531565b9050919050565b61256c81612551565b82525050565b600081519050919050565b600082825260208201905092915050565b60005b838110156125ac578082015181840152602081019050612591565b838111156125bb576000848401525b50505050565b6000601f19601f8301169050919050565b60006125dd82612572565b6125e7818561257d565b93506125f781856020860161258e565b612600816125c1565b840191505092915050565b7f4e487b7100000000000000000000000000000000000000000000000000000000600052602160045260246000fd5b6002811061264b5761264a61260b565b5b50565b600081905061265c8261263a565b919050565b600061266c8261264e565b9050919050565b61267c81612661565b82525050565b600060e08301600083015161269a6000860182612522565b5060208301516126ad6020860182612563565b5060408301516126c06040860182612522565b5060608301516126d36060860182612522565b5060808301516126e66080860182612522565b5060a083015184820360a08601526126fe82826125d2565b91505060c083015161271360c0860182612673565b508091505092915050565b600061272a8383612682565b905092915050565b6000602082019050919050565b600061274a826124ec565b61275481856124f7565b93508360208202850161276685612508565b8060005b858110156127a25784840389528151612783858261271e565b945061278e83612732565b925060208a0199505060018101905061276a565b50829750879550505050505092915050565b600060208201905081810360008301526127ce818461273f565b905092915050565b6000604051905090565b600080fd5b600080fd5b6127f381612518565b81146127fe57600080fd5b50565b600081359050612810816127ea565b92915050565b60006020828403121561282c5761282b6127e0565b5b600061283a84828501612801565b91505092915050565b61284c81612551565b82525050565b60006020820190506128676000830184612843565b92915050565b600060e0830160008301516128856000860182612522565b5060208301516128986020860182612563565b5060408301516128ab6040860182612522565b5060608301516128be6060860182612522565b5060808301516128d16080860182612522565b5060a083015184820360a08601526128e982826125d2565b91505060c08301516128fe60c0860182612673565b508091505092915050565b60006020820190508181036000830152612923818461286d565b905092915050565b61293481612551565b811461293f57600080fd5b50565b6000813590506129518161292b565b92915050565b60006020828403121561296d5761296c6127e0565b5b600061297b84828501612942565b91505092915050565b600080fd5b600080fd5b7f4e487b7100000000000000000000000000000000000000000000000000000000600052604160045260246000fd5b6129c6826125c1565b810181811067ffffffffffffffff821117156129e5576129e461298e565b5b80604052505050565b60006129f86127d6565b9050612a0482826129bd565b919050565b600067ffffffffffffffff821115612a2457612a2361298e565b5b612a2d826125c1565b9050602081019050919050565b82818337600083830152505050565b6000612a5c612a5784612a09565b6129ee565b905082815260208101848484011115612a7857612a77612989565b5b612a83848285612a3a565b509392505050565b600082601f830112612aa057612a9f612984565b5b8135612ab0848260208601612a49565b91505092915050565b600080600080600060a08688031215612ad557612ad46127e0565b5b6000612ae388828901612942565b9550506020612af488828901612801565b9450506040612b0588828901612801565b9350506060612b1688828901612801565b925050608086013567ffffffffffffffff811115612b3757612b366127e5565b5b612b4388828901612a8b565b9150509295509295909350565b612b5981612518565b82525050565b6000602082019050612b746000830184612b50565b92915050565b600081519050919050565b600082825260208201905092915050565b6000819050602082019050919050565b604082016000820151612bbc6000850182612522565b506020820151612bcf6020850182612522565b50505050565b6000612be18383612ba6565b60408301905092915050565b6000602082019050919050565b6000612c0582612b7a565b612c0f8185612b85565b9350612c1a83612b96565b8060005b83811015612c4b578151612c328882612bd5565b9750612c3d83612bed565b925050600181019050612c1e565b5085935050505092915050565b60006020820190508181036000830152612c728184612bfa565b905092915050565b600081519050919050565b600082825260208201905092915050565b6000819050602082019050919050565b6000606083016000830151612cbe6000860182612522565b506020830151612cd16020860182612563565b5060408301518482036040860152612ce982826125d2565b9150508091505092915050565b6000612d028383612ca6565b905092915050565b6000602082019050919050565b6000612d2282612c7a565b612d2c8185612c85565b935083602082028501612d3e85612c96565b8060005b85811015612d7a5784840389528151612d5b8582612cf6565b9450612d6683612d0a565b925060208a01995050600181019050612d42565b50829750879550505050505092915050565b60006020820190508181036000830152612da68184612d17565b905092915050565b600067ffffffffffffffff821115612dc957612dc861298e565b5b602082029050602081019050919050565b600080fd5b6000612df2612ded84612dae565b6129ee565b90508083825260208201905060208402830185811115612e1557612e14612dda565b5b835b81811015612e3e5780612e2a8882612801565b845260208401935050602081019050612e17565b5050509392505050565b600082601f830112612e5d57612e5c612984565b5b8135612e6d848260208601612ddf565b91505092915050565b60008060408385031215612e8d57612e8c6127e0565b5b600083013567ffffffffffffffff811115612eab57612eaa6127e5565b5b612eb785828601612e48565b925050602083013567ffffffffffffffff811115612ed857612ed76127e5565b5b612ee485828601612e48565b9150509250929050565b600060208284031215612f0457612f036127e0565b5b600082013567ffffffffffffffff811115612f2257612f216127e5565b5b612f2e84828501612a8b565b91505092915050565b7f4e487b7100000000000000000000000000000000000000000000000000000000600052602260045260246000fd5b60006002820490506001821680612f7e57607f821691505b602082108103612f9157612f90612f37565b5b50919050565b600082825260208201905092915050565b7f436f75727365206973206e6f7420657869737400000000000000000000000000600082015250565b6000612fde601383612f97565b9150612fe982612fa8565b602082019050919050565b6000602082019050818103600083015261300d81612fd1565b9050919050565b7f4e487b7100000000000000000000000000000000000000000000000000000000600052601160045260246000fd5b600061304e82612518565b915061305983612518565b92508282101561306c5761306b613014565b5b828203905092915050565b7f4e487b7100000000000000000000000000000000000000000000000000000000600052603260045260246000fd5b7f6163636573732064656e69656400000000000000000000000000000000000000600082015250565b60006130dc600d83612f97565b91506130e7826130a6565b602082019050919050565b6000602082019050818103600083015261310b816130cf565b9050919050565b7f5465616368657220686173206265656e20617070726f76656400000000000000600082015250565b6000613148601983612f97565b915061315382613112565b602082019050919050565b600060208201905081810360008301526131778161313b565b9050919050565b7f5465616368657220686173206e6f74206265656e207265676973746572656400600082015250565b60006131b4601f83612f97565b91506131bf8261317e565b602082019050919050565b600060208201905081810360008301526131e3816131a7565b9050919050565b7f4e487b7100000000000000000000000000000000000000000000000000000000600052603160045260246000fd5b600061322482612518565b915061322f83612518565b9250827fffffffffffffffffffffffffffffffffffffffffffffffffffffffffffffffff0382111561326457613263613014565b5b828201905092915050565b7f5465616368657220646f65736e27742065786973740000000000000000000000600082015250565b60006132a5601583612f97565b91506132b08261326f565b602082019050919050565b600060208201905081810360008301526132d481613298565b9050919050565b7f436f6e747261637420686176656e2774206265656e20696e697469616c697a6560008201527f6420796574000000000000000000000000000000000000000000000000000000602082015250565b6000613337602583612f97565b9150613342826132db565b604082019050919050565b600060208201905081810360008301526133668161332a565b9050919050565b7f54656163686572206d757374207265676973746572206265666f72652061737360008201527f69676e6d656e7400000000000000000000000000000000000000000000000000602082015250565b60006133c9602783612f97565b91506133d48261336d565b604082019050919050565b600060208201905081810360008301526133f8816133bc565b9050919050565b7f436f757273652047726f757020697320696e76616c6964000000000000000000600082015250565b6000613435601783612f97565b9150613440826133ff565b602082019050919050565b6000602082019050818103600083015261346481613428565b9050919050565b7f43726564697473206d757374206265206120706f736974697665206e756d626560008201527f7200000000000000000000000000000000000000000000000000000000000000602082015250565b60006134c7602183612f97565b91506134d28261346b565b604082019050919050565b600060208201905081810360008301526134f6816134ba565b9050919050565b7f4e667420436f756e74206d757374206265206120706f736974697665206e756d60008201527f6265720000000000000000000000000000000000000000000000000000000000602082015250565b6000613559602383612f97565b9150613564826134fd565b604082019050919050565b600060208201905081810360008301526135888161354c565b9050919050565b7f496e76616c696420696e70757400000000000000000000000000000000000000600082015250565b60006135c5600d83612f97565b91506135d08261358f565b602082019050919050565b600060208201905081810360008301526135f4816135b8565b9050919050565b7f496e76616c6964206372656469747320696e7075740000000000000000000000600082015250565b6000613631601583612f97565b915061363c826135fb565b602082019050919050565b6000602082019050818103600083015261366081613624565b9050919050565b600061367282612518565b91507fffffffffffffffffffffffffffffffffffffffffffffffffffffffffffffffff82036136a4576136a3613014565b5b600182019050919050565b7f49742773206e6f742074696d6520746f20726567697374657200000000000000600082015250565b60006136e5601983612f97565b91506136f0826136af565b602082019050919050565b60006020820190508181036000830152613714816136d8565b9050919050565b7f4f776e65722063616e6e6f742072656769737465720000000000000000000000600082015250565b6000613751601583612f97565b915061375c8261371b565b602082019050919050565b6000602082019050818103600083015261378081613744565b9050919050565b7f596f752068617320726567697374657265640000000000000000000000000000600082015250565b60006137bd601283612f97565b91506137c882613787565b602082019050919050565b600060208201905081810360008301526137ec816137b0565b9050919050565b7f596f7520686173206265656e20617070726f7665640000000000000000000000600082015250565b6000613829601583612f97565b9150613834826137f3565b602082019050919050565b600060208201905081810360008301526138588161381c565b9050919050565b7f546f6f206d616e792077616974696e6720726571756573742e20506c6561736560008201527f2074727920616761696e206c617465722e000000000000000000000000000000602082015250565b60006138bb603183612f97565b91506138c68261385f565b604082019050919050565b600060208201905081810360008301526138ea816138ae565b9050919050565b7f4f776e61626c653a206e6577206f776e657220697320746865207a65726f206160008201527f6464726573730000000000000000000000000000000000000000000000000000602082015250565b600061394d602683612f97565b9150613958826138f1565b604082019050919050565b6000602082019050818103600083015261397c81613940565b9050919050565b7f4f776e61626c653a2063616c6c6572206973206e6f7420746865206f776e6572600082015250565b60006139b9602083612f97565b91506139c482613983565b602082019050919050565b600060208201905081810360008301526139e8816139ac565b905091905056fea264697066735822122004289cd6899830a2de2c2f49b299eddadb2301c3c4b927bc95db56bf5aab235764736f6c634300080d0033",
  "immutableReferences": {},
  "source": "// SPDX-License-Identifier: MIT\r\n// Tells the Solidity compiler to compile only from v0.8.13 to v0.9.0\r\npragma solidity ^0.8.13;\r\n\r\nimport \"@openzeppelin/contracts/utils/Counters.sol\";\r\nimport \"@openzeppelin/contracts/access/Ownable.sol\";\r\nimport \"./Type.sol\";\r\n\r\ncontract School is Ownable {\r\n    using Counters for Counters.Counter;\r\n\r\n    // enum CourseType {\r\n    //     General,\r\n    //     Foundation,\r\n    //     Specialized,\r\n    //     SpecializedElective,\r\n    //     Elective\r\n    // }\r\n\r\n    struct Teacher {\r\n        uint256 registeredDate;\r\n        address registeredAddress;\r\n        string metadata;\r\n    }\r\n\r\n    uint8 private REGISTERED_TEACHER_LIMIT = 100;\r\n    bool private _isInitialized;\r\n    bool public canRegistered;\r\n    bool public canGetNftGraduation;\r\n    Type.Requirement[] private _graduationRequirements;\r\n    mapping(uint256 => uint256) private _idToGraduationRequirementIndex;\r\n \r\n    // Course\r\n    Counters.Counter private _courseCount;\r\n    Counters.Counter private _courseIds;\r\n    Type.Course[] private _allCourses;\r\n    mapping(uint256 => uint256) private _idToCourseIndex;\r\n\r\n    // Metadata = Course group\r\n    string[] private _courseGroups;\r\n    mapping(string => bool) private _registeredCourseGroups;\r\n    // Registered teacher\r\n    Teacher[] private _allRegisteredTeachers;\r\n    Teacher[] private _allApprovedTeachers;\r\n    mapping(address => uint256) private _addressToRegisteredTeacherIndex;\r\n    mapping(address => uint256) private _addressToApprovedTeacherIndex;\r\n\r\n    modifier onlyInitialized {\r\n        require(_isInitialized, \"Contract haven't been initialized yet\");\r\n        _;\r\n    }\r\n\r\n    modifier allowRegistered {\r\n        require(canRegistered, \"It's not time to register\");\r\n        _;\r\n    }\r\n\r\n    modifier allowGetNftGraduation {\r\n        require(canGetNftGraduation, \"It's not time to exchange nft graduation\");\r\n        _;\r\n    }\r\n    \r\n    modifier onlyTeacher(uint256 courseId) {\r\n        require(teacherAddressOf(courseId) == address(0), 'access denied');\r\n        _;\r\n    }\r\n    \r\n    constructor() {}\r\n\r\n    function initialize(uint256[] memory courseGroupIds, uint256[] memory credits) public onlyOwner {\r\n        require(courseGroupIds.length == credits.length, 'Invalid input');\r\n        // start, stop of year?\r\n        uint256 requirementLength = courseGroupIds.length;\r\n        for (uint256 index = 0; index < requirementLength; ++index) {\r\n            if (credits[index] < 1) {\r\n                revert('Invalid credits input');\r\n            }\r\n            Type.Requirement memory requirement = Type.Requirement(courseGroupIds[index], credits[index]);\r\n            _graduationRequirements.push(requirement);\r\n            _idToGraduationRequirementIndex[requirement.courseGroupId] = _graduationRequirements.length;\r\n        }\r\n\r\n        _isInitialized = true;\r\n        canRegistered = true;\r\n        canGetNftGraduation = true;\r\n    }\r\n\r\n    function getAllRequirements() public view returns (Type.Requirement[] memory requirements) {\r\n        return _graduationRequirements;\r\n    }\r\n\r\n    function getAllRegisteredTeachers() public view onlyOwner returns (Teacher[] memory) {\r\n        return _allRegisteredTeachers;\r\n    }\r\n\r\n    function getAllApprovedTeachers() public view returns (Teacher[] memory) {\r\n        return _allApprovedTeachers;\r\n    }\r\n\r\n    function getAllCourses() public view returns (Type.Course[] memory) {\r\n        return _allCourses;\r\n    }\r\n\r\n    function getCourse(uint256 courseId) public view returns (Type.Course memory) {\r\n        require(_idToCourseIndex[courseId] > 0, \"Course is not exist\");\r\n        uint256 courseIndex = _idToCourseIndex[courseId];\r\n        Type.Course memory course = _allCourses[courseIndex - 1];\r\n\r\n        return course;\r\n    }\r\n\r\n    /* Teacher section: start\r\n    Can create smart contract inherit ChainLink to manage teacher\r\n    */\r\n    function teacherAddressOf(uint256 courseId) public view returns (address) {\r\n        Type.Course memory course = getCourse(courseId);\r\n\r\n        return course.teacherAddress;\r\n    }\r\n\r\n    function registerTeacher(string memory metadata) public allowRegistered { // Use payable? (? Lost)\r\n        require(msg.sender != owner(), \"Owner cannot register\");\r\n        require(_addressToRegisteredTeacherIndex[msg.sender] == 0, 'You has registered');\r\n        require(_addressToApprovedTeacherIndex[msg.sender] == 0, 'You has been approved');\r\n        require(_allRegisteredTeachers.length < REGISTERED_TEACHER_LIMIT, 'Too many waiting request. Please try again later.');\r\n        // Idea:  chainlink to call recheckRegisteredTeacher() => auto reject after a while;\r\n\r\n        uint256 currentIndex = _allRegisteredTeachers.length;\r\n        _allRegisteredTeachers.push(Teacher(block.timestamp, msg.sender, metadata));\r\n        _addressToRegisteredTeacherIndex[msg.sender] = currentIndex + 1;\r\n\r\n        // EVENT\r\n    }\r\n\r\n    function approveTeacher(address teacherAddress) public onlyOwner { // Send back (? Lost)\r\n        require(_addressToApprovedTeacherIndex[teacherAddress] == 0, 'Teacher has been approved');\r\n        require(_addressToRegisteredTeacherIndex[teacherAddress] > 0, 'Teacher has not been registered');\r\n\r\n        uint256 teacherIndex = _addressToRegisteredTeacherIndex[teacherAddress];\r\n        uint256 lastTeacherIndex = _allRegisteredTeachers.length;\r\n        Teacher memory teacher = _allRegisteredTeachers[teacherIndex - 1];\r\n\r\n        // remove teacher from register list\r\n        if (teacherIndex != lastTeacherIndex) {\r\n            Teacher memory lastTeacher = _allRegisteredTeachers[lastTeacherIndex];\r\n            _allRegisteredTeachers[teacherIndex - 1] = lastTeacher;\r\n            _addressToRegisteredTeacherIndex[lastTeacher.registeredAddress] = teacherIndex;\r\n        }\r\n\r\n        delete _addressToRegisteredTeacherIndex[teacherAddress];\r\n        _allRegisteredTeachers.pop();\r\n\r\n        // add teacher to approve list\r\n        uint256 currentIndex = _allApprovedTeachers.length;\r\n        _addressToApprovedTeacherIndex[teacherAddress] = currentIndex + 1;\r\n        _allApprovedTeachers.push(teacher);\r\n\r\n        // EVENT\r\n    }\r\n\r\n    function removeTeacher(address teacherAddress) public onlyOwner {\r\n        require(_addressToApprovedTeacherIndex[teacherAddress] > 0, \"Teacher doesn't exist\");\r\n        // Check if teacher currently has class?\r\n        uint256 teacherIndex = _addressToApprovedTeacherIndex[teacherAddress];\r\n        uint256 lastTeacherIndex = _allApprovedTeachers.length;\r\n\r\n        if (teacherIndex != lastTeacherIndex) {\r\n            Teacher memory lastTeacher = _allApprovedTeachers[lastTeacherIndex];\r\n            _allApprovedTeachers[teacherIndex - 1] = lastTeacher;\r\n            _addressToApprovedTeacherIndex[lastTeacher.registeredAddress] = teacherIndex;\r\n        }\r\n\r\n        delete _addressToApprovedTeacherIndex[teacherAddress];\r\n        _allApprovedTeachers.pop();\r\n\r\n        // EVENT\r\n    }\r\n\r\n    // Idea:  Use chainlink to remove registered teacher after 30 days if he/she is not registered\r\n    // function recheckRegisteredTeacher() public onlyOwner {\r\n        // require(_approvedTeacher[msg.sender].registeredDate == 0)\r\n    // }\r\n\r\n    function rejectTeacher(address teacherAddress) public onlyOwner {\r\n        // Idea: Add address to blacklist in a particular time => prevent address from registering in a while?\r\n        require(_addressToRegisteredTeacherIndex[teacherAddress] > 0, \"Teacher doesn't exist\");\r\n        uint256 teacherIndex = _addressToRegisteredTeacherIndex[teacherAddress];\r\n        uint256 lastTeacherIndex = _allRegisteredTeachers.length;\r\n\r\n        if (teacherIndex != lastTeacherIndex) {\r\n            Teacher memory lastTeacher = _allRegisteredTeachers[lastTeacherIndex];\r\n            _allRegisteredTeachers[teacherIndex - 1] = lastTeacher;\r\n            _addressToRegisteredTeacherIndex[lastTeacher.registeredAddress] = teacherIndex;\r\n        }\r\n\r\n        delete _addressToRegisteredTeacherIndex[teacherAddress];\r\n        _allRegisteredTeachers.pop();\r\n\r\n        // EVENT\r\n    }\r\n    // Teacher section: end\r\n    \r\n\r\n    function createCourse(\r\n        address teacherAddress,\r\n        uint256 credits,\r\n        uint256 nftCounts,\r\n        uint256 courseGroupId, // -> course group?\r\n        string memory metadata\r\n    ) public onlyOwner onlyInitialized returns (uint256) {\r\n        require(_addressToApprovedTeacherIndex[teacherAddress] > 0, 'Teacher must register before assignment');\r\n        require(_idToGraduationRequirementIndex[courseGroupId] > 0, 'Course Group is invalid');\r\n        require(credits > 0, 'Credits must be a positive number');\r\n        require(nftCounts > 0, 'Nft Count must be a positive number');\r\n\r\n        _courseCount.increment();\r\n        _courseIds.increment();\r\n        uint256 currentId = _courseIds.current();\r\n        uint256 currentIndex = _allCourses.length;\r\n        Type.Course memory course = Type.Course(\r\n            currentId,\r\n            teacherAddress,\r\n            credits,\r\n            nftCounts,\r\n            courseGroupId,\r\n            metadata,\r\n            Type.CourseStatus.InProgress\r\n        );\r\n\r\n        _idToCourseIndex[currentId] = currentIndex + 1;\r\n        _allCourses.push(course);\r\n\r\n        // EVENT\r\n        return currentId;\r\n    }\r\n\r\n    function completeCourse(\r\n        uint256 courseId\r\n    ) public onlyTeacher(courseId) {\r\n        uint256 courseIndex = _idToCourseIndex[courseId];\r\n        _allCourses[courseIndex].status = Type.CourseStatus.Complete;\r\n    }\r\n}\r\n",
  "sourcePath": "E:\\learn\\learn-to-earn\\contracts\\School.sol",
  "compiler": {
    "name": "solc",
    "version": "0.8.13+commit.abaa5c0e.Emscripten.clang"
  },
  "schemaVersion": "3.4.11",
  "updatedAt": "2023-02-25T17:47:14.070Z",
  "devdoc": {
    "kind": "dev",
    "methods": {
      "owner()": {
        "details": "Returns the address of the current owner."
      },
      "renounceOwnership()": {
        "details": "Leaves the contract without owner. It will not be possible to call `onlyOwner` functions anymore. Can only be called by the current owner. NOTE: Renouncing ownership will leave the contract without an owner, thereby removing any functionality that is only available to the owner."
      },
      "transferOwnership(address)": {
        "details": "Transfers ownership of the contract to a new account (`newOwner`). Can only be called by the current owner."
      }
    },
    "version": 1
  },
  "userdoc": {
    "kind": "user",
    "methods": {},
    "version": 1
  }
}