{
  "contractName": "School",
  "abi": [
    {
      "inputs": [],
      "stateMutability": "nonpayable",
      "type": "constructor"
    },
    {
      "anonymous": false,
      "inputs": [
        {
          "indexed": true,
          "internalType": "address",
          "name": "previousOwner",
          "type": "address"
        },
        {
          "indexed": true,
          "internalType": "address",
          "name": "newOwner",
          "type": "address"
        }
      ],
      "name": "OwnershipTransferred",
      "type": "event"
    },
    {
      "inputs": [],
      "name": "canGetNftGraduation",
      "outputs": [
        {
          "internalType": "bool",
          "name": "",
          "type": "bool"
        }
      ],
      "stateMutability": "view",
      "type": "function"
    },
    {
      "inputs": [],
      "name": "canRegistered",
      "outputs": [
        {
          "internalType": "bool",
          "name": "",
          "type": "bool"
        }
      ],
      "stateMutability": "view",
      "type": "function"
    },
    {
      "inputs": [],
      "name": "owner",
      "outputs": [
        {
          "internalType": "address",
          "name": "",
          "type": "address"
        }
      ],
      "stateMutability": "view",
      "type": "function"
    },
    {
      "inputs": [],
      "name": "renounceOwnership",
      "outputs": [],
      "stateMutability": "nonpayable",
      "type": "function"
    },
    {
      "inputs": [
        {
          "internalType": "address",
          "name": "newOwner",
          "type": "address"
        }
      ],
      "name": "transferOwnership",
      "outputs": [],
      "stateMutability": "nonpayable",
      "type": "function"
    },
    {
      "inputs": [
        {
          "internalType": "uint256[]",
          "name": "courseGroupIds",
          "type": "uint256[]"
        },
        {
          "internalType": "uint256[]",
          "name": "credits",
          "type": "uint256[]"
        }
      ],
      "name": "initialize",
      "outputs": [],
      "stateMutability": "nonpayable",
      "type": "function"
    },
    {
      "inputs": [],
      "name": "getAllRequirements",
      "outputs": [
        {
          "components": [
            {
              "internalType": "uint256",
              "name": "courseGroupId",
              "type": "uint256"
            },
            {
              "internalType": "uint256",
              "name": "credits",
              "type": "uint256"
            }
          ],
          "internalType": "struct Type.Requirement[]",
          "name": "requirements",
          "type": "tuple[]"
        }
      ],
      "stateMutability": "view",
      "type": "function"
    },
    {
      "inputs": [],
      "name": "getAllRegisteredTeachers",
      "outputs": [
        {
          "components": [
            {
              "internalType": "uint256",
              "name": "registeredDate",
              "type": "uint256"
            },
            {
              "internalType": "address",
              "name": "registeredAddress",
              "type": "address"
            },
            {
              "internalType": "string",
              "name": "metadata",
              "type": "string"
            }
          ],
          "internalType": "struct School.Teacher[]",
          "name": "",
          "type": "tuple[]"
        }
      ],
      "stateMutability": "view",
      "type": "function"
    },
    {
      "inputs": [],
      "name": "getAllApprovedTeachers",
      "outputs": [
        {
          "components": [
            {
              "internalType": "uint256",
              "name": "registeredDate",
              "type": "uint256"
            },
            {
              "internalType": "address",
              "name": "registeredAddress",
              "type": "address"
            },
            {
              "internalType": "string",
              "name": "metadata",
              "type": "string"
            }
          ],
          "internalType": "struct School.Teacher[]",
          "name": "",
          "type": "tuple[]"
        }
      ],
      "stateMutability": "view",
      "type": "function"
    },
    {
      "inputs": [],
      "name": "getAllCourses",
      "outputs": [
        {
          "components": [
            {
              "internalType": "uint256",
              "name": "id",
              "type": "uint256"
            },
            {
              "internalType": "address",
              "name": "teacherAddress",
              "type": "address"
            },
            {
              "internalType": "uint256",
              "name": "credits",
              "type": "uint256"
            },
            {
              "internalType": "uint256",
              "name": "nftCounts",
              "type": "uint256"
            },
            {
              "internalType": "uint256",
              "name": "courseGroup",
              "type": "uint256"
            },
            {
              "internalType": "string",
              "name": "metadata",
              "type": "string"
            },
            {
              "internalType": "enum Type.CourseStatus",
              "name": "status",
              "type": "uint8"
            }
          ],
          "internalType": "struct Type.Course[]",
          "name": "",
          "type": "tuple[]"
        }
      ],
      "stateMutability": "view",
      "type": "function"
    },
    {
      "inputs": [
        {
          "internalType": "uint256",
          "name": "courseId",
          "type": "uint256"
        }
      ],
      "name": "getCourse",
      "outputs": [
        {
          "components": [
            {
              "internalType": "uint256",
              "name": "id",
              "type": "uint256"
            },
            {
              "internalType": "address",
              "name": "teacherAddress",
              "type": "address"
            },
            {
              "internalType": "uint256",
              "name": "credits",
              "type": "uint256"
            },
            {
              "internalType": "uint256",
              "name": "nftCounts",
              "type": "uint256"
            },
            {
              "internalType": "uint256",
              "name": "courseGroup",
              "type": "uint256"
            },
            {
              "internalType": "string",
              "name": "metadata",
              "type": "string"
            },
            {
              "internalType": "enum Type.CourseStatus",
              "name": "status",
              "type": "uint8"
            }
          ],
          "internalType": "struct Type.Course",
          "name": "",
          "type": "tuple"
        }
      ],
      "stateMutability": "view",
      "type": "function"
    },
    {
      "inputs": [
        {
          "internalType": "uint256",
          "name": "courseId",
          "type": "uint256"
        }
      ],
      "name": "teacherAddressOf",
      "outputs": [
        {
          "internalType": "address",
          "name": "",
          "type": "address"
        }
      ],
      "stateMutability": "view",
      "type": "function"
    },
    {
      "inputs": [
        {
          "internalType": "string",
          "name": "metadata",
          "type": "string"
        }
      ],
      "name": "registerTeacher",
      "outputs": [],
      "stateMutability": "nonpayable",
      "type": "function"
    },
    {
      "inputs": [
        {
          "internalType": "address",
          "name": "teacherAddress",
          "type": "address"
        }
      ],
      "name": "approveTeacher",
      "outputs": [],
      "stateMutability": "nonpayable",
      "type": "function"
    },
    {
      "inputs": [
        {
          "internalType": "address",
          "name": "teacherAddress",
          "type": "address"
        }
      ],
      "name": "removeTeacher",
      "outputs": [],
      "stateMutability": "nonpayable",
      "type": "function"
    },
    {
      "inputs": [
        {
          "internalType": "address",
          "name": "teacherAddress",
          "type": "address"
        }
      ],
      "name": "rejectTeacher",
      "outputs": [],
      "stateMutability": "nonpayable",
      "type": "function"
    },
    {
      "inputs": [
        {
          "internalType": "address",
          "name": "teacherAddress",
          "type": "address"
        },
        {
          "internalType": "uint256",
          "name": "credits",
          "type": "uint256"
        },
        {
          "internalType": "uint256",
          "name": "nftCounts",
          "type": "uint256"
        },
        {
          "internalType": "uint256",
          "name": "courseGroupId",
          "type": "uint256"
        },
        {
          "internalType": "string",
          "name": "metadata",
          "type": "string"
        }
      ],
      "name": "createCourse",
      "outputs": [
        {
          "internalType": "uint256",
          "name": "",
          "type": "uint256"
        }
      ],
      "stateMutability": "nonpayable",
      "type": "function"
    },
    {
      "inputs": [
        {
          "internalType": "uint256",
          "name": "courseId",
          "type": "uint256"
        }
      ],
      "name": "completeCourse",
      "outputs": [],
      "stateMutability": "nonpayable",
      "type": "function"
    }
  ],
  "bytecode": "0x60806040526064600060146101000a81548160ff021916908360ff1602179055503480156200002d57600080fd5b506200004e620000426200005460201b60201c565b6200005c60201b60201c565b62000120565b600033905090565b60008060009054906101000a900473ffffffffffffffffffffffffffffffffffffffff169050816000806101000a81548173ffffffffffffffffffffffffffffffffffffffff021916908373ffffffffffffffffffffffffffffffffffffffff1602179055508173ffffffffffffffffffffffffffffffffffffffff168173ffffffffffffffffffffffffffffffffffffffff167f8be0079c531659141344cd1fd0a4f28419497f9722a3daafe3b4186f6b6457e060405160405180910390a35050565b613a1f80620001306000396000f3fe608060405234801561001057600080fd5b50600436106101165760003560e01c80638da5cb5b116100a2578063b8396dfd11610071578063b8396dfd146102bb578063bb4b2443146102d9578063d44c5371146102f5578063f2fde38b14610311578063f7824ac71461032d57610116565b80638da5cb5b146102315780639c9fa1381461024f5780639d79ce091461027f578063ae23977a1461029d57610116565b80630d3b4292116100e95780630d3b4292146101b757806345d8a326146101d357806352ff6846146101ef578063715018a61461020b57806387862b7c1461021557610116565b8063038ad2d81461011b57806304e48bd1146101395780630ac3a174146101575780630b91e28d14610187575b600080fd5b61012361034b565b60405161013091906124cb565b60405180910390f35b61014161035e565b60405161014e91906127ae565b60405180910390f35b610171600480360381019061016c9190612810565b610508565b60405161017e919061284c565b60405180910390f35b6101a1600480360381019061019c9190612810565b610523565b6040516101ae9190612903565b60405180910390f35b6101d160048036038101906101cc9190612810565b61072b565b005b6101ed60048036038101906101e89190612951565b61080e565b005b61020960048036038101906102049190612951565b610e61565b005b6102136111ff565b005b61022f600480360381019061022a9190612951565b611213565b005b6102396115b1565b604051610246919061284c565b60405180910390f35b61026960048036038101906102649190612ab3565b6115da565b6040516102769190612b59565b60405180910390f35b61028761193a565b60405161029491906124cb565b60405180910390f35b6102a561194d565b6040516102b29190612c52565b60405180910390f35b6102c36119c0565b6040516102d09190612d86565b60405180910390f35b6102f360048036038101906102ee9190612e70565b611b11565b005b61030f600480360381019061030a9190612ee8565b611ce5565b005b61032b60048036038101906103269190612951565b61201e565b005b6103356120a1565b6040516103429190612d86565b60405180910390f35b600060179054906101000a900460ff1681565b60606005805480602002602001604051908101604052809291908181526020016000905b828210156104ff57838290600052602060002090600702016040518060e0016040529081600082015481526020016001820160009054906101000a900473ffffffffffffffffffffffffffffffffffffffff1673ffffffffffffffffffffffffffffffffffffffff1673ffffffffffffffffffffffffffffffffffffffff16815260200160028201548152602001600382015481526020016004820154815260200160058201805461043390612f60565b80601f016020809104026020016040519081016040528092919081815260200182805461045f90612f60565b80156104ac5780601f10610481576101008083540402835291602001916104ac565b820191906000526020600020905b81548152906001019060200180831161048f57829003601f168201915b505050505081526020016006820160009054906101000a900460ff1660018111156104da576104d9612605565b5b60018111156104ec576104eb612605565b5b8152505081526020019060010190610382565b50505050905090565b60008061051483610523565b90508060200151915050919050565b61052b612368565b6000600660008481526020019081526020016000205411610581576040517f08c379a000000000000000000000000000000000000000000000000000000000815260040161057890612fee565b60405180910390fd5b600060066000848152602001908152602001600020549050600060056001836105aa919061303d565b815481106105bb576105ba613071565b5b90600052602060002090600702016040518060e0016040529081600082015481526020016001820160009054906101000a900473ffffffffffffffffffffffffffffffffffffffff1673ffffffffffffffffffffffffffffffffffffffff1673ffffffffffffffffffffffffffffffffffffffff16815260200160028201548152602001600382015481526020016004820154815260200160058201805461066290612f60565b80601f016020809104026020016040519081016040528092919081815260200182805461068e90612f60565b80156106db5780601f106106b0576101008083540402835291602001916106db565b820191906000526020600020905b8154815290600101906020018083116106be57829003601f168201915b505050505081526020016006820160009054906101000a900460ff16600181111561070957610708612605565b5b600181111561071b5761071a612605565b5b8152505090508092505050919050565b80600073ffffffffffffffffffffffffffffffffffffffff1661074d82610508565b73ffffffffffffffffffffffffffffffffffffffff16146107a3576040517f08c379a000000000000000000000000000000000000000000000000000000000815260040161079a906130ec565b60405180910390fd5b6000600660008481526020019081526020016000205490506001600582815481106107d1576107d0613071565b5b906000526020600020906007020160060160006101000a81548160ff0219169083600181111561080457610803612605565b5b0217905550505050565b6108166121fa565b6000600c60008373ffffffffffffffffffffffffffffffffffffffff1673ffffffffffffffffffffffffffffffffffffffff1681526020019081526020016000205414610898576040517f08c379a000000000000000000000000000000000000000000000000000000000815260040161088f90613158565b60405180910390fd5b6000600b60008373ffffffffffffffffffffffffffffffffffffffff1673ffffffffffffffffffffffffffffffffffffffff168152602001908152602001600020541161091a576040517f08c379a0000000000000000000000000000000000000000000000000000000008152600401610911906131c4565b60405180910390fd5b6000600b60008373ffffffffffffffffffffffffffffffffffffffff1673ffffffffffffffffffffffffffffffffffffffff1681526020019081526020016000205490506000600980549050905060006009600184610979919061303d565b8154811061098a57610989613071565b5b9060005260206000209060030201604051806060016040529081600082015481526020016001820160009054906101000a900473ffffffffffffffffffffffffffffffffffffffff1673ffffffffffffffffffffffffffffffffffffffff1673ffffffffffffffffffffffffffffffffffffffff168152602001600282018054610a1390612f60565b80601f0160208091040260200160405190810160405280929190818152602001828054610a3f90612f60565b8015610a8c5780601f10610a6157610100808354040283529160200191610a8c565b820191906000526020600020905b815481529060010190602001808311610a6f57829003601f168201915b5050505050815250509050818314610cb75760006009600184610aaf919061303d565b81548110610ac057610abf613071565b5b9060005260206000209060030201604051806060016040529081600082015481526020016001820160009054906101000a900473ffffffffffffffffffffffffffffffffffffffff1673ffffffffffffffffffffffffffffffffffffffff1673ffffffffffffffffffffffffffffffffffffffff168152602001600282018054610b4990612f60565b80601f0160208091040260200160405190810160405280929190818152602001828054610b7590612f60565b8015610bc25780601f10610b9757610100808354040283529160200191610bc2565b820191906000526020600020905b815481529060010190602001808311610ba557829003601f168201915b5050505050815250509050806009600186610bdd919061303d565b81548110610bee57610bed613071565b5b90600052602060002090600302016000820151816000015560208201518160010160006101000a81548173ffffffffffffffffffffffffffffffffffffffff021916908373ffffffffffffffffffffffffffffffffffffffff1602179055506040820151816002019080519060200190610c699291906123cd565b5090505083600b6000836020015173ffffffffffffffffffffffffffffffffffffffff1673ffffffffffffffffffffffffffffffffffffffff16815260200190815260200160002081905550505b600b60008573ffffffffffffffffffffffffffffffffffffffff1673ffffffffffffffffffffffffffffffffffffffff168152602001908152602001600020600090556009805480610d0c57610d0b6131e4565b5b60019003818190600052602060002090600302016000808201600090556001820160006101000a81549073ffffffffffffffffffffffffffffffffffffffff0219169055600282016000610d609190612453565b505090556000600a805490509050600181610d7b9190613213565b600c60008773ffffffffffffffffffffffffffffffffffffffff1673ffffffffffffffffffffffffffffffffffffffff16815260200190815260200160002081905550600a8290806001815401808255809150506001900390600052602060002090600302016000909190919091506000820151816000015560208201518160010160006101000a81548173ffffffffffffffffffffffffffffffffffffffff021916908373ffffffffffffffffffffffffffffffffffffffff1602179055506040820151816002019080519060200190610e579291906123cd565b5050505050505050565b610e696121fa565b6000600c60008373ffffffffffffffffffffffffffffffffffffffff1673ffffffffffffffffffffffffffffffffffffffff1681526020019081526020016000205411610eeb576040517f08c379a0000000000000000000000000000000000000000000000000000000008152600401610ee2906132b5565b60405180910390fd5b6000600c60008373ffffffffffffffffffffffffffffffffffffffff1673ffffffffffffffffffffffffffffffffffffffff1681526020019081526020016000205490506000600a80549050905080821461114d576000600a8281548110610f5657610f55613071565b5b9060005260206000209060030201604051806060016040529081600082015481526020016001820160009054906101000a900473ffffffffffffffffffffffffffffffffffffffff1673ffffffffffffffffffffffffffffffffffffffff1673ffffffffffffffffffffffffffffffffffffffff168152602001600282018054610fdf90612f60565b80601f016020809104026020016040519081016040528092919081815260200182805461100b90612f60565b80156110585780601f1061102d57610100808354040283529160200191611058565b820191906000526020600020905b81548152906001019060200180831161103b57829003601f168201915b505050505081525050905080600a600185611073919061303d565b8154811061108457611083613071565b5b90600052602060002090600302016000820151816000015560208201518160010160006101000a81548173ffffffffffffffffffffffffffffffffffffffff021916908373ffffffffffffffffffffffffffffffffffffffff16021790555060408201518160020190805190602001906110ff9291906123cd565b5090505082600c6000836020015173ffffffffffffffffffffffffffffffffffffffff1673ffffffffffffffffffffffffffffffffffffffff16815260200190815260200160002081905550505b600c60008473ffffffffffffffffffffffffffffffffffffffff1673ffffffffffffffffffffffffffffffffffffffff16815260200190815260200160002060009055600a8054806111a2576111a16131e4565b5b60019003818190600052602060002090600302016000808201600090556001820160006101000a81549073ffffffffffffffffffffffffffffffffffffffff02191690556002820160006111f69190612453565b50509055505050565b6112076121fa565b6112116000612278565b565b61121b6121fa565b6000600b60008373ffffffffffffffffffffffffffffffffffffffff1673ffffffffffffffffffffffffffffffffffffffff168152602001908152602001600020541161129d576040517f08c379a0000000000000000000000000000000000000000000000000000000008152600401611294906132b5565b60405180910390fd5b6000600b60008373ffffffffffffffffffffffffffffffffffffffff1673ffffffffffffffffffffffffffffffffffffffff168152602001908152602001600020549050600060098054905090508082146114ff5760006009828154811061130857611307613071565b5b9060005260206000209060030201604051806060016040529081600082015481526020016001820160009054906101000a900473ffffffffffffffffffffffffffffffffffffffff1673ffffffffffffffffffffffffffffffffffffffff1673ffffffffffffffffffffffffffffffffffffffff16815260200160028201805461139190612f60565b80601f01602080910402602001604051908101604052809291908181526020018280546113bd90612f60565b801561140a5780601f106113df5761010080835404028352916020019161140a565b820191906000526020600020905b8154815290600101906020018083116113ed57829003601f168201915b5050505050815250509050806009600185611425919061303d565b8154811061143657611435613071565b5b90600052602060002090600302016000820151816000015560208201518160010160006101000a81548173ffffffffffffffffffffffffffffffffffffffff021916908373ffffffffffffffffffffffffffffffffffffffff16021790555060408201518160020190805190602001906114b19291906123cd565b5090505082600b6000836020015173ffffffffffffffffffffffffffffffffffffffff1673ffffffffffffffffffffffffffffffffffffffff16815260200190815260200160002081905550505b600b60008473ffffffffffffffffffffffffffffffffffffffff1673ffffffffffffffffffffffffffffffffffffffff168152602001908152602001600020600090556009805480611554576115536131e4565b5b60019003818190600052602060002090600302016000808201600090556001820160006101000a81549073ffffffffffffffffffffffffffffffffffffffff02191690556002820160006115a89190612453565b50509055505050565b60008060009054906101000a900473ffffffffffffffffffffffffffffffffffffffff16905090565b60006115e46121fa565b600060159054906101000a900460ff16611633576040517f08c379a000000000000000000000000000000000000000000000000000000000815260040161162a90613347565b60405180910390fd5b6000600c60008873ffffffffffffffffffffffffffffffffffffffff1673ffffffffffffffffffffffffffffffffffffffff16815260200190815260200160002054116116b5576040517f08c379a00000000000000000000000000000000000000000000000000000000081526004016116ac906133d9565b60405180910390fd5b600060026000858152602001908152602001600020541161170b576040517f08c379a000000000000000000000000000000000000000000000000000000000815260040161170290613445565b60405180910390fd5b6000851161174e576040517f08c379a0000000000000000000000000000000000000000000000000000000008152600401611745906134d7565b60405180910390fd5b60008411611791576040517f08c379a000000000000000000000000000000000000000000000000000000000815260040161178890613569565b60405180910390fd5b61179b600361233c565b6117a5600461233c565b60006117b16004612352565b90506000600580549050905060006040518060e001604052808481526020018a73ffffffffffffffffffffffffffffffffffffffff1681526020018981526020018881526020018781526020018681526020016000600181111561181857611817612605565b5b815250905060018261182a9190613213565b600660008581526020019081526020016000208190555060058190806001815401808255809150506001900390600052602060002090600702016000909190919091506000820151816000015560208201518160010160006101000a81548173ffffffffffffffffffffffffffffffffffffffff021916908373ffffffffffffffffffffffffffffffffffffffff16021790555060408201518160020155606082015181600301556080820151816004015560a08201518160050190805190602001906118f89291906123cd565b5060c08201518160060160006101000a81548160ff0219169083600181111561192457611923612605565b5b0217905550505082935050505095945050505050565b600060169054906101000a900460ff1681565b60606001805480602002602001604051908101604052809291908181526020016000905b828210156119b757838290600052602060002090600202016040518060400160405290816000820154815260200160018201548152505081526020019060010190611971565b50505050905090565b6060600a805480602002602001604051908101604052809291908181526020016000905b82821015611b085783829060005260206000209060030201604051806060016040529081600082015481526020016001820160009054906101000a900473ffffffffffffffffffffffffffffffffffffffff1673ffffffffffffffffffffffffffffffffffffffff1673ffffffffffffffffffffffffffffffffffffffff168152602001600282018054611a7790612f60565b80601f0160208091040260200160405190810160405280929190818152602001828054611aa390612f60565b8015611af05780601f10611ac557610100808354040283529160200191611af0565b820191906000526020600020905b815481529060010190602001808311611ad357829003601f168201915b505050505081525050815260200190600101906119e4565b50505050905090565b611b196121fa565b8051825114611b5d576040517f08c379a0000000000000000000000000000000000000000000000000000000008152600401611b54906135d5565b60405180910390fd5b60008251905060005b81811015611c8e576001838281518110611b8357611b82613071565b5b60200260200101511015611bcc576040517f08c379a0000000000000000000000000000000000000000000000000000000008152600401611bc390613641565b60405180910390fd5b60006040518060400160405280868481518110611bec57611beb613071565b5b60200260200101518152602001858481518110611c0c57611c0b613071565b5b602002602001015181525090506001819080600181540180825580915050600190039060005260206000209060020201600090919091909150600082015181600001556020820151816001015550506001805490506002600083600001518152602001908152602001600020819055505080611c8790613661565b9050611b66565b506001600060156101000a81548160ff0219169083151502179055506001600060166101000a81548160ff0219169083151502179055506001600060176101000a81548160ff021916908315150217905550505050565b600060169054906101000a900460ff16611d34576040517f08c379a0000000000000000000000000000000000000000000000000000000008152600401611d2b906136f5565b60405180910390fd5b611d3c6115b1565b73ffffffffffffffffffffffffffffffffffffffff163373ffffffffffffffffffffffffffffffffffffffff1603611da9576040517f08c379a0000000000000000000000000000000000000000000000000000000008152600401611da090613761565b60405180910390fd5b6000600b60003373ffffffffffffffffffffffffffffffffffffffff1673ffffffffffffffffffffffffffffffffffffffff1681526020019081526020016000205414611e2b576040517f08c379a0000000000000000000000000000000000000000000000000000000008152600401611e22906137cd565b60405180910390fd5b6000600c60003373ffffffffffffffffffffffffffffffffffffffff1673ffffffffffffffffffffffffffffffffffffffff1681526020019081526020016000205414611ead576040517f08c379a0000000000000000000000000000000000000000000000000000000008152600401611ea490613839565b60405180910390fd5b600060149054906101000a900460ff1660ff1660098054905010611f06576040517f08c379a0000000000000000000000000000000000000000000000000000000008152600401611efd906138cb565b60405180910390fd5b600960405180606001604052804281526020013373ffffffffffffffffffffffffffffffffffffffff1681526020018381525090806001815401808255809150506001900390600052602060002090600302016000909190919091506000820151816000015560208201518160010160006101000a81548173ffffffffffffffffffffffffffffffffffffffff021916908373ffffffffffffffffffffffffffffffffffffffff1602179055506040820151816002019080519060200190611fcf9291906123cd565b505050600980549050600b60003373ffffffffffffffffffffffffffffffffffffffff1673ffffffffffffffffffffffffffffffffffffffff1681526020019081526020016000208190555050565b6120266121fa565b600073ffffffffffffffffffffffffffffffffffffffff168173ffffffffffffffffffffffffffffffffffffffff1603612095576040517f08c379a000000000000000000000000000000000000000000000000000000000815260040161208c9061395d565b60405180910390fd5b61209e81612278565b50565b60606120ab6121fa565b6009805480602002602001604051908101604052809291908181526020016000905b828210156121f15783829060005260206000209060030201604051806060016040529081600082015481526020016001820160009054906101000a900473ffffffffffffffffffffffffffffffffffffffff1673ffffffffffffffffffffffffffffffffffffffff1673ffffffffffffffffffffffffffffffffffffffff16815260200160028201805461216090612f60565b80601f016020809104026020016040519081016040528092919081815260200182805461218c90612f60565b80156121d95780601f106121ae576101008083540402835291602001916121d9565b820191906000526020600020905b8154815290600101906020018083116121bc57829003601f168201915b505050505081525050815260200190600101906120cd565b50505050905090565b612202612360565b73ffffffffffffffffffffffffffffffffffffffff166122206115b1565b73ffffffffffffffffffffffffffffffffffffffff1614612276576040517f08c379a000000000000000000000000000000000000000000000000000000000815260040161226d906139c9565b60405180910390fd5b565b60008060009054906101000a900473ffffffffffffffffffffffffffffffffffffffff169050816000806101000a81548173ffffffffffffffffffffffffffffffffffffffff021916908373ffffffffffffffffffffffffffffffffffffffff1602179055508173ffffffffffffffffffffffffffffffffffffffff168173ffffffffffffffffffffffffffffffffffffffff167f8be0079c531659141344cd1fd0a4f28419497f9722a3daafe3b4186f6b6457e060405160405180910390a35050565b6001816000016000828254019250508190555050565b600081600001549050919050565b600033905090565b6040518060e0016040528060008152602001600073ffffffffffffffffffffffffffffffffffffffff16815260200160008152602001600081526020016000815260200160608152602001600060018111156123c7576123c6612605565b5b81525090565b8280546123d990612f60565b90600052602060002090601f0160209004810192826123fb5760008555612442565b82601f1061241457805160ff1916838001178555612442565b82800160010185558215612442579182015b82811115612441578251825591602001919060010190612426565b5b50905061244f9190612493565b5090565b50805461245f90612f60565b6000825580601f106124715750612490565b601f01602090049060005260206000209081019061248f9190612493565b5b50565b5b808211156124ac576000816000905550600101612494565b5090565b60008115159050919050565b6124c5816124b0565b82525050565b60006020820190506124e060008301846124bc565b92915050565b600081519050919050565b600082825260208201905092915050565b6000819050602082019050919050565b6000819050919050565b61252581612512565b82525050565b600073ffffffffffffffffffffffffffffffffffffffff82169050919050565b60006125568261252b565b9050919050565b6125668161254b565b82525050565b600081519050919050565b600082825260208201905092915050565b60005b838110156125a657808201518184015260208101905061258b565b838111156125b5576000848401525b50505050565b6000601f19601f8301169050919050565b60006125d78261256c565b6125e18185612577565b93506125f1818560208601612588565b6125fa816125bb565b840191505092915050565b7f4e487b7100000000000000000000000000000000000000000000000000000000600052602160045260246000fd5b6002811061264557612644612605565b5b50565b600081905061265682612634565b919050565b600061266682612648565b9050919050565b6126768161265b565b82525050565b600060e083016000830151612694600086018261251c565b5060208301516126a7602086018261255d565b5060408301516126ba604086018261251c565b5060608301516126cd606086018261251c565b5060808301516126e0608086018261251c565b5060a083015184820360a08601526126f882826125cc565b91505060c083015161270d60c086018261266d565b508091505092915050565b6000612724838361267c565b905092915050565b6000602082019050919050565b6000612744826124e6565b61274e81856124f1565b93508360208202850161276085612502565b8060005b8581101561279c578484038952815161277d8582612718565b94506127888361272c565b925060208a01995050600181019050612764565b50829750879550505050505092915050565b600060208201905081810360008301526127c88184612739565b905092915050565b6000604051905090565b600080fd5b600080fd5b6127ed81612512565b81146127f857600080fd5b50565b60008135905061280a816127e4565b92915050565b600060208284031215612826576128256127da565b5b6000612834848285016127fb565b91505092915050565b6128468161254b565b82525050565b6000602082019050612861600083018461283d565b92915050565b600060e08301600083015161287f600086018261251c565b506020830151612892602086018261255d565b5060408301516128a5604086018261251c565b5060608301516128b8606086018261251c565b5060808301516128cb608086018261251c565b5060a083015184820360a08601526128e382826125cc565b91505060c08301516128f860c086018261266d565b508091505092915050565b6000602082019050818103600083015261291d8184612867565b905092915050565b61292e8161254b565b811461293957600080fd5b50565b60008135905061294b81612925565b92915050565b600060208284031215612967576129666127da565b5b60006129758482850161293c565b91505092915050565b600080fd5b600080fd5b7f4e487b7100000000000000000000000000000000000000000000000000000000600052604160045260246000fd5b6129c0826125bb565b810181811067ffffffffffffffff821117156129df576129de612988565b5b80604052505050565b60006129f26127d0565b90506129fe82826129b7565b919050565b600067ffffffffffffffff821115612a1e57612a1d612988565b5b612a27826125bb565b9050602081019050919050565b82818337600083830152505050565b6000612a56612a5184612a03565b6129e8565b905082815260208101848484011115612a7257612a71612983565b5b612a7d848285612a34565b509392505050565b600082601f830112612a9a57612a9961297e565b5b8135612aaa848260208601612a43565b91505092915050565b600080600080600060a08688031215612acf57612ace6127da565b5b6000612add8882890161293c565b9550506020612aee888289016127fb565b9450506040612aff888289016127fb565b9350506060612b10888289016127fb565b925050608086013567ffffffffffffffff811115612b3157612b306127df565b5b612b3d88828901612a85565b9150509295509295909350565b612b5381612512565b82525050565b6000602082019050612b6e6000830184612b4a565b92915050565b600081519050919050565b600082825260208201905092915050565b6000819050602082019050919050565b604082016000820151612bb6600085018261251c565b506020820151612bc9602085018261251c565b50505050565b6000612bdb8383612ba0565b60408301905092915050565b6000602082019050919050565b6000612bff82612b74565b612c098185612b7f565b9350612c1483612b90565b8060005b83811015612c45578151612c2c8882612bcf565b9750612c3783612be7565b925050600181019050612c18565b5085935050505092915050565b60006020820190508181036000830152612c6c8184612bf4565b905092915050565b600081519050919050565b600082825260208201905092915050565b6000819050602082019050919050565b6000606083016000830151612cb8600086018261251c565b506020830151612ccb602086018261255d565b5060408301518482036040860152612ce382826125cc565b9150508091505092915050565b6000612cfc8383612ca0565b905092915050565b6000602082019050919050565b6000612d1c82612c74565b612d268185612c7f565b935083602082028501612d3885612c90565b8060005b85811015612d745784840389528151612d558582612cf0565b9450612d6083612d04565b925060208a01995050600181019050612d3c565b50829750879550505050505092915050565b60006020820190508181036000830152612da08184612d11565b905092915050565b600067ffffffffffffffff821115612dc357612dc2612988565b5b602082029050602081019050919050565b600080fd5b6000612dec612de784612da8565b6129e8565b90508083825260208201905060208402830185811115612e0f57612e0e612dd4565b5b835b81811015612e385780612e2488826127fb565b845260208401935050602081019050612e11565b5050509392505050565b600082601f830112612e5757612e5661297e565b5b8135612e67848260208601612dd9565b91505092915050565b60008060408385031215612e8757612e866127da565b5b600083013567ffffffffffffffff811115612ea557612ea46127df565b5b612eb185828601612e42565b925050602083013567ffffffffffffffff811115612ed257612ed16127df565b5b612ede85828601612e42565b9150509250929050565b600060208284031215612efe57612efd6127da565b5b600082013567ffffffffffffffff811115612f1c57612f1b6127df565b5b612f2884828501612a85565b91505092915050565b7f4e487b7100000000000000000000000000000000000000000000000000000000600052602260045260246000fd5b60006002820490506001821680612f7857607f821691505b602082108103612f8b57612f8a612f31565b5b50919050565b600082825260208201905092915050565b7f436f75727365206973206e6f7420657869737400000000000000000000000000600082015250565b6000612fd8601383612f91565b9150612fe382612fa2565b602082019050919050565b6000602082019050818103600083015261300781612fcb565b9050919050565b7f4e487b7100000000000000000000000000000000000000000000000000000000600052601160045260246000fd5b600061304882612512565b915061305383612512565b9250828210156130665761306561300e565b5b828203905092915050565b7f4e487b7100000000000000000000000000000000000000000000000000000000600052603260045260246000fd5b7f6163636573732064656e69656400000000000000000000000000000000000000600082015250565b60006130d6600d83612f91565b91506130e1826130a0565b602082019050919050565b60006020820190508181036000830152613105816130c9565b9050919050565b7f5465616368657220686173206265656e20617070726f76656400000000000000600082015250565b6000613142601983612f91565b915061314d8261310c565b602082019050919050565b6000602082019050818103600083015261317181613135565b9050919050565b7f5465616368657220686173206e6f74206265656e207265676973746572656400600082015250565b60006131ae601f83612f91565b91506131b982613178565b602082019050919050565b600060208201905081810360008301526131dd816131a1565b9050919050565b7f4e487b7100000000000000000000000000000000000000000000000000000000600052603160045260246000fd5b600061321e82612512565b915061322983612512565b9250827fffffffffffffffffffffffffffffffffffffffffffffffffffffffffffffffff0382111561325e5761325d61300e565b5b828201905092915050565b7f5465616368657220646f65736e27742065786973740000000000000000000000600082015250565b600061329f601583612f91565b91506132aa82613269565b602082019050919050565b600060208201905081810360008301526132ce81613292565b9050919050565b7f436f6e747261637420686176656e2774206265656e20696e697469616c697a6560008201527f6420796574000000000000000000000000000000000000000000000000000000602082015250565b6000613331602583612f91565b915061333c826132d5565b604082019050919050565b6000602082019050818103600083015261336081613324565b9050919050565b7f54656163686572206d757374207265676973746572206265666f72652061737360008201527f69676e6d656e7400000000000000000000000000000000000000000000000000602082015250565b60006133c3602783612f91565b91506133ce82613367565b604082019050919050565b600060208201905081810360008301526133f2816133b6565b9050919050565b7f436f757273652047726f757020697320696e76616c6964000000000000000000600082015250565b600061342f601783612f91565b915061343a826133f9565b602082019050919050565b6000602082019050818103600083015261345e81613422565b9050919050565b7f43726564697473206d757374206265206120706f736974697665206e756d626560008201527f7200000000000000000000000000000000000000000000000000000000000000602082015250565b60006134c1602183612f91565b91506134cc82613465565b604082019050919050565b600060208201905081810360008301526134f0816134b4565b9050919050565b7f4e667420436f756e74206d757374206265206120706f736974697665206e756d60008201527f6265720000000000000000000000000000000000000000000000000000000000602082015250565b6000613553602383612f91565b915061355e826134f7565b604082019050919050565b6000602082019050818103600083015261358281613546565b9050919050565b7f496e76616c696420696e70757400000000000000000000000000000000000000600082015250565b60006135bf600d83612f91565b91506135ca82613589565b602082019050919050565b600060208201905081810360008301526135ee816135b2565b9050919050565b7f496e76616c6964206372656469747320696e7075740000000000000000000000600082015250565b600061362b601583612f91565b9150613636826135f5565b602082019050919050565b6000602082019050818103600083015261365a8161361e565b9050919050565b600061366c82612512565b91507fffffffffffffffffffffffffffffffffffffffffffffffffffffffffffffffff820361369e5761369d61300e565b5b600182019050919050565b7f49742773206e6f742074696d6520746f20726567697374657200000000000000600082015250565b60006136df601983612f91565b91506136ea826136a9565b602082019050919050565b6000602082019050818103600083015261370e816136d2565b9050919050565b7f4f776e65722063616e6e6f742072656769737465720000000000000000000000600082015250565b600061374b601583612f91565b915061375682613715565b602082019050919050565b6000602082019050818103600083015261377a8161373e565b9050919050565b7f596f752068617320726567697374657265640000000000000000000000000000600082015250565b60006137b7601283612f91565b91506137c282613781565b602082019050919050565b600060208201905081810360008301526137e6816137aa565b9050919050565b7f596f7520686173206265656e20617070726f7665640000000000000000000000600082015250565b6000613823601583612f91565b915061382e826137ed565b602082019050919050565b6000602082019050818103600083015261385281613816565b9050919050565b7f546f6f206d616e792077616974696e6720726571756573742e20506c6561736560008201527f2074727920616761696e206c617465722e000000000000000000000000000000602082015250565b60006138b5603183612f91565b91506138c082613859565b604082019050919050565b600060208201905081810360008301526138e4816138a8565b9050919050565b7f4f776e61626c653a206e6577206f776e657220697320746865207a65726f206160008201527f6464726573730000000000000000000000000000000000000000000000000000602082015250565b6000613947602683612f91565b9150613952826138eb565b604082019050919050565b600060208201905081810360008301526139768161393a565b9050919050565b7f4f776e61626c653a2063616c6c6572206973206e6f7420746865206f776e6572600082015250565b60006139b3602083612f91565b91506139be8261397d565b602082019050919050565b600060208201905081810360008301526139e2816139a6565b905091905056fea2646970667358221220493ef5cd7e1aa25fab5e140e7cc7bec02ea3adf85fd9e912958a835453bcb5f864736f6c634300080d0033",
  "immutableReferences": {},
  "source": "// SPDX-License-Identifier: MIT\r\n// Tells the Solidity compiler to compile only from v0.8.13 to v0.9.0\r\npragma solidity ^0.8.13;\r\n\r\nimport \"@openzeppelin/contracts/utils/Counters.sol\";\r\nimport \"@openzeppelin/contracts/access/Ownable.sol\";\r\nimport \"./Type.sol\";\r\n\r\ncontract School is Ownable {\r\n    using Counters for Counters.Counter;\r\n\r\n    // enum CourseType {\r\n    //     General,\r\n    //     Foundation,\r\n    //     Specialized,\r\n    //     SpecializedElective,\r\n    //     Elective\r\n    // }\r\n\r\n    struct Teacher {\r\n        uint256 registeredDate;\r\n        address registeredAddress;\r\n        string metadata;\r\n    }\r\n\r\n    uint8 private REGISTERED_TEACHER_LIMIT = 100;\r\n    bool private _isInitialized;\r\n    bool public canRegistered;\r\n    bool public canGetNftGraduation;\r\n    Type.Requirement[] private _graduationRequirements;\r\n    mapping(uint256 => uint256) private _idToGraduationRequirementIndex;\r\n \r\n    // Course\r\n    Counters.Counter private _courseCount;\r\n    Counters.Counter private _courseIds;\r\n    Type.Course[] private _allCourses;\r\n    mapping(uint256 => uint256) private _idToCourseIndex;\r\n\r\n    // Metadata = Course group\r\n    string[] private _courseGroups;\r\n    mapping(string => bool) private _registeredCourseGroups;\r\n    // Registered teacher\r\n    Teacher[] private _allRegisteredTeachers;\r\n    Teacher[] private _allApprovedTeachers;\r\n    mapping(address => uint256) private _addressToRegisteredTeacherIndex;\r\n    mapping(address => uint256) private _addressToApprovedTeacherIndex;\r\n\r\n    modifier onlyInitialized {\r\n        require(_isInitialized, \"Contract haven't been initialized yet\");\r\n        _;\r\n    }\r\n\r\n    modifier allowRegistered {\r\n        require(canRegistered, \"It's not time to register\");\r\n        _;\r\n    }\r\n\r\n    modifier allowGetNftGraduation {\r\n        require(canGetNftGraduation, \"It's not time to exchange nft graduation\");\r\n        _;\r\n    }\r\n    \r\n    modifier onlyTeacher(uint256 courseId) {\r\n        require(teacherAddressOf(courseId) == address(0), 'access denied');\r\n        _;\r\n    }\r\n    \r\n    constructor() {}\r\n\r\n    function initialize(uint256[] memory courseGroupIds, uint256[] memory credits) public onlyOwner {\r\n        require(courseGroupIds.length == credits.length, 'Invalid input');\r\n        // start, stop of year?\r\n        uint256 requirementLength = courseGroupIds.length;\r\n        for (uint256 index = 0; index < requirementLength; ++index) {\r\n            if (credits[index] < 1) {\r\n                revert('Invalid credits input');\r\n            }\r\n            Type.Requirement memory requirement = Type.Requirement(courseGroupIds[index], credits[index]);\r\n            _graduationRequirements.push(requirement);\r\n            _idToGraduationRequirementIndex[requirement.courseGroupId] = _graduationRequirements.length;\r\n        }\r\n\r\n        _isInitialized = true;\r\n        canRegistered = true;\r\n        canGetNftGraduation = true;\r\n    }\r\n\r\n    function getAllRequirements() public view returns (Type.Requirement[] memory requirements) {\r\n        return _graduationRequirements;\r\n    }\r\n\r\n    function getAllRegisteredTeachers() public view onlyOwner returns (Teacher[] memory) {\r\n        return _allRegisteredTeachers;\r\n    }\r\n\r\n    function getAllApprovedTeachers() public view returns (Teacher[] memory) {\r\n        return _allApprovedTeachers;\r\n    }\r\n\r\n    function getAllCourses() public view returns (Type.Course[] memory) {\r\n        return _allCourses;\r\n    }\r\n\r\n    function getCourse(uint256 courseId) public view returns (Type.Course memory) {\r\n        require(_idToCourseIndex[courseId] > 0, \"Course is not exist\");\r\n        uint256 courseIndex = _idToCourseIndex[courseId];\r\n        Type.Course memory course = _allCourses[courseIndex - 1];\r\n\r\n        return course;\r\n    }\r\n\r\n    /* Teacher section: start\r\n    Can create smart contract inherit ChainLink to manage teacher\r\n    */\r\n    function teacherAddressOf(uint256 courseId) public view returns (address) {\r\n        Type.Course memory course = getCourse(courseId);\r\n\r\n        return course.teacherAddress;\r\n    }\r\n\r\n    function registerTeacher(string memory metadata) public allowRegistered { // Use payable? (? Lost)\r\n        require(msg.sender != owner(), \"Owner cannot register\");\r\n        require(_addressToRegisteredTeacherIndex[msg.sender] == 0, 'You has registered');\r\n        require(_addressToApprovedTeacherIndex[msg.sender] == 0, 'You has been approved');\r\n        require(_allRegisteredTeachers.length < REGISTERED_TEACHER_LIMIT, 'Too many waiting request. Please try again later.');\r\n        // Idea:  chainlink to call recheckRegisteredTeacher() => auto reject after a while;\r\n\r\n        _allRegisteredTeachers.push(Teacher(block.timestamp, msg.sender, metadata));\r\n        _addressToRegisteredTeacherIndex[msg.sender] = _allRegisteredTeachers.length;\r\n\r\n        // EVENT\r\n    }\r\n\r\n    function approveTeacher(address teacherAddress) public onlyOwner { // Send back (? Lost)\r\n        require(_addressToApprovedTeacherIndex[teacherAddress] == 0, 'Teacher has been approved');\r\n        require(_addressToRegisteredTeacherIndex[teacherAddress] > 0, 'Teacher has not been registered');\r\n\r\n        uint256 teacherIndex = _addressToRegisteredTeacherIndex[teacherAddress];\r\n        uint256 lastTeacherIndex = _allRegisteredTeachers.length;\r\n        Teacher memory teacher = _allRegisteredTeachers[teacherIndex - 1];\r\n\r\n        // remove teacher from register list\r\n        if (teacherIndex != lastTeacherIndex) {\r\n            Teacher memory lastTeacher = _allRegisteredTeachers[lastTeacherIndex - 1];\r\n            _allRegisteredTeachers[teacherIndex - 1] = lastTeacher;\r\n            _addressToRegisteredTeacherIndex[lastTeacher.registeredAddress] = teacherIndex;\r\n        }\r\n\r\n        delete _addressToRegisteredTeacherIndex[teacherAddress];\r\n        _allRegisteredTeachers.pop();\r\n\r\n        // add teacher to approve list\r\n        uint256 currentIndex = _allApprovedTeachers.length;\r\n        _addressToApprovedTeacherIndex[teacherAddress] = currentIndex + 1;\r\n        _allApprovedTeachers.push(teacher);\r\n\r\n        // EVENT\r\n    }\r\n\r\n    function removeTeacher(address teacherAddress) public onlyOwner {\r\n        require(_addressToApprovedTeacherIndex[teacherAddress] > 0, \"Teacher doesn't exist\");\r\n        // Check if teacher currently has class?\r\n        uint256 teacherIndex = _addressToApprovedTeacherIndex[teacherAddress];\r\n        uint256 lastTeacherIndex = _allApprovedTeachers.length;\r\n\r\n        if (teacherIndex != lastTeacherIndex) {\r\n            Teacher memory lastTeacher = _allApprovedTeachers[lastTeacherIndex];\r\n            _allApprovedTeachers[teacherIndex - 1] = lastTeacher;\r\n            _addressToApprovedTeacherIndex[lastTeacher.registeredAddress] = teacherIndex;\r\n        }\r\n\r\n        delete _addressToApprovedTeacherIndex[teacherAddress];\r\n        _allApprovedTeachers.pop();\r\n\r\n        // EVENT\r\n    }\r\n\r\n    // Idea:  Use chainlink to remove registered teacher after 30 days if he/she is not registered\r\n    // function recheckRegisteredTeacher() public onlyOwner {\r\n        // require(_approvedTeacher[msg.sender].registeredDate == 0)\r\n    // }\r\n\r\n    function rejectTeacher(address teacherAddress) public onlyOwner {\r\n        // Idea: Add address to blacklist in a particular time => prevent address from registering in a while?\r\n        require(_addressToRegisteredTeacherIndex[teacherAddress] > 0, \"Teacher doesn't exist\");\r\n        uint256 teacherIndex = _addressToRegisteredTeacherIndex[teacherAddress];\r\n        uint256 lastTeacherIndex = _allRegisteredTeachers.length;\r\n\r\n        if (teacherIndex != lastTeacherIndex) {\r\n            Teacher memory lastTeacher = _allRegisteredTeachers[lastTeacherIndex];\r\n            _allRegisteredTeachers[teacherIndex - 1] = lastTeacher;\r\n            _addressToRegisteredTeacherIndex[lastTeacher.registeredAddress] = teacherIndex;\r\n        }\r\n\r\n        delete _addressToRegisteredTeacherIndex[teacherAddress];\r\n        _allRegisteredTeachers.pop();\r\n\r\n        // EVENT\r\n    }\r\n    // Teacher section: end\r\n    \r\n\r\n    function createCourse(\r\n        address teacherAddress,\r\n        uint256 credits,\r\n        uint256 nftCounts,\r\n        uint256 courseGroupId, // -> course group?\r\n        string memory metadata\r\n    ) public onlyOwner onlyInitialized returns (uint256) {\r\n        require(_addressToApprovedTeacherIndex[teacherAddress] > 0, 'Teacher must register before assignment');\r\n        require(_idToGraduationRequirementIndex[courseGroupId] > 0, 'Course Group is invalid');\r\n        require(credits > 0, 'Credits must be a positive number');\r\n        require(nftCounts > 0, 'Nft Count must be a positive number');\r\n\r\n        _courseCount.increment();\r\n        _courseIds.increment();\r\n        uint256 currentId = _courseIds.current();\r\n        uint256 currentIndex = _allCourses.length;\r\n        Type.Course memory course = Type.Course(\r\n            currentId,\r\n            teacherAddress,\r\n            credits,\r\n            nftCounts,\r\n            courseGroupId,\r\n            metadata,\r\n            Type.CourseStatus.InProgress\r\n        );\r\n\r\n        _idToCourseIndex[currentId] = currentIndex + 1;\r\n        _allCourses.push(course);\r\n\r\n        // EVENT\r\n        return currentId;\r\n    }\r\n\r\n    function completeCourse(\r\n        uint256 courseId\r\n    ) public onlyTeacher(courseId) {\r\n        uint256 courseIndex = _idToCourseIndex[courseId];\r\n        _allCourses[courseIndex].status = Type.CourseStatus.Complete;\r\n    }\r\n}\r\n",
  "sourcePath": "E:\\learn\\learn-to-earn\\contracts\\School.sol",
  "compiler": {
    "name": "solc",
    "version": "0.8.13+commit.abaa5c0e.Emscripten.clang"
  },
  "schemaVersion": "3.4.11",
  "updatedAt": "2023-03-04T06:30:54.248Z",
  "devdoc": {
    "kind": "dev",
    "methods": {
      "owner()": {
        "details": "Returns the address of the current owner."
      },
      "renounceOwnership()": {
        "details": "Leaves the contract without owner. It will not be possible to call `onlyOwner` functions anymore. Can only be called by the current owner. NOTE: Renouncing ownership will leave the contract without an owner, thereby removing any functionality that is only available to the owner."
      },
      "transferOwnership(address)": {
        "details": "Transfers ownership of the contract to a new account (`newOwner`). Can only be called by the current owner."
      }
    },
    "version": 1
  },
  "userdoc": {
    "kind": "user",
    "methods": {},
    "version": 1
  }
}